{
  "_format": "hh-sol-artifact-1",
  "contractName": "LaunchpadFactory",
  "sourceName": "contracts/LaunchpadFactory.sol",
  "abi": [
    {
      "inputs": [
        {
          "internalType": "address",
          "name": "_owner",
          "type": "address"
        }
      ],
      "stateMutability": "nonpayable",
      "type": "constructor"
    },
    {
      "inputs": [
        {
          "internalType": "address",
          "name": "owner",
          "type": "address"
        }
      ],
      "name": "OwnableInvalidOwner",
      "type": "error"
    },
    {
      "inputs": [
        {
          "internalType": "address",
          "name": "account",
          "type": "address"
        }
      ],
      "name": "OwnableUnauthorizedAccount",
      "type": "error"
    },
    {
      "anonymous": false,
      "inputs": [
        {
          "indexed": true,
          "internalType": "address",
          "name": "previousOwner",
          "type": "address"
        },
        {
          "indexed": true,
          "internalType": "address",
          "name": "newOwner",
          "type": "address"
        }
      ],
      "name": "OwnershipTransferred",
      "type": "event"
    },
    {
      "anonymous": false,
      "inputs": [
        {
          "indexed": true,
          "internalType": "address",
          "name": "token",
          "type": "address"
        },
        {
          "indexed": true,
          "internalType": "address",
          "name": "creator",
          "type": "address"
        },
        {
          "indexed": false,
          "internalType": "string",
          "name": "name",
          "type": "string"
        },
        {
          "indexed": false,
          "internalType": "string",
          "name": "symbol",
          "type": "string"
        },
        {
          "indexed": false,
          "internalType": "uint256",
          "name": "index",
          "type": "uint256"
        }
      ],
      "name": "TokenCreated",
      "type": "event"
    },
    {
      "inputs": [
        {
          "internalType": "uint256",
          "name": "",
          "type": "uint256"
        }
      ],
      "name": "allTokens",
      "outputs": [
        {
          "internalType": "address",
          "name": "",
          "type": "address"
        }
      ],
      "stateMutability": "view",
      "type": "function"
    },
    {
      "inputs": [
        {
          "internalType": "string",
          "name": "_name",
          "type": "string"
        },
        {
          "internalType": "string",
          "name": "_symbol",
          "type": "string"
        }
      ],
      "name": "createToken",
      "outputs": [
        {
          "internalType": "address",
          "name": "token",
          "type": "address"
        }
      ],
      "stateMutability": "nonpayable",
      "type": "function"
    },
    {
      "inputs": [
        {
          "internalType": "uint256",
          "name": "offset",
          "type": "uint256"
        },
        {
          "internalType": "uint256",
          "name": "limit",
          "type": "uint256"
        }
      ],
      "name": "getTokens",
      "outputs": [
        {
          "internalType": "address[]",
          "name": "result",
          "type": "address[]"
        }
      ],
      "stateMutability": "view",
      "type": "function"
    },
    {
      "inputs": [
        {
          "internalType": "address",
          "name": "_creator",
          "type": "address"
        }
      ],
      "name": "getTokensByCreator",
      "outputs": [
        {
          "internalType": "address[]",
          "name": "",
          "type": "address[]"
        }
      ],
      "stateMutability": "view",
      "type": "function"
    },
    {
      "inputs": [],
      "name": "owner",
      "outputs": [
        {
          "internalType": "address",
          "name": "",
          "type": "address"
        }
      ],
      "stateMutability": "view",
      "type": "function"
    },
    {
      "inputs": [],
      "name": "renounceOwnership",
      "outputs": [],
      "stateMutability": "nonpayable",
      "type": "function"
    },
    {
      "inputs": [
        {
          "internalType": "address",
          "name": "",
          "type": "address"
        },
        {
          "internalType": "uint256",
          "name": "",
          "type": "uint256"
        }
      ],
      "name": "tokensByCreator",
      "outputs": [
        {
          "internalType": "address",
          "name": "",
          "type": "address"
        }
      ],
      "stateMutability": "view",
      "type": "function"
    },
    {
      "inputs": [],
      "name": "totalTokens",
      "outputs": [
        {
          "internalType": "uint256",
          "name": "",
          "type": "uint256"
        }
      ],
      "stateMutability": "view",
      "type": "function"
    },
    {
      "inputs": [
        {
          "internalType": "address",
          "name": "newOwner",
          "type": "address"
        }
      ],
      "name": "transferOwnership",
      "outputs": [],
      "stateMutability": "nonpayable",
      "type": "function"
    }
  ],
  "bytecode": "0x60806040523480156200001157600080fd5b50604051620043e1380380620043e18339818101604052810190620000379190620001f4565b80600073ffffffffffffffffffffffffffffffffffffffff168173ffffffffffffffffffffffffffffffffffffffff1603620000ad5760006040517f1e4fbdf7000000000000000000000000000000000000000000000000000000008152600401620000a4919062000237565b60405180910390fd5b620000be81620000c660201b60201c565b505062000254565b60008060009054906101000a900473ffffffffffffffffffffffffffffffffffffffff169050816000806101000a81548173ffffffffffffffffffffffffffffffffffffffff021916908373ffffffffffffffffffffffffffffffffffffffff1602179055508173ffffffffffffffffffffffffffffffffffffffff168173ffffffffffffffffffffffffffffffffffffffff167f8be0079c531659141344cd1fd0a4f28419497f9722a3daafe3b4186f6b6457e060405160405180910390a35050565b600080fd5b600073ffffffffffffffffffffffffffffffffffffffff82169050919050565b6000620001bc826200018f565b9050919050565b620001ce81620001af565b8114620001da57600080fd5b50565b600081519050620001ee81620001c3565b92915050565b6000602082840312156200020d576200020c6200018a565b5b60006200021d84828501620001dd565b91505092915050565b6200023181620001af565b82525050565b60006020820190506200024e600083018462000226565b92915050565b61417d80620002646000396000f3fe60806040523480156200001157600080fd5b5060043610620000a05760003560e01c80637e1c0c09116200006f5780637e1c0c0914620001535780638da5cb5b1462000175578063d5c712751462000197578063d80d03a214620001cd578063f2fde38b146200020357620000a0565b80632f2f2d5614620000a5578063494cfc6c14620000db578063634282af1462000111578063715018a61462000147575b600080fd5b620000c36004803603810190620000bd9190620009ea565b62000223565b604051620000d2919062000abd565b60405180910390f35b620000f96004803603810190620000f3919062000b15565b62000402565b60405162000108919062000c2a565b60405180910390f35b6200012f600480360381019062000129919062000c4e565b620005cf565b6040516200013e919062000abd565b60405180910390f35b620001516200060f565b005b6200015d62000627565b6040516200016c919062000c91565b60405180910390f35b6200017f62000634565b6040516200018e919062000abd565b60405180910390f35b620001b56004803603810190620001af919062000cdf565b6200065d565b604051620001c4919062000c2a565b60405180910390f35b620001eb6004803603810190620001e5919062000d11565b6200072c565b604051620001fa919062000abd565b60405180910390f35b6200022160048036038101906200021b919062000cdf565b6200077b565b005b600080858585856200023462000634565b604051620002429062000964565b6200025295949392919062000dbc565b604051809103906000f0801580156200026f573d6000803e3d6000fd5b5090508091506001829080600181540180825580915050600190039060005260206000200160009091909190916101000a81548173ffffffffffffffffffffffffffffffffffffffff021916908373ffffffffffffffffffffffffffffffffffffffff160217905550600260003373ffffffffffffffffffffffffffffffffffffffff1673ffffffffffffffffffffffffffffffffffffffff168152602001908152602001600020829080600181540180825580915050600190039060005260206000200160009091909190916101000a81548173ffffffffffffffffffffffffffffffffffffffff021916908373ffffffffffffffffffffffffffffffffffffffff1602179055503373ffffffffffffffffffffffffffffffffffffffff168273ffffffffffffffffffffffffffffffffffffffff167f6e6ae68e7d7d45fbd855c40d1eaafa8de46c5fbec3ee26f1af88730e400bc92c8888888860018080549050620003de919062000e3a565b604051620003f195949392919062000e75565b60405180910390a350949350505050565b6060600060018054905090508084106200046d57600067ffffffffffffffff81111562000434576200043362000ec4565b5b604051908082528060200260200182016040528015620004635781602001602082028036833780820191505090505b50915050620005c9565b600083856200047d919062000ef3565b9050818111156200048c578190505b84816200049a919062000e3a565b67ffffffffffffffff811115620004b657620004b562000ec4565b5b604051908082528060200260200182016040528015620004e55781602001602082028036833780820191505090505b50925060005b8351811015620005c5576001818760018662000508919062000e3a565b62000514919062000e3a565b62000520919062000e3a565b8154811062000534576200053362000f2e565b5b9060005260206000200160009054906101000a900473ffffffffffffffffffffffffffffffffffffffff1684828151811062000575576200057462000f2e565b5b602002602001019073ffffffffffffffffffffffffffffffffffffffff16908173ffffffffffffffffffffffffffffffffffffffff16815250508080620005bc9062000f5d565b915050620004eb565b5050505b92915050565b60018181548110620005e057600080fd5b906000526020600020016000915054906101000a900473ffffffffffffffffffffffffffffffffffffffff1681565b6200061962000808565b62000625600062000898565b565b6000600180549050905090565b60008060009054906101000a900473ffffffffffffffffffffffffffffffffffffffff16905090565b6060600260008373ffffffffffffffffffffffffffffffffffffffff1673ffffffffffffffffffffffffffffffffffffffff1681526020019081526020016000208054806020026020016040519081016040528092919081815260200182805480156200072057602002820191906000526020600020905b8160009054906101000a900473ffffffffffffffffffffffffffffffffffffffff1673ffffffffffffffffffffffffffffffffffffffff1681526020019060010190808311620006d5575b50505050509050919050565b600260205281600052604060002081815481106200074957600080fd5b906000526020600020016000915091509054906101000a900473ffffffffffffffffffffffffffffffffffffffff1681565b6200078562000808565b600073ffffffffffffffffffffffffffffffffffffffff168173ffffffffffffffffffffffffffffffffffffffff1603620007fa5760006040517f1e4fbdf7000000000000000000000000000000000000000000000000000000008152600401620007f1919062000abd565b60405180910390fd5b620008058162000898565b50565b620008126200095c565b73ffffffffffffffffffffffffffffffffffffffff166200083262000634565b73ffffffffffffffffffffffffffffffffffffffff16146200089657620008586200095c565b6040517f118cdaa70000000000000000000000000000000000000000000000000000000081526004016200088d919062000abd565b60405180910390fd5b565b60008060009054906101000a900473ffffffffffffffffffffffffffffffffffffffff169050816000806101000a81548173ffffffffffffffffffffffffffffffffffffffff021916908373ffffffffffffffffffffffffffffffffffffffff1602179055508173ffffffffffffffffffffffffffffffffffffffff168173ffffffffffffffffffffffffffffffffffffffff167f8be0079c531659141344cd1fd0a4f28419497f9722a3daafe3b4186f6b6457e060405160405180910390a35050565b600033905090565b61319d8062000fab83390190565b600080fd5b600080fd5b600080fd5b600080fd5b600080fd5b60008083601f840112620009a457620009a36200097c565b5b8235905067ffffffffffffffff811115620009c457620009c362000981565b5b602083019150836001820283011115620009e357620009e262000986565b5b9250929050565b6000806000806040858703121562000a075762000a0662000972565b5b600085013567ffffffffffffffff81111562000a285762000a2762000977565b5b62000a36878288016200098b565b9450945050602085013567ffffffffffffffff81111562000a5c5762000a5b62000977565b5b62000a6a878288016200098b565b925092505092959194509250565b600073ffffffffffffffffffffffffffffffffffffffff82169050919050565b600062000aa58262000a78565b9050919050565b62000ab78162000a98565b82525050565b600060208201905062000ad4600083018462000aac565b92915050565b6000819050919050565b62000aef8162000ada565b811462000afb57600080fd5b50565b60008135905062000b0f8162000ae4565b92915050565b6000806040838503121562000b2f5762000b2e62000972565b5b600062000b3f8582860162000afe565b925050602062000b528582860162000afe565b9150509250929050565b600081519050919050565b600082825260208201905092915050565b6000819050602082019050919050565b62000b938162000a98565b82525050565b600062000ba7838362000b88565b60208301905092915050565b6000602082019050919050565b600062000bcd8262000b5c565b62000bd9818562000b67565b935062000be68362000b78565b8060005b8381101562000c1d57815162000c01888262000b99565b975062000c0e8362000bb3565b92505060018101905062000bea565b5085935050505092915050565b6000602082019050818103600083015262000c46818462000bc0565b905092915050565b60006020828403121562000c675762000c6662000972565b5b600062000c778482850162000afe565b91505092915050565b62000c8b8162000ada565b82525050565b600060208201905062000ca8600083018462000c80565b92915050565b62000cb98162000a98565b811462000cc557600080fd5b50565b60008135905062000cd98162000cae565b92915050565b60006020828403121562000cf85762000cf762000972565b5b600062000d088482850162000cc8565b91505092915050565b6000806040838503121562000d2b5762000d2a62000972565b5b600062000d3b8582860162000cc8565b925050602062000d4e8582860162000afe565b9150509250929050565b600082825260208201905092915050565b82818337600083830152505050565b6000601f19601f8301169050919050565b600062000d97838562000d58565b935062000da683858462000d69565b62000db18362000d78565b840190509392505050565b6000606082019050818103600083015262000dd981878962000d89565b9050818103602083015262000df081858762000d89565b905062000e01604083018462000aac565b9695505050505050565b7f4e487b7100000000000000000000000000000000000000000000000000000000600052601160045260246000fd5b600062000e478262000ada565b915062000e548362000ada565b925082820390508181111562000e6f5762000e6e62000e0b565b5b92915050565b6000606082019050818103600083015262000e9281878962000d89565b9050818103602083015262000ea981858762000d89565b905062000eba604083018462000c80565b9695505050505050565b7f4e487b7100000000000000000000000000000000000000000000000000000000600052604160045260246000fd5b600062000f008262000ada565b915062000f0d8362000ada565b925082820190508082111562000f285762000f2762000e0b565b5b92915050565b7f4e487b7100000000000000000000000000000000000000000000000000000000600052603260045260246000fd5b600062000f6a8262000ada565b91507fffffffffffffffffffffffffffffffffffffffffffffffffffffffffffffffff820362000f9f5762000f9e62000e0b565b5b60018201905091905056fe60806040523480156200001157600080fd5b506040516200319d3803806200319d833981810160405281019062000037919062000717565b80838381600390816200004b9190620009fc565b5080600490816200005d9190620009fc565b505050600073ffffffffffffffffffffffffffffffffffffffff168173ffffffffffffffffffffffffffffffffffffffff1603620000d55760006040517f1e4fbdf7000000000000000000000000000000000000000000000000000000008152600401620000cc919062000af4565b60405180910390fd5b620000e6816200016760201b60201c565b50600162000109620000fd6200022d60201b60201c565b6200025860201b60201c565b600001819055506b0295be96e64066972000000060068190555062000141306b0295be96e6406697200000006200026260201b60201c565b6200015e816aa56fa5b99019a5c80000006200026260201b60201c565b50505062000be6565b6000600560009054906101000a900473ffffffffffffffffffffffffffffffffffffffff16905081600560006101000a81548173ffffffffffffffffffffffffffffffffffffffff021916908373ffffffffffffffffffffffffffffffffffffffff1602179055508173ffffffffffffffffffffffffffffffffffffffff168173ffffffffffffffffffffffffffffffffffffffff167f8be0079c531659141344cd1fd0a4f28419497f9722a3daafe3b4186f6b6457e060405160405180910390a35050565b60007f9b779b17422d0df92223018b32b4d1fa46e071723d6817e2486d003becc55f0060001b905090565b6000819050919050565b600073ffffffffffffffffffffffffffffffffffffffff168273ffffffffffffffffffffffffffffffffffffffff1603620002d75760006040517fec442f05000000000000000000000000000000000000000000000000000000008152600401620002ce919062000af4565b60405180910390fd5b620002eb60008383620002ef60201b60201c565b5050565b600073ffffffffffffffffffffffffffffffffffffffff168373ffffffffffffffffffffffffffffffffffffffff16036200034557806002600082825462000338919062000b40565b925050819055506200041b565b60008060008573ffffffffffffffffffffffffffffffffffffffff1673ffffffffffffffffffffffffffffffffffffffff16815260200190815260200160002054905081811015620003d4578381836040517fe450d38c000000000000000000000000000000000000000000000000000000008152600401620003cb9392919062000b8c565b60405180910390fd5b8181036000808673ffffffffffffffffffffffffffffffffffffffff1673ffffffffffffffffffffffffffffffffffffffff16815260200190815260200160002081905550505b600073ffffffffffffffffffffffffffffffffffffffff168273ffffffffffffffffffffffffffffffffffffffff1603620004665780600260008282540392505081905550620004b3565b806000808473ffffffffffffffffffffffffffffffffffffffff1673ffffffffffffffffffffffffffffffffffffffff168152602001908152602001600020600082825401925050819055505b8173ffffffffffffffffffffffffffffffffffffffff168373ffffffffffffffffffffffffffffffffffffffff167fddf252ad1be2c89b69c2b068fc378daa952ba7f163c4a11628f55a4df523b3ef8360405162000512919062000bc9565b60405180910390a3505050565b6000604051905090565b600080fd5b600080fd5b600080fd5b600080fd5b6000601f19601f8301169050919050565b7f4e487b7100000000000000000000000000000000000000000000000000000000600052604160045260246000fd5b62000588826200053d565b810181811067ffffffffffffffff82111715620005aa57620005a96200054e565b5b80604052505050565b6000620005bf6200051f565b9050620005cd82826200057d565b919050565b600067ffffffffffffffff821115620005f057620005ef6200054e565b5b620005fb826200053d565b9050602081019050919050565b60005b83811015620006285780820151818401526020810190506200060b565b60008484015250505050565b60006200064b6200064584620005d2565b620005b3565b9050828152602081018484840111156200066a576200066962000538565b5b6200067784828562000608565b509392505050565b600082601f83011262000697576200069662000533565b5b8151620006a984826020860162000634565b91505092915050565b600073ffffffffffffffffffffffffffffffffffffffff82169050919050565b6000620006df82620006b2565b9050919050565b620006f181620006d2565b8114620006fd57600080fd5b50565b6000815190506200071181620006e6565b92915050565b60008060006060848603121562000733576200073262000529565b5b600084015167ffffffffffffffff8111156200075457620007536200052e565b5b62000762868287016200067f565b935050602084015167ffffffffffffffff8111156200078657620007856200052e565b5b62000794868287016200067f565b9250506040620007a78682870162000700565b9150509250925092565b600081519050919050565b7f4e487b7100000000000000000000000000000000000000000000000000000000600052602260045260246000fd5b600060028204905060018216806200080457607f821691505b6020821081036200081a5762000819620007bc565b5b50919050565b60008190508160005260206000209050919050565b60006020601f8301049050919050565b600082821b905092915050565b600060088302620008847fffffffffffffffffffffffffffffffffffffffffffffffffffffffffffffffff8262000845565b62000890868362000845565b95508019841693508086168417925050509392505050565b6000819050919050565b6000819050919050565b6000620008dd620008d7620008d184620008a8565b620008b2565b620008a8565b9050919050565b6000819050919050565b620008f983620008bc565b620009116200090882620008e4565b84845462000852565b825550505050565b600090565b6200092862000919565b62000935818484620008ee565b505050565b5b818110156200095d57620009516000826200091e565b6001810190506200093b565b5050565b601f821115620009ac57620009768162000820565b620009818462000835565b8101602085101562000991578190505b620009a9620009a08562000835565b8301826200093a565b50505b505050565b600082821c905092915050565b6000620009d160001984600802620009b1565b1980831691505092915050565b6000620009ec8383620009be565b9150826002028217905092915050565b62000a0782620007b1565b67ffffffffffffffff81111562000a235762000a226200054e565b5b62000a2f8254620007eb565b62000a3c82828562000961565b600060209050601f83116001811462000a74576000841562000a5f578287015190505b62000a6b8582620009de565b86555062000adb565b601f19841662000a848662000820565b60005b8281101562000aae5784890151825560018201915060208501945060208101905062000a87565b8683101562000ace578489015162000aca601f891682620009be565b8355505b6001600288020188555050505b505050505050565b62000aee81620006d2565b82525050565b600060208201905062000b0b600083018462000ae3565b92915050565b7f4e487b7100000000000000000000000000000000000000000000000000000000600052601160045260246000fd5b600062000b4d82620008a8565b915062000b5a83620008a8565b925082820190508082111562000b755762000b7462000b11565b5b92915050565b62000b8681620008a8565b82525050565b600060608201905062000ba3600083018662000ae3565b62000bb2602083018562000b7b565b62000bc1604083018462000b7b565b949350505050565b600060208201905062000be0600083018462000b7b565b92915050565b6125a78062000bf66000396000f3fe60806040526004361061019c5760003560e01c80638da5cb5b116100ec578063a9059cbb1161008a578063dd62ed3e11610064578063dd62ed3e146105a1578063e4849b32146105de578063e7c2b77214610607578063f2fde38b146106325761019c565b8063a9059cbb1461050e578063ae2c1a6e1461054b578063b9c3a818146105765761019c565b806395d89b41116100c657806395d89b41146104975780639d1b464a146104c2578063a0ef91df146104ed578063a6f2ae3a146105045761019c565b80638da5cb5b14610416578063902d55a514610441578063939c44561461046c5761019c565b806323b872dd116101595780636700c0c3116101335780636700c0c31461035a57806370a0823114610385578063715018a6146103c2578063768713f5146103d95761019c565b806323b872dd146102c7578063313ce56714610304578063343ee3b71461032f5761019c565b806306fdde03146101a1578063095ea7b3146101cc578063130b31201461020957806318160ddd146102345780631e4c72921461025f5780631fb87f391461028a575b600080fd5b3480156101ad57600080fd5b506101b661065b565b6040516101c39190611c43565b60405180910390f35b3480156101d857600080fd5b506101f360048036038101906101ee9190611cfe565b6106ed565b6040516102009190611d59565b60405180910390f35b34801561021557600080fd5b5061021e610710565b60405161022b9190611d83565b60405180910390f35b34801561024057600080fd5b50610249610716565b6040516102569190611d83565b60405180910390f35b34801561026b57600080fd5b50610274610720565b6040516102819190611d83565b60405180910390f35b34801561029657600080fd5b506102b160048036038101906102ac9190611d9e565b610730565b6040516102be9190611d83565b60405180910390f35b3480156102d357600080fd5b506102ee60048036038101906102e99190611dcb565b6107f5565b6040516102fb9190611d59565b60405180910390f35b34801561031057600080fd5b50610319610824565b6040516103269190611e3a565b60405180910390f35b34801561033b57600080fd5b5061034461082d565b6040516103519190611d83565b60405180910390f35b34801561036657600080fd5b5061036f610833565b60405161037c9190611d83565b60405180910390f35b34801561039157600080fd5b506103ac60048036038101906103a79190611e55565b61083f565b6040516103b99190611d83565b60405180910390f35b3480156103ce57600080fd5b506103d7610887565b005b3480156103e557600080fd5b5061040060048036038101906103fb9190611d9e565b61089b565b60405161040d9190611d83565b60405180910390f35b34801561042257600080fd5b5061042b61093a565b6040516104389190611e91565b60405180910390f35b34801561044d57600080fd5b50610456610964565b6040516104639190611d83565b60405180910390f35b34801561047857600080fd5b50610481610974565b60405161048e9190611d83565b60405180910390f35b3480156104a357600080fd5b506104ac6109bc565b6040516104b99190611c43565b60405180910390f35b3480156104ce57600080fd5b506104d7610a4e565b6040516104e49190611d83565b60405180910390f35b3480156104f957600080fd5b50610502610a90565b005b61050c610c55565b005b34801561051a57600080fd5b5061053560048036038101906105309190611cfe565b610f8a565b6040516105429190611d59565b60405180910390f35b34801561055757600080fd5b50610560610fad565b60405161056d9190611d83565b60405180910390f35b34801561058257600080fd5b5061058b610fb9565b6040516105989190611d83565b60405180910390f35b3480156105ad57600080fd5b506105c860048036038101906105c39190611eac565b610fc8565b6040516105d59190611d83565b60405180910390f35b3480156105ea57600080fd5b5061060560048036038101906106009190611d9e565b61104f565b005b34801561061357600080fd5b5061061c61135c565b6040516106299190611d59565b60405180910390f35b34801561063e57600080fd5b5061065960048036038101906106549190611e55565b61136f565b005b60606003805461066a90611f1b565b80601f016020809104026020016040519081016040528092919081815260200182805461069690611f1b565b80156106e35780601f106106b8576101008083540402835291602001916106e3565b820191906000526020600020905b8154815290600101906020018083116106c657829003601f168201915b5050505050905090565b6000806106f86113f5565b90506107058185856113fd565b600191505092915050565b60075481565b6000600254905090565b6b0295be96e64066972000000081565b6000600860009054906101000a900460ff161561075057600090506107f0565b6730927f74c9de0000826007546107679190611f7b565b1115610786576007546730927f74c9de00006107839190611faf565b91505b60006006546007546714d1120d7b1600006107a19190611f7b565b6107ab9190611fe3565b90506000836007546714d1120d7b1600006107c69190611f7b565b6107d09190611f7b565b826107db9190612054565b9050806006546107eb9190611faf565b925050505b919050565b6000806108006113f5565b905061080d85828561140f565b6108188585856114a4565b60019150509392505050565b60006012905090565b60065481565b6714d1120d7b16000081565b60008060008373ffffffffffffffffffffffffffffffffffffffff1673ffffffffffffffffffffffffffffffffffffffff168152602001908152602001600020549050919050565b61088f611598565b610899600061161f565b565b6000600860009054906101000a900460ff16156108bb5760009050610935565b60006006546007546714d1120d7b1600006108d69190611f7b565b6108e09190611fe3565b90506000836006546108f29190611f7b565b826108fd9190612054565b9050806007546714d1120d7b1600006109169190611f7b565b6109209190611faf565b92506007548311156109325760075492505b50505b919050565b6000600560009054906101000a900473ffffffffffffffffffffffffffffffffffffffff16905090565b6b033b2e3c9fd0803ce800000081565b6000600860009054906101000a900460ff161561099457606490506109b9565b6730927f74c9de000060646007546109ac9190611fe3565b6109b69190612054565b90505b90565b6060600480546109cb90611f1b565b80601f01602080910402602001604051908101604052809291908181526020018280546109f790611f1b565b8015610a445780601f10610a1957610100808354040283529160200191610a44565b820191906000526020600020905b815481529060010190602001808311610a2757829003601f168201915b5050505050905090565b6000806007546714d1120d7b160000610a679190611f7b565b9050600654670de0b6b3a764000082610a809190611fe3565b610a8a9190612054565b91505090565b610a98611598565b600047905060008111610ae0576040517f08c379a0000000000000000000000000000000000000000000000000000000008152600401610ad7906120d1565b60405180910390fd5b600860009054906101000a900460ff16610b49576001600860006101000a81548160ff0219169083151502179055507f04d39283851d5dc1961a5296a48d487854db2aae45afe51e83aae1db8d04d42f600754604051610b409190611d83565b60405180910390a15b6000610b5361093a565b73ffffffffffffffffffffffffffffffffffffffff1682604051610b7690612122565b60006040518083038185875af1925050503d8060008114610bb3576040519150601f19603f3d011682016040523d82523d6000602084013e610bb8565b606091505b5050905080610bfc576040517f08c379a0000000000000000000000000000000000000000000000000000000008152600401610bf390612183565b60405180910390fd5b610c0461093a565b73ffffffffffffffffffffffffffffffffffffffff167f8455ae6be5d92f1df1c3c1484388e247a36c7e60d72055ae216dbc258f257d4b83604051610c499190611d83565b60405180910390a25050565b610c5d6116e5565b60003411610ca0576040517f08c379a0000000000000000000000000000000000000000000000000000000008152600401610c97906121ef565b60405180910390fd5b600034905060006007546714d1120d7b160000610cbd9190611f7b565b9050600060065482610ccf9190611fe3565b905060008383610cdf9190611f7b565b905060008183610cef9190612054565b9050600081600654610d019190611faf565b905060008111610d46576040517f08c379a0000000000000000000000000000000000000000000000000000000008152600401610d3d9061225b565b60405180910390fd5b816006819055508560076000828254610d5f9190611f7b565b92505081905550610d713033836114a4565b600860009054906101000a900460ff16158015610d9857506730927f74c9de000060075410155b15610df2576001600860006101000a81548160ff0219169083151502179055507f04d39283851d5dc1961a5296a48d487854db2aae45afe51e83aae1db8d04d42f600754604051610de99190611d83565b60405180910390a15b600860009054906101000a900460ff1615610f215760004790506000811115610f1f576000610e1f61093a565b73ffffffffffffffffffffffffffffffffffffffff1682604051610e4290612122565b60006040518083038185875af1925050503d8060008114610e7f576040519150601f19603f3d011682016040523d82523d6000602084013e610e84565b606091505b5050905080610ec8576040517f08c379a0000000000000000000000000000000000000000000000000000000008152600401610ebf906122c7565b60405180910390fd5b610ed061093a565b73ffffffffffffffffffffffffffffffffffffffff167f8455ae6be5d92f1df1c3c1484388e247a36c7e60d72055ae216dbc258f257d4b83604051610f159190611d83565b60405180910390a2505b505b3373ffffffffffffffffffffffffffffffffffffffff167fbeae048c6d270d9469f86cf6e8fedda3c60ad770f16c24c9fc131c8e9a09101d8783610f63610974565b604051610f72939291906122e7565b60405180910390a2505050505050610f88611708565b565b600080610f956113f5565b9050610fa28185856114a4565b600191505092915050565b6730927f74c9de000081565b6aa56fa5b99019a5c800000081565b6000600160008473ffffffffffffffffffffffffffffffffffffffff1673ffffffffffffffffffffffffffffffffffffffff16815260200190815260200160002060008373ffffffffffffffffffffffffffffffffffffffff1673ffffffffffffffffffffffffffffffffffffffff16815260200190815260200160002054905092915050565b6110576116e5565b600860009054906101000a900460ff16156110a7576040517f08c379a000000000000000000000000000000000000000000000000000000000815260040161109e9061236a565b60405180910390fd5b600081116110ea576040517f08c379a00000000000000000000000000000000000000000000000000000000081526004016110e1906123d6565b60405180910390fd5b806110f43361083f565b1015611135576040517f08c379a000000000000000000000000000000000000000000000000000000000815260040161112c90612442565b60405180910390fd5b60006007546714d1120d7b16000061114d9190611f7b565b905060006006548261115f9190611fe3565b90506000836006546111719190611f7b565b9050600081836111819190612054565b9050600081856111919190611faf565b90506007548111156111d8576040517f08c379a00000000000000000000000000000000000000000000000000000000081526004016111cf906124ae565b60405180910390fd5b6000811161121b576040517f08c379a00000000000000000000000000000000000000000000000000000000081526004016112129061225b565b60405180910390fd5b8260068190555080600760008282546112349190611faf565b925050819055506112463330886114a4565b60003373ffffffffffffffffffffffffffffffffffffffff168260405161126c90612122565b60006040518083038185875af1925050503d80600081146112a9576040519150601f19603f3d011682016040523d82523d6000602084013e6112ae565b606091505b50509050806112f2576040517f08c379a00000000000000000000000000000000000000000000000000000000081526004016112e99061251a565b60405180910390fd5b3373ffffffffffffffffffffffffffffffffffffffff167f846c37eef631e0943682d87352ec117c20008eb7f425c9b85ac011a6d4774cc08884611334610974565b604051611343939291906122e7565b60405180910390a2505050505050611359611708565b50565b600860009054906101000a900460ff1681565b611377611598565b600073ffffffffffffffffffffffffffffffffffffffff168173ffffffffffffffffffffffffffffffffffffffff16036113e95760006040517f1e4fbdf70000000000000000000000000000000000000000000000000000000081526004016113e09190611e91565b60405180910390fd5b6113f28161161f565b50565b600033905090565b61140a8383836001611723565b505050565b600061141b8484610fc8565b90507fffffffffffffffffffffffffffffffffffffffffffffffffffffffffffffffff81101561149e578181101561148e578281836040517ffb8f41b20000000000000000000000000000000000000000000000000000000081526004016114859392919061253a565b60405180910390fd5b61149d84848484036000611723565b5b50505050565b600073ffffffffffffffffffffffffffffffffffffffff168373ffffffffffffffffffffffffffffffffffffffff16036115165760006040517f96c6fd1e00000000000000000000000000000000000000000000000000000000815260040161150d9190611e91565b60405180910390fd5b600073ffffffffffffffffffffffffffffffffffffffff168273ffffffffffffffffffffffffffffffffffffffff16036115885760006040517fec442f0500000000000000000000000000000000000000000000000000000000815260040161157f9190611e91565b60405180910390fd5b6115938383836118fa565b505050565b6115a06113f5565b73ffffffffffffffffffffffffffffffffffffffff166115be61093a565b73ffffffffffffffffffffffffffffffffffffffff161461161d576115e16113f5565b6040517f118cdaa70000000000000000000000000000000000000000000000000000000081526004016116149190611e91565b60405180910390fd5b565b6000600560009054906101000a900473ffffffffffffffffffffffffffffffffffffffff16905081600560006101000a81548173ffffffffffffffffffffffffffffffffffffffff021916908373ffffffffffffffffffffffffffffffffffffffff1602179055508173ffffffffffffffffffffffffffffffffffffffff168173ffffffffffffffffffffffffffffffffffffffff167f8be0079c531659141344cd1fd0a4f28419497f9722a3daafe3b4186f6b6457e060405160405180910390a35050565b6116ed611b1f565b60026116ff6116fa611b60565b611b8b565b60000181905550565b600161171a611715611b60565b611b8b565b60000181905550565b600073ffffffffffffffffffffffffffffffffffffffff168473ffffffffffffffffffffffffffffffffffffffff16036117955760006040517fe602df0500000000000000000000000000000000000000000000000000000000815260040161178c9190611e91565b60405180910390fd5b600073ffffffffffffffffffffffffffffffffffffffff168373ffffffffffffffffffffffffffffffffffffffff16036118075760006040517f94280d620000000000000000000000000000000000000000000000000000000081526004016117fe9190611e91565b60405180910390fd5b81600160008673ffffffffffffffffffffffffffffffffffffffff1673ffffffffffffffffffffffffffffffffffffffff16815260200190815260200160002060008573ffffffffffffffffffffffffffffffffffffffff1673ffffffffffffffffffffffffffffffffffffffff1681526020019081526020016000208190555080156118f4578273ffffffffffffffffffffffffffffffffffffffff168473ffffffffffffffffffffffffffffffffffffffff167f8c5be1e5ebec7d5bd14f71427d1e84f3dd0314c0f7b2291e5b200ac8c7c3b925846040516118eb9190611d83565b60405180910390a35b50505050565b600073ffffffffffffffffffffffffffffffffffffffff168373ffffffffffffffffffffffffffffffffffffffff160361194c5780600260008282546119409190611f7b565b92505081905550611a1f565b60008060008573ffffffffffffffffffffffffffffffffffffffff1673ffffffffffffffffffffffffffffffffffffffff168152602001908152602001600020549050818110156119d8578381836040517fe450d38c0000000000000000000000000000000000000000000000000000000081526004016119cf9392919061253a565b60405180910390fd5b8181036000808673ffffffffffffffffffffffffffffffffffffffff1673ffffffffffffffffffffffffffffffffffffffff16815260200190815260200160002081905550505b600073ffffffffffffffffffffffffffffffffffffffff168273ffffffffffffffffffffffffffffffffffffffff1603611a685780600260008282540392505081905550611ab5565b806000808473ffffffffffffffffffffffffffffffffffffffff1673ffffffffffffffffffffffffffffffffffffffff168152602001908152602001600020600082825401925050819055505b8173ffffffffffffffffffffffffffffffffffffffff168373ffffffffffffffffffffffffffffffffffffffff167fddf252ad1be2c89b69c2b068fc378daa952ba7f163c4a11628f55a4df523b3ef83604051611b129190611d83565b60405180910390a3505050565b611b27611b95565b15611b5e576040517f3ee5aeb500000000000000000000000000000000000000000000000000000000815260040160405180910390fd5b565b60007f9b779b17422d0df92223018b32b4d1fa46e071723d6817e2486d003becc55f0060001b905090565b6000819050919050565b60006002611ba9611ba4611b60565b611b8b565b6000015414905090565b600081519050919050565b600082825260208201905092915050565b60005b83811015611bed578082015181840152602081019050611bd2565b60008484015250505050565b6000601f19601f8301169050919050565b6000611c1582611bb3565b611c1f8185611bbe565b9350611c2f818560208601611bcf565b611c3881611bf9565b840191505092915050565b60006020820190508181036000830152611c5d8184611c0a565b905092915050565b600080fd5b600073ffffffffffffffffffffffffffffffffffffffff82169050919050565b6000611c9582611c6a565b9050919050565b611ca581611c8a565b8114611cb057600080fd5b50565b600081359050611cc281611c9c565b92915050565b6000819050919050565b611cdb81611cc8565b8114611ce657600080fd5b50565b600081359050611cf881611cd2565b92915050565b60008060408385031215611d1557611d14611c65565b5b6000611d2385828601611cb3565b9250506020611d3485828601611ce9565b9150509250929050565b60008115159050919050565b611d5381611d3e565b82525050565b6000602082019050611d6e6000830184611d4a565b92915050565b611d7d81611cc8565b82525050565b6000602082019050611d986000830184611d74565b92915050565b600060208284031215611db457611db3611c65565b5b6000611dc284828501611ce9565b91505092915050565b600080600060608486031215611de457611de3611c65565b5b6000611df286828701611cb3565b9350506020611e0386828701611cb3565b9250506040611e1486828701611ce9565b9150509250925092565b600060ff82169050919050565b611e3481611e1e565b82525050565b6000602082019050611e4f6000830184611e2b565b92915050565b600060208284031215611e6b57611e6a611c65565b5b6000611e7984828501611cb3565b91505092915050565b611e8b81611c8a565b82525050565b6000602082019050611ea66000830184611e82565b92915050565b60008060408385031215611ec357611ec2611c65565b5b6000611ed185828601611cb3565b9250506020611ee285828601611cb3565b9150509250929050565b7f4e487b7100000000000000000000000000000000000000000000000000000000600052602260045260246000fd5b60006002820490506001821680611f3357607f821691505b602082108103611f4657611f45611eec565b5b50919050565b7f4e487b7100000000000000000000000000000000000000000000000000000000600052601160045260246000fd5b6000611f8682611cc8565b9150611f9183611cc8565b9250828201905080821115611fa957611fa8611f4c565b5b92915050565b6000611fba82611cc8565b9150611fc583611cc8565b9250828203905081811115611fdd57611fdc611f4c565b5b92915050565b6000611fee82611cc8565b9150611ff983611cc8565b925082820261200781611cc8565b9150828204841483151761201e5761201d611f4c565b5b5092915050565b7f4e487b7100000000000000000000000000000000000000000000000000000000600052601260045260246000fd5b600061205f82611cc8565b915061206a83611cc8565b92508261207a57612079612025565b5b828204905092915050565b7f4e6f2045544820746f2077697468647261770000000000000000000000000000600082015250565b60006120bb601283611bbe565b91506120c682612085565b602082019050919050565b600060208201905081810360008301526120ea816120ae565b9050919050565b600081905092915050565b50565b600061210c6000836120f1565b9150612117826120fc565b600082019050919050565b600061212d826120ff565b9150819050919050565b7f5769746864726177206661696c65640000000000000000000000000000000000600082015250565b600061216d600f83611bbe565b915061217882612137565b602082019050919050565b6000602082019050818103600083015261219c81612160565b9050919050565b7f53656e642045544820746f206275790000000000000000000000000000000000600082015250565b60006121d9600f83611bbe565b91506121e4826121a3565b602082019050919050565b60006020820190508181036000830152612208816121cc565b9050919050565b7f546f6f20736d616c6c0000000000000000000000000000000000000000000000600082015250565b6000612245600983611bbe565b91506122508261220f565b602082019050919050565b6000602082019050818103600083015261227481612238565b9050919050565b7f4175746f2d7769746864726177206661696c6564000000000000000000000000600082015250565b60006122b1601483611bbe565b91506122bc8261227b565b602082019050919050565b600060208201905081810360008301526122e0816122a4565b9050919050565b60006060820190506122fc6000830186611d74565b6123096020830185611d74565b6123166040830184611d74565b949350505050565b7f43616e6e6f742073656c6c3a20746f6b656e2067726164756174656400000000600082015250565b6000612354601c83611bbe565b915061235f8261231e565b602082019050919050565b6000602082019050818103600083015261238381612347565b9050919050565b7f4e6f20746f6b656e732073706563696669656400000000000000000000000000600082015250565b60006123c0601383611bbe565b91506123cb8261238a565b602082019050919050565b600060208201905081810360008301526123ef816123b3565b9050919050565b7f496e73756666696369656e742062616c616e6365000000000000000000000000600082015250565b600061242c601483611bbe565b9150612437826123f6565b602082019050919050565b6000602082019050818103600083015261245b8161241f565b9050919050565b7f4e6f7420656e6f7567682045544820696e20706f6f6c00000000000000000000600082015250565b6000612498601683611bbe565b91506124a382612462565b602082019050919050565b600060208201905081810360008301526124c78161248b565b9050919050565b7f455448207472616e73666572206661696c656400000000000000000000000000600082015250565b6000612504601383611bbe565b915061250f826124ce565b602082019050919050565b60006020820190508181036000830152612533816124f7565b9050919050565b600060608201905061254f6000830186611e82565b61255c6020830185611d74565b6125696040830184611d74565b94935050505056fea2646970667358221220f2bfbd9013a854f217e74b9447238f9867430c38597e77a880c64dabbaeea29f64736f6c63430008140033a2646970667358221220d7206347240a139e6d36f57006be84be9a5a09c1c4abe2bf393ef2073fb9b53d64736f6c63430008140033",
  "linkReferences": {},
  "deployedLinkReferences": {}
}