{
  "_format": "hh-sol-artifact-1",
  "contractName": "LaunchpadFactory",
  "sourceName": "contracts/LaunchpadFactory.sol",
  "abi": [
    {
      "inputs": [
        {
          "internalType": "address",
          "name": "_owner",
          "type": "address"
        }
      ],
      "stateMutability": "nonpayable",
      "type": "constructor"
    },
    {
      "inputs": [
        {
          "internalType": "address",
          "name": "owner",
          "type": "address"
        }
      ],
      "name": "OwnableInvalidOwner",
      "type": "error"
    },
    {
      "inputs": [
        {
          "internalType": "address",
          "name": "account",
          "type": "address"
        }
      ],
      "name": "OwnableUnauthorizedAccount",
      "type": "error"
    },
    {
      "anonymous": false,
      "inputs": [
        {
          "indexed": true,
          "internalType": "address",
          "name": "previousOwner",
          "type": "address"
        },
        {
          "indexed": true,
          "internalType": "address",
          "name": "newOwner",
          "type": "address"
        }
      ],
      "name": "OwnershipTransferred",
      "type": "event"
    },
    {
      "anonymous": false,
      "inputs": [
        {
          "indexed": true,
          "internalType": "address",
          "name": "token",
          "type": "address"
        },
        {
          "indexed": true,
          "internalType": "address",
          "name": "creator",
          "type": "address"
        },
        {
          "indexed": false,
          "internalType": "string",
          "name": "name",
          "type": "string"
        },
        {
          "indexed": false,
          "internalType": "string",
          "name": "symbol",
          "type": "string"
        },
        {
          "indexed": false,
          "internalType": "uint256",
          "name": "index",
          "type": "uint256"
        }
      ],
      "name": "TokenCreated",
      "type": "event"
    },
    {
      "inputs": [
        {
          "internalType": "uint256",
          "name": "",
          "type": "uint256"
        }
      ],
      "name": "allTokens",
      "outputs": [
        {
          "internalType": "address",
          "name": "",
          "type": "address"
        }
      ],
      "stateMutability": "view",
      "type": "function"
    },
    {
      "inputs": [
        {
          "internalType": "string",
          "name": "_name",
          "type": "string"
        },
        {
          "internalType": "string",
          "name": "_symbol",
          "type": "string"
        }
      ],
      "name": "createToken",
      "outputs": [
        {
          "internalType": "address",
          "name": "token",
          "type": "address"
        }
      ],
      "stateMutability": "nonpayable",
      "type": "function"
    },
    {
      "inputs": [
        {
          "internalType": "uint256",
          "name": "offset",
          "type": "uint256"
        },
        {
          "internalType": "uint256",
          "name": "limit",
          "type": "uint256"
        }
      ],
      "name": "getTokens",
      "outputs": [
        {
          "internalType": "address[]",
          "name": "result",
          "type": "address[]"
        }
      ],
      "stateMutability": "view",
      "type": "function"
    },
    {
      "inputs": [
        {
          "internalType": "address",
          "name": "_creator",
          "type": "address"
        }
      ],
      "name": "getTokensByCreator",
      "outputs": [
        {
          "internalType": "address[]",
          "name": "",
          "type": "address[]"
        }
      ],
      "stateMutability": "view",
      "type": "function"
    },
    {
      "inputs": [],
      "name": "owner",
      "outputs": [
        {
          "internalType": "address",
          "name": "",
          "type": "address"
        }
      ],
      "stateMutability": "view",
      "type": "function"
    },
    {
      "inputs": [],
      "name": "renounceOwnership",
      "outputs": [],
      "stateMutability": "nonpayable",
      "type": "function"
    },
    {
      "inputs": [
        {
          "internalType": "address",
          "name": "",
          "type": "address"
        },
        {
          "internalType": "uint256",
          "name": "",
          "type": "uint256"
        }
      ],
      "name": "tokensByCreator",
      "outputs": [
        {
          "internalType": "address",
          "name": "",
          "type": "address"
        }
      ],
      "stateMutability": "view",
      "type": "function"
    },
    {
      "inputs": [],
      "name": "totalTokens",
      "outputs": [
        {
          "internalType": "uint256",
          "name": "",
          "type": "uint256"
        }
      ],
      "stateMutability": "view",
      "type": "function"
    },
    {
      "inputs": [
        {
          "internalType": "address",
          "name": "newOwner",
          "type": "address"
        }
      ],
      "name": "transferOwnership",
      "outputs": [],
      "stateMutability": "nonpayable",
      "type": "function"
    }
  ],
  "bytecode": "0x6080346100bb57601f61213d38819003918201601f19168301916001600160401b038311848410176100c0578084926020946040528339810103126100bb57516001600160a01b0390818116908190036100bb5780156100a257600080546001600160a01b03198116831782556040519316907f8be0079c531659141344cd1fd0a4f28419497f9722a3daafe3b4186f6b6457e09080a361206690816100d78239f35b604051631e4fbdf760e01b815260006004820152602490fd5b600080fd5b634e487b7160e01b600052604160045260246000fdfe608060408181526004803610156200001657600080fd5b600092833560e01c9081632f2f2d56146200031957508063494cfc6c14620002e4578063634282af146200029f578063715018a614620002525780637e1c0c0914620002315780638da5cb5b1462000207578063d5c712751462000176578063d80d03a2146200010f5763f2fde38b146200009057600080fd5b346200010b5760203660031901126200010b57620000ad620005c9565b90620000b8620005e0565b6001600160a01b03918216928315620000f557505082546001600160a01b031981168317845516600080516020620020118339815191528380a380f35b51631e4fbdf760e01b8152908101849052602490fd5b8280fd5b50503462000172578060031936011262000172576200012d620005c9565b6001600160a01b0390811683526002602052818320805460243594908510156200016f57506020936200016091620005b0565b92905490519260031b1c168152f35b80fd5b5080fd5b5050346200017257602090816003193601126200010b576001600160a01b039283620001a1620005c9565b16815260028352818120938251908194808754938481520196845280842093915b838310620001ed57620001e98787620001de828c038362000652565b519182918262000538565b0390f35b8454811688529681019660019485019490920191620001c2565b5050346200017257816003193601126200017257905490516001600160a01b039091168152602090f35b50503462000172578160031936011262000172576020906001549051908152f35b83346200016f57806003193601126200016f576200026f620005e0565b80546001600160a01b03198116825581906001600160a01b0316600080516020620020118339815191528280a380f35b50346200010b5760203660031901126200010b5735916001548310156200016f5750620002ce6020926200057e565b905491519160018060a01b039160031b1c168152f35b5091346200016f57816003193601126200016f57506200030d620001e9926024359035620006a4565b90519182918262000538565b90508284346200016f57816003193601126200016f576001600160401b039284358481116200010b5762000351903690870162000503565b9190602435868111620004ff576200036d903690890162000503565b85546001600160a01b0398929491939261183a808401928b1691831184841017620004ec5790839291620007d784396060825289620003c5620003b5606085018b896200060d565b8481036020860152888a6200060d565b920152039086f08015620004e257871696600154600160401b9081811015620004cf57806001620003fa92016001556200057e565b81549060031b90848c831b921b19161790553387526002602052878720805491821015620004cf57906200043491600182018155620005b0565b819291549060031b918a831b921b1916179055600154946000198601958611620004bc5750602097507f6e6ae68e7d7d45fbd855c40d1eaafa8de46c5fbec3ee26f1af88730e400bc92c928794926200049d620004ab938951956060875260608701916200060d565b918483038b8601526200060d565b93858201528033940390a351908152f35b634e487b7160e01b815260118952602490fd5b634e487b7160e01b885260418b52602488fd5b86513d87823e3d90fd5b634e487b7160e01b895260418c52602489fd5b8480fd5b9181601f8401121562000533578235916001600160401b0383116200053357602083818601950101116200053357565b600080fd5b6020908160408183019282815285518094520193019160005b82811062000560575050505090565b83516001600160a01b03168552938101939281019260010162000551565b6001548110156200059a57600160005260206000200190600090565b634e487b7160e01b600052603260045260246000fd5b80548210156200059a5760005260206000200190600090565b600435906001600160a01b03821682036200053357565b6000546001600160a01b03163303620005f557565b60405163118cdaa760e01b8152336004820152602490fd5b908060209392818452848401376000828201840152601f01601f1916010190565b919082039182116200063c57565b634e487b7160e01b600052601160045260246000fd5b601f909101601f19168101906001600160401b038211908210176200067657604052565b634e487b7160e01b600052604160045260246000fd5b6001600160401b038111620006765760051b60200190565b91909160019081549384821015620007a75781018082116200063c57818582116200079e575b620006d5916200062e565b93620006e1856200068c565b94620006f1604051968762000652565b80865262000702601f19916200068c565b0194602095368783013780956000936000199386858201918211905b6200072e575b5050505050505050565b84518710156200079857806200063c576200075f62000759886200075386866200062e565b6200062e565b6200057e565b905486518910156200059a5760039190911b1c6001600160a01b0316600588901b86018501528587146200063c5787809701966200071e565b62000724565b859150620006ca565b505060405191925050602081016001600160401b0381118282101762000676576040526000815260003681379056fe60406080815234620004a4576200183a90813803806200001f81620004a9565b9384398201606083820312620004a45782516001600160401b039190828111620004a4578162000051918601620004cf565b60209182860151848111620004a45785916200006f918801620004cf565b9501516001600160a01b03808216949091859003620004a4578251818111620003a4576003908154906001958683811c9316801562000499575b8884101462000483578190601f938481116200042d575b508890848311600114620003c657600092620003ba575b505060001982851b1c191690861b1782555b8851928311620003a45760049889548681811c9116801562000399575b88821014620003845790818386959493116200032a575b5087918411600114620002bf57600093620002b3575b505082851b92600019911b1c19161786555b83156200029c57600580546001600160a01b0319811686179091558491167f8be0079c531659141344cd1fd0a4f28419497f9722a3daafe3b4186f6b6457e0600080a37f9b779b17422d0df92223018b32b4d1fa46e071723d6817e2486d003becc55f00556b0295be96e640669720000000908160065530156200028557600254828101809111620002705760025530600052600081528360002082815401905583519182527fddf252ad1be2c89b69c2b068fc378daa952ba7f163c4a11628f55a4df523b3ef91600083833093a36002546aa56fa5b99019a5c8000000908181018091116200025b576000949596506002558484528382528584208181540190558551908152a3516112f89081620005428239f35b601187634e487b7160e01b6000525260246000fd5b601186634e487b7160e01b6000525260246000fd5b835163ec442f0560e01b8152600081870152602490fd5b8451631e4fbdf760e01b8152600081880152602490fd5b01519150388062000133565b9190869450601f198416928b600052886000209360005b8a828210620003135750508511620002f8575b50505050811b01865562000145565b01519060f884600019921b161c1916905538808080620002e9565b8385015187558a98909601959384019301620002d6565b90919293508a600052876000208380870160051c8201928a88106200037a575b9189918897969594930160051c01915b8281106200036a5750506200011d565b600081558796508991016200035a565b925081926200034a565b60228b634e487b7160e01b6000525260246000fd5b90607f169062000106565b634e487b7160e01b600052604160045260246000fd5b015190503880620000d7565b90889350601f19831691866000528a6000209260005b8c828210620004165750508411620003fd575b505050811b018255620000e9565b015160001983871b60f8161c19169055388080620003ef565b8385015186558c97909501949384019301620003dc565b90915084600052886000208480850160051c8201928b861062000479575b918a91869594930160051c01915b82811062000469575050620000c0565b600081558594508a910162000459565b925081926200044b565b634e487b7160e01b600052602260045260246000fd5b92607f1692620000a9565b600080fd5b6040519190601f01601f191682016001600160401b03811183821017620003a457604052565b919080601f84011215620004a45782516001600160401b038111620003a45760209062000505601f8201601f19168301620004a9565b92818452828287010111620004a45760005b8181106200052d57508260009394955001015290565b85810183015184820184015282016200051756fe6080604081815260048036101561001557600080fd5b600092833560e01c90816306fdde0314610d7257508063095ea7b314610cc9578063130b312014610caa57806318160ddd14610c8b5780631e4c729214610c655780631fb87f3914610c4557806323b872dd14610b5c578063313ce56714610b40578063343ee3b714610b215780636700c0c314610afe57806370a0823114610ac7578063715018a614610a7c578063768713f514610a5c5780638da5cb5b14610a33578063902d55a514610a0d578063939c4456146109f057806395d89b41146109095780639d1b464a14610899578063a0ef91df1461078f578063a9059cbb1461075e578063ae2c1a6e1461073b578063b9c3a81814610715578063d79875eb14610492578063d96a094a14610237578063dd62ed3e146101ee578063e7c2b772146101c65763f2fde38b1461014c57600080fd5b346101c25760203660031901126101c257610165610e8f565b9061016e610ec0565b6001600160a01b039182169283156101ac575050600580546001600160a01b031981168417909155166000805160206112438339815191528380a380f35b51631e4fbdf760e01b8152908101849052602490fd5b8280fd5b5050346101ea57816003193601126101ea5760209060ff6008541690519015158152f35b5080fd5b5050346101ea57806003193601126101ea578060209261020c610e8f565b610214610eaa565b6001600160a01b0391821683526001865283832091168252845220549051908152f35b50906020918260031936011261048e5761024f6110fc565b341561045b57600754926714d1120d7b16000093808501809511610448576102996102926006549661028c610284898361102f565b91349061100c565b90611042565b8096611062565b946102a586151561106f565b8335861061040b576006556102bb90349061100c565b6007556102c9843330610f25565b60085460ff811615806103f7575b6103cd575b5060ff6008541661032b575b50506103136000805160206112838339815191529161030561112c565b9051918291339534846110e6565b0390a260016000805160206112638339815191525580f35b479182610339575b506102e8565b60018060a01b0390868080808786600554165af16103556110a7565b501561039357509160008051602061122383398151915260008051602061128383398151915294926103139460055416928451908152a29138610333565b845162461bcd60e51b81529081018390526014602482015273105d5d1bcb5dda5d1a191c985dc819985a5b195960621b6044820152606490fd5b60019060ff1916176008556000805160206112a3833981519152816007548551908152a1386102dc565b506730927f74c9de000060075410156102d7565b5050606492519162461bcd60e51b83528201526018602482015277536c6970706167653a20746f6f2066657720746f6b656e7360401b6044820152fd5b634e487b7160e01b865260118352602486fd5b82606492519162461bcd60e51b8352820152600f60248201526e53656e642045544820746f2062757960881b6044820152fd5b8380fd5b5090346101c257806003193601126101c2578135916104af6110fc565b60ff600854166106d457821561069c573384528360205282828520541061066357600754906714d1120d7b16000091808301809311610650576105136006549361050d61050688610500888561102f565b9761100c565b8096611042565b90611062565b928184116106145761052684151561106f565b60243584106105d65761053d918491600655611062565b60075561054b843033610f25565b8480808085335af161055b6110a7565b501561059d5750907f846c37eef631e0943682d87352ec117c20008eb7f425c9b85ac011a6d4774cc09161031361059061112c565b92519283923396846110e6565b606490602084519162461bcd60e51b83528201526013602482015272115512081d1c985b9cd9995c8819985a5b1959606a1b6044820152fd5b845162461bcd60e51b815260208185015260186024820152770a6d8d2e0e0c2ceca7440e8dede40d8d2e8e8d8ca408aa8960431b6044820152606490fd5b845162461bcd60e51b81526020818501526016602482015275139bdd08195b9bdd59da08115512081a5b881c1bdbdb60521b6044820152606490fd5b634e487b7160e01b865260118252602486fd5b6020606492519162461bcd60e51b83528201526014602482015273496e73756666696369656e742062616c616e636560601b6044820152fd5b6020606492519162461bcd60e51b83528201526013602482015272139bc81d1bdad95b9cc81cdc1958da599a5959606a1b6044820152fd5b6020606492519162461bcd60e51b8352820152601c60248201527b10d85b9b9bdd081cd95b1b0e881d1bdad95b8819dc98591d585d195960221b6044820152fd5b5050346101ea57816003193601126101ea57602090516aa56fa5b99019a5c80000008152f35b5050346101ea57816003193601126101ea57602090516730927f74c9de00008152f35b5050346101ea57806003193601126101ea5760209061078861077e610e8f565b6024359033610f25565b5160018152f35b50346101c257826003193601126101c2576107a8610ec0565b479081156108615760085460ff811615610836575b5060018060a01b0390848080808686600554165af16107da6110a7565b5015610801575060008051602061122383398151915291602091600554169351908152a280f35b606490602085519162461bcd60e51b8352820152600f60248201526e15da5d1a191c985dc819985a5b1959608a1b6044820152fd5b60019060ff1916176008556000805160206112a383398151915260206007548551908152a1386107bd565b606490602084519162461bcd60e51b835282015260126024820152714e6f2045544820746f20776974686472617760701b6044820152fd5b509134610906578060031936011261090657600754926714d1120d7b1600009384018094116108f357670de0b6b3a7640000938481029481860414901517156108f3576020836108ec8660065490611042565b9051908152f35b634e487b7160e01b825260119052602490fd5b80fd5b509190346101ea57816003193601126101ea57805191809380549160019083821c928285169485156109e6575b60209586861081146109d3578589529081156109af5750600114610974575b6109708787610966828c0383610eec565b5191829182610e46565b0390f35b9080949750528583205b82841061099c57505050826109709461096692820101943880610955565b805486850188015292860192810161097e565b60ff19168887015250505050151560051b8301019250610966826109703880610955565b634e487b7160e01b845260228352602484fd5b93607f1693610936565b5050346101ea57816003193601126101ea576020906108ec61112c565b5050346101ea57816003193601126101ea5751676765c793fa10079d601b1b8152602090f35b5050346101ea57816003193601126101ea5760055490516001600160a01b039091168152602090f35b50913461090657602036600319011261090657506108ec602092356111d3565b8334610906578060031936011261090657610a95610ec0565b600580546001600160a01b0319811690915581906001600160a01b03166000805160206112438339815191528280a380f35b5050346101ea5760203660031901126101ea5760209181906001600160a01b03610aef610e8f565b16815280845220549051908152f35b5050346101ea57816003193601126101ea57602090516714d1120d7b1600008152f35b5050346101ea57816003193601126101ea576020906006549051908152f35b5050346101ea57816003193601126101ea576020905160128152f35b50823461090657606036600319011261090657610b77610e8f565b610b7f610eaa565b916044359360018060a01b038316808352600160205286832033845260205286832054916000198310610bbb575b602088610788898989610f25565b868310610c23578115610c0c573315610bf55750825260016020908152868320338452815291869020908590039055829061078887610bad565b8751634a1406b160e11b8152908101849052602490fd5b875163e602df0560e01b8152908101849052602490fd5b9050610c41868851938493637dc7a0d960e11b855233908501610fee565b0390fd5b50913461090657602036600319011261090657506108ec6020923561115f565b5050346101ea57816003193601126101ea57516714adf4b7320334b9601d1b8152602090f35b5050346101ea57816003193601126101ea576020906002549051908152f35b5050346101ea57816003193601126101ea576020906007549051908152f35b50346101c257816003193601126101c257610ce2610e8f565b602435903315610d5b576001600160a01b0316918215610d4457508083602095338152600187528181208582528752205582519081527f8c5be1e5ebec7d5bd14f71427d1e84f3dd0314c0f7b2291e5b200ac8c7c3b925843392a35160018152f35b8351634a1406b160e11b8152908101859052602490fd5b835163e602df0560e01b8152808401869052602490fd5b929190503461048e578360031936011261048e57600354600181811c9186908281168015610e3c575b6020958686108214610e295750848852908115610e075750600114610dcc575b6109708686610966828b0383610eec565b929550600383528583205b828410610df4575050508261097094610966928201019438610dbb565b8054868501880152928601928101610dd7565b60ff191687860152505050151560051b83010192506109668261097038610dbb565b634e487b7160e01b845260229052602483fd5b93607f1693610d9b565b6020808252825181830181905290939260005b828110610e7b57505060409293506000838284010152601f8019910116010190565b818101860151848201604001528501610e59565b600435906001600160a01b0382168203610ea557565b600080fd5b602435906001600160a01b0382168203610ea557565b6005546001600160a01b03163303610ed457565b60405163118cdaa760e01b8152336004820152602490fd5b601f909101601f19168101906001600160401b03821190821017610f0f57604052565b634e487b7160e01b600052604160045260246000fd5b916001600160a01b03808416928315610fd55716928315610fbc5760009083825281602052604082205490838210610f9f575091604082827fddf252ad1be2c89b69c2b068fc378daa952ba7f163c4a11628f55a4df523b3ef958760209652828652038282205586815220818154019055604051908152a3565b610c418460405193849363391434e360e21b855260048501610fee565b60405163ec442f0560e01b815260006004820152602490fd5b604051634b637e8f60e11b815260006004820152602490fd5b604091949392606082019560018060a01b0316825260208201520152565b9190820180921161101957565b634e487b7160e01b600052601160045260246000fd5b8181029291811591840414171561101957565b811561104c570490565b634e487b7160e01b600052601260045260246000fd5b9190820391821161101957565b1561107657565b60405162461bcd60e51b8152602060048201526009602482015268151bdbc81cdb585b1b60ba1b6044820152606490fd5b3d156110e1573d906001600160401b038211610f0f57604051916110d5601f8201601f191660200184610eec565b82523d6000602084013e565b606090565b6040919493926060820195825260208201520152565b600080516020611263833981519152600281541461111a5760029055565b604051633ee5aeb560e01b8152600490fd5b60ff6008541661115a57600754606481029080820460641490151715611019576730927f74c9de0000900490565b606490565b60ff600854166111cd57600754906730927f74c9de000080611181838561100c565b116111bc575b506714d1120d7b1600009182018092116110195761050d6111b99261028c600654936111b3858461102f565b9261100c565b90565b828103915081116110195738611187565b50600090565b9060ff6008541661121c57600754916714d1120d7b1600008381018091116110195761050d61120d9261028c600654916111b3838661102f565b918083116112185750565b9150565b6000915056fe8455ae6be5d92f1df1c3c1484388e247a36c7e60d72055ae216dbc258f257d4b8be0079c531659141344cd1fd0a4f28419497f9722a3daafe3b4186f6b6457e09b779b17422d0df92223018b32b4d1fa46e071723d6817e2486d003becc55f00beae048c6d270d9469f86cf6e8fedda3c60ad770f16c24c9fc131c8e9a09101d04d39283851d5dc1961a5296a48d487854db2aae45afe51e83aae1db8d04d42fa2646970667358221220afa8f44018ed2ee6c6f5c489c7fd397bc08fdc1850f390bbd20d126a7764002764736f6c634300081400338be0079c531659141344cd1fd0a4f28419497f9722a3daafe3b4186f6b6457e0a2646970667358221220a27fb83b80e2a6192d63622aa92e739b2fd27a988adb75345ab135324387f02664736f6c63430008140033",
  "linkReferences": {},
  "deployedLinkReferences": {}
}