{
  "_format": "hh-sol-artifact-1",
  "contractName": "AsteroidStrategy",
  "sourceName": "contracts/AsteroidStrategy.sol",
  "abi": [
    {
      "inputs": [
        {
          "internalType": "address",
          "name": "_routerAddress",
          "type": "address"
        }
      ],
      "stateMutability": "nonpayable",
      "type": "constructor"
    },
    {
      "anonymous": false,
      "inputs": [
        {
          "indexed": true,
          "internalType": "address",
          "name": "owner",
          "type": "address"
        },
        {
          "indexed": true,
          "internalType": "address",
          "name": "spender",
          "type": "address"
        },
        {
          "indexed": false,
          "internalType": "uint256",
          "name": "value",
          "type": "uint256"
        }
      ],
      "name": "Approval",
      "type": "event"
    },
    {
      "anonymous": false,
      "inputs": [
        {
          "indexed": true,
          "internalType": "address",
          "name": "newWallet",
          "type": "address"
        }
      ],
      "name": "BuybackWalletUpdated",
      "type": "event"
    },
    {
      "anonymous": false,
      "inputs": [
        {
          "indexed": true,
          "internalType": "address",
          "name": "previousOwner",
          "type": "address"
        },
        {
          "indexed": true,
          "internalType": "address",
          "name": "newOwner",
          "type": "address"
        }
      ],
      "name": "OwnershipTransferred",
      "type": "event"
    },
    {
      "anonymous": false,
      "inputs": [
        {
          "indexed": false,
          "internalType": "uint256",
          "name": "buyTax",
          "type": "uint256"
        },
        {
          "indexed": false,
          "internalType": "uint256",
          "name": "sellTax",
          "type": "uint256"
        }
      ],
      "name": "TaxUpdated",
      "type": "event"
    },
    {
      "anonymous": false,
      "inputs": [
        {
          "indexed": false,
          "internalType": "uint256",
          "name": "tokensSwapped",
          "type": "uint256"
        },
        {
          "indexed": false,
          "internalType": "uint256",
          "name": "ethReceived",
          "type": "uint256"
        }
      ],
      "name": "TokensSwappedForETH",
      "type": "event"
    },
    {
      "anonymous": false,
      "inputs": [],
      "name": "TradingEnabled",
      "type": "event"
    },
    {
      "anonymous": false,
      "inputs": [
        {
          "indexed": true,
          "internalType": "address",
          "name": "from",
          "type": "address"
        },
        {
          "indexed": true,
          "internalType": "address",
          "name": "to",
          "type": "address"
        },
        {
          "indexed": false,
          "internalType": "uint256",
          "name": "value",
          "type": "uint256"
        }
      ],
      "name": "Transfer",
      "type": "event"
    },
    {
      "inputs": [
        {
          "internalType": "address",
          "name": "_owner",
          "type": "address"
        },
        {
          "internalType": "address",
          "name": "spender",
          "type": "address"
        }
      ],
      "name": "allowance",
      "outputs": [
        {
          "internalType": "uint256",
          "name": "",
          "type": "uint256"
        }
      ],
      "stateMutability": "view",
      "type": "function"
    },
    {
      "inputs": [
        {
          "internalType": "address",
          "name": "spender",
          "type": "address"
        },
        {
          "internalType": "uint256",
          "name": "amount",
          "type": "uint256"
        }
      ],
      "name": "approve",
      "outputs": [
        {
          "internalType": "bool",
          "name": "",
          "type": "bool"
        }
      ],
      "stateMutability": "nonpayable",
      "type": "function"
    },
    {
      "inputs": [
        {
          "internalType": "address",
          "name": "account",
          "type": "address"
        }
      ],
      "name": "balanceOf",
      "outputs": [
        {
          "internalType": "uint256",
          "name": "",
          "type": "uint256"
        }
      ],
      "stateMutability": "view",
      "type": "function"
    },
    {
      "inputs": [],
      "name": "buyTax",
      "outputs": [
        {
          "internalType": "uint256",
          "name": "",
          "type": "uint256"
        }
      ],
      "stateMutability": "view",
      "type": "function"
    },
    {
      "inputs": [],
      "name": "buybackWallet",
      "outputs": [
        {
          "internalType": "address",
          "name": "",
          "type": "address"
        }
      ],
      "stateMutability": "view",
      "type": "function"
    },
    {
      "inputs": [],
      "name": "decimals",
      "outputs": [
        {
          "internalType": "uint8",
          "name": "",
          "type": "uint8"
        }
      ],
      "stateMutability": "view",
      "type": "function"
    },
    {
      "inputs": [],
      "name": "enableTrading",
      "outputs": [],
      "stateMutability": "nonpayable",
      "type": "function"
    },
    {
      "inputs": [
        {
          "internalType": "address",
          "name": "",
          "type": "address"
        }
      ],
      "name": "isExcludedFromFee",
      "outputs": [
        {
          "internalType": "bool",
          "name": "",
          "type": "bool"
        }
      ],
      "stateMutability": "view",
      "type": "function"
    },
    {
      "inputs": [],
      "name": "name",
      "outputs": [
        {
          "internalType": "string",
          "name": "",
          "type": "string"
        }
      ],
      "stateMutability": "view",
      "type": "function"
    },
    {
      "inputs": [],
      "name": "owner",
      "outputs": [
        {
          "internalType": "address",
          "name": "",
          "type": "address"
        }
      ],
      "stateMutability": "view",
      "type": "function"
    },
    {
      "inputs": [],
      "name": "renounceOwnership",
      "outputs": [],
      "stateMutability": "nonpayable",
      "type": "function"
    },
    {
      "inputs": [],
      "name": "sellTax",
      "outputs": [
        {
          "internalType": "uint256",
          "name": "",
          "type": "uint256"
        }
      ],
      "stateMutability": "view",
      "type": "function"
    },
    {
      "inputs": [
        {
          "internalType": "address",
          "name": "w",
          "type": "address"
        }
      ],
      "name": "setBuybackWallet",
      "outputs": [],
      "stateMutability": "nonpayable",
      "type": "function"
    },
    {
      "inputs": [
        {
          "internalType": "address",
          "name": "a",
          "type": "address"
        },
        {
          "internalType": "bool",
          "name": "e",
          "type": "bool"
        }
      ],
      "name": "setExcludedFromFee",
      "outputs": [],
      "stateMutability": "nonpayable",
      "type": "function"
    },
    {
      "inputs": [
        {
          "internalType": "uint256",
          "name": "b",
          "type": "uint256"
        },
        {
          "internalType": "uint256",
          "name": "s",
          "type": "uint256"
        }
      ],
      "name": "setTax",
      "outputs": [],
      "stateMutability": "nonpayable",
      "type": "function"
    },
    {
      "inputs": [],
      "name": "swapThreshold",
      "outputs": [
        {
          "internalType": "uint256",
          "name": "",
          "type": "uint256"
        }
      ],
      "stateMutability": "view",
      "type": "function"
    },
    {
      "inputs": [],
      "name": "symbol",
      "outputs": [
        {
          "internalType": "string",
          "name": "",
          "type": "string"
        }
      ],
      "stateMutability": "view",
      "type": "function"
    },
    {
      "inputs": [],
      "name": "totalSupply",
      "outputs": [
        {
          "internalType": "uint256",
          "name": "",
          "type": "uint256"
        }
      ],
      "stateMutability": "pure",
      "type": "function"
    },
    {
      "inputs": [],
      "name": "tradingEnabled",
      "outputs": [
        {
          "internalType": "bool",
          "name": "",
          "type": "bool"
        }
      ],
      "stateMutability": "view",
      "type": "function"
    },
    {
      "inputs": [
        {
          "internalType": "address",
          "name": "to",
          "type": "address"
        },
        {
          "internalType": "uint256",
          "name": "amount",
          "type": "uint256"
        }
      ],
      "name": "transfer",
      "outputs": [
        {
          "internalType": "bool",
          "name": "",
          "type": "bool"
        }
      ],
      "stateMutability": "nonpayable",
      "type": "function"
    },
    {
      "inputs": [
        {
          "internalType": "address",
          "name": "from",
          "type": "address"
        },
        {
          "internalType": "address",
          "name": "to",
          "type": "address"
        },
        {
          "internalType": "uint256",
          "name": "amount",
          "type": "uint256"
        }
      ],
      "name": "transferFrom",
      "outputs": [
        {
          "internalType": "bool",
          "name": "",
          "type": "bool"
        }
      ],
      "stateMutability": "nonpayable",
      "type": "function"
    },
    {
      "inputs": [
        {
          "internalType": "address",
          "name": "n",
          "type": "address"
        }
      ],
      "name": "transferOwnership",
      "outputs": [],
      "stateMutability": "nonpayable",
      "type": "function"
    },
    {
      "inputs": [],
      "name": "uniswapPair",
      "outputs": [
        {
          "internalType": "address",
          "name": "",
          "type": "address"
        }
      ],
      "stateMutability": "view",
      "type": "function"
    },
    {
      "inputs": [],
      "name": "uniswapRouter",
      "outputs": [
        {
          "internalType": "contract IUniswapV2Router02",
          "name": "",
          "type": "address"
        }
      ],
      "stateMutability": "view",
      "type": "function"
    },
    {
      "inputs": [],
      "name": "withdrawETH",
      "outputs": [],
      "stateMutability": "nonpayable",
      "type": "function"
    },
    {
      "stateMutability": "payable",
      "type": "receive"
    }
  ],
  "bytecode": "0x60806040526005600055600560015561271060056c054f529ca52576bc68920000006200002d91906200096d565b620000399190620009e7565b6003556000600460016101000a81548160ff0219169083151502179055503480156200006457600080fd5b50604051620032f0380380620032f083398181016040528101906200008a919062000a89565b600073ffffffffffffffffffffffffffffffffffffffff168173ffffffffffffffffffffffffffffffffffffffff1603620000fc576040517f08c379a0000000000000000000000000000000000000000000000000000000008152600401620000f39062000b1c565b60405180910390fd5b33600460026101000a81548173ffffffffffffffffffffffffffffffffffffffff021916908373ffffffffffffffffffffffffffffffffffffffff16021790555073bf06930f29d047823541c7726142a30aa9a8cddc600260006101000a81548173ffffffffffffffffffffffffffffffffffffffff021916908373ffffffffffffffffffffffffffffffffffffffff1602179055506c054f529ca52576bc6892000000600760003073ffffffffffffffffffffffffffffffffffffffff1673ffffffffffffffffffffffffffffffffffffffff168152602001908152602001600020819055503073ffffffffffffffffffffffffffffffffffffffff16600073ffffffffffffffffffffffffffffffffffffffff167fddf252ad1be2c89b69c2b068fc378daa952ba7f163c4a11628f55a4df523b3ef6c054f529ca52576bc689200000060405162000250919062000b4f565b60405180910390a36c02a7a94e5292bb5e3449000000600760003073ffffffffffffffffffffffffffffffffffffffff1673ffffffffffffffffffffffffffffffffffffffff1681526020019081526020016000206000828254620002b6919062000b6c565b925050819055506c02a7a94e5292bb5e34490000006007600061dead73ffffffffffffffffffffffffffffffffffffffff1673ffffffffffffffffffffffffffffffffffffffff16815260200190815260200160002060008282546200031d919062000ba7565b9250508190555061dead73ffffffffffffffffffffffffffffffffffffffff163073ffffffffffffffffffffffffffffffffffffffff167fddf252ad1be2c89b69c2b068fc378daa952ba7f163c4a11628f55a4df523b3ef6c02a7a94e5292bb5e344900000060405162000392919062000b4f565b60405180910390a360006c02a7a94e5292bb5e34490000006c054f529ca52576bc6892000000620003c4919062000b6c565b905080600760003073ffffffffffffffffffffffffffffffffffffffff1673ffffffffffffffffffffffffffffffffffffffff168152602001908152602001600020600082825462000417919062000b6c565b9250508190555080600760003373ffffffffffffffffffffffffffffffffffffffff1673ffffffffffffffffffffffffffffffffffffffff16815260200190815260200160002060008282546200046f919062000ba7565b925050819055503373ffffffffffffffffffffffffffffffffffffffff163073ffffffffffffffffffffffffffffffffffffffff167fddf252ad1be2c89b69c2b068fc378daa952ba7f163c4a11628f55a4df523b3ef83604051620004d5919062000b4f565b60405180910390a381600560006101000a81548173ffffffffffffffffffffffffffffffffffffffff021916908373ffffffffffffffffffffffffffffffffffffffff160217905550600560009054906101000a900473ffffffffffffffffffffffffffffffffffffffff1673ffffffffffffffffffffffffffffffffffffffff1663c45a01556040518163ffffffff1660e01b8152600401602060405180830381865afa1580156200058c573d6000803e3d6000fd5b505050506040513d601f19601f82011682018060405250810190620005b2919062000a89565b73ffffffffffffffffffffffffffffffffffffffff1663c9c6539630600560009054906101000a900473ffffffffffffffffffffffffffffffffffffffff1673ffffffffffffffffffffffffffffffffffffffff1663ad5c46486040518163ffffffff1660e01b8152600401602060405180830381865afa1580156200063c573d6000803e3d6000fd5b505050506040513d601f19601f8201168201806040525081019062000662919062000a89565b6040518363ffffffff1660e01b81526004016200068192919062000bf3565b6020604051808303816000875af1158015620006a1573d6000803e3d6000fd5b505050506040513d601f19601f82011682018060405250810190620006c7919062000a89565b600660006101000a81548173ffffffffffffffffffffffffffffffffffffffff021916908373ffffffffffffffffffffffffffffffffffffffff1602179055506001600960003373ffffffffffffffffffffffffffffffffffffffff1673ffffffffffffffffffffffffffffffffffffffff16815260200190815260200160002060006101000a81548160ff0219169083151502179055506001600960003073ffffffffffffffffffffffffffffffffffffffff1673ffffffffffffffffffffffffffffffffffffffff16815260200190815260200160002060006101000a81548160ff02191690831515021790555060016009600061dead73ffffffffffffffffffffffffffffffffffffffff1673ffffffffffffffffffffffffffffffffffffffff16815260200190815260200160002060006101000a81548160ff021916908315150217905550600160096000600260009054906101000a900473ffffffffffffffffffffffffffffffffffffffff1673ffffffffffffffffffffffffffffffffffffffff1673ffffffffffffffffffffffffffffffffffffffff16815260200190815260200160002060006101000a81548160ff0219169083151502179055507fffffffffffffffffffffffffffffffffffffffffffffffffffffffffffffffff600860003073ffffffffffffffffffffffffffffffffffffffff1673ffffffffffffffffffffffffffffffffffffffff16815260200190815260200160002060008473ffffffffffffffffffffffffffffffffffffffff1673ffffffffffffffffffffffffffffffffffffffff16815260200190815260200160002081905550505062000c20565b6000819050919050565b7f4e487b7100000000000000000000000000000000000000000000000000000000600052601160045260246000fd5b60006200097a8262000934565b9150620009878362000934565b9250828202620009978162000934565b91508282048414831517620009b157620009b06200093e565b5b5092915050565b7f4e487b7100000000000000000000000000000000000000000000000000000000600052601260045260246000fd5b6000620009f48262000934565b915062000a018362000934565b92508262000a145762000a13620009b8565b5b828204905092915050565b600080fd5b600073ffffffffffffffffffffffffffffffffffffffff82169050919050565b600062000a518262000a24565b9050919050565b62000a638162000a44565b811462000a6f57600080fd5b50565b60008151905062000a838162000a58565b92915050565b60006020828403121562000aa25762000aa162000a1f565b5b600062000ab28482850162000a72565b91505092915050565b600082825260208201905092915050565b7f5a65726f20726f75746572206164647265737300000000000000000000000000600082015250565b600062000b0460138362000abb565b915062000b118262000acc565b602082019050919050565b6000602082019050818103600083015262000b378162000af5565b9050919050565b62000b498162000934565b82525050565b600060208201905062000b66600083018462000b3e565b92915050565b600062000b798262000934565b915062000b868362000934565b925082820390508181111562000ba15762000ba06200093e565b5b92915050565b600062000bb48262000934565b915062000bc18362000934565b925082820190508082111562000bdc5762000bdb6200093e565b5b92915050565b62000bed8162000a44565b82525050565b600060408201905062000c0a600083018562000be2565b62000c19602083018462000be2565b9392505050565b6126c08062000c306000396000f3fe60806040526004361061016a5760003560e01c806370a08231116100d1578063a9059cbb1161008a578063dd62ed3e11610064578063dd62ed3e14610529578063deab8aea14610566578063e086e5ec14610591578063f2fde38b146105a857610171565b8063a9059cbb14610496578063c816841b146104d3578063cc1776d3146104fe57610171565b806370a08231146103aa578063715018a6146103e7578063735de9f7146103fe5780638a8c523c146104295780638da5cb5b1461044057806395d89b411461046b57610171565b8063313ce56711610123578063313ce5671461029a5780634ada218b146102c55780634f7041a5146102f05780635342acb41461031b5780636612e66f14610358578063667f65261461038157610171565b80630445b6671461017657806306fdde03146101a1578063095ea7b3146101cc57806318160ddd146102095780631d0adc071461023457806323b872dd1461025d57610171565b3661017157005b600080fd5b34801561018257600080fd5b5061018b6105d1565b6040516101989190611d26565b60405180910390f35b3480156101ad57600080fd5b506101b66105d7565b6040516101c39190611dd1565b60405180910390f35b3480156101d857600080fd5b506101f360048036038101906101ee9190611e82565b610610565b6040516102009190611edd565b60405180910390f35b34801561021557600080fd5b5061021e610627565b60405161022b9190611d26565b60405180910390f35b34801561024057600080fd5b5061025b60048036038101906102569190611ef8565b61063c565b005b34801561026957600080fd5b50610284600480360381019061027f9190611f25565b61085e565b6040516102919190611edd565b60405180910390f35b3480156102a657600080fd5b506102af610950565b6040516102bc9190611f94565b60405180910390f35b3480156102d157600080fd5b506102da610955565b6040516102e79190611edd565b60405180910390f35b3480156102fc57600080fd5b50610305610968565b6040516103129190611d26565b60405180910390f35b34801561032757600080fd5b50610342600480360381019061033d9190611ef8565b61096e565b60405161034f9190611edd565b60405180910390f35b34801561036457600080fd5b5061037f600480360381019061037a9190611fdb565b61098e565b005b34801561038d57600080fd5b506103a860048036038101906103a3919061201b565b610a79565b005b3480156103b657600080fd5b506103d160048036038101906103cc9190611ef8565b610b6f565b6040516103de9190611d26565b60405180910390f35b3480156103f357600080fd5b506103fc610bb8565b005b34801561040a57600080fd5b50610413610d09565b60405161042091906120ba565b60405180910390f35b34801561043557600080fd5b5061043e610d2f565b005b34801561044c57600080fd5b50610455610e08565b60405161046291906120e4565b60405180910390f35b34801561047757600080fd5b50610480610e2e565b60405161048d9190611dd1565b60405180910390f35b3480156104a257600080fd5b506104bd60048036038101906104b89190611e82565b610e67565b6040516104ca9190611edd565b60405180910390f35b3480156104df57600080fd5b506104e8610e7e565b6040516104f591906120e4565b60405180910390f35b34801561050a57600080fd5b50610513610ea4565b6040516105209190611d26565b60405180910390f35b34801561053557600080fd5b50610550600480360381019061054b91906120ff565b610eaa565b60405161055d9190611d26565b60405180910390f35b34801561057257600080fd5b5061057b610f31565b60405161058891906120e4565b60405180910390f35b34801561059d57600080fd5b506105a6610f57565b005b3480156105b457600080fd5b506105cf60048036038101906105ca9190611ef8565b611082565b005b60035481565b6040518060400160405280601181526020017f41737465726f696420537472617465677900000000000000000000000000000081525081565b600061061d33848461120b565b6001905092915050565b60006c054f529ca52576bc6892000000905090565b600460029054906101000a900473ffffffffffffffffffffffffffffffffffffffff1673ffffffffffffffffffffffffffffffffffffffff163373ffffffffffffffffffffffffffffffffffffffff16146106cc576040517f08c379a00000000000000000000000000000000000000000000000000000000081526004016106c39061218b565b60405180910390fd5b600073ffffffffffffffffffffffffffffffffffffffff168173ffffffffffffffffffffffffffffffffffffffff160361070557600080fd5b600060096000600260009054906101000a900473ffffffffffffffffffffffffffffffffffffffff1673ffffffffffffffffffffffffffffffffffffffff1673ffffffffffffffffffffffffffffffffffffffff16815260200190815260200160002060006101000a81548160ff02191690831515021790555080600260006101000a81548173ffffffffffffffffffffffffffffffffffffffff021916908373ffffffffffffffffffffffffffffffffffffffff1602179055506001600960008373ffffffffffffffffffffffffffffffffffffffff1673ffffffffffffffffffffffffffffffffffffffff16815260200190815260200160002060006101000a81548160ff0219169083151502179055508073ffffffffffffffffffffffffffffffffffffffff167f2e5665e81af8928ff3f79e82650b68c9459cde711420effbff19b3ccee749f8160405160405180910390a250565b600080600860008673ffffffffffffffffffffffffffffffffffffffff1673ffffffffffffffffffffffffffffffffffffffff16815260200190815260200160002060003373ffffffffffffffffffffffffffffffffffffffff1673ffffffffffffffffffffffffffffffffffffffff16815260200190815260200160002054905082811015610923576040517f08c379a000000000000000000000000000000000000000000000000000000000815260040161091a906121f7565b60405180910390fd5b610939853385846109349190612246565b61120b565b610944858585611369565b60019150509392505050565b601281565b600460019054906101000a900460ff1681565b60005481565b60096020528060005260406000206000915054906101000a900460ff1681565b600460029054906101000a900473ffffffffffffffffffffffffffffffffffffffff1673ffffffffffffffffffffffffffffffffffffffff163373ffffffffffffffffffffffffffffffffffffffff1614610a1e576040517f08c379a0000000000000000000000000000000000000000000000000000000008152600401610a159061218b565b60405180910390fd5b80600960008473ffffffffffffffffffffffffffffffffffffffff1673ffffffffffffffffffffffffffffffffffffffff16815260200190815260200160002060006101000a81548160ff0219169083151502179055505050565b600460029054906101000a900473ffffffffffffffffffffffffffffffffffffffff1673ffffffffffffffffffffffffffffffffffffffff163373ffffffffffffffffffffffffffffffffffffffff1614610b09576040517f08c379a0000000000000000000000000000000000000000000000000000000008152600401610b009061218b565b60405180910390fd5b600a8211158015610b1b5750600a8111155b610b2457600080fd5b81600081905550806001819055507fb841faf0d1b32571f4ef966a2f35e3ae51f3cdda45318c3da5570a5b2ad856058282604051610b6392919061227a565b60405180910390a15050565b6000600760008373ffffffffffffffffffffffffffffffffffffffff1673ffffffffffffffffffffffffffffffffffffffff168152602001908152602001600020549050919050565b600460029054906101000a900473ffffffffffffffffffffffffffffffffffffffff1673ffffffffffffffffffffffffffffffffffffffff163373ffffffffffffffffffffffffffffffffffffffff1614610c48576040517f08c379a0000000000000000000000000000000000000000000000000000000008152600401610c3f9061218b565b60405180910390fd5b600073ffffffffffffffffffffffffffffffffffffffff16600460029054906101000a900473ffffffffffffffffffffffffffffffffffffffff1673ffffffffffffffffffffffffffffffffffffffff167f8be0079c531659141344cd1fd0a4f28419497f9722a3daafe3b4186f6b6457e060405160405180910390a36000600460026101000a81548173ffffffffffffffffffffffffffffffffffffffff021916908373ffffffffffffffffffffffffffffffffffffffff160217905550565b600560009054906101000a900473ffffffffffffffffffffffffffffffffffffffff1681565b600460029054906101000a900473ffffffffffffffffffffffffffffffffffffffff1673ffffffffffffffffffffffffffffffffffffffff163373ffffffffffffffffffffffffffffffffffffffff1614610dbf576040517f08c379a0000000000000000000000000000000000000000000000000000000008152600401610db69061218b565b60405180910390fd5b6001600460016101000a81548160ff0219169083151502179055507f799663458a5ef2936f7fa0c99b3336c69c25890f82974f04e811e5bb359186c760405160405180910390a1565b600460029054906101000a900473ffffffffffffffffffffffffffffffffffffffff1681565b6040518060400160405280600b81526020017f41535445524f494453545200000000000000000000000000000000000000000081525081565b6000610e74338484611369565b6001905092915050565b600660009054906101000a900473ffffffffffffffffffffffffffffffffffffffff1681565b60015481565b6000600860008473ffffffffffffffffffffffffffffffffffffffff1673ffffffffffffffffffffffffffffffffffffffff16815260200190815260200160002060008373ffffffffffffffffffffffffffffffffffffffff1673ffffffffffffffffffffffffffffffffffffffff16815260200190815260200160002054905092915050565b600260009054906101000a900473ffffffffffffffffffffffffffffffffffffffff1681565b600460029054906101000a900473ffffffffffffffffffffffffffffffffffffffff1673ffffffffffffffffffffffffffffffffffffffff163373ffffffffffffffffffffffffffffffffffffffff1614610fe7576040517f08c379a0000000000000000000000000000000000000000000000000000000008152600401610fde9061218b565b60405180910390fd5b6000600460029054906101000a900473ffffffffffffffffffffffffffffffffffffffff1673ffffffffffffffffffffffffffffffffffffffff164760405161102f906122d4565b60006040518083038185875af1925050503d806000811461106c576040519150601f19603f3d011682016040523d82523d6000602084013e611071565b606091505b505090508061107f57600080fd5b50565b600460029054906101000a900473ffffffffffffffffffffffffffffffffffffffff1673ffffffffffffffffffffffffffffffffffffffff163373ffffffffffffffffffffffffffffffffffffffff1614611112576040517f08c379a00000000000000000000000000000000000000000000000000000000081526004016111099061218b565b60405180910390fd5b600073ffffffffffffffffffffffffffffffffffffffff168173ffffffffffffffffffffffffffffffffffffffff160361114b57600080fd5b8073ffffffffffffffffffffffffffffffffffffffff16600460029054906101000a900473ffffffffffffffffffffffffffffffffffffffff1673ffffffffffffffffffffffffffffffffffffffff167f8be0079c531659141344cd1fd0a4f28419497f9722a3daafe3b4186f6b6457e060405160405180910390a380600460026101000a81548173ffffffffffffffffffffffffffffffffffffffff021916908373ffffffffffffffffffffffffffffffffffffffff16021790555050565b600073ffffffffffffffffffffffffffffffffffffffff168373ffffffffffffffffffffffffffffffffffffffff16141580156112755750600073ffffffffffffffffffffffffffffffffffffffff168273ffffffffffffffffffffffffffffffffffffffff1614155b61127e57600080fd5b80600860008573ffffffffffffffffffffffffffffffffffffffff1673ffffffffffffffffffffffffffffffffffffffff16815260200190815260200160002060008473ffffffffffffffffffffffffffffffffffffffff1673ffffffffffffffffffffffffffffffffffffffff168152602001908152602001600020819055508173ffffffffffffffffffffffffffffffffffffffff168373ffffffffffffffffffffffffffffffffffffffff167f8c5be1e5ebec7d5bd14f71427d1e84f3dd0314c0f7b2291e5b200ac8c7c3b9258360405161135c9190611d26565b60405180910390a3505050565b600073ffffffffffffffffffffffffffffffffffffffff168373ffffffffffffffffffffffffffffffffffffffff16141580156113d35750600073ffffffffffffffffffffffffffffffffffffffff168273ffffffffffffffffffffffffffffffffffffffff1614155b80156113df5750600081115b6113e857600080fd5b6000600660009054906101000a900473ffffffffffffffffffffffffffffffffffffffff1673ffffffffffffffffffffffffffffffffffffffff168473ffffffffffffffffffffffffffffffffffffffff161490506000600660009054906101000a900473ffffffffffffffffffffffffffffffffffffffff1673ffffffffffffffffffffffffffffffffffffffff168473ffffffffffffffffffffffffffffffffffffffff16149050600460019054906101000a900460ff1661158757600960008673ffffffffffffffffffffffffffffffffffffffff1673ffffffffffffffffffffffffffffffffffffffff16815260200190815260200160002060009054906101000a900460ff16806115475750600960008573ffffffffffffffffffffffffffffffffffffffff1673ffffffffffffffffffffffffffffffffffffffff16815260200190815260200160002060009054906101000a900460ff165b611586576040517f08c379a000000000000000000000000000000000000000000000000000000000815260040161157d90612335565b60405180910390fd5b5b600354600760003073ffffffffffffffffffffffffffffffffffffffff1673ffffffffffffffffffffffffffffffffffffffff16815260200190815260200160002054101580156115e55750600460009054906101000a900460ff16155b80156115ee5750805b80156116445750600960008673ffffffffffffffffffffffffffffffffffffffff1673ffffffffffffffffffffffffffffffffffffffff16815260200190815260200160002060009054906101000a900460ff16155b156116555761165460035461198c565b5b6000600960008773ffffffffffffffffffffffffffffffffffffffff1673ffffffffffffffffffffffffffffffffffffffff16815260200190815260200160002060009054906101000a900460ff161580156116fb5750600960008673ffffffffffffffffffffffffffffffffffffffff1673ffffffffffffffffffffffffffffffffffffffff16815260200190815260200160002060009054906101000a900460ff16155b15611747578215611723576064600054856117169190612355565b61172091906123c6565b90505b8115611746576064600154856117399190612355565b61174391906123c6565b90505b5b60008111156118625780600760008873ffffffffffffffffffffffffffffffffffffffff1673ffffffffffffffffffffffffffffffffffffffff168152602001908152602001600020600082825461179f9190612246565b9250508190555080600760003073ffffffffffffffffffffffffffffffffffffffff1673ffffffffffffffffffffffffffffffffffffffff16815260200190815260200160002060008282546117f591906123f7565b925050819055503073ffffffffffffffffffffffffffffffffffffffff168673ffffffffffffffffffffffffffffffffffffffff167fddf252ad1be2c89b69c2b068fc378daa952ba7f163c4a11628f55a4df523b3ef836040516118599190611d26565b60405180910390a35b600081856118709190612246565b905080600760008973ffffffffffffffffffffffffffffffffffffffff1673ffffffffffffffffffffffffffffffffffffffff16815260200190815260200160002060008282546118c19190612246565b9250508190555080600760008873ffffffffffffffffffffffffffffffffffffffff1673ffffffffffffffffffffffffffffffffffffffff168152602001908152602001600020600082825461191791906123f7565b925050819055508573ffffffffffffffffffffffffffffffffffffffff168773ffffffffffffffffffffffffffffffffffffffff167fddf252ad1be2c89b69c2b068fc378daa952ba7f163c4a11628f55a4df523b3ef8360405161197b9190611d26565b60405180910390a350505050505050565b6001600460006101000a81548160ff0219169083151502179055506000600267ffffffffffffffff8111156119c4576119c361242b565b5b6040519080825280602002602001820160405280156119f25781602001602082028036833780820191505090505b5090503081600081518110611a0a57611a0961245a565b5b602002602001019073ffffffffffffffffffffffffffffffffffffffff16908173ffffffffffffffffffffffffffffffffffffffff1681525050600560009054906101000a900473ffffffffffffffffffffffffffffffffffffffff1673ffffffffffffffffffffffffffffffffffffffff1663ad5c46486040518163ffffffff1660e01b8152600401602060405180830381865afa158015611ab1573d6000803e3d6000fd5b505050506040513d601f19601f82011682018060405250810190611ad5919061249e565b81600181518110611ae957611ae861245a565b5b602002602001019073ffffffffffffffffffffffffffffffffffffffff16908173ffffffffffffffffffffffffffffffffffffffff16815250506000479050600560009054906101000a900473ffffffffffffffffffffffffffffffffffffffff1673ffffffffffffffffffffffffffffffffffffffff1663791ac947846000853061012c42611b7991906123f7565b6040518663ffffffff1660e01b8152600401611b999594939291906125c4565b600060405180830381600087803b158015611bb357600080fd5b505af1925050508015611bc4575060015b15611ced5760008147611bd79190612246565b90506000811115611ceb576000600260009054906101000a900473ffffffffffffffffffffffffffffffffffffffff1673ffffffffffffffffffffffffffffffffffffffff1682604051611c2a906122d4565b60006040518083038185875af1925050503d8060008114611c67576040519150601f19603f3d011682016040523d82523d6000602084013e611c6c565b606091505b5050905080611cb0576040517f08c379a0000000000000000000000000000000000000000000000000000000008152600401611ca79061266a565b60405180910390fd5b7f36a9a8ddccb9a6e60b53280dd3cea8ae4f010efbf6625460af0268cd6513a8358583604051611ce192919061227a565b60405180910390a1505b505b50506000600460006101000a81548160ff02191690831515021790555050565b6000819050919050565b611d2081611d0d565b82525050565b6000602082019050611d3b6000830184611d17565b92915050565b600081519050919050565b600082825260208201905092915050565b60005b83811015611d7b578082015181840152602081019050611d60565b60008484015250505050565b6000601f19601f8301169050919050565b6000611da382611d41565b611dad8185611d4c565b9350611dbd818560208601611d5d565b611dc681611d87565b840191505092915050565b60006020820190508181036000830152611deb8184611d98565b905092915050565b600080fd5b600073ffffffffffffffffffffffffffffffffffffffff82169050919050565b6000611e2382611df8565b9050919050565b611e3381611e18565b8114611e3e57600080fd5b50565b600081359050611e5081611e2a565b92915050565b611e5f81611d0d565b8114611e6a57600080fd5b50565b600081359050611e7c81611e56565b92915050565b60008060408385031215611e9957611e98611df3565b5b6000611ea785828601611e41565b9250506020611eb885828601611e6d565b9150509250929050565b60008115159050919050565b611ed781611ec2565b82525050565b6000602082019050611ef26000830184611ece565b92915050565b600060208284031215611f0e57611f0d611df3565b5b6000611f1c84828501611e41565b91505092915050565b600080600060608486031215611f3e57611f3d611df3565b5b6000611f4c86828701611e41565b9350506020611f5d86828701611e41565b9250506040611f6e86828701611e6d565b9150509250925092565b600060ff82169050919050565b611f8e81611f78565b82525050565b6000602082019050611fa96000830184611f85565b92915050565b611fb881611ec2565b8114611fc357600080fd5b50565b600081359050611fd581611faf565b92915050565b60008060408385031215611ff257611ff1611df3565b5b600061200085828601611e41565b925050602061201185828601611fc6565b9150509250929050565b6000806040838503121561203257612031611df3565b5b600061204085828601611e6d565b925050602061205185828601611e6d565b9150509250929050565b6000819050919050565b600061208061207b61207684611df8565b61205b565b611df8565b9050919050565b600061209282612065565b9050919050565b60006120a482612087565b9050919050565b6120b481612099565b82525050565b60006020820190506120cf60008301846120ab565b92915050565b6120de81611e18565b82525050565b60006020820190506120f960008301846120d5565b92915050565b6000806040838503121561211657612115611df3565b5b600061212485828601611e41565b925050602061213585828601611e41565b9150509250929050565b7f4e6f74206f776e65720000000000000000000000000000000000000000000000600082015250565b6000612175600983611d4c565b91506121808261213f565b602082019050919050565b600060208201905081810360008301526121a481612168565b9050919050565b7f45524332303a20696e73756666696369656e7420616c6c6f77616e6365000000600082015250565b60006121e1601d83611d4c565b91506121ec826121ab565b602082019050919050565b60006020820190508181036000830152612210816121d4565b9050919050565b7f4e487b7100000000000000000000000000000000000000000000000000000000600052601160045260246000fd5b600061225182611d0d565b915061225c83611d0d565b925082820390508181111561227457612273612217565b5b92915050565b600060408201905061228f6000830185611d17565b61229c6020830184611d17565b9392505050565b600081905092915050565b50565b60006122be6000836122a3565b91506122c9826122ae565b600082019050919050565b60006122df826122b1565b9150819050919050565b7f54726164696e67206e6f742079657420656e61626c6564000000000000000000600082015250565b600061231f601783611d4c565b915061232a826122e9565b602082019050919050565b6000602082019050818103600083015261234e81612312565b9050919050565b600061236082611d0d565b915061236b83611d0d565b925082820261237981611d0d565b915082820484148315176123905761238f612217565b5b5092915050565b7f4e487b7100000000000000000000000000000000000000000000000000000000600052601260045260246000fd5b60006123d182611d0d565b91506123dc83611d0d565b9250826123ec576123eb612397565b5b828204905092915050565b600061240282611d0d565b915061240d83611d0d565b925082820190508082111561242557612424612217565b5b92915050565b7f4e487b7100000000000000000000000000000000000000000000000000000000600052604160045260246000fd5b7f4e487b7100000000000000000000000000000000000000000000000000000000600052603260045260246000fd5b60008151905061249881611e2a565b92915050565b6000602082840312156124b4576124b3611df3565b5b60006124c284828501612489565b91505092915050565b6000819050919050565b60006124f06124eb6124e6846124cb565b61205b565b611d0d565b9050919050565b612500816124d5565b82525050565b600081519050919050565b600082825260208201905092915050565b6000819050602082019050919050565b61253b81611e18565b82525050565b600061254d8383612532565b60208301905092915050565b6000602082019050919050565b600061257182612506565b61257b8185612511565b935061258683612522565b8060005b838110156125b757815161259e8882612541565b97506125a983612559565b92505060018101905061258a565b5085935050505092915050565b600060a0820190506125d96000830188611d17565b6125e660208301876124f7565b81810360408301526125f88186612566565b905061260760608301856120d5565b6126146080830184611d17565b9695505050505050565b7f4554482073656e64206661696c65640000000000000000000000000000000000600082015250565b6000612654600f83611d4c565b915061265f8261261e565b602082019050919050565b6000602082019050818103600083015261268381612647565b905091905056fea2646970667358221220ab5d9359d26e69c75e6f404b112573cd32c00b1743e6117c15025ee0a041c63464736f6c63430008140033",
  "linkReferences": {},
  "deployedLinkReferences": {}
}