{
  "_format": "hh-sol-artifact-1",
  "contractName": "AsteroidStrategy",
  "sourceName": "contracts/AsteroidStrategy.sol",
  "abi": [
    {
      "inputs": [
        {
          "internalType": "address",
          "name": "_routerAddress",
          "type": "address"
        }
      ],
      "stateMutability": "nonpayable",
      "type": "constructor"
    },
    {
      "anonymous": false,
      "inputs": [
        {
          "indexed": true,
          "internalType": "address",
          "name": "owner",
          "type": "address"
        },
        {
          "indexed": true,
          "internalType": "address",
          "name": "spender",
          "type": "address"
        },
        {
          "indexed": false,
          "internalType": "uint256",
          "name": "value",
          "type": "uint256"
        }
      ],
      "name": "Approval",
      "type": "event"
    },
    {
      "anonymous": false,
      "inputs": [
        {
          "indexed": true,
          "internalType": "address",
          "name": "newWallet",
          "type": "address"
        }
      ],
      "name": "BuybackWalletUpdated",
      "type": "event"
    },
    {
      "anonymous": false,
      "inputs": [
        {
          "indexed": true,
          "internalType": "address",
          "name": "previousOwner",
          "type": "address"
        },
        {
          "indexed": true,
          "internalType": "address",
          "name": "newOwner",
          "type": "address"
        }
      ],
      "name": "OwnershipTransferred",
      "type": "event"
    },
    {
      "anonymous": false,
      "inputs": [
        {
          "indexed": false,
          "internalType": "uint256",
          "name": "buyTax",
          "type": "uint256"
        },
        {
          "indexed": false,
          "internalType": "uint256",
          "name": "sellTax",
          "type": "uint256"
        }
      ],
      "name": "TaxUpdated",
      "type": "event"
    },
    {
      "anonymous": false,
      "inputs": [
        {
          "indexed": false,
          "internalType": "uint256",
          "name": "tokensSwapped",
          "type": "uint256"
        },
        {
          "indexed": false,
          "internalType": "uint256",
          "name": "ethReceived",
          "type": "uint256"
        }
      ],
      "name": "TokensSwappedForETH",
      "type": "event"
    },
    {
      "anonymous": false,
      "inputs": [],
      "name": "TradingEnabled",
      "type": "event"
    },
    {
      "anonymous": false,
      "inputs": [
        {
          "indexed": true,
          "internalType": "address",
          "name": "from",
          "type": "address"
        },
        {
          "indexed": true,
          "internalType": "address",
          "name": "to",
          "type": "address"
        },
        {
          "indexed": false,
          "internalType": "uint256",
          "name": "value",
          "type": "uint256"
        }
      ],
      "name": "Transfer",
      "type": "event"
    },
    {
      "inputs": [
        {
          "internalType": "address",
          "name": "_owner",
          "type": "address"
        },
        {
          "internalType": "address",
          "name": "spender",
          "type": "address"
        }
      ],
      "name": "allowance",
      "outputs": [
        {
          "internalType": "uint256",
          "name": "",
          "type": "uint256"
        }
      ],
      "stateMutability": "view",
      "type": "function"
    },
    {
      "inputs": [
        {
          "internalType": "address",
          "name": "spender",
          "type": "address"
        },
        {
          "internalType": "uint256",
          "name": "amount",
          "type": "uint256"
        }
      ],
      "name": "approve",
      "outputs": [
        {
          "internalType": "bool",
          "name": "",
          "type": "bool"
        }
      ],
      "stateMutability": "nonpayable",
      "type": "function"
    },
    {
      "inputs": [
        {
          "internalType": "address",
          "name": "account",
          "type": "address"
        }
      ],
      "name": "balanceOf",
      "outputs": [
        {
          "internalType": "uint256",
          "name": "",
          "type": "uint256"
        }
      ],
      "stateMutability": "view",
      "type": "function"
    },
    {
      "inputs": [],
      "name": "buyTax",
      "outputs": [
        {
          "internalType": "uint256",
          "name": "",
          "type": "uint256"
        }
      ],
      "stateMutability": "view",
      "type": "function"
    },
    {
      "inputs": [],
      "name": "buybackWallet",
      "outputs": [
        {
          "internalType": "address",
          "name": "",
          "type": "address"
        }
      ],
      "stateMutability": "view",
      "type": "function"
    },
    {
      "inputs": [],
      "name": "decimals",
      "outputs": [
        {
          "internalType": "uint8",
          "name": "",
          "type": "uint8"
        }
      ],
      "stateMutability": "view",
      "type": "function"
    },
    {
      "inputs": [],
      "name": "enableTrading",
      "outputs": [],
      "stateMutability": "nonpayable",
      "type": "function"
    },
    {
      "inputs": [
        {
          "internalType": "address",
          "name": "",
          "type": "address"
        }
      ],
      "name": "isExcludedFromFee",
      "outputs": [
        {
          "internalType": "bool",
          "name": "",
          "type": "bool"
        }
      ],
      "stateMutability": "view",
      "type": "function"
    },
    {
      "inputs": [],
      "name": "name",
      "outputs": [
        {
          "internalType": "string",
          "name": "",
          "type": "string"
        }
      ],
      "stateMutability": "view",
      "type": "function"
    },
    {
      "inputs": [],
      "name": "owner",
      "outputs": [
        {
          "internalType": "address",
          "name": "",
          "type": "address"
        }
      ],
      "stateMutability": "view",
      "type": "function"
    },
    {
      "inputs": [],
      "name": "renounceOwnership",
      "outputs": [],
      "stateMutability": "nonpayable",
      "type": "function"
    },
    {
      "inputs": [],
      "name": "sellTax",
      "outputs": [
        {
          "internalType": "uint256",
          "name": "",
          "type": "uint256"
        }
      ],
      "stateMutability": "view",
      "type": "function"
    },
    {
      "inputs": [
        {
          "internalType": "address",
          "name": "w",
          "type": "address"
        }
      ],
      "name": "setBuybackWallet",
      "outputs": [],
      "stateMutability": "nonpayable",
      "type": "function"
    },
    {
      "inputs": [
        {
          "internalType": "address",
          "name": "a",
          "type": "address"
        },
        {
          "internalType": "bool",
          "name": "e",
          "type": "bool"
        }
      ],
      "name": "setExcludedFromFee",
      "outputs": [],
      "stateMutability": "nonpayable",
      "type": "function"
    },
    {
      "inputs": [
        {
          "internalType": "uint256",
          "name": "b",
          "type": "uint256"
        },
        {
          "internalType": "uint256",
          "name": "s",
          "type": "uint256"
        }
      ],
      "name": "setTax",
      "outputs": [],
      "stateMutability": "nonpayable",
      "type": "function"
    },
    {
      "inputs": [],
      "name": "swapThreshold",
      "outputs": [
        {
          "internalType": "uint256",
          "name": "",
          "type": "uint256"
        }
      ],
      "stateMutability": "view",
      "type": "function"
    },
    {
      "inputs": [],
      "name": "symbol",
      "outputs": [
        {
          "internalType": "string",
          "name": "",
          "type": "string"
        }
      ],
      "stateMutability": "view",
      "type": "function"
    },
    {
      "inputs": [],
      "name": "totalSupply",
      "outputs": [
        {
          "internalType": "uint256",
          "name": "",
          "type": "uint256"
        }
      ],
      "stateMutability": "pure",
      "type": "function"
    },
    {
      "inputs": [],
      "name": "tradingEnabled",
      "outputs": [
        {
          "internalType": "bool",
          "name": "",
          "type": "bool"
        }
      ],
      "stateMutability": "view",
      "type": "function"
    },
    {
      "inputs": [
        {
          "internalType": "address",
          "name": "to",
          "type": "address"
        },
        {
          "internalType": "uint256",
          "name": "amount",
          "type": "uint256"
        }
      ],
      "name": "transfer",
      "outputs": [
        {
          "internalType": "bool",
          "name": "",
          "type": "bool"
        }
      ],
      "stateMutability": "nonpayable",
      "type": "function"
    },
    {
      "inputs": [
        {
          "internalType": "address",
          "name": "from",
          "type": "address"
        },
        {
          "internalType": "address",
          "name": "to",
          "type": "address"
        },
        {
          "internalType": "uint256",
          "name": "amount",
          "type": "uint256"
        }
      ],
      "name": "transferFrom",
      "outputs": [
        {
          "internalType": "bool",
          "name": "",
          "type": "bool"
        }
      ],
      "stateMutability": "nonpayable",
      "type": "function"
    },
    {
      "inputs": [
        {
          "internalType": "address",
          "name": "n",
          "type": "address"
        }
      ],
      "name": "transferOwnership",
      "outputs": [],
      "stateMutability": "nonpayable",
      "type": "function"
    },
    {
      "inputs": [],
      "name": "uniswapPair",
      "outputs": [
        {
          "internalType": "address",
          "name": "",
          "type": "address"
        }
      ],
      "stateMutability": "view",
      "type": "function"
    },
    {
      "inputs": [],
      "name": "uniswapRouter",
      "outputs": [
        {
          "internalType": "contract IUniswapV2Router02",
          "name": "",
          "type": "address"
        }
      ],
      "stateMutability": "view",
      "type": "function"
    },
    {
      "inputs": [],
      "name": "withdrawETH",
      "outputs": [],
      "stateMutability": "nonpayable",
      "type": "function"
    },
    {
      "stateMutability": "payable",
      "type": "receive"
    }
  ],
  "bytecode": "0x608060409080825234620003ba576200003290620013928038038091620000278285620003bf565b8339810190620003f9565b6000906005825560056001556aadfe494c6f4a9717a0000060035560049081549160018060a01b038092169283156200037757610100600160b01b0319163360101b62010000600160b01b0316178155600280546001600160a01b031990811673bf06930f29d047823541c7726142a30aa9a8cddc1790915530808652600760209081528787206c054f529ca52576bc689200000090819055885190815290947fddf252ad1be2c89b69c2b068fc378daa952ba7f163c4a11628f55a4df523b3ef949093929091889086908890a33087526007855287872080546c02a7a94e5292bb5e3448ffffff19959186820191821162000364575561dead94858952600787528989209081546c02a7a94e5292bb5e344900000092838201809211620003515755868b51838152848a3092a3308a52600788528a8a2080549182019182116200033e5755338952600787528989208054908282018092116200033e575589519081523391873092a360058054831687179055875163c45a015560e01b815290858282818a5afa9182156200033457889262000310575b5088516315ab88c960e31b815291868383818b5afa92831562000306579287928a878d9481978395620002e1575b50604494955197889687956364e329cb60e11b87523090870152166024850152165af1908115620002d7579083918891620002a3575b5016906006541617600655338552600983528585209160ff1992600184825416179055308652868620600184825416179055855285852060018382541617905560025416845260018585209182541617905530835260088152838320918352528160001991205551610f7790816200041b8239f35b620002c89150863d8811620002cf575b620002bf8183620003bf565b810190620003f9565b386200022e565b503d620002b3565b88513d89823e3d90fd5b60449550620002ff90883d8a11620002cf57620002bf8183620003bf565b94620001f8565b8a513d8b823e3d90fd5b6200032c919250863d8811620002cf57620002bf8183620003bf565b9038620001ca565b89513d8a823e3d90fd5b634e487b7160e01b8b526011855260248bfd5b634e487b7160e01b8c526011865260248cfd5b634e487b7160e01b8a526011845260248afd5b855162461bcd60e51b8152602081840152601360248201527f5a65726f20726f757465722061646472657373000000000000000000000000006044820152606490fd5b600080fd5b601f909101601f19168101906001600160401b03821190821017620003e357604052565b634e487b7160e01b600052604160045260246000fd5b90816020910312620003ba57516001600160a01b0381168103620003ba579056fe608060409080825260049081361015610023575b505050361561002157600080fd5b005b600092833560e01c9182630445b667146107f35750816306fdde03146107aa578163095ea7b31461078057816318160ddd146107585781631d0adc07146106bc57816323b872dd14610608578163313ce567146105ec5781634ada218b146105c55781634f7041a5146105a85781635342acb41461056a5781636612e66f1461050b578163667f65261461048657816370a082311461044e578163715018a6146103fd578163735de9f7146103d45781638a8c523c146103755781638da5cb5b1461034457816395d89b41146102fd578163a9059cbb146102cc578163c816841b146102a3578163cc1776d314610284578163dd62ed3e1461023b578163deab8aea146102125750828163e086e5ec146101c7575063f2fde38b146101485780610013565b346101c35760203660031901126101c3576101616108ac565b8154906001600160a01b03601083901c81169061017f338314610ec9565b82169081156101bf57600080516020610f028339815191528680a362010000600160b01b031990911660109190911b62010000600160b01b031617905580f35b8580fd5b5080fd5b80833461020f578160031936011261020f575481908190819060101c6001600160a01b03166101f7338214610ec9565b47905af1610203610e8a565b501561020c5780f35b80fd5b50fd5b8390346101c357816003193601126101c35760025490516001600160a01b039091168152602090f35b8390346101c357806003193601126101c357806020926102596108ac565b6102616108c7565b6001600160a01b0391821683526008865283832091168252845220549051908152f35b8390346101c357816003193601126101c3576020906001549051908152f35b8390346101c357816003193601126101c35760065490516001600160a01b039091168152602090f35b8390346101c357806003193601126101c3576020906102f66102ec6108ac565b6024359033610992565b5160018152f35b8390346101c357816003193601126101c35780516103409161031e8261080f565b600b82526a20a9aa22a927a4a229aa2960a91b60208301525191829182610863565b0390f35b9190503461037157826003193601126103715754905160109190911c6001600160a01b0316815260209150f35b8280fd5b5050346101c357816003193601126101c3578054610100906103a533601083901c6001600160a01b031614610ec9565b61ff0019161790557f799663458a5ef2936f7fa0c99b3336c69c25890f82974f04e811e5bb359186c78180a180f35b8390346101c357816003193601126101c35760055490516001600160a01b039091168152602090f35b5050346101c357816003193601126101c357805482601082901c6001600160a01b031661042b338214610ec9565b600080516020610f028339815191528280a362010000600160b01b031916905580f35b8390346101c35760203660031901126101c35760209181906001600160a01b036104766108ac565b1681526007845220549051908152f35b90503461037157806003193601126103715781356104b56024359360018060a01b03905460101c163314610ec9565b600a81111580610500575b156104fc577fb841faf0d1b32571f4ef966a2f35e3ae51f3cdda45318c3da5570a5b2ad85605928185558060015582519182526020820152a180f35b8380fd5b50600a8311156104c0565b9050346103715780600319360112610371576105256108ac565b91602435928315158094036105665761054c60018060a01b0380935460101c163314610ec9565b168352600960205282209060ff8019835416911617905580f35b8480fd5b8390346101c35760203660031901126101c35760209160ff9082906001600160a01b036105956108ac565b1681526009855220541690519015158152f35b8390346101c357816003193601126101c357602091549051908152f35b9050823461020c578060031936011261020c575060ff6020925460081c1690519015158152f35b8390346101c357816003193601126101c3576020905160128152f35b8383346101c35760603660031901126101c3576106236108ac565b61062b6108c7565b6001600160a01b038216845260086020908152858520338652905292849020546044359392848210610679576020866102f687878761067461066d848a6108dd565b3383610900565b610992565b606490602087519162461bcd60e51b8352820152601d60248201527f45524332303a20696e73756666696369656e7420616c6c6f77616e63650000006044820152fd5b905034610371576020366003190112610371576106f2916106db6108ac565b60018060a01b03938480935460101c163314610ec9565b169182156104fc57600254168352600960205260018184209160ff199283815416905583828060a01b031960025416176002558385528420918254161790557f2e5665e81af8928ff3f79e82650b68c9459cde711420effbff19b3ccee749f818280a280f35b8390346101c357816003193601126101c357602090516c054f529ca52576bc68920000008152f35b8390346101c357806003193601126101c3576020906102f66107a06108ac565b6024359033610900565b8390346101c357816003193601126101c3578051610340916107cb8261080f565b601182527041737465726f696420537472617465677960781b60208301525191829182610863565b8490346101c357816003193601126101c3576020906003548152f35b604081019081106001600160401b0382111761082a57604052565b634e487b7160e01b600052604160045260246000fd5b601f909101601f19168101906001600160401b0382119082101761082a57604052565b6020808252825181830181905290939260005b82811061089857505060409293506000838284010152601f8019910116010190565b818101860151848201604001528501610876565b600435906001600160a01b03821682036108c257565b600080fd5b602435906001600160a01b03821682036108c257565b919082039182116108ea57565b634e487b7160e01b600052601160045260246000fd5b90916001600160a01b039182169182151580610967575b156108c2577f8c5be1e5ebec7d5bd14f71427d1e84f3dd0314c0f7b2291e5b200ac8c7c3b925916020918460005260088352604060002095169485600052825280604060002055604051908152a3565b508084161515610917565b818102929181159184041417156108ea57565b919082018092116108ea57565b6001600160a01b031690600082151580610e78575b80610e6f575b1561020c576006546004546001600160a01b03938416959190931692600881901c60ff1615610e04575b30835260076020526040832054906003548092101580610df9575b80610df0575b80610dd9575b610b0c575b5050906040610a45600080516020610f228339815191529460209484918886526009875260ff85872054161580610afb575b610ab9575b5081610a7b576108dd565b9185815260078452818120610a5b8482546108dd565b90558681526007845220610a70828254610985565b9055604051908152a3565b87855260078652838520610a908382546108dd565b905530855260078652838520610aa7838254610985565b905583518281528888883093a36108dd565b808914610ae5575b8914610ace575b38610a3a565b90506064610ade60015483610972565b0490610ac8565b91506064610af4865483610972565b0491610ac1565b5089865260ff858720541615610a35565b60ff1916600117600455604051606081016001600160401b03811182821017610dc5576040526002815260208101906040368337805115610db1573082526005546040516315ab88c960e31b81526001600160a01b0390911690602081600481855afa908115610da6578791610d60575b50825160011015610d4c576001600160a01b0316604083015247924261012c8101908110610d3857823b15610d3457929091879260405194859363791ac94760e01b855260a485019089600487015286602487015260a060448701525180915260c485019290865b818110610d0f575050508380928692306064840152608483015203925af19081610ce0575b50610c26575b50506004805460ff191690556040610a45610a03565b610c3090476108dd565b8015610c1057838080808460018060a09a999a1b03600254165af1610c53610e8a565b5015610ca957600080516020610f22833981519152946020947f36a9a8ddccb9a6e60b53280dd3cea8ae4f010efbf6625460af0268cd6513a83560408095610a4595825191825289820152a19394509450610c10565b60405162461bcd60e51b815260206004820152600f60248201526e115512081cd95b990819985a5b1959608a1b6044820152606490fd5b9094906001600160401b038111610cfb576040529338610c0a565b634e487b7160e01b82526041600452602482fd5b82516001600160a01b031685528c975088965060209485019490920191600101610be5565b8780fd5b634e487b7160e01b88526011600452602488fd5b634e487b7160e01b87526032600452602487fd5b90506020813d602011610d9e575b81610d7b60209383610840565b81010312610d9a57516001600160a01b0381168103610d9a5738610b7d565b8680fd5b3d9150610d6e565b6040513d89823e3d90fd5b634e487b7160e01b85526032600452602485fd5b634e487b7160e01b85526041600452602485fd5b50858452600960205260ff604085205416156109fe565b508487146109f8565b5060ff8116156109f2565b848352600960205260ff6040842054168015610e5e575b6109d75760405162461bcd60e51b8152602060048201526017602482015276151c98591a5b99c81b9bdd081e595d08195b98589b1959604a1b6044820152606490fd5b5085835260ff604084205416610e1b565b508315156109ad565b506001600160a01b03821615156109a7565b3d15610ec4573d906001600160401b03821161082a5760405191610eb8601f8201601f191660200184610840565b82523d6000602084013e565b606090565b15610ed057565b60405162461bcd60e51b81526020600482015260096024820152682737ba1037bbb732b960b91b6044820152606490fdfe8be0079c531659141344cd1fd0a4f28419497f9722a3daafe3b4186f6b6457e0ddf252ad1be2c89b69c2b068fc378daa952ba7f163c4a11628f55a4df523b3efa2646970667358221220a485213e9bf3ecb5390fe507e9491403eed0bd499b674be9ab3c6f48c371150a64736f6c63430008140033",
  "linkReferences": {},
  "deployedLinkReferences": {}
}