{
  "_format": "hh-sol-artifact-1",
  "contractName": "StackrTokenV4",
  "sourceName": "contracts/v4/StackrTokenV4.sol",
  "abi": [
    {
      "inputs": [
        {
          "internalType": "string",
          "name": "_name",
          "type": "string"
        },
        {
          "internalType": "string",
          "name": "_symbol",
          "type": "string"
        },
        {
          "internalType": "string",
          "name": "_metadataURI",
          "type": "string"
        },
        {
          "internalType": "address",
          "name": "_factory",
          "type": "address"
        }
      ],
      "stateMutability": "nonpayable",
      "type": "constructor"
    },
    {
      "inputs": [
        {
          "internalType": "address",
          "name": "spender",
          "type": "address"
        },
        {
          "internalType": "uint256",
          "name": "allowance",
          "type": "uint256"
        },
        {
          "internalType": "uint256",
          "name": "needed",
          "type": "uint256"
        }
      ],
      "name": "ERC20InsufficientAllowance",
      "type": "error"
    },
    {
      "inputs": [
        {
          "internalType": "address",
          "name": "sender",
          "type": "address"
        },
        {
          "internalType": "uint256",
          "name": "balance",
          "type": "uint256"
        },
        {
          "internalType": "uint256",
          "name": "needed",
          "type": "uint256"
        }
      ],
      "name": "ERC20InsufficientBalance",
      "type": "error"
    },
    {
      "inputs": [
        {
          "internalType": "address",
          "name": "approver",
          "type": "address"
        }
      ],
      "name": "ERC20InvalidApprover",
      "type": "error"
    },
    {
      "inputs": [
        {
          "internalType": "address",
          "name": "receiver",
          "type": "address"
        }
      ],
      "name": "ERC20InvalidReceiver",
      "type": "error"
    },
    {
      "inputs": [
        {
          "internalType": "address",
          "name": "sender",
          "type": "address"
        }
      ],
      "name": "ERC20InvalidSender",
      "type": "error"
    },
    {
      "inputs": [
        {
          "internalType": "address",
          "name": "spender",
          "type": "address"
        }
      ],
      "name": "ERC20InvalidSpender",
      "type": "error"
    },
    {
      "anonymous": false,
      "inputs": [
        {
          "indexed": true,
          "internalType": "address",
          "name": "owner",
          "type": "address"
        },
        {
          "indexed": true,
          "internalType": "address",
          "name": "spender",
          "type": "address"
        },
        {
          "indexed": false,
          "internalType": "uint256",
          "name": "value",
          "type": "uint256"
        }
      ],
      "name": "Approval",
      "type": "event"
    },
    {
      "anonymous": false,
      "inputs": [
        {
          "indexed": true,
          "internalType": "address",
          "name": "from",
          "type": "address"
        },
        {
          "indexed": true,
          "internalType": "address",
          "name": "to",
          "type": "address"
        },
        {
          "indexed": false,
          "internalType": "uint256",
          "name": "value",
          "type": "uint256"
        }
      ],
      "name": "Transfer",
      "type": "event"
    },
    {
      "inputs": [],
      "name": "TOTAL_SUPPLY",
      "outputs": [
        {
          "internalType": "uint256",
          "name": "",
          "type": "uint256"
        }
      ],
      "stateMutability": "view",
      "type": "function"
    },
    {
      "inputs": [
        {
          "internalType": "address",
          "name": "owner",
          "type": "address"
        },
        {
          "internalType": "address",
          "name": "spender",
          "type": "address"
        }
      ],
      "name": "allowance",
      "outputs": [
        {
          "internalType": "uint256",
          "name": "",
          "type": "uint256"
        }
      ],
      "stateMutability": "view",
      "type": "function"
    },
    {
      "inputs": [
        {
          "internalType": "address",
          "name": "spender",
          "type": "address"
        },
        {
          "internalType": "uint256",
          "name": "value",
          "type": "uint256"
        }
      ],
      "name": "approve",
      "outputs": [
        {
          "internalType": "bool",
          "name": "",
          "type": "bool"
        }
      ],
      "stateMutability": "nonpayable",
      "type": "function"
    },
    {
      "inputs": [
        {
          "internalType": "address",
          "name": "account",
          "type": "address"
        }
      ],
      "name": "balanceOf",
      "outputs": [
        {
          "internalType": "uint256",
          "name": "",
          "type": "uint256"
        }
      ],
      "stateMutability": "view",
      "type": "function"
    },
    {
      "inputs": [
        {
          "internalType": "uint256",
          "name": "amount",
          "type": "uint256"
        }
      ],
      "name": "burn",
      "outputs": [],
      "stateMutability": "nonpayable",
      "type": "function"
    },
    {
      "inputs": [],
      "name": "decimals",
      "outputs": [
        {
          "internalType": "uint8",
          "name": "",
          "type": "uint8"
        }
      ],
      "stateMutability": "view",
      "type": "function"
    },
    {
      "inputs": [],
      "name": "factory",
      "outputs": [
        {
          "internalType": "address",
          "name": "",
          "type": "address"
        }
      ],
      "stateMutability": "view",
      "type": "function"
    },
    {
      "inputs": [],
      "name": "metadataURI",
      "outputs": [
        {
          "internalType": "string",
          "name": "",
          "type": "string"
        }
      ],
      "stateMutability": "view",
      "type": "function"
    },
    {
      "inputs": [],
      "name": "name",
      "outputs": [
        {
          "internalType": "string",
          "name": "",
          "type": "string"
        }
      ],
      "stateMutability": "view",
      "type": "function"
    },
    {
      "inputs": [],
      "name": "symbol",
      "outputs": [
        {
          "internalType": "string",
          "name": "",
          "type": "string"
        }
      ],
      "stateMutability": "view",
      "type": "function"
    },
    {
      "inputs": [],
      "name": "totalSupply",
      "outputs": [
        {
          "internalType": "uint256",
          "name": "",
          "type": "uint256"
        }
      ],
      "stateMutability": "view",
      "type": "function"
    },
    {
      "inputs": [
        {
          "internalType": "address",
          "name": "to",
          "type": "address"
        },
        {
          "internalType": "uint256",
          "name": "value",
          "type": "uint256"
        }
      ],
      "name": "transfer",
      "outputs": [
        {
          "internalType": "bool",
          "name": "",
          "type": "bool"
        }
      ],
      "stateMutability": "nonpayable",
      "type": "function"
    },
    {
      "inputs": [
        {
          "internalType": "address",
          "name": "from",
          "type": "address"
        },
        {
          "internalType": "address",
          "name": "to",
          "type": "address"
        },
        {
          "internalType": "uint256",
          "name": "value",
          "type": "uint256"
        }
      ],
      "name": "transferFrom",
      "outputs": [
        {
          "internalType": "bool",
          "name": "",
          "type": "bool"
        }
      ],
      "stateMutability": "nonpayable",
      "type": "function"
    }
  ],
  "bytecode": "0x60a06040523461054657610dbd803803806100198161054a565b9283398101906080818303126105465780516001600160401b038111610546578261004591830161056f565b60208201516001600160401b038111610546578361006491840161056f565b60408301519093906001600160401b0381116105465760609161008891850161056f565b9201516001600160a01b03811691828203610546578051906001600160401b03821161033b5760035490600182811c9216801561053c575b602083101461031d5781601f8493116104ce575b50602090601f8311600114610468575f9261045d575b50508160011b915f199060031b1c1916176003555b83516001600160401b03811161033b57600454600181811c91168015610453575b602082101461031d57601f81116103f0575b50602094601f821160011461038d579481929394955f92610382575b50508160011b915f199060031b1c1916176004555b811561034f5782516001600160401b03811161033b57600554600181811c91168015610331575b602082101461031d57601f81116102d7575b506020601f821160011461027457819293945f92610269575b50508160011b915f199060031b1c1916176005555b6080526002546b033b2e3c9fd0803ce8000000810180911161025557600255805f525f60205260405f206b033b2e3c9fd0803ce800000081540190555f7fddf252ad1be2c89b69c2b068fc378daa952ba7f163c4a11628f55a4df523b3ef60206040516b033b2e3c9fd0803ce80000008152a36040516107fc90816105c18239608051816101110152f35b634e487b7160e01b5f52601160045260245ffd5b015190505f806101b5565b601f1982169060055f52805f20915f5b8181106102bf575095836001959697106102a7575b505050811b016005556101ca565b01515f1960f88460031b161c191690555f8080610299565b9192602060018192868b015181550194019201610284565b60055f5260205f20601f830160051c81019160208410610313575b601f0160051c01905b818110610308575061019c565b5f81556001016102fb565b90915081906102f2565b634e487b7160e01b5f52602260045260245ffd5b90607f169061018a565b634e487b7160e01b5f52604160045260245ffd5b60405162461bcd60e51b815260206004820152600b60248201526a42616420666163746f727960a81b6044820152606490fd5b015190505f8061014e565b601f1982169560045f52805f20915f5b8881106103d8575083600195969798106103c0575b505050811b01600455610163565b01515f1960f88460031b161c191690555f80806103b2565b9192602060018192868501518155019401920161039d565b60045f527f8a35acfbc15ff81a39ae7d344fd709f28e8600b4aa8c65c6b64bfe7fe36bd19b601f830160051c81019160208410610449575b601f0160051c01905b81811061043e5750610132565b5f8155600101610431565b9091508190610428565b90607f1690610120565b015190505f806100ea565b60035f9081528281209350601f198516905b8181106104b6575090846001959493921061049e575b505050811b016003556100ff565b01515f1960f88460031b161c191690555f8080610490565b9293602060018192878601518155019501930161047a565b60035f529091507fc2575a0e9e593c00f959f8c92f12db2869c3395a3b0502d05e2516446f71f85b601f840160051c81019160208510610532575b90601f859493920160051c01905b81811061052457506100d4565b5f8155849350600101610517565b9091508190610509565b91607f16916100c0565b5f80fd5b6040519190601f01601f191682016001600160401b0381118382101761033b57604052565b81601f82011215610546578051906001600160401b03821161033b5761059e601f8301601f191660200161054a565b928284526020838301011161054657815f9260208093018386015e830101529056fe60806040526004361015610011575f80fd5b5f3560e01c806303ee438c146105e557806306fdde0314610511578063095ea7b31461048f57806318160ddd1461047257806323b872dd14610393578063313ce5671461037857806342966c68146102eb57806370a08231146102b4578063902d55a51461028e57806395d89b4114610171578063a9059cbb14610140578063c45a0155146100fc5763dd62ed3e146100a8575f80fd5b346100f85760403660031901126100f8576100c16106e3565b6100c96106f9565b6001600160a01b039182165f908152600160209081526040808320949093168252928352819020549051908152f35b5f80fd5b346100f8575f3660031901126100f8576040517f00000000000000000000000000000000000000000000000000000000000000006001600160a01b03168152602090f35b346100f85760403660031901126100f85761016661015c6106e3565b602435903361070f565b602060405160018152f35b346100f8575f3660031901126100f8576040515f6004548060011c90600181168015610284575b6020831081146102705782855290811561025457506001146101fe575b50819003601f01601f19168101906001600160401b038211818310176101ea57604082905281906101e690826106b9565b0390f35b634e487b7160e01b5f52604160045260245ffd5b60045f9081529091507f8a35acfbc15ff81a39ae7d344fd709f28e8600b4aa8c65c6b64bfe7fe36bd19b5b82821061023e575060209150820101826101b5565b6001816020925483858801015201910190610229565b90506020925060ff191682840152151560051b820101826101b5565b634e487b7160e01b5f52602260045260245ffd5b91607f1691610198565b346100f8575f3660031901126100f857604051676765c793fa10079d601b1b8152602090f35b346100f85760203660031901126100f8576001600160a01b036102d56106e3565b165f525f602052602060405f2054604051908152f35b346100f85760203660031901126100f857600435331561036557335f525f60205260405f205481811061034c5790805f923384528360205203604083205580600254036002556040519081525f805160206107a783398151915260203392a3005b63391434e360e21b5f523360045260245260445260645ffd5b634b637e8f60e11b5f525f60045260245ffd5b346100f8575f3660031901126100f857602060405160128152f35b346100f85760603660031901126100f8576103ac6106e3565b6103b46106f9565b6001600160a01b0382165f818152600160209081526040808320338452909152902054909260443592915f1981106103f2575b50610166935061070f565b83811061045757841561044457331561043157610166945f52600160205260405f2060018060a01b0333165f526020528360405f2091039055846103e7565b634a1406b160e11b5f525f60045260245ffd5b63e602df0560e01b5f525f60045260245ffd5b8390637dc7a0d960e11b5f523360045260245260445260645ffd5b346100f8575f3660031901126100f8576020600254604051908152f35b346100f85760403660031901126100f8576104a86106e3565b602435903315610444576001600160a01b031690811561043157335f52600160205260405f20825f526020528060405f20556040519081527f8c5be1e5ebec7d5bd14f71427d1e84f3dd0314c0f7b2291e5b200ac8c7c3b92560203392a3602060405160018152f35b346100f8575f3660031901126100f8576040515f6003548060011c906001811680156105db575b6020831081146102705782855290811561025457506001146105855750819003601f01601f19168101906001600160401b038211818310176101ea57604082905281906101e690826106b9565b60035f9081529091507fc2575a0e9e593c00f959f8c92f12db2869c3395a3b0502d05e2516446f71f85b5b8282106105c5575060209150820101826101b5565b60018160209254838588010152019101906105b0565b91607f1691610538565b346100f8575f3660031901126100f8576040515f6005548060011c906001811680156106af575b6020831081146102705782855290811561025457506001146106595750819003601f01601f19168101906001600160401b038211818310176101ea57604082905281906101e690826106b9565b60055f9081529091507f036b6384b5eca791c62761152d0c79bb0604c104a5fb6f4eb0703f3154bb3db05b828210610699575060209150820101826101b5565b6001816020925483858801015201910190610684565b91607f169161060c565b602060409281835280519182918282860152018484015e5f828201840152601f01601f1916010190565b600435906001600160a01b03821682036100f857565b602435906001600160a01b03821682036100f857565b6001600160a01b0316908115610365576001600160a01b031691821561079357815f525f60205260405f205481811061077a57815f805160206107a783398151915292602092855f525f84520360405f2055845f525f825260405f20818154019055604051908152a3565b8263391434e360e21b5f5260045260245260445260645ffd5b63ec442f0560e01b5f525f60045260245ffdfeddf252ad1be2c89b69c2b068fc378daa952ba7f163c4a11628f55a4df523b3efa26469706673582212203325e66cb5b364458185d93d8c0274d3165d67b1dd72283c39b7421e1a9c4ffb64736f6c634300081a0033",
  "linkReferences": {},
  "deployedLinkReferences": {}
}