{
  "_format": "hh-sol-artifact-1",
  "contractName": "StackrCurveV4",
  "sourceName": "contracts/v4/StackrCurveV4.sol",
  "abi": [
    {
      "inputs": [
        {
          "internalType": "address",
          "name": "_token",
          "type": "address"
        },
        {
          "internalType": "address",
          "name": "_creator",
          "type": "address"
        },
        {
          "internalType": "address",
          "name": "_factory",
          "type": "address"
        },
        {
          "internalType": "uint256",
          "name": "_virtualEthReserve",
          "type": "uint256"
        },
        {
          "internalType": "uint256",
          "name": "_launchEthUsd",
          "type": "uint256"
        },
        {
          "internalType": "address",
          "name": "_v2Router",
          "type": "address"
        },
        {
          "internalType": "address",
          "name": "_v2Factory",
          "type": "address"
        },
        {
          "internalType": "address",
          "name": "_weth",
          "type": "address"
        }
      ],
      "stateMutability": "nonpayable",
      "type": "constructor"
    },
    {
      "inputs": [],
      "name": "ReentrancyGuardReentrantCall",
      "type": "error"
    },
    {
      "anonymous": false,
      "inputs": [
        {
          "indexed": true,
          "internalType": "address",
          "name": "buyer",
          "type": "address"
        },
        {
          "indexed": false,
          "internalType": "uint256",
          "name": "ethIn",
          "type": "uint256"
        },
        {
          "indexed": false,
          "internalType": "uint256",
          "name": "fee",
          "type": "uint256"
        },
        {
          "indexed": false,
          "internalType": "uint256",
          "name": "tokensOut",
          "type": "uint256"
        },
        {
          "indexed": false,
          "internalType": "uint256",
          "name": "totalBonded",
          "type": "uint256"
        }
      ],
      "name": "Bought",
      "type": "event"
    },
    {
      "anonymous": false,
      "inputs": [
        {
          "indexed": false,
          "internalType": "uint256",
          "name": "realEthAtCancel",
          "type": "uint256"
        }
      ],
      "name": "Cancelled",
      "type": "event"
    },
    {
      "anonymous": false,
      "inputs": [
        {
          "indexed": true,
          "internalType": "address",
          "name": "to",
          "type": "address"
        },
        {
          "indexed": false,
          "internalType": "uint256",
          "name": "amount",
          "type": "uint256"
        }
      ],
      "name": "CreatorFeesClaimed",
      "type": "event"
    },
    {
      "anonymous": false,
      "inputs": [
        {
          "indexed": true,
          "internalType": "address",
          "name": "to",
          "type": "address"
        },
        {
          "indexed": false,
          "internalType": "uint256",
          "name": "amount",
          "type": "uint256"
        }
      ],
      "name": "EthSweptAfterCancel",
      "type": "event"
    },
    {
      "anonymous": false,
      "inputs": [
        {
          "indexed": false,
          "internalType": "uint256",
          "name": "ethToLP",
          "type": "uint256"
        },
        {
          "indexed": false,
          "internalType": "uint256",
          "name": "tokensToLP",
          "type": "uint256"
        },
        {
          "indexed": false,
          "internalType": "uint256",
          "name": "tokensBurned",
          "type": "uint256"
        },
        {
          "indexed": false,
          "internalType": "address",
          "name": "v2Pair",
          "type": "address"
        }
      ],
      "name": "Graduated",
      "type": "event"
    },
    {
      "anonymous": false,
      "inputs": [
        {
          "indexed": true,
          "internalType": "address",
          "name": "seller",
          "type": "address"
        },
        {
          "indexed": false,
          "internalType": "uint256",
          "name": "tokensIn",
          "type": "uint256"
        },
        {
          "indexed": false,
          "internalType": "uint256",
          "name": "ethOut",
          "type": "uint256"
        },
        {
          "indexed": false,
          "internalType": "uint256",
          "name": "fee",
          "type": "uint256"
        },
        {
          "indexed": false,
          "internalType": "uint256",
          "name": "totalBonded",
          "type": "uint256"
        }
      ],
      "name": "Sold",
      "type": "event"
    },
    {
      "inputs": [],
      "name": "BOND_THRESHOLD",
      "outputs": [
        {
          "internalType": "uint256",
          "name": "",
          "type": "uint256"
        }
      ],
      "stateMutability": "view",
      "type": "function"
    },
    {
      "inputs": [],
      "name": "BPS_DENOM",
      "outputs": [
        {
          "internalType": "uint256",
          "name": "",
          "type": "uint256"
        }
      ],
      "stateMutability": "view",
      "type": "function"
    },
    {
      "inputs": [],
      "name": "CURVE_TOKEN_SUPPLY",
      "outputs": [
        {
          "internalType": "uint256",
          "name": "",
          "type": "uint256"
        }
      ],
      "stateMutability": "view",
      "type": "function"
    },
    {
      "inputs": [],
      "name": "DEAD",
      "outputs": [
        {
          "internalType": "address",
          "name": "",
          "type": "address"
        }
      ],
      "stateMutability": "view",
      "type": "function"
    },
    {
      "inputs": [],
      "name": "FEE_BPS",
      "outputs": [
        {
          "internalType": "uint256",
          "name": "",
          "type": "uint256"
        }
      ],
      "stateMutability": "view",
      "type": "function"
    },
    {
      "inputs": [],
      "name": "LP_RESERVE_TOKENS",
      "outputs": [
        {
          "internalType": "uint256",
          "name": "",
          "type": "uint256"
        }
      ],
      "stateMutability": "view",
      "type": "function"
    },
    {
      "inputs": [
        {
          "internalType": "uint256",
          "name": "minTokensOut",
          "type": "uint256"
        }
      ],
      "name": "buy",
      "outputs": [],
      "stateMutability": "payable",
      "type": "function"
    },
    {
      "inputs": [],
      "name": "cancelLaunch",
      "outputs": [],
      "stateMutability": "nonpayable",
      "type": "function"
    },
    {
      "inputs": [],
      "name": "cancelled",
      "outputs": [
        {
          "internalType": "bool",
          "name": "",
          "type": "bool"
        }
      ],
      "stateMutability": "view",
      "type": "function"
    },
    {
      "inputs": [
        {
          "internalType": "address payable",
          "name": "to",
          "type": "address"
        }
      ],
      "name": "claimCreatorFees",
      "outputs": [],
      "stateMutability": "nonpayable",
      "type": "function"
    },
    {
      "inputs": [],
      "name": "creator",
      "outputs": [
        {
          "internalType": "address",
          "name": "",
          "type": "address"
        }
      ],
      "stateMutability": "view",
      "type": "function"
    },
    {
      "inputs": [],
      "name": "creatorFeesAccrued",
      "outputs": [
        {
          "internalType": "uint256",
          "name": "",
          "type": "uint256"
        }
      ],
      "stateMutability": "view",
      "type": "function"
    },
    {
      "inputs": [],
      "name": "factory",
      "outputs": [
        {
          "internalType": "address",
          "name": "",
          "type": "address"
        }
      ],
      "stateMutability": "view",
      "type": "function"
    },
    {
      "inputs": [],
      "name": "getCurveState",
      "outputs": [
        {
          "internalType": "uint256",
          "name": "_realEth",
          "type": "uint256"
        },
        {
          "internalType": "uint256",
          "name": "_tokensSold",
          "type": "uint256"
        },
        {
          "internalType": "uint256",
          "name": "_currentPriceWeiPerToken",
          "type": "uint256"
        },
        {
          "internalType": "uint256",
          "name": "_percentBondedBps",
          "type": "uint256"
        },
        {
          "internalType": "bool",
          "name": "_graduated",
          "type": "bool"
        },
        {
          "internalType": "bool",
          "name": "_cancelled",
          "type": "bool"
        }
      ],
      "stateMutability": "view",
      "type": "function"
    },
    {
      "inputs": [],
      "name": "graduated",
      "outputs": [
        {
          "internalType": "bool",
          "name": "",
          "type": "bool"
        }
      ],
      "stateMutability": "view",
      "type": "function"
    },
    {
      "inputs": [],
      "name": "launchEthUsd",
      "outputs": [
        {
          "internalType": "uint256",
          "name": "",
          "type": "uint256"
        }
      ],
      "stateMutability": "view",
      "type": "function"
    },
    {
      "inputs": [
        {
          "internalType": "uint256",
          "name": "ethIn",
          "type": "uint256"
        }
      ],
      "name": "quoteBuy",
      "outputs": [
        {
          "internalType": "uint256",
          "name": "tokensOut",
          "type": "uint256"
        },
        {
          "internalType": "uint256",
          "name": "fee",
          "type": "uint256"
        }
      ],
      "stateMutability": "view",
      "type": "function"
    },
    {
      "inputs": [
        {
          "internalType": "uint256",
          "name": "tokenAmount",
          "type": "uint256"
        }
      ],
      "name": "quoteSell",
      "outputs": [
        {
          "internalType": "uint256",
          "name": "ethOut",
          "type": "uint256"
        },
        {
          "internalType": "uint256",
          "name": "fee",
          "type": "uint256"
        }
      ],
      "stateMutability": "view",
      "type": "function"
    },
    {
      "inputs": [],
      "name": "realEthCollected",
      "outputs": [
        {
          "internalType": "uint256",
          "name": "",
          "type": "uint256"
        }
      ],
      "stateMutability": "view",
      "type": "function"
    },
    {
      "inputs": [
        {
          "internalType": "uint256",
          "name": "tokenAmount",
          "type": "uint256"
        },
        {
          "internalType": "uint256",
          "name": "minEthOut",
          "type": "uint256"
        }
      ],
      "name": "sell",
      "outputs": [],
      "stateMutability": "nonpayable",
      "type": "function"
    },
    {
      "inputs": [
        {
          "internalType": "address payable",
          "name": "to",
          "type": "address"
        }
      ],
      "name": "sweepEthAfterCancel",
      "outputs": [
        {
          "internalType": "uint256",
          "name": "amount",
          "type": "uint256"
        }
      ],
      "stateMutability": "nonpayable",
      "type": "function"
    },
    {
      "inputs": [
        {
          "internalType": "address",
          "name": "to",
          "type": "address"
        }
      ],
      "name": "sweepTokensAfterCancel",
      "outputs": [
        {
          "internalType": "uint256",
          "name": "amount",
          "type": "uint256"
        }
      ],
      "stateMutability": "nonpayable",
      "type": "function"
    },
    {
      "inputs": [],
      "name": "token",
      "outputs": [
        {
          "internalType": "address",
          "name": "",
          "type": "address"
        }
      ],
      "stateMutability": "view",
      "type": "function"
    },
    {
      "inputs": [],
      "name": "tokensSold",
      "outputs": [
        {
          "internalType": "uint256",
          "name": "",
          "type": "uint256"
        }
      ],
      "stateMutability": "view",
      "type": "function"
    },
    {
      "inputs": [],
      "name": "v2Factory",
      "outputs": [
        {
          "internalType": "address",
          "name": "",
          "type": "address"
        }
      ],
      "stateMutability": "view",
      "type": "function"
    },
    {
      "inputs": [],
      "name": "v2Pair",
      "outputs": [
        {
          "internalType": "address",
          "name": "",
          "type": "address"
        }
      ],
      "stateMutability": "view",
      "type": "function"
    },
    {
      "inputs": [],
      "name": "v2Router",
      "outputs": [
        {
          "internalType": "address",
          "name": "",
          "type": "address"
        }
      ],
      "stateMutability": "view",
      "type": "function"
    },
    {
      "inputs": [],
      "name": "virtualEthReserve",
      "outputs": [
        {
          "internalType": "uint256",
          "name": "",
          "type": "uint256"
        }
      ],
      "stateMutability": "view",
      "type": "function"
    },
    {
      "inputs": [],
      "name": "weth",
      "outputs": [
        {
          "internalType": "address",
          "name": "",
          "type": "address"
        }
      ],
      "stateMutability": "view",
      "type": "function"
    },
    {
      "stateMutability": "payable",
      "type": "receive"
    }
  ],
  "bytecode": "0x6101803461023557601f611aa738819003918201601f19168301916001600160401b038311848410176102395780849261010094604052833981010312610235576100498161024d565b906100566020820161024d565b6100626040830161024d565b606083015160808401519161007960a0860161024d565b9361009260e061008b60c0890161024d565b970161024d565b60017f9b779b17422d0df92223018b32b4d1fa46e071723d6817e2486d003becc55f0055966001600160a01b038116151580610223575b156101f35783156101bb5760805260a05260c05260e052610100526101205261014052610160526040516118459081610262823960805181818161017c0152818161031d0152818161096f0152610fa7015260a051818181610b4601526113c4015260c0518181816104cb01528181610c9501528181610da801528181610f520152611285015260e05181818161026c0152818161088b01528181610df3015281816111a8015281816114f20152611591015261010051816113470152610120518181816101e6015261041b0152610140518181816105540152610ef9015261016051818181610522015261121b0152f35b60405162461bcd60e51b815260206004820152601060248201526f4261642076697274207265736572766560801b6044820152606490fd5b60405162461bcd60e51b81526020600482015260086024820152672130b21030b2323960c11b6044820152606490fd5b506001600160a01b03831615156100c9565b5f80fd5b634e487b7160e01b5f52604160045260245ffd5b51906001600160a01b03821682036102355756fe608080604052600436101561001c575b50361561001a575f80fd5b005b5f3560e01c90816302d05d3f146113b25750806303fd2a4514611396578063056939da1461136a5780631efeb5d11461133057806321ae730714611313578063392c695e1461126f5780633af525b41461124a5780633fc8cef3146112065780634beb394c146111e8578063518ab2a8146111cb57806352b86d2b1461119157806359dd723d1461116f5780636637e38c146111535780639a82a09a1461112e5780639f870a7514611108578063a64190c4146110de578063a966f376146110c2578063ae05f22d14610f28578063b4b57c3914610ee4578063bf333f2c14610ec9578063c417d1f014610dd7578063c45a015514610d93578063c83f60f014610c69578063d6ae6e4414610b16578063d79875eb14610840578063d96a094a14610215578063deadbc14146101d1578063e7c2b772146101af5763fc0c546a14610167575f61000f565b346101ab575f3660031901126101ab576040517f00000000000000000000000000000000000000000000000000000000000000006001600160a01b03168152602090f35b5f80fd5b346101ab575f3660031901126101ab57602060ff600354166040519015158152f35b346101ab575f3660031901126101ab576040517f00000000000000000000000000000000000000000000000000000000000000006001600160a01b03168152602090f35b60203660031901126101ab57610229611797565b61024160035460ff8116159081610831575b5061142e565b3415610801576064340234810460640361067b576127109004610264813461149c565b5f54610290817f00000000000000000000000000000000000000000000000000000000000000006114a9565b60015492906714adf4b7320334b9601d1b84810390811161067b576102cc826102c6856102c0856102d29761146b565b926114a9565b9061147e565b9061149c565b926102e1600435851015611744565b83156107d1576102f584926102fc946114a9565b5f556114a9565b60015561030b826002546114a9565b60025560405163a9059cbb60e01b81527f00000000000000000000000000000000000000000000000000000000000000006001600160a01b03169290602081806103598633600484016116af565b03815f885af1908115610645575f916107b2575b501561077b577f27330bd7589580547b6437e08f9c60653de63691d2d2b2c13bff9ee67da2a68d5f5480936103aa6040519283923396348561177b565b0390a2672629f66e0c5300008110156103d1575b60015f805160206117f083398151915255005b6003805460ff19166001908117909155546714adf4b7320334b9601d1b818103939190841161067b576714adf4b7320334b9601d1b036106f2575b60405163095ea7b360e01b81527f00000000000000000000000000000000000000000000000000000000000000006001600160a01b0316600482018190526aa56fa5b99019a5c80000006024830152906020816044815f875af1908115610645575f916106c3575b501561068f57610258420180421161067b57839160c4606092604051948593849263f305d71960e01b84528860048501526aa56fa5b99019a5c800000060248501525f60448501525f606485015260018060a01b037f000000000000000000000000000000000000000000000000000000000000000016608485015260a48401525af1801561064557610650575b5060405163e6a4390560e01b815260048101919091526001600160a01b037f000000000000000000000000000000000000000000000000000000000000000081166024830152602090829060449082907f0000000000000000000000000000000000000000000000000000000000000000165afa908115610645575f916105f4575b506003805462010000600160b01b031916601092831b62010000600160b01b03161790819055604080519384526aa56fa5b99019a5c800000060208501528301939093529190911c6001600160a01b031660608201525f805160206117d083398151915290608090a180806103be565b90506020813d60201161063d575b8161060f60209383611660565b810103126101ab5751906001600160a01b03821682036101ab57905f805160206117d0833981519152610584565b3d9150610602565b6040513d5f823e3d90fd5b606090813d8311610674575b6106668183611660565b810103126101ab5783610502565b503d61065c565b634e487b7160e01b5f52601160045260245ffd5b60405162461bcd60e51b815260206004820152600c60248201526b105c1c1c9bdd994819985a5b60a21b6044820152606490fd5b6106e5915060203d6020116106eb575b6106dd8183611660565b810190611697565b85610474565b503d6106d3565b60405163a9059cbb60e01b815261dead6004820152602481018490526020816044815f865af1908115610645575f9161075c575b5061040c5760405162461bcd60e51b8152602060048201526009602482015268109d5c9b8819985a5b60ba1b6044820152606490fd5b610775915060203d6020116106eb576106dd8183611660565b84610726565b60405162461bcd60e51b815260206004820152600f60248201526e151bdad95b881e19995c8819985a5b608a1b6044820152606490fd5b6107cb915060203d6020116106eb576106dd8183611660565b8461036d565b60405162461bcd60e51b815260206004820152600860248201526716995c9bc81bdd5d60c21b6044820152606490fd5b60405162461bcd60e51b81526020600482015260086024820152670b4cae4de408aa8960c31b6044820152606490fd5b60ff915060081c16158261023b565b346101ab5760403660031901126101ab5760043561085c611797565b61087360035460ff8116159081610b07575061142e565b8015610ad457600154808211610aa0575f546108af817f00000000000000000000000000000000000000000000000000000000000000006114a9565b6714adf4b7320334b9601d1b8381039190821161067b576102cc826108e16108da886108e6966114a9565b918461146b565b61147e565b90606482028281046064148315171561067b57612710900491610909838261149c565b93610918602435861015611744565b828211610a675761092d86926109349461149c565b5f5561149c565b600155610943816002546114a9565b6002556040516323b872dd60e01b8152336004820152306024820152604481018490526020816064815f7f00000000000000000000000000000000000000000000000000000000000000006001600160a01b03165af1908115610645575f91610a48575b5015610a1157816109e85f8080807f490fdc1c23c0f3a84bf80a0384eaadcb9188c9ef71b9430da391a0e4c4c39bf697335af16109e26116ca565b50611708565b6109fb5f5460405193849333978561177b565b0390a260015f805160206117f083398151915255005b60405162461bcd60e51b815260206004820152600f60248201526e151bdad95b881c1d5b1b0819985a5b608a1b6044820152606490fd5b610a61915060203d6020116106eb576106dd8183611660565b846109a7565b60405162461bcd60e51b81526020600482015260116024820152705265736572766520756e646572666c6f7760781b6044820152606490fd5b60405162461bcd60e51b815260206004820152600c60248201526b115e18d959591cc81cdbdb1960a21b6044820152606490fd5b60405162461bcd60e51b815260206004820152600b60248201526a5a65726f20746f6b656e7360a81b6044820152606490fd5b60ff915060081c16158361023b565b346101ab5760203660031901126101ab576004356001600160a01b038116908190036101ab57610b44611797565b7f00000000000000000000000000000000000000000000000000000000000000006001600160a01b03163303610c35578015610c07576002548015610bd85760207fd046302bdc39599e60a5981e59227dcd1c643f512f56f2e984390c3ac6eadedb915f600255610bbe5f80808085895af16109e26116ca565b604051908152a260015f805160206117f083398151915255005b60405162461bcd60e51b81526020600482015260076024820152664e6f206665657360c81b6044820152606490fd5b60405162461bcd60e51b815260206004820152600660248201526542616420746f60d01b6044820152606490fd5b60405162461bcd60e51b815260206004820152600c60248201526b27b7363c9031b932b0ba37b960a11b6044820152606490fd5b346101ab5760203660031901126101ab576004356001600160a01b038116908190036101ab57610cc3337f00000000000000000000000000000000000000000000000000000000000000006001600160a01b0316146113f3565b610ccb611797565b610cdc60ff60035460081c16611624565b600254479080821115610d8b57610cf29161149c565b5f805580610d40575b6020917f179809d94b01185c84383aadba3612822366ef4558cf145d75a95a5f533b497b83604051848152a260015f805160206117f083398151915255604051908152f35b5f80808084865af1610d506116ca565b50610cfb5760405162461bcd60e51b815260206004820152600e60248201526d115512081cddd9595c0819985a5b60921b6044820152606490fd5b50505f610cf2565b346101ab575f3660031901126101ab576040517f00000000000000000000000000000000000000000000000000000000000000006001600160a01b03168152602090f35b346101ab575f3660031901126101ab575f5460015490610e17817f00000000000000000000000000000000000000000000000000000000000000006114a9565b6714adf4b7320334b9601d1b83810390811161067b576714adf4b7320334b9601d1b8414610ec057670de0b6b3a7640000820291808304670de0b6b3a7640000149015171561067b57610e699161147e565b915b612710820290828204612710148315171561067b57672629f66e0c53000060ff9260c09560035493604051968752602087015260408601520460608401528181161515608084015260081c16151560a0820152f35b50505f91610e6b565b346101ab575f3660031901126101ab57602060405160648152f35b346101ab575f3660031901126101ab576040517f00000000000000000000000000000000000000000000000000000000000000006001600160a01b03168152602090f35b346101ab5760203660031901126101ab576004356001600160a01b03811681036101ab57610f80337f00000000000000000000000000000000000000000000000000000000000000006001600160a01b0316146113f3565b610f9160ff60035460081c16611624565b6040516370a0823160e01b8152306004820152907f00000000000000000000000000000000000000000000000000000000000000006001600160a01b031690602083602481855afa928315610645575f9361108e575b5082610ff9575b602083604051908152f35b8261101e926020925f60405180968195829463a9059cbb60e01b8452600484016116af565b03925af1908115610645575f9161106f575b501561103d578180610fee565b60405162461bcd60e51b815260206004820152600a60248201526914ddd9595c0819985a5b60b21b6044820152606490fd5b611088915060203d6020116106eb576106dd8183611660565b82611030565b9092506020813d6020116110ba575b816110aa60209383611660565b810103126101ab57519183610fe7565b3d915061109d565b346101ab575f3660031901126101ab5760205f54604051908152f35b346101ab5760203660031901126101ab5760406110fc60043561156c565b82519182526020820152f35b346101ab575f3660031901126101ab576040516714adf4b7320334b9601d1b8152602090f35b346101ab575f3660031901126101ab57602060ff60035460081c166040519015158152f35b346101ab575f3660031901126101ab5760206040516127108152f35b346101ab575f3660031901126101ab576020604051672629f66e0c5300008152f35b346101ab575f3660031901126101ab5760206040517f00000000000000000000000000000000000000000000000000000000000000008152f35b346101ab575f3660031901126101ab576020600154604051908152f35b346101ab5760203660031901126101ab5760406110fc6004356114b6565b346101ab575f3660031901126101ab576040517f00000000000000000000000000000000000000000000000000000000000000006001600160a01b03168152602090f35b346101ab575f3660031901126101ab5760206040516aa56fa5b99019a5c80000008152f35b346101ab575f3660031901126101ab576112b3337f00000000000000000000000000000000000000000000000000000000000000006001600160a01b0316146113f3565b61010060035460ff81161580611304575b6112cd9061142e565b61ff001916176003557fc41d93b8bfbf9fd7cf5bfe271fd649ab6a6fec0ea101c23b82a2a28eca2533a960205f54604051908152a1005b50600881901c60ff16156112c4565b346101ab575f3660031901126101ab576020600254604051908152f35b346101ab575f3660031901126101ab5760206040517f00000000000000000000000000000000000000000000000000000000000000008152f35b346101ab575f3660031901126101ab5760035460405160109190911c6001600160a01b03168152602090f35b346101ab575f3660031901126101ab57602060405161dead8152f35b346101ab575f3660031901126101ab577f00000000000000000000000000000000000000000000000000000000000000006001600160a01b03168152602090f35b156113fa57565b60405162461bcd60e51b815260206004820152600c60248201526b4f6e6c7920666163746f727960a01b6044820152606490fd5b1561143557565b60405162461bcd60e51b815260206004820152600e60248201526d437572766520696e61637469766560901b6044820152606490fd5b8181029291811591840414171561067b57565b8115611488570490565b634e487b7160e01b5f52601260045260245ffd5b9190820391821161067b57565b9190820180921161067b57565b8015808015611560575b8015611551575b611549576064820290828204606414171561067b576127106114eb9104809261149c565b6115165f547f00000000000000000000000000000000000000000000000000000000000000006114a9565b60015490916714adf4b7320334b9601d1b91820391821161067b57826102c66102cc926102c0856115469761146b565b91565b50505f905f90565b5060ff60035460081c166114c7565b5060ff600354166114c0565b80158015611618575b8015611609575b61160257600154808211611549576115b55f547f00000000000000000000000000000000000000000000000000000000000000006114a9565b6714adf4b7320334b9601d1b918203929091831161067b57826108e16108da6102cc936115e1966114a9565b606481028181046064148215171561067b576127106115469104809261149c565b505f905f90565b5060ff60035460081c1661157c565b5060ff60035416611575565b1561162b57565b60405162461bcd60e51b815260206004820152600d60248201526c139bdd0818d85b98d95b1b1959609a1b6044820152606490fd5b601f909101601f19168101906001600160401b0382119082101761168357604052565b634e487b7160e01b5f52604160045260245ffd5b908160209103126101ab575180151581036101ab5790565b6001600160a01b039091168152602081019190915260400190565b3d15611703573d906001600160401b03821161168357604051916116f8601f8201601f191660200184611660565b82523d5f602084013e565b606090565b1561170f57565b60405162461bcd60e51b815260206004820152600d60248201526c115512081cd95b990819985a5b609a1b6044820152606490fd5b1561174b57565b60405162461bcd60e51b8152602060048201526008602482015267536c69707061676560c01b6044820152606490fd5b9094939260609260808301968352602083015260408201520152565b60025f805160206117f083398151915254146117c05760025f805160206117f083398151915255565b633ee5aeb560e01b5f5260045ffdfe3693576b24b0b545b0a78bc32216975c72c4d410f7a7fbecc97953d09f7f3cc89b779b17422d0df92223018b32b4d1fa46e071723d6817e2486d003becc55f00a26469706673582212208530bba1ef3a4b0b4cd1f6b60b4cffa4b14a78402f6fbb1b197110ce04d212c564736f6c634300081a0033",
  "linkReferences": {},
  "deployedLinkReferences": {}
}