{"contracts/v2/AethpadTokenV2.sol":{"AethpadTokenV2":{"abi":[{"inputs":[{"internalType":"string","name":"_name","type":"string"},{"internalType":"string","name":"_symbol","type":"string"},{"internalType":"address","name":"_factory","type":"address"},{"internalType":"address","name":"_curve","type":"address"}],"stateMutability":"nonpayable","type":"constructor"},{"inputs":[{"internalType":"address","name":"spender","type":"address"},{"internalType":"uint256","name":"allowance","type":"uint256"},{"internalType":"uint256","name":"needed","type":"uint256"}],"name":"ERC20InsufficientAllowance","type":"error"},{"inputs":[{"internalType":"address","name":"sender","type":"address"},{"internalType":"uint256","name":"balance","type":"uint256"},{"internalType":"uint256","name":"needed","type":"uint256"}],"name":"ERC20InsufficientBalance","type":"error"},{"inputs":[{"internalType":"address","name":"approver","type":"address"}],"name":"ERC20InvalidApprover","type":"error"},{"inputs":[{"internalType":"address","name":"receiver","type":"address"}],"name":"ERC20InvalidReceiver","type":"error"},{"inputs":[{"internalType":"address","name":"sender","type":"address"}],"name":"ERC20InvalidSender","type":"error"},{"inputs":[{"internalType":"address","name":"spender","type":"address"}],"name":"ERC20InvalidSpender","type":"error"},{"inputs":[],"name":"ReentrancyGuardReentrantCall","type":"error"},{"anonymous":false,"inputs":[{"indexed":true,"internalType":"address","name":"owner","type":"address"},{"indexed":true,"internalType":"address","name":"spender","type":"address"},{"indexed":false,"internalType":"uint256","name":"value","type":"uint256"}],"name":"Approval","type":"event"},{"anonymous":false,"inputs":[{"indexed":true,"internalType":"address","name":"pair","type":"address"}],"name":"Graduated","type":"event"},{"anonymous":false,"inputs":[{"indexed":true,"internalType":"address","name":"oldKeeper","type":"address"},{"indexed":true,"internalType":"address","name":"newKeeper","type":"address"}],"name":"KeeperUpdated","type":"event"},{"anonymous":false,"inputs":[{"indexed":false,"internalType":"uint256","name":"ethAmount","type":"uint256"}],"name":"PlatformFeeForwarded","type":"event"},{"anonymous":false,"inputs":[{"indexed":true,"internalType":"address","name":"user","type":"address"},{"indexed":false,"internalType":"uint256","name":"ethAmount","type":"uint256"}],"name":"RewardsClaimed","type":"event"},{"anonymous":false,"inputs":[{"indexed":false,"internalType":"uint256","name":"ethAmount","type":"uint256"},{"indexed":false,"internalType":"uint256","name":"newCumulative","type":"uint256"}],"name":"RewardsDeposited","type":"event"},{"anonymous":false,"inputs":[{"indexed":false,"internalType":"uint256","name":"holderCount","type":"uint256"},{"indexed":false,"internalType":"uint256","name":"totalEthSent","type":"uint256"}],"name":"RewardsPushed","type":"event"},{"anonymous":false,"inputs":[{"indexed":true,"internalType":"address","name":"from","type":"address"},{"indexed":true,"internalType":"address","name":"to","type":"address"},{"indexed":false,"internalType":"uint256","name":"burnAmt","type":"uint256"},{"indexed":false,"internalType":"uint256","name":"rewardAmt","type":"uint256"},{"indexed":false,"internalType":"uint256","name":"platformAmt","type":"uint256"}],"name":"TaxTaken","type":"event"},{"anonymous":false,"inputs":[{"indexed":true,"internalType":"address","name":"from","type":"address"},{"indexed":true,"internalType":"address","name":"to","type":"address"},{"indexed":false,"internalType":"uint256","name":"value","type":"uint256"}],"name":"Transfer","type":"event"},{"inputs":[],"name":"BURN_BPS","outputs":[{"internalType":"uint256","name":"","type":"uint256"}],"stateMutability":"view","type":"function"},{"inputs":[],"name":"CURVE_SUPPLY","outputs":[{"internalType":"uint256","name":"","type":"uint256"}],"stateMutability":"view","type":"function"},{"inputs":[],"name":"DEAD","outputs":[{"internalType":"address","name":"","type":"address"}],"stateMutability":"view","type":"function"},{"inputs":[],"name":"GRAD_SUPPLY","outputs":[{"internalType":"uint256","name":"","type":"uint256"}],"stateMutability":"view","type":"function"},{"inputs":[],"name":"PLATFORM_BPS","outputs":[{"internalType":"uint256","name":"","type":"uint256"}],"stateMutability":"view","type":"function"},{"inputs":[],"name":"REWARD_BPS","outputs":[{"internalType":"uint256","name":"","type":"uint256"}],"stateMutability":"view","type":"function"},{"inputs":[],"name":"SNIPE_BPS_1HR","outputs":[{"internalType":"uint256","name":"","type":"uint256"}],"stateMutability":"view","type":"function"},{"inputs":[],"name":"SNIPE_BPS_24HR","outputs":[{"internalType":"uint256","name":"","type":"uint256"}],"stateMutability":"view","type":"function"},{"inputs":[],"name":"SNIPE_BPS_5MIN","outputs":[{"internalType":"uint256","name":"","type":"uint256"}],"stateMutability":"view","type":"function"},{"inputs":[],"name":"TOTAL_SUPPLY","outputs":[{"internalType":"uint256","name":"","type":"uint256"}],"stateMutability":"view","type":"function"},{"inputs":[],"name":"TOTAL_TAX_BPS","outputs":[{"internalType":"uint256","name":"","type":"uint256"}],"stateMutability":"view","type":"function"},{"inputs":[{"internalType":"address","name":"owner","type":"address"},{"internalType":"address","name":"spender","type":"address"}],"name":"allowance","outputs":[{"internalType":"uint256","name":"","type":"uint256"}],"stateMutability":"view","type":"function"},{"inputs":[{"internalType":"address","name":"seller","type":"address"}],"name":"antiSnipeBpsFor","outputs":[{"internalType":"uint256","name":"","type":"uint256"}],"stateMutability":"view","type":"function"},{"inputs":[{"internalType":"address","name":"spender","type":"address"},{"internalType":"uint256","name":"value","type":"uint256"}],"name":"approve","outputs":[{"internalType":"bool","name":"","type":"bool"}],"stateMutability":"nonpayable","type":"function"},{"inputs":[{"internalType":"address","name":"account","type":"address"}],"name":"balanceOf","outputs":[{"internalType":"uint256","name":"","type":"uint256"}],"stateMutability":"view","type":"function"},{"inputs":[{"internalType":"uint256","name":"amount","type":"uint256"}],"name":"burnFromCurve","outputs":[],"stateMutability":"nonpayable","type":"function"},{"inputs":[{"internalType":"address","name":"","type":"address"}],"name":"checkpoints","outputs":[{"internalType":"uint128","name":"balance","type":"uint128"},{"internalType":"uint64","name":"lastUpdate","type":"uint64"},{"internalType":"uint64","name":"lastBuyAt","type":"uint64"},{"internalType":"uint256","name":"accumulatedScore","type":"uint256"},{"internalType":"uint256","name":"ethPerScorePaid","type":"uint256"},{"internalType":"uint256","name":"pendingEth","type":"uint256"}],"stateMutability":"view","type":"function"},{"inputs":[],"name":"claim","outputs":[],"stateMutability":"nonpayable","type":"function"},{"inputs":[],"name":"cumulativeEthPerScore","outputs":[{"internalType":"uint256","name":"","type":"uint256"}],"stateMutability":"view","type":"function"},{"inputs":[],"name":"curve","outputs":[{"internalType":"address","name":"","type":"address"}],"stateMutability":"view","type":"function"},{"inputs":[],"name":"decimals","outputs":[{"internalType":"uint8","name":"","type":"uint8"}],"stateMutability":"view","type":"function"},{"inputs":[],"name":"depositEthPlatform","outputs":[],"stateMutability":"payable","type":"function"},{"inputs":[],"name":"depositEthReward","outputs":[],"stateMutability":"payable","type":"function"},{"inputs":[],"name":"factory","outputs":[{"internalType":"address","name":"","type":"address"}],"stateMutability":"view","type":"function"},{"inputs":[],"name":"graduated","outputs":[{"internalType":"bool","name":"","type":"bool"}],"stateMutability":"view","type":"function"},{"inputs":[{"internalType":"address","name":"user","type":"address"}],"name":"holdScore","outputs":[{"internalType":"uint256","name":"","type":"uint256"}],"stateMutability":"view","type":"function"},{"inputs":[{"internalType":"address","name":"","type":"address"}],"name":"isExcluded","outputs":[{"internalType":"bool","name":"","type":"bool"}],"stateMutability":"view","type":"function"},{"inputs":[],"name":"keeper","outputs":[{"internalType":"address","name":"","type":"address"}],"stateMutability":"view","type":"function"},{"inputs":[],"name":"lastRewardTimestamp","outputs":[{"internalType":"uint256","name":"","type":"uint256"}],"stateMutability":"view","type":"function"},{"inputs":[],"name":"name","outputs":[{"internalType":"string","name":"","type":"string"}],"stateMutability":"view","type":"function"},{"inputs":[{"internalType":"address","name":"_pair","type":"address"},{"internalType":"address","name":"_router","type":"address"}],"name":"notifyGraduated","outputs":[],"stateMutability":"nonpayable","type":"function"},{"inputs":[],"name":"orphanedRewardEth","outputs":[{"internalType":"uint256","name":"","type":"uint256"}],"stateMutability":"view","type":"function"},{"inputs":[{"internalType":"address","name":"user","type":"address"}],"name":"pendingRewards","outputs":[{"internalType":"uint256","name":"","type":"uint256"}],"stateMutability":"view","type":"function"},{"inputs":[{"internalType":"address[]","name":"holders","type":"address[]"}],"name":"pushRewards","outputs":[],"stateMutability":"nonpayable","type":"function"},{"inputs":[{"internalType":"address","name":"account","type":"address"},{"internalType":"bool","name":"excluded","type":"bool"}],"name":"setExcluded","outputs":[],"stateMutability":"nonpayable","type":"function"},{"inputs":[{"internalType":"address","name":"newKeeper","type":"address"}],"name":"setKeeper","outputs":[],"stateMutability":"nonpayable","type":"function"},{"inputs":[{"internalType":"uint256","name":"newThreshold","type":"uint256"}],"name":"setSwapThreshold","outputs":[],"stateMutability":"nonpayable","type":"function"},{"inputs":[],"name":"swapThreshold","outputs":[{"internalType":"uint256","name":"","type":"uint256"}],"stateMutability":"view","type":"function"},{"inputs":[],"name":"symbol","outputs":[{"internalType":"string","name":"","type":"string"}],"stateMutability":"view","type":"function"},{"inputs":[],"name":"totalAccumulatedScore","outputs":[{"internalType":"uint256","name":"","type":"uint256"}],"stateMutability":"view","type":"function"},{"inputs":[],"name":"totalHoldScoreLive","outputs":[{"internalType":"uint256","name":"","type":"uint256"}],"stateMutability":"view","type":"function"},{"inputs":[],"name":"totalLastUpdate","outputs":[{"internalType":"uint256","name":"","type":"uint256"}],"stateMutability":"view","type":"function"},{"inputs":[],"name":"totalSettledBalance","outputs":[{"internalType":"uint256","name":"","type":"uint256"}],"stateMutability":"view","type":"function"},{"inputs":[],"name":"totalSupply","outputs":[{"internalType":"uint256","name":"","type":"uint256"}],"stateMutability":"view","type":"function"},{"inputs":[{"internalType":"address","name":"to","type":"address"},{"internalType":"uint256","name":"value","type":"uint256"}],"name":"transfer","outputs":[{"internalType":"bool","name":"","type":"bool"}],"stateMutability":"nonpayable","type":"function"},{"inputs":[{"internalType":"address","name":"from","type":"address"},{"internalType":"address","name":"to","type":"address"},{"internalType":"uint256","name":"value","type":"uint256"}],"name":"transferFrom","outputs":[{"internalType":"bool","name":"","type":"bool"}],"stateMutability":"nonpayable","type":"function"},{"inputs":[],"name":"uniswapPair","outputs":[{"internalType":"address","name":"","type":"address"}],"stateMutability":"view","type":"function"},{"inputs":[],"name":"uniswapRouter","outputs":[{"internalType":"contract IUniswapV2Router02","name":"","type":"address"}],"stateMutability":"view","type":"function"},{"stateMutability":"payable","type":"receive"}],"evm":{"bytecode":{"linkReferences":{},"object":"60c06040908082523462000743576200383b803803809162000022828562000748565b8339810190608081830312620007435780516001600160401b0392908381116200074357816200005491840162000788565b602091828401519085821162000743576200007191850162000788565b906200008d606062000085888701620007f2565b9501620007f2565b918151868111620006435760038054916001948584811c9416801562000738575b8885101462000722578190601f94858111620006cc575b508890858311600114620006655760009262000659575b505060001982841b1c191690851b1781555b825191888311620006435760049384548681811c9116801562000638575b8982101462000623579081838695949311620005c9575b50889184116001146200055e5760009362000552575b505082851b92600019911b1c19161781555b817f9b779b17422d0df92223018b32b4d1fa46e071723d6817e2486d003becc55f005569152d02c7e14af6800000600755846080528260a05260018060a01b03948584169081600052600f865286896000209160ff199286848254161790551660005288600020848282541617905561dead93846000528960002081838254161790553060005289600020818382541617905560008052896000209182541617905542600b5580156200053b576b033b2e3c9fd0803ce80000009262000211856200091b565b600554978760ff998a8116806200052e575b8062000517575b8062000500575b62000346575b505050505050906200024e62000254928262000891565b62000ab2565b600554838116938462000338575b508362000328575b50826200030d575b5081620002fe575b50620002ee575b5161267f90816200117c82396080518181816107320152818161080e0152818161097801528181610b42015281816110d50152612299015260a0518181816105db015281816107d60152818161090001528181610be601528181610c8d01528181611d580152611ee70152f35b620002f862000d2c565b62000281565b9050600654161515386200027a565b60009192503082525281600020546007541115903862000272565b60081c821615159250386200026a565b600854161593503862000262565b60081c16938415948414858615620004f8575b62000368575b89915062000237565b600096929394959690620004e7575b6101f4908101809111620004d2578083029083820403620004d2576127109004600254946a0c685fa11e01ec6f00000095868101809111620004bd576000805160206200381b8339815191528b8f6000936002558484528382528084208a815401905551898152a36a0c685fa11e01ec6effffff198101818111620004a8578062000495575b5082039182116200048057507fe9bc91a33ddf896d889747b2f39f4192c802fd62364780086853fcd8e19e8ffa6060620002549796946200024e96948d6000959762000461575b905051908152838a820152838d820152a39192388080806200035f565b620004789187875260098d5242169086206200086e565b388d62000444565b601190634e487b7160e01b6000525260246000fd5b620004a1903062000891565b38620003fd565b601183634e487b7160e01b6000525260246000fd5b601184634e487b7160e01b6000525260246000fd5b601182634e487b7160e01b6000525260246000fd5b50620004f262000cae565b62000377565b508062000359565b5084600052600f89528a8c60002054161562000231565b5060008052600f89528a8c6000205416156200022a565b508a600854161562000223565b875163ec442f0560e01b8152600081840152602490fd5b01519150388062000139565b9190869450601f1984169286600052896000209360005b8b828210620005b2575050851162000597575b50505050811b0181556200014b565b01519060f884600019921b161c191690553880808062000588565b8385015187558a9890960195938401930162000575565b909192935085600052886000208380870160051c8201928b881062000619575b9189918897969594930160051c01915b8281106200060957505062000123565b60008155879650899101620005f9565b92508192620005e9565b602286634e487b7160e01b6000525260246000fd5b90607f16906200010c565b634e487b7160e01b600052604160045260246000fd5b015190503880620000dc565b90879350601f19831691856000528a6000209260005b8c828210620006b557505084116200069c575b505050811b018155620000ee565b015160001983861b60f8161c191690553880806200068e565b8385015186558b979095019493840193016200067b565b90915083600052886000208580850160051c8201928b861062000718575b918991869594930160051c01915b82811062000708575050620000c5565b60008155859450899101620006f8565b92508192620006ea565b634e487b7160e01b600052602260045260246000fd5b93607f1693620000ae565b600080fd5b601f909101601f19168101906001600160401b038211908210176200064357604052565b6001600160401b0381116200064357601f01601f191660200190565b919080601f840112156200074357825190620007a4826200076c565b91620007b4604051938462000748565b808352602091828287010111620007435760005b818110620007de57508260009394955001015290565b8581018301518482018401528201620007c8565b51906001600160a01b03821682036200074357565b919082018092116200081557565b634e487b7160e01b600052601160045260246000fd5b818102929181159184041417156200081557565b81156200084a570490565b634e487b7160e01b600052601260045260246000fd5b919082039182116200081557565b80546001600160c01b031660c09290921b6001600160c01b031916919091179055565b6000805160206200381b8339815191526020600092620008b48560025462000807565b6002556001600160a01b03169384158414620008dc5780600254036002555b604051908152a3565b84845283825260408420818154019055620008d3565b8054600160801b600160c01b03191660809290921b600160801b600160c01b0316919091179055565b620009268162000a53565b1562000a505760018060a01b03166000526009602052620009b16040600020600d546200095a600283019182549062000860565b80620009b3575b505080546001600160401b0390620009959062000985608082901c84164262000860565b906001600160801b03166200082b565b620009a66001840191825462000807565b9055421690620008f2565b565b600e54835462000a0191620009fa90620009e590608084901c6001600160401b0316908181111562000a485762000860565b6001870154926001600160801b03166200082b565b9062000807565b8062000a17575b5050600d549055388062000961565b670de0b6b3a76400009162000a2c916200082b565b0462000a3e6003840191825462000807565b9055388062000a08565b508062000860565b50565b6001600160a01b0390811690811562000aab5781600052600f60205260ff6040600020541662000aab5760055460081c16801515918262000aa0575b505062000a9b57600190565b600090565b149050388062000a8f565b5050600090565b62000abd8162000a53565b1562000a50576001600160a01b039081166000818152600960205260408120929162000ae862000c58565b81526020819052604081205483546001600160801b039081168083109391929190848062000c4e575b62000bf6575b82818111958660001462000bb1575062000b4192509062000b389162000860565b600c5462000807565b600c555b84546001600160801b0319169116178355426001600160401b03169162000b6d8385620008f2565b60ff6005541615918262000ba8575b508162000b99575b5062000b8e575050565b620009b1916200086e565b905060a0511633143862000b84565b91503862000b7c565b62000bc0575b50505062000b45565b62000bcb9162000860565b600c5481811062000bee5762000be2925062000860565b600c5538808262000bb7565b505062000be2565b6001870180549062000c2062000c188462000c1288866200082b565b6200083f565b809362000860565b600a54811162000c435762000c3890600a5462000860565b600a555b5562000b17565b5083600a5562000c3c565b5080151562000b11565b62000c66600b544262000860565b8015158062000ca2575b62000c7d575b5042600b55565b62000c8f62000c9891600c546200082b565b600a5462000807565b600a553862000c76565b50600c54151562000c70565b6000805260096020527fec8156718a8372b1db44bb411437d0870f3e3790d4a08526d024ce1b0b668f6b5460c01c801562000d265762000cef904262000860565b61012c811062000d1f57610e10811062000d1857620151801162000d1257600090565b6101f490565b506103e890565b506107d090565b50600090565b60009060ff19806008541692600190818517600855308152602081815260409182812054968715620010a057508251936001600160401b0360608601818111878210176200108c578552600286528386019885368b378651156200107857308a5260065486516315ab88c960e31b815260049b6001600160a01b0399929091908a169088818f81855afa9081156200106e57889162001031575b5083518710156200101d578a168984015230156200100657801562000fef573087528588528887208188528852838988205588518481527f8c5be1e5ebec7d5bd14f71427d1e84f3dd0314c0f7b2291e5b200ac8c7c3b925893092a34794896006541692833b1562000feb57895163791ac94760e01b8152808f01959095526024850188905260a060448601525160a4850181905287938593909260c4850192868c8f5b83831062000fce575050505050508383809230606483015242608483015203925af1918262000fa6575b505062000ead575b505050505090915060085416600855565b62000eb9904762000860565b908115801562000ecb575b5062000e9c565b6003830290838204600314171562000f935762000f0896979850600762000ef59104809362000860565b948262000f16575b5050505050620010ad565b819038808080808062000ec4565b818080858194608051165af1903d1562000f8c573d9062000f37826200076c565b9162000f468751938462000748565b8252843d92013e5b62000f5c575b808062000efd565b7f693f9dbea0bdf9b70d480f9527e567d17ae3a41a5627c6515b034ac1869cf7a09251908152a138808062000f54565b5062000f4e565b634e487b7160e01b825260118952602482fd5b819492941162000fbb57855291388062000e94565b634e487b7160e01b825260418a52602482fd5b85511686528c9850899750948501949093019282018c8f62000e6a565b8780fd5b8851634a1406b160e11b8152808e01889052602490fd5b885163e602df0560e01b8152808e01889052602490fd5b50634e487b7160e01b875260328d52602487fd5b90508881813d831162001066575b6200104b818362000748565b8101031262000feb576200105f90620007f2565b3862000dc6565b503d6200103f565b8a513d8a823e3d90fd5b634e487b7160e01b84526032600452602484fd5b634e487b7160e01b84526041600452602484fd5b9596505050505050600855565b801562000a5057620010be62000c58565b600a549081156200114557620010d8601054809262000807565b906200113a575b670de0b6b3a7640000908181029181830414811517156200081557620011256200111c600080516020620037fb833981519152946040946200083f565b600d5462000807565b80600d5542600e5582519182526020820152a1565b6000601055620010df565b600080516020620037fb8339815191529150806200116860409260105462000807565b601055600d5482519182526020820152a156fe6080604081815260049182361015610022575b505050361561002057600080fd5b005b600092833560e01c91826303fd2a45146113c1575081630445b667146113a257816306fdde03146112cb57816307c9bf2e14611292578163095ea7b31461126857816313b9d47e1461124957816318160ddd1461122a5781631e4c72921461120457816323b872dd1461111a5781632836be241461109d578163313ce5671461108157816331d7a2621461105b57816347b12bfc1461103f5781634e71d92d14610f525781635b09004414610c6b57816364229d6814610c4c57816370a0823114610c155781637165485d14610bd1578163735de9f714610ba8578163748747e614610b19578163902d55a514610af357816395d89b4114610a0d57816398aecb67146109e75781639d0014b11461095c5781639d6eadc11461093d578163a37a9fc01461050b578163a47541ba146108ee578163a8355c8f1461079d578163a9059cbb146108bd578163aced166114610894578163b78d0538146107ba578163bacf2a7b1461079d578163bb103cbc14610780578163c1db401514610761578163c45a01551461071d578163c463ecd714610700578163c5f27b30146106e1578163c5f509d6146106bb578163c7b12801146105a8578163c816841b1461057b578163ca81eb661461054e578163cba0e99614610510578163ce91e1641461050b578163dbb51d6e14610490578163dd62ed3e14610447578163e7c2b77214610423578163f6ceefa214610263575063f8077fae146102425780610012565b3461025f578160031936011261025f57602090600e549051908152f35b5080fd5b83833461025f5760208060031936011261041f576001600160401b039084359082821161041b573660238301121561041b578186013592831161041b5760059260243682861b8501820111610417576102ba6123d9565b6011546001600160a01b039890891633036103e9575086938795885b84811061032157897f0f80654923fb0c7f7a44c79b000dca8e52e2f4a16092a26ff31c0a410291d3318a8a8a8a8351928352820152a1600160008051602061262a8339815191525580f35b8381839998991b840101358b8116908181036103e55761034081611c36565b156103d75761034e90611b8b565b808b526009875260038a8c2001988954998c8b156103c8578080808e818655875af161037861182e565b50156103b85750906000805160206125aa833981519152886103a76103a18d6103b39796611473565b9b612409565b9b8d51908152a2612409565b6102d6565b6103b39392509990989955612409565b5050979850506103b390612409565b50506103b390979697612409565b8b80fd5b600b6064928589519362461bcd60e51b85528401528201526a27b7363c9035b2b2b832b960a91b6044820152fd5b8680fd5b8480fd5b8280fd5b50503461025f578160031936011261025f5760209060ff6005541690519015158152f35b50503461025f578060031936011261025f5780602092610465611426565b61046d611441565b6001600160a01b0391821683526001865283832091168252845220549051908152f35b50503461025f57602036600319011261025f5760c09181906001600160a01b036104b8611426565b168152600960205220908154916001810154600360028301549201549280519460018060801b038116865260018060401b038160801c166020870152861c908501526060840152608083015260a0820152f35b611457565b50503461025f57602036600319011261025f5760209160ff9082906001600160a01b0361053b611426565b168152600f855220541690519015158152f35b50503461025f57602036600319011261025f5760209061057461056f611426565b6120a6565b9051908152f35b50503461025f578160031936011261025f57600554905160089190911c6001600160a01b03168152602090f35b9190503461041f578060031936011261041f576105c3611426565b916105cc611441565b6001600160a01b0391610602337f00000000000000000000000000000000000000000000000000000000000000008516146117f5565b6005549060ff821661068457506001600160a81b031916600885901b610100600160a81b031617600117600555600680546001600160a01b03191691831691909117905591909116808352600f602052908220805460ff191690557fc5ca2014458d93c5cf9f836ff7ece45de01c929dfb16eed9d6c3329fa1fd09828280a280f35b606490602086519162461bcd60e51b83528201526011602482015270105b1c9958591e4819dc98591d585d1959607a1b6044820152fd5b50503461025f57602036600319011261025f576020906105746106dc611426565b6124d4565b50503461025f578160031936011261025f57602090600d549051908152f35b50503461025f578160031936011261025f57602090516103e88152f35b50503461025f578160031936011261025f57517f00000000000000000000000000000000000000000000000000000000000000006001600160a01b03168152602090f35b50503461025f578160031936011261025f57602090600a549051908152f35b50503461025f578160031936011261025f57602090516107d08152f35b50503461025f578160031936011261025f57602090516101f48152f35b90508260031936011261041f57826001600160a01b036107fd337f00000000000000000000000000000000000000000000000000000000000000008316146117f5565b34610806575080f35b8180809234907f0000000000000000000000000000000000000000000000000000000000000000165af161083861182e565b501561085c5750602060008051602061256a8339815191529151348152a138808280f35b6020606492519162461bcd60e51b83528201526013602482015272141b185d199bdc9b48199dd90819985a5b1959606a1b6044820152fd5b50503461025f578160031936011261025f5760115490516001600160a01b039091168152602090f35b50503461025f578060031936011261025f576020906108e76108dd611426565b60243590336114cf565b5160018152f35b838060031936011261093a5761092e337f00000000000000000000000000000000000000000000000000000000000000006001600160a01b0316146117f5565b61093734611fe9565b80f35b80fd5b50503461025f578160031936011261025f57602090600b549051908152f35b90503461041f57602036600319011261041f578035916109a6337f00000000000000000000000000000000000000000000000000000000000000006001600160a01b03161461252e565b82156109b457505060075580f35b906020606492519162461bcd60e51b8352820152600d60248201526c109859081d1a1c995cda1bdb19609a1b6044820152fd5b50503461025f578160031936011261025f57602090516aa56fa5b99019a5c80000008152f35b83833461025f578160031936011261025f57805191809380549160019083821c92828516948515610ae9575b6020958686108114610ad657858952908115610ab25750600114610a77575b610a738787610a69828c0383611496565b51918291826113dd565b0390f35b9080949750528583205b828410610a9f5750505082610a7394610a6992820101948680610a58565b8054868501880152928601928101610a81565b60ff19168887015250505050151560051b8301019250610a6982610a738680610a58565b634e487b7160e01b845260228352602484fd5b93607f1693610a39565b50503461025f578160031936011261025f5751676765c793fa10079d601b1b8152602090f35b833461093a57602036600319011261093a57610b33611426565b6001600160a01b0390610b69337f000000000000000000000000000000000000000000000000000000000000000084161461252e565b816011549116809282167f53d3703fe259def57584466f32d1b94c30278008c683c21b04501c4966f13a698580a36001600160a01b0319161760115580f35b50503461025f578160031936011261025f5760065490516001600160a01b039091168152602090f35b50503461025f578160031936011261025f57517f00000000000000000000000000000000000000000000000000000000000000006001600160a01b03168152602090f35b50503461025f57602036600319011261025f5760209181906001600160a01b03610c3d611426565b16815280845220549051908152f35b50503461025f578160031936011261025f57602090600c549051908152f35b83833461025f5760208060031936011261041f578335916001600160a01b03917f000000000000000000000000000000000000000000000000000000000000000083811690610cbb3383146117f5565b8515978815610cc8578780f35b8215610f3b578698610cd983611b8b565b610ce1611a58565b6005549760ff9889811680610f2f575b80610f1b575b80610f05575b610dac575b5050505080610d1a8899610d1f9399969798996118d0565b611e20565b610d27611c80565b6005548681169687610d9f575b5086610d8f575b505084610d79575b50505081610d6b575b50610d5e575b80828080808080808780f35b610d66612105565b610d52565b905060065416151582610d4c565b3082525283205460075411159150838381610d43565b60081c8516141594508680610d3b565b6008541615965088610d34565b60081c88168581149261dead92918314848015610efe575b610dd0575b5050610d02565b90919293949c508b90610eef575b6101f4908101809111610edc57610dfb906127109182918561186d565b049160968402908482046096141715610ec8578c9d506060610d1f9796948a8c9d9e9f809d610e5b610d1a9a988e9860008051602061260a8339815191529804958d8780610eb8575b610e4e90846118a0565b80610ea6575b50506118a0565b98610e81575b915050519081528b8b8201528b8d820152a3999897969582938c80610dc9565b878252600990925220610e9e90426001600160401b0316906118ad565b8a8c8e610e61565b610eb191309061196b565b8d38610e54565b610ec1916118d0565b8d87610e44565b50634e487b7160e01b8c5260118d5260248cfd5b634e487b7160e01b8c5260118d5260248cfd5b50610ef9856120a6565b610dde565b5080610dc4565b5061dead8b52600f875289888c20541615610cfd565b50858b52600f875289888c20541615610cf7565b50896008541615610cf1565b8451634b637e8f60e11b8152908101889052602490fd5b9190503461041f578260031936011261041f57610f6d6123d9565b610f7633611b8b565b3383526009602052600381842001918254928315611009578490558380808086335af1610fa161182e565b5015610fd55750519081526000805160206125aa83398151915260203392a2600160008051602061262a8339815191525580f35b6020606492519162461bcd60e51b8352820152600f60248201526e115512081cd95b990819985a5b1959608a1b6044820152fd5b506020606492519162461bcd60e51b8352820152601060248201526f4e6f7468696e6720746f20636c61696d60801b6044820152fd5b50503461025f578160031936011261025f576020905160c88152f35b50503461025f57602036600319011261025f5760209061057461107c611426565b612418565b50503461025f578160031936011261025f576020905160128152f35b50503461025f578060031936011261025f576110b7611426565b9060243591821515809303611116576001600160a01b03906110fc337f000000000000000000000000000000000000000000000000000000000000000084161461252e565b168352600f60205282209060ff8019835416911617905580f35b8380fd5b9050823461093a57606036600319011261093a57611136611426565b61113e611441565b916044359360018060a01b03831680835260016020528683203384526020528683205491600019831061117a575b6020886108e78989896114cf565b8683106111e25781156111cb5733156111b4575082526001602090815286832033845281529186902090859003905582906108e78761116c565b8751634a1406b160e11b8152908101849052602490fd5b875163e602df0560e01b8152908101849052602490fd5b9050611200868851938493637dc7a0d960e11b8552339085016117d7565b0390fd5b50503461025f578160031936011261025f57516714adf4b7320334b9601d1b8152602090f35b50503461025f578160031936011261025f576020906002549051908152f35b50503461025f578160031936011261025f576020906010549051908152f35b50503461025f578060031936011261025f576020906108e7611288611426565b6024359033611744565b50503461025f578160031936011261025f576020906105746112b6600b54426118a0565b6112c5600a5491600c5461186d565b90611473565b9190503461041f578260031936011261041f57805191836003549060019082821c928281168015611398575b602095868610821461138557508488529081156113635750600114611328575b610a738686610a69828b0383611496565b929550600383528583205b8284106113505750505082610a7394610a69928201019438611317565b8054868501880152928601928101611333565b60ff191687860152505050151560051b8301019250610a6982610a7338611317565b634e487b7160e01b845260229052602483fd5b93607f16936112f7565b50503461025f578160031936011261025f576020906007549051908152f35b84903461025f578160031936011261025f578061dead60209252f35b6020808252825181830181905290939260005b82811061141257505060409293506000838284010152601f8019910116010190565b8181018601518482016040015285016113f0565b600435906001600160a01b038216820361143c57565b600080fd5b602435906001600160a01b038216820361143c57565b3461143c57600036600319011261143c57602060405160968152f35b9190820180921161148057565b634e487b7160e01b600052601160045260246000fd5b601f909101601f19168101906001600160401b038211908210176114b957604052565b634e487b7160e01b600052604160045260246000fd5b6001600160a01b0392918382169190821561172b578481169182156117125784926114f982611b8b565b61150283611b8b565b600554958760ff9788811680611706575b806116ee575b806116d6575b6115b5575b5050505080610d1a61153a9484610d1a9461196b565b60055482811692836115a8575b5082611598575b5050908161157c575b8161156e575b5061156457565b61156c612105565b565b90506006541615153861155d565b9050306000526000602052604060002054600754111590611557565b60081c831614159050388061154e565b6008541615925038611547565b60081c16828114919087148080156116cf575b6115d5575b899150611524565b9091939295506000936116be575b6101f493840180941161148057611600936127109485918461186d565b049560968302838104609614841517156114805760008051602061260a8339815191526060610d1a9561165461153a9b610d1a9a8e960492836116af575b61164884836118a0565b8061169e575b506118a0565b95611677575b6040519081526000602082015260006040820152a39482936115cd565b600085815260096020526040902061169990426001600160401b0316906118ad565b61165a565b6116a990308d61196b565b3861164e565b6116b9848c6118d0565b61163e565b92506116c9826120a6565b926115e3565b50826115c8565b5083600052600f60205288604060002054161561151f565b5087600052600f602052886040600020541615611519565b50886008541615611513565b60405163ec442f0560e01b815260006004820152602490fd5b604051634b637e8f60e11b815260006004820152602490fd5b6001600160a01b039081169182156117be57169182156117a55760207f8c5be1e5ebec7d5bd14f71427d1e84f3dd0314c0f7b2291e5b200ac8c7c3b925918360005260018252604060002085600052825280604060002055604051908152a3565b604051634a1406b160e11b815260006004820152602490fd5b60405163e602df0560e01b815260006004820152602490fd5b604091949392606082019560018060a01b0316825260208201520152565b156117fc57565b60405162461bcd60e51b815260206004820152600a6024820152694f6e6c7920637572766560b01b6044820152606490fd5b3d15611868573d906001600160401b0382116114b9576040519161185c601f8201601f191660200184611496565b82523d6000602084013e565b606090565b8181029291811591840414171561148057565b811561188a570490565b634e487b7160e01b600052601260045260246000fd5b9190820391821161148057565b80546001600160c01b031660c09290921b6001600160c01b031916919091179055565b6001600160a01b038116908161192257506118ed82600254611473565b6002555b6000805160206125ea833981519152602061dead9384600052600082526040600020818154019055604051908152a3565b6000908282528160205260408220549084821061194e57508360409184845283602052039120556118f1565b6112008560405193849363391434e360e21b8552600485016117d7565b6001600160a01b03808216929091836119d357506000805160206125ea8339815191529160209161199e86600254611473565b6002555b1693846119bb5780600254036002555b604051908152a3565b846000526000825260406000208181540190556119b2565b60009084825281602052604082205490868210611a1257509181604087602095886000805160206125ea833981519152989652838752039120556119a2565b6112008760405193849363391434e360e21b8552600485016117d7565b8054600160801b600160c01b03191660809290921b600160801b600160c01b0316919091179055565b611a60611bc7565b1561156c5761dead6000526009602052600d547f960b1051749987b45b5679007fff577a1c2f763ec21c15a6c5eb193075003787805461156c9260008051602061258a8339815191529291611ab4916118a0565b80611b03575b505080546001600160401b0390611aea90611adb608082901c8416426118a0565b906001600160801b031661186d565b611af960018401918254611473565b9055421690611a2f565b600e548354611b44916112c590611b3090608084901c6001600160401b03169081811115611b84576118a0565b6001870154926001600160801b031661186d565b80611b58575b5050600d5490553880611aba565b670de0b6b3a764000091611b6b9161186d565b04611b7b60038401918254611473565b90553880611b4a565b50806118a0565b611b9481611c36565b15611bc45760018060a01b0316600052600960205261156c6040600020600d54611ab460028301918254906118a0565b50565b61dead6000819052600f6020527f99629f56119585bf27511b6b7d295dffb54757453fcc3dabcf51d92028301f105460ff16611c305760055460081c6001600160a01b03168015159182611c26575b5050611c2157600190565b600090565b1490503880611c16565b50600090565b6001600160a01b03908116908115611c795781600052600f60205260ff60406000205416611c795760055460081c168015159182611c26575050611c2157600190565b5050600090565b611c88611bc7565b1561156c5761dead6000818152600960205260008051602061258a83398151915291611cb2611f9d565b81526020819052604081205482546001600160801b0390811680831093919291908480611e17575b611dca575b828181119586600014611d8e5750611d04925090611cfc916118a0565b600c54611473565b600c555b83546001600160801b0319169116178255426001600160401b031690611d2e8284611a2f565b60ff60055416159081611d86575b5080611d54575b611d4b575050565b61156c916118ad565b50337f00000000000000000000000000000000000000000000000000000000000000006001600160a01b031614611d43565b905038611d3c565b611d9b575b505050611d08565b611da4916118a0565b600c54818110611dc357611db892506118a0565b600c55388082611d93565b5050611db8565b60018601805490611dee611de784611de2888661186d565b611880565b80936118a0565b600a548111611e0d57611e0390600a546118a0565b600a555b55611cdf565b5083600a55611e07565b50801515611cda565b611e2981611c36565b15611bc4576001600160a01b0390811660008181526009602052604081209291611e51611f9d565b81526020819052604081205483546001600160801b0390811680831093919291908480611f94575b611f53575b828181119586600014611f175750611e9b925090611cfc916118a0565b600c555b84546001600160801b0319169116178355426001600160401b031691611ec58385611a2f565b60ff60055416159182611f0f575b5081611ee3575b50611d4b575050565b90507f000000000000000000000000000000000000000000000000000000000000000016331438611eda565b915038611ed3565b611f24575b505050611e9f565b611f2d916118a0565b600c54818110611f4c57611f4192506118a0565b600c55388082611f1c565b5050611f41565b60018701805490611f6b611de784611de2888661186d565b600a548111611f8a57611f8090600a546118a0565b600a555b55611e7e565b5083600a55611f84565b50801515611e79565b611fa9600b54426118a0565b80151580611fde575b611fbe575b5042600b55565b611fcd611fd591600c5461186d565b600a54611473565b600a5538611fb7565b50600c541515611fb2565b8015611bc457611ff7611f9d565b600a549081156120735761200e6010548092611473565b90612069575b670de0b6b3a7640000908181029181830414811517156114805761205461204c6000805160206125ca83398151915294604094611880565b600d54611473565b80600d5542600e5582519182526020820152a1565b6000601055612014565b6000805160206125ca833981519152915080612093604092601054611473565b601055600d5482519182526020820152a1565b6001600160a01b031660009081526009602052604090205460c01c8015611c30576120d190426118a0565b61012c81106120fe57610e1081106120f75762015180116120f157600090565b6101f490565b506103e890565b506107d090565b60009060ff19806008541660018082176008553085526020858152604091828720549384156123cc575082516001600160401b039060608101828111828210176123b85785526002815283810195853688378151156123a45730875260065486516315ab88c960e31b81526001600160a01b0398918916908781600481855afa90811561239a578d91612364575b508451871015612350576121af918a8592168a87015230611744565b4794886006541692833b1561234c57885163791ac94760e01b81526004810191909152602481018d905260a06044820152935160a485018190528c938593909260c4850192868b8e5b838310612328575050505050508383809230606483015242608483015203925af19182612301575b5050612237575b5050505090915060085416600855565b61224190476118a0565b80158015612250575b50612227565b600382029082820460031417156122ed579661227560076122869798990480936118a0565b9482612292575b5050505050611fe9565b8190388080808061224a565b81808481937f0000000000000000000000000000000000000000000000000000000000000000165af16122c361182e565b506122d0575b808061227c565b60008051602061256a8339815191529251908152a13880806122c9565b634e487b7160e01b88526011600452602488fd5b8199929911612314578452963880612220565b634e487b7160e01b82526041600452602482fd5b84979950858294979293969950511681520195019101928694928f96948b8e6121f8565b8c80fd5b634e487b7160e01b8d52603260045260248dfd5b90508781813d8311612393575b61237b8183611496565b8101031261234c5751898116810361234c5738612193565b503d612371565b89513d8f823e3d90fd5b634e487b7160e01b8a52603260045260248afd5b634e487b7160e01b8a52604160045260248afd5b9596505050505050600855565b60008051602061262a83398151915260028154146123f75760029055565b604051633ee5aeb560e01b8152600490fd5b60001981146114805760010190565b61242181611c36565b15611c305760018060a01b03166000526009602052612463604060002061244f600d546002830154906118a0565b9060009180612466575b5060030154611473565b90565b600e5482546124a7916112c59061249390608084901c6001600160401b03169081811115611b84576118a0565b6001860154926001600160801b031661186d565b806124b3575b50612459565b6003929350670de0b6b3a7640000916124cb9161186d565b049190386124ad565b6124dd81611c36565b15611c30576001600160a01b031660009081526009602052604090208054612463916112c590600161251c608085901c6001600160401b0316426118a0565b910154926001600160801b031661186d565b1561253557565b60405162461bcd60e51b815260206004820152600c60248201526b4f6e6c7920666163746f727960a01b6044820152606490fdfe693f9dbea0bdf9b70d480f9527e567d17ae3a41a5627c6515b034ac1869cf7a0960b1051749987b45b5679007fff577a1c2f763ec21c15a6c5eb193075003785fc30cddea38e2bf4d6ea7d3f9ed3b6ad7f176419f4963bd81318067a4aee73fe8ad0c4905aa5603107e860e0c2b1a78e23eba312c30f8114a70d94d9e187f5afddf252ad1be2c89b69c2b068fc378daa952ba7f163c4a11628f55a4df523b3efe9bc91a33ddf896d889747b2f39f4192c802fd62364780086853fcd8e19e8ffa9b779b17422d0df92223018b32b4d1fa46e071723d6817e2486d003becc55f00a2646970667358221220a7b141d947531fa8c4b004cd2192411801a832543c2440e2b9a085cba064c26364736f6c634300081400338ad0c4905aa5603107e860e0c2b1a78e23eba312c30f8114a70d94d9e187f5afddf252ad1be2c89b69c2b068fc378daa952ba7f163c4a11628f55a4df523b3ef","opcodes":"PUSH1 0xC0 PUSH1 0x40 SWAP1 DUP1 DUP3 MSTORE CALLVALUE PUSH3 0x743 JUMPI PUSH3 0x383B DUP1 CODESIZE SUB DUP1 SWAP2 PUSH3 0x22 DUP3 DUP6 PUSH3 0x748 JUMP JUMPDEST DUP4 CODECOPY DUP2 ADD SWAP1 PUSH1 0x80 DUP2 DUP4 SUB SLT PUSH3 0x743 JUMPI DUP1 MLOAD PUSH1 0x1 PUSH1 0x1 PUSH1 0x40 SHL SUB SWAP3 SWAP1 DUP4 DUP2 GT PUSH3 0x743 JUMPI DUP2 PUSH3 0x54 SWAP2 DUP5 ADD PUSH3 0x788 JUMP JUMPDEST PUSH1 0x20 SWAP2 DUP3 DUP5 ADD MLOAD SWAP1 DUP6 DUP3 GT PUSH3 0x743 JUMPI PUSH3 0x71 SWAP2 DUP6 ADD PUSH3 0x788 JUMP JUMPDEST SWAP1 PUSH3 0x8D PUSH1 0x60 PUSH3 0x85 DUP9 DUP8 ADD PUSH3 0x7F2 JUMP JUMPDEST SWAP6 ADD PUSH3 0x7F2 JUMP JUMPDEST SWAP2 DUP2 MLOAD DUP7 DUP2 GT PUSH3 0x643 JUMPI PUSH1 0x3 DUP1 SLOAD SWAP2 PUSH1 0x1 SWAP5 DUP6 DUP5 DUP2 SHR SWAP5 AND DUP1 ISZERO PUSH3 0x738 JUMPI JUMPDEST DUP9 DUP6 LT EQ PUSH3 0x722 JUMPI DUP2 SWAP1 PUSH1 0x1F SWAP5 DUP6 DUP2 GT PUSH3 0x6CC JUMPI JUMPDEST POP DUP9 SWAP1 DUP6 DUP4 GT PUSH1 0x1 EQ PUSH3 0x665 JUMPI PUSH1 0x0 SWAP3 PUSH3 0x659 JUMPI JUMPDEST POP POP PUSH1 0x0 NOT DUP3 DUP5 SHL SHR NOT AND SWAP1 DUP6 SHL OR DUP2 SSTORE JUMPDEST DUP3 MLOAD SWAP2 DUP9 DUP4 GT PUSH3 0x643 JUMPI PUSH1 0x4 SWAP4 DUP5 SLOAD DUP7 DUP2 DUP2 SHR SWAP2 AND DUP1 ISZERO PUSH3 0x638 JUMPI JUMPDEST DUP10 DUP3 LT EQ PUSH3 0x623 JUMPI SWAP1 DUP2 DUP4 DUP7 SWAP6 SWAP5 SWAP4 GT PUSH3 0x5C9 JUMPI JUMPDEST POP DUP9 SWAP2 DUP5 GT PUSH1 0x1 EQ PUSH3 0x55E JUMPI PUSH1 0x0 SWAP4 PUSH3 0x552 JUMPI JUMPDEST POP POP DUP3 DUP6 SHL SWAP3 PUSH1 0x0 NOT SWAP2 SHL SHR NOT AND OR DUP2 SSTORE JUMPDEST DUP2 PUSH32 0x9B779B17422D0DF92223018B32B4D1FA46E071723D6817E2486D003BECC55F00 SSTORE PUSH10 0x152D02C7E14AF6800000 PUSH1 0x7 SSTORE DUP5 PUSH1 0x80 MSTORE DUP3 PUSH1 0xA0 MSTORE PUSH1 0x1 DUP1 PUSH1 0xA0 SHL SUB SWAP5 DUP6 DUP5 AND SWAP1 DUP2 PUSH1 0x0 MSTORE PUSH1 0xF DUP7 MSTORE DUP7 DUP10 PUSH1 0x0 KECCAK256 SWAP2 PUSH1 0xFF NOT SWAP3 DUP7 DUP5 DUP3 SLOAD AND OR SWAP1 SSTORE AND PUSH1 0x0 MSTORE DUP9 PUSH1 0x0 KECCAK256 DUP5 DUP3 DUP3 SLOAD AND OR SWAP1 SSTORE PUSH2 0xDEAD SWAP4 DUP5 PUSH1 0x0 MSTORE DUP10 PUSH1 0x0 KECCAK256 DUP2 DUP4 DUP3 SLOAD AND OR SWAP1 SSTORE ADDRESS PUSH1 0x0 MSTORE DUP10 PUSH1 0x0 KECCAK256 DUP2 DUP4 DUP3 SLOAD AND OR SWAP1 SSTORE PUSH1 0x0 DUP1 MSTORE DUP10 PUSH1 0x0 KECCAK256 SWAP2 DUP3 SLOAD AND OR SWAP1 SSTORE TIMESTAMP PUSH1 0xB SSTORE DUP1 ISZERO PUSH3 0x53B JUMPI PUSH12 0x33B2E3C9FD0803CE8000000 SWAP3 PUSH3 0x211 DUP6 PUSH3 0x91B JUMP JUMPDEST PUSH1 0x5 SLOAD SWAP8 DUP8 PUSH1 0xFF SWAP10 DUP11 DUP2 AND DUP1 PUSH3 0x52E JUMPI JUMPDEST DUP1 PUSH3 0x517 JUMPI JUMPDEST DUP1 PUSH3 0x500 JUMPI JUMPDEST PUSH3 0x346 JUMPI JUMPDEST POP POP POP POP POP POP SWAP1 PUSH3 0x24E PUSH3 0x254 SWAP3 DUP3 PUSH3 0x891 JUMP JUMPDEST PUSH3 0xAB2 JUMP JUMPDEST PUSH1 0x5 SLOAD DUP4 DUP2 AND SWAP4 DUP5 PUSH3 0x338 JUMPI JUMPDEST POP DUP4 PUSH3 0x328 JUMPI JUMPDEST POP DUP3 PUSH3 0x30D JUMPI JUMPDEST POP DUP2 PUSH3 0x2FE JUMPI JUMPDEST POP PUSH3 0x2EE JUMPI JUMPDEST MLOAD PUSH2 0x267F SWAP1 DUP2 PUSH3 0x117C DUP3 CODECOPY PUSH1 0x80 MLOAD DUP2 DUP2 DUP2 PUSH2 0x732 ADD MSTORE DUP2 DUP2 PUSH2 0x80E ADD MSTORE DUP2 DUP2 PUSH2 0x978 ADD MSTORE DUP2 DUP2 PUSH2 0xB42 ADD MSTORE DUP2 DUP2 PUSH2 0x10D5 ADD MSTORE PUSH2 0x2299 ADD MSTORE PUSH1 0xA0 MLOAD DUP2 DUP2 DUP2 PUSH2 0x5DB ADD MSTORE DUP2 DUP2 PUSH2 0x7D6 ADD MSTORE DUP2 DUP2 PUSH2 0x900 ADD MSTORE DUP2 DUP2 PUSH2 0xBE6 ADD MSTORE DUP2 DUP2 PUSH2 0xC8D ADD MSTORE DUP2 DUP2 PUSH2 0x1D58 ADD MSTORE PUSH2 0x1EE7 ADD MSTORE RETURN JUMPDEST PUSH3 0x2F8 PUSH3 0xD2C JUMP JUMPDEST PUSH3 0x281 JUMP JUMPDEST SWAP1 POP PUSH1 0x6 SLOAD AND ISZERO ISZERO CODESIZE PUSH3 0x27A JUMP JUMPDEST PUSH1 0x0 SWAP2 SWAP3 POP ADDRESS DUP3 MSTORE MSTORE DUP2 PUSH1 0x0 KECCAK256 SLOAD PUSH1 0x7 SLOAD GT ISZERO SWAP1 CODESIZE PUSH3 0x272 JUMP JUMPDEST PUSH1 0x8 SHR DUP3 AND ISZERO ISZERO SWAP3 POP CODESIZE PUSH3 0x26A JUMP JUMPDEST PUSH1 0x8 SLOAD AND ISZERO SWAP4 POP CODESIZE PUSH3 0x262 JUMP JUMPDEST PUSH1 0x8 SHR AND SWAP4 DUP5 ISZERO SWAP5 DUP5 EQ DUP6 DUP7 ISZERO PUSH3 0x4F8 JUMPI JUMPDEST PUSH3 0x368 JUMPI JUMPDEST DUP10 SWAP2 POP PUSH3 0x237 JUMP JUMPDEST PUSH1 0x0 SWAP7 SWAP3 SWAP4 SWAP5 SWAP6 SWAP7 SWAP1 PUSH3 0x4E7 JUMPI JUMPDEST PUSH2 0x1F4 SWAP1 DUP2 ADD DUP1 SWAP2 GT PUSH3 0x4D2 JUMPI DUP1 DUP4 MUL SWAP1 DUP4 DUP3 DIV SUB PUSH3 0x4D2 JUMPI PUSH2 0x2710 SWAP1 DIV PUSH1 0x2 SLOAD SWAP5 PUSH11 0xC685FA11E01EC6F000000 SWAP6 DUP7 DUP2 ADD DUP1 SWAP2 GT PUSH3 0x4BD JUMPI PUSH1 0x0 DUP1 MLOAD PUSH1 0x20 PUSH3 0x381B DUP4 CODECOPY DUP2 MLOAD SWAP2 MSTORE DUP12 DUP16 PUSH1 0x0 SWAP4 PUSH1 0x2 SSTORE DUP5 DUP5 MSTORE DUP4 DUP3 MSTORE DUP1 DUP5 KECCAK256 DUP11 DUP2 SLOAD ADD SWAP1 SSTORE MLOAD DUP10 DUP2 MSTORE LOG3 PUSH11 0xC685FA11E01EC6EFFFFFF NOT DUP2 ADD DUP2 DUP2 GT PUSH3 0x4A8 JUMPI DUP1 PUSH3 0x495 JUMPI JUMPDEST POP DUP3 SUB SWAP2 DUP3 GT PUSH3 0x480 JUMPI POP PUSH32 0xE9BC91A33DDF896D889747B2F39F4192C802FD62364780086853FCD8E19E8FFA PUSH1 0x60 PUSH3 0x254 SWAP8 SWAP7 SWAP5 PUSH3 0x24E SWAP7 SWAP5 DUP14 PUSH1 0x0 SWAP6 SWAP8 PUSH3 0x461 JUMPI JUMPDEST SWAP1 POP MLOAD SWAP1 DUP2 MSTORE DUP4 DUP11 DUP3 ADD MSTORE DUP4 DUP14 DUP3 ADD MSTORE LOG3 SWAP2 SWAP3 CODESIZE DUP1 DUP1 DUP1 PUSH3 0x35F JUMP JUMPDEST PUSH3 0x478 SWAP2 DUP8 DUP8 MSTORE PUSH1 0x9 DUP14 MSTORE TIMESTAMP AND SWAP1 DUP7 KECCAK256 PUSH3 0x86E JUMP JUMPDEST CODESIZE DUP14 PUSH3 0x444 JUMP JUMPDEST PUSH1 0x11 SWAP1 PUSH4 0x4E487B71 PUSH1 0xE0 SHL PUSH1 0x0 MSTORE MSTORE PUSH1 0x24 PUSH1 0x0 REVERT JUMPDEST PUSH3 0x4A1 SWAP1 ADDRESS PUSH3 0x891 JUMP JUMPDEST CODESIZE PUSH3 0x3FD JUMP JUMPDEST PUSH1 0x11 DUP4 PUSH4 0x4E487B71 PUSH1 0xE0 SHL PUSH1 0x0 MSTORE MSTORE PUSH1 0x24 PUSH1 0x0 REVERT JUMPDEST PUSH1 0x11 DUP5 PUSH4 0x4E487B71 PUSH1 0xE0 SHL PUSH1 0x0 MSTORE MSTORE PUSH1 0x24 PUSH1 0x0 REVERT JUMPDEST PUSH1 0x11 DUP3 PUSH4 0x4E487B71 PUSH1 0xE0 SHL PUSH1 0x0 MSTORE MSTORE PUSH1 0x24 PUSH1 0x0 REVERT JUMPDEST POP PUSH3 0x4F2 PUSH3 0xCAE JUMP JUMPDEST PUSH3 0x377 JUMP JUMPDEST POP DUP1 PUSH3 0x359 JUMP JUMPDEST POP DUP5 PUSH1 0x0 MSTORE PUSH1 0xF DUP10 MSTORE DUP11 DUP13 PUSH1 0x0 KECCAK256 SLOAD AND ISZERO PUSH3 0x231 JUMP JUMPDEST POP PUSH1 0x0 DUP1 MSTORE PUSH1 0xF DUP10 MSTORE DUP11 DUP13 PUSH1 0x0 KECCAK256 SLOAD AND ISZERO PUSH3 0x22A JUMP JUMPDEST POP DUP11 PUSH1 0x8 SLOAD AND ISZERO PUSH3 0x223 JUMP JUMPDEST DUP8 MLOAD PUSH4 0xEC442F05 PUSH1 0xE0 SHL DUP2 MSTORE PUSH1 0x0 DUP2 DUP5 ADD MSTORE PUSH1 0x24 SWAP1 REVERT JUMPDEST ADD MLOAD SWAP2 POP CODESIZE DUP1 PUSH3 0x139 JUMP JUMPDEST SWAP2 SWAP1 DUP7 SWAP5 POP PUSH1 0x1F NOT DUP5 AND SWAP3 DUP7 PUSH1 0x0 MSTORE DUP10 PUSH1 0x0 KECCAK256 SWAP4 PUSH1 0x0 JUMPDEST DUP12 DUP3 DUP3 LT PUSH3 0x5B2 JUMPI POP POP DUP6 GT PUSH3 0x597 JUMPI JUMPDEST POP POP POP POP DUP2 SHL ADD DUP2 SSTORE PUSH3 0x14B JUMP JUMPDEST ADD MLOAD SWAP1 PUSH1 0xF8 DUP5 PUSH1 0x0 NOT SWAP3 SHL AND SHR NOT AND SWAP1 SSTORE CODESIZE DUP1 DUP1 DUP1 PUSH3 0x588 JUMP JUMPDEST DUP4 DUP6 ADD MLOAD DUP8 SSTORE DUP11 SWAP9 SWAP1 SWAP7 ADD SWAP6 SWAP4 DUP5 ADD SWAP4 ADD PUSH3 0x575 JUMP JUMPDEST SWAP1 SWAP2 SWAP3 SWAP4 POP DUP6 PUSH1 0x0 MSTORE DUP9 PUSH1 0x0 KECCAK256 DUP4 DUP1 DUP8 ADD PUSH1 0x5 SHR DUP3 ADD SWAP3 DUP12 DUP9 LT PUSH3 0x619 JUMPI JUMPDEST SWAP2 DUP10 SWAP2 DUP9 SWAP8 SWAP7 SWAP6 SWAP5 SWAP4 ADD PUSH1 0x5 SHR ADD SWAP2 JUMPDEST DUP3 DUP2 LT PUSH3 0x609 JUMPI POP POP PUSH3 0x123 JUMP JUMPDEST PUSH1 0x0 DUP2 SSTORE DUP8 SWAP7 POP DUP10 SWAP2 ADD PUSH3 0x5F9 JUMP JUMPDEST SWAP3 POP DUP2 SWAP3 PUSH3 0x5E9 JUMP JUMPDEST PUSH1 0x22 DUP7 PUSH4 0x4E487B71 PUSH1 0xE0 SHL PUSH1 0x0 MSTORE MSTORE PUSH1 0x24 PUSH1 0x0 REVERT JUMPDEST SWAP1 PUSH1 0x7F AND SWAP1 PUSH3 0x10C JUMP JUMPDEST PUSH4 0x4E487B71 PUSH1 0xE0 SHL PUSH1 0x0 MSTORE PUSH1 0x41 PUSH1 0x4 MSTORE PUSH1 0x24 PUSH1 0x0 REVERT JUMPDEST ADD MLOAD SWAP1 POP CODESIZE DUP1 PUSH3 0xDC JUMP JUMPDEST SWAP1 DUP8 SWAP4 POP PUSH1 0x1F NOT DUP4 AND SWAP2 DUP6 PUSH1 0x0 MSTORE DUP11 PUSH1 0x0 KECCAK256 SWAP3 PUSH1 0x0 JUMPDEST DUP13 DUP3 DUP3 LT PUSH3 0x6B5 JUMPI POP POP DUP5 GT PUSH3 0x69C JUMPI JUMPDEST POP POP POP DUP2 SHL ADD DUP2 SSTORE PUSH3 0xEE JUMP JUMPDEST ADD MLOAD PUSH1 0x0 NOT DUP4 DUP7 SHL PUSH1 0xF8 AND SHR NOT AND SWAP1 SSTORE CODESIZE DUP1 DUP1 PUSH3 0x68E JUMP JUMPDEST DUP4 DUP6 ADD MLOAD DUP7 SSTORE DUP12 SWAP8 SWAP1 SWAP6 ADD SWAP5 SWAP4 DUP5 ADD SWAP4 ADD PUSH3 0x67B JUMP JUMPDEST SWAP1 SWAP2 POP DUP4 PUSH1 0x0 MSTORE DUP9 PUSH1 0x0 KECCAK256 DUP6 DUP1 DUP6 ADD PUSH1 0x5 SHR DUP3 ADD SWAP3 DUP12 DUP7 LT PUSH3 0x718 JUMPI JUMPDEST SWAP2 DUP10 SWAP2 DUP7 SWAP6 SWAP5 SWAP4 ADD PUSH1 0x5 SHR ADD SWAP2 JUMPDEST DUP3 DUP2 LT PUSH3 0x708 JUMPI POP POP PUSH3 0xC5 JUMP JUMPDEST PUSH1 0x0 DUP2 SSTORE DUP6 SWAP5 POP DUP10 SWAP2 ADD PUSH3 0x6F8 JUMP JUMPDEST SWAP3 POP DUP2 SWAP3 PUSH3 0x6EA JUMP JUMPDEST PUSH4 0x4E487B71 PUSH1 0xE0 SHL PUSH1 0x0 MSTORE PUSH1 0x22 PUSH1 0x4 MSTORE PUSH1 0x24 PUSH1 0x0 REVERT JUMPDEST SWAP4 PUSH1 0x7F AND SWAP4 PUSH3 0xAE JUMP JUMPDEST PUSH1 0x0 DUP1 REVERT JUMPDEST PUSH1 0x1F SWAP1 SWAP2 ADD PUSH1 0x1F NOT AND DUP2 ADD SWAP1 PUSH1 0x1 PUSH1 0x1 PUSH1 0x40 SHL SUB DUP3 GT SWAP1 DUP3 LT OR PUSH3 0x643 JUMPI PUSH1 0x40 MSTORE JUMP JUMPDEST PUSH1 0x1 PUSH1 0x1 PUSH1 0x40 SHL SUB DUP2 GT PUSH3 0x643 JUMPI PUSH1 0x1F ADD PUSH1 0x1F NOT AND PUSH1 0x20 ADD SWAP1 JUMP JUMPDEST SWAP2 SWAP1 DUP1 PUSH1 0x1F DUP5 ADD SLT ISZERO PUSH3 0x743 JUMPI DUP3 MLOAD SWAP1 PUSH3 0x7A4 DUP3 PUSH3 0x76C JUMP JUMPDEST SWAP2 PUSH3 0x7B4 PUSH1 0x40 MLOAD SWAP4 DUP5 PUSH3 0x748 JUMP JUMPDEST DUP1 DUP4 MSTORE PUSH1 0x20 SWAP2 DUP3 DUP3 DUP8 ADD ADD GT PUSH3 0x743 JUMPI PUSH1 0x0 JUMPDEST DUP2 DUP2 LT PUSH3 0x7DE JUMPI POP DUP3 PUSH1 0x0 SWAP4 SWAP5 SWAP6 POP ADD ADD MSTORE SWAP1 JUMP JUMPDEST DUP6 DUP2 ADD DUP4 ADD MLOAD DUP5 DUP3 ADD DUP5 ADD MSTORE DUP3 ADD PUSH3 0x7C8 JUMP JUMPDEST MLOAD SWAP1 PUSH1 0x1 PUSH1 0x1 PUSH1 0xA0 SHL SUB DUP3 AND DUP3 SUB PUSH3 0x743 JUMPI JUMP JUMPDEST SWAP2 SWAP1 DUP3 ADD DUP1 SWAP3 GT PUSH3 0x815 JUMPI JUMP JUMPDEST PUSH4 0x4E487B71 PUSH1 0xE0 SHL PUSH1 0x0 MSTORE PUSH1 0x11 PUSH1 0x4 MSTORE PUSH1 0x24 PUSH1 0x0 REVERT JUMPDEST DUP2 DUP2 MUL SWAP3 SWAP2 DUP2 ISZERO SWAP2 DUP5 DIV EQ OR ISZERO PUSH3 0x815 JUMPI JUMP JUMPDEST DUP2 ISZERO PUSH3 0x84A JUMPI DIV SWAP1 JUMP JUMPDEST PUSH4 0x4E487B71 PUSH1 0xE0 SHL PUSH1 0x0 MSTORE PUSH1 0x12 PUSH1 0x4 MSTORE PUSH1 0x24 PUSH1 0x0 REVERT JUMPDEST SWAP2 SWAP1 DUP3 SUB SWAP2 DUP3 GT PUSH3 0x815 JUMPI JUMP JUMPDEST DUP1 SLOAD PUSH1 0x1 PUSH1 0x1 PUSH1 0xC0 SHL SUB AND PUSH1 0xC0 SWAP3 SWAP1 SWAP3 SHL PUSH1 0x1 PUSH1 0x1 PUSH1 0xC0 SHL SUB NOT AND SWAP2 SWAP1 SWAP2 OR SWAP1 SSTORE JUMP JUMPDEST PUSH1 0x0 DUP1 MLOAD PUSH1 0x20 PUSH3 0x381B DUP4 CODECOPY DUP2 MLOAD SWAP2 MSTORE PUSH1 0x20 PUSH1 0x0 SWAP3 PUSH3 0x8B4 DUP6 PUSH1 0x2 SLOAD PUSH3 0x807 JUMP JUMPDEST PUSH1 0x2 SSTORE PUSH1 0x1 PUSH1 0x1 PUSH1 0xA0 SHL SUB AND SWAP4 DUP5 ISZERO DUP5 EQ PUSH3 0x8DC JUMPI DUP1 PUSH1 0x2 SLOAD SUB PUSH1 0x2 SSTORE JUMPDEST PUSH1 0x40 MLOAD SWAP1 DUP2 MSTORE LOG3 JUMP JUMPDEST DUP5 DUP5 MSTORE DUP4 DUP3 MSTORE PUSH1 0x40 DUP5 KECCAK256 DUP2 DUP2 SLOAD ADD SWAP1 SSTORE PUSH3 0x8D3 JUMP JUMPDEST DUP1 SLOAD PUSH1 0x1 PUSH1 0x80 SHL PUSH1 0x1 PUSH1 0xC0 SHL SUB NOT AND PUSH1 0x80 SWAP3 SWAP1 SWAP3 SHL PUSH1 0x1 PUSH1 0x80 SHL PUSH1 0x1 PUSH1 0xC0 SHL SUB AND SWAP2 SWAP1 SWAP2 OR SWAP1 SSTORE JUMP JUMPDEST PUSH3 0x926 DUP2 PUSH3 0xA53 JUMP JUMPDEST ISZERO PUSH3 0xA50 JUMPI PUSH1 0x1 DUP1 PUSH1 0xA0 SHL SUB AND PUSH1 0x0 MSTORE PUSH1 0x9 PUSH1 0x20 MSTORE PUSH3 0x9B1 PUSH1 0x40 PUSH1 0x0 KECCAK256 PUSH1 0xD SLOAD PUSH3 0x95A PUSH1 0x2 DUP4 ADD SWAP2 DUP3 SLOAD SWAP1 PUSH3 0x860 JUMP JUMPDEST DUP1 PUSH3 0x9B3 JUMPI JUMPDEST POP POP DUP1 SLOAD PUSH1 0x1 PUSH1 0x1 PUSH1 0x40 SHL SUB SWAP1 PUSH3 0x995 SWAP1 PUSH3 0x985 PUSH1 0x80 DUP3 SWAP1 SHR DUP5 AND TIMESTAMP PUSH3 0x860 JUMP JUMPDEST SWAP1 PUSH1 0x1 PUSH1 0x1 PUSH1 0x80 SHL SUB AND PUSH3 0x82B JUMP JUMPDEST PUSH3 0x9A6 PUSH1 0x1 DUP5 ADD SWAP2 DUP3 SLOAD PUSH3 0x807 JUMP JUMPDEST SWAP1 SSTORE TIMESTAMP AND SWAP1 PUSH3 0x8F2 JUMP JUMPDEST JUMP JUMPDEST PUSH1 0xE SLOAD DUP4 SLOAD PUSH3 0xA01 SWAP2 PUSH3 0x9FA SWAP1 PUSH3 0x9E5 SWAP1 PUSH1 0x80 DUP5 SWAP1 SHR PUSH1 0x1 PUSH1 0x1 PUSH1 0x40 SHL SUB AND SWAP1 DUP2 DUP2 GT ISZERO PUSH3 0xA48 JUMPI PUSH3 0x860 JUMP JUMPDEST PUSH1 0x1 DUP8 ADD SLOAD SWAP3 PUSH1 0x1 PUSH1 0x1 PUSH1 0x80 SHL SUB AND PUSH3 0x82B JUMP JUMPDEST SWAP1 PUSH3 0x807 JUMP JUMPDEST DUP1 PUSH3 0xA17 JUMPI JUMPDEST POP POP PUSH1 0xD SLOAD SWAP1 SSTORE CODESIZE DUP1 PUSH3 0x961 JUMP JUMPDEST PUSH8 0xDE0B6B3A7640000 SWAP2 PUSH3 0xA2C SWAP2 PUSH3 0x82B JUMP JUMPDEST DIV PUSH3 0xA3E PUSH1 0x3 DUP5 ADD SWAP2 DUP3 SLOAD PUSH3 0x807 JUMP JUMPDEST SWAP1 SSTORE CODESIZE DUP1 PUSH3 0xA08 JUMP JUMPDEST POP DUP1 PUSH3 0x860 JUMP JUMPDEST POP JUMP JUMPDEST PUSH1 0x1 PUSH1 0x1 PUSH1 0xA0 SHL SUB SWAP1 DUP2 AND SWAP1 DUP2 ISZERO PUSH3 0xAAB JUMPI DUP2 PUSH1 0x0 MSTORE PUSH1 0xF PUSH1 0x20 MSTORE PUSH1 0xFF PUSH1 0x40 PUSH1 0x0 KECCAK256 SLOAD AND PUSH3 0xAAB JUMPI PUSH1 0x5 SLOAD PUSH1 0x8 SHR AND DUP1 ISZERO ISZERO SWAP2 DUP3 PUSH3 0xAA0 JUMPI JUMPDEST POP POP PUSH3 0xA9B JUMPI PUSH1 0x1 SWAP1 JUMP JUMPDEST PUSH1 0x0 SWAP1 JUMP JUMPDEST EQ SWAP1 POP CODESIZE DUP1 PUSH3 0xA8F JUMP JUMPDEST POP POP PUSH1 0x0 SWAP1 JUMP JUMPDEST PUSH3 0xABD DUP2 PUSH3 0xA53 JUMP JUMPDEST ISZERO PUSH3 0xA50 JUMPI PUSH1 0x1 PUSH1 0x1 PUSH1 0xA0 SHL SUB SWAP1 DUP2 AND PUSH1 0x0 DUP2 DUP2 MSTORE PUSH1 0x9 PUSH1 0x20 MSTORE PUSH1 0x40 DUP2 KECCAK256 SWAP3 SWAP2 PUSH3 0xAE8 PUSH3 0xC58 JUMP JUMPDEST DUP2 MSTORE PUSH1 0x20 DUP2 SWAP1 MSTORE PUSH1 0x40 DUP2 KECCAK256 SLOAD DUP4 SLOAD PUSH1 0x1 PUSH1 0x1 PUSH1 0x80 SHL SUB SWAP1 DUP2 AND DUP1 DUP4 LT SWAP4 SWAP2 SWAP3 SWAP2 SWAP1 DUP5 DUP1 PUSH3 0xC4E JUMPI JUMPDEST PUSH3 0xBF6 JUMPI JUMPDEST DUP3 DUP2 DUP2 GT SWAP6 DUP7 PUSH1 0x0 EQ PUSH3 0xBB1 JUMPI POP PUSH3 0xB41 SWAP3 POP SWAP1 PUSH3 0xB38 SWAP2 PUSH3 0x860 JUMP JUMPDEST PUSH1 0xC SLOAD PUSH3 0x807 JUMP JUMPDEST PUSH1 0xC SSTORE JUMPDEST DUP5 SLOAD PUSH1 0x1 PUSH1 0x1 PUSH1 0x80 SHL SUB NOT AND SWAP2 AND OR DUP4 SSTORE TIMESTAMP PUSH1 0x1 PUSH1 0x1 PUSH1 0x40 SHL SUB AND SWAP2 PUSH3 0xB6D DUP4 DUP6 PUSH3 0x8F2 JUMP JUMPDEST PUSH1 0xFF PUSH1 0x5 SLOAD AND ISZERO SWAP2 DUP3 PUSH3 0xBA8 JUMPI JUMPDEST POP DUP2 PUSH3 0xB99 JUMPI JUMPDEST POP PUSH3 0xB8E JUMPI POP POP JUMP JUMPDEST PUSH3 0x9B1 SWAP2 PUSH3 0x86E JUMP JUMPDEST SWAP1 POP PUSH1 0xA0 MLOAD AND CALLER EQ CODESIZE PUSH3 0xB84 JUMP JUMPDEST SWAP2 POP CODESIZE PUSH3 0xB7C JUMP JUMPDEST PUSH3 0xBC0 JUMPI JUMPDEST POP POP POP PUSH3 0xB45 JUMP JUMPDEST PUSH3 0xBCB SWAP2 PUSH3 0x860 JUMP JUMPDEST PUSH1 0xC SLOAD DUP2 DUP2 LT PUSH3 0xBEE JUMPI PUSH3 0xBE2 SWAP3 POP PUSH3 0x860 JUMP JUMPDEST PUSH1 0xC SSTORE CODESIZE DUP1 DUP3 PUSH3 0xBB7 JUMP JUMPDEST POP POP PUSH3 0xBE2 JUMP JUMPDEST PUSH1 0x1 DUP8 ADD DUP1 SLOAD SWAP1 PUSH3 0xC20 PUSH3 0xC18 DUP5 PUSH3 0xC12 DUP9 DUP7 PUSH3 0x82B JUMP JUMPDEST PUSH3 0x83F JUMP JUMPDEST DUP1 SWAP4 PUSH3 0x860 JUMP JUMPDEST PUSH1 0xA SLOAD DUP2 GT PUSH3 0xC43 JUMPI PUSH3 0xC38 SWAP1 PUSH1 0xA SLOAD PUSH3 0x860 JUMP JUMPDEST PUSH1 0xA SSTORE JUMPDEST SSTORE PUSH3 0xB17 JUMP JUMPDEST POP DUP4 PUSH1 0xA SSTORE PUSH3 0xC3C JUMP JUMPDEST POP DUP1 ISZERO ISZERO PUSH3 0xB11 JUMP JUMPDEST PUSH3 0xC66 PUSH1 0xB SLOAD TIMESTAMP PUSH3 0x860 JUMP JUMPDEST DUP1 ISZERO ISZERO DUP1 PUSH3 0xCA2 JUMPI JUMPDEST PUSH3 0xC7D JUMPI JUMPDEST POP TIMESTAMP PUSH1 0xB SSTORE JUMP JUMPDEST PUSH3 0xC8F PUSH3 0xC98 SWAP2 PUSH1 0xC SLOAD PUSH3 0x82B JUMP JUMPDEST PUSH1 0xA SLOAD PUSH3 0x807 JUMP JUMPDEST PUSH1 0xA SSTORE CODESIZE PUSH3 0xC76 JUMP JUMPDEST POP PUSH1 0xC SLOAD ISZERO ISZERO PUSH3 0xC70 JUMP JUMPDEST PUSH1 0x0 DUP1 MSTORE PUSH1 0x9 PUSH1 0x20 MSTORE PUSH32 0xEC8156718A8372B1DB44BB411437D0870F3E3790D4A08526D024CE1B0B668F6B SLOAD PUSH1 0xC0 SHR DUP1 ISZERO PUSH3 0xD26 JUMPI PUSH3 0xCEF SWAP1 TIMESTAMP PUSH3 0x860 JUMP JUMPDEST PUSH2 0x12C DUP2 LT PUSH3 0xD1F JUMPI PUSH2 0xE10 DUP2 LT PUSH3 0xD18 JUMPI PUSH3 0x15180 GT PUSH3 0xD12 JUMPI PUSH1 0x0 SWAP1 JUMP JUMPDEST PUSH2 0x1F4 SWAP1 JUMP JUMPDEST POP PUSH2 0x3E8 SWAP1 JUMP JUMPDEST POP PUSH2 0x7D0 SWAP1 JUMP JUMPDEST POP PUSH1 0x0 SWAP1 JUMP JUMPDEST PUSH1 0x0 SWAP1 PUSH1 0xFF NOT DUP1 PUSH1 0x8 SLOAD AND SWAP3 PUSH1 0x1 SWAP1 DUP2 DUP6 OR PUSH1 0x8 SSTORE ADDRESS DUP2 MSTORE PUSH1 0x20 DUP2 DUP2 MSTORE PUSH1 0x40 SWAP2 DUP3 DUP2 KECCAK256 SLOAD SWAP7 DUP8 ISZERO PUSH3 0x10A0 JUMPI POP DUP3 MLOAD SWAP4 PUSH1 0x1 PUSH1 0x1 PUSH1 0x40 SHL SUB PUSH1 0x60 DUP7 ADD DUP2 DUP2 GT DUP8 DUP3 LT OR PUSH3 0x108C JUMPI DUP6 MSTORE PUSH1 0x2 DUP7 MSTORE DUP4 DUP7 ADD SWAP9 DUP6 CALLDATASIZE DUP12 CALLDATACOPY DUP7 MLOAD ISZERO PUSH3 0x1078 JUMPI ADDRESS DUP11 MSTORE PUSH1 0x6 SLOAD DUP7 MLOAD PUSH4 0x15AB88C9 PUSH1 0xE3 SHL DUP2 MSTORE PUSH1 0x4 SWAP12 PUSH1 0x1 PUSH1 0x1 PUSH1 0xA0 SHL SUB SWAP10 SWAP3 SWAP1 SWAP2 SWAP1 DUP11 AND SWAP1 DUP9 DUP2 DUP16 DUP2 DUP6 GAS STATICCALL SWAP1 DUP2 ISZERO PUSH3 0x106E JUMPI DUP9 SWAP2 PUSH3 0x1031 JUMPI JUMPDEST POP DUP4 MLOAD DUP8 LT ISZERO PUSH3 0x101D JUMPI DUP11 AND DUP10 DUP5 ADD MSTORE ADDRESS ISZERO PUSH3 0x1006 JUMPI DUP1 ISZERO PUSH3 0xFEF JUMPI ADDRESS DUP8 MSTORE DUP6 DUP9 MSTORE DUP9 DUP8 KECCAK256 DUP2 DUP9 MSTORE DUP9 MSTORE DUP4 DUP10 DUP9 KECCAK256 SSTORE DUP9 MLOAD DUP5 DUP2 MSTORE PUSH32 0x8C5BE1E5EBEC7D5BD14F71427D1E84F3DD0314C0F7B2291E5B200AC8C7C3B925 DUP10 ADDRESS SWAP3 LOG3 SELFBALANCE SWAP5 DUP10 PUSH1 0x6 SLOAD AND SWAP3 DUP4 EXTCODESIZE ISZERO PUSH3 0xFEB JUMPI DUP10 MLOAD PUSH4 0x791AC947 PUSH1 0xE0 SHL DUP2 MSTORE DUP1 DUP16 ADD SWAP6 SWAP1 SWAP6 MSTORE PUSH1 0x24 DUP6 ADD DUP9 SWAP1 MSTORE PUSH1 0xA0 PUSH1 0x44 DUP7 ADD MSTORE MLOAD PUSH1 0xA4 DUP6 ADD DUP2 SWAP1 MSTORE DUP8 SWAP4 DUP6 SWAP4 SWAP1 SWAP3 PUSH1 0xC4 DUP6 ADD SWAP3 DUP7 DUP13 DUP16 JUMPDEST DUP4 DUP4 LT PUSH3 0xFCE JUMPI POP POP POP POP POP POP DUP4 DUP4 DUP1 SWAP3 ADDRESS PUSH1 0x64 DUP4 ADD MSTORE TIMESTAMP PUSH1 0x84 DUP4 ADD MSTORE SUB SWAP3 GAS CALL SWAP2 DUP3 PUSH3 0xFA6 JUMPI JUMPDEST POP POP PUSH3 0xEAD JUMPI JUMPDEST POP POP POP POP POP SWAP1 SWAP2 POP PUSH1 0x8 SLOAD AND PUSH1 0x8 SSTORE JUMP JUMPDEST PUSH3 0xEB9 SWAP1 SELFBALANCE PUSH3 0x860 JUMP JUMPDEST SWAP1 DUP2 ISZERO DUP1 ISZERO PUSH3 0xECB JUMPI JUMPDEST POP PUSH3 0xE9C JUMP JUMPDEST PUSH1 0x3 DUP4 MUL SWAP1 DUP4 DUP3 DIV PUSH1 0x3 EQ OR ISZERO PUSH3 0xF93 JUMPI PUSH3 0xF08 SWAP7 SWAP8 SWAP9 POP PUSH1 0x7 PUSH3 0xEF5 SWAP2 DIV DUP1 SWAP4 PUSH3 0x860 JUMP JUMPDEST SWAP5 DUP3 PUSH3 0xF16 JUMPI JUMPDEST POP POP POP POP POP PUSH3 0x10AD JUMP JUMPDEST DUP2 SWAP1 CODESIZE DUP1 DUP1 DUP1 DUP1 DUP1 PUSH3 0xEC4 JUMP JUMPDEST DUP2 DUP1 DUP1 DUP6 DUP2 SWAP5 PUSH1 0x80 MLOAD AND GAS CALL SWAP1 RETURNDATASIZE ISZERO PUSH3 0xF8C JUMPI RETURNDATASIZE SWAP1 PUSH3 0xF37 DUP3 PUSH3 0x76C JUMP JUMPDEST SWAP2 PUSH3 0xF46 DUP8 MLOAD SWAP4 DUP5 PUSH3 0x748 JUMP JUMPDEST DUP3 MSTORE DUP5 RETURNDATASIZE SWAP3 ADD RETURNDATACOPY JUMPDEST PUSH3 0xF5C JUMPI JUMPDEST DUP1 DUP1 PUSH3 0xEFD JUMP JUMPDEST PUSH32 0x693F9DBEA0BDF9B70D480F9527E567D17AE3A41A5627C6515B034AC1869CF7A0 SWAP3 MLOAD SWAP1 DUP2 MSTORE LOG1 CODESIZE DUP1 DUP1 PUSH3 0xF54 JUMP JUMPDEST POP PUSH3 0xF4E JUMP JUMPDEST PUSH4 0x4E487B71 PUSH1 0xE0 SHL DUP3 MSTORE PUSH1 0x11 DUP10 MSTORE PUSH1 0x24 DUP3 REVERT JUMPDEST DUP2 SWAP5 SWAP3 SWAP5 GT PUSH3 0xFBB JUMPI DUP6 MSTORE SWAP2 CODESIZE DUP1 PUSH3 0xE94 JUMP JUMPDEST PUSH4 0x4E487B71 PUSH1 0xE0 SHL DUP3 MSTORE PUSH1 0x41 DUP11 MSTORE PUSH1 0x24 DUP3 REVERT JUMPDEST DUP6 MLOAD AND DUP7 MSTORE DUP13 SWAP9 POP DUP10 SWAP8 POP SWAP5 DUP6 ADD SWAP5 SWAP1 SWAP4 ADD SWAP3 DUP3 ADD DUP13 DUP16 PUSH3 0xE6A JUMP JUMPDEST DUP8 DUP1 REVERT JUMPDEST DUP9 MLOAD PUSH4 0x4A1406B1 PUSH1 0xE1 SHL DUP2 MSTORE DUP1 DUP15 ADD DUP9 SWAP1 MSTORE PUSH1 0x24 SWAP1 REVERT JUMPDEST DUP9 MLOAD PUSH4 0xE602DF05 PUSH1 0xE0 SHL DUP2 MSTORE DUP1 DUP15 ADD DUP9 SWAP1 MSTORE PUSH1 0x24 SWAP1 REVERT JUMPDEST POP PUSH4 0x4E487B71 PUSH1 0xE0 SHL DUP8 MSTORE PUSH1 0x32 DUP14 MSTORE PUSH1 0x24 DUP8 REVERT JUMPDEST SWAP1 POP DUP9 DUP2 DUP2 RETURNDATASIZE DUP4 GT PUSH3 0x1066 JUMPI JUMPDEST PUSH3 0x104B DUP2 DUP4 PUSH3 0x748 JUMP JUMPDEST DUP2 ADD SUB SLT PUSH3 0xFEB JUMPI PUSH3 0x105F SWAP1 PUSH3 0x7F2 JUMP JUMPDEST CODESIZE PUSH3 0xDC6 JUMP JUMPDEST POP RETURNDATASIZE PUSH3 0x103F JUMP JUMPDEST DUP11 MLOAD RETURNDATASIZE DUP11 DUP3 RETURNDATACOPY RETURNDATASIZE SWAP1 REVERT JUMPDEST PUSH4 0x4E487B71 PUSH1 0xE0 SHL DUP5 MSTORE PUSH1 0x32 PUSH1 0x4 MSTORE PUSH1 0x24 DUP5 REVERT JUMPDEST PUSH4 0x4E487B71 PUSH1 0xE0 SHL DUP5 MSTORE PUSH1 0x41 PUSH1 0x4 MSTORE PUSH1 0x24 DUP5 REVERT JUMPDEST SWAP6 SWAP7 POP POP POP POP POP POP PUSH1 0x8 SSTORE JUMP JUMPDEST DUP1 ISZERO PUSH3 0xA50 JUMPI PUSH3 0x10BE PUSH3 0xC58 JUMP JUMPDEST PUSH1 0xA SLOAD SWAP1 DUP2 ISZERO PUSH3 0x1145 JUMPI PUSH3 0x10D8 PUSH1 0x10 SLOAD DUP1 SWAP3 PUSH3 0x807 JUMP JUMPDEST SWAP1 PUSH3 0x113A JUMPI JUMPDEST PUSH8 0xDE0B6B3A7640000 SWAP1 DUP2 DUP2 MUL SWAP2 DUP2 DUP4 DIV EQ DUP2 ISZERO OR ISZERO PUSH3 0x815 JUMPI PUSH3 0x1125 PUSH3 0x111C PUSH1 0x0 DUP1 MLOAD PUSH1 0x20 PUSH3 0x37FB DUP4 CODECOPY DUP2 MLOAD SWAP2 MSTORE SWAP5 PUSH1 0x40 SWAP5 PUSH3 0x83F JUMP JUMPDEST PUSH1 0xD SLOAD PUSH3 0x807 JUMP JUMPDEST DUP1 PUSH1 0xD SSTORE TIMESTAMP PUSH1 0xE SSTORE DUP3 MLOAD SWAP2 DUP3 MSTORE PUSH1 0x20 DUP3 ADD MSTORE LOG1 JUMP JUMPDEST PUSH1 0x0 PUSH1 0x10 SSTORE PUSH3 0x10DF JUMP JUMPDEST PUSH1 0x0 DUP1 MLOAD PUSH1 0x20 PUSH3 0x37FB DUP4 CODECOPY DUP2 MLOAD SWAP2 MSTORE SWAP2 POP DUP1 PUSH3 0x1168 PUSH1 0x40 SWAP3 PUSH1 0x10 SLOAD PUSH3 0x807 JUMP JUMPDEST PUSH1 0x10 SSTORE PUSH1 0xD SLOAD DUP3 MLOAD SWAP2 DUP3 MSTORE PUSH1 0x20 DUP3 ADD MSTORE LOG1 JUMP INVALID PUSH1 0x80 PUSH1 0x40 DUP2 DUP2 MSTORE PUSH1 0x4 SWAP2 DUP3 CALLDATASIZE LT ISZERO PUSH2 0x22 JUMPI JUMPDEST POP POP POP CALLDATASIZE ISZERO PUSH2 0x20 JUMPI PUSH1 0x0 DUP1 REVERT JUMPDEST STOP JUMPDEST PUSH1 0x0 SWAP3 DUP4 CALLDATALOAD PUSH1 0xE0 SHR SWAP2 DUP3 PUSH4 0x3FD2A45 EQ PUSH2 0x13C1 JUMPI POP DUP2 PUSH4 0x445B667 EQ PUSH2 0x13A2 JUMPI DUP2 PUSH4 0x6FDDE03 EQ PUSH2 0x12CB JUMPI DUP2 PUSH4 0x7C9BF2E EQ PUSH2 0x1292 JUMPI DUP2 PUSH4 0x95EA7B3 EQ PUSH2 0x1268 JUMPI DUP2 PUSH4 0x13B9D47E EQ PUSH2 0x1249 JUMPI DUP2 PUSH4 0x18160DDD EQ PUSH2 0x122A JUMPI DUP2 PUSH4 0x1E4C7292 EQ PUSH2 0x1204 JUMPI DUP2 PUSH4 0x23B872DD EQ PUSH2 0x111A JUMPI DUP2 PUSH4 0x2836BE24 EQ PUSH2 0x109D JUMPI DUP2 PUSH4 0x313CE567 EQ PUSH2 0x1081 JUMPI DUP2 PUSH4 0x31D7A262 EQ PUSH2 0x105B JUMPI DUP2 PUSH4 0x47B12BFC EQ PUSH2 0x103F JUMPI DUP2 PUSH4 0x4E71D92D EQ PUSH2 0xF52 JUMPI DUP2 PUSH4 0x5B090044 EQ PUSH2 0xC6B JUMPI DUP2 PUSH4 0x64229D68 EQ PUSH2 0xC4C JUMPI DUP2 PUSH4 0x70A08231 EQ PUSH2 0xC15 JUMPI DUP2 PUSH4 0x7165485D EQ PUSH2 0xBD1 JUMPI DUP2 PUSH4 0x735DE9F7 EQ PUSH2 0xBA8 JUMPI DUP2 PUSH4 0x748747E6 EQ PUSH2 0xB19 JUMPI DUP2 PUSH4 0x902D55A5 EQ PUSH2 0xAF3 JUMPI DUP2 PUSH4 0x95D89B41 EQ PUSH2 0xA0D JUMPI DUP2 PUSH4 0x98AECB67 EQ PUSH2 0x9E7 JUMPI DUP2 PUSH4 0x9D0014B1 EQ PUSH2 0x95C JUMPI DUP2 PUSH4 0x9D6EADC1 EQ PUSH2 0x93D JUMPI DUP2 PUSH4 0xA37A9FC0 EQ PUSH2 0x50B JUMPI DUP2 PUSH4 0xA47541BA EQ PUSH2 0x8EE JUMPI DUP2 PUSH4 0xA8355C8F EQ PUSH2 0x79D JUMPI DUP2 PUSH4 0xA9059CBB EQ PUSH2 0x8BD JUMPI DUP2 PUSH4 0xACED1661 EQ PUSH2 0x894 JUMPI DUP2 PUSH4 0xB78D0538 EQ PUSH2 0x7BA JUMPI DUP2 PUSH4 0xBACF2A7B EQ PUSH2 0x79D JUMPI DUP2 PUSH4 0xBB103CBC EQ PUSH2 0x780 JUMPI DUP2 PUSH4 0xC1DB4015 EQ PUSH2 0x761 JUMPI DUP2 PUSH4 0xC45A0155 EQ PUSH2 0x71D JUMPI DUP2 PUSH4 0xC463ECD7 EQ PUSH2 0x700 JUMPI DUP2 PUSH4 0xC5F27B30 EQ PUSH2 0x6E1 JUMPI DUP2 PUSH4 0xC5F509D6 EQ PUSH2 0x6BB JUMPI DUP2 PUSH4 0xC7B12801 EQ PUSH2 0x5A8 JUMPI DUP2 PUSH4 0xC816841B EQ PUSH2 0x57B JUMPI DUP2 PUSH4 0xCA81EB66 EQ PUSH2 0x54E JUMPI DUP2 PUSH4 0xCBA0E996 EQ PUSH2 0x510 JUMPI DUP2 PUSH4 0xCE91E164 EQ PUSH2 0x50B JUMPI DUP2 PUSH4 0xDBB51D6E EQ PUSH2 0x490 JUMPI DUP2 PUSH4 0xDD62ED3E EQ PUSH2 0x447 JUMPI DUP2 PUSH4 0xE7C2B772 EQ PUSH2 0x423 JUMPI DUP2 PUSH4 0xF6CEEFA2 EQ PUSH2 0x263 JUMPI POP PUSH4 0xF8077FAE EQ PUSH2 0x242 JUMPI DUP1 PUSH2 0x12 JUMP JUMPDEST CALLVALUE PUSH2 0x25F JUMPI DUP2 PUSH1 0x3 NOT CALLDATASIZE ADD SLT PUSH2 0x25F JUMPI PUSH1 0x20 SWAP1 PUSH1 0xE SLOAD SWAP1 MLOAD SWAP1 DUP2 MSTORE RETURN JUMPDEST POP DUP1 REVERT JUMPDEST DUP4 DUP4 CALLVALUE PUSH2 0x25F JUMPI PUSH1 0x20 DUP1 PUSH1 0x3 NOT CALLDATASIZE ADD SLT PUSH2 0x41F JUMPI PUSH1 0x1 PUSH1 0x1 PUSH1 0x40 SHL SUB SWAP1 DUP5 CALLDATALOAD SWAP1 DUP3 DUP3 GT PUSH2 0x41B JUMPI CALLDATASIZE PUSH1 0x23 DUP4 ADD SLT ISZERO PUSH2 0x41B JUMPI DUP2 DUP7 ADD CALLDATALOAD SWAP3 DUP4 GT PUSH2 0x41B JUMPI PUSH1 0x5 SWAP3 PUSH1 0x24 CALLDATASIZE DUP3 DUP7 SHL DUP6 ADD DUP3 ADD GT PUSH2 0x417 JUMPI PUSH2 0x2BA PUSH2 0x23D9 JUMP JUMPDEST PUSH1 0x11 SLOAD PUSH1 0x1 PUSH1 0x1 PUSH1 0xA0 SHL SUB SWAP9 SWAP1 DUP10 AND CALLER SUB PUSH2 0x3E9 JUMPI POP DUP7 SWAP4 DUP8 SWAP6 DUP9 JUMPDEST DUP5 DUP2 LT PUSH2 0x321 JUMPI DUP10 PUSH32 0xF80654923FB0C7F7A44C79B000DCA8E52E2F4A16092A26FF31C0A410291D331 DUP11 DUP11 DUP11 DUP11 DUP4 MLOAD SWAP3 DUP4 MSTORE DUP3 ADD MSTORE LOG1 PUSH1 0x1 PUSH1 0x0 DUP1 MLOAD PUSH1 0x20 PUSH2 0x262A DUP4 CODECOPY DUP2 MLOAD SWAP2 MSTORE SSTORE DUP1 RETURN JUMPDEST DUP4 DUP2 DUP4 SWAP10 SWAP9 SWAP10 SHL DUP5 ADD ADD CALLDATALOAD DUP12 DUP2 AND SWAP1 DUP2 DUP2 SUB PUSH2 0x3E5 JUMPI PUSH2 0x340 DUP2 PUSH2 0x1C36 JUMP JUMPDEST ISZERO PUSH2 0x3D7 JUMPI PUSH2 0x34E SWAP1 PUSH2 0x1B8B JUMP JUMPDEST DUP1 DUP12 MSTORE PUSH1 0x9 DUP8 MSTORE PUSH1 0x3 DUP11 DUP13 KECCAK256 ADD SWAP9 DUP10 SLOAD SWAP10 DUP13 DUP12 ISZERO PUSH2 0x3C8 JUMPI DUP1 DUP1 DUP1 DUP15 DUP2 DUP7 SSTORE DUP8 GAS CALL PUSH2 0x378 PUSH2 0x182E JUMP JUMPDEST POP ISZERO PUSH2 0x3B8 JUMPI POP SWAP1 PUSH1 0x0 DUP1 MLOAD PUSH1 0x20 PUSH2 0x25AA DUP4 CODECOPY DUP2 MLOAD SWAP2 MSTORE DUP9 PUSH2 0x3A7 PUSH2 0x3A1 DUP14 PUSH2 0x3B3 SWAP8 SWAP7 PUSH2 0x1473 JUMP JUMPDEST SWAP12 PUSH2 0x2409 JUMP JUMPDEST SWAP12 DUP14 MLOAD SWAP1 DUP2 MSTORE LOG2 PUSH2 0x2409 JUMP JUMPDEST PUSH2 0x2D6 JUMP JUMPDEST PUSH2 0x3B3 SWAP4 SWAP3 POP SWAP10 SWAP1 SWAP9 SWAP10 SSTORE PUSH2 0x2409 JUMP JUMPDEST POP POP SWAP8 SWAP9 POP POP PUSH2 0x3B3 SWAP1 PUSH2 0x2409 JUMP JUMPDEST POP POP PUSH2 0x3B3 SWAP1 SWAP8 SWAP7 SWAP8 PUSH2 0x2409 JUMP JUMPDEST DUP12 DUP1 REVERT JUMPDEST PUSH1 0xB PUSH1 0x64 SWAP3 DUP6 DUP10 MLOAD SWAP4 PUSH3 0x461BCD PUSH1 0xE5 SHL DUP6 MSTORE DUP5 ADD MSTORE DUP3 ADD MSTORE PUSH11 0x27B7363C9035B2B2B832B9 PUSH1 0xA9 SHL PUSH1 0x44 DUP3 ADD MSTORE REVERT JUMPDEST DUP7 DUP1 REVERT JUMPDEST DUP5 DUP1 REVERT JUMPDEST DUP3 DUP1 REVERT JUMPDEST POP POP CALLVALUE PUSH2 0x25F JUMPI DUP2 PUSH1 0x3 NOT CALLDATASIZE ADD SLT PUSH2 0x25F JUMPI PUSH1 0x20 SWAP1 PUSH1 0xFF PUSH1 0x5 SLOAD AND SWAP1 MLOAD SWAP1 ISZERO ISZERO DUP2 MSTORE RETURN JUMPDEST POP POP CALLVALUE PUSH2 0x25F JUMPI DUP1 PUSH1 0x3 NOT CALLDATASIZE ADD SLT PUSH2 0x25F JUMPI DUP1 PUSH1 0x20 SWAP3 PUSH2 0x465 PUSH2 0x1426 JUMP JUMPDEST PUSH2 0x46D PUSH2 0x1441 JUMP JUMPDEST PUSH1 0x1 PUSH1 0x1 PUSH1 0xA0 SHL SUB SWAP2 DUP3 AND DUP4 MSTORE PUSH1 0x1 DUP7 MSTORE DUP4 DUP4 KECCAK256 SWAP2 AND DUP3 MSTORE DUP5 MSTORE KECCAK256 SLOAD SWAP1 MLOAD SWAP1 DUP2 MSTORE RETURN JUMPDEST POP POP CALLVALUE PUSH2 0x25F JUMPI PUSH1 0x20 CALLDATASIZE PUSH1 0x3 NOT ADD SLT PUSH2 0x25F JUMPI PUSH1 0xC0 SWAP2 DUP2 SWAP1 PUSH1 0x1 PUSH1 0x1 PUSH1 0xA0 SHL SUB PUSH2 0x4B8 PUSH2 0x1426 JUMP JUMPDEST AND DUP2 MSTORE PUSH1 0x9 PUSH1 0x20 MSTORE KECCAK256 SWAP1 DUP2 SLOAD SWAP2 PUSH1 0x1 DUP2 ADD SLOAD PUSH1 0x3 PUSH1 0x2 DUP4 ADD SLOAD SWAP3 ADD SLOAD SWAP3 DUP1 MLOAD SWAP5 PUSH1 0x1 DUP1 PUSH1 0x80 SHL SUB DUP2 AND DUP7 MSTORE PUSH1 0x1 DUP1 PUSH1 0x40 SHL SUB DUP2 PUSH1 0x80 SHR AND PUSH1 0x20 DUP8 ADD MSTORE DUP7 SHR SWAP1 DUP6 ADD MSTORE PUSH1 0x60 DUP5 ADD MSTORE PUSH1 0x80 DUP4 ADD MSTORE PUSH1 0xA0 DUP3 ADD MSTORE RETURN JUMPDEST PUSH2 0x1457 JUMP JUMPDEST POP POP CALLVALUE PUSH2 0x25F JUMPI PUSH1 0x20 CALLDATASIZE PUSH1 0x3 NOT ADD SLT PUSH2 0x25F JUMPI PUSH1 0x20 SWAP2 PUSH1 0xFF SWAP1 DUP3 SWAP1 PUSH1 0x1 PUSH1 0x1 PUSH1 0xA0 SHL SUB PUSH2 0x53B PUSH2 0x1426 JUMP JUMPDEST AND DUP2 MSTORE PUSH1 0xF DUP6 MSTORE KECCAK256 SLOAD AND SWAP1 MLOAD SWAP1 ISZERO ISZERO DUP2 MSTORE RETURN JUMPDEST POP POP CALLVALUE PUSH2 0x25F JUMPI PUSH1 0x20 CALLDATASIZE PUSH1 0x3 NOT ADD SLT PUSH2 0x25F JUMPI PUSH1 0x20 SWAP1 PUSH2 0x574 PUSH2 0x56F PUSH2 0x1426 JUMP JUMPDEST PUSH2 0x20A6 JUMP JUMPDEST SWAP1 MLOAD SWAP1 DUP2 MSTORE RETURN JUMPDEST POP POP CALLVALUE PUSH2 0x25F JUMPI DUP2 PUSH1 0x3 NOT CALLDATASIZE ADD SLT PUSH2 0x25F JUMPI PUSH1 0x5 SLOAD SWAP1 MLOAD PUSH1 0x8 SWAP2 SWAP1 SWAP2 SHR PUSH1 0x1 PUSH1 0x1 PUSH1 0xA0 SHL SUB AND DUP2 MSTORE PUSH1 0x20 SWAP1 RETURN JUMPDEST SWAP2 SWAP1 POP CALLVALUE PUSH2 0x41F JUMPI DUP1 PUSH1 0x3 NOT CALLDATASIZE ADD SLT PUSH2 0x41F JUMPI PUSH2 0x5C3 PUSH2 0x1426 JUMP JUMPDEST SWAP2 PUSH2 0x5CC PUSH2 0x1441 JUMP JUMPDEST PUSH1 0x1 PUSH1 0x1 PUSH1 0xA0 SHL SUB SWAP2 PUSH2 0x602 CALLER PUSH32 0x0 DUP6 AND EQ PUSH2 0x17F5 JUMP JUMPDEST PUSH1 0x5 SLOAD SWAP1 PUSH1 0xFF DUP3 AND PUSH2 0x684 JUMPI POP PUSH1 0x1 PUSH1 0x1 PUSH1 0xA8 SHL SUB NOT AND PUSH1 0x8 DUP6 SWAP1 SHL PUSH2 0x100 PUSH1 0x1 PUSH1 0xA8 SHL SUB AND OR PUSH1 0x1 OR PUSH1 0x5 SSTORE PUSH1 0x6 DUP1 SLOAD PUSH1 0x1 PUSH1 0x1 PUSH1 0xA0 SHL SUB NOT AND SWAP2 DUP4 AND SWAP2 SWAP1 SWAP2 OR SWAP1 SSTORE SWAP2 SWAP1 SWAP2 AND DUP1 DUP4 MSTORE PUSH1 0xF PUSH1 0x20 MSTORE SWAP1 DUP3 KECCAK256 DUP1 SLOAD PUSH1 0xFF NOT AND SWAP1 SSTORE PUSH32 0xC5CA2014458D93C5CF9F836FF7ECE45DE01C929DFB16EED9D6C3329FA1FD0982 DUP3 DUP1 LOG2 DUP1 RETURN JUMPDEST PUSH1 0x64 SWAP1 PUSH1 0x20 DUP7 MLOAD SWAP2 PUSH3 0x461BCD PUSH1 0xE5 SHL DUP4 MSTORE DUP3 ADD MSTORE PUSH1 0x11 PUSH1 0x24 DUP3 ADD MSTORE PUSH17 0x105B1C9958591E4819DC98591D585D1959 PUSH1 0x7A SHL PUSH1 0x44 DUP3 ADD MSTORE REVERT JUMPDEST POP POP CALLVALUE PUSH2 0x25F JUMPI PUSH1 0x20 CALLDATASIZE PUSH1 0x3 NOT ADD SLT PUSH2 0x25F JUMPI PUSH1 0x20 SWAP1 PUSH2 0x574 PUSH2 0x6DC PUSH2 0x1426 JUMP JUMPDEST PUSH2 0x24D4 JUMP JUMPDEST POP POP CALLVALUE PUSH2 0x25F JUMPI DUP2 PUSH1 0x3 NOT CALLDATASIZE ADD SLT PUSH2 0x25F JUMPI PUSH1 0x20 SWAP1 PUSH1 0xD SLOAD SWAP1 MLOAD SWAP1 DUP2 MSTORE RETURN JUMPDEST POP POP CALLVALUE PUSH2 0x25F JUMPI DUP2 PUSH1 0x3 NOT CALLDATASIZE ADD SLT PUSH2 0x25F JUMPI PUSH1 0x20 SWAP1 MLOAD PUSH2 0x3E8 DUP2 MSTORE RETURN JUMPDEST POP POP CALLVALUE PUSH2 0x25F JUMPI DUP2 PUSH1 0x3 NOT CALLDATASIZE ADD SLT PUSH2 0x25F JUMPI MLOAD PUSH32 0x0 PUSH1 0x1 PUSH1 0x1 PUSH1 0xA0 SHL SUB AND DUP2 MSTORE PUSH1 0x20 SWAP1 RETURN JUMPDEST POP POP CALLVALUE PUSH2 0x25F JUMPI DUP2 PUSH1 0x3 NOT CALLDATASIZE ADD SLT PUSH2 0x25F JUMPI PUSH1 0x20 SWAP1 PUSH1 0xA SLOAD SWAP1 MLOAD SWAP1 DUP2 MSTORE RETURN JUMPDEST POP POP CALLVALUE PUSH2 0x25F JUMPI DUP2 PUSH1 0x3 NOT CALLDATASIZE ADD SLT PUSH2 0x25F JUMPI PUSH1 0x20 SWAP1 MLOAD PUSH2 0x7D0 DUP2 MSTORE RETURN JUMPDEST POP POP CALLVALUE PUSH2 0x25F JUMPI DUP2 PUSH1 0x3 NOT CALLDATASIZE ADD SLT PUSH2 0x25F JUMPI PUSH1 0x20 SWAP1 MLOAD PUSH2 0x1F4 DUP2 MSTORE RETURN JUMPDEST SWAP1 POP DUP3 PUSH1 0x3 NOT CALLDATASIZE ADD SLT PUSH2 0x41F JUMPI DUP3 PUSH1 0x1 PUSH1 0x1 PUSH1 0xA0 SHL SUB PUSH2 0x7FD CALLER PUSH32 0x0 DUP4 AND EQ PUSH2 0x17F5 JUMP JUMPDEST CALLVALUE PUSH2 0x806 JUMPI POP DUP1 RETURN JUMPDEST DUP2 DUP1 DUP1 SWAP3 CALLVALUE SWAP1 PUSH32 0x0 AND GAS CALL PUSH2 0x838 PUSH2 0x182E JUMP JUMPDEST POP ISZERO PUSH2 0x85C JUMPI POP PUSH1 0x20 PUSH1 0x0 DUP1 MLOAD PUSH1 0x20 PUSH2 0x256A DUP4 CODECOPY DUP2 MLOAD SWAP2 MSTORE SWAP2 MLOAD CALLVALUE DUP2 MSTORE LOG1 CODESIZE DUP1 DUP3 DUP1 RETURN JUMPDEST PUSH1 0x20 PUSH1 0x64 SWAP3 MLOAD SWAP2 PUSH3 0x461BCD PUSH1 0xE5 SHL DUP4 MSTORE DUP3 ADD MSTORE PUSH1 0x13 PUSH1 0x24 DUP3 ADD MSTORE PUSH19 0x141B185D199BDC9B48199DD90819985A5B1959 PUSH1 0x6A SHL PUSH1 0x44 DUP3 ADD MSTORE REVERT JUMPDEST POP POP CALLVALUE PUSH2 0x25F JUMPI DUP2 PUSH1 0x3 NOT CALLDATASIZE ADD SLT PUSH2 0x25F JUMPI PUSH1 0x11 SLOAD SWAP1 MLOAD PUSH1 0x1 PUSH1 0x1 PUSH1 0xA0 SHL SUB SWAP1 SWAP2 AND DUP2 MSTORE PUSH1 0x20 SWAP1 RETURN JUMPDEST POP POP CALLVALUE PUSH2 0x25F JUMPI DUP1 PUSH1 0x3 NOT CALLDATASIZE ADD SLT PUSH2 0x25F JUMPI PUSH1 0x20 SWAP1 PUSH2 0x8E7 PUSH2 0x8DD PUSH2 0x1426 JUMP JUMPDEST PUSH1 0x24 CALLDATALOAD SWAP1 CALLER PUSH2 0x14CF JUMP JUMPDEST MLOAD PUSH1 0x1 DUP2 MSTORE RETURN JUMPDEST DUP4 DUP1 PUSH1 0x3 NOT CALLDATASIZE ADD SLT PUSH2 0x93A JUMPI PUSH2 0x92E CALLER PUSH32 0x0 PUSH1 0x1 PUSH1 0x1 PUSH1 0xA0 SHL SUB AND EQ PUSH2 0x17F5 JUMP JUMPDEST PUSH2 0x937 CALLVALUE PUSH2 0x1FE9 JUMP JUMPDEST DUP1 RETURN JUMPDEST DUP1 REVERT JUMPDEST POP POP CALLVALUE PUSH2 0x25F JUMPI DUP2 PUSH1 0x3 NOT CALLDATASIZE ADD SLT PUSH2 0x25F JUMPI PUSH1 0x20 SWAP1 PUSH1 0xB SLOAD SWAP1 MLOAD SWAP1 DUP2 MSTORE RETURN JUMPDEST SWAP1 POP CALLVALUE PUSH2 0x41F JUMPI PUSH1 0x20 CALLDATASIZE PUSH1 0x3 NOT ADD SLT PUSH2 0x41F JUMPI DUP1 CALLDATALOAD SWAP2 PUSH2 0x9A6 CALLER PUSH32 0x0 PUSH1 0x1 PUSH1 0x1 PUSH1 0xA0 SHL SUB AND EQ PUSH2 0x252E JUMP JUMPDEST DUP3 ISZERO PUSH2 0x9B4 JUMPI POP POP PUSH1 0x7 SSTORE DUP1 RETURN JUMPDEST SWAP1 PUSH1 0x20 PUSH1 0x64 SWAP3 MLOAD SWAP2 PUSH3 0x461BCD PUSH1 0xE5 SHL DUP4 MSTORE DUP3 ADD MSTORE PUSH1 0xD PUSH1 0x24 DUP3 ADD MSTORE PUSH13 0x109859081D1A1C995CDA1BDB19 PUSH1 0x9A SHL PUSH1 0x44 DUP3 ADD MSTORE REVERT JUMPDEST POP POP CALLVALUE PUSH2 0x25F JUMPI DUP2 PUSH1 0x3 NOT CALLDATASIZE ADD SLT PUSH2 0x25F JUMPI PUSH1 0x20 SWAP1 MLOAD PUSH11 0xA56FA5B99019A5C8000000 DUP2 MSTORE RETURN JUMPDEST DUP4 DUP4 CALLVALUE PUSH2 0x25F JUMPI DUP2 PUSH1 0x3 NOT CALLDATASIZE ADD SLT PUSH2 0x25F JUMPI DUP1 MLOAD SWAP2 DUP1 SWAP4 DUP1 SLOAD SWAP2 PUSH1 0x1 SWAP1 DUP4 DUP3 SHR SWAP3 DUP3 DUP6 AND SWAP5 DUP6 ISZERO PUSH2 0xAE9 JUMPI JUMPDEST PUSH1 0x20 SWAP6 DUP7 DUP7 LT DUP2 EQ PUSH2 0xAD6 JUMPI DUP6 DUP10 MSTORE SWAP1 DUP2 ISZERO PUSH2 0xAB2 JUMPI POP PUSH1 0x1 EQ PUSH2 0xA77 JUMPI JUMPDEST PUSH2 0xA73 DUP8 DUP8 PUSH2 0xA69 DUP3 DUP13 SUB DUP4 PUSH2 0x1496 JUMP JUMPDEST MLOAD SWAP2 DUP3 SWAP2 DUP3 PUSH2 0x13DD JUMP JUMPDEST SUB SWAP1 RETURN JUMPDEST SWAP1 DUP1 SWAP5 SWAP8 POP MSTORE DUP6 DUP4 KECCAK256 JUMPDEST DUP3 DUP5 LT PUSH2 0xA9F JUMPI POP POP POP DUP3 PUSH2 0xA73 SWAP5 PUSH2 0xA69 SWAP3 DUP3 ADD ADD SWAP5 DUP7 DUP1 PUSH2 0xA58 JUMP JUMPDEST DUP1 SLOAD DUP7 DUP6 ADD DUP9 ADD MSTORE SWAP3 DUP7 ADD SWAP3 DUP2 ADD PUSH2 0xA81 JUMP JUMPDEST PUSH1 0xFF NOT AND DUP9 DUP8 ADD MSTORE POP POP POP POP ISZERO ISZERO PUSH1 0x5 SHL DUP4 ADD ADD SWAP3 POP PUSH2 0xA69 DUP3 PUSH2 0xA73 DUP7 DUP1 PUSH2 0xA58 JUMP JUMPDEST PUSH4 0x4E487B71 PUSH1 0xE0 SHL DUP5 MSTORE PUSH1 0x22 DUP4 MSTORE PUSH1 0x24 DUP5 REVERT JUMPDEST SWAP4 PUSH1 0x7F AND SWAP4 PUSH2 0xA39 JUMP JUMPDEST POP POP CALLVALUE PUSH2 0x25F JUMPI DUP2 PUSH1 0x3 NOT CALLDATASIZE ADD SLT PUSH2 0x25F JUMPI MLOAD PUSH8 0x6765C793FA10079D PUSH1 0x1B SHL DUP2 MSTORE PUSH1 0x20 SWAP1 RETURN JUMPDEST DUP4 CALLVALUE PUSH2 0x93A JUMPI PUSH1 0x20 CALLDATASIZE PUSH1 0x3 NOT ADD SLT PUSH2 0x93A JUMPI PUSH2 0xB33 PUSH2 0x1426 JUMP JUMPDEST PUSH1 0x1 PUSH1 0x1 PUSH1 0xA0 SHL SUB SWAP1 PUSH2 0xB69 CALLER PUSH32 0x0 DUP5 AND EQ PUSH2 0x252E JUMP JUMPDEST DUP2 PUSH1 0x11 SLOAD SWAP2 AND DUP1 SWAP3 DUP3 AND PUSH32 0x53D3703FE259DEF57584466F32D1B94C30278008C683C21B04501C4966F13A69 DUP6 DUP1 LOG3 PUSH1 0x1 PUSH1 0x1 PUSH1 0xA0 SHL SUB NOT AND OR PUSH1 0x11 SSTORE DUP1 RETURN JUMPDEST POP POP CALLVALUE PUSH2 0x25F JUMPI DUP2 PUSH1 0x3 NOT CALLDATASIZE ADD SLT PUSH2 0x25F JUMPI PUSH1 0x6 SLOAD SWAP1 MLOAD PUSH1 0x1 PUSH1 0x1 PUSH1 0xA0 SHL SUB SWAP1 SWAP2 AND DUP2 MSTORE PUSH1 0x20 SWAP1 RETURN JUMPDEST POP POP CALLVALUE PUSH2 0x25F JUMPI DUP2 PUSH1 0x3 NOT CALLDATASIZE ADD SLT PUSH2 0x25F JUMPI MLOAD PUSH32 0x0 PUSH1 0x1 PUSH1 0x1 PUSH1 0xA0 SHL SUB AND DUP2 MSTORE PUSH1 0x20 SWAP1 RETURN JUMPDEST POP POP CALLVALUE PUSH2 0x25F JUMPI PUSH1 0x20 CALLDATASIZE PUSH1 0x3 NOT ADD SLT PUSH2 0x25F JUMPI PUSH1 0x20 SWAP2 DUP2 SWAP1 PUSH1 0x1 PUSH1 0x1 PUSH1 0xA0 SHL SUB PUSH2 0xC3D PUSH2 0x1426 JUMP JUMPDEST AND DUP2 MSTORE DUP1 DUP5 MSTORE KECCAK256 SLOAD SWAP1 MLOAD SWAP1 DUP2 MSTORE RETURN JUMPDEST POP POP CALLVALUE PUSH2 0x25F JUMPI DUP2 PUSH1 0x3 NOT CALLDATASIZE ADD SLT PUSH2 0x25F JUMPI PUSH1 0x20 SWAP1 PUSH1 0xC SLOAD SWAP1 MLOAD SWAP1 DUP2 MSTORE RETURN JUMPDEST DUP4 DUP4 CALLVALUE PUSH2 0x25F JUMPI PUSH1 0x20 DUP1 PUSH1 0x3 NOT CALLDATASIZE ADD SLT PUSH2 0x41F JUMPI DUP4 CALLDATALOAD SWAP2 PUSH1 0x1 PUSH1 0x1 PUSH1 0xA0 SHL SUB SWAP2 PUSH32 0x0 DUP4 DUP2 AND SWAP1 PUSH2 0xCBB CALLER DUP4 EQ PUSH2 0x17F5 JUMP JUMPDEST DUP6 ISZERO SWAP8 DUP9 ISZERO PUSH2 0xCC8 JUMPI DUP8 DUP1 RETURN JUMPDEST DUP3 ISZERO PUSH2 0xF3B JUMPI DUP7 SWAP9 PUSH2 0xCD9 DUP4 PUSH2 0x1B8B JUMP JUMPDEST PUSH2 0xCE1 PUSH2 0x1A58 JUMP JUMPDEST PUSH1 0x5 SLOAD SWAP8 PUSH1 0xFF SWAP9 DUP10 DUP2 AND DUP1 PUSH2 0xF2F JUMPI JUMPDEST DUP1 PUSH2 0xF1B JUMPI JUMPDEST DUP1 PUSH2 0xF05 JUMPI JUMPDEST PUSH2 0xDAC JUMPI JUMPDEST POP POP POP POP DUP1 PUSH2 0xD1A DUP9 SWAP10 PUSH2 0xD1F SWAP4 SWAP10 SWAP7 SWAP8 SWAP9 SWAP10 PUSH2 0x18D0 JUMP JUMPDEST PUSH2 0x1E20 JUMP JUMPDEST PUSH2 0xD27 PUSH2 0x1C80 JUMP JUMPDEST PUSH1 0x5 SLOAD DUP7 DUP2 AND SWAP7 DUP8 PUSH2 0xD9F JUMPI JUMPDEST POP DUP7 PUSH2 0xD8F JUMPI JUMPDEST POP POP DUP5 PUSH2 0xD79 JUMPI JUMPDEST POP POP POP DUP2 PUSH2 0xD6B JUMPI JUMPDEST POP PUSH2 0xD5E JUMPI JUMPDEST DUP1 DUP3 DUP1 DUP1 DUP1 DUP1 DUP1 DUP1 DUP8 DUP1 RETURN JUMPDEST PUSH2 0xD66 PUSH2 0x2105 JUMP JUMPDEST PUSH2 0xD52 JUMP JUMPDEST SWAP1 POP PUSH1 0x6 SLOAD AND ISZERO ISZERO DUP3 PUSH2 0xD4C JUMP JUMPDEST ADDRESS DUP3 MSTORE MSTORE DUP4 KECCAK256 SLOAD PUSH1 0x7 SLOAD GT ISZERO SWAP2 POP DUP4 DUP4 DUP2 PUSH2 0xD43 JUMP JUMPDEST PUSH1 0x8 SHR DUP6 AND EQ ISZERO SWAP5 POP DUP7 DUP1 PUSH2 0xD3B JUMP JUMPDEST PUSH1 0x8 SLOAD AND ISZERO SWAP7 POP DUP9 PUSH2 0xD34 JUMP JUMPDEST PUSH1 0x8 SHR DUP9 AND DUP6 DUP2 EQ SWAP3 PUSH2 0xDEAD SWAP3 SWAP2 DUP4 EQ DUP5 DUP1 ISZERO PUSH2 0xEFE JUMPI JUMPDEST PUSH2 0xDD0 JUMPI JUMPDEST POP POP PUSH2 0xD02 JUMP JUMPDEST SWAP1 SWAP2 SWAP3 SWAP4 SWAP5 SWAP13 POP DUP12 SWAP1 PUSH2 0xEEF JUMPI JUMPDEST PUSH2 0x1F4 SWAP1 DUP2 ADD DUP1 SWAP2 GT PUSH2 0xEDC JUMPI PUSH2 0xDFB SWAP1 PUSH2 0x2710 SWAP2 DUP3 SWAP2 DUP6 PUSH2 0x186D JUMP JUMPDEST DIV SWAP2 PUSH1 0x96 DUP5 MUL SWAP1 DUP5 DUP3 DIV PUSH1 0x96 EQ OR ISZERO PUSH2 0xEC8 JUMPI DUP13 SWAP14 POP PUSH1 0x60 PUSH2 0xD1F SWAP8 SWAP7 SWAP5 DUP11 DUP13 SWAP14 SWAP15 SWAP16 DUP1 SWAP14 PUSH2 0xE5B PUSH2 0xD1A SWAP11 SWAP9 DUP15 SWAP9 PUSH1 0x0 DUP1 MLOAD PUSH1 0x20 PUSH2 0x260A DUP4 CODECOPY DUP2 MLOAD SWAP2 MSTORE SWAP9 DIV SWAP6 DUP14 DUP8 DUP1 PUSH2 0xEB8 JUMPI JUMPDEST PUSH2 0xE4E SWAP1 DUP5 PUSH2 0x18A0 JUMP JUMPDEST DUP1 PUSH2 0xEA6 JUMPI JUMPDEST POP POP PUSH2 0x18A0 JUMP JUMPDEST SWAP9 PUSH2 0xE81 JUMPI JUMPDEST SWAP2 POP POP MLOAD SWAP1 DUP2 MSTORE DUP12 DUP12 DUP3 ADD MSTORE DUP12 DUP14 DUP3 ADD MSTORE LOG3 SWAP10 SWAP9 SWAP8 SWAP7 SWAP6 DUP3 SWAP4 DUP13 DUP1 PUSH2 0xDC9 JUMP JUMPDEST DUP8 DUP3 MSTORE PUSH1 0x9 SWAP1 SWAP3 MSTORE KECCAK256 PUSH2 0xE9E SWAP1 TIMESTAMP PUSH1 0x1 PUSH1 0x1 PUSH1 0x40 SHL SUB AND SWAP1 PUSH2 0x18AD JUMP JUMPDEST DUP11 DUP13 DUP15 PUSH2 0xE61 JUMP JUMPDEST PUSH2 0xEB1 SWAP2 ADDRESS SWAP1 PUSH2 0x196B JUMP JUMPDEST DUP14 CODESIZE PUSH2 0xE54 JUMP JUMPDEST PUSH2 0xEC1 SWAP2 PUSH2 0x18D0 JUMP JUMPDEST DUP14 DUP8 PUSH2 0xE44 JUMP JUMPDEST POP PUSH4 0x4E487B71 PUSH1 0xE0 SHL DUP13 MSTORE PUSH1 0x11 DUP14 MSTORE PUSH1 0x24 DUP13 REVERT JUMPDEST PUSH4 0x4E487B71 PUSH1 0xE0 SHL DUP13 MSTORE PUSH1 0x11 DUP14 MSTORE PUSH1 0x24 DUP13 REVERT JUMPDEST POP PUSH2 0xEF9 DUP6 PUSH2 0x20A6 JUMP JUMPDEST PUSH2 0xDDE JUMP JUMPDEST POP DUP1 PUSH2 0xDC4 JUMP JUMPDEST POP PUSH2 0xDEAD DUP12 MSTORE PUSH1 0xF DUP8 MSTORE DUP10 DUP9 DUP13 KECCAK256 SLOAD AND ISZERO PUSH2 0xCFD JUMP JUMPDEST POP DUP6 DUP12 MSTORE PUSH1 0xF DUP8 MSTORE DUP10 DUP9 DUP13 KECCAK256 SLOAD AND ISZERO PUSH2 0xCF7 JUMP JUMPDEST POP DUP10 PUSH1 0x8 SLOAD AND ISZERO PUSH2 0xCF1 JUMP JUMPDEST DUP5 MLOAD PUSH4 0x4B637E8F PUSH1 0xE1 SHL DUP2 MSTORE SWAP1 DUP2 ADD DUP9 SWAP1 MSTORE PUSH1 0x24 SWAP1 REVERT JUMPDEST SWAP2 SWAP1 POP CALLVALUE PUSH2 0x41F JUMPI DUP3 PUSH1 0x3 NOT CALLDATASIZE ADD SLT PUSH2 0x41F JUMPI PUSH2 0xF6D PUSH2 0x23D9 JUMP JUMPDEST PUSH2 0xF76 CALLER PUSH2 0x1B8B JUMP JUMPDEST CALLER DUP4 MSTORE PUSH1 0x9 PUSH1 0x20 MSTORE PUSH1 0x3 DUP2 DUP5 KECCAK256 ADD SWAP2 DUP3 SLOAD SWAP3 DUP4 ISZERO PUSH2 0x1009 JUMPI DUP5 SWAP1 SSTORE DUP4 DUP1 DUP1 DUP1 DUP7 CALLER GAS CALL PUSH2 0xFA1 PUSH2 0x182E JUMP JUMPDEST POP ISZERO PUSH2 0xFD5 JUMPI POP MLOAD SWAP1 DUP2 MSTORE PUSH1 0x0 DUP1 MLOAD PUSH1 0x20 PUSH2 0x25AA DUP4 CODECOPY DUP2 MLOAD SWAP2 MSTORE PUSH1 0x20 CALLER SWAP3 LOG2 PUSH1 0x1 PUSH1 0x0 DUP1 MLOAD PUSH1 0x20 PUSH2 0x262A DUP4 CODECOPY DUP2 MLOAD SWAP2 MSTORE SSTORE DUP1 RETURN JUMPDEST PUSH1 0x20 PUSH1 0x64 SWAP3 MLOAD SWAP2 PUSH3 0x461BCD PUSH1 0xE5 SHL DUP4 MSTORE DUP3 ADD MSTORE PUSH1 0xF PUSH1 0x24 DUP3 ADD MSTORE PUSH15 0x115512081CD95B990819985A5B1959 PUSH1 0x8A SHL PUSH1 0x44 DUP3 ADD MSTORE REVERT JUMPDEST POP PUSH1 0x20 PUSH1 0x64 SWAP3 MLOAD SWAP2 PUSH3 0x461BCD PUSH1 0xE5 SHL DUP4 MSTORE DUP3 ADD MSTORE PUSH1 0x10 PUSH1 0x24 DUP3 ADD MSTORE PUSH16 0x4E6F7468696E6720746F20636C61696D PUSH1 0x80 SHL PUSH1 0x44 DUP3 ADD MSTORE REVERT JUMPDEST POP POP CALLVALUE PUSH2 0x25F JUMPI DUP2 PUSH1 0x3 NOT CALLDATASIZE ADD SLT PUSH2 0x25F JUMPI PUSH1 0x20 SWAP1 MLOAD PUSH1 0xC8 DUP2 MSTORE RETURN JUMPDEST POP POP CALLVALUE PUSH2 0x25F JUMPI PUSH1 0x20 CALLDATASIZE PUSH1 0x3 NOT ADD SLT PUSH2 0x25F JUMPI PUSH1 0x20 SWAP1 PUSH2 0x574 PUSH2 0x107C PUSH2 0x1426 JUMP JUMPDEST PUSH2 0x2418 JUMP JUMPDEST POP POP CALLVALUE PUSH2 0x25F JUMPI DUP2 PUSH1 0x3 NOT CALLDATASIZE ADD SLT PUSH2 0x25F JUMPI PUSH1 0x20 SWAP1 MLOAD PUSH1 0x12 DUP2 MSTORE RETURN JUMPDEST POP POP CALLVALUE PUSH2 0x25F JUMPI DUP1 PUSH1 0x3 NOT CALLDATASIZE ADD SLT PUSH2 0x25F JUMPI PUSH2 0x10B7 PUSH2 0x1426 JUMP JUMPDEST SWAP1 PUSH1 0x24 CALLDATALOAD SWAP2 DUP3 ISZERO ISZERO DUP1 SWAP4 SUB PUSH2 0x1116 JUMPI PUSH1 0x1 PUSH1 0x1 PUSH1 0xA0 SHL SUB SWAP1 PUSH2 0x10FC CALLER PUSH32 0x0 DUP5 AND EQ PUSH2 0x252E JUMP JUMPDEST AND DUP4 MSTORE PUSH1 0xF PUSH1 0x20 MSTORE DUP3 KECCAK256 SWAP1 PUSH1 0xFF DUP1 NOT DUP4 SLOAD AND SWAP2 AND OR SWAP1 SSTORE DUP1 RETURN JUMPDEST DUP4 DUP1 REVERT JUMPDEST SWAP1 POP DUP3 CALLVALUE PUSH2 0x93A JUMPI PUSH1 0x60 CALLDATASIZE PUSH1 0x3 NOT ADD SLT PUSH2 0x93A JUMPI PUSH2 0x1136 PUSH2 0x1426 JUMP JUMPDEST PUSH2 0x113E PUSH2 0x1441 JUMP JUMPDEST SWAP2 PUSH1 0x44 CALLDATALOAD SWAP4 PUSH1 0x1 DUP1 PUSH1 0xA0 SHL SUB DUP4 AND DUP1 DUP4 MSTORE PUSH1 0x1 PUSH1 0x20 MSTORE DUP7 DUP4 KECCAK256 CALLER DUP5 MSTORE PUSH1 0x20 MSTORE DUP7 DUP4 KECCAK256 SLOAD SWAP2 PUSH1 0x0 NOT DUP4 LT PUSH2 0x117A JUMPI JUMPDEST PUSH1 0x20 DUP9 PUSH2 0x8E7 DUP10 DUP10 DUP10 PUSH2 0x14CF JUMP JUMPDEST DUP7 DUP4 LT PUSH2 0x11E2 JUMPI DUP2 ISZERO PUSH2 0x11CB JUMPI CALLER ISZERO PUSH2 0x11B4 JUMPI POP DUP3 MSTORE PUSH1 0x1 PUSH1 0x20 SWAP1 DUP2 MSTORE DUP7 DUP4 KECCAK256 CALLER DUP5 MSTORE DUP2 MSTORE SWAP2 DUP7 SWAP1 KECCAK256 SWAP1 DUP6 SWAP1 SUB SWAP1 SSTORE DUP3 SWAP1 PUSH2 0x8E7 DUP8 PUSH2 0x116C JUMP JUMPDEST DUP8 MLOAD PUSH4 0x4A1406B1 PUSH1 0xE1 SHL DUP2 MSTORE SWAP1 DUP2 ADD DUP5 SWAP1 MSTORE PUSH1 0x24 SWAP1 REVERT JUMPDEST DUP8 MLOAD PUSH4 0xE602DF05 PUSH1 0xE0 SHL DUP2 MSTORE SWAP1 DUP2 ADD DUP5 SWAP1 MSTORE PUSH1 0x24 SWAP1 REVERT JUMPDEST SWAP1 POP PUSH2 0x1200 DUP7 DUP9 MLOAD SWAP4 DUP5 SWAP4 PUSH4 0x7DC7A0D9 PUSH1 0xE1 SHL DUP6 MSTORE CALLER SWAP1 DUP6 ADD PUSH2 0x17D7 JUMP JUMPDEST SUB SWAP1 REVERT JUMPDEST POP POP CALLVALUE PUSH2 0x25F JUMPI DUP2 PUSH1 0x3 NOT CALLDATASIZE ADD SLT PUSH2 0x25F JUMPI MLOAD PUSH8 0x14ADF4B7320334B9 PUSH1 0x1D SHL DUP2 MSTORE PUSH1 0x20 SWAP1 RETURN JUMPDEST POP POP CALLVALUE PUSH2 0x25F JUMPI DUP2 PUSH1 0x3 NOT CALLDATASIZE ADD SLT PUSH2 0x25F JUMPI PUSH1 0x20 SWAP1 PUSH1 0x2 SLOAD SWAP1 MLOAD SWAP1 DUP2 MSTORE RETURN JUMPDEST POP POP CALLVALUE PUSH2 0x25F JUMPI DUP2 PUSH1 0x3 NOT CALLDATASIZE ADD SLT PUSH2 0x25F JUMPI PUSH1 0x20 SWAP1 PUSH1 0x10 SLOAD SWAP1 MLOAD SWAP1 DUP2 MSTORE RETURN JUMPDEST POP POP CALLVALUE PUSH2 0x25F JUMPI DUP1 PUSH1 0x3 NOT CALLDATASIZE ADD SLT PUSH2 0x25F JUMPI PUSH1 0x20 SWAP1 PUSH2 0x8E7 PUSH2 0x1288 PUSH2 0x1426 JUMP JUMPDEST PUSH1 0x24 CALLDATALOAD SWAP1 CALLER PUSH2 0x1744 JUMP JUMPDEST POP POP CALLVALUE PUSH2 0x25F JUMPI DUP2 PUSH1 0x3 NOT CALLDATASIZE ADD SLT PUSH2 0x25F JUMPI PUSH1 0x20 SWAP1 PUSH2 0x574 PUSH2 0x12B6 PUSH1 0xB SLOAD TIMESTAMP PUSH2 0x18A0 JUMP JUMPDEST PUSH2 0x12C5 PUSH1 0xA SLOAD SWAP2 PUSH1 0xC SLOAD PUSH2 0x186D JUMP JUMPDEST SWAP1 PUSH2 0x1473 JUMP JUMPDEST SWAP2 SWAP1 POP CALLVALUE PUSH2 0x41F JUMPI DUP3 PUSH1 0x3 NOT CALLDATASIZE ADD SLT PUSH2 0x41F JUMPI DUP1 MLOAD SWAP2 DUP4 PUSH1 0x3 SLOAD SWAP1 PUSH1 0x1 SWAP1 DUP3 DUP3 SHR SWAP3 DUP3 DUP2 AND DUP1 ISZERO PUSH2 0x1398 JUMPI JUMPDEST PUSH1 0x20 SWAP6 DUP7 DUP7 LT DUP3 EQ PUSH2 0x1385 JUMPI POP DUP5 DUP9 MSTORE SWAP1 DUP2 ISZERO PUSH2 0x1363 JUMPI POP PUSH1 0x1 EQ PUSH2 0x1328 JUMPI JUMPDEST PUSH2 0xA73 DUP7 DUP7 PUSH2 0xA69 DUP3 DUP12 SUB DUP4 PUSH2 0x1496 JUMP JUMPDEST SWAP3 SWAP6 POP PUSH1 0x3 DUP4 MSTORE DUP6 DUP4 KECCAK256 JUMPDEST DUP3 DUP5 LT PUSH2 0x1350 JUMPI POP POP POP DUP3 PUSH2 0xA73 SWAP5 PUSH2 0xA69 SWAP3 DUP3 ADD ADD SWAP5 CODESIZE PUSH2 0x1317 JUMP JUMPDEST DUP1 SLOAD DUP7 DUP6 ADD DUP9 ADD MSTORE SWAP3 DUP7 ADD SWAP3 DUP2 ADD PUSH2 0x1333 JUMP JUMPDEST PUSH1 0xFF NOT AND DUP8 DUP7 ADD MSTORE POP POP POP ISZERO ISZERO PUSH1 0x5 SHL DUP4 ADD ADD SWAP3 POP PUSH2 0xA69 DUP3 PUSH2 0xA73 CODESIZE PUSH2 0x1317 JUMP JUMPDEST PUSH4 0x4E487B71 PUSH1 0xE0 SHL DUP5 MSTORE PUSH1 0x22 SWAP1 MSTORE PUSH1 0x24 DUP4 REVERT JUMPDEST SWAP4 PUSH1 0x7F AND SWAP4 PUSH2 0x12F7 JUMP JUMPDEST POP POP CALLVALUE PUSH2 0x25F JUMPI DUP2 PUSH1 0x3 NOT CALLDATASIZE ADD SLT PUSH2 0x25F JUMPI PUSH1 0x20 SWAP1 PUSH1 0x7 SLOAD SWAP1 MLOAD SWAP1 DUP2 MSTORE RETURN JUMPDEST DUP5 SWAP1 CALLVALUE PUSH2 0x25F JUMPI DUP2 PUSH1 0x3 NOT CALLDATASIZE ADD SLT PUSH2 0x25F JUMPI DUP1 PUSH2 0xDEAD PUSH1 0x20 SWAP3 MSTORE RETURN JUMPDEST PUSH1 0x20 DUP1 DUP3 MSTORE DUP3 MLOAD DUP2 DUP4 ADD DUP2 SWAP1 MSTORE SWAP1 SWAP4 SWAP3 PUSH1 0x0 JUMPDEST DUP3 DUP2 LT PUSH2 0x1412 JUMPI POP POP PUSH1 0x40 SWAP3 SWAP4 POP PUSH1 0x0 DUP4 DUP3 DUP5 ADD ADD MSTORE PUSH1 0x1F DUP1 NOT SWAP2 ADD AND ADD ADD SWAP1 JUMP JUMPDEST DUP2 DUP2 ADD DUP7 ADD MLOAD DUP5 DUP3 ADD PUSH1 0x40 ADD MSTORE DUP6 ADD PUSH2 0x13F0 JUMP JUMPDEST PUSH1 0x4 CALLDATALOAD SWAP1 PUSH1 0x1 PUSH1 0x1 PUSH1 0xA0 SHL SUB DUP3 AND DUP3 SUB PUSH2 0x143C JUMPI JUMP JUMPDEST PUSH1 0x0 DUP1 REVERT JUMPDEST PUSH1 0x24 CALLDATALOAD SWAP1 PUSH1 0x1 PUSH1 0x1 PUSH1 0xA0 SHL SUB DUP3 AND DUP3 SUB PUSH2 0x143C JUMPI JUMP JUMPDEST CALLVALUE PUSH2 0x143C JUMPI PUSH1 0x0 CALLDATASIZE PUSH1 0x3 NOT ADD SLT PUSH2 0x143C JUMPI PUSH1 0x20 PUSH1 0x40 MLOAD PUSH1 0x96 DUP2 MSTORE RETURN JUMPDEST SWAP2 SWAP1 DUP3 ADD DUP1 SWAP3 GT PUSH2 0x1480 JUMPI JUMP JUMPDEST PUSH4 0x4E487B71 PUSH1 0xE0 SHL PUSH1 0x0 MSTORE PUSH1 0x11 PUSH1 0x4 MSTORE PUSH1 0x24 PUSH1 0x0 REVERT JUMPDEST PUSH1 0x1F SWAP1 SWAP2 ADD PUSH1 0x1F NOT AND DUP2 ADD SWAP1 PUSH1 0x1 PUSH1 0x1 PUSH1 0x40 SHL SUB DUP3 GT SWAP1 DUP3 LT OR PUSH2 0x14B9 JUMPI PUSH1 0x40 MSTORE JUMP JUMPDEST PUSH4 0x4E487B71 PUSH1 0xE0 SHL PUSH1 0x0 MSTORE PUSH1 0x41 PUSH1 0x4 MSTORE PUSH1 0x24 PUSH1 0x0 REVERT JUMPDEST PUSH1 0x1 PUSH1 0x1 PUSH1 0xA0 SHL SUB SWAP3 SWAP2 DUP4 DUP3 AND SWAP2 SWAP1 DUP3 ISZERO PUSH2 0x172B JUMPI DUP5 DUP2 AND SWAP2 DUP3 ISZERO PUSH2 0x1712 JUMPI DUP5 SWAP3 PUSH2 0x14F9 DUP3 PUSH2 0x1B8B JUMP JUMPDEST PUSH2 0x1502 DUP4 PUSH2 0x1B8B JUMP JUMPDEST PUSH1 0x5 SLOAD SWAP6 DUP8 PUSH1 0xFF SWAP8 DUP9 DUP2 AND DUP1 PUSH2 0x1706 JUMPI JUMPDEST DUP1 PUSH2 0x16EE JUMPI JUMPDEST DUP1 PUSH2 0x16D6 JUMPI JUMPDEST PUSH2 0x15B5 JUMPI JUMPDEST POP POP POP POP DUP1 PUSH2 0xD1A PUSH2 0x153A SWAP5 DUP5 PUSH2 0xD1A SWAP5 PUSH2 0x196B JUMP JUMPDEST PUSH1 0x5 SLOAD DUP3 DUP2 AND SWAP3 DUP4 PUSH2 0x15A8 JUMPI JUMPDEST POP DUP3 PUSH2 0x1598 JUMPI JUMPDEST POP POP SWAP1 DUP2 PUSH2 0x157C JUMPI JUMPDEST DUP2 PUSH2 0x156E JUMPI JUMPDEST POP PUSH2 0x1564 JUMPI JUMP JUMPDEST PUSH2 0x156C PUSH2 0x2105 JUMP JUMPDEST JUMP JUMPDEST SWAP1 POP PUSH1 0x6 SLOAD AND ISZERO ISZERO CODESIZE PUSH2 0x155D JUMP JUMPDEST SWAP1 POP ADDRESS PUSH1 0x0 MSTORE PUSH1 0x0 PUSH1 0x20 MSTORE PUSH1 0x40 PUSH1 0x0 KECCAK256 SLOAD PUSH1 0x7 SLOAD GT ISZERO SWAP1 PUSH2 0x1557 JUMP JUMPDEST PUSH1 0x8 SHR DUP4 AND EQ ISZERO SWAP1 POP CODESIZE DUP1 PUSH2 0x154E JUMP JUMPDEST PUSH1 0x8 SLOAD AND ISZERO SWAP3 POP CODESIZE PUSH2 0x1547 JUMP JUMPDEST PUSH1 0x8 SHR AND DUP3 DUP2 EQ SWAP2 SWAP1 DUP8 EQ DUP1 DUP1 ISZERO PUSH2 0x16CF JUMPI JUMPDEST PUSH2 0x15D5 JUMPI JUMPDEST DUP10 SWAP2 POP PUSH2 0x1524 JUMP JUMPDEST SWAP1 SWAP2 SWAP4 SWAP3 SWAP6 POP PUSH1 0x0 SWAP4 PUSH2 0x16BE JUMPI JUMPDEST PUSH2 0x1F4 SWAP4 DUP5 ADD DUP1 SWAP5 GT PUSH2 0x1480 JUMPI PUSH2 0x1600 SWAP4 PUSH2 0x2710 SWAP5 DUP6 SWAP2 DUP5 PUSH2 0x186D JUMP JUMPDEST DIV SWAP6 PUSH1 0x96 DUP4 MUL DUP4 DUP2 DIV PUSH1 0x96 EQ DUP5 ISZERO OR ISZERO PUSH2 0x1480 JUMPI PUSH1 0x0 DUP1 MLOAD PUSH1 0x20 PUSH2 0x260A DUP4 CODECOPY DUP2 MLOAD SWAP2 MSTORE PUSH1 0x60 PUSH2 0xD1A SWAP6 PUSH2 0x1654 PUSH2 0x153A SWAP12 PUSH2 0xD1A SWAP11 DUP15 SWAP7 DIV SWAP3 DUP4 PUSH2 0x16AF JUMPI JUMPDEST PUSH2 0x1648 DUP5 DUP4 PUSH2 0x18A0 JUMP JUMPDEST DUP1 PUSH2 0x169E JUMPI JUMPDEST POP PUSH2 0x18A0 JUMP JUMPDEST SWAP6 PUSH2 0x1677 JUMPI JUMPDEST PUSH1 0x40 MLOAD SWAP1 DUP2 MSTORE PUSH1 0x0 PUSH1 0x20 DUP3 ADD MSTORE PUSH1 0x0 PUSH1 0x40 DUP3 ADD MSTORE LOG3 SWAP5 DUP3 SWAP4 PUSH2 0x15CD JUMP JUMPDEST PUSH1 0x0 DUP6 DUP2 MSTORE PUSH1 0x9 PUSH1 0x20 MSTORE PUSH1 0x40 SWAP1 KECCAK256 PUSH2 0x1699 SWAP1 TIMESTAMP PUSH1 0x1 PUSH1 0x1 PUSH1 0x40 SHL SUB AND SWAP1 PUSH2 0x18AD JUMP JUMPDEST PUSH2 0x165A JUMP JUMPDEST PUSH2 0x16A9 SWAP1 ADDRESS DUP14 PUSH2 0x196B JUMP JUMPDEST CODESIZE PUSH2 0x164E JUMP JUMPDEST PUSH2 0x16B9 DUP5 DUP13 PUSH2 0x18D0 JUMP JUMPDEST PUSH2 0x163E JUMP JUMPDEST SWAP3 POP PUSH2 0x16C9 DUP3 PUSH2 0x20A6 JUMP JUMPDEST SWAP3 PUSH2 0x15E3 JUMP JUMPDEST POP DUP3 PUSH2 0x15C8 JUMP JUMPDEST POP DUP4 PUSH1 0x0 MSTORE PUSH1 0xF PUSH1 0x20 MSTORE DUP9 PUSH1 0x40 PUSH1 0x0 KECCAK256 SLOAD AND ISZERO PUSH2 0x151F JUMP JUMPDEST POP DUP8 PUSH1 0x0 MSTORE PUSH1 0xF PUSH1 0x20 MSTORE DUP9 PUSH1 0x40 PUSH1 0x0 KECCAK256 SLOAD AND ISZERO PUSH2 0x1519 JUMP JUMPDEST POP DUP9 PUSH1 0x8 SLOAD AND ISZERO PUSH2 0x1513 JUMP JUMPDEST PUSH1 0x40 MLOAD PUSH4 0xEC442F05 PUSH1 0xE0 SHL DUP2 MSTORE PUSH1 0x0 PUSH1 0x4 DUP3 ADD MSTORE PUSH1 0x24 SWAP1 REVERT JUMPDEST PUSH1 0x40 MLOAD PUSH4 0x4B637E8F PUSH1 0xE1 SHL DUP2 MSTORE PUSH1 0x0 PUSH1 0x4 DUP3 ADD MSTORE PUSH1 0x24 SWAP1 REVERT JUMPDEST PUSH1 0x1 PUSH1 0x1 PUSH1 0xA0 SHL SUB SWAP1 DUP2 AND SWAP2 DUP3 ISZERO PUSH2 0x17BE JUMPI AND SWAP2 DUP3 ISZERO PUSH2 0x17A5 JUMPI PUSH1 0x20 PUSH32 0x8C5BE1E5EBEC7D5BD14F71427D1E84F3DD0314C0F7B2291E5B200AC8C7C3B925 SWAP2 DUP4 PUSH1 0x0 MSTORE PUSH1 0x1 DUP3 MSTORE PUSH1 0x40 PUSH1 0x0 KECCAK256 DUP6 PUSH1 0x0 MSTORE DUP3 MSTORE DUP1 PUSH1 0x40 PUSH1 0x0 KECCAK256 SSTORE PUSH1 0x40 MLOAD SWAP1 DUP2 MSTORE LOG3 JUMP JUMPDEST PUSH1 0x40 MLOAD PUSH4 0x4A1406B1 PUSH1 0xE1 SHL DUP2 MSTORE PUSH1 0x0 PUSH1 0x4 DUP3 ADD MSTORE PUSH1 0x24 SWAP1 REVERT JUMPDEST PUSH1 0x40 MLOAD PUSH4 0xE602DF05 PUSH1 0xE0 SHL DUP2 MSTORE PUSH1 0x0 PUSH1 0x4 DUP3 ADD MSTORE PUSH1 0x24 SWAP1 REVERT JUMPDEST PUSH1 0x40 SWAP2 SWAP5 SWAP4 SWAP3 PUSH1 0x60 DUP3 ADD SWAP6 PUSH1 0x1 DUP1 PUSH1 0xA0 SHL SUB AND DUP3 MSTORE PUSH1 0x20 DUP3 ADD MSTORE ADD MSTORE JUMP JUMPDEST ISZERO PUSH2 0x17FC JUMPI JUMP JUMPDEST PUSH1 0x40 MLOAD PUSH3 0x461BCD PUSH1 0xE5 SHL DUP2 MSTORE PUSH1 0x20 PUSH1 0x4 DUP3 ADD MSTORE PUSH1 0xA PUSH1 0x24 DUP3 ADD MSTORE PUSH10 0x4F6E6C79206375727665 PUSH1 0xB0 SHL PUSH1 0x44 DUP3 ADD MSTORE PUSH1 0x64 SWAP1 REVERT JUMPDEST RETURNDATASIZE ISZERO PUSH2 0x1868 JUMPI RETURNDATASIZE SWAP1 PUSH1 0x1 PUSH1 0x1 PUSH1 0x40 SHL SUB DUP3 GT PUSH2 0x14B9 JUMPI PUSH1 0x40 MLOAD SWAP2 PUSH2 0x185C PUSH1 0x1F DUP3 ADD PUSH1 0x1F NOT AND PUSH1 0x20 ADD DUP5 PUSH2 0x1496 JUMP JUMPDEST DUP3 MSTORE RETURNDATASIZE PUSH1 0x0 PUSH1 0x20 DUP5 ADD RETURNDATACOPY JUMP JUMPDEST PUSH1 0x60 SWAP1 JUMP JUMPDEST DUP2 DUP2 MUL SWAP3 SWAP2 DUP2 ISZERO SWAP2 DUP5 DIV EQ OR ISZERO PUSH2 0x1480 JUMPI JUMP JUMPDEST DUP2 ISZERO PUSH2 0x188A JUMPI DIV SWAP1 JUMP JUMPDEST PUSH4 0x4E487B71 PUSH1 0xE0 SHL PUSH1 0x0 MSTORE PUSH1 0x12 PUSH1 0x4 MSTORE PUSH1 0x24 PUSH1 0x0 REVERT JUMPDEST SWAP2 SWAP1 DUP3 SUB SWAP2 DUP3 GT PUSH2 0x1480 JUMPI JUMP JUMPDEST DUP1 SLOAD PUSH1 0x1 PUSH1 0x1 PUSH1 0xC0 SHL SUB AND PUSH1 0xC0 SWAP3 SWAP1 SWAP3 SHL PUSH1 0x1 PUSH1 0x1 PUSH1 0xC0 SHL SUB NOT AND SWAP2 SWAP1 SWAP2 OR SWAP1 SSTORE JUMP JUMPDEST PUSH1 0x1 PUSH1 0x1 PUSH1 0xA0 SHL SUB DUP2 AND SWAP1 DUP2 PUSH2 0x1922 JUMPI POP PUSH2 0x18ED DUP3 PUSH1 0x2 SLOAD PUSH2 0x1473 JUMP JUMPDEST PUSH1 0x2 SSTORE JUMPDEST PUSH1 0x0 DUP1 MLOAD PUSH1 0x20 PUSH2 0x25EA DUP4 CODECOPY DUP2 MLOAD SWAP2 MSTORE PUSH1 0x20 PUSH2 0xDEAD SWAP4 DUP5 PUSH1 0x0 MSTORE PUSH1 0x0 DUP3 MSTORE PUSH1 0x40 PUSH1 0x0 KECCAK256 DUP2 DUP2 SLOAD ADD SWAP1 SSTORE PUSH1 0x40 MLOAD SWAP1 DUP2 MSTORE LOG3 JUMP JUMPDEST PUSH1 0x0 SWAP1 DUP3 DUP3 MSTORE DUP2 PUSH1 0x20 MSTORE PUSH1 0x40 DUP3 KECCAK256 SLOAD SWAP1 DUP5 DUP3 LT PUSH2 0x194E JUMPI POP DUP4 PUSH1 0x40 SWAP2 DUP5 DUP5 MSTORE DUP4 PUSH1 0x20 MSTORE SUB SWAP2 KECCAK256 SSTORE PUSH2 0x18F1 JUMP JUMPDEST PUSH2 0x1200 DUP6 PUSH1 0x40 MLOAD SWAP4 DUP5 SWAP4 PUSH4 0x391434E3 PUSH1 0xE2 SHL DUP6 MSTORE PUSH1 0x4 DUP6 ADD PUSH2 0x17D7 JUMP JUMPDEST PUSH1 0x1 PUSH1 0x1 PUSH1 0xA0 SHL SUB DUP1 DUP3 AND SWAP3 SWAP1 SWAP2 DUP4 PUSH2 0x19D3 JUMPI POP PUSH1 0x0 DUP1 MLOAD PUSH1 0x20 PUSH2 0x25EA DUP4 CODECOPY DUP2 MLOAD SWAP2 MSTORE SWAP2 PUSH1 0x20 SWAP2 PUSH2 0x199E DUP7 PUSH1 0x2 SLOAD PUSH2 0x1473 JUMP JUMPDEST PUSH1 0x2 SSTORE JUMPDEST AND SWAP4 DUP5 PUSH2 0x19BB JUMPI DUP1 PUSH1 0x2 SLOAD SUB PUSH1 0x2 SSTORE JUMPDEST PUSH1 0x40 MLOAD SWAP1 DUP2 MSTORE LOG3 JUMP JUMPDEST DUP5 PUSH1 0x0 MSTORE PUSH1 0x0 DUP3 MSTORE PUSH1 0x40 PUSH1 0x0 KECCAK256 DUP2 DUP2 SLOAD ADD SWAP1 SSTORE PUSH2 0x19B2 JUMP JUMPDEST PUSH1 0x0 SWAP1 DUP5 DUP3 MSTORE DUP2 PUSH1 0x20 MSTORE PUSH1 0x40 DUP3 KECCAK256 SLOAD SWAP1 DUP7 DUP3 LT PUSH2 0x1A12 JUMPI POP SWAP2 DUP2 PUSH1 0x40 DUP8 PUSH1 0x20 SWAP6 DUP9 PUSH1 0x0 DUP1 MLOAD PUSH1 0x20 PUSH2 0x25EA DUP4 CODECOPY DUP2 MLOAD SWAP2 MSTORE SWAP9 SWAP7 MSTORE DUP4 DUP8 MSTORE SUB SWAP2 KECCAK256 SSTORE PUSH2 0x19A2 JUMP JUMPDEST PUSH2 0x1200 DUP8 PUSH1 0x40 MLOAD SWAP4 DUP5 SWAP4 PUSH4 0x391434E3 PUSH1 0xE2 SHL DUP6 MSTORE PUSH1 0x4 DUP6 ADD PUSH2 0x17D7 JUMP JUMPDEST DUP1 SLOAD PUSH1 0x1 PUSH1 0x80 SHL PUSH1 0x1 PUSH1 0xC0 SHL SUB NOT AND PUSH1 0x80 SWAP3 SWAP1 SWAP3 SHL PUSH1 0x1 PUSH1 0x80 SHL PUSH1 0x1 PUSH1 0xC0 SHL SUB AND SWAP2 SWAP1 SWAP2 OR SWAP1 SSTORE JUMP JUMPDEST PUSH2 0x1A60 PUSH2 0x1BC7 JUMP JUMPDEST ISZERO PUSH2 0x156C JUMPI PUSH2 0xDEAD PUSH1 0x0 MSTORE PUSH1 0x9 PUSH1 0x20 MSTORE PUSH1 0xD SLOAD PUSH32 0x960B1051749987B45B5679007FFF577A1C2F763EC21C15A6C5EB193075003787 DUP1 SLOAD PUSH2 0x156C SWAP3 PUSH1 0x0 DUP1 MLOAD PUSH1 0x20 PUSH2 0x258A DUP4 CODECOPY DUP2 MLOAD SWAP2 MSTORE SWAP3 SWAP2 PUSH2 0x1AB4 SWAP2 PUSH2 0x18A0 JUMP JUMPDEST DUP1 PUSH2 0x1B03 JUMPI JUMPDEST POP POP DUP1 SLOAD PUSH1 0x1 PUSH1 0x1 PUSH1 0x40 SHL SUB SWAP1 PUSH2 0x1AEA SWAP1 PUSH2 0x1ADB PUSH1 0x80 DUP3 SWAP1 SHR DUP5 AND TIMESTAMP PUSH2 0x18A0 JUMP JUMPDEST SWAP1 PUSH1 0x1 PUSH1 0x1 PUSH1 0x80 SHL SUB AND PUSH2 0x186D JUMP JUMPDEST PUSH2 0x1AF9 PUSH1 0x1 DUP5 ADD SWAP2 DUP3 SLOAD PUSH2 0x1473 JUMP JUMPDEST SWAP1 SSTORE TIMESTAMP AND SWAP1 PUSH2 0x1A2F JUMP JUMPDEST PUSH1 0xE SLOAD DUP4 SLOAD PUSH2 0x1B44 SWAP2 PUSH2 0x12C5 SWAP1 PUSH2 0x1B30 SWAP1 PUSH1 0x80 DUP5 SWAP1 SHR PUSH1 0x1 PUSH1 0x1 PUSH1 0x40 SHL SUB AND SWAP1 DUP2 DUP2 GT ISZERO PUSH2 0x1B84 JUMPI PUSH2 0x18A0 JUMP JUMPDEST PUSH1 0x1 DUP8 ADD SLOAD SWAP3 PUSH1 0x1 PUSH1 0x1 PUSH1 0x80 SHL SUB AND PUSH2 0x186D JUMP JUMPDEST DUP1 PUSH2 0x1B58 JUMPI JUMPDEST POP POP PUSH1 0xD SLOAD SWAP1 SSTORE CODESIZE DUP1 PUSH2 0x1ABA JUMP JUMPDEST PUSH8 0xDE0B6B3A7640000 SWAP2 PUSH2 0x1B6B SWAP2 PUSH2 0x186D JUMP JUMPDEST DIV PUSH2 0x1B7B PUSH1 0x3 DUP5 ADD SWAP2 DUP3 SLOAD PUSH2 0x1473 JUMP JUMPDEST SWAP1 SSTORE CODESIZE DUP1 PUSH2 0x1B4A JUMP JUMPDEST POP DUP1 PUSH2 0x18A0 JUMP JUMPDEST PUSH2 0x1B94 DUP2 PUSH2 0x1C36 JUMP JUMPDEST ISZERO PUSH2 0x1BC4 JUMPI PUSH1 0x1 DUP1 PUSH1 0xA0 SHL SUB AND PUSH1 0x0 MSTORE PUSH1 0x9 PUSH1 0x20 MSTORE PUSH2 0x156C PUSH1 0x40 PUSH1 0x0 KECCAK256 PUSH1 0xD SLOAD PUSH2 0x1AB4 PUSH1 0x2 DUP4 ADD SWAP2 DUP3 SLOAD SWAP1 PUSH2 0x18A0 JUMP JUMPDEST POP JUMP JUMPDEST PUSH2 0xDEAD PUSH1 0x0 DUP2 SWAP1 MSTORE PUSH1 0xF PUSH1 0x20 MSTORE PUSH32 0x99629F56119585BF27511B6B7D295DFFB54757453FCC3DABCF51D92028301F10 SLOAD PUSH1 0xFF AND PUSH2 0x1C30 JUMPI PUSH1 0x5 SLOAD PUSH1 0x8 SHR PUSH1 0x1 PUSH1 0x1 PUSH1 0xA0 SHL SUB AND DUP1 ISZERO ISZERO SWAP2 DUP3 PUSH2 0x1C26 JUMPI JUMPDEST POP POP PUSH2 0x1C21 JUMPI PUSH1 0x1 SWAP1 JUMP JUMPDEST PUSH1 0x0 SWAP1 JUMP JUMPDEST EQ SWAP1 POP CODESIZE DUP1 PUSH2 0x1C16 JUMP JUMPDEST POP PUSH1 0x0 SWAP1 JUMP JUMPDEST PUSH1 0x1 PUSH1 0x1 PUSH1 0xA0 SHL SUB SWAP1 DUP2 AND SWAP1 DUP2 ISZERO PUSH2 0x1C79 JUMPI DUP2 PUSH1 0x0 MSTORE PUSH1 0xF PUSH1 0x20 MSTORE PUSH1 0xFF PUSH1 0x40 PUSH1 0x0 KECCAK256 SLOAD AND PUSH2 0x1C79 JUMPI PUSH1 0x5 SLOAD PUSH1 0x8 SHR AND DUP1 ISZERO ISZERO SWAP2 DUP3 PUSH2 0x1C26 JUMPI POP POP PUSH2 0x1C21 JUMPI PUSH1 0x1 SWAP1 JUMP JUMPDEST POP POP PUSH1 0x0 SWAP1 JUMP JUMPDEST PUSH2 0x1C88 PUSH2 0x1BC7 JUMP JUMPDEST ISZERO PUSH2 0x156C JUMPI PUSH2 0xDEAD PUSH1 0x0 DUP2 DUP2 MSTORE PUSH1 0x9 PUSH1 0x20 MSTORE PUSH1 0x0 DUP1 MLOAD PUSH1 0x20 PUSH2 0x258A DUP4 CODECOPY DUP2 MLOAD SWAP2 MSTORE SWAP2 PUSH2 0x1CB2 PUSH2 0x1F9D JUMP JUMPDEST DUP2 MSTORE PUSH1 0x20 DUP2 SWAP1 MSTORE PUSH1 0x40 DUP2 KECCAK256 SLOAD DUP3 SLOAD PUSH1 0x1 PUSH1 0x1 PUSH1 0x80 SHL SUB SWAP1 DUP2 AND DUP1 DUP4 LT SWAP4 SWAP2 SWAP3 SWAP2 SWAP1 DUP5 DUP1 PUSH2 0x1E17 JUMPI JUMPDEST PUSH2 0x1DCA JUMPI JUMPDEST DUP3 DUP2 DUP2 GT SWAP6 DUP7 PUSH1 0x0 EQ PUSH2 0x1D8E JUMPI POP PUSH2 0x1D04 SWAP3 POP SWAP1 PUSH2 0x1CFC SWAP2 PUSH2 0x18A0 JUMP JUMPDEST PUSH1 0xC SLOAD PUSH2 0x1473 JUMP JUMPDEST PUSH1 0xC SSTORE JUMPDEST DUP4 SLOAD PUSH1 0x1 PUSH1 0x1 PUSH1 0x80 SHL SUB NOT AND SWAP2 AND OR DUP3 SSTORE TIMESTAMP PUSH1 0x1 PUSH1 0x1 PUSH1 0x40 SHL SUB AND SWAP1 PUSH2 0x1D2E DUP3 DUP5 PUSH2 0x1A2F JUMP JUMPDEST PUSH1 0xFF PUSH1 0x5 SLOAD AND ISZERO SWAP1 DUP2 PUSH2 0x1D86 JUMPI JUMPDEST POP DUP1 PUSH2 0x1D54 JUMPI JUMPDEST PUSH2 0x1D4B JUMPI POP POP JUMP JUMPDEST PUSH2 0x156C SWAP2 PUSH2 0x18AD JUMP JUMPDEST POP CALLER PUSH32 0x0 PUSH1 0x1 PUSH1 0x1 PUSH1 0xA0 SHL SUB AND EQ PUSH2 0x1D43 JUMP JUMPDEST SWAP1 POP CODESIZE PUSH2 0x1D3C JUMP JUMPDEST PUSH2 0x1D9B JUMPI JUMPDEST POP POP POP PUSH2 0x1D08 JUMP JUMPDEST PUSH2 0x1DA4 SWAP2 PUSH2 0x18A0 JUMP JUMPDEST PUSH1 0xC SLOAD DUP2 DUP2 LT PUSH2 0x1DC3 JUMPI PUSH2 0x1DB8 SWAP3 POP PUSH2 0x18A0 JUMP JUMPDEST PUSH1 0xC SSTORE CODESIZE DUP1 DUP3 PUSH2 0x1D93 JUMP JUMPDEST POP POP PUSH2 0x1DB8 JUMP JUMPDEST PUSH1 0x1 DUP7 ADD DUP1 SLOAD SWAP1 PUSH2 0x1DEE PUSH2 0x1DE7 DUP5 PUSH2 0x1DE2 DUP9 DUP7 PUSH2 0x186D JUMP JUMPDEST PUSH2 0x1880 JUMP JUMPDEST DUP1 SWAP4 PUSH2 0x18A0 JUMP JUMPDEST PUSH1 0xA SLOAD DUP2 GT PUSH2 0x1E0D JUMPI PUSH2 0x1E03 SWAP1 PUSH1 0xA SLOAD PUSH2 0x18A0 JUMP JUMPDEST PUSH1 0xA SSTORE JUMPDEST SSTORE PUSH2 0x1CDF JUMP JUMPDEST POP DUP4 PUSH1 0xA SSTORE PUSH2 0x1E07 JUMP JUMPDEST POP DUP1 ISZERO ISZERO PUSH2 0x1CDA JUMP JUMPDEST PUSH2 0x1E29 DUP2 PUSH2 0x1C36 JUMP JUMPDEST ISZERO PUSH2 0x1BC4 JUMPI PUSH1 0x1 PUSH1 0x1 PUSH1 0xA0 SHL SUB SWAP1 DUP2 AND PUSH1 0x0 DUP2 DUP2 MSTORE PUSH1 0x9 PUSH1 0x20 MSTORE PUSH1 0x40 DUP2 KECCAK256 SWAP3 SWAP2 PUSH2 0x1E51 PUSH2 0x1F9D JUMP JUMPDEST DUP2 MSTORE PUSH1 0x20 DUP2 SWAP1 MSTORE PUSH1 0x40 DUP2 KECCAK256 SLOAD DUP4 SLOAD PUSH1 0x1 PUSH1 0x1 PUSH1 0x80 SHL SUB SWAP1 DUP2 AND DUP1 DUP4 LT SWAP4 SWAP2 SWAP3 SWAP2 SWAP1 DUP5 DUP1 PUSH2 0x1F94 JUMPI JUMPDEST PUSH2 0x1F53 JUMPI JUMPDEST DUP3 DUP2 DUP2 GT SWAP6 DUP7 PUSH1 0x0 EQ PUSH2 0x1F17 JUMPI POP PUSH2 0x1E9B SWAP3 POP SWAP1 PUSH2 0x1CFC SWAP2 PUSH2 0x18A0 JUMP JUMPDEST PUSH1 0xC SSTORE JUMPDEST DUP5 SLOAD PUSH1 0x1 PUSH1 0x1 PUSH1 0x80 SHL SUB NOT AND SWAP2 AND OR DUP4 SSTORE TIMESTAMP PUSH1 0x1 PUSH1 0x1 PUSH1 0x40 SHL SUB AND SWAP2 PUSH2 0x1EC5 DUP4 DUP6 PUSH2 0x1A2F JUMP JUMPDEST PUSH1 0xFF PUSH1 0x5 SLOAD AND ISZERO SWAP2 DUP3 PUSH2 0x1F0F JUMPI JUMPDEST POP DUP2 PUSH2 0x1EE3 JUMPI JUMPDEST POP PUSH2 0x1D4B JUMPI POP POP JUMP JUMPDEST SWAP1 POP PUSH32 0x0 AND CALLER EQ CODESIZE PUSH2 0x1EDA JUMP JUMPDEST SWAP2 POP CODESIZE PUSH2 0x1ED3 JUMP JUMPDEST PUSH2 0x1F24 JUMPI JUMPDEST POP POP POP PUSH2 0x1E9F JUMP JUMPDEST PUSH2 0x1F2D SWAP2 PUSH2 0x18A0 JUMP JUMPDEST PUSH1 0xC SLOAD DUP2 DUP2 LT PUSH2 0x1F4C JUMPI PUSH2 0x1F41 SWAP3 POP PUSH2 0x18A0 JUMP JUMPDEST PUSH1 0xC SSTORE CODESIZE DUP1 DUP3 PUSH2 0x1F1C JUMP JUMPDEST POP POP PUSH2 0x1F41 JUMP JUMPDEST PUSH1 0x1 DUP8 ADD DUP1 SLOAD SWAP1 PUSH2 0x1F6B PUSH2 0x1DE7 DUP5 PUSH2 0x1DE2 DUP9 DUP7 PUSH2 0x186D JUMP JUMPDEST PUSH1 0xA SLOAD DUP2 GT PUSH2 0x1F8A JUMPI PUSH2 0x1F80 SWAP1 PUSH1 0xA SLOAD PUSH2 0x18A0 JUMP JUMPDEST PUSH1 0xA SSTORE JUMPDEST SSTORE PUSH2 0x1E7E JUMP JUMPDEST POP DUP4 PUSH1 0xA SSTORE PUSH2 0x1F84 JUMP JUMPDEST POP DUP1 ISZERO ISZERO PUSH2 0x1E79 JUMP JUMPDEST PUSH2 0x1FA9 PUSH1 0xB SLOAD TIMESTAMP PUSH2 0x18A0 JUMP JUMPDEST DUP1 ISZERO ISZERO DUP1 PUSH2 0x1FDE JUMPI JUMPDEST PUSH2 0x1FBE JUMPI JUMPDEST POP TIMESTAMP PUSH1 0xB SSTORE JUMP JUMPDEST PUSH2 0x1FCD PUSH2 0x1FD5 SWAP2 PUSH1 0xC SLOAD PUSH2 0x186D JUMP JUMPDEST PUSH1 0xA SLOAD PUSH2 0x1473 JUMP JUMPDEST PUSH1 0xA SSTORE CODESIZE PUSH2 0x1FB7 JUMP JUMPDEST POP PUSH1 0xC SLOAD ISZERO ISZERO PUSH2 0x1FB2 JUMP JUMPDEST DUP1 ISZERO PUSH2 0x1BC4 JUMPI PUSH2 0x1FF7 PUSH2 0x1F9D JUMP JUMPDEST PUSH1 0xA SLOAD SWAP1 DUP2 ISZERO PUSH2 0x2073 JUMPI PUSH2 0x200E PUSH1 0x10 SLOAD DUP1 SWAP3 PUSH2 0x1473 JUMP JUMPDEST SWAP1 PUSH2 0x2069 JUMPI JUMPDEST PUSH8 0xDE0B6B3A7640000 SWAP1 DUP2 DUP2 MUL SWAP2 DUP2 DUP4 DIV EQ DUP2 ISZERO OR ISZERO PUSH2 0x1480 JUMPI PUSH2 0x2054 PUSH2 0x204C PUSH1 0x0 DUP1 MLOAD PUSH1 0x20 PUSH2 0x25CA DUP4 CODECOPY DUP2 MLOAD SWAP2 MSTORE SWAP5 PUSH1 0x40 SWAP5 PUSH2 0x1880 JUMP JUMPDEST PUSH1 0xD SLOAD PUSH2 0x1473 JUMP JUMPDEST DUP1 PUSH1 0xD SSTORE TIMESTAMP PUSH1 0xE SSTORE DUP3 MLOAD SWAP2 DUP3 MSTORE PUSH1 0x20 DUP3 ADD MSTORE LOG1 JUMP JUMPDEST PUSH1 0x0 PUSH1 0x10 SSTORE PUSH2 0x2014 JUMP JUMPDEST PUSH1 0x0 DUP1 MLOAD PUSH1 0x20 PUSH2 0x25CA DUP4 CODECOPY DUP2 MLOAD SWAP2 MSTORE SWAP2 POP DUP1 PUSH2 0x2093 PUSH1 0x40 SWAP3 PUSH1 0x10 SLOAD PUSH2 0x1473 JUMP JUMPDEST PUSH1 0x10 SSTORE PUSH1 0xD SLOAD DUP3 MLOAD SWAP2 DUP3 MSTORE PUSH1 0x20 DUP3 ADD MSTORE LOG1 JUMP JUMPDEST PUSH1 0x1 PUSH1 0x1 PUSH1 0xA0 SHL SUB AND PUSH1 0x0 SWAP1 DUP2 MSTORE PUSH1 0x9 PUSH1 0x20 MSTORE PUSH1 0x40 SWAP1 KECCAK256 SLOAD PUSH1 0xC0 SHR DUP1 ISZERO PUSH2 0x1C30 JUMPI PUSH2 0x20D1 SWAP1 TIMESTAMP PUSH2 0x18A0 JUMP JUMPDEST PUSH2 0x12C DUP2 LT PUSH2 0x20FE JUMPI PUSH2 0xE10 DUP2 LT PUSH2 0x20F7 JUMPI PUSH3 0x15180 GT PUSH2 0x20F1 JUMPI PUSH1 0x0 SWAP1 JUMP JUMPDEST PUSH2 0x1F4 SWAP1 JUMP JUMPDEST POP PUSH2 0x3E8 SWAP1 JUMP JUMPDEST POP PUSH2 0x7D0 SWAP1 JUMP JUMPDEST PUSH1 0x0 SWAP1 PUSH1 0xFF NOT DUP1 PUSH1 0x8 SLOAD AND PUSH1 0x1 DUP1 DUP3 OR PUSH1 0x8 SSTORE ADDRESS DUP6 MSTORE PUSH1 0x20 DUP6 DUP2 MSTORE PUSH1 0x40 SWAP2 DUP3 DUP8 KECCAK256 SLOAD SWAP4 DUP5 ISZERO PUSH2 0x23CC JUMPI POP DUP3 MLOAD PUSH1 0x1 PUSH1 0x1 PUSH1 0x40 SHL SUB SWAP1 PUSH1 0x60 DUP2 ADD DUP3 DUP2 GT DUP3 DUP3 LT OR PUSH2 0x23B8 JUMPI DUP6 MSTORE PUSH1 0x2 DUP2 MSTORE DUP4 DUP2 ADD SWAP6 DUP6 CALLDATASIZE DUP9 CALLDATACOPY DUP2 MLOAD ISZERO PUSH2 0x23A4 JUMPI ADDRESS DUP8 MSTORE PUSH1 0x6 SLOAD DUP7 MLOAD PUSH4 0x15AB88C9 PUSH1 0xE3 SHL DUP2 MSTORE PUSH1 0x1 PUSH1 0x1 PUSH1 0xA0 SHL SUB SWAP9 SWAP2 DUP10 AND SWAP1 DUP8 DUP2 PUSH1 0x4 DUP2 DUP6 GAS STATICCALL SWAP1 DUP2 ISZERO PUSH2 0x239A JUMPI DUP14 SWAP2 PUSH2 0x2364 JUMPI JUMPDEST POP DUP5 MLOAD DUP8 LT ISZERO PUSH2 0x2350 JUMPI PUSH2 0x21AF SWAP2 DUP11 DUP6 SWAP3 AND DUP11 DUP8 ADD MSTORE ADDRESS PUSH2 0x1744 JUMP JUMPDEST SELFBALANCE SWAP5 DUP9 PUSH1 0x6 SLOAD AND SWAP3 DUP4 EXTCODESIZE ISZERO PUSH2 0x234C JUMPI DUP9 MLOAD PUSH4 0x791AC947 PUSH1 0xE0 SHL DUP2 MSTORE PUSH1 0x4 DUP2 ADD SWAP2 SWAP1 SWAP2 MSTORE PUSH1 0x24 DUP2 ADD DUP14 SWAP1 MSTORE PUSH1 0xA0 PUSH1 0x44 DUP3 ADD MSTORE SWAP4 MLOAD PUSH1 0xA4 DUP6 ADD DUP2 SWAP1 MSTORE DUP13 SWAP4 DUP6 SWAP4 SWAP1 SWAP3 PUSH1 0xC4 DUP6 ADD SWAP3 DUP7 DUP12 DUP15 JUMPDEST DUP4 DUP4 LT PUSH2 0x2328 JUMPI POP POP POP POP POP POP DUP4 DUP4 DUP1 SWAP3 ADDRESS PUSH1 0x64 DUP4 ADD MSTORE TIMESTAMP PUSH1 0x84 DUP4 ADD MSTORE SUB SWAP3 GAS CALL SWAP2 DUP3 PUSH2 0x2301 JUMPI JUMPDEST POP POP PUSH2 0x2237 JUMPI JUMPDEST POP POP POP POP SWAP1 SWAP2 POP PUSH1 0x8 SLOAD AND PUSH1 0x8 SSTORE JUMP JUMPDEST PUSH2 0x2241 SWAP1 SELFBALANCE PUSH2 0x18A0 JUMP JUMPDEST DUP1 ISZERO DUP1 ISZERO PUSH2 0x2250 JUMPI JUMPDEST POP PUSH2 0x2227 JUMP JUMPDEST PUSH1 0x3 DUP3 MUL SWAP1 DUP3 DUP3 DIV PUSH1 0x3 EQ OR ISZERO PUSH2 0x22ED JUMPI SWAP7 PUSH2 0x2275 PUSH1 0x7 PUSH2 0x2286 SWAP8 SWAP9 SWAP10 DIV DUP1 SWAP4 PUSH2 0x18A0 JUMP JUMPDEST SWAP5 DUP3 PUSH2 0x2292 JUMPI JUMPDEST POP POP POP POP POP PUSH2 0x1FE9 JUMP JUMPDEST DUP2 SWAP1 CODESIZE DUP1 DUP1 DUP1 DUP1 PUSH2 0x224A JUMP JUMPDEST DUP2 DUP1 DUP5 DUP2 SWAP4 PUSH32 0x0 AND GAS CALL PUSH2 0x22C3 PUSH2 0x182E JUMP JUMPDEST POP PUSH2 0x22D0 JUMPI JUMPDEST DUP1 DUP1 PUSH2 0x227C JUMP JUMPDEST PUSH1 0x0 DUP1 MLOAD PUSH1 0x20 PUSH2 0x256A DUP4 CODECOPY DUP2 MLOAD SWAP2 MSTORE SWAP3 MLOAD SWAP1 DUP2 MSTORE LOG1 CODESIZE DUP1 DUP1 PUSH2 0x22C9 JUMP JUMPDEST PUSH4 0x4E487B71 PUSH1 0xE0 SHL DUP9 MSTORE PUSH1 0x11 PUSH1 0x4 MSTORE PUSH1 0x24 DUP9 REVERT JUMPDEST DUP2 SWAP10 SWAP3 SWAP10 GT PUSH2 0x2314 JUMPI DUP5 MSTORE SWAP7 CODESIZE DUP1 PUSH2 0x2220 JUMP JUMPDEST PUSH4 0x4E487B71 PUSH1 0xE0 SHL DUP3 MSTORE PUSH1 0x41 PUSH1 0x4 MSTORE PUSH1 0x24 DUP3 REVERT JUMPDEST DUP5 SWAP8 SWAP10 POP DUP6 DUP3 SWAP5 SWAP8 SWAP3 SWAP4 SWAP7 SWAP10 POP MLOAD AND DUP2 MSTORE ADD SWAP6 ADD SWAP2 ADD SWAP3 DUP7 SWAP5 SWAP3 DUP16 SWAP7 SWAP5 DUP12 DUP15 PUSH2 0x21F8 JUMP JUMPDEST DUP13 DUP1 REVERT JUMPDEST PUSH4 0x4E487B71 PUSH1 0xE0 SHL DUP14 MSTORE PUSH1 0x32 PUSH1 0x4 MSTORE PUSH1 0x24 DUP14 REVERT JUMPDEST SWAP1 POP DUP8 DUP2 DUP2 RETURNDATASIZE DUP4 GT PUSH2 0x2393 JUMPI JUMPDEST PUSH2 0x237B DUP2 DUP4 PUSH2 0x1496 JUMP JUMPDEST DUP2 ADD SUB SLT PUSH2 0x234C JUMPI MLOAD DUP10 DUP2 AND DUP2 SUB PUSH2 0x234C JUMPI CODESIZE PUSH2 0x2193 JUMP JUMPDEST POP RETURNDATASIZE PUSH2 0x2371 JUMP JUMPDEST DUP10 MLOAD RETURNDATASIZE DUP16 DUP3 RETURNDATACOPY RETURNDATASIZE SWAP1 REVERT JUMPDEST PUSH4 0x4E487B71 PUSH1 0xE0 SHL DUP11 MSTORE PUSH1 0x32 PUSH1 0x4 MSTORE PUSH1 0x24 DUP11 REVERT JUMPDEST PUSH4 0x4E487B71 PUSH1 0xE0 SHL DUP11 MSTORE PUSH1 0x41 PUSH1 0x4 MSTORE PUSH1 0x24 DUP11 REVERT JUMPDEST SWAP6 SWAP7 POP POP POP POP POP POP PUSH1 0x8 SSTORE JUMP JUMPDEST PUSH1 0x0 DUP1 MLOAD PUSH1 0x20 PUSH2 0x262A DUP4 CODECOPY DUP2 MLOAD SWAP2 MSTORE PUSH1 0x2 DUP2 SLOAD EQ PUSH2 0x23F7 JUMPI PUSH1 0x2 SWAP1 SSTORE JUMP JUMPDEST PUSH1 0x40 MLOAD PUSH4 0x3EE5AEB5 PUSH1 0xE0 SHL DUP2 MSTORE PUSH1 0x4 SWAP1 REVERT JUMPDEST PUSH1 0x0 NOT DUP2 EQ PUSH2 0x1480 JUMPI PUSH1 0x1 ADD SWAP1 JUMP JUMPDEST PUSH2 0x2421 DUP2 PUSH2 0x1C36 JUMP JUMPDEST ISZERO PUSH2 0x1C30 JUMPI PUSH1 0x1 DUP1 PUSH1 0xA0 SHL SUB AND PUSH1 0x0 MSTORE PUSH1 0x9 PUSH1 0x20 MSTORE PUSH2 0x2463 PUSH1 0x40 PUSH1 0x0 KECCAK256 PUSH2 0x244F PUSH1 0xD SLOAD PUSH1 0x2 DUP4 ADD SLOAD SWAP1 PUSH2 0x18A0 JUMP JUMPDEST SWAP1 PUSH1 0x0 SWAP2 DUP1 PUSH2 0x2466 JUMPI JUMPDEST POP PUSH1 0x3 ADD SLOAD PUSH2 0x1473 JUMP JUMPDEST SWAP1 JUMP JUMPDEST PUSH1 0xE SLOAD DUP3 SLOAD PUSH2 0x24A7 SWAP2 PUSH2 0x12C5 SWAP1 PUSH2 0x2493 SWAP1 PUSH1 0x80 DUP5 SWAP1 SHR PUSH1 0x1 PUSH1 0x1 PUSH1 0x40 SHL SUB AND SWAP1 DUP2 DUP2 GT ISZERO PUSH2 0x1B84 JUMPI PUSH2 0x18A0 JUMP JUMPDEST PUSH1 0x1 DUP7 ADD SLOAD SWAP3 PUSH1 0x1 PUSH1 0x1 PUSH1 0x80 SHL SUB AND PUSH2 0x186D JUMP JUMPDEST DUP1 PUSH2 0x24B3 JUMPI JUMPDEST POP PUSH2 0x2459 JUMP JUMPDEST PUSH1 0x3 SWAP3 SWAP4 POP PUSH8 0xDE0B6B3A7640000 SWAP2 PUSH2 0x24CB SWAP2 PUSH2 0x186D JUMP JUMPDEST DIV SWAP2 SWAP1 CODESIZE PUSH2 0x24AD JUMP JUMPDEST PUSH2 0x24DD DUP2 PUSH2 0x1C36 JUMP JUMPDEST ISZERO PUSH2 0x1C30 JUMPI PUSH1 0x1 PUSH1 0x1 PUSH1 0xA0 SHL SUB AND PUSH1 0x0 SWAP1 DUP2 MSTORE PUSH1 0x9 PUSH1 0x20 MSTORE PUSH1 0x40 SWAP1 KECCAK256 DUP1 SLOAD PUSH2 0x2463 SWAP2 PUSH2 0x12C5 SWAP1 PUSH1 0x1 PUSH2 0x251C PUSH1 0x80 DUP6 SWAP1 SHR PUSH1 0x1 PUSH1 0x1 PUSH1 0x40 SHL SUB AND TIMESTAMP PUSH2 0x18A0 JUMP JUMPDEST SWAP2 ADD SLOAD SWAP3 PUSH1 0x1 PUSH1 0x1 PUSH1 0x80 SHL SUB AND PUSH2 0x186D JUMP JUMPDEST ISZERO PUSH2 0x2535 JUMPI JUMP JUMPDEST PUSH1 0x40 MLOAD PUSH3 0x461BCD PUSH1 0xE5 SHL DUP2 MSTORE PUSH1 0x20 PUSH1 0x4 DUP3 ADD MSTORE PUSH1 0xC PUSH1 0x24 DUP3 ADD MSTORE PUSH12 0x4F6E6C7920666163746F7279 PUSH1 0xA0 SHL PUSH1 0x44 DUP3 ADD MSTORE PUSH1 0x64 SWAP1 REVERT INVALID PUSH10 0x3F9DBEA0BDF9B70D480F SWAP6 0x27 0xE5 PUSH8 0xD17AE3A41A5627C6 MLOAD JUMPDEST SUB 0x4A 0xC1 DUP7 SWAP13 0xF7 LOG0 SWAP7 SIGNEXTEND LT MLOAD PUSH21 0x9987B45B5679007FFF577A1C2F763EC21C15A6C5EB NOT ADDRESS PUSH22 0x3785FC30CDDEA38E2BF4D6EA7D3F9ED3B6AD7F1764 NOT DELEGATECALL SWAP7 EXTCODESIZE 0xD8 SGT XOR MOD PUSH27 0x4AEE73FE8AD0C4905AA5603107E860E0C2B1A78E23EBA312C30F81 EQ 0xA7 0xD SWAP5 0xD9 0xE1 DUP8 CREATE2 0xAF 0xDD CALLCODE MSTORE 0xAD SHL 0xE2 0xC8 SWAP12 PUSH10 0xC2B068FC378DAA952BA7 CALL PUSH4 0xC4A11628 CREATE2 GAS 0x4D CREATE2 0x23 0xB3 0xEF 0xE9 0xBC SWAP2 LOG3 RETURNDATASIZE 0xDF DUP10 PUSH14 0x889747B2F39F4192C802FD623647 DUP1 ADDMOD PUSH9 0x53FCD8E19E8FFA9B77 SWAP12 OR TIMESTAMP 0x2D 0xD 0xF9 0x22 0x23 ADD DUP12 ORIGIN 0xB4 0xD1 STATICCALL CHAINID 0xE0 PUSH18 0x723D6817E2486D003BECC55F00A264697066 PUSH20 0x58221220A7B141D947531FA8C4B004CD21924118 ADD 0xA8 ORIGIN SLOAD EXTCODECOPY 0x24 BLOCKHASH 0xE2 0xB9 LOG0 DUP6 0xCB LOG0 PUSH5 0xC26364736F PUSH13 0x634300081400338AD0C4905AA5 PUSH1 0x31 SMOD 0xE8 PUSH1 0xE0 0xC2 0xB1 0xA7 DUP15 0x23 0xEB LOG3 SLT 0xC3 0xF DUP2 EQ 0xA7 0xD SWAP5 0xD9 0xE1 DUP8 CREATE2 0xAF 0xDD CALLCODE MSTORE 0xAD SHL 0xE2 0xC8 SWAP12 PUSH10 0xC2B068FC378DAA952BA7 CALL PUSH4 0xC4A11628 CREATE2 GAS 0x4D CREATE2 0x23 0xB3 0xEF "},"methodIdentifiers":{"BURN_BPS()":"a37a9fc0","CURVE_SUPPLY()":"1e4c7292","DEAD()":"03fd2a45","GRAD_SUPPLY()":"98aecb67","PLATFORM_BPS()":"ce91e164","REWARD_BPS()":"47b12bfc","SNIPE_BPS_1HR()":"c463ecd7","SNIPE_BPS_24HR()":"bacf2a7b","SNIPE_BPS_5MIN()":"bb103cbc","TOTAL_SUPPLY()":"902d55a5","TOTAL_TAX_BPS()":"a8355c8f","allowance(address,address)":"dd62ed3e","antiSnipeBpsFor(address)":"ca81eb66","approve(address,uint256)":"095ea7b3","balanceOf(address)":"70a08231","burnFromCurve(uint256)":"5b090044","checkpoints(address)":"dbb51d6e","claim()":"4e71d92d","cumulativeEthPerScore()":"c5f27b30","curve()":"7165485d","decimals()":"313ce567","depositEthPlatform()":"b78d0538","depositEthReward()":"a47541ba","factory()":"c45a0155","graduated()":"e7c2b772","holdScore(address)":"c5f509d6","isExcluded(address)":"cba0e996","keeper()":"aced1661","lastRewardTimestamp()":"f8077fae","name()":"06fdde03","notifyGraduated(address,address)":"c7b12801","orphanedRewardEth()":"13b9d47e","pendingRewards(address)":"31d7a262","pushRewards(address[])":"f6ceefa2","setExcluded(address,bool)":"2836be24","setKeeper(address)":"748747e6","setSwapThreshold(uint256)":"9d0014b1","swapThreshold()":"0445b667","symbol()":"95d89b41","totalAccumulatedScore()":"c1db4015","totalHoldScoreLive()":"07c9bf2e","totalLastUpdate()":"9d6eadc1","totalSettledBalance()":"64229d68","totalSupply()":"18160ddd","transfer(address,uint256)":"a9059cbb","transferFrom(address,address,uint256)":"23b872dd","uniswapPair()":"c816841b","uniswapRouter()":"735de9f7"}}}}}