{"contracts/v2/AethpadBondingCurveV2.sol":{"AethpadBondingCurveV2":{"abi":[{"inputs":[{"internalType":"address","name":"_factory","type":"address"},{"internalType":"address","name":"_uniswapRouter","type":"address"}],"stateMutability":"nonpayable","type":"constructor"},{"inputs":[],"name":"ReentrancyGuardReentrantCall","type":"error"},{"anonymous":false,"inputs":[{"indexed":true,"internalType":"address","name":"buyer","type":"address"},{"indexed":false,"internalType":"uint256","name":"ethIn","type":"uint256"},{"indexed":false,"internalType":"uint256","name":"ethForCurve","type":"uint256"},{"indexed":false,"internalType":"uint256","name":"tokensOut","type":"uint256"},{"indexed":false,"internalType":"uint256","name":"progressBps","type":"uint256"}],"name":"Buy","type":"event"},{"anonymous":false,"inputs":[{"indexed":true,"internalType":"address","name":"withdrawTo","type":"address"},{"indexed":false,"internalType":"uint256","name":"ethAmount","type":"uint256"}],"name":"ForceClosed","type":"event"},{"anonymous":false,"inputs":[{"indexed":false,"internalType":"uint256","name":"ethToLp","type":"uint256"},{"indexed":false,"internalType":"uint256","name":"tokensToLp","type":"uint256"},{"indexed":false,"internalType":"address","name":"pair","type":"address"}],"name":"Graduated","type":"event"},{"anonymous":false,"inputs":[{"indexed":true,"internalType":"address","name":"seller","type":"address"},{"indexed":false,"internalType":"uint256","name":"tokensIn","type":"uint256"},{"indexed":false,"internalType":"uint256","name":"ethOutGross","type":"uint256"},{"indexed":false,"internalType":"uint256","name":"ethToUser","type":"uint256"},{"indexed":false,"internalType":"uint256","name":"progressBps","type":"uint256"}],"name":"Sell","type":"event"},{"inputs":[],"name":"BURN_BPS","outputs":[{"internalType":"uint256","name":"","type":"uint256"}],"stateMutability":"view","type":"function"},{"inputs":[],"name":"CURVE_TOKEN_SUPPLY","outputs":[{"internalType":"uint256","name":"","type":"uint256"}],"stateMutability":"view","type":"function"},{"inputs":[],"name":"GRAD_TOKEN_SUPPLY","outputs":[{"internalType":"uint256","name":"","type":"uint256"}],"stateMutability":"view","type":"function"},{"inputs":[],"name":"PLATFORM_BPS","outputs":[{"internalType":"uint256","name":"","type":"uint256"}],"stateMutability":"view","type":"function"},{"inputs":[],"name":"REWARD_BPS","outputs":[{"internalType":"uint256","name":"","type":"uint256"}],"stateMutability":"view","type":"function"},{"inputs":[],"name":"SNIPE_BPS_1HR","outputs":[{"internalType":"uint256","name":"","type":"uint256"}],"stateMutability":"view","type":"function"},{"inputs":[],"name":"SNIPE_BPS_24HR","outputs":[{"internalType":"uint256","name":"","type":"uint256"}],"stateMutability":"view","type":"function"},{"inputs":[],"name":"SNIPE_BPS_5MIN","outputs":[{"internalType":"uint256","name":"","type":"uint256"}],"stateMutability":"view","type":"function"},{"inputs":[],"name":"TARGET_REAL_ETH","outputs":[{"internalType":"uint256","name":"","type":"uint256"}],"stateMutability":"view","type":"function"},{"inputs":[],"name":"VIRTUAL_ETH","outputs":[{"internalType":"uint256","name":"","type":"uint256"}],"stateMutability":"view","type":"function"},{"inputs":[{"internalType":"uint256","name":"minTokensOut","type":"uint256"}],"name":"buy","outputs":[{"internalType":"uint256","name":"tokensToUser","type":"uint256"}],"stateMutability":"payable","type":"function"},{"inputs":[],"name":"currentPrice","outputs":[{"internalType":"uint256","name":"","type":"uint256"}],"stateMutability":"view","type":"function"},{"inputs":[],"name":"factory","outputs":[{"internalType":"address","name":"","type":"address"}],"stateMutability":"view","type":"function"},{"inputs":[{"internalType":"address","name":"to","type":"address"}],"name":"forceCloseAndWithdraw","outputs":[],"stateMutability":"nonpayable","type":"function"},{"inputs":[],"name":"forceClosed","outputs":[{"internalType":"bool","name":"","type":"bool"}],"stateMutability":"view","type":"function"},{"inputs":[{"internalType":"uint256","name":"ethAmount","type":"uint256"}],"name":"getBuyAmount","outputs":[{"internalType":"uint256","name":"tokensToUser","type":"uint256"}],"stateMutability":"view","type":"function"},{"inputs":[{"internalType":"uint256","name":"tokenAmount","type":"uint256"},{"internalType":"address","name":"seller","type":"address"}],"name":"getSellAmount","outputs":[{"internalType":"uint256","name":"ethToUser","type":"uint256"}],"stateMutability":"view","type":"function"},{"inputs":[],"name":"graduated","outputs":[{"internalType":"bool","name":"","type":"bool"}],"stateMutability":"view","type":"function"},{"inputs":[{"internalType":"address","name":"_token","type":"address"}],"name":"initToken","outputs":[],"stateMutability":"nonpayable","type":"function"},{"inputs":[{"internalType":"address","name":"","type":"address"}],"name":"lastBuyAt","outputs":[{"internalType":"uint64","name":"","type":"uint64"}],"stateMutability":"view","type":"function"},{"inputs":[],"name":"progressBps","outputs":[{"internalType":"uint256","name":"","type":"uint256"}],"stateMutability":"view","type":"function"},{"inputs":[],"name":"realEthRaised","outputs":[{"internalType":"uint256","name":"","type":"uint256"}],"stateMutability":"view","type":"function"},{"inputs":[{"internalType":"uint256","name":"tokenAmount","type":"uint256"},{"internalType":"uint256","name":"minEthOut","type":"uint256"}],"name":"sell","outputs":[{"internalType":"uint256","name":"ethToUser","type":"uint256"}],"stateMutability":"nonpayable","type":"function"},{"inputs":[],"name":"token","outputs":[{"internalType":"contract IAethpadTokenV2","name":"","type":"address"}],"stateMutability":"view","type":"function"},{"inputs":[],"name":"trustedInitializer","outputs":[{"internalType":"address","name":"","type":"address"}],"stateMutability":"view","type":"function"},{"inputs":[],"name":"uniswapFactory","outputs":[{"internalType":"contract IUniswapV2Factory","name":"","type":"address"}],"stateMutability":"view","type":"function"},{"inputs":[],"name":"uniswapRouter","outputs":[{"internalType":"contract IUniswapV2Router02","name":"","type":"address"}],"stateMutability":"view","type":"function"},{"inputs":[],"name":"virtualTokenReserve","outputs":[{"internalType":"uint256","name":"","type":"uint256"}],"stateMutability":"view","type":"function"},{"stateMutability":"payable","type":"receive"}],"evm":{"bytecode":{"linkReferences":{},"object":"6101008060405234620001665760408162001a8c80380380916200002482856200016b565b83398101031262000166576200004860206200004083620001a5565b9201620001a5565b9060017f9b779b17422d0df92223018b32b4d1fa46e071723d6817e2486d003becc55f00556080523360a0526004602060018060a01b038093168060c0526040519283809263c45a015560e01b82525afa9081156200015a5760009162000116575b501660e0526b0295be96e6406697200000006001556040516118d19081620001bb823960805181818161023101528181610f390152611233015260a0518181816101e70152610fdd015260c0518181816104d601526110f5015260e05181818161055101526110b10152f35b906020823d821162000151575b8162000132602093836200016b565b810103126200014e57506200014790620001a5565b38620000aa565b80fd5b3d915062000123565b6040513d6000823e3d90fd5b600080fd5b601f909101601f19168101906001600160401b038211908210176200018f57604052565b634e487b7160e01b600052604160045260246000fd5b51906001600160a01b0382168203620001665756fe6080604081815260049182361015610022575b505050361561002057600080fd5b005b600092833560e01c918263130b312014611398575081631fb87f3914611378578163343ee3b71461135957816347b12bfc1461133d57816350b894181461120057816355ee54a1146111bf5781636700c0c31461119c5781636c1eba151461117f57816371c1b8331461114b57816372d6e43a14611124578163735de9f7146110e05781638bdb2afa1461109c57816394562afb146110795781639d1b464a1461100c5781639e85f9aa14610fc85781639f870a7514610fa2578163a37a9fc014610edc578163bacf2a7b14610f85578163bb103cbc14610f68578163c45a015514610f24578163c463ecd714610f07578163c8f3bfd314610ee1578163ce91e16414610edc578163d79875eb14610b00578163d96a094a1461028e578163df4d17dc146101b357508063e7c2b772146101905763fc0c546a146101665780610012565b3461018c578160031936011261018c57905490516001600160a01b039091168152602090f35b5080fd5b503461018c578160031936011261018c5760209060ff6003541690519015158152f35b9190503461028a57602036600319011261028a576101cf6113b4565b8354926001600160a01b0392838516610258575050817f0000000000000000000000000000000000000000000000000000000000000000163314801561022d575b610219906113e6565b6001600160a01b0319909216911617815580f35b50337f0000000000000000000000000000000000000000000000000000000000000000831614610210565b906020606492519162461bcd60e51b8352820152600c60248201526b105b1c9958591e481a5b9a5d60a21b6044820152fd5b8280fd5b602084843660031901831361018c576102a56115c9565b6102bd60035460ff8116159081610af1575b50611421565b3415610ac65760c834029134830460c803610ab3576127108093049260963402348104609603610aa057819004906102fe826102f987346114a5565b6114a5565b91600254956729a2241af62c000096808801809811610a8d5761034261033b600154996103358861032f8d8461145c565b926114b2565b90611485565b80996114a5565b93841561034f81156114bf565b60968602908682046096141715610a7a57916103728792610388940480976114a5565b996103808d358c10156114f7565b6001556114b2565b60025580610a21575b50806109d2575b5080610970575b5060018060a01b03906103ce8686848654168a87895180968195829463a9059cbb60e01b845233908401611592565b03925af1908115610966578491610949575b50156109125733835286865283832080546001600160401b031916426001600160401b03161790557f064fb1933e186be0b289a87e98518dc18cc9856ecbc9f1353d1a138ddf733ec5610443610434611671565b865191829189339634856115ad565b0390a2674563918244f400006002541015610473575b5050600160008051602061187c8339815191525551908152f35b600160ff19600354161760035547916aa56fa5b99019a5c800000090828154168551986370a0823160e01b808b5230828c015260249a8a818d81875afa9081156108735785916108e5575b508581106108dd575b50875163095ea7b360e01b81527f00000000000000000000000000000000000000000000000000000000000000008716938b90829081888161050c8c8b8b8401611592565b03925af19081156108735785916108b0575b501561087d5787516315ab88c960e31b81529a8a8c8481875afa8015610873578b9c869c98999a9b9c91610856575b50887f000000000000000000000000000000000000000000000000000000000000000016898754168c519963e6a4390560e01b8b528a8061059186858b8401611657565b0381855afa998a1561084c57908f939291899b61082d575b508d8c8c16156107b7575b50505050508785541661012c42018042116107a5578b519163f305d71960e01b835285830152878383015286604483015286606483015261dead608483015260a482015260608160c4818d895af1801561076c57610776575b5087855416918a5190815230848201528c818381865afa90811561076c57869161073a575b50806106df575b5050508583541690813b156106db57918391868361066b958c519687958694859363c7b1280160e01b85528401611657565b03925af180156106d1576106ba575b505084519384528684015216818301527fe8284482a896de2fb31532f8a0c0f64867b8d0586ff49dbd54ddf4cddb2c036590606090a19082918480610459565b6106c4829161152e565b6106ce578061067a565b80fd5b87513d84823e3d90fd5b8380fd5b823b15610736578a516316c2401160e21b8152848101919091529185918391829084905af1801561072c57908491610718575b80610639565b6107219061152e565b61028a57828b610712565b89513d86823e3d90fd5b8580fd5b90508c81813d8311610765575b6107518183611557565b8101031261076057518d610632565b600080fd5b503d610747565b8b513d88823e3d90fd5b606090813d811161079e575b61078c8183611557565b8101031261079a578c61060d565b8480fd5b503d610782565b634e487b7160e01b8752601185528287fd5b6107d8959b508990518096819582946364e329cb60e11b84528b8401611657565b03925af19081156108235785916107f6575b50958b8d80808d6105b4565b61081691508c8d3d1061081c575b61080e8183611557565b810190611638565b8c6107ea565b503d610804565b8a513d87823e3d90fd5b610845919b50843d861161081c5761080e8183611557565b99386105a9565b8d513d8a823e3d90fd5b61086d9150883d8a1161081c5761080e8183611557565b8d61054d565b89513d87823e3d90fd5b875162461bcd60e51b81528083018b9052600e818d01526d105c1c1c9bdd994819985a5b195960921b6044820152606490fd5b6108d091508b3d8d116108d6575b6108c88183611557565b81019061157a565b8c61051e565b503d6108be565b94508b6104c7565b90508a81813d831161090b575b6108fc8183611557565b8101031261076057518c6104be565b503d6108f2565b835162461bcd60e51b81528088018790526011602482015270151bdad95b881e19995c8819985a5b1959607a1b6044820152606490fd5b6109609150873d89116108d6576108c88183611557565b886103e0565b85513d86823e3d90fd5b82546001600160a01b031690813b156106db57839160248392875194859384926316c2401160e21b84528d8401525af180156109c8579083916109b4575b5061039f565b6109bd9061152e565b61018c5781876109ae565b84513d85823e3d90fd5b83546001600160a01b0316803b1561079a578490898751809481936316f1a0a760e31b83525af1801561096657908491610a0d575b50610398565b610a169061152e565b61028a578288610a07565b84546001600160a01b0316803b156107365785908a88518094819363523aa0dd60e11b83525af18015610a7057908591610a5c575b50610391565b610a659061152e565b6106db578389610a56565b86513d87823e3d90fd5b634e487b7160e01b885260118c52602488fd5b634e487b7160e01b865260118a52602486fd5b634e487b7160e01b835260118752602483fd5b634e487b7160e01b815260118552602490fd5b5162461bcd60e51b8152808401839052600660248201526509cde408aa8960d31b6044820152606490fd5b60ff915060081c1615866102b7565b83833461018c578060031936011261018c578235610b1c6115c9565b610b3360035460ff8116159081610af15750611421565b8015610ead5760968102818104609603610e9a5761271080910494610b5886846114a5565b9560018060a01b0386818154169287516323b872dd60e01b8152338682015260249430868301528860448301528160648160209d8e945af1908115610e90578391610e73575b5015610e3c5780610df0575b5090600254946729a2241af62c000099868b01809b11610d9f57610bde999a610beb610be4610bf1936001549d8e8561145c565b9d6114b2565b809c611485565b906114a5565b95808711610db25786610c139181159b610c0b8d156114bf565b6001556114a5565b600255610c1f336116a6565b60c8018060c811610d9f57610c3582918861145c565b049860968702908782046096141715610d9f570490610c58826102f98b896114a5565b98610c6685358b10156114f7565b80610d57575b5081610d16575b505080808089335af1610c846115f9565b5015610ce2575050837f483f8aec0fd892ac72ad1ba8d0e9c9e73db59c12d263fd71de480b5b3deeae3c91610cc7610cba611671565b86519384933397856115ad565b0390a2600160008051602061187c8339815191525551908152f35b845162461bcd60e51b8152918201879052600f908201526e115512081cd95b990819985a5b1959608a1b6044820152606490fd5b825416803b1561028a578290858951809481936316f1a0a760e31b83525af180156106d15790829115610c7357610d4c9061152e565b6106ce578089610c73565b81845416803b1561079a578490878b518094819363523aa0dd60e11b83525af1801561072c57908491610d8b575b50610c6c565b610d949061152e565b61028a57828b610d85565b5050634e487b7160e01b82525060118352fd5b885162461bcd60e51b81528087018c905260198187015278496e73756666696369656e742045544820696e20637572766560381b6044820152606490fd5b8282541690813b1561028a5782918583928b5194859384926316c2401160e21b84528b8401525af18015610e325715610baa57610e2c9061152e565b89610baa565b88513d84823e3d90fd5b875162461bcd60e51b81528086018a905260128186015271151c985b9cd9995c881a5b8819985a5b195960721b6044820152606490fd5b610e8a91508a3d8c116108d6576108c88183611557565b8b610b9e565b89513d85823e3d90fd5b634e487b7160e01b845260118552602484fd5b815162461bcd60e51b815260208186015260096024820152684e6f20746f6b656e7360b81b6044820152606490fd5b6113ca565b50503461018c578160031936011261018c57602090516aa56fa5b99019a5c80000008152f35b50503461018c578160031936011261018c57602090516103e88152f35b50503461018c578160031936011261018c57517f00000000000000000000000000000000000000000000000000000000000000006001600160a01b03168152602090f35b50503461018c578160031936011261018c57602090516107d08152f35b50503461018c578160031936011261018c57602090516101f48152f35b50503461018c578160031936011261018c57516714adf4b7320334b9601d1b8152602090f35b50503461018c578160031936011261018c57517f00000000000000000000000000000000000000000000000000000000000000006001600160a01b03168152602090f35b8284346106ce57806003193601126106ce57600254926729a2241af62c000093840180941161106657670de0b6b3a7640000938481029481860414901517156110665760208361105f8660015490611485565b9051908152f35b634e487b7160e01b825260119052602490fd5b50503461018c578160031936011261018c5760209051674563918244f400008152f35b50503461018c578160031936011261018c57517f00000000000000000000000000000000000000000000000000000000000000006001600160a01b03168152602090f35b50503461018c578160031936011261018c57517f00000000000000000000000000000000000000000000000000000000000000006001600160a01b03168152602090f35b50503461018c578160031936011261018c5760209060ff60035460081c1690519015158152f35b90503461028a578160031936011261028a57602435926001600160a01b03841684036106ce575060209261105f91356117a3565b50503461018c578160031936011261018c5760209061105f611671565b50503461018c578160031936011261018c57602090516729a2241af62c00008152f35b90503461028a57602036600319011261028a57602092906001600160a01b036111e66113b4565b16825283528190205490516001600160401b039091168152f35b9190503461028a57602036600319011261028a5761121c6113b4565b6112246115c9565b6001600160a01b039161125a337f00000000000000000000000000000000000000000000000000000000000000008516146113e6565b60035460ff81166113065761ff001916610100176003554793846112bb575b505192835216907f16bfc55cfda3eb65b74e8fe52a8804e222bdb31aef30599b41adeb45893f66a990602090a2600160008051602061187c8339815191525580f35b85808080888888165af16112cd6115f9565b50611279576020606492519162461bcd60e51b8352820152600f60248201526e15da5d1a191c985dc819985a5b1959608a1b6044820152fd5b815162461bcd60e51b81526020818701526011602482015270105b1c9958591e4819dc98591d585d1959607a1b6044820152606490fd5b50503461018c578160031936011261018c576020905160c88152f35b50503461018c578160031936011261018c576020906001549051908152f35b8284346106ce5760203660031901126106ce575061105f60209235611711565b84903461018c578160031936011261018c576020906002548152f35b600435906001600160a01b038216820361076057565b3461076057600036600319011261076057602060405160968152f35b156113ed57565b60405162461bcd60e51b815260206004820152600c60248201526b4f6e6c7920666163746f727960a01b6044820152606490fd5b1561142857565b60405162461bcd60e51b815260206004820152600c60248201526b10dd5c9d994818db1bdcd95960a21b6044820152606490fd5b8181029291811591840414171561146f57565b634e487b7160e01b600052601160045260246000fd5b811561148f570490565b634e487b7160e01b600052601260045260246000fd5b9190820391821161146f57565b9190820180921161146f57565b156114c657565b60405162461bcd60e51b8152602060048201526009602482015268151bdbc81cdb585b1b60ba1b6044820152606490fd5b156114fe57565b60405162461bcd60e51b8152602060048201526008602482015267536c69707061676560c01b6044820152606490fd5b6001600160401b03811161154157604052565b634e487b7160e01b600052604160045260246000fd5b601f909101601f19168101906001600160401b0382119082101761154157604052565b90816020910312610760575180151581036107605790565b6001600160a01b039091168152602081019190915260400190565b9094939260609260808301968352602083015260408201520152565b60008051602061187c83398151915260028154146115e75760029055565b604051633ee5aeb560e01b8152600490fd5b3d15611633573d906001600160401b0382116115415760405191611627601f8201601f191660200184611557565b82523d6000602084013e565b606090565b9081602091031261076057516001600160a01b03811681036107605790565b6001600160a01b0391821681529116602082015260400190565b60ff600354166116a0576002546127109081810291818304149015171561146f57674563918244f40000900490565b61271090565b6001600160a01b03166000908152600460205260409020546001600160401b0316801561170b576116d790426114a5565b61012c811061170457610e1081106116fd5762015180116116f757600090565b6101f490565b506103e890565b506107d090565b50600090565b60035460ff8116908115611795575b5061170b576125b29081810291818304149015171561146f576002546729a2241af62c000090810180911161146f5761177490610beb60015491610335611767848361145c565b91612710809704906114b2565b60968102918183046096148215171561146f576117929204906114a5565b90565b60ff915060081c1638611720565b60035460ff811690811561186d575b506118665760968102908082046096148115171561146f576117da90612710809304906114a5565b91600254926729a2241af62c000084810180911161146f57610beb61180a926103356001549161032f838661145c565b9280841161185c575b5061181d906116a6565b8060c801908160c81161146f5761015e0180911161146f5761183f908361145c565b046000918181116000146118575761179292506114a5565b505090565b925061181d611813565b5050600090565b60ff915060081c16386117b256fe9b779b17422d0df92223018b32b4d1fa46e071723d6817e2486d003becc55f00a2646970667358221220b0b61c05d9cff33fac948a08ab88b688e4b71720e722d793d4268e443a9faa7064736f6c63430008140033","opcodes":"PUSH2 0x100 DUP1 PUSH1 0x40 MSTORE CALLVALUE PUSH3 0x166 JUMPI PUSH1 0x40 DUP2 PUSH3 0x1A8C DUP1 CODESIZE SUB DUP1 SWAP2 PUSH3 0x24 DUP3 DUP6 PUSH3 0x16B JUMP JUMPDEST DUP4 CODECOPY DUP2 ADD SUB SLT PUSH3 0x166 JUMPI PUSH3 0x48 PUSH1 0x20 PUSH3 0x40 DUP4 PUSH3 0x1A5 JUMP JUMPDEST SWAP3 ADD PUSH3 0x1A5 JUMP JUMPDEST SWAP1 PUSH1 0x1 PUSH32 0x9B779B17422D0DF92223018B32B4D1FA46E071723D6817E2486D003BECC55F00 SSTORE PUSH1 0x80 MSTORE CALLER PUSH1 0xA0 MSTORE PUSH1 0x4 PUSH1 0x20 PUSH1 0x1 DUP1 PUSH1 0xA0 SHL SUB DUP1 SWAP4 AND DUP1 PUSH1 0xC0 MSTORE PUSH1 0x40 MLOAD SWAP3 DUP4 DUP1 SWAP3 PUSH4 0xC45A0155 PUSH1 0xE0 SHL DUP3 MSTORE GAS STATICCALL SWAP1 DUP2 ISZERO PUSH3 0x15A JUMPI PUSH1 0x0 SWAP2 PUSH3 0x116 JUMPI JUMPDEST POP AND PUSH1 0xE0 MSTORE PUSH12 0x295BE96E640669720000000 PUSH1 0x1 SSTORE PUSH1 0x40 MLOAD PUSH2 0x18D1 SWAP1 DUP2 PUSH3 0x1BB DUP3 CODECOPY PUSH1 0x80 MLOAD DUP2 DUP2 DUP2 PUSH2 0x231 ADD MSTORE DUP2 DUP2 PUSH2 0xF39 ADD MSTORE PUSH2 0x1233 ADD MSTORE PUSH1 0xA0 MLOAD DUP2 DUP2 DUP2 PUSH2 0x1E7 ADD MSTORE PUSH2 0xFDD ADD MSTORE PUSH1 0xC0 MLOAD DUP2 DUP2 DUP2 PUSH2 0x4D6 ADD MSTORE PUSH2 0x10F5 ADD MSTORE PUSH1 0xE0 MLOAD DUP2 DUP2 DUP2 PUSH2 0x551 ADD MSTORE PUSH2 0x10B1 ADD MSTORE RETURN JUMPDEST SWAP1 PUSH1 0x20 DUP3 RETURNDATASIZE DUP3 GT PUSH3 0x151 JUMPI JUMPDEST DUP2 PUSH3 0x132 PUSH1 0x20 SWAP4 DUP4 PUSH3 0x16B JUMP JUMPDEST DUP2 ADD SUB SLT PUSH3 0x14E JUMPI POP PUSH3 0x147 SWAP1 PUSH3 0x1A5 JUMP JUMPDEST CODESIZE PUSH3 0xAA JUMP JUMPDEST DUP1 REVERT JUMPDEST RETURNDATASIZE SWAP2 POP PUSH3 0x123 JUMP JUMPDEST PUSH1 0x40 MLOAD RETURNDATASIZE PUSH1 0x0 DUP3 RETURNDATACOPY RETURNDATASIZE SWAP1 REVERT JUMPDEST PUSH1 0x0 DUP1 REVERT JUMPDEST PUSH1 0x1F SWAP1 SWAP2 ADD PUSH1 0x1F NOT AND DUP2 ADD SWAP1 PUSH1 0x1 PUSH1 0x1 PUSH1 0x40 SHL SUB DUP3 GT SWAP1 DUP3 LT OR PUSH3 0x18F JUMPI PUSH1 0x40 MSTORE JUMP JUMPDEST PUSH4 0x4E487B71 PUSH1 0xE0 SHL PUSH1 0x0 MSTORE PUSH1 0x41 PUSH1 0x4 MSTORE PUSH1 0x24 PUSH1 0x0 REVERT JUMPDEST MLOAD SWAP1 PUSH1 0x1 PUSH1 0x1 PUSH1 0xA0 SHL SUB DUP3 AND DUP3 SUB PUSH3 0x166 JUMPI JUMP INVALID PUSH1 0x80 PUSH1 0x40 DUP2 DUP2 MSTORE PUSH1 0x4 SWAP2 DUP3 CALLDATASIZE LT ISZERO PUSH2 0x22 JUMPI JUMPDEST POP POP POP CALLDATASIZE ISZERO PUSH2 0x20 JUMPI PUSH1 0x0 DUP1 REVERT JUMPDEST STOP JUMPDEST PUSH1 0x0 SWAP3 DUP4 CALLDATALOAD PUSH1 0xE0 SHR SWAP2 DUP3 PUSH4 0x130B3120 EQ PUSH2 0x1398 JUMPI POP DUP2 PUSH4 0x1FB87F39 EQ PUSH2 0x1378 JUMPI DUP2 PUSH4 0x343EE3B7 EQ PUSH2 0x1359 JUMPI DUP2 PUSH4 0x47B12BFC EQ PUSH2 0x133D JUMPI DUP2 PUSH4 0x50B89418 EQ PUSH2 0x1200 JUMPI DUP2 PUSH4 0x55EE54A1 EQ PUSH2 0x11BF JUMPI DUP2 PUSH4 0x6700C0C3 EQ PUSH2 0x119C JUMPI DUP2 PUSH4 0x6C1EBA15 EQ PUSH2 0x117F JUMPI DUP2 PUSH4 0x71C1B833 EQ PUSH2 0x114B JUMPI DUP2 PUSH4 0x72D6E43A EQ PUSH2 0x1124 JUMPI DUP2 PUSH4 0x735DE9F7 EQ PUSH2 0x10E0 JUMPI DUP2 PUSH4 0x8BDB2AFA EQ PUSH2 0x109C JUMPI DUP2 PUSH4 0x94562AFB EQ PUSH2 0x1079 JUMPI DUP2 PUSH4 0x9D1B464A EQ PUSH2 0x100C JUMPI DUP2 PUSH4 0x9E85F9AA EQ PUSH2 0xFC8 JUMPI DUP2 PUSH4 0x9F870A75 EQ PUSH2 0xFA2 JUMPI DUP2 PUSH4 0xA37A9FC0 EQ PUSH2 0xEDC JUMPI DUP2 PUSH4 0xBACF2A7B EQ PUSH2 0xF85 JUMPI DUP2 PUSH4 0xBB103CBC EQ PUSH2 0xF68 JUMPI DUP2 PUSH4 0xC45A0155 EQ PUSH2 0xF24 JUMPI DUP2 PUSH4 0xC463ECD7 EQ PUSH2 0xF07 JUMPI DUP2 PUSH4 0xC8F3BFD3 EQ PUSH2 0xEE1 JUMPI DUP2 PUSH4 0xCE91E164 EQ PUSH2 0xEDC JUMPI DUP2 PUSH4 0xD79875EB EQ PUSH2 0xB00 JUMPI DUP2 PUSH4 0xD96A094A EQ PUSH2 0x28E JUMPI DUP2 PUSH4 0xDF4D17DC EQ PUSH2 0x1B3 JUMPI POP DUP1 PUSH4 0xE7C2B772 EQ PUSH2 0x190 JUMPI PUSH4 0xFC0C546A EQ PUSH2 0x166 JUMPI DUP1 PUSH2 0x12 JUMP JUMPDEST CALLVALUE PUSH2 0x18C JUMPI DUP2 PUSH1 0x3 NOT CALLDATASIZE ADD SLT PUSH2 0x18C JUMPI SWAP1 SLOAD SWAP1 MLOAD PUSH1 0x1 PUSH1 0x1 PUSH1 0xA0 SHL SUB SWAP1 SWAP2 AND DUP2 MSTORE PUSH1 0x20 SWAP1 RETURN JUMPDEST POP DUP1 REVERT JUMPDEST POP CALLVALUE PUSH2 0x18C JUMPI DUP2 PUSH1 0x3 NOT CALLDATASIZE ADD SLT PUSH2 0x18C JUMPI PUSH1 0x20 SWAP1 PUSH1 0xFF PUSH1 0x3 SLOAD AND SWAP1 MLOAD SWAP1 ISZERO ISZERO DUP2 MSTORE RETURN JUMPDEST SWAP2 SWAP1 POP CALLVALUE PUSH2 0x28A JUMPI PUSH1 0x20 CALLDATASIZE PUSH1 0x3 NOT ADD SLT PUSH2 0x28A JUMPI PUSH2 0x1CF PUSH2 0x13B4 JUMP JUMPDEST DUP4 SLOAD SWAP3 PUSH1 0x1 PUSH1 0x1 PUSH1 0xA0 SHL SUB SWAP3 DUP4 DUP6 AND PUSH2 0x258 JUMPI POP POP DUP2 PUSH32 0x0 AND CALLER EQ DUP1 ISZERO PUSH2 0x22D JUMPI JUMPDEST PUSH2 0x219 SWAP1 PUSH2 0x13E6 JUMP JUMPDEST PUSH1 0x1 PUSH1 0x1 PUSH1 0xA0 SHL SUB NOT SWAP1 SWAP3 AND SWAP2 AND OR DUP2 SSTORE DUP1 RETURN JUMPDEST POP CALLER PUSH32 0x0 DUP4 AND EQ PUSH2 0x210 JUMP JUMPDEST SWAP1 PUSH1 0x20 PUSH1 0x64 SWAP3 MLOAD SWAP2 PUSH3 0x461BCD PUSH1 0xE5 SHL DUP4 MSTORE DUP3 ADD MSTORE PUSH1 0xC PUSH1 0x24 DUP3 ADD MSTORE PUSH12 0x105B1C9958591E481A5B9A5D PUSH1 0xA2 SHL PUSH1 0x44 DUP3 ADD MSTORE REVERT JUMPDEST DUP3 DUP1 REVERT JUMPDEST PUSH1 0x20 DUP5 DUP5 CALLDATASIZE PUSH1 0x3 NOT ADD DUP4 SGT PUSH2 0x18C JUMPI PUSH2 0x2A5 PUSH2 0x15C9 JUMP JUMPDEST PUSH2 0x2BD PUSH1 0x3 SLOAD PUSH1 0xFF DUP2 AND ISZERO SWAP1 DUP2 PUSH2 0xAF1 JUMPI JUMPDEST POP PUSH2 0x1421 JUMP JUMPDEST CALLVALUE ISZERO PUSH2 0xAC6 JUMPI PUSH1 0xC8 CALLVALUE MUL SWAP2 CALLVALUE DUP4 DIV PUSH1 0xC8 SUB PUSH2 0xAB3 JUMPI PUSH2 0x2710 DUP1 SWAP4 DIV SWAP3 PUSH1 0x96 CALLVALUE MUL CALLVALUE DUP2 DIV PUSH1 0x96 SUB PUSH2 0xAA0 JUMPI DUP2 SWAP1 DIV SWAP1 PUSH2 0x2FE DUP3 PUSH2 0x2F9 DUP8 CALLVALUE PUSH2 0x14A5 JUMP JUMPDEST PUSH2 0x14A5 JUMP JUMPDEST SWAP2 PUSH1 0x2 SLOAD SWAP6 PUSH8 0x29A2241AF62C0000 SWAP7 DUP1 DUP9 ADD DUP1 SWAP9 GT PUSH2 0xA8D JUMPI PUSH2 0x342 PUSH2 0x33B PUSH1 0x1 SLOAD SWAP10 PUSH2 0x335 DUP9 PUSH2 0x32F DUP14 DUP5 PUSH2 0x145C JUMP JUMPDEST SWAP3 PUSH2 0x14B2 JUMP JUMPDEST SWAP1 PUSH2 0x1485 JUMP JUMPDEST DUP1 SWAP10 PUSH2 0x14A5 JUMP JUMPDEST SWAP4 DUP5 ISZERO PUSH2 0x34F DUP2 ISZERO PUSH2 0x14BF JUMP JUMPDEST PUSH1 0x96 DUP7 MUL SWAP1 DUP7 DUP3 DIV PUSH1 0x96 EQ OR ISZERO PUSH2 0xA7A JUMPI SWAP2 PUSH2 0x372 DUP8 SWAP3 PUSH2 0x388 SWAP5 DIV DUP1 SWAP8 PUSH2 0x14A5 JUMP JUMPDEST SWAP10 PUSH2 0x380 DUP14 CALLDATALOAD DUP13 LT ISZERO PUSH2 0x14F7 JUMP JUMPDEST PUSH1 0x1 SSTORE PUSH2 0x14B2 JUMP JUMPDEST PUSH1 0x2 SSTORE DUP1 PUSH2 0xA21 JUMPI JUMPDEST POP DUP1 PUSH2 0x9D2 JUMPI JUMPDEST POP DUP1 PUSH2 0x970 JUMPI JUMPDEST POP PUSH1 0x1 DUP1 PUSH1 0xA0 SHL SUB SWAP1 PUSH2 0x3CE DUP7 DUP7 DUP5 DUP7 SLOAD AND DUP11 DUP8 DUP10 MLOAD DUP1 SWAP7 DUP2 SWAP6 DUP3 SWAP5 PUSH4 0xA9059CBB PUSH1 0xE0 SHL DUP5 MSTORE CALLER SWAP1 DUP5 ADD PUSH2 0x1592 JUMP JUMPDEST SUB SWAP3 GAS CALL SWAP1 DUP2 ISZERO PUSH2 0x966 JUMPI DUP5 SWAP2 PUSH2 0x949 JUMPI JUMPDEST POP ISZERO PUSH2 0x912 JUMPI CALLER DUP4 MSTORE DUP7 DUP7 MSTORE DUP4 DUP4 KECCAK256 DUP1 SLOAD PUSH1 0x1 PUSH1 0x1 PUSH1 0x40 SHL SUB NOT AND TIMESTAMP PUSH1 0x1 PUSH1 0x1 PUSH1 0x40 SHL SUB AND OR SWAP1 SSTORE PUSH32 0x64FB1933E186BE0B289A87E98518DC18CC9856ECBC9F1353D1A138DDF733EC5 PUSH2 0x443 PUSH2 0x434 PUSH2 0x1671 JUMP JUMPDEST DUP7 MLOAD SWAP2 DUP3 SWAP2 DUP10 CALLER SWAP7 CALLVALUE DUP6 PUSH2 0x15AD JUMP JUMPDEST SUB SWAP1 LOG2 PUSH8 0x4563918244F40000 PUSH1 0x2 SLOAD LT ISZERO PUSH2 0x473 JUMPI JUMPDEST POP POP PUSH1 0x1 PUSH1 0x0 DUP1 MLOAD PUSH1 0x20 PUSH2 0x187C DUP4 CODECOPY DUP2 MLOAD SWAP2 MSTORE SSTORE MLOAD SWAP1 DUP2 MSTORE RETURN JUMPDEST PUSH1 0x1 PUSH1 0xFF NOT PUSH1 0x3 SLOAD AND OR PUSH1 0x3 SSTORE SELFBALANCE SWAP2 PUSH11 0xA56FA5B99019A5C8000000 SWAP1 DUP3 DUP2 SLOAD AND DUP6 MLOAD SWAP9 PUSH4 0x70A08231 PUSH1 0xE0 SHL DUP1 DUP12 MSTORE ADDRESS DUP3 DUP13 ADD MSTORE PUSH1 0x24 SWAP11 DUP11 DUP2 DUP14 DUP2 DUP8 GAS STATICCALL SWAP1 DUP2 ISZERO PUSH2 0x873 JUMPI DUP6 SWAP2 PUSH2 0x8E5 JUMPI JUMPDEST POP DUP6 DUP2 LT PUSH2 0x8DD JUMPI JUMPDEST POP DUP8 MLOAD PUSH4 0x95EA7B3 PUSH1 0xE0 SHL DUP2 MSTORE PUSH32 0x0 DUP8 AND SWAP4 DUP12 SWAP1 DUP3 SWAP1 DUP2 DUP9 DUP2 PUSH2 0x50C DUP13 DUP12 DUP12 DUP5 ADD PUSH2 0x1592 JUMP JUMPDEST SUB SWAP3 GAS CALL SWAP1 DUP2 ISZERO PUSH2 0x873 JUMPI DUP6 SWAP2 PUSH2 0x8B0 JUMPI JUMPDEST POP ISZERO PUSH2 0x87D JUMPI DUP8 MLOAD PUSH4 0x15AB88C9 PUSH1 0xE3 SHL DUP2 MSTORE SWAP11 DUP11 DUP13 DUP5 DUP2 DUP8 GAS STATICCALL DUP1 ISZERO PUSH2 0x873 JUMPI DUP12 SWAP13 DUP7 SWAP13 SWAP9 SWAP10 SWAP11 SWAP12 SWAP13 SWAP2 PUSH2 0x856 JUMPI JUMPDEST POP DUP9 PUSH32 0x0 AND DUP10 DUP8 SLOAD AND DUP13 MLOAD SWAP10 PUSH4 0xE6A43905 PUSH1 0xE0 SHL DUP12 MSTORE DUP11 DUP1 PUSH2 0x591 DUP7 DUP6 DUP12 DUP5 ADD PUSH2 0x1657 JUMP JUMPDEST SUB DUP2 DUP6 GAS STATICCALL SWAP10 DUP11 ISZERO PUSH2 0x84C JUMPI SWAP1 DUP16 SWAP4 SWAP3 SWAP2 DUP10 SWAP12 PUSH2 0x82D JUMPI JUMPDEST POP DUP14 DUP13 DUP13 AND ISZERO PUSH2 0x7B7 JUMPI JUMPDEST POP POP POP POP POP DUP8 DUP6 SLOAD AND PUSH2 0x12C TIMESTAMP ADD DUP1 TIMESTAMP GT PUSH2 0x7A5 JUMPI DUP12 MLOAD SWAP2 PUSH4 0xF305D719 PUSH1 0xE0 SHL DUP4 MSTORE DUP6 DUP4 ADD MSTORE DUP8 DUP4 DUP4 ADD MSTORE DUP7 PUSH1 0x44 DUP4 ADD MSTORE DUP7 PUSH1 0x64 DUP4 ADD MSTORE PUSH2 0xDEAD PUSH1 0x84 DUP4 ADD MSTORE PUSH1 0xA4 DUP3 ADD MSTORE PUSH1 0x60 DUP2 PUSH1 0xC4 DUP2 DUP14 DUP10 GAS CALL DUP1 ISZERO PUSH2 0x76C JUMPI PUSH2 0x776 JUMPI JUMPDEST POP DUP8 DUP6 SLOAD AND SWAP2 DUP11 MLOAD SWAP1 DUP2 MSTORE ADDRESS DUP5 DUP3 ADD MSTORE DUP13 DUP2 DUP4 DUP2 DUP7 GAS STATICCALL SWAP1 DUP2 ISZERO PUSH2 0x76C JUMPI DUP7 SWAP2 PUSH2 0x73A JUMPI JUMPDEST POP DUP1 PUSH2 0x6DF JUMPI JUMPDEST POP POP POP DUP6 DUP4 SLOAD AND SWAP1 DUP2 EXTCODESIZE ISZERO PUSH2 0x6DB JUMPI SWAP2 DUP4 SWAP2 DUP7 DUP4 PUSH2 0x66B SWAP6 DUP13 MLOAD SWAP7 DUP8 SWAP6 DUP7 SWAP5 DUP6 SWAP4 PUSH4 0xC7B12801 PUSH1 0xE0 SHL DUP6 MSTORE DUP5 ADD PUSH2 0x1657 JUMP JUMPDEST SUB SWAP3 GAS CALL DUP1 ISZERO PUSH2 0x6D1 JUMPI PUSH2 0x6BA JUMPI JUMPDEST POP POP DUP5 MLOAD SWAP4 DUP5 MSTORE DUP7 DUP5 ADD MSTORE AND DUP2 DUP4 ADD MSTORE PUSH32 0xE8284482A896DE2FB31532F8A0C0F64867B8D0586FF49DBD54DDF4CDDB2C0365 SWAP1 PUSH1 0x60 SWAP1 LOG1 SWAP1 DUP3 SWAP2 DUP5 DUP1 PUSH2 0x459 JUMP JUMPDEST PUSH2 0x6C4 DUP3 SWAP2 PUSH2 0x152E JUMP JUMPDEST PUSH2 0x6CE JUMPI DUP1 PUSH2 0x67A JUMP JUMPDEST DUP1 REVERT JUMPDEST DUP8 MLOAD RETURNDATASIZE DUP5 DUP3 RETURNDATACOPY RETURNDATASIZE SWAP1 REVERT JUMPDEST DUP4 DUP1 REVERT JUMPDEST DUP3 EXTCODESIZE ISZERO PUSH2 0x736 JUMPI DUP11 MLOAD PUSH4 0x16C24011 PUSH1 0xE2 SHL DUP2 MSTORE DUP5 DUP2 ADD SWAP2 SWAP1 SWAP2 MSTORE SWAP2 DUP6 SWAP2 DUP4 SWAP2 DUP3 SWAP1 DUP5 SWAP1 GAS CALL DUP1 ISZERO PUSH2 0x72C JUMPI SWAP1 DUP5 SWAP2 PUSH2 0x718 JUMPI JUMPDEST DUP1 PUSH2 0x639 JUMP JUMPDEST PUSH2 0x721 SWAP1 PUSH2 0x152E JUMP JUMPDEST PUSH2 0x28A JUMPI DUP3 DUP12 PUSH2 0x712 JUMP JUMPDEST DUP10 MLOAD RETURNDATASIZE DUP7 DUP3 RETURNDATACOPY RETURNDATASIZE SWAP1 REVERT JUMPDEST DUP6 DUP1 REVERT JUMPDEST SWAP1 POP DUP13 DUP2 DUP2 RETURNDATASIZE DUP4 GT PUSH2 0x765 JUMPI JUMPDEST PUSH2 0x751 DUP2 DUP4 PUSH2 0x1557 JUMP JUMPDEST DUP2 ADD SUB SLT PUSH2 0x760 JUMPI MLOAD DUP14 PUSH2 0x632 JUMP JUMPDEST PUSH1 0x0 DUP1 REVERT JUMPDEST POP RETURNDATASIZE PUSH2 0x747 JUMP JUMPDEST DUP12 MLOAD RETURNDATASIZE DUP9 DUP3 RETURNDATACOPY RETURNDATASIZE SWAP1 REVERT JUMPDEST PUSH1 0x60 SWAP1 DUP2 RETURNDATASIZE DUP2 GT PUSH2 0x79E JUMPI JUMPDEST PUSH2 0x78C DUP2 DUP4 PUSH2 0x1557 JUMP JUMPDEST DUP2 ADD SUB SLT PUSH2 0x79A JUMPI DUP13 PUSH2 0x60D JUMP JUMPDEST DUP5 DUP1 REVERT JUMPDEST POP RETURNDATASIZE PUSH2 0x782 JUMP JUMPDEST PUSH4 0x4E487B71 PUSH1 0xE0 SHL DUP8 MSTORE PUSH1 0x11 DUP6 MSTORE DUP3 DUP8 REVERT JUMPDEST PUSH2 0x7D8 SWAP6 SWAP12 POP DUP10 SWAP1 MLOAD DUP1 SWAP7 DUP2 SWAP6 DUP3 SWAP5 PUSH4 0x64E329CB PUSH1 0xE1 SHL DUP5 MSTORE DUP12 DUP5 ADD PUSH2 0x1657 JUMP JUMPDEST SUB SWAP3 GAS CALL SWAP1 DUP2 ISZERO PUSH2 0x823 JUMPI DUP6 SWAP2 PUSH2 0x7F6 JUMPI JUMPDEST POP SWAP6 DUP12 DUP14 DUP1 DUP1 DUP14 PUSH2 0x5B4 JUMP JUMPDEST PUSH2 0x816 SWAP2 POP DUP13 DUP14 RETURNDATASIZE LT PUSH2 0x81C JUMPI JUMPDEST PUSH2 0x80E DUP2 DUP4 PUSH2 0x1557 JUMP JUMPDEST DUP2 ADD SWAP1 PUSH2 0x1638 JUMP JUMPDEST DUP13 PUSH2 0x7EA JUMP JUMPDEST POP RETURNDATASIZE PUSH2 0x804 JUMP JUMPDEST DUP11 MLOAD RETURNDATASIZE DUP8 DUP3 RETURNDATACOPY RETURNDATASIZE SWAP1 REVERT JUMPDEST PUSH2 0x845 SWAP2 SWAP12 POP DUP5 RETURNDATASIZE DUP7 GT PUSH2 0x81C JUMPI PUSH2 0x80E DUP2 DUP4 PUSH2 0x1557 JUMP JUMPDEST SWAP10 CODESIZE PUSH2 0x5A9 JUMP JUMPDEST DUP14 MLOAD RETURNDATASIZE DUP11 DUP3 RETURNDATACOPY RETURNDATASIZE SWAP1 REVERT JUMPDEST PUSH2 0x86D SWAP2 POP DUP9 RETURNDATASIZE DUP11 GT PUSH2 0x81C JUMPI PUSH2 0x80E DUP2 DUP4 PUSH2 0x1557 JUMP JUMPDEST DUP14 PUSH2 0x54D JUMP JUMPDEST DUP10 MLOAD RETURNDATASIZE DUP8 DUP3 RETURNDATACOPY RETURNDATASIZE SWAP1 REVERT JUMPDEST DUP8 MLOAD PUSH3 0x461BCD PUSH1 0xE5 SHL DUP2 MSTORE DUP1 DUP4 ADD DUP12 SWAP1 MSTORE PUSH1 0xE DUP2 DUP14 ADD MSTORE PUSH14 0x105C1C1C9BDD994819985A5B1959 PUSH1 0x92 SHL PUSH1 0x44 DUP3 ADD MSTORE PUSH1 0x64 SWAP1 REVERT JUMPDEST PUSH2 0x8D0 SWAP2 POP DUP12 RETURNDATASIZE DUP14 GT PUSH2 0x8D6 JUMPI JUMPDEST PUSH2 0x8C8 DUP2 DUP4 PUSH2 0x1557 JUMP JUMPDEST DUP2 ADD SWAP1 PUSH2 0x157A JUMP JUMPDEST DUP13 PUSH2 0x51E JUMP JUMPDEST POP RETURNDATASIZE PUSH2 0x8BE JUMP JUMPDEST SWAP5 POP DUP12 PUSH2 0x4C7 JUMP JUMPDEST SWAP1 POP DUP11 DUP2 DUP2 RETURNDATASIZE DUP4 GT PUSH2 0x90B JUMPI JUMPDEST PUSH2 0x8FC DUP2 DUP4 PUSH2 0x1557 JUMP JUMPDEST DUP2 ADD SUB SLT PUSH2 0x760 JUMPI MLOAD DUP13 PUSH2 0x4BE JUMP JUMPDEST POP RETURNDATASIZE PUSH2 0x8F2 JUMP JUMPDEST DUP4 MLOAD PUSH3 0x461BCD PUSH1 0xE5 SHL DUP2 MSTORE DUP1 DUP9 ADD DUP8 SWAP1 MSTORE PUSH1 0x11 PUSH1 0x24 DUP3 ADD MSTORE PUSH17 0x151BDAD95B881E19995C8819985A5B1959 PUSH1 0x7A SHL PUSH1 0x44 DUP3 ADD MSTORE PUSH1 0x64 SWAP1 REVERT JUMPDEST PUSH2 0x960 SWAP2 POP DUP8 RETURNDATASIZE DUP10 GT PUSH2 0x8D6 JUMPI PUSH2 0x8C8 DUP2 DUP4 PUSH2 0x1557 JUMP JUMPDEST DUP9 PUSH2 0x3E0 JUMP JUMPDEST DUP6 MLOAD RETURNDATASIZE DUP7 DUP3 RETURNDATACOPY RETURNDATASIZE SWAP1 REVERT JUMPDEST DUP3 SLOAD PUSH1 0x1 PUSH1 0x1 PUSH1 0xA0 SHL SUB AND SWAP1 DUP2 EXTCODESIZE ISZERO PUSH2 0x6DB JUMPI DUP4 SWAP2 PUSH1 0x24 DUP4 SWAP3 DUP8 MLOAD SWAP5 DUP6 SWAP4 DUP5 SWAP3 PUSH4 0x16C24011 PUSH1 0xE2 SHL DUP5 MSTORE DUP14 DUP5 ADD MSTORE GAS CALL DUP1 ISZERO PUSH2 0x9C8 JUMPI SWAP1 DUP4 SWAP2 PUSH2 0x9B4 JUMPI JUMPDEST POP PUSH2 0x39F JUMP JUMPDEST PUSH2 0x9BD SWAP1 PUSH2 0x152E JUMP JUMPDEST PUSH2 0x18C JUMPI DUP2 DUP8 PUSH2 0x9AE JUMP JUMPDEST DUP5 MLOAD RETURNDATASIZE DUP6 DUP3 RETURNDATACOPY RETURNDATASIZE SWAP1 REVERT JUMPDEST DUP4 SLOAD PUSH1 0x1 PUSH1 0x1 PUSH1 0xA0 SHL SUB AND DUP1 EXTCODESIZE ISZERO PUSH2 0x79A JUMPI DUP5 SWAP1 DUP10 DUP8 MLOAD DUP1 SWAP5 DUP2 SWAP4 PUSH4 0x16F1A0A7 PUSH1 0xE3 SHL DUP4 MSTORE GAS CALL DUP1 ISZERO PUSH2 0x966 JUMPI SWAP1 DUP5 SWAP2 PUSH2 0xA0D JUMPI JUMPDEST POP PUSH2 0x398 JUMP JUMPDEST PUSH2 0xA16 SWAP1 PUSH2 0x152E JUMP JUMPDEST PUSH2 0x28A JUMPI DUP3 DUP9 PUSH2 0xA07 JUMP JUMPDEST DUP5 SLOAD PUSH1 0x1 PUSH1 0x1 PUSH1 0xA0 SHL SUB AND DUP1 EXTCODESIZE ISZERO PUSH2 0x736 JUMPI DUP6 SWAP1 DUP11 DUP9 MLOAD DUP1 SWAP5 DUP2 SWAP4 PUSH4 0x523AA0DD PUSH1 0xE1 SHL DUP4 MSTORE GAS CALL DUP1 ISZERO PUSH2 0xA70 JUMPI SWAP1 DUP6 SWAP2 PUSH2 0xA5C JUMPI JUMPDEST POP PUSH2 0x391 JUMP JUMPDEST PUSH2 0xA65 SWAP1 PUSH2 0x152E JUMP JUMPDEST PUSH2 0x6DB JUMPI DUP4 DUP10 PUSH2 0xA56 JUMP JUMPDEST DUP7 MLOAD RETURNDATASIZE DUP8 DUP3 RETURNDATACOPY RETURNDATASIZE SWAP1 REVERT JUMPDEST PUSH4 0x4E487B71 PUSH1 0xE0 SHL DUP9 MSTORE PUSH1 0x11 DUP13 MSTORE PUSH1 0x24 DUP9 REVERT JUMPDEST PUSH4 0x4E487B71 PUSH1 0xE0 SHL DUP7 MSTORE PUSH1 0x11 DUP11 MSTORE PUSH1 0x24 DUP7 REVERT JUMPDEST PUSH4 0x4E487B71 PUSH1 0xE0 SHL DUP4 MSTORE PUSH1 0x11 DUP8 MSTORE PUSH1 0x24 DUP4 REVERT JUMPDEST PUSH4 0x4E487B71 PUSH1 0xE0 SHL DUP2 MSTORE PUSH1 0x11 DUP6 MSTORE PUSH1 0x24 SWAP1 REVERT JUMPDEST MLOAD PUSH3 0x461BCD PUSH1 0xE5 SHL DUP2 MSTORE DUP1 DUP5 ADD DUP4 SWAP1 MSTORE PUSH1 0x6 PUSH1 0x24 DUP3 ADD MSTORE PUSH6 0x9CDE408AA89 PUSH1 0xD3 SHL PUSH1 0x44 DUP3 ADD MSTORE PUSH1 0x64 SWAP1 REVERT JUMPDEST PUSH1 0xFF SWAP2 POP PUSH1 0x8 SHR AND ISZERO DUP7 PUSH2 0x2B7 JUMP JUMPDEST DUP4 DUP4 CALLVALUE PUSH2 0x18C JUMPI DUP1 PUSH1 0x3 NOT CALLDATASIZE ADD SLT PUSH2 0x18C JUMPI DUP3 CALLDATALOAD PUSH2 0xB1C PUSH2 0x15C9 JUMP JUMPDEST PUSH2 0xB33 PUSH1 0x3 SLOAD PUSH1 0xFF DUP2 AND ISZERO SWAP1 DUP2 PUSH2 0xAF1 JUMPI POP PUSH2 0x1421 JUMP JUMPDEST DUP1 ISZERO PUSH2 0xEAD JUMPI PUSH1 0x96 DUP2 MUL DUP2 DUP2 DIV PUSH1 0x96 SUB PUSH2 0xE9A JUMPI PUSH2 0x2710 DUP1 SWAP2 DIV SWAP5 PUSH2 0xB58 DUP7 DUP5 PUSH2 0x14A5 JUMP JUMPDEST SWAP6 PUSH1 0x1 DUP1 PUSH1 0xA0 SHL SUB DUP7 DUP2 DUP2 SLOAD AND SWAP3 DUP8 MLOAD PUSH4 0x23B872DD PUSH1 0xE0 SHL DUP2 MSTORE CALLER DUP7 DUP3 ADD MSTORE PUSH1 0x24 SWAP5 ADDRESS DUP7 DUP4 ADD MSTORE DUP9 PUSH1 0x44 DUP4 ADD MSTORE DUP2 PUSH1 0x64 DUP2 PUSH1 0x20 SWAP14 DUP15 SWAP5 GAS CALL SWAP1 DUP2 ISZERO PUSH2 0xE90 JUMPI DUP4 SWAP2 PUSH2 0xE73 JUMPI JUMPDEST POP ISZERO PUSH2 0xE3C JUMPI DUP1 PUSH2 0xDF0 JUMPI JUMPDEST POP SWAP1 PUSH1 0x2 SLOAD SWAP5 PUSH8 0x29A2241AF62C0000 SWAP10 DUP7 DUP12 ADD DUP1 SWAP12 GT PUSH2 0xD9F JUMPI PUSH2 0xBDE SWAP10 SWAP11 PUSH2 0xBEB PUSH2 0xBE4 PUSH2 0xBF1 SWAP4 PUSH1 0x1 SLOAD SWAP14 DUP15 DUP6 PUSH2 0x145C JUMP JUMPDEST SWAP14 PUSH2 0x14B2 JUMP JUMPDEST DUP1 SWAP13 PUSH2 0x1485 JUMP JUMPDEST SWAP1 PUSH2 0x14A5 JUMP JUMPDEST SWAP6 DUP1 DUP8 GT PUSH2 0xDB2 JUMPI DUP7 PUSH2 0xC13 SWAP2 DUP2 ISZERO SWAP12 PUSH2 0xC0B DUP14 ISZERO PUSH2 0x14BF JUMP JUMPDEST PUSH1 0x1 SSTORE PUSH2 0x14A5 JUMP JUMPDEST PUSH1 0x2 SSTORE PUSH2 0xC1F CALLER PUSH2 0x16A6 JUMP JUMPDEST PUSH1 0xC8 ADD DUP1 PUSH1 0xC8 GT PUSH2 0xD9F JUMPI PUSH2 0xC35 DUP3 SWAP2 DUP9 PUSH2 0x145C JUMP JUMPDEST DIV SWAP9 PUSH1 0x96 DUP8 MUL SWAP1 DUP8 DUP3 DIV PUSH1 0x96 EQ OR ISZERO PUSH2 0xD9F JUMPI DIV SWAP1 PUSH2 0xC58 DUP3 PUSH2 0x2F9 DUP12 DUP10 PUSH2 0x14A5 JUMP JUMPDEST SWAP9 PUSH2 0xC66 DUP6 CALLDATALOAD DUP12 LT ISZERO PUSH2 0x14F7 JUMP JUMPDEST DUP1 PUSH2 0xD57 JUMPI JUMPDEST POP DUP2 PUSH2 0xD16 JUMPI JUMPDEST POP POP DUP1 DUP1 DUP1 DUP10 CALLER GAS CALL PUSH2 0xC84 PUSH2 0x15F9 JUMP JUMPDEST POP ISZERO PUSH2 0xCE2 JUMPI POP POP DUP4 PUSH32 0x483F8AEC0FD892AC72AD1BA8D0E9C9E73DB59C12D263FD71DE480B5B3DEEAE3C SWAP2 PUSH2 0xCC7 PUSH2 0xCBA PUSH2 0x1671 JUMP JUMPDEST DUP7 MLOAD SWAP4 DUP5 SWAP4 CALLER SWAP8 DUP6 PUSH2 0x15AD JUMP JUMPDEST SUB SWAP1 LOG2 PUSH1 0x1 PUSH1 0x0 DUP1 MLOAD PUSH1 0x20 PUSH2 0x187C DUP4 CODECOPY DUP2 MLOAD SWAP2 MSTORE SSTORE MLOAD SWAP1 DUP2 MSTORE RETURN JUMPDEST DUP5 MLOAD PUSH3 0x461BCD PUSH1 0xE5 SHL DUP2 MSTORE SWAP2 DUP3 ADD DUP8 SWAP1 MSTORE PUSH1 0xF SWAP1 DUP3 ADD MSTORE PUSH15 0x115512081CD95B990819985A5B1959 PUSH1 0x8A SHL PUSH1 0x44 DUP3 ADD MSTORE PUSH1 0x64 SWAP1 REVERT JUMPDEST DUP3 SLOAD AND DUP1 EXTCODESIZE ISZERO PUSH2 0x28A JUMPI DUP3 SWAP1 DUP6 DUP10 MLOAD DUP1 SWAP5 DUP2 SWAP4 PUSH4 0x16F1A0A7 PUSH1 0xE3 SHL DUP4 MSTORE GAS CALL DUP1 ISZERO PUSH2 0x6D1 JUMPI SWAP1 DUP3 SWAP2 ISZERO PUSH2 0xC73 JUMPI PUSH2 0xD4C SWAP1 PUSH2 0x152E JUMP JUMPDEST PUSH2 0x6CE JUMPI DUP1 DUP10 PUSH2 0xC73 JUMP JUMPDEST DUP2 DUP5 SLOAD AND DUP1 EXTCODESIZE ISZERO PUSH2 0x79A JUMPI DUP5 SWAP1 DUP8 DUP12 MLOAD DUP1 SWAP5 DUP2 SWAP4 PUSH4 0x523AA0DD PUSH1 0xE1 SHL DUP4 MSTORE GAS CALL DUP1 ISZERO PUSH2 0x72C JUMPI SWAP1 DUP5 SWAP2 PUSH2 0xD8B JUMPI JUMPDEST POP PUSH2 0xC6C JUMP JUMPDEST PUSH2 0xD94 SWAP1 PUSH2 0x152E JUMP JUMPDEST PUSH2 0x28A JUMPI DUP3 DUP12 PUSH2 0xD85 JUMP JUMPDEST POP POP PUSH4 0x4E487B71 PUSH1 0xE0 SHL DUP3 MSTORE POP PUSH1 0x11 DUP4 MSTORE REVERT JUMPDEST DUP9 MLOAD PUSH3 0x461BCD PUSH1 0xE5 SHL DUP2 MSTORE DUP1 DUP8 ADD DUP13 SWAP1 MSTORE PUSH1 0x19 DUP2 DUP8 ADD MSTORE PUSH25 0x496E73756666696369656E742045544820696E206375727665 PUSH1 0x38 SHL PUSH1 0x44 DUP3 ADD MSTORE PUSH1 0x64 SWAP1 REVERT JUMPDEST DUP3 DUP3 SLOAD AND SWAP1 DUP2 EXTCODESIZE ISZERO PUSH2 0x28A JUMPI DUP3 SWAP2 DUP6 DUP4 SWAP3 DUP12 MLOAD SWAP5 DUP6 SWAP4 DUP5 SWAP3 PUSH4 0x16C24011 PUSH1 0xE2 SHL DUP5 MSTORE DUP12 DUP5 ADD MSTORE GAS CALL DUP1 ISZERO PUSH2 0xE32 JUMPI ISZERO PUSH2 0xBAA JUMPI PUSH2 0xE2C SWAP1 PUSH2 0x152E JUMP JUMPDEST DUP10 PUSH2 0xBAA JUMP JUMPDEST DUP9 MLOAD RETURNDATASIZE DUP5 DUP3 RETURNDATACOPY RETURNDATASIZE SWAP1 REVERT JUMPDEST DUP8 MLOAD PUSH3 0x461BCD PUSH1 0xE5 SHL DUP2 MSTORE DUP1 DUP7 ADD DUP11 SWAP1 MSTORE PUSH1 0x12 DUP2 DUP7 ADD MSTORE PUSH18 0x151C985B9CD9995C881A5B8819985A5B1959 PUSH1 0x72 SHL PUSH1 0x44 DUP3 ADD MSTORE PUSH1 0x64 SWAP1 REVERT JUMPDEST PUSH2 0xE8A SWAP2 POP DUP11 RETURNDATASIZE DUP13 GT PUSH2 0x8D6 JUMPI PUSH2 0x8C8 DUP2 DUP4 PUSH2 0x1557 JUMP JUMPDEST DUP12 PUSH2 0xB9E JUMP JUMPDEST DUP10 MLOAD RETURNDATASIZE DUP6 DUP3 RETURNDATACOPY RETURNDATASIZE SWAP1 REVERT JUMPDEST PUSH4 0x4E487B71 PUSH1 0xE0 SHL DUP5 MSTORE PUSH1 0x11 DUP6 MSTORE PUSH1 0x24 DUP5 REVERT JUMPDEST DUP2 MLOAD PUSH3 0x461BCD PUSH1 0xE5 SHL DUP2 MSTORE PUSH1 0x20 DUP2 DUP7 ADD MSTORE PUSH1 0x9 PUSH1 0x24 DUP3 ADD MSTORE PUSH9 0x4E6F20746F6B656E73 PUSH1 0xB8 SHL PUSH1 0x44 DUP3 ADD MSTORE PUSH1 0x64 SWAP1 REVERT JUMPDEST PUSH2 0x13CA JUMP JUMPDEST POP POP CALLVALUE PUSH2 0x18C JUMPI DUP2 PUSH1 0x3 NOT CALLDATASIZE ADD SLT PUSH2 0x18C JUMPI PUSH1 0x20 SWAP1 MLOAD PUSH11 0xA56FA5B99019A5C8000000 DUP2 MSTORE RETURN JUMPDEST POP POP CALLVALUE PUSH2 0x18C JUMPI DUP2 PUSH1 0x3 NOT CALLDATASIZE ADD SLT PUSH2 0x18C JUMPI PUSH1 0x20 SWAP1 MLOAD PUSH2 0x3E8 DUP2 MSTORE RETURN JUMPDEST POP POP CALLVALUE PUSH2 0x18C JUMPI DUP2 PUSH1 0x3 NOT CALLDATASIZE ADD SLT PUSH2 0x18C JUMPI MLOAD PUSH32 0x0 PUSH1 0x1 PUSH1 0x1 PUSH1 0xA0 SHL SUB AND DUP2 MSTORE PUSH1 0x20 SWAP1 RETURN JUMPDEST POP POP CALLVALUE PUSH2 0x18C JUMPI DUP2 PUSH1 0x3 NOT CALLDATASIZE ADD SLT PUSH2 0x18C JUMPI PUSH1 0x20 SWAP1 MLOAD PUSH2 0x7D0 DUP2 MSTORE RETURN JUMPDEST POP POP CALLVALUE PUSH2 0x18C JUMPI DUP2 PUSH1 0x3 NOT CALLDATASIZE ADD SLT PUSH2 0x18C JUMPI PUSH1 0x20 SWAP1 MLOAD PUSH2 0x1F4 DUP2 MSTORE RETURN JUMPDEST POP POP CALLVALUE PUSH2 0x18C JUMPI DUP2 PUSH1 0x3 NOT CALLDATASIZE ADD SLT PUSH2 0x18C JUMPI MLOAD PUSH8 0x14ADF4B7320334B9 PUSH1 0x1D SHL DUP2 MSTORE PUSH1 0x20 SWAP1 RETURN JUMPDEST POP POP CALLVALUE PUSH2 0x18C JUMPI DUP2 PUSH1 0x3 NOT CALLDATASIZE ADD SLT PUSH2 0x18C JUMPI MLOAD PUSH32 0x0 PUSH1 0x1 PUSH1 0x1 PUSH1 0xA0 SHL SUB AND DUP2 MSTORE PUSH1 0x20 SWAP1 RETURN JUMPDEST DUP3 DUP5 CALLVALUE PUSH2 0x6CE JUMPI DUP1 PUSH1 0x3 NOT CALLDATASIZE ADD SLT PUSH2 0x6CE JUMPI PUSH1 0x2 SLOAD SWAP3 PUSH8 0x29A2241AF62C0000 SWAP4 DUP5 ADD DUP1 SWAP5 GT PUSH2 0x1066 JUMPI PUSH8 0xDE0B6B3A7640000 SWAP4 DUP5 DUP2 MUL SWAP5 DUP2 DUP7 DIV EQ SWAP1 ISZERO OR ISZERO PUSH2 0x1066 JUMPI PUSH1 0x20 DUP4 PUSH2 0x105F DUP7 PUSH1 0x1 SLOAD SWAP1 PUSH2 0x1485 JUMP JUMPDEST SWAP1 MLOAD SWAP1 DUP2 MSTORE RETURN JUMPDEST PUSH4 0x4E487B71 PUSH1 0xE0 SHL DUP3 MSTORE PUSH1 0x11 SWAP1 MSTORE PUSH1 0x24 SWAP1 REVERT JUMPDEST POP POP CALLVALUE PUSH2 0x18C JUMPI DUP2 PUSH1 0x3 NOT CALLDATASIZE ADD SLT PUSH2 0x18C JUMPI PUSH1 0x20 SWAP1 MLOAD PUSH8 0x4563918244F40000 DUP2 MSTORE RETURN JUMPDEST POP POP CALLVALUE PUSH2 0x18C JUMPI DUP2 PUSH1 0x3 NOT CALLDATASIZE ADD SLT PUSH2 0x18C JUMPI MLOAD PUSH32 0x0 PUSH1 0x1 PUSH1 0x1 PUSH1 0xA0 SHL SUB AND DUP2 MSTORE PUSH1 0x20 SWAP1 RETURN JUMPDEST POP POP CALLVALUE PUSH2 0x18C JUMPI DUP2 PUSH1 0x3 NOT CALLDATASIZE ADD SLT PUSH2 0x18C JUMPI MLOAD PUSH32 0x0 PUSH1 0x1 PUSH1 0x1 PUSH1 0xA0 SHL SUB AND DUP2 MSTORE PUSH1 0x20 SWAP1 RETURN JUMPDEST POP POP CALLVALUE PUSH2 0x18C JUMPI DUP2 PUSH1 0x3 NOT CALLDATASIZE ADD SLT PUSH2 0x18C JUMPI PUSH1 0x20 SWAP1 PUSH1 0xFF PUSH1 0x3 SLOAD PUSH1 0x8 SHR AND SWAP1 MLOAD SWAP1 ISZERO ISZERO DUP2 MSTORE RETURN JUMPDEST SWAP1 POP CALLVALUE PUSH2 0x28A JUMPI DUP2 PUSH1 0x3 NOT CALLDATASIZE ADD SLT PUSH2 0x28A JUMPI PUSH1 0x24 CALLDATALOAD SWAP3 PUSH1 0x1 PUSH1 0x1 PUSH1 0xA0 SHL SUB DUP5 AND DUP5 SUB PUSH2 0x6CE JUMPI POP PUSH1 0x20 SWAP3 PUSH2 0x105F SWAP2 CALLDATALOAD PUSH2 0x17A3 JUMP JUMPDEST POP POP CALLVALUE PUSH2 0x18C JUMPI DUP2 PUSH1 0x3 NOT CALLDATASIZE ADD SLT PUSH2 0x18C JUMPI PUSH1 0x20 SWAP1 PUSH2 0x105F PUSH2 0x1671 JUMP JUMPDEST POP POP CALLVALUE PUSH2 0x18C JUMPI DUP2 PUSH1 0x3 NOT CALLDATASIZE ADD SLT PUSH2 0x18C JUMPI PUSH1 0x20 SWAP1 MLOAD PUSH8 0x29A2241AF62C0000 DUP2 MSTORE RETURN JUMPDEST SWAP1 POP CALLVALUE PUSH2 0x28A JUMPI PUSH1 0x20 CALLDATASIZE PUSH1 0x3 NOT ADD SLT PUSH2 0x28A JUMPI PUSH1 0x20 SWAP3 SWAP1 PUSH1 0x1 PUSH1 0x1 PUSH1 0xA0 SHL SUB PUSH2 0x11E6 PUSH2 0x13B4 JUMP JUMPDEST AND DUP3 MSTORE DUP4 MSTORE DUP2 SWAP1 KECCAK256 SLOAD SWAP1 MLOAD PUSH1 0x1 PUSH1 0x1 PUSH1 0x40 SHL SUB SWAP1 SWAP2 AND DUP2 MSTORE RETURN JUMPDEST SWAP2 SWAP1 POP CALLVALUE PUSH2 0x28A JUMPI PUSH1 0x20 CALLDATASIZE PUSH1 0x3 NOT ADD SLT PUSH2 0x28A JUMPI PUSH2 0x121C PUSH2 0x13B4 JUMP JUMPDEST PUSH2 0x1224 PUSH2 0x15C9 JUMP JUMPDEST PUSH1 0x1 PUSH1 0x1 PUSH1 0xA0 SHL SUB SWAP2 PUSH2 0x125A CALLER PUSH32 0x0 DUP6 AND EQ PUSH2 0x13E6 JUMP JUMPDEST PUSH1 0x3 SLOAD PUSH1 0xFF DUP2 AND PUSH2 0x1306 JUMPI PUSH2 0xFF00 NOT AND PUSH2 0x100 OR PUSH1 0x3 SSTORE SELFBALANCE SWAP4 DUP5 PUSH2 0x12BB JUMPI JUMPDEST POP MLOAD SWAP3 DUP4 MSTORE AND SWAP1 PUSH32 0x16BFC55CFDA3EB65B74E8FE52A8804E222BDB31AEF30599B41ADEB45893F66A9 SWAP1 PUSH1 0x20 SWAP1 LOG2 PUSH1 0x1 PUSH1 0x0 DUP1 MLOAD PUSH1 0x20 PUSH2 0x187C DUP4 CODECOPY DUP2 MLOAD SWAP2 MSTORE SSTORE DUP1 RETURN JUMPDEST DUP6 DUP1 DUP1 DUP1 DUP9 DUP9 DUP9 AND GAS CALL PUSH2 0x12CD PUSH2 0x15F9 JUMP JUMPDEST POP PUSH2 0x1279 JUMPI PUSH1 0x20 PUSH1 0x64 SWAP3 MLOAD SWAP2 PUSH3 0x461BCD PUSH1 0xE5 SHL DUP4 MSTORE DUP3 ADD MSTORE PUSH1 0xF PUSH1 0x24 DUP3 ADD MSTORE PUSH15 0x15DA5D1A191C985DC819985A5B1959 PUSH1 0x8A SHL PUSH1 0x44 DUP3 ADD MSTORE REVERT JUMPDEST DUP2 MLOAD PUSH3 0x461BCD PUSH1 0xE5 SHL DUP2 MSTORE PUSH1 0x20 DUP2 DUP8 ADD MSTORE PUSH1 0x11 PUSH1 0x24 DUP3 ADD MSTORE PUSH17 0x105B1C9958591E4819DC98591D585D1959 PUSH1 0x7A SHL PUSH1 0x44 DUP3 ADD MSTORE PUSH1 0x64 SWAP1 REVERT JUMPDEST POP POP CALLVALUE PUSH2 0x18C JUMPI DUP2 PUSH1 0x3 NOT CALLDATASIZE ADD SLT PUSH2 0x18C JUMPI PUSH1 0x20 SWAP1 MLOAD PUSH1 0xC8 DUP2 MSTORE RETURN JUMPDEST POP POP CALLVALUE PUSH2 0x18C JUMPI DUP2 PUSH1 0x3 NOT CALLDATASIZE ADD SLT PUSH2 0x18C JUMPI PUSH1 0x20 SWAP1 PUSH1 0x1 SLOAD SWAP1 MLOAD SWAP1 DUP2 MSTORE RETURN JUMPDEST DUP3 DUP5 CALLVALUE PUSH2 0x6CE JUMPI PUSH1 0x20 CALLDATASIZE PUSH1 0x3 NOT ADD SLT PUSH2 0x6CE JUMPI POP PUSH2 0x105F PUSH1 0x20 SWAP3 CALLDATALOAD PUSH2 0x1711 JUMP JUMPDEST DUP5 SWAP1 CALLVALUE PUSH2 0x18C JUMPI DUP2 PUSH1 0x3 NOT CALLDATASIZE ADD SLT PUSH2 0x18C JUMPI PUSH1 0x20 SWAP1 PUSH1 0x2 SLOAD DUP2 MSTORE RETURN JUMPDEST PUSH1 0x4 CALLDATALOAD SWAP1 PUSH1 0x1 PUSH1 0x1 PUSH1 0xA0 SHL SUB DUP3 AND DUP3 SUB PUSH2 0x760 JUMPI JUMP JUMPDEST CALLVALUE PUSH2 0x760 JUMPI PUSH1 0x0 CALLDATASIZE PUSH1 0x3 NOT ADD SLT PUSH2 0x760 JUMPI PUSH1 0x20 PUSH1 0x40 MLOAD PUSH1 0x96 DUP2 MSTORE RETURN JUMPDEST ISZERO PUSH2 0x13ED JUMPI JUMP JUMPDEST PUSH1 0x40 MLOAD PUSH3 0x461BCD PUSH1 0xE5 SHL DUP2 MSTORE PUSH1 0x20 PUSH1 0x4 DUP3 ADD MSTORE PUSH1 0xC PUSH1 0x24 DUP3 ADD MSTORE PUSH12 0x4F6E6C7920666163746F7279 PUSH1 0xA0 SHL PUSH1 0x44 DUP3 ADD MSTORE PUSH1 0x64 SWAP1 REVERT JUMPDEST ISZERO PUSH2 0x1428 JUMPI JUMP JUMPDEST PUSH1 0x40 MLOAD PUSH3 0x461BCD PUSH1 0xE5 SHL DUP2 MSTORE PUSH1 0x20 PUSH1 0x4 DUP3 ADD MSTORE PUSH1 0xC PUSH1 0x24 DUP3 ADD MSTORE PUSH12 0x10DD5C9D994818DB1BDCD959 PUSH1 0xA2 SHL PUSH1 0x44 DUP3 ADD MSTORE PUSH1 0x64 SWAP1 REVERT JUMPDEST DUP2 DUP2 MUL SWAP3 SWAP2 DUP2 ISZERO SWAP2 DUP5 DIV EQ OR ISZERO PUSH2 0x146F JUMPI JUMP JUMPDEST PUSH4 0x4E487B71 PUSH1 0xE0 SHL PUSH1 0x0 MSTORE PUSH1 0x11 PUSH1 0x4 MSTORE PUSH1 0x24 PUSH1 0x0 REVERT JUMPDEST DUP2 ISZERO PUSH2 0x148F JUMPI DIV SWAP1 JUMP JUMPDEST PUSH4 0x4E487B71 PUSH1 0xE0 SHL PUSH1 0x0 MSTORE PUSH1 0x12 PUSH1 0x4 MSTORE PUSH1 0x24 PUSH1 0x0 REVERT JUMPDEST SWAP2 SWAP1 DUP3 SUB SWAP2 DUP3 GT PUSH2 0x146F JUMPI JUMP JUMPDEST SWAP2 SWAP1 DUP3 ADD DUP1 SWAP3 GT PUSH2 0x146F JUMPI JUMP JUMPDEST ISZERO PUSH2 0x14C6 JUMPI JUMP JUMPDEST PUSH1 0x40 MLOAD PUSH3 0x461BCD PUSH1 0xE5 SHL DUP2 MSTORE PUSH1 0x20 PUSH1 0x4 DUP3 ADD MSTORE PUSH1 0x9 PUSH1 0x24 DUP3 ADD MSTORE PUSH9 0x151BDBC81CDB585B1B PUSH1 0xBA SHL PUSH1 0x44 DUP3 ADD MSTORE PUSH1 0x64 SWAP1 REVERT JUMPDEST ISZERO PUSH2 0x14FE JUMPI JUMP JUMPDEST PUSH1 0x40 MLOAD PUSH3 0x461BCD PUSH1 0xE5 SHL DUP2 MSTORE PUSH1 0x20 PUSH1 0x4 DUP3 ADD MSTORE PUSH1 0x8 PUSH1 0x24 DUP3 ADD MSTORE PUSH8 0x536C697070616765 PUSH1 0xC0 SHL PUSH1 0x44 DUP3 ADD MSTORE PUSH1 0x64 SWAP1 REVERT JUMPDEST PUSH1 0x1 PUSH1 0x1 PUSH1 0x40 SHL SUB DUP2 GT PUSH2 0x1541 JUMPI PUSH1 0x40 MSTORE JUMP JUMPDEST PUSH4 0x4E487B71 PUSH1 0xE0 SHL PUSH1 0x0 MSTORE PUSH1 0x41 PUSH1 0x4 MSTORE PUSH1 0x24 PUSH1 0x0 REVERT JUMPDEST PUSH1 0x1F SWAP1 SWAP2 ADD PUSH1 0x1F NOT AND DUP2 ADD SWAP1 PUSH1 0x1 PUSH1 0x1 PUSH1 0x40 SHL SUB DUP3 GT SWAP1 DUP3 LT OR PUSH2 0x1541 JUMPI PUSH1 0x40 MSTORE JUMP JUMPDEST SWAP1 DUP2 PUSH1 0x20 SWAP2 SUB SLT PUSH2 0x760 JUMPI MLOAD DUP1 ISZERO ISZERO DUP2 SUB PUSH2 0x760 JUMPI SWAP1 JUMP JUMPDEST PUSH1 0x1 PUSH1 0x1 PUSH1 0xA0 SHL SUB SWAP1 SWAP2 AND DUP2 MSTORE PUSH1 0x20 DUP2 ADD SWAP2 SWAP1 SWAP2 MSTORE PUSH1 0x40 ADD SWAP1 JUMP JUMPDEST SWAP1 SWAP5 SWAP4 SWAP3 PUSH1 0x60 SWAP3 PUSH1 0x80 DUP4 ADD SWAP7 DUP4 MSTORE PUSH1 0x20 DUP4 ADD MSTORE PUSH1 0x40 DUP3 ADD MSTORE ADD MSTORE JUMP JUMPDEST PUSH1 0x0 DUP1 MLOAD PUSH1 0x20 PUSH2 0x187C DUP4 CODECOPY DUP2 MLOAD SWAP2 MSTORE PUSH1 0x2 DUP2 SLOAD EQ PUSH2 0x15E7 JUMPI PUSH1 0x2 SWAP1 SSTORE JUMP JUMPDEST PUSH1 0x40 MLOAD PUSH4 0x3EE5AEB5 PUSH1 0xE0 SHL DUP2 MSTORE PUSH1 0x4 SWAP1 REVERT JUMPDEST RETURNDATASIZE ISZERO PUSH2 0x1633 JUMPI RETURNDATASIZE SWAP1 PUSH1 0x1 PUSH1 0x1 PUSH1 0x40 SHL SUB DUP3 GT PUSH2 0x1541 JUMPI PUSH1 0x40 MLOAD SWAP2 PUSH2 0x1627 PUSH1 0x1F DUP3 ADD PUSH1 0x1F NOT AND PUSH1 0x20 ADD DUP5 PUSH2 0x1557 JUMP JUMPDEST DUP3 MSTORE RETURNDATASIZE PUSH1 0x0 PUSH1 0x20 DUP5 ADD RETURNDATACOPY JUMP JUMPDEST PUSH1 0x60 SWAP1 JUMP JUMPDEST SWAP1 DUP2 PUSH1 0x20 SWAP2 SUB SLT PUSH2 0x760 JUMPI MLOAD PUSH1 0x1 PUSH1 0x1 PUSH1 0xA0 SHL SUB DUP2 AND DUP2 SUB PUSH2 0x760 JUMPI SWAP1 JUMP JUMPDEST PUSH1 0x1 PUSH1 0x1 PUSH1 0xA0 SHL SUB SWAP2 DUP3 AND DUP2 MSTORE SWAP2 AND PUSH1 0x20 DUP3 ADD MSTORE PUSH1 0x40 ADD SWAP1 JUMP JUMPDEST PUSH1 0xFF PUSH1 0x3 SLOAD AND PUSH2 0x16A0 JUMPI PUSH1 0x2 SLOAD PUSH2 0x2710 SWAP1 DUP2 DUP2 MUL SWAP2 DUP2 DUP4 DIV EQ SWAP1 ISZERO OR ISZERO PUSH2 0x146F JUMPI PUSH8 0x4563918244F40000 SWAP1 DIV SWAP1 JUMP JUMPDEST PUSH2 0x2710 SWAP1 JUMP JUMPDEST PUSH1 0x1 PUSH1 0x1 PUSH1 0xA0 SHL SUB AND PUSH1 0x0 SWAP1 DUP2 MSTORE PUSH1 0x4 PUSH1 0x20 MSTORE PUSH1 0x40 SWAP1 KECCAK256 SLOAD PUSH1 0x1 PUSH1 0x1 PUSH1 0x40 SHL SUB AND DUP1 ISZERO PUSH2 0x170B JUMPI PUSH2 0x16D7 SWAP1 TIMESTAMP PUSH2 0x14A5 JUMP JUMPDEST PUSH2 0x12C DUP2 LT PUSH2 0x1704 JUMPI PUSH2 0xE10 DUP2 LT PUSH2 0x16FD JUMPI PUSH3 0x15180 GT PUSH2 0x16F7 JUMPI PUSH1 0x0 SWAP1 JUMP JUMPDEST PUSH2 0x1F4 SWAP1 JUMP JUMPDEST POP PUSH2 0x3E8 SWAP1 JUMP JUMPDEST POP PUSH2 0x7D0 SWAP1 JUMP JUMPDEST POP PUSH1 0x0 SWAP1 JUMP JUMPDEST PUSH1 0x3 SLOAD PUSH1 0xFF DUP2 AND SWAP1 DUP2 ISZERO PUSH2 0x1795 JUMPI JUMPDEST POP PUSH2 0x170B JUMPI PUSH2 0x25B2 SWAP1 DUP2 DUP2 MUL SWAP2 DUP2 DUP4 DIV EQ SWAP1 ISZERO OR ISZERO PUSH2 0x146F JUMPI PUSH1 0x2 SLOAD PUSH8 0x29A2241AF62C0000 SWAP1 DUP2 ADD DUP1 SWAP2 GT PUSH2 0x146F JUMPI PUSH2 0x1774 SWAP1 PUSH2 0xBEB PUSH1 0x1 SLOAD SWAP2 PUSH2 0x335 PUSH2 0x1767 DUP5 DUP4 PUSH2 0x145C JUMP JUMPDEST SWAP2 PUSH2 0x2710 DUP1 SWAP8 DIV SWAP1 PUSH2 0x14B2 JUMP JUMPDEST PUSH1 0x96 DUP2 MUL SWAP2 DUP2 DUP4 DIV PUSH1 0x96 EQ DUP3 ISZERO OR ISZERO PUSH2 0x146F JUMPI PUSH2 0x1792 SWAP3 DIV SWAP1 PUSH2 0x14A5 JUMP JUMPDEST SWAP1 JUMP JUMPDEST PUSH1 0xFF SWAP2 POP PUSH1 0x8 SHR AND CODESIZE PUSH2 0x1720 JUMP JUMPDEST PUSH1 0x3 SLOAD PUSH1 0xFF DUP2 AND SWAP1 DUP2 ISZERO PUSH2 0x186D JUMPI JUMPDEST POP PUSH2 0x1866 JUMPI PUSH1 0x96 DUP2 MUL SWAP1 DUP1 DUP3 DIV PUSH1 0x96 EQ DUP2 ISZERO OR ISZERO PUSH2 0x146F JUMPI PUSH2 0x17DA SWAP1 PUSH2 0x2710 DUP1 SWAP4 DIV SWAP1 PUSH2 0x14A5 JUMP JUMPDEST SWAP2 PUSH1 0x2 SLOAD SWAP3 PUSH8 0x29A2241AF62C0000 DUP5 DUP2 ADD DUP1 SWAP2 GT PUSH2 0x146F JUMPI PUSH2 0xBEB PUSH2 0x180A SWAP3 PUSH2 0x335 PUSH1 0x1 SLOAD SWAP2 PUSH2 0x32F DUP4 DUP7 PUSH2 0x145C JUMP JUMPDEST SWAP3 DUP1 DUP5 GT PUSH2 0x185C JUMPI JUMPDEST POP PUSH2 0x181D SWAP1 PUSH2 0x16A6 JUMP JUMPDEST DUP1 PUSH1 0xC8 ADD SWAP1 DUP2 PUSH1 0xC8 GT PUSH2 0x146F JUMPI PUSH2 0x15E ADD DUP1 SWAP2 GT PUSH2 0x146F JUMPI PUSH2 0x183F SWAP1 DUP4 PUSH2 0x145C JUMP JUMPDEST DIV PUSH1 0x0 SWAP2 DUP2 DUP2 GT PUSH1 0x0 EQ PUSH2 0x1857 JUMPI PUSH2 0x1792 SWAP3 POP PUSH2 0x14A5 JUMP JUMPDEST POP POP SWAP1 JUMP JUMPDEST SWAP3 POP PUSH2 0x181D PUSH2 0x1813 JUMP JUMPDEST POP POP PUSH1 0x0 SWAP1 JUMP JUMPDEST PUSH1 0xFF SWAP2 POP PUSH1 0x8 SHR AND CODESIZE PUSH2 0x17B2 JUMP INVALID SWAP12 PUSH24 0x9B17422D0DF92223018B32B4D1FA46E071723D6817E2486D STOP EXTCODESIZE 0xEC 0xC5 PUSH0 STOP LOG2 PUSH5 0x6970667358 0x22 SLT KECCAK256 0xB0 0xB6 SHR SDIV 0xD9 0xCF RETURN EXTCODEHASH 0xAC SWAP5 DUP11 ADDMOD 0xAB DUP9 0xB6 DUP9 0xE4 0xB7 OR KECCAK256 0xE7 0x22 0xD7 SWAP4 0xD4 0x26 DUP15 PREVRANDAO GASPRICE SWAP16 0xAA PUSH17 0x64736F6C63430008140033000000000000 "},"methodIdentifiers":{"BURN_BPS()":"a37a9fc0","CURVE_TOKEN_SUPPLY()":"9f870a75","GRAD_TOKEN_SUPPLY()":"c8f3bfd3","PLATFORM_BPS()":"ce91e164","REWARD_BPS()":"47b12bfc","SNIPE_BPS_1HR()":"c463ecd7","SNIPE_BPS_24HR()":"bacf2a7b","SNIPE_BPS_5MIN()":"bb103cbc","TARGET_REAL_ETH()":"94562afb","VIRTUAL_ETH()":"6700c0c3","buy(uint256)":"d96a094a","currentPrice()":"9d1b464a","factory()":"c45a0155","forceCloseAndWithdraw(address)":"50b89418","forceClosed()":"72d6e43a","getBuyAmount(uint256)":"1fb87f39","getSellAmount(uint256,address)":"71c1b833","graduated()":"e7c2b772","initToken(address)":"df4d17dc","lastBuyAt(address)":"55ee54a1","progressBps()":"6c1eba15","realEthRaised()":"130b3120","sell(uint256,uint256)":"d79875eb","token()":"fc0c546a","trustedInitializer()":"9e85f9aa","uniswapFactory()":"8bdb2afa","uniswapRouter()":"735de9f7","virtualTokenReserve()":"343ee3b7"}}}}}