{"contracts/v2/AethpadBondingCurveV2.sol":{"AethpadBondingCurveV2":{"abi":[{"inputs":[{"internalType":"address","name":"_factory","type":"address"},{"internalType":"address","name":"_uniswapRouter","type":"address"}],"stateMutability":"nonpayable","type":"constructor"},{"inputs":[],"name":"ReentrancyGuardReentrantCall","type":"error"},{"anonymous":false,"inputs":[{"indexed":true,"internalType":"address","name":"buyer","type":"address"},{"indexed":false,"internalType":"uint256","name":"ethIn","type":"uint256"},{"indexed":false,"internalType":"uint256","name":"ethForCurve","type":"uint256"},{"indexed":false,"internalType":"uint256","name":"tokensOut","type":"uint256"},{"indexed":false,"internalType":"uint256","name":"progressBps","type":"uint256"}],"name":"Buy","type":"event"},{"anonymous":false,"inputs":[{"indexed":true,"internalType":"address","name":"withdrawTo","type":"address"},{"indexed":false,"internalType":"uint256","name":"ethAmount","type":"uint256"}],"name":"ForceClosed","type":"event"},{"anonymous":false,"inputs":[{"indexed":false,"internalType":"uint256","name":"ethToLp","type":"uint256"},{"indexed":false,"internalType":"uint256","name":"tokensToLp","type":"uint256"},{"indexed":false,"internalType":"address","name":"pair","type":"address"}],"name":"Graduated","type":"event"},{"anonymous":false,"inputs":[{"indexed":true,"internalType":"address","name":"seller","type":"address"},{"indexed":false,"internalType":"uint256","name":"tokensIn","type":"uint256"},{"indexed":false,"internalType":"uint256","name":"ethOutGross","type":"uint256"},{"indexed":false,"internalType":"uint256","name":"ethToUser","type":"uint256"},{"indexed":false,"internalType":"uint256","name":"progressBps","type":"uint256"}],"name":"Sell","type":"event"},{"inputs":[],"name":"BURN_BPS","outputs":[{"internalType":"uint256","name":"","type":"uint256"}],"stateMutability":"view","type":"function"},{"inputs":[],"name":"CURVE_TOKEN_SUPPLY","outputs":[{"internalType":"uint256","name":"","type":"uint256"}],"stateMutability":"view","type":"function"},{"inputs":[],"name":"GRAD_TOKEN_SUPPLY","outputs":[{"internalType":"uint256","name":"","type":"uint256"}],"stateMutability":"view","type":"function"},{"inputs":[],"name":"PLATFORM_BPS","outputs":[{"internalType":"uint256","name":"","type":"uint256"}],"stateMutability":"view","type":"function"},{"inputs":[],"name":"REWARD_BPS","outputs":[{"internalType":"uint256","name":"","type":"uint256"}],"stateMutability":"view","type":"function"},{"inputs":[],"name":"SNIPE_BPS_1HR","outputs":[{"internalType":"uint256","name":"","type":"uint256"}],"stateMutability":"view","type":"function"},{"inputs":[],"name":"SNIPE_BPS_24HR","outputs":[{"internalType":"uint256","name":"","type":"uint256"}],"stateMutability":"view","type":"function"},{"inputs":[],"name":"SNIPE_BPS_5MIN","outputs":[{"internalType":"uint256","name":"","type":"uint256"}],"stateMutability":"view","type":"function"},{"inputs":[],"name":"TARGET_REAL_ETH","outputs":[{"internalType":"uint256","name":"","type":"uint256"}],"stateMutability":"view","type":"function"},{"inputs":[],"name":"VIRTUAL_ETH","outputs":[{"internalType":"uint256","name":"","type":"uint256"}],"stateMutability":"view","type":"function"},{"inputs":[{"internalType":"uint256","name":"minTokensOut","type":"uint256"}],"name":"buy","outputs":[{"internalType":"uint256","name":"tokensToUser","type":"uint256"}],"stateMutability":"payable","type":"function"},{"inputs":[],"name":"currentPrice","outputs":[{"internalType":"uint256","name":"","type":"uint256"}],"stateMutability":"view","type":"function"},{"inputs":[],"name":"factory","outputs":[{"internalType":"address","name":"","type":"address"}],"stateMutability":"view","type":"function"},{"inputs":[{"internalType":"address","name":"to","type":"address"}],"name":"forceCloseAndWithdraw","outputs":[],"stateMutability":"nonpayable","type":"function"},{"inputs":[],"name":"forceClosed","outputs":[{"internalType":"bool","name":"","type":"bool"}],"stateMutability":"view","type":"function"},{"inputs":[{"internalType":"uint256","name":"ethAmount","type":"uint256"}],"name":"getBuyAmount","outputs":[{"internalType":"uint256","name":"tokensToUser","type":"uint256"}],"stateMutability":"view","type":"function"},{"inputs":[{"internalType":"uint256","name":"tokenAmount","type":"uint256"},{"internalType":"address","name":"seller","type":"address"}],"name":"getSellAmount","outputs":[{"internalType":"uint256","name":"ethToUser","type":"uint256"}],"stateMutability":"view","type":"function"},{"inputs":[],"name":"graduated","outputs":[{"internalType":"bool","name":"","type":"bool"}],"stateMutability":"view","type":"function"},{"inputs":[{"internalType":"address","name":"_token","type":"address"}],"name":"initToken","outputs":[],"stateMutability":"nonpayable","type":"function"},{"inputs":[{"internalType":"address","name":"","type":"address"}],"name":"lastBuyAt","outputs":[{"internalType":"uint64","name":"","type":"uint64"}],"stateMutability":"view","type":"function"},{"inputs":[],"name":"progressBps","outputs":[{"internalType":"uint256","name":"","type":"uint256"}],"stateMutability":"view","type":"function"},{"inputs":[],"name":"realEthRaised","outputs":[{"internalType":"uint256","name":"","type":"uint256"}],"stateMutability":"view","type":"function"},{"inputs":[{"internalType":"uint256","name":"tokenAmount","type":"uint256"},{"internalType":"uint256","name":"minEthOut","type":"uint256"}],"name":"sell","outputs":[{"internalType":"uint256","name":"ethToUser","type":"uint256"}],"stateMutability":"nonpayable","type":"function"},{"inputs":[{"internalType":"address","name":"user","type":"address"}],"name":"stampBuyAt","outputs":[],"stateMutability":"nonpayable","type":"function"},{"inputs":[],"name":"token","outputs":[{"internalType":"contract IAethpadTokenV2","name":"","type":"address"}],"stateMutability":"view","type":"function"},{"inputs":[],"name":"trustedInitializer","outputs":[{"internalType":"address","name":"","type":"address"}],"stateMutability":"view","type":"function"},{"inputs":[],"name":"uniswapFactory","outputs":[{"internalType":"contract IUniswapV2Factory","name":"","type":"address"}],"stateMutability":"view","type":"function"},{"inputs":[],"name":"uniswapRouter","outputs":[{"internalType":"contract IUniswapV2Router02","name":"","type":"address"}],"stateMutability":"view","type":"function"},{"inputs":[],"name":"virtualTokenReserve","outputs":[{"internalType":"uint256","name":"","type":"uint256"}],"stateMutability":"view","type":"function"},{"stateMutability":"payable","type":"receive"}],"evm":{"bytecode":{"linkReferences":{},"object":"61010080604052346200016d5760408162001c2a803803809162000024828562000172565b8339810103126200016d576200004860206200004083620001ac565b9201620001ac565b9060017f9b779b17422d0df92223018b32b4d1fa46e071723d6817e2486d003becc55f00556080523360a0526004602060018060a01b038093168060c0526040519283809263c45a015560e01b82525afa90811562000161576000916200011d575b501660e0526b0295be96e640669720000000600155604051611a689081620001c2823960805181818161023c01528181610b850152818161100c0152611307015260a0518181816101f201526110b0015260c0518181816104e101526111c8015260e05181818161055c01526111840152f35b906020823d821162000158575b81620001396020938362000172565b810103126200015557506200014e90620001ac565b38620000aa565b80fd5b3d91506200012a565b6040513d6000823e3d90fd5b600080fd5b601f909101601f19168101906001600160401b038211908210176200019657604052565b634e487b7160e01b600052604160045260246000fd5b51906001600160a01b03821682036200016d5756fe6080604081815260049182361015610022575b505050361561002057600080fd5b005b600092833560e01c918263130b31201461152f575081631fb87f391461150f578163343ee3b7146114f057816347b12bfc146114d457816350b89418146112d357816355ee54a1146112925781636700c0c31461126f5781636c1eba151461125257816371c1b8331461121e57816372d6e43a146111f7578163735de9f7146111b35781638bdb2afa1461116f57816394562afb1461114c5781639d1b464a146110df5781639e85f9aa1461109b5781639f870a7514611075578163a37a9fc014610faf578163bacf2a7b14611058578163bb103cbc1461103b578163c45a015514610ff7578163c463ecd714610fda578163c8f3bfd314610fb4578163ce91e16414610faf578163d79875eb14610bd0578163d8c76c1714610b5b578163d96a094a14610299578163df4d17dc146101be57508063e7c2b7721461019b5763fc0c546a146101715780610012565b34610197578160031936011261019757905490516001600160a01b039091168152602090f35b5080fd5b503461019757816003193601126101975760209060ff6003541690519015158152f35b91905034610295576020366003190112610295576101da61154b565b8354926001600160a01b0392838516610263575050817f00000000000000000000000000000000000000000000000000000000000000001633148015610238575b6102249061157d565b6001600160a01b0319909216911617815580f35b50337f000000000000000000000000000000000000000000000000000000000000000083161461021b565b906020606492519162461bcd60e51b8352820152600c60248201526b105b1c9958591e481a5b9a5d60a21b6044820152fd5b8280fd5b6020848436600319018313610197576102b0611760565b6102c860035460ff8116159081610b4c575b506115b8565b3415610b215760c834029134830460c803610b0e576127108093049260963402348104609603610afb578190049061030982610304873461163c565b61163c565b91600254956729a2241af62c000096808801809811610ae85761034d610346600154996103408861033a8d846115f3565b92611649565b9061161c565b809961163c565b93841561035a8115611656565b60968602908682046096141715610ad5579161037d87926103939404809761163c565b9961038b8d358c101561168e565b600155611649565b60025580610a7c575b5080610a2d575b50806109cb575b5060018060a01b03906103d98686848654168a87895180968195829463a9059cbb60e01b845233908401611729565b03925af19081156109c15784916109a4575b501561096d5733835286865283832080546001600160401b031916426001600160401b03161790557f064fb1933e186be0b289a87e98518dc18cc9856ecbc9f1353d1a138ddf733ec561044e61043f611808565b86519182918933963485611744565b0390a2674563918244f40000600254101561047e575b50506001600080516020611a138339815191525551908152f35b600160ff19600354161760035547916aa56fa5b99019a5c800000090828154168551986370a0823160e01b808b5230828c015260249a8a818d81875afa9081156108ce578591610940575b50858110610938575b50875163095ea7b360e01b81527f00000000000000000000000000000000000000000000000000000000000000008716938b9082908188816105178c8b8b8401611729565b03925af19081156108ce57859161090b575b50156108d85787516315ab88c960e31b81529a8a8c8481875afa80156108ce578b9c869c98999a9b9c916108b1575b50887f000000000000000000000000000000000000000000000000000000000000000016898754168c519963e6a4390560e01b8b528a8061059c86858b84016117ee565b0381855afa998a156108a757908f939291899b610888575b508d8c8c1615610812575b505050505060638602868104606314871517156108005760638a02908a82046063148b1517156107ee57898754169161012c4201918242116107dc5790606480928f519563f305d71960e01b8752898701528b8787015204604485015204606483015261dead608483015260a482015260608160c4818d895af180156107a3576107ad575b5087855416918a5190815230848201528c818381865afa9081156107a3578691610771575b5080610716575b5050508583541690813b156107125791839186836106a2958c519687958694859363c7b1280160e01b855284016117ee565b03925af18015610708576106f1575b505084519384528684015216818301527fe8284482a896de2fb31532f8a0c0f64867b8d0586ff49dbd54ddf4cddb2c036590606090a19082918480610464565b6106fb82916116c5565b61070557806106b1565b80fd5b87513d84823e3d90fd5b8380fd5b823b1561076d578a516316c2401160e21b8152848101919091529185918391829084905af180156107635790849161074f575b80610670565b610758906116c5565b61029557828b610749565b89513d86823e3d90fd5b8580fd5b90508c81813d831161079c575b61078881836116ee565b8101031261079757518d610669565b600080fd5b503d61077e565b8b513d88823e3d90fd5b606090813d81116107d5575b6107c381836116ee565b810103126107d1578c610644565b8480fd5b503d6107b9565b634e487b7160e01b8952601187528489fd5b634e487b7160e01b8752601185528287fd5b50634e487b7160e01b85526011835284fd5b610833959b508990518096819582946364e329cb60e11b84528b84016117ee565b03925af190811561087e578591610851575b50958b8d80808d6105bf565b61087191508c8d3d10610877575b61086981836116ee565b8101906117cf565b8c610845565b503d61085f565b8a513d87823e3d90fd5b6108a0919b50843d86116108775761086981836116ee565b99386105b4565b8d513d8a823e3d90fd5b6108c89150883d8a116108775761086981836116ee565b8d610558565b89513d87823e3d90fd5b875162461bcd60e51b81528083018b9052600e818d01526d105c1c1c9bdd994819985a5b195960921b6044820152606490fd5b61092b91508b3d8d11610931575b61092381836116ee565b810190611711565b8c610529565b503d610919565b94508b6104d2565b90508a81813d8311610966575b61095781836116ee565b8101031261079757518c6104c9565b503d61094d565b835162461bcd60e51b81528088018790526011602482015270151bdad95b881e19995c8819985a5b1959607a1b6044820152606490fd5b6109bb9150873d89116109315761092381836116ee565b886103eb565b85513d86823e3d90fd5b82546001600160a01b031690813b1561071257839160248392875194859384926316c2401160e21b84528d8401525af18015610a2357908391610a0f575b506103aa565b610a18906116c5565b610197578187610a09565b84513d85823e3d90fd5b83546001600160a01b0316803b156107d1578490898751809481936316f1a0a760e31b83525af180156109c157908491610a68575b506103a3565b610a71906116c5565b610295578288610a62565b84546001600160a01b0316803b1561076d5785908a88518094819363523aa0dd60e11b83525af18015610acb57908591610ab7575b5061039c565b610ac0906116c5565b610712578389610ab1565b86513d87823e3d90fd5b634e487b7160e01b885260118c52602488fd5b634e487b7160e01b865260118a52602486fd5b634e487b7160e01b835260118752602483fd5b634e487b7160e01b815260118552602490fd5b5162461bcd60e51b8152808401839052600660248201526509cde408aa8960d31b6044820152606490fd5b60ff915060081c1615866102c2565b90503461029557602036600319011261029557610b7661154b565b6001600160a01b0390610bac337f000000000000000000000000000000000000000000000000000000000000000084161461157d565b168352602052812080546001600160401b031916426001600160401b031617905580f35b8383346101975780600319360112610197578235610bec611760565b610c0360035460ff8116159081610b4c57506115b8565b8015610f805760968102818104609603610f6d5761271080910494610c28868461163c565b958560018060a01b03808254169287516323b872dd60e01b8152338682015260249430868301528860448301528160648160209d8e945af1908115610763578491610f50575b5015610f195780610ebf575b50600254946729a2241af62c000099868b01809b11610e6e57610cad999a610cba610cb3610cc0936001549d8e856115f3565b9d611649565b809c61161c565b9061163c565b95808711610e815786610ce29181159b610cda8d15611656565b60015561163c565b600255610cee3361183d565b60c8018060c811610e6e57610d048291886115f3565b049860968702908782046096141715610e6e570490610d27826103048b8961163c565b98610d3585358b101561168e565b80610e26575b5081610de5575b505080808089335af1610d53611790565b5015610db1575050837f483f8aec0fd892ac72ad1ba8d0e9c9e73db59c12d263fd71de480b5b3deeae3c91610d96610d89611808565b8651938493339785611744565b0390a26001600080516020611a138339815191525551908152f35b845162461bcd60e51b8152918201879052600f908201526e115512081cd95b990819985a5b1959608a1b6044820152606490fd5b825416803b15610295578290858951809481936316f1a0a760e31b83525af180156107085790829115610d4257610e1b906116c5565b610705578089610d42565b81845416803b156107d1578490878b518094819363523aa0dd60e11b83525af1801561076357908491610e5a575b50610d3b565b610e63906116c5565b61029557828b610e54565b5050634e487b7160e01b82525060118352fd5b885162461bcd60e51b81528087018c905260198187015278496e73756666696369656e742045544820696e20637572766560381b6044820152606490fd5b8183541690813b156107125783918583928b5194859384926316c2401160e21b84528b8401525af18015610f0f57908391610efb575b50610c7a565b610f04906116c5565b61019757818a610ef5565b88513d85823e3d90fd5b875162461bcd60e51b81528086018a905260128186015271151c985b9cd9995c881a5b8819985a5b195960721b6044820152606490fd5b610f6791508a3d8c116109315761092381836116ee565b8b610c6e565b634e487b7160e01b845260118552602484fd5b815162461bcd60e51b815260208186015260096024820152684e6f20746f6b656e7360b81b6044820152606490fd5b611561565b505034610197578160031936011261019757602090516aa56fa5b99019a5c80000008152f35b505034610197578160031936011261019757602090516103e88152f35b505034610197578160031936011261019757517f00000000000000000000000000000000000000000000000000000000000000006001600160a01b03168152602090f35b505034610197578160031936011261019757602090516107d08152f35b505034610197578160031936011261019757602090516101f48152f35b505034610197578160031936011261019757516714adf4b7320334b9601d1b8152602090f35b505034610197578160031936011261019757517f00000000000000000000000000000000000000000000000000000000000000006001600160a01b03168152602090f35b828434610705578060031936011261070557600254926729a2241af62c000093840180941161113957670de0b6b3a76400009384810294818604149015171561113957602083611132866001549061161c565b9051908152f35b634e487b7160e01b825260119052602490fd5b50503461019757816003193601126101975760209051674563918244f400008152f35b505034610197578160031936011261019757517f00000000000000000000000000000000000000000000000000000000000000006001600160a01b03168152602090f35b505034610197578160031936011261019757517f00000000000000000000000000000000000000000000000000000000000000006001600160a01b03168152602090f35b50503461019757816003193601126101975760209060ff60035460081c1690519015158152f35b82843461070557816003193601126107055750602435916001600160a01b038316830361079757602092611132913561193a565b505034610197578160031936011261019757602090611132611808565b505034610197578160031936011261019757602090516729a2241af62c00008152f35b90503461029557602036600319011261029557602092906001600160a01b036112b961154b565b16825283528190205490516001600160401b039091168152f35b8391503461019757602080600319360112610295576112f061154b565b6112f8611760565b6001600160a01b039061132e337f000000000000000000000000000000000000000000000000000000000000000084161461157d565b60035460ff811661149d5761ff00191661010017600355845486516370a0823160e01b81523086820152908316908481602481855afa908115611493578791611466575b5080611410575b50504793846113c4575b507f16bfc55cfda3eb65b74e8fe52a8804e222bdb31aef30599b41adeb45893f66a9939495519485521692a26001600080516020611a138339815191525580f35b85808080888787165af16113d6611790565b5061138357865162461bcd60e51b8152908101849052600f60248201526e15da5d1a191c985dc819985a5b1959608a1b6044820152606490fd5b813b15611462578691602483928a5194859384926316c2401160e21b84528b8401525af1801561145857611445575b80611379565b611451909591956116c5565b938661143f565b87513d88823e3d90fd5b8680fd5b90508481813d831161148c575b61147d81836116ee565b81010312611462575188611372565b503d611473565b88513d89823e3d90fd5b865162461bcd60e51b81528086018590526011602482015270105b1c9958591e4819dc98591d585d1959607a1b6044820152606490fd5b5050346101975781600319360112610197576020905160c88152f35b5050346101975781600319360112610197576020906001549051908152f35b8284346107055760203660031901126107055750611132602092356118a8565b8490346101975781600319360112610197576020906002548152f35b600435906001600160a01b038216820361079757565b3461079757600036600319011261079757602060405160968152f35b1561158457565b60405162461bcd60e51b815260206004820152600c60248201526b4f6e6c7920666163746f727960a01b6044820152606490fd5b156115bf57565b60405162461bcd60e51b815260206004820152600c60248201526b10dd5c9d994818db1bdcd95960a21b6044820152606490fd5b8181029291811591840414171561160657565b634e487b7160e01b600052601160045260246000fd5b8115611626570490565b634e487b7160e01b600052601260045260246000fd5b9190820391821161160657565b9190820180921161160657565b1561165d57565b60405162461bcd60e51b8152602060048201526009602482015268151bdbc81cdb585b1b60ba1b6044820152606490fd5b1561169557565b60405162461bcd60e51b8152602060048201526008602482015267536c69707061676560c01b6044820152606490fd5b6001600160401b0381116116d857604052565b634e487b7160e01b600052604160045260246000fd5b601f909101601f19168101906001600160401b038211908210176116d857604052565b90816020910312610797575180151581036107975790565b6001600160a01b039091168152602081019190915260400190565b9094939260609260808301968352602083015260408201520152565b600080516020611a13833981519152600281541461177e5760029055565b604051633ee5aeb560e01b8152600490fd5b3d156117ca573d906001600160401b0382116116d857604051916117be601f8201601f1916602001846116ee565b82523d6000602084013e565b606090565b9081602091031261079757516001600160a01b03811681036107975790565b6001600160a01b0391821681529116602082015260400190565b60ff60035416611837576002546127109081810291818304149015171561160657674563918244f40000900490565b61271090565b6001600160a01b03166000908152600460205260409020546001600160401b031680156118a25761186e904261163c565b61012c811061189b57610e10811061189457620151801161188e57600090565b6101f490565b506103e890565b506107d090565b50600090565b60035460ff811690811561192c575b506118a2576125b290818102918183041490151715611606576002546729a2241af62c00009081018091116116065761190b90610cba600154916103406118fe84836115f3565b9161271080970490611649565b6096810291818304609614821517156116065761192992049061163c565b90565b60ff915060081c16386118b7565b60035460ff8116908115611a04575b506119fd5760968102908082046096148115171561160657611971906127108093049061163c565b91600254926729a2241af62c000084810180911161160657610cba6119a1926103406001549161033a83866115f3565b928084116119f3575b506119b49061183d565b8060c801908160c8116116065761015e01809111611606576119d690836115f3565b046000918181116000146119ee57611929925061163c565b505090565b92506119b46119aa565b5050600090565b60ff915060081c163861194956fe9b779b17422d0df92223018b32b4d1fa46e071723d6817e2486d003becc55f00a2646970667358221220c4639cbd17cfab01316c5d54fd71ac6ed3fb70826fe1856b7c245adc8537858b64736f6c63430008140033","opcodes":"PUSH2 0x100 DUP1 PUSH1 0x40 MSTORE CALLVALUE PUSH3 0x16D JUMPI PUSH1 0x40 DUP2 PUSH3 0x1C2A DUP1 CODESIZE SUB DUP1 SWAP2 PUSH3 0x24 DUP3 DUP6 PUSH3 0x172 JUMP JUMPDEST DUP4 CODECOPY DUP2 ADD SUB SLT PUSH3 0x16D JUMPI PUSH3 0x48 PUSH1 0x20 PUSH3 0x40 DUP4 PUSH3 0x1AC JUMP JUMPDEST SWAP3 ADD PUSH3 0x1AC JUMP JUMPDEST SWAP1 PUSH1 0x1 PUSH32 0x9B779B17422D0DF92223018B32B4D1FA46E071723D6817E2486D003BECC55F00 SSTORE PUSH1 0x80 MSTORE CALLER PUSH1 0xA0 MSTORE PUSH1 0x4 PUSH1 0x20 PUSH1 0x1 DUP1 PUSH1 0xA0 SHL SUB DUP1 SWAP4 AND DUP1 PUSH1 0xC0 MSTORE PUSH1 0x40 MLOAD SWAP3 DUP4 DUP1 SWAP3 PUSH4 0xC45A0155 PUSH1 0xE0 SHL DUP3 MSTORE GAS STATICCALL SWAP1 DUP2 ISZERO PUSH3 0x161 JUMPI PUSH1 0x0 SWAP2 PUSH3 0x11D JUMPI JUMPDEST POP AND PUSH1 0xE0 MSTORE PUSH12 0x295BE96E640669720000000 PUSH1 0x1 SSTORE PUSH1 0x40 MLOAD PUSH2 0x1A68 SWAP1 DUP2 PUSH3 0x1C2 DUP3 CODECOPY PUSH1 0x80 MLOAD DUP2 DUP2 DUP2 PUSH2 0x23C ADD MSTORE DUP2 DUP2 PUSH2 0xB85 ADD MSTORE DUP2 DUP2 PUSH2 0x100C ADD MSTORE PUSH2 0x1307 ADD MSTORE PUSH1 0xA0 MLOAD DUP2 DUP2 DUP2 PUSH2 0x1F2 ADD MSTORE PUSH2 0x10B0 ADD MSTORE PUSH1 0xC0 MLOAD DUP2 DUP2 DUP2 PUSH2 0x4E1 ADD MSTORE PUSH2 0x11C8 ADD MSTORE PUSH1 0xE0 MLOAD DUP2 DUP2 DUP2 PUSH2 0x55C ADD MSTORE PUSH2 0x1184 ADD MSTORE RETURN JUMPDEST SWAP1 PUSH1 0x20 DUP3 RETURNDATASIZE DUP3 GT PUSH3 0x158 JUMPI JUMPDEST DUP2 PUSH3 0x139 PUSH1 0x20 SWAP4 DUP4 PUSH3 0x172 JUMP JUMPDEST DUP2 ADD SUB SLT PUSH3 0x155 JUMPI POP PUSH3 0x14E SWAP1 PUSH3 0x1AC JUMP JUMPDEST CODESIZE PUSH3 0xAA JUMP JUMPDEST DUP1 REVERT JUMPDEST RETURNDATASIZE SWAP2 POP PUSH3 0x12A JUMP JUMPDEST PUSH1 0x40 MLOAD RETURNDATASIZE PUSH1 0x0 DUP3 RETURNDATACOPY RETURNDATASIZE SWAP1 REVERT JUMPDEST PUSH1 0x0 DUP1 REVERT JUMPDEST PUSH1 0x1F SWAP1 SWAP2 ADD PUSH1 0x1F NOT AND DUP2 ADD SWAP1 PUSH1 0x1 PUSH1 0x1 PUSH1 0x40 SHL SUB DUP3 GT SWAP1 DUP3 LT OR PUSH3 0x196 JUMPI PUSH1 0x40 MSTORE JUMP JUMPDEST PUSH4 0x4E487B71 PUSH1 0xE0 SHL PUSH1 0x0 MSTORE PUSH1 0x41 PUSH1 0x4 MSTORE PUSH1 0x24 PUSH1 0x0 REVERT JUMPDEST MLOAD SWAP1 PUSH1 0x1 PUSH1 0x1 PUSH1 0xA0 SHL SUB DUP3 AND DUP3 SUB PUSH3 0x16D JUMPI JUMP INVALID PUSH1 0x80 PUSH1 0x40 DUP2 DUP2 MSTORE PUSH1 0x4 SWAP2 DUP3 CALLDATASIZE LT ISZERO PUSH2 0x22 JUMPI JUMPDEST POP POP POP CALLDATASIZE ISZERO PUSH2 0x20 JUMPI PUSH1 0x0 DUP1 REVERT JUMPDEST STOP JUMPDEST PUSH1 0x0 SWAP3 DUP4 CALLDATALOAD PUSH1 0xE0 SHR SWAP2 DUP3 PUSH4 0x130B3120 EQ PUSH2 0x152F JUMPI POP DUP2 PUSH4 0x1FB87F39 EQ PUSH2 0x150F JUMPI DUP2 PUSH4 0x343EE3B7 EQ PUSH2 0x14F0 JUMPI DUP2 PUSH4 0x47B12BFC EQ PUSH2 0x14D4 JUMPI DUP2 PUSH4 0x50B89418 EQ PUSH2 0x12D3 JUMPI DUP2 PUSH4 0x55EE54A1 EQ PUSH2 0x1292 JUMPI DUP2 PUSH4 0x6700C0C3 EQ PUSH2 0x126F JUMPI DUP2 PUSH4 0x6C1EBA15 EQ PUSH2 0x1252 JUMPI DUP2 PUSH4 0x71C1B833 EQ PUSH2 0x121E JUMPI DUP2 PUSH4 0x72D6E43A EQ PUSH2 0x11F7 JUMPI DUP2 PUSH4 0x735DE9F7 EQ PUSH2 0x11B3 JUMPI DUP2 PUSH4 0x8BDB2AFA EQ PUSH2 0x116F JUMPI DUP2 PUSH4 0x94562AFB EQ PUSH2 0x114C JUMPI DUP2 PUSH4 0x9D1B464A EQ PUSH2 0x10DF JUMPI DUP2 PUSH4 0x9E85F9AA EQ PUSH2 0x109B JUMPI DUP2 PUSH4 0x9F870A75 EQ PUSH2 0x1075 JUMPI DUP2 PUSH4 0xA37A9FC0 EQ PUSH2 0xFAF JUMPI DUP2 PUSH4 0xBACF2A7B EQ PUSH2 0x1058 JUMPI DUP2 PUSH4 0xBB103CBC EQ PUSH2 0x103B JUMPI DUP2 PUSH4 0xC45A0155 EQ PUSH2 0xFF7 JUMPI DUP2 PUSH4 0xC463ECD7 EQ PUSH2 0xFDA JUMPI DUP2 PUSH4 0xC8F3BFD3 EQ PUSH2 0xFB4 JUMPI DUP2 PUSH4 0xCE91E164 EQ PUSH2 0xFAF JUMPI DUP2 PUSH4 0xD79875EB EQ PUSH2 0xBD0 JUMPI DUP2 PUSH4 0xD8C76C17 EQ PUSH2 0xB5B JUMPI DUP2 PUSH4 0xD96A094A EQ PUSH2 0x299 JUMPI DUP2 PUSH4 0xDF4D17DC EQ PUSH2 0x1BE JUMPI POP DUP1 PUSH4 0xE7C2B772 EQ PUSH2 0x19B JUMPI PUSH4 0xFC0C546A EQ PUSH2 0x171 JUMPI DUP1 PUSH2 0x12 JUMP JUMPDEST CALLVALUE PUSH2 0x197 JUMPI DUP2 PUSH1 0x3 NOT CALLDATASIZE ADD SLT PUSH2 0x197 JUMPI SWAP1 SLOAD SWAP1 MLOAD PUSH1 0x1 PUSH1 0x1 PUSH1 0xA0 SHL SUB SWAP1 SWAP2 AND DUP2 MSTORE PUSH1 0x20 SWAP1 RETURN JUMPDEST POP DUP1 REVERT JUMPDEST POP CALLVALUE PUSH2 0x197 JUMPI DUP2 PUSH1 0x3 NOT CALLDATASIZE ADD SLT PUSH2 0x197 JUMPI PUSH1 0x20 SWAP1 PUSH1 0xFF PUSH1 0x3 SLOAD AND SWAP1 MLOAD SWAP1 ISZERO ISZERO DUP2 MSTORE RETURN JUMPDEST SWAP2 SWAP1 POP CALLVALUE PUSH2 0x295 JUMPI PUSH1 0x20 CALLDATASIZE PUSH1 0x3 NOT ADD SLT PUSH2 0x295 JUMPI PUSH2 0x1DA PUSH2 0x154B JUMP JUMPDEST DUP4 SLOAD SWAP3 PUSH1 0x1 PUSH1 0x1 PUSH1 0xA0 SHL SUB SWAP3 DUP4 DUP6 AND PUSH2 0x263 JUMPI POP POP DUP2 PUSH32 0x0 AND CALLER EQ DUP1 ISZERO PUSH2 0x238 JUMPI JUMPDEST PUSH2 0x224 SWAP1 PUSH2 0x157D JUMP JUMPDEST PUSH1 0x1 PUSH1 0x1 PUSH1 0xA0 SHL SUB NOT SWAP1 SWAP3 AND SWAP2 AND OR DUP2 SSTORE DUP1 RETURN JUMPDEST POP CALLER PUSH32 0x0 DUP4 AND EQ PUSH2 0x21B JUMP JUMPDEST SWAP1 PUSH1 0x20 PUSH1 0x64 SWAP3 MLOAD SWAP2 PUSH3 0x461BCD PUSH1 0xE5 SHL DUP4 MSTORE DUP3 ADD MSTORE PUSH1 0xC PUSH1 0x24 DUP3 ADD MSTORE PUSH12 0x105B1C9958591E481A5B9A5D PUSH1 0xA2 SHL PUSH1 0x44 DUP3 ADD MSTORE REVERT JUMPDEST DUP3 DUP1 REVERT JUMPDEST PUSH1 0x20 DUP5 DUP5 CALLDATASIZE PUSH1 0x3 NOT ADD DUP4 SGT PUSH2 0x197 JUMPI PUSH2 0x2B0 PUSH2 0x1760 JUMP JUMPDEST PUSH2 0x2C8 PUSH1 0x3 SLOAD PUSH1 0xFF DUP2 AND ISZERO SWAP1 DUP2 PUSH2 0xB4C JUMPI JUMPDEST POP PUSH2 0x15B8 JUMP JUMPDEST CALLVALUE ISZERO PUSH2 0xB21 JUMPI PUSH1 0xC8 CALLVALUE MUL SWAP2 CALLVALUE DUP4 DIV PUSH1 0xC8 SUB PUSH2 0xB0E JUMPI PUSH2 0x2710 DUP1 SWAP4 DIV SWAP3 PUSH1 0x96 CALLVALUE MUL CALLVALUE DUP2 DIV PUSH1 0x96 SUB PUSH2 0xAFB JUMPI DUP2 SWAP1 DIV SWAP1 PUSH2 0x309 DUP3 PUSH2 0x304 DUP8 CALLVALUE PUSH2 0x163C JUMP JUMPDEST PUSH2 0x163C JUMP JUMPDEST SWAP2 PUSH1 0x2 SLOAD SWAP6 PUSH8 0x29A2241AF62C0000 SWAP7 DUP1 DUP9 ADD DUP1 SWAP9 GT PUSH2 0xAE8 JUMPI PUSH2 0x34D PUSH2 0x346 PUSH1 0x1 SLOAD SWAP10 PUSH2 0x340 DUP9 PUSH2 0x33A DUP14 DUP5 PUSH2 0x15F3 JUMP JUMPDEST SWAP3 PUSH2 0x1649 JUMP JUMPDEST SWAP1 PUSH2 0x161C JUMP JUMPDEST DUP1 SWAP10 PUSH2 0x163C JUMP JUMPDEST SWAP4 DUP5 ISZERO PUSH2 0x35A DUP2 ISZERO PUSH2 0x1656 JUMP JUMPDEST PUSH1 0x96 DUP7 MUL SWAP1 DUP7 DUP3 DIV PUSH1 0x96 EQ OR ISZERO PUSH2 0xAD5 JUMPI SWAP2 PUSH2 0x37D DUP8 SWAP3 PUSH2 0x393 SWAP5 DIV DUP1 SWAP8 PUSH2 0x163C JUMP JUMPDEST SWAP10 PUSH2 0x38B DUP14 CALLDATALOAD DUP13 LT ISZERO PUSH2 0x168E JUMP JUMPDEST PUSH1 0x1 SSTORE PUSH2 0x1649 JUMP JUMPDEST PUSH1 0x2 SSTORE DUP1 PUSH2 0xA7C JUMPI JUMPDEST POP DUP1 PUSH2 0xA2D JUMPI JUMPDEST POP DUP1 PUSH2 0x9CB JUMPI JUMPDEST POP PUSH1 0x1 DUP1 PUSH1 0xA0 SHL SUB SWAP1 PUSH2 0x3D9 DUP7 DUP7 DUP5 DUP7 SLOAD AND DUP11 DUP8 DUP10 MLOAD DUP1 SWAP7 DUP2 SWAP6 DUP3 SWAP5 PUSH4 0xA9059CBB PUSH1 0xE0 SHL DUP5 MSTORE CALLER SWAP1 DUP5 ADD PUSH2 0x1729 JUMP JUMPDEST SUB SWAP3 GAS CALL SWAP1 DUP2 ISZERO PUSH2 0x9C1 JUMPI DUP5 SWAP2 PUSH2 0x9A4 JUMPI JUMPDEST POP ISZERO PUSH2 0x96D JUMPI CALLER DUP4 MSTORE DUP7 DUP7 MSTORE DUP4 DUP4 KECCAK256 DUP1 SLOAD PUSH1 0x1 PUSH1 0x1 PUSH1 0x40 SHL SUB NOT AND TIMESTAMP PUSH1 0x1 PUSH1 0x1 PUSH1 0x40 SHL SUB AND OR SWAP1 SSTORE PUSH32 0x64FB1933E186BE0B289A87E98518DC18CC9856ECBC9F1353D1A138DDF733EC5 PUSH2 0x44E PUSH2 0x43F PUSH2 0x1808 JUMP JUMPDEST DUP7 MLOAD SWAP2 DUP3 SWAP2 DUP10 CALLER SWAP7 CALLVALUE DUP6 PUSH2 0x1744 JUMP JUMPDEST SUB SWAP1 LOG2 PUSH8 0x4563918244F40000 PUSH1 0x2 SLOAD LT ISZERO PUSH2 0x47E JUMPI JUMPDEST POP POP PUSH1 0x1 PUSH1 0x0 DUP1 MLOAD PUSH1 0x20 PUSH2 0x1A13 DUP4 CODECOPY DUP2 MLOAD SWAP2 MSTORE SSTORE MLOAD SWAP1 DUP2 MSTORE RETURN JUMPDEST PUSH1 0x1 PUSH1 0xFF NOT PUSH1 0x3 SLOAD AND OR PUSH1 0x3 SSTORE SELFBALANCE SWAP2 PUSH11 0xA56FA5B99019A5C8000000 SWAP1 DUP3 DUP2 SLOAD AND DUP6 MLOAD SWAP9 PUSH4 0x70A08231 PUSH1 0xE0 SHL DUP1 DUP12 MSTORE ADDRESS DUP3 DUP13 ADD MSTORE PUSH1 0x24 SWAP11 DUP11 DUP2 DUP14 DUP2 DUP8 GAS STATICCALL SWAP1 DUP2 ISZERO PUSH2 0x8CE JUMPI DUP6 SWAP2 PUSH2 0x940 JUMPI JUMPDEST POP DUP6 DUP2 LT PUSH2 0x938 JUMPI JUMPDEST POP DUP8 MLOAD PUSH4 0x95EA7B3 PUSH1 0xE0 SHL DUP2 MSTORE PUSH32 0x0 DUP8 AND SWAP4 DUP12 SWAP1 DUP3 SWAP1 DUP2 DUP9 DUP2 PUSH2 0x517 DUP13 DUP12 DUP12 DUP5 ADD PUSH2 0x1729 JUMP JUMPDEST SUB SWAP3 GAS CALL SWAP1 DUP2 ISZERO PUSH2 0x8CE JUMPI DUP6 SWAP2 PUSH2 0x90B JUMPI JUMPDEST POP ISZERO PUSH2 0x8D8 JUMPI DUP8 MLOAD PUSH4 0x15AB88C9 PUSH1 0xE3 SHL DUP2 MSTORE SWAP11 DUP11 DUP13 DUP5 DUP2 DUP8 GAS STATICCALL DUP1 ISZERO PUSH2 0x8CE JUMPI DUP12 SWAP13 DUP7 SWAP13 SWAP9 SWAP10 SWAP11 SWAP12 SWAP13 SWAP2 PUSH2 0x8B1 JUMPI JUMPDEST POP DUP9 PUSH32 0x0 AND DUP10 DUP8 SLOAD AND DUP13 MLOAD SWAP10 PUSH4 0xE6A43905 PUSH1 0xE0 SHL DUP12 MSTORE DUP11 DUP1 PUSH2 0x59C DUP7 DUP6 DUP12 DUP5 ADD PUSH2 0x17EE JUMP JUMPDEST SUB DUP2 DUP6 GAS STATICCALL SWAP10 DUP11 ISZERO PUSH2 0x8A7 JUMPI SWAP1 DUP16 SWAP4 SWAP3 SWAP2 DUP10 SWAP12 PUSH2 0x888 JUMPI JUMPDEST POP DUP14 DUP13 DUP13 AND ISZERO PUSH2 0x812 JUMPI JUMPDEST POP POP POP POP POP PUSH1 0x63 DUP7 MUL DUP7 DUP2 DIV PUSH1 0x63 EQ DUP8 ISZERO OR ISZERO PUSH2 0x800 JUMPI PUSH1 0x63 DUP11 MUL SWAP1 DUP11 DUP3 DIV PUSH1 0x63 EQ DUP12 ISZERO OR ISZERO PUSH2 0x7EE JUMPI DUP10 DUP8 SLOAD AND SWAP2 PUSH2 0x12C TIMESTAMP ADD SWAP2 DUP3 TIMESTAMP GT PUSH2 0x7DC JUMPI SWAP1 PUSH1 0x64 DUP1 SWAP3 DUP16 MLOAD SWAP6 PUSH4 0xF305D719 PUSH1 0xE0 SHL DUP8 MSTORE DUP10 DUP8 ADD MSTORE DUP12 DUP8 DUP8 ADD MSTORE DIV PUSH1 0x44 DUP6 ADD MSTORE DIV PUSH1 0x64 DUP4 ADD MSTORE PUSH2 0xDEAD PUSH1 0x84 DUP4 ADD MSTORE PUSH1 0xA4 DUP3 ADD MSTORE PUSH1 0x60 DUP2 PUSH1 0xC4 DUP2 DUP14 DUP10 GAS CALL DUP1 ISZERO PUSH2 0x7A3 JUMPI PUSH2 0x7AD JUMPI JUMPDEST POP DUP8 DUP6 SLOAD AND SWAP2 DUP11 MLOAD SWAP1 DUP2 MSTORE ADDRESS DUP5 DUP3 ADD MSTORE DUP13 DUP2 DUP4 DUP2 DUP7 GAS STATICCALL SWAP1 DUP2 ISZERO PUSH2 0x7A3 JUMPI DUP7 SWAP2 PUSH2 0x771 JUMPI JUMPDEST POP DUP1 PUSH2 0x716 JUMPI JUMPDEST POP POP POP DUP6 DUP4 SLOAD AND SWAP1 DUP2 EXTCODESIZE ISZERO PUSH2 0x712 JUMPI SWAP2 DUP4 SWAP2 DUP7 DUP4 PUSH2 0x6A2 SWAP6 DUP13 MLOAD SWAP7 DUP8 SWAP6 DUP7 SWAP5 DUP6 SWAP4 PUSH4 0xC7B12801 PUSH1 0xE0 SHL DUP6 MSTORE DUP5 ADD PUSH2 0x17EE JUMP JUMPDEST SUB SWAP3 GAS CALL DUP1 ISZERO PUSH2 0x708 JUMPI PUSH2 0x6F1 JUMPI JUMPDEST POP POP DUP5 MLOAD SWAP4 DUP5 MSTORE DUP7 DUP5 ADD MSTORE AND DUP2 DUP4 ADD MSTORE PUSH32 0xE8284482A896DE2FB31532F8A0C0F64867B8D0586FF49DBD54DDF4CDDB2C0365 SWAP1 PUSH1 0x60 SWAP1 LOG1 SWAP1 DUP3 SWAP2 DUP5 DUP1 PUSH2 0x464 JUMP JUMPDEST PUSH2 0x6FB DUP3 SWAP2 PUSH2 0x16C5 JUMP JUMPDEST PUSH2 0x705 JUMPI DUP1 PUSH2 0x6B1 JUMP JUMPDEST DUP1 REVERT JUMPDEST DUP8 MLOAD RETURNDATASIZE DUP5 DUP3 RETURNDATACOPY RETURNDATASIZE SWAP1 REVERT JUMPDEST DUP4 DUP1 REVERT JUMPDEST DUP3 EXTCODESIZE ISZERO PUSH2 0x76D JUMPI DUP11 MLOAD PUSH4 0x16C24011 PUSH1 0xE2 SHL DUP2 MSTORE DUP5 DUP2 ADD SWAP2 SWAP1 SWAP2 MSTORE SWAP2 DUP6 SWAP2 DUP4 SWAP2 DUP3 SWAP1 DUP5 SWAP1 GAS CALL DUP1 ISZERO PUSH2 0x763 JUMPI SWAP1 DUP5 SWAP2 PUSH2 0x74F JUMPI JUMPDEST DUP1 PUSH2 0x670 JUMP JUMPDEST PUSH2 0x758 SWAP1 PUSH2 0x16C5 JUMP JUMPDEST PUSH2 0x295 JUMPI DUP3 DUP12 PUSH2 0x749 JUMP JUMPDEST DUP10 MLOAD RETURNDATASIZE DUP7 DUP3 RETURNDATACOPY RETURNDATASIZE SWAP1 REVERT JUMPDEST DUP6 DUP1 REVERT JUMPDEST SWAP1 POP DUP13 DUP2 DUP2 RETURNDATASIZE DUP4 GT PUSH2 0x79C JUMPI JUMPDEST PUSH2 0x788 DUP2 DUP4 PUSH2 0x16EE JUMP JUMPDEST DUP2 ADD SUB SLT PUSH2 0x797 JUMPI MLOAD DUP14 PUSH2 0x669 JUMP JUMPDEST PUSH1 0x0 DUP1 REVERT JUMPDEST POP RETURNDATASIZE PUSH2 0x77E JUMP JUMPDEST DUP12 MLOAD RETURNDATASIZE DUP9 DUP3 RETURNDATACOPY RETURNDATASIZE SWAP1 REVERT JUMPDEST PUSH1 0x60 SWAP1 DUP2 RETURNDATASIZE DUP2 GT PUSH2 0x7D5 JUMPI JUMPDEST PUSH2 0x7C3 DUP2 DUP4 PUSH2 0x16EE JUMP JUMPDEST DUP2 ADD SUB SLT PUSH2 0x7D1 JUMPI DUP13 PUSH2 0x644 JUMP JUMPDEST DUP5 DUP1 REVERT JUMPDEST POP RETURNDATASIZE PUSH2 0x7B9 JUMP JUMPDEST PUSH4 0x4E487B71 PUSH1 0xE0 SHL DUP10 MSTORE PUSH1 0x11 DUP8 MSTORE DUP5 DUP10 REVERT JUMPDEST PUSH4 0x4E487B71 PUSH1 0xE0 SHL DUP8 MSTORE PUSH1 0x11 DUP6 MSTORE DUP3 DUP8 REVERT JUMPDEST POP PUSH4 0x4E487B71 PUSH1 0xE0 SHL DUP6 MSTORE PUSH1 0x11 DUP4 MSTORE DUP5 REVERT JUMPDEST PUSH2 0x833 SWAP6 SWAP12 POP DUP10 SWAP1 MLOAD DUP1 SWAP7 DUP2 SWAP6 DUP3 SWAP5 PUSH4 0x64E329CB PUSH1 0xE1 SHL DUP5 MSTORE DUP12 DUP5 ADD PUSH2 0x17EE JUMP JUMPDEST SUB SWAP3 GAS CALL SWAP1 DUP2 ISZERO PUSH2 0x87E JUMPI DUP6 SWAP2 PUSH2 0x851 JUMPI JUMPDEST POP SWAP6 DUP12 DUP14 DUP1 DUP1 DUP14 PUSH2 0x5BF JUMP JUMPDEST PUSH2 0x871 SWAP2 POP DUP13 DUP14 RETURNDATASIZE LT PUSH2 0x877 JUMPI JUMPDEST PUSH2 0x869 DUP2 DUP4 PUSH2 0x16EE JUMP JUMPDEST DUP2 ADD SWAP1 PUSH2 0x17CF JUMP JUMPDEST DUP13 PUSH2 0x845 JUMP JUMPDEST POP RETURNDATASIZE PUSH2 0x85F JUMP JUMPDEST DUP11 MLOAD RETURNDATASIZE DUP8 DUP3 RETURNDATACOPY RETURNDATASIZE SWAP1 REVERT JUMPDEST PUSH2 0x8A0 SWAP2 SWAP12 POP DUP5 RETURNDATASIZE DUP7 GT PUSH2 0x877 JUMPI PUSH2 0x869 DUP2 DUP4 PUSH2 0x16EE JUMP JUMPDEST SWAP10 CODESIZE PUSH2 0x5B4 JUMP JUMPDEST DUP14 MLOAD RETURNDATASIZE DUP11 DUP3 RETURNDATACOPY RETURNDATASIZE SWAP1 REVERT JUMPDEST PUSH2 0x8C8 SWAP2 POP DUP9 RETURNDATASIZE DUP11 GT PUSH2 0x877 JUMPI PUSH2 0x869 DUP2 DUP4 PUSH2 0x16EE JUMP JUMPDEST DUP14 PUSH2 0x558 JUMP JUMPDEST DUP10 MLOAD RETURNDATASIZE DUP8 DUP3 RETURNDATACOPY RETURNDATASIZE SWAP1 REVERT JUMPDEST DUP8 MLOAD PUSH3 0x461BCD PUSH1 0xE5 SHL DUP2 MSTORE DUP1 DUP4 ADD DUP12 SWAP1 MSTORE PUSH1 0xE DUP2 DUP14 ADD MSTORE PUSH14 0x105C1C1C9BDD994819985A5B1959 PUSH1 0x92 SHL PUSH1 0x44 DUP3 ADD MSTORE PUSH1 0x64 SWAP1 REVERT JUMPDEST PUSH2 0x92B SWAP2 POP DUP12 RETURNDATASIZE DUP14 GT PUSH2 0x931 JUMPI JUMPDEST PUSH2 0x923 DUP2 DUP4 PUSH2 0x16EE JUMP JUMPDEST DUP2 ADD SWAP1 PUSH2 0x1711 JUMP JUMPDEST DUP13 PUSH2 0x529 JUMP JUMPDEST POP RETURNDATASIZE PUSH2 0x919 JUMP JUMPDEST SWAP5 POP DUP12 PUSH2 0x4D2 JUMP JUMPDEST SWAP1 POP DUP11 DUP2 DUP2 RETURNDATASIZE DUP4 GT PUSH2 0x966 JUMPI JUMPDEST PUSH2 0x957 DUP2 DUP4 PUSH2 0x16EE JUMP JUMPDEST DUP2 ADD SUB SLT PUSH2 0x797 JUMPI MLOAD DUP13 PUSH2 0x4C9 JUMP JUMPDEST POP RETURNDATASIZE PUSH2 0x94D JUMP JUMPDEST DUP4 MLOAD PUSH3 0x461BCD PUSH1 0xE5 SHL DUP2 MSTORE DUP1 DUP9 ADD DUP8 SWAP1 MSTORE PUSH1 0x11 PUSH1 0x24 DUP3 ADD MSTORE PUSH17 0x151BDAD95B881E19995C8819985A5B1959 PUSH1 0x7A SHL PUSH1 0x44 DUP3 ADD MSTORE PUSH1 0x64 SWAP1 REVERT JUMPDEST PUSH2 0x9BB SWAP2 POP DUP8 RETURNDATASIZE DUP10 GT PUSH2 0x931 JUMPI PUSH2 0x923 DUP2 DUP4 PUSH2 0x16EE JUMP JUMPDEST DUP9 PUSH2 0x3EB JUMP JUMPDEST DUP6 MLOAD RETURNDATASIZE DUP7 DUP3 RETURNDATACOPY RETURNDATASIZE SWAP1 REVERT JUMPDEST DUP3 SLOAD PUSH1 0x1 PUSH1 0x1 PUSH1 0xA0 SHL SUB AND SWAP1 DUP2 EXTCODESIZE ISZERO PUSH2 0x712 JUMPI DUP4 SWAP2 PUSH1 0x24 DUP4 SWAP3 DUP8 MLOAD SWAP5 DUP6 SWAP4 DUP5 SWAP3 PUSH4 0x16C24011 PUSH1 0xE2 SHL DUP5 MSTORE DUP14 DUP5 ADD MSTORE GAS CALL DUP1 ISZERO PUSH2 0xA23 JUMPI SWAP1 DUP4 SWAP2 PUSH2 0xA0F JUMPI JUMPDEST POP PUSH2 0x3AA JUMP JUMPDEST PUSH2 0xA18 SWAP1 PUSH2 0x16C5 JUMP JUMPDEST PUSH2 0x197 JUMPI DUP2 DUP8 PUSH2 0xA09 JUMP JUMPDEST DUP5 MLOAD RETURNDATASIZE DUP6 DUP3 RETURNDATACOPY RETURNDATASIZE SWAP1 REVERT JUMPDEST DUP4 SLOAD PUSH1 0x1 PUSH1 0x1 PUSH1 0xA0 SHL SUB AND DUP1 EXTCODESIZE ISZERO PUSH2 0x7D1 JUMPI DUP5 SWAP1 DUP10 DUP8 MLOAD DUP1 SWAP5 DUP2 SWAP4 PUSH4 0x16F1A0A7 PUSH1 0xE3 SHL DUP4 MSTORE GAS CALL DUP1 ISZERO PUSH2 0x9C1 JUMPI SWAP1 DUP5 SWAP2 PUSH2 0xA68 JUMPI JUMPDEST POP PUSH2 0x3A3 JUMP JUMPDEST PUSH2 0xA71 SWAP1 PUSH2 0x16C5 JUMP JUMPDEST PUSH2 0x295 JUMPI DUP3 DUP9 PUSH2 0xA62 JUMP JUMPDEST DUP5 SLOAD PUSH1 0x1 PUSH1 0x1 PUSH1 0xA0 SHL SUB AND DUP1 EXTCODESIZE ISZERO PUSH2 0x76D JUMPI DUP6 SWAP1 DUP11 DUP9 MLOAD DUP1 SWAP5 DUP2 SWAP4 PUSH4 0x523AA0DD PUSH1 0xE1 SHL DUP4 MSTORE GAS CALL DUP1 ISZERO PUSH2 0xACB JUMPI SWAP1 DUP6 SWAP2 PUSH2 0xAB7 JUMPI JUMPDEST POP PUSH2 0x39C JUMP JUMPDEST PUSH2 0xAC0 SWAP1 PUSH2 0x16C5 JUMP JUMPDEST PUSH2 0x712 JUMPI DUP4 DUP10 PUSH2 0xAB1 JUMP JUMPDEST DUP7 MLOAD RETURNDATASIZE DUP8 DUP3 RETURNDATACOPY RETURNDATASIZE SWAP1 REVERT JUMPDEST PUSH4 0x4E487B71 PUSH1 0xE0 SHL DUP9 MSTORE PUSH1 0x11 DUP13 MSTORE PUSH1 0x24 DUP9 REVERT JUMPDEST PUSH4 0x4E487B71 PUSH1 0xE0 SHL DUP7 MSTORE PUSH1 0x11 DUP11 MSTORE PUSH1 0x24 DUP7 REVERT JUMPDEST PUSH4 0x4E487B71 PUSH1 0xE0 SHL DUP4 MSTORE PUSH1 0x11 DUP8 MSTORE PUSH1 0x24 DUP4 REVERT JUMPDEST PUSH4 0x4E487B71 PUSH1 0xE0 SHL DUP2 MSTORE PUSH1 0x11 DUP6 MSTORE PUSH1 0x24 SWAP1 REVERT JUMPDEST MLOAD PUSH3 0x461BCD PUSH1 0xE5 SHL DUP2 MSTORE DUP1 DUP5 ADD DUP4 SWAP1 MSTORE PUSH1 0x6 PUSH1 0x24 DUP3 ADD MSTORE PUSH6 0x9CDE408AA89 PUSH1 0xD3 SHL PUSH1 0x44 DUP3 ADD MSTORE PUSH1 0x64 SWAP1 REVERT JUMPDEST PUSH1 0xFF SWAP2 POP PUSH1 0x8 SHR AND ISZERO DUP7 PUSH2 0x2C2 JUMP JUMPDEST SWAP1 POP CALLVALUE PUSH2 0x295 JUMPI PUSH1 0x20 CALLDATASIZE PUSH1 0x3 NOT ADD SLT PUSH2 0x295 JUMPI PUSH2 0xB76 PUSH2 0x154B JUMP JUMPDEST PUSH1 0x1 PUSH1 0x1 PUSH1 0xA0 SHL SUB SWAP1 PUSH2 0xBAC CALLER PUSH32 0x0 DUP5 AND EQ PUSH2 0x157D JUMP JUMPDEST AND DUP4 MSTORE PUSH1 0x20 MSTORE DUP2 KECCAK256 DUP1 SLOAD PUSH1 0x1 PUSH1 0x1 PUSH1 0x40 SHL SUB NOT AND TIMESTAMP PUSH1 0x1 PUSH1 0x1 PUSH1 0x40 SHL SUB AND OR SWAP1 SSTORE DUP1 RETURN JUMPDEST DUP4 DUP4 CALLVALUE PUSH2 0x197 JUMPI DUP1 PUSH1 0x3 NOT CALLDATASIZE ADD SLT PUSH2 0x197 JUMPI DUP3 CALLDATALOAD PUSH2 0xBEC PUSH2 0x1760 JUMP JUMPDEST PUSH2 0xC03 PUSH1 0x3 SLOAD PUSH1 0xFF DUP2 AND ISZERO SWAP1 DUP2 PUSH2 0xB4C JUMPI POP PUSH2 0x15B8 JUMP JUMPDEST DUP1 ISZERO PUSH2 0xF80 JUMPI PUSH1 0x96 DUP2 MUL DUP2 DUP2 DIV PUSH1 0x96 SUB PUSH2 0xF6D JUMPI PUSH2 0x2710 DUP1 SWAP2 DIV SWAP5 PUSH2 0xC28 DUP7 DUP5 PUSH2 0x163C JUMP JUMPDEST SWAP6 DUP6 PUSH1 0x1 DUP1 PUSH1 0xA0 SHL SUB DUP1 DUP3 SLOAD AND SWAP3 DUP8 MLOAD PUSH4 0x23B872DD PUSH1 0xE0 SHL DUP2 MSTORE CALLER DUP7 DUP3 ADD MSTORE PUSH1 0x24 SWAP5 ADDRESS DUP7 DUP4 ADD MSTORE DUP9 PUSH1 0x44 DUP4 ADD MSTORE DUP2 PUSH1 0x64 DUP2 PUSH1 0x20 SWAP14 DUP15 SWAP5 GAS CALL SWAP1 DUP2 ISZERO PUSH2 0x763 JUMPI DUP5 SWAP2 PUSH2 0xF50 JUMPI JUMPDEST POP ISZERO PUSH2 0xF19 JUMPI DUP1 PUSH2 0xEBF JUMPI JUMPDEST POP PUSH1 0x2 SLOAD SWAP5 PUSH8 0x29A2241AF62C0000 SWAP10 DUP7 DUP12 ADD DUP1 SWAP12 GT PUSH2 0xE6E JUMPI PUSH2 0xCAD SWAP10 SWAP11 PUSH2 0xCBA PUSH2 0xCB3 PUSH2 0xCC0 SWAP4 PUSH1 0x1 SLOAD SWAP14 DUP15 DUP6 PUSH2 0x15F3 JUMP JUMPDEST SWAP14 PUSH2 0x1649 JUMP JUMPDEST DUP1 SWAP13 PUSH2 0x161C JUMP JUMPDEST SWAP1 PUSH2 0x163C JUMP JUMPDEST SWAP6 DUP1 DUP8 GT PUSH2 0xE81 JUMPI DUP7 PUSH2 0xCE2 SWAP2 DUP2 ISZERO SWAP12 PUSH2 0xCDA DUP14 ISZERO PUSH2 0x1656 JUMP JUMPDEST PUSH1 0x1 SSTORE PUSH2 0x163C JUMP JUMPDEST PUSH1 0x2 SSTORE PUSH2 0xCEE CALLER PUSH2 0x183D JUMP JUMPDEST PUSH1 0xC8 ADD DUP1 PUSH1 0xC8 GT PUSH2 0xE6E JUMPI PUSH2 0xD04 DUP3 SWAP2 DUP9 PUSH2 0x15F3 JUMP JUMPDEST DIV SWAP9 PUSH1 0x96 DUP8 MUL SWAP1 DUP8 DUP3 DIV PUSH1 0x96 EQ OR ISZERO PUSH2 0xE6E JUMPI DIV SWAP1 PUSH2 0xD27 DUP3 PUSH2 0x304 DUP12 DUP10 PUSH2 0x163C JUMP JUMPDEST SWAP9 PUSH2 0xD35 DUP6 CALLDATALOAD DUP12 LT ISZERO PUSH2 0x168E JUMP JUMPDEST DUP1 PUSH2 0xE26 JUMPI JUMPDEST POP DUP2 PUSH2 0xDE5 JUMPI JUMPDEST POP POP DUP1 DUP1 DUP1 DUP10 CALLER GAS CALL PUSH2 0xD53 PUSH2 0x1790 JUMP JUMPDEST POP ISZERO PUSH2 0xDB1 JUMPI POP POP DUP4 PUSH32 0x483F8AEC0FD892AC72AD1BA8D0E9C9E73DB59C12D263FD71DE480B5B3DEEAE3C SWAP2 PUSH2 0xD96 PUSH2 0xD89 PUSH2 0x1808 JUMP JUMPDEST DUP7 MLOAD SWAP4 DUP5 SWAP4 CALLER SWAP8 DUP6 PUSH2 0x1744 JUMP JUMPDEST SUB SWAP1 LOG2 PUSH1 0x1 PUSH1 0x0 DUP1 MLOAD PUSH1 0x20 PUSH2 0x1A13 DUP4 CODECOPY DUP2 MLOAD SWAP2 MSTORE SSTORE MLOAD SWAP1 DUP2 MSTORE RETURN JUMPDEST DUP5 MLOAD PUSH3 0x461BCD PUSH1 0xE5 SHL DUP2 MSTORE SWAP2 DUP3 ADD DUP8 SWAP1 MSTORE PUSH1 0xF SWAP1 DUP3 ADD MSTORE PUSH15 0x115512081CD95B990819985A5B1959 PUSH1 0x8A SHL PUSH1 0x44 DUP3 ADD MSTORE PUSH1 0x64 SWAP1 REVERT JUMPDEST DUP3 SLOAD AND DUP1 EXTCODESIZE ISZERO PUSH2 0x295 JUMPI DUP3 SWAP1 DUP6 DUP10 MLOAD DUP1 SWAP5 DUP2 SWAP4 PUSH4 0x16F1A0A7 PUSH1 0xE3 SHL DUP4 MSTORE GAS CALL DUP1 ISZERO PUSH2 0x708 JUMPI SWAP1 DUP3 SWAP2 ISZERO PUSH2 0xD42 JUMPI PUSH2 0xE1B SWAP1 PUSH2 0x16C5 JUMP JUMPDEST PUSH2 0x705 JUMPI DUP1 DUP10 PUSH2 0xD42 JUMP JUMPDEST DUP2 DUP5 SLOAD AND DUP1 EXTCODESIZE ISZERO PUSH2 0x7D1 JUMPI DUP5 SWAP1 DUP8 DUP12 MLOAD DUP1 SWAP5 DUP2 SWAP4 PUSH4 0x523AA0DD PUSH1 0xE1 SHL DUP4 MSTORE GAS CALL DUP1 ISZERO PUSH2 0x763 JUMPI SWAP1 DUP5 SWAP2 PUSH2 0xE5A JUMPI JUMPDEST POP PUSH2 0xD3B JUMP JUMPDEST PUSH2 0xE63 SWAP1 PUSH2 0x16C5 JUMP JUMPDEST PUSH2 0x295 JUMPI DUP3 DUP12 PUSH2 0xE54 JUMP JUMPDEST POP POP PUSH4 0x4E487B71 PUSH1 0xE0 SHL DUP3 MSTORE POP PUSH1 0x11 DUP4 MSTORE REVERT JUMPDEST DUP9 MLOAD PUSH3 0x461BCD PUSH1 0xE5 SHL DUP2 MSTORE DUP1 DUP8 ADD DUP13 SWAP1 MSTORE PUSH1 0x19 DUP2 DUP8 ADD MSTORE PUSH25 0x496E73756666696369656E742045544820696E206375727665 PUSH1 0x38 SHL PUSH1 0x44 DUP3 ADD MSTORE PUSH1 0x64 SWAP1 REVERT JUMPDEST DUP2 DUP4 SLOAD AND SWAP1 DUP2 EXTCODESIZE ISZERO PUSH2 0x712 JUMPI DUP4 SWAP2 DUP6 DUP4 SWAP3 DUP12 MLOAD SWAP5 DUP6 SWAP4 DUP5 SWAP3 PUSH4 0x16C24011 PUSH1 0xE2 SHL DUP5 MSTORE DUP12 DUP5 ADD MSTORE GAS CALL DUP1 ISZERO PUSH2 0xF0F JUMPI SWAP1 DUP4 SWAP2 PUSH2 0xEFB JUMPI JUMPDEST POP PUSH2 0xC7A JUMP JUMPDEST PUSH2 0xF04 SWAP1 PUSH2 0x16C5 JUMP JUMPDEST PUSH2 0x197 JUMPI DUP2 DUP11 PUSH2 0xEF5 JUMP JUMPDEST DUP9 MLOAD RETURNDATASIZE DUP6 DUP3 RETURNDATACOPY RETURNDATASIZE SWAP1 REVERT JUMPDEST DUP8 MLOAD PUSH3 0x461BCD PUSH1 0xE5 SHL DUP2 MSTORE DUP1 DUP7 ADD DUP11 SWAP1 MSTORE PUSH1 0x12 DUP2 DUP7 ADD MSTORE PUSH18 0x151C985B9CD9995C881A5B8819985A5B1959 PUSH1 0x72 SHL PUSH1 0x44 DUP3 ADD MSTORE PUSH1 0x64 SWAP1 REVERT JUMPDEST PUSH2 0xF67 SWAP2 POP DUP11 RETURNDATASIZE DUP13 GT PUSH2 0x931 JUMPI PUSH2 0x923 DUP2 DUP4 PUSH2 0x16EE JUMP JUMPDEST DUP12 PUSH2 0xC6E JUMP JUMPDEST PUSH4 0x4E487B71 PUSH1 0xE0 SHL DUP5 MSTORE PUSH1 0x11 DUP6 MSTORE PUSH1 0x24 DUP5 REVERT JUMPDEST DUP2 MLOAD PUSH3 0x461BCD PUSH1 0xE5 SHL DUP2 MSTORE PUSH1 0x20 DUP2 DUP7 ADD MSTORE PUSH1 0x9 PUSH1 0x24 DUP3 ADD MSTORE PUSH9 0x4E6F20746F6B656E73 PUSH1 0xB8 SHL PUSH1 0x44 DUP3 ADD MSTORE PUSH1 0x64 SWAP1 REVERT JUMPDEST PUSH2 0x1561 JUMP JUMPDEST POP POP CALLVALUE PUSH2 0x197 JUMPI DUP2 PUSH1 0x3 NOT CALLDATASIZE ADD SLT PUSH2 0x197 JUMPI PUSH1 0x20 SWAP1 MLOAD PUSH11 0xA56FA5B99019A5C8000000 DUP2 MSTORE RETURN JUMPDEST POP POP CALLVALUE PUSH2 0x197 JUMPI DUP2 PUSH1 0x3 NOT CALLDATASIZE ADD SLT PUSH2 0x197 JUMPI PUSH1 0x20 SWAP1 MLOAD PUSH2 0x3E8 DUP2 MSTORE RETURN JUMPDEST POP POP CALLVALUE PUSH2 0x197 JUMPI DUP2 PUSH1 0x3 NOT CALLDATASIZE ADD SLT PUSH2 0x197 JUMPI MLOAD PUSH32 0x0 PUSH1 0x1 PUSH1 0x1 PUSH1 0xA0 SHL SUB AND DUP2 MSTORE PUSH1 0x20 SWAP1 RETURN JUMPDEST POP POP CALLVALUE PUSH2 0x197 JUMPI DUP2 PUSH1 0x3 NOT CALLDATASIZE ADD SLT PUSH2 0x197 JUMPI PUSH1 0x20 SWAP1 MLOAD PUSH2 0x7D0 DUP2 MSTORE RETURN JUMPDEST POP POP CALLVALUE PUSH2 0x197 JUMPI DUP2 PUSH1 0x3 NOT CALLDATASIZE ADD SLT PUSH2 0x197 JUMPI PUSH1 0x20 SWAP1 MLOAD PUSH2 0x1F4 DUP2 MSTORE RETURN JUMPDEST POP POP CALLVALUE PUSH2 0x197 JUMPI DUP2 PUSH1 0x3 NOT CALLDATASIZE ADD SLT PUSH2 0x197 JUMPI MLOAD PUSH8 0x14ADF4B7320334B9 PUSH1 0x1D SHL DUP2 MSTORE PUSH1 0x20 SWAP1 RETURN JUMPDEST POP POP CALLVALUE PUSH2 0x197 JUMPI DUP2 PUSH1 0x3 NOT CALLDATASIZE ADD SLT PUSH2 0x197 JUMPI MLOAD PUSH32 0x0 PUSH1 0x1 PUSH1 0x1 PUSH1 0xA0 SHL SUB AND DUP2 MSTORE PUSH1 0x20 SWAP1 RETURN JUMPDEST DUP3 DUP5 CALLVALUE PUSH2 0x705 JUMPI DUP1 PUSH1 0x3 NOT CALLDATASIZE ADD SLT PUSH2 0x705 JUMPI PUSH1 0x2 SLOAD SWAP3 PUSH8 0x29A2241AF62C0000 SWAP4 DUP5 ADD DUP1 SWAP5 GT PUSH2 0x1139 JUMPI PUSH8 0xDE0B6B3A7640000 SWAP4 DUP5 DUP2 MUL SWAP5 DUP2 DUP7 DIV EQ SWAP1 ISZERO OR ISZERO PUSH2 0x1139 JUMPI PUSH1 0x20 DUP4 PUSH2 0x1132 DUP7 PUSH1 0x1 SLOAD SWAP1 PUSH2 0x161C JUMP JUMPDEST SWAP1 MLOAD SWAP1 DUP2 MSTORE RETURN JUMPDEST PUSH4 0x4E487B71 PUSH1 0xE0 SHL DUP3 MSTORE PUSH1 0x11 SWAP1 MSTORE PUSH1 0x24 SWAP1 REVERT JUMPDEST POP POP CALLVALUE PUSH2 0x197 JUMPI DUP2 PUSH1 0x3 NOT CALLDATASIZE ADD SLT PUSH2 0x197 JUMPI PUSH1 0x20 SWAP1 MLOAD PUSH8 0x4563918244F40000 DUP2 MSTORE RETURN JUMPDEST POP POP CALLVALUE PUSH2 0x197 JUMPI DUP2 PUSH1 0x3 NOT CALLDATASIZE ADD SLT PUSH2 0x197 JUMPI MLOAD PUSH32 0x0 PUSH1 0x1 PUSH1 0x1 PUSH1 0xA0 SHL SUB AND DUP2 MSTORE PUSH1 0x20 SWAP1 RETURN JUMPDEST POP POP CALLVALUE PUSH2 0x197 JUMPI DUP2 PUSH1 0x3 NOT CALLDATASIZE ADD SLT PUSH2 0x197 JUMPI MLOAD PUSH32 0x0 PUSH1 0x1 PUSH1 0x1 PUSH1 0xA0 SHL SUB AND DUP2 MSTORE PUSH1 0x20 SWAP1 RETURN JUMPDEST POP POP CALLVALUE PUSH2 0x197 JUMPI DUP2 PUSH1 0x3 NOT CALLDATASIZE ADD SLT PUSH2 0x197 JUMPI PUSH1 0x20 SWAP1 PUSH1 0xFF PUSH1 0x3 SLOAD PUSH1 0x8 SHR AND SWAP1 MLOAD SWAP1 ISZERO ISZERO DUP2 MSTORE RETURN JUMPDEST DUP3 DUP5 CALLVALUE PUSH2 0x705 JUMPI DUP2 PUSH1 0x3 NOT CALLDATASIZE ADD SLT PUSH2 0x705 JUMPI POP PUSH1 0x24 CALLDATALOAD SWAP2 PUSH1 0x1 PUSH1 0x1 PUSH1 0xA0 SHL SUB DUP4 AND DUP4 SUB PUSH2 0x797 JUMPI PUSH1 0x20 SWAP3 PUSH2 0x1132 SWAP2 CALLDATALOAD PUSH2 0x193A JUMP JUMPDEST POP POP CALLVALUE PUSH2 0x197 JUMPI DUP2 PUSH1 0x3 NOT CALLDATASIZE ADD SLT PUSH2 0x197 JUMPI PUSH1 0x20 SWAP1 PUSH2 0x1132 PUSH2 0x1808 JUMP JUMPDEST POP POP CALLVALUE PUSH2 0x197 JUMPI DUP2 PUSH1 0x3 NOT CALLDATASIZE ADD SLT PUSH2 0x197 JUMPI PUSH1 0x20 SWAP1 MLOAD PUSH8 0x29A2241AF62C0000 DUP2 MSTORE RETURN JUMPDEST SWAP1 POP CALLVALUE PUSH2 0x295 JUMPI PUSH1 0x20 CALLDATASIZE PUSH1 0x3 NOT ADD SLT PUSH2 0x295 JUMPI PUSH1 0x20 SWAP3 SWAP1 PUSH1 0x1 PUSH1 0x1 PUSH1 0xA0 SHL SUB PUSH2 0x12B9 PUSH2 0x154B JUMP JUMPDEST AND DUP3 MSTORE DUP4 MSTORE DUP2 SWAP1 KECCAK256 SLOAD SWAP1 MLOAD PUSH1 0x1 PUSH1 0x1 PUSH1 0x40 SHL SUB SWAP1 SWAP2 AND DUP2 MSTORE RETURN JUMPDEST DUP4 SWAP2 POP CALLVALUE PUSH2 0x197 JUMPI PUSH1 0x20 DUP1 PUSH1 0x3 NOT CALLDATASIZE ADD SLT PUSH2 0x295 JUMPI PUSH2 0x12F0 PUSH2 0x154B JUMP JUMPDEST PUSH2 0x12F8 PUSH2 0x1760 JUMP JUMPDEST PUSH1 0x1 PUSH1 0x1 PUSH1 0xA0 SHL SUB SWAP1 PUSH2 0x132E CALLER PUSH32 0x0 DUP5 AND EQ PUSH2 0x157D JUMP JUMPDEST PUSH1 0x3 SLOAD PUSH1 0xFF DUP2 AND PUSH2 0x149D JUMPI PUSH2 0xFF00 NOT AND PUSH2 0x100 OR PUSH1 0x3 SSTORE DUP5 SLOAD DUP7 MLOAD PUSH4 0x70A08231 PUSH1 0xE0 SHL DUP2 MSTORE ADDRESS DUP7 DUP3 ADD MSTORE SWAP1 DUP4 AND SWAP1 DUP5 DUP2 PUSH1 0x24 DUP2 DUP6 GAS STATICCALL SWAP1 DUP2 ISZERO PUSH2 0x1493 JUMPI DUP8 SWAP2 PUSH2 0x1466 JUMPI JUMPDEST POP DUP1 PUSH2 0x1410 JUMPI JUMPDEST POP POP SELFBALANCE SWAP4 DUP5 PUSH2 0x13C4 JUMPI JUMPDEST POP PUSH32 0x16BFC55CFDA3EB65B74E8FE52A8804E222BDB31AEF30599B41ADEB45893F66A9 SWAP4 SWAP5 SWAP6 MLOAD SWAP5 DUP6 MSTORE AND SWAP3 LOG2 PUSH1 0x1 PUSH1 0x0 DUP1 MLOAD PUSH1 0x20 PUSH2 0x1A13 DUP4 CODECOPY DUP2 MLOAD SWAP2 MSTORE SSTORE DUP1 RETURN JUMPDEST DUP6 DUP1 DUP1 DUP1 DUP9 DUP8 DUP8 AND GAS CALL PUSH2 0x13D6 PUSH2 0x1790 JUMP JUMPDEST POP PUSH2 0x1383 JUMPI DUP7 MLOAD PUSH3 0x461BCD PUSH1 0xE5 SHL DUP2 MSTORE SWAP1 DUP2 ADD DUP5 SWAP1 MSTORE PUSH1 0xF PUSH1 0x24 DUP3 ADD MSTORE PUSH15 0x15DA5D1A191C985DC819985A5B1959 PUSH1 0x8A SHL PUSH1 0x44 DUP3 ADD MSTORE PUSH1 0x64 SWAP1 REVERT JUMPDEST DUP2 EXTCODESIZE ISZERO PUSH2 0x1462 JUMPI DUP7 SWAP2 PUSH1 0x24 DUP4 SWAP3 DUP11 MLOAD SWAP5 DUP6 SWAP4 DUP5 SWAP3 PUSH4 0x16C24011 PUSH1 0xE2 SHL DUP5 MSTORE DUP12 DUP5 ADD MSTORE GAS CALL DUP1 ISZERO PUSH2 0x1458 JUMPI PUSH2 0x1445 JUMPI JUMPDEST DUP1 PUSH2 0x1379 JUMP JUMPDEST PUSH2 0x1451 SWAP1 SWAP6 SWAP2 SWAP6 PUSH2 0x16C5 JUMP JUMPDEST SWAP4 DUP7 PUSH2 0x143F JUMP JUMPDEST DUP8 MLOAD RETURNDATASIZE DUP9 DUP3 RETURNDATACOPY RETURNDATASIZE SWAP1 REVERT JUMPDEST DUP7 DUP1 REVERT JUMPDEST SWAP1 POP DUP5 DUP2 DUP2 RETURNDATASIZE DUP4 GT PUSH2 0x148C JUMPI JUMPDEST PUSH2 0x147D DUP2 DUP4 PUSH2 0x16EE JUMP JUMPDEST DUP2 ADD SUB SLT PUSH2 0x1462 JUMPI MLOAD DUP9 PUSH2 0x1372 JUMP JUMPDEST POP RETURNDATASIZE PUSH2 0x1473 JUMP JUMPDEST DUP9 MLOAD RETURNDATASIZE DUP10 DUP3 RETURNDATACOPY RETURNDATASIZE SWAP1 REVERT JUMPDEST DUP7 MLOAD PUSH3 0x461BCD PUSH1 0xE5 SHL DUP2 MSTORE DUP1 DUP7 ADD DUP6 SWAP1 MSTORE PUSH1 0x11 PUSH1 0x24 DUP3 ADD MSTORE PUSH17 0x105B1C9958591E4819DC98591D585D1959 PUSH1 0x7A SHL PUSH1 0x44 DUP3 ADD MSTORE PUSH1 0x64 SWAP1 REVERT JUMPDEST POP POP CALLVALUE PUSH2 0x197 JUMPI DUP2 PUSH1 0x3 NOT CALLDATASIZE ADD SLT PUSH2 0x197 JUMPI PUSH1 0x20 SWAP1 MLOAD PUSH1 0xC8 DUP2 MSTORE RETURN JUMPDEST POP POP CALLVALUE PUSH2 0x197 JUMPI DUP2 PUSH1 0x3 NOT CALLDATASIZE ADD SLT PUSH2 0x197 JUMPI PUSH1 0x20 SWAP1 PUSH1 0x1 SLOAD SWAP1 MLOAD SWAP1 DUP2 MSTORE RETURN JUMPDEST DUP3 DUP5 CALLVALUE PUSH2 0x705 JUMPI PUSH1 0x20 CALLDATASIZE PUSH1 0x3 NOT ADD SLT PUSH2 0x705 JUMPI POP PUSH2 0x1132 PUSH1 0x20 SWAP3 CALLDATALOAD PUSH2 0x18A8 JUMP JUMPDEST DUP5 SWAP1 CALLVALUE PUSH2 0x197 JUMPI DUP2 PUSH1 0x3 NOT CALLDATASIZE ADD SLT PUSH2 0x197 JUMPI PUSH1 0x20 SWAP1 PUSH1 0x2 SLOAD DUP2 MSTORE RETURN JUMPDEST PUSH1 0x4 CALLDATALOAD SWAP1 PUSH1 0x1 PUSH1 0x1 PUSH1 0xA0 SHL SUB DUP3 AND DUP3 SUB PUSH2 0x797 JUMPI JUMP JUMPDEST CALLVALUE PUSH2 0x797 JUMPI PUSH1 0x0 CALLDATASIZE PUSH1 0x3 NOT ADD SLT PUSH2 0x797 JUMPI PUSH1 0x20 PUSH1 0x40 MLOAD PUSH1 0x96 DUP2 MSTORE RETURN JUMPDEST ISZERO PUSH2 0x1584 JUMPI JUMP JUMPDEST PUSH1 0x40 MLOAD PUSH3 0x461BCD PUSH1 0xE5 SHL DUP2 MSTORE PUSH1 0x20 PUSH1 0x4 DUP3 ADD MSTORE PUSH1 0xC PUSH1 0x24 DUP3 ADD MSTORE PUSH12 0x4F6E6C7920666163746F7279 PUSH1 0xA0 SHL PUSH1 0x44 DUP3 ADD MSTORE PUSH1 0x64 SWAP1 REVERT JUMPDEST ISZERO PUSH2 0x15BF JUMPI JUMP JUMPDEST PUSH1 0x40 MLOAD PUSH3 0x461BCD PUSH1 0xE5 SHL DUP2 MSTORE PUSH1 0x20 PUSH1 0x4 DUP3 ADD MSTORE PUSH1 0xC PUSH1 0x24 DUP3 ADD MSTORE PUSH12 0x10DD5C9D994818DB1BDCD959 PUSH1 0xA2 SHL PUSH1 0x44 DUP3 ADD MSTORE PUSH1 0x64 SWAP1 REVERT JUMPDEST DUP2 DUP2 MUL SWAP3 SWAP2 DUP2 ISZERO SWAP2 DUP5 DIV EQ OR ISZERO PUSH2 0x1606 JUMPI JUMP JUMPDEST PUSH4 0x4E487B71 PUSH1 0xE0 SHL PUSH1 0x0 MSTORE PUSH1 0x11 PUSH1 0x4 MSTORE PUSH1 0x24 PUSH1 0x0 REVERT JUMPDEST DUP2 ISZERO PUSH2 0x1626 JUMPI DIV SWAP1 JUMP JUMPDEST PUSH4 0x4E487B71 PUSH1 0xE0 SHL PUSH1 0x0 MSTORE PUSH1 0x12 PUSH1 0x4 MSTORE PUSH1 0x24 PUSH1 0x0 REVERT JUMPDEST SWAP2 SWAP1 DUP3 SUB SWAP2 DUP3 GT PUSH2 0x1606 JUMPI JUMP JUMPDEST SWAP2 SWAP1 DUP3 ADD DUP1 SWAP3 GT PUSH2 0x1606 JUMPI JUMP JUMPDEST ISZERO PUSH2 0x165D JUMPI JUMP JUMPDEST PUSH1 0x40 MLOAD PUSH3 0x461BCD PUSH1 0xE5 SHL DUP2 MSTORE PUSH1 0x20 PUSH1 0x4 DUP3 ADD MSTORE PUSH1 0x9 PUSH1 0x24 DUP3 ADD MSTORE PUSH9 0x151BDBC81CDB585B1B PUSH1 0xBA SHL PUSH1 0x44 DUP3 ADD MSTORE PUSH1 0x64 SWAP1 REVERT JUMPDEST ISZERO PUSH2 0x1695 JUMPI JUMP JUMPDEST PUSH1 0x40 MLOAD PUSH3 0x461BCD PUSH1 0xE5 SHL DUP2 MSTORE PUSH1 0x20 PUSH1 0x4 DUP3 ADD MSTORE PUSH1 0x8 PUSH1 0x24 DUP3 ADD MSTORE PUSH8 0x536C697070616765 PUSH1 0xC0 SHL PUSH1 0x44 DUP3 ADD MSTORE PUSH1 0x64 SWAP1 REVERT JUMPDEST PUSH1 0x1 PUSH1 0x1 PUSH1 0x40 SHL SUB DUP2 GT PUSH2 0x16D8 JUMPI PUSH1 0x40 MSTORE JUMP JUMPDEST PUSH4 0x4E487B71 PUSH1 0xE0 SHL PUSH1 0x0 MSTORE PUSH1 0x41 PUSH1 0x4 MSTORE PUSH1 0x24 PUSH1 0x0 REVERT JUMPDEST PUSH1 0x1F SWAP1 SWAP2 ADD PUSH1 0x1F NOT AND DUP2 ADD SWAP1 PUSH1 0x1 PUSH1 0x1 PUSH1 0x40 SHL SUB DUP3 GT SWAP1 DUP3 LT OR PUSH2 0x16D8 JUMPI PUSH1 0x40 MSTORE JUMP JUMPDEST SWAP1 DUP2 PUSH1 0x20 SWAP2 SUB SLT PUSH2 0x797 JUMPI MLOAD DUP1 ISZERO ISZERO DUP2 SUB PUSH2 0x797 JUMPI SWAP1 JUMP JUMPDEST PUSH1 0x1 PUSH1 0x1 PUSH1 0xA0 SHL SUB SWAP1 SWAP2 AND DUP2 MSTORE PUSH1 0x20 DUP2 ADD SWAP2 SWAP1 SWAP2 MSTORE PUSH1 0x40 ADD SWAP1 JUMP JUMPDEST SWAP1 SWAP5 SWAP4 SWAP3 PUSH1 0x60 SWAP3 PUSH1 0x80 DUP4 ADD SWAP7 DUP4 MSTORE PUSH1 0x20 DUP4 ADD MSTORE PUSH1 0x40 DUP3 ADD MSTORE ADD MSTORE JUMP JUMPDEST PUSH1 0x0 DUP1 MLOAD PUSH1 0x20 PUSH2 0x1A13 DUP4 CODECOPY DUP2 MLOAD SWAP2 MSTORE PUSH1 0x2 DUP2 SLOAD EQ PUSH2 0x177E JUMPI PUSH1 0x2 SWAP1 SSTORE JUMP JUMPDEST PUSH1 0x40 MLOAD PUSH4 0x3EE5AEB5 PUSH1 0xE0 SHL DUP2 MSTORE PUSH1 0x4 SWAP1 REVERT JUMPDEST RETURNDATASIZE ISZERO PUSH2 0x17CA JUMPI RETURNDATASIZE SWAP1 PUSH1 0x1 PUSH1 0x1 PUSH1 0x40 SHL SUB DUP3 GT PUSH2 0x16D8 JUMPI PUSH1 0x40 MLOAD SWAP2 PUSH2 0x17BE PUSH1 0x1F DUP3 ADD PUSH1 0x1F NOT AND PUSH1 0x20 ADD DUP5 PUSH2 0x16EE JUMP JUMPDEST DUP3 MSTORE RETURNDATASIZE PUSH1 0x0 PUSH1 0x20 DUP5 ADD RETURNDATACOPY JUMP JUMPDEST PUSH1 0x60 SWAP1 JUMP JUMPDEST SWAP1 DUP2 PUSH1 0x20 SWAP2 SUB SLT PUSH2 0x797 JUMPI MLOAD PUSH1 0x1 PUSH1 0x1 PUSH1 0xA0 SHL SUB DUP2 AND DUP2 SUB PUSH2 0x797 JUMPI SWAP1 JUMP JUMPDEST PUSH1 0x1 PUSH1 0x1 PUSH1 0xA0 SHL SUB SWAP2 DUP3 AND DUP2 MSTORE SWAP2 AND PUSH1 0x20 DUP3 ADD MSTORE PUSH1 0x40 ADD SWAP1 JUMP JUMPDEST PUSH1 0xFF PUSH1 0x3 SLOAD AND PUSH2 0x1837 JUMPI PUSH1 0x2 SLOAD PUSH2 0x2710 SWAP1 DUP2 DUP2 MUL SWAP2 DUP2 DUP4 DIV EQ SWAP1 ISZERO OR ISZERO PUSH2 0x1606 JUMPI PUSH8 0x4563918244F40000 SWAP1 DIV SWAP1 JUMP JUMPDEST PUSH2 0x2710 SWAP1 JUMP JUMPDEST PUSH1 0x1 PUSH1 0x1 PUSH1 0xA0 SHL SUB AND PUSH1 0x0 SWAP1 DUP2 MSTORE PUSH1 0x4 PUSH1 0x20 MSTORE PUSH1 0x40 SWAP1 KECCAK256 SLOAD PUSH1 0x1 PUSH1 0x1 PUSH1 0x40 SHL SUB AND DUP1 ISZERO PUSH2 0x18A2 JUMPI PUSH2 0x186E SWAP1 TIMESTAMP PUSH2 0x163C JUMP JUMPDEST PUSH2 0x12C DUP2 LT PUSH2 0x189B JUMPI PUSH2 0xE10 DUP2 LT PUSH2 0x1894 JUMPI PUSH3 0x15180 GT PUSH2 0x188E JUMPI PUSH1 0x0 SWAP1 JUMP JUMPDEST PUSH2 0x1F4 SWAP1 JUMP JUMPDEST POP PUSH2 0x3E8 SWAP1 JUMP JUMPDEST POP PUSH2 0x7D0 SWAP1 JUMP JUMPDEST POP PUSH1 0x0 SWAP1 JUMP JUMPDEST PUSH1 0x3 SLOAD PUSH1 0xFF DUP2 AND SWAP1 DUP2 ISZERO PUSH2 0x192C JUMPI JUMPDEST POP PUSH2 0x18A2 JUMPI PUSH2 0x25B2 SWAP1 DUP2 DUP2 MUL SWAP2 DUP2 DUP4 DIV EQ SWAP1 ISZERO OR ISZERO PUSH2 0x1606 JUMPI PUSH1 0x2 SLOAD PUSH8 0x29A2241AF62C0000 SWAP1 DUP2 ADD DUP1 SWAP2 GT PUSH2 0x1606 JUMPI PUSH2 0x190B SWAP1 PUSH2 0xCBA PUSH1 0x1 SLOAD SWAP2 PUSH2 0x340 PUSH2 0x18FE DUP5 DUP4 PUSH2 0x15F3 JUMP JUMPDEST SWAP2 PUSH2 0x2710 DUP1 SWAP8 DIV SWAP1 PUSH2 0x1649 JUMP JUMPDEST PUSH1 0x96 DUP2 MUL SWAP2 DUP2 DUP4 DIV PUSH1 0x96 EQ DUP3 ISZERO OR ISZERO PUSH2 0x1606 JUMPI PUSH2 0x1929 SWAP3 DIV SWAP1 PUSH2 0x163C JUMP JUMPDEST SWAP1 JUMP JUMPDEST PUSH1 0xFF SWAP2 POP PUSH1 0x8 SHR AND CODESIZE PUSH2 0x18B7 JUMP JUMPDEST PUSH1 0x3 SLOAD PUSH1 0xFF DUP2 AND SWAP1 DUP2 ISZERO PUSH2 0x1A04 JUMPI JUMPDEST POP PUSH2 0x19FD JUMPI PUSH1 0x96 DUP2 MUL SWAP1 DUP1 DUP3 DIV PUSH1 0x96 EQ DUP2 ISZERO OR ISZERO PUSH2 0x1606 JUMPI PUSH2 0x1971 SWAP1 PUSH2 0x2710 DUP1 SWAP4 DIV SWAP1 PUSH2 0x163C JUMP JUMPDEST SWAP2 PUSH1 0x2 SLOAD SWAP3 PUSH8 0x29A2241AF62C0000 DUP5 DUP2 ADD DUP1 SWAP2 GT PUSH2 0x1606 JUMPI PUSH2 0xCBA PUSH2 0x19A1 SWAP3 PUSH2 0x340 PUSH1 0x1 SLOAD SWAP2 PUSH2 0x33A DUP4 DUP7 PUSH2 0x15F3 JUMP JUMPDEST SWAP3 DUP1 DUP5 GT PUSH2 0x19F3 JUMPI JUMPDEST POP PUSH2 0x19B4 SWAP1 PUSH2 0x183D JUMP JUMPDEST DUP1 PUSH1 0xC8 ADD SWAP1 DUP2 PUSH1 0xC8 GT PUSH2 0x1606 JUMPI PUSH2 0x15E ADD DUP1 SWAP2 GT PUSH2 0x1606 JUMPI PUSH2 0x19D6 SWAP1 DUP4 PUSH2 0x15F3 JUMP JUMPDEST DIV PUSH1 0x0 SWAP2 DUP2 DUP2 GT PUSH1 0x0 EQ PUSH2 0x19EE JUMPI PUSH2 0x1929 SWAP3 POP PUSH2 0x163C JUMP JUMPDEST POP POP SWAP1 JUMP JUMPDEST SWAP3 POP PUSH2 0x19B4 PUSH2 0x19AA JUMP JUMPDEST POP POP PUSH1 0x0 SWAP1 JUMP JUMPDEST PUSH1 0xFF SWAP2 POP PUSH1 0x8 SHR AND CODESIZE PUSH2 0x1949 JUMP INVALID SWAP12 PUSH24 0x9B17422D0DF92223018B32B4D1FA46E071723D6817E2486D STOP EXTCODESIZE 0xEC 0xC5 PUSH0 STOP LOG2 PUSH5 0x6970667358 0x22 SLT KECCAK256 0xC4 PUSH4 0x9CBD17CF 0xAB ADD BALANCE PUSH13 0x5D54FD71AC6ED3FB70826FE185 PUSH12 0x7C245ADC8537858B64736F6C PUSH4 0x43000814 STOP CALLER "},"methodIdentifiers":{"BURN_BPS()":"a37a9fc0","CURVE_TOKEN_SUPPLY()":"9f870a75","GRAD_TOKEN_SUPPLY()":"c8f3bfd3","PLATFORM_BPS()":"ce91e164","REWARD_BPS()":"47b12bfc","SNIPE_BPS_1HR()":"c463ecd7","SNIPE_BPS_24HR()":"bacf2a7b","SNIPE_BPS_5MIN()":"bb103cbc","TARGET_REAL_ETH()":"94562afb","VIRTUAL_ETH()":"6700c0c3","buy(uint256)":"d96a094a","currentPrice()":"9d1b464a","factory()":"c45a0155","forceCloseAndWithdraw(address)":"50b89418","forceClosed()":"72d6e43a","getBuyAmount(uint256)":"1fb87f39","getSellAmount(uint256,address)":"71c1b833","graduated()":"e7c2b772","initToken(address)":"df4d17dc","lastBuyAt(address)":"55ee54a1","progressBps()":"6c1eba15","realEthRaised()":"130b3120","sell(uint256,uint256)":"d79875eb","stampBuyAt(address)":"d8c76c17","token()":"fc0c546a","trustedInitializer()":"9e85f9aa","uniswapFactory()":"8bdb2afa","uniswapRouter()":"735de9f7","virtualTokenReserve()":"343ee3b7"}}}}}