{"contracts/v2/AethpadFactoryV2.sol":{"AethpadFactoryV2":{"abi":[{"inputs":[{"internalType":"address","name":"_uniswapRouter","type":"address"}],"stateMutability":"nonpayable","type":"constructor"},{"inputs":[{"internalType":"address","name":"owner","type":"address"}],"name":"OwnableInvalidOwner","type":"error"},{"inputs":[{"internalType":"address","name":"account","type":"address"}],"name":"OwnableUnauthorizedAccount","type":"error"},{"inputs":[],"name":"ReentrancyGuardReentrantCall","type":"error"},{"anonymous":false,"inputs":[{"indexed":true,"internalType":"address","name":"token","type":"address"},{"indexed":false,"internalType":"string","name":"newURI","type":"string"}],"name":"MetadataUpdated","type":"event"},{"anonymous":false,"inputs":[{"indexed":true,"internalType":"address","name":"previousOwner","type":"address"},{"indexed":true,"internalType":"address","name":"newOwner","type":"address"}],"name":"OwnershipTransferred","type":"event"},{"anonymous":false,"inputs":[{"indexed":true,"internalType":"address","name":"fromToken","type":"address"},{"indexed":false,"internalType":"uint256","name":"amount","type":"uint256"}],"name":"PlatformFeeReceived","type":"event"},{"anonymous":false,"inputs":[{"indexed":true,"internalType":"address","name":"to","type":"address"},{"indexed":false,"internalType":"uint256","name":"amount","type":"uint256"}],"name":"PlatformFeesWithdrawn","type":"event"},{"anonymous":false,"inputs":[{"indexed":true,"internalType":"address","name":"token","type":"address"},{"indexed":true,"internalType":"address","name":"curve","type":"address"},{"indexed":true,"internalType":"address","name":"creator","type":"address"},{"indexed":false,"internalType":"string","name":"name","type":"string"},{"indexed":false,"internalType":"string","name":"symbol","type":"string"},{"indexed":false,"internalType":"string","name":"metadataURI","type":"string"},{"indexed":false,"internalType":"uint256","name":"devBuyEth","type":"uint256"},{"indexed":false,"internalType":"uint256","name":"devBuyTokens","type":"uint256"}],"name":"TokenDeployed","type":"event"},{"inputs":[],"name":"accumulatedPlatformFees","outputs":[{"internalType":"uint256","name":"","type":"uint256"}],"stateMutability":"view","type":"function"},{"inputs":[{"internalType":"uint256","name":"","type":"uint256"}],"name":"allTokens","outputs":[{"internalType":"address","name":"","type":"address"}],"stateMutability":"view","type":"function"},{"inputs":[],"name":"allTokensLength","outputs":[{"internalType":"uint256","name":"","type":"uint256"}],"stateMutability":"view","type":"function"},{"inputs":[{"internalType":"string","name":"name","type":"string"},{"internalType":"string","name":"symbol","type":"string"},{"internalType":"string","name":"metadataURI","type":"string"}],"name":"createToken","outputs":[{"internalType":"address","name":"tokenAddr","type":"address"},{"internalType":"address","name":"curveAddr","type":"address"}],"stateMutability":"payable","type":"function"},{"inputs":[],"name":"deployer","outputs":[{"internalType":"contract AethpadDeployer","name":"","type":"address"}],"stateMutability":"view","type":"function"},{"inputs":[{"internalType":"address","name":"tokenAddr","type":"address"}],"name":"flushTokenPlatformEth","outputs":[],"stateMutability":"nonpayable","type":"function"},{"inputs":[{"internalType":"address","name":"tokenAddr","type":"address"},{"internalType":"address","name":"to","type":"address"}],"name":"forceCloseCurve","outputs":[],"stateMutability":"nonpayable","type":"function"},{"inputs":[],"name":"getAllTokens","outputs":[{"internalType":"address[]","name":"","type":"address[]"}],"stateMutability":"view","type":"function"},{"inputs":[{"internalType":"address","name":"tokenAddr","type":"address"}],"name":"getRecord","outputs":[{"components":[{"internalType":"address","name":"token","type":"address"},{"internalType":"address","name":"curve","type":"address"},{"internalType":"address","name":"creator","type":"address"},{"internalType":"uint256","name":"deployedAt","type":"uint256"},{"internalType":"string","name":"metadataURI","type":"string"},{"internalType":"uint256","name":"initialDevBuyEth","type":"uint256"},{"internalType":"uint256","name":"initialDevBuyTokens","type":"uint256"}],"internalType":"struct AethpadFactoryV2.TokenRecord","name":"","type":"tuple"}],"stateMutability":"view","type":"function"},{"inputs":[],"name":"owner","outputs":[{"internalType":"address","name":"","type":"address"}],"stateMutability":"view","type":"function"},{"inputs":[{"internalType":"address","name":"","type":"address"}],"name":"records","outputs":[{"internalType":"address","name":"token","type":"address"},{"internalType":"address","name":"curve","type":"address"},{"internalType":"address","name":"creator","type":"address"},{"internalType":"uint256","name":"deployedAt","type":"uint256"},{"internalType":"string","name":"metadataURI","type":"string"},{"internalType":"uint256","name":"initialDevBuyEth","type":"uint256"},{"internalType":"uint256","name":"initialDevBuyTokens","type":"uint256"}],"stateMutability":"view","type":"function"},{"inputs":[],"name":"renounceOwnership","outputs":[],"stateMutability":"nonpayable","type":"function"},{"inputs":[{"internalType":"address","name":"_deployer","type":"address"}],"name":"setDeployer","outputs":[],"stateMutability":"nonpayable","type":"function"},{"inputs":[{"internalType":"address","name":"tokenAddr","type":"address"},{"internalType":"address","name":"account","type":"address"},{"internalType":"bool","name":"excluded","type":"bool"}],"name":"setTokenExcluded","outputs":[],"stateMutability":"nonpayable","type":"function"},{"inputs":[{"internalType":"address","name":"tokenAddr","type":"address"},{"internalType":"address","name":"newKeeper","type":"address"}],"name":"setTokenKeeper","outputs":[],"stateMutability":"nonpayable","type":"function"},{"inputs":[{"internalType":"address","name":"tokenAddr","type":"address"},{"internalType":"uint256","name":"newThreshold","type":"uint256"}],"name":"setTokenSwapThreshold","outputs":[],"stateMutability":"nonpayable","type":"function"},{"inputs":[],"name":"totalPlatformFeesWithdrawn","outputs":[{"internalType":"uint256","name":"","type":"uint256"}],"stateMutability":"view","type":"function"},{"inputs":[{"internalType":"address","name":"newOwner","type":"address"}],"name":"transferOwnership","outputs":[],"stateMutability":"nonpayable","type":"function"},{"inputs":[],"name":"uniswapRouter","outputs":[{"internalType":"address","name":"","type":"address"}],"stateMutability":"view","type":"function"},{"inputs":[{"internalType":"address","name":"tokenAddr","type":"address"},{"internalType":"string","name":"newURI","type":"string"}],"name":"updateMetadataURI","outputs":[],"stateMutability":"nonpayable","type":"function"},{"inputs":[{"internalType":"address","name":"to","type":"address"}],"name":"withdrawPlatformFees","outputs":[],"stateMutability":"nonpayable","type":"function"},{"stateMutability":"payable","type":"receive"}],"evm":{"bytecode":{"linkReferences":{},"object":"60a03461012257601f61177038819003918201601f19168301916001600160401b038311848410176101275780849260209460405283398101031261012257516001600160a01b03808216808303610122573315610109576000543360018060a01b0319821617600055604051923391167f8be0079c531659141344cd1fd0a4f28419497f9722a3daafe3b4186f6b6457e0600080a360017f9b779b17422d0df92223018b32b4d1fa46e071723d6817e2486d003becc55f0055156100da5750608052604051611632908161013e823960805181610cc90152f35b62461bcd60e51b815260206004820152600a6024820152692130b2103937baba32b960b11b6044820152606490fd5b604051631e4fbdf760e01b815260006004820152602490fd5b600080fd5b634e487b7160e01b600052604160045260246000fdfe60806040526004361015610056575b361561001957600080fd5b6100253460045461153d565b6004556040513481527fabec8fa5eba11c7eac51663a2902a5a185098b166b62a23b16dc7a4e2c12de4b60203392a2005b6000803560e01c80630668c0d0146111995780631e0db4401461117b5780632a5c792a146110d3578063342f2df3146110b557806342086c7914611043578063469e906714610fa9578063617fba0414610e96578063634282af14610e5257806369496d9614610dd6578063715018a614610d8e57806371af310114610cf8578063735de9f714610cb35780638da5cb5b14610c8c57806394aed7d01461064957806396214735146105cb578063d5f39488146105a2578063dbb80e4214610584578063ec3889b514610408578063f2fde38b14610392578063fabb2c17146101ee5763ff6151c714610149575061000e565b346101db5760403660031901126101db578061016361122c565b61016b611242565b61017361143d565b6001600160a01b03918216835260026020526040832054821691610198831515611560565b823b156101e95760248492836040519586948593633a43a3f360e11b85521660048401525af180156101de576101cb5750f35b6101d490611292565b6101db5780f35b80fd5b6040513d84823e3d90fd5b505050fd5b50346101db5760403660031901126101db5761020861122c565b6001600160401b039060243582811161038e57610229903690600401611410565b919060018060a01b0380921693848652602092600284526040872090600282015416330361035a576004019084116103465761026f846102698354611258565b836114b9565b85601f85116001146102d057916102bf918560008051602061159d83398151915296959489916102c5575b508560011b906000198760031b1c19161790555b60405193838594855284019161147d565b0390a280f35b90508201353861029a565b81875283872090601f198616885b81811061032f5750916102bf93918760008051602061159d8339815191529897969410610315575b5050600185811b0190556102ae565b830135600019600388901b60f8161c191690553880610306565b9192866001819286890135815501940192016102de565b634e487b7160e01b86526041600452602486fd5b60405162461bcd60e51b815260048101859052600c60248201526b27b7363c9031b932b0ba37b960a11b6044820152606490fd5b8380fd5b50346101db5760203660031901126101db576103ac61122c565b6103b461143d565b6001600160a01b039081169081156103ef576000548260018060a01b0319821617600055166000805160206115bd833981519152600080a380f35b604051631e4fbdf760e01b815260048101849052602490fd5b50346101db576020806003193601126105805761042361122c565b9061042c61143d565b61043461150d565b600454918215610545576001600160a01b0316918215610510578360045561045e8160055461153d565b6005558380808084875af13d1561050b573d6104798161149e565b9061048760405192836112d6565b815285843d92013e5b156104d457907ffc7ad544ff6a06d6499925723d25b6fe70457a42939995b1d3d6f560fe33633391604051908152a260016000805160206115dd8339815191525580f35b60405162461bcd60e51b815260048101839052600f60248201526e115512081cd95b990819985a5b1959608a1b6044820152606490fd5b610490565b60405162461bcd60e51b815260048101839052600d60248201526c109859081c9958da5c1a595b9d609a1b6044820152606490fd5b60405162461bcd60e51b81526004810183905260136024820152724e6f7468696e6720746f20776974686472617760681b6044820152606490fd5b5080fd5b50346101db57806003193601126101db576020600354604051908152f35b50346101db57806003193601126101db576001546040516001600160a01b039091168152602090f35b50346101db5760203660031901126101db576105e561122c565b6105ed61143d565b600154906001600160a01b0390818316610616576001600160a01b031990921691161760015580f35b60405162461bcd60e51b815260206004820152600b60248201526a105b1c9958591e481cd95d60aa1b6044820152606490fd5b5060603660031901126101db576004356001600160401b03811161058057610675903690600401611410565b91906024356001600160401b038111610c8857610696903690600401611410565b90939092906044356001600160401b038111610c88576106ba903690600401611410565b90956106c461150d565b6001546001600160a01b0316958615610c50576040805163390274ed60e01b815260048101829052978890818881610716610703604483018c8f61147d565b828103600319016024840152888a61147d565b03925af1958615610c455785978697610bf8575b50604051610737816112bb565b6001600160a01b038981168252881660208201523360408201524260608201526107608561149e565b9061076e60405192836112d6565b85825236868c0111610ac857858b6020840137602086830181018990526080820192835260a0820189905260c082018990526001600160a01b038b81168a5260028083526040808c20855181549085166001600160a01b03199182161782559486015160018201805491861691871691909117905590850151918101805492909316919093161790556060820151600382015591518051906001600160401b038211610be45761082e826108256004870154611258565b600487016114b9565b602090601f8311600114610b725791806006949260c0948d92610b67575b50508160011b916000199060031b1c19161760048501555b60a081015160058501550151910155600354600160401b811015610b535780600161089292016003556113df565b81546001600160a01b038b811660039390931b92831b921b19161790558534610965575b50604098926108f394926108d86108e6938c519860a08a5260a08a019161147d565b91878303602089015261147d565b918483038986015261147d565b346060830152608082019290925233916001600160a01b0384811692908616917fee1be9e7a514e242eddd023cf4bd4446c71d28c7cf5c53c4085379ea89993033919081900390a460016000805160206115dd8339815191525582516001600160a01b03928316815291166020820152f35b604051636cb504a560e11b815260048101829052909650602081602481346001600160a01b038d165af1908115610b48578791610b16575b506040516370a0823160e01b81523060048201529096906020816024816001600160a01b038e165afa9081156101de578291610adf575b5080610a50575b506001600160a01b03898116825260026020526040822034600582015560060188905588163b156101db5760405163d8c76c1760e01b81523360048201528181602481836001600160a01b038e165af180156101de57610a3c575b506108b6565b610a468291611292565b6101db5780610a36565b60405163a9059cbb60e01b815233600482015260248101829052919750906020816044818b6001600160a01b038f165af18015610ad457610a94575b5095386109db565b6020813d602011610acc575b81610aad602093836112d6565b81010312610ac8575180151503610ac45738610a8c565b8680fd5b8780fd5b3d9150610aa0565b6040513d8a823e3d90fd5b90506020813d602011610b0e575b81610afa602093836112d6565b81010312610b095751386109d4565b600080fd5b3d9150610aed565b90506020813d602011610b40575b81610b31602093836112d6565b81010312610b0957513861099d565b3d9150610b24565b6040513d89823e3d90fd5b634e487b7160e01b87526041600452602487fd5b01519050388061084c565b90600485018b5260208b20918b5b601f1985168110610bcc5750926006949260019260c09583601f19811610610bb3575b505050811b016004850155610864565b015160001960f88460031b161c19169055388080610ba3565b91926020600181928685015181550194019201610b80565b634e487b7160e01b8a52604160045260248afd5b975095506040873d604011610c3d575b81610c15604093836112d6565b81010312610c3957610c326020610c2b89611469565b9801611469565b953861072a565b8480fd5b3d9150610c08565b6040513d87823e3d90fd5b60405162461bcd60e51b815260206004820152601060248201526f11195c1b1bde595c881b9bdd081cd95d60821b6044820152606490fd5b8280fd5b50346101db57806003193601126101db57546040516001600160a01b039091168152602090f35b50346101db57806003193601126101db576040517f00000000000000000000000000000000000000000000000000000000000000006001600160a01b03168152602090f35b50346101db5760603660031901126101db5780610d1361122c565b610d1b611242565b604435918215158093036101e957610d3161143d565b6001600160a01b039081168452600260205260408420548116610d55811515611560565b803b15610c39578492836044926040519687958694630a0daf8960e21b865216600485015260248401525af180156101de576101cb5750f35b50346101db57806003193601126101db57610da761143d565b600080546001600160a01b0319811682556001600160a01b03166000805160206115bd8339815191528280a380f35b50346101db5760403660031901126101db5780610df161122c565b610df961143d565b6001600160a01b0390811682526002602052604082205416610e1c811515611560565b803b15610e4f57818091602460405180948193639d0014b160e01b8352833560048401525af180156101de576101cb5750f35b50fd5b50346101db5760203660031901126101db57600435906003548210156101db576020610e7d836113df565b905460405160039290921b1c6001600160a01b03168152f35b50346101db57602080600319360112610580576040610eb361122c565b928060c08351610ec2816112bb565b82815282868201528285820152826060820152606060808201528260a0820152015260018060a01b038094168152600283522060405191610f02836112bb565b838254168352610f98846001840154168285019081528560028501541660408601908152866003860154916060880192835281610f41600489016112f9565b9460808a01958652600660058a01549960a08c019a8b5201549760c08b019889526040519b8c9b828d525116908b015251166040890152511660608701525160808601525160e060a086015261010085019061139f565b915160c08401525160e08301520390f35b50346101db5760203660031901126101db576001600160a01b039060409082610fd061122c565b168152600260205220818154169082600182015416926002820154166110346003830154611000600485016112f9565b906006600586015495015493604051978897885260208801526040870152606086015260e0608086015260e085019061139f565b9160a084015260c08301520390f35b50346101db5760203660031901126101db578061105e61122c565b61106661143d565b6001600160a01b0390811682526002602052604082205416611089811515611560565b803b15610e4f57818091600460405180948193630427934960e01b83525af180156101de576101cb5750f35b50346101db57806003193601126101db576020600454604051908152f35b50346101db57806003193601126101db57604051809160035490818352602080930180926003835284832090835b81811061115e57505050846111179103856112d6565b60405193838594850191818652518092526040850193925b82811061113e57505050500390f35b83516001600160a01b03168552869550938101939281019260010161112f565b82546001600160a01b031684529286019260019283019201611101565b50346101db57806003193601126101db576020600554604051908152f35b50346101db5760403660031901126101db576111b361122c565b816111bc611242565b916111c561143d565b6001600160a01b039081168252600260205260408220600101548116926111ed841515611560565b833b15610c8857602490836040519586948593630a17128360e31b85521660048401525af180156101de57611220575080f35b61122990611292565b80f35b600435906001600160a01b0382168203610b0957565b602435906001600160a01b0382168203610b0957565b90600182811c92168015611288575b602083101461127257565b634e487b7160e01b600052602260045260246000fd5b91607f1691611267565b6001600160401b0381116112a557604052565b634e487b7160e01b600052604160045260246000fd5b60e081019081106001600160401b038211176112a557604052565b601f909101601f19168101906001600160401b038211908210176112a557604052565b906040519182600082549261130d84611258565b90818452600194858116908160001461137c5750600114611339575b5050611337925003836112d6565b565b9093915060005260209081600020936000915b81831061136457505061133793508201013880611329565b8554888401850152948501948794509183019161134c565b91505061133794506020925060ff191682840152151560051b8201013880611329565b919082519283825260005b8481106113cb575050826000602080949584010152601f8019910116010190565b6020818301810151848301820152016113aa565b6003548110156113fa57600360005260206000200190600090565b634e487b7160e01b600052603260045260246000fd5b9181601f84011215610b09578235916001600160401b038311610b095760208381860195010111610b0957565b6000546001600160a01b0316330361145157565b60405163118cdaa760e01b8152336004820152602490fd5b51906001600160a01b0382168203610b0957565b908060209392818452848401376000828201840152601f01601f1916010190565b6001600160401b0381116112a557601f01601f191660200190565b90601f81116114c757505050565b600091825260208220906020601f850160051c83019410611503575b601f0160051c01915b8281106114f857505050565b8181556001016114ec565b90925082906114e3565b6000805160206115dd833981519152600281541461152b5760029055565b604051633ee5aeb560e01b8152600490fd5b9190820180921161154a57565b634e487b7160e01b600052601160045260246000fd5b1561156757565b60405162461bcd60e51b815260206004820152600d60248201526c2ab735b737bbb7103a37b5b2b760991b6044820152606490fdfe2013570c343af8ab14a9778150e381a0fda34ed6368127a95fd5e7210cbec5bf8be0079c531659141344cd1fd0a4f28419497f9722a3daafe3b4186f6b6457e09b779b17422d0df92223018b32b4d1fa46e071723d6817e2486d003becc55f00a2646970667358221220078d33075503b12e047b57c131a10f34ecf46530b0a5b36eef31f372fc98836864736f6c63430008140033","opcodes":"PUSH1 0xA0 CALLVALUE PUSH2 0x122 JUMPI PUSH1 0x1F PUSH2 0x1770 CODESIZE DUP2 SWAP1 SUB SWAP2 DUP3 ADD PUSH1 0x1F NOT AND DUP4 ADD SWAP2 PUSH1 0x1 PUSH1 0x1 PUSH1 0x40 SHL SUB DUP4 GT DUP5 DUP5 LT OR PUSH2 0x127 JUMPI DUP1 DUP5 SWAP3 PUSH1 0x20 SWAP5 PUSH1 0x40 MSTORE DUP4 CODECOPY DUP2 ADD SUB SLT PUSH2 0x122 JUMPI MLOAD PUSH1 0x1 PUSH1 0x1 PUSH1 0xA0 SHL SUB DUP1 DUP3 AND DUP1 DUP4 SUB PUSH2 0x122 JUMPI CALLER ISZERO PUSH2 0x109 JUMPI PUSH1 0x0 SLOAD CALLER PUSH1 0x1 DUP1 PUSH1 0xA0 SHL SUB NOT DUP3 AND OR PUSH1 0x0 SSTORE PUSH1 0x40 MLOAD SWAP3 CALLER SWAP2 AND PUSH32 0x8BE0079C531659141344CD1FD0A4F28419497F9722A3DAAFE3B4186F6B6457E0 PUSH1 0x0 DUP1 LOG3 PUSH1 0x1 PUSH32 0x9B779B17422D0DF92223018B32B4D1FA46E071723D6817E2486D003BECC55F00 SSTORE ISZERO PUSH2 0xDA JUMPI POP PUSH1 0x80 MSTORE PUSH1 0x40 MLOAD PUSH2 0x1632 SWAP1 DUP2 PUSH2 0x13E DUP3 CODECOPY PUSH1 0x80 MLOAD DUP2 PUSH2 0xCC9 ADD MSTORE RETURN JUMPDEST PUSH3 0x461BCD PUSH1 0xE5 SHL DUP2 MSTORE PUSH1 0x20 PUSH1 0x4 DUP3 ADD MSTORE PUSH1 0xA PUSH1 0x24 DUP3 ADD MSTORE PUSH10 0x2130B2103937BABA32B9 PUSH1 0xB1 SHL PUSH1 0x44 DUP3 ADD MSTORE PUSH1 0x64 SWAP1 REVERT JUMPDEST PUSH1 0x40 MLOAD PUSH4 0x1E4FBDF7 PUSH1 0xE0 SHL DUP2 MSTORE PUSH1 0x0 PUSH1 0x4 DUP3 ADD MSTORE PUSH1 0x24 SWAP1 REVERT JUMPDEST PUSH1 0x0 DUP1 REVERT JUMPDEST PUSH4 0x4E487B71 PUSH1 0xE0 SHL PUSH1 0x0 MSTORE PUSH1 0x41 PUSH1 0x4 MSTORE PUSH1 0x24 PUSH1 0x0 REVERT INVALID PUSH1 0x80 PUSH1 0x40 MSTORE PUSH1 0x4 CALLDATASIZE LT ISZERO PUSH2 0x56 JUMPI JUMPDEST CALLDATASIZE ISZERO PUSH2 0x19 JUMPI PUSH1 0x0 DUP1 REVERT JUMPDEST PUSH2 0x25 CALLVALUE PUSH1 0x4 SLOAD PUSH2 0x153D JUMP JUMPDEST PUSH1 0x4 SSTORE PUSH1 0x40 MLOAD CALLVALUE DUP2 MSTORE PUSH32 0xABEC8FA5EBA11C7EAC51663A2902A5A185098B166B62A23B16DC7A4E2C12DE4B PUSH1 0x20 CALLER SWAP3 LOG2 STOP JUMPDEST PUSH1 0x0 DUP1 CALLDATALOAD PUSH1 0xE0 SHR DUP1 PUSH4 0x668C0D0 EQ PUSH2 0x1199 JUMPI DUP1 PUSH4 0x1E0DB440 EQ PUSH2 0x117B JUMPI DUP1 PUSH4 0x2A5C792A EQ PUSH2 0x10D3 JUMPI DUP1 PUSH4 0x342F2DF3 EQ PUSH2 0x10B5 JUMPI DUP1 PUSH4 0x42086C79 EQ PUSH2 0x1043 JUMPI DUP1 PUSH4 0x469E9067 EQ PUSH2 0xFA9 JUMPI DUP1 PUSH4 0x617FBA04 EQ PUSH2 0xE96 JUMPI DUP1 PUSH4 0x634282AF EQ PUSH2 0xE52 JUMPI DUP1 PUSH4 0x69496D96 EQ PUSH2 0xDD6 JUMPI DUP1 PUSH4 0x715018A6 EQ PUSH2 0xD8E JUMPI DUP1 PUSH4 0x71AF3101 EQ PUSH2 0xCF8 JUMPI DUP1 PUSH4 0x735DE9F7 EQ PUSH2 0xCB3 JUMPI DUP1 PUSH4 0x8DA5CB5B EQ PUSH2 0xC8C JUMPI DUP1 PUSH4 0x94AED7D0 EQ PUSH2 0x649 JUMPI DUP1 PUSH4 0x96214735 EQ PUSH2 0x5CB JUMPI DUP1 PUSH4 0xD5F39488 EQ PUSH2 0x5A2 JUMPI DUP1 PUSH4 0xDBB80E42 EQ PUSH2 0x584 JUMPI DUP1 PUSH4 0xEC3889B5 EQ PUSH2 0x408 JUMPI DUP1 PUSH4 0xF2FDE38B EQ PUSH2 0x392 JUMPI DUP1 PUSH4 0xFABB2C17 EQ PUSH2 0x1EE JUMPI PUSH4 0xFF6151C7 EQ PUSH2 0x149 JUMPI POP PUSH2 0xE JUMP JUMPDEST CALLVALUE PUSH2 0x1DB JUMPI PUSH1 0x40 CALLDATASIZE PUSH1 0x3 NOT ADD SLT PUSH2 0x1DB JUMPI DUP1 PUSH2 0x163 PUSH2 0x122C JUMP JUMPDEST PUSH2 0x16B PUSH2 0x1242 JUMP JUMPDEST PUSH2 0x173 PUSH2 0x143D JUMP JUMPDEST PUSH1 0x1 PUSH1 0x1 PUSH1 0xA0 SHL SUB SWAP2 DUP3 AND DUP4 MSTORE PUSH1 0x2 PUSH1 0x20 MSTORE PUSH1 0x40 DUP4 KECCAK256 SLOAD DUP3 AND SWAP2 PUSH2 0x198 DUP4 ISZERO ISZERO PUSH2 0x1560 JUMP JUMPDEST DUP3 EXTCODESIZE ISZERO PUSH2 0x1E9 JUMPI PUSH1 0x24 DUP5 SWAP3 DUP4 PUSH1 0x40 MLOAD SWAP6 DUP7 SWAP5 DUP6 SWAP4 PUSH4 0x3A43A3F3 PUSH1 0xE1 SHL DUP6 MSTORE AND PUSH1 0x4 DUP5 ADD MSTORE GAS CALL DUP1 ISZERO PUSH2 0x1DE JUMPI PUSH2 0x1CB JUMPI POP RETURN JUMPDEST PUSH2 0x1D4 SWAP1 PUSH2 0x1292 JUMP JUMPDEST PUSH2 0x1DB JUMPI DUP1 RETURN JUMPDEST DUP1 REVERT JUMPDEST PUSH1 0x40 MLOAD RETURNDATASIZE DUP5 DUP3 RETURNDATACOPY RETURNDATASIZE SWAP1 REVERT JUMPDEST POP POP POP REVERT JUMPDEST POP CALLVALUE PUSH2 0x1DB JUMPI PUSH1 0x40 CALLDATASIZE PUSH1 0x3 NOT ADD SLT PUSH2 0x1DB JUMPI PUSH2 0x208 PUSH2 0x122C JUMP JUMPDEST PUSH1 0x1 PUSH1 0x1 PUSH1 0x40 SHL SUB SWAP1 PUSH1 0x24 CALLDATALOAD DUP3 DUP2 GT PUSH2 0x38E JUMPI PUSH2 0x229 SWAP1 CALLDATASIZE SWAP1 PUSH1 0x4 ADD PUSH2 0x1410 JUMP JUMPDEST SWAP2 SWAP1 PUSH1 0x1 DUP1 PUSH1 0xA0 SHL SUB DUP1 SWAP3 AND SWAP4 DUP5 DUP7 MSTORE PUSH1 0x20 SWAP3 PUSH1 0x2 DUP5 MSTORE PUSH1 0x40 DUP8 KECCAK256 SWAP1 PUSH1 0x2 DUP3 ADD SLOAD AND CALLER SUB PUSH2 0x35A JUMPI PUSH1 0x4 ADD SWAP1 DUP5 GT PUSH2 0x346 JUMPI PUSH2 0x26F DUP5 PUSH2 0x269 DUP4 SLOAD PUSH2 0x1258 JUMP JUMPDEST DUP4 PUSH2 0x14B9 JUMP JUMPDEST DUP6 PUSH1 0x1F DUP6 GT PUSH1 0x1 EQ PUSH2 0x2D0 JUMPI SWAP2 PUSH2 0x2BF SWAP2 DUP6 PUSH1 0x0 DUP1 MLOAD PUSH1 0x20 PUSH2 0x159D DUP4 CODECOPY DUP2 MLOAD SWAP2 MSTORE SWAP7 SWAP6 SWAP5 DUP10 SWAP2 PUSH2 0x2C5 JUMPI JUMPDEST POP DUP6 PUSH1 0x1 SHL SWAP1 PUSH1 0x0 NOT DUP8 PUSH1 0x3 SHL SHR NOT AND OR SWAP1 SSTORE JUMPDEST PUSH1 0x40 MLOAD SWAP4 DUP4 DUP6 SWAP5 DUP6 MSTORE DUP5 ADD SWAP2 PUSH2 0x147D JUMP JUMPDEST SUB SWAP1 LOG2 DUP1 RETURN JUMPDEST SWAP1 POP DUP3 ADD CALLDATALOAD CODESIZE PUSH2 0x29A JUMP JUMPDEST DUP2 DUP8 MSTORE DUP4 DUP8 KECCAK256 SWAP1 PUSH1 0x1F NOT DUP7 AND DUP9 JUMPDEST DUP2 DUP2 LT PUSH2 0x32F JUMPI POP SWAP2 PUSH2 0x2BF SWAP4 SWAP2 DUP8 PUSH1 0x0 DUP1 MLOAD PUSH1 0x20 PUSH2 0x159D DUP4 CODECOPY DUP2 MLOAD SWAP2 MSTORE SWAP9 SWAP8 SWAP7 SWAP5 LT PUSH2 0x315 JUMPI JUMPDEST POP POP PUSH1 0x1 DUP6 DUP2 SHL ADD SWAP1 SSTORE PUSH2 0x2AE JUMP JUMPDEST DUP4 ADD CALLDATALOAD PUSH1 0x0 NOT PUSH1 0x3 DUP9 SWAP1 SHL PUSH1 0xF8 AND SHR NOT AND SWAP1 SSTORE CODESIZE DUP1 PUSH2 0x306 JUMP JUMPDEST SWAP2 SWAP3 DUP7 PUSH1 0x1 DUP2 SWAP3 DUP7 DUP10 ADD CALLDATALOAD DUP2 SSTORE ADD SWAP5 ADD SWAP3 ADD PUSH2 0x2DE JUMP JUMPDEST PUSH4 0x4E487B71 PUSH1 0xE0 SHL DUP7 MSTORE PUSH1 0x41 PUSH1 0x4 MSTORE PUSH1 0x24 DUP7 REVERT JUMPDEST PUSH1 0x40 MLOAD PUSH3 0x461BCD PUSH1 0xE5 SHL DUP2 MSTORE PUSH1 0x4 DUP2 ADD DUP6 SWAP1 MSTORE PUSH1 0xC PUSH1 0x24 DUP3 ADD MSTORE PUSH12 0x27B7363C9031B932B0BA37B9 PUSH1 0xA1 SHL PUSH1 0x44 DUP3 ADD MSTORE PUSH1 0x64 SWAP1 REVERT JUMPDEST DUP4 DUP1 REVERT JUMPDEST POP CALLVALUE PUSH2 0x1DB JUMPI PUSH1 0x20 CALLDATASIZE PUSH1 0x3 NOT ADD SLT PUSH2 0x1DB JUMPI PUSH2 0x3AC PUSH2 0x122C JUMP JUMPDEST PUSH2 0x3B4 PUSH2 0x143D JUMP JUMPDEST PUSH1 0x1 PUSH1 0x1 PUSH1 0xA0 SHL SUB SWAP1 DUP2 AND SWAP1 DUP2 ISZERO PUSH2 0x3EF JUMPI PUSH1 0x0 SLOAD DUP3 PUSH1 0x1 DUP1 PUSH1 0xA0 SHL SUB NOT DUP3 AND OR PUSH1 0x0 SSTORE AND PUSH1 0x0 DUP1 MLOAD PUSH1 0x20 PUSH2 0x15BD DUP4 CODECOPY DUP2 MLOAD SWAP2 MSTORE PUSH1 0x0 DUP1 LOG3 DUP1 RETURN JUMPDEST PUSH1 0x40 MLOAD PUSH4 0x1E4FBDF7 PUSH1 0xE0 SHL DUP2 MSTORE PUSH1 0x4 DUP2 ADD DUP5 SWAP1 MSTORE PUSH1 0x24 SWAP1 REVERT JUMPDEST POP CALLVALUE PUSH2 0x1DB JUMPI PUSH1 0x20 DUP1 PUSH1 0x3 NOT CALLDATASIZE ADD SLT PUSH2 0x580 JUMPI PUSH2 0x423 PUSH2 0x122C JUMP JUMPDEST SWAP1 PUSH2 0x42C PUSH2 0x143D JUMP JUMPDEST PUSH2 0x434 PUSH2 0x150D JUMP JUMPDEST PUSH1 0x4 SLOAD SWAP2 DUP3 ISZERO PUSH2 0x545 JUMPI PUSH1 0x1 PUSH1 0x1 PUSH1 0xA0 SHL SUB AND SWAP2 DUP3 ISZERO PUSH2 0x510 JUMPI DUP4 PUSH1 0x4 SSTORE PUSH2 0x45E DUP2 PUSH1 0x5 SLOAD PUSH2 0x153D JUMP JUMPDEST PUSH1 0x5 SSTORE DUP4 DUP1 DUP1 DUP1 DUP5 DUP8 GAS CALL RETURNDATASIZE ISZERO PUSH2 0x50B JUMPI RETURNDATASIZE PUSH2 0x479 DUP2 PUSH2 0x149E JUMP JUMPDEST SWAP1 PUSH2 0x487 PUSH1 0x40 MLOAD SWAP3 DUP4 PUSH2 0x12D6 JUMP JUMPDEST DUP2 MSTORE DUP6 DUP5 RETURNDATASIZE SWAP3 ADD RETURNDATACOPY JUMPDEST ISZERO PUSH2 0x4D4 JUMPI SWAP1 PUSH32 0xFC7AD544FF6A06D6499925723D25B6FE70457A42939995B1D3D6F560FE336333 SWAP2 PUSH1 0x40 MLOAD SWAP1 DUP2 MSTORE LOG2 PUSH1 0x1 PUSH1 0x0 DUP1 MLOAD PUSH1 0x20 PUSH2 0x15DD DUP4 CODECOPY DUP2 MLOAD SWAP2 MSTORE SSTORE DUP1 RETURN JUMPDEST PUSH1 0x40 MLOAD PUSH3 0x461BCD PUSH1 0xE5 SHL DUP2 MSTORE PUSH1 0x4 DUP2 ADD DUP4 SWAP1 MSTORE PUSH1 0xF PUSH1 0x24 DUP3 ADD MSTORE PUSH15 0x115512081CD95B990819985A5B1959 PUSH1 0x8A SHL PUSH1 0x44 DUP3 ADD MSTORE PUSH1 0x64 SWAP1 REVERT JUMPDEST PUSH2 0x490 JUMP JUMPDEST PUSH1 0x40 MLOAD PUSH3 0x461BCD PUSH1 0xE5 SHL DUP2 MSTORE PUSH1 0x4 DUP2 ADD DUP4 SWAP1 MSTORE PUSH1 0xD PUSH1 0x24 DUP3 ADD MSTORE PUSH13 0x109859081C9958DA5C1A595B9D PUSH1 0x9A SHL PUSH1 0x44 DUP3 ADD MSTORE PUSH1 0x64 SWAP1 REVERT JUMPDEST PUSH1 0x40 MLOAD PUSH3 0x461BCD PUSH1 0xE5 SHL DUP2 MSTORE PUSH1 0x4 DUP2 ADD DUP4 SWAP1 MSTORE PUSH1 0x13 PUSH1 0x24 DUP3 ADD MSTORE PUSH19 0x4E6F7468696E6720746F207769746864726177 PUSH1 0x68 SHL PUSH1 0x44 DUP3 ADD MSTORE PUSH1 0x64 SWAP1 REVERT JUMPDEST POP DUP1 REVERT JUMPDEST POP CALLVALUE PUSH2 0x1DB JUMPI DUP1 PUSH1 0x3 NOT CALLDATASIZE ADD SLT PUSH2 0x1DB JUMPI PUSH1 0x20 PUSH1 0x3 SLOAD PUSH1 0x40 MLOAD SWAP1 DUP2 MSTORE RETURN JUMPDEST POP CALLVALUE PUSH2 0x1DB JUMPI DUP1 PUSH1 0x3 NOT CALLDATASIZE ADD SLT PUSH2 0x1DB JUMPI PUSH1 0x1 SLOAD PUSH1 0x40 MLOAD PUSH1 0x1 PUSH1 0x1 PUSH1 0xA0 SHL SUB SWAP1 SWAP2 AND DUP2 MSTORE PUSH1 0x20 SWAP1 RETURN JUMPDEST POP CALLVALUE PUSH2 0x1DB JUMPI PUSH1 0x20 CALLDATASIZE PUSH1 0x3 NOT ADD SLT PUSH2 0x1DB JUMPI PUSH2 0x5E5 PUSH2 0x122C JUMP JUMPDEST PUSH2 0x5ED PUSH2 0x143D JUMP JUMPDEST PUSH1 0x1 SLOAD SWAP1 PUSH1 0x1 PUSH1 0x1 PUSH1 0xA0 SHL SUB SWAP1 DUP2 DUP4 AND PUSH2 0x616 JUMPI PUSH1 0x1 PUSH1 0x1 PUSH1 0xA0 SHL SUB NOT SWAP1 SWAP3 AND SWAP2 AND OR PUSH1 0x1 SSTORE DUP1 RETURN JUMPDEST PUSH1 0x40 MLOAD PUSH3 0x461BCD PUSH1 0xE5 SHL DUP2 MSTORE PUSH1 0x20 PUSH1 0x4 DUP3 ADD MSTORE PUSH1 0xB PUSH1 0x24 DUP3 ADD MSTORE PUSH11 0x105B1C9958591E481CD95D PUSH1 0xAA SHL PUSH1 0x44 DUP3 ADD MSTORE PUSH1 0x64 SWAP1 REVERT JUMPDEST POP PUSH1 0x60 CALLDATASIZE PUSH1 0x3 NOT ADD SLT PUSH2 0x1DB JUMPI PUSH1 0x4 CALLDATALOAD PUSH1 0x1 PUSH1 0x1 PUSH1 0x40 SHL SUB DUP2 GT PUSH2 0x580 JUMPI PUSH2 0x675 SWAP1 CALLDATASIZE SWAP1 PUSH1 0x4 ADD PUSH2 0x1410 JUMP JUMPDEST SWAP2 SWAP1 PUSH1 0x24 CALLDATALOAD PUSH1 0x1 PUSH1 0x1 PUSH1 0x40 SHL SUB DUP2 GT PUSH2 0xC88 JUMPI PUSH2 0x696 SWAP1 CALLDATASIZE SWAP1 PUSH1 0x4 ADD PUSH2 0x1410 JUMP JUMPDEST SWAP1 SWAP4 SWAP1 SWAP3 SWAP1 PUSH1 0x44 CALLDATALOAD PUSH1 0x1 PUSH1 0x1 PUSH1 0x40 SHL SUB DUP2 GT PUSH2 0xC88 JUMPI PUSH2 0x6BA SWAP1 CALLDATASIZE SWAP1 PUSH1 0x4 ADD PUSH2 0x1410 JUMP JUMPDEST SWAP1 SWAP6 PUSH2 0x6C4 PUSH2 0x150D JUMP JUMPDEST PUSH1 0x1 SLOAD PUSH1 0x1 PUSH1 0x1 PUSH1 0xA0 SHL SUB AND SWAP6 DUP7 ISZERO PUSH2 0xC50 JUMPI PUSH1 0x40 DUP1 MLOAD PUSH4 0x390274ED PUSH1 0xE0 SHL DUP2 MSTORE PUSH1 0x4 DUP2 ADD DUP3 SWAP1 MSTORE SWAP8 DUP9 SWAP1 DUP2 DUP9 DUP2 PUSH2 0x716 PUSH2 0x703 PUSH1 0x44 DUP4 ADD DUP13 DUP16 PUSH2 0x147D JUMP JUMPDEST DUP3 DUP2 SUB PUSH1 0x3 NOT ADD PUSH1 0x24 DUP5 ADD MSTORE DUP9 DUP11 PUSH2 0x147D JUMP JUMPDEST SUB SWAP3 GAS CALL SWAP6 DUP7 ISZERO PUSH2 0xC45 JUMPI DUP6 SWAP8 DUP7 SWAP8 PUSH2 0xBF8 JUMPI JUMPDEST POP PUSH1 0x40 MLOAD PUSH2 0x737 DUP2 PUSH2 0x12BB JUMP JUMPDEST PUSH1 0x1 PUSH1 0x1 PUSH1 0xA0 SHL SUB DUP10 DUP2 AND DUP3 MSTORE DUP9 AND PUSH1 0x20 DUP3 ADD MSTORE CALLER PUSH1 0x40 DUP3 ADD MSTORE TIMESTAMP PUSH1 0x60 DUP3 ADD MSTORE PUSH2 0x760 DUP6 PUSH2 0x149E JUMP JUMPDEST SWAP1 PUSH2 0x76E PUSH1 0x40 MLOAD SWAP3 DUP4 PUSH2 0x12D6 JUMP JUMPDEST DUP6 DUP3 MSTORE CALLDATASIZE DUP7 DUP13 ADD GT PUSH2 0xAC8 JUMPI DUP6 DUP12 PUSH1 0x20 DUP5 ADD CALLDATACOPY PUSH1 0x20 DUP7 DUP4 ADD DUP2 ADD DUP10 SWAP1 MSTORE PUSH1 0x80 DUP3 ADD SWAP3 DUP4 MSTORE PUSH1 0xA0 DUP3 ADD DUP10 SWAP1 MSTORE PUSH1 0xC0 DUP3 ADD DUP10 SWAP1 MSTORE PUSH1 0x1 PUSH1 0x1 PUSH1 0xA0 SHL SUB DUP12 DUP2 AND DUP11 MSTORE PUSH1 0x2 DUP1 DUP4 MSTORE PUSH1 0x40 DUP1 DUP13 KECCAK256 DUP6 MLOAD DUP2 SLOAD SWAP1 DUP6 AND PUSH1 0x1 PUSH1 0x1 PUSH1 0xA0 SHL SUB NOT SWAP2 DUP3 AND OR DUP3 SSTORE SWAP5 DUP7 ADD MLOAD PUSH1 0x1 DUP3 ADD DUP1 SLOAD SWAP2 DUP7 AND SWAP2 DUP8 AND SWAP2 SWAP1 SWAP2 OR SWAP1 SSTORE SWAP1 DUP6 ADD MLOAD SWAP2 DUP2 ADD DUP1 SLOAD SWAP3 SWAP1 SWAP4 AND SWAP2 SWAP1 SWAP4 AND OR SWAP1 SSTORE PUSH1 0x60 DUP3 ADD MLOAD PUSH1 0x3 DUP3 ADD SSTORE SWAP2 MLOAD DUP1 MLOAD SWAP1 PUSH1 0x1 PUSH1 0x1 PUSH1 0x40 SHL SUB DUP3 GT PUSH2 0xBE4 JUMPI PUSH2 0x82E DUP3 PUSH2 0x825 PUSH1 0x4 DUP8 ADD SLOAD PUSH2 0x1258 JUMP JUMPDEST PUSH1 0x4 DUP8 ADD PUSH2 0x14B9 JUMP JUMPDEST PUSH1 0x20 SWAP1 PUSH1 0x1F DUP4 GT PUSH1 0x1 EQ PUSH2 0xB72 JUMPI SWAP2 DUP1 PUSH1 0x6 SWAP5 SWAP3 PUSH1 0xC0 SWAP5 DUP14 SWAP3 PUSH2 0xB67 JUMPI JUMPDEST POP POP DUP2 PUSH1 0x1 SHL SWAP2 PUSH1 0x0 NOT SWAP1 PUSH1 0x3 SHL SHR NOT AND OR PUSH1 0x4 DUP6 ADD SSTORE JUMPDEST PUSH1 0xA0 DUP2 ADD MLOAD PUSH1 0x5 DUP6 ADD SSTORE ADD MLOAD SWAP2 ADD SSTORE PUSH1 0x3 SLOAD PUSH1 0x1 PUSH1 0x40 SHL DUP2 LT ISZERO PUSH2 0xB53 JUMPI DUP1 PUSH1 0x1 PUSH2 0x892 SWAP3 ADD PUSH1 0x3 SSTORE PUSH2 0x13DF JUMP JUMPDEST DUP2 SLOAD PUSH1 0x1 PUSH1 0x1 PUSH1 0xA0 SHL SUB DUP12 DUP2 AND PUSH1 0x3 SWAP4 SWAP1 SWAP4 SHL SWAP3 DUP4 SHL SWAP3 SHL NOT AND OR SWAP1 SSTORE DUP6 CALLVALUE PUSH2 0x965 JUMPI JUMPDEST POP PUSH1 0x40 SWAP9 SWAP3 PUSH2 0x8F3 SWAP5 SWAP3 PUSH2 0x8D8 PUSH2 0x8E6 SWAP4 DUP13 MLOAD SWAP9 PUSH1 0xA0 DUP11 MSTORE PUSH1 0xA0 DUP11 ADD SWAP2 PUSH2 0x147D JUMP JUMPDEST SWAP2 DUP8 DUP4 SUB PUSH1 0x20 DUP10 ADD MSTORE PUSH2 0x147D JUMP JUMPDEST SWAP2 DUP5 DUP4 SUB DUP10 DUP7 ADD MSTORE PUSH2 0x147D JUMP JUMPDEST CALLVALUE PUSH1 0x60 DUP4 ADD MSTORE PUSH1 0x80 DUP3 ADD SWAP3 SWAP1 SWAP3 MSTORE CALLER SWAP2 PUSH1 0x1 PUSH1 0x1 PUSH1 0xA0 SHL SUB DUP5 DUP2 AND SWAP3 SWAP1 DUP7 AND SWAP2 PUSH32 0xEE1BE9E7A514E242EDDD023CF4BD4446C71D28C7CF5C53C4085379EA89993033 SWAP2 SWAP1 DUP2 SWAP1 SUB SWAP1 LOG4 PUSH1 0x1 PUSH1 0x0 DUP1 MLOAD PUSH1 0x20 PUSH2 0x15DD DUP4 CODECOPY DUP2 MLOAD SWAP2 MSTORE SSTORE DUP3 MLOAD PUSH1 0x1 PUSH1 0x1 PUSH1 0xA0 SHL SUB SWAP3 DUP4 AND DUP2 MSTORE SWAP2 AND PUSH1 0x20 DUP3 ADD MSTORE RETURN JUMPDEST PUSH1 0x40 MLOAD PUSH4 0x6CB504A5 PUSH1 0xE1 SHL DUP2 MSTORE PUSH1 0x4 DUP2 ADD DUP3 SWAP1 MSTORE SWAP1 SWAP7 POP PUSH1 0x20 DUP2 PUSH1 0x24 DUP2 CALLVALUE PUSH1 0x1 PUSH1 0x1 PUSH1 0xA0 SHL SUB DUP14 AND GAS CALL SWAP1 DUP2 ISZERO PUSH2 0xB48 JUMPI DUP8 SWAP2 PUSH2 0xB16 JUMPI JUMPDEST POP PUSH1 0x40 MLOAD PUSH4 0x70A08231 PUSH1 0xE0 SHL DUP2 MSTORE ADDRESS PUSH1 0x4 DUP3 ADD MSTORE SWAP1 SWAP7 SWAP1 PUSH1 0x20 DUP2 PUSH1 0x24 DUP2 PUSH1 0x1 PUSH1 0x1 PUSH1 0xA0 SHL SUB DUP15 AND GAS STATICCALL SWAP1 DUP2 ISZERO PUSH2 0x1DE JUMPI DUP3 SWAP2 PUSH2 0xADF JUMPI JUMPDEST POP DUP1 PUSH2 0xA50 JUMPI JUMPDEST POP PUSH1 0x1 PUSH1 0x1 PUSH1 0xA0 SHL SUB DUP10 DUP2 AND DUP3 MSTORE PUSH1 0x2 PUSH1 0x20 MSTORE PUSH1 0x40 DUP3 KECCAK256 CALLVALUE PUSH1 0x5 DUP3 ADD SSTORE PUSH1 0x6 ADD DUP9 SWAP1 SSTORE DUP9 AND EXTCODESIZE ISZERO PUSH2 0x1DB JUMPI PUSH1 0x40 MLOAD PUSH4 0xD8C76C17 PUSH1 0xE0 SHL DUP2 MSTORE CALLER PUSH1 0x4 DUP3 ADD MSTORE DUP2 DUP2 PUSH1 0x24 DUP2 DUP4 PUSH1 0x1 PUSH1 0x1 PUSH1 0xA0 SHL SUB DUP15 AND GAS CALL DUP1 ISZERO PUSH2 0x1DE JUMPI PUSH2 0xA3C JUMPI JUMPDEST POP PUSH2 0x8B6 JUMP JUMPDEST PUSH2 0xA46 DUP3 SWAP2 PUSH2 0x1292 JUMP JUMPDEST PUSH2 0x1DB JUMPI DUP1 PUSH2 0xA36 JUMP JUMPDEST PUSH1 0x40 MLOAD PUSH4 0xA9059CBB PUSH1 0xE0 SHL DUP2 MSTORE CALLER PUSH1 0x4 DUP3 ADD MSTORE PUSH1 0x24 DUP2 ADD DUP3 SWAP1 MSTORE SWAP2 SWAP8 POP SWAP1 PUSH1 0x20 DUP2 PUSH1 0x44 DUP2 DUP12 PUSH1 0x1 PUSH1 0x1 PUSH1 0xA0 SHL SUB DUP16 AND GAS CALL DUP1 ISZERO PUSH2 0xAD4 JUMPI PUSH2 0xA94 JUMPI JUMPDEST POP SWAP6 CODESIZE PUSH2 0x9DB JUMP JUMPDEST PUSH1 0x20 DUP2 RETURNDATASIZE PUSH1 0x20 GT PUSH2 0xACC JUMPI JUMPDEST DUP2 PUSH2 0xAAD PUSH1 0x20 SWAP4 DUP4 PUSH2 0x12D6 JUMP JUMPDEST DUP2 ADD SUB SLT PUSH2 0xAC8 JUMPI MLOAD DUP1 ISZERO ISZERO SUB PUSH2 0xAC4 JUMPI CODESIZE PUSH2 0xA8C JUMP JUMPDEST DUP7 DUP1 REVERT JUMPDEST DUP8 DUP1 REVERT JUMPDEST RETURNDATASIZE SWAP2 POP PUSH2 0xAA0 JUMP JUMPDEST PUSH1 0x40 MLOAD RETURNDATASIZE DUP11 DUP3 RETURNDATACOPY RETURNDATASIZE SWAP1 REVERT JUMPDEST SWAP1 POP PUSH1 0x20 DUP2 RETURNDATASIZE PUSH1 0x20 GT PUSH2 0xB0E JUMPI JUMPDEST DUP2 PUSH2 0xAFA PUSH1 0x20 SWAP4 DUP4 PUSH2 0x12D6 JUMP JUMPDEST DUP2 ADD SUB SLT PUSH2 0xB09 JUMPI MLOAD CODESIZE PUSH2 0x9D4 JUMP JUMPDEST PUSH1 0x0 DUP1 REVERT JUMPDEST RETURNDATASIZE SWAP2 POP PUSH2 0xAED JUMP JUMPDEST SWAP1 POP PUSH1 0x20 DUP2 RETURNDATASIZE PUSH1 0x20 GT PUSH2 0xB40 JUMPI JUMPDEST DUP2 PUSH2 0xB31 PUSH1 0x20 SWAP4 DUP4 PUSH2 0x12D6 JUMP JUMPDEST DUP2 ADD SUB SLT PUSH2 0xB09 JUMPI MLOAD CODESIZE PUSH2 0x99D JUMP JUMPDEST RETURNDATASIZE SWAP2 POP PUSH2 0xB24 JUMP JUMPDEST PUSH1 0x40 MLOAD RETURNDATASIZE DUP10 DUP3 RETURNDATACOPY RETURNDATASIZE SWAP1 REVERT JUMPDEST PUSH4 0x4E487B71 PUSH1 0xE0 SHL DUP8 MSTORE PUSH1 0x41 PUSH1 0x4 MSTORE PUSH1 0x24 DUP8 REVERT JUMPDEST ADD MLOAD SWAP1 POP CODESIZE DUP1 PUSH2 0x84C JUMP JUMPDEST SWAP1 PUSH1 0x4 DUP6 ADD DUP12 MSTORE PUSH1 0x20 DUP12 KECCAK256 SWAP2 DUP12 JUMPDEST PUSH1 0x1F NOT DUP6 AND DUP2 LT PUSH2 0xBCC JUMPI POP SWAP3 PUSH1 0x6 SWAP5 SWAP3 PUSH1 0x1 SWAP3 PUSH1 0xC0 SWAP6 DUP4 PUSH1 0x1F NOT DUP2 AND LT PUSH2 0xBB3 JUMPI JUMPDEST POP POP POP DUP2 SHL ADD PUSH1 0x4 DUP6 ADD SSTORE PUSH2 0x864 JUMP JUMPDEST ADD MLOAD PUSH1 0x0 NOT PUSH1 0xF8 DUP5 PUSH1 0x3 SHL AND SHR NOT AND SWAP1 SSTORE CODESIZE DUP1 DUP1 PUSH2 0xBA3 JUMP JUMPDEST SWAP2 SWAP3 PUSH1 0x20 PUSH1 0x1 DUP2 SWAP3 DUP7 DUP6 ADD MLOAD DUP2 SSTORE ADD SWAP5 ADD SWAP3 ADD PUSH2 0xB80 JUMP JUMPDEST PUSH4 0x4E487B71 PUSH1 0xE0 SHL DUP11 MSTORE PUSH1 0x41 PUSH1 0x4 MSTORE PUSH1 0x24 DUP11 REVERT JUMPDEST SWAP8 POP SWAP6 POP PUSH1 0x40 DUP8 RETURNDATASIZE PUSH1 0x40 GT PUSH2 0xC3D JUMPI JUMPDEST DUP2 PUSH2 0xC15 PUSH1 0x40 SWAP4 DUP4 PUSH2 0x12D6 JUMP JUMPDEST DUP2 ADD SUB SLT PUSH2 0xC39 JUMPI PUSH2 0xC32 PUSH1 0x20 PUSH2 0xC2B DUP10 PUSH2 0x1469 JUMP JUMPDEST SWAP9 ADD PUSH2 0x1469 JUMP JUMPDEST SWAP6 CODESIZE PUSH2 0x72A JUMP JUMPDEST DUP5 DUP1 REVERT JUMPDEST RETURNDATASIZE SWAP2 POP PUSH2 0xC08 JUMP JUMPDEST PUSH1 0x40 MLOAD RETURNDATASIZE DUP8 DUP3 RETURNDATACOPY RETURNDATASIZE SWAP1 REVERT JUMPDEST PUSH1 0x40 MLOAD PUSH3 0x461BCD PUSH1 0xE5 SHL DUP2 MSTORE PUSH1 0x20 PUSH1 0x4 DUP3 ADD MSTORE PUSH1 0x10 PUSH1 0x24 DUP3 ADD MSTORE PUSH16 0x11195C1B1BDE595C881B9BDD081CD95D PUSH1 0x82 SHL PUSH1 0x44 DUP3 ADD MSTORE PUSH1 0x64 SWAP1 REVERT JUMPDEST DUP3 DUP1 REVERT JUMPDEST POP CALLVALUE PUSH2 0x1DB JUMPI DUP1 PUSH1 0x3 NOT CALLDATASIZE ADD SLT PUSH2 0x1DB JUMPI SLOAD PUSH1 0x40 MLOAD PUSH1 0x1 PUSH1 0x1 PUSH1 0xA0 SHL SUB SWAP1 SWAP2 AND DUP2 MSTORE PUSH1 0x20 SWAP1 RETURN JUMPDEST POP CALLVALUE PUSH2 0x1DB JUMPI DUP1 PUSH1 0x3 NOT CALLDATASIZE ADD SLT PUSH2 0x1DB JUMPI PUSH1 0x40 MLOAD PUSH32 0x0 PUSH1 0x1 PUSH1 0x1 PUSH1 0xA0 SHL SUB AND DUP2 MSTORE PUSH1 0x20 SWAP1 RETURN JUMPDEST POP CALLVALUE PUSH2 0x1DB JUMPI PUSH1 0x60 CALLDATASIZE PUSH1 0x3 NOT ADD SLT PUSH2 0x1DB JUMPI DUP1 PUSH2 0xD13 PUSH2 0x122C JUMP JUMPDEST PUSH2 0xD1B PUSH2 0x1242 JUMP JUMPDEST PUSH1 0x44 CALLDATALOAD SWAP2 DUP3 ISZERO ISZERO DUP1 SWAP4 SUB PUSH2 0x1E9 JUMPI PUSH2 0xD31 PUSH2 0x143D JUMP JUMPDEST PUSH1 0x1 PUSH1 0x1 PUSH1 0xA0 SHL SUB SWAP1 DUP2 AND DUP5 MSTORE PUSH1 0x2 PUSH1 0x20 MSTORE PUSH1 0x40 DUP5 KECCAK256 SLOAD DUP2 AND PUSH2 0xD55 DUP2 ISZERO ISZERO PUSH2 0x1560 JUMP JUMPDEST DUP1 EXTCODESIZE ISZERO PUSH2 0xC39 JUMPI DUP5 SWAP3 DUP4 PUSH1 0x44 SWAP3 PUSH1 0x40 MLOAD SWAP7 DUP8 SWAP6 DUP7 SWAP5 PUSH4 0xA0DAF89 PUSH1 0xE2 SHL DUP7 MSTORE AND PUSH1 0x4 DUP6 ADD MSTORE PUSH1 0x24 DUP5 ADD MSTORE GAS CALL DUP1 ISZERO PUSH2 0x1DE JUMPI PUSH2 0x1CB JUMPI POP RETURN JUMPDEST POP CALLVALUE PUSH2 0x1DB JUMPI DUP1 PUSH1 0x3 NOT CALLDATASIZE ADD SLT PUSH2 0x1DB JUMPI PUSH2 0xDA7 PUSH2 0x143D JUMP JUMPDEST PUSH1 0x0 DUP1 SLOAD PUSH1 0x1 PUSH1 0x1 PUSH1 0xA0 SHL SUB NOT DUP2 AND DUP3 SSTORE PUSH1 0x1 PUSH1 0x1 PUSH1 0xA0 SHL SUB AND PUSH1 0x0 DUP1 MLOAD PUSH1 0x20 PUSH2 0x15BD DUP4 CODECOPY DUP2 MLOAD SWAP2 MSTORE DUP3 DUP1 LOG3 DUP1 RETURN JUMPDEST POP CALLVALUE PUSH2 0x1DB JUMPI PUSH1 0x40 CALLDATASIZE PUSH1 0x3 NOT ADD SLT PUSH2 0x1DB JUMPI DUP1 PUSH2 0xDF1 PUSH2 0x122C JUMP JUMPDEST PUSH2 0xDF9 PUSH2 0x143D JUMP JUMPDEST PUSH1 0x1 PUSH1 0x1 PUSH1 0xA0 SHL SUB SWAP1 DUP2 AND DUP3 MSTORE PUSH1 0x2 PUSH1 0x20 MSTORE PUSH1 0x40 DUP3 KECCAK256 SLOAD AND PUSH2 0xE1C DUP2 ISZERO ISZERO PUSH2 0x1560 JUMP JUMPDEST DUP1 EXTCODESIZE ISZERO PUSH2 0xE4F JUMPI DUP2 DUP1 SWAP2 PUSH1 0x24 PUSH1 0x40 MLOAD DUP1 SWAP5 DUP2 SWAP4 PUSH4 0x9D0014B1 PUSH1 0xE0 SHL DUP4 MSTORE DUP4 CALLDATALOAD PUSH1 0x4 DUP5 ADD MSTORE GAS CALL DUP1 ISZERO PUSH2 0x1DE JUMPI PUSH2 0x1CB JUMPI POP RETURN JUMPDEST POP REVERT JUMPDEST POP CALLVALUE PUSH2 0x1DB JUMPI PUSH1 0x20 CALLDATASIZE PUSH1 0x3 NOT ADD SLT PUSH2 0x1DB JUMPI PUSH1 0x4 CALLDATALOAD SWAP1 PUSH1 0x3 SLOAD DUP3 LT ISZERO PUSH2 0x1DB JUMPI PUSH1 0x20 PUSH2 0xE7D DUP4 PUSH2 0x13DF JUMP JUMPDEST SWAP1 SLOAD PUSH1 0x40 MLOAD PUSH1 0x3 SWAP3 SWAP1 SWAP3 SHL SHR PUSH1 0x1 PUSH1 0x1 PUSH1 0xA0 SHL SUB AND DUP2 MSTORE RETURN JUMPDEST POP CALLVALUE PUSH2 0x1DB JUMPI PUSH1 0x20 DUP1 PUSH1 0x3 NOT CALLDATASIZE ADD SLT PUSH2 0x580 JUMPI PUSH1 0x40 PUSH2 0xEB3 PUSH2 0x122C JUMP JUMPDEST SWAP3 DUP1 PUSH1 0xC0 DUP4 MLOAD PUSH2 0xEC2 DUP2 PUSH2 0x12BB JUMP JUMPDEST DUP3 DUP2 MSTORE DUP3 DUP7 DUP3 ADD MSTORE DUP3 DUP6 DUP3 ADD MSTORE DUP3 PUSH1 0x60 DUP3 ADD MSTORE PUSH1 0x60 PUSH1 0x80 DUP3 ADD MSTORE DUP3 PUSH1 0xA0 DUP3 ADD MSTORE ADD MSTORE PUSH1 0x1 DUP1 PUSH1 0xA0 SHL SUB DUP1 SWAP5 AND DUP2 MSTORE PUSH1 0x2 DUP4 MSTORE KECCAK256 PUSH1 0x40 MLOAD SWAP2 PUSH2 0xF02 DUP4 PUSH2 0x12BB JUMP JUMPDEST DUP4 DUP3 SLOAD AND DUP4 MSTORE PUSH2 0xF98 DUP5 PUSH1 0x1 DUP5 ADD SLOAD AND DUP3 DUP6 ADD SWAP1 DUP2 MSTORE DUP6 PUSH1 0x2 DUP6 ADD SLOAD AND PUSH1 0x40 DUP7 ADD SWAP1 DUP2 MSTORE DUP7 PUSH1 0x3 DUP7 ADD SLOAD SWAP2 PUSH1 0x60 DUP9 ADD SWAP3 DUP4 MSTORE DUP2 PUSH2 0xF41 PUSH1 0x4 DUP10 ADD PUSH2 0x12F9 JUMP JUMPDEST SWAP5 PUSH1 0x80 DUP11 ADD SWAP6 DUP7 MSTORE PUSH1 0x6 PUSH1 0x5 DUP11 ADD SLOAD SWAP10 PUSH1 0xA0 DUP13 ADD SWAP11 DUP12 MSTORE ADD SLOAD SWAP8 PUSH1 0xC0 DUP12 ADD SWAP9 DUP10 MSTORE PUSH1 0x40 MLOAD SWAP12 DUP13 SWAP12 DUP3 DUP14 MSTORE MLOAD AND SWAP1 DUP12 ADD MSTORE MLOAD AND PUSH1 0x40 DUP10 ADD MSTORE MLOAD AND PUSH1 0x60 DUP8 ADD MSTORE MLOAD PUSH1 0x80 DUP7 ADD MSTORE MLOAD PUSH1 0xE0 PUSH1 0xA0 DUP7 ADD MSTORE PUSH2 0x100 DUP6 ADD SWAP1 PUSH2 0x139F JUMP JUMPDEST SWAP2 MLOAD PUSH1 0xC0 DUP5 ADD MSTORE MLOAD PUSH1 0xE0 DUP4 ADD MSTORE SUB SWAP1 RETURN JUMPDEST POP CALLVALUE PUSH2 0x1DB JUMPI PUSH1 0x20 CALLDATASIZE PUSH1 0x3 NOT ADD SLT PUSH2 0x1DB JUMPI PUSH1 0x1 PUSH1 0x1 PUSH1 0xA0 SHL SUB SWAP1 PUSH1 0x40 SWAP1 DUP3 PUSH2 0xFD0 PUSH2 0x122C JUMP JUMPDEST AND DUP2 MSTORE PUSH1 0x2 PUSH1 0x20 MSTORE KECCAK256 DUP2 DUP2 SLOAD AND SWAP1 DUP3 PUSH1 0x1 DUP3 ADD SLOAD AND SWAP3 PUSH1 0x2 DUP3 ADD SLOAD AND PUSH2 0x1034 PUSH1 0x3 DUP4 ADD SLOAD PUSH2 0x1000 PUSH1 0x4 DUP6 ADD PUSH2 0x12F9 JUMP JUMPDEST SWAP1 PUSH1 0x6 PUSH1 0x5 DUP7 ADD SLOAD SWAP6 ADD SLOAD SWAP4 PUSH1 0x40 MLOAD SWAP8 DUP9 SWAP8 DUP9 MSTORE PUSH1 0x20 DUP9 ADD MSTORE PUSH1 0x40 DUP8 ADD MSTORE PUSH1 0x60 DUP7 ADD MSTORE PUSH1 0xE0 PUSH1 0x80 DUP7 ADD MSTORE PUSH1 0xE0 DUP6 ADD SWAP1 PUSH2 0x139F JUMP JUMPDEST SWAP2 PUSH1 0xA0 DUP5 ADD MSTORE PUSH1 0xC0 DUP4 ADD MSTORE SUB SWAP1 RETURN JUMPDEST POP CALLVALUE PUSH2 0x1DB JUMPI PUSH1 0x20 CALLDATASIZE PUSH1 0x3 NOT ADD SLT PUSH2 0x1DB JUMPI DUP1 PUSH2 0x105E PUSH2 0x122C JUMP JUMPDEST PUSH2 0x1066 PUSH2 0x143D JUMP JUMPDEST PUSH1 0x1 PUSH1 0x1 PUSH1 0xA0 SHL SUB SWAP1 DUP2 AND DUP3 MSTORE PUSH1 0x2 PUSH1 0x20 MSTORE PUSH1 0x40 DUP3 KECCAK256 SLOAD AND PUSH2 0x1089 DUP2 ISZERO ISZERO PUSH2 0x1560 JUMP JUMPDEST DUP1 EXTCODESIZE ISZERO PUSH2 0xE4F JUMPI DUP2 DUP1 SWAP2 PUSH1 0x4 PUSH1 0x40 MLOAD DUP1 SWAP5 DUP2 SWAP4 PUSH4 0x4279349 PUSH1 0xE0 SHL DUP4 MSTORE GAS CALL DUP1 ISZERO PUSH2 0x1DE JUMPI PUSH2 0x1CB JUMPI POP RETURN JUMPDEST POP CALLVALUE PUSH2 0x1DB JUMPI DUP1 PUSH1 0x3 NOT CALLDATASIZE ADD SLT PUSH2 0x1DB JUMPI PUSH1 0x20 PUSH1 0x4 SLOAD PUSH1 0x40 MLOAD SWAP1 DUP2 MSTORE RETURN JUMPDEST POP CALLVALUE PUSH2 0x1DB JUMPI DUP1 PUSH1 0x3 NOT CALLDATASIZE ADD SLT PUSH2 0x1DB JUMPI PUSH1 0x40 MLOAD DUP1 SWAP2 PUSH1 0x3 SLOAD SWAP1 DUP2 DUP4 MSTORE PUSH1 0x20 DUP1 SWAP4 ADD DUP1 SWAP3 PUSH1 0x3 DUP4 MSTORE DUP5 DUP4 KECCAK256 SWAP1 DUP4 JUMPDEST DUP2 DUP2 LT PUSH2 0x115E JUMPI POP POP POP DUP5 PUSH2 0x1117 SWAP2 SUB DUP6 PUSH2 0x12D6 JUMP JUMPDEST PUSH1 0x40 MLOAD SWAP4 DUP4 DUP6 SWAP5 DUP6 ADD SWAP2 DUP2 DUP7 MSTORE MLOAD DUP1 SWAP3 MSTORE PUSH1 0x40 DUP6 ADD SWAP4 SWAP3 JUMPDEST DUP3 DUP2 LT PUSH2 0x113E JUMPI POP POP POP POP SUB SWAP1 RETURN JUMPDEST DUP4 MLOAD PUSH1 0x1 PUSH1 0x1 PUSH1 0xA0 SHL SUB AND DUP6 MSTORE DUP7 SWAP6 POP SWAP4 DUP2 ADD SWAP4 SWAP3 DUP2 ADD SWAP3 PUSH1 0x1 ADD PUSH2 0x112F JUMP JUMPDEST DUP3 SLOAD PUSH1 0x1 PUSH1 0x1 PUSH1 0xA0 SHL SUB AND DUP5 MSTORE SWAP3 DUP7 ADD SWAP3 PUSH1 0x1 SWAP3 DUP4 ADD SWAP3 ADD PUSH2 0x1101 JUMP JUMPDEST POP CALLVALUE PUSH2 0x1DB JUMPI DUP1 PUSH1 0x3 NOT CALLDATASIZE ADD SLT PUSH2 0x1DB JUMPI PUSH1 0x20 PUSH1 0x5 SLOAD PUSH1 0x40 MLOAD SWAP1 DUP2 MSTORE RETURN JUMPDEST POP CALLVALUE PUSH2 0x1DB JUMPI PUSH1 0x40 CALLDATASIZE PUSH1 0x3 NOT ADD SLT PUSH2 0x1DB JUMPI PUSH2 0x11B3 PUSH2 0x122C JUMP JUMPDEST DUP2 PUSH2 0x11BC PUSH2 0x1242 JUMP JUMPDEST SWAP2 PUSH2 0x11C5 PUSH2 0x143D JUMP JUMPDEST PUSH1 0x1 PUSH1 0x1 PUSH1 0xA0 SHL SUB SWAP1 DUP2 AND DUP3 MSTORE PUSH1 0x2 PUSH1 0x20 MSTORE PUSH1 0x40 DUP3 KECCAK256 PUSH1 0x1 ADD SLOAD DUP2 AND SWAP3 PUSH2 0x11ED DUP5 ISZERO ISZERO PUSH2 0x1560 JUMP JUMPDEST DUP4 EXTCODESIZE ISZERO PUSH2 0xC88 JUMPI PUSH1 0x24 SWAP1 DUP4 PUSH1 0x40 MLOAD SWAP6 DUP7 SWAP5 DUP6 SWAP4 PUSH4 0xA171283 PUSH1 0xE3 SHL DUP6 MSTORE AND PUSH1 0x4 DUP5 ADD MSTORE GAS CALL DUP1 ISZERO PUSH2 0x1DE JUMPI PUSH2 0x1220 JUMPI POP DUP1 RETURN JUMPDEST PUSH2 0x1229 SWAP1 PUSH2 0x1292 JUMP JUMPDEST DUP1 RETURN JUMPDEST PUSH1 0x4 CALLDATALOAD SWAP1 PUSH1 0x1 PUSH1 0x1 PUSH1 0xA0 SHL SUB DUP3 AND DUP3 SUB PUSH2 0xB09 JUMPI JUMP JUMPDEST PUSH1 0x24 CALLDATALOAD SWAP1 PUSH1 0x1 PUSH1 0x1 PUSH1 0xA0 SHL SUB DUP3 AND DUP3 SUB PUSH2 0xB09 JUMPI JUMP JUMPDEST SWAP1 PUSH1 0x1 DUP3 DUP2 SHR SWAP3 AND DUP1 ISZERO PUSH2 0x1288 JUMPI JUMPDEST PUSH1 0x20 DUP4 LT EQ PUSH2 0x1272 JUMPI JUMP JUMPDEST PUSH4 0x4E487B71 PUSH1 0xE0 SHL PUSH1 0x0 MSTORE PUSH1 0x22 PUSH1 0x4 MSTORE PUSH1 0x24 PUSH1 0x0 REVERT JUMPDEST SWAP2 PUSH1 0x7F AND SWAP2 PUSH2 0x1267 JUMP JUMPDEST PUSH1 0x1 PUSH1 0x1 PUSH1 0x40 SHL SUB DUP2 GT PUSH2 0x12A5 JUMPI PUSH1 0x40 MSTORE JUMP JUMPDEST PUSH4 0x4E487B71 PUSH1 0xE0 SHL PUSH1 0x0 MSTORE PUSH1 0x41 PUSH1 0x4 MSTORE PUSH1 0x24 PUSH1 0x0 REVERT JUMPDEST PUSH1 0xE0 DUP2 ADD SWAP1 DUP2 LT PUSH1 0x1 PUSH1 0x1 PUSH1 0x40 SHL SUB DUP3 GT OR PUSH2 0x12A5 JUMPI PUSH1 0x40 MSTORE JUMP JUMPDEST PUSH1 0x1F SWAP1 SWAP2 ADD PUSH1 0x1F NOT AND DUP2 ADD SWAP1 PUSH1 0x1 PUSH1 0x1 PUSH1 0x40 SHL SUB DUP3 GT SWAP1 DUP3 LT OR PUSH2 0x12A5 JUMPI PUSH1 0x40 MSTORE JUMP JUMPDEST SWAP1 PUSH1 0x40 MLOAD SWAP2 DUP3 PUSH1 0x0 DUP3 SLOAD SWAP3 PUSH2 0x130D DUP5 PUSH2 0x1258 JUMP JUMPDEST SWAP1 DUP2 DUP5 MSTORE PUSH1 0x1 SWAP5 DUP6 DUP2 AND SWAP1 DUP2 PUSH1 0x0 EQ PUSH2 0x137C JUMPI POP PUSH1 0x1 EQ PUSH2 0x1339 JUMPI JUMPDEST POP POP PUSH2 0x1337 SWAP3 POP SUB DUP4 PUSH2 0x12D6 JUMP JUMPDEST JUMP JUMPDEST SWAP1 SWAP4 SWAP2 POP PUSH1 0x0 MSTORE PUSH1 0x20 SWAP1 DUP2 PUSH1 0x0 KECCAK256 SWAP4 PUSH1 0x0 SWAP2 JUMPDEST DUP2 DUP4 LT PUSH2 0x1364 JUMPI POP POP PUSH2 0x1337 SWAP4 POP DUP3 ADD ADD CODESIZE DUP1 PUSH2 0x1329 JUMP JUMPDEST DUP6 SLOAD DUP9 DUP5 ADD DUP6 ADD MSTORE SWAP5 DUP6 ADD SWAP5 DUP8 SWAP5 POP SWAP2 DUP4 ADD SWAP2 PUSH2 0x134C JUMP JUMPDEST SWAP2 POP POP PUSH2 0x1337 SWAP5 POP PUSH1 0x20 SWAP3 POP PUSH1 0xFF NOT AND DUP3 DUP5 ADD MSTORE ISZERO ISZERO PUSH1 0x5 SHL DUP3 ADD ADD CODESIZE DUP1 PUSH2 0x1329 JUMP JUMPDEST SWAP2 SWAP1 DUP3 MLOAD SWAP3 DUP4 DUP3 MSTORE PUSH1 0x0 JUMPDEST DUP5 DUP2 LT PUSH2 0x13CB JUMPI POP POP DUP3 PUSH1 0x0 PUSH1 0x20 DUP1 SWAP5 SWAP6 DUP5 ADD ADD MSTORE PUSH1 0x1F DUP1 NOT SWAP2 ADD AND ADD ADD SWAP1 JUMP JUMPDEST PUSH1 0x20 DUP2 DUP4 ADD DUP2 ADD MLOAD DUP5 DUP4 ADD DUP3 ADD MSTORE ADD PUSH2 0x13AA JUMP JUMPDEST PUSH1 0x3 SLOAD DUP2 LT ISZERO PUSH2 0x13FA JUMPI PUSH1 0x3 PUSH1 0x0 MSTORE PUSH1 0x20 PUSH1 0x0 KECCAK256 ADD SWAP1 PUSH1 0x0 SWAP1 JUMP JUMPDEST PUSH4 0x4E487B71 PUSH1 0xE0 SHL PUSH1 0x0 MSTORE PUSH1 0x32 PUSH1 0x4 MSTORE PUSH1 0x24 PUSH1 0x0 REVERT JUMPDEST SWAP2 DUP2 PUSH1 0x1F DUP5 ADD SLT ISZERO PUSH2 0xB09 JUMPI DUP3 CALLDATALOAD SWAP2 PUSH1 0x1 PUSH1 0x1 PUSH1 0x40 SHL SUB DUP4 GT PUSH2 0xB09 JUMPI PUSH1 0x20 DUP4 DUP2 DUP7 ADD SWAP6 ADD ADD GT PUSH2 0xB09 JUMPI JUMP JUMPDEST PUSH1 0x0 SLOAD PUSH1 0x1 PUSH1 0x1 PUSH1 0xA0 SHL SUB AND CALLER SUB PUSH2 0x1451 JUMPI JUMP JUMPDEST PUSH1 0x40 MLOAD PUSH4 0x118CDAA7 PUSH1 0xE0 SHL DUP2 MSTORE CALLER PUSH1 0x4 DUP3 ADD MSTORE PUSH1 0x24 SWAP1 REVERT JUMPDEST MLOAD SWAP1 PUSH1 0x1 PUSH1 0x1 PUSH1 0xA0 SHL SUB DUP3 AND DUP3 SUB PUSH2 0xB09 JUMPI JUMP JUMPDEST SWAP1 DUP1 PUSH1 0x20 SWAP4 SWAP3 DUP2 DUP5 MSTORE DUP5 DUP5 ADD CALLDATACOPY PUSH1 0x0 DUP3 DUP3 ADD DUP5 ADD MSTORE PUSH1 0x1F ADD PUSH1 0x1F NOT AND ADD ADD SWAP1 JUMP JUMPDEST PUSH1 0x1 PUSH1 0x1 PUSH1 0x40 SHL SUB DUP2 GT PUSH2 0x12A5 JUMPI PUSH1 0x1F ADD PUSH1 0x1F NOT AND PUSH1 0x20 ADD SWAP1 JUMP JUMPDEST SWAP1 PUSH1 0x1F DUP2 GT PUSH2 0x14C7 JUMPI POP POP POP JUMP JUMPDEST PUSH1 0x0 SWAP2 DUP3 MSTORE PUSH1 0x20 DUP3 KECCAK256 SWAP1 PUSH1 0x20 PUSH1 0x1F DUP6 ADD PUSH1 0x5 SHR DUP4 ADD SWAP5 LT PUSH2 0x1503 JUMPI JUMPDEST PUSH1 0x1F ADD PUSH1 0x5 SHR ADD SWAP2 JUMPDEST DUP3 DUP2 LT PUSH2 0x14F8 JUMPI POP POP POP JUMP JUMPDEST DUP2 DUP2 SSTORE PUSH1 0x1 ADD PUSH2 0x14EC JUMP JUMPDEST SWAP1 SWAP3 POP DUP3 SWAP1 PUSH2 0x14E3 JUMP JUMPDEST PUSH1 0x0 DUP1 MLOAD PUSH1 0x20 PUSH2 0x15DD DUP4 CODECOPY DUP2 MLOAD SWAP2 MSTORE PUSH1 0x2 DUP2 SLOAD EQ PUSH2 0x152B JUMPI PUSH1 0x2 SWAP1 SSTORE JUMP JUMPDEST PUSH1 0x40 MLOAD PUSH4 0x3EE5AEB5 PUSH1 0xE0 SHL DUP2 MSTORE PUSH1 0x4 SWAP1 REVERT JUMPDEST SWAP2 SWAP1 DUP3 ADD DUP1 SWAP3 GT PUSH2 0x154A JUMPI JUMP JUMPDEST PUSH4 0x4E487B71 PUSH1 0xE0 SHL PUSH1 0x0 MSTORE PUSH1 0x11 PUSH1 0x4 MSTORE PUSH1 0x24 PUSH1 0x0 REVERT JUMPDEST ISZERO PUSH2 0x1567 JUMPI JUMP JUMPDEST PUSH1 0x40 MLOAD PUSH3 0x461BCD PUSH1 0xE5 SHL DUP2 MSTORE PUSH1 0x20 PUSH1 0x4 DUP3 ADD MSTORE PUSH1 0xD PUSH1 0x24 DUP3 ADD MSTORE PUSH13 0x2AB735B737BBB7103A37B5B2B7 PUSH1 0x99 SHL PUSH1 0x44 DUP3 ADD MSTORE PUSH1 0x64 SWAP1 REVERT INVALID KECCAK256 SGT JUMPI 0xC CALLVALUE GASPRICE 0xF8 0xAB EQ 0xA9 PUSH24 0x8150E381A0FDA34ED6368127A95FD5E7210CBEC5BF8BE007 SWAP13 MSTORE8 AND MSIZE EQ SGT PREVRANDAO 0xCD 0x1F 0xD0 LOG4 CALLCODE DUP5 NOT 0x49 PUSH32 0x9722A3DAAFE3B4186F6B6457E09B779B17422D0DF92223018B32B4D1FA46E071 PUSH19 0x3D6817E2486D003BECC55F00A2646970667358 0x22 SLT KECCAK256 SMOD DUP14 CALLER SMOD SSTORE SUB 0xB1 0x2E DIV PUSH28 0x57C131A10F34ECF46530B0A5B36EEF31F372FC98836864736F6C6343 STOP ADDMOD EQ STOP CALLER "},"methodIdentifiers":{"accumulatedPlatformFees()":"342f2df3","allTokens(uint256)":"634282af","allTokensLength()":"dbb80e42","createToken(string,string,string)":"94aed7d0","deployer()":"d5f39488","flushTokenPlatformEth(address)":"42086c79","forceCloseCurve(address,address)":"0668c0d0","getAllTokens()":"2a5c792a","getRecord(address)":"617fba04","owner()":"8da5cb5b","records(address)":"469e9067","renounceOwnership()":"715018a6","setDeployer(address)":"96214735","setTokenExcluded(address,address,bool)":"71af3101","setTokenKeeper(address,address)":"ff6151c7","setTokenSwapThreshold(address,uint256)":"69496d96","totalPlatformFeesWithdrawn()":"1e0db440","transferOwnership(address)":"f2fde38b","uniswapRouter()":"735de9f7","updateMetadataURI(address,string)":"fabb2c17","withdrawPlatformFees(address)":"ec3889b5"}}}}}