{"contracts/v2/AethpadTokenV2.sol":{"AethpadTokenV2":{"abi":[{"inputs":[{"internalType":"string","name":"_name","type":"string"},{"internalType":"string","name":"_symbol","type":"string"},{"internalType":"address","name":"_factory","type":"address"},{"internalType":"address","name":"_curve","type":"address"}],"stateMutability":"nonpayable","type":"constructor"},{"inputs":[{"internalType":"address","name":"spender","type":"address"},{"internalType":"uint256","name":"allowance","type":"uint256"},{"internalType":"uint256","name":"needed","type":"uint256"}],"name":"ERC20InsufficientAllowance","type":"error"},{"inputs":[{"internalType":"address","name":"sender","type":"address"},{"internalType":"uint256","name":"balance","type":"uint256"},{"internalType":"uint256","name":"needed","type":"uint256"}],"name":"ERC20InsufficientBalance","type":"error"},{"inputs":[{"internalType":"address","name":"approver","type":"address"}],"name":"ERC20InvalidApprover","type":"error"},{"inputs":[{"internalType":"address","name":"receiver","type":"address"}],"name":"ERC20InvalidReceiver","type":"error"},{"inputs":[{"internalType":"address","name":"sender","type":"address"}],"name":"ERC20InvalidSender","type":"error"},{"inputs":[{"internalType":"address","name":"spender","type":"address"}],"name":"ERC20InvalidSpender","type":"error"},{"inputs":[],"name":"ReentrancyGuardReentrantCall","type":"error"},{"anonymous":false,"inputs":[{"indexed":true,"internalType":"address","name":"owner","type":"address"},{"indexed":true,"internalType":"address","name":"spender","type":"address"},{"indexed":false,"internalType":"uint256","name":"value","type":"uint256"}],"name":"Approval","type":"event"},{"anonymous":false,"inputs":[{"indexed":true,"internalType":"address","name":"pair","type":"address"}],"name":"Graduated","type":"event"},{"anonymous":false,"inputs":[{"indexed":true,"internalType":"address","name":"oldKeeper","type":"address"},{"indexed":true,"internalType":"address","name":"newKeeper","type":"address"}],"name":"KeeperUpdated","type":"event"},{"anonymous":false,"inputs":[{"indexed":false,"internalType":"uint256","name":"ethAmount","type":"uint256"}],"name":"PlatformFeeForwarded","type":"event"},{"anonymous":false,"inputs":[{"indexed":true,"internalType":"address","name":"user","type":"address"},{"indexed":false,"internalType":"uint256","name":"ethAmount","type":"uint256"}],"name":"RewardsClaimed","type":"event"},{"anonymous":false,"inputs":[{"indexed":false,"internalType":"uint256","name":"ethAmount","type":"uint256"},{"indexed":false,"internalType":"uint256","name":"newCumulative","type":"uint256"}],"name":"RewardsDeposited","type":"event"},{"anonymous":false,"inputs":[{"indexed":false,"internalType":"uint256","name":"holderCount","type":"uint256"},{"indexed":false,"internalType":"uint256","name":"totalEthSent","type":"uint256"}],"name":"RewardsPushed","type":"event"},{"anonymous":false,"inputs":[{"indexed":true,"internalType":"address","name":"user","type":"address"},{"indexed":false,"internalType":"uint256","name":"drop","type":"uint256"},{"indexed":false,"internalType":"uint256","name":"totalScore","type":"uint256"}],"name":"ScoreDesyncDetected","type":"event"},{"anonymous":false,"inputs":[{"indexed":true,"internalType":"address","name":"from","type":"address"},{"indexed":true,"internalType":"address","name":"to","type":"address"},{"indexed":false,"internalType":"uint256","name":"burnAmt","type":"uint256"},{"indexed":false,"internalType":"uint256","name":"rewardAmt","type":"uint256"},{"indexed":false,"internalType":"uint256","name":"platformAmt","type":"uint256"}],"name":"TaxTaken","type":"event"},{"anonymous":false,"inputs":[{"indexed":true,"internalType":"address","name":"from","type":"address"},{"indexed":true,"internalType":"address","name":"to","type":"address"},{"indexed":false,"internalType":"uint256","name":"value","type":"uint256"}],"name":"Transfer","type":"event"},{"inputs":[],"name":"BURN_BPS","outputs":[{"internalType":"uint256","name":"","type":"uint256"}],"stateMutability":"view","type":"function"},{"inputs":[],"name":"CURVE_SUPPLY","outputs":[{"internalType":"uint256","name":"","type":"uint256"}],"stateMutability":"view","type":"function"},{"inputs":[],"name":"DEAD","outputs":[{"internalType":"address","name":"","type":"address"}],"stateMutability":"view","type":"function"},{"inputs":[],"name":"GRAD_SUPPLY","outputs":[{"internalType":"uint256","name":"","type":"uint256"}],"stateMutability":"view","type":"function"},{"inputs":[],"name":"MAX_PUSH_BATCH","outputs":[{"internalType":"uint256","name":"","type":"uint256"}],"stateMutability":"view","type":"function"},{"inputs":[],"name":"PLATFORM_BPS","outputs":[{"internalType":"uint256","name":"","type":"uint256"}],"stateMutability":"view","type":"function"},{"inputs":[],"name":"REWARD_BPS","outputs":[{"internalType":"uint256","name":"","type":"uint256"}],"stateMutability":"view","type":"function"},{"inputs":[],"name":"SNIPE_BPS_1HR","outputs":[{"internalType":"uint256","name":"","type":"uint256"}],"stateMutability":"view","type":"function"},{"inputs":[],"name":"SNIPE_BPS_24HR","outputs":[{"internalType":"uint256","name":"","type":"uint256"}],"stateMutability":"view","type":"function"},{"inputs":[],"name":"SNIPE_BPS_5MIN","outputs":[{"internalType":"uint256","name":"","type":"uint256"}],"stateMutability":"view","type":"function"},{"inputs":[],"name":"TOTAL_SUPPLY","outputs":[{"internalType":"uint256","name":"","type":"uint256"}],"stateMutability":"view","type":"function"},{"inputs":[],"name":"TOTAL_TAX_BPS","outputs":[{"internalType":"uint256","name":"","type":"uint256"}],"stateMutability":"view","type":"function"},{"inputs":[{"internalType":"address","name":"owner","type":"address"},{"internalType":"address","name":"spender","type":"address"}],"name":"allowance","outputs":[{"internalType":"uint256","name":"","type":"uint256"}],"stateMutability":"view","type":"function"},{"inputs":[{"internalType":"address","name":"seller","type":"address"}],"name":"antiSnipeBpsFor","outputs":[{"internalType":"uint256","name":"","type":"uint256"}],"stateMutability":"view","type":"function"},{"inputs":[{"internalType":"address","name":"spender","type":"address"},{"internalType":"uint256","name":"value","type":"uint256"}],"name":"approve","outputs":[{"internalType":"bool","name":"","type":"bool"}],"stateMutability":"nonpayable","type":"function"},{"inputs":[{"internalType":"address","name":"account","type":"address"}],"name":"balanceOf","outputs":[{"internalType":"uint256","name":"","type":"uint256"}],"stateMutability":"view","type":"function"},{"inputs":[{"internalType":"uint256","name":"amount","type":"uint256"}],"name":"burnFromCurve","outputs":[],"stateMutability":"nonpayable","type":"function"},{"inputs":[{"internalType":"address","name":"","type":"address"}],"name":"checkpoints","outputs":[{"internalType":"uint128","name":"balance","type":"uint128"},{"internalType":"uint64","name":"lastUpdate","type":"uint64"},{"internalType":"uint64","name":"lastBuyAt","type":"uint64"},{"internalType":"uint256","name":"accumulatedScore","type":"uint256"},{"internalType":"uint256","name":"ethPerScorePaid","type":"uint256"},{"internalType":"uint256","name":"pendingEth","type":"uint256"}],"stateMutability":"view","type":"function"},{"inputs":[],"name":"claim","outputs":[],"stateMutability":"nonpayable","type":"function"},{"inputs":[],"name":"cumulativeEthPerScore","outputs":[{"internalType":"uint256","name":"","type":"uint256"}],"stateMutability":"view","type":"function"},{"inputs":[],"name":"curve","outputs":[{"internalType":"address","name":"","type":"address"}],"stateMutability":"view","type":"function"},{"inputs":[],"name":"decimals","outputs":[{"internalType":"uint8","name":"","type":"uint8"}],"stateMutability":"view","type":"function"},{"inputs":[],"name":"depositEthPlatform","outputs":[],"stateMutability":"payable","type":"function"},{"inputs":[],"name":"depositEthReward","outputs":[],"stateMutability":"payable","type":"function"},{"inputs":[],"name":"factory","outputs":[{"internalType":"address","name":"","type":"address"}],"stateMutability":"view","type":"function"},{"inputs":[],"name":"graduated","outputs":[{"internalType":"bool","name":"","type":"bool"}],"stateMutability":"view","type":"function"},{"inputs":[{"internalType":"address","name":"user","type":"address"}],"name":"holdScore","outputs":[{"internalType":"uint256","name":"","type":"uint256"}],"stateMutability":"view","type":"function"},{"inputs":[{"internalType":"address","name":"","type":"address"}],"name":"isExcluded","outputs":[{"internalType":"bool","name":"","type":"bool"}],"stateMutability":"view","type":"function"},{"inputs":[],"name":"keeper","outputs":[{"internalType":"address","name":"","type":"address"}],"stateMutability":"view","type":"function"},{"inputs":[],"name":"lastRewardTimestamp","outputs":[{"internalType":"uint256","name":"","type":"uint256"}],"stateMutability":"view","type":"function"},{"inputs":[],"name":"name","outputs":[{"internalType":"string","name":"","type":"string"}],"stateMutability":"view","type":"function"},{"inputs":[{"internalType":"address","name":"_pair","type":"address"},{"internalType":"address","name":"_router","type":"address"}],"name":"notifyGraduated","outputs":[],"stateMutability":"nonpayable","type":"function"},{"inputs":[],"name":"orphanedRewardEth","outputs":[{"internalType":"uint256","name":"","type":"uint256"}],"stateMutability":"view","type":"function"},{"inputs":[],"name":"pendingPlatformEth","outputs":[{"internalType":"uint256","name":"","type":"uint256"}],"stateMutability":"view","type":"function"},{"inputs":[{"internalType":"address","name":"user","type":"address"}],"name":"pendingRewards","outputs":[{"internalType":"uint256","name":"","type":"uint256"}],"stateMutability":"view","type":"function"},{"inputs":[{"internalType":"address[]","name":"holders","type":"address[]"}],"name":"pushRewards","outputs":[],"stateMutability":"nonpayable","type":"function"},{"inputs":[{"internalType":"address","name":"account","type":"address"},{"internalType":"bool","name":"excluded","type":"bool"}],"name":"setExcluded","outputs":[],"stateMutability":"nonpayable","type":"function"},{"inputs":[{"internalType":"address","name":"newKeeper","type":"address"}],"name":"setKeeper","outputs":[],"stateMutability":"nonpayable","type":"function"},{"inputs":[{"internalType":"uint256","name":"newThreshold","type":"uint256"}],"name":"setSwapThreshold","outputs":[],"stateMutability":"nonpayable","type":"function"},{"inputs":[],"name":"swapThreshold","outputs":[{"internalType":"uint256","name":"","type":"uint256"}],"stateMutability":"view","type":"function"},{"inputs":[],"name":"symbol","outputs":[{"internalType":"string","name":"","type":"string"}],"stateMutability":"view","type":"function"},{"inputs":[],"name":"totalAccumulatedScore","outputs":[{"internalType":"uint256","name":"","type":"uint256"}],"stateMutability":"view","type":"function"},{"inputs":[],"name":"totalHoldScoreLive","outputs":[{"internalType":"uint256","name":"","type":"uint256"}],"stateMutability":"view","type":"function"},{"inputs":[],"name":"totalLastUpdate","outputs":[{"internalType":"uint256","name":"","type":"uint256"}],"stateMutability":"view","type":"function"},{"inputs":[],"name":"totalSettledBalance","outputs":[{"internalType":"uint256","name":"","type":"uint256"}],"stateMutability":"view","type":"function"},{"inputs":[],"name":"totalSupply","outputs":[{"internalType":"uint256","name":"","type":"uint256"}],"stateMutability":"view","type":"function"},{"inputs":[{"internalType":"address","name":"to","type":"address"},{"internalType":"uint256","name":"value","type":"uint256"}],"name":"transfer","outputs":[{"internalType":"bool","name":"","type":"bool"}],"stateMutability":"nonpayable","type":"function"},{"inputs":[{"internalType":"address","name":"from","type":"address"},{"internalType":"address","name":"to","type":"address"},{"internalType":"uint256","name":"value","type":"uint256"}],"name":"transferFrom","outputs":[{"internalType":"bool","name":"","type":"bool"}],"stateMutability":"nonpayable","type":"function"},{"inputs":[],"name":"uniswapPair","outputs":[{"internalType":"address","name":"","type":"address"}],"stateMutability":"view","type":"function"},{"inputs":[],"name":"uniswapRouter","outputs":[{"internalType":"contract IUniswapV2Router02","name":"","type":"address"}],"stateMutability":"view","type":"function"},{"inputs":[],"name":"withdrawPendingPlatform","outputs":[],"stateMutability":"nonpayable","type":"function"},{"stateMutability":"payable","type":"receive"}],"evm":{"bytecode":{"linkReferences":{},"object":"60c0604090808252346200074a5762003cc380380380916200002282856200074f565b83398101906080818303126200074a5780516001600160401b0392908381116200074a5781620000549184016200078f565b60209182840151908582116200074a57620000719185016200078f565b906200008d606062000085888701620007f9565b9501620007f9565b9181518681116200064a5760038054916001948584811c941680156200073f575b8885101462000729578190601f94858111620006d3575b5088908583116001146200066c5760009262000660575b505060001982841b1c191690851b1781555b8251918883116200064a5760049384548681811c911680156200063f575b898210146200062a579081838695949311620005d0575b5088918411600114620005655760009362000559575b505082851b92600019911b1c19161781555b817f9b779b17422d0df92223018b32b4d1fa46e071723d6817e2486d003becc55f005569152d02c7e14af6800000600755846080528260a05260018060a01b03948584169081600052600f865286896000209160ff199286848254161790551660005288600020848282541617905561dead93846000528960002081838254161790553060005289600020818382541617905560008052896000209182541617905542600b55801562000542576b033b2e3c9fd0803ce800000092620002118562000922565b600554978760ff998a81168062000535575b806200051e575b8062000507575b6200034d575b505050505050906200024e62000254928262000898565b62000ab9565b60055483811693846200033f575b50836200032f575b508262000314575b508162000305575b50620002f5575b5161295990816200132a82396080518181816107ac0152818161096001528181610b2a0152818161108b0152818161138c015281816118eb01526124e2015260a05181818161065501528181610846015281816108ee01528181610bce01528181610c7501528181611eb401526120660152f35b620002ff62000dce565b62000281565b9050600654161515386200027a565b60009192503082525281600020546007541115903862000272565b60081c821615159250386200026a565b600854161593503862000262565b60081c16938415948414858615620004ff575b6200036f575b89915062000237565b600096929394959690620004ee575b6101f4908101809111620004d9578083029083820403620004d9576127109004600254946a0c685fa11e01ec6f00000095868101809111620004c45760008051602062003ca38339815191528b8f6000936002558484528382528084208a815401905551898152a36a0c685fa11e01ec6effffff198101818111620004af57806200049c575b5082039182116200048757507fe9bc91a33ddf896d889747b2f39f4192c802fd62364780086853fcd8e19e8ffa6060620002549796946200024e96948d6000959762000468575b905051908152838a820152838d820152a391923880808062000366565b6200047f9187875260098d52421690862062000875565b388d6200044b565b601190634e487b7160e01b6000525260246000fd5b620004a8903062000898565b3862000404565b601183634e487b7160e01b6000525260246000fd5b601184634e487b7160e01b6000525260246000fd5b601182634e487b7160e01b6000525260246000fd5b50620004f962000cea565b6200037e565b508062000360565b5084600052600f89528a8c60002054161562000231565b5060008052600f89528a8c6000205416156200022a565b508a600854161562000223565b875163ec442f0560e01b8152600081840152602490fd5b01519150388062000139565b9190869450601f1984169286600052896000209360005b8b828210620005b957505085116200059e575b50505050811b0181556200014b565b01519060f884600019921b161c19169055388080806200058f565b8385015187558a989096019593840193016200057c565b909192935085600052886000208380870160051c8201928b881062000620575b9189918897969594930160051c01915b8281106200061057505062000123565b6000815587965089910162000600565b92508192620005f0565b602286634e487b7160e01b6000525260246000fd5b90607f16906200010c565b634e487b7160e01b600052604160045260246000fd5b015190503880620000dc565b90879350601f19831691856000528a6000209260005b8c828210620006bc5750508411620006a3575b505050811b018155620000ee565b015160001983861b60f8161c1916905538808062000695565b8385015186558b9790950194938401930162000682565b90915083600052886000208580850160051c8201928b86106200071f575b918991869594930160051c01915b8281106200070f575050620000c5565b60008155859450899101620006ff565b92508192620006f1565b634e487b7160e01b600052602260045260246000fd5b93607f1693620000ae565b600080fd5b601f909101601f19168101906001600160401b038211908210176200064a57604052565b6001600160401b0381116200064a57601f01601f191660200190565b919080601f840112156200074a57825190620007ab8262000773565b91620007bb60405193846200074f565b8083526020918282870101116200074a5760005b818110620007e557508260009394955001015290565b8581018301518482018401528201620007cf565b51906001600160a01b03821682036200074a57565b919082018092116200081c57565b634e487b7160e01b600052601160045260246000fd5b818102929181159184041417156200081c57565b811562000851570490565b634e487b7160e01b600052601260045260246000fd5b919082039182116200081c57565b80546001600160c01b031660c09290921b6001600160c01b031916919091179055565b60008051602062003ca38339815191526020600092620008bb856002546200080e565b6002556001600160a01b03169384158414620008e35780600254036002555b604051908152a3565b84845283825260408420818154019055620008da565b8054600160801b600160c01b03191660809290921b600160801b600160c01b0316919091179055565b6200092d8162000a5a565b1562000a575760018060a01b03166000526009602052620009b86040600020600d5462000961600283019182549062000867565b80620009ba575b505080546001600160401b03906200099c906200098c608082901c84164262000867565b906001600160801b031662000832565b620009ad600184019182546200080e565b9055421690620008f9565b565b600e54835462000a089162000a0190620009ec90608084901c6001600160401b0316908181111562000a4f5762000867565b6001870154926001600160801b031662000832565b906200080e565b8062000a1e575b5050600d549055388062000968565b670de0b6b3a76400009162000a339162000832565b0462000a45600384019182546200080e565b9055388062000a0f565b508062000867565b50565b6001600160a01b0390811690811562000ab25781600052600f60205260ff6040600020541662000ab25760055460081c16801515918262000aa7575b505062000aa257600190565b600090565b149050388062000a96565b5050600090565b62000ac48162000a5a565b1562000a57576001600160a01b03908116600081815260096020526040812092919062000af062000c94565b8181526020819052604081205484546001600160801b0390811680831094919391858062000c8a575b62000bff575b5082818111958660001462000bba575062000b4a92509062000b419162000867565b600c546200080e565b600c555b84546001600160801b0319169116178355426001600160401b03169162000b768385620008f9565b60ff6005541615918262000bb1575b508162000ba2575b5062000b97575050565b620009b89162000875565b905060a0511633143862000b8d565b91503862000b85565b62000bc9575b50505062000b4e565b62000bd49162000867565b600c5481811062000bf75762000beb925062000867565b600c5538808262000bc0565b505062000beb565b6001880180549162000c2962000c218562000c1b898762000832565b62000846565b809462000867565b600a5481811062000c50575062000c449150600a5462000867565b600a555b553862000b1f565b7fd5fc571c0f24626ceeb4a7223a10b7b571f3e6c810a1ec1991ba28b6494b06a19160409182519182526020820152a283600a5562000c48565b5081151562000b19565b62000ca2600b544262000867565b8015158062000cde575b62000cb9575b5042600b55565b62000ccb62000cd491600c5462000832565b600a546200080e565b600a553862000cb2565b50600c54151562000cac565b6000805260096020527fec8156718a8372b1db44bb411437d0870f3e3790d4a08526d024ce1b0b668f6b5460c01c801562000d625762000d2b904262000867565b61012c811062000d5b57610e10811062000d5457620151801162000d4e57600090565b6101f490565b506103e890565b506107d090565b50600090565b80516001101562000d795760400190565b634e487b7160e01b600052603260045260246000fd5b90815180825260208080930193019160005b82811062000db0575050505090565b83516001600160a01b03168552938101939281019260010162000da1565b60009060ff198060085416600181176008553084526020848152604090818620549283156200123a575081516001600160401b03966060820188811183821017620012265784526002825282820184368237825115620012125730905260065484516315ab88c960e31b81526004996001600160a01b03979290919088169086818d81855afa90811562001208578591620011c7575b508862000e718762000d68565b911690523015620011b05780156200119957308452600186528684208185528652828785205586518381527f8c5be1e5ebec7d5bd14f71427d1e84f3dd0314c0f7b2291e5b200ac8c7c3b925873092a3829387600654169487519563d06ca61f60e01b8752848d880152602496898882015286818062000ef5604482018862000d8f565b0381855afa879181620010e1575b50620010a1575b504794813b156200109d5790869291838f62000f4b8d519788968795869463791ac94760e01b86528501528d84015260a0604484015260a483019062000d8f565b30606483015242608483015203925af1918262001076575b505062000f7d575b50505050505090915060085416600855565b62000f89904762000867565b91821598891562000f9c575b5062000f6b565b6003840299848b0460031417156200106557505062000fc6600762000fd997989904809362000867565b948262000fe8575b505050505062001246565b81903880808080808062000f95565b818080858194608051165af1903d156200105e573d90620010098262000773565b9162001018875193846200074f565b8252843d92013e5b6200102e575b808062000fce565b7f693f9dbea0bdf9b70d480f9527e567d17ae3a41a5627c6515b034ac1869cf7a09251908152a138808062001026565b5062001020565b634e487b7160e01b83526011905281fd5b81949294116200108b57865291388062000f63565b634e487b7160e01b825260418b528482fd5b8680fd5b620010ae91925062000d68565b51605a810290808204605a1490151715620010cf5760649004903862000f0a565b634e487b7160e01b865260118d528686fd5b9091503d8089833e620010f581836200074f565b8101908a81830312620011915780519087821162001195570181601f82011215620011915780518781116200117d578c519291600582901b916200113c838f01866200074f565b84528c8085019282010192831162001179578c809101915b838310620011685750505050903862000f03565b82518152918101918d910162001154565b8a80fd5b508f8960418c92634e487b7160e01b835252fd5b8880fd5b8980fd5b8651634a1406b160e11b8152808c01859052602490fd5b865163e602df0560e01b8152808c01859052602490fd5b90508681813d831162001200575b620011e181836200074f565b81010312620011fc57620011f590620007f9565b3862000e64565b8480fd5b503d620011d5565b88513d87823e3d90fd5b634e487b7160e01b82526032600452602482fd5b634e487b7160e01b82526041600452602482fd5b94955050505050600855565b801562000a57576200125762000c94565b600a54801562001307576200127060105480936200080e565b91620012fc575b670de0b6b3a7640000918281029281840414811517156200081c57620012b060409260008051602062003c838339815191529462000846565b8015620012da57620012c590600d546200080e565b80600d5542600e5582519182526020820152a1565b50620012e9816010546200080e565b601055600d5482519182526020820152a1565b600060105562001277565b50604081620012e960008051602062003c83833981519152936010546200080e56fe6080604081815260049182361015610022575b505050361561002057600080fd5b005b600092833560e01c91826303fd2a45146114315750816304279349146113775781630445b6671461135857816306fdde031461128157816307c9bf2e14611248578163095ea7b31461121e57816313b9d47e146111ff57816318160ddd146111e05781631a0108ec146105855781631e4c7292146111ba57816323b872dd146110d05781632836be2414611053578163313ce5671461103757816331d7a2621461101157816347b12bfc14610ff55781634e71d92d14610f3a5781635b09004414610c5357816364229d6814610c3457816370a0823114610bfd5781637165485d14610bb9578163735de9f714610b90578163748747e614610b01578163902d55a514610adb57816395d89b41146109f557816398aecb67146109cf5781639d0014b1146109445781639d6eadc114610925578163a37a9fc014610585578163a47541ba146108dc578163a8355c8f14610817578163a9059cbb146108ab578163aced166114610882578163b78d053814610834578163bacf2a7b14610817578163bb103cbc146107fa578163c1db4015146107db578163c45a015514610797578163c463ecd71461077a578163c5f27b301461075b578163c5f509d614610735578163c7b1280114610622578163c816841b146105f5578163ca81eb66146105c8578163cba0e9961461058a578163ce91e16414610585578163d9019ae914610566578163dbb51d6e146104eb578163dd62ed3e146104a2578163e7c2b7721461047e578163f6ceefa214610284575063f8077fae146102635780610012565b34610280578160031936011261028057602090600e549051908152f35b5080fd5b8383346102805760208060031936011261047a576001600160401b0390843590828211610476573660238301121561047657818601359283116104765760059260243682861b8501820111610472576102db6126ce565b6011546001600160a01b039890891633036104445760968311610412575086938795885b84811061034a57897f0f80654923fb0c7f7a44c79b000dca8e52e2f4a16092a26ff31c0a410291d3318a8a8a8a8351928352820152a160016000805160206128e48339815191525580f35b8381839998991b840101358b81169081810361040e5761036981611d90565b156104005761037790611ce5565b808b526009875260038a8c2001988954998c8b156103f1578080808e818655875af16103a161189e565b50156103e1575090600080516020612864833981519152886103d06103ca8d6103dc97966114e3565b9b6126fe565b9b8d51908152a26126fe565b6102ff565b6103dc93925099909899556126fe565b5050979850506103dc906126fe565b50506103dc909796976126fe565b8b80fd5b600f6064928589519362461bcd60e51b85528401528201526e426174636820746f6f206c6172676560881b6044820152fd5b600b6064928589519362461bcd60e51b85528401528201526a27b7363c9035b2b2b832b960a91b6044820152fd5b8680fd5b8480fd5b8280fd5b50503461028057816003193601126102805760209060ff6005541690519015158152f35b505034610280578060031936011261028057806020926104c0611496565b6104c86114b1565b6001600160a01b0391821683526001865283832091168252845220549051908152f35b5050346102805760203660031901126102805760c09181906001600160a01b03610513611496565b168152600960205220908154916001810154600360028301549201549280519460018060801b038116865260018060401b038160801c166020870152861c908501526060840152608083015260a0820152f35b5050346102805781600319360112610280576020906012549051908152f35b6114c7565b5050346102805760203660031901126102805760209160ff9082906001600160a01b036105b5611496565b168152600f855220541690519015158152f35b505034610280576020366003190112610280576020906105ee6105e9611496565b612258565b9051908152f35b505034610280578160031936011261028057600554905160089190911c6001600160a01b03168152602090f35b9190503461047a578060031936011261047a5761063d611496565b916106466114b1565b6001600160a01b039161067c337f0000000000000000000000000000000000000000000000000000000000000000851614611865565b6005549060ff82166106fe57506001600160a81b031916600885901b610100600160a81b031617600117600555600680546001600160a01b03191691831691909117905591909116808352600f602052908220805460ff191690557fc5ca2014458d93c5cf9f836ff7ece45de01c929dfb16eed9d6c3329fa1fd09828280a280f35b606490602086519162461bcd60e51b83528201526011602482015270105b1c9958591e4819dc98591d585d1959607a1b6044820152fd5b505034610280576020366003190112610280576020906105ee610756611496565b6127c9565b505034610280578160031936011261028057602090600d549051908152f35b505034610280578160031936011261028057602090516103e88152f35b505034610280578160031936011261028057517f00000000000000000000000000000000000000000000000000000000000000006001600160a01b03168152602090f35b505034610280578160031936011261028057602090600a549051908152f35b505034610280578160031936011261028057602090516107d08152f35b505034610280578160031936011261028057602090516101f48152f35b838060031936011261087f57610874337f00000000000000000000000000000000000000000000000000000000000000006001600160a01b031614611865565b61087c6118dd565b80f35b80fd5b50503461028057816003193601126102805760115490516001600160a01b039091168152602090f35b5050346102805780600319360112610280576020906108d56108cb611496565b602435903361153f565b5160018152f35b838060031936011261087f5761091c337f00000000000000000000000000000000000000000000000000000000000000006001600160a01b031614611865565b61087c34612189565b505034610280578160031936011261028057602090600b549051908152f35b90503461047a57602036600319011261047a5780359161098e337f00000000000000000000000000000000000000000000000000000000000000006001600160a01b03161461194e565b821561099c57505060075580f35b906020606492519162461bcd60e51b8352820152600d60248201526c109859081d1a1c995cda1bdb19609a1b6044820152fd5b505034610280578160031936011261028057602090516aa56fa5b99019a5c80000008152f35b838334610280578160031936011261028057805191809380549160019083821c92828516948515610ad1575b6020958686108114610abe57858952908115610a9a5750600114610a5f575b610a5b8787610a51828c0383611506565b519182918261144d565b0390f35b9080949750528583205b828410610a875750505082610a5b94610a5192820101948680610a40565b8054868501880152928601928101610a69565b60ff19168887015250505050151560051b8301019250610a5182610a5b8680610a40565b634e487b7160e01b845260228352602484fd5b93607f1693610a21565b50503461028057816003193601126102805751676765c793fa10079d601b1b8152602090f35b833461087f57602036600319011261087f57610b1b611496565b6001600160a01b0390610b51337f000000000000000000000000000000000000000000000000000000000000000084161461194e565b816011549116809282167f53d3703fe259def57584466f32d1b94c30278008c683c21b04501c4966f13a698580a36001600160a01b0319161760115580f35b50503461028057816003193601126102805760065490516001600160a01b039091168152602090f35b505034610280578160031936011261028057517f00000000000000000000000000000000000000000000000000000000000000006001600160a01b03168152602090f35b5050346102805760203660031901126102805760209181906001600160a01b03610c25611496565b16815280845220549051908152f35b505034610280578160031936011261028057602090600c549051908152f35b8383346102805760208060031936011261047a578335916001600160a01b03917f000000000000000000000000000000000000000000000000000000000000000083811690610ca3338314611865565b8515978815610cb0578780f35b8215610f23578698610cc183611ce5565b610cc9611bb2565b6005549760ff9889811680610f17575b80610f03575b80610eed575b610d94575b5050505080610d028899610d07939996979899611a2a565b611f9d565b610d0f611dda565b6005548681169687610d87575b5086610d77575b505084610d61575b50505081610d53575b50610d46575b80828080808080808780f35b610d4e61231a565b610d3a565b905060065416151582610d34565b3082525283205460075411159150838381610d2b565b60081c8516141594508680610d23565b6008541615965088610d1c565b60081c88168581149261dead92918314848015610ee6575b610db8575b5050610cea565b90919293949c508b90610ed7575b6101f4908101809111610ec457610de390612710918291856119c7565b049160968402908482046096141715610eb0578c9d506060610d079796948a8c9d9e9f809d610e43610d029a988e986000805160206128c48339815191529804958d8780610ea0575b610e3690846119fa565b80610e8e575b50506119fa565b98610e69575b915050519081528b8b8201528b8d820152a3999897969582938c80610db1565b878252600990925220610e8690426001600160401b031690611a07565b8a8c8e610e49565b610e99913090611ac5565b8d38610e3c565b610ea991611a2a565b8d87610e2c565b50634e487b7160e01b8c5260118d5260248cfd5b634e487b7160e01b8c5260118d5260248cfd5b50610ee185612258565b610dc6565b5080610dac565b5061dead8b52600f875289888c20541615610ce5565b50858b52600f875289888c20541615610cdf565b50896008541615610cd9565b8451634b637e8f60e11b8152908101889052602490fd5b9190503461047a578260031936011261047a57610f556126ce565b610f5e33611ce5565b33835260096020526003818420018054928315610fbf5750839055610f928380808086335af1610f8c61189e565b50611989565b5190815260008051602061286483398151915260203392a260016000805160206128e48339815191525580f35b606490602084519162461bcd60e51b8352820152601060248201526f4e6f7468696e6720746f20636c61696d60801b6044820152fd5b5050346102805781600319360112610280576020905160c88152f35b505034610280576020366003190112610280576020906105ee611032611496565b61270d565b5050346102805781600319360112610280576020905160128152f35b50503461028057806003193601126102805761106d611496565b90602435918215158093036110cc576001600160a01b03906110b2337f000000000000000000000000000000000000000000000000000000000000000084161461194e565b168352600f60205282209060ff8019835416911617905580f35b8380fd5b9050823461087f57606036600319011261087f576110ec611496565b6110f46114b1565b916044359360018060a01b038316808352600160205286832033845260205286832054916000198310611130575b6020886108d589898961153f565b86831061119857811561118157331561116a575082526001602090815286832033845281529186902090859003905582906108d587611122565b8751634a1406b160e11b8152908101849052602490fd5b875163e602df0560e01b8152908101849052602490fd5b90506111b6868851938493637dc7a0d960e11b855233908501611847565b0390fd5b505034610280578160031936011261028057516714adf4b7320334b9601d1b8152602090f35b5050346102805781600319360112610280576020906002549051908152f35b5050346102805781600319360112610280576020906010549051908152f35b5050346102805780600319360112610280576020906108d561123e611496565b60243590336117b4565b5050346102805781600319360112610280576020906105ee61126c600b54426119fa565b61127b600a5491600c546119c7565b906114e3565b9190503461047a578260031936011261047a57805191836003549060019082821c92828116801561134e575b602095868610821461133b575084885290811561131957506001146112de575b610a5b8686610a51828b0383611506565b929550600383528583205b8284106113065750505082610a5b94610a519282010194386112cd565b80548685018801529286019281016112e9565b60ff191687860152505050151560051b8301019250610a5182610a5b386112cd565b634e487b7160e01b845260229052602483fd5b93607f16936112ad565b5050346102805781600319360112610280576020906007549051908152f35b9190503461047a578260031936011261047a577f00000000000000000000000000000000000000000000000000000000000000006001600160a01b03166113bf33821461194e565b6012549283156113fc5750916020916113f4858080808660008051602061282483398151915299826012555af1610f8c61189e565b51908152a180f35b606490602084519162461bcd60e51b8352820152600f60248201526e4e6f7468696e672070656e64696e6760881b6044820152fd5b8490346102805781600319360112610280578061dead60209252f35b6020808252825181830181905290939260005b82811061148257505060409293506000838284010152601f8019910116010190565b818101860151848201604001528501611460565b600435906001600160a01b03821682036114ac57565b600080fd5b602435906001600160a01b03821682036114ac57565b346114ac5760003660031901126114ac57602060405160968152f35b919082018092116114f057565b634e487b7160e01b600052601160045260246000fd5b601f909101601f19168101906001600160401b0382119082101761152957604052565b634e487b7160e01b600052604160045260246000fd5b6001600160a01b0392918382169190821561179b5784811691821561178257849261156982611ce5565b61157283611ce5565b600554958760ff9788811680611776575b8061175e575b80611746575b611625575b5050505080610d026115aa9484610d0294611ac5565b6005548281169283611618575b5082611608575b505090816115ec575b816115de575b506115d457565b6115dc61231a565b565b9050600654161515386115cd565b90503060005260006020526040600020546007541115906115c7565b60081c83161415905038806115be565b60085416159250386115b7565b60081c168281149190871480801561173f575b611645575b899150611594565b90919392955060009361172e575b6101f49384018094116114f05761167093612710948591846119c7565b049560968302838104609614841517156114f0576000805160206128c48339815191526060610d02956116c46115aa9b610d029a8e9604928361171f575b6116b884836119fa565b8061170e575b506119fa565b956116e7575b6040519081526000602082015260006040820152a394829361163d565b600085815260096020526040902061170990426001600160401b031690611a07565b6116ca565b61171990308d611ac5565b386116be565b611729848c611a2a565b6116ae565b925061173982612258565b92611653565b5082611638565b5083600052600f60205288604060002054161561158f565b5087600052600f602052886040600020541615611589565b50886008541615611583565b60405163ec442f0560e01b815260006004820152602490fd5b604051634b637e8f60e11b815260006004820152602490fd5b6001600160a01b0390811691821561182e57169182156118155760207f8c5be1e5ebec7d5bd14f71427d1e84f3dd0314c0f7b2291e5b200ac8c7c3b925918360005260018252604060002085600052825280604060002055604051908152a3565b604051634a1406b160e11b815260006004820152602490fd5b60405163e602df0560e01b815260006004820152602490fd5b604091949392606082019560018060a01b0316825260208201520152565b1561186c57565b60405162461bcd60e51b815260206004820152600a6024820152694f6e6c7920637572766560b01b6044820152606490fd5b3d156118d8573d906001600160401b03821161152957604051916118cc601f8201601f191660200184611506565b82523d6000602084013e565b606090565b34156115dc576000808080347f00000000000000000000000000000000000000000000000000000000000000006001600160a01b03165af161191d61189e565b501561193d576000805160206128248339815191526020604051348152a1565b611949346012546114e3565b601255565b1561195557565b60405162461bcd60e51b815260206004820152600c60248201526b4f6e6c7920666163746f727960a01b6044820152606490fd5b1561199057565b60405162461bcd60e51b815260206004820152600f60248201526e115512081cd95b990819985a5b1959608a1b6044820152606490fd5b818102929181159184041417156114f057565b81156119e4570490565b634e487b7160e01b600052601260045260246000fd5b919082039182116114f057565b80546001600160c01b031660c09290921b6001600160c01b031916919091179055565b6001600160a01b0381169081611a7c5750611a47826002546114e3565b6002555b6000805160206128a4833981519152602061dead9384600052600082526040600020818154019055604051908152a3565b60009082825281602052604082205490848210611aa85750836040918484528360205203912055611a4b565b6111b68560405193849363391434e360e21b855260048501611847565b6001600160a01b0380821692909183611b2d57506000805160206128a483398151915291602091611af8866002546114e3565b6002555b169384611b155780600254036002555b604051908152a3565b84600052600082526040600020818154019055611b0c565b60009084825281602052604082205490868210611b6c57509181604087602095886000805160206128a483398151915298965283875203912055611afc565b6111b68760405193849363391434e360e21b855260048501611847565b8054600160801b600160c01b03191660809290921b600160801b600160c01b0316919091179055565b611bba611d21565b156115dc5761dead6000526009602052600d547f960b1051749987b45b5679007fff577a1c2f763ec21c15a6c5eb19307500378780546115dc926000805160206128448339815191529291611c0e916119fa565b80611c5d575b505080546001600160401b0390611c4490611c35608082901c8416426119fa565b906001600160801b03166119c7565b611c53600184019182546114e3565b9055421690611b89565b600e548354611c9e9161127b90611c8a90608084901c6001600160401b03169081811115611cde576119fa565b6001870154926001600160801b03166119c7565b80611cb2575b5050600d5490553880611c14565b670de0b6b3a764000091611cc5916119c7565b04611cd5600384019182546114e3565b90553880611ca4565b50806119fa565b611cee81611d90565b15611d1e5760018060a01b031660005260096020526115dc6040600020600d54611c0e60028301918254906119fa565b50565b61dead6000819052600f6020527f99629f56119585bf27511b6b7d295dffb54757453fcc3dabcf51d92028301f105460ff16611d8a5760055460081c6001600160a01b03168015159182611d80575b5050611d7b57600190565b600090565b1490503880611d70565b50600090565b6001600160a01b03908116908115611dd35781600052600f60205260ff60406000205416611dd35760055460081c168015159182611d80575050611d7b57600190565b5050600090565b611de2611d21565b156115dc5761dead600081815260096020526000805160206128448339815191529190611e0d61213d565b8181526020819052604081205483546001600160801b03908116808310949193918580611f94575b611f26575b50828181119586600014611eea5750611e60925090611e58916119fa565b600c546114e3565b600c555b83546001600160801b0319169116178255426001600160401b031690611e8a8284611b89565b60ff60055416159081611ee2575b5080611eb0575b611ea7575050565b6115dc91611a07565b50337f00000000000000000000000000000000000000000000000000000000000000006001600160a01b031614611e9f565b905038611e98565b611ef7575b505050611e64565b611f00916119fa565b600c54818110611f1f57611f1492506119fa565b600c55388082611eef565b5050611f14565b60018701805491611f4a611f4385611f3e89876119c7565b6119da565b80946119fa565b600a54818110611f6d5750611f629150600a546119fa565b600a555b5538611e3a565b6000805160206129048339815191529160409182519182526020820152a283600a55611f66565b50811515611e35565b611fa681611d90565b15611d1e576001600160a01b039081166000818152600960205260408120929190611fcf61213d565b8181526020819052604081205484546001600160801b03908116808310949193918580612134575b6120d2575b50828181119586600014612096575061201a925090611e58916119fa565b600c555b84546001600160801b0319169116178355426001600160401b0316916120448385611b89565b60ff6005541615918261208e575b5081612062575b50611ea7575050565b90507f000000000000000000000000000000000000000000000000000000000000000016331438612059565b915038612052565b6120a3575b50505061201e565b6120ac916119fa565b600c548181106120cb576120c092506119fa565b600c5538808261209b565b50506120c0565b600188018054916120ea611f4385611f3e89876119c7565b600a5481811061210d57506121029150600a546119fa565b600a555b5538611ffc565b6000805160206129048339815191529160409182519182526020820152a283600a55612106565b50811515611ff7565b612149600b54426119fa565b8015158061217e575b61215e575b5042600b55565b61216d61217591600c546119c7565b600a546114e3565b600a5538612157565b50600c541515612152565b8015611d1e5761219761213d565b600a548015612239576121ad60105480936114e3565b9161222f575b670de0b6b3a7640000918281029281840414811517156114f0576121e8604092600080516020612884833981519152946119da565b801561220f576121fa90600d546114e3565b80600d5542600e5582519182526020820152a1565b5061221c816010546114e3565b601055600d5482519182526020820152a1565b60006010556121b3565b5060408161221c600080516020612884833981519152936010546114e3565b6001600160a01b031660009081526009602052604090205460c01c8015611d8a5761228390426119fa565b61012c81106122b057610e1081106122a95762015180116122a357600090565b6101f490565b506103e890565b506107d090565b8051600110156122c75760400190565b634e487b7160e01b600052603260045260246000fd5b90815180825260208080930193019160005b8281106122fd575050505090565b83516001600160a01b0316855293810193928101926001016122ef565b60009060ff198060085416600181176008553084526020848152604090818620549283156126c2575081516001600160401b039660608201888111838210176126ae578452600282528282018436823782511561269a5730905260065484516315ab88c960e31b81526004996001600160a01b03979290919088169086818d81855afa908115612690579084918691612654575b50916123c8928a6123be896122b7565b91169052306117b4565b829387600654169487519563d06ca61f60e01b8752848d88015260249689888201528681806123fa60448201886122dd565b0381855afa8791816125a8575b5061256c575b504794813b156104725790869291838f61244b8d519788968795869463791ac94760e01b86528501528d84015260a0604484015260a48301906122dd565b30606483015242608483015203925af19182612547575b505061247b575b50505050505090915060085416600855565b61248590476119fa565b918215988915612496575b50612469565b6003840299848b0460031417156125365750506124bc60076124cd9798990480936119fa565b94826124db575b5050505050612189565b819038808080808080612490565b81808481937f0000000000000000000000000000000000000000000000000000000000000000165af161250c61189e565b50612519575b80806124c3565b6000805160206128248339815191529251908152a1388080612512565b634e487b7160e01b83526011905281fd5b819492941161255a578652913880612462565b634e487b7160e01b825260418b528482fd5b6125779192506122b7565b51605a810290808204605a14901517156125965760649004903861240d565b634e487b7160e01b865260118d528686fd5b9091503d8089833e6125ba8183611506565b8101908a8183031261264c57805190878211612650570181601f8201121561264c578051878111612638578c519291600582901b916125fb838f0186611506565b84528c80850192820101928311612634578c809101915b83831061262457505050509038612407565b82518152918101918d9101612612565b8a80fd5b508f8960418c92634e487b7160e01b835252fd5b8880fd5b8980fd5b809250888092503d8311612689575b61266d8183611506565b81010312610476575188811681036104765783906123c86123ae565b503d612663565b88513d87823e3d90fd5b634e487b7160e01b82526032600452602482fd5b634e487b7160e01b82526041600452602482fd5b94955050505050600855565b6000805160206128e483398151915260028154146126ec5760029055565b604051633ee5aeb560e01b8152600490fd5b60001981146114f05760010190565b61271681611d90565b15611d8a5760018060a01b031660005260096020526127586040600020612744600d546002830154906119fa565b906000918061275b575b50600301546114e3565b90565b600e54825461279c9161127b9061278890608084901c6001600160401b03169081811115611cde576119fa565b6001860154926001600160801b03166119c7565b806127a8575b5061274e565b6003929350670de0b6b3a7640000916127c0916119c7565b049190386127a2565b6127d281611d90565b15611d8a576001600160a01b0316600090815260096020526040902080546127589161127b906001612811608085901c6001600160401b0316426119fa565b910154926001600160801b03166119c756fe693f9dbea0bdf9b70d480f9527e567d17ae3a41a5627c6515b034ac1869cf7a0960b1051749987b45b5679007fff577a1c2f763ec21c15a6c5eb193075003785fc30cddea38e2bf4d6ea7d3f9ed3b6ad7f176419f4963bd81318067a4aee73fe8ad0c4905aa5603107e860e0c2b1a78e23eba312c30f8114a70d94d9e187f5afddf252ad1be2c89b69c2b068fc378daa952ba7f163c4a11628f55a4df523b3efe9bc91a33ddf896d889747b2f39f4192c802fd62364780086853fcd8e19e8ffa9b779b17422d0df92223018b32b4d1fa46e071723d6817e2486d003becc55f00d5fc571c0f24626ceeb4a7223a10b7b571f3e6c810a1ec1991ba28b6494b06a1a2646970667358221220704a752f9b60fc48927c334b163f29f01fc177ea4837fdfeb3cb57481bdb557864736f6c634300081400338ad0c4905aa5603107e860e0c2b1a78e23eba312c30f8114a70d94d9e187f5afddf252ad1be2c89b69c2b068fc378daa952ba7f163c4a11628f55a4df523b3ef","opcodes":"PUSH1 0xC0 PUSH1 0x40 SWAP1 DUP1 DUP3 MSTORE CALLVALUE PUSH3 0x74A JUMPI PUSH3 0x3CC3 DUP1 CODESIZE SUB DUP1 SWAP2 PUSH3 0x22 DUP3 DUP6 PUSH3 0x74F JUMP JUMPDEST DUP4 CODECOPY DUP2 ADD SWAP1 PUSH1 0x80 DUP2 DUP4 SUB SLT PUSH3 0x74A JUMPI DUP1 MLOAD PUSH1 0x1 PUSH1 0x1 PUSH1 0x40 SHL SUB SWAP3 SWAP1 DUP4 DUP2 GT PUSH3 0x74A JUMPI DUP2 PUSH3 0x54 SWAP2 DUP5 ADD PUSH3 0x78F JUMP JUMPDEST PUSH1 0x20 SWAP2 DUP3 DUP5 ADD MLOAD SWAP1 DUP6 DUP3 GT PUSH3 0x74A JUMPI PUSH3 0x71 SWAP2 DUP6 ADD PUSH3 0x78F JUMP JUMPDEST SWAP1 PUSH3 0x8D PUSH1 0x60 PUSH3 0x85 DUP9 DUP8 ADD PUSH3 0x7F9 JUMP JUMPDEST SWAP6 ADD PUSH3 0x7F9 JUMP JUMPDEST SWAP2 DUP2 MLOAD DUP7 DUP2 GT PUSH3 0x64A JUMPI PUSH1 0x3 DUP1 SLOAD SWAP2 PUSH1 0x1 SWAP5 DUP6 DUP5 DUP2 SHR SWAP5 AND DUP1 ISZERO PUSH3 0x73F JUMPI JUMPDEST DUP9 DUP6 LT EQ PUSH3 0x729 JUMPI DUP2 SWAP1 PUSH1 0x1F SWAP5 DUP6 DUP2 GT PUSH3 0x6D3 JUMPI JUMPDEST POP DUP9 SWAP1 DUP6 DUP4 GT PUSH1 0x1 EQ PUSH3 0x66C JUMPI PUSH1 0x0 SWAP3 PUSH3 0x660 JUMPI JUMPDEST POP POP PUSH1 0x0 NOT DUP3 DUP5 SHL SHR NOT AND SWAP1 DUP6 SHL OR DUP2 SSTORE JUMPDEST DUP3 MLOAD SWAP2 DUP9 DUP4 GT PUSH3 0x64A JUMPI PUSH1 0x4 SWAP4 DUP5 SLOAD DUP7 DUP2 DUP2 SHR SWAP2 AND DUP1 ISZERO PUSH3 0x63F JUMPI JUMPDEST DUP10 DUP3 LT EQ PUSH3 0x62A JUMPI SWAP1 DUP2 DUP4 DUP7 SWAP6 SWAP5 SWAP4 GT PUSH3 0x5D0 JUMPI JUMPDEST POP DUP9 SWAP2 DUP5 GT PUSH1 0x1 EQ PUSH3 0x565 JUMPI PUSH1 0x0 SWAP4 PUSH3 0x559 JUMPI JUMPDEST POP POP DUP3 DUP6 SHL SWAP3 PUSH1 0x0 NOT SWAP2 SHL SHR NOT AND OR DUP2 SSTORE JUMPDEST DUP2 PUSH32 0x9B779B17422D0DF92223018B32B4D1FA46E071723D6817E2486D003BECC55F00 SSTORE PUSH10 0x152D02C7E14AF6800000 PUSH1 0x7 SSTORE DUP5 PUSH1 0x80 MSTORE DUP3 PUSH1 0xA0 MSTORE PUSH1 0x1 DUP1 PUSH1 0xA0 SHL SUB SWAP5 DUP6 DUP5 AND SWAP1 DUP2 PUSH1 0x0 MSTORE PUSH1 0xF DUP7 MSTORE DUP7 DUP10 PUSH1 0x0 KECCAK256 SWAP2 PUSH1 0xFF NOT SWAP3 DUP7 DUP5 DUP3 SLOAD AND OR SWAP1 SSTORE AND PUSH1 0x0 MSTORE DUP9 PUSH1 0x0 KECCAK256 DUP5 DUP3 DUP3 SLOAD AND OR SWAP1 SSTORE PUSH2 0xDEAD SWAP4 DUP5 PUSH1 0x0 MSTORE DUP10 PUSH1 0x0 KECCAK256 DUP2 DUP4 DUP3 SLOAD AND OR SWAP1 SSTORE ADDRESS PUSH1 0x0 MSTORE DUP10 PUSH1 0x0 KECCAK256 DUP2 DUP4 DUP3 SLOAD AND OR SWAP1 SSTORE PUSH1 0x0 DUP1 MSTORE DUP10 PUSH1 0x0 KECCAK256 SWAP2 DUP3 SLOAD AND OR SWAP1 SSTORE TIMESTAMP PUSH1 0xB SSTORE DUP1 ISZERO PUSH3 0x542 JUMPI PUSH12 0x33B2E3C9FD0803CE8000000 SWAP3 PUSH3 0x211 DUP6 PUSH3 0x922 JUMP JUMPDEST PUSH1 0x5 SLOAD SWAP8 DUP8 PUSH1 0xFF SWAP10 DUP11 DUP2 AND DUP1 PUSH3 0x535 JUMPI JUMPDEST DUP1 PUSH3 0x51E JUMPI JUMPDEST DUP1 PUSH3 0x507 JUMPI JUMPDEST PUSH3 0x34D JUMPI JUMPDEST POP POP POP POP POP POP SWAP1 PUSH3 0x24E PUSH3 0x254 SWAP3 DUP3 PUSH3 0x898 JUMP JUMPDEST PUSH3 0xAB9 JUMP JUMPDEST PUSH1 0x5 SLOAD DUP4 DUP2 AND SWAP4 DUP5 PUSH3 0x33F JUMPI JUMPDEST POP DUP4 PUSH3 0x32F JUMPI JUMPDEST POP DUP3 PUSH3 0x314 JUMPI JUMPDEST POP DUP2 PUSH3 0x305 JUMPI JUMPDEST POP PUSH3 0x2F5 JUMPI JUMPDEST MLOAD PUSH2 0x2959 SWAP1 DUP2 PUSH3 0x132A DUP3 CODECOPY PUSH1 0x80 MLOAD DUP2 DUP2 DUP2 PUSH2 0x7AC ADD MSTORE DUP2 DUP2 PUSH2 0x960 ADD MSTORE DUP2 DUP2 PUSH2 0xB2A ADD MSTORE DUP2 DUP2 PUSH2 0x108B ADD MSTORE DUP2 DUP2 PUSH2 0x138C ADD MSTORE DUP2 DUP2 PUSH2 0x18EB ADD MSTORE PUSH2 0x24E2 ADD MSTORE PUSH1 0xA0 MLOAD DUP2 DUP2 DUP2 PUSH2 0x655 ADD MSTORE DUP2 DUP2 PUSH2 0x846 ADD MSTORE DUP2 DUP2 PUSH2 0x8EE ADD MSTORE DUP2 DUP2 PUSH2 0xBCE ADD MSTORE DUP2 DUP2 PUSH2 0xC75 ADD MSTORE DUP2 DUP2 PUSH2 0x1EB4 ADD MSTORE PUSH2 0x2066 ADD MSTORE RETURN JUMPDEST PUSH3 0x2FF PUSH3 0xDCE JUMP JUMPDEST PUSH3 0x281 JUMP JUMPDEST SWAP1 POP PUSH1 0x6 SLOAD AND ISZERO ISZERO CODESIZE PUSH3 0x27A JUMP JUMPDEST PUSH1 0x0 SWAP2 SWAP3 POP ADDRESS DUP3 MSTORE MSTORE DUP2 PUSH1 0x0 KECCAK256 SLOAD PUSH1 0x7 SLOAD GT ISZERO SWAP1 CODESIZE PUSH3 0x272 JUMP JUMPDEST PUSH1 0x8 SHR DUP3 AND ISZERO ISZERO SWAP3 POP CODESIZE PUSH3 0x26A JUMP JUMPDEST PUSH1 0x8 SLOAD AND ISZERO SWAP4 POP CODESIZE PUSH3 0x262 JUMP JUMPDEST PUSH1 0x8 SHR AND SWAP4 DUP5 ISZERO SWAP5 DUP5 EQ DUP6 DUP7 ISZERO PUSH3 0x4FF JUMPI JUMPDEST PUSH3 0x36F JUMPI JUMPDEST DUP10 SWAP2 POP PUSH3 0x237 JUMP JUMPDEST PUSH1 0x0 SWAP7 SWAP3 SWAP4 SWAP5 SWAP6 SWAP7 SWAP1 PUSH3 0x4EE JUMPI JUMPDEST PUSH2 0x1F4 SWAP1 DUP2 ADD DUP1 SWAP2 GT PUSH3 0x4D9 JUMPI DUP1 DUP4 MUL SWAP1 DUP4 DUP3 DIV SUB PUSH3 0x4D9 JUMPI PUSH2 0x2710 SWAP1 DIV PUSH1 0x2 SLOAD SWAP5 PUSH11 0xC685FA11E01EC6F000000 SWAP6 DUP7 DUP2 ADD DUP1 SWAP2 GT PUSH3 0x4C4 JUMPI PUSH1 0x0 DUP1 MLOAD PUSH1 0x20 PUSH3 0x3CA3 DUP4 CODECOPY DUP2 MLOAD SWAP2 MSTORE DUP12 DUP16 PUSH1 0x0 SWAP4 PUSH1 0x2 SSTORE DUP5 DUP5 MSTORE DUP4 DUP3 MSTORE DUP1 DUP5 KECCAK256 DUP11 DUP2 SLOAD ADD SWAP1 SSTORE MLOAD DUP10 DUP2 MSTORE LOG3 PUSH11 0xC685FA11E01EC6EFFFFFF NOT DUP2 ADD DUP2 DUP2 GT PUSH3 0x4AF JUMPI DUP1 PUSH3 0x49C JUMPI JUMPDEST POP DUP3 SUB SWAP2 DUP3 GT PUSH3 0x487 JUMPI POP PUSH32 0xE9BC91A33DDF896D889747B2F39F4192C802FD62364780086853FCD8E19E8FFA PUSH1 0x60 PUSH3 0x254 SWAP8 SWAP7 SWAP5 PUSH3 0x24E SWAP7 SWAP5 DUP14 PUSH1 0x0 SWAP6 SWAP8 PUSH3 0x468 JUMPI JUMPDEST SWAP1 POP MLOAD SWAP1 DUP2 MSTORE DUP4 DUP11 DUP3 ADD MSTORE DUP4 DUP14 DUP3 ADD MSTORE LOG3 SWAP2 SWAP3 CODESIZE DUP1 DUP1 DUP1 PUSH3 0x366 JUMP JUMPDEST PUSH3 0x47F SWAP2 DUP8 DUP8 MSTORE PUSH1 0x9 DUP14 MSTORE TIMESTAMP AND SWAP1 DUP7 KECCAK256 PUSH3 0x875 JUMP JUMPDEST CODESIZE DUP14 PUSH3 0x44B JUMP JUMPDEST PUSH1 0x11 SWAP1 PUSH4 0x4E487B71 PUSH1 0xE0 SHL PUSH1 0x0 MSTORE MSTORE PUSH1 0x24 PUSH1 0x0 REVERT JUMPDEST PUSH3 0x4A8 SWAP1 ADDRESS PUSH3 0x898 JUMP JUMPDEST CODESIZE PUSH3 0x404 JUMP JUMPDEST PUSH1 0x11 DUP4 PUSH4 0x4E487B71 PUSH1 0xE0 SHL PUSH1 0x0 MSTORE MSTORE PUSH1 0x24 PUSH1 0x0 REVERT JUMPDEST PUSH1 0x11 DUP5 PUSH4 0x4E487B71 PUSH1 0xE0 SHL PUSH1 0x0 MSTORE MSTORE PUSH1 0x24 PUSH1 0x0 REVERT JUMPDEST PUSH1 0x11 DUP3 PUSH4 0x4E487B71 PUSH1 0xE0 SHL PUSH1 0x0 MSTORE MSTORE PUSH1 0x24 PUSH1 0x0 REVERT JUMPDEST POP PUSH3 0x4F9 PUSH3 0xCEA JUMP JUMPDEST PUSH3 0x37E JUMP JUMPDEST POP DUP1 PUSH3 0x360 JUMP JUMPDEST POP DUP5 PUSH1 0x0 MSTORE PUSH1 0xF DUP10 MSTORE DUP11 DUP13 PUSH1 0x0 KECCAK256 SLOAD AND ISZERO PUSH3 0x231 JUMP JUMPDEST POP PUSH1 0x0 DUP1 MSTORE PUSH1 0xF DUP10 MSTORE DUP11 DUP13 PUSH1 0x0 KECCAK256 SLOAD AND ISZERO PUSH3 0x22A JUMP JUMPDEST POP DUP11 PUSH1 0x8 SLOAD AND ISZERO PUSH3 0x223 JUMP JUMPDEST DUP8 MLOAD PUSH4 0xEC442F05 PUSH1 0xE0 SHL DUP2 MSTORE PUSH1 0x0 DUP2 DUP5 ADD MSTORE PUSH1 0x24 SWAP1 REVERT JUMPDEST ADD MLOAD SWAP2 POP CODESIZE DUP1 PUSH3 0x139 JUMP JUMPDEST SWAP2 SWAP1 DUP7 SWAP5 POP PUSH1 0x1F NOT DUP5 AND SWAP3 DUP7 PUSH1 0x0 MSTORE DUP10 PUSH1 0x0 KECCAK256 SWAP4 PUSH1 0x0 JUMPDEST DUP12 DUP3 DUP3 LT PUSH3 0x5B9 JUMPI POP POP DUP6 GT PUSH3 0x59E JUMPI JUMPDEST POP POP POP POP DUP2 SHL ADD DUP2 SSTORE PUSH3 0x14B JUMP JUMPDEST ADD MLOAD SWAP1 PUSH1 0xF8 DUP5 PUSH1 0x0 NOT SWAP3 SHL AND SHR NOT AND SWAP1 SSTORE CODESIZE DUP1 DUP1 DUP1 PUSH3 0x58F JUMP JUMPDEST DUP4 DUP6 ADD MLOAD DUP8 SSTORE DUP11 SWAP9 SWAP1 SWAP7 ADD SWAP6 SWAP4 DUP5 ADD SWAP4 ADD PUSH3 0x57C JUMP JUMPDEST SWAP1 SWAP2 SWAP3 SWAP4 POP DUP6 PUSH1 0x0 MSTORE DUP9 PUSH1 0x0 KECCAK256 DUP4 DUP1 DUP8 ADD PUSH1 0x5 SHR DUP3 ADD SWAP3 DUP12 DUP9 LT PUSH3 0x620 JUMPI JUMPDEST SWAP2 DUP10 SWAP2 DUP9 SWAP8 SWAP7 SWAP6 SWAP5 SWAP4 ADD PUSH1 0x5 SHR ADD SWAP2 JUMPDEST DUP3 DUP2 LT PUSH3 0x610 JUMPI POP POP PUSH3 0x123 JUMP JUMPDEST PUSH1 0x0 DUP2 SSTORE DUP8 SWAP7 POP DUP10 SWAP2 ADD PUSH3 0x600 JUMP JUMPDEST SWAP3 POP DUP2 SWAP3 PUSH3 0x5F0 JUMP JUMPDEST PUSH1 0x22 DUP7 PUSH4 0x4E487B71 PUSH1 0xE0 SHL PUSH1 0x0 MSTORE MSTORE PUSH1 0x24 PUSH1 0x0 REVERT JUMPDEST SWAP1 PUSH1 0x7F AND SWAP1 PUSH3 0x10C JUMP JUMPDEST PUSH4 0x4E487B71 PUSH1 0xE0 SHL PUSH1 0x0 MSTORE PUSH1 0x41 PUSH1 0x4 MSTORE PUSH1 0x24 PUSH1 0x0 REVERT JUMPDEST ADD MLOAD SWAP1 POP CODESIZE DUP1 PUSH3 0xDC JUMP JUMPDEST SWAP1 DUP8 SWAP4 POP PUSH1 0x1F NOT DUP4 AND SWAP2 DUP6 PUSH1 0x0 MSTORE DUP11 PUSH1 0x0 KECCAK256 SWAP3 PUSH1 0x0 JUMPDEST DUP13 DUP3 DUP3 LT PUSH3 0x6BC JUMPI POP POP DUP5 GT PUSH3 0x6A3 JUMPI JUMPDEST POP POP POP DUP2 SHL ADD DUP2 SSTORE PUSH3 0xEE JUMP JUMPDEST ADD MLOAD PUSH1 0x0 NOT DUP4 DUP7 SHL PUSH1 0xF8 AND SHR NOT AND SWAP1 SSTORE CODESIZE DUP1 DUP1 PUSH3 0x695 JUMP JUMPDEST DUP4 DUP6 ADD MLOAD DUP7 SSTORE DUP12 SWAP8 SWAP1 SWAP6 ADD SWAP5 SWAP4 DUP5 ADD SWAP4 ADD PUSH3 0x682 JUMP JUMPDEST SWAP1 SWAP2 POP DUP4 PUSH1 0x0 MSTORE DUP9 PUSH1 0x0 KECCAK256 DUP6 DUP1 DUP6 ADD PUSH1 0x5 SHR DUP3 ADD SWAP3 DUP12 DUP7 LT PUSH3 0x71F JUMPI JUMPDEST SWAP2 DUP10 SWAP2 DUP7 SWAP6 SWAP5 SWAP4 ADD PUSH1 0x5 SHR ADD SWAP2 JUMPDEST DUP3 DUP2 LT PUSH3 0x70F JUMPI POP POP PUSH3 0xC5 JUMP JUMPDEST PUSH1 0x0 DUP2 SSTORE DUP6 SWAP5 POP DUP10 SWAP2 ADD PUSH3 0x6FF JUMP JUMPDEST SWAP3 POP DUP2 SWAP3 PUSH3 0x6F1 JUMP JUMPDEST PUSH4 0x4E487B71 PUSH1 0xE0 SHL PUSH1 0x0 MSTORE PUSH1 0x22 PUSH1 0x4 MSTORE PUSH1 0x24 PUSH1 0x0 REVERT JUMPDEST SWAP4 PUSH1 0x7F AND SWAP4 PUSH3 0xAE JUMP JUMPDEST PUSH1 0x0 DUP1 REVERT JUMPDEST PUSH1 0x1F SWAP1 SWAP2 ADD PUSH1 0x1F NOT AND DUP2 ADD SWAP1 PUSH1 0x1 PUSH1 0x1 PUSH1 0x40 SHL SUB DUP3 GT SWAP1 DUP3 LT OR PUSH3 0x64A JUMPI PUSH1 0x40 MSTORE JUMP JUMPDEST PUSH1 0x1 PUSH1 0x1 PUSH1 0x40 SHL SUB DUP2 GT PUSH3 0x64A JUMPI PUSH1 0x1F ADD PUSH1 0x1F NOT AND PUSH1 0x20 ADD SWAP1 JUMP JUMPDEST SWAP2 SWAP1 DUP1 PUSH1 0x1F DUP5 ADD SLT ISZERO PUSH3 0x74A JUMPI DUP3 MLOAD SWAP1 PUSH3 0x7AB DUP3 PUSH3 0x773 JUMP JUMPDEST SWAP2 PUSH3 0x7BB PUSH1 0x40 MLOAD SWAP4 DUP5 PUSH3 0x74F JUMP JUMPDEST DUP1 DUP4 MSTORE PUSH1 0x20 SWAP2 DUP3 DUP3 DUP8 ADD ADD GT PUSH3 0x74A JUMPI PUSH1 0x0 JUMPDEST DUP2 DUP2 LT PUSH3 0x7E5 JUMPI POP DUP3 PUSH1 0x0 SWAP4 SWAP5 SWAP6 POP ADD ADD MSTORE SWAP1 JUMP JUMPDEST DUP6 DUP2 ADD DUP4 ADD MLOAD DUP5 DUP3 ADD DUP5 ADD MSTORE DUP3 ADD PUSH3 0x7CF JUMP JUMPDEST MLOAD SWAP1 PUSH1 0x1 PUSH1 0x1 PUSH1 0xA0 SHL SUB DUP3 AND DUP3 SUB PUSH3 0x74A JUMPI JUMP JUMPDEST SWAP2 SWAP1 DUP3 ADD DUP1 SWAP3 GT PUSH3 0x81C JUMPI JUMP JUMPDEST PUSH4 0x4E487B71 PUSH1 0xE0 SHL PUSH1 0x0 MSTORE PUSH1 0x11 PUSH1 0x4 MSTORE PUSH1 0x24 PUSH1 0x0 REVERT JUMPDEST DUP2 DUP2 MUL SWAP3 SWAP2 DUP2 ISZERO SWAP2 DUP5 DIV EQ OR ISZERO PUSH3 0x81C JUMPI JUMP JUMPDEST DUP2 ISZERO PUSH3 0x851 JUMPI DIV SWAP1 JUMP JUMPDEST PUSH4 0x4E487B71 PUSH1 0xE0 SHL PUSH1 0x0 MSTORE PUSH1 0x12 PUSH1 0x4 MSTORE PUSH1 0x24 PUSH1 0x0 REVERT JUMPDEST SWAP2 SWAP1 DUP3 SUB SWAP2 DUP3 GT PUSH3 0x81C JUMPI JUMP JUMPDEST DUP1 SLOAD PUSH1 0x1 PUSH1 0x1 PUSH1 0xC0 SHL SUB AND PUSH1 0xC0 SWAP3 SWAP1 SWAP3 SHL PUSH1 0x1 PUSH1 0x1 PUSH1 0xC0 SHL SUB NOT AND SWAP2 SWAP1 SWAP2 OR SWAP1 SSTORE JUMP JUMPDEST PUSH1 0x0 DUP1 MLOAD PUSH1 0x20 PUSH3 0x3CA3 DUP4 CODECOPY DUP2 MLOAD SWAP2 MSTORE PUSH1 0x20 PUSH1 0x0 SWAP3 PUSH3 0x8BB DUP6 PUSH1 0x2 SLOAD PUSH3 0x80E JUMP JUMPDEST PUSH1 0x2 SSTORE PUSH1 0x1 PUSH1 0x1 PUSH1 0xA0 SHL SUB AND SWAP4 DUP5 ISZERO DUP5 EQ PUSH3 0x8E3 JUMPI DUP1 PUSH1 0x2 SLOAD SUB PUSH1 0x2 SSTORE JUMPDEST PUSH1 0x40 MLOAD SWAP1 DUP2 MSTORE LOG3 JUMP JUMPDEST DUP5 DUP5 MSTORE DUP4 DUP3 MSTORE PUSH1 0x40 DUP5 KECCAK256 DUP2 DUP2 SLOAD ADD SWAP1 SSTORE PUSH3 0x8DA JUMP JUMPDEST DUP1 SLOAD PUSH1 0x1 PUSH1 0x80 SHL PUSH1 0x1 PUSH1 0xC0 SHL SUB NOT AND PUSH1 0x80 SWAP3 SWAP1 SWAP3 SHL PUSH1 0x1 PUSH1 0x80 SHL PUSH1 0x1 PUSH1 0xC0 SHL SUB AND SWAP2 SWAP1 SWAP2 OR SWAP1 SSTORE JUMP JUMPDEST PUSH3 0x92D DUP2 PUSH3 0xA5A JUMP JUMPDEST ISZERO PUSH3 0xA57 JUMPI PUSH1 0x1 DUP1 PUSH1 0xA0 SHL SUB AND PUSH1 0x0 MSTORE PUSH1 0x9 PUSH1 0x20 MSTORE PUSH3 0x9B8 PUSH1 0x40 PUSH1 0x0 KECCAK256 PUSH1 0xD SLOAD PUSH3 0x961 PUSH1 0x2 DUP4 ADD SWAP2 DUP3 SLOAD SWAP1 PUSH3 0x867 JUMP JUMPDEST DUP1 PUSH3 0x9BA JUMPI JUMPDEST POP POP DUP1 SLOAD PUSH1 0x1 PUSH1 0x1 PUSH1 0x40 SHL SUB SWAP1 PUSH3 0x99C SWAP1 PUSH3 0x98C PUSH1 0x80 DUP3 SWAP1 SHR DUP5 AND TIMESTAMP PUSH3 0x867 JUMP JUMPDEST SWAP1 PUSH1 0x1 PUSH1 0x1 PUSH1 0x80 SHL SUB AND PUSH3 0x832 JUMP JUMPDEST PUSH3 0x9AD PUSH1 0x1 DUP5 ADD SWAP2 DUP3 SLOAD PUSH3 0x80E JUMP JUMPDEST SWAP1 SSTORE TIMESTAMP AND SWAP1 PUSH3 0x8F9 JUMP JUMPDEST JUMP JUMPDEST PUSH1 0xE SLOAD DUP4 SLOAD PUSH3 0xA08 SWAP2 PUSH3 0xA01 SWAP1 PUSH3 0x9EC SWAP1 PUSH1 0x80 DUP5 SWAP1 SHR PUSH1 0x1 PUSH1 0x1 PUSH1 0x40 SHL SUB AND SWAP1 DUP2 DUP2 GT ISZERO PUSH3 0xA4F JUMPI PUSH3 0x867 JUMP JUMPDEST PUSH1 0x1 DUP8 ADD SLOAD SWAP3 PUSH1 0x1 PUSH1 0x1 PUSH1 0x80 SHL SUB AND PUSH3 0x832 JUMP JUMPDEST SWAP1 PUSH3 0x80E JUMP JUMPDEST DUP1 PUSH3 0xA1E JUMPI JUMPDEST POP POP PUSH1 0xD SLOAD SWAP1 SSTORE CODESIZE DUP1 PUSH3 0x968 JUMP JUMPDEST PUSH8 0xDE0B6B3A7640000 SWAP2 PUSH3 0xA33 SWAP2 PUSH3 0x832 JUMP JUMPDEST DIV PUSH3 0xA45 PUSH1 0x3 DUP5 ADD SWAP2 DUP3 SLOAD PUSH3 0x80E JUMP JUMPDEST SWAP1 SSTORE CODESIZE DUP1 PUSH3 0xA0F JUMP JUMPDEST POP DUP1 PUSH3 0x867 JUMP JUMPDEST POP JUMP JUMPDEST PUSH1 0x1 PUSH1 0x1 PUSH1 0xA0 SHL SUB SWAP1 DUP2 AND SWAP1 DUP2 ISZERO PUSH3 0xAB2 JUMPI DUP2 PUSH1 0x0 MSTORE PUSH1 0xF PUSH1 0x20 MSTORE PUSH1 0xFF PUSH1 0x40 PUSH1 0x0 KECCAK256 SLOAD AND PUSH3 0xAB2 JUMPI PUSH1 0x5 SLOAD PUSH1 0x8 SHR AND DUP1 ISZERO ISZERO SWAP2 DUP3 PUSH3 0xAA7 JUMPI JUMPDEST POP POP PUSH3 0xAA2 JUMPI PUSH1 0x1 SWAP1 JUMP JUMPDEST PUSH1 0x0 SWAP1 JUMP JUMPDEST EQ SWAP1 POP CODESIZE DUP1 PUSH3 0xA96 JUMP JUMPDEST POP POP PUSH1 0x0 SWAP1 JUMP JUMPDEST PUSH3 0xAC4 DUP2 PUSH3 0xA5A JUMP JUMPDEST ISZERO PUSH3 0xA57 JUMPI PUSH1 0x1 PUSH1 0x1 PUSH1 0xA0 SHL SUB SWAP1 DUP2 AND PUSH1 0x0 DUP2 DUP2 MSTORE PUSH1 0x9 PUSH1 0x20 MSTORE PUSH1 0x40 DUP2 KECCAK256 SWAP3 SWAP2 SWAP1 PUSH3 0xAF0 PUSH3 0xC94 JUMP JUMPDEST DUP2 DUP2 MSTORE PUSH1 0x20 DUP2 SWAP1 MSTORE PUSH1 0x40 DUP2 KECCAK256 SLOAD DUP5 SLOAD PUSH1 0x1 PUSH1 0x1 PUSH1 0x80 SHL SUB SWAP1 DUP2 AND DUP1 DUP4 LT SWAP5 SWAP2 SWAP4 SWAP2 DUP6 DUP1 PUSH3 0xC8A JUMPI JUMPDEST PUSH3 0xBFF JUMPI JUMPDEST POP DUP3 DUP2 DUP2 GT SWAP6 DUP7 PUSH1 0x0 EQ PUSH3 0xBBA JUMPI POP PUSH3 0xB4A SWAP3 POP SWAP1 PUSH3 0xB41 SWAP2 PUSH3 0x867 JUMP JUMPDEST PUSH1 0xC SLOAD PUSH3 0x80E JUMP JUMPDEST PUSH1 0xC SSTORE JUMPDEST DUP5 SLOAD PUSH1 0x1 PUSH1 0x1 PUSH1 0x80 SHL SUB NOT AND SWAP2 AND OR DUP4 SSTORE TIMESTAMP PUSH1 0x1 PUSH1 0x1 PUSH1 0x40 SHL SUB AND SWAP2 PUSH3 0xB76 DUP4 DUP6 PUSH3 0x8F9 JUMP JUMPDEST PUSH1 0xFF PUSH1 0x5 SLOAD AND ISZERO SWAP2 DUP3 PUSH3 0xBB1 JUMPI JUMPDEST POP DUP2 PUSH3 0xBA2 JUMPI JUMPDEST POP PUSH3 0xB97 JUMPI POP POP JUMP JUMPDEST PUSH3 0x9B8 SWAP2 PUSH3 0x875 JUMP JUMPDEST SWAP1 POP PUSH1 0xA0 MLOAD AND CALLER EQ CODESIZE PUSH3 0xB8D JUMP JUMPDEST SWAP2 POP CODESIZE PUSH3 0xB85 JUMP JUMPDEST PUSH3 0xBC9 JUMPI JUMPDEST POP POP POP PUSH3 0xB4E JUMP JUMPDEST PUSH3 0xBD4 SWAP2 PUSH3 0x867 JUMP JUMPDEST PUSH1 0xC SLOAD DUP2 DUP2 LT PUSH3 0xBF7 JUMPI PUSH3 0xBEB SWAP3 POP PUSH3 0x867 JUMP JUMPDEST PUSH1 0xC SSTORE CODESIZE DUP1 DUP3 PUSH3 0xBC0 JUMP JUMPDEST POP POP PUSH3 0xBEB JUMP JUMPDEST PUSH1 0x1 DUP9 ADD DUP1 SLOAD SWAP2 PUSH3 0xC29 PUSH3 0xC21 DUP6 PUSH3 0xC1B DUP10 DUP8 PUSH3 0x832 JUMP JUMPDEST PUSH3 0x846 JUMP JUMPDEST DUP1 SWAP5 PUSH3 0x867 JUMP JUMPDEST PUSH1 0xA SLOAD DUP2 DUP2 LT PUSH3 0xC50 JUMPI POP PUSH3 0xC44 SWAP2 POP PUSH1 0xA SLOAD PUSH3 0x867 JUMP JUMPDEST PUSH1 0xA SSTORE JUMPDEST SSTORE CODESIZE PUSH3 0xB1F JUMP JUMPDEST PUSH32 0xD5FC571C0F24626CEEB4A7223A10B7B571F3E6C810A1EC1991BA28B6494B06A1 SWAP2 PUSH1 0x40 SWAP2 DUP3 MLOAD SWAP2 DUP3 MSTORE PUSH1 0x20 DUP3 ADD MSTORE LOG2 DUP4 PUSH1 0xA SSTORE PUSH3 0xC48 JUMP JUMPDEST POP DUP2 ISZERO ISZERO PUSH3 0xB19 JUMP JUMPDEST PUSH3 0xCA2 PUSH1 0xB SLOAD TIMESTAMP PUSH3 0x867 JUMP JUMPDEST DUP1 ISZERO ISZERO DUP1 PUSH3 0xCDE JUMPI JUMPDEST PUSH3 0xCB9 JUMPI JUMPDEST POP TIMESTAMP PUSH1 0xB SSTORE JUMP JUMPDEST PUSH3 0xCCB PUSH3 0xCD4 SWAP2 PUSH1 0xC SLOAD PUSH3 0x832 JUMP JUMPDEST PUSH1 0xA SLOAD PUSH3 0x80E JUMP JUMPDEST PUSH1 0xA SSTORE CODESIZE PUSH3 0xCB2 JUMP JUMPDEST POP PUSH1 0xC SLOAD ISZERO ISZERO PUSH3 0xCAC JUMP JUMPDEST PUSH1 0x0 DUP1 MSTORE PUSH1 0x9 PUSH1 0x20 MSTORE PUSH32 0xEC8156718A8372B1DB44BB411437D0870F3E3790D4A08526D024CE1B0B668F6B SLOAD PUSH1 0xC0 SHR DUP1 ISZERO PUSH3 0xD62 JUMPI PUSH3 0xD2B SWAP1 TIMESTAMP PUSH3 0x867 JUMP JUMPDEST PUSH2 0x12C DUP2 LT PUSH3 0xD5B JUMPI PUSH2 0xE10 DUP2 LT PUSH3 0xD54 JUMPI PUSH3 0x15180 GT PUSH3 0xD4E JUMPI PUSH1 0x0 SWAP1 JUMP JUMPDEST PUSH2 0x1F4 SWAP1 JUMP JUMPDEST POP PUSH2 0x3E8 SWAP1 JUMP JUMPDEST POP PUSH2 0x7D0 SWAP1 JUMP JUMPDEST POP PUSH1 0x0 SWAP1 JUMP JUMPDEST DUP1 MLOAD PUSH1 0x1 LT ISZERO PUSH3 0xD79 JUMPI PUSH1 0x40 ADD SWAP1 JUMP JUMPDEST PUSH4 0x4E487B71 PUSH1 0xE0 SHL PUSH1 0x0 MSTORE PUSH1 0x32 PUSH1 0x4 MSTORE PUSH1 0x24 PUSH1 0x0 REVERT JUMPDEST SWAP1 DUP2 MLOAD DUP1 DUP3 MSTORE PUSH1 0x20 DUP1 DUP1 SWAP4 ADD SWAP4 ADD SWAP2 PUSH1 0x0 JUMPDEST DUP3 DUP2 LT PUSH3 0xDB0 JUMPI POP POP POP POP SWAP1 JUMP JUMPDEST DUP4 MLOAD PUSH1 0x1 PUSH1 0x1 PUSH1 0xA0 SHL SUB AND DUP6 MSTORE SWAP4 DUP2 ADD SWAP4 SWAP3 DUP2 ADD SWAP3 PUSH1 0x1 ADD PUSH3 0xDA1 JUMP JUMPDEST PUSH1 0x0 SWAP1 PUSH1 0xFF NOT DUP1 PUSH1 0x8 SLOAD AND PUSH1 0x1 DUP2 OR PUSH1 0x8 SSTORE ADDRESS DUP5 MSTORE PUSH1 0x20 DUP5 DUP2 MSTORE PUSH1 0x40 SWAP1 DUP2 DUP7 KECCAK256 SLOAD SWAP3 DUP4 ISZERO PUSH3 0x123A JUMPI POP DUP2 MLOAD PUSH1 0x1 PUSH1 0x1 PUSH1 0x40 SHL SUB SWAP7 PUSH1 0x60 DUP3 ADD DUP9 DUP2 GT DUP4 DUP3 LT OR PUSH3 0x1226 JUMPI DUP5 MSTORE PUSH1 0x2 DUP3 MSTORE DUP3 DUP3 ADD DUP5 CALLDATASIZE DUP3 CALLDATACOPY DUP3 MLOAD ISZERO PUSH3 0x1212 JUMPI ADDRESS SWAP1 MSTORE PUSH1 0x6 SLOAD DUP5 MLOAD PUSH4 0x15AB88C9 PUSH1 0xE3 SHL DUP2 MSTORE PUSH1 0x4 SWAP10 PUSH1 0x1 PUSH1 0x1 PUSH1 0xA0 SHL SUB SWAP8 SWAP3 SWAP1 SWAP2 SWAP1 DUP9 AND SWAP1 DUP7 DUP2 DUP14 DUP2 DUP6 GAS STATICCALL SWAP1 DUP2 ISZERO PUSH3 0x1208 JUMPI DUP6 SWAP2 PUSH3 0x11C7 JUMPI JUMPDEST POP DUP9 PUSH3 0xE71 DUP8 PUSH3 0xD68 JUMP JUMPDEST SWAP2 AND SWAP1 MSTORE ADDRESS ISZERO PUSH3 0x11B0 JUMPI DUP1 ISZERO PUSH3 0x1199 JUMPI ADDRESS DUP5 MSTORE PUSH1 0x1 DUP7 MSTORE DUP7 DUP5 KECCAK256 DUP2 DUP6 MSTORE DUP7 MSTORE DUP3 DUP8 DUP6 KECCAK256 SSTORE DUP7 MLOAD DUP4 DUP2 MSTORE PUSH32 0x8C5BE1E5EBEC7D5BD14F71427D1E84F3DD0314C0F7B2291E5B200AC8C7C3B925 DUP8 ADDRESS SWAP3 LOG3 DUP3 SWAP4 DUP8 PUSH1 0x6 SLOAD AND SWAP5 DUP8 MLOAD SWAP6 PUSH4 0xD06CA61F PUSH1 0xE0 SHL DUP8 MSTORE DUP5 DUP14 DUP9 ADD MSTORE PUSH1 0x24 SWAP7 DUP10 DUP9 DUP3 ADD MSTORE DUP7 DUP2 DUP1 PUSH3 0xEF5 PUSH1 0x44 DUP3 ADD DUP9 PUSH3 0xD8F JUMP JUMPDEST SUB DUP2 DUP6 GAS STATICCALL DUP8 SWAP2 DUP2 PUSH3 0x10E1 JUMPI JUMPDEST POP PUSH3 0x10A1 JUMPI JUMPDEST POP SELFBALANCE SWAP5 DUP2 EXTCODESIZE ISZERO PUSH3 0x109D JUMPI SWAP1 DUP7 SWAP3 SWAP2 DUP4 DUP16 PUSH3 0xF4B DUP14 MLOAD SWAP8 DUP9 SWAP7 DUP8 SWAP6 DUP7 SWAP5 PUSH4 0x791AC947 PUSH1 0xE0 SHL DUP7 MSTORE DUP6 ADD MSTORE DUP14 DUP5 ADD MSTORE PUSH1 0xA0 PUSH1 0x44 DUP5 ADD MSTORE PUSH1 0xA4 DUP4 ADD SWAP1 PUSH3 0xD8F JUMP JUMPDEST ADDRESS PUSH1 0x64 DUP4 ADD MSTORE TIMESTAMP PUSH1 0x84 DUP4 ADD MSTORE SUB SWAP3 GAS CALL SWAP2 DUP3 PUSH3 0x1076 JUMPI JUMPDEST POP POP PUSH3 0xF7D JUMPI JUMPDEST POP POP POP POP POP POP SWAP1 SWAP2 POP PUSH1 0x8 SLOAD AND PUSH1 0x8 SSTORE JUMP JUMPDEST PUSH3 0xF89 SWAP1 SELFBALANCE PUSH3 0x867 JUMP JUMPDEST SWAP2 DUP3 ISZERO SWAP9 DUP10 ISZERO PUSH3 0xF9C JUMPI JUMPDEST POP PUSH3 0xF6B JUMP JUMPDEST PUSH1 0x3 DUP5 MUL SWAP10 DUP5 DUP12 DIV PUSH1 0x3 EQ OR ISZERO PUSH3 0x1065 JUMPI POP POP PUSH3 0xFC6 PUSH1 0x7 PUSH3 0xFD9 SWAP8 SWAP9 SWAP10 DIV DUP1 SWAP4 PUSH3 0x867 JUMP JUMPDEST SWAP5 DUP3 PUSH3 0xFE8 JUMPI JUMPDEST POP POP POP POP POP PUSH3 0x1246 JUMP JUMPDEST DUP2 SWAP1 CODESIZE DUP1 DUP1 DUP1 DUP1 DUP1 DUP1 PUSH3 0xF95 JUMP JUMPDEST DUP2 DUP1 DUP1 DUP6 DUP2 SWAP5 PUSH1 0x80 MLOAD AND GAS CALL SWAP1 RETURNDATASIZE ISZERO PUSH3 0x105E JUMPI RETURNDATASIZE SWAP1 PUSH3 0x1009 DUP3 PUSH3 0x773 JUMP JUMPDEST SWAP2 PUSH3 0x1018 DUP8 MLOAD SWAP4 DUP5 PUSH3 0x74F JUMP JUMPDEST DUP3 MSTORE DUP5 RETURNDATASIZE SWAP3 ADD RETURNDATACOPY JUMPDEST PUSH3 0x102E JUMPI JUMPDEST DUP1 DUP1 PUSH3 0xFCE JUMP JUMPDEST PUSH32 0x693F9DBEA0BDF9B70D480F9527E567D17AE3A41A5627C6515B034AC1869CF7A0 SWAP3 MLOAD SWAP1 DUP2 MSTORE LOG1 CODESIZE DUP1 DUP1 PUSH3 0x1026 JUMP JUMPDEST POP PUSH3 0x1020 JUMP JUMPDEST PUSH4 0x4E487B71 PUSH1 0xE0 SHL DUP4 MSTORE PUSH1 0x11 SWAP1 MSTORE DUP2 REVERT JUMPDEST DUP2 SWAP5 SWAP3 SWAP5 GT PUSH3 0x108B JUMPI DUP7 MSTORE SWAP2 CODESIZE DUP1 PUSH3 0xF63 JUMP JUMPDEST PUSH4 0x4E487B71 PUSH1 0xE0 SHL DUP3 MSTORE PUSH1 0x41 DUP12 MSTORE DUP5 DUP3 REVERT JUMPDEST DUP7 DUP1 REVERT JUMPDEST PUSH3 0x10AE SWAP2 SWAP3 POP PUSH3 0xD68 JUMP JUMPDEST MLOAD PUSH1 0x5A DUP2 MUL SWAP1 DUP1 DUP3 DIV PUSH1 0x5A EQ SWAP1 ISZERO OR ISZERO PUSH3 0x10CF JUMPI PUSH1 0x64 SWAP1 DIV SWAP1 CODESIZE PUSH3 0xF0A JUMP JUMPDEST PUSH4 0x4E487B71 PUSH1 0xE0 SHL DUP7 MSTORE PUSH1 0x11 DUP14 MSTORE DUP7 DUP7 REVERT JUMPDEST SWAP1 SWAP2 POP RETURNDATASIZE DUP1 DUP10 DUP4 RETURNDATACOPY PUSH3 0x10F5 DUP2 DUP4 PUSH3 0x74F JUMP JUMPDEST DUP2 ADD SWAP1 DUP11 DUP2 DUP4 SUB SLT PUSH3 0x1191 JUMPI DUP1 MLOAD SWAP1 DUP8 DUP3 GT PUSH3 0x1195 JUMPI ADD DUP2 PUSH1 0x1F DUP3 ADD SLT ISZERO PUSH3 0x1191 JUMPI DUP1 MLOAD DUP8 DUP2 GT PUSH3 0x117D JUMPI DUP13 MLOAD SWAP3 SWAP2 PUSH1 0x5 DUP3 SWAP1 SHL SWAP2 PUSH3 0x113C DUP4 DUP16 ADD DUP7 PUSH3 0x74F JUMP JUMPDEST DUP5 MSTORE DUP13 DUP1 DUP6 ADD SWAP3 DUP3 ADD ADD SWAP3 DUP4 GT PUSH3 0x1179 JUMPI DUP13 DUP1 SWAP2 ADD SWAP2 JUMPDEST DUP4 DUP4 LT PUSH3 0x1168 JUMPI POP POP POP POP SWAP1 CODESIZE PUSH3 0xF03 JUMP JUMPDEST DUP3 MLOAD DUP2 MSTORE SWAP2 DUP2 ADD SWAP2 DUP14 SWAP2 ADD PUSH3 0x1154 JUMP JUMPDEST DUP11 DUP1 REVERT JUMPDEST POP DUP16 DUP10 PUSH1 0x41 DUP13 SWAP3 PUSH4 0x4E487B71 PUSH1 0xE0 SHL DUP4 MSTORE MSTORE REVERT JUMPDEST DUP9 DUP1 REVERT JUMPDEST DUP10 DUP1 REVERT JUMPDEST DUP7 MLOAD PUSH4 0x4A1406B1 PUSH1 0xE1 SHL DUP2 MSTORE DUP1 DUP13 ADD DUP6 SWAP1 MSTORE PUSH1 0x24 SWAP1 REVERT JUMPDEST DUP7 MLOAD PUSH4 0xE602DF05 PUSH1 0xE0 SHL DUP2 MSTORE DUP1 DUP13 ADD DUP6 SWAP1 MSTORE PUSH1 0x24 SWAP1 REVERT JUMPDEST SWAP1 POP DUP7 DUP2 DUP2 RETURNDATASIZE DUP4 GT PUSH3 0x1200 JUMPI JUMPDEST PUSH3 0x11E1 DUP2 DUP4 PUSH3 0x74F JUMP JUMPDEST DUP2 ADD SUB SLT PUSH3 0x11FC JUMPI PUSH3 0x11F5 SWAP1 PUSH3 0x7F9 JUMP JUMPDEST CODESIZE PUSH3 0xE64 JUMP JUMPDEST DUP5 DUP1 REVERT JUMPDEST POP RETURNDATASIZE PUSH3 0x11D5 JUMP JUMPDEST DUP9 MLOAD RETURNDATASIZE DUP8 DUP3 RETURNDATACOPY RETURNDATASIZE SWAP1 REVERT JUMPDEST PUSH4 0x4E487B71 PUSH1 0xE0 SHL DUP3 MSTORE PUSH1 0x32 PUSH1 0x4 MSTORE PUSH1 0x24 DUP3 REVERT JUMPDEST PUSH4 0x4E487B71 PUSH1 0xE0 SHL DUP3 MSTORE PUSH1 0x41 PUSH1 0x4 MSTORE PUSH1 0x24 DUP3 REVERT JUMPDEST SWAP5 SWAP6 POP POP POP POP POP PUSH1 0x8 SSTORE JUMP JUMPDEST DUP1 ISZERO PUSH3 0xA57 JUMPI PUSH3 0x1257 PUSH3 0xC94 JUMP JUMPDEST PUSH1 0xA SLOAD DUP1 ISZERO PUSH3 0x1307 JUMPI PUSH3 0x1270 PUSH1 0x10 SLOAD DUP1 SWAP4 PUSH3 0x80E JUMP JUMPDEST SWAP2 PUSH3 0x12FC JUMPI JUMPDEST PUSH8 0xDE0B6B3A7640000 SWAP2 DUP3 DUP2 MUL SWAP3 DUP2 DUP5 DIV EQ DUP2 ISZERO OR ISZERO PUSH3 0x81C JUMPI PUSH3 0x12B0 PUSH1 0x40 SWAP3 PUSH1 0x0 DUP1 MLOAD PUSH1 0x20 PUSH3 0x3C83 DUP4 CODECOPY DUP2 MLOAD SWAP2 MSTORE SWAP5 PUSH3 0x846 JUMP JUMPDEST DUP1 ISZERO PUSH3 0x12DA JUMPI PUSH3 0x12C5 SWAP1 PUSH1 0xD SLOAD PUSH3 0x80E JUMP JUMPDEST DUP1 PUSH1 0xD SSTORE TIMESTAMP PUSH1 0xE SSTORE DUP3 MLOAD SWAP2 DUP3 MSTORE PUSH1 0x20 DUP3 ADD MSTORE LOG1 JUMP JUMPDEST POP PUSH3 0x12E9 DUP2 PUSH1 0x10 SLOAD PUSH3 0x80E JUMP JUMPDEST PUSH1 0x10 SSTORE PUSH1 0xD SLOAD DUP3 MLOAD SWAP2 DUP3 MSTORE PUSH1 0x20 DUP3 ADD MSTORE LOG1 JUMP JUMPDEST PUSH1 0x0 PUSH1 0x10 SSTORE PUSH3 0x1277 JUMP JUMPDEST POP PUSH1 0x40 DUP2 PUSH3 0x12E9 PUSH1 0x0 DUP1 MLOAD PUSH1 0x20 PUSH3 0x3C83 DUP4 CODECOPY DUP2 MLOAD SWAP2 MSTORE SWAP4 PUSH1 0x10 SLOAD PUSH3 0x80E JUMP INVALID PUSH1 0x80 PUSH1 0x40 DUP2 DUP2 MSTORE PUSH1 0x4 SWAP2 DUP3 CALLDATASIZE LT ISZERO PUSH2 0x22 JUMPI JUMPDEST POP POP POP CALLDATASIZE ISZERO PUSH2 0x20 JUMPI PUSH1 0x0 DUP1 REVERT JUMPDEST STOP JUMPDEST PUSH1 0x0 SWAP3 DUP4 CALLDATALOAD PUSH1 0xE0 SHR SWAP2 DUP3 PUSH4 0x3FD2A45 EQ PUSH2 0x1431 JUMPI POP DUP2 PUSH4 0x4279349 EQ PUSH2 0x1377 JUMPI DUP2 PUSH4 0x445B667 EQ PUSH2 0x1358 JUMPI DUP2 PUSH4 0x6FDDE03 EQ PUSH2 0x1281 JUMPI DUP2 PUSH4 0x7C9BF2E EQ PUSH2 0x1248 JUMPI DUP2 PUSH4 0x95EA7B3 EQ PUSH2 0x121E JUMPI DUP2 PUSH4 0x13B9D47E EQ PUSH2 0x11FF JUMPI DUP2 PUSH4 0x18160DDD EQ PUSH2 0x11E0 JUMPI DUP2 PUSH4 0x1A0108EC EQ PUSH2 0x585 JUMPI DUP2 PUSH4 0x1E4C7292 EQ PUSH2 0x11BA JUMPI DUP2 PUSH4 0x23B872DD EQ PUSH2 0x10D0 JUMPI DUP2 PUSH4 0x2836BE24 EQ PUSH2 0x1053 JUMPI DUP2 PUSH4 0x313CE567 EQ PUSH2 0x1037 JUMPI DUP2 PUSH4 0x31D7A262 EQ PUSH2 0x1011 JUMPI DUP2 PUSH4 0x47B12BFC EQ PUSH2 0xFF5 JUMPI DUP2 PUSH4 0x4E71D92D EQ PUSH2 0xF3A JUMPI DUP2 PUSH4 0x5B090044 EQ PUSH2 0xC53 JUMPI DUP2 PUSH4 0x64229D68 EQ PUSH2 0xC34 JUMPI DUP2 PUSH4 0x70A08231 EQ PUSH2 0xBFD JUMPI DUP2 PUSH4 0x7165485D EQ PUSH2 0xBB9 JUMPI DUP2 PUSH4 0x735DE9F7 EQ PUSH2 0xB90 JUMPI DUP2 PUSH4 0x748747E6 EQ PUSH2 0xB01 JUMPI DUP2 PUSH4 0x902D55A5 EQ PUSH2 0xADB JUMPI DUP2 PUSH4 0x95D89B41 EQ PUSH2 0x9F5 JUMPI DUP2 PUSH4 0x98AECB67 EQ PUSH2 0x9CF JUMPI DUP2 PUSH4 0x9D0014B1 EQ PUSH2 0x944 JUMPI DUP2 PUSH4 0x9D6EADC1 EQ PUSH2 0x925 JUMPI DUP2 PUSH4 0xA37A9FC0 EQ PUSH2 0x585 JUMPI DUP2 PUSH4 0xA47541BA EQ PUSH2 0x8DC JUMPI DUP2 PUSH4 0xA8355C8F EQ PUSH2 0x817 JUMPI DUP2 PUSH4 0xA9059CBB EQ PUSH2 0x8AB JUMPI DUP2 PUSH4 0xACED1661 EQ PUSH2 0x882 JUMPI DUP2 PUSH4 0xB78D0538 EQ PUSH2 0x834 JUMPI DUP2 PUSH4 0xBACF2A7B EQ PUSH2 0x817 JUMPI DUP2 PUSH4 0xBB103CBC EQ PUSH2 0x7FA JUMPI DUP2 PUSH4 0xC1DB4015 EQ PUSH2 0x7DB JUMPI DUP2 PUSH4 0xC45A0155 EQ PUSH2 0x797 JUMPI DUP2 PUSH4 0xC463ECD7 EQ PUSH2 0x77A JUMPI DUP2 PUSH4 0xC5F27B30 EQ PUSH2 0x75B JUMPI DUP2 PUSH4 0xC5F509D6 EQ PUSH2 0x735 JUMPI DUP2 PUSH4 0xC7B12801 EQ PUSH2 0x622 JUMPI DUP2 PUSH4 0xC816841B EQ PUSH2 0x5F5 JUMPI DUP2 PUSH4 0xCA81EB66 EQ PUSH2 0x5C8 JUMPI DUP2 PUSH4 0xCBA0E996 EQ PUSH2 0x58A JUMPI DUP2 PUSH4 0xCE91E164 EQ PUSH2 0x585 JUMPI DUP2 PUSH4 0xD9019AE9 EQ PUSH2 0x566 JUMPI DUP2 PUSH4 0xDBB51D6E EQ PUSH2 0x4EB JUMPI DUP2 PUSH4 0xDD62ED3E EQ PUSH2 0x4A2 JUMPI DUP2 PUSH4 0xE7C2B772 EQ PUSH2 0x47E JUMPI DUP2 PUSH4 0xF6CEEFA2 EQ PUSH2 0x284 JUMPI POP PUSH4 0xF8077FAE EQ PUSH2 0x263 JUMPI DUP1 PUSH2 0x12 JUMP JUMPDEST CALLVALUE PUSH2 0x280 JUMPI DUP2 PUSH1 0x3 NOT CALLDATASIZE ADD SLT PUSH2 0x280 JUMPI PUSH1 0x20 SWAP1 PUSH1 0xE SLOAD SWAP1 MLOAD SWAP1 DUP2 MSTORE RETURN JUMPDEST POP DUP1 REVERT JUMPDEST DUP4 DUP4 CALLVALUE PUSH2 0x280 JUMPI PUSH1 0x20 DUP1 PUSH1 0x3 NOT CALLDATASIZE ADD SLT PUSH2 0x47A JUMPI PUSH1 0x1 PUSH1 0x1 PUSH1 0x40 SHL SUB SWAP1 DUP5 CALLDATALOAD SWAP1 DUP3 DUP3 GT PUSH2 0x476 JUMPI CALLDATASIZE PUSH1 0x23 DUP4 ADD SLT ISZERO PUSH2 0x476 JUMPI DUP2 DUP7 ADD CALLDATALOAD SWAP3 DUP4 GT PUSH2 0x476 JUMPI PUSH1 0x5 SWAP3 PUSH1 0x24 CALLDATASIZE DUP3 DUP7 SHL DUP6 ADD DUP3 ADD GT PUSH2 0x472 JUMPI PUSH2 0x2DB PUSH2 0x26CE JUMP JUMPDEST PUSH1 0x11 SLOAD PUSH1 0x1 PUSH1 0x1 PUSH1 0xA0 SHL SUB SWAP9 SWAP1 DUP10 AND CALLER SUB PUSH2 0x444 JUMPI PUSH1 0x96 DUP4 GT PUSH2 0x412 JUMPI POP DUP7 SWAP4 DUP8 SWAP6 DUP9 JUMPDEST DUP5 DUP2 LT PUSH2 0x34A JUMPI DUP10 PUSH32 0xF80654923FB0C7F7A44C79B000DCA8E52E2F4A16092A26FF31C0A410291D331 DUP11 DUP11 DUP11 DUP11 DUP4 MLOAD SWAP3 DUP4 MSTORE DUP3 ADD MSTORE LOG1 PUSH1 0x1 PUSH1 0x0 DUP1 MLOAD PUSH1 0x20 PUSH2 0x28E4 DUP4 CODECOPY DUP2 MLOAD SWAP2 MSTORE SSTORE DUP1 RETURN JUMPDEST DUP4 DUP2 DUP4 SWAP10 SWAP9 SWAP10 SHL DUP5 ADD ADD CALLDATALOAD DUP12 DUP2 AND SWAP1 DUP2 DUP2 SUB PUSH2 0x40E JUMPI PUSH2 0x369 DUP2 PUSH2 0x1D90 JUMP JUMPDEST ISZERO PUSH2 0x400 JUMPI PUSH2 0x377 SWAP1 PUSH2 0x1CE5 JUMP JUMPDEST DUP1 DUP12 MSTORE PUSH1 0x9 DUP8 MSTORE PUSH1 0x3 DUP11 DUP13 KECCAK256 ADD SWAP9 DUP10 SLOAD SWAP10 DUP13 DUP12 ISZERO PUSH2 0x3F1 JUMPI DUP1 DUP1 DUP1 DUP15 DUP2 DUP7 SSTORE DUP8 GAS CALL PUSH2 0x3A1 PUSH2 0x189E JUMP JUMPDEST POP ISZERO PUSH2 0x3E1 JUMPI POP SWAP1 PUSH1 0x0 DUP1 MLOAD PUSH1 0x20 PUSH2 0x2864 DUP4 CODECOPY DUP2 MLOAD SWAP2 MSTORE DUP9 PUSH2 0x3D0 PUSH2 0x3CA DUP14 PUSH2 0x3DC SWAP8 SWAP7 PUSH2 0x14E3 JUMP JUMPDEST SWAP12 PUSH2 0x26FE JUMP JUMPDEST SWAP12 DUP14 MLOAD SWAP1 DUP2 MSTORE LOG2 PUSH2 0x26FE JUMP JUMPDEST PUSH2 0x2FF JUMP JUMPDEST PUSH2 0x3DC SWAP4 SWAP3 POP SWAP10 SWAP1 SWAP9 SWAP10 SSTORE PUSH2 0x26FE JUMP JUMPDEST POP POP SWAP8 SWAP9 POP POP PUSH2 0x3DC SWAP1 PUSH2 0x26FE JUMP JUMPDEST POP POP PUSH2 0x3DC SWAP1 SWAP8 SWAP7 SWAP8 PUSH2 0x26FE JUMP JUMPDEST DUP12 DUP1 REVERT JUMPDEST PUSH1 0xF PUSH1 0x64 SWAP3 DUP6 DUP10 MLOAD SWAP4 PUSH3 0x461BCD PUSH1 0xE5 SHL DUP6 MSTORE DUP5 ADD MSTORE DUP3 ADD MSTORE PUSH15 0x426174636820746F6F206C61726765 PUSH1 0x88 SHL PUSH1 0x44 DUP3 ADD MSTORE REVERT JUMPDEST PUSH1 0xB PUSH1 0x64 SWAP3 DUP6 DUP10 MLOAD SWAP4 PUSH3 0x461BCD PUSH1 0xE5 SHL DUP6 MSTORE DUP5 ADD MSTORE DUP3 ADD MSTORE PUSH11 0x27B7363C9035B2B2B832B9 PUSH1 0xA9 SHL PUSH1 0x44 DUP3 ADD MSTORE REVERT JUMPDEST DUP7 DUP1 REVERT JUMPDEST DUP5 DUP1 REVERT JUMPDEST DUP3 DUP1 REVERT JUMPDEST POP POP CALLVALUE PUSH2 0x280 JUMPI DUP2 PUSH1 0x3 NOT CALLDATASIZE ADD SLT PUSH2 0x280 JUMPI PUSH1 0x20 SWAP1 PUSH1 0xFF PUSH1 0x5 SLOAD AND SWAP1 MLOAD SWAP1 ISZERO ISZERO DUP2 MSTORE RETURN JUMPDEST POP POP CALLVALUE PUSH2 0x280 JUMPI DUP1 PUSH1 0x3 NOT CALLDATASIZE ADD SLT PUSH2 0x280 JUMPI DUP1 PUSH1 0x20 SWAP3 PUSH2 0x4C0 PUSH2 0x1496 JUMP JUMPDEST PUSH2 0x4C8 PUSH2 0x14B1 JUMP JUMPDEST PUSH1 0x1 PUSH1 0x1 PUSH1 0xA0 SHL SUB SWAP2 DUP3 AND DUP4 MSTORE PUSH1 0x1 DUP7 MSTORE DUP4 DUP4 KECCAK256 SWAP2 AND DUP3 MSTORE DUP5 MSTORE KECCAK256 SLOAD SWAP1 MLOAD SWAP1 DUP2 MSTORE RETURN JUMPDEST POP POP CALLVALUE PUSH2 0x280 JUMPI PUSH1 0x20 CALLDATASIZE PUSH1 0x3 NOT ADD SLT PUSH2 0x280 JUMPI PUSH1 0xC0 SWAP2 DUP2 SWAP1 PUSH1 0x1 PUSH1 0x1 PUSH1 0xA0 SHL SUB PUSH2 0x513 PUSH2 0x1496 JUMP JUMPDEST AND DUP2 MSTORE PUSH1 0x9 PUSH1 0x20 MSTORE KECCAK256 SWAP1 DUP2 SLOAD SWAP2 PUSH1 0x1 DUP2 ADD SLOAD PUSH1 0x3 PUSH1 0x2 DUP4 ADD SLOAD SWAP3 ADD SLOAD SWAP3 DUP1 MLOAD SWAP5 PUSH1 0x1 DUP1 PUSH1 0x80 SHL SUB DUP2 AND DUP7 MSTORE PUSH1 0x1 DUP1 PUSH1 0x40 SHL SUB DUP2 PUSH1 0x80 SHR AND PUSH1 0x20 DUP8 ADD MSTORE DUP7 SHR SWAP1 DUP6 ADD MSTORE PUSH1 0x60 DUP5 ADD MSTORE PUSH1 0x80 DUP4 ADD MSTORE PUSH1 0xA0 DUP3 ADD MSTORE RETURN JUMPDEST POP POP CALLVALUE PUSH2 0x280 JUMPI DUP2 PUSH1 0x3 NOT CALLDATASIZE ADD SLT PUSH2 0x280 JUMPI PUSH1 0x20 SWAP1 PUSH1 0x12 SLOAD SWAP1 MLOAD SWAP1 DUP2 MSTORE RETURN JUMPDEST PUSH2 0x14C7 JUMP JUMPDEST POP POP CALLVALUE PUSH2 0x280 JUMPI PUSH1 0x20 CALLDATASIZE PUSH1 0x3 NOT ADD SLT PUSH2 0x280 JUMPI PUSH1 0x20 SWAP2 PUSH1 0xFF SWAP1 DUP3 SWAP1 PUSH1 0x1 PUSH1 0x1 PUSH1 0xA0 SHL SUB PUSH2 0x5B5 PUSH2 0x1496 JUMP JUMPDEST AND DUP2 MSTORE PUSH1 0xF DUP6 MSTORE KECCAK256 SLOAD AND SWAP1 MLOAD SWAP1 ISZERO ISZERO DUP2 MSTORE RETURN JUMPDEST POP POP CALLVALUE PUSH2 0x280 JUMPI PUSH1 0x20 CALLDATASIZE PUSH1 0x3 NOT ADD SLT PUSH2 0x280 JUMPI PUSH1 0x20 SWAP1 PUSH2 0x5EE PUSH2 0x5E9 PUSH2 0x1496 JUMP JUMPDEST PUSH2 0x2258 JUMP JUMPDEST SWAP1 MLOAD SWAP1 DUP2 MSTORE RETURN JUMPDEST POP POP CALLVALUE PUSH2 0x280 JUMPI DUP2 PUSH1 0x3 NOT CALLDATASIZE ADD SLT PUSH2 0x280 JUMPI PUSH1 0x5 SLOAD SWAP1 MLOAD PUSH1 0x8 SWAP2 SWAP1 SWAP2 SHR PUSH1 0x1 PUSH1 0x1 PUSH1 0xA0 SHL SUB AND DUP2 MSTORE PUSH1 0x20 SWAP1 RETURN JUMPDEST SWAP2 SWAP1 POP CALLVALUE PUSH2 0x47A JUMPI DUP1 PUSH1 0x3 NOT CALLDATASIZE ADD SLT PUSH2 0x47A JUMPI PUSH2 0x63D PUSH2 0x1496 JUMP JUMPDEST SWAP2 PUSH2 0x646 PUSH2 0x14B1 JUMP JUMPDEST PUSH1 0x1 PUSH1 0x1 PUSH1 0xA0 SHL SUB SWAP2 PUSH2 0x67C CALLER PUSH32 0x0 DUP6 AND EQ PUSH2 0x1865 JUMP JUMPDEST PUSH1 0x5 SLOAD SWAP1 PUSH1 0xFF DUP3 AND PUSH2 0x6FE JUMPI POP PUSH1 0x1 PUSH1 0x1 PUSH1 0xA8 SHL SUB NOT AND PUSH1 0x8 DUP6 SWAP1 SHL PUSH2 0x100 PUSH1 0x1 PUSH1 0xA8 SHL SUB AND OR PUSH1 0x1 OR PUSH1 0x5 SSTORE PUSH1 0x6 DUP1 SLOAD PUSH1 0x1 PUSH1 0x1 PUSH1 0xA0 SHL SUB NOT AND SWAP2 DUP4 AND SWAP2 SWAP1 SWAP2 OR SWAP1 SSTORE SWAP2 SWAP1 SWAP2 AND DUP1 DUP4 MSTORE PUSH1 0xF PUSH1 0x20 MSTORE SWAP1 DUP3 KECCAK256 DUP1 SLOAD PUSH1 0xFF NOT AND SWAP1 SSTORE PUSH32 0xC5CA2014458D93C5CF9F836FF7ECE45DE01C929DFB16EED9D6C3329FA1FD0982 DUP3 DUP1 LOG2 DUP1 RETURN JUMPDEST PUSH1 0x64 SWAP1 PUSH1 0x20 DUP7 MLOAD SWAP2 PUSH3 0x461BCD PUSH1 0xE5 SHL DUP4 MSTORE DUP3 ADD MSTORE PUSH1 0x11 PUSH1 0x24 DUP3 ADD MSTORE PUSH17 0x105B1C9958591E4819DC98591D585D1959 PUSH1 0x7A SHL PUSH1 0x44 DUP3 ADD MSTORE REVERT JUMPDEST POP POP CALLVALUE PUSH2 0x280 JUMPI PUSH1 0x20 CALLDATASIZE PUSH1 0x3 NOT ADD SLT PUSH2 0x280 JUMPI PUSH1 0x20 SWAP1 PUSH2 0x5EE PUSH2 0x756 PUSH2 0x1496 JUMP JUMPDEST PUSH2 0x27C9 JUMP JUMPDEST POP POP CALLVALUE PUSH2 0x280 JUMPI DUP2 PUSH1 0x3 NOT CALLDATASIZE ADD SLT PUSH2 0x280 JUMPI PUSH1 0x20 SWAP1 PUSH1 0xD SLOAD SWAP1 MLOAD SWAP1 DUP2 MSTORE RETURN JUMPDEST POP POP CALLVALUE PUSH2 0x280 JUMPI DUP2 PUSH1 0x3 NOT CALLDATASIZE ADD SLT PUSH2 0x280 JUMPI PUSH1 0x20 SWAP1 MLOAD PUSH2 0x3E8 DUP2 MSTORE RETURN JUMPDEST POP POP CALLVALUE PUSH2 0x280 JUMPI DUP2 PUSH1 0x3 NOT CALLDATASIZE ADD SLT PUSH2 0x280 JUMPI MLOAD PUSH32 0x0 PUSH1 0x1 PUSH1 0x1 PUSH1 0xA0 SHL SUB AND DUP2 MSTORE PUSH1 0x20 SWAP1 RETURN JUMPDEST POP POP CALLVALUE PUSH2 0x280 JUMPI DUP2 PUSH1 0x3 NOT CALLDATASIZE ADD SLT PUSH2 0x280 JUMPI PUSH1 0x20 SWAP1 PUSH1 0xA SLOAD SWAP1 MLOAD SWAP1 DUP2 MSTORE RETURN JUMPDEST POP POP CALLVALUE PUSH2 0x280 JUMPI DUP2 PUSH1 0x3 NOT CALLDATASIZE ADD SLT PUSH2 0x280 JUMPI PUSH1 0x20 SWAP1 MLOAD PUSH2 0x7D0 DUP2 MSTORE RETURN JUMPDEST POP POP CALLVALUE PUSH2 0x280 JUMPI DUP2 PUSH1 0x3 NOT CALLDATASIZE ADD SLT PUSH2 0x280 JUMPI PUSH1 0x20 SWAP1 MLOAD PUSH2 0x1F4 DUP2 MSTORE RETURN JUMPDEST DUP4 DUP1 PUSH1 0x3 NOT CALLDATASIZE ADD SLT PUSH2 0x87F JUMPI PUSH2 0x874 CALLER PUSH32 0x0 PUSH1 0x1 PUSH1 0x1 PUSH1 0xA0 SHL SUB AND EQ PUSH2 0x1865 JUMP JUMPDEST PUSH2 0x87C PUSH2 0x18DD JUMP JUMPDEST DUP1 RETURN JUMPDEST DUP1 REVERT JUMPDEST POP POP CALLVALUE PUSH2 0x280 JUMPI DUP2 PUSH1 0x3 NOT CALLDATASIZE ADD SLT PUSH2 0x280 JUMPI PUSH1 0x11 SLOAD SWAP1 MLOAD PUSH1 0x1 PUSH1 0x1 PUSH1 0xA0 SHL SUB SWAP1 SWAP2 AND DUP2 MSTORE PUSH1 0x20 SWAP1 RETURN JUMPDEST POP POP CALLVALUE PUSH2 0x280 JUMPI DUP1 PUSH1 0x3 NOT CALLDATASIZE ADD SLT PUSH2 0x280 JUMPI PUSH1 0x20 SWAP1 PUSH2 0x8D5 PUSH2 0x8CB PUSH2 0x1496 JUMP JUMPDEST PUSH1 0x24 CALLDATALOAD SWAP1 CALLER PUSH2 0x153F JUMP JUMPDEST MLOAD PUSH1 0x1 DUP2 MSTORE RETURN JUMPDEST DUP4 DUP1 PUSH1 0x3 NOT CALLDATASIZE ADD SLT PUSH2 0x87F JUMPI PUSH2 0x91C CALLER PUSH32 0x0 PUSH1 0x1 PUSH1 0x1 PUSH1 0xA0 SHL SUB AND EQ PUSH2 0x1865 JUMP JUMPDEST PUSH2 0x87C CALLVALUE PUSH2 0x2189 JUMP JUMPDEST POP POP CALLVALUE PUSH2 0x280 JUMPI DUP2 PUSH1 0x3 NOT CALLDATASIZE ADD SLT PUSH2 0x280 JUMPI PUSH1 0x20 SWAP1 PUSH1 0xB SLOAD SWAP1 MLOAD SWAP1 DUP2 MSTORE RETURN JUMPDEST SWAP1 POP CALLVALUE PUSH2 0x47A JUMPI PUSH1 0x20 CALLDATASIZE PUSH1 0x3 NOT ADD SLT PUSH2 0x47A JUMPI DUP1 CALLDATALOAD SWAP2 PUSH2 0x98E CALLER PUSH32 0x0 PUSH1 0x1 PUSH1 0x1 PUSH1 0xA0 SHL SUB AND EQ PUSH2 0x194E JUMP JUMPDEST DUP3 ISZERO PUSH2 0x99C JUMPI POP POP PUSH1 0x7 SSTORE DUP1 RETURN JUMPDEST SWAP1 PUSH1 0x20 PUSH1 0x64 SWAP3 MLOAD SWAP2 PUSH3 0x461BCD PUSH1 0xE5 SHL DUP4 MSTORE DUP3 ADD MSTORE PUSH1 0xD PUSH1 0x24 DUP3 ADD MSTORE PUSH13 0x109859081D1A1C995CDA1BDB19 PUSH1 0x9A SHL PUSH1 0x44 DUP3 ADD MSTORE REVERT JUMPDEST POP POP CALLVALUE PUSH2 0x280 JUMPI DUP2 PUSH1 0x3 NOT CALLDATASIZE ADD SLT PUSH2 0x280 JUMPI PUSH1 0x20 SWAP1 MLOAD PUSH11 0xA56FA5B99019A5C8000000 DUP2 MSTORE RETURN JUMPDEST DUP4 DUP4 CALLVALUE PUSH2 0x280 JUMPI DUP2 PUSH1 0x3 NOT CALLDATASIZE ADD SLT PUSH2 0x280 JUMPI DUP1 MLOAD SWAP2 DUP1 SWAP4 DUP1 SLOAD SWAP2 PUSH1 0x1 SWAP1 DUP4 DUP3 SHR SWAP3 DUP3 DUP6 AND SWAP5 DUP6 ISZERO PUSH2 0xAD1 JUMPI JUMPDEST PUSH1 0x20 SWAP6 DUP7 DUP7 LT DUP2 EQ PUSH2 0xABE JUMPI DUP6 DUP10 MSTORE SWAP1 DUP2 ISZERO PUSH2 0xA9A JUMPI POP PUSH1 0x1 EQ PUSH2 0xA5F JUMPI JUMPDEST PUSH2 0xA5B DUP8 DUP8 PUSH2 0xA51 DUP3 DUP13 SUB DUP4 PUSH2 0x1506 JUMP JUMPDEST MLOAD SWAP2 DUP3 SWAP2 DUP3 PUSH2 0x144D JUMP JUMPDEST SUB SWAP1 RETURN JUMPDEST SWAP1 DUP1 SWAP5 SWAP8 POP MSTORE DUP6 DUP4 KECCAK256 JUMPDEST DUP3 DUP5 LT PUSH2 0xA87 JUMPI POP POP POP DUP3 PUSH2 0xA5B SWAP5 PUSH2 0xA51 SWAP3 DUP3 ADD ADD SWAP5 DUP7 DUP1 PUSH2 0xA40 JUMP JUMPDEST DUP1 SLOAD DUP7 DUP6 ADD DUP9 ADD MSTORE SWAP3 DUP7 ADD SWAP3 DUP2 ADD PUSH2 0xA69 JUMP JUMPDEST PUSH1 0xFF NOT AND DUP9 DUP8 ADD MSTORE POP POP POP POP ISZERO ISZERO PUSH1 0x5 SHL DUP4 ADD ADD SWAP3 POP PUSH2 0xA51 DUP3 PUSH2 0xA5B DUP7 DUP1 PUSH2 0xA40 JUMP JUMPDEST PUSH4 0x4E487B71 PUSH1 0xE0 SHL DUP5 MSTORE PUSH1 0x22 DUP4 MSTORE PUSH1 0x24 DUP5 REVERT JUMPDEST SWAP4 PUSH1 0x7F AND SWAP4 PUSH2 0xA21 JUMP JUMPDEST POP POP CALLVALUE PUSH2 0x280 JUMPI DUP2 PUSH1 0x3 NOT CALLDATASIZE ADD SLT PUSH2 0x280 JUMPI MLOAD PUSH8 0x6765C793FA10079D PUSH1 0x1B SHL DUP2 MSTORE PUSH1 0x20 SWAP1 RETURN JUMPDEST DUP4 CALLVALUE PUSH2 0x87F JUMPI PUSH1 0x20 CALLDATASIZE PUSH1 0x3 NOT ADD SLT PUSH2 0x87F JUMPI PUSH2 0xB1B PUSH2 0x1496 JUMP JUMPDEST PUSH1 0x1 PUSH1 0x1 PUSH1 0xA0 SHL SUB SWAP1 PUSH2 0xB51 CALLER PUSH32 0x0 DUP5 AND EQ PUSH2 0x194E JUMP JUMPDEST DUP2 PUSH1 0x11 SLOAD SWAP2 AND DUP1 SWAP3 DUP3 AND PUSH32 0x53D3703FE259DEF57584466F32D1B94C30278008C683C21B04501C4966F13A69 DUP6 DUP1 LOG3 PUSH1 0x1 PUSH1 0x1 PUSH1 0xA0 SHL SUB NOT AND OR PUSH1 0x11 SSTORE DUP1 RETURN JUMPDEST POP POP CALLVALUE PUSH2 0x280 JUMPI DUP2 PUSH1 0x3 NOT CALLDATASIZE ADD SLT PUSH2 0x280 JUMPI PUSH1 0x6 SLOAD SWAP1 MLOAD PUSH1 0x1 PUSH1 0x1 PUSH1 0xA0 SHL SUB SWAP1 SWAP2 AND DUP2 MSTORE PUSH1 0x20 SWAP1 RETURN JUMPDEST POP POP CALLVALUE PUSH2 0x280 JUMPI DUP2 PUSH1 0x3 NOT CALLDATASIZE ADD SLT PUSH2 0x280 JUMPI MLOAD PUSH32 0x0 PUSH1 0x1 PUSH1 0x1 PUSH1 0xA0 SHL SUB AND DUP2 MSTORE PUSH1 0x20 SWAP1 RETURN JUMPDEST POP POP CALLVALUE PUSH2 0x280 JUMPI PUSH1 0x20 CALLDATASIZE PUSH1 0x3 NOT ADD SLT PUSH2 0x280 JUMPI PUSH1 0x20 SWAP2 DUP2 SWAP1 PUSH1 0x1 PUSH1 0x1 PUSH1 0xA0 SHL SUB PUSH2 0xC25 PUSH2 0x1496 JUMP JUMPDEST AND DUP2 MSTORE DUP1 DUP5 MSTORE KECCAK256 SLOAD SWAP1 MLOAD SWAP1 DUP2 MSTORE RETURN JUMPDEST POP POP CALLVALUE PUSH2 0x280 JUMPI DUP2 PUSH1 0x3 NOT CALLDATASIZE ADD SLT PUSH2 0x280 JUMPI PUSH1 0x20 SWAP1 PUSH1 0xC SLOAD SWAP1 MLOAD SWAP1 DUP2 MSTORE RETURN JUMPDEST DUP4 DUP4 CALLVALUE PUSH2 0x280 JUMPI PUSH1 0x20 DUP1 PUSH1 0x3 NOT CALLDATASIZE ADD SLT PUSH2 0x47A JUMPI DUP4 CALLDATALOAD SWAP2 PUSH1 0x1 PUSH1 0x1 PUSH1 0xA0 SHL SUB SWAP2 PUSH32 0x0 DUP4 DUP2 AND SWAP1 PUSH2 0xCA3 CALLER DUP4 EQ PUSH2 0x1865 JUMP JUMPDEST DUP6 ISZERO SWAP8 DUP9 ISZERO PUSH2 0xCB0 JUMPI DUP8 DUP1 RETURN JUMPDEST DUP3 ISZERO PUSH2 0xF23 JUMPI DUP7 SWAP9 PUSH2 0xCC1 DUP4 PUSH2 0x1CE5 JUMP JUMPDEST PUSH2 0xCC9 PUSH2 0x1BB2 JUMP JUMPDEST PUSH1 0x5 SLOAD SWAP8 PUSH1 0xFF SWAP9 DUP10 DUP2 AND DUP1 PUSH2 0xF17 JUMPI JUMPDEST DUP1 PUSH2 0xF03 JUMPI JUMPDEST DUP1 PUSH2 0xEED JUMPI JUMPDEST PUSH2 0xD94 JUMPI JUMPDEST POP POP POP POP DUP1 PUSH2 0xD02 DUP9 SWAP10 PUSH2 0xD07 SWAP4 SWAP10 SWAP7 SWAP8 SWAP9 SWAP10 PUSH2 0x1A2A JUMP JUMPDEST PUSH2 0x1F9D JUMP JUMPDEST PUSH2 0xD0F PUSH2 0x1DDA JUMP JUMPDEST PUSH1 0x5 SLOAD DUP7 DUP2 AND SWAP7 DUP8 PUSH2 0xD87 JUMPI JUMPDEST POP DUP7 PUSH2 0xD77 JUMPI JUMPDEST POP POP DUP5 PUSH2 0xD61 JUMPI JUMPDEST POP POP POP DUP2 PUSH2 0xD53 JUMPI JUMPDEST POP PUSH2 0xD46 JUMPI JUMPDEST DUP1 DUP3 DUP1 DUP1 DUP1 DUP1 DUP1 DUP1 DUP8 DUP1 RETURN JUMPDEST PUSH2 0xD4E PUSH2 0x231A JUMP JUMPDEST PUSH2 0xD3A JUMP JUMPDEST SWAP1 POP PUSH1 0x6 SLOAD AND ISZERO ISZERO DUP3 PUSH2 0xD34 JUMP JUMPDEST ADDRESS DUP3 MSTORE MSTORE DUP4 KECCAK256 SLOAD PUSH1 0x7 SLOAD GT ISZERO SWAP2 POP DUP4 DUP4 DUP2 PUSH2 0xD2B JUMP JUMPDEST PUSH1 0x8 SHR DUP6 AND EQ ISZERO SWAP5 POP DUP7 DUP1 PUSH2 0xD23 JUMP JUMPDEST PUSH1 0x8 SLOAD AND ISZERO SWAP7 POP DUP9 PUSH2 0xD1C JUMP JUMPDEST PUSH1 0x8 SHR DUP9 AND DUP6 DUP2 EQ SWAP3 PUSH2 0xDEAD SWAP3 SWAP2 DUP4 EQ DUP5 DUP1 ISZERO PUSH2 0xEE6 JUMPI JUMPDEST PUSH2 0xDB8 JUMPI JUMPDEST POP POP PUSH2 0xCEA JUMP JUMPDEST SWAP1 SWAP2 SWAP3 SWAP4 SWAP5 SWAP13 POP DUP12 SWAP1 PUSH2 0xED7 JUMPI JUMPDEST PUSH2 0x1F4 SWAP1 DUP2 ADD DUP1 SWAP2 GT PUSH2 0xEC4 JUMPI PUSH2 0xDE3 SWAP1 PUSH2 0x2710 SWAP2 DUP3 SWAP2 DUP6 PUSH2 0x19C7 JUMP JUMPDEST DIV SWAP2 PUSH1 0x96 DUP5 MUL SWAP1 DUP5 DUP3 DIV PUSH1 0x96 EQ OR ISZERO PUSH2 0xEB0 JUMPI DUP13 SWAP14 POP PUSH1 0x60 PUSH2 0xD07 SWAP8 SWAP7 SWAP5 DUP11 DUP13 SWAP14 SWAP15 SWAP16 DUP1 SWAP14 PUSH2 0xE43 PUSH2 0xD02 SWAP11 SWAP9 DUP15 SWAP9 PUSH1 0x0 DUP1 MLOAD PUSH1 0x20 PUSH2 0x28C4 DUP4 CODECOPY DUP2 MLOAD SWAP2 MSTORE SWAP9 DIV SWAP6 DUP14 DUP8 DUP1 PUSH2 0xEA0 JUMPI JUMPDEST PUSH2 0xE36 SWAP1 DUP5 PUSH2 0x19FA JUMP JUMPDEST DUP1 PUSH2 0xE8E JUMPI JUMPDEST POP POP PUSH2 0x19FA JUMP JUMPDEST SWAP9 PUSH2 0xE69 JUMPI JUMPDEST SWAP2 POP POP MLOAD SWAP1 DUP2 MSTORE DUP12 DUP12 DUP3 ADD MSTORE DUP12 DUP14 DUP3 ADD MSTORE LOG3 SWAP10 SWAP9 SWAP8 SWAP7 SWAP6 DUP3 SWAP4 DUP13 DUP1 PUSH2 0xDB1 JUMP JUMPDEST DUP8 DUP3 MSTORE PUSH1 0x9 SWAP1 SWAP3 MSTORE KECCAK256 PUSH2 0xE86 SWAP1 TIMESTAMP PUSH1 0x1 PUSH1 0x1 PUSH1 0x40 SHL SUB AND SWAP1 PUSH2 0x1A07 JUMP JUMPDEST DUP11 DUP13 DUP15 PUSH2 0xE49 JUMP JUMPDEST PUSH2 0xE99 SWAP2 ADDRESS SWAP1 PUSH2 0x1AC5 JUMP JUMPDEST DUP14 CODESIZE PUSH2 0xE3C JUMP JUMPDEST PUSH2 0xEA9 SWAP2 PUSH2 0x1A2A JUMP JUMPDEST DUP14 DUP8 PUSH2 0xE2C JUMP JUMPDEST POP PUSH4 0x4E487B71 PUSH1 0xE0 SHL DUP13 MSTORE PUSH1 0x11 DUP14 MSTORE PUSH1 0x24 DUP13 REVERT JUMPDEST PUSH4 0x4E487B71 PUSH1 0xE0 SHL DUP13 MSTORE PUSH1 0x11 DUP14 MSTORE PUSH1 0x24 DUP13 REVERT JUMPDEST POP PUSH2 0xEE1 DUP6 PUSH2 0x2258 JUMP JUMPDEST PUSH2 0xDC6 JUMP JUMPDEST POP DUP1 PUSH2 0xDAC JUMP JUMPDEST POP PUSH2 0xDEAD DUP12 MSTORE PUSH1 0xF DUP8 MSTORE DUP10 DUP9 DUP13 KECCAK256 SLOAD AND ISZERO PUSH2 0xCE5 JUMP JUMPDEST POP DUP6 DUP12 MSTORE PUSH1 0xF DUP8 MSTORE DUP10 DUP9 DUP13 KECCAK256 SLOAD AND ISZERO PUSH2 0xCDF JUMP JUMPDEST POP DUP10 PUSH1 0x8 SLOAD AND ISZERO PUSH2 0xCD9 JUMP JUMPDEST DUP5 MLOAD PUSH4 0x4B637E8F PUSH1 0xE1 SHL DUP2 MSTORE SWAP1 DUP2 ADD DUP9 SWAP1 MSTORE PUSH1 0x24 SWAP1 REVERT JUMPDEST SWAP2 SWAP1 POP CALLVALUE PUSH2 0x47A JUMPI DUP3 PUSH1 0x3 NOT CALLDATASIZE ADD SLT PUSH2 0x47A JUMPI PUSH2 0xF55 PUSH2 0x26CE JUMP JUMPDEST PUSH2 0xF5E CALLER PUSH2 0x1CE5 JUMP JUMPDEST CALLER DUP4 MSTORE PUSH1 0x9 PUSH1 0x20 MSTORE PUSH1 0x3 DUP2 DUP5 KECCAK256 ADD DUP1 SLOAD SWAP3 DUP4 ISZERO PUSH2 0xFBF JUMPI POP DUP4 SWAP1 SSTORE PUSH2 0xF92 DUP4 DUP1 DUP1 DUP1 DUP7 CALLER GAS CALL PUSH2 0xF8C PUSH2 0x189E JUMP JUMPDEST POP PUSH2 0x1989 JUMP JUMPDEST MLOAD SWAP1 DUP2 MSTORE PUSH1 0x0 DUP1 MLOAD PUSH1 0x20 PUSH2 0x2864 DUP4 CODECOPY DUP2 MLOAD SWAP2 MSTORE PUSH1 0x20 CALLER SWAP3 LOG2 PUSH1 0x1 PUSH1 0x0 DUP1 MLOAD PUSH1 0x20 PUSH2 0x28E4 DUP4 CODECOPY DUP2 MLOAD SWAP2 MSTORE SSTORE DUP1 RETURN JUMPDEST PUSH1 0x64 SWAP1 PUSH1 0x20 DUP5 MLOAD SWAP2 PUSH3 0x461BCD PUSH1 0xE5 SHL DUP4 MSTORE DUP3 ADD MSTORE PUSH1 0x10 PUSH1 0x24 DUP3 ADD MSTORE PUSH16 0x4E6F7468696E6720746F20636C61696D PUSH1 0x80 SHL PUSH1 0x44 DUP3 ADD MSTORE REVERT JUMPDEST POP POP CALLVALUE PUSH2 0x280 JUMPI DUP2 PUSH1 0x3 NOT CALLDATASIZE ADD SLT PUSH2 0x280 JUMPI PUSH1 0x20 SWAP1 MLOAD PUSH1 0xC8 DUP2 MSTORE RETURN JUMPDEST POP POP CALLVALUE PUSH2 0x280 JUMPI PUSH1 0x20 CALLDATASIZE PUSH1 0x3 NOT ADD SLT PUSH2 0x280 JUMPI PUSH1 0x20 SWAP1 PUSH2 0x5EE PUSH2 0x1032 PUSH2 0x1496 JUMP JUMPDEST PUSH2 0x270D JUMP JUMPDEST POP POP CALLVALUE PUSH2 0x280 JUMPI DUP2 PUSH1 0x3 NOT CALLDATASIZE ADD SLT PUSH2 0x280 JUMPI PUSH1 0x20 SWAP1 MLOAD PUSH1 0x12 DUP2 MSTORE RETURN JUMPDEST POP POP CALLVALUE PUSH2 0x280 JUMPI DUP1 PUSH1 0x3 NOT CALLDATASIZE ADD SLT PUSH2 0x280 JUMPI PUSH2 0x106D PUSH2 0x1496 JUMP JUMPDEST SWAP1 PUSH1 0x24 CALLDATALOAD SWAP2 DUP3 ISZERO ISZERO DUP1 SWAP4 SUB PUSH2 0x10CC JUMPI PUSH1 0x1 PUSH1 0x1 PUSH1 0xA0 SHL SUB SWAP1 PUSH2 0x10B2 CALLER PUSH32 0x0 DUP5 AND EQ PUSH2 0x194E JUMP JUMPDEST AND DUP4 MSTORE PUSH1 0xF PUSH1 0x20 MSTORE DUP3 KECCAK256 SWAP1 PUSH1 0xFF DUP1 NOT DUP4 SLOAD AND SWAP2 AND OR SWAP1 SSTORE DUP1 RETURN JUMPDEST DUP4 DUP1 REVERT JUMPDEST SWAP1 POP DUP3 CALLVALUE PUSH2 0x87F JUMPI PUSH1 0x60 CALLDATASIZE PUSH1 0x3 NOT ADD SLT PUSH2 0x87F JUMPI PUSH2 0x10EC PUSH2 0x1496 JUMP JUMPDEST PUSH2 0x10F4 PUSH2 0x14B1 JUMP JUMPDEST SWAP2 PUSH1 0x44 CALLDATALOAD SWAP4 PUSH1 0x1 DUP1 PUSH1 0xA0 SHL SUB DUP4 AND DUP1 DUP4 MSTORE PUSH1 0x1 PUSH1 0x20 MSTORE DUP7 DUP4 KECCAK256 CALLER DUP5 MSTORE PUSH1 0x20 MSTORE DUP7 DUP4 KECCAK256 SLOAD SWAP2 PUSH1 0x0 NOT DUP4 LT PUSH2 0x1130 JUMPI JUMPDEST PUSH1 0x20 DUP9 PUSH2 0x8D5 DUP10 DUP10 DUP10 PUSH2 0x153F JUMP JUMPDEST DUP7 DUP4 LT PUSH2 0x1198 JUMPI DUP2 ISZERO PUSH2 0x1181 JUMPI CALLER ISZERO PUSH2 0x116A JUMPI POP DUP3 MSTORE PUSH1 0x1 PUSH1 0x20 SWAP1 DUP2 MSTORE DUP7 DUP4 KECCAK256 CALLER DUP5 MSTORE DUP2 MSTORE SWAP2 DUP7 SWAP1 KECCAK256 SWAP1 DUP6 SWAP1 SUB SWAP1 SSTORE DUP3 SWAP1 PUSH2 0x8D5 DUP8 PUSH2 0x1122 JUMP JUMPDEST DUP8 MLOAD PUSH4 0x4A1406B1 PUSH1 0xE1 SHL DUP2 MSTORE SWAP1 DUP2 ADD DUP5 SWAP1 MSTORE PUSH1 0x24 SWAP1 REVERT JUMPDEST DUP8 MLOAD PUSH4 0xE602DF05 PUSH1 0xE0 SHL DUP2 MSTORE SWAP1 DUP2 ADD DUP5 SWAP1 MSTORE PUSH1 0x24 SWAP1 REVERT JUMPDEST SWAP1 POP PUSH2 0x11B6 DUP7 DUP9 MLOAD SWAP4 DUP5 SWAP4 PUSH4 0x7DC7A0D9 PUSH1 0xE1 SHL DUP6 MSTORE CALLER SWAP1 DUP6 ADD PUSH2 0x1847 JUMP JUMPDEST SUB SWAP1 REVERT JUMPDEST POP POP CALLVALUE PUSH2 0x280 JUMPI DUP2 PUSH1 0x3 NOT CALLDATASIZE ADD SLT PUSH2 0x280 JUMPI MLOAD PUSH8 0x14ADF4B7320334B9 PUSH1 0x1D SHL DUP2 MSTORE PUSH1 0x20 SWAP1 RETURN JUMPDEST POP POP CALLVALUE PUSH2 0x280 JUMPI DUP2 PUSH1 0x3 NOT CALLDATASIZE ADD SLT PUSH2 0x280 JUMPI PUSH1 0x20 SWAP1 PUSH1 0x2 SLOAD SWAP1 MLOAD SWAP1 DUP2 MSTORE RETURN JUMPDEST POP POP CALLVALUE PUSH2 0x280 JUMPI DUP2 PUSH1 0x3 NOT CALLDATASIZE ADD SLT PUSH2 0x280 JUMPI PUSH1 0x20 SWAP1 PUSH1 0x10 SLOAD SWAP1 MLOAD SWAP1 DUP2 MSTORE RETURN JUMPDEST POP POP CALLVALUE PUSH2 0x280 JUMPI DUP1 PUSH1 0x3 NOT CALLDATASIZE ADD SLT PUSH2 0x280 JUMPI PUSH1 0x20 SWAP1 PUSH2 0x8D5 PUSH2 0x123E PUSH2 0x1496 JUMP JUMPDEST PUSH1 0x24 CALLDATALOAD SWAP1 CALLER PUSH2 0x17B4 JUMP JUMPDEST POP POP CALLVALUE PUSH2 0x280 JUMPI DUP2 PUSH1 0x3 NOT CALLDATASIZE ADD SLT PUSH2 0x280 JUMPI PUSH1 0x20 SWAP1 PUSH2 0x5EE PUSH2 0x126C PUSH1 0xB SLOAD TIMESTAMP PUSH2 0x19FA JUMP JUMPDEST PUSH2 0x127B PUSH1 0xA SLOAD SWAP2 PUSH1 0xC SLOAD PUSH2 0x19C7 JUMP JUMPDEST SWAP1 PUSH2 0x14E3 JUMP JUMPDEST SWAP2 SWAP1 POP CALLVALUE PUSH2 0x47A JUMPI DUP3 PUSH1 0x3 NOT CALLDATASIZE ADD SLT PUSH2 0x47A JUMPI DUP1 MLOAD SWAP2 DUP4 PUSH1 0x3 SLOAD SWAP1 PUSH1 0x1 SWAP1 DUP3 DUP3 SHR SWAP3 DUP3 DUP2 AND DUP1 ISZERO PUSH2 0x134E JUMPI JUMPDEST PUSH1 0x20 SWAP6 DUP7 DUP7 LT DUP3 EQ PUSH2 0x133B JUMPI POP DUP5 DUP9 MSTORE SWAP1 DUP2 ISZERO PUSH2 0x1319 JUMPI POP PUSH1 0x1 EQ PUSH2 0x12DE JUMPI JUMPDEST PUSH2 0xA5B DUP7 DUP7 PUSH2 0xA51 DUP3 DUP12 SUB DUP4 PUSH2 0x1506 JUMP JUMPDEST SWAP3 SWAP6 POP PUSH1 0x3 DUP4 MSTORE DUP6 DUP4 KECCAK256 JUMPDEST DUP3 DUP5 LT PUSH2 0x1306 JUMPI POP POP POP DUP3 PUSH2 0xA5B SWAP5 PUSH2 0xA51 SWAP3 DUP3 ADD ADD SWAP5 CODESIZE PUSH2 0x12CD JUMP JUMPDEST DUP1 SLOAD DUP7 DUP6 ADD DUP9 ADD MSTORE SWAP3 DUP7 ADD SWAP3 DUP2 ADD PUSH2 0x12E9 JUMP JUMPDEST PUSH1 0xFF NOT AND DUP8 DUP7 ADD MSTORE POP POP POP ISZERO ISZERO PUSH1 0x5 SHL DUP4 ADD ADD SWAP3 POP PUSH2 0xA51 DUP3 PUSH2 0xA5B CODESIZE PUSH2 0x12CD JUMP JUMPDEST PUSH4 0x4E487B71 PUSH1 0xE0 SHL DUP5 MSTORE PUSH1 0x22 SWAP1 MSTORE PUSH1 0x24 DUP4 REVERT JUMPDEST SWAP4 PUSH1 0x7F AND SWAP4 PUSH2 0x12AD JUMP JUMPDEST POP POP CALLVALUE PUSH2 0x280 JUMPI DUP2 PUSH1 0x3 NOT CALLDATASIZE ADD SLT PUSH2 0x280 JUMPI PUSH1 0x20 SWAP1 PUSH1 0x7 SLOAD SWAP1 MLOAD SWAP1 DUP2 MSTORE RETURN JUMPDEST SWAP2 SWAP1 POP CALLVALUE PUSH2 0x47A JUMPI DUP3 PUSH1 0x3 NOT CALLDATASIZE ADD SLT PUSH2 0x47A JUMPI PUSH32 0x0 PUSH1 0x1 PUSH1 0x1 PUSH1 0xA0 SHL SUB AND PUSH2 0x13BF CALLER DUP3 EQ PUSH2 0x194E JUMP JUMPDEST PUSH1 0x12 SLOAD SWAP3 DUP4 ISZERO PUSH2 0x13FC JUMPI POP SWAP2 PUSH1 0x20 SWAP2 PUSH2 0x13F4 DUP6 DUP1 DUP1 DUP1 DUP7 PUSH1 0x0 DUP1 MLOAD PUSH1 0x20 PUSH2 0x2824 DUP4 CODECOPY DUP2 MLOAD SWAP2 MSTORE SWAP10 DUP3 PUSH1 0x12 SSTORE GAS CALL PUSH2 0xF8C PUSH2 0x189E JUMP JUMPDEST MLOAD SWAP1 DUP2 MSTORE LOG1 DUP1 RETURN JUMPDEST PUSH1 0x64 SWAP1 PUSH1 0x20 DUP5 MLOAD SWAP2 PUSH3 0x461BCD PUSH1 0xE5 SHL DUP4 MSTORE DUP3 ADD MSTORE PUSH1 0xF PUSH1 0x24 DUP3 ADD MSTORE PUSH15 0x4E6F7468696E672070656E64696E67 PUSH1 0x88 SHL PUSH1 0x44 DUP3 ADD MSTORE REVERT JUMPDEST DUP5 SWAP1 CALLVALUE PUSH2 0x280 JUMPI DUP2 PUSH1 0x3 NOT CALLDATASIZE ADD SLT PUSH2 0x280 JUMPI DUP1 PUSH2 0xDEAD PUSH1 0x20 SWAP3 MSTORE RETURN JUMPDEST PUSH1 0x20 DUP1 DUP3 MSTORE DUP3 MLOAD DUP2 DUP4 ADD DUP2 SWAP1 MSTORE SWAP1 SWAP4 SWAP3 PUSH1 0x0 JUMPDEST DUP3 DUP2 LT PUSH2 0x1482 JUMPI POP POP PUSH1 0x40 SWAP3 SWAP4 POP PUSH1 0x0 DUP4 DUP3 DUP5 ADD ADD MSTORE PUSH1 0x1F DUP1 NOT SWAP2 ADD AND ADD ADD SWAP1 JUMP JUMPDEST DUP2 DUP2 ADD DUP7 ADD MLOAD DUP5 DUP3 ADD PUSH1 0x40 ADD MSTORE DUP6 ADD PUSH2 0x1460 JUMP JUMPDEST PUSH1 0x4 CALLDATALOAD SWAP1 PUSH1 0x1 PUSH1 0x1 PUSH1 0xA0 SHL SUB DUP3 AND DUP3 SUB PUSH2 0x14AC JUMPI JUMP JUMPDEST PUSH1 0x0 DUP1 REVERT JUMPDEST PUSH1 0x24 CALLDATALOAD SWAP1 PUSH1 0x1 PUSH1 0x1 PUSH1 0xA0 SHL SUB DUP3 AND DUP3 SUB PUSH2 0x14AC JUMPI JUMP JUMPDEST CALLVALUE PUSH2 0x14AC JUMPI PUSH1 0x0 CALLDATASIZE PUSH1 0x3 NOT ADD SLT PUSH2 0x14AC JUMPI PUSH1 0x20 PUSH1 0x40 MLOAD PUSH1 0x96 DUP2 MSTORE RETURN JUMPDEST SWAP2 SWAP1 DUP3 ADD DUP1 SWAP3 GT PUSH2 0x14F0 JUMPI JUMP JUMPDEST PUSH4 0x4E487B71 PUSH1 0xE0 SHL PUSH1 0x0 MSTORE PUSH1 0x11 PUSH1 0x4 MSTORE PUSH1 0x24 PUSH1 0x0 REVERT JUMPDEST PUSH1 0x1F SWAP1 SWAP2 ADD PUSH1 0x1F NOT AND DUP2 ADD SWAP1 PUSH1 0x1 PUSH1 0x1 PUSH1 0x40 SHL SUB DUP3 GT SWAP1 DUP3 LT OR PUSH2 0x1529 JUMPI PUSH1 0x40 MSTORE JUMP JUMPDEST PUSH4 0x4E487B71 PUSH1 0xE0 SHL PUSH1 0x0 MSTORE PUSH1 0x41 PUSH1 0x4 MSTORE PUSH1 0x24 PUSH1 0x0 REVERT JUMPDEST PUSH1 0x1 PUSH1 0x1 PUSH1 0xA0 SHL SUB SWAP3 SWAP2 DUP4 DUP3 AND SWAP2 SWAP1 DUP3 ISZERO PUSH2 0x179B JUMPI DUP5 DUP2 AND SWAP2 DUP3 ISZERO PUSH2 0x1782 JUMPI DUP5 SWAP3 PUSH2 0x1569 DUP3 PUSH2 0x1CE5 JUMP JUMPDEST PUSH2 0x1572 DUP4 PUSH2 0x1CE5 JUMP JUMPDEST PUSH1 0x5 SLOAD SWAP6 DUP8 PUSH1 0xFF SWAP8 DUP9 DUP2 AND DUP1 PUSH2 0x1776 JUMPI JUMPDEST DUP1 PUSH2 0x175E JUMPI JUMPDEST DUP1 PUSH2 0x1746 JUMPI JUMPDEST PUSH2 0x1625 JUMPI JUMPDEST POP POP POP POP DUP1 PUSH2 0xD02 PUSH2 0x15AA SWAP5 DUP5 PUSH2 0xD02 SWAP5 PUSH2 0x1AC5 JUMP JUMPDEST PUSH1 0x5 SLOAD DUP3 DUP2 AND SWAP3 DUP4 PUSH2 0x1618 JUMPI JUMPDEST POP DUP3 PUSH2 0x1608 JUMPI JUMPDEST POP POP SWAP1 DUP2 PUSH2 0x15EC JUMPI JUMPDEST DUP2 PUSH2 0x15DE JUMPI JUMPDEST POP PUSH2 0x15D4 JUMPI JUMP JUMPDEST PUSH2 0x15DC PUSH2 0x231A JUMP JUMPDEST JUMP JUMPDEST SWAP1 POP PUSH1 0x6 SLOAD AND ISZERO ISZERO CODESIZE PUSH2 0x15CD JUMP JUMPDEST SWAP1 POP ADDRESS PUSH1 0x0 MSTORE PUSH1 0x0 PUSH1 0x20 MSTORE PUSH1 0x40 PUSH1 0x0 KECCAK256 SLOAD PUSH1 0x7 SLOAD GT ISZERO SWAP1 PUSH2 0x15C7 JUMP JUMPDEST PUSH1 0x8 SHR DUP4 AND EQ ISZERO SWAP1 POP CODESIZE DUP1 PUSH2 0x15BE JUMP JUMPDEST PUSH1 0x8 SLOAD AND ISZERO SWAP3 POP CODESIZE PUSH2 0x15B7 JUMP JUMPDEST PUSH1 0x8 SHR AND DUP3 DUP2 EQ SWAP2 SWAP1 DUP8 EQ DUP1 DUP1 ISZERO PUSH2 0x173F JUMPI JUMPDEST PUSH2 0x1645 JUMPI JUMPDEST DUP10 SWAP2 POP PUSH2 0x1594 JUMP JUMPDEST SWAP1 SWAP2 SWAP4 SWAP3 SWAP6 POP PUSH1 0x0 SWAP4 PUSH2 0x172E JUMPI JUMPDEST PUSH2 0x1F4 SWAP4 DUP5 ADD DUP1 SWAP5 GT PUSH2 0x14F0 JUMPI PUSH2 0x1670 SWAP4 PUSH2 0x2710 SWAP5 DUP6 SWAP2 DUP5 PUSH2 0x19C7 JUMP JUMPDEST DIV SWAP6 PUSH1 0x96 DUP4 MUL DUP4 DUP2 DIV PUSH1 0x96 EQ DUP5 ISZERO OR ISZERO PUSH2 0x14F0 JUMPI PUSH1 0x0 DUP1 MLOAD PUSH1 0x20 PUSH2 0x28C4 DUP4 CODECOPY DUP2 MLOAD SWAP2 MSTORE PUSH1 0x60 PUSH2 0xD02 SWAP6 PUSH2 0x16C4 PUSH2 0x15AA SWAP12 PUSH2 0xD02 SWAP11 DUP15 SWAP7 DIV SWAP3 DUP4 PUSH2 0x171F JUMPI JUMPDEST PUSH2 0x16B8 DUP5 DUP4 PUSH2 0x19FA JUMP JUMPDEST DUP1 PUSH2 0x170E JUMPI JUMPDEST POP PUSH2 0x19FA JUMP JUMPDEST SWAP6 PUSH2 0x16E7 JUMPI JUMPDEST PUSH1 0x40 MLOAD SWAP1 DUP2 MSTORE PUSH1 0x0 PUSH1 0x20 DUP3 ADD MSTORE PUSH1 0x0 PUSH1 0x40 DUP3 ADD MSTORE LOG3 SWAP5 DUP3 SWAP4 PUSH2 0x163D JUMP JUMPDEST PUSH1 0x0 DUP6 DUP2 MSTORE PUSH1 0x9 PUSH1 0x20 MSTORE PUSH1 0x40 SWAP1 KECCAK256 PUSH2 0x1709 SWAP1 TIMESTAMP PUSH1 0x1 PUSH1 0x1 PUSH1 0x40 SHL SUB AND SWAP1 PUSH2 0x1A07 JUMP JUMPDEST PUSH2 0x16CA JUMP JUMPDEST PUSH2 0x1719 SWAP1 ADDRESS DUP14 PUSH2 0x1AC5 JUMP JUMPDEST CODESIZE PUSH2 0x16BE JUMP JUMPDEST PUSH2 0x1729 DUP5 DUP13 PUSH2 0x1A2A JUMP JUMPDEST PUSH2 0x16AE JUMP JUMPDEST SWAP3 POP PUSH2 0x1739 DUP3 PUSH2 0x2258 JUMP JUMPDEST SWAP3 PUSH2 0x1653 JUMP JUMPDEST POP DUP3 PUSH2 0x1638 JUMP JUMPDEST POP DUP4 PUSH1 0x0 MSTORE PUSH1 0xF PUSH1 0x20 MSTORE DUP9 PUSH1 0x40 PUSH1 0x0 KECCAK256 SLOAD AND ISZERO PUSH2 0x158F JUMP JUMPDEST POP DUP8 PUSH1 0x0 MSTORE PUSH1 0xF PUSH1 0x20 MSTORE DUP9 PUSH1 0x40 PUSH1 0x0 KECCAK256 SLOAD AND ISZERO PUSH2 0x1589 JUMP JUMPDEST POP DUP9 PUSH1 0x8 SLOAD AND ISZERO PUSH2 0x1583 JUMP JUMPDEST PUSH1 0x40 MLOAD PUSH4 0xEC442F05 PUSH1 0xE0 SHL DUP2 MSTORE PUSH1 0x0 PUSH1 0x4 DUP3 ADD MSTORE PUSH1 0x24 SWAP1 REVERT JUMPDEST PUSH1 0x40 MLOAD PUSH4 0x4B637E8F PUSH1 0xE1 SHL DUP2 MSTORE PUSH1 0x0 PUSH1 0x4 DUP3 ADD MSTORE PUSH1 0x24 SWAP1 REVERT JUMPDEST PUSH1 0x1 PUSH1 0x1 PUSH1 0xA0 SHL SUB SWAP1 DUP2 AND SWAP2 DUP3 ISZERO PUSH2 0x182E JUMPI AND SWAP2 DUP3 ISZERO PUSH2 0x1815 JUMPI PUSH1 0x20 PUSH32 0x8C5BE1E5EBEC7D5BD14F71427D1E84F3DD0314C0F7B2291E5B200AC8C7C3B925 SWAP2 DUP4 PUSH1 0x0 MSTORE PUSH1 0x1 DUP3 MSTORE PUSH1 0x40 PUSH1 0x0 KECCAK256 DUP6 PUSH1 0x0 MSTORE DUP3 MSTORE DUP1 PUSH1 0x40 PUSH1 0x0 KECCAK256 SSTORE PUSH1 0x40 MLOAD SWAP1 DUP2 MSTORE LOG3 JUMP JUMPDEST PUSH1 0x40 MLOAD PUSH4 0x4A1406B1 PUSH1 0xE1 SHL DUP2 MSTORE PUSH1 0x0 PUSH1 0x4 DUP3 ADD MSTORE PUSH1 0x24 SWAP1 REVERT JUMPDEST PUSH1 0x40 MLOAD PUSH4 0xE602DF05 PUSH1 0xE0 SHL DUP2 MSTORE PUSH1 0x0 PUSH1 0x4 DUP3 ADD MSTORE PUSH1 0x24 SWAP1 REVERT JUMPDEST PUSH1 0x40 SWAP2 SWAP5 SWAP4 SWAP3 PUSH1 0x60 DUP3 ADD SWAP6 PUSH1 0x1 DUP1 PUSH1 0xA0 SHL SUB AND DUP3 MSTORE PUSH1 0x20 DUP3 ADD MSTORE ADD MSTORE JUMP JUMPDEST ISZERO PUSH2 0x186C JUMPI JUMP JUMPDEST PUSH1 0x40 MLOAD PUSH3 0x461BCD PUSH1 0xE5 SHL DUP2 MSTORE PUSH1 0x20 PUSH1 0x4 DUP3 ADD MSTORE PUSH1 0xA PUSH1 0x24 DUP3 ADD MSTORE PUSH10 0x4F6E6C79206375727665 PUSH1 0xB0 SHL PUSH1 0x44 DUP3 ADD MSTORE PUSH1 0x64 SWAP1 REVERT JUMPDEST RETURNDATASIZE ISZERO PUSH2 0x18D8 JUMPI RETURNDATASIZE SWAP1 PUSH1 0x1 PUSH1 0x1 PUSH1 0x40 SHL SUB DUP3 GT PUSH2 0x1529 JUMPI PUSH1 0x40 MLOAD SWAP2 PUSH2 0x18CC PUSH1 0x1F DUP3 ADD PUSH1 0x1F NOT AND PUSH1 0x20 ADD DUP5 PUSH2 0x1506 JUMP JUMPDEST DUP3 MSTORE RETURNDATASIZE PUSH1 0x0 PUSH1 0x20 DUP5 ADD RETURNDATACOPY JUMP JUMPDEST PUSH1 0x60 SWAP1 JUMP JUMPDEST CALLVALUE ISZERO PUSH2 0x15DC JUMPI PUSH1 0x0 DUP1 DUP1 DUP1 CALLVALUE PUSH32 0x0 PUSH1 0x1 PUSH1 0x1 PUSH1 0xA0 SHL SUB AND GAS CALL PUSH2 0x191D PUSH2 0x189E JUMP JUMPDEST POP ISZERO PUSH2 0x193D JUMPI PUSH1 0x0 DUP1 MLOAD PUSH1 0x20 PUSH2 0x2824 DUP4 CODECOPY DUP2 MLOAD SWAP2 MSTORE PUSH1 0x20 PUSH1 0x40 MLOAD CALLVALUE DUP2 MSTORE LOG1 JUMP JUMPDEST PUSH2 0x1949 CALLVALUE PUSH1 0x12 SLOAD PUSH2 0x14E3 JUMP JUMPDEST PUSH1 0x12 SSTORE JUMP JUMPDEST ISZERO PUSH2 0x1955 JUMPI JUMP JUMPDEST PUSH1 0x40 MLOAD PUSH3 0x461BCD PUSH1 0xE5 SHL DUP2 MSTORE PUSH1 0x20 PUSH1 0x4 DUP3 ADD MSTORE PUSH1 0xC PUSH1 0x24 DUP3 ADD MSTORE PUSH12 0x4F6E6C7920666163746F7279 PUSH1 0xA0 SHL PUSH1 0x44 DUP3 ADD MSTORE PUSH1 0x64 SWAP1 REVERT JUMPDEST ISZERO PUSH2 0x1990 JUMPI JUMP JUMPDEST PUSH1 0x40 MLOAD PUSH3 0x461BCD PUSH1 0xE5 SHL DUP2 MSTORE PUSH1 0x20 PUSH1 0x4 DUP3 ADD MSTORE PUSH1 0xF PUSH1 0x24 DUP3 ADD MSTORE PUSH15 0x115512081CD95B990819985A5B1959 PUSH1 0x8A SHL PUSH1 0x44 DUP3 ADD MSTORE PUSH1 0x64 SWAP1 REVERT JUMPDEST DUP2 DUP2 MUL SWAP3 SWAP2 DUP2 ISZERO SWAP2 DUP5 DIV EQ OR ISZERO PUSH2 0x14F0 JUMPI JUMP JUMPDEST DUP2 ISZERO PUSH2 0x19E4 JUMPI DIV SWAP1 JUMP JUMPDEST PUSH4 0x4E487B71 PUSH1 0xE0 SHL PUSH1 0x0 MSTORE PUSH1 0x12 PUSH1 0x4 MSTORE PUSH1 0x24 PUSH1 0x0 REVERT JUMPDEST SWAP2 SWAP1 DUP3 SUB SWAP2 DUP3 GT PUSH2 0x14F0 JUMPI JUMP JUMPDEST DUP1 SLOAD PUSH1 0x1 PUSH1 0x1 PUSH1 0xC0 SHL SUB AND PUSH1 0xC0 SWAP3 SWAP1 SWAP3 SHL PUSH1 0x1 PUSH1 0x1 PUSH1 0xC0 SHL SUB NOT AND SWAP2 SWAP1 SWAP2 OR SWAP1 SSTORE JUMP JUMPDEST PUSH1 0x1 PUSH1 0x1 PUSH1 0xA0 SHL SUB DUP2 AND SWAP1 DUP2 PUSH2 0x1A7C JUMPI POP PUSH2 0x1A47 DUP3 PUSH1 0x2 SLOAD PUSH2 0x14E3 JUMP JUMPDEST PUSH1 0x2 SSTORE JUMPDEST PUSH1 0x0 DUP1 MLOAD PUSH1 0x20 PUSH2 0x28A4 DUP4 CODECOPY DUP2 MLOAD SWAP2 MSTORE PUSH1 0x20 PUSH2 0xDEAD SWAP4 DUP5 PUSH1 0x0 MSTORE PUSH1 0x0 DUP3 MSTORE PUSH1 0x40 PUSH1 0x0 KECCAK256 DUP2 DUP2 SLOAD ADD SWAP1 SSTORE PUSH1 0x40 MLOAD SWAP1 DUP2 MSTORE LOG3 JUMP JUMPDEST PUSH1 0x0 SWAP1 DUP3 DUP3 MSTORE DUP2 PUSH1 0x20 MSTORE PUSH1 0x40 DUP3 KECCAK256 SLOAD SWAP1 DUP5 DUP3 LT PUSH2 0x1AA8 JUMPI POP DUP4 PUSH1 0x40 SWAP2 DUP5 DUP5 MSTORE DUP4 PUSH1 0x20 MSTORE SUB SWAP2 KECCAK256 SSTORE PUSH2 0x1A4B JUMP JUMPDEST PUSH2 0x11B6 DUP6 PUSH1 0x40 MLOAD SWAP4 DUP5 SWAP4 PUSH4 0x391434E3 PUSH1 0xE2 SHL DUP6 MSTORE PUSH1 0x4 DUP6 ADD PUSH2 0x1847 JUMP JUMPDEST PUSH1 0x1 PUSH1 0x1 PUSH1 0xA0 SHL SUB DUP1 DUP3 AND SWAP3 SWAP1 SWAP2 DUP4 PUSH2 0x1B2D JUMPI POP PUSH1 0x0 DUP1 MLOAD PUSH1 0x20 PUSH2 0x28A4 DUP4 CODECOPY DUP2 MLOAD SWAP2 MSTORE SWAP2 PUSH1 0x20 SWAP2 PUSH2 0x1AF8 DUP7 PUSH1 0x2 SLOAD PUSH2 0x14E3 JUMP JUMPDEST PUSH1 0x2 SSTORE JUMPDEST AND SWAP4 DUP5 PUSH2 0x1B15 JUMPI DUP1 PUSH1 0x2 SLOAD SUB PUSH1 0x2 SSTORE JUMPDEST PUSH1 0x40 MLOAD SWAP1 DUP2 MSTORE LOG3 JUMP JUMPDEST DUP5 PUSH1 0x0 MSTORE PUSH1 0x0 DUP3 MSTORE PUSH1 0x40 PUSH1 0x0 KECCAK256 DUP2 DUP2 SLOAD ADD SWAP1 SSTORE PUSH2 0x1B0C JUMP JUMPDEST PUSH1 0x0 SWAP1 DUP5 DUP3 MSTORE DUP2 PUSH1 0x20 MSTORE PUSH1 0x40 DUP3 KECCAK256 SLOAD SWAP1 DUP7 DUP3 LT PUSH2 0x1B6C JUMPI POP SWAP2 DUP2 PUSH1 0x40 DUP8 PUSH1 0x20 SWAP6 DUP9 PUSH1 0x0 DUP1 MLOAD PUSH1 0x20 PUSH2 0x28A4 DUP4 CODECOPY DUP2 MLOAD SWAP2 MSTORE SWAP9 SWAP7 MSTORE DUP4 DUP8 MSTORE SUB SWAP2 KECCAK256 SSTORE PUSH2 0x1AFC JUMP JUMPDEST PUSH2 0x11B6 DUP8 PUSH1 0x40 MLOAD SWAP4 DUP5 SWAP4 PUSH4 0x391434E3 PUSH1 0xE2 SHL DUP6 MSTORE PUSH1 0x4 DUP6 ADD PUSH2 0x1847 JUMP JUMPDEST DUP1 SLOAD PUSH1 0x1 PUSH1 0x80 SHL PUSH1 0x1 PUSH1 0xC0 SHL SUB NOT AND PUSH1 0x80 SWAP3 SWAP1 SWAP3 SHL PUSH1 0x1 PUSH1 0x80 SHL PUSH1 0x1 PUSH1 0xC0 SHL SUB AND SWAP2 SWAP1 SWAP2 OR SWAP1 SSTORE JUMP JUMPDEST PUSH2 0x1BBA PUSH2 0x1D21 JUMP JUMPDEST ISZERO PUSH2 0x15DC JUMPI PUSH2 0xDEAD PUSH1 0x0 MSTORE PUSH1 0x9 PUSH1 0x20 MSTORE PUSH1 0xD SLOAD PUSH32 0x960B1051749987B45B5679007FFF577A1C2F763EC21C15A6C5EB193075003787 DUP1 SLOAD PUSH2 0x15DC SWAP3 PUSH1 0x0 DUP1 MLOAD PUSH1 0x20 PUSH2 0x2844 DUP4 CODECOPY DUP2 MLOAD SWAP2 MSTORE SWAP3 SWAP2 PUSH2 0x1C0E SWAP2 PUSH2 0x19FA JUMP JUMPDEST DUP1 PUSH2 0x1C5D JUMPI JUMPDEST POP POP DUP1 SLOAD PUSH1 0x1 PUSH1 0x1 PUSH1 0x40 SHL SUB SWAP1 PUSH2 0x1C44 SWAP1 PUSH2 0x1C35 PUSH1 0x80 DUP3 SWAP1 SHR DUP5 AND TIMESTAMP PUSH2 0x19FA JUMP JUMPDEST SWAP1 PUSH1 0x1 PUSH1 0x1 PUSH1 0x80 SHL SUB AND PUSH2 0x19C7 JUMP JUMPDEST PUSH2 0x1C53 PUSH1 0x1 DUP5 ADD SWAP2 DUP3 SLOAD PUSH2 0x14E3 JUMP JUMPDEST SWAP1 SSTORE TIMESTAMP AND SWAP1 PUSH2 0x1B89 JUMP JUMPDEST PUSH1 0xE SLOAD DUP4 SLOAD PUSH2 0x1C9E SWAP2 PUSH2 0x127B SWAP1 PUSH2 0x1C8A SWAP1 PUSH1 0x80 DUP5 SWAP1 SHR PUSH1 0x1 PUSH1 0x1 PUSH1 0x40 SHL SUB AND SWAP1 DUP2 DUP2 GT ISZERO PUSH2 0x1CDE JUMPI PUSH2 0x19FA JUMP JUMPDEST PUSH1 0x1 DUP8 ADD SLOAD SWAP3 PUSH1 0x1 PUSH1 0x1 PUSH1 0x80 SHL SUB AND PUSH2 0x19C7 JUMP JUMPDEST DUP1 PUSH2 0x1CB2 JUMPI JUMPDEST POP POP PUSH1 0xD SLOAD SWAP1 SSTORE CODESIZE DUP1 PUSH2 0x1C14 JUMP JUMPDEST PUSH8 0xDE0B6B3A7640000 SWAP2 PUSH2 0x1CC5 SWAP2 PUSH2 0x19C7 JUMP JUMPDEST DIV PUSH2 0x1CD5 PUSH1 0x3 DUP5 ADD SWAP2 DUP3 SLOAD PUSH2 0x14E3 JUMP JUMPDEST SWAP1 SSTORE CODESIZE DUP1 PUSH2 0x1CA4 JUMP JUMPDEST POP DUP1 PUSH2 0x19FA JUMP JUMPDEST PUSH2 0x1CEE DUP2 PUSH2 0x1D90 JUMP JUMPDEST ISZERO PUSH2 0x1D1E JUMPI PUSH1 0x1 DUP1 PUSH1 0xA0 SHL SUB AND PUSH1 0x0 MSTORE PUSH1 0x9 PUSH1 0x20 MSTORE PUSH2 0x15DC PUSH1 0x40 PUSH1 0x0 KECCAK256 PUSH1 0xD SLOAD PUSH2 0x1C0E PUSH1 0x2 DUP4 ADD SWAP2 DUP3 SLOAD SWAP1 PUSH2 0x19FA JUMP JUMPDEST POP JUMP JUMPDEST PUSH2 0xDEAD PUSH1 0x0 DUP2 SWAP1 MSTORE PUSH1 0xF PUSH1 0x20 MSTORE PUSH32 0x99629F56119585BF27511B6B7D295DFFB54757453FCC3DABCF51D92028301F10 SLOAD PUSH1 0xFF AND PUSH2 0x1D8A JUMPI PUSH1 0x5 SLOAD PUSH1 0x8 SHR PUSH1 0x1 PUSH1 0x1 PUSH1 0xA0 SHL SUB AND DUP1 ISZERO ISZERO SWAP2 DUP3 PUSH2 0x1D80 JUMPI JUMPDEST POP POP PUSH2 0x1D7B JUMPI PUSH1 0x1 SWAP1 JUMP JUMPDEST PUSH1 0x0 SWAP1 JUMP JUMPDEST EQ SWAP1 POP CODESIZE DUP1 PUSH2 0x1D70 JUMP JUMPDEST POP PUSH1 0x0 SWAP1 JUMP JUMPDEST PUSH1 0x1 PUSH1 0x1 PUSH1 0xA0 SHL SUB SWAP1 DUP2 AND SWAP1 DUP2 ISZERO PUSH2 0x1DD3 JUMPI DUP2 PUSH1 0x0 MSTORE PUSH1 0xF PUSH1 0x20 MSTORE PUSH1 0xFF PUSH1 0x40 PUSH1 0x0 KECCAK256 SLOAD AND PUSH2 0x1DD3 JUMPI PUSH1 0x5 SLOAD PUSH1 0x8 SHR AND DUP1 ISZERO ISZERO SWAP2 DUP3 PUSH2 0x1D80 JUMPI POP POP PUSH2 0x1D7B JUMPI PUSH1 0x1 SWAP1 JUMP JUMPDEST POP POP PUSH1 0x0 SWAP1 JUMP JUMPDEST PUSH2 0x1DE2 PUSH2 0x1D21 JUMP JUMPDEST ISZERO PUSH2 0x15DC JUMPI PUSH2 0xDEAD PUSH1 0x0 DUP2 DUP2 MSTORE PUSH1 0x9 PUSH1 0x20 MSTORE PUSH1 0x0 DUP1 MLOAD PUSH1 0x20 PUSH2 0x2844 DUP4 CODECOPY DUP2 MLOAD SWAP2 MSTORE SWAP2 SWAP1 PUSH2 0x1E0D PUSH2 0x213D JUMP JUMPDEST DUP2 DUP2 MSTORE PUSH1 0x20 DUP2 SWAP1 MSTORE PUSH1 0x40 DUP2 KECCAK256 SLOAD DUP4 SLOAD PUSH1 0x1 PUSH1 0x1 PUSH1 0x80 SHL SUB SWAP1 DUP2 AND DUP1 DUP4 LT SWAP5 SWAP2 SWAP4 SWAP2 DUP6 DUP1 PUSH2 0x1F94 JUMPI JUMPDEST PUSH2 0x1F26 JUMPI JUMPDEST POP DUP3 DUP2 DUP2 GT SWAP6 DUP7 PUSH1 0x0 EQ PUSH2 0x1EEA JUMPI POP PUSH2 0x1E60 SWAP3 POP SWAP1 PUSH2 0x1E58 SWAP2 PUSH2 0x19FA JUMP JUMPDEST PUSH1 0xC SLOAD PUSH2 0x14E3 JUMP JUMPDEST PUSH1 0xC SSTORE JUMPDEST DUP4 SLOAD PUSH1 0x1 PUSH1 0x1 PUSH1 0x80 SHL SUB NOT AND SWAP2 AND OR DUP3 SSTORE TIMESTAMP PUSH1 0x1 PUSH1 0x1 PUSH1 0x40 SHL SUB AND SWAP1 PUSH2 0x1E8A DUP3 DUP5 PUSH2 0x1B89 JUMP JUMPDEST PUSH1 0xFF PUSH1 0x5 SLOAD AND ISZERO SWAP1 DUP2 PUSH2 0x1EE2 JUMPI JUMPDEST POP DUP1 PUSH2 0x1EB0 JUMPI JUMPDEST PUSH2 0x1EA7 JUMPI POP POP JUMP JUMPDEST PUSH2 0x15DC SWAP2 PUSH2 0x1A07 JUMP JUMPDEST POP CALLER PUSH32 0x0 PUSH1 0x1 PUSH1 0x1 PUSH1 0xA0 SHL SUB AND EQ PUSH2 0x1E9F JUMP JUMPDEST SWAP1 POP CODESIZE PUSH2 0x1E98 JUMP JUMPDEST PUSH2 0x1EF7 JUMPI JUMPDEST POP POP POP PUSH2 0x1E64 JUMP JUMPDEST PUSH2 0x1F00 SWAP2 PUSH2 0x19FA JUMP JUMPDEST PUSH1 0xC SLOAD DUP2 DUP2 LT PUSH2 0x1F1F JUMPI PUSH2 0x1F14 SWAP3 POP PUSH2 0x19FA JUMP JUMPDEST PUSH1 0xC SSTORE CODESIZE DUP1 DUP3 PUSH2 0x1EEF JUMP JUMPDEST POP POP PUSH2 0x1F14 JUMP JUMPDEST PUSH1 0x1 DUP8 ADD DUP1 SLOAD SWAP2 PUSH2 0x1F4A PUSH2 0x1F43 DUP6 PUSH2 0x1F3E DUP10 DUP8 PUSH2 0x19C7 JUMP JUMPDEST PUSH2 0x19DA JUMP JUMPDEST DUP1 SWAP5 PUSH2 0x19FA JUMP JUMPDEST PUSH1 0xA SLOAD DUP2 DUP2 LT PUSH2 0x1F6D JUMPI POP PUSH2 0x1F62 SWAP2 POP PUSH1 0xA SLOAD PUSH2 0x19FA JUMP JUMPDEST PUSH1 0xA SSTORE JUMPDEST SSTORE CODESIZE PUSH2 0x1E3A JUMP JUMPDEST PUSH1 0x0 DUP1 MLOAD PUSH1 0x20 PUSH2 0x2904 DUP4 CODECOPY DUP2 MLOAD SWAP2 MSTORE SWAP2 PUSH1 0x40 SWAP2 DUP3 MLOAD SWAP2 DUP3 MSTORE PUSH1 0x20 DUP3 ADD MSTORE LOG2 DUP4 PUSH1 0xA SSTORE PUSH2 0x1F66 JUMP JUMPDEST POP DUP2 ISZERO ISZERO PUSH2 0x1E35 JUMP JUMPDEST PUSH2 0x1FA6 DUP2 PUSH2 0x1D90 JUMP JUMPDEST ISZERO PUSH2 0x1D1E JUMPI PUSH1 0x1 PUSH1 0x1 PUSH1 0xA0 SHL SUB SWAP1 DUP2 AND PUSH1 0x0 DUP2 DUP2 MSTORE PUSH1 0x9 PUSH1 0x20 MSTORE PUSH1 0x40 DUP2 KECCAK256 SWAP3 SWAP2 SWAP1 PUSH2 0x1FCF PUSH2 0x213D JUMP JUMPDEST DUP2 DUP2 MSTORE PUSH1 0x20 DUP2 SWAP1 MSTORE PUSH1 0x40 DUP2 KECCAK256 SLOAD DUP5 SLOAD PUSH1 0x1 PUSH1 0x1 PUSH1 0x80 SHL SUB SWAP1 DUP2 AND DUP1 DUP4 LT SWAP5 SWAP2 SWAP4 SWAP2 DUP6 DUP1 PUSH2 0x2134 JUMPI JUMPDEST PUSH2 0x20D2 JUMPI JUMPDEST POP DUP3 DUP2 DUP2 GT SWAP6 DUP7 PUSH1 0x0 EQ PUSH2 0x2096 JUMPI POP PUSH2 0x201A SWAP3 POP SWAP1 PUSH2 0x1E58 SWAP2 PUSH2 0x19FA JUMP JUMPDEST PUSH1 0xC SSTORE JUMPDEST DUP5 SLOAD PUSH1 0x1 PUSH1 0x1 PUSH1 0x80 SHL SUB NOT AND SWAP2 AND OR DUP4 SSTORE TIMESTAMP PUSH1 0x1 PUSH1 0x1 PUSH1 0x40 SHL SUB AND SWAP2 PUSH2 0x2044 DUP4 DUP6 PUSH2 0x1B89 JUMP JUMPDEST PUSH1 0xFF PUSH1 0x5 SLOAD AND ISZERO SWAP2 DUP3 PUSH2 0x208E JUMPI JUMPDEST POP DUP2 PUSH2 0x2062 JUMPI JUMPDEST POP PUSH2 0x1EA7 JUMPI POP POP JUMP JUMPDEST SWAP1 POP PUSH32 0x0 AND CALLER EQ CODESIZE PUSH2 0x2059 JUMP JUMPDEST SWAP2 POP CODESIZE PUSH2 0x2052 JUMP JUMPDEST PUSH2 0x20A3 JUMPI JUMPDEST POP POP POP PUSH2 0x201E JUMP JUMPDEST PUSH2 0x20AC SWAP2 PUSH2 0x19FA JUMP JUMPDEST PUSH1 0xC SLOAD DUP2 DUP2 LT PUSH2 0x20CB JUMPI PUSH2 0x20C0 SWAP3 POP PUSH2 0x19FA JUMP JUMPDEST PUSH1 0xC SSTORE CODESIZE DUP1 DUP3 PUSH2 0x209B JUMP JUMPDEST POP POP PUSH2 0x20C0 JUMP JUMPDEST PUSH1 0x1 DUP9 ADD DUP1 SLOAD SWAP2 PUSH2 0x20EA PUSH2 0x1F43 DUP6 PUSH2 0x1F3E DUP10 DUP8 PUSH2 0x19C7 JUMP JUMPDEST PUSH1 0xA SLOAD DUP2 DUP2 LT PUSH2 0x210D JUMPI POP PUSH2 0x2102 SWAP2 POP PUSH1 0xA SLOAD PUSH2 0x19FA JUMP JUMPDEST PUSH1 0xA SSTORE JUMPDEST SSTORE CODESIZE PUSH2 0x1FFC JUMP JUMPDEST PUSH1 0x0 DUP1 MLOAD PUSH1 0x20 PUSH2 0x2904 DUP4 CODECOPY DUP2 MLOAD SWAP2 MSTORE SWAP2 PUSH1 0x40 SWAP2 DUP3 MLOAD SWAP2 DUP3 MSTORE PUSH1 0x20 DUP3 ADD MSTORE LOG2 DUP4 PUSH1 0xA SSTORE PUSH2 0x2106 JUMP JUMPDEST POP DUP2 ISZERO ISZERO PUSH2 0x1FF7 JUMP JUMPDEST PUSH2 0x2149 PUSH1 0xB SLOAD TIMESTAMP PUSH2 0x19FA JUMP JUMPDEST DUP1 ISZERO ISZERO DUP1 PUSH2 0x217E JUMPI JUMPDEST PUSH2 0x215E JUMPI JUMPDEST POP TIMESTAMP PUSH1 0xB SSTORE JUMP JUMPDEST PUSH2 0x216D PUSH2 0x2175 SWAP2 PUSH1 0xC SLOAD PUSH2 0x19C7 JUMP JUMPDEST PUSH1 0xA SLOAD PUSH2 0x14E3 JUMP JUMPDEST PUSH1 0xA SSTORE CODESIZE PUSH2 0x2157 JUMP JUMPDEST POP PUSH1 0xC SLOAD ISZERO ISZERO PUSH2 0x2152 JUMP JUMPDEST DUP1 ISZERO PUSH2 0x1D1E JUMPI PUSH2 0x2197 PUSH2 0x213D JUMP JUMPDEST PUSH1 0xA SLOAD DUP1 ISZERO PUSH2 0x2239 JUMPI PUSH2 0x21AD PUSH1 0x10 SLOAD DUP1 SWAP4 PUSH2 0x14E3 JUMP JUMPDEST SWAP2 PUSH2 0x222F JUMPI JUMPDEST PUSH8 0xDE0B6B3A7640000 SWAP2 DUP3 DUP2 MUL SWAP3 DUP2 DUP5 DIV EQ DUP2 ISZERO OR ISZERO PUSH2 0x14F0 JUMPI PUSH2 0x21E8 PUSH1 0x40 SWAP3 PUSH1 0x0 DUP1 MLOAD PUSH1 0x20 PUSH2 0x2884 DUP4 CODECOPY DUP2 MLOAD SWAP2 MSTORE SWAP5 PUSH2 0x19DA JUMP JUMPDEST DUP1 ISZERO PUSH2 0x220F JUMPI PUSH2 0x21FA SWAP1 PUSH1 0xD SLOAD PUSH2 0x14E3 JUMP JUMPDEST DUP1 PUSH1 0xD SSTORE TIMESTAMP PUSH1 0xE SSTORE DUP3 MLOAD SWAP2 DUP3 MSTORE PUSH1 0x20 DUP3 ADD MSTORE LOG1 JUMP JUMPDEST POP PUSH2 0x221C DUP2 PUSH1 0x10 SLOAD PUSH2 0x14E3 JUMP JUMPDEST PUSH1 0x10 SSTORE PUSH1 0xD SLOAD DUP3 MLOAD SWAP2 DUP3 MSTORE PUSH1 0x20 DUP3 ADD MSTORE LOG1 JUMP JUMPDEST PUSH1 0x0 PUSH1 0x10 SSTORE PUSH2 0x21B3 JUMP JUMPDEST POP PUSH1 0x40 DUP2 PUSH2 0x221C PUSH1 0x0 DUP1 MLOAD PUSH1 0x20 PUSH2 0x2884 DUP4 CODECOPY DUP2 MLOAD SWAP2 MSTORE SWAP4 PUSH1 0x10 SLOAD PUSH2 0x14E3 JUMP JUMPDEST PUSH1 0x1 PUSH1 0x1 PUSH1 0xA0 SHL SUB AND PUSH1 0x0 SWAP1 DUP2 MSTORE PUSH1 0x9 PUSH1 0x20 MSTORE PUSH1 0x40 SWAP1 KECCAK256 SLOAD PUSH1 0xC0 SHR DUP1 ISZERO PUSH2 0x1D8A JUMPI PUSH2 0x2283 SWAP1 TIMESTAMP PUSH2 0x19FA JUMP JUMPDEST PUSH2 0x12C DUP2 LT PUSH2 0x22B0 JUMPI PUSH2 0xE10 DUP2 LT PUSH2 0x22A9 JUMPI PUSH3 0x15180 GT PUSH2 0x22A3 JUMPI PUSH1 0x0 SWAP1 JUMP JUMPDEST PUSH2 0x1F4 SWAP1 JUMP JUMPDEST POP PUSH2 0x3E8 SWAP1 JUMP JUMPDEST POP PUSH2 0x7D0 SWAP1 JUMP JUMPDEST DUP1 MLOAD PUSH1 0x1 LT ISZERO PUSH2 0x22C7 JUMPI PUSH1 0x40 ADD SWAP1 JUMP JUMPDEST PUSH4 0x4E487B71 PUSH1 0xE0 SHL PUSH1 0x0 MSTORE PUSH1 0x32 PUSH1 0x4 MSTORE PUSH1 0x24 PUSH1 0x0 REVERT JUMPDEST SWAP1 DUP2 MLOAD DUP1 DUP3 MSTORE PUSH1 0x20 DUP1 DUP1 SWAP4 ADD SWAP4 ADD SWAP2 PUSH1 0x0 JUMPDEST DUP3 DUP2 LT PUSH2 0x22FD JUMPI POP POP POP POP SWAP1 JUMP JUMPDEST DUP4 MLOAD PUSH1 0x1 PUSH1 0x1 PUSH1 0xA0 SHL SUB AND DUP6 MSTORE SWAP4 DUP2 ADD SWAP4 SWAP3 DUP2 ADD SWAP3 PUSH1 0x1 ADD PUSH2 0x22EF JUMP JUMPDEST PUSH1 0x0 SWAP1 PUSH1 0xFF NOT DUP1 PUSH1 0x8 SLOAD AND PUSH1 0x1 DUP2 OR PUSH1 0x8 SSTORE ADDRESS DUP5 MSTORE PUSH1 0x20 DUP5 DUP2 MSTORE PUSH1 0x40 SWAP1 DUP2 DUP7 KECCAK256 SLOAD SWAP3 DUP4 ISZERO PUSH2 0x26C2 JUMPI POP DUP2 MLOAD PUSH1 0x1 PUSH1 0x1 PUSH1 0x40 SHL SUB SWAP7 PUSH1 0x60 DUP3 ADD DUP9 DUP2 GT DUP4 DUP3 LT OR PUSH2 0x26AE JUMPI DUP5 MSTORE PUSH1 0x2 DUP3 MSTORE DUP3 DUP3 ADD DUP5 CALLDATASIZE DUP3 CALLDATACOPY DUP3 MLOAD ISZERO PUSH2 0x269A JUMPI ADDRESS SWAP1 MSTORE PUSH1 0x6 SLOAD DUP5 MLOAD PUSH4 0x15AB88C9 PUSH1 0xE3 SHL DUP2 MSTORE PUSH1 0x4 SWAP10 PUSH1 0x1 PUSH1 0x1 PUSH1 0xA0 SHL SUB SWAP8 SWAP3 SWAP1 SWAP2 SWAP1 DUP9 AND SWAP1 DUP7 DUP2 DUP14 DUP2 DUP6 GAS STATICCALL SWAP1 DUP2 ISZERO PUSH2 0x2690 JUMPI SWAP1 DUP5 SWAP2 DUP7 SWAP2 PUSH2 0x2654 JUMPI JUMPDEST POP SWAP2 PUSH2 0x23C8 SWAP3 DUP11 PUSH2 0x23BE DUP10 PUSH2 0x22B7 JUMP JUMPDEST SWAP2 AND SWAP1 MSTORE ADDRESS PUSH2 0x17B4 JUMP JUMPDEST DUP3 SWAP4 DUP8 PUSH1 0x6 SLOAD AND SWAP5 DUP8 MLOAD SWAP6 PUSH4 0xD06CA61F PUSH1 0xE0 SHL DUP8 MSTORE DUP5 DUP14 DUP9 ADD MSTORE PUSH1 0x24 SWAP7 DUP10 DUP9 DUP3 ADD MSTORE DUP7 DUP2 DUP1 PUSH2 0x23FA PUSH1 0x44 DUP3 ADD DUP9 PUSH2 0x22DD JUMP JUMPDEST SUB DUP2 DUP6 GAS STATICCALL DUP8 SWAP2 DUP2 PUSH2 0x25A8 JUMPI JUMPDEST POP PUSH2 0x256C JUMPI JUMPDEST POP SELFBALANCE SWAP5 DUP2 EXTCODESIZE ISZERO PUSH2 0x472 JUMPI SWAP1 DUP7 SWAP3 SWAP2 DUP4 DUP16 PUSH2 0x244B DUP14 MLOAD SWAP8 DUP9 SWAP7 DUP8 SWAP6 DUP7 SWAP5 PUSH4 0x791AC947 PUSH1 0xE0 SHL DUP7 MSTORE DUP6 ADD MSTORE DUP14 DUP5 ADD MSTORE PUSH1 0xA0 PUSH1 0x44 DUP5 ADD MSTORE PUSH1 0xA4 DUP4 ADD SWAP1 PUSH2 0x22DD JUMP JUMPDEST ADDRESS PUSH1 0x64 DUP4 ADD MSTORE TIMESTAMP PUSH1 0x84 DUP4 ADD MSTORE SUB SWAP3 GAS CALL SWAP2 DUP3 PUSH2 0x2547 JUMPI JUMPDEST POP POP PUSH2 0x247B JUMPI JUMPDEST POP POP POP POP POP POP SWAP1 SWAP2 POP PUSH1 0x8 SLOAD AND PUSH1 0x8 SSTORE JUMP JUMPDEST PUSH2 0x2485 SWAP1 SELFBALANCE PUSH2 0x19FA JUMP JUMPDEST SWAP2 DUP3 ISZERO SWAP9 DUP10 ISZERO PUSH2 0x2496 JUMPI JUMPDEST POP PUSH2 0x2469 JUMP JUMPDEST PUSH1 0x3 DUP5 MUL SWAP10 DUP5 DUP12 DIV PUSH1 0x3 EQ OR ISZERO PUSH2 0x2536 JUMPI POP POP PUSH2 0x24BC PUSH1 0x7 PUSH2 0x24CD SWAP8 SWAP9 SWAP10 DIV DUP1 SWAP4 PUSH2 0x19FA JUMP JUMPDEST SWAP5 DUP3 PUSH2 0x24DB JUMPI JUMPDEST POP POP POP POP POP PUSH2 0x2189 JUMP JUMPDEST DUP2 SWAP1 CODESIZE DUP1 DUP1 DUP1 DUP1 DUP1 DUP1 PUSH2 0x2490 JUMP JUMPDEST DUP2 DUP1 DUP5 DUP2 SWAP4 PUSH32 0x0 AND GAS CALL PUSH2 0x250C PUSH2 0x189E JUMP JUMPDEST POP PUSH2 0x2519 JUMPI JUMPDEST DUP1 DUP1 PUSH2 0x24C3 JUMP JUMPDEST PUSH1 0x0 DUP1 MLOAD PUSH1 0x20 PUSH2 0x2824 DUP4 CODECOPY DUP2 MLOAD SWAP2 MSTORE SWAP3 MLOAD SWAP1 DUP2 MSTORE LOG1 CODESIZE DUP1 DUP1 PUSH2 0x2512 JUMP JUMPDEST PUSH4 0x4E487B71 PUSH1 0xE0 SHL DUP4 MSTORE PUSH1 0x11 SWAP1 MSTORE DUP2 REVERT JUMPDEST DUP2 SWAP5 SWAP3 SWAP5 GT PUSH2 0x255A JUMPI DUP7 MSTORE SWAP2 CODESIZE DUP1 PUSH2 0x2462 JUMP JUMPDEST PUSH4 0x4E487B71 PUSH1 0xE0 SHL DUP3 MSTORE PUSH1 0x41 DUP12 MSTORE DUP5 DUP3 REVERT JUMPDEST PUSH2 0x2577 SWAP2 SWAP3 POP PUSH2 0x22B7 JUMP JUMPDEST MLOAD PUSH1 0x5A DUP2 MUL SWAP1 DUP1 DUP3 DIV PUSH1 0x5A EQ SWAP1 ISZERO OR ISZERO PUSH2 0x2596 JUMPI PUSH1 0x64 SWAP1 DIV SWAP1 CODESIZE PUSH2 0x240D JUMP JUMPDEST PUSH4 0x4E487B71 PUSH1 0xE0 SHL DUP7 MSTORE PUSH1 0x11 DUP14 MSTORE DUP7 DUP7 REVERT JUMPDEST SWAP1 SWAP2 POP RETURNDATASIZE DUP1 DUP10 DUP4 RETURNDATACOPY PUSH2 0x25BA DUP2 DUP4 PUSH2 0x1506 JUMP JUMPDEST DUP2 ADD SWAP1 DUP11 DUP2 DUP4 SUB SLT PUSH2 0x264C JUMPI DUP1 MLOAD SWAP1 DUP8 DUP3 GT PUSH2 0x2650 JUMPI ADD DUP2 PUSH1 0x1F DUP3 ADD SLT ISZERO PUSH2 0x264C JUMPI DUP1 MLOAD DUP8 DUP2 GT PUSH2 0x2638 JUMPI DUP13 MLOAD SWAP3 SWAP2 PUSH1 0x5 DUP3 SWAP1 SHL SWAP2 PUSH2 0x25FB DUP4 DUP16 ADD DUP7 PUSH2 0x1506 JUMP JUMPDEST DUP5 MSTORE DUP13 DUP1 DUP6 ADD SWAP3 DUP3 ADD ADD SWAP3 DUP4 GT PUSH2 0x2634 JUMPI DUP13 DUP1 SWAP2 ADD SWAP2 JUMPDEST DUP4 DUP4 LT PUSH2 0x2624 JUMPI POP POP POP POP SWAP1 CODESIZE PUSH2 0x2407 JUMP JUMPDEST DUP3 MLOAD DUP2 MSTORE SWAP2 DUP2 ADD SWAP2 DUP14 SWAP2 ADD PUSH2 0x2612 JUMP JUMPDEST DUP11 DUP1 REVERT JUMPDEST POP DUP16 DUP10 PUSH1 0x41 DUP13 SWAP3 PUSH4 0x4E487B71 PUSH1 0xE0 SHL DUP4 MSTORE MSTORE REVERT JUMPDEST DUP9 DUP1 REVERT JUMPDEST DUP10 DUP1 REVERT JUMPDEST DUP1 SWAP3 POP DUP9 DUP1 SWAP3 POP RETURNDATASIZE DUP4 GT PUSH2 0x2689 JUMPI JUMPDEST PUSH2 0x266D DUP2 DUP4 PUSH2 0x1506 JUMP JUMPDEST DUP2 ADD SUB SLT PUSH2 0x476 JUMPI MLOAD DUP9 DUP2 AND DUP2 SUB PUSH2 0x476 JUMPI DUP4 SWAP1 PUSH2 0x23C8 PUSH2 0x23AE JUMP JUMPDEST POP RETURNDATASIZE PUSH2 0x2663 JUMP JUMPDEST DUP9 MLOAD RETURNDATASIZE DUP8 DUP3 RETURNDATACOPY RETURNDATASIZE SWAP1 REVERT JUMPDEST PUSH4 0x4E487B71 PUSH1 0xE0 SHL DUP3 MSTORE PUSH1 0x32 PUSH1 0x4 MSTORE PUSH1 0x24 DUP3 REVERT JUMPDEST PUSH4 0x4E487B71 PUSH1 0xE0 SHL DUP3 MSTORE PUSH1 0x41 PUSH1 0x4 MSTORE PUSH1 0x24 DUP3 REVERT JUMPDEST SWAP5 SWAP6 POP POP POP POP POP PUSH1 0x8 SSTORE JUMP JUMPDEST PUSH1 0x0 DUP1 MLOAD PUSH1 0x20 PUSH2 0x28E4 DUP4 CODECOPY DUP2 MLOAD SWAP2 MSTORE PUSH1 0x2 DUP2 SLOAD EQ PUSH2 0x26EC JUMPI PUSH1 0x2 SWAP1 SSTORE JUMP JUMPDEST PUSH1 0x40 MLOAD PUSH4 0x3EE5AEB5 PUSH1 0xE0 SHL DUP2 MSTORE PUSH1 0x4 SWAP1 REVERT JUMPDEST PUSH1 0x0 NOT DUP2 EQ PUSH2 0x14F0 JUMPI PUSH1 0x1 ADD SWAP1 JUMP JUMPDEST PUSH2 0x2716 DUP2 PUSH2 0x1D90 JUMP JUMPDEST ISZERO PUSH2 0x1D8A JUMPI PUSH1 0x1 DUP1 PUSH1 0xA0 SHL SUB AND PUSH1 0x0 MSTORE PUSH1 0x9 PUSH1 0x20 MSTORE PUSH2 0x2758 PUSH1 0x40 PUSH1 0x0 KECCAK256 PUSH2 0x2744 PUSH1 0xD SLOAD PUSH1 0x2 DUP4 ADD SLOAD SWAP1 PUSH2 0x19FA JUMP JUMPDEST SWAP1 PUSH1 0x0 SWAP2 DUP1 PUSH2 0x275B JUMPI JUMPDEST POP PUSH1 0x3 ADD SLOAD PUSH2 0x14E3 JUMP JUMPDEST SWAP1 JUMP JUMPDEST PUSH1 0xE SLOAD DUP3 SLOAD PUSH2 0x279C SWAP2 PUSH2 0x127B SWAP1 PUSH2 0x2788 SWAP1 PUSH1 0x80 DUP5 SWAP1 SHR PUSH1 0x1 PUSH1 0x1 PUSH1 0x40 SHL SUB AND SWAP1 DUP2 DUP2 GT ISZERO PUSH2 0x1CDE JUMPI PUSH2 0x19FA JUMP JUMPDEST PUSH1 0x1 DUP7 ADD SLOAD SWAP3 PUSH1 0x1 PUSH1 0x1 PUSH1 0x80 SHL SUB AND PUSH2 0x19C7 JUMP JUMPDEST DUP1 PUSH2 0x27A8 JUMPI JUMPDEST POP PUSH2 0x274E JUMP JUMPDEST PUSH1 0x3 SWAP3 SWAP4 POP PUSH8 0xDE0B6B3A7640000 SWAP2 PUSH2 0x27C0 SWAP2 PUSH2 0x19C7 JUMP JUMPDEST DIV SWAP2 SWAP1 CODESIZE PUSH2 0x27A2 JUMP JUMPDEST PUSH2 0x27D2 DUP2 PUSH2 0x1D90 JUMP JUMPDEST ISZERO PUSH2 0x1D8A JUMPI PUSH1 0x1 PUSH1 0x1 PUSH1 0xA0 SHL SUB AND PUSH1 0x0 SWAP1 DUP2 MSTORE PUSH1 0x9 PUSH1 0x20 MSTORE PUSH1 0x40 SWAP1 KECCAK256 DUP1 SLOAD PUSH2 0x2758 SWAP2 PUSH2 0x127B SWAP1 PUSH1 0x1 PUSH2 0x2811 PUSH1 0x80 DUP6 SWAP1 SHR PUSH1 0x1 PUSH1 0x1 PUSH1 0x40 SHL SUB AND TIMESTAMP PUSH2 0x19FA JUMP JUMPDEST SWAP2 ADD SLOAD SWAP3 PUSH1 0x1 PUSH1 0x1 PUSH1 0x80 SHL SUB AND PUSH2 0x19C7 JUMP INVALID PUSH10 0x3F9DBEA0BDF9B70D480F SWAP6 0x27 0xE5 PUSH8 0xD17AE3A41A5627C6 MLOAD JUMPDEST SUB 0x4A 0xC1 DUP7 SWAP13 0xF7 LOG0 SWAP7 SIGNEXTEND LT MLOAD PUSH21 0x9987B45B5679007FFF577A1C2F763EC21C15A6C5EB NOT ADDRESS PUSH22 0x3785FC30CDDEA38E2BF4D6EA7D3F9ED3B6AD7F1764 NOT DELEGATECALL SWAP7 EXTCODESIZE 0xD8 SGT XOR MOD PUSH27 0x4AEE73FE8AD0C4905AA5603107E860E0C2B1A78E23EBA312C30F81 EQ 0xA7 0xD SWAP5 0xD9 0xE1 DUP8 CREATE2 0xAF 0xDD CALLCODE MSTORE 0xAD SHL 0xE2 0xC8 SWAP12 PUSH10 0xC2B068FC378DAA952BA7 CALL PUSH4 0xC4A11628 CREATE2 GAS 0x4D CREATE2 0x23 0xB3 0xEF 0xE9 0xBC SWAP2 LOG3 RETURNDATASIZE 0xDF DUP10 PUSH14 0x889747B2F39F4192C802FD623647 DUP1 ADDMOD PUSH9 0x53FCD8E19E8FFA9B77 SWAP12 OR TIMESTAMP 0x2D 0xD 0xF9 0x22 0x23 ADD DUP12 ORIGIN 0xB4 0xD1 STATICCALL CHAINID 0xE0 PUSH18 0x723D6817E2486D003BECC55F00D5FC571C0F 0x24 PUSH3 0x6CEEB4 0xA7 0x22 GASPRICE LT 0xB7 0xB5 PUSH18 0xF3E6C810A1EC1991BA28B6494B06A1A26469 PUSH17 0x667358221220704A752F9B60FC48927C33 0x4B AND EXTCODEHASH 0x29 CREATE 0x1F 0xC1 PUSH24 0xEA4837FDFEB3CB57481BDB557864736F6C63430008140033 DUP11 0xD0 0xC4 SWAP1 GAS 0xA5 PUSH1 0x31 SMOD 0xE8 PUSH1 0xE0 0xC2 0xB1 0xA7 DUP15 0x23 0xEB LOG3 SLT 0xC3 0xF DUP2 EQ 0xA7 0xD SWAP5 0xD9 0xE1 DUP8 CREATE2 0xAF 0xDD CALLCODE MSTORE 0xAD SHL 0xE2 0xC8 SWAP12 PUSH10 0xC2B068FC378DAA952BA7 CALL PUSH4 0xC4A11628 CREATE2 GAS 0x4D CREATE2 0x23 0xB3 0xEF "},"methodIdentifiers":{"BURN_BPS()":"a37a9fc0","CURVE_SUPPLY()":"1e4c7292","DEAD()":"03fd2a45","GRAD_SUPPLY()":"98aecb67","MAX_PUSH_BATCH()":"1a0108ec","PLATFORM_BPS()":"ce91e164","REWARD_BPS()":"47b12bfc","SNIPE_BPS_1HR()":"c463ecd7","SNIPE_BPS_24HR()":"bacf2a7b","SNIPE_BPS_5MIN()":"bb103cbc","TOTAL_SUPPLY()":"902d55a5","TOTAL_TAX_BPS()":"a8355c8f","allowance(address,address)":"dd62ed3e","antiSnipeBpsFor(address)":"ca81eb66","approve(address,uint256)":"095ea7b3","balanceOf(address)":"70a08231","burnFromCurve(uint256)":"5b090044","checkpoints(address)":"dbb51d6e","claim()":"4e71d92d","cumulativeEthPerScore()":"c5f27b30","curve()":"7165485d","decimals()":"313ce567","depositEthPlatform()":"b78d0538","depositEthReward()":"a47541ba","factory()":"c45a0155","graduated()":"e7c2b772","holdScore(address)":"c5f509d6","isExcluded(address)":"cba0e996","keeper()":"aced1661","lastRewardTimestamp()":"f8077fae","name()":"06fdde03","notifyGraduated(address,address)":"c7b12801","orphanedRewardEth()":"13b9d47e","pendingPlatformEth()":"d9019ae9","pendingRewards(address)":"31d7a262","pushRewards(address[])":"f6ceefa2","setExcluded(address,bool)":"2836be24","setKeeper(address)":"748747e6","setSwapThreshold(uint256)":"9d0014b1","swapThreshold()":"0445b667","symbol()":"95d89b41","totalAccumulatedScore()":"c1db4015","totalHoldScoreLive()":"07c9bf2e","totalLastUpdate()":"9d6eadc1","totalSettledBalance()":"64229d68","totalSupply()":"18160ddd","transfer(address,uint256)":"a9059cbb","transferFrom(address,address,uint256)":"23b872dd","uniswapPair()":"c816841b","uniswapRouter()":"735de9f7","withdrawPendingPlatform()":"04279349"}}}}}