{"contracts/v2/AethpadDeployer.sol":{"AethpadDeployer":{"abi":[{"inputs":[{"internalType":"address","name":"_factory","type":"address"},{"internalType":"address","name":"_uniswapRouter","type":"address"}],"stateMutability":"nonpayable","type":"constructor"},{"inputs":[{"internalType":"string","name":"name","type":"string"},{"internalType":"string","name":"symbol","type":"string"}],"name":"deployPair","outputs":[{"internalType":"address","name":"tokenAddr","type":"address"},{"internalType":"address","name":"curveAddr","type":"address"}],"stateMutability":"nonpayable","type":"function"},{"inputs":[],"name":"factory","outputs":[{"internalType":"address","name":"","type":"address"}],"stateMutability":"view","type":"function"},{"inputs":[],"name":"uniswapRouter","outputs":[{"internalType":"address","name":"","type":"address"}],"stateMutability":"view","type":"function"}],"evm":{"bytecode":{"linkReferences":{},"object":"60c03461008657601f6151aa38819003918201601f19168301916001600160401b0383118484101761008b57808492604094855283398101031261008657610052602061004b836100a1565b92016100a1565b9060805260a0526040516150f490816100b68239608051818181605e0152610135015260a05181818160a7015261018b0152f35b600080fd5b634e487b7160e01b600052604160045260246000fd5b51906001600160a01b03821682036100865756fe608060408181526004803610156200001657600080fd5b600092833560e01c918263390274ed14620000d65750508063735de9f714620000915763c45a0155146200004957600080fd5b346200008d57816003193601126200008d57517f00000000000000000000000000000000000000000000000000000000000000006001600160a01b03168152602090f35b5080fd5b50346200008d57816003193601126200008d57517f00000000000000000000000000000000000000000000000000000000000000006001600160a01b03168152602090f35b838534620002f45781600319360112620002f4576001600160401b039083358281116200008d576200010c9036908601620002f7565b602492918335858111620002f057620001299036908901620002f7565b986001600160a01b03937f000000000000000000000000000000000000000000000000000000000000000085811693919233859003620002c157508951906119f590818301918383108c841117620002a45791620001b19184936200036885397f0000000000000000000000000000000000000000000000000000000000000000916200032c565b039087f08015620002b75785169a89519461336293848701948786108c871117620002a457936060938f95899897946200020e94620001ff9262001d5d8c3960808752608087019162000346565b91848303602086015262000346565b938b8201520152039083f080156200029a571694863b156200008d5784516337d345f760e21b81528181018790529382858581838c5af18015620002905762000266575b855180620002628a8a836200032c565b0390f35b841162000280575050508152620002628480808062000252565b634e487b7160e01b825260419052fd5b86513d85823e3d90fd5b85513d84823e3d90fd5b50634e487b7160e01b895260418d528989fd5b89513d88823e3d90fd5b62461bcd60e51b815260208c820152600c898201526b4f6e6c7920666163746f727960a01b6044820152606490fd5b8380fd5b80fd5b9181601f8401121562000327578235916001600160401b0383116200032757602083818601950101116200032757565b600080fd5b6001600160a01b0391821681529116602082015260400190565b908060209392818452848401376000828201840152601f01601f191601019056fe60e080604052346200015157604081620019f5803803809162000023828562000156565b83398101031262000151576200004760206200003f8362000190565b920162000190565b9060017f9b779b17422d0df92223018b32b4d1fa46e071723d6817e2486d003becc55f00556080526004602060018060a01b038093168060a0526040519283809263c45a015560e01b82525afa908115620001455760009162000101575b501660c0526b0295be96e64066972000000060015560405161184f9081620001a682396080518181816101df01528181610efb01526111b1015260a0518181816104980152611073015260c051818181610513015261102f0152f35b906020823d82116200013c575b816200011d6020938362000156565b81010312620001395750620001329062000190565b38620000a5565b80fd5b3d91506200010e565b6040513d6000823e3d90fd5b600080fd5b601f909101601f19168101906001600160401b038211908210176200017a57604052565b634e487b7160e01b600052604160045260246000fd5b51906001600160a01b0382168203620001515756fe6080604081815260049182361015610022575b505050361561002057600080fd5b005b600092833560e01c918263130b312014611316575081631fb87f39146112f6578163343ee3b7146112d757816347b12bfc146112bb57816350b894181461117e57816355ee54a11461113d5781636700c0c31461111a5781636c1eba15146110fd57816371c1b833146110c957816372d6e43a146110a2578163735de9f71461105e5781638bdb2afa1461101a57816394562afb14610ff75781639d1b464a14610f8a5781639f870a7514610f64578163a37a9fc014610e9e578163bacf2a7b14610f47578163bb103cbc14610f2a578163c45a015514610ee6578163c463ecd714610ec9578163c8f3bfd314610ea3578163ce91e16414610e9e578163d79875eb14610ac2578163d96a094a14610250578163df4d17dc146101a857508063e7c2b772146101855763fc0c546a1461015b5780610012565b34610181578160031936011261018157905490516001600160a01b039091168152602090f35b5080fd5b503461018157816003193601126101815760209060ff6003541690519015158152f35b9190503461024c57602036600319011261024c576101c4611332565b8354926001600160a01b039283851661021a575050610206827f0000000000000000000000000000000000000000000000000000000000000000163314611364565b6001600160a01b0319909216911617815580f35b906020606492519162461bcd60e51b8352820152600c60248201526b105b1c9958591e481a5b9a5d60a21b6044820152fd5b8280fd5b602084843660031901831361018157610267611547565b61027f60035460ff8116159081610ab3575b5061139f565b3415610a885760c834029134830460c803610a75576127108093049260963402348104609603610a6257819004906102c0826102bb8734611423565b611423565b91600254956729a2241af62c000096808801809811610a4f576103046102fd600154996102f7886102f18d846113da565b92611430565b90611403565b8099611423565b938415610311811561143d565b60968602908682046096141715610a3c5791610334879261034a94048097611423565b996103428d358c1015611475565b600155611430565b600255806109e3575b5080610994575b5080610932575b5060018060a01b03906103908686848654168a87895180968195829463a9059cbb60e01b845233908401611510565b03925af190811561092857849161090b575b50156108d45733835286865283832080546001600160401b031916426001600160401b03161790557f064fb1933e186be0b289a87e98518dc18cc9856ecbc9f1353d1a138ddf733ec56104056103f66115ef565b8651918291893396348561152b565b0390a2674563918244f400006002541015610435575b505060016000805160206117fa8339815191525551908152f35b600160ff19600354161760035547916aa56fa5b99019a5c800000090828154168551986370a0823160e01b808b5230828c015260249a8a818d81875afa9081156108355785916108a7575b5085811061089f575b50875163095ea7b360e01b81527f00000000000000000000000000000000000000000000000000000000000000008716938b9082908188816104ce8c8b8b8401611510565b03925af1908115610835578591610872575b501561083f5787516315ab88c960e31b81529a8a8c8481875afa8015610835578b9c869c98999a9b9c91610818575b50887f000000000000000000000000000000000000000000000000000000000000000016898754168c519963e6a4390560e01b8b528a8061055386858b84016115d5565b0381855afa998a1561080e57908f939291899b6107ef575b508d8c8c1615610779575b50505050508785541661012c4201804211610767578b519163f305d71960e01b835285830152878383015286604483015286606483015261dead608483015260a482015260608160c4818d895af1801561072e57610738575b5087855416918a5190815230848201528c818381865afa90811561072e5786916106fc575b50806106a1575b5050508583541690813b1561069d57918391868361062d958c519687958694859363c7b1280160e01b855284016115d5565b03925af180156106935761067c575b505084519384528684015216818301527fe8284482a896de2fb31532f8a0c0f64867b8d0586ff49dbd54ddf4cddb2c036590606090a1908291848061041b565b61068682916114ac565b610690578061063c565b80fd5b87513d84823e3d90fd5b8380fd5b823b156106f8578a516316c2401160e21b8152848101919091529185918391829084905af180156106ee579084916106da575b806105fb565b6106e3906114ac565b61024c57828b6106d4565b89513d86823e3d90fd5b8580fd5b90508c81813d8311610727575b61071381836114d5565b8101031261072257518d6105f4565b600080fd5b503d610709565b8b513d88823e3d90fd5b606090813d8111610760575b61074e81836114d5565b8101031261075c578c6105cf565b8480fd5b503d610744565b634e487b7160e01b8752601185528287fd5b61079a959b508990518096819582946364e329cb60e11b84528b84016115d5565b03925af19081156107e55785916107b8575b50958b8d80808d610576565b6107d891508c8d3d106107de575b6107d081836114d5565b8101906115b6565b8c6107ac565b503d6107c6565b8a513d87823e3d90fd5b610807919b50843d86116107de576107d081836114d5565b993861056b565b8d513d8a823e3d90fd5b61082f9150883d8a116107de576107d081836114d5565b8d61050f565b89513d87823e3d90fd5b875162461bcd60e51b81528083018b9052600e818d01526d105c1c1c9bdd994819985a5b195960921b6044820152606490fd5b61089291508b3d8d11610898575b61088a81836114d5565b8101906114f8565b8c6104e0565b503d610880565b94508b610489565b90508a81813d83116108cd575b6108be81836114d5565b8101031261072257518c610480565b503d6108b4565b835162461bcd60e51b81528088018790526011602482015270151bdad95b881e19995c8819985a5b1959607a1b6044820152606490fd5b6109229150873d89116108985761088a81836114d5565b886103a2565b85513d86823e3d90fd5b82546001600160a01b031690813b1561069d57839160248392875194859384926316c2401160e21b84528d8401525af1801561098a57908391610976575b50610361565b61097f906114ac565b610181578187610970565b84513d85823e3d90fd5b83546001600160a01b0316803b1561075c578490898751809481936316f1a0a760e31b83525af18015610928579084916109cf575b5061035a565b6109d8906114ac565b61024c5782886109c9565b84546001600160a01b0316803b156106f85785908a88518094819363523aa0dd60e11b83525af18015610a3257908591610a1e575b50610353565b610a27906114ac565b61069d578389610a18565b86513d87823e3d90fd5b634e487b7160e01b885260118c52602488fd5b634e487b7160e01b865260118a52602486fd5b634e487b7160e01b835260118752602483fd5b634e487b7160e01b815260118552602490fd5b5162461bcd60e51b8152808401839052600660248201526509cde408aa8960d31b6044820152606490fd5b60ff915060081c161586610279565b8383346101815780600319360112610181578235610ade611547565b610af560035460ff8116159081610ab3575061139f565b8015610e6f5760968102818104609603610e5c5761271080910494610b1a8684611423565b9560018060a01b0386818154169287516323b872dd60e01b8152338682015260249430868301528860448301528160648160209d8e945af1908115610e52578391610e35575b5015610dfe5780610db2575b5090600254946729a2241af62c000099868b01809b11610d6157610ba0999a610bad610ba6610bb3936001549d8e856113da565b9d611430565b809c611403565b90611423565b95808711610d745786610bd59181159b610bcd8d1561143d565b600155611423565b600255610be133611624565b60c8018060c811610d6157610bf78291886113da565b049860968702908782046096141715610d61570490610c1a826102bb8b89611423565b98610c2885358b1015611475565b80610d19575b5081610cd8575b505080808089335af1610c46611577565b5015610ca4575050837f483f8aec0fd892ac72ad1ba8d0e9c9e73db59c12d263fd71de480b5b3deeae3c91610c89610c7c6115ef565b865193849333978561152b565b0390a260016000805160206117fa8339815191525551908152f35b845162461bcd60e51b8152918201879052600f908201526e115512081cd95b990819985a5b1959608a1b6044820152606490fd5b825416803b1561024c578290858951809481936316f1a0a760e31b83525af180156106935790829115610c3557610d0e906114ac565b610690578089610c35565b81845416803b1561075c578490878b518094819363523aa0dd60e11b83525af180156106ee57908491610d4d575b50610c2e565b610d56906114ac565b61024c57828b610d47565b5050634e487b7160e01b82525060118352fd5b885162461bcd60e51b81528087018c905260198187015278496e73756666696369656e742045544820696e20637572766560381b6044820152606490fd5b8282541690813b1561024c5782918583928b5194859384926316c2401160e21b84528b8401525af18015610df45715610b6c57610dee906114ac565b89610b6c565b88513d84823e3d90fd5b875162461bcd60e51b81528086018a905260128186015271151c985b9cd9995c881a5b8819985a5b195960721b6044820152606490fd5b610e4c91508a3d8c116108985761088a81836114d5565b8b610b60565b89513d85823e3d90fd5b634e487b7160e01b845260118552602484fd5b815162461bcd60e51b815260208186015260096024820152684e6f20746f6b656e7360b81b6044820152606490fd5b611348565b505034610181578160031936011261018157602090516aa56fa5b99019a5c80000008152f35b505034610181578160031936011261018157602090516103e88152f35b505034610181578160031936011261018157517f00000000000000000000000000000000000000000000000000000000000000006001600160a01b03168152602090f35b505034610181578160031936011261018157602090516107d08152f35b505034610181578160031936011261018157602090516101f48152f35b505034610181578160031936011261018157516714adf4b7320334b9601d1b8152602090f35b828434610690578060031936011261069057600254926729a2241af62c0000938401809411610fe457670de0b6b3a764000093848102948186041490151715610fe457602083610fdd8660015490611403565b9051908152f35b634e487b7160e01b825260119052602490fd5b50503461018157816003193601126101815760209051674563918244f400008152f35b505034610181578160031936011261018157517f00000000000000000000000000000000000000000000000000000000000000006001600160a01b03168152602090f35b505034610181578160031936011261018157517f00000000000000000000000000000000000000000000000000000000000000006001600160a01b03168152602090f35b50503461018157816003193601126101815760209060ff60035460081c1690519015158152f35b90503461024c578160031936011261024c57602435926001600160a01b03841684036106905750602092610fdd9135611721565b505034610181578160031936011261018157602090610fdd6115ef565b505034610181578160031936011261018157602090516729a2241af62c00008152f35b90503461024c57602036600319011261024c57602092906001600160a01b03611164611332565b16825283528190205490516001600160401b039091168152f35b9190503461024c57602036600319011261024c5761119a611332565b6111a2611547565b6001600160a01b03916111d8337f0000000000000000000000000000000000000000000000000000000000000000851614611364565b60035460ff81166112845761ff00191661010017600355479384611239575b505192835216907f16bfc55cfda3eb65b74e8fe52a8804e222bdb31aef30599b41adeb45893f66a990602090a260016000805160206117fa8339815191525580f35b85808080888888165af161124b611577565b506111f7576020606492519162461bcd60e51b8352820152600f60248201526e15da5d1a191c985dc819985a5b1959608a1b6044820152fd5b815162461bcd60e51b81526020818701526011602482015270105b1c9958591e4819dc98591d585d1959607a1b6044820152606490fd5b5050346101815781600319360112610181576020905160c88152f35b5050346101815781600319360112610181576020906001549051908152f35b8284346106905760203660031901126106905750610fdd6020923561168f565b8490346101815781600319360112610181576020906002548152f35b600435906001600160a01b038216820361072257565b3461072257600036600319011261072257602060405160968152f35b1561136b57565b60405162461bcd60e51b815260206004820152600c60248201526b4f6e6c7920666163746f727960a01b6044820152606490fd5b156113a657565b60405162461bcd60e51b815260206004820152600c60248201526b10dd5c9d994818db1bdcd95960a21b6044820152606490fd5b818102929181159184041417156113ed57565b634e487b7160e01b600052601160045260246000fd5b811561140d570490565b634e487b7160e01b600052601260045260246000fd5b919082039182116113ed57565b919082018092116113ed57565b1561144457565b60405162461bcd60e51b8152602060048201526009602482015268151bdbc81cdb585b1b60ba1b6044820152606490fd5b1561147c57565b60405162461bcd60e51b8152602060048201526008602482015267536c69707061676560c01b6044820152606490fd5b6001600160401b0381116114bf57604052565b634e487b7160e01b600052604160045260246000fd5b601f909101601f19168101906001600160401b038211908210176114bf57604052565b90816020910312610722575180151581036107225790565b6001600160a01b039091168152602081019190915260400190565b9094939260609260808301968352602083015260408201520152565b6000805160206117fa83398151915260028154146115655760029055565b604051633ee5aeb560e01b8152600490fd5b3d156115b1573d906001600160401b0382116114bf57604051916115a5601f8201601f1916602001846114d5565b82523d6000602084013e565b606090565b9081602091031261072257516001600160a01b03811681036107225790565b6001600160a01b0391821681529116602082015260400190565b60ff6003541661161e57600254612710908181029181830414901517156113ed57674563918244f40000900490565b61271090565b6001600160a01b03166000908152600460205260409020546001600160401b03168015611689576116559042611423565b61012c811061168257610e10811061167b57620151801161167557600090565b6101f490565b506103e890565b506107d090565b50600090565b60035460ff8116908115611713575b50611689576125b2908181029181830414901517156113ed576002546729a2241af62c00009081018091116113ed576116f290610bad600154916102f76116e584836113da565b9161271080970490611430565b6096810291818304609614821517156113ed57611710920490611423565b90565b60ff915060081c163861169e565b60035460ff81169081156117eb575b506117e4576096810290808204609614811517156113ed576117589061271080930490611423565b91600254926729a2241af62c00008481018091116113ed57610bad611788926102f7600154916102f183866113da565b928084116117da575b5061179b90611624565b8060c801908160c8116113ed5761015e018091116113ed576117bd90836113da565b046000918181116000146117d5576117109250611423565b505090565b925061179b611791565b5050600090565b60ff915060081c163861173056fe9b779b17422d0df92223018b32b4d1fa46e071723d6817e2486d003becc55f00a26469706673582212206b357500352d963aebe7f0c5532f2e5b9ab6d8fc15871b25bae1e5c316f2af6564736f6c6343000814003360c0604090808252346200072a576200336280380380916200002282856200072f565b833981016080828203126200072a5781516001600160401b03908181116200072a5782620000529185016200076f565b9160209081850151908382116200072a57620000709186016200076f565b916200008c606062000084888801620007d9565b9601620007d9565b9284518281116200062a5760038054916001978884811c941680156200071f575b8785101462000709578190601f94858111620006b3575b5087908583116001146200064c5760009262000640575b505060001982841b1c191690881b1781555b8251918483116200062a5760049384548981811c911680156200061f575b888210146200060a579081838695949311620005b0575b5087918411600114620005455760009362000539575b505082881b92600019911b1c19161781555b7f9b779b17422d0df92223018b32b4d1fa46e071723d6817e2486d003becc55f0085905569152d02c7e14af6800000600755608086905260a08490526001600160a01b039384811692831562000522576b033b2e3c9fd0803ce800000090620001b38362000902565b600554938760ff958681168062000515575b80620004fe575b80620004e7575b6200033b575b5050505081620001f3620001f992600e9796959462000878565b62000a19565b8460055482811692836200032d575b50826200031d575b50508062000304575b80620002f6575b620002e6575b60005252836000209260ff199383858254161790551660005282600020818382541617905561dead6000528260002081838254161790553060005282600020818382541617905560008052826000209182541617905542600b55516122719081620010b1823960805181818161051b015281816105f70152818161073801528181610e410152611f0f015260a0518181816103c0015281816105bf015281816106c001528181610917015281816109be015281816119f40152611b830152f35b620002f062000c93565b62000226565b508360065416151562000220565b5030600052600082528660002054600754111562000219565b60081c1615159050843862000210565b600854161592503862000208565b60081c16918215928714838415620004df575b6200035d575b899150620001d9565b6000949192939490620004ce575b6101f4908101809111620004b9578082029082820403620004b957612710900492600254936a0c685fa11e01ec6f00000094858101809111620004a4576002558d6000600080516020620033428339815191528c61dead938484528382528084208a815401905551898152a36a0c685fa11e01ec6effffff198101818111620004a4578062000491575b5082039182116200047c5750928660007fe9bc91a33ddf896d889747b2f39f4192c802fd62364780086853fcd8e19e8ffa60608f96838d9c9b9a9881600e9f620001f39a620001f99d9a6200045e575b508251948552840152820152a392829495969762000354565b62000475908a845260098352421684842062000855565b3862000445565b601190634e487b7160e01b6000525260246000fd5b6200049d903062000878565b38620003f5565b601183634e487b7160e01b6000525260246000fd5b601184634e487b7160e01b6000525260246000fd5b50620004d962000c15565b6200036b565b50806200034e565b5087600052600e8952868d600020541615620001d3565b5060008052600e8952868d600020541615620001cc565b50866008541615620001c5565b885163ec442f0560e01b8152600081850152602490fd5b01519150388062000138565b9190899450601f1984169286600052886000209360005b8a8282106200059957505085116200057e575b50505050811b0181556200014a565b01519060f884600019921b161c19169055388080806200056f565b8385015187558d989096019593840193016200055c565b909192935085600052876000208380870160051c8201928a881062000600575b918c918897969594930160051c01915b828110620005f057505062000122565b600081558796508c9101620005e0565b92508192620005d0565b602286634e487b7160e01b6000525260246000fd5b90607f16906200010b565b634e487b7160e01b600052604160045260246000fd5b015190503880620000db565b908a9350601f1983169185600052896000209260005b8b8282106200069c575050841162000683575b505050811b018155620000ed565b015160001983861b60f8161c1916905538808062000675565b8385015186558e9790950194938401930162000662565b90915083600052876000208580850160051c8201928a8610620006ff575b918c91869594930160051c01915b828110620006ef575050620000c4565b600081558594508c9101620006df565b92508192620006d1565b634e487b7160e01b600052602260045260246000fd5b93607f1693620000ad565b600080fd5b601f909101601f19168101906001600160401b038211908210176200062a57604052565b6001600160401b0381116200062a57601f01601f191660200190565b919080601f840112156200072a578251906200078b8262000753565b916200079b60405193846200072f565b8083526020918282870101116200072a5760005b818110620007c557508260009394955001015290565b8581018301518482018401528201620007af565b51906001600160a01b03821682036200072a57565b91908201809211620007fc57565b634e487b7160e01b600052601160045260246000fd5b81810292918115918404141715620007fc57565b811562000831570490565b634e487b7160e01b600052601260045260246000fd5b91908203918211620007fc57565b80546001600160c01b031660c09290921b6001600160c01b031916919091179055565b6000805160206200334283398151915260206000926200089b85600254620007ee565b6002556001600160a01b03169384158414620008c35780600254036002555b604051908152a3565b84845283825260408420818154019055620008ba565b8054600160801b600160c01b03191660809290921b600160801b600160c01b0316919091179055565b6200090d81620009eb565b15620009e8576001600160a01b031660009081526009602052604090208054620009ac91906001600160401b03906200097662000951608083901c84164262000847565b600185018054909390916200096f916001600160801b031662000812565b90620007ee565b90600d546200098c600286019182549062000847565b80151580620009de575b620009ae575b50600d54905555421690620008d9565b565b620009c3670de0b6b3a7640000918562000812565b04620009d560038701918254620007ee565b9055386200099c565b5083151562000996565b50565b6001600160a01b0316801515908162000a02575090565b9050600052600e60205260ff604060002054161590565b62000a2481620009eb565b15620009e8576001600160a01b039081166000818152600960205260408120929162000a4f62000bbf565b81526020819052604081205483546001600160801b039081168083109391929190848062000bb5575b62000b5d575b82818111958660001462000b18575062000aa892509062000a9f9162000847565b600c54620007ee565b600c555b84546001600160801b0319169116178355426001600160401b03169162000ad48385620008d9565b60ff6005541615918262000b0f575b508162000b00575b5062000af5575050565b620009ac9162000855565b905060a0511633143862000aeb565b91503862000ae3565b62000b27575b50505062000aac565b62000b329162000847565b600c5481811062000b555762000b49925062000847565b600c5538808262000b1e565b505062000b49565b6001870180549062000b8762000b7f8462000b79888662000812565b62000826565b809362000847565b600a54811162000baa5762000b9f90600a5462000847565b600a555b5562000a7e565b5083600a5562000ba3565b5080151562000a78565b62000bcd600b544262000847565b8015158062000c09575b62000be4575b5042600b55565b62000bf662000bff91600c5462000812565b600a54620007ee565b600a553862000bdd565b50600c54151562000bd7565b6000805260096020527fec8156718a8372b1db44bb411437d0870f3e3790d4a08526d024ce1b0b668f6b5460c01c801562000c8d5762000c56904262000847565b61012c811062000c8657610e10811062000c7f57620151801162000c7957600090565b6101f490565b506103e890565b506107d090565b50600090565b60009060ff198060085416926001908185176008553081526020818152604091828120549687156200100757508251936001600160401b03606086018181118782101762000ff3578552600286528386019885368b3786511562000fdf57308a5260065486516315ab88c960e31b815260049b6001600160a01b0399929091908a169088818f81855afa90811562000fd557889162000f98575b50835187101562000f84578a1689840152301562000f6d57801562000f56573087528588528887208188528852838988205588518481527f8c5be1e5ebec7d5bd14f71427d1e84f3dd0314c0f7b2291e5b200ac8c7c3b925893092a34794896006541692833b1562000f5257895163791ac94760e01b8152808f01959095526024850188905260a060448601525160a4850181905287938593909260c4850192868c8f5b83831062000f35575050505050508383809230606483015242608483015203925af1918262000f0d575b505062000e14575b505050505090915060085416600855565b62000e20904762000847565b908115801562000e32575b5062000e03565b6003830290838204600314171562000efa5762000e6f96979850600762000e5c9104809362000847565b948262000e7d575b505050505062001014565b819038808080808062000e2b565b818080858194608051165af1903d1562000ef3573d9062000e9e8262000753565b9162000ead875193846200072f565b8252843d92013e5b62000ec3575b808062000e64565b7f693f9dbea0bdf9b70d480f9527e567d17ae3a41a5627c6515b034ac1869cf7a09251908152a138808062000ebb565b5062000eb5565b634e487b7160e01b825260118952602482fd5b819492941162000f2257855291388062000dfb565b634e487b7160e01b825260418a52602482fd5b85511686528c9850899750948501949093019282018c8f62000dd1565b8780fd5b8851634a1406b160e11b8152808e01889052602490fd5b885163e602df0560e01b8152808e01889052602490fd5b50634e487b7160e01b875260328d52602487fd5b90508881813d831162000fcd575b62000fb281836200072f565b8101031262000f525762000fc690620007d9565b3862000d2d565b503d62000fa6565b8a513d8a823e3d90fd5b634e487b7160e01b84526032600452602484fd5b634e487b7160e01b84526041600452602484fd5b9596505050505050600855565b8015620009e8576200102562000bbf565b600a549081156200108b57670de0b6b3a7640000810290670de0b6b3a763ffff1981830401620007fc576200107a62001071600080516020620033228339815191529460409462000826565b600d54620007ee565b80600d5582519182526020820152a1565b600080516020620033228339815191529150604090600d5482519182526020820152a156fe6080604081815260049182361015610022575b505050361561002057600080fd5b005b600092833560e01c91826303fd2a451461110e575081630445b667146110ef57816306fdde031461101857816307c9bf2e14610fdf578163095ea7b314610fb557816318160ddd14610f965781631e4c729214610f7057816323b872dd14610e865781632836be2414610e09578163313ce56714610ded57816331d7a26214610dc757816347b12bfc14610dab5781634e71d92d14610c835781635b0900441461099c57816364229d681461097d57816370a08231146109465781637165485d14610902578163735de9f7146108d9578163902d55a5146108b357816395d89b41146107cd57816398aecb67146107a75781639d0014b11461071c5781639d6eadc1146106fd578163a37a9fc0146102f3578163a47541ba146106ae578163a8355c8f14610586578163a9059cbb1461067d578163b78d0538146105a3578163bacf2a7b14610586578163bb103cbc14610569578163c1db40151461054a578163c45a015514610506578163c463ecd7146104e9578163c5f27b30146104ca578163c5f509d6146104a4578163c7b128011461038d57508063c816841b14610361578063ca81eb6614610335578063cba0e996146102f8578063ce91e164146102f3578063dbb51d6e14610279578063dd62ed3e146102315763e7c2b7721461020b5780610012565b3461022d578160031936011261022d5760209060ff6005541690519015158152f35b5080fd5b503461022d578060031936011261022d578060209261024e611173565b61025661118e565b6001600160a01b0391821683526001865283832091168252845220549051908152f35b503461022d57602036600319011261022d5760c09181906001600160a01b036102a0611173565b168152600960205220908154916001810154600360028301549201549280519460018060801b038116865260018060401b038160801c166020870152861c908501526060840152608083015260a0820152f35b6111a4565b503461022d57602036600319011261022d5760209160ff9082906001600160a01b03610322611173565b168152600e855220541690519015158152f35b503461022d57602036600319011261022d5760209061035a610355611173565b611d16565b9051908152f35b503461022d578160031936011261022d57600554905160089190911c6001600160a01b03168152602090f35b919050346104a057806003193601126104a0576103a8611173565b916103b161118e565b6001600160a01b03916103e7337f0000000000000000000000000000000000000000000000000000000000000000851614611542565b6005549060ff821661046957506001600160a81b031916600885901b610100600160a81b031617600117600555600680546001600160a01b03191691831691909117905591909116808352600e602052908220805460ff191690557fc5ca2014458d93c5cf9f836ff7ece45de01c929dfb16eed9d6c3329fa1fd09828280a280f35b606490602086519162461bcd60e51b83528201526011602482015270105b1c9958591e4819dc98591d585d1959607a1b6044820152fd5b8280fd5b50503461022d57602036600319011261022d5760209061035a6104c5611173565b612106565b50503461022d578160031936011261022d57602090600d549051908152f35b50503461022d578160031936011261022d57602090516103e88152f35b50503461022d578160031936011261022d57517f00000000000000000000000000000000000000000000000000000000000000006001600160a01b03168152602090f35b50503461022d578160031936011261022d57602090600a549051908152f35b50503461022d578160031936011261022d57602090516107d08152f35b50503461022d578160031936011261022d57602090516101f48152f35b9050826003193601126104a057826001600160a01b036105e6337f0000000000000000000000000000000000000000000000000000000000000000831614611542565b346105ef575080f35b8180809234907f0000000000000000000000000000000000000000000000000000000000000000165af161062161157b565b50156106455750602060008051602061219c8339815191529151348152a138808280f35b6020606492519162461bcd60e51b83528201526013602482015272141b185d199bdc9b48199dd90819985a5b1959606a1b6044820152fd5b50503461022d578060031936011261022d576020906106a761069d611173565b602435903361121c565b5160018152f35b83806003193601126106fa576106ee337f00000000000000000000000000000000000000000000000000000000000000006001600160a01b031614611542565b6106f734611c85565b80f35b80fd5b50503461022d578160031936011261022d57602090600b549051908152f35b9050346104a05760203660031901126104a057803591610766337f00000000000000000000000000000000000000000000000000000000000000006001600160a01b031614612160565b821561077457505060075580f35b906020606492519162461bcd60e51b8352820152600d60248201526c109859081d1a1c995cda1bdb19609a1b6044820152fd5b50503461022d578160031936011261022d57602090516aa56fa5b99019a5c80000008152f35b83833461022d578160031936011261022d57805191809380549160019083821c928285169485156108a9575b6020958686108114610896578589529081156108725750600114610837575b6108338787610829828c03836111e3565b519182918261112a565b0390f35b9080949750528583205b82841061085f57505050826108339461082992820101948680610818565b8054868501880152928601928101610841565b60ff19168887015250505050151560051b8301019250610829826108338680610818565b634e487b7160e01b845260228352602484fd5b93607f16936107f9565b50503461022d578160031936011261022d5751676765c793fa10079d601b1b8152602090f35b50503461022d578160031936011261022d5760065490516001600160a01b039091168152602090f35b50503461022d578160031936011261022d57517f00000000000000000000000000000000000000000000000000000000000000006001600160a01b03168152602090f35b50503461022d57602036600319011261022d5760209181906001600160a01b0361096e611173565b16815280845220549051908152f35b50503461022d578160031936011261022d57602090600c549051908152f35b83833461022d576020806003193601126104a0578335916001600160a01b03917f0000000000000000000000000000000000000000000000000000000000000000838116906109ec338314611542565b85159788156109f9578780f35b8215610c6c578698610a0a83611870565b610a126117a5565b6005549760ff9889811680610c60575b80610c4c575b80610c36575b610add575b5050505080610a4b8899610a5093999697989961161d565b611abc565b610a5861191c565b6005548681169687610ad0575b5086610ac0575b505084610aaa575b50505081610a9c575b50610a8f575b80828080808080808780f35b610a97611d7b565b610a83565b905060065416151582610a7d565b3082525283205460075411159150838381610a74565b60081c8516141594508680610a6c565b6008541615965088610a65565b60081c88168581149261dead92918314848015610c2f575b610b01575b5050610a33565b90919293949c508b90610c20575b6101f4908101809111610c0d57610b2c90612710918291856115ba565b049160968402908482046096141715610bf9578c9d506060610a509796948a8c9d9e9f809d610b8c610a4b9a988e9860008051602061221c8339815191529804958d8780610be9575b610b7f90846115ed565b80610bd7575b50506115ed565b98610bb2575b915050519081528b8b8201528b8d820152a3999897969582938c80610afa565b878252600990925220610bcf90426001600160401b0316906115fa565b8a8c8e610b92565b610be29130906116b8565b8d38610b85565b610bf29161161d565b8d87610b75565b50634e487b7160e01b8c5260118d5260248cfd5b634e487b7160e01b8c5260118d5260248cfd5b50610c2a85611d16565b610b0f565b5080610af5565b5061dead8b52600e875289888c20541615610a2e565b50858b52600e875289888c20541615610a28565b50896008541615610a22565b8451634b637e8f60e11b8152908101889052602490fd5b8391503461022d578160031936011261022d577f9b779b17422d0df92223018b32b4d1fa46e071723d6817e2486d003becc55f00906002825414610d9d5760028255610cce33611870565b3383526009602052600384842001908154918215610d67578490558380808085335af1610cf961157b565b5015610d32575060019293519081527ffc30cddea38e2bf4d6ea7d3f9ed3b6ad7f176419f4963bd81318067a4aee73fe60203392a25580f35b606490602086519162461bcd60e51b8352820152600f60248201526e115512081cd95b990819985a5b1959608a1b6044820152fd5b855162461bcd60e51b8152602081840152601060248201526f4e6f7468696e6720746f20636c61696d60801b6044820152606490fd5b8351633ee5aeb560e01b8152fd5b50503461022d578160031936011261022d576020905160c88152f35b50503461022d57602036600319011261022d5760209061035a610de8611173565b61204f565b50503461022d578160031936011261022d576020905160128152f35b50503461022d578060031936011261022d57610e23611173565b9060243591821515809303610e82576001600160a01b0390610e68337f0000000000000000000000000000000000000000000000000000000000000000841614612160565b168352600e60205282209060ff8019835416911617905580f35b8380fd5b905082346106fa5760603660031901126106fa57610ea2611173565b610eaa61118e565b916044359360018060a01b038316808352600160205286832033845260205286832054916000198310610ee6575b6020886106a789898961121c565b868310610f4e578115610f37573315610f20575082526001602090815286832033845281529186902090859003905582906106a787610ed8565b8751634a1406b160e11b8152908101849052602490fd5b875163e602df0560e01b8152908101849052602490fd5b9050610f6c868851938493637dc7a0d960e11b855233908501611524565b0390fd5b50503461022d578160031936011261022d57516714adf4b7320334b9601d1b8152602090f35b50503461022d578160031936011261022d576020906002549051908152f35b50503461022d578060031936011261022d576020906106a7610fd5611173565b6024359033611491565b50503461022d578160031936011261022d5760209061035a611003600b54426115ed565b611012600a5491600c546115ba565b906111c0565b919050346104a057826003193601126104a057805191836003549060019082821c9282811680156110e5575b60209586861082146110d257508488529081156110b05750600114611075575b6108338686610829828b03836111e3565b929550600383528583205b82841061109d575050508261083394610829928201019438611064565b8054868501880152928601928101611080565b60ff191687860152505050151560051b83010192506108298261083338611064565b634e487b7160e01b845260229052602483fd5b93607f1693611044565b50503461022d578160031936011261022d576020906007549051908152f35b84903461022d578160031936011261022d578061dead60209252f35b6020808252825181830181905290939260005b82811061115f57505060409293506000838284010152601f8019910116010190565b81810186015184820160400152850161113d565b600435906001600160a01b038216820361118957565b600080fd5b602435906001600160a01b038216820361118957565b3461118957600036600319011261118957602060405160968152f35b919082018092116111cd57565b634e487b7160e01b600052601160045260246000fd5b601f909101601f19168101906001600160401b0382119082101761120657604052565b634e487b7160e01b600052604160045260246000fd5b6001600160a01b039291838216919082156114785784811691821561145f57849261124682611870565b61124f83611870565b600554958760ff9788811680611453575b8061143b575b80611423575b611302575b5050505080610a4b6112879484610a4b946116b8565b60055482811692836112f5575b50826112e5575b505090816112c9575b816112bb575b506112b157565b6112b9611d7b565b565b9050600654161515386112aa565b90503060005260006020526040600020546007541115906112a4565b60081c831614159050388061129b565b6008541615925038611294565b60081c168281149190871480801561141c575b611322575b899150611271565b90919392955060009361140b575b6101f49384018094116111cd5761134d93612710948591846115ba565b049560968302838104609614841517156111cd5760008051602061221c8339815191526060610a4b956113a16112879b610a4b9a8e960492836113fc575b61139584836115ed565b806113eb575b506115ed565b956113c4575b6040519081526000602082015260006040820152a394829361131a565b60008581526009602052604090206113e690426001600160401b0316906115fa565b6113a7565b6113f690308d6116b8565b3861139b565b611406848c61161d565b61138b565b925061141682611d16565b92611330565b5082611315565b5083600052600e60205288604060002054161561126c565b5087600052600e602052886040600020541615611266565b50886008541615611260565b60405163ec442f0560e01b815260006004820152602490fd5b604051634b637e8f60e11b815260006004820152602490fd5b6001600160a01b0390811691821561150b57169182156114f25760207f8c5be1e5ebec7d5bd14f71427d1e84f3dd0314c0f7b2291e5b200ac8c7c3b925918360005260018252604060002085600052825280604060002055604051908152a3565b604051634a1406b160e11b815260006004820152602490fd5b60405163e602df0560e01b815260006004820152602490fd5b604091949392606082019560018060a01b0316825260208201520152565b1561154957565b60405162461bcd60e51b815260206004820152600a6024820152694f6e6c7920637572766560b01b6044820152606490fd5b3d156115b5573d906001600160401b03821161120657604051916115a9601f8201601f1916602001846111e3565b82523d6000602084013e565b606090565b818102929181159184041417156111cd57565b81156115d7570490565b634e487b7160e01b600052601260045260246000fd5b919082039182116111cd57565b80546001600160c01b031660c09290921b6001600160c01b031916919091179055565b6001600160a01b038116908161166f575061163a826002546111c0565b6002555b6000805160206121fc833981519152602061dead9384600052600082526040600020818154019055604051908152a3565b6000908282528160205260408220549084821061169b575083604091848452836020520391205561163e565b610f6c8560405193849363391434e360e21b855260048501611524565b6001600160a01b038082169290918361172057506000805160206121fc833981519152916020916116eb866002546111c0565b6002555b1693846117085780600254036002555b604051908152a3565b846000526000825260406000208181540190556116ff565b6000908482528160205260408220549086821061175f57509181604087602095886000805160206121fc833981519152989652838752039120556116ef565b610f6c8760405193849363391434e360e21b855260048501611524565b8054600160801b600160c01b03191660809290921b600160801b600160c01b0316919091179055565b6117ad6118bb565b156112b95761dead60005260096020526000805160206121bc83398151915280546112b991906001600160401b039061180b6117ef608083901c8416426115ed565b60018501805490939091611012916001600160801b03166115ba565b90600d5461181f60028601918254906115ed565b80151580611867575b61183c575b50600d5490555542169061177c565b61184f670de0b6b3a764000091856115ba565b0461185f600387019182546111c0565b90553861182d565b50831515611828565b611879816118ef565b156118b8576001600160a01b0316600090815260096020526040902080546112b991906001600160401b039061180b6117ef608083901c8416426115ed565b50565b61dead600052600e6020527ff77e91909e61d18f67b875b2bfcae1f683a8d555e55382e3a6b082e2c59ea57a5460ff161590565b6001600160a01b03168015159081611905575090565b9050600052600e60205260ff604060002054161590565b6119246118bb565b156112b95761dead600081815260096020526000805160206121bc8339815191529161194e611c39565b81526020819052604081205482546001600160801b0390811680831093919291908480611ab3575b611a66575b828181119586600014611a2a57506119a0925090611998916115ed565b600c546111c0565b600c555b83546001600160801b0319169116178255426001600160401b0316906119ca828461177c565b60ff60055416159081611a22575b50806119f0575b6119e7575050565b6112b9916115fa565b50337f00000000000000000000000000000000000000000000000000000000000000006001600160a01b0316146119df565b9050386119d8565b611a37575b5050506119a4565b611a40916115ed565b600c54818110611a5f57611a5492506115ed565b600c55388082611a2f565b5050611a54565b60018601805490611a8a611a8384611a7e88866115ba565b6115cd565b80936115ed565b600a548111611aa957611a9f90600a546115ed565b600a555b5561197b565b5083600a55611aa3565b50801515611976565b611ac5816118ef565b156118b8576001600160a01b0390811660008181526009602052604081209291611aed611c39565b81526020819052604081205483546001600160801b0390811680831093919291908480611c30575b611bef575b828181119586600014611bb35750611b37925090611998916115ed565b600c555b84546001600160801b0319169116178355426001600160401b031691611b61838561177c565b60ff60055416159182611bab575b5081611b7f575b506119e7575050565b90507f000000000000000000000000000000000000000000000000000000000000000016331438611b76565b915038611b6f565b611bc0575b505050611b3b565b611bc9916115ed565b600c54818110611be857611bdd92506115ed565b600c55388082611bb8565b5050611bdd565b60018701805490611c07611a8384611a7e88866115ba565b600a548111611c2657611c1c90600a546115ed565b600a555b55611b1a565b5083600a55611c20565b50801515611b15565b611c45600b54426115ed565b80151580611c7a575b611c5a575b5042600b55565b611c69611c7191600c546115ba565b600a546111c0565b600a5538611c53565b50600c541515611c4e565b80156118b857611c93611c39565b600a54908115611cf257670de0b6b3a7640000810290670de0b6b3a763ffff19818304016111cd57611ce1611cd96000805160206121dc833981519152946040946115cd565b600d546111c0565b80600d5582519182526020820152a1565b6000805160206121dc8339815191529150604090600d5482519182526020820152a1565b6001600160a01b031660009081526009602052604090205460c01c8015611d7557611d4190426115ed565b61012c8110611d6e57610e108110611d67576201518011611d6157600090565b6101f490565b506103e890565b506107d090565b50600090565b60009060ff1980600854166001808217600855308552602085815260409182872054938415612042575082516001600160401b0390606081018281118282101761202e57855260028152838101958536883781511561201a5730875260065486516315ab88c960e31b81526001600160a01b0398918916908781600481855afa908115612010578d91611fda575b508451871015611fc657611e25918a8592168a87015230611491565b4794886006541692833b15611fc257885163791ac94760e01b81526004810191909152602481018d905260a06044820152935160a485018190528c938593909260c4850192868b8e5b838310611f9e575050505050508383809230606483015242608483015203925af19182611f77575b5050611ead575b5050505090915060085416600855565b611eb790476115ed565b80158015611ec6575b50611e9d565b60038202908282046003141715611f635796611eeb6007611efc9798990480936115ed565b9482611f08575b5050505050611c85565b81903880808080611ec0565b81808481937f0000000000000000000000000000000000000000000000000000000000000000165af1611f3961157b565b50611f46575b8080611ef2565b60008051602061219c8339815191529251908152a1388080611f3f565b634e487b7160e01b88526011600452602488fd5b8199929911611f8a578452963880611e96565b634e487b7160e01b82526041600452602482fd5b84979950858294979293969950511681520195019101928694928f96948b8e611e6e565b8c80fd5b634e487b7160e01b8d52603260045260248dfd5b90508781813d8311612009575b611ff181836111e3565b81010312611fc257518981168103611fc25738611e09565b503d611fe7565b89513d8f823e3d90fd5b634e487b7160e01b8a52603260045260248afd5b634e487b7160e01b8a52604160045260248afd5b9596505050505050600855565b612058816118ef565b15611d75576001600160a01b0316600090815260096020526040902080546120f191906003906120b09061101261209c608083901c6001600160401b0316426115ed565b6001860154926001600160801b03166115ba565b6120c1600d546002850154906115ed565b90801515806120fd575b600090156120f45750670de0b6b3a7640000916120e7916115ba565b04915b01546111c0565b90565b915050916120ea565b508115156120cb565b61210f816118ef565b15611d75576001600160a01b0316600090815260096020526040902080546120f19161101290600161214e608085901c6001600160401b0316426115ed565b910154926001600160801b03166115ba565b1561216757565b60405162461bcd60e51b815260206004820152600c60248201526b4f6e6c7920666163746f727960a01b6044820152606490fdfe693f9dbea0bdf9b70d480f9527e567d17ae3a41a5627c6515b034ac1869cf7a0960b1051749987b45b5679007fff577a1c2f763ec21c15a6c5eb1930750037858ad0c4905aa5603107e860e0c2b1a78e23eba312c30f8114a70d94d9e187f5afddf252ad1be2c89b69c2b068fc378daa952ba7f163c4a11628f55a4df523b3efe9bc91a33ddf896d889747b2f39f4192c802fd62364780086853fcd8e19e8ffaa2646970667358221220680057a07d3d00d02dac863a111077020b953d6ce42e0b8fbfd6f38b7a3826b464736f6c634300081400338ad0c4905aa5603107e860e0c2b1a78e23eba312c30f8114a70d94d9e187f5afddf252ad1be2c89b69c2b068fc378daa952ba7f163c4a11628f55a4df523b3efa26469706673582212209031c98b710369648572a9155f91c850812a68e6426de90fc656b59c7013fa0664736f6c63430008140033","opcodes":"PUSH1 0xC0 CALLVALUE PUSH2 0x86 JUMPI PUSH1 0x1F PUSH2 0x51AA CODESIZE DUP2 SWAP1 SUB SWAP2 DUP3 ADD PUSH1 0x1F NOT AND DUP4 ADD SWAP2 PUSH1 0x1 PUSH1 0x1 PUSH1 0x40 SHL SUB DUP4 GT DUP5 DUP5 LT OR PUSH2 0x8B JUMPI DUP1 DUP5 SWAP3 PUSH1 0x40 SWAP5 DUP6 MSTORE DUP4 CODECOPY DUP2 ADD SUB SLT PUSH2 0x86 JUMPI PUSH2 0x52 PUSH1 0x20 PUSH2 0x4B DUP4 PUSH2 0xA1 JUMP JUMPDEST SWAP3 ADD PUSH2 0xA1 JUMP JUMPDEST SWAP1 PUSH1 0x80 MSTORE PUSH1 0xA0 MSTORE PUSH1 0x40 MLOAD PUSH2 0x50F4 SWAP1 DUP2 PUSH2 0xB6 DUP3 CODECOPY PUSH1 0x80 MLOAD DUP2 DUP2 DUP2 PUSH1 0x5E ADD MSTORE PUSH2 0x135 ADD MSTORE PUSH1 0xA0 MLOAD DUP2 DUP2 DUP2 PUSH1 0xA7 ADD MSTORE PUSH2 0x18B ADD MSTORE RETURN JUMPDEST PUSH1 0x0 DUP1 REVERT JUMPDEST PUSH4 0x4E487B71 PUSH1 0xE0 SHL PUSH1 0x0 MSTORE PUSH1 0x41 PUSH1 0x4 MSTORE PUSH1 0x24 PUSH1 0x0 REVERT JUMPDEST MLOAD SWAP1 PUSH1 0x1 PUSH1 0x1 PUSH1 0xA0 SHL SUB DUP3 AND DUP3 SUB PUSH2 0x86 JUMPI JUMP INVALID PUSH1 0x80 PUSH1 0x40 DUP2 DUP2 MSTORE PUSH1 0x4 DUP1 CALLDATASIZE LT ISZERO PUSH3 0x16 JUMPI PUSH1 0x0 DUP1 REVERT JUMPDEST PUSH1 0x0 SWAP3 DUP4 CALLDATALOAD PUSH1 0xE0 SHR SWAP2 DUP3 PUSH4 0x390274ED EQ PUSH3 0xD6 JUMPI POP POP DUP1 PUSH4 0x735DE9F7 EQ PUSH3 0x91 JUMPI PUSH4 0xC45A0155 EQ PUSH3 0x49 JUMPI PUSH1 0x0 DUP1 REVERT JUMPDEST CALLVALUE PUSH3 0x8D JUMPI DUP2 PUSH1 0x3 NOT CALLDATASIZE ADD SLT PUSH3 0x8D JUMPI MLOAD PUSH32 0x0 PUSH1 0x1 PUSH1 0x1 PUSH1 0xA0 SHL SUB AND DUP2 MSTORE PUSH1 0x20 SWAP1 RETURN JUMPDEST POP DUP1 REVERT JUMPDEST POP CALLVALUE PUSH3 0x8D JUMPI DUP2 PUSH1 0x3 NOT CALLDATASIZE ADD SLT PUSH3 0x8D JUMPI MLOAD PUSH32 0x0 PUSH1 0x1 PUSH1 0x1 PUSH1 0xA0 SHL SUB AND DUP2 MSTORE PUSH1 0x20 SWAP1 RETURN JUMPDEST DUP4 DUP6 CALLVALUE PUSH3 0x2F4 JUMPI DUP2 PUSH1 0x3 NOT CALLDATASIZE ADD SLT PUSH3 0x2F4 JUMPI PUSH1 0x1 PUSH1 0x1 PUSH1 0x40 SHL SUB SWAP1 DUP4 CALLDATALOAD DUP3 DUP2 GT PUSH3 0x8D JUMPI PUSH3 0x10C SWAP1 CALLDATASIZE SWAP1 DUP7 ADD PUSH3 0x2F7 JUMP JUMPDEST PUSH1 0x24 SWAP3 SWAP2 DUP4 CALLDATALOAD DUP6 DUP2 GT PUSH3 0x2F0 JUMPI PUSH3 0x129 SWAP1 CALLDATASIZE SWAP1 DUP10 ADD PUSH3 0x2F7 JUMP JUMPDEST SWAP9 PUSH1 0x1 PUSH1 0x1 PUSH1 0xA0 SHL SUB SWAP4 PUSH32 0x0 DUP6 DUP2 AND SWAP4 SWAP2 SWAP3 CALLER DUP6 SWAP1 SUB PUSH3 0x2C1 JUMPI POP DUP10 MLOAD SWAP1 PUSH2 0x19F5 SWAP1 DUP2 DUP4 ADD SWAP2 DUP4 DUP4 LT DUP13 DUP5 GT OR PUSH3 0x2A4 JUMPI SWAP2 PUSH3 0x1B1 SWAP2 DUP5 SWAP4 PUSH3 0x368 DUP6 CODECOPY PUSH32 0x0 SWAP2 PUSH3 0x32C JUMP JUMPDEST SUB SWAP1 DUP8 CREATE DUP1 ISZERO PUSH3 0x2B7 JUMPI DUP6 AND SWAP11 DUP10 MLOAD SWAP5 PUSH2 0x3362 SWAP4 DUP5 DUP8 ADD SWAP5 DUP8 DUP7 LT DUP13 DUP8 GT OR PUSH3 0x2A4 JUMPI SWAP4 PUSH1 0x60 SWAP4 DUP16 SWAP6 DUP10 SWAP9 SWAP8 SWAP5 PUSH3 0x20E SWAP5 PUSH3 0x1FF SWAP3 PUSH3 0x1D5D DUP13 CODECOPY PUSH1 0x80 DUP8 MSTORE PUSH1 0x80 DUP8 ADD SWAP2 PUSH3 0x346 JUMP JUMPDEST SWAP2 DUP5 DUP4 SUB PUSH1 0x20 DUP7 ADD MSTORE PUSH3 0x346 JUMP JUMPDEST SWAP4 DUP12 DUP3 ADD MSTORE ADD MSTORE SUB SWAP1 DUP4 CREATE DUP1 ISZERO PUSH3 0x29A JUMPI AND SWAP5 DUP7 EXTCODESIZE ISZERO PUSH3 0x8D JUMPI DUP5 MLOAD PUSH4 0x37D345F7 PUSH1 0xE2 SHL DUP2 MSTORE DUP2 DUP2 ADD DUP8 SWAP1 MSTORE SWAP4 DUP3 DUP6 DUP6 DUP2 DUP4 DUP13 GAS CALL DUP1 ISZERO PUSH3 0x290 JUMPI PUSH3 0x266 JUMPI JUMPDEST DUP6 MLOAD DUP1 PUSH3 0x262 DUP11 DUP11 DUP4 PUSH3 0x32C JUMP JUMPDEST SUB SWAP1 RETURN JUMPDEST DUP5 GT PUSH3 0x280 JUMPI POP POP POP DUP2 MSTORE PUSH3 0x262 DUP5 DUP1 DUP1 DUP1 PUSH3 0x252 JUMP JUMPDEST PUSH4 0x4E487B71 PUSH1 0xE0 SHL DUP3 MSTORE PUSH1 0x41 SWAP1 MSTORE REVERT JUMPDEST DUP7 MLOAD RETURNDATASIZE DUP6 DUP3 RETURNDATACOPY RETURNDATASIZE SWAP1 REVERT JUMPDEST DUP6 MLOAD RETURNDATASIZE DUP5 DUP3 RETURNDATACOPY RETURNDATASIZE SWAP1 REVERT JUMPDEST POP PUSH4 0x4E487B71 PUSH1 0xE0 SHL DUP10 MSTORE PUSH1 0x41 DUP14 MSTORE DUP10 DUP10 REVERT JUMPDEST DUP10 MLOAD RETURNDATASIZE DUP9 DUP3 RETURNDATACOPY RETURNDATASIZE SWAP1 REVERT JUMPDEST PUSH3 0x461BCD PUSH1 0xE5 SHL DUP2 MSTORE PUSH1 0x20 DUP13 DUP3 ADD MSTORE PUSH1 0xC DUP10 DUP3 ADD MSTORE PUSH12 0x4F6E6C7920666163746F7279 PUSH1 0xA0 SHL PUSH1 0x44 DUP3 ADD MSTORE PUSH1 0x64 SWAP1 REVERT JUMPDEST DUP4 DUP1 REVERT JUMPDEST DUP1 REVERT JUMPDEST SWAP2 DUP2 PUSH1 0x1F DUP5 ADD SLT ISZERO PUSH3 0x327 JUMPI DUP3 CALLDATALOAD SWAP2 PUSH1 0x1 PUSH1 0x1 PUSH1 0x40 SHL SUB DUP4 GT PUSH3 0x327 JUMPI PUSH1 0x20 DUP4 DUP2 DUP7 ADD SWAP6 ADD ADD GT PUSH3 0x327 JUMPI JUMP JUMPDEST PUSH1 0x0 DUP1 REVERT JUMPDEST PUSH1 0x1 PUSH1 0x1 PUSH1 0xA0 SHL SUB SWAP2 DUP3 AND DUP2 MSTORE SWAP2 AND PUSH1 0x20 DUP3 ADD MSTORE PUSH1 0x40 ADD SWAP1 JUMP JUMPDEST SWAP1 DUP1 PUSH1 0x20 SWAP4 SWAP3 DUP2 DUP5 MSTORE DUP5 DUP5 ADD CALLDATACOPY PUSH1 0x0 DUP3 DUP3 ADD DUP5 ADD MSTORE PUSH1 0x1F ADD PUSH1 0x1F NOT AND ADD ADD SWAP1 JUMP INVALID PUSH1 0xE0 DUP1 PUSH1 0x40 MSTORE CALLVALUE PUSH3 0x151 JUMPI PUSH1 0x40 DUP2 PUSH3 0x19F5 DUP1 CODESIZE SUB DUP1 SWAP2 PUSH3 0x23 DUP3 DUP6 PUSH3 0x156 JUMP JUMPDEST DUP4 CODECOPY DUP2 ADD SUB SLT PUSH3 0x151 JUMPI PUSH3 0x47 PUSH1 0x20 PUSH3 0x3F DUP4 PUSH3 0x190 JUMP JUMPDEST SWAP3 ADD PUSH3 0x190 JUMP JUMPDEST SWAP1 PUSH1 0x1 PUSH32 0x9B779B17422D0DF92223018B32B4D1FA46E071723D6817E2486D003BECC55F00 SSTORE PUSH1 0x80 MSTORE PUSH1 0x4 PUSH1 0x20 PUSH1 0x1 DUP1 PUSH1 0xA0 SHL SUB DUP1 SWAP4 AND DUP1 PUSH1 0xA0 MSTORE PUSH1 0x40 MLOAD SWAP3 DUP4 DUP1 SWAP3 PUSH4 0xC45A0155 PUSH1 0xE0 SHL DUP3 MSTORE GAS STATICCALL SWAP1 DUP2 ISZERO PUSH3 0x145 JUMPI PUSH1 0x0 SWAP2 PUSH3 0x101 JUMPI JUMPDEST POP AND PUSH1 0xC0 MSTORE PUSH12 0x295BE96E640669720000000 PUSH1 0x1 SSTORE PUSH1 0x40 MLOAD PUSH2 0x184F SWAP1 DUP2 PUSH3 0x1A6 DUP3 CODECOPY PUSH1 0x80 MLOAD DUP2 DUP2 DUP2 PUSH2 0x1DF ADD MSTORE DUP2 DUP2 PUSH2 0xEFB ADD MSTORE PUSH2 0x11B1 ADD MSTORE PUSH1 0xA0 MLOAD DUP2 DUP2 DUP2 PUSH2 0x498 ADD MSTORE PUSH2 0x1073 ADD MSTORE PUSH1 0xC0 MLOAD DUP2 DUP2 DUP2 PUSH2 0x513 ADD MSTORE PUSH2 0x102F ADD MSTORE RETURN JUMPDEST SWAP1 PUSH1 0x20 DUP3 RETURNDATASIZE DUP3 GT PUSH3 0x13C JUMPI JUMPDEST DUP2 PUSH3 0x11D PUSH1 0x20 SWAP4 DUP4 PUSH3 0x156 JUMP JUMPDEST DUP2 ADD SUB SLT PUSH3 0x139 JUMPI POP PUSH3 0x132 SWAP1 PUSH3 0x190 JUMP JUMPDEST CODESIZE PUSH3 0xA5 JUMP JUMPDEST DUP1 REVERT JUMPDEST RETURNDATASIZE SWAP2 POP PUSH3 0x10E JUMP JUMPDEST PUSH1 0x40 MLOAD RETURNDATASIZE PUSH1 0x0 DUP3 RETURNDATACOPY RETURNDATASIZE SWAP1 REVERT JUMPDEST PUSH1 0x0 DUP1 REVERT JUMPDEST PUSH1 0x1F SWAP1 SWAP2 ADD PUSH1 0x1F NOT AND DUP2 ADD SWAP1 PUSH1 0x1 PUSH1 0x1 PUSH1 0x40 SHL SUB DUP3 GT SWAP1 DUP3 LT OR PUSH3 0x17A JUMPI PUSH1 0x40 MSTORE JUMP JUMPDEST PUSH4 0x4E487B71 PUSH1 0xE0 SHL PUSH1 0x0 MSTORE PUSH1 0x41 PUSH1 0x4 MSTORE PUSH1 0x24 PUSH1 0x0 REVERT JUMPDEST MLOAD SWAP1 PUSH1 0x1 PUSH1 0x1 PUSH1 0xA0 SHL SUB DUP3 AND DUP3 SUB PUSH3 0x151 JUMPI JUMP INVALID PUSH1 0x80 PUSH1 0x40 DUP2 DUP2 MSTORE PUSH1 0x4 SWAP2 DUP3 CALLDATASIZE LT ISZERO PUSH2 0x22 JUMPI JUMPDEST POP POP POP CALLDATASIZE ISZERO PUSH2 0x20 JUMPI PUSH1 0x0 DUP1 REVERT JUMPDEST STOP JUMPDEST PUSH1 0x0 SWAP3 DUP4 CALLDATALOAD PUSH1 0xE0 SHR SWAP2 DUP3 PUSH4 0x130B3120 EQ PUSH2 0x1316 JUMPI POP DUP2 PUSH4 0x1FB87F39 EQ PUSH2 0x12F6 JUMPI DUP2 PUSH4 0x343EE3B7 EQ PUSH2 0x12D7 JUMPI DUP2 PUSH4 0x47B12BFC EQ PUSH2 0x12BB JUMPI DUP2 PUSH4 0x50B89418 EQ PUSH2 0x117E JUMPI DUP2 PUSH4 0x55EE54A1 EQ PUSH2 0x113D JUMPI DUP2 PUSH4 0x6700C0C3 EQ PUSH2 0x111A JUMPI DUP2 PUSH4 0x6C1EBA15 EQ PUSH2 0x10FD JUMPI DUP2 PUSH4 0x71C1B833 EQ PUSH2 0x10C9 JUMPI DUP2 PUSH4 0x72D6E43A EQ PUSH2 0x10A2 JUMPI DUP2 PUSH4 0x735DE9F7 EQ PUSH2 0x105E JUMPI DUP2 PUSH4 0x8BDB2AFA EQ PUSH2 0x101A JUMPI DUP2 PUSH4 0x94562AFB EQ PUSH2 0xFF7 JUMPI DUP2 PUSH4 0x9D1B464A EQ PUSH2 0xF8A JUMPI DUP2 PUSH4 0x9F870A75 EQ PUSH2 0xF64 JUMPI DUP2 PUSH4 0xA37A9FC0 EQ PUSH2 0xE9E JUMPI DUP2 PUSH4 0xBACF2A7B EQ PUSH2 0xF47 JUMPI DUP2 PUSH4 0xBB103CBC EQ PUSH2 0xF2A JUMPI DUP2 PUSH4 0xC45A0155 EQ PUSH2 0xEE6 JUMPI DUP2 PUSH4 0xC463ECD7 EQ PUSH2 0xEC9 JUMPI DUP2 PUSH4 0xC8F3BFD3 EQ PUSH2 0xEA3 JUMPI DUP2 PUSH4 0xCE91E164 EQ PUSH2 0xE9E JUMPI DUP2 PUSH4 0xD79875EB EQ PUSH2 0xAC2 JUMPI DUP2 PUSH4 0xD96A094A EQ PUSH2 0x250 JUMPI DUP2 PUSH4 0xDF4D17DC EQ PUSH2 0x1A8 JUMPI POP DUP1 PUSH4 0xE7C2B772 EQ PUSH2 0x185 JUMPI PUSH4 0xFC0C546A EQ PUSH2 0x15B JUMPI DUP1 PUSH2 0x12 JUMP JUMPDEST CALLVALUE PUSH2 0x181 JUMPI DUP2 PUSH1 0x3 NOT CALLDATASIZE ADD SLT PUSH2 0x181 JUMPI SWAP1 SLOAD SWAP1 MLOAD PUSH1 0x1 PUSH1 0x1 PUSH1 0xA0 SHL SUB SWAP1 SWAP2 AND DUP2 MSTORE PUSH1 0x20 SWAP1 RETURN JUMPDEST POP DUP1 REVERT JUMPDEST POP CALLVALUE PUSH2 0x181 JUMPI DUP2 PUSH1 0x3 NOT CALLDATASIZE ADD SLT PUSH2 0x181 JUMPI PUSH1 0x20 SWAP1 PUSH1 0xFF PUSH1 0x3 SLOAD AND SWAP1 MLOAD SWAP1 ISZERO ISZERO DUP2 MSTORE RETURN JUMPDEST SWAP2 SWAP1 POP CALLVALUE PUSH2 0x24C JUMPI PUSH1 0x20 CALLDATASIZE PUSH1 0x3 NOT ADD SLT PUSH2 0x24C JUMPI PUSH2 0x1C4 PUSH2 0x1332 JUMP JUMPDEST DUP4 SLOAD SWAP3 PUSH1 0x1 PUSH1 0x1 PUSH1 0xA0 SHL SUB SWAP3 DUP4 DUP6 AND PUSH2 0x21A JUMPI POP POP PUSH2 0x206 DUP3 PUSH32 0x0 AND CALLER EQ PUSH2 0x1364 JUMP JUMPDEST PUSH1 0x1 PUSH1 0x1 PUSH1 0xA0 SHL SUB NOT SWAP1 SWAP3 AND SWAP2 AND OR DUP2 SSTORE DUP1 RETURN JUMPDEST SWAP1 PUSH1 0x20 PUSH1 0x64 SWAP3 MLOAD SWAP2 PUSH3 0x461BCD PUSH1 0xE5 SHL DUP4 MSTORE DUP3 ADD MSTORE PUSH1 0xC PUSH1 0x24 DUP3 ADD MSTORE PUSH12 0x105B1C9958591E481A5B9A5D PUSH1 0xA2 SHL PUSH1 0x44 DUP3 ADD MSTORE REVERT JUMPDEST DUP3 DUP1 REVERT JUMPDEST PUSH1 0x20 DUP5 DUP5 CALLDATASIZE PUSH1 0x3 NOT ADD DUP4 SGT PUSH2 0x181 JUMPI PUSH2 0x267 PUSH2 0x1547 JUMP JUMPDEST PUSH2 0x27F PUSH1 0x3 SLOAD PUSH1 0xFF DUP2 AND ISZERO SWAP1 DUP2 PUSH2 0xAB3 JUMPI JUMPDEST POP PUSH2 0x139F JUMP JUMPDEST CALLVALUE ISZERO PUSH2 0xA88 JUMPI PUSH1 0xC8 CALLVALUE MUL SWAP2 CALLVALUE DUP4 DIV PUSH1 0xC8 SUB PUSH2 0xA75 JUMPI PUSH2 0x2710 DUP1 SWAP4 DIV SWAP3 PUSH1 0x96 CALLVALUE MUL CALLVALUE DUP2 DIV PUSH1 0x96 SUB PUSH2 0xA62 JUMPI DUP2 SWAP1 DIV SWAP1 PUSH2 0x2C0 DUP3 PUSH2 0x2BB DUP8 CALLVALUE PUSH2 0x1423 JUMP JUMPDEST PUSH2 0x1423 JUMP JUMPDEST SWAP2 PUSH1 0x2 SLOAD SWAP6 PUSH8 0x29A2241AF62C0000 SWAP7 DUP1 DUP9 ADD DUP1 SWAP9 GT PUSH2 0xA4F JUMPI PUSH2 0x304 PUSH2 0x2FD PUSH1 0x1 SLOAD SWAP10 PUSH2 0x2F7 DUP9 PUSH2 0x2F1 DUP14 DUP5 PUSH2 0x13DA JUMP JUMPDEST SWAP3 PUSH2 0x1430 JUMP JUMPDEST SWAP1 PUSH2 0x1403 JUMP JUMPDEST DUP1 SWAP10 PUSH2 0x1423 JUMP JUMPDEST SWAP4 DUP5 ISZERO PUSH2 0x311 DUP2 ISZERO PUSH2 0x143D JUMP JUMPDEST PUSH1 0x96 DUP7 MUL SWAP1 DUP7 DUP3 DIV PUSH1 0x96 EQ OR ISZERO PUSH2 0xA3C JUMPI SWAP2 PUSH2 0x334 DUP8 SWAP3 PUSH2 0x34A SWAP5 DIV DUP1 SWAP8 PUSH2 0x1423 JUMP JUMPDEST SWAP10 PUSH2 0x342 DUP14 CALLDATALOAD DUP13 LT ISZERO PUSH2 0x1475 JUMP JUMPDEST PUSH1 0x1 SSTORE PUSH2 0x1430 JUMP JUMPDEST PUSH1 0x2 SSTORE DUP1 PUSH2 0x9E3 JUMPI JUMPDEST POP DUP1 PUSH2 0x994 JUMPI JUMPDEST POP DUP1 PUSH2 0x932 JUMPI JUMPDEST POP PUSH1 0x1 DUP1 PUSH1 0xA0 SHL SUB SWAP1 PUSH2 0x390 DUP7 DUP7 DUP5 DUP7 SLOAD AND DUP11 DUP8 DUP10 MLOAD DUP1 SWAP7 DUP2 SWAP6 DUP3 SWAP5 PUSH4 0xA9059CBB PUSH1 0xE0 SHL DUP5 MSTORE CALLER SWAP1 DUP5 ADD PUSH2 0x1510 JUMP JUMPDEST SUB SWAP3 GAS CALL SWAP1 DUP2 ISZERO PUSH2 0x928 JUMPI DUP5 SWAP2 PUSH2 0x90B JUMPI JUMPDEST POP ISZERO PUSH2 0x8D4 JUMPI CALLER DUP4 MSTORE DUP7 DUP7 MSTORE DUP4 DUP4 KECCAK256 DUP1 SLOAD PUSH1 0x1 PUSH1 0x1 PUSH1 0x40 SHL SUB NOT AND TIMESTAMP PUSH1 0x1 PUSH1 0x1 PUSH1 0x40 SHL SUB AND OR SWAP1 SSTORE PUSH32 0x64FB1933E186BE0B289A87E98518DC18CC9856ECBC9F1353D1A138DDF733EC5 PUSH2 0x405 PUSH2 0x3F6 PUSH2 0x15EF JUMP JUMPDEST DUP7 MLOAD SWAP2 DUP3 SWAP2 DUP10 CALLER SWAP7 CALLVALUE DUP6 PUSH2 0x152B JUMP JUMPDEST SUB SWAP1 LOG2 PUSH8 0x4563918244F40000 PUSH1 0x2 SLOAD LT ISZERO PUSH2 0x435 JUMPI JUMPDEST POP POP PUSH1 0x1 PUSH1 0x0 DUP1 MLOAD PUSH1 0x20 PUSH2 0x17FA DUP4 CODECOPY DUP2 MLOAD SWAP2 MSTORE SSTORE MLOAD SWAP1 DUP2 MSTORE RETURN JUMPDEST PUSH1 0x1 PUSH1 0xFF NOT PUSH1 0x3 SLOAD AND OR PUSH1 0x3 SSTORE SELFBALANCE SWAP2 PUSH11 0xA56FA5B99019A5C8000000 SWAP1 DUP3 DUP2 SLOAD AND DUP6 MLOAD SWAP9 PUSH4 0x70A08231 PUSH1 0xE0 SHL DUP1 DUP12 MSTORE ADDRESS DUP3 DUP13 ADD MSTORE PUSH1 0x24 SWAP11 DUP11 DUP2 DUP14 DUP2 DUP8 GAS STATICCALL SWAP1 DUP2 ISZERO PUSH2 0x835 JUMPI DUP6 SWAP2 PUSH2 0x8A7 JUMPI JUMPDEST POP DUP6 DUP2 LT PUSH2 0x89F JUMPI JUMPDEST POP DUP8 MLOAD PUSH4 0x95EA7B3 PUSH1 0xE0 SHL DUP2 MSTORE PUSH32 0x0 DUP8 AND SWAP4 DUP12 SWAP1 DUP3 SWAP1 DUP2 DUP9 DUP2 PUSH2 0x4CE DUP13 DUP12 DUP12 DUP5 ADD PUSH2 0x1510 JUMP JUMPDEST SUB SWAP3 GAS CALL SWAP1 DUP2 ISZERO PUSH2 0x835 JUMPI DUP6 SWAP2 PUSH2 0x872 JUMPI JUMPDEST POP ISZERO PUSH2 0x83F JUMPI DUP8 MLOAD PUSH4 0x15AB88C9 PUSH1 0xE3 SHL DUP2 MSTORE SWAP11 DUP11 DUP13 DUP5 DUP2 DUP8 GAS STATICCALL DUP1 ISZERO PUSH2 0x835 JUMPI DUP12 SWAP13 DUP7 SWAP13 SWAP9 SWAP10 SWAP11 SWAP12 SWAP13 SWAP2 PUSH2 0x818 JUMPI JUMPDEST POP DUP9 PUSH32 0x0 AND DUP10 DUP8 SLOAD AND DUP13 MLOAD SWAP10 PUSH4 0xE6A43905 PUSH1 0xE0 SHL DUP12 MSTORE DUP11 DUP1 PUSH2 0x553 DUP7 DUP6 DUP12 DUP5 ADD PUSH2 0x15D5 JUMP JUMPDEST SUB DUP2 DUP6 GAS STATICCALL SWAP10 DUP11 ISZERO PUSH2 0x80E JUMPI SWAP1 DUP16 SWAP4 SWAP3 SWAP2 DUP10 SWAP12 PUSH2 0x7EF JUMPI JUMPDEST POP DUP14 DUP13 DUP13 AND ISZERO PUSH2 0x779 JUMPI JUMPDEST POP POP POP POP POP DUP8 DUP6 SLOAD AND PUSH2 0x12C TIMESTAMP ADD DUP1 TIMESTAMP GT PUSH2 0x767 JUMPI DUP12 MLOAD SWAP2 PUSH4 0xF305D719 PUSH1 0xE0 SHL DUP4 MSTORE DUP6 DUP4 ADD MSTORE DUP8 DUP4 DUP4 ADD MSTORE DUP7 PUSH1 0x44 DUP4 ADD MSTORE DUP7 PUSH1 0x64 DUP4 ADD MSTORE PUSH2 0xDEAD PUSH1 0x84 DUP4 ADD MSTORE PUSH1 0xA4 DUP3 ADD MSTORE PUSH1 0x60 DUP2 PUSH1 0xC4 DUP2 DUP14 DUP10 GAS CALL DUP1 ISZERO PUSH2 0x72E JUMPI PUSH2 0x738 JUMPI JUMPDEST POP DUP8 DUP6 SLOAD AND SWAP2 DUP11 MLOAD SWAP1 DUP2 MSTORE ADDRESS DUP5 DUP3 ADD MSTORE DUP13 DUP2 DUP4 DUP2 DUP7 GAS STATICCALL SWAP1 DUP2 ISZERO PUSH2 0x72E JUMPI DUP7 SWAP2 PUSH2 0x6FC JUMPI JUMPDEST POP DUP1 PUSH2 0x6A1 JUMPI JUMPDEST POP POP POP DUP6 DUP4 SLOAD AND SWAP1 DUP2 EXTCODESIZE ISZERO PUSH2 0x69D JUMPI SWAP2 DUP4 SWAP2 DUP7 DUP4 PUSH2 0x62D SWAP6 DUP13 MLOAD SWAP7 DUP8 SWAP6 DUP7 SWAP5 DUP6 SWAP4 PUSH4 0xC7B12801 PUSH1 0xE0 SHL DUP6 MSTORE DUP5 ADD PUSH2 0x15D5 JUMP JUMPDEST SUB SWAP3 GAS CALL DUP1 ISZERO PUSH2 0x693 JUMPI PUSH2 0x67C JUMPI JUMPDEST POP POP DUP5 MLOAD SWAP4 DUP5 MSTORE DUP7 DUP5 ADD MSTORE AND DUP2 DUP4 ADD MSTORE PUSH32 0xE8284482A896DE2FB31532F8A0C0F64867B8D0586FF49DBD54DDF4CDDB2C0365 SWAP1 PUSH1 0x60 SWAP1 LOG1 SWAP1 DUP3 SWAP2 DUP5 DUP1 PUSH2 0x41B JUMP JUMPDEST PUSH2 0x686 DUP3 SWAP2 PUSH2 0x14AC JUMP JUMPDEST PUSH2 0x690 JUMPI DUP1 PUSH2 0x63C JUMP JUMPDEST DUP1 REVERT JUMPDEST DUP8 MLOAD RETURNDATASIZE DUP5 DUP3 RETURNDATACOPY RETURNDATASIZE SWAP1 REVERT JUMPDEST DUP4 DUP1 REVERT JUMPDEST DUP3 EXTCODESIZE ISZERO PUSH2 0x6F8 JUMPI DUP11 MLOAD PUSH4 0x16C24011 PUSH1 0xE2 SHL DUP2 MSTORE DUP5 DUP2 ADD SWAP2 SWAP1 SWAP2 MSTORE SWAP2 DUP6 SWAP2 DUP4 SWAP2 DUP3 SWAP1 DUP5 SWAP1 GAS CALL DUP1 ISZERO PUSH2 0x6EE JUMPI SWAP1 DUP5 SWAP2 PUSH2 0x6DA JUMPI JUMPDEST DUP1 PUSH2 0x5FB JUMP JUMPDEST PUSH2 0x6E3 SWAP1 PUSH2 0x14AC JUMP JUMPDEST PUSH2 0x24C JUMPI DUP3 DUP12 PUSH2 0x6D4 JUMP JUMPDEST DUP10 MLOAD RETURNDATASIZE DUP7 DUP3 RETURNDATACOPY RETURNDATASIZE SWAP1 REVERT JUMPDEST DUP6 DUP1 REVERT JUMPDEST SWAP1 POP DUP13 DUP2 DUP2 RETURNDATASIZE DUP4 GT PUSH2 0x727 JUMPI JUMPDEST PUSH2 0x713 DUP2 DUP4 PUSH2 0x14D5 JUMP JUMPDEST DUP2 ADD SUB SLT PUSH2 0x722 JUMPI MLOAD DUP14 PUSH2 0x5F4 JUMP JUMPDEST PUSH1 0x0 DUP1 REVERT JUMPDEST POP RETURNDATASIZE PUSH2 0x709 JUMP JUMPDEST DUP12 MLOAD RETURNDATASIZE DUP9 DUP3 RETURNDATACOPY RETURNDATASIZE SWAP1 REVERT JUMPDEST PUSH1 0x60 SWAP1 DUP2 RETURNDATASIZE DUP2 GT PUSH2 0x760 JUMPI JUMPDEST PUSH2 0x74E DUP2 DUP4 PUSH2 0x14D5 JUMP JUMPDEST DUP2 ADD SUB SLT PUSH2 0x75C JUMPI DUP13 PUSH2 0x5CF JUMP JUMPDEST DUP5 DUP1 REVERT JUMPDEST POP RETURNDATASIZE PUSH2 0x744 JUMP JUMPDEST PUSH4 0x4E487B71 PUSH1 0xE0 SHL DUP8 MSTORE PUSH1 0x11 DUP6 MSTORE DUP3 DUP8 REVERT JUMPDEST PUSH2 0x79A SWAP6 SWAP12 POP DUP10 SWAP1 MLOAD DUP1 SWAP7 DUP2 SWAP6 DUP3 SWAP5 PUSH4 0x64E329CB PUSH1 0xE1 SHL DUP5 MSTORE DUP12 DUP5 ADD PUSH2 0x15D5 JUMP JUMPDEST SUB SWAP3 GAS CALL SWAP1 DUP2 ISZERO PUSH2 0x7E5 JUMPI DUP6 SWAP2 PUSH2 0x7B8 JUMPI JUMPDEST POP SWAP6 DUP12 DUP14 DUP1 DUP1 DUP14 PUSH2 0x576 JUMP JUMPDEST PUSH2 0x7D8 SWAP2 POP DUP13 DUP14 RETURNDATASIZE LT PUSH2 0x7DE JUMPI JUMPDEST PUSH2 0x7D0 DUP2 DUP4 PUSH2 0x14D5 JUMP JUMPDEST DUP2 ADD SWAP1 PUSH2 0x15B6 JUMP JUMPDEST DUP13 PUSH2 0x7AC JUMP JUMPDEST POP RETURNDATASIZE PUSH2 0x7C6 JUMP JUMPDEST DUP11 MLOAD RETURNDATASIZE DUP8 DUP3 RETURNDATACOPY RETURNDATASIZE SWAP1 REVERT JUMPDEST PUSH2 0x807 SWAP2 SWAP12 POP DUP5 RETURNDATASIZE DUP7 GT PUSH2 0x7DE JUMPI PUSH2 0x7D0 DUP2 DUP4 PUSH2 0x14D5 JUMP JUMPDEST SWAP10 CODESIZE PUSH2 0x56B JUMP JUMPDEST DUP14 MLOAD RETURNDATASIZE DUP11 DUP3 RETURNDATACOPY RETURNDATASIZE SWAP1 REVERT JUMPDEST PUSH2 0x82F SWAP2 POP DUP9 RETURNDATASIZE DUP11 GT PUSH2 0x7DE JUMPI PUSH2 0x7D0 DUP2 DUP4 PUSH2 0x14D5 JUMP JUMPDEST DUP14 PUSH2 0x50F JUMP JUMPDEST DUP10 MLOAD RETURNDATASIZE DUP8 DUP3 RETURNDATACOPY RETURNDATASIZE SWAP1 REVERT JUMPDEST DUP8 MLOAD PUSH3 0x461BCD PUSH1 0xE5 SHL DUP2 MSTORE DUP1 DUP4 ADD DUP12 SWAP1 MSTORE PUSH1 0xE DUP2 DUP14 ADD MSTORE PUSH14 0x105C1C1C9BDD994819985A5B1959 PUSH1 0x92 SHL PUSH1 0x44 DUP3 ADD MSTORE PUSH1 0x64 SWAP1 REVERT JUMPDEST PUSH2 0x892 SWAP2 POP DUP12 RETURNDATASIZE DUP14 GT PUSH2 0x898 JUMPI JUMPDEST PUSH2 0x88A DUP2 DUP4 PUSH2 0x14D5 JUMP JUMPDEST DUP2 ADD SWAP1 PUSH2 0x14F8 JUMP JUMPDEST DUP13 PUSH2 0x4E0 JUMP JUMPDEST POP RETURNDATASIZE PUSH2 0x880 JUMP JUMPDEST SWAP5 POP DUP12 PUSH2 0x489 JUMP JUMPDEST SWAP1 POP DUP11 DUP2 DUP2 RETURNDATASIZE DUP4 GT PUSH2 0x8CD JUMPI JUMPDEST PUSH2 0x8BE DUP2 DUP4 PUSH2 0x14D5 JUMP JUMPDEST DUP2 ADD SUB SLT PUSH2 0x722 JUMPI MLOAD DUP13 PUSH2 0x480 JUMP JUMPDEST POP RETURNDATASIZE PUSH2 0x8B4 JUMP JUMPDEST DUP4 MLOAD PUSH3 0x461BCD PUSH1 0xE5 SHL DUP2 MSTORE DUP1 DUP9 ADD DUP8 SWAP1 MSTORE PUSH1 0x11 PUSH1 0x24 DUP3 ADD MSTORE PUSH17 0x151BDAD95B881E19995C8819985A5B1959 PUSH1 0x7A SHL PUSH1 0x44 DUP3 ADD MSTORE PUSH1 0x64 SWAP1 REVERT JUMPDEST PUSH2 0x922 SWAP2 POP DUP8 RETURNDATASIZE DUP10 GT PUSH2 0x898 JUMPI PUSH2 0x88A DUP2 DUP4 PUSH2 0x14D5 JUMP JUMPDEST DUP9 PUSH2 0x3A2 JUMP JUMPDEST DUP6 MLOAD RETURNDATASIZE DUP7 DUP3 RETURNDATACOPY RETURNDATASIZE SWAP1 REVERT JUMPDEST DUP3 SLOAD PUSH1 0x1 PUSH1 0x1 PUSH1 0xA0 SHL SUB AND SWAP1 DUP2 EXTCODESIZE ISZERO PUSH2 0x69D JUMPI DUP4 SWAP2 PUSH1 0x24 DUP4 SWAP3 DUP8 MLOAD SWAP5 DUP6 SWAP4 DUP5 SWAP3 PUSH4 0x16C24011 PUSH1 0xE2 SHL DUP5 MSTORE DUP14 DUP5 ADD MSTORE GAS CALL DUP1 ISZERO PUSH2 0x98A JUMPI SWAP1 DUP4 SWAP2 PUSH2 0x976 JUMPI JUMPDEST POP PUSH2 0x361 JUMP JUMPDEST PUSH2 0x97F SWAP1 PUSH2 0x14AC JUMP JUMPDEST PUSH2 0x181 JUMPI DUP2 DUP8 PUSH2 0x970 JUMP JUMPDEST DUP5 MLOAD RETURNDATASIZE DUP6 DUP3 RETURNDATACOPY RETURNDATASIZE SWAP1 REVERT JUMPDEST DUP4 SLOAD PUSH1 0x1 PUSH1 0x1 PUSH1 0xA0 SHL SUB AND DUP1 EXTCODESIZE ISZERO PUSH2 0x75C JUMPI DUP5 SWAP1 DUP10 DUP8 MLOAD DUP1 SWAP5 DUP2 SWAP4 PUSH4 0x16F1A0A7 PUSH1 0xE3 SHL DUP4 MSTORE GAS CALL DUP1 ISZERO PUSH2 0x928 JUMPI SWAP1 DUP5 SWAP2 PUSH2 0x9CF JUMPI JUMPDEST POP PUSH2 0x35A JUMP JUMPDEST PUSH2 0x9D8 SWAP1 PUSH2 0x14AC JUMP JUMPDEST PUSH2 0x24C JUMPI DUP3 DUP9 PUSH2 0x9C9 JUMP JUMPDEST DUP5 SLOAD PUSH1 0x1 PUSH1 0x1 PUSH1 0xA0 SHL SUB AND DUP1 EXTCODESIZE ISZERO PUSH2 0x6F8 JUMPI DUP6 SWAP1 DUP11 DUP9 MLOAD DUP1 SWAP5 DUP2 SWAP4 PUSH4 0x523AA0DD PUSH1 0xE1 SHL DUP4 MSTORE GAS CALL DUP1 ISZERO PUSH2 0xA32 JUMPI SWAP1 DUP6 SWAP2 PUSH2 0xA1E JUMPI JUMPDEST POP PUSH2 0x353 JUMP JUMPDEST PUSH2 0xA27 SWAP1 PUSH2 0x14AC JUMP JUMPDEST PUSH2 0x69D JUMPI DUP4 DUP10 PUSH2 0xA18 JUMP JUMPDEST DUP7 MLOAD RETURNDATASIZE DUP8 DUP3 RETURNDATACOPY RETURNDATASIZE SWAP1 REVERT JUMPDEST PUSH4 0x4E487B71 PUSH1 0xE0 SHL DUP9 MSTORE PUSH1 0x11 DUP13 MSTORE PUSH1 0x24 DUP9 REVERT JUMPDEST PUSH4 0x4E487B71 PUSH1 0xE0 SHL DUP7 MSTORE PUSH1 0x11 DUP11 MSTORE PUSH1 0x24 DUP7 REVERT JUMPDEST PUSH4 0x4E487B71 PUSH1 0xE0 SHL DUP4 MSTORE PUSH1 0x11 DUP8 MSTORE PUSH1 0x24 DUP4 REVERT JUMPDEST PUSH4 0x4E487B71 PUSH1 0xE0 SHL DUP2 MSTORE PUSH1 0x11 DUP6 MSTORE PUSH1 0x24 SWAP1 REVERT JUMPDEST MLOAD PUSH3 0x461BCD PUSH1 0xE5 SHL DUP2 MSTORE DUP1 DUP5 ADD DUP4 SWAP1 MSTORE PUSH1 0x6 PUSH1 0x24 DUP3 ADD MSTORE PUSH6 0x9CDE408AA89 PUSH1 0xD3 SHL PUSH1 0x44 DUP3 ADD MSTORE PUSH1 0x64 SWAP1 REVERT JUMPDEST PUSH1 0xFF SWAP2 POP PUSH1 0x8 SHR AND ISZERO DUP7 PUSH2 0x279 JUMP JUMPDEST DUP4 DUP4 CALLVALUE PUSH2 0x181 JUMPI DUP1 PUSH1 0x3 NOT CALLDATASIZE ADD SLT PUSH2 0x181 JUMPI DUP3 CALLDATALOAD PUSH2 0xADE PUSH2 0x1547 JUMP JUMPDEST PUSH2 0xAF5 PUSH1 0x3 SLOAD PUSH1 0xFF DUP2 AND ISZERO SWAP1 DUP2 PUSH2 0xAB3 JUMPI POP PUSH2 0x139F JUMP JUMPDEST DUP1 ISZERO PUSH2 0xE6F JUMPI PUSH1 0x96 DUP2 MUL DUP2 DUP2 DIV PUSH1 0x96 SUB PUSH2 0xE5C JUMPI PUSH2 0x2710 DUP1 SWAP2 DIV SWAP5 PUSH2 0xB1A DUP7 DUP5 PUSH2 0x1423 JUMP JUMPDEST SWAP6 PUSH1 0x1 DUP1 PUSH1 0xA0 SHL SUB DUP7 DUP2 DUP2 SLOAD AND SWAP3 DUP8 MLOAD PUSH4 0x23B872DD PUSH1 0xE0 SHL DUP2 MSTORE CALLER DUP7 DUP3 ADD MSTORE PUSH1 0x24 SWAP5 ADDRESS DUP7 DUP4 ADD MSTORE DUP9 PUSH1 0x44 DUP4 ADD MSTORE DUP2 PUSH1 0x64 DUP2 PUSH1 0x20 SWAP14 DUP15 SWAP5 GAS CALL SWAP1 DUP2 ISZERO PUSH2 0xE52 JUMPI DUP4 SWAP2 PUSH2 0xE35 JUMPI JUMPDEST POP ISZERO PUSH2 0xDFE JUMPI DUP1 PUSH2 0xDB2 JUMPI JUMPDEST POP SWAP1 PUSH1 0x2 SLOAD SWAP5 PUSH8 0x29A2241AF62C0000 SWAP10 DUP7 DUP12 ADD DUP1 SWAP12 GT PUSH2 0xD61 JUMPI PUSH2 0xBA0 SWAP10 SWAP11 PUSH2 0xBAD PUSH2 0xBA6 PUSH2 0xBB3 SWAP4 PUSH1 0x1 SLOAD SWAP14 DUP15 DUP6 PUSH2 0x13DA JUMP JUMPDEST SWAP14 PUSH2 0x1430 JUMP JUMPDEST DUP1 SWAP13 PUSH2 0x1403 JUMP JUMPDEST SWAP1 PUSH2 0x1423 JUMP JUMPDEST SWAP6 DUP1 DUP8 GT PUSH2 0xD74 JUMPI DUP7 PUSH2 0xBD5 SWAP2 DUP2 ISZERO SWAP12 PUSH2 0xBCD DUP14 ISZERO PUSH2 0x143D JUMP JUMPDEST PUSH1 0x1 SSTORE PUSH2 0x1423 JUMP JUMPDEST PUSH1 0x2 SSTORE PUSH2 0xBE1 CALLER PUSH2 0x1624 JUMP JUMPDEST PUSH1 0xC8 ADD DUP1 PUSH1 0xC8 GT PUSH2 0xD61 JUMPI PUSH2 0xBF7 DUP3 SWAP2 DUP9 PUSH2 0x13DA JUMP JUMPDEST DIV SWAP9 PUSH1 0x96 DUP8 MUL SWAP1 DUP8 DUP3 DIV PUSH1 0x96 EQ OR ISZERO PUSH2 0xD61 JUMPI DIV SWAP1 PUSH2 0xC1A DUP3 PUSH2 0x2BB DUP12 DUP10 PUSH2 0x1423 JUMP JUMPDEST SWAP9 PUSH2 0xC28 DUP6 CALLDATALOAD DUP12 LT ISZERO PUSH2 0x1475 JUMP JUMPDEST DUP1 PUSH2 0xD19 JUMPI JUMPDEST POP DUP2 PUSH2 0xCD8 JUMPI JUMPDEST POP POP DUP1 DUP1 DUP1 DUP10 CALLER GAS CALL PUSH2 0xC46 PUSH2 0x1577 JUMP JUMPDEST POP ISZERO PUSH2 0xCA4 JUMPI POP POP DUP4 PUSH32 0x483F8AEC0FD892AC72AD1BA8D0E9C9E73DB59C12D263FD71DE480B5B3DEEAE3C SWAP2 PUSH2 0xC89 PUSH2 0xC7C PUSH2 0x15EF JUMP JUMPDEST DUP7 MLOAD SWAP4 DUP5 SWAP4 CALLER SWAP8 DUP6 PUSH2 0x152B JUMP JUMPDEST SUB SWAP1 LOG2 PUSH1 0x1 PUSH1 0x0 DUP1 MLOAD PUSH1 0x20 PUSH2 0x17FA DUP4 CODECOPY DUP2 MLOAD SWAP2 MSTORE SSTORE MLOAD SWAP1 DUP2 MSTORE RETURN JUMPDEST DUP5 MLOAD PUSH3 0x461BCD PUSH1 0xE5 SHL DUP2 MSTORE SWAP2 DUP3 ADD DUP8 SWAP1 MSTORE PUSH1 0xF SWAP1 DUP3 ADD MSTORE PUSH15 0x115512081CD95B990819985A5B1959 PUSH1 0x8A SHL PUSH1 0x44 DUP3 ADD MSTORE PUSH1 0x64 SWAP1 REVERT JUMPDEST DUP3 SLOAD AND DUP1 EXTCODESIZE ISZERO PUSH2 0x24C JUMPI DUP3 SWAP1 DUP6 DUP10 MLOAD DUP1 SWAP5 DUP2 SWAP4 PUSH4 0x16F1A0A7 PUSH1 0xE3 SHL DUP4 MSTORE GAS CALL DUP1 ISZERO PUSH2 0x693 JUMPI SWAP1 DUP3 SWAP2 ISZERO PUSH2 0xC35 JUMPI PUSH2 0xD0E SWAP1 PUSH2 0x14AC JUMP JUMPDEST PUSH2 0x690 JUMPI DUP1 DUP10 PUSH2 0xC35 JUMP JUMPDEST DUP2 DUP5 SLOAD AND DUP1 EXTCODESIZE ISZERO PUSH2 0x75C JUMPI DUP5 SWAP1 DUP8 DUP12 MLOAD DUP1 SWAP5 DUP2 SWAP4 PUSH4 0x523AA0DD PUSH1 0xE1 SHL DUP4 MSTORE GAS CALL DUP1 ISZERO PUSH2 0x6EE JUMPI SWAP1 DUP5 SWAP2 PUSH2 0xD4D JUMPI JUMPDEST POP PUSH2 0xC2E JUMP JUMPDEST PUSH2 0xD56 SWAP1 PUSH2 0x14AC JUMP JUMPDEST PUSH2 0x24C JUMPI DUP3 DUP12 PUSH2 0xD47 JUMP JUMPDEST POP POP PUSH4 0x4E487B71 PUSH1 0xE0 SHL DUP3 MSTORE POP PUSH1 0x11 DUP4 MSTORE REVERT JUMPDEST DUP9 MLOAD PUSH3 0x461BCD PUSH1 0xE5 SHL DUP2 MSTORE DUP1 DUP8 ADD DUP13 SWAP1 MSTORE PUSH1 0x19 DUP2 DUP8 ADD MSTORE PUSH25 0x496E73756666696369656E742045544820696E206375727665 PUSH1 0x38 SHL PUSH1 0x44 DUP3 ADD MSTORE PUSH1 0x64 SWAP1 REVERT JUMPDEST DUP3 DUP3 SLOAD AND SWAP1 DUP2 EXTCODESIZE ISZERO PUSH2 0x24C JUMPI DUP3 SWAP2 DUP6 DUP4 SWAP3 DUP12 MLOAD SWAP5 DUP6 SWAP4 DUP5 SWAP3 PUSH4 0x16C24011 PUSH1 0xE2 SHL DUP5 MSTORE DUP12 DUP5 ADD MSTORE GAS CALL DUP1 ISZERO PUSH2 0xDF4 JUMPI ISZERO PUSH2 0xB6C JUMPI PUSH2 0xDEE SWAP1 PUSH2 0x14AC JUMP JUMPDEST DUP10 PUSH2 0xB6C JUMP JUMPDEST DUP9 MLOAD RETURNDATASIZE DUP5 DUP3 RETURNDATACOPY RETURNDATASIZE SWAP1 REVERT JUMPDEST DUP8 MLOAD PUSH3 0x461BCD PUSH1 0xE5 SHL DUP2 MSTORE DUP1 DUP7 ADD DUP11 SWAP1 MSTORE PUSH1 0x12 DUP2 DUP7 ADD MSTORE PUSH18 0x151C985B9CD9995C881A5B8819985A5B1959 PUSH1 0x72 SHL PUSH1 0x44 DUP3 ADD MSTORE PUSH1 0x64 SWAP1 REVERT JUMPDEST PUSH2 0xE4C SWAP2 POP DUP11 RETURNDATASIZE DUP13 GT PUSH2 0x898 JUMPI PUSH2 0x88A DUP2 DUP4 PUSH2 0x14D5 JUMP JUMPDEST DUP12 PUSH2 0xB60 JUMP JUMPDEST DUP10 MLOAD RETURNDATASIZE DUP6 DUP3 RETURNDATACOPY RETURNDATASIZE SWAP1 REVERT JUMPDEST PUSH4 0x4E487B71 PUSH1 0xE0 SHL DUP5 MSTORE PUSH1 0x11 DUP6 MSTORE PUSH1 0x24 DUP5 REVERT JUMPDEST DUP2 MLOAD PUSH3 0x461BCD PUSH1 0xE5 SHL DUP2 MSTORE PUSH1 0x20 DUP2 DUP7 ADD MSTORE PUSH1 0x9 PUSH1 0x24 DUP3 ADD MSTORE PUSH9 0x4E6F20746F6B656E73 PUSH1 0xB8 SHL PUSH1 0x44 DUP3 ADD MSTORE PUSH1 0x64 SWAP1 REVERT JUMPDEST PUSH2 0x1348 JUMP JUMPDEST POP POP CALLVALUE PUSH2 0x181 JUMPI DUP2 PUSH1 0x3 NOT CALLDATASIZE ADD SLT PUSH2 0x181 JUMPI PUSH1 0x20 SWAP1 MLOAD PUSH11 0xA56FA5B99019A5C8000000 DUP2 MSTORE RETURN JUMPDEST POP POP CALLVALUE PUSH2 0x181 JUMPI DUP2 PUSH1 0x3 NOT CALLDATASIZE ADD SLT PUSH2 0x181 JUMPI PUSH1 0x20 SWAP1 MLOAD PUSH2 0x3E8 DUP2 MSTORE RETURN JUMPDEST POP POP CALLVALUE PUSH2 0x181 JUMPI DUP2 PUSH1 0x3 NOT CALLDATASIZE ADD SLT PUSH2 0x181 JUMPI MLOAD PUSH32 0x0 PUSH1 0x1 PUSH1 0x1 PUSH1 0xA0 SHL SUB AND DUP2 MSTORE PUSH1 0x20 SWAP1 RETURN JUMPDEST POP POP CALLVALUE PUSH2 0x181 JUMPI DUP2 PUSH1 0x3 NOT CALLDATASIZE ADD SLT PUSH2 0x181 JUMPI PUSH1 0x20 SWAP1 MLOAD PUSH2 0x7D0 DUP2 MSTORE RETURN JUMPDEST POP POP CALLVALUE PUSH2 0x181 JUMPI DUP2 PUSH1 0x3 NOT CALLDATASIZE ADD SLT PUSH2 0x181 JUMPI PUSH1 0x20 SWAP1 MLOAD PUSH2 0x1F4 DUP2 MSTORE RETURN JUMPDEST POP POP CALLVALUE PUSH2 0x181 JUMPI DUP2 PUSH1 0x3 NOT CALLDATASIZE ADD SLT PUSH2 0x181 JUMPI MLOAD PUSH8 0x14ADF4B7320334B9 PUSH1 0x1D SHL DUP2 MSTORE PUSH1 0x20 SWAP1 RETURN JUMPDEST DUP3 DUP5 CALLVALUE PUSH2 0x690 JUMPI DUP1 PUSH1 0x3 NOT CALLDATASIZE ADD SLT PUSH2 0x690 JUMPI PUSH1 0x2 SLOAD SWAP3 PUSH8 0x29A2241AF62C0000 SWAP4 DUP5 ADD DUP1 SWAP5 GT PUSH2 0xFE4 JUMPI PUSH8 0xDE0B6B3A7640000 SWAP4 DUP5 DUP2 MUL SWAP5 DUP2 DUP7 DIV EQ SWAP1 ISZERO OR ISZERO PUSH2 0xFE4 JUMPI PUSH1 0x20 DUP4 PUSH2 0xFDD DUP7 PUSH1 0x1 SLOAD SWAP1 PUSH2 0x1403 JUMP JUMPDEST SWAP1 MLOAD SWAP1 DUP2 MSTORE RETURN JUMPDEST PUSH4 0x4E487B71 PUSH1 0xE0 SHL DUP3 MSTORE PUSH1 0x11 SWAP1 MSTORE PUSH1 0x24 SWAP1 REVERT JUMPDEST POP POP CALLVALUE PUSH2 0x181 JUMPI DUP2 PUSH1 0x3 NOT CALLDATASIZE ADD SLT PUSH2 0x181 JUMPI PUSH1 0x20 SWAP1 MLOAD PUSH8 0x4563918244F40000 DUP2 MSTORE RETURN JUMPDEST POP POP CALLVALUE PUSH2 0x181 JUMPI DUP2 PUSH1 0x3 NOT CALLDATASIZE ADD SLT PUSH2 0x181 JUMPI MLOAD PUSH32 0x0 PUSH1 0x1 PUSH1 0x1 PUSH1 0xA0 SHL SUB AND DUP2 MSTORE PUSH1 0x20 SWAP1 RETURN JUMPDEST POP POP CALLVALUE PUSH2 0x181 JUMPI DUP2 PUSH1 0x3 NOT CALLDATASIZE ADD SLT PUSH2 0x181 JUMPI MLOAD PUSH32 0x0 PUSH1 0x1 PUSH1 0x1 PUSH1 0xA0 SHL SUB AND DUP2 MSTORE PUSH1 0x20 SWAP1 RETURN JUMPDEST POP POP CALLVALUE PUSH2 0x181 JUMPI DUP2 PUSH1 0x3 NOT CALLDATASIZE ADD SLT PUSH2 0x181 JUMPI PUSH1 0x20 SWAP1 PUSH1 0xFF PUSH1 0x3 SLOAD PUSH1 0x8 SHR AND SWAP1 MLOAD SWAP1 ISZERO ISZERO DUP2 MSTORE RETURN JUMPDEST SWAP1 POP CALLVALUE PUSH2 0x24C JUMPI DUP2 PUSH1 0x3 NOT CALLDATASIZE ADD SLT PUSH2 0x24C JUMPI PUSH1 0x24 CALLDATALOAD SWAP3 PUSH1 0x1 PUSH1 0x1 PUSH1 0xA0 SHL SUB DUP5 AND DUP5 SUB PUSH2 0x690 JUMPI POP PUSH1 0x20 SWAP3 PUSH2 0xFDD SWAP2 CALLDATALOAD PUSH2 0x1721 JUMP JUMPDEST POP POP CALLVALUE PUSH2 0x181 JUMPI DUP2 PUSH1 0x3 NOT CALLDATASIZE ADD SLT PUSH2 0x181 JUMPI PUSH1 0x20 SWAP1 PUSH2 0xFDD PUSH2 0x15EF JUMP JUMPDEST POP POP CALLVALUE PUSH2 0x181 JUMPI DUP2 PUSH1 0x3 NOT CALLDATASIZE ADD SLT PUSH2 0x181 JUMPI PUSH1 0x20 SWAP1 MLOAD PUSH8 0x29A2241AF62C0000 DUP2 MSTORE RETURN JUMPDEST SWAP1 POP CALLVALUE PUSH2 0x24C JUMPI PUSH1 0x20 CALLDATASIZE PUSH1 0x3 NOT ADD SLT PUSH2 0x24C JUMPI PUSH1 0x20 SWAP3 SWAP1 PUSH1 0x1 PUSH1 0x1 PUSH1 0xA0 SHL SUB PUSH2 0x1164 PUSH2 0x1332 JUMP JUMPDEST AND DUP3 MSTORE DUP4 MSTORE DUP2 SWAP1 KECCAK256 SLOAD SWAP1 MLOAD PUSH1 0x1 PUSH1 0x1 PUSH1 0x40 SHL SUB SWAP1 SWAP2 AND DUP2 MSTORE RETURN JUMPDEST SWAP2 SWAP1 POP CALLVALUE PUSH2 0x24C JUMPI PUSH1 0x20 CALLDATASIZE PUSH1 0x3 NOT ADD SLT PUSH2 0x24C JUMPI PUSH2 0x119A PUSH2 0x1332 JUMP JUMPDEST PUSH2 0x11A2 PUSH2 0x1547 JUMP JUMPDEST PUSH1 0x1 PUSH1 0x1 PUSH1 0xA0 SHL SUB SWAP2 PUSH2 0x11D8 CALLER PUSH32 0x0 DUP6 AND EQ PUSH2 0x1364 JUMP JUMPDEST PUSH1 0x3 SLOAD PUSH1 0xFF DUP2 AND PUSH2 0x1284 JUMPI PUSH2 0xFF00 NOT AND PUSH2 0x100 OR PUSH1 0x3 SSTORE SELFBALANCE SWAP4 DUP5 PUSH2 0x1239 JUMPI JUMPDEST POP MLOAD SWAP3 DUP4 MSTORE AND SWAP1 PUSH32 0x16BFC55CFDA3EB65B74E8FE52A8804E222BDB31AEF30599B41ADEB45893F66A9 SWAP1 PUSH1 0x20 SWAP1 LOG2 PUSH1 0x1 PUSH1 0x0 DUP1 MLOAD PUSH1 0x20 PUSH2 0x17FA DUP4 CODECOPY DUP2 MLOAD SWAP2 MSTORE SSTORE DUP1 RETURN JUMPDEST DUP6 DUP1 DUP1 DUP1 DUP9 DUP9 DUP9 AND GAS CALL PUSH2 0x124B PUSH2 0x1577 JUMP JUMPDEST POP PUSH2 0x11F7 JUMPI PUSH1 0x20 PUSH1 0x64 SWAP3 MLOAD SWAP2 PUSH3 0x461BCD PUSH1 0xE5 SHL DUP4 MSTORE DUP3 ADD MSTORE PUSH1 0xF PUSH1 0x24 DUP3 ADD MSTORE PUSH15 0x15DA5D1A191C985DC819985A5B1959 PUSH1 0x8A SHL PUSH1 0x44 DUP3 ADD MSTORE REVERT JUMPDEST DUP2 MLOAD PUSH3 0x461BCD PUSH1 0xE5 SHL DUP2 MSTORE PUSH1 0x20 DUP2 DUP8 ADD MSTORE PUSH1 0x11 PUSH1 0x24 DUP3 ADD MSTORE PUSH17 0x105B1C9958591E4819DC98591D585D1959 PUSH1 0x7A SHL PUSH1 0x44 DUP3 ADD MSTORE PUSH1 0x64 SWAP1 REVERT JUMPDEST POP POP CALLVALUE PUSH2 0x181 JUMPI DUP2 PUSH1 0x3 NOT CALLDATASIZE ADD SLT PUSH2 0x181 JUMPI PUSH1 0x20 SWAP1 MLOAD PUSH1 0xC8 DUP2 MSTORE RETURN JUMPDEST POP POP CALLVALUE PUSH2 0x181 JUMPI DUP2 PUSH1 0x3 NOT CALLDATASIZE ADD SLT PUSH2 0x181 JUMPI PUSH1 0x20 SWAP1 PUSH1 0x1 SLOAD SWAP1 MLOAD SWAP1 DUP2 MSTORE RETURN JUMPDEST DUP3 DUP5 CALLVALUE PUSH2 0x690 JUMPI PUSH1 0x20 CALLDATASIZE PUSH1 0x3 NOT ADD SLT PUSH2 0x690 JUMPI POP PUSH2 0xFDD PUSH1 0x20 SWAP3 CALLDATALOAD PUSH2 0x168F JUMP JUMPDEST DUP5 SWAP1 CALLVALUE PUSH2 0x181 JUMPI DUP2 PUSH1 0x3 NOT CALLDATASIZE ADD SLT PUSH2 0x181 JUMPI PUSH1 0x20 SWAP1 PUSH1 0x2 SLOAD DUP2 MSTORE RETURN JUMPDEST PUSH1 0x4 CALLDATALOAD SWAP1 PUSH1 0x1 PUSH1 0x1 PUSH1 0xA0 SHL SUB DUP3 AND DUP3 SUB PUSH2 0x722 JUMPI JUMP JUMPDEST CALLVALUE PUSH2 0x722 JUMPI PUSH1 0x0 CALLDATASIZE PUSH1 0x3 NOT ADD SLT PUSH2 0x722 JUMPI PUSH1 0x20 PUSH1 0x40 MLOAD PUSH1 0x96 DUP2 MSTORE RETURN JUMPDEST ISZERO PUSH2 0x136B JUMPI JUMP JUMPDEST PUSH1 0x40 MLOAD PUSH3 0x461BCD PUSH1 0xE5 SHL DUP2 MSTORE PUSH1 0x20 PUSH1 0x4 DUP3 ADD MSTORE PUSH1 0xC PUSH1 0x24 DUP3 ADD MSTORE PUSH12 0x4F6E6C7920666163746F7279 PUSH1 0xA0 SHL PUSH1 0x44 DUP3 ADD MSTORE PUSH1 0x64 SWAP1 REVERT JUMPDEST ISZERO PUSH2 0x13A6 JUMPI JUMP JUMPDEST PUSH1 0x40 MLOAD PUSH3 0x461BCD PUSH1 0xE5 SHL DUP2 MSTORE PUSH1 0x20 PUSH1 0x4 DUP3 ADD MSTORE PUSH1 0xC PUSH1 0x24 DUP3 ADD MSTORE PUSH12 0x10DD5C9D994818DB1BDCD959 PUSH1 0xA2 SHL PUSH1 0x44 DUP3 ADD MSTORE PUSH1 0x64 SWAP1 REVERT JUMPDEST DUP2 DUP2 MUL SWAP3 SWAP2 DUP2 ISZERO SWAP2 DUP5 DIV EQ OR ISZERO PUSH2 0x13ED JUMPI JUMP JUMPDEST PUSH4 0x4E487B71 PUSH1 0xE0 SHL PUSH1 0x0 MSTORE PUSH1 0x11 PUSH1 0x4 MSTORE PUSH1 0x24 PUSH1 0x0 REVERT JUMPDEST DUP2 ISZERO PUSH2 0x140D JUMPI DIV SWAP1 JUMP JUMPDEST PUSH4 0x4E487B71 PUSH1 0xE0 SHL PUSH1 0x0 MSTORE PUSH1 0x12 PUSH1 0x4 MSTORE PUSH1 0x24 PUSH1 0x0 REVERT JUMPDEST SWAP2 SWAP1 DUP3 SUB SWAP2 DUP3 GT PUSH2 0x13ED JUMPI JUMP JUMPDEST SWAP2 SWAP1 DUP3 ADD DUP1 SWAP3 GT PUSH2 0x13ED JUMPI JUMP JUMPDEST ISZERO PUSH2 0x1444 JUMPI JUMP JUMPDEST PUSH1 0x40 MLOAD PUSH3 0x461BCD PUSH1 0xE5 SHL DUP2 MSTORE PUSH1 0x20 PUSH1 0x4 DUP3 ADD MSTORE PUSH1 0x9 PUSH1 0x24 DUP3 ADD MSTORE PUSH9 0x151BDBC81CDB585B1B PUSH1 0xBA SHL PUSH1 0x44 DUP3 ADD MSTORE PUSH1 0x64 SWAP1 REVERT JUMPDEST ISZERO PUSH2 0x147C JUMPI JUMP JUMPDEST PUSH1 0x40 MLOAD PUSH3 0x461BCD PUSH1 0xE5 SHL DUP2 MSTORE PUSH1 0x20 PUSH1 0x4 DUP3 ADD MSTORE PUSH1 0x8 PUSH1 0x24 DUP3 ADD MSTORE PUSH8 0x536C697070616765 PUSH1 0xC0 SHL PUSH1 0x44 DUP3 ADD MSTORE PUSH1 0x64 SWAP1 REVERT JUMPDEST PUSH1 0x1 PUSH1 0x1 PUSH1 0x40 SHL SUB DUP2 GT PUSH2 0x14BF JUMPI PUSH1 0x40 MSTORE JUMP JUMPDEST PUSH4 0x4E487B71 PUSH1 0xE0 SHL PUSH1 0x0 MSTORE PUSH1 0x41 PUSH1 0x4 MSTORE PUSH1 0x24 PUSH1 0x0 REVERT JUMPDEST PUSH1 0x1F SWAP1 SWAP2 ADD PUSH1 0x1F NOT AND DUP2 ADD SWAP1 PUSH1 0x1 PUSH1 0x1 PUSH1 0x40 SHL SUB DUP3 GT SWAP1 DUP3 LT OR PUSH2 0x14BF JUMPI PUSH1 0x40 MSTORE JUMP JUMPDEST SWAP1 DUP2 PUSH1 0x20 SWAP2 SUB SLT PUSH2 0x722 JUMPI MLOAD DUP1 ISZERO ISZERO DUP2 SUB PUSH2 0x722 JUMPI SWAP1 JUMP JUMPDEST PUSH1 0x1 PUSH1 0x1 PUSH1 0xA0 SHL SUB SWAP1 SWAP2 AND DUP2 MSTORE PUSH1 0x20 DUP2 ADD SWAP2 SWAP1 SWAP2 MSTORE PUSH1 0x40 ADD SWAP1 JUMP JUMPDEST SWAP1 SWAP5 SWAP4 SWAP3 PUSH1 0x60 SWAP3 PUSH1 0x80 DUP4 ADD SWAP7 DUP4 MSTORE PUSH1 0x20 DUP4 ADD MSTORE PUSH1 0x40 DUP3 ADD MSTORE ADD MSTORE JUMP JUMPDEST PUSH1 0x0 DUP1 MLOAD PUSH1 0x20 PUSH2 0x17FA DUP4 CODECOPY DUP2 MLOAD SWAP2 MSTORE PUSH1 0x2 DUP2 SLOAD EQ PUSH2 0x1565 JUMPI PUSH1 0x2 SWAP1 SSTORE JUMP JUMPDEST PUSH1 0x40 MLOAD PUSH4 0x3EE5AEB5 PUSH1 0xE0 SHL DUP2 MSTORE PUSH1 0x4 SWAP1 REVERT JUMPDEST RETURNDATASIZE ISZERO PUSH2 0x15B1 JUMPI RETURNDATASIZE SWAP1 PUSH1 0x1 PUSH1 0x1 PUSH1 0x40 SHL SUB DUP3 GT PUSH2 0x14BF JUMPI PUSH1 0x40 MLOAD SWAP2 PUSH2 0x15A5 PUSH1 0x1F DUP3 ADD PUSH1 0x1F NOT AND PUSH1 0x20 ADD DUP5 PUSH2 0x14D5 JUMP JUMPDEST DUP3 MSTORE RETURNDATASIZE PUSH1 0x0 PUSH1 0x20 DUP5 ADD RETURNDATACOPY JUMP JUMPDEST PUSH1 0x60 SWAP1 JUMP JUMPDEST SWAP1 DUP2 PUSH1 0x20 SWAP2 SUB SLT PUSH2 0x722 JUMPI MLOAD PUSH1 0x1 PUSH1 0x1 PUSH1 0xA0 SHL SUB DUP2 AND DUP2 SUB PUSH2 0x722 JUMPI SWAP1 JUMP JUMPDEST PUSH1 0x1 PUSH1 0x1 PUSH1 0xA0 SHL SUB SWAP2 DUP3 AND DUP2 MSTORE SWAP2 AND PUSH1 0x20 DUP3 ADD MSTORE PUSH1 0x40 ADD SWAP1 JUMP JUMPDEST PUSH1 0xFF PUSH1 0x3 SLOAD AND PUSH2 0x161E JUMPI PUSH1 0x2 SLOAD PUSH2 0x2710 SWAP1 DUP2 DUP2 MUL SWAP2 DUP2 DUP4 DIV EQ SWAP1 ISZERO OR ISZERO PUSH2 0x13ED JUMPI PUSH8 0x4563918244F40000 SWAP1 DIV SWAP1 JUMP JUMPDEST PUSH2 0x2710 SWAP1 JUMP JUMPDEST PUSH1 0x1 PUSH1 0x1 PUSH1 0xA0 SHL SUB AND PUSH1 0x0 SWAP1 DUP2 MSTORE PUSH1 0x4 PUSH1 0x20 MSTORE PUSH1 0x40 SWAP1 KECCAK256 SLOAD PUSH1 0x1 PUSH1 0x1 PUSH1 0x40 SHL SUB AND DUP1 ISZERO PUSH2 0x1689 JUMPI PUSH2 0x1655 SWAP1 TIMESTAMP PUSH2 0x1423 JUMP JUMPDEST PUSH2 0x12C DUP2 LT PUSH2 0x1682 JUMPI PUSH2 0xE10 DUP2 LT PUSH2 0x167B JUMPI PUSH3 0x15180 GT PUSH2 0x1675 JUMPI PUSH1 0x0 SWAP1 JUMP JUMPDEST PUSH2 0x1F4 SWAP1 JUMP JUMPDEST POP PUSH2 0x3E8 SWAP1 JUMP JUMPDEST POP PUSH2 0x7D0 SWAP1 JUMP JUMPDEST POP PUSH1 0x0 SWAP1 JUMP JUMPDEST PUSH1 0x3 SLOAD PUSH1 0xFF DUP2 AND SWAP1 DUP2 ISZERO PUSH2 0x1713 JUMPI JUMPDEST POP PUSH2 0x1689 JUMPI PUSH2 0x25B2 SWAP1 DUP2 DUP2 MUL SWAP2 DUP2 DUP4 DIV EQ SWAP1 ISZERO OR ISZERO PUSH2 0x13ED JUMPI PUSH1 0x2 SLOAD PUSH8 0x29A2241AF62C0000 SWAP1 DUP2 ADD DUP1 SWAP2 GT PUSH2 0x13ED JUMPI PUSH2 0x16F2 SWAP1 PUSH2 0xBAD PUSH1 0x1 SLOAD SWAP2 PUSH2 0x2F7 PUSH2 0x16E5 DUP5 DUP4 PUSH2 0x13DA JUMP JUMPDEST SWAP2 PUSH2 0x2710 DUP1 SWAP8 DIV SWAP1 PUSH2 0x1430 JUMP JUMPDEST PUSH1 0x96 DUP2 MUL SWAP2 DUP2 DUP4 DIV PUSH1 0x96 EQ DUP3 ISZERO OR ISZERO PUSH2 0x13ED JUMPI PUSH2 0x1710 SWAP3 DIV SWAP1 PUSH2 0x1423 JUMP JUMPDEST SWAP1 JUMP JUMPDEST PUSH1 0xFF SWAP2 POP PUSH1 0x8 SHR AND CODESIZE PUSH2 0x169E JUMP JUMPDEST PUSH1 0x3 SLOAD PUSH1 0xFF DUP2 AND SWAP1 DUP2 ISZERO PUSH2 0x17EB JUMPI JUMPDEST POP PUSH2 0x17E4 JUMPI PUSH1 0x96 DUP2 MUL SWAP1 DUP1 DUP3 DIV PUSH1 0x96 EQ DUP2 ISZERO OR ISZERO PUSH2 0x13ED JUMPI PUSH2 0x1758 SWAP1 PUSH2 0x2710 DUP1 SWAP4 DIV SWAP1 PUSH2 0x1423 JUMP JUMPDEST SWAP2 PUSH1 0x2 SLOAD SWAP3 PUSH8 0x29A2241AF62C0000 DUP5 DUP2 ADD DUP1 SWAP2 GT PUSH2 0x13ED JUMPI PUSH2 0xBAD PUSH2 0x1788 SWAP3 PUSH2 0x2F7 PUSH1 0x1 SLOAD SWAP2 PUSH2 0x2F1 DUP4 DUP7 PUSH2 0x13DA JUMP JUMPDEST SWAP3 DUP1 DUP5 GT PUSH2 0x17DA JUMPI JUMPDEST POP PUSH2 0x179B SWAP1 PUSH2 0x1624 JUMP JUMPDEST DUP1 PUSH1 0xC8 ADD SWAP1 DUP2 PUSH1 0xC8 GT PUSH2 0x13ED JUMPI PUSH2 0x15E ADD DUP1 SWAP2 GT PUSH2 0x13ED JUMPI PUSH2 0x17BD SWAP1 DUP4 PUSH2 0x13DA JUMP JUMPDEST DIV PUSH1 0x0 SWAP2 DUP2 DUP2 GT PUSH1 0x0 EQ PUSH2 0x17D5 JUMPI PUSH2 0x1710 SWAP3 POP PUSH2 0x1423 JUMP JUMPDEST POP POP SWAP1 JUMP JUMPDEST SWAP3 POP PUSH2 0x179B PUSH2 0x1791 JUMP JUMPDEST POP POP PUSH1 0x0 SWAP1 JUMP JUMPDEST PUSH1 0xFF SWAP2 POP PUSH1 0x8 SHR AND CODESIZE PUSH2 0x1730 JUMP INVALID SWAP12 PUSH24 0x9B17422D0DF92223018B32B4D1FA46E071723D6817E2486D STOP EXTCODESIZE 0xEC 0xC5 PUSH0 STOP LOG2 PUSH5 0x6970667358 0x22 SLT KECCAK256 PUSH12 0x357500352D963AEBE7F0C553 0x2F 0x2E JUMPDEST SWAP11 0xB6 0xD8 0xFC ISZERO DUP8 SHL 0x25 0xBA 0xE1 0xE5 0xC3 AND CALLCODE 0xAF PUSH6 0x64736F6C6343 STOP ADDMOD EQ STOP CALLER PUSH1 0xC0 PUSH1 0x40 SWAP1 DUP1 DUP3 MSTORE CALLVALUE PUSH3 0x72A JUMPI PUSH3 0x3362 DUP1 CODESIZE SUB DUP1 SWAP2 PUSH3 0x22 DUP3 DUP6 PUSH3 0x72F JUMP JUMPDEST DUP4 CODECOPY DUP2 ADD PUSH1 0x80 DUP3 DUP3 SUB SLT PUSH3 0x72A JUMPI DUP2 MLOAD PUSH1 0x1 PUSH1 0x1 PUSH1 0x40 SHL SUB SWAP1 DUP2 DUP2 GT PUSH3 0x72A JUMPI DUP3 PUSH3 0x52 SWAP2 DUP6 ADD PUSH3 0x76F JUMP JUMPDEST SWAP2 PUSH1 0x20 SWAP1 DUP2 DUP6 ADD MLOAD SWAP1 DUP4 DUP3 GT PUSH3 0x72A JUMPI PUSH3 0x70 SWAP2 DUP7 ADD PUSH3 0x76F JUMP JUMPDEST SWAP2 PUSH3 0x8C PUSH1 0x60 PUSH3 0x84 DUP9 DUP9 ADD PUSH3 0x7D9 JUMP JUMPDEST SWAP7 ADD PUSH3 0x7D9 JUMP JUMPDEST SWAP3 DUP5 MLOAD DUP3 DUP2 GT PUSH3 0x62A JUMPI PUSH1 0x3 DUP1 SLOAD SWAP2 PUSH1 0x1 SWAP8 DUP9 DUP5 DUP2 SHR SWAP5 AND DUP1 ISZERO PUSH3 0x71F JUMPI JUMPDEST DUP8 DUP6 LT EQ PUSH3 0x709 JUMPI DUP2 SWAP1 PUSH1 0x1F SWAP5 DUP6 DUP2 GT PUSH3 0x6B3 JUMPI JUMPDEST POP DUP8 SWAP1 DUP6 DUP4 GT PUSH1 0x1 EQ PUSH3 0x64C JUMPI PUSH1 0x0 SWAP3 PUSH3 0x640 JUMPI JUMPDEST POP POP PUSH1 0x0 NOT DUP3 DUP5 SHL SHR NOT AND SWAP1 DUP9 SHL OR DUP2 SSTORE JUMPDEST DUP3 MLOAD SWAP2 DUP5 DUP4 GT PUSH3 0x62A JUMPI PUSH1 0x4 SWAP4 DUP5 SLOAD DUP10 DUP2 DUP2 SHR SWAP2 AND DUP1 ISZERO PUSH3 0x61F JUMPI JUMPDEST DUP9 DUP3 LT EQ PUSH3 0x60A JUMPI SWAP1 DUP2 DUP4 DUP7 SWAP6 SWAP5 SWAP4 GT PUSH3 0x5B0 JUMPI JUMPDEST POP DUP8 SWAP2 DUP5 GT PUSH1 0x1 EQ PUSH3 0x545 JUMPI PUSH1 0x0 SWAP4 PUSH3 0x539 JUMPI JUMPDEST POP POP DUP3 DUP9 SHL SWAP3 PUSH1 0x0 NOT SWAP2 SHL SHR NOT AND OR DUP2 SSTORE JUMPDEST PUSH32 0x9B779B17422D0DF92223018B32B4D1FA46E071723D6817E2486D003BECC55F00 DUP6 SWAP1 SSTORE PUSH10 0x152D02C7E14AF6800000 PUSH1 0x7 SSTORE PUSH1 0x80 DUP7 SWAP1 MSTORE PUSH1 0xA0 DUP5 SWAP1 MSTORE PUSH1 0x1 PUSH1 0x1 PUSH1 0xA0 SHL SUB SWAP4 DUP5 DUP2 AND SWAP3 DUP4 ISZERO PUSH3 0x522 JUMPI PUSH12 0x33B2E3C9FD0803CE8000000 SWAP1 PUSH3 0x1B3 DUP4 PUSH3 0x902 JUMP JUMPDEST PUSH1 0x5 SLOAD SWAP4 DUP8 PUSH1 0xFF SWAP6 DUP7 DUP2 AND DUP1 PUSH3 0x515 JUMPI JUMPDEST DUP1 PUSH3 0x4FE JUMPI JUMPDEST DUP1 PUSH3 0x4E7 JUMPI JUMPDEST PUSH3 0x33B JUMPI JUMPDEST POP POP POP POP DUP2 PUSH3 0x1F3 PUSH3 0x1F9 SWAP3 PUSH1 0xE SWAP8 SWAP7 SWAP6 SWAP5 PUSH3 0x878 JUMP JUMPDEST PUSH3 0xA19 JUMP JUMPDEST DUP5 PUSH1 0x5 SLOAD DUP3 DUP2 AND SWAP3 DUP4 PUSH3 0x32D JUMPI JUMPDEST POP DUP3 PUSH3 0x31D JUMPI JUMPDEST POP POP DUP1 PUSH3 0x304 JUMPI JUMPDEST DUP1 PUSH3 0x2F6 JUMPI JUMPDEST PUSH3 0x2E6 JUMPI JUMPDEST PUSH1 0x0 MSTORE MSTORE DUP4 PUSH1 0x0 KECCAK256 SWAP3 PUSH1 0xFF NOT SWAP4 DUP4 DUP6 DUP3 SLOAD AND OR SWAP1 SSTORE AND PUSH1 0x0 MSTORE DUP3 PUSH1 0x0 KECCAK256 DUP2 DUP4 DUP3 SLOAD AND OR SWAP1 SSTORE PUSH2 0xDEAD PUSH1 0x0 MSTORE DUP3 PUSH1 0x0 KECCAK256 DUP2 DUP4 DUP3 SLOAD AND OR SWAP1 SSTORE ADDRESS PUSH1 0x0 MSTORE DUP3 PUSH1 0x0 KECCAK256 DUP2 DUP4 DUP3 SLOAD AND OR SWAP1 SSTORE PUSH1 0x0 DUP1 MSTORE DUP3 PUSH1 0x0 KECCAK256 SWAP2 DUP3 SLOAD AND OR SWAP1 SSTORE TIMESTAMP PUSH1 0xB SSTORE MLOAD PUSH2 0x2271 SWAP1 DUP2 PUSH3 0x10B1 DUP3 CODECOPY PUSH1 0x80 MLOAD DUP2 DUP2 DUP2 PUSH2 0x51B ADD MSTORE DUP2 DUP2 PUSH2 0x5F7 ADD MSTORE DUP2 DUP2 PUSH2 0x738 ADD MSTORE DUP2 DUP2 PUSH2 0xE41 ADD MSTORE PUSH2 0x1F0F ADD MSTORE PUSH1 0xA0 MLOAD DUP2 DUP2 DUP2 PUSH2 0x3C0 ADD MSTORE DUP2 DUP2 PUSH2 0x5BF ADD MSTORE DUP2 DUP2 PUSH2 0x6C0 ADD MSTORE DUP2 DUP2 PUSH2 0x917 ADD MSTORE DUP2 DUP2 PUSH2 0x9BE ADD MSTORE DUP2 DUP2 PUSH2 0x19F4 ADD MSTORE PUSH2 0x1B83 ADD MSTORE RETURN JUMPDEST PUSH3 0x2F0 PUSH3 0xC93 JUMP JUMPDEST PUSH3 0x226 JUMP JUMPDEST POP DUP4 PUSH1 0x6 SLOAD AND ISZERO ISZERO PUSH3 0x220 JUMP JUMPDEST POP ADDRESS PUSH1 0x0 MSTORE PUSH1 0x0 DUP3 MSTORE DUP7 PUSH1 0x0 KECCAK256 SLOAD PUSH1 0x7 SLOAD GT ISZERO PUSH3 0x219 JUMP JUMPDEST PUSH1 0x8 SHR AND ISZERO ISZERO SWAP1 POP DUP5 CODESIZE PUSH3 0x210 JUMP JUMPDEST PUSH1 0x8 SLOAD AND ISZERO SWAP3 POP CODESIZE PUSH3 0x208 JUMP JUMPDEST PUSH1 0x8 SHR AND SWAP2 DUP3 ISZERO SWAP3 DUP8 EQ DUP4 DUP5 ISZERO PUSH3 0x4DF JUMPI JUMPDEST PUSH3 0x35D JUMPI JUMPDEST DUP10 SWAP2 POP PUSH3 0x1D9 JUMP JUMPDEST PUSH1 0x0 SWAP5 SWAP2 SWAP3 SWAP4 SWAP5 SWAP1 PUSH3 0x4CE JUMPI JUMPDEST PUSH2 0x1F4 SWAP1 DUP2 ADD DUP1 SWAP2 GT PUSH3 0x4B9 JUMPI DUP1 DUP3 MUL SWAP1 DUP3 DUP3 DIV SUB PUSH3 0x4B9 JUMPI PUSH2 0x2710 SWAP1 DIV SWAP3 PUSH1 0x2 SLOAD SWAP4 PUSH11 0xC685FA11E01EC6F000000 SWAP5 DUP6 DUP2 ADD DUP1 SWAP2 GT PUSH3 0x4A4 JUMPI PUSH1 0x2 SSTORE DUP14 PUSH1 0x0 PUSH1 0x0 DUP1 MLOAD PUSH1 0x20 PUSH3 0x3342 DUP4 CODECOPY DUP2 MLOAD SWAP2 MSTORE DUP13 PUSH2 0xDEAD SWAP4 DUP5 DUP5 MSTORE DUP4 DUP3 MSTORE DUP1 DUP5 KECCAK256 DUP11 DUP2 SLOAD ADD SWAP1 SSTORE MLOAD DUP10 DUP2 MSTORE LOG3 PUSH11 0xC685FA11E01EC6EFFFFFF NOT DUP2 ADD DUP2 DUP2 GT PUSH3 0x4A4 JUMPI DUP1 PUSH3 0x491 JUMPI JUMPDEST POP DUP3 SUB SWAP2 DUP3 GT PUSH3 0x47C JUMPI POP SWAP3 DUP7 PUSH1 0x0 PUSH32 0xE9BC91A33DDF896D889747B2F39F4192C802FD62364780086853FCD8E19E8FFA PUSH1 0x60 DUP16 SWAP7 DUP4 DUP14 SWAP13 SWAP12 SWAP11 SWAP9 DUP2 PUSH1 0xE SWAP16 PUSH3 0x1F3 SWAP11 PUSH3 0x1F9 SWAP14 SWAP11 PUSH3 0x45E JUMPI JUMPDEST POP DUP3 MLOAD SWAP5 DUP6 MSTORE DUP5 ADD MSTORE DUP3 ADD MSTORE LOG3 SWAP3 DUP3 SWAP5 SWAP6 SWAP7 SWAP8 PUSH3 0x354 JUMP JUMPDEST PUSH3 0x475 SWAP1 DUP11 DUP5 MSTORE PUSH1 0x9 DUP4 MSTORE TIMESTAMP AND DUP5 DUP5 KECCAK256 PUSH3 0x855 JUMP JUMPDEST CODESIZE PUSH3 0x445 JUMP JUMPDEST PUSH1 0x11 SWAP1 PUSH4 0x4E487B71 PUSH1 0xE0 SHL PUSH1 0x0 MSTORE MSTORE PUSH1 0x24 PUSH1 0x0 REVERT JUMPDEST PUSH3 0x49D SWAP1 ADDRESS PUSH3 0x878 JUMP JUMPDEST CODESIZE PUSH3 0x3F5 JUMP JUMPDEST PUSH1 0x11 DUP4 PUSH4 0x4E487B71 PUSH1 0xE0 SHL PUSH1 0x0 MSTORE MSTORE PUSH1 0x24 PUSH1 0x0 REVERT JUMPDEST PUSH1 0x11 DUP5 PUSH4 0x4E487B71 PUSH1 0xE0 SHL PUSH1 0x0 MSTORE MSTORE PUSH1 0x24 PUSH1 0x0 REVERT JUMPDEST POP PUSH3 0x4D9 PUSH3 0xC15 JUMP JUMPDEST PUSH3 0x36B JUMP JUMPDEST POP DUP1 PUSH3 0x34E JUMP JUMPDEST POP DUP8 PUSH1 0x0 MSTORE PUSH1 0xE DUP10 MSTORE DUP7 DUP14 PUSH1 0x0 KECCAK256 SLOAD AND ISZERO PUSH3 0x1D3 JUMP JUMPDEST POP PUSH1 0x0 DUP1 MSTORE PUSH1 0xE DUP10 MSTORE DUP7 DUP14 PUSH1 0x0 KECCAK256 SLOAD AND ISZERO PUSH3 0x1CC JUMP JUMPDEST POP DUP7 PUSH1 0x8 SLOAD AND ISZERO PUSH3 0x1C5 JUMP JUMPDEST DUP9 MLOAD PUSH4 0xEC442F05 PUSH1 0xE0 SHL DUP2 MSTORE PUSH1 0x0 DUP2 DUP6 ADD MSTORE PUSH1 0x24 SWAP1 REVERT JUMPDEST ADD MLOAD SWAP2 POP CODESIZE DUP1 PUSH3 0x138 JUMP JUMPDEST SWAP2 SWAP1 DUP10 SWAP5 POP PUSH1 0x1F NOT DUP5 AND SWAP3 DUP7 PUSH1 0x0 MSTORE DUP9 PUSH1 0x0 KECCAK256 SWAP4 PUSH1 0x0 JUMPDEST DUP11 DUP3 DUP3 LT PUSH3 0x599 JUMPI POP POP DUP6 GT PUSH3 0x57E JUMPI JUMPDEST POP POP POP POP DUP2 SHL ADD DUP2 SSTORE PUSH3 0x14A JUMP JUMPDEST ADD MLOAD SWAP1 PUSH1 0xF8 DUP5 PUSH1 0x0 NOT SWAP3 SHL AND SHR NOT AND SWAP1 SSTORE CODESIZE DUP1 DUP1 DUP1 PUSH3 0x56F JUMP JUMPDEST DUP4 DUP6 ADD MLOAD DUP8 SSTORE DUP14 SWAP9 SWAP1 SWAP7 ADD SWAP6 SWAP4 DUP5 ADD SWAP4 ADD PUSH3 0x55C JUMP JUMPDEST SWAP1 SWAP2 SWAP3 SWAP4 POP DUP6 PUSH1 0x0 MSTORE DUP8 PUSH1 0x0 KECCAK256 DUP4 DUP1 DUP8 ADD PUSH1 0x5 SHR DUP3 ADD SWAP3 DUP11 DUP9 LT PUSH3 0x600 JUMPI JUMPDEST SWAP2 DUP13 SWAP2 DUP9 SWAP8 SWAP7 SWAP6 SWAP5 SWAP4 ADD PUSH1 0x5 SHR ADD SWAP2 JUMPDEST DUP3 DUP2 LT PUSH3 0x5F0 JUMPI POP POP PUSH3 0x122 JUMP JUMPDEST PUSH1 0x0 DUP2 SSTORE DUP8 SWAP7 POP DUP13 SWAP2 ADD PUSH3 0x5E0 JUMP JUMPDEST SWAP3 POP DUP2 SWAP3 PUSH3 0x5D0 JUMP JUMPDEST PUSH1 0x22 DUP7 PUSH4 0x4E487B71 PUSH1 0xE0 SHL PUSH1 0x0 MSTORE MSTORE PUSH1 0x24 PUSH1 0x0 REVERT JUMPDEST SWAP1 PUSH1 0x7F AND SWAP1 PUSH3 0x10B JUMP JUMPDEST PUSH4 0x4E487B71 PUSH1 0xE0 SHL PUSH1 0x0 MSTORE PUSH1 0x41 PUSH1 0x4 MSTORE PUSH1 0x24 PUSH1 0x0 REVERT JUMPDEST ADD MLOAD SWAP1 POP CODESIZE DUP1 PUSH3 0xDB JUMP JUMPDEST SWAP1 DUP11 SWAP4 POP PUSH1 0x1F NOT DUP4 AND SWAP2 DUP6 PUSH1 0x0 MSTORE DUP10 PUSH1 0x0 KECCAK256 SWAP3 PUSH1 0x0 JUMPDEST DUP12 DUP3 DUP3 LT PUSH3 0x69C JUMPI POP POP DUP5 GT PUSH3 0x683 JUMPI JUMPDEST POP POP POP DUP2 SHL ADD DUP2 SSTORE PUSH3 0xED JUMP JUMPDEST ADD MLOAD PUSH1 0x0 NOT DUP4 DUP7 SHL PUSH1 0xF8 AND SHR NOT AND SWAP1 SSTORE CODESIZE DUP1 DUP1 PUSH3 0x675 JUMP JUMPDEST DUP4 DUP6 ADD MLOAD DUP7 SSTORE DUP15 SWAP8 SWAP1 SWAP6 ADD SWAP5 SWAP4 DUP5 ADD SWAP4 ADD PUSH3 0x662 JUMP JUMPDEST SWAP1 SWAP2 POP DUP4 PUSH1 0x0 MSTORE DUP8 PUSH1 0x0 KECCAK256 DUP6 DUP1 DUP6 ADD PUSH1 0x5 SHR DUP3 ADD SWAP3 DUP11 DUP7 LT PUSH3 0x6FF JUMPI JUMPDEST SWAP2 DUP13 SWAP2 DUP7 SWAP6 SWAP5 SWAP4 ADD PUSH1 0x5 SHR ADD SWAP2 JUMPDEST DUP3 DUP2 LT PUSH3 0x6EF JUMPI POP POP PUSH3 0xC4 JUMP JUMPDEST PUSH1 0x0 DUP2 SSTORE DUP6 SWAP5 POP DUP13 SWAP2 ADD PUSH3 0x6DF JUMP JUMPDEST SWAP3 POP DUP2 SWAP3 PUSH3 0x6D1 JUMP JUMPDEST PUSH4 0x4E487B71 PUSH1 0xE0 SHL PUSH1 0x0 MSTORE PUSH1 0x22 PUSH1 0x4 MSTORE PUSH1 0x24 PUSH1 0x0 REVERT JUMPDEST SWAP4 PUSH1 0x7F AND SWAP4 PUSH3 0xAD JUMP JUMPDEST PUSH1 0x0 DUP1 REVERT JUMPDEST PUSH1 0x1F SWAP1 SWAP2 ADD PUSH1 0x1F NOT AND DUP2 ADD SWAP1 PUSH1 0x1 PUSH1 0x1 PUSH1 0x40 SHL SUB DUP3 GT SWAP1 DUP3 LT OR PUSH3 0x62A JUMPI PUSH1 0x40 MSTORE JUMP JUMPDEST PUSH1 0x1 PUSH1 0x1 PUSH1 0x40 SHL SUB DUP2 GT PUSH3 0x62A JUMPI PUSH1 0x1F ADD PUSH1 0x1F NOT AND PUSH1 0x20 ADD SWAP1 JUMP JUMPDEST SWAP2 SWAP1 DUP1 PUSH1 0x1F DUP5 ADD SLT ISZERO PUSH3 0x72A JUMPI DUP3 MLOAD SWAP1 PUSH3 0x78B DUP3 PUSH3 0x753 JUMP JUMPDEST SWAP2 PUSH3 0x79B PUSH1 0x40 MLOAD SWAP4 DUP5 PUSH3 0x72F JUMP JUMPDEST DUP1 DUP4 MSTORE PUSH1 0x20 SWAP2 DUP3 DUP3 DUP8 ADD ADD GT PUSH3 0x72A JUMPI PUSH1 0x0 JUMPDEST DUP2 DUP2 LT PUSH3 0x7C5 JUMPI POP DUP3 PUSH1 0x0 SWAP4 SWAP5 SWAP6 POP ADD ADD MSTORE SWAP1 JUMP JUMPDEST DUP6 DUP2 ADD DUP4 ADD MLOAD DUP5 DUP3 ADD DUP5 ADD MSTORE DUP3 ADD PUSH3 0x7AF JUMP JUMPDEST MLOAD SWAP1 PUSH1 0x1 PUSH1 0x1 PUSH1 0xA0 SHL SUB DUP3 AND DUP3 SUB PUSH3 0x72A JUMPI JUMP JUMPDEST SWAP2 SWAP1 DUP3 ADD DUP1 SWAP3 GT PUSH3 0x7FC JUMPI JUMP JUMPDEST PUSH4 0x4E487B71 PUSH1 0xE0 SHL PUSH1 0x0 MSTORE PUSH1 0x11 PUSH1 0x4 MSTORE PUSH1 0x24 PUSH1 0x0 REVERT JUMPDEST DUP2 DUP2 MUL SWAP3 SWAP2 DUP2 ISZERO SWAP2 DUP5 DIV EQ OR ISZERO PUSH3 0x7FC JUMPI JUMP JUMPDEST DUP2 ISZERO PUSH3 0x831 JUMPI DIV SWAP1 JUMP JUMPDEST PUSH4 0x4E487B71 PUSH1 0xE0 SHL PUSH1 0x0 MSTORE PUSH1 0x12 PUSH1 0x4 MSTORE PUSH1 0x24 PUSH1 0x0 REVERT JUMPDEST SWAP2 SWAP1 DUP3 SUB SWAP2 DUP3 GT PUSH3 0x7FC JUMPI JUMP JUMPDEST DUP1 SLOAD PUSH1 0x1 PUSH1 0x1 PUSH1 0xC0 SHL SUB AND PUSH1 0xC0 SWAP3 SWAP1 SWAP3 SHL PUSH1 0x1 PUSH1 0x1 PUSH1 0xC0 SHL SUB NOT AND SWAP2 SWAP1 SWAP2 OR SWAP1 SSTORE JUMP JUMPDEST PUSH1 0x0 DUP1 MLOAD PUSH1 0x20 PUSH3 0x3342 DUP4 CODECOPY DUP2 MLOAD SWAP2 MSTORE PUSH1 0x20 PUSH1 0x0 SWAP3 PUSH3 0x89B DUP6 PUSH1 0x2 SLOAD PUSH3 0x7EE JUMP JUMPDEST PUSH1 0x2 SSTORE PUSH1 0x1 PUSH1 0x1 PUSH1 0xA0 SHL SUB AND SWAP4 DUP5 ISZERO DUP5 EQ PUSH3 0x8C3 JUMPI DUP1 PUSH1 0x2 SLOAD SUB PUSH1 0x2 SSTORE JUMPDEST PUSH1 0x40 MLOAD SWAP1 DUP2 MSTORE LOG3 JUMP JUMPDEST DUP5 DUP5 MSTORE DUP4 DUP3 MSTORE PUSH1 0x40 DUP5 KECCAK256 DUP2 DUP2 SLOAD ADD SWAP1 SSTORE PUSH3 0x8BA JUMP JUMPDEST DUP1 SLOAD PUSH1 0x1 PUSH1 0x80 SHL PUSH1 0x1 PUSH1 0xC0 SHL SUB NOT AND PUSH1 0x80 SWAP3 SWAP1 SWAP3 SHL PUSH1 0x1 PUSH1 0x80 SHL PUSH1 0x1 PUSH1 0xC0 SHL SUB AND SWAP2 SWAP1 SWAP2 OR SWAP1 SSTORE JUMP JUMPDEST PUSH3 0x90D DUP2 PUSH3 0x9EB JUMP JUMPDEST ISZERO PUSH3 0x9E8 JUMPI PUSH1 0x1 PUSH1 0x1 PUSH1 0xA0 SHL SUB AND PUSH1 0x0 SWAP1 DUP2 MSTORE PUSH1 0x9 PUSH1 0x20 MSTORE PUSH1 0x40 SWAP1 KECCAK256 DUP1 SLOAD PUSH3 0x9AC SWAP2 SWAP1 PUSH1 0x1 PUSH1 0x1 PUSH1 0x40 SHL SUB SWAP1 PUSH3 0x976 PUSH3 0x951 PUSH1 0x80 DUP4 SWAP1 SHR DUP5 AND TIMESTAMP PUSH3 0x847 JUMP JUMPDEST PUSH1 0x1 DUP6 ADD DUP1 SLOAD SWAP1 SWAP4 SWAP1 SWAP2 PUSH3 0x96F SWAP2 PUSH1 0x1 PUSH1 0x1 PUSH1 0x80 SHL SUB AND PUSH3 0x812 JUMP JUMPDEST SWAP1 PUSH3 0x7EE JUMP JUMPDEST SWAP1 PUSH1 0xD SLOAD PUSH3 0x98C PUSH1 0x2 DUP7 ADD SWAP2 DUP3 SLOAD SWAP1 PUSH3 0x847 JUMP JUMPDEST DUP1 ISZERO ISZERO DUP1 PUSH3 0x9DE JUMPI JUMPDEST PUSH3 0x9AE JUMPI JUMPDEST POP PUSH1 0xD SLOAD SWAP1 SSTORE SSTORE TIMESTAMP AND SWAP1 PUSH3 0x8D9 JUMP JUMPDEST JUMP JUMPDEST PUSH3 0x9C3 PUSH8 0xDE0B6B3A7640000 SWAP2 DUP6 PUSH3 0x812 JUMP JUMPDEST DIV PUSH3 0x9D5 PUSH1 0x3 DUP8 ADD SWAP2 DUP3 SLOAD PUSH3 0x7EE JUMP JUMPDEST SWAP1 SSTORE CODESIZE PUSH3 0x99C JUMP JUMPDEST POP DUP4 ISZERO ISZERO PUSH3 0x996 JUMP JUMPDEST POP JUMP JUMPDEST PUSH1 0x1 PUSH1 0x1 PUSH1 0xA0 SHL SUB AND DUP1 ISZERO ISZERO SWAP1 DUP2 PUSH3 0xA02 JUMPI POP SWAP1 JUMP JUMPDEST SWAP1 POP PUSH1 0x0 MSTORE PUSH1 0xE PUSH1 0x20 MSTORE PUSH1 0xFF PUSH1 0x40 PUSH1 0x0 KECCAK256 SLOAD AND ISZERO SWAP1 JUMP JUMPDEST PUSH3 0xA24 DUP2 PUSH3 0x9EB JUMP JUMPDEST ISZERO PUSH3 0x9E8 JUMPI PUSH1 0x1 PUSH1 0x1 PUSH1 0xA0 SHL SUB SWAP1 DUP2 AND PUSH1 0x0 DUP2 DUP2 MSTORE PUSH1 0x9 PUSH1 0x20 MSTORE PUSH1 0x40 DUP2 KECCAK256 SWAP3 SWAP2 PUSH3 0xA4F PUSH3 0xBBF JUMP JUMPDEST DUP2 MSTORE PUSH1 0x20 DUP2 SWAP1 MSTORE PUSH1 0x40 DUP2 KECCAK256 SLOAD DUP4 SLOAD PUSH1 0x1 PUSH1 0x1 PUSH1 0x80 SHL SUB SWAP1 DUP2 AND DUP1 DUP4 LT SWAP4 SWAP2 SWAP3 SWAP2 SWAP1 DUP5 DUP1 PUSH3 0xBB5 JUMPI JUMPDEST PUSH3 0xB5D JUMPI JUMPDEST DUP3 DUP2 DUP2 GT SWAP6 DUP7 PUSH1 0x0 EQ PUSH3 0xB18 JUMPI POP PUSH3 0xAA8 SWAP3 POP SWAP1 PUSH3 0xA9F SWAP2 PUSH3 0x847 JUMP JUMPDEST PUSH1 0xC SLOAD PUSH3 0x7EE JUMP JUMPDEST PUSH1 0xC SSTORE JUMPDEST DUP5 SLOAD PUSH1 0x1 PUSH1 0x1 PUSH1 0x80 SHL SUB NOT AND SWAP2 AND OR DUP4 SSTORE TIMESTAMP PUSH1 0x1 PUSH1 0x1 PUSH1 0x40 SHL SUB AND SWAP2 PUSH3 0xAD4 DUP4 DUP6 PUSH3 0x8D9 JUMP JUMPDEST PUSH1 0xFF PUSH1 0x5 SLOAD AND ISZERO SWAP2 DUP3 PUSH3 0xB0F JUMPI JUMPDEST POP DUP2 PUSH3 0xB00 JUMPI JUMPDEST POP PUSH3 0xAF5 JUMPI POP POP JUMP JUMPDEST PUSH3 0x9AC SWAP2 PUSH3 0x855 JUMP JUMPDEST SWAP1 POP PUSH1 0xA0 MLOAD AND CALLER EQ CODESIZE PUSH3 0xAEB JUMP JUMPDEST SWAP2 POP CODESIZE PUSH3 0xAE3 JUMP JUMPDEST PUSH3 0xB27 JUMPI JUMPDEST POP POP POP PUSH3 0xAAC JUMP JUMPDEST PUSH3 0xB32 SWAP2 PUSH3 0x847 JUMP JUMPDEST PUSH1 0xC SLOAD DUP2 DUP2 LT PUSH3 0xB55 JUMPI PUSH3 0xB49 SWAP3 POP PUSH3 0x847 JUMP JUMPDEST PUSH1 0xC SSTORE CODESIZE DUP1 DUP3 PUSH3 0xB1E JUMP JUMPDEST POP POP PUSH3 0xB49 JUMP JUMPDEST PUSH1 0x1 DUP8 ADD DUP1 SLOAD SWAP1 PUSH3 0xB87 PUSH3 0xB7F DUP5 PUSH3 0xB79 DUP9 DUP7 PUSH3 0x812 JUMP JUMPDEST PUSH3 0x826 JUMP JUMPDEST DUP1 SWAP4 PUSH3 0x847 JUMP JUMPDEST PUSH1 0xA SLOAD DUP2 GT PUSH3 0xBAA JUMPI PUSH3 0xB9F SWAP1 PUSH1 0xA SLOAD PUSH3 0x847 JUMP JUMPDEST PUSH1 0xA SSTORE JUMPDEST SSTORE PUSH3 0xA7E JUMP JUMPDEST POP DUP4 PUSH1 0xA SSTORE PUSH3 0xBA3 JUMP JUMPDEST POP DUP1 ISZERO ISZERO PUSH3 0xA78 JUMP JUMPDEST PUSH3 0xBCD PUSH1 0xB SLOAD TIMESTAMP PUSH3 0x847 JUMP JUMPDEST DUP1 ISZERO ISZERO DUP1 PUSH3 0xC09 JUMPI JUMPDEST PUSH3 0xBE4 JUMPI JUMPDEST POP TIMESTAMP PUSH1 0xB SSTORE JUMP JUMPDEST PUSH3 0xBF6 PUSH3 0xBFF SWAP2 PUSH1 0xC SLOAD PUSH3 0x812 JUMP JUMPDEST PUSH1 0xA SLOAD PUSH3 0x7EE JUMP JUMPDEST PUSH1 0xA SSTORE CODESIZE PUSH3 0xBDD JUMP JUMPDEST POP PUSH1 0xC SLOAD ISZERO ISZERO PUSH3 0xBD7 JUMP JUMPDEST PUSH1 0x0 DUP1 MSTORE PUSH1 0x9 PUSH1 0x20 MSTORE PUSH32 0xEC8156718A8372B1DB44BB411437D0870F3E3790D4A08526D024CE1B0B668F6B SLOAD PUSH1 0xC0 SHR DUP1 ISZERO PUSH3 0xC8D JUMPI PUSH3 0xC56 SWAP1 TIMESTAMP PUSH3 0x847 JUMP JUMPDEST PUSH2 0x12C DUP2 LT PUSH3 0xC86 JUMPI PUSH2 0xE10 DUP2 LT PUSH3 0xC7F JUMPI PUSH3 0x15180 GT PUSH3 0xC79 JUMPI PUSH1 0x0 SWAP1 JUMP JUMPDEST PUSH2 0x1F4 SWAP1 JUMP JUMPDEST POP PUSH2 0x3E8 SWAP1 JUMP JUMPDEST POP PUSH2 0x7D0 SWAP1 JUMP JUMPDEST POP PUSH1 0x0 SWAP1 JUMP JUMPDEST PUSH1 0x0 SWAP1 PUSH1 0xFF NOT DUP1 PUSH1 0x8 SLOAD AND SWAP3 PUSH1 0x1 SWAP1 DUP2 DUP6 OR PUSH1 0x8 SSTORE ADDRESS DUP2 MSTORE PUSH1 0x20 DUP2 DUP2 MSTORE PUSH1 0x40 SWAP2 DUP3 DUP2 KECCAK256 SLOAD SWAP7 DUP8 ISZERO PUSH3 0x1007 JUMPI POP DUP3 MLOAD SWAP4 PUSH1 0x1 PUSH1 0x1 PUSH1 0x40 SHL SUB PUSH1 0x60 DUP7 ADD DUP2 DUP2 GT DUP8 DUP3 LT OR PUSH3 0xFF3 JUMPI DUP6 MSTORE PUSH1 0x2 DUP7 MSTORE DUP4 DUP7 ADD SWAP9 DUP6 CALLDATASIZE DUP12 CALLDATACOPY DUP7 MLOAD ISZERO PUSH3 0xFDF JUMPI ADDRESS DUP11 MSTORE PUSH1 0x6 SLOAD DUP7 MLOAD PUSH4 0x15AB88C9 PUSH1 0xE3 SHL DUP2 MSTORE PUSH1 0x4 SWAP12 PUSH1 0x1 PUSH1 0x1 PUSH1 0xA0 SHL SUB SWAP10 SWAP3 SWAP1 SWAP2 SWAP1 DUP11 AND SWAP1 DUP9 DUP2 DUP16 DUP2 DUP6 GAS STATICCALL SWAP1 DUP2 ISZERO PUSH3 0xFD5 JUMPI DUP9 SWAP2 PUSH3 0xF98 JUMPI JUMPDEST POP DUP4 MLOAD DUP8 LT ISZERO PUSH3 0xF84 JUMPI DUP11 AND DUP10 DUP5 ADD MSTORE ADDRESS ISZERO PUSH3 0xF6D JUMPI DUP1 ISZERO PUSH3 0xF56 JUMPI ADDRESS DUP8 MSTORE DUP6 DUP9 MSTORE DUP9 DUP8 KECCAK256 DUP2 DUP9 MSTORE DUP9 MSTORE DUP4 DUP10 DUP9 KECCAK256 SSTORE DUP9 MLOAD DUP5 DUP2 MSTORE PUSH32 0x8C5BE1E5EBEC7D5BD14F71427D1E84F3DD0314C0F7B2291E5B200AC8C7C3B925 DUP10 ADDRESS SWAP3 LOG3 SELFBALANCE SWAP5 DUP10 PUSH1 0x6 SLOAD AND SWAP3 DUP4 EXTCODESIZE ISZERO PUSH3 0xF52 JUMPI DUP10 MLOAD PUSH4 0x791AC947 PUSH1 0xE0 SHL DUP2 MSTORE DUP1 DUP16 ADD SWAP6 SWAP1 SWAP6 MSTORE PUSH1 0x24 DUP6 ADD DUP9 SWAP1 MSTORE PUSH1 0xA0 PUSH1 0x44 DUP7 ADD MSTORE MLOAD PUSH1 0xA4 DUP6 ADD DUP2 SWAP1 MSTORE DUP8 SWAP4 DUP6 SWAP4 SWAP1 SWAP3 PUSH1 0xC4 DUP6 ADD SWAP3 DUP7 DUP13 DUP16 JUMPDEST DUP4 DUP4 LT PUSH3 0xF35 JUMPI POP POP POP POP POP POP DUP4 DUP4 DUP1 SWAP3 ADDRESS PUSH1 0x64 DUP4 ADD MSTORE TIMESTAMP PUSH1 0x84 DUP4 ADD MSTORE SUB SWAP3 GAS CALL SWAP2 DUP3 PUSH3 0xF0D JUMPI JUMPDEST POP POP PUSH3 0xE14 JUMPI JUMPDEST POP POP POP POP POP SWAP1 SWAP2 POP PUSH1 0x8 SLOAD AND PUSH1 0x8 SSTORE JUMP JUMPDEST PUSH3 0xE20 SWAP1 SELFBALANCE PUSH3 0x847 JUMP JUMPDEST SWAP1 DUP2 ISZERO DUP1 ISZERO PUSH3 0xE32 JUMPI JUMPDEST POP PUSH3 0xE03 JUMP JUMPDEST PUSH1 0x3 DUP4 MUL SWAP1 DUP4 DUP3 DIV PUSH1 0x3 EQ OR ISZERO PUSH3 0xEFA JUMPI PUSH3 0xE6F SWAP7 SWAP8 SWAP9 POP PUSH1 0x7 PUSH3 0xE5C SWAP2 DIV DUP1 SWAP4 PUSH3 0x847 JUMP JUMPDEST SWAP5 DUP3 PUSH3 0xE7D JUMPI JUMPDEST POP POP POP POP POP PUSH3 0x1014 JUMP JUMPDEST DUP2 SWAP1 CODESIZE DUP1 DUP1 DUP1 DUP1 DUP1 PUSH3 0xE2B JUMP JUMPDEST DUP2 DUP1 DUP1 DUP6 DUP2 SWAP5 PUSH1 0x80 MLOAD AND GAS CALL SWAP1 RETURNDATASIZE ISZERO PUSH3 0xEF3 JUMPI RETURNDATASIZE SWAP1 PUSH3 0xE9E DUP3 PUSH3 0x753 JUMP JUMPDEST SWAP2 PUSH3 0xEAD DUP8 MLOAD SWAP4 DUP5 PUSH3 0x72F JUMP JUMPDEST DUP3 MSTORE DUP5 RETURNDATASIZE SWAP3 ADD RETURNDATACOPY JUMPDEST PUSH3 0xEC3 JUMPI JUMPDEST DUP1 DUP1 PUSH3 0xE64 JUMP JUMPDEST PUSH32 0x693F9DBEA0BDF9B70D480F9527E567D17AE3A41A5627C6515B034AC1869CF7A0 SWAP3 MLOAD SWAP1 DUP2 MSTORE LOG1 CODESIZE DUP1 DUP1 PUSH3 0xEBB JUMP JUMPDEST POP PUSH3 0xEB5 JUMP JUMPDEST PUSH4 0x4E487B71 PUSH1 0xE0 SHL DUP3 MSTORE PUSH1 0x11 DUP10 MSTORE PUSH1 0x24 DUP3 REVERT JUMPDEST DUP2 SWAP5 SWAP3 SWAP5 GT PUSH3 0xF22 JUMPI DUP6 MSTORE SWAP2 CODESIZE DUP1 PUSH3 0xDFB JUMP JUMPDEST PUSH4 0x4E487B71 PUSH1 0xE0 SHL DUP3 MSTORE PUSH1 0x41 DUP11 MSTORE PUSH1 0x24 DUP3 REVERT JUMPDEST DUP6 MLOAD AND DUP7 MSTORE DUP13 SWAP9 POP DUP10 SWAP8 POP SWAP5 DUP6 ADD SWAP5 SWAP1 SWAP4 ADD SWAP3 DUP3 ADD DUP13 DUP16 PUSH3 0xDD1 JUMP JUMPDEST DUP8 DUP1 REVERT JUMPDEST DUP9 MLOAD PUSH4 0x4A1406B1 PUSH1 0xE1 SHL DUP2 MSTORE DUP1 DUP15 ADD DUP9 SWAP1 MSTORE PUSH1 0x24 SWAP1 REVERT JUMPDEST DUP9 MLOAD PUSH4 0xE602DF05 PUSH1 0xE0 SHL DUP2 MSTORE DUP1 DUP15 ADD DUP9 SWAP1 MSTORE PUSH1 0x24 SWAP1 REVERT JUMPDEST POP PUSH4 0x4E487B71 PUSH1 0xE0 SHL DUP8 MSTORE PUSH1 0x32 DUP14 MSTORE PUSH1 0x24 DUP8 REVERT JUMPDEST SWAP1 POP DUP9 DUP2 DUP2 RETURNDATASIZE DUP4 GT PUSH3 0xFCD JUMPI JUMPDEST PUSH3 0xFB2 DUP2 DUP4 PUSH3 0x72F JUMP JUMPDEST DUP2 ADD SUB SLT PUSH3 0xF52 JUMPI PUSH3 0xFC6 SWAP1 PUSH3 0x7D9 JUMP JUMPDEST CODESIZE PUSH3 0xD2D JUMP JUMPDEST POP RETURNDATASIZE PUSH3 0xFA6 JUMP JUMPDEST DUP11 MLOAD RETURNDATASIZE DUP11 DUP3 RETURNDATACOPY RETURNDATASIZE SWAP1 REVERT JUMPDEST PUSH4 0x4E487B71 PUSH1 0xE0 SHL DUP5 MSTORE PUSH1 0x32 PUSH1 0x4 MSTORE PUSH1 0x24 DUP5 REVERT JUMPDEST PUSH4 0x4E487B71 PUSH1 0xE0 SHL DUP5 MSTORE PUSH1 0x41 PUSH1 0x4 MSTORE PUSH1 0x24 DUP5 REVERT JUMPDEST SWAP6 SWAP7 POP POP POP POP POP POP PUSH1 0x8 SSTORE JUMP JUMPDEST DUP1 ISZERO PUSH3 0x9E8 JUMPI PUSH3 0x1025 PUSH3 0xBBF JUMP JUMPDEST PUSH1 0xA SLOAD SWAP1 DUP2 ISZERO PUSH3 0x108B JUMPI PUSH8 0xDE0B6B3A7640000 DUP2 MUL SWAP1 PUSH8 0xDE0B6B3A763FFFF NOT DUP2 DUP4 DIV ADD PUSH3 0x7FC JUMPI PUSH3 0x107A PUSH3 0x1071 PUSH1 0x0 DUP1 MLOAD PUSH1 0x20 PUSH3 0x3322 DUP4 CODECOPY DUP2 MLOAD SWAP2 MSTORE SWAP5 PUSH1 0x40 SWAP5 PUSH3 0x826 JUMP JUMPDEST PUSH1 0xD SLOAD PUSH3 0x7EE JUMP JUMPDEST DUP1 PUSH1 0xD SSTORE DUP3 MLOAD SWAP2 DUP3 MSTORE PUSH1 0x20 DUP3 ADD MSTORE LOG1 JUMP JUMPDEST PUSH1 0x0 DUP1 MLOAD PUSH1 0x20 PUSH3 0x3322 DUP4 CODECOPY DUP2 MLOAD SWAP2 MSTORE SWAP2 POP PUSH1 0x40 SWAP1 PUSH1 0xD SLOAD DUP3 MLOAD SWAP2 DUP3 MSTORE PUSH1 0x20 DUP3 ADD MSTORE LOG1 JUMP INVALID PUSH1 0x80 PUSH1 0x40 DUP2 DUP2 MSTORE PUSH1 0x4 SWAP2 DUP3 CALLDATASIZE LT ISZERO PUSH2 0x22 JUMPI JUMPDEST POP POP POP CALLDATASIZE ISZERO PUSH2 0x20 JUMPI PUSH1 0x0 DUP1 REVERT JUMPDEST STOP JUMPDEST PUSH1 0x0 SWAP3 DUP4 CALLDATALOAD PUSH1 0xE0 SHR SWAP2 DUP3 PUSH4 0x3FD2A45 EQ PUSH2 0x110E JUMPI POP DUP2 PUSH4 0x445B667 EQ PUSH2 0x10EF JUMPI DUP2 PUSH4 0x6FDDE03 EQ PUSH2 0x1018 JUMPI DUP2 PUSH4 0x7C9BF2E EQ PUSH2 0xFDF JUMPI DUP2 PUSH4 0x95EA7B3 EQ PUSH2 0xFB5 JUMPI DUP2 PUSH4 0x18160DDD EQ PUSH2 0xF96 JUMPI DUP2 PUSH4 0x1E4C7292 EQ PUSH2 0xF70 JUMPI DUP2 PUSH4 0x23B872DD EQ PUSH2 0xE86 JUMPI DUP2 PUSH4 0x2836BE24 EQ PUSH2 0xE09 JUMPI DUP2 PUSH4 0x313CE567 EQ PUSH2 0xDED JUMPI DUP2 PUSH4 0x31D7A262 EQ PUSH2 0xDC7 JUMPI DUP2 PUSH4 0x47B12BFC EQ PUSH2 0xDAB JUMPI DUP2 PUSH4 0x4E71D92D EQ PUSH2 0xC83 JUMPI DUP2 PUSH4 0x5B090044 EQ PUSH2 0x99C JUMPI DUP2 PUSH4 0x64229D68 EQ PUSH2 0x97D JUMPI DUP2 PUSH4 0x70A08231 EQ PUSH2 0x946 JUMPI DUP2 PUSH4 0x7165485D EQ PUSH2 0x902 JUMPI DUP2 PUSH4 0x735DE9F7 EQ PUSH2 0x8D9 JUMPI DUP2 PUSH4 0x902D55A5 EQ PUSH2 0x8B3 JUMPI DUP2 PUSH4 0x95D89B41 EQ PUSH2 0x7CD JUMPI DUP2 PUSH4 0x98AECB67 EQ PUSH2 0x7A7 JUMPI DUP2 PUSH4 0x9D0014B1 EQ PUSH2 0x71C JUMPI DUP2 PUSH4 0x9D6EADC1 EQ PUSH2 0x6FD JUMPI DUP2 PUSH4 0xA37A9FC0 EQ PUSH2 0x2F3 JUMPI DUP2 PUSH4 0xA47541BA EQ PUSH2 0x6AE JUMPI DUP2 PUSH4 0xA8355C8F EQ PUSH2 0x586 JUMPI DUP2 PUSH4 0xA9059CBB EQ PUSH2 0x67D JUMPI DUP2 PUSH4 0xB78D0538 EQ PUSH2 0x5A3 JUMPI DUP2 PUSH4 0xBACF2A7B EQ PUSH2 0x586 JUMPI DUP2 PUSH4 0xBB103CBC EQ PUSH2 0x569 JUMPI DUP2 PUSH4 0xC1DB4015 EQ PUSH2 0x54A JUMPI DUP2 PUSH4 0xC45A0155 EQ PUSH2 0x506 JUMPI DUP2 PUSH4 0xC463ECD7 EQ PUSH2 0x4E9 JUMPI DUP2 PUSH4 0xC5F27B30 EQ PUSH2 0x4CA JUMPI DUP2 PUSH4 0xC5F509D6 EQ PUSH2 0x4A4 JUMPI DUP2 PUSH4 0xC7B12801 EQ PUSH2 0x38D JUMPI POP DUP1 PUSH4 0xC816841B EQ PUSH2 0x361 JUMPI DUP1 PUSH4 0xCA81EB66 EQ PUSH2 0x335 JUMPI DUP1 PUSH4 0xCBA0E996 EQ PUSH2 0x2F8 JUMPI DUP1 PUSH4 0xCE91E164 EQ PUSH2 0x2F3 JUMPI DUP1 PUSH4 0xDBB51D6E EQ PUSH2 0x279 JUMPI DUP1 PUSH4 0xDD62ED3E EQ PUSH2 0x231 JUMPI PUSH4 0xE7C2B772 EQ PUSH2 0x20B JUMPI DUP1 PUSH2 0x12 JUMP JUMPDEST CALLVALUE PUSH2 0x22D JUMPI DUP2 PUSH1 0x3 NOT CALLDATASIZE ADD SLT PUSH2 0x22D JUMPI PUSH1 0x20 SWAP1 PUSH1 0xFF PUSH1 0x5 SLOAD AND SWAP1 MLOAD SWAP1 ISZERO ISZERO DUP2 MSTORE RETURN JUMPDEST POP DUP1 REVERT JUMPDEST POP CALLVALUE PUSH2 0x22D JUMPI DUP1 PUSH1 0x3 NOT CALLDATASIZE ADD SLT PUSH2 0x22D JUMPI DUP1 PUSH1 0x20 SWAP3 PUSH2 0x24E PUSH2 0x1173 JUMP JUMPDEST PUSH2 0x256 PUSH2 0x118E JUMP JUMPDEST PUSH1 0x1 PUSH1 0x1 PUSH1 0xA0 SHL SUB SWAP2 DUP3 AND DUP4 MSTORE PUSH1 0x1 DUP7 MSTORE DUP4 DUP4 KECCAK256 SWAP2 AND DUP3 MSTORE DUP5 MSTORE KECCAK256 SLOAD SWAP1 MLOAD SWAP1 DUP2 MSTORE RETURN JUMPDEST POP CALLVALUE PUSH2 0x22D JUMPI PUSH1 0x20 CALLDATASIZE PUSH1 0x3 NOT ADD SLT PUSH2 0x22D JUMPI PUSH1 0xC0 SWAP2 DUP2 SWAP1 PUSH1 0x1 PUSH1 0x1 PUSH1 0xA0 SHL SUB PUSH2 0x2A0 PUSH2 0x1173 JUMP JUMPDEST AND DUP2 MSTORE PUSH1 0x9 PUSH1 0x20 MSTORE KECCAK256 SWAP1 DUP2 SLOAD SWAP2 PUSH1 0x1 DUP2 ADD SLOAD PUSH1 0x3 PUSH1 0x2 DUP4 ADD SLOAD SWAP3 ADD SLOAD SWAP3 DUP1 MLOAD SWAP5 PUSH1 0x1 DUP1 PUSH1 0x80 SHL SUB DUP2 AND DUP7 MSTORE PUSH1 0x1 DUP1 PUSH1 0x40 SHL SUB DUP2 PUSH1 0x80 SHR AND PUSH1 0x20 DUP8 ADD MSTORE DUP7 SHR SWAP1 DUP6 ADD MSTORE PUSH1 0x60 DUP5 ADD MSTORE PUSH1 0x80 DUP4 ADD MSTORE PUSH1 0xA0 DUP3 ADD MSTORE RETURN JUMPDEST PUSH2 0x11A4 JUMP JUMPDEST POP CALLVALUE PUSH2 0x22D JUMPI PUSH1 0x20 CALLDATASIZE PUSH1 0x3 NOT ADD SLT PUSH2 0x22D JUMPI PUSH1 0x20 SWAP2 PUSH1 0xFF SWAP1 DUP3 SWAP1 PUSH1 0x1 PUSH1 0x1 PUSH1 0xA0 SHL SUB PUSH2 0x322 PUSH2 0x1173 JUMP JUMPDEST AND DUP2 MSTORE PUSH1 0xE DUP6 MSTORE KECCAK256 SLOAD AND SWAP1 MLOAD SWAP1 ISZERO ISZERO DUP2 MSTORE RETURN JUMPDEST POP CALLVALUE PUSH2 0x22D JUMPI PUSH1 0x20 CALLDATASIZE PUSH1 0x3 NOT ADD SLT PUSH2 0x22D JUMPI PUSH1 0x20 SWAP1 PUSH2 0x35A PUSH2 0x355 PUSH2 0x1173 JUMP JUMPDEST PUSH2 0x1D16 JUMP JUMPDEST SWAP1 MLOAD SWAP1 DUP2 MSTORE RETURN JUMPDEST POP CALLVALUE PUSH2 0x22D JUMPI DUP2 PUSH1 0x3 NOT CALLDATASIZE ADD SLT PUSH2 0x22D JUMPI PUSH1 0x5 SLOAD SWAP1 MLOAD PUSH1 0x8 SWAP2 SWAP1 SWAP2 SHR PUSH1 0x1 PUSH1 0x1 PUSH1 0xA0 SHL SUB AND DUP2 MSTORE PUSH1 0x20 SWAP1 RETURN JUMPDEST SWAP2 SWAP1 POP CALLVALUE PUSH2 0x4A0 JUMPI DUP1 PUSH1 0x3 NOT CALLDATASIZE ADD SLT PUSH2 0x4A0 JUMPI PUSH2 0x3A8 PUSH2 0x1173 JUMP JUMPDEST SWAP2 PUSH2 0x3B1 PUSH2 0x118E JUMP JUMPDEST PUSH1 0x1 PUSH1 0x1 PUSH1 0xA0 SHL SUB SWAP2 PUSH2 0x3E7 CALLER PUSH32 0x0 DUP6 AND EQ PUSH2 0x1542 JUMP JUMPDEST PUSH1 0x5 SLOAD SWAP1 PUSH1 0xFF DUP3 AND PUSH2 0x469 JUMPI POP PUSH1 0x1 PUSH1 0x1 PUSH1 0xA8 SHL SUB NOT AND PUSH1 0x8 DUP6 SWAP1 SHL PUSH2 0x100 PUSH1 0x1 PUSH1 0xA8 SHL SUB AND OR PUSH1 0x1 OR PUSH1 0x5 SSTORE PUSH1 0x6 DUP1 SLOAD PUSH1 0x1 PUSH1 0x1 PUSH1 0xA0 SHL SUB NOT AND SWAP2 DUP4 AND SWAP2 SWAP1 SWAP2 OR SWAP1 SSTORE SWAP2 SWAP1 SWAP2 AND DUP1 DUP4 MSTORE PUSH1 0xE PUSH1 0x20 MSTORE SWAP1 DUP3 KECCAK256 DUP1 SLOAD PUSH1 0xFF NOT AND SWAP1 SSTORE PUSH32 0xC5CA2014458D93C5CF9F836FF7ECE45DE01C929DFB16EED9D6C3329FA1FD0982 DUP3 DUP1 LOG2 DUP1 RETURN JUMPDEST PUSH1 0x64 SWAP1 PUSH1 0x20 DUP7 MLOAD SWAP2 PUSH3 0x461BCD PUSH1 0xE5 SHL DUP4 MSTORE DUP3 ADD MSTORE PUSH1 0x11 PUSH1 0x24 DUP3 ADD MSTORE PUSH17 0x105B1C9958591E4819DC98591D585D1959 PUSH1 0x7A SHL PUSH1 0x44 DUP3 ADD MSTORE REVERT JUMPDEST DUP3 DUP1 REVERT JUMPDEST POP POP CALLVALUE PUSH2 0x22D JUMPI PUSH1 0x20 CALLDATASIZE PUSH1 0x3 NOT ADD SLT PUSH2 0x22D JUMPI PUSH1 0x20 SWAP1 PUSH2 0x35A PUSH2 0x4C5 PUSH2 0x1173 JUMP JUMPDEST PUSH2 0x2106 JUMP JUMPDEST POP POP CALLVALUE PUSH2 0x22D JUMPI DUP2 PUSH1 0x3 NOT CALLDATASIZE ADD SLT PUSH2 0x22D JUMPI PUSH1 0x20 SWAP1 PUSH1 0xD SLOAD SWAP1 MLOAD SWAP1 DUP2 MSTORE RETURN JUMPDEST POP POP CALLVALUE PUSH2 0x22D JUMPI DUP2 PUSH1 0x3 NOT CALLDATASIZE ADD SLT PUSH2 0x22D JUMPI PUSH1 0x20 SWAP1 MLOAD PUSH2 0x3E8 DUP2 MSTORE RETURN JUMPDEST POP POP CALLVALUE PUSH2 0x22D JUMPI DUP2 PUSH1 0x3 NOT CALLDATASIZE ADD SLT PUSH2 0x22D JUMPI MLOAD PUSH32 0x0 PUSH1 0x1 PUSH1 0x1 PUSH1 0xA0 SHL SUB AND DUP2 MSTORE PUSH1 0x20 SWAP1 RETURN JUMPDEST POP POP CALLVALUE PUSH2 0x22D JUMPI DUP2 PUSH1 0x3 NOT CALLDATASIZE ADD SLT PUSH2 0x22D JUMPI PUSH1 0x20 SWAP1 PUSH1 0xA SLOAD SWAP1 MLOAD SWAP1 DUP2 MSTORE RETURN JUMPDEST POP POP CALLVALUE PUSH2 0x22D JUMPI DUP2 PUSH1 0x3 NOT CALLDATASIZE ADD SLT PUSH2 0x22D JUMPI PUSH1 0x20 SWAP1 MLOAD PUSH2 0x7D0 DUP2 MSTORE RETURN JUMPDEST POP POP CALLVALUE PUSH2 0x22D JUMPI DUP2 PUSH1 0x3 NOT CALLDATASIZE ADD SLT PUSH2 0x22D JUMPI PUSH1 0x20 SWAP1 MLOAD PUSH2 0x1F4 DUP2 MSTORE RETURN JUMPDEST SWAP1 POP DUP3 PUSH1 0x3 NOT CALLDATASIZE ADD SLT PUSH2 0x4A0 JUMPI DUP3 PUSH1 0x1 PUSH1 0x1 PUSH1 0xA0 SHL SUB PUSH2 0x5E6 CALLER PUSH32 0x0 DUP4 AND EQ PUSH2 0x1542 JUMP JUMPDEST CALLVALUE PUSH2 0x5EF JUMPI POP DUP1 RETURN JUMPDEST DUP2 DUP1 DUP1 SWAP3 CALLVALUE SWAP1 PUSH32 0x0 AND GAS CALL PUSH2 0x621 PUSH2 0x157B JUMP JUMPDEST POP ISZERO PUSH2 0x645 JUMPI POP PUSH1 0x20 PUSH1 0x0 DUP1 MLOAD PUSH1 0x20 PUSH2 0x219C DUP4 CODECOPY DUP2 MLOAD SWAP2 MSTORE SWAP2 MLOAD CALLVALUE DUP2 MSTORE LOG1 CODESIZE DUP1 DUP3 DUP1 RETURN JUMPDEST PUSH1 0x20 PUSH1 0x64 SWAP3 MLOAD SWAP2 PUSH3 0x461BCD PUSH1 0xE5 SHL DUP4 MSTORE DUP3 ADD MSTORE PUSH1 0x13 PUSH1 0x24 DUP3 ADD MSTORE PUSH19 0x141B185D199BDC9B48199DD90819985A5B1959 PUSH1 0x6A SHL PUSH1 0x44 DUP3 ADD MSTORE REVERT JUMPDEST POP POP CALLVALUE PUSH2 0x22D JUMPI DUP1 PUSH1 0x3 NOT CALLDATASIZE ADD SLT PUSH2 0x22D JUMPI PUSH1 0x20 SWAP1 PUSH2 0x6A7 PUSH2 0x69D PUSH2 0x1173 JUMP JUMPDEST PUSH1 0x24 CALLDATALOAD SWAP1 CALLER PUSH2 0x121C JUMP JUMPDEST MLOAD PUSH1 0x1 DUP2 MSTORE RETURN JUMPDEST DUP4 DUP1 PUSH1 0x3 NOT CALLDATASIZE ADD SLT PUSH2 0x6FA JUMPI PUSH2 0x6EE CALLER PUSH32 0x0 PUSH1 0x1 PUSH1 0x1 PUSH1 0xA0 SHL SUB AND EQ PUSH2 0x1542 JUMP JUMPDEST PUSH2 0x6F7 CALLVALUE PUSH2 0x1C85 JUMP JUMPDEST DUP1 RETURN JUMPDEST DUP1 REVERT JUMPDEST POP POP CALLVALUE PUSH2 0x22D JUMPI DUP2 PUSH1 0x3 NOT CALLDATASIZE ADD SLT PUSH2 0x22D JUMPI PUSH1 0x20 SWAP1 PUSH1 0xB SLOAD SWAP1 MLOAD SWAP1 DUP2 MSTORE RETURN JUMPDEST SWAP1 POP CALLVALUE PUSH2 0x4A0 JUMPI PUSH1 0x20 CALLDATASIZE PUSH1 0x3 NOT ADD SLT PUSH2 0x4A0 JUMPI DUP1 CALLDATALOAD SWAP2 PUSH2 0x766 CALLER PUSH32 0x0 PUSH1 0x1 PUSH1 0x1 PUSH1 0xA0 SHL SUB AND EQ PUSH2 0x2160 JUMP JUMPDEST DUP3 ISZERO PUSH2 0x774 JUMPI POP POP PUSH1 0x7 SSTORE DUP1 RETURN JUMPDEST SWAP1 PUSH1 0x20 PUSH1 0x64 SWAP3 MLOAD SWAP2 PUSH3 0x461BCD PUSH1 0xE5 SHL DUP4 MSTORE DUP3 ADD MSTORE PUSH1 0xD PUSH1 0x24 DUP3 ADD MSTORE PUSH13 0x109859081D1A1C995CDA1BDB19 PUSH1 0x9A SHL PUSH1 0x44 DUP3 ADD MSTORE REVERT JUMPDEST POP POP CALLVALUE PUSH2 0x22D JUMPI DUP2 PUSH1 0x3 NOT CALLDATASIZE ADD SLT PUSH2 0x22D JUMPI PUSH1 0x20 SWAP1 MLOAD PUSH11 0xA56FA5B99019A5C8000000 DUP2 MSTORE RETURN JUMPDEST DUP4 DUP4 CALLVALUE PUSH2 0x22D JUMPI DUP2 PUSH1 0x3 NOT CALLDATASIZE ADD SLT PUSH2 0x22D JUMPI DUP1 MLOAD SWAP2 DUP1 SWAP4 DUP1 SLOAD SWAP2 PUSH1 0x1 SWAP1 DUP4 DUP3 SHR SWAP3 DUP3 DUP6 AND SWAP5 DUP6 ISZERO PUSH2 0x8A9 JUMPI JUMPDEST PUSH1 0x20 SWAP6 DUP7 DUP7 LT DUP2 EQ PUSH2 0x896 JUMPI DUP6 DUP10 MSTORE SWAP1 DUP2 ISZERO PUSH2 0x872 JUMPI POP PUSH1 0x1 EQ PUSH2 0x837 JUMPI JUMPDEST PUSH2 0x833 DUP8 DUP8 PUSH2 0x829 DUP3 DUP13 SUB DUP4 PUSH2 0x11E3 JUMP JUMPDEST MLOAD SWAP2 DUP3 SWAP2 DUP3 PUSH2 0x112A JUMP JUMPDEST SUB SWAP1 RETURN JUMPDEST SWAP1 DUP1 SWAP5 SWAP8 POP MSTORE DUP6 DUP4 KECCAK256 JUMPDEST DUP3 DUP5 LT PUSH2 0x85F JUMPI POP POP POP DUP3 PUSH2 0x833 SWAP5 PUSH2 0x829 SWAP3 DUP3 ADD ADD SWAP5 DUP7 DUP1 PUSH2 0x818 JUMP JUMPDEST DUP1 SLOAD DUP7 DUP6 ADD DUP9 ADD MSTORE SWAP3 DUP7 ADD SWAP3 DUP2 ADD PUSH2 0x841 JUMP JUMPDEST PUSH1 0xFF NOT AND DUP9 DUP8 ADD MSTORE POP POP POP POP ISZERO ISZERO PUSH1 0x5 SHL DUP4 ADD ADD SWAP3 POP PUSH2 0x829 DUP3 PUSH2 0x833 DUP7 DUP1 PUSH2 0x818 JUMP JUMPDEST PUSH4 0x4E487B71 PUSH1 0xE0 SHL DUP5 MSTORE PUSH1 0x22 DUP4 MSTORE PUSH1 0x24 DUP5 REVERT JUMPDEST SWAP4 PUSH1 0x7F AND SWAP4 PUSH2 0x7F9 JUMP JUMPDEST POP POP CALLVALUE PUSH2 0x22D JUMPI DUP2 PUSH1 0x3 NOT CALLDATASIZE ADD SLT PUSH2 0x22D JUMPI MLOAD PUSH8 0x6765C793FA10079D PUSH1 0x1B SHL DUP2 MSTORE PUSH1 0x20 SWAP1 RETURN JUMPDEST POP POP CALLVALUE PUSH2 0x22D JUMPI DUP2 PUSH1 0x3 NOT CALLDATASIZE ADD SLT PUSH2 0x22D JUMPI PUSH1 0x6 SLOAD SWAP1 MLOAD PUSH1 0x1 PUSH1 0x1 PUSH1 0xA0 SHL SUB SWAP1 SWAP2 AND DUP2 MSTORE PUSH1 0x20 SWAP1 RETURN JUMPDEST POP POP CALLVALUE PUSH2 0x22D JUMPI DUP2 PUSH1 0x3 NOT CALLDATASIZE ADD SLT PUSH2 0x22D JUMPI MLOAD PUSH32 0x0 PUSH1 0x1 PUSH1 0x1 PUSH1 0xA0 SHL SUB AND DUP2 MSTORE PUSH1 0x20 SWAP1 RETURN JUMPDEST POP POP CALLVALUE PUSH2 0x22D JUMPI PUSH1 0x20 CALLDATASIZE PUSH1 0x3 NOT ADD SLT PUSH2 0x22D JUMPI PUSH1 0x20 SWAP2 DUP2 SWAP1 PUSH1 0x1 PUSH1 0x1 PUSH1 0xA0 SHL SUB PUSH2 0x96E PUSH2 0x1173 JUMP JUMPDEST AND DUP2 MSTORE DUP1 DUP5 MSTORE KECCAK256 SLOAD SWAP1 MLOAD SWAP1 DUP2 MSTORE RETURN JUMPDEST POP POP CALLVALUE PUSH2 0x22D JUMPI DUP2 PUSH1 0x3 NOT CALLDATASIZE ADD SLT PUSH2 0x22D JUMPI PUSH1 0x20 SWAP1 PUSH1 0xC SLOAD SWAP1 MLOAD SWAP1 DUP2 MSTORE RETURN JUMPDEST DUP4 DUP4 CALLVALUE PUSH2 0x22D JUMPI PUSH1 0x20 DUP1 PUSH1 0x3 NOT CALLDATASIZE ADD SLT PUSH2 0x4A0 JUMPI DUP4 CALLDATALOAD SWAP2 PUSH1 0x1 PUSH1 0x1 PUSH1 0xA0 SHL SUB SWAP2 PUSH32 0x0 DUP4 DUP2 AND SWAP1 PUSH2 0x9EC CALLER DUP4 EQ PUSH2 0x1542 JUMP JUMPDEST DUP6 ISZERO SWAP8 DUP9 ISZERO PUSH2 0x9F9 JUMPI DUP8 DUP1 RETURN JUMPDEST DUP3 ISZERO PUSH2 0xC6C JUMPI DUP7 SWAP9 PUSH2 0xA0A DUP4 PUSH2 0x1870 JUMP JUMPDEST PUSH2 0xA12 PUSH2 0x17A5 JUMP JUMPDEST PUSH1 0x5 SLOAD SWAP8 PUSH1 0xFF SWAP9 DUP10 DUP2 AND DUP1 PUSH2 0xC60 JUMPI JUMPDEST DUP1 PUSH2 0xC4C JUMPI JUMPDEST DUP1 PUSH2 0xC36 JUMPI JUMPDEST PUSH2 0xADD JUMPI JUMPDEST POP POP POP POP DUP1 PUSH2 0xA4B DUP9 SWAP10 PUSH2 0xA50 SWAP4 SWAP10 SWAP7 SWAP8 SWAP9 SWAP10 PUSH2 0x161D JUMP JUMPDEST PUSH2 0x1ABC JUMP JUMPDEST PUSH2 0xA58 PUSH2 0x191C JUMP JUMPDEST PUSH1 0x5 SLOAD DUP7 DUP2 AND SWAP7 DUP8 PUSH2 0xAD0 JUMPI JUMPDEST POP DUP7 PUSH2 0xAC0 JUMPI JUMPDEST POP POP DUP5 PUSH2 0xAAA JUMPI JUMPDEST POP POP POP DUP2 PUSH2 0xA9C JUMPI JUMPDEST POP PUSH2 0xA8F JUMPI JUMPDEST DUP1 DUP3 DUP1 DUP1 DUP1 DUP1 DUP1 DUP1 DUP8 DUP1 RETURN JUMPDEST PUSH2 0xA97 PUSH2 0x1D7B JUMP JUMPDEST PUSH2 0xA83 JUMP JUMPDEST SWAP1 POP PUSH1 0x6 SLOAD AND ISZERO ISZERO DUP3 PUSH2 0xA7D JUMP JUMPDEST ADDRESS DUP3 MSTORE MSTORE DUP4 KECCAK256 SLOAD PUSH1 0x7 SLOAD GT ISZERO SWAP2 POP DUP4 DUP4 DUP2 PUSH2 0xA74 JUMP JUMPDEST PUSH1 0x8 SHR DUP6 AND EQ ISZERO SWAP5 POP DUP7 DUP1 PUSH2 0xA6C JUMP JUMPDEST PUSH1 0x8 SLOAD AND ISZERO SWAP7 POP DUP9 PUSH2 0xA65 JUMP JUMPDEST PUSH1 0x8 SHR DUP9 AND DUP6 DUP2 EQ SWAP3 PUSH2 0xDEAD SWAP3 SWAP2 DUP4 EQ DUP5 DUP1 ISZERO PUSH2 0xC2F JUMPI JUMPDEST PUSH2 0xB01 JUMPI JUMPDEST POP POP PUSH2 0xA33 JUMP JUMPDEST SWAP1 SWAP2 SWAP3 SWAP4 SWAP5 SWAP13 POP DUP12 SWAP1 PUSH2 0xC20 JUMPI JUMPDEST PUSH2 0x1F4 SWAP1 DUP2 ADD DUP1 SWAP2 GT PUSH2 0xC0D JUMPI PUSH2 0xB2C SWAP1 PUSH2 0x2710 SWAP2 DUP3 SWAP2 DUP6 PUSH2 0x15BA JUMP JUMPDEST DIV SWAP2 PUSH1 0x96 DUP5 MUL SWAP1 DUP5 DUP3 DIV PUSH1 0x96 EQ OR ISZERO PUSH2 0xBF9 JUMPI DUP13 SWAP14 POP PUSH1 0x60 PUSH2 0xA50 SWAP8 SWAP7 SWAP5 DUP11 DUP13 SWAP14 SWAP15 SWAP16 DUP1 SWAP14 PUSH2 0xB8C PUSH2 0xA4B SWAP11 SWAP9 DUP15 SWAP9 PUSH1 0x0 DUP1 MLOAD PUSH1 0x20 PUSH2 0x221C DUP4 CODECOPY DUP2 MLOAD SWAP2 MSTORE SWAP9 DIV SWAP6 DUP14 DUP8 DUP1 PUSH2 0xBE9 JUMPI JUMPDEST PUSH2 0xB7F SWAP1 DUP5 PUSH2 0x15ED JUMP JUMPDEST DUP1 PUSH2 0xBD7 JUMPI JUMPDEST POP POP PUSH2 0x15ED JUMP JUMPDEST SWAP9 PUSH2 0xBB2 JUMPI JUMPDEST SWAP2 POP POP MLOAD SWAP1 DUP2 MSTORE DUP12 DUP12 DUP3 ADD MSTORE DUP12 DUP14 DUP3 ADD MSTORE LOG3 SWAP10 SWAP9 SWAP8 SWAP7 SWAP6 DUP3 SWAP4 DUP13 DUP1 PUSH2 0xAFA JUMP JUMPDEST DUP8 DUP3 MSTORE PUSH1 0x9 SWAP1 SWAP3 MSTORE KECCAK256 PUSH2 0xBCF SWAP1 TIMESTAMP PUSH1 0x1 PUSH1 0x1 PUSH1 0x40 SHL SUB AND SWAP1 PUSH2 0x15FA JUMP JUMPDEST DUP11 DUP13 DUP15 PUSH2 0xB92 JUMP JUMPDEST PUSH2 0xBE2 SWAP2 ADDRESS SWAP1 PUSH2 0x16B8 JUMP JUMPDEST DUP14 CODESIZE PUSH2 0xB85 JUMP JUMPDEST PUSH2 0xBF2 SWAP2 PUSH2 0x161D JUMP JUMPDEST DUP14 DUP8 PUSH2 0xB75 JUMP JUMPDEST POP PUSH4 0x4E487B71 PUSH1 0xE0 SHL DUP13 MSTORE PUSH1 0x11 DUP14 MSTORE PUSH1 0x24 DUP13 REVERT JUMPDEST PUSH4 0x4E487B71 PUSH1 0xE0 SHL DUP13 MSTORE PUSH1 0x11 DUP14 MSTORE PUSH1 0x24 DUP13 REVERT JUMPDEST POP PUSH2 0xC2A DUP6 PUSH2 0x1D16 JUMP JUMPDEST PUSH2 0xB0F JUMP JUMPDEST POP DUP1 PUSH2 0xAF5 JUMP JUMPDEST POP PUSH2 0xDEAD DUP12 MSTORE PUSH1 0xE DUP8 MSTORE DUP10 DUP9 DUP13 KECCAK256 SLOAD AND ISZERO PUSH2 0xA2E JUMP JUMPDEST POP DUP6 DUP12 MSTORE PUSH1 0xE DUP8 MSTORE DUP10 DUP9 DUP13 KECCAK256 SLOAD AND ISZERO PUSH2 0xA28 JUMP JUMPDEST POP DUP10 PUSH1 0x8 SLOAD AND ISZERO PUSH2 0xA22 JUMP JUMPDEST DUP5 MLOAD PUSH4 0x4B637E8F PUSH1 0xE1 SHL DUP2 MSTORE SWAP1 DUP2 ADD DUP9 SWAP1 MSTORE PUSH1 0x24 SWAP1 REVERT JUMPDEST DUP4 SWAP2 POP CALLVALUE PUSH2 0x22D JUMPI DUP2 PUSH1 0x3 NOT CALLDATASIZE ADD SLT PUSH2 0x22D JUMPI PUSH32 0x9B779B17422D0DF92223018B32B4D1FA46E071723D6817E2486D003BECC55F00 SWAP1 PUSH1 0x2 DUP3 SLOAD EQ PUSH2 0xD9D JUMPI PUSH1 0x2 DUP3 SSTORE PUSH2 0xCCE CALLER PUSH2 0x1870 JUMP JUMPDEST CALLER DUP4 MSTORE PUSH1 0x9 PUSH1 0x20 MSTORE PUSH1 0x3 DUP5 DUP5 KECCAK256 ADD SWAP1 DUP2 SLOAD SWAP2 DUP3 ISZERO PUSH2 0xD67 JUMPI DUP5 SWAP1 SSTORE DUP4 DUP1 DUP1 DUP1 DUP6 CALLER GAS CALL PUSH2 0xCF9 PUSH2 0x157B JUMP JUMPDEST POP ISZERO PUSH2 0xD32 JUMPI POP PUSH1 0x1 SWAP3 SWAP4 MLOAD SWAP1 DUP2 MSTORE PUSH32 0xFC30CDDEA38E2BF4D6EA7D3F9ED3B6AD7F176419F4963BD81318067A4AEE73FE PUSH1 0x20 CALLER SWAP3 LOG2 SSTORE DUP1 RETURN JUMPDEST PUSH1 0x64 SWAP1 PUSH1 0x20 DUP7 MLOAD SWAP2 PUSH3 0x461BCD PUSH1 0xE5 SHL DUP4 MSTORE DUP3 ADD MSTORE PUSH1 0xF PUSH1 0x24 DUP3 ADD MSTORE PUSH15 0x115512081CD95B990819985A5B1959 PUSH1 0x8A SHL PUSH1 0x44 DUP3 ADD MSTORE REVERT JUMPDEST DUP6 MLOAD PUSH3 0x461BCD PUSH1 0xE5 SHL DUP2 MSTORE PUSH1 0x20 DUP2 DUP5 ADD MSTORE PUSH1 0x10 PUSH1 0x24 DUP3 ADD MSTORE PUSH16 0x4E6F7468696E6720746F20636C61696D PUSH1 0x80 SHL PUSH1 0x44 DUP3 ADD MSTORE PUSH1 0x64 SWAP1 REVERT JUMPDEST DUP4 MLOAD PUSH4 0x3EE5AEB5 PUSH1 0xE0 SHL DUP2 MSTORE REVERT JUMPDEST POP POP CALLVALUE PUSH2 0x22D JUMPI DUP2 PUSH1 0x3 NOT CALLDATASIZE ADD SLT PUSH2 0x22D JUMPI PUSH1 0x20 SWAP1 MLOAD PUSH1 0xC8 DUP2 MSTORE RETURN JUMPDEST POP POP CALLVALUE PUSH2 0x22D JUMPI PUSH1 0x20 CALLDATASIZE PUSH1 0x3 NOT ADD SLT PUSH2 0x22D JUMPI PUSH1 0x20 SWAP1 PUSH2 0x35A PUSH2 0xDE8 PUSH2 0x1173 JUMP JUMPDEST PUSH2 0x204F JUMP JUMPDEST POP POP CALLVALUE PUSH2 0x22D JUMPI DUP2 PUSH1 0x3 NOT CALLDATASIZE ADD SLT PUSH2 0x22D JUMPI PUSH1 0x20 SWAP1 MLOAD PUSH1 0x12 DUP2 MSTORE RETURN JUMPDEST POP POP CALLVALUE PUSH2 0x22D JUMPI DUP1 PUSH1 0x3 NOT CALLDATASIZE ADD SLT PUSH2 0x22D JUMPI PUSH2 0xE23 PUSH2 0x1173 JUMP JUMPDEST SWAP1 PUSH1 0x24 CALLDATALOAD SWAP2 DUP3 ISZERO ISZERO DUP1 SWAP4 SUB PUSH2 0xE82 JUMPI PUSH1 0x1 PUSH1 0x1 PUSH1 0xA0 SHL SUB SWAP1 PUSH2 0xE68 CALLER PUSH32 0x0 DUP5 AND EQ PUSH2 0x2160 JUMP JUMPDEST AND DUP4 MSTORE PUSH1 0xE PUSH1 0x20 MSTORE DUP3 KECCAK256 SWAP1 PUSH1 0xFF DUP1 NOT DUP4 SLOAD AND SWAP2 AND OR SWAP1 SSTORE DUP1 RETURN JUMPDEST DUP4 DUP1 REVERT JUMPDEST SWAP1 POP DUP3 CALLVALUE PUSH2 0x6FA JUMPI PUSH1 0x60 CALLDATASIZE PUSH1 0x3 NOT ADD SLT PUSH2 0x6FA JUMPI PUSH2 0xEA2 PUSH2 0x1173 JUMP JUMPDEST PUSH2 0xEAA PUSH2 0x118E JUMP JUMPDEST SWAP2 PUSH1 0x44 CALLDATALOAD SWAP4 PUSH1 0x1 DUP1 PUSH1 0xA0 SHL SUB DUP4 AND DUP1 DUP4 MSTORE PUSH1 0x1 PUSH1 0x20 MSTORE DUP7 DUP4 KECCAK256 CALLER DUP5 MSTORE PUSH1 0x20 MSTORE DUP7 DUP4 KECCAK256 SLOAD SWAP2 PUSH1 0x0 NOT DUP4 LT PUSH2 0xEE6 JUMPI JUMPDEST PUSH1 0x20 DUP9 PUSH2 0x6A7 DUP10 DUP10 DUP10 PUSH2 0x121C JUMP JUMPDEST DUP7 DUP4 LT PUSH2 0xF4E JUMPI DUP2 ISZERO PUSH2 0xF37 JUMPI CALLER ISZERO PUSH2 0xF20 JUMPI POP DUP3 MSTORE PUSH1 0x1 PUSH1 0x20 SWAP1 DUP2 MSTORE DUP7 DUP4 KECCAK256 CALLER DUP5 MSTORE DUP2 MSTORE SWAP2 DUP7 SWAP1 KECCAK256 SWAP1 DUP6 SWAP1 SUB SWAP1 SSTORE DUP3 SWAP1 PUSH2 0x6A7 DUP8 PUSH2 0xED8 JUMP JUMPDEST DUP8 MLOAD PUSH4 0x4A1406B1 PUSH1 0xE1 SHL DUP2 MSTORE SWAP1 DUP2 ADD DUP5 SWAP1 MSTORE PUSH1 0x24 SWAP1 REVERT JUMPDEST DUP8 MLOAD PUSH4 0xE602DF05 PUSH1 0xE0 SHL DUP2 MSTORE SWAP1 DUP2 ADD DUP5 SWAP1 MSTORE PUSH1 0x24 SWAP1 REVERT JUMPDEST SWAP1 POP PUSH2 0xF6C DUP7 DUP9 MLOAD SWAP4 DUP5 SWAP4 PUSH4 0x7DC7A0D9 PUSH1 0xE1 SHL DUP6 MSTORE CALLER SWAP1 DUP6 ADD PUSH2 0x1524 JUMP JUMPDEST SUB SWAP1 REVERT JUMPDEST POP POP CALLVALUE PUSH2 0x22D JUMPI DUP2 PUSH1 0x3 NOT CALLDATASIZE ADD SLT PUSH2 0x22D JUMPI MLOAD PUSH8 0x14ADF4B7320334B9 PUSH1 0x1D SHL DUP2 MSTORE PUSH1 0x20 SWAP1 RETURN JUMPDEST POP POP CALLVALUE PUSH2 0x22D JUMPI DUP2 PUSH1 0x3 NOT CALLDATASIZE ADD SLT PUSH2 0x22D JUMPI PUSH1 0x20 SWAP1 PUSH1 0x2 SLOAD SWAP1 MLOAD SWAP1 DUP2 MSTORE RETURN JUMPDEST POP POP CALLVALUE PUSH2 0x22D JUMPI DUP1 PUSH1 0x3 NOT CALLDATASIZE ADD SLT PUSH2 0x22D JUMPI PUSH1 0x20 SWAP1 PUSH2 0x6A7 PUSH2 0xFD5 PUSH2 0x1173 JUMP JUMPDEST PUSH1 0x24 CALLDATALOAD SWAP1 CALLER PUSH2 0x1491 JUMP JUMPDEST POP POP CALLVALUE PUSH2 0x22D JUMPI DUP2 PUSH1 0x3 NOT CALLDATASIZE ADD SLT PUSH2 0x22D JUMPI PUSH1 0x20 SWAP1 PUSH2 0x35A PUSH2 0x1003 PUSH1 0xB SLOAD TIMESTAMP PUSH2 0x15ED JUMP JUMPDEST PUSH2 0x1012 PUSH1 0xA SLOAD SWAP2 PUSH1 0xC SLOAD PUSH2 0x15BA JUMP JUMPDEST SWAP1 PUSH2 0x11C0 JUMP JUMPDEST SWAP2 SWAP1 POP CALLVALUE PUSH2 0x4A0 JUMPI DUP3 PUSH1 0x3 NOT CALLDATASIZE ADD SLT PUSH2 0x4A0 JUMPI DUP1 MLOAD SWAP2 DUP4 PUSH1 0x3 SLOAD SWAP1 PUSH1 0x1 SWAP1 DUP3 DUP3 SHR SWAP3 DUP3 DUP2 AND DUP1 ISZERO PUSH2 0x10E5 JUMPI JUMPDEST PUSH1 0x20 SWAP6 DUP7 DUP7 LT DUP3 EQ PUSH2 0x10D2 JUMPI POP DUP5 DUP9 MSTORE SWAP1 DUP2 ISZERO PUSH2 0x10B0 JUMPI POP PUSH1 0x1 EQ PUSH2 0x1075 JUMPI JUMPDEST PUSH2 0x833 DUP7 DUP7 PUSH2 0x829 DUP3 DUP12 SUB DUP4 PUSH2 0x11E3 JUMP JUMPDEST SWAP3 SWAP6 POP PUSH1 0x3 DUP4 MSTORE DUP6 DUP4 KECCAK256 JUMPDEST DUP3 DUP5 LT PUSH2 0x109D JUMPI POP POP POP DUP3 PUSH2 0x833 SWAP5 PUSH2 0x829 SWAP3 DUP3 ADD ADD SWAP5 CODESIZE PUSH2 0x1064 JUMP JUMPDEST DUP1 SLOAD DUP7 DUP6 ADD DUP9 ADD MSTORE SWAP3 DUP7 ADD SWAP3 DUP2 ADD PUSH2 0x1080 JUMP JUMPDEST PUSH1 0xFF NOT AND DUP8 DUP7 ADD MSTORE POP POP POP ISZERO ISZERO PUSH1 0x5 SHL DUP4 ADD ADD SWAP3 POP PUSH2 0x829 DUP3 PUSH2 0x833 CODESIZE PUSH2 0x1064 JUMP JUMPDEST PUSH4 0x4E487B71 PUSH1 0xE0 SHL DUP5 MSTORE PUSH1 0x22 SWAP1 MSTORE PUSH1 0x24 DUP4 REVERT JUMPDEST SWAP4 PUSH1 0x7F AND SWAP4 PUSH2 0x1044 JUMP JUMPDEST POP POP CALLVALUE PUSH2 0x22D JUMPI DUP2 PUSH1 0x3 NOT CALLDATASIZE ADD SLT PUSH2 0x22D JUMPI PUSH1 0x20 SWAP1 PUSH1 0x7 SLOAD SWAP1 MLOAD SWAP1 DUP2 MSTORE RETURN JUMPDEST DUP5 SWAP1 CALLVALUE PUSH2 0x22D JUMPI DUP2 PUSH1 0x3 NOT CALLDATASIZE ADD SLT PUSH2 0x22D JUMPI DUP1 PUSH2 0xDEAD PUSH1 0x20 SWAP3 MSTORE RETURN JUMPDEST PUSH1 0x20 DUP1 DUP3 MSTORE DUP3 MLOAD DUP2 DUP4 ADD DUP2 SWAP1 MSTORE SWAP1 SWAP4 SWAP3 PUSH1 0x0 JUMPDEST DUP3 DUP2 LT PUSH2 0x115F JUMPI POP POP PUSH1 0x40 SWAP3 SWAP4 POP PUSH1 0x0 DUP4 DUP3 DUP5 ADD ADD MSTORE PUSH1 0x1F DUP1 NOT SWAP2 ADD AND ADD ADD SWAP1 JUMP JUMPDEST DUP2 DUP2 ADD DUP7 ADD MLOAD DUP5 DUP3 ADD PUSH1 0x40 ADD MSTORE DUP6 ADD PUSH2 0x113D JUMP JUMPDEST PUSH1 0x4 CALLDATALOAD SWAP1 PUSH1 0x1 PUSH1 0x1 PUSH1 0xA0 SHL SUB DUP3 AND DUP3 SUB PUSH2 0x1189 JUMPI JUMP JUMPDEST PUSH1 0x0 DUP1 REVERT JUMPDEST PUSH1 0x24 CALLDATALOAD SWAP1 PUSH1 0x1 PUSH1 0x1 PUSH1 0xA0 SHL SUB DUP3 AND DUP3 SUB PUSH2 0x1189 JUMPI JUMP JUMPDEST CALLVALUE PUSH2 0x1189 JUMPI PUSH1 0x0 CALLDATASIZE PUSH1 0x3 NOT ADD SLT PUSH2 0x1189 JUMPI PUSH1 0x20 PUSH1 0x40 MLOAD PUSH1 0x96 DUP2 MSTORE RETURN JUMPDEST SWAP2 SWAP1 DUP3 ADD DUP1 SWAP3 GT PUSH2 0x11CD JUMPI JUMP JUMPDEST PUSH4 0x4E487B71 PUSH1 0xE0 SHL PUSH1 0x0 MSTORE PUSH1 0x11 PUSH1 0x4 MSTORE PUSH1 0x24 PUSH1 0x0 REVERT JUMPDEST PUSH1 0x1F SWAP1 SWAP2 ADD PUSH1 0x1F NOT AND DUP2 ADD SWAP1 PUSH1 0x1 PUSH1 0x1 PUSH1 0x40 SHL SUB DUP3 GT SWAP1 DUP3 LT OR PUSH2 0x1206 JUMPI PUSH1 0x40 MSTORE JUMP JUMPDEST PUSH4 0x4E487B71 PUSH1 0xE0 SHL PUSH1 0x0 MSTORE PUSH1 0x41 PUSH1 0x4 MSTORE PUSH1 0x24 PUSH1 0x0 REVERT JUMPDEST PUSH1 0x1 PUSH1 0x1 PUSH1 0xA0 SHL SUB SWAP3 SWAP2 DUP4 DUP3 AND SWAP2 SWAP1 DUP3 ISZERO PUSH2 0x1478 JUMPI DUP5 DUP2 AND SWAP2 DUP3 ISZERO PUSH2 0x145F JUMPI DUP5 SWAP3 PUSH2 0x1246 DUP3 PUSH2 0x1870 JUMP JUMPDEST PUSH2 0x124F DUP4 PUSH2 0x1870 JUMP JUMPDEST PUSH1 0x5 SLOAD SWAP6 DUP8 PUSH1 0xFF SWAP8 DUP9 DUP2 AND DUP1 PUSH2 0x1453 JUMPI JUMPDEST DUP1 PUSH2 0x143B JUMPI JUMPDEST DUP1 PUSH2 0x1423 JUMPI JUMPDEST PUSH2 0x1302 JUMPI JUMPDEST POP POP POP POP DUP1 PUSH2 0xA4B PUSH2 0x1287 SWAP5 DUP5 PUSH2 0xA4B SWAP5 PUSH2 0x16B8 JUMP JUMPDEST PUSH1 0x5 SLOAD DUP3 DUP2 AND SWAP3 DUP4 PUSH2 0x12F5 JUMPI JUMPDEST POP DUP3 PUSH2 0x12E5 JUMPI JUMPDEST POP POP SWAP1 DUP2 PUSH2 0x12C9 JUMPI JUMPDEST DUP2 PUSH2 0x12BB JUMPI JUMPDEST POP PUSH2 0x12B1 JUMPI JUMP JUMPDEST PUSH2 0x12B9 PUSH2 0x1D7B JUMP JUMPDEST JUMP JUMPDEST SWAP1 POP PUSH1 0x6 SLOAD AND ISZERO ISZERO CODESIZE PUSH2 0x12AA JUMP JUMPDEST SWAP1 POP ADDRESS PUSH1 0x0 MSTORE PUSH1 0x0 PUSH1 0x20 MSTORE PUSH1 0x40 PUSH1 0x0 KECCAK256 SLOAD PUSH1 0x7 SLOAD GT ISZERO SWAP1 PUSH2 0x12A4 JUMP JUMPDEST PUSH1 0x8 SHR DUP4 AND EQ ISZERO SWAP1 POP CODESIZE DUP1 PUSH2 0x129B JUMP JUMPDEST PUSH1 0x8 SLOAD AND ISZERO SWAP3 POP CODESIZE PUSH2 0x1294 JUMP JUMPDEST PUSH1 0x8 SHR AND DUP3 DUP2 EQ SWAP2 SWAP1 DUP8 EQ DUP1 DUP1 ISZERO PUSH2 0x141C JUMPI JUMPDEST PUSH2 0x1322 JUMPI JUMPDEST DUP10 SWAP2 POP PUSH2 0x1271 JUMP JUMPDEST SWAP1 SWAP2 SWAP4 SWAP3 SWAP6 POP PUSH1 0x0 SWAP4 PUSH2 0x140B JUMPI JUMPDEST PUSH2 0x1F4 SWAP4 DUP5 ADD DUP1 SWAP5 GT PUSH2 0x11CD JUMPI PUSH2 0x134D SWAP4 PUSH2 0x2710 SWAP5 DUP6 SWAP2 DUP5 PUSH2 0x15BA JUMP JUMPDEST DIV SWAP6 PUSH1 0x96 DUP4 MUL DUP4 DUP2 DIV PUSH1 0x96 EQ DUP5 ISZERO OR ISZERO PUSH2 0x11CD JUMPI PUSH1 0x0 DUP1 MLOAD PUSH1 0x20 PUSH2 0x221C DUP4 CODECOPY DUP2 MLOAD SWAP2 MSTORE PUSH1 0x60 PUSH2 0xA4B SWAP6 PUSH2 0x13A1 PUSH2 0x1287 SWAP12 PUSH2 0xA4B SWAP11 DUP15 SWAP7 DIV SWAP3 DUP4 PUSH2 0x13FC JUMPI JUMPDEST PUSH2 0x1395 DUP5 DUP4 PUSH2 0x15ED JUMP JUMPDEST DUP1 PUSH2 0x13EB JUMPI JUMPDEST POP PUSH2 0x15ED JUMP JUMPDEST SWAP6 PUSH2 0x13C4 JUMPI JUMPDEST PUSH1 0x40 MLOAD SWAP1 DUP2 MSTORE PUSH1 0x0 PUSH1 0x20 DUP3 ADD MSTORE PUSH1 0x0 PUSH1 0x40 DUP3 ADD MSTORE LOG3 SWAP5 DUP3 SWAP4 PUSH2 0x131A JUMP JUMPDEST PUSH1 0x0 DUP6 DUP2 MSTORE PUSH1 0x9 PUSH1 0x20 MSTORE PUSH1 0x40 SWAP1 KECCAK256 PUSH2 0x13E6 SWAP1 TIMESTAMP PUSH1 0x1 PUSH1 0x1 PUSH1 0x40 SHL SUB AND SWAP1 PUSH2 0x15FA JUMP JUMPDEST PUSH2 0x13A7 JUMP JUMPDEST PUSH2 0x13F6 SWAP1 ADDRESS DUP14 PUSH2 0x16B8 JUMP JUMPDEST CODESIZE PUSH2 0x139B JUMP JUMPDEST PUSH2 0x1406 DUP5 DUP13 PUSH2 0x161D JUMP JUMPDEST PUSH2 0x138B JUMP JUMPDEST SWAP3 POP PUSH2 0x1416 DUP3 PUSH2 0x1D16 JUMP JUMPDEST SWAP3 PUSH2 0x1330 JUMP JUMPDEST POP DUP3 PUSH2 0x1315 JUMP JUMPDEST POP DUP4 PUSH1 0x0 MSTORE PUSH1 0xE PUSH1 0x20 MSTORE DUP9 PUSH1 0x40 PUSH1 0x0 KECCAK256 SLOAD AND ISZERO PUSH2 0x126C JUMP JUMPDEST POP DUP8 PUSH1 0x0 MSTORE PUSH1 0xE PUSH1 0x20 MSTORE DUP9 PUSH1 0x40 PUSH1 0x0 KECCAK256 SLOAD AND ISZERO PUSH2 0x1266 JUMP JUMPDEST POP DUP9 PUSH1 0x8 SLOAD AND ISZERO PUSH2 0x1260 JUMP JUMPDEST PUSH1 0x40 MLOAD PUSH4 0xEC442F05 PUSH1 0xE0 SHL DUP2 MSTORE PUSH1 0x0 PUSH1 0x4 DUP3 ADD MSTORE PUSH1 0x24 SWAP1 REVERT JUMPDEST PUSH1 0x40 MLOAD PUSH4 0x4B637E8F PUSH1 0xE1 SHL DUP2 MSTORE PUSH1 0x0 PUSH1 0x4 DUP3 ADD MSTORE PUSH1 0x24 SWAP1 REVERT JUMPDEST PUSH1 0x1 PUSH1 0x1 PUSH1 0xA0 SHL SUB SWAP1 DUP2 AND SWAP2 DUP3 ISZERO PUSH2 0x150B JUMPI AND SWAP2 DUP3 ISZERO PUSH2 0x14F2 JUMPI PUSH1 0x20 PUSH32 0x8C5BE1E5EBEC7D5BD14F71427D1E84F3DD0314C0F7B2291E5B200AC8C7C3B925 SWAP2 DUP4 PUSH1 0x0 MSTORE PUSH1 0x1 DUP3 MSTORE PUSH1 0x40 PUSH1 0x0 KECCAK256 DUP6 PUSH1 0x0 MSTORE DUP3 MSTORE DUP1 PUSH1 0x40 PUSH1 0x0 KECCAK256 SSTORE PUSH1 0x40 MLOAD SWAP1 DUP2 MSTORE LOG3 JUMP JUMPDEST PUSH1 0x40 MLOAD PUSH4 0x4A1406B1 PUSH1 0xE1 SHL DUP2 MSTORE PUSH1 0x0 PUSH1 0x4 DUP3 ADD MSTORE PUSH1 0x24 SWAP1 REVERT JUMPDEST PUSH1 0x40 MLOAD PUSH4 0xE602DF05 PUSH1 0xE0 SHL DUP2 MSTORE PUSH1 0x0 PUSH1 0x4 DUP3 ADD MSTORE PUSH1 0x24 SWAP1 REVERT JUMPDEST PUSH1 0x40 SWAP2 SWAP5 SWAP4 SWAP3 PUSH1 0x60 DUP3 ADD SWAP6 PUSH1 0x1 DUP1 PUSH1 0xA0 SHL SUB AND DUP3 MSTORE PUSH1 0x20 DUP3 ADD MSTORE ADD MSTORE JUMP JUMPDEST ISZERO PUSH2 0x1549 JUMPI JUMP JUMPDEST PUSH1 0x40 MLOAD PUSH3 0x461BCD PUSH1 0xE5 SHL DUP2 MSTORE PUSH1 0x20 PUSH1 0x4 DUP3 ADD MSTORE PUSH1 0xA PUSH1 0x24 DUP3 ADD MSTORE PUSH10 0x4F6E6C79206375727665 PUSH1 0xB0 SHL PUSH1 0x44 DUP3 ADD MSTORE PUSH1 0x64 SWAP1 REVERT JUMPDEST RETURNDATASIZE ISZERO PUSH2 0x15B5 JUMPI RETURNDATASIZE SWAP1 PUSH1 0x1 PUSH1 0x1 PUSH1 0x40 SHL SUB DUP3 GT PUSH2 0x1206 JUMPI PUSH1 0x40 MLOAD SWAP2 PUSH2 0x15A9 PUSH1 0x1F DUP3 ADD PUSH1 0x1F NOT AND PUSH1 0x20 ADD DUP5 PUSH2 0x11E3 JUMP JUMPDEST DUP3 MSTORE RETURNDATASIZE PUSH1 0x0 PUSH1 0x20 DUP5 ADD RETURNDATACOPY JUMP JUMPDEST PUSH1 0x60 SWAP1 JUMP JUMPDEST DUP2 DUP2 MUL SWAP3 SWAP2 DUP2 ISZERO SWAP2 DUP5 DIV EQ OR ISZERO PUSH2 0x11CD JUMPI JUMP JUMPDEST DUP2 ISZERO PUSH2 0x15D7 JUMPI DIV SWAP1 JUMP JUMPDEST PUSH4 0x4E487B71 PUSH1 0xE0 SHL PUSH1 0x0 MSTORE PUSH1 0x12 PUSH1 0x4 MSTORE PUSH1 0x24 PUSH1 0x0 REVERT JUMPDEST SWAP2 SWAP1 DUP3 SUB SWAP2 DUP3 GT PUSH2 0x11CD JUMPI JUMP JUMPDEST DUP1 SLOAD PUSH1 0x1 PUSH1 0x1 PUSH1 0xC0 SHL SUB AND PUSH1 0xC0 SWAP3 SWAP1 SWAP3 SHL PUSH1 0x1 PUSH1 0x1 PUSH1 0xC0 SHL SUB NOT AND SWAP2 SWAP1 SWAP2 OR SWAP1 SSTORE JUMP JUMPDEST PUSH1 0x1 PUSH1 0x1 PUSH1 0xA0 SHL SUB DUP2 AND SWAP1 DUP2 PUSH2 0x166F JUMPI POP PUSH2 0x163A DUP3 PUSH1 0x2 SLOAD PUSH2 0x11C0 JUMP JUMPDEST PUSH1 0x2 SSTORE JUMPDEST PUSH1 0x0 DUP1 MLOAD PUSH1 0x20 PUSH2 0x21FC DUP4 CODECOPY DUP2 MLOAD SWAP2 MSTORE PUSH1 0x20 PUSH2 0xDEAD SWAP4 DUP5 PUSH1 0x0 MSTORE PUSH1 0x0 DUP3 MSTORE PUSH1 0x40 PUSH1 0x0 KECCAK256 DUP2 DUP2 SLOAD ADD SWAP1 SSTORE PUSH1 0x40 MLOAD SWAP1 DUP2 MSTORE LOG3 JUMP JUMPDEST PUSH1 0x0 SWAP1 DUP3 DUP3 MSTORE DUP2 PUSH1 0x20 MSTORE PUSH1 0x40 DUP3 KECCAK256 SLOAD SWAP1 DUP5 DUP3 LT PUSH2 0x169B JUMPI POP DUP4 PUSH1 0x40 SWAP2 DUP5 DUP5 MSTORE DUP4 PUSH1 0x20 MSTORE SUB SWAP2 KECCAK256 SSTORE PUSH2 0x163E JUMP JUMPDEST PUSH2 0xF6C DUP6 PUSH1 0x40 MLOAD SWAP4 DUP5 SWAP4 PUSH4 0x391434E3 PUSH1 0xE2 SHL DUP6 MSTORE PUSH1 0x4 DUP6 ADD PUSH2 0x1524 JUMP JUMPDEST PUSH1 0x1 PUSH1 0x1 PUSH1 0xA0 SHL SUB DUP1 DUP3 AND SWAP3 SWAP1 SWAP2 DUP4 PUSH2 0x1720 JUMPI POP PUSH1 0x0 DUP1 MLOAD PUSH1 0x20 PUSH2 0x21FC DUP4 CODECOPY DUP2 MLOAD SWAP2 MSTORE SWAP2 PUSH1 0x20 SWAP2 PUSH2 0x16EB DUP7 PUSH1 0x2 SLOAD PUSH2 0x11C0 JUMP JUMPDEST PUSH1 0x2 SSTORE JUMPDEST AND SWAP4 DUP5 PUSH2 0x1708 JUMPI DUP1 PUSH1 0x2 SLOAD SUB PUSH1 0x2 SSTORE JUMPDEST PUSH1 0x40 MLOAD SWAP1 DUP2 MSTORE LOG3 JUMP JUMPDEST DUP5 PUSH1 0x0 MSTORE PUSH1 0x0 DUP3 MSTORE PUSH1 0x40 PUSH1 0x0 KECCAK256 DUP2 DUP2 SLOAD ADD SWAP1 SSTORE PUSH2 0x16FF JUMP JUMPDEST PUSH1 0x0 SWAP1 DUP5 DUP3 MSTORE DUP2 PUSH1 0x20 MSTORE PUSH1 0x40 DUP3 KECCAK256 SLOAD SWAP1 DUP7 DUP3 LT PUSH2 0x175F JUMPI POP SWAP2 DUP2 PUSH1 0x40 DUP8 PUSH1 0x20 SWAP6 DUP9 PUSH1 0x0 DUP1 MLOAD PUSH1 0x20 PUSH2 0x21FC DUP4 CODECOPY DUP2 MLOAD SWAP2 MSTORE SWAP9 SWAP7 MSTORE DUP4 DUP8 MSTORE SUB SWAP2 KECCAK256 SSTORE PUSH2 0x16EF JUMP JUMPDEST PUSH2 0xF6C DUP8 PUSH1 0x40 MLOAD SWAP4 DUP5 SWAP4 PUSH4 0x391434E3 PUSH1 0xE2 SHL DUP6 MSTORE PUSH1 0x4 DUP6 ADD PUSH2 0x1524 JUMP JUMPDEST DUP1 SLOAD PUSH1 0x1 PUSH1 0x80 SHL PUSH1 0x1 PUSH1 0xC0 SHL SUB NOT AND PUSH1 0x80 SWAP3 SWAP1 SWAP3 SHL PUSH1 0x1 PUSH1 0x80 SHL PUSH1 0x1 PUSH1 0xC0 SHL SUB AND SWAP2 SWAP1 SWAP2 OR SWAP1 SSTORE JUMP JUMPDEST PUSH2 0x17AD PUSH2 0x18BB JUMP JUMPDEST ISZERO PUSH2 0x12B9 JUMPI PUSH2 0xDEAD PUSH1 0x0 MSTORE PUSH1 0x9 PUSH1 0x20 MSTORE PUSH1 0x0 DUP1 MLOAD PUSH1 0x20 PUSH2 0x21BC DUP4 CODECOPY DUP2 MLOAD SWAP2 MSTORE DUP1 SLOAD PUSH2 0x12B9 SWAP2 SWAP1 PUSH1 0x1 PUSH1 0x1 PUSH1 0x40 SHL SUB SWAP1 PUSH2 0x180B PUSH2 0x17EF PUSH1 0x80 DUP4 SWAP1 SHR DUP5 AND TIMESTAMP PUSH2 0x15ED JUMP JUMPDEST PUSH1 0x1 DUP6 ADD DUP1 SLOAD SWAP1 SWAP4 SWAP1 SWAP2 PUSH2 0x1012 SWAP2 PUSH1 0x1 PUSH1 0x1 PUSH1 0x80 SHL SUB AND PUSH2 0x15BA JUMP JUMPDEST SWAP1 PUSH1 0xD SLOAD PUSH2 0x181F PUSH1 0x2 DUP7 ADD SWAP2 DUP3 SLOAD SWAP1 PUSH2 0x15ED JUMP JUMPDEST DUP1 ISZERO ISZERO DUP1 PUSH2 0x1867 JUMPI JUMPDEST PUSH2 0x183C JUMPI JUMPDEST POP PUSH1 0xD SLOAD SWAP1 SSTORE SSTORE TIMESTAMP AND SWAP1 PUSH2 0x177C JUMP JUMPDEST PUSH2 0x184F PUSH8 0xDE0B6B3A7640000 SWAP2 DUP6 PUSH2 0x15BA JUMP JUMPDEST DIV PUSH2 0x185F PUSH1 0x3 DUP8 ADD SWAP2 DUP3 SLOAD PUSH2 0x11C0 JUMP JUMPDEST SWAP1 SSTORE CODESIZE PUSH2 0x182D JUMP JUMPDEST POP DUP4 ISZERO ISZERO PUSH2 0x1828 JUMP JUMPDEST PUSH2 0x1879 DUP2 PUSH2 0x18EF JUMP JUMPDEST ISZERO PUSH2 0x18B8 JUMPI PUSH1 0x1 PUSH1 0x1 PUSH1 0xA0 SHL SUB AND PUSH1 0x0 SWAP1 DUP2 MSTORE PUSH1 0x9 PUSH1 0x20 MSTORE PUSH1 0x40 SWAP1 KECCAK256 DUP1 SLOAD PUSH2 0x12B9 SWAP2 SWAP1 PUSH1 0x1 PUSH1 0x1 PUSH1 0x40 SHL SUB SWAP1 PUSH2 0x180B PUSH2 0x17EF PUSH1 0x80 DUP4 SWAP1 SHR DUP5 AND TIMESTAMP PUSH2 0x15ED JUMP JUMPDEST POP JUMP JUMPDEST PUSH2 0xDEAD PUSH1 0x0 MSTORE PUSH1 0xE PUSH1 0x20 MSTORE PUSH32 0xF77E91909E61D18F67B875B2BFCAE1F683A8D555E55382E3A6B082E2C59EA57A SLOAD PUSH1 0xFF AND ISZERO SWAP1 JUMP JUMPDEST PUSH1 0x1 PUSH1 0x1 PUSH1 0xA0 SHL SUB AND DUP1 ISZERO ISZERO SWAP1 DUP2 PUSH2 0x1905 JUMPI POP SWAP1 JUMP JUMPDEST SWAP1 POP PUSH1 0x0 MSTORE PUSH1 0xE PUSH1 0x20 MSTORE PUSH1 0xFF PUSH1 0x40 PUSH1 0x0 KECCAK256 SLOAD AND ISZERO SWAP1 JUMP JUMPDEST PUSH2 0x1924 PUSH2 0x18BB JUMP JUMPDEST ISZERO PUSH2 0x12B9 JUMPI PUSH2 0xDEAD PUSH1 0x0 DUP2 DUP2 MSTORE PUSH1 0x9 PUSH1 0x20 MSTORE PUSH1 0x0 DUP1 MLOAD PUSH1 0x20 PUSH2 0x21BC DUP4 CODECOPY DUP2 MLOAD SWAP2 MSTORE SWAP2 PUSH2 0x194E PUSH2 0x1C39 JUMP JUMPDEST DUP2 MSTORE PUSH1 0x20 DUP2 SWAP1 MSTORE PUSH1 0x40 DUP2 KECCAK256 SLOAD DUP3 SLOAD PUSH1 0x1 PUSH1 0x1 PUSH1 0x80 SHL SUB SWAP1 DUP2 AND DUP1 DUP4 LT SWAP4 SWAP2 SWAP3 SWAP2 SWAP1 DUP5 DUP1 PUSH2 0x1AB3 JUMPI JUMPDEST PUSH2 0x1A66 JUMPI JUMPDEST DUP3 DUP2 DUP2 GT SWAP6 DUP7 PUSH1 0x0 EQ PUSH2 0x1A2A JUMPI POP PUSH2 0x19A0 SWAP3 POP SWAP1 PUSH2 0x1998 SWAP2 PUSH2 0x15ED JUMP JUMPDEST PUSH1 0xC SLOAD PUSH2 0x11C0 JUMP JUMPDEST PUSH1 0xC SSTORE JUMPDEST DUP4 SLOAD PUSH1 0x1 PUSH1 0x1 PUSH1 0x80 SHL SUB NOT AND SWAP2 AND OR DUP3 SSTORE TIMESTAMP PUSH1 0x1 PUSH1 0x1 PUSH1 0x40 SHL SUB AND SWAP1 PUSH2 0x19CA DUP3 DUP5 PUSH2 0x177C JUMP JUMPDEST PUSH1 0xFF PUSH1 0x5 SLOAD AND ISZERO SWAP1 DUP2 PUSH2 0x1A22 JUMPI JUMPDEST POP DUP1 PUSH2 0x19F0 JUMPI JUMPDEST PUSH2 0x19E7 JUMPI POP POP JUMP JUMPDEST PUSH2 0x12B9 SWAP2 PUSH2 0x15FA JUMP JUMPDEST POP CALLER PUSH32 0x0 PUSH1 0x1 PUSH1 0x1 PUSH1 0xA0 SHL SUB AND EQ PUSH2 0x19DF JUMP JUMPDEST SWAP1 POP CODESIZE PUSH2 0x19D8 JUMP JUMPDEST PUSH2 0x1A37 JUMPI JUMPDEST POP POP POP PUSH2 0x19A4 JUMP JUMPDEST PUSH2 0x1A40 SWAP2 PUSH2 0x15ED JUMP JUMPDEST PUSH1 0xC SLOAD DUP2 DUP2 LT PUSH2 0x1A5F JUMPI PUSH2 0x1A54 SWAP3 POP PUSH2 0x15ED JUMP JUMPDEST PUSH1 0xC SSTORE CODESIZE DUP1 DUP3 PUSH2 0x1A2F JUMP JUMPDEST POP POP PUSH2 0x1A54 JUMP JUMPDEST PUSH1 0x1 DUP7 ADD DUP1 SLOAD SWAP1 PUSH2 0x1A8A PUSH2 0x1A83 DUP5 PUSH2 0x1A7E DUP9 DUP7 PUSH2 0x15BA JUMP JUMPDEST PUSH2 0x15CD JUMP JUMPDEST DUP1 SWAP4 PUSH2 0x15ED JUMP JUMPDEST PUSH1 0xA SLOAD DUP2 GT PUSH2 0x1AA9 JUMPI PUSH2 0x1A9F SWAP1 PUSH1 0xA SLOAD PUSH2 0x15ED JUMP JUMPDEST PUSH1 0xA SSTORE JUMPDEST SSTORE PUSH2 0x197B JUMP JUMPDEST POP DUP4 PUSH1 0xA SSTORE PUSH2 0x1AA3 JUMP JUMPDEST POP DUP1 ISZERO ISZERO PUSH2 0x1976 JUMP JUMPDEST PUSH2 0x1AC5 DUP2 PUSH2 0x18EF JUMP JUMPDEST ISZERO PUSH2 0x18B8 JUMPI PUSH1 0x1 PUSH1 0x1 PUSH1 0xA0 SHL SUB SWAP1 DUP2 AND PUSH1 0x0 DUP2 DUP2 MSTORE PUSH1 0x9 PUSH1 0x20 MSTORE PUSH1 0x40 DUP2 KECCAK256 SWAP3 SWAP2 PUSH2 0x1AED PUSH2 0x1C39 JUMP JUMPDEST DUP2 MSTORE PUSH1 0x20 DUP2 SWAP1 MSTORE PUSH1 0x40 DUP2 KECCAK256 SLOAD DUP4 SLOAD PUSH1 0x1 PUSH1 0x1 PUSH1 0x80 SHL SUB SWAP1 DUP2 AND DUP1 DUP4 LT SWAP4 SWAP2 SWAP3 SWAP2 SWAP1 DUP5 DUP1 PUSH2 0x1C30 JUMPI JUMPDEST PUSH2 0x1BEF JUMPI JUMPDEST DUP3 DUP2 DUP2 GT SWAP6 DUP7 PUSH1 0x0 EQ PUSH2 0x1BB3 JUMPI POP PUSH2 0x1B37 SWAP3 POP SWAP1 PUSH2 0x1998 SWAP2 PUSH2 0x15ED JUMP JUMPDEST PUSH1 0xC SSTORE JUMPDEST DUP5 SLOAD PUSH1 0x1 PUSH1 0x1 PUSH1 0x80 SHL SUB NOT AND SWAP2 AND OR DUP4 SSTORE TIMESTAMP PUSH1 0x1 PUSH1 0x1 PUSH1 0x40 SHL SUB AND SWAP2 PUSH2 0x1B61 DUP4 DUP6 PUSH2 0x177C JUMP JUMPDEST PUSH1 0xFF PUSH1 0x5 SLOAD AND ISZERO SWAP2 DUP3 PUSH2 0x1BAB JUMPI JUMPDEST POP DUP2 PUSH2 0x1B7F JUMPI JUMPDEST POP PUSH2 0x19E7 JUMPI POP POP JUMP JUMPDEST SWAP1 POP PUSH32 0x0 AND CALLER EQ CODESIZE PUSH2 0x1B76 JUMP JUMPDEST SWAP2 POP CODESIZE PUSH2 0x1B6F JUMP JUMPDEST PUSH2 0x1BC0 JUMPI JUMPDEST POP POP POP PUSH2 0x1B3B JUMP JUMPDEST PUSH2 0x1BC9 SWAP2 PUSH2 0x15ED JUMP JUMPDEST PUSH1 0xC SLOAD DUP2 DUP2 LT PUSH2 0x1BE8 JUMPI PUSH2 0x1BDD SWAP3 POP PUSH2 0x15ED JUMP JUMPDEST PUSH1 0xC SSTORE CODESIZE DUP1 DUP3 PUSH2 0x1BB8 JUMP JUMPDEST POP POP PUSH2 0x1BDD JUMP JUMPDEST PUSH1 0x1 DUP8 ADD DUP1 SLOAD SWAP1 PUSH2 0x1C07 PUSH2 0x1A83 DUP5 PUSH2 0x1A7E DUP9 DUP7 PUSH2 0x15BA JUMP JUMPDEST PUSH1 0xA SLOAD DUP2 GT PUSH2 0x1C26 JUMPI PUSH2 0x1C1C SWAP1 PUSH1 0xA SLOAD PUSH2 0x15ED JUMP JUMPDEST PUSH1 0xA SSTORE JUMPDEST SSTORE PUSH2 0x1B1A JUMP JUMPDEST POP DUP4 PUSH1 0xA SSTORE PUSH2 0x1C20 JUMP JUMPDEST POP DUP1 ISZERO ISZERO PUSH2 0x1B15 JUMP JUMPDEST PUSH2 0x1C45 PUSH1 0xB SLOAD TIMESTAMP PUSH2 0x15ED JUMP JUMPDEST DUP1 ISZERO ISZERO DUP1 PUSH2 0x1C7A JUMPI JUMPDEST PUSH2 0x1C5A JUMPI JUMPDEST POP TIMESTAMP PUSH1 0xB SSTORE JUMP JUMPDEST PUSH2 0x1C69 PUSH2 0x1C71 SWAP2 PUSH1 0xC SLOAD PUSH2 0x15BA JUMP JUMPDEST PUSH1 0xA SLOAD PUSH2 0x11C0 JUMP JUMPDEST PUSH1 0xA SSTORE CODESIZE PUSH2 0x1C53 JUMP JUMPDEST POP PUSH1 0xC SLOAD ISZERO ISZERO PUSH2 0x1C4E JUMP JUMPDEST DUP1 ISZERO PUSH2 0x18B8 JUMPI PUSH2 0x1C93 PUSH2 0x1C39 JUMP JUMPDEST PUSH1 0xA SLOAD SWAP1 DUP2 ISZERO PUSH2 0x1CF2 JUMPI PUSH8 0xDE0B6B3A7640000 DUP2 MUL SWAP1 PUSH8 0xDE0B6B3A763FFFF NOT DUP2 DUP4 DIV ADD PUSH2 0x11CD JUMPI PUSH2 0x1CE1 PUSH2 0x1CD9 PUSH1 0x0 DUP1 MLOAD PUSH1 0x20 PUSH2 0x21DC DUP4 CODECOPY DUP2 MLOAD SWAP2 MSTORE SWAP5 PUSH1 0x40 SWAP5 PUSH2 0x15CD JUMP JUMPDEST PUSH1 0xD SLOAD PUSH2 0x11C0 JUMP JUMPDEST DUP1 PUSH1 0xD SSTORE DUP3 MLOAD SWAP2 DUP3 MSTORE PUSH1 0x20 DUP3 ADD MSTORE LOG1 JUMP JUMPDEST PUSH1 0x0 DUP1 MLOAD PUSH1 0x20 PUSH2 0x21DC DUP4 CODECOPY DUP2 MLOAD SWAP2 MSTORE SWAP2 POP PUSH1 0x40 SWAP1 PUSH1 0xD SLOAD DUP3 MLOAD SWAP2 DUP3 MSTORE PUSH1 0x20 DUP3 ADD MSTORE LOG1 JUMP JUMPDEST PUSH1 0x1 PUSH1 0x1 PUSH1 0xA0 SHL SUB AND PUSH1 0x0 SWAP1 DUP2 MSTORE PUSH1 0x9 PUSH1 0x20 MSTORE PUSH1 0x40 SWAP1 KECCAK256 SLOAD PUSH1 0xC0 SHR DUP1 ISZERO PUSH2 0x1D75 JUMPI PUSH2 0x1D41 SWAP1 TIMESTAMP PUSH2 0x15ED JUMP JUMPDEST PUSH2 0x12C DUP2 LT PUSH2 0x1D6E JUMPI PUSH2 0xE10 DUP2 LT PUSH2 0x1D67 JUMPI PUSH3 0x15180 GT PUSH2 0x1D61 JUMPI PUSH1 0x0 SWAP1 JUMP JUMPDEST PUSH2 0x1F4 SWAP1 JUMP JUMPDEST POP PUSH2 0x3E8 SWAP1 JUMP JUMPDEST POP PUSH2 0x7D0 SWAP1 JUMP JUMPDEST POP PUSH1 0x0 SWAP1 JUMP JUMPDEST PUSH1 0x0 SWAP1 PUSH1 0xFF NOT DUP1 PUSH1 0x8 SLOAD AND PUSH1 0x1 DUP1 DUP3 OR PUSH1 0x8 SSTORE ADDRESS DUP6 MSTORE PUSH1 0x20 DUP6 DUP2 MSTORE PUSH1 0x40 SWAP2 DUP3 DUP8 KECCAK256 SLOAD SWAP4 DUP5 ISZERO PUSH2 0x2042 JUMPI POP DUP3 MLOAD PUSH1 0x1 PUSH1 0x1 PUSH1 0x40 SHL SUB SWAP1 PUSH1 0x60 DUP2 ADD DUP3 DUP2 GT DUP3 DUP3 LT OR PUSH2 0x202E JUMPI DUP6 MSTORE PUSH1 0x2 DUP2 MSTORE DUP4 DUP2 ADD SWAP6 DUP6 CALLDATASIZE DUP9 CALLDATACOPY DUP2 MLOAD ISZERO PUSH2 0x201A JUMPI ADDRESS DUP8 MSTORE PUSH1 0x6 SLOAD DUP7 MLOAD PUSH4 0x15AB88C9 PUSH1 0xE3 SHL DUP2 MSTORE PUSH1 0x1 PUSH1 0x1 PUSH1 0xA0 SHL SUB SWAP9 SWAP2 DUP10 AND SWAP1 DUP8 DUP2 PUSH1 0x4 DUP2 DUP6 GAS STATICCALL SWAP1 DUP2 ISZERO PUSH2 0x2010 JUMPI DUP14 SWAP2 PUSH2 0x1FDA JUMPI JUMPDEST POP DUP5 MLOAD DUP8 LT ISZERO PUSH2 0x1FC6 JUMPI PUSH2 0x1E25 SWAP2 DUP11 DUP6 SWAP3 AND DUP11 DUP8 ADD MSTORE ADDRESS PUSH2 0x1491 JUMP JUMPDEST SELFBALANCE SWAP5 DUP9 PUSH1 0x6 SLOAD AND SWAP3 DUP4 EXTCODESIZE ISZERO PUSH2 0x1FC2 JUMPI DUP9 MLOAD PUSH4 0x791AC947 PUSH1 0xE0 SHL DUP2 MSTORE PUSH1 0x4 DUP2 ADD SWAP2 SWAP1 SWAP2 MSTORE PUSH1 0x24 DUP2 ADD DUP14 SWAP1 MSTORE PUSH1 0xA0 PUSH1 0x44 DUP3 ADD MSTORE SWAP4 MLOAD PUSH1 0xA4 DUP6 ADD DUP2 SWAP1 MSTORE DUP13 SWAP4 DUP6 SWAP4 SWAP1 SWAP3 PUSH1 0xC4 DUP6 ADD SWAP3 DUP7 DUP12 DUP15 JUMPDEST DUP4 DUP4 LT PUSH2 0x1F9E JUMPI POP POP POP POP POP POP DUP4 DUP4 DUP1 SWAP3 ADDRESS PUSH1 0x64 DUP4 ADD MSTORE TIMESTAMP PUSH1 0x84 DUP4 ADD MSTORE SUB SWAP3 GAS CALL SWAP2 DUP3 PUSH2 0x1F77 JUMPI JUMPDEST POP POP PUSH2 0x1EAD JUMPI JUMPDEST POP POP POP POP SWAP1 SWAP2 POP PUSH1 0x8 SLOAD AND PUSH1 0x8 SSTORE JUMP JUMPDEST PUSH2 0x1EB7 SWAP1 SELFBALANCE PUSH2 0x15ED JUMP JUMPDEST DUP1 ISZERO DUP1 ISZERO PUSH2 0x1EC6 JUMPI JUMPDEST POP PUSH2 0x1E9D JUMP JUMPDEST PUSH1 0x3 DUP3 MUL SWAP1 DUP3 DUP3 DIV PUSH1 0x3 EQ OR ISZERO PUSH2 0x1F63 JUMPI SWAP7 PUSH2 0x1EEB PUSH1 0x7 PUSH2 0x1EFC SWAP8 SWAP9 SWAP10 DIV DUP1 SWAP4 PUSH2 0x15ED JUMP JUMPDEST SWAP5 DUP3 PUSH2 0x1F08 JUMPI JUMPDEST POP POP POP POP POP PUSH2 0x1C85 JUMP JUMPDEST DUP2 SWAP1 CODESIZE DUP1 DUP1 DUP1 DUP1 PUSH2 0x1EC0 JUMP JUMPDEST DUP2 DUP1 DUP5 DUP2 SWAP4 PUSH32 0x0 AND GAS CALL PUSH2 0x1F39 PUSH2 0x157B JUMP JUMPDEST POP PUSH2 0x1F46 JUMPI JUMPDEST DUP1 DUP1 PUSH2 0x1EF2 JUMP JUMPDEST PUSH1 0x0 DUP1 MLOAD PUSH1 0x20 PUSH2 0x219C DUP4 CODECOPY DUP2 MLOAD SWAP2 MSTORE SWAP3 MLOAD SWAP1 DUP2 MSTORE LOG1 CODESIZE DUP1 DUP1 PUSH2 0x1F3F JUMP JUMPDEST PUSH4 0x4E487B71 PUSH1 0xE0 SHL DUP9 MSTORE PUSH1 0x11 PUSH1 0x4 MSTORE PUSH1 0x24 DUP9 REVERT JUMPDEST DUP2 SWAP10 SWAP3 SWAP10 GT PUSH2 0x1F8A JUMPI DUP5 MSTORE SWAP7 CODESIZE DUP1 PUSH2 0x1E96 JUMP JUMPDEST PUSH4 0x4E487B71 PUSH1 0xE0 SHL DUP3 MSTORE PUSH1 0x41 PUSH1 0x4 MSTORE PUSH1 0x24 DUP3 REVERT JUMPDEST DUP5 SWAP8 SWAP10 POP DUP6 DUP3 SWAP5 SWAP8 SWAP3 SWAP4 SWAP7 SWAP10 POP MLOAD AND DUP2 MSTORE ADD SWAP6 ADD SWAP2 ADD SWAP3 DUP7 SWAP5 SWAP3 DUP16 SWAP7 SWAP5 DUP12 DUP15 PUSH2 0x1E6E JUMP JUMPDEST DUP13 DUP1 REVERT JUMPDEST PUSH4 0x4E487B71 PUSH1 0xE0 SHL DUP14 MSTORE PUSH1 0x32 PUSH1 0x4 MSTORE PUSH1 0x24 DUP14 REVERT JUMPDEST SWAP1 POP DUP8 DUP2 DUP2 RETURNDATASIZE DUP4 GT PUSH2 0x2009 JUMPI JUMPDEST PUSH2 0x1FF1 DUP2 DUP4 PUSH2 0x11E3 JUMP JUMPDEST DUP2 ADD SUB SLT PUSH2 0x1FC2 JUMPI MLOAD DUP10 DUP2 AND DUP2 SUB PUSH2 0x1FC2 JUMPI CODESIZE PUSH2 0x1E09 JUMP JUMPDEST POP RETURNDATASIZE PUSH2 0x1FE7 JUMP JUMPDEST DUP10 MLOAD RETURNDATASIZE DUP16 DUP3 RETURNDATACOPY RETURNDATASIZE SWAP1 REVERT JUMPDEST PUSH4 0x4E487B71 PUSH1 0xE0 SHL DUP11 MSTORE PUSH1 0x32 PUSH1 0x4 MSTORE PUSH1 0x24 DUP11 REVERT JUMPDEST PUSH4 0x4E487B71 PUSH1 0xE0 SHL DUP11 MSTORE PUSH1 0x41 PUSH1 0x4 MSTORE PUSH1 0x24 DUP11 REVERT JUMPDEST SWAP6 SWAP7 POP POP POP POP POP POP PUSH1 0x8 SSTORE JUMP JUMPDEST PUSH2 0x2058 DUP2 PUSH2 0x18EF JUMP JUMPDEST ISZERO PUSH2 0x1D75 JUMPI PUSH1 0x1 PUSH1 0x1 PUSH1 0xA0 SHL SUB AND PUSH1 0x0 SWAP1 DUP2 MSTORE PUSH1 0x9 PUSH1 0x20 MSTORE PUSH1 0x40 SWAP1 KECCAK256 DUP1 SLOAD PUSH2 0x20F1 SWAP2 SWAP1 PUSH1 0x3 SWAP1 PUSH2 0x20B0 SWAP1 PUSH2 0x1012 PUSH2 0x209C PUSH1 0x80 DUP4 SWAP1 SHR PUSH1 0x1 PUSH1 0x1 PUSH1 0x40 SHL SUB AND TIMESTAMP PUSH2 0x15ED JUMP JUMPDEST PUSH1 0x1 DUP7 ADD SLOAD SWAP3 PUSH1 0x1 PUSH1 0x1 PUSH1 0x80 SHL SUB AND PUSH2 0x15BA JUMP JUMPDEST PUSH2 0x20C1 PUSH1 0xD SLOAD PUSH1 0x2 DUP6 ADD SLOAD SWAP1 PUSH2 0x15ED JUMP JUMPDEST SWAP1 DUP1 ISZERO ISZERO DUP1 PUSH2 0x20FD JUMPI JUMPDEST PUSH1 0x0 SWAP1 ISZERO PUSH2 0x20F4 JUMPI POP PUSH8 0xDE0B6B3A7640000 SWAP2 PUSH2 0x20E7 SWAP2 PUSH2 0x15BA JUMP JUMPDEST DIV SWAP2 JUMPDEST ADD SLOAD PUSH2 0x11C0 JUMP JUMPDEST SWAP1 JUMP JUMPDEST SWAP2 POP POP SWAP2 PUSH2 0x20EA JUMP JUMPDEST POP DUP2 ISZERO ISZERO PUSH2 0x20CB JUMP JUMPDEST PUSH2 0x210F DUP2 PUSH2 0x18EF JUMP JUMPDEST ISZERO PUSH2 0x1D75 JUMPI PUSH1 0x1 PUSH1 0x1 PUSH1 0xA0 SHL SUB AND PUSH1 0x0 SWAP1 DUP2 MSTORE PUSH1 0x9 PUSH1 0x20 MSTORE PUSH1 0x40 SWAP1 KECCAK256 DUP1 SLOAD PUSH2 0x20F1 SWAP2 PUSH2 0x1012 SWAP1 PUSH1 0x1 PUSH2 0x214E PUSH1 0x80 DUP6 SWAP1 SHR PUSH1 0x1 PUSH1 0x1 PUSH1 0x40 SHL SUB AND TIMESTAMP PUSH2 0x15ED JUMP JUMPDEST SWAP2 ADD SLOAD SWAP3 PUSH1 0x1 PUSH1 0x1 PUSH1 0x80 SHL SUB AND PUSH2 0x15BA JUMP JUMPDEST ISZERO PUSH2 0x2167 JUMPI JUMP JUMPDEST PUSH1 0x40 MLOAD PUSH3 0x461BCD PUSH1 0xE5 SHL DUP2 MSTORE PUSH1 0x20 PUSH1 0x4 DUP3 ADD MSTORE PUSH1 0xC PUSH1 0x24 DUP3 ADD MSTORE PUSH12 0x4F6E6C7920666163746F7279 PUSH1 0xA0 SHL PUSH1 0x44 DUP3 ADD MSTORE PUSH1 0x64 SWAP1 REVERT INVALID PUSH10 0x3F9DBEA0BDF9B70D480F SWAP6 0x27 0xE5 PUSH8 0xD17AE3A41A5627C6 MLOAD JUMPDEST SUB 0x4A 0xC1 DUP7 SWAP13 0xF7 LOG0 SWAP7 SIGNEXTEND LT MLOAD PUSH21 0x9987B45B5679007FFF577A1C2F763EC21C15A6C5EB NOT ADDRESS PUSH22 0x37858AD0C4905AA5603107E860E0C2B1A78E23EBA3 SLT 0xC3 0xF DUP2 EQ 0xA7 0xD SWAP5 0xD9 0xE1 DUP8 CREATE2 0xAF 0xDD CALLCODE MSTORE 0xAD SHL 0xE2 0xC8 SWAP12 PUSH10 0xC2B068FC378DAA952BA7 CALL PUSH4 0xC4A11628 CREATE2 GAS 0x4D CREATE2 0x23 0xB3 0xEF 0xE9 0xBC SWAP2 LOG3 RETURNDATASIZE 0xDF DUP10 PUSH14 0x889747B2F39F4192C802FD623647 DUP1 ADDMOD PUSH9 0x53FCD8E19E8FFAA264 PUSH10 0x70667358221220680057 LOG0 PUSH30 0x3D00D02DAC863A111077020B953D6CE42E0B8FBFD6F38B7A3826B464736F PUSH13 0x634300081400338AD0C4905AA5 PUSH1 0x31 SMOD 0xE8 PUSH1 0xE0 0xC2 0xB1 0xA7 DUP15 0x23 0xEB LOG3 SLT 0xC3 0xF DUP2 EQ 0xA7 0xD SWAP5 0xD9 0xE1 DUP8 CREATE2 0xAF 0xDD CALLCODE MSTORE 0xAD SHL 0xE2 0xC8 SWAP12 PUSH10 0xC2B068FC378DAA952BA7 CALL PUSH4 0xC4A11628 CREATE2 GAS 0x4D CREATE2 0x23 0xB3 0xEF LOG2 PUSH5 0x6970667358 0x22 SLT KECCAK256 SWAP1 BALANCE 0xC9 DUP12 PUSH18 0x369648572A9155F91C850812A68E6426DE9 0xF 0xC6 JUMP 0xB5 SWAP13 PUSH17 0x13FA0664736F6C63430008140033000000 "},"methodIdentifiers":{"deployPair(string,string)":"390274ed","factory()":"c45a0155","uniswapRouter()":"735de9f7"}}}}}