{"contracts/v2/AethpadBondingCurveV2.sol":{"AethpadBondingCurveV2":{"abi":[{"inputs":[{"internalType":"address","name":"_factory","type":"address"},{"internalType":"address","name":"_uniswapRouter","type":"address"}],"stateMutability":"nonpayable","type":"constructor"},{"inputs":[],"name":"ReentrancyGuardReentrantCall","type":"error"},{"anonymous":false,"inputs":[{"indexed":true,"internalType":"address","name":"buyer","type":"address"},{"indexed":false,"internalType":"uint256","name":"ethIn","type":"uint256"},{"indexed":false,"internalType":"uint256","name":"ethForCurve","type":"uint256"},{"indexed":false,"internalType":"uint256","name":"tokensOut","type":"uint256"},{"indexed":false,"internalType":"uint256","name":"progressBps","type":"uint256"}],"name":"Buy","type":"event"},{"anonymous":false,"inputs":[{"indexed":true,"internalType":"address","name":"withdrawTo","type":"address"},{"indexed":false,"internalType":"uint256","name":"ethAmount","type":"uint256"}],"name":"ForceClosed","type":"event"},{"anonymous":false,"inputs":[{"indexed":false,"internalType":"uint256","name":"ethToLp","type":"uint256"},{"indexed":false,"internalType":"uint256","name":"tokensToLp","type":"uint256"},{"indexed":false,"internalType":"address","name":"pair","type":"address"}],"name":"Graduated","type":"event"},{"anonymous":false,"inputs":[{"indexed":true,"internalType":"address","name":"seller","type":"address"},{"indexed":false,"internalType":"uint256","name":"tokensIn","type":"uint256"},{"indexed":false,"internalType":"uint256","name":"ethOutGross","type":"uint256"},{"indexed":false,"internalType":"uint256","name":"ethToUser","type":"uint256"},{"indexed":false,"internalType":"uint256","name":"progressBps","type":"uint256"}],"name":"Sell","type":"event"},{"inputs":[],"name":"BURN_BPS","outputs":[{"internalType":"uint256","name":"","type":"uint256"}],"stateMutability":"view","type":"function"},{"inputs":[],"name":"CURVE_TOKEN_SUPPLY","outputs":[{"internalType":"uint256","name":"","type":"uint256"}],"stateMutability":"view","type":"function"},{"inputs":[],"name":"GRAD_TOKEN_SUPPLY","outputs":[{"internalType":"uint256","name":"","type":"uint256"}],"stateMutability":"view","type":"function"},{"inputs":[],"name":"PLATFORM_BPS","outputs":[{"internalType":"uint256","name":"","type":"uint256"}],"stateMutability":"view","type":"function"},{"inputs":[],"name":"REWARD_BPS","outputs":[{"internalType":"uint256","name":"","type":"uint256"}],"stateMutability":"view","type":"function"},{"inputs":[],"name":"SNIPE_BPS_1HR","outputs":[{"internalType":"uint256","name":"","type":"uint256"}],"stateMutability":"view","type":"function"},{"inputs":[],"name":"SNIPE_BPS_24HR","outputs":[{"internalType":"uint256","name":"","type":"uint256"}],"stateMutability":"view","type":"function"},{"inputs":[],"name":"SNIPE_BPS_5MIN","outputs":[{"internalType":"uint256","name":"","type":"uint256"}],"stateMutability":"view","type":"function"},{"inputs":[],"name":"TARGET_REAL_ETH","outputs":[{"internalType":"uint256","name":"","type":"uint256"}],"stateMutability":"view","type":"function"},{"inputs":[],"name":"VIRTUAL_ETH","outputs":[{"internalType":"uint256","name":"","type":"uint256"}],"stateMutability":"view","type":"function"},{"inputs":[{"internalType":"uint256","name":"minTokensOut","type":"uint256"}],"name":"buy","outputs":[{"internalType":"uint256","name":"tokensToUser","type":"uint256"}],"stateMutability":"payable","type":"function"},{"inputs":[],"name":"currentPrice","outputs":[{"internalType":"uint256","name":"","type":"uint256"}],"stateMutability":"view","type":"function"},{"inputs":[],"name":"factory","outputs":[{"internalType":"address","name":"","type":"address"}],"stateMutability":"view","type":"function"},{"inputs":[{"internalType":"address","name":"to","type":"address"}],"name":"forceCloseAndWithdraw","outputs":[],"stateMutability":"nonpayable","type":"function"},{"inputs":[],"name":"forceClosed","outputs":[{"internalType":"bool","name":"","type":"bool"}],"stateMutability":"view","type":"function"},{"inputs":[{"internalType":"uint256","name":"ethAmount","type":"uint256"}],"name":"getBuyAmount","outputs":[{"internalType":"uint256","name":"tokensToUser","type":"uint256"}],"stateMutability":"view","type":"function"},{"inputs":[{"internalType":"uint256","name":"tokenAmount","type":"uint256"},{"internalType":"address","name":"seller","type":"address"}],"name":"getSellAmount","outputs":[{"internalType":"uint256","name":"ethToUser","type":"uint256"}],"stateMutability":"view","type":"function"},{"inputs":[],"name":"graduated","outputs":[{"internalType":"bool","name":"","type":"bool"}],"stateMutability":"view","type":"function"},{"inputs":[{"internalType":"address","name":"_token","type":"address"}],"name":"initToken","outputs":[],"stateMutability":"nonpayable","type":"function"},{"inputs":[{"internalType":"address","name":"","type":"address"}],"name":"lastBuyAt","outputs":[{"internalType":"uint64","name":"","type":"uint64"}],"stateMutability":"view","type":"function"},{"inputs":[],"name":"progressBps","outputs":[{"internalType":"uint256","name":"","type":"uint256"}],"stateMutability":"view","type":"function"},{"inputs":[],"name":"realEthRaised","outputs":[{"internalType":"uint256","name":"","type":"uint256"}],"stateMutability":"view","type":"function"},{"inputs":[{"internalType":"uint256","name":"tokenAmount","type":"uint256"},{"internalType":"uint256","name":"minEthOut","type":"uint256"}],"name":"sell","outputs":[{"internalType":"uint256","name":"ethToUser","type":"uint256"}],"stateMutability":"nonpayable","type":"function"},{"inputs":[],"name":"token","outputs":[{"internalType":"contract IAethpadTokenV2","name":"","type":"address"}],"stateMutability":"view","type":"function"},{"inputs":[],"name":"uniswapFactory","outputs":[{"internalType":"contract IUniswapV2Factory","name":"","type":"address"}],"stateMutability":"view","type":"function"},{"inputs":[],"name":"uniswapRouter","outputs":[{"internalType":"contract IUniswapV2Router02","name":"","type":"address"}],"stateMutability":"view","type":"function"},{"inputs":[],"name":"virtualTokenReserve","outputs":[{"internalType":"uint256","name":"","type":"uint256"}],"stateMutability":"view","type":"function"},{"stateMutability":"payable","type":"receive"}],"evm":{"bytecode":{"linkReferences":{},"object":"60e080604052346200015157604081620019f5803803809162000023828562000156565b83398101031262000151576200004760206200003f8362000190565b920162000190565b9060017f9b779b17422d0df92223018b32b4d1fa46e071723d6817e2486d003becc55f00556080526004602060018060a01b038093168060a0526040519283809263c45a015560e01b82525afa908115620001455760009162000101575b501660c0526b0295be96e64066972000000060015560405161184f9081620001a682396080518181816101df01528181610efb01526111b1015260a0518181816104980152611073015260c051818181610513015261102f0152f35b906020823d82116200013c575b816200011d6020938362000156565b81010312620001395750620001329062000190565b38620000a5565b80fd5b3d91506200010e565b6040513d6000823e3d90fd5b600080fd5b601f909101601f19168101906001600160401b038211908210176200017a57604052565b634e487b7160e01b600052604160045260246000fd5b51906001600160a01b0382168203620001515756fe6080604081815260049182361015610022575b505050361561002057600080fd5b005b600092833560e01c918263130b312014611316575081631fb87f39146112f6578163343ee3b7146112d757816347b12bfc146112bb57816350b894181461117e57816355ee54a11461113d5781636700c0c31461111a5781636c1eba15146110fd57816371c1b833146110c957816372d6e43a146110a2578163735de9f71461105e5781638bdb2afa1461101a57816394562afb14610ff75781639d1b464a14610f8a5781639f870a7514610f64578163a37a9fc014610e9e578163bacf2a7b14610f47578163bb103cbc14610f2a578163c45a015514610ee6578163c463ecd714610ec9578163c8f3bfd314610ea3578163ce91e16414610e9e578163d79875eb14610ac2578163d96a094a14610250578163df4d17dc146101a857508063e7c2b772146101855763fc0c546a1461015b5780610012565b34610181578160031936011261018157905490516001600160a01b039091168152602090f35b5080fd5b503461018157816003193601126101815760209060ff6003541690519015158152f35b9190503461024c57602036600319011261024c576101c4611332565b8354926001600160a01b039283851661021a575050610206827f0000000000000000000000000000000000000000000000000000000000000000163314611364565b6001600160a01b0319909216911617815580f35b906020606492519162461bcd60e51b8352820152600c60248201526b105b1c9958591e481a5b9a5d60a21b6044820152fd5b8280fd5b602084843660031901831361018157610267611547565b61027f60035460ff8116159081610ab3575b5061139f565b3415610a885760c834029134830460c803610a75576127108093049260963402348104609603610a6257819004906102c0826102bb8734611423565b611423565b91600254956729a2241af62c000096808801809811610a4f576103046102fd600154996102f7886102f18d846113da565b92611430565b90611403565b8099611423565b938415610311811561143d565b60968602908682046096141715610a3c5791610334879261034a94048097611423565b996103428d358c1015611475565b600155611430565b600255806109e3575b5080610994575b5080610932575b5060018060a01b03906103908686848654168a87895180968195829463a9059cbb60e01b845233908401611510565b03925af190811561092857849161090b575b50156108d45733835286865283832080546001600160401b031916426001600160401b03161790557f064fb1933e186be0b289a87e98518dc18cc9856ecbc9f1353d1a138ddf733ec56104056103f66115ef565b8651918291893396348561152b565b0390a2674563918244f400006002541015610435575b505060016000805160206117fa8339815191525551908152f35b600160ff19600354161760035547916aa56fa5b99019a5c800000090828154168551986370a0823160e01b808b5230828c015260249a8a818d81875afa9081156108355785916108a7575b5085811061089f575b50875163095ea7b360e01b81527f00000000000000000000000000000000000000000000000000000000000000008716938b9082908188816104ce8c8b8b8401611510565b03925af1908115610835578591610872575b501561083f5787516315ab88c960e31b81529a8a8c8481875afa8015610835578b9c869c98999a9b9c91610818575b50887f000000000000000000000000000000000000000000000000000000000000000016898754168c519963e6a4390560e01b8b528a8061055386858b84016115d5565b0381855afa998a1561080e57908f939291899b6107ef575b508d8c8c1615610779575b50505050508785541661012c4201804211610767578b519163f305d71960e01b835285830152878383015286604483015286606483015261dead608483015260a482015260608160c4818d895af1801561072e57610738575b5087855416918a5190815230848201528c818381865afa90811561072e5786916106fc575b50806106a1575b5050508583541690813b1561069d57918391868361062d958c519687958694859363c7b1280160e01b855284016115d5565b03925af180156106935761067c575b505084519384528684015216818301527fe8284482a896de2fb31532f8a0c0f64867b8d0586ff49dbd54ddf4cddb2c036590606090a1908291848061041b565b61068682916114ac565b610690578061063c565b80fd5b87513d84823e3d90fd5b8380fd5b823b156106f8578a516316c2401160e21b8152848101919091529185918391829084905af180156106ee579084916106da575b806105fb565b6106e3906114ac565b61024c57828b6106d4565b89513d86823e3d90fd5b8580fd5b90508c81813d8311610727575b61071381836114d5565b8101031261072257518d6105f4565b600080fd5b503d610709565b8b513d88823e3d90fd5b606090813d8111610760575b61074e81836114d5565b8101031261075c578c6105cf565b8480fd5b503d610744565b634e487b7160e01b8752601185528287fd5b61079a959b508990518096819582946364e329cb60e11b84528b84016115d5565b03925af19081156107e55785916107b8575b50958b8d80808d610576565b6107d891508c8d3d106107de575b6107d081836114d5565b8101906115b6565b8c6107ac565b503d6107c6565b8a513d87823e3d90fd5b610807919b50843d86116107de576107d081836114d5565b993861056b565b8d513d8a823e3d90fd5b61082f9150883d8a116107de576107d081836114d5565b8d61050f565b89513d87823e3d90fd5b875162461bcd60e51b81528083018b9052600e818d01526d105c1c1c9bdd994819985a5b195960921b6044820152606490fd5b61089291508b3d8d11610898575b61088a81836114d5565b8101906114f8565b8c6104e0565b503d610880565b94508b610489565b90508a81813d83116108cd575b6108be81836114d5565b8101031261072257518c610480565b503d6108b4565b835162461bcd60e51b81528088018790526011602482015270151bdad95b881e19995c8819985a5b1959607a1b6044820152606490fd5b6109229150873d89116108985761088a81836114d5565b886103a2565b85513d86823e3d90fd5b82546001600160a01b031690813b1561069d57839160248392875194859384926316c2401160e21b84528d8401525af1801561098a57908391610976575b50610361565b61097f906114ac565b610181578187610970565b84513d85823e3d90fd5b83546001600160a01b0316803b1561075c578490898751809481936316f1a0a760e31b83525af18015610928579084916109cf575b5061035a565b6109d8906114ac565b61024c5782886109c9565b84546001600160a01b0316803b156106f85785908a88518094819363523aa0dd60e11b83525af18015610a3257908591610a1e575b50610353565b610a27906114ac565b61069d578389610a18565b86513d87823e3d90fd5b634e487b7160e01b885260118c52602488fd5b634e487b7160e01b865260118a52602486fd5b634e487b7160e01b835260118752602483fd5b634e487b7160e01b815260118552602490fd5b5162461bcd60e51b8152808401839052600660248201526509cde408aa8960d31b6044820152606490fd5b60ff915060081c161586610279565b8383346101815780600319360112610181578235610ade611547565b610af560035460ff8116159081610ab3575061139f565b8015610e6f5760968102818104609603610e5c5761271080910494610b1a8684611423565b9560018060a01b0386818154169287516323b872dd60e01b8152338682015260249430868301528860448301528160648160209d8e945af1908115610e52578391610e35575b5015610dfe5780610db2575b5090600254946729a2241af62c000099868b01809b11610d6157610ba0999a610bad610ba6610bb3936001549d8e856113da565b9d611430565b809c611403565b90611423565b95808711610d745786610bd59181159b610bcd8d1561143d565b600155611423565b600255610be133611624565b60c8018060c811610d6157610bf78291886113da565b049860968702908782046096141715610d61570490610c1a826102bb8b89611423565b98610c2885358b1015611475565b80610d19575b5081610cd8575b505080808089335af1610c46611577565b5015610ca4575050837f483f8aec0fd892ac72ad1ba8d0e9c9e73db59c12d263fd71de480b5b3deeae3c91610c89610c7c6115ef565b865193849333978561152b565b0390a260016000805160206117fa8339815191525551908152f35b845162461bcd60e51b8152918201879052600f908201526e115512081cd95b990819985a5b1959608a1b6044820152606490fd5b825416803b1561024c578290858951809481936316f1a0a760e31b83525af180156106935790829115610c3557610d0e906114ac565b610690578089610c35565b81845416803b1561075c578490878b518094819363523aa0dd60e11b83525af180156106ee57908491610d4d575b50610c2e565b610d56906114ac565b61024c57828b610d47565b5050634e487b7160e01b82525060118352fd5b885162461bcd60e51b81528087018c905260198187015278496e73756666696369656e742045544820696e20637572766560381b6044820152606490fd5b8282541690813b1561024c5782918583928b5194859384926316c2401160e21b84528b8401525af18015610df45715610b6c57610dee906114ac565b89610b6c565b88513d84823e3d90fd5b875162461bcd60e51b81528086018a905260128186015271151c985b9cd9995c881a5b8819985a5b195960721b6044820152606490fd5b610e4c91508a3d8c116108985761088a81836114d5565b8b610b60565b89513d85823e3d90fd5b634e487b7160e01b845260118552602484fd5b815162461bcd60e51b815260208186015260096024820152684e6f20746f6b656e7360b81b6044820152606490fd5b611348565b505034610181578160031936011261018157602090516aa56fa5b99019a5c80000008152f35b505034610181578160031936011261018157602090516103e88152f35b505034610181578160031936011261018157517f00000000000000000000000000000000000000000000000000000000000000006001600160a01b03168152602090f35b505034610181578160031936011261018157602090516107d08152f35b505034610181578160031936011261018157602090516101f48152f35b505034610181578160031936011261018157516714adf4b7320334b9601d1b8152602090f35b828434610690578060031936011261069057600254926729a2241af62c0000938401809411610fe457670de0b6b3a764000093848102948186041490151715610fe457602083610fdd8660015490611403565b9051908152f35b634e487b7160e01b825260119052602490fd5b50503461018157816003193601126101815760209051674563918244f400008152f35b505034610181578160031936011261018157517f00000000000000000000000000000000000000000000000000000000000000006001600160a01b03168152602090f35b505034610181578160031936011261018157517f00000000000000000000000000000000000000000000000000000000000000006001600160a01b03168152602090f35b50503461018157816003193601126101815760209060ff60035460081c1690519015158152f35b90503461024c578160031936011261024c57602435926001600160a01b03841684036106905750602092610fdd9135611721565b505034610181578160031936011261018157602090610fdd6115ef565b505034610181578160031936011261018157602090516729a2241af62c00008152f35b90503461024c57602036600319011261024c57602092906001600160a01b03611164611332565b16825283528190205490516001600160401b039091168152f35b9190503461024c57602036600319011261024c5761119a611332565b6111a2611547565b6001600160a01b03916111d8337f0000000000000000000000000000000000000000000000000000000000000000851614611364565b60035460ff81166112845761ff00191661010017600355479384611239575b505192835216907f16bfc55cfda3eb65b74e8fe52a8804e222bdb31aef30599b41adeb45893f66a990602090a260016000805160206117fa8339815191525580f35b85808080888888165af161124b611577565b506111f7576020606492519162461bcd60e51b8352820152600f60248201526e15da5d1a191c985dc819985a5b1959608a1b6044820152fd5b815162461bcd60e51b81526020818701526011602482015270105b1c9958591e4819dc98591d585d1959607a1b6044820152606490fd5b5050346101815781600319360112610181576020905160c88152f35b5050346101815781600319360112610181576020906001549051908152f35b8284346106905760203660031901126106905750610fdd6020923561168f565b8490346101815781600319360112610181576020906002548152f35b600435906001600160a01b038216820361072257565b3461072257600036600319011261072257602060405160968152f35b1561136b57565b60405162461bcd60e51b815260206004820152600c60248201526b4f6e6c7920666163746f727960a01b6044820152606490fd5b156113a657565b60405162461bcd60e51b815260206004820152600c60248201526b10dd5c9d994818db1bdcd95960a21b6044820152606490fd5b818102929181159184041417156113ed57565b634e487b7160e01b600052601160045260246000fd5b811561140d570490565b634e487b7160e01b600052601260045260246000fd5b919082039182116113ed57565b919082018092116113ed57565b1561144457565b60405162461bcd60e51b8152602060048201526009602482015268151bdbc81cdb585b1b60ba1b6044820152606490fd5b1561147c57565b60405162461bcd60e51b8152602060048201526008602482015267536c69707061676560c01b6044820152606490fd5b6001600160401b0381116114bf57604052565b634e487b7160e01b600052604160045260246000fd5b601f909101601f19168101906001600160401b038211908210176114bf57604052565b90816020910312610722575180151581036107225790565b6001600160a01b039091168152602081019190915260400190565b9094939260609260808301968352602083015260408201520152565b6000805160206117fa83398151915260028154146115655760029055565b604051633ee5aeb560e01b8152600490fd5b3d156115b1573d906001600160401b0382116114bf57604051916115a5601f8201601f1916602001846114d5565b82523d6000602084013e565b606090565b9081602091031261072257516001600160a01b03811681036107225790565b6001600160a01b0391821681529116602082015260400190565b60ff6003541661161e57600254612710908181029181830414901517156113ed57674563918244f40000900490565b61271090565b6001600160a01b03166000908152600460205260409020546001600160401b03168015611689576116559042611423565b61012c811061168257610e10811061167b57620151801161167557600090565b6101f490565b506103e890565b506107d090565b50600090565b60035460ff8116908115611713575b50611689576125b2908181029181830414901517156113ed576002546729a2241af62c00009081018091116113ed576116f290610bad600154916102f76116e584836113da565b9161271080970490611430565b6096810291818304609614821517156113ed57611710920490611423565b90565b60ff915060081c163861169e565b60035460ff81169081156117eb575b506117e4576096810290808204609614811517156113ed576117589061271080930490611423565b91600254926729a2241af62c00008481018091116113ed57610bad611788926102f7600154916102f183866113da565b928084116117da575b5061179b90611624565b8060c801908160c8116113ed5761015e018091116113ed576117bd90836113da565b046000918181116000146117d5576117109250611423565b505090565b925061179b611791565b5050600090565b60ff915060081c163861173056fe9b779b17422d0df92223018b32b4d1fa46e071723d6817e2486d003becc55f00a26469706673582212206b357500352d963aebe7f0c5532f2e5b9ab6d8fc15871b25bae1e5c316f2af6564736f6c63430008140033","opcodes":"PUSH1 0xE0 DUP1 PUSH1 0x40 MSTORE CALLVALUE PUSH3 0x151 JUMPI PUSH1 0x40 DUP2 PUSH3 0x19F5 DUP1 CODESIZE SUB DUP1 SWAP2 PUSH3 0x23 DUP3 DUP6 PUSH3 0x156 JUMP JUMPDEST DUP4 CODECOPY DUP2 ADD SUB SLT PUSH3 0x151 JUMPI PUSH3 0x47 PUSH1 0x20 PUSH3 0x3F DUP4 PUSH3 0x190 JUMP JUMPDEST SWAP3 ADD PUSH3 0x190 JUMP JUMPDEST SWAP1 PUSH1 0x1 PUSH32 0x9B779B17422D0DF92223018B32B4D1FA46E071723D6817E2486D003BECC55F00 SSTORE PUSH1 0x80 MSTORE PUSH1 0x4 PUSH1 0x20 PUSH1 0x1 DUP1 PUSH1 0xA0 SHL SUB DUP1 SWAP4 AND DUP1 PUSH1 0xA0 MSTORE PUSH1 0x40 MLOAD SWAP3 DUP4 DUP1 SWAP3 PUSH4 0xC45A0155 PUSH1 0xE0 SHL DUP3 MSTORE GAS STATICCALL SWAP1 DUP2 ISZERO PUSH3 0x145 JUMPI PUSH1 0x0 SWAP2 PUSH3 0x101 JUMPI JUMPDEST POP AND PUSH1 0xC0 MSTORE PUSH12 0x295BE96E640669720000000 PUSH1 0x1 SSTORE PUSH1 0x40 MLOAD PUSH2 0x184F SWAP1 DUP2 PUSH3 0x1A6 DUP3 CODECOPY PUSH1 0x80 MLOAD DUP2 DUP2 DUP2 PUSH2 0x1DF ADD MSTORE DUP2 DUP2 PUSH2 0xEFB ADD MSTORE PUSH2 0x11B1 ADD MSTORE PUSH1 0xA0 MLOAD DUP2 DUP2 DUP2 PUSH2 0x498 ADD MSTORE PUSH2 0x1073 ADD MSTORE PUSH1 0xC0 MLOAD DUP2 DUP2 DUP2 PUSH2 0x513 ADD MSTORE PUSH2 0x102F ADD MSTORE RETURN JUMPDEST SWAP1 PUSH1 0x20 DUP3 RETURNDATASIZE DUP3 GT PUSH3 0x13C JUMPI JUMPDEST DUP2 PUSH3 0x11D PUSH1 0x20 SWAP4 DUP4 PUSH3 0x156 JUMP JUMPDEST DUP2 ADD SUB SLT PUSH3 0x139 JUMPI POP PUSH3 0x132 SWAP1 PUSH3 0x190 JUMP JUMPDEST CODESIZE PUSH3 0xA5 JUMP JUMPDEST DUP1 REVERT JUMPDEST RETURNDATASIZE SWAP2 POP PUSH3 0x10E JUMP JUMPDEST PUSH1 0x40 MLOAD RETURNDATASIZE PUSH1 0x0 DUP3 RETURNDATACOPY RETURNDATASIZE SWAP1 REVERT JUMPDEST PUSH1 0x0 DUP1 REVERT JUMPDEST PUSH1 0x1F SWAP1 SWAP2 ADD PUSH1 0x1F NOT AND DUP2 ADD SWAP1 PUSH1 0x1 PUSH1 0x1 PUSH1 0x40 SHL SUB DUP3 GT SWAP1 DUP3 LT OR PUSH3 0x17A JUMPI PUSH1 0x40 MSTORE JUMP JUMPDEST PUSH4 0x4E487B71 PUSH1 0xE0 SHL PUSH1 0x0 MSTORE PUSH1 0x41 PUSH1 0x4 MSTORE PUSH1 0x24 PUSH1 0x0 REVERT JUMPDEST MLOAD SWAP1 PUSH1 0x1 PUSH1 0x1 PUSH1 0xA0 SHL SUB DUP3 AND DUP3 SUB PUSH3 0x151 JUMPI JUMP INVALID PUSH1 0x80 PUSH1 0x40 DUP2 DUP2 MSTORE PUSH1 0x4 SWAP2 DUP3 CALLDATASIZE LT ISZERO PUSH2 0x22 JUMPI JUMPDEST POP POP POP CALLDATASIZE ISZERO PUSH2 0x20 JUMPI PUSH1 0x0 DUP1 REVERT JUMPDEST STOP JUMPDEST PUSH1 0x0 SWAP3 DUP4 CALLDATALOAD PUSH1 0xE0 SHR SWAP2 DUP3 PUSH4 0x130B3120 EQ PUSH2 0x1316 JUMPI POP DUP2 PUSH4 0x1FB87F39 EQ PUSH2 0x12F6 JUMPI DUP2 PUSH4 0x343EE3B7 EQ PUSH2 0x12D7 JUMPI DUP2 PUSH4 0x47B12BFC EQ PUSH2 0x12BB JUMPI DUP2 PUSH4 0x50B89418 EQ PUSH2 0x117E JUMPI DUP2 PUSH4 0x55EE54A1 EQ PUSH2 0x113D JUMPI DUP2 PUSH4 0x6700C0C3 EQ PUSH2 0x111A JUMPI DUP2 PUSH4 0x6C1EBA15 EQ PUSH2 0x10FD JUMPI DUP2 PUSH4 0x71C1B833 EQ PUSH2 0x10C9 JUMPI DUP2 PUSH4 0x72D6E43A EQ PUSH2 0x10A2 JUMPI DUP2 PUSH4 0x735DE9F7 EQ PUSH2 0x105E JUMPI DUP2 PUSH4 0x8BDB2AFA EQ PUSH2 0x101A JUMPI DUP2 PUSH4 0x94562AFB EQ PUSH2 0xFF7 JUMPI DUP2 PUSH4 0x9D1B464A EQ PUSH2 0xF8A JUMPI DUP2 PUSH4 0x9F870A75 EQ PUSH2 0xF64 JUMPI DUP2 PUSH4 0xA37A9FC0 EQ PUSH2 0xE9E JUMPI DUP2 PUSH4 0xBACF2A7B EQ PUSH2 0xF47 JUMPI DUP2 PUSH4 0xBB103CBC EQ PUSH2 0xF2A JUMPI DUP2 PUSH4 0xC45A0155 EQ PUSH2 0xEE6 JUMPI DUP2 PUSH4 0xC463ECD7 EQ PUSH2 0xEC9 JUMPI DUP2 PUSH4 0xC8F3BFD3 EQ PUSH2 0xEA3 JUMPI DUP2 PUSH4 0xCE91E164 EQ PUSH2 0xE9E JUMPI DUP2 PUSH4 0xD79875EB EQ PUSH2 0xAC2 JUMPI DUP2 PUSH4 0xD96A094A EQ PUSH2 0x250 JUMPI DUP2 PUSH4 0xDF4D17DC EQ PUSH2 0x1A8 JUMPI POP DUP1 PUSH4 0xE7C2B772 EQ PUSH2 0x185 JUMPI PUSH4 0xFC0C546A EQ PUSH2 0x15B JUMPI DUP1 PUSH2 0x12 JUMP JUMPDEST CALLVALUE PUSH2 0x181 JUMPI DUP2 PUSH1 0x3 NOT CALLDATASIZE ADD SLT PUSH2 0x181 JUMPI SWAP1 SLOAD SWAP1 MLOAD PUSH1 0x1 PUSH1 0x1 PUSH1 0xA0 SHL SUB SWAP1 SWAP2 AND DUP2 MSTORE PUSH1 0x20 SWAP1 RETURN JUMPDEST POP DUP1 REVERT JUMPDEST POP CALLVALUE PUSH2 0x181 JUMPI DUP2 PUSH1 0x3 NOT CALLDATASIZE ADD SLT PUSH2 0x181 JUMPI PUSH1 0x20 SWAP1 PUSH1 0xFF PUSH1 0x3 SLOAD AND SWAP1 MLOAD SWAP1 ISZERO ISZERO DUP2 MSTORE RETURN JUMPDEST SWAP2 SWAP1 POP CALLVALUE PUSH2 0x24C JUMPI PUSH1 0x20 CALLDATASIZE PUSH1 0x3 NOT ADD SLT PUSH2 0x24C JUMPI PUSH2 0x1C4 PUSH2 0x1332 JUMP JUMPDEST DUP4 SLOAD SWAP3 PUSH1 0x1 PUSH1 0x1 PUSH1 0xA0 SHL SUB SWAP3 DUP4 DUP6 AND PUSH2 0x21A JUMPI POP POP PUSH2 0x206 DUP3 PUSH32 0x0 AND CALLER EQ PUSH2 0x1364 JUMP JUMPDEST PUSH1 0x1 PUSH1 0x1 PUSH1 0xA0 SHL SUB NOT SWAP1 SWAP3 AND SWAP2 AND OR DUP2 SSTORE DUP1 RETURN JUMPDEST SWAP1 PUSH1 0x20 PUSH1 0x64 SWAP3 MLOAD SWAP2 PUSH3 0x461BCD PUSH1 0xE5 SHL DUP4 MSTORE DUP3 ADD MSTORE PUSH1 0xC PUSH1 0x24 DUP3 ADD MSTORE PUSH12 0x105B1C9958591E481A5B9A5D PUSH1 0xA2 SHL PUSH1 0x44 DUP3 ADD MSTORE REVERT JUMPDEST DUP3 DUP1 REVERT JUMPDEST PUSH1 0x20 DUP5 DUP5 CALLDATASIZE PUSH1 0x3 NOT ADD DUP4 SGT PUSH2 0x181 JUMPI PUSH2 0x267 PUSH2 0x1547 JUMP JUMPDEST PUSH2 0x27F PUSH1 0x3 SLOAD PUSH1 0xFF DUP2 AND ISZERO SWAP1 DUP2 PUSH2 0xAB3 JUMPI JUMPDEST POP PUSH2 0x139F JUMP JUMPDEST CALLVALUE ISZERO PUSH2 0xA88 JUMPI PUSH1 0xC8 CALLVALUE MUL SWAP2 CALLVALUE DUP4 DIV PUSH1 0xC8 SUB PUSH2 0xA75 JUMPI PUSH2 0x2710 DUP1 SWAP4 DIV SWAP3 PUSH1 0x96 CALLVALUE MUL CALLVALUE DUP2 DIV PUSH1 0x96 SUB PUSH2 0xA62 JUMPI DUP2 SWAP1 DIV SWAP1 PUSH2 0x2C0 DUP3 PUSH2 0x2BB DUP8 CALLVALUE PUSH2 0x1423 JUMP JUMPDEST PUSH2 0x1423 JUMP JUMPDEST SWAP2 PUSH1 0x2 SLOAD SWAP6 PUSH8 0x29A2241AF62C0000 SWAP7 DUP1 DUP9 ADD DUP1 SWAP9 GT PUSH2 0xA4F JUMPI PUSH2 0x304 PUSH2 0x2FD PUSH1 0x1 SLOAD SWAP10 PUSH2 0x2F7 DUP9 PUSH2 0x2F1 DUP14 DUP5 PUSH2 0x13DA JUMP JUMPDEST SWAP3 PUSH2 0x1430 JUMP JUMPDEST SWAP1 PUSH2 0x1403 JUMP JUMPDEST DUP1 SWAP10 PUSH2 0x1423 JUMP JUMPDEST SWAP4 DUP5 ISZERO PUSH2 0x311 DUP2 ISZERO PUSH2 0x143D JUMP JUMPDEST PUSH1 0x96 DUP7 MUL SWAP1 DUP7 DUP3 DIV PUSH1 0x96 EQ OR ISZERO PUSH2 0xA3C JUMPI SWAP2 PUSH2 0x334 DUP8 SWAP3 PUSH2 0x34A SWAP5 DIV DUP1 SWAP8 PUSH2 0x1423 JUMP JUMPDEST SWAP10 PUSH2 0x342 DUP14 CALLDATALOAD DUP13 LT ISZERO PUSH2 0x1475 JUMP JUMPDEST PUSH1 0x1 SSTORE PUSH2 0x1430 JUMP JUMPDEST PUSH1 0x2 SSTORE DUP1 PUSH2 0x9E3 JUMPI JUMPDEST POP DUP1 PUSH2 0x994 JUMPI JUMPDEST POP DUP1 PUSH2 0x932 JUMPI JUMPDEST POP PUSH1 0x1 DUP1 PUSH1 0xA0 SHL SUB SWAP1 PUSH2 0x390 DUP7 DUP7 DUP5 DUP7 SLOAD AND DUP11 DUP8 DUP10 MLOAD DUP1 SWAP7 DUP2 SWAP6 DUP3 SWAP5 PUSH4 0xA9059CBB PUSH1 0xE0 SHL DUP5 MSTORE CALLER SWAP1 DUP5 ADD PUSH2 0x1510 JUMP JUMPDEST SUB SWAP3 GAS CALL SWAP1 DUP2 ISZERO PUSH2 0x928 JUMPI DUP5 SWAP2 PUSH2 0x90B JUMPI JUMPDEST POP ISZERO PUSH2 0x8D4 JUMPI CALLER DUP4 MSTORE DUP7 DUP7 MSTORE DUP4 DUP4 KECCAK256 DUP1 SLOAD PUSH1 0x1 PUSH1 0x1 PUSH1 0x40 SHL SUB NOT AND TIMESTAMP PUSH1 0x1 PUSH1 0x1 PUSH1 0x40 SHL SUB AND OR SWAP1 SSTORE PUSH32 0x64FB1933E186BE0B289A87E98518DC18CC9856ECBC9F1353D1A138DDF733EC5 PUSH2 0x405 PUSH2 0x3F6 PUSH2 0x15EF JUMP JUMPDEST DUP7 MLOAD SWAP2 DUP3 SWAP2 DUP10 CALLER SWAP7 CALLVALUE DUP6 PUSH2 0x152B JUMP JUMPDEST SUB SWAP1 LOG2 PUSH8 0x4563918244F40000 PUSH1 0x2 SLOAD LT ISZERO PUSH2 0x435 JUMPI JUMPDEST POP POP PUSH1 0x1 PUSH1 0x0 DUP1 MLOAD PUSH1 0x20 PUSH2 0x17FA DUP4 CODECOPY DUP2 MLOAD SWAP2 MSTORE SSTORE MLOAD SWAP1 DUP2 MSTORE RETURN JUMPDEST PUSH1 0x1 PUSH1 0xFF NOT PUSH1 0x3 SLOAD AND OR PUSH1 0x3 SSTORE SELFBALANCE SWAP2 PUSH11 0xA56FA5B99019A5C8000000 SWAP1 DUP3 DUP2 SLOAD AND DUP6 MLOAD SWAP9 PUSH4 0x70A08231 PUSH1 0xE0 SHL DUP1 DUP12 MSTORE ADDRESS DUP3 DUP13 ADD MSTORE PUSH1 0x24 SWAP11 DUP11 DUP2 DUP14 DUP2 DUP8 GAS STATICCALL SWAP1 DUP2 ISZERO PUSH2 0x835 JUMPI DUP6 SWAP2 PUSH2 0x8A7 JUMPI JUMPDEST POP DUP6 DUP2 LT PUSH2 0x89F JUMPI JUMPDEST POP DUP8 MLOAD PUSH4 0x95EA7B3 PUSH1 0xE0 SHL DUP2 MSTORE PUSH32 0x0 DUP8 AND SWAP4 DUP12 SWAP1 DUP3 SWAP1 DUP2 DUP9 DUP2 PUSH2 0x4CE DUP13 DUP12 DUP12 DUP5 ADD PUSH2 0x1510 JUMP JUMPDEST SUB SWAP3 GAS CALL SWAP1 DUP2 ISZERO PUSH2 0x835 JUMPI DUP6 SWAP2 PUSH2 0x872 JUMPI JUMPDEST POP ISZERO PUSH2 0x83F JUMPI DUP8 MLOAD PUSH4 0x15AB88C9 PUSH1 0xE3 SHL DUP2 MSTORE SWAP11 DUP11 DUP13 DUP5 DUP2 DUP8 GAS STATICCALL DUP1 ISZERO PUSH2 0x835 JUMPI DUP12 SWAP13 DUP7 SWAP13 SWAP9 SWAP10 SWAP11 SWAP12 SWAP13 SWAP2 PUSH2 0x818 JUMPI JUMPDEST POP DUP9 PUSH32 0x0 AND DUP10 DUP8 SLOAD AND DUP13 MLOAD SWAP10 PUSH4 0xE6A43905 PUSH1 0xE0 SHL DUP12 MSTORE DUP11 DUP1 PUSH2 0x553 DUP7 DUP6 DUP12 DUP5 ADD PUSH2 0x15D5 JUMP JUMPDEST SUB DUP2 DUP6 GAS STATICCALL SWAP10 DUP11 ISZERO PUSH2 0x80E JUMPI SWAP1 DUP16 SWAP4 SWAP3 SWAP2 DUP10 SWAP12 PUSH2 0x7EF JUMPI JUMPDEST POP DUP14 DUP13 DUP13 AND ISZERO PUSH2 0x779 JUMPI JUMPDEST POP POP POP POP POP DUP8 DUP6 SLOAD AND PUSH2 0x12C TIMESTAMP ADD DUP1 TIMESTAMP GT PUSH2 0x767 JUMPI DUP12 MLOAD SWAP2 PUSH4 0xF305D719 PUSH1 0xE0 SHL DUP4 MSTORE DUP6 DUP4 ADD MSTORE DUP8 DUP4 DUP4 ADD MSTORE DUP7 PUSH1 0x44 DUP4 ADD MSTORE DUP7 PUSH1 0x64 DUP4 ADD MSTORE PUSH2 0xDEAD PUSH1 0x84 DUP4 ADD MSTORE PUSH1 0xA4 DUP3 ADD MSTORE PUSH1 0x60 DUP2 PUSH1 0xC4 DUP2 DUP14 DUP10 GAS CALL DUP1 ISZERO PUSH2 0x72E JUMPI PUSH2 0x738 JUMPI JUMPDEST POP DUP8 DUP6 SLOAD AND SWAP2 DUP11 MLOAD SWAP1 DUP2 MSTORE ADDRESS DUP5 DUP3 ADD MSTORE DUP13 DUP2 DUP4 DUP2 DUP7 GAS STATICCALL SWAP1 DUP2 ISZERO PUSH2 0x72E JUMPI DUP7 SWAP2 PUSH2 0x6FC JUMPI JUMPDEST POP DUP1 PUSH2 0x6A1 JUMPI JUMPDEST POP POP POP DUP6 DUP4 SLOAD AND SWAP1 DUP2 EXTCODESIZE ISZERO PUSH2 0x69D JUMPI SWAP2 DUP4 SWAP2 DUP7 DUP4 PUSH2 0x62D SWAP6 DUP13 MLOAD SWAP7 DUP8 SWAP6 DUP7 SWAP5 DUP6 SWAP4 PUSH4 0xC7B12801 PUSH1 0xE0 SHL DUP6 MSTORE DUP5 ADD PUSH2 0x15D5 JUMP JUMPDEST SUB SWAP3 GAS CALL DUP1 ISZERO PUSH2 0x693 JUMPI PUSH2 0x67C JUMPI JUMPDEST POP POP DUP5 MLOAD SWAP4 DUP5 MSTORE DUP7 DUP5 ADD MSTORE AND DUP2 DUP4 ADD MSTORE PUSH32 0xE8284482A896DE2FB31532F8A0C0F64867B8D0586FF49DBD54DDF4CDDB2C0365 SWAP1 PUSH1 0x60 SWAP1 LOG1 SWAP1 DUP3 SWAP2 DUP5 DUP1 PUSH2 0x41B JUMP JUMPDEST PUSH2 0x686 DUP3 SWAP2 PUSH2 0x14AC JUMP JUMPDEST PUSH2 0x690 JUMPI DUP1 PUSH2 0x63C JUMP JUMPDEST DUP1 REVERT JUMPDEST DUP8 MLOAD RETURNDATASIZE DUP5 DUP3 RETURNDATACOPY RETURNDATASIZE SWAP1 REVERT JUMPDEST DUP4 DUP1 REVERT JUMPDEST DUP3 EXTCODESIZE ISZERO PUSH2 0x6F8 JUMPI DUP11 MLOAD PUSH4 0x16C24011 PUSH1 0xE2 SHL DUP2 MSTORE DUP5 DUP2 ADD SWAP2 SWAP1 SWAP2 MSTORE SWAP2 DUP6 SWAP2 DUP4 SWAP2 DUP3 SWAP1 DUP5 SWAP1 GAS CALL DUP1 ISZERO PUSH2 0x6EE JUMPI SWAP1 DUP5 SWAP2 PUSH2 0x6DA JUMPI JUMPDEST DUP1 PUSH2 0x5FB JUMP JUMPDEST PUSH2 0x6E3 SWAP1 PUSH2 0x14AC JUMP JUMPDEST PUSH2 0x24C JUMPI DUP3 DUP12 PUSH2 0x6D4 JUMP JUMPDEST DUP10 MLOAD RETURNDATASIZE DUP7 DUP3 RETURNDATACOPY RETURNDATASIZE SWAP1 REVERT JUMPDEST DUP6 DUP1 REVERT JUMPDEST SWAP1 POP DUP13 DUP2 DUP2 RETURNDATASIZE DUP4 GT PUSH2 0x727 JUMPI JUMPDEST PUSH2 0x713 DUP2 DUP4 PUSH2 0x14D5 JUMP JUMPDEST DUP2 ADD SUB SLT PUSH2 0x722 JUMPI MLOAD DUP14 PUSH2 0x5F4 JUMP JUMPDEST PUSH1 0x0 DUP1 REVERT JUMPDEST POP RETURNDATASIZE PUSH2 0x709 JUMP JUMPDEST DUP12 MLOAD RETURNDATASIZE DUP9 DUP3 RETURNDATACOPY RETURNDATASIZE SWAP1 REVERT JUMPDEST PUSH1 0x60 SWAP1 DUP2 RETURNDATASIZE DUP2 GT PUSH2 0x760 JUMPI JUMPDEST PUSH2 0x74E DUP2 DUP4 PUSH2 0x14D5 JUMP JUMPDEST DUP2 ADD SUB SLT PUSH2 0x75C JUMPI DUP13 PUSH2 0x5CF JUMP JUMPDEST DUP5 DUP1 REVERT JUMPDEST POP RETURNDATASIZE PUSH2 0x744 JUMP JUMPDEST PUSH4 0x4E487B71 PUSH1 0xE0 SHL DUP8 MSTORE PUSH1 0x11 DUP6 MSTORE DUP3 DUP8 REVERT JUMPDEST PUSH2 0x79A SWAP6 SWAP12 POP DUP10 SWAP1 MLOAD DUP1 SWAP7 DUP2 SWAP6 DUP3 SWAP5 PUSH4 0x64E329CB PUSH1 0xE1 SHL DUP5 MSTORE DUP12 DUP5 ADD PUSH2 0x15D5 JUMP JUMPDEST SUB SWAP3 GAS CALL SWAP1 DUP2 ISZERO PUSH2 0x7E5 JUMPI DUP6 SWAP2 PUSH2 0x7B8 JUMPI JUMPDEST POP SWAP6 DUP12 DUP14 DUP1 DUP1 DUP14 PUSH2 0x576 JUMP JUMPDEST PUSH2 0x7D8 SWAP2 POP DUP13 DUP14 RETURNDATASIZE LT PUSH2 0x7DE JUMPI JUMPDEST PUSH2 0x7D0 DUP2 DUP4 PUSH2 0x14D5 JUMP JUMPDEST DUP2 ADD SWAP1 PUSH2 0x15B6 JUMP JUMPDEST DUP13 PUSH2 0x7AC JUMP JUMPDEST POP RETURNDATASIZE PUSH2 0x7C6 JUMP JUMPDEST DUP11 MLOAD RETURNDATASIZE DUP8 DUP3 RETURNDATACOPY RETURNDATASIZE SWAP1 REVERT JUMPDEST PUSH2 0x807 SWAP2 SWAP12 POP DUP5 RETURNDATASIZE DUP7 GT PUSH2 0x7DE JUMPI PUSH2 0x7D0 DUP2 DUP4 PUSH2 0x14D5 JUMP JUMPDEST SWAP10 CODESIZE PUSH2 0x56B JUMP JUMPDEST DUP14 MLOAD RETURNDATASIZE DUP11 DUP3 RETURNDATACOPY RETURNDATASIZE SWAP1 REVERT JUMPDEST PUSH2 0x82F SWAP2 POP DUP9 RETURNDATASIZE DUP11 GT PUSH2 0x7DE JUMPI PUSH2 0x7D0 DUP2 DUP4 PUSH2 0x14D5 JUMP JUMPDEST DUP14 PUSH2 0x50F JUMP JUMPDEST DUP10 MLOAD RETURNDATASIZE DUP8 DUP3 RETURNDATACOPY RETURNDATASIZE SWAP1 REVERT JUMPDEST DUP8 MLOAD PUSH3 0x461BCD PUSH1 0xE5 SHL DUP2 MSTORE DUP1 DUP4 ADD DUP12 SWAP1 MSTORE PUSH1 0xE DUP2 DUP14 ADD MSTORE PUSH14 0x105C1C1C9BDD994819985A5B1959 PUSH1 0x92 SHL PUSH1 0x44 DUP3 ADD MSTORE PUSH1 0x64 SWAP1 REVERT JUMPDEST PUSH2 0x892 SWAP2 POP DUP12 RETURNDATASIZE DUP14 GT PUSH2 0x898 JUMPI JUMPDEST PUSH2 0x88A DUP2 DUP4 PUSH2 0x14D5 JUMP JUMPDEST DUP2 ADD SWAP1 PUSH2 0x14F8 JUMP JUMPDEST DUP13 PUSH2 0x4E0 JUMP JUMPDEST POP RETURNDATASIZE PUSH2 0x880 JUMP JUMPDEST SWAP5 POP DUP12 PUSH2 0x489 JUMP JUMPDEST SWAP1 POP DUP11 DUP2 DUP2 RETURNDATASIZE DUP4 GT PUSH2 0x8CD JUMPI JUMPDEST PUSH2 0x8BE DUP2 DUP4 PUSH2 0x14D5 JUMP JUMPDEST DUP2 ADD SUB SLT PUSH2 0x722 JUMPI MLOAD DUP13 PUSH2 0x480 JUMP JUMPDEST POP RETURNDATASIZE PUSH2 0x8B4 JUMP JUMPDEST DUP4 MLOAD PUSH3 0x461BCD PUSH1 0xE5 SHL DUP2 MSTORE DUP1 DUP9 ADD DUP8 SWAP1 MSTORE PUSH1 0x11 PUSH1 0x24 DUP3 ADD MSTORE PUSH17 0x151BDAD95B881E19995C8819985A5B1959 PUSH1 0x7A SHL PUSH1 0x44 DUP3 ADD MSTORE PUSH1 0x64 SWAP1 REVERT JUMPDEST PUSH2 0x922 SWAP2 POP DUP8 RETURNDATASIZE DUP10 GT PUSH2 0x898 JUMPI PUSH2 0x88A DUP2 DUP4 PUSH2 0x14D5 JUMP JUMPDEST DUP9 PUSH2 0x3A2 JUMP JUMPDEST DUP6 MLOAD RETURNDATASIZE DUP7 DUP3 RETURNDATACOPY RETURNDATASIZE SWAP1 REVERT JUMPDEST DUP3 SLOAD PUSH1 0x1 PUSH1 0x1 PUSH1 0xA0 SHL SUB AND SWAP1 DUP2 EXTCODESIZE ISZERO PUSH2 0x69D JUMPI DUP4 SWAP2 PUSH1 0x24 DUP4 SWAP3 DUP8 MLOAD SWAP5 DUP6 SWAP4 DUP5 SWAP3 PUSH4 0x16C24011 PUSH1 0xE2 SHL DUP5 MSTORE DUP14 DUP5 ADD MSTORE GAS CALL DUP1 ISZERO PUSH2 0x98A JUMPI SWAP1 DUP4 SWAP2 PUSH2 0x976 JUMPI JUMPDEST POP PUSH2 0x361 JUMP JUMPDEST PUSH2 0x97F SWAP1 PUSH2 0x14AC JUMP JUMPDEST PUSH2 0x181 JUMPI DUP2 DUP8 PUSH2 0x970 JUMP JUMPDEST DUP5 MLOAD RETURNDATASIZE DUP6 DUP3 RETURNDATACOPY RETURNDATASIZE SWAP1 REVERT JUMPDEST DUP4 SLOAD PUSH1 0x1 PUSH1 0x1 PUSH1 0xA0 SHL SUB AND DUP1 EXTCODESIZE ISZERO PUSH2 0x75C JUMPI DUP5 SWAP1 DUP10 DUP8 MLOAD DUP1 SWAP5 DUP2 SWAP4 PUSH4 0x16F1A0A7 PUSH1 0xE3 SHL DUP4 MSTORE GAS CALL DUP1 ISZERO PUSH2 0x928 JUMPI SWAP1 DUP5 SWAP2 PUSH2 0x9CF JUMPI JUMPDEST POP PUSH2 0x35A JUMP JUMPDEST PUSH2 0x9D8 SWAP1 PUSH2 0x14AC JUMP JUMPDEST PUSH2 0x24C JUMPI DUP3 DUP9 PUSH2 0x9C9 JUMP JUMPDEST DUP5 SLOAD PUSH1 0x1 PUSH1 0x1 PUSH1 0xA0 SHL SUB AND DUP1 EXTCODESIZE ISZERO PUSH2 0x6F8 JUMPI DUP6 SWAP1 DUP11 DUP9 MLOAD DUP1 SWAP5 DUP2 SWAP4 PUSH4 0x523AA0DD PUSH1 0xE1 SHL DUP4 MSTORE GAS CALL DUP1 ISZERO PUSH2 0xA32 JUMPI SWAP1 DUP6 SWAP2 PUSH2 0xA1E JUMPI JUMPDEST POP PUSH2 0x353 JUMP JUMPDEST PUSH2 0xA27 SWAP1 PUSH2 0x14AC JUMP JUMPDEST PUSH2 0x69D JUMPI DUP4 DUP10 PUSH2 0xA18 JUMP JUMPDEST DUP7 MLOAD RETURNDATASIZE DUP8 DUP3 RETURNDATACOPY RETURNDATASIZE SWAP1 REVERT JUMPDEST PUSH4 0x4E487B71 PUSH1 0xE0 SHL DUP9 MSTORE PUSH1 0x11 DUP13 MSTORE PUSH1 0x24 DUP9 REVERT JUMPDEST PUSH4 0x4E487B71 PUSH1 0xE0 SHL DUP7 MSTORE PUSH1 0x11 DUP11 MSTORE PUSH1 0x24 DUP7 REVERT JUMPDEST PUSH4 0x4E487B71 PUSH1 0xE0 SHL DUP4 MSTORE PUSH1 0x11 DUP8 MSTORE PUSH1 0x24 DUP4 REVERT JUMPDEST PUSH4 0x4E487B71 PUSH1 0xE0 SHL DUP2 MSTORE PUSH1 0x11 DUP6 MSTORE PUSH1 0x24 SWAP1 REVERT JUMPDEST MLOAD PUSH3 0x461BCD PUSH1 0xE5 SHL DUP2 MSTORE DUP1 DUP5 ADD DUP4 SWAP1 MSTORE PUSH1 0x6 PUSH1 0x24 DUP3 ADD MSTORE PUSH6 0x9CDE408AA89 PUSH1 0xD3 SHL PUSH1 0x44 DUP3 ADD MSTORE PUSH1 0x64 SWAP1 REVERT JUMPDEST PUSH1 0xFF SWAP2 POP PUSH1 0x8 SHR AND ISZERO DUP7 PUSH2 0x279 JUMP JUMPDEST DUP4 DUP4 CALLVALUE PUSH2 0x181 JUMPI DUP1 PUSH1 0x3 NOT CALLDATASIZE ADD SLT PUSH2 0x181 JUMPI DUP3 CALLDATALOAD PUSH2 0xADE PUSH2 0x1547 JUMP JUMPDEST PUSH2 0xAF5 PUSH1 0x3 SLOAD PUSH1 0xFF DUP2 AND ISZERO SWAP1 DUP2 PUSH2 0xAB3 JUMPI POP PUSH2 0x139F JUMP JUMPDEST DUP1 ISZERO PUSH2 0xE6F JUMPI PUSH1 0x96 DUP2 MUL DUP2 DUP2 DIV PUSH1 0x96 SUB PUSH2 0xE5C JUMPI PUSH2 0x2710 DUP1 SWAP2 DIV SWAP5 PUSH2 0xB1A DUP7 DUP5 PUSH2 0x1423 JUMP JUMPDEST SWAP6 PUSH1 0x1 DUP1 PUSH1 0xA0 SHL SUB DUP7 DUP2 DUP2 SLOAD AND SWAP3 DUP8 MLOAD PUSH4 0x23B872DD PUSH1 0xE0 SHL DUP2 MSTORE CALLER DUP7 DUP3 ADD MSTORE PUSH1 0x24 SWAP5 ADDRESS DUP7 DUP4 ADD MSTORE DUP9 PUSH1 0x44 DUP4 ADD MSTORE DUP2 PUSH1 0x64 DUP2 PUSH1 0x20 SWAP14 DUP15 SWAP5 GAS CALL SWAP1 DUP2 ISZERO PUSH2 0xE52 JUMPI DUP4 SWAP2 PUSH2 0xE35 JUMPI JUMPDEST POP ISZERO PUSH2 0xDFE JUMPI DUP1 PUSH2 0xDB2 JUMPI JUMPDEST POP SWAP1 PUSH1 0x2 SLOAD SWAP5 PUSH8 0x29A2241AF62C0000 SWAP10 DUP7 DUP12 ADD DUP1 SWAP12 GT PUSH2 0xD61 JUMPI PUSH2 0xBA0 SWAP10 SWAP11 PUSH2 0xBAD PUSH2 0xBA6 PUSH2 0xBB3 SWAP4 PUSH1 0x1 SLOAD SWAP14 DUP15 DUP6 PUSH2 0x13DA JUMP JUMPDEST SWAP14 PUSH2 0x1430 JUMP JUMPDEST DUP1 SWAP13 PUSH2 0x1403 JUMP JUMPDEST SWAP1 PUSH2 0x1423 JUMP JUMPDEST SWAP6 DUP1 DUP8 GT PUSH2 0xD74 JUMPI DUP7 PUSH2 0xBD5 SWAP2 DUP2 ISZERO SWAP12 PUSH2 0xBCD DUP14 ISZERO PUSH2 0x143D JUMP JUMPDEST PUSH1 0x1 SSTORE PUSH2 0x1423 JUMP JUMPDEST PUSH1 0x2 SSTORE PUSH2 0xBE1 CALLER PUSH2 0x1624 JUMP JUMPDEST PUSH1 0xC8 ADD DUP1 PUSH1 0xC8 GT PUSH2 0xD61 JUMPI PUSH2 0xBF7 DUP3 SWAP2 DUP9 PUSH2 0x13DA JUMP JUMPDEST DIV SWAP9 PUSH1 0x96 DUP8 MUL SWAP1 DUP8 DUP3 DIV PUSH1 0x96 EQ OR ISZERO PUSH2 0xD61 JUMPI DIV SWAP1 PUSH2 0xC1A DUP3 PUSH2 0x2BB DUP12 DUP10 PUSH2 0x1423 JUMP JUMPDEST SWAP9 PUSH2 0xC28 DUP6 CALLDATALOAD DUP12 LT ISZERO PUSH2 0x1475 JUMP JUMPDEST DUP1 PUSH2 0xD19 JUMPI JUMPDEST POP DUP2 PUSH2 0xCD8 JUMPI JUMPDEST POP POP DUP1 DUP1 DUP1 DUP10 CALLER GAS CALL PUSH2 0xC46 PUSH2 0x1577 JUMP JUMPDEST POP ISZERO PUSH2 0xCA4 JUMPI POP POP DUP4 PUSH32 0x483F8AEC0FD892AC72AD1BA8D0E9C9E73DB59C12D263FD71DE480B5B3DEEAE3C SWAP2 PUSH2 0xC89 PUSH2 0xC7C PUSH2 0x15EF JUMP JUMPDEST DUP7 MLOAD SWAP4 DUP5 SWAP4 CALLER SWAP8 DUP6 PUSH2 0x152B JUMP JUMPDEST SUB SWAP1 LOG2 PUSH1 0x1 PUSH1 0x0 DUP1 MLOAD PUSH1 0x20 PUSH2 0x17FA DUP4 CODECOPY DUP2 MLOAD SWAP2 MSTORE SSTORE MLOAD SWAP1 DUP2 MSTORE RETURN JUMPDEST DUP5 MLOAD PUSH3 0x461BCD PUSH1 0xE5 SHL DUP2 MSTORE SWAP2 DUP3 ADD DUP8 SWAP1 MSTORE PUSH1 0xF SWAP1 DUP3 ADD MSTORE PUSH15 0x115512081CD95B990819985A5B1959 PUSH1 0x8A SHL PUSH1 0x44 DUP3 ADD MSTORE PUSH1 0x64 SWAP1 REVERT JUMPDEST DUP3 SLOAD AND DUP1 EXTCODESIZE ISZERO PUSH2 0x24C JUMPI DUP3 SWAP1 DUP6 DUP10 MLOAD DUP1 SWAP5 DUP2 SWAP4 PUSH4 0x16F1A0A7 PUSH1 0xE3 SHL DUP4 MSTORE GAS CALL DUP1 ISZERO PUSH2 0x693 JUMPI SWAP1 DUP3 SWAP2 ISZERO PUSH2 0xC35 JUMPI PUSH2 0xD0E SWAP1 PUSH2 0x14AC JUMP JUMPDEST PUSH2 0x690 JUMPI DUP1 DUP10 PUSH2 0xC35 JUMP JUMPDEST DUP2 DUP5 SLOAD AND DUP1 EXTCODESIZE ISZERO PUSH2 0x75C JUMPI DUP5 SWAP1 DUP8 DUP12 MLOAD DUP1 SWAP5 DUP2 SWAP4 PUSH4 0x523AA0DD PUSH1 0xE1 SHL DUP4 MSTORE GAS CALL DUP1 ISZERO PUSH2 0x6EE JUMPI SWAP1 DUP5 SWAP2 PUSH2 0xD4D JUMPI JUMPDEST POP PUSH2 0xC2E JUMP JUMPDEST PUSH2 0xD56 SWAP1 PUSH2 0x14AC JUMP JUMPDEST PUSH2 0x24C JUMPI DUP3 DUP12 PUSH2 0xD47 JUMP JUMPDEST POP POP PUSH4 0x4E487B71 PUSH1 0xE0 SHL DUP3 MSTORE POP PUSH1 0x11 DUP4 MSTORE REVERT JUMPDEST DUP9 MLOAD PUSH3 0x461BCD PUSH1 0xE5 SHL DUP2 MSTORE DUP1 DUP8 ADD DUP13 SWAP1 MSTORE PUSH1 0x19 DUP2 DUP8 ADD MSTORE PUSH25 0x496E73756666696369656E742045544820696E206375727665 PUSH1 0x38 SHL PUSH1 0x44 DUP3 ADD MSTORE PUSH1 0x64 SWAP1 REVERT JUMPDEST DUP3 DUP3 SLOAD AND SWAP1 DUP2 EXTCODESIZE ISZERO PUSH2 0x24C JUMPI DUP3 SWAP2 DUP6 DUP4 SWAP3 DUP12 MLOAD SWAP5 DUP6 SWAP4 DUP5 SWAP3 PUSH4 0x16C24011 PUSH1 0xE2 SHL DUP5 MSTORE DUP12 DUP5 ADD MSTORE GAS CALL DUP1 ISZERO PUSH2 0xDF4 JUMPI ISZERO PUSH2 0xB6C JUMPI PUSH2 0xDEE SWAP1 PUSH2 0x14AC JUMP JUMPDEST DUP10 PUSH2 0xB6C JUMP JUMPDEST DUP9 MLOAD RETURNDATASIZE DUP5 DUP3 RETURNDATACOPY RETURNDATASIZE SWAP1 REVERT JUMPDEST DUP8 MLOAD PUSH3 0x461BCD PUSH1 0xE5 SHL DUP2 MSTORE DUP1 DUP7 ADD DUP11 SWAP1 MSTORE PUSH1 0x12 DUP2 DUP7 ADD MSTORE PUSH18 0x151C985B9CD9995C881A5B8819985A5B1959 PUSH1 0x72 SHL PUSH1 0x44 DUP3 ADD MSTORE PUSH1 0x64 SWAP1 REVERT JUMPDEST PUSH2 0xE4C SWAP2 POP DUP11 RETURNDATASIZE DUP13 GT PUSH2 0x898 JUMPI PUSH2 0x88A DUP2 DUP4 PUSH2 0x14D5 JUMP JUMPDEST DUP12 PUSH2 0xB60 JUMP JUMPDEST DUP10 MLOAD RETURNDATASIZE DUP6 DUP3 RETURNDATACOPY RETURNDATASIZE SWAP1 REVERT JUMPDEST PUSH4 0x4E487B71 PUSH1 0xE0 SHL DUP5 MSTORE PUSH1 0x11 DUP6 MSTORE PUSH1 0x24 DUP5 REVERT JUMPDEST DUP2 MLOAD PUSH3 0x461BCD PUSH1 0xE5 SHL DUP2 MSTORE PUSH1 0x20 DUP2 DUP7 ADD MSTORE PUSH1 0x9 PUSH1 0x24 DUP3 ADD MSTORE PUSH9 0x4E6F20746F6B656E73 PUSH1 0xB8 SHL PUSH1 0x44 DUP3 ADD MSTORE PUSH1 0x64 SWAP1 REVERT JUMPDEST PUSH2 0x1348 JUMP JUMPDEST POP POP CALLVALUE PUSH2 0x181 JUMPI DUP2 PUSH1 0x3 NOT CALLDATASIZE ADD SLT PUSH2 0x181 JUMPI PUSH1 0x20 SWAP1 MLOAD PUSH11 0xA56FA5B99019A5C8000000 DUP2 MSTORE RETURN JUMPDEST POP POP CALLVALUE PUSH2 0x181 JUMPI DUP2 PUSH1 0x3 NOT CALLDATASIZE ADD SLT PUSH2 0x181 JUMPI PUSH1 0x20 SWAP1 MLOAD PUSH2 0x3E8 DUP2 MSTORE RETURN JUMPDEST POP POP CALLVALUE PUSH2 0x181 JUMPI DUP2 PUSH1 0x3 NOT CALLDATASIZE ADD SLT PUSH2 0x181 JUMPI MLOAD PUSH32 0x0 PUSH1 0x1 PUSH1 0x1 PUSH1 0xA0 SHL SUB AND DUP2 MSTORE PUSH1 0x20 SWAP1 RETURN JUMPDEST POP POP CALLVALUE PUSH2 0x181 JUMPI DUP2 PUSH1 0x3 NOT CALLDATASIZE ADD SLT PUSH2 0x181 JUMPI PUSH1 0x20 SWAP1 MLOAD PUSH2 0x7D0 DUP2 MSTORE RETURN JUMPDEST POP POP CALLVALUE PUSH2 0x181 JUMPI DUP2 PUSH1 0x3 NOT CALLDATASIZE ADD SLT PUSH2 0x181 JUMPI PUSH1 0x20 SWAP1 MLOAD PUSH2 0x1F4 DUP2 MSTORE RETURN JUMPDEST POP POP CALLVALUE PUSH2 0x181 JUMPI DUP2 PUSH1 0x3 NOT CALLDATASIZE ADD SLT PUSH2 0x181 JUMPI MLOAD PUSH8 0x14ADF4B7320334B9 PUSH1 0x1D SHL DUP2 MSTORE PUSH1 0x20 SWAP1 RETURN JUMPDEST DUP3 DUP5 CALLVALUE PUSH2 0x690 JUMPI DUP1 PUSH1 0x3 NOT CALLDATASIZE ADD SLT PUSH2 0x690 JUMPI PUSH1 0x2 SLOAD SWAP3 PUSH8 0x29A2241AF62C0000 SWAP4 DUP5 ADD DUP1 SWAP5 GT PUSH2 0xFE4 JUMPI PUSH8 0xDE0B6B3A7640000 SWAP4 DUP5 DUP2 MUL SWAP5 DUP2 DUP7 DIV EQ SWAP1 ISZERO OR ISZERO PUSH2 0xFE4 JUMPI PUSH1 0x20 DUP4 PUSH2 0xFDD DUP7 PUSH1 0x1 SLOAD SWAP1 PUSH2 0x1403 JUMP JUMPDEST SWAP1 MLOAD SWAP1 DUP2 MSTORE RETURN JUMPDEST PUSH4 0x4E487B71 PUSH1 0xE0 SHL DUP3 MSTORE PUSH1 0x11 SWAP1 MSTORE PUSH1 0x24 SWAP1 REVERT JUMPDEST POP POP CALLVALUE PUSH2 0x181 JUMPI DUP2 PUSH1 0x3 NOT CALLDATASIZE ADD SLT PUSH2 0x181 JUMPI PUSH1 0x20 SWAP1 MLOAD PUSH8 0x4563918244F40000 DUP2 MSTORE RETURN JUMPDEST POP POP CALLVALUE PUSH2 0x181 JUMPI DUP2 PUSH1 0x3 NOT CALLDATASIZE ADD SLT PUSH2 0x181 JUMPI MLOAD PUSH32 0x0 PUSH1 0x1 PUSH1 0x1 PUSH1 0xA0 SHL SUB AND DUP2 MSTORE PUSH1 0x20 SWAP1 RETURN JUMPDEST POP POP CALLVALUE PUSH2 0x181 JUMPI DUP2 PUSH1 0x3 NOT CALLDATASIZE ADD SLT PUSH2 0x181 JUMPI MLOAD PUSH32 0x0 PUSH1 0x1 PUSH1 0x1 PUSH1 0xA0 SHL SUB AND DUP2 MSTORE PUSH1 0x20 SWAP1 RETURN JUMPDEST POP POP CALLVALUE PUSH2 0x181 JUMPI DUP2 PUSH1 0x3 NOT CALLDATASIZE ADD SLT PUSH2 0x181 JUMPI PUSH1 0x20 SWAP1 PUSH1 0xFF PUSH1 0x3 SLOAD PUSH1 0x8 SHR AND SWAP1 MLOAD SWAP1 ISZERO ISZERO DUP2 MSTORE RETURN JUMPDEST SWAP1 POP CALLVALUE PUSH2 0x24C JUMPI DUP2 PUSH1 0x3 NOT CALLDATASIZE ADD SLT PUSH2 0x24C JUMPI PUSH1 0x24 CALLDATALOAD SWAP3 PUSH1 0x1 PUSH1 0x1 PUSH1 0xA0 SHL SUB DUP5 AND DUP5 SUB PUSH2 0x690 JUMPI POP PUSH1 0x20 SWAP3 PUSH2 0xFDD SWAP2 CALLDATALOAD PUSH2 0x1721 JUMP JUMPDEST POP POP CALLVALUE PUSH2 0x181 JUMPI DUP2 PUSH1 0x3 NOT CALLDATASIZE ADD SLT PUSH2 0x181 JUMPI PUSH1 0x20 SWAP1 PUSH2 0xFDD PUSH2 0x15EF JUMP JUMPDEST POP POP CALLVALUE PUSH2 0x181 JUMPI DUP2 PUSH1 0x3 NOT CALLDATASIZE ADD SLT PUSH2 0x181 JUMPI PUSH1 0x20 SWAP1 MLOAD PUSH8 0x29A2241AF62C0000 DUP2 MSTORE RETURN JUMPDEST SWAP1 POP CALLVALUE PUSH2 0x24C JUMPI PUSH1 0x20 CALLDATASIZE PUSH1 0x3 NOT ADD SLT PUSH2 0x24C JUMPI PUSH1 0x20 SWAP3 SWAP1 PUSH1 0x1 PUSH1 0x1 PUSH1 0xA0 SHL SUB PUSH2 0x1164 PUSH2 0x1332 JUMP JUMPDEST AND DUP3 MSTORE DUP4 MSTORE DUP2 SWAP1 KECCAK256 SLOAD SWAP1 MLOAD PUSH1 0x1 PUSH1 0x1 PUSH1 0x40 SHL SUB SWAP1 SWAP2 AND DUP2 MSTORE RETURN JUMPDEST SWAP2 SWAP1 POP CALLVALUE PUSH2 0x24C JUMPI PUSH1 0x20 CALLDATASIZE PUSH1 0x3 NOT ADD SLT PUSH2 0x24C JUMPI PUSH2 0x119A PUSH2 0x1332 JUMP JUMPDEST PUSH2 0x11A2 PUSH2 0x1547 JUMP JUMPDEST PUSH1 0x1 PUSH1 0x1 PUSH1 0xA0 SHL SUB SWAP2 PUSH2 0x11D8 CALLER PUSH32 0x0 DUP6 AND EQ PUSH2 0x1364 JUMP JUMPDEST PUSH1 0x3 SLOAD PUSH1 0xFF DUP2 AND PUSH2 0x1284 JUMPI PUSH2 0xFF00 NOT AND PUSH2 0x100 OR PUSH1 0x3 SSTORE SELFBALANCE SWAP4 DUP5 PUSH2 0x1239 JUMPI JUMPDEST POP MLOAD SWAP3 DUP4 MSTORE AND SWAP1 PUSH32 0x16BFC55CFDA3EB65B74E8FE52A8804E222BDB31AEF30599B41ADEB45893F66A9 SWAP1 PUSH1 0x20 SWAP1 LOG2 PUSH1 0x1 PUSH1 0x0 DUP1 MLOAD PUSH1 0x20 PUSH2 0x17FA DUP4 CODECOPY DUP2 MLOAD SWAP2 MSTORE SSTORE DUP1 RETURN JUMPDEST DUP6 DUP1 DUP1 DUP1 DUP9 DUP9 DUP9 AND GAS CALL PUSH2 0x124B PUSH2 0x1577 JUMP JUMPDEST POP PUSH2 0x11F7 JUMPI PUSH1 0x20 PUSH1 0x64 SWAP3 MLOAD SWAP2 PUSH3 0x461BCD PUSH1 0xE5 SHL DUP4 MSTORE DUP3 ADD MSTORE PUSH1 0xF PUSH1 0x24 DUP3 ADD MSTORE PUSH15 0x15DA5D1A191C985DC819985A5B1959 PUSH1 0x8A SHL PUSH1 0x44 DUP3 ADD MSTORE REVERT JUMPDEST DUP2 MLOAD PUSH3 0x461BCD PUSH1 0xE5 SHL DUP2 MSTORE PUSH1 0x20 DUP2 DUP8 ADD MSTORE PUSH1 0x11 PUSH1 0x24 DUP3 ADD MSTORE PUSH17 0x105B1C9958591E4819DC98591D585D1959 PUSH1 0x7A SHL PUSH1 0x44 DUP3 ADD MSTORE PUSH1 0x64 SWAP1 REVERT JUMPDEST POP POP CALLVALUE PUSH2 0x181 JUMPI DUP2 PUSH1 0x3 NOT CALLDATASIZE ADD SLT PUSH2 0x181 JUMPI PUSH1 0x20 SWAP1 MLOAD PUSH1 0xC8 DUP2 MSTORE RETURN JUMPDEST POP POP CALLVALUE PUSH2 0x181 JUMPI DUP2 PUSH1 0x3 NOT CALLDATASIZE ADD SLT PUSH2 0x181 JUMPI PUSH1 0x20 SWAP1 PUSH1 0x1 SLOAD SWAP1 MLOAD SWAP1 DUP2 MSTORE RETURN JUMPDEST DUP3 DUP5 CALLVALUE PUSH2 0x690 JUMPI PUSH1 0x20 CALLDATASIZE PUSH1 0x3 NOT ADD SLT PUSH2 0x690 JUMPI POP PUSH2 0xFDD PUSH1 0x20 SWAP3 CALLDATALOAD PUSH2 0x168F JUMP JUMPDEST DUP5 SWAP1 CALLVALUE PUSH2 0x181 JUMPI DUP2 PUSH1 0x3 NOT CALLDATASIZE ADD SLT PUSH2 0x181 JUMPI PUSH1 0x20 SWAP1 PUSH1 0x2 SLOAD DUP2 MSTORE RETURN JUMPDEST PUSH1 0x4 CALLDATALOAD SWAP1 PUSH1 0x1 PUSH1 0x1 PUSH1 0xA0 SHL SUB DUP3 AND DUP3 SUB PUSH2 0x722 JUMPI JUMP JUMPDEST CALLVALUE PUSH2 0x722 JUMPI PUSH1 0x0 CALLDATASIZE PUSH1 0x3 NOT ADD SLT PUSH2 0x722 JUMPI PUSH1 0x20 PUSH1 0x40 MLOAD PUSH1 0x96 DUP2 MSTORE RETURN JUMPDEST ISZERO PUSH2 0x136B JUMPI JUMP JUMPDEST PUSH1 0x40 MLOAD PUSH3 0x461BCD PUSH1 0xE5 SHL DUP2 MSTORE PUSH1 0x20 PUSH1 0x4 DUP3 ADD MSTORE PUSH1 0xC PUSH1 0x24 DUP3 ADD MSTORE PUSH12 0x4F6E6C7920666163746F7279 PUSH1 0xA0 SHL PUSH1 0x44 DUP3 ADD MSTORE PUSH1 0x64 SWAP1 REVERT JUMPDEST ISZERO PUSH2 0x13A6 JUMPI JUMP JUMPDEST PUSH1 0x40 MLOAD PUSH3 0x461BCD PUSH1 0xE5 SHL DUP2 MSTORE PUSH1 0x20 PUSH1 0x4 DUP3 ADD MSTORE PUSH1 0xC PUSH1 0x24 DUP3 ADD MSTORE PUSH12 0x10DD5C9D994818DB1BDCD959 PUSH1 0xA2 SHL PUSH1 0x44 DUP3 ADD MSTORE PUSH1 0x64 SWAP1 REVERT JUMPDEST DUP2 DUP2 MUL SWAP3 SWAP2 DUP2 ISZERO SWAP2 DUP5 DIV EQ OR ISZERO PUSH2 0x13ED JUMPI JUMP JUMPDEST PUSH4 0x4E487B71 PUSH1 0xE0 SHL PUSH1 0x0 MSTORE PUSH1 0x11 PUSH1 0x4 MSTORE PUSH1 0x24 PUSH1 0x0 REVERT JUMPDEST DUP2 ISZERO PUSH2 0x140D JUMPI DIV SWAP1 JUMP JUMPDEST PUSH4 0x4E487B71 PUSH1 0xE0 SHL PUSH1 0x0 MSTORE PUSH1 0x12 PUSH1 0x4 MSTORE PUSH1 0x24 PUSH1 0x0 REVERT JUMPDEST SWAP2 SWAP1 DUP3 SUB SWAP2 DUP3 GT PUSH2 0x13ED JUMPI JUMP JUMPDEST SWAP2 SWAP1 DUP3 ADD DUP1 SWAP3 GT PUSH2 0x13ED JUMPI JUMP JUMPDEST ISZERO PUSH2 0x1444 JUMPI JUMP JUMPDEST PUSH1 0x40 MLOAD PUSH3 0x461BCD PUSH1 0xE5 SHL DUP2 MSTORE PUSH1 0x20 PUSH1 0x4 DUP3 ADD MSTORE PUSH1 0x9 PUSH1 0x24 DUP3 ADD MSTORE PUSH9 0x151BDBC81CDB585B1B PUSH1 0xBA SHL PUSH1 0x44 DUP3 ADD MSTORE PUSH1 0x64 SWAP1 REVERT JUMPDEST ISZERO PUSH2 0x147C JUMPI JUMP JUMPDEST PUSH1 0x40 MLOAD PUSH3 0x461BCD PUSH1 0xE5 SHL DUP2 MSTORE PUSH1 0x20 PUSH1 0x4 DUP3 ADD MSTORE PUSH1 0x8 PUSH1 0x24 DUP3 ADD MSTORE PUSH8 0x536C697070616765 PUSH1 0xC0 SHL PUSH1 0x44 DUP3 ADD MSTORE PUSH1 0x64 SWAP1 REVERT JUMPDEST PUSH1 0x1 PUSH1 0x1 PUSH1 0x40 SHL SUB DUP2 GT PUSH2 0x14BF JUMPI PUSH1 0x40 MSTORE JUMP JUMPDEST PUSH4 0x4E487B71 PUSH1 0xE0 SHL PUSH1 0x0 MSTORE PUSH1 0x41 PUSH1 0x4 MSTORE PUSH1 0x24 PUSH1 0x0 REVERT JUMPDEST PUSH1 0x1F SWAP1 SWAP2 ADD PUSH1 0x1F NOT AND DUP2 ADD SWAP1 PUSH1 0x1 PUSH1 0x1 PUSH1 0x40 SHL SUB DUP3 GT SWAP1 DUP3 LT OR PUSH2 0x14BF JUMPI PUSH1 0x40 MSTORE JUMP JUMPDEST SWAP1 DUP2 PUSH1 0x20 SWAP2 SUB SLT PUSH2 0x722 JUMPI MLOAD DUP1 ISZERO ISZERO DUP2 SUB PUSH2 0x722 JUMPI SWAP1 JUMP JUMPDEST PUSH1 0x1 PUSH1 0x1 PUSH1 0xA0 SHL SUB SWAP1 SWAP2 AND DUP2 MSTORE PUSH1 0x20 DUP2 ADD SWAP2 SWAP1 SWAP2 MSTORE PUSH1 0x40 ADD SWAP1 JUMP JUMPDEST SWAP1 SWAP5 SWAP4 SWAP3 PUSH1 0x60 SWAP3 PUSH1 0x80 DUP4 ADD SWAP7 DUP4 MSTORE PUSH1 0x20 DUP4 ADD MSTORE PUSH1 0x40 DUP3 ADD MSTORE ADD MSTORE JUMP JUMPDEST PUSH1 0x0 DUP1 MLOAD PUSH1 0x20 PUSH2 0x17FA DUP4 CODECOPY DUP2 MLOAD SWAP2 MSTORE PUSH1 0x2 DUP2 SLOAD EQ PUSH2 0x1565 JUMPI PUSH1 0x2 SWAP1 SSTORE JUMP JUMPDEST PUSH1 0x40 MLOAD PUSH4 0x3EE5AEB5 PUSH1 0xE0 SHL DUP2 MSTORE PUSH1 0x4 SWAP1 REVERT JUMPDEST RETURNDATASIZE ISZERO PUSH2 0x15B1 JUMPI RETURNDATASIZE SWAP1 PUSH1 0x1 PUSH1 0x1 PUSH1 0x40 SHL SUB DUP3 GT PUSH2 0x14BF JUMPI PUSH1 0x40 MLOAD SWAP2 PUSH2 0x15A5 PUSH1 0x1F DUP3 ADD PUSH1 0x1F NOT AND PUSH1 0x20 ADD DUP5 PUSH2 0x14D5 JUMP JUMPDEST DUP3 MSTORE RETURNDATASIZE PUSH1 0x0 PUSH1 0x20 DUP5 ADD RETURNDATACOPY JUMP JUMPDEST PUSH1 0x60 SWAP1 JUMP JUMPDEST SWAP1 DUP2 PUSH1 0x20 SWAP2 SUB SLT PUSH2 0x722 JUMPI MLOAD PUSH1 0x1 PUSH1 0x1 PUSH1 0xA0 SHL SUB DUP2 AND DUP2 SUB PUSH2 0x722 JUMPI SWAP1 JUMP JUMPDEST PUSH1 0x1 PUSH1 0x1 PUSH1 0xA0 SHL SUB SWAP2 DUP3 AND DUP2 MSTORE SWAP2 AND PUSH1 0x20 DUP3 ADD MSTORE PUSH1 0x40 ADD SWAP1 JUMP JUMPDEST PUSH1 0xFF PUSH1 0x3 SLOAD AND PUSH2 0x161E JUMPI PUSH1 0x2 SLOAD PUSH2 0x2710 SWAP1 DUP2 DUP2 MUL SWAP2 DUP2 DUP4 DIV EQ SWAP1 ISZERO OR ISZERO PUSH2 0x13ED JUMPI PUSH8 0x4563918244F40000 SWAP1 DIV SWAP1 JUMP JUMPDEST PUSH2 0x2710 SWAP1 JUMP JUMPDEST PUSH1 0x1 PUSH1 0x1 PUSH1 0xA0 SHL SUB AND PUSH1 0x0 SWAP1 DUP2 MSTORE PUSH1 0x4 PUSH1 0x20 MSTORE PUSH1 0x40 SWAP1 KECCAK256 SLOAD PUSH1 0x1 PUSH1 0x1 PUSH1 0x40 SHL SUB AND DUP1 ISZERO PUSH2 0x1689 JUMPI PUSH2 0x1655 SWAP1 TIMESTAMP PUSH2 0x1423 JUMP JUMPDEST PUSH2 0x12C DUP2 LT PUSH2 0x1682 JUMPI PUSH2 0xE10 DUP2 LT PUSH2 0x167B JUMPI PUSH3 0x15180 GT PUSH2 0x1675 JUMPI PUSH1 0x0 SWAP1 JUMP JUMPDEST PUSH2 0x1F4 SWAP1 JUMP JUMPDEST POP PUSH2 0x3E8 SWAP1 JUMP JUMPDEST POP PUSH2 0x7D0 SWAP1 JUMP JUMPDEST POP PUSH1 0x0 SWAP1 JUMP JUMPDEST PUSH1 0x3 SLOAD PUSH1 0xFF DUP2 AND SWAP1 DUP2 ISZERO PUSH2 0x1713 JUMPI JUMPDEST POP PUSH2 0x1689 JUMPI PUSH2 0x25B2 SWAP1 DUP2 DUP2 MUL SWAP2 DUP2 DUP4 DIV EQ SWAP1 ISZERO OR ISZERO PUSH2 0x13ED JUMPI PUSH1 0x2 SLOAD PUSH8 0x29A2241AF62C0000 SWAP1 DUP2 ADD DUP1 SWAP2 GT PUSH2 0x13ED JUMPI PUSH2 0x16F2 SWAP1 PUSH2 0xBAD PUSH1 0x1 SLOAD SWAP2 PUSH2 0x2F7 PUSH2 0x16E5 DUP5 DUP4 PUSH2 0x13DA JUMP JUMPDEST SWAP2 PUSH2 0x2710 DUP1 SWAP8 DIV SWAP1 PUSH2 0x1430 JUMP JUMPDEST PUSH1 0x96 DUP2 MUL SWAP2 DUP2 DUP4 DIV PUSH1 0x96 EQ DUP3 ISZERO OR ISZERO PUSH2 0x13ED JUMPI PUSH2 0x1710 SWAP3 DIV SWAP1 PUSH2 0x1423 JUMP JUMPDEST SWAP1 JUMP JUMPDEST PUSH1 0xFF SWAP2 POP PUSH1 0x8 SHR AND CODESIZE PUSH2 0x169E JUMP JUMPDEST PUSH1 0x3 SLOAD PUSH1 0xFF DUP2 AND SWAP1 DUP2 ISZERO PUSH2 0x17EB JUMPI JUMPDEST POP PUSH2 0x17E4 JUMPI PUSH1 0x96 DUP2 MUL SWAP1 DUP1 DUP3 DIV PUSH1 0x96 EQ DUP2 ISZERO OR ISZERO PUSH2 0x13ED JUMPI PUSH2 0x1758 SWAP1 PUSH2 0x2710 DUP1 SWAP4 DIV SWAP1 PUSH2 0x1423 JUMP JUMPDEST SWAP2 PUSH1 0x2 SLOAD SWAP3 PUSH8 0x29A2241AF62C0000 DUP5 DUP2 ADD DUP1 SWAP2 GT PUSH2 0x13ED JUMPI PUSH2 0xBAD PUSH2 0x1788 SWAP3 PUSH2 0x2F7 PUSH1 0x1 SLOAD SWAP2 PUSH2 0x2F1 DUP4 DUP7 PUSH2 0x13DA JUMP JUMPDEST SWAP3 DUP1 DUP5 GT PUSH2 0x17DA JUMPI JUMPDEST POP PUSH2 0x179B SWAP1 PUSH2 0x1624 JUMP JUMPDEST DUP1 PUSH1 0xC8 ADD SWAP1 DUP2 PUSH1 0xC8 GT PUSH2 0x13ED JUMPI PUSH2 0x15E ADD DUP1 SWAP2 GT PUSH2 0x13ED JUMPI PUSH2 0x17BD SWAP1 DUP4 PUSH2 0x13DA JUMP JUMPDEST DIV PUSH1 0x0 SWAP2 DUP2 DUP2 GT PUSH1 0x0 EQ PUSH2 0x17D5 JUMPI PUSH2 0x1710 SWAP3 POP PUSH2 0x1423 JUMP JUMPDEST POP POP SWAP1 JUMP JUMPDEST SWAP3 POP PUSH2 0x179B PUSH2 0x1791 JUMP JUMPDEST POP POP PUSH1 0x0 SWAP1 JUMP JUMPDEST PUSH1 0xFF SWAP2 POP PUSH1 0x8 SHR AND CODESIZE PUSH2 0x1730 JUMP INVALID SWAP12 PUSH24 0x9B17422D0DF92223018B32B4D1FA46E071723D6817E2486D STOP EXTCODESIZE 0xEC 0xC5 PUSH0 STOP LOG2 PUSH5 0x6970667358 0x22 SLT KECCAK256 PUSH12 0x357500352D963AEBE7F0C553 0x2F 0x2E JUMPDEST SWAP11 0xB6 0xD8 0xFC ISZERO DUP8 SHL 0x25 0xBA 0xE1 0xE5 0xC3 AND CALLCODE 0xAF PUSH6 0x64736F6C6343 STOP ADDMOD EQ STOP CALLER "},"methodIdentifiers":{"BURN_BPS()":"a37a9fc0","CURVE_TOKEN_SUPPLY()":"9f870a75","GRAD_TOKEN_SUPPLY()":"c8f3bfd3","PLATFORM_BPS()":"ce91e164","REWARD_BPS()":"47b12bfc","SNIPE_BPS_1HR()":"c463ecd7","SNIPE_BPS_24HR()":"bacf2a7b","SNIPE_BPS_5MIN()":"bb103cbc","TARGET_REAL_ETH()":"94562afb","VIRTUAL_ETH()":"6700c0c3","buy(uint256)":"d96a094a","currentPrice()":"9d1b464a","factory()":"c45a0155","forceCloseAndWithdraw(address)":"50b89418","forceClosed()":"72d6e43a","getBuyAmount(uint256)":"1fb87f39","getSellAmount(uint256,address)":"71c1b833","graduated()":"e7c2b772","initToken(address)":"df4d17dc","lastBuyAt(address)":"55ee54a1","progressBps()":"6c1eba15","realEthRaised()":"130b3120","sell(uint256,uint256)":"d79875eb","token()":"fc0c546a","uniswapFactory()":"8bdb2afa","uniswapRouter()":"735de9f7","virtualTokenReserve()":"343ee3b7"}}}}}