{"contracts/AsteroidStrategy.sol":{"AsteroidStrategy":{"abi":[{"inputs":[{"internalType":"address","name":"_routerAddress","type":"address"}],"stateMutability":"nonpayable","type":"constructor"},{"anonymous":false,"inputs":[{"indexed":true,"internalType":"address","name":"owner","type":"address"},{"indexed":true,"internalType":"address","name":"spender","type":"address"},{"indexed":false,"internalType":"uint256","name":"value","type":"uint256"}],"name":"Approval","type":"event"},{"anonymous":false,"inputs":[{"indexed":true,"internalType":"address","name":"newWallet","type":"address"}],"name":"BuybackWalletUpdated","type":"event"},{"anonymous":false,"inputs":[{"indexed":true,"internalType":"address","name":"previousOwner","type":"address"},{"indexed":true,"internalType":"address","name":"newOwner","type":"address"}],"name":"OwnershipTransferred","type":"event"},{"anonymous":false,"inputs":[{"indexed":false,"internalType":"uint256","name":"buyTax","type":"uint256"},{"indexed":false,"internalType":"uint256","name":"sellTax","type":"uint256"}],"name":"TaxUpdated","type":"event"},{"anonymous":false,"inputs":[{"indexed":false,"internalType":"uint256","name":"tokensSwapped","type":"uint256"},{"indexed":false,"internalType":"uint256","name":"ethReceived","type":"uint256"}],"name":"TokensSwappedForETH","type":"event"},{"anonymous":false,"inputs":[],"name":"TradingEnabled","type":"event"},{"anonymous":false,"inputs":[{"indexed":true,"internalType":"address","name":"from","type":"address"},{"indexed":true,"internalType":"address","name":"to","type":"address"},{"indexed":false,"internalType":"uint256","name":"value","type":"uint256"}],"name":"Transfer","type":"event"},{"inputs":[{"internalType":"address","name":"_owner","type":"address"},{"internalType":"address","name":"spender","type":"address"}],"name":"allowance","outputs":[{"internalType":"uint256","name":"","type":"uint256"}],"stateMutability":"view","type":"function"},{"inputs":[{"internalType":"address","name":"spender","type":"address"},{"internalType":"uint256","name":"amount","type":"uint256"}],"name":"approve","outputs":[{"internalType":"bool","name":"","type":"bool"}],"stateMutability":"nonpayable","type":"function"},{"inputs":[{"internalType":"address","name":"account","type":"address"}],"name":"balanceOf","outputs":[{"internalType":"uint256","name":"","type":"uint256"}],"stateMutability":"view","type":"function"},{"inputs":[],"name":"buyTax","outputs":[{"internalType":"uint256","name":"","type":"uint256"}],"stateMutability":"view","type":"function"},{"inputs":[],"name":"buybackWallet","outputs":[{"internalType":"address","name":"","type":"address"}],"stateMutability":"view","type":"function"},{"inputs":[],"name":"decimals","outputs":[{"internalType":"uint8","name":"","type":"uint8"}],"stateMutability":"view","type":"function"},{"inputs":[],"name":"enableTrading","outputs":[],"stateMutability":"nonpayable","type":"function"},{"inputs":[{"internalType":"address","name":"","type":"address"}],"name":"isExcludedFromFee","outputs":[{"internalType":"bool","name":"","type":"bool"}],"stateMutability":"view","type":"function"},{"inputs":[],"name":"name","outputs":[{"internalType":"string","name":"","type":"string"}],"stateMutability":"view","type":"function"},{"inputs":[],"name":"owner","outputs":[{"internalType":"address","name":"","type":"address"}],"stateMutability":"view","type":"function"},{"inputs":[],"name":"renounceOwnership","outputs":[],"stateMutability":"nonpayable","type":"function"},{"inputs":[],"name":"sellTax","outputs":[{"internalType":"uint256","name":"","type":"uint256"}],"stateMutability":"view","type":"function"},{"inputs":[{"internalType":"address","name":"w","type":"address"}],"name":"setBuybackWallet","outputs":[],"stateMutability":"nonpayable","type":"function"},{"inputs":[{"internalType":"address","name":"a","type":"address"},{"internalType":"bool","name":"e","type":"bool"}],"name":"setExcludedFromFee","outputs":[],"stateMutability":"nonpayable","type":"function"},{"inputs":[{"internalType":"uint256","name":"b","type":"uint256"},{"internalType":"uint256","name":"s","type":"uint256"}],"name":"setTax","outputs":[],"stateMutability":"nonpayable","type":"function"},{"inputs":[],"name":"swapThreshold","outputs":[{"internalType":"uint256","name":"","type":"uint256"}],"stateMutability":"view","type":"function"},{"inputs":[],"name":"symbol","outputs":[{"internalType":"string","name":"","type":"string"}],"stateMutability":"view","type":"function"},{"inputs":[],"name":"totalSupply","outputs":[{"internalType":"uint256","name":"","type":"uint256"}],"stateMutability":"pure","type":"function"},{"inputs":[],"name":"tradingEnabled","outputs":[{"internalType":"bool","name":"","type":"bool"}],"stateMutability":"view","type":"function"},{"inputs":[{"internalType":"address","name":"to","type":"address"},{"internalType":"uint256","name":"amount","type":"uint256"}],"name":"transfer","outputs":[{"internalType":"bool","name":"","type":"bool"}],"stateMutability":"nonpayable","type":"function"},{"inputs":[{"internalType":"address","name":"from","type":"address"},{"internalType":"address","name":"to","type":"address"},{"internalType":"uint256","name":"amount","type":"uint256"}],"name":"transferFrom","outputs":[{"internalType":"bool","name":"","type":"bool"}],"stateMutability":"nonpayable","type":"function"},{"inputs":[{"internalType":"address","name":"n","type":"address"}],"name":"transferOwnership","outputs":[],"stateMutability":"nonpayable","type":"function"},{"inputs":[],"name":"uniswapPair","outputs":[{"internalType":"address","name":"","type":"address"}],"stateMutability":"view","type":"function"},{"inputs":[],"name":"uniswapRouter","outputs":[{"internalType":"contract IUniswapV2Router02","name":"","type":"address"}],"stateMutability":"view","type":"function"},{"inputs":[],"name":"withdrawETH","outputs":[],"stateMutability":"nonpayable","type":"function"},{"stateMutability":"payable","type":"receive"}],"evm":{"bytecode":{"linkReferences":{},"object":"608060409080825234620003ba576200003290620013928038038091620000278285620003bf565b8339810190620003f9565b6000906005825560056001556aadfe494c6f4a9717a0000060035560049081549160018060a01b038092169283156200037757610100600160b01b0319163360101b62010000600160b01b0316178155600280546001600160a01b031990811673bf06930f29d047823541c7726142a30aa9a8cddc1790915530808652600760209081528787206c054f529ca52576bc689200000090819055885190815290947fddf252ad1be2c89b69c2b068fc378daa952ba7f163c4a11628f55a4df523b3ef949093929091889086908890a33087526007855287872080546c02a7a94e5292bb5e3448ffffff19959186820191821162000364575561dead94858952600787528989209081546c02a7a94e5292bb5e344900000092838201809211620003515755868b51838152848a3092a3308a52600788528a8a2080549182019182116200033e5755338952600787528989208054908282018092116200033e575589519081523391873092a360058054831687179055875163c45a015560e01b815290858282818a5afa9182156200033457889262000310575b5088516315ab88c960e31b815291868383818b5afa92831562000306579287928a878d9481978395620002e1575b50604494955197889687956364e329cb60e11b87523090870152166024850152165af1908115620002d7579083918891620002a3575b5016906006541617600655338552600983528585209160ff1992600184825416179055308652868620600184825416179055855285852060018382541617905560025416845260018585209182541617905530835260088152838320918352528160001991205551610f7790816200041b8239f35b620002c89150863d8811620002cf575b620002bf8183620003bf565b810190620003f9565b386200022e565b503d620002b3565b88513d89823e3d90fd5b60449550620002ff90883d8a11620002cf57620002bf8183620003bf565b94620001f8565b8a513d8b823e3d90fd5b6200032c919250863d8811620002cf57620002bf8183620003bf565b9038620001ca565b89513d8a823e3d90fd5b634e487b7160e01b8b526011855260248bfd5b634e487b7160e01b8c526011865260248cfd5b634e487b7160e01b8a526011845260248afd5b855162461bcd60e51b8152602081840152601360248201527f5a65726f20726f757465722061646472657373000000000000000000000000006044820152606490fd5b600080fd5b601f909101601f19168101906001600160401b03821190821017620003e357604052565b634e487b7160e01b600052604160045260246000fd5b90816020910312620003ba57516001600160a01b0381168103620003ba579056fe608060409080825260049081361015610023575b505050361561002157600080fd5b005b600092833560e01c9182630445b667146107f35750816306fdde03146107aa578163095ea7b31461078057816318160ddd146107585781631d0adc07146106bc57816323b872dd14610608578163313ce567146105ec5781634ada218b146105c55781634f7041a5146105a85781635342acb41461056a5781636612e66f1461050b578163667f65261461048657816370a082311461044e578163715018a6146103fd578163735de9f7146103d45781638a8c523c146103755781638da5cb5b1461034457816395d89b41146102fd578163a9059cbb146102cc578163c816841b146102a3578163cc1776d314610284578163dd62ed3e1461023b578163deab8aea146102125750828163e086e5ec146101c7575063f2fde38b146101485780610013565b346101c35760203660031901126101c3576101616108ac565b8154906001600160a01b03601083901c81169061017f338314610ec9565b82169081156101bf57600080516020610f028339815191528680a362010000600160b01b031990911660109190911b62010000600160b01b031617905580f35b8580fd5b5080fd5b80833461020f578160031936011261020f575481908190819060101c6001600160a01b03166101f7338214610ec9565b47905af1610203610e8a565b501561020c5780f35b80fd5b50fd5b8390346101c357816003193601126101c35760025490516001600160a01b039091168152602090f35b8390346101c357806003193601126101c357806020926102596108ac565b6102616108c7565b6001600160a01b0391821683526008865283832091168252845220549051908152f35b8390346101c357816003193601126101c3576020906001549051908152f35b8390346101c357816003193601126101c35760065490516001600160a01b039091168152602090f35b8390346101c357806003193601126101c3576020906102f66102ec6108ac565b6024359033610992565b5160018152f35b8390346101c357816003193601126101c35780516103409161031e8261080f565b600b82526a20a9aa22a927a4a229aa2960a91b60208301525191829182610863565b0390f35b9190503461037157826003193601126103715754905160109190911c6001600160a01b0316815260209150f35b8280fd5b5050346101c357816003193601126101c3578054610100906103a533601083901c6001600160a01b031614610ec9565b61ff0019161790557f799663458a5ef2936f7fa0c99b3336c69c25890f82974f04e811e5bb359186c78180a180f35b8390346101c357816003193601126101c35760055490516001600160a01b039091168152602090f35b5050346101c357816003193601126101c357805482601082901c6001600160a01b031661042b338214610ec9565b600080516020610f028339815191528280a362010000600160b01b031916905580f35b8390346101c35760203660031901126101c35760209181906001600160a01b036104766108ac565b1681526007845220549051908152f35b90503461037157806003193601126103715781356104b56024359360018060a01b03905460101c163314610ec9565b600a81111580610500575b156104fc577fb841faf0d1b32571f4ef966a2f35e3ae51f3cdda45318c3da5570a5b2ad85605928185558060015582519182526020820152a180f35b8380fd5b50600a8311156104c0565b9050346103715780600319360112610371576105256108ac565b91602435928315158094036105665761054c60018060a01b0380935460101c163314610ec9565b168352600960205282209060ff8019835416911617905580f35b8480fd5b8390346101c35760203660031901126101c35760209160ff9082906001600160a01b036105956108ac565b1681526009855220541690519015158152f35b8390346101c357816003193601126101c357602091549051908152f35b9050823461020c578060031936011261020c575060ff6020925460081c1690519015158152f35b8390346101c357816003193601126101c3576020905160128152f35b8383346101c35760603660031901126101c3576106236108ac565b61062b6108c7565b6001600160a01b038216845260086020908152858520338652905292849020546044359392848210610679576020866102f687878761067461066d848a6108dd565b3383610900565b610992565b606490602087519162461bcd60e51b8352820152601d60248201527f45524332303a20696e73756666696369656e7420616c6c6f77616e63650000006044820152fd5b905034610371576020366003190112610371576106f2916106db6108ac565b60018060a01b03938480935460101c163314610ec9565b169182156104fc57600254168352600960205260018184209160ff199283815416905583828060a01b031960025416176002558385528420918254161790557f2e5665e81af8928ff3f79e82650b68c9459cde711420effbff19b3ccee749f818280a280f35b8390346101c357816003193601126101c357602090516c054f529ca52576bc68920000008152f35b8390346101c357806003193601126101c3576020906102f66107a06108ac565b6024359033610900565b8390346101c357816003193601126101c3578051610340916107cb8261080f565b601182527041737465726f696420537472617465677960781b60208301525191829182610863565b8490346101c357816003193601126101c3576020906003548152f35b604081019081106001600160401b0382111761082a57604052565b634e487b7160e01b600052604160045260246000fd5b601f909101601f19168101906001600160401b0382119082101761082a57604052565b6020808252825181830181905290939260005b82811061089857505060409293506000838284010152601f8019910116010190565b818101860151848201604001528501610876565b600435906001600160a01b03821682036108c257565b600080fd5b602435906001600160a01b03821682036108c257565b919082039182116108ea57565b634e487b7160e01b600052601160045260246000fd5b90916001600160a01b039182169182151580610967575b156108c2577f8c5be1e5ebec7d5bd14f71427d1e84f3dd0314c0f7b2291e5b200ac8c7c3b925916020918460005260088352604060002095169485600052825280604060002055604051908152a3565b508084161515610917565b818102929181159184041417156108ea57565b919082018092116108ea57565b6001600160a01b031690600082151580610e78575b80610e6f575b1561020c576006546004546001600160a01b03938416959190931692600881901c60ff1615610e04575b30835260076020526040832054906003548092101580610df9575b80610df0575b80610dd9575b610b0c575b5050906040610a45600080516020610f228339815191529460209484918886526009875260ff85872054161580610afb575b610ab9575b5081610a7b576108dd565b9185815260078452818120610a5b8482546108dd565b90558681526007845220610a70828254610985565b9055604051908152a3565b87855260078652838520610a908382546108dd565b905530855260078652838520610aa7838254610985565b905583518281528888883093a36108dd565b808914610ae5575b8914610ace575b38610a3a565b90506064610ade60015483610972565b0490610ac8565b91506064610af4865483610972565b0491610ac1565b5089865260ff858720541615610a35565b60ff1916600117600455604051606081016001600160401b03811182821017610dc5576040526002815260208101906040368337805115610db1573082526005546040516315ab88c960e31b81526001600160a01b0390911690602081600481855afa908115610da6578791610d60575b50825160011015610d4c576001600160a01b0316604083015247924261012c8101908110610d3857823b15610d3457929091879260405194859363791ac94760e01b855260a485019089600487015286602487015260a060448701525180915260c485019290865b818110610d0f575050508380928692306064840152608483015203925af19081610ce0575b50610c26575b50506004805460ff191690556040610a45610a03565b610c3090476108dd565b8015610c1057838080808460018060a09a999a1b03600254165af1610c53610e8a565b5015610ca957600080516020610f22833981519152946020947f36a9a8ddccb9a6e60b53280dd3cea8ae4f010efbf6625460af0268cd6513a83560408095610a4595825191825289820152a19394509450610c10565b60405162461bcd60e51b815260206004820152600f60248201526e115512081cd95b990819985a5b1959608a1b6044820152606490fd5b9094906001600160401b038111610cfb576040529338610c0a565b634e487b7160e01b82526041600452602482fd5b82516001600160a01b031685528c975088965060209485019490920191600101610be5565b8780fd5b634e487b7160e01b88526011600452602488fd5b634e487b7160e01b87526032600452602487fd5b90506020813d602011610d9e575b81610d7b60209383610840565b81010312610d9a57516001600160a01b0381168103610d9a5738610b7d565b8680fd5b3d9150610d6e565b6040513d89823e3d90fd5b634e487b7160e01b85526032600452602485fd5b634e487b7160e01b85526041600452602485fd5b50858452600960205260ff604085205416156109fe565b508487146109f8565b5060ff8116156109f2565b848352600960205260ff6040842054168015610e5e575b6109d75760405162461bcd60e51b8152602060048201526017602482015276151c98591a5b99c81b9bdd081e595d08195b98589b1959604a1b6044820152606490fd5b5085835260ff604084205416610e1b565b508315156109ad565b506001600160a01b03821615156109a7565b3d15610ec4573d906001600160401b03821161082a5760405191610eb8601f8201601f191660200184610840565b82523d6000602084013e565b606090565b15610ed057565b60405162461bcd60e51b81526020600482015260096024820152682737ba1037bbb732b960b91b6044820152606490fdfe8be0079c531659141344cd1fd0a4f28419497f9722a3daafe3b4186f6b6457e0ddf252ad1be2c89b69c2b068fc378daa952ba7f163c4a11628f55a4df523b3efa2646970667358221220a485213e9bf3ecb5390fe507e9491403eed0bd499b674be9ab3c6f48c371150a64736f6c63430008140033","opcodes":"PUSH1 0x80 PUSH1 0x40 SWAP1 DUP1 DUP3 MSTORE CALLVALUE PUSH3 0x3BA JUMPI PUSH3 0x32 SWAP1 PUSH3 0x1392 DUP1 CODESIZE SUB DUP1 SWAP2 PUSH3 0x27 DUP3 DUP6 PUSH3 0x3BF JUMP JUMPDEST DUP4 CODECOPY DUP2 ADD SWAP1 PUSH3 0x3F9 JUMP JUMPDEST PUSH1 0x0 SWAP1 PUSH1 0x5 DUP3 SSTORE PUSH1 0x5 PUSH1 0x1 SSTORE PUSH11 0xADFE494C6F4A9717A00000 PUSH1 0x3 SSTORE PUSH1 0x4 SWAP1 DUP2 SLOAD SWAP2 PUSH1 0x1 DUP1 PUSH1 0xA0 SHL SUB DUP1 SWAP3 AND SWAP3 DUP4 ISZERO PUSH3 0x377 JUMPI PUSH2 0x100 PUSH1 0x1 PUSH1 0xB0 SHL SUB NOT AND CALLER PUSH1 0x10 SHL PUSH3 0x10000 PUSH1 0x1 PUSH1 0xB0 SHL SUB AND OR DUP2 SSTORE PUSH1 0x2 DUP1 SLOAD PUSH1 0x1 PUSH1 0x1 PUSH1 0xA0 SHL SUB NOT SWAP1 DUP2 AND PUSH20 0xBF06930F29D047823541C7726142A30AA9A8CDDC OR SWAP1 SWAP2 SSTORE ADDRESS DUP1 DUP7 MSTORE PUSH1 0x7 PUSH1 0x20 SWAP1 DUP2 MSTORE DUP8 DUP8 KECCAK256 PUSH13 0x54F529CA52576BC6892000000 SWAP1 DUP2 SWAP1 SSTORE DUP9 MLOAD SWAP1 DUP2 MSTORE SWAP1 SWAP5 PUSH32 0xDDF252AD1BE2C89B69C2B068FC378DAA952BA7F163C4A11628F55A4DF523B3EF SWAP5 SWAP1 SWAP4 SWAP3 SWAP1 SWAP2 DUP9 SWAP1 DUP7 SWAP1 DUP9 SWAP1 LOG3 ADDRESS DUP8 MSTORE PUSH1 0x7 DUP6 MSTORE DUP8 DUP8 KECCAK256 DUP1 SLOAD PUSH13 0x2A7A94E5292BB5E3448FFFFFF NOT SWAP6 SWAP2 DUP7 DUP3 ADD SWAP2 DUP3 GT PUSH3 0x364 JUMPI SSTORE PUSH2 0xDEAD SWAP5 DUP6 DUP10 MSTORE PUSH1 0x7 DUP8 MSTORE DUP10 DUP10 KECCAK256 SWAP1 DUP2 SLOAD PUSH13 0x2A7A94E5292BB5E3449000000 SWAP3 DUP4 DUP3 ADD DUP1 SWAP3 GT PUSH3 0x351 JUMPI SSTORE DUP7 DUP12 MLOAD DUP4 DUP2 MSTORE DUP5 DUP11 ADDRESS SWAP3 LOG3 ADDRESS DUP11 MSTORE PUSH1 0x7 DUP9 MSTORE DUP11 DUP11 KECCAK256 DUP1 SLOAD SWAP2 DUP3 ADD SWAP2 DUP3 GT PUSH3 0x33E JUMPI SSTORE CALLER DUP10 MSTORE PUSH1 0x7 DUP8 MSTORE DUP10 DUP10 KECCAK256 DUP1 SLOAD SWAP1 DUP3 DUP3 ADD DUP1 SWAP3 GT PUSH3 0x33E JUMPI SSTORE DUP10 MLOAD SWAP1 DUP2 MSTORE CALLER SWAP2 DUP8 ADDRESS SWAP3 LOG3 PUSH1 0x5 DUP1 SLOAD DUP4 AND DUP8 OR SWAP1 SSTORE DUP8 MLOAD PUSH4 0xC45A0155 PUSH1 0xE0 SHL DUP2 MSTORE SWAP1 DUP6 DUP3 DUP3 DUP2 DUP11 GAS STATICCALL SWAP2 DUP3 ISZERO PUSH3 0x334 JUMPI DUP9 SWAP3 PUSH3 0x310 JUMPI JUMPDEST POP DUP9 MLOAD PUSH4 0x15AB88C9 PUSH1 0xE3 SHL DUP2 MSTORE SWAP2 DUP7 DUP4 DUP4 DUP2 DUP12 GAS STATICCALL SWAP3 DUP4 ISZERO PUSH3 0x306 JUMPI SWAP3 DUP8 SWAP3 DUP11 DUP8 DUP14 SWAP5 DUP2 SWAP8 DUP4 SWAP6 PUSH3 0x2E1 JUMPI JUMPDEST POP PUSH1 0x44 SWAP5 SWAP6 MLOAD SWAP8 DUP9 SWAP7 DUP8 SWAP6 PUSH4 0x64E329CB PUSH1 0xE1 SHL DUP8 MSTORE ADDRESS SWAP1 DUP8 ADD MSTORE AND PUSH1 0x24 DUP6 ADD MSTORE AND GAS CALL SWAP1 DUP2 ISZERO PUSH3 0x2D7 JUMPI SWAP1 DUP4 SWAP2 DUP9 SWAP2 PUSH3 0x2A3 JUMPI JUMPDEST POP AND SWAP1 PUSH1 0x6 SLOAD AND OR PUSH1 0x6 SSTORE CALLER DUP6 MSTORE PUSH1 0x9 DUP4 MSTORE DUP6 DUP6 KECCAK256 SWAP2 PUSH1 0xFF NOT SWAP3 PUSH1 0x1 DUP5 DUP3 SLOAD AND OR SWAP1 SSTORE ADDRESS DUP7 MSTORE DUP7 DUP7 KECCAK256 PUSH1 0x1 DUP5 DUP3 SLOAD AND OR SWAP1 SSTORE DUP6 MSTORE DUP6 DUP6 KECCAK256 PUSH1 0x1 DUP4 DUP3 SLOAD AND OR SWAP1 SSTORE PUSH1 0x2 SLOAD AND DUP5 MSTORE PUSH1 0x1 DUP6 DUP6 KECCAK256 SWAP2 DUP3 SLOAD AND OR SWAP1 SSTORE ADDRESS DUP4 MSTORE PUSH1 0x8 DUP2 MSTORE DUP4 DUP4 KECCAK256 SWAP2 DUP4 MSTORE MSTORE DUP2 PUSH1 0x0 NOT SWAP2 KECCAK256 SSTORE MLOAD PUSH2 0xF77 SWAP1 DUP2 PUSH3 0x41B DUP3 CODECOPY RETURN JUMPDEST PUSH3 0x2C8 SWAP2 POP DUP7 RETURNDATASIZE DUP9 GT PUSH3 0x2CF JUMPI JUMPDEST PUSH3 0x2BF DUP2 DUP4 PUSH3 0x3BF JUMP JUMPDEST DUP2 ADD SWAP1 PUSH3 0x3F9 JUMP JUMPDEST CODESIZE PUSH3 0x22E JUMP JUMPDEST POP RETURNDATASIZE PUSH3 0x2B3 JUMP JUMPDEST DUP9 MLOAD RETURNDATASIZE DUP10 DUP3 RETURNDATACOPY RETURNDATASIZE SWAP1 REVERT JUMPDEST PUSH1 0x44 SWAP6 POP PUSH3 0x2FF SWAP1 DUP9 RETURNDATASIZE DUP11 GT PUSH3 0x2CF JUMPI PUSH3 0x2BF DUP2 DUP4 PUSH3 0x3BF JUMP JUMPDEST SWAP5 PUSH3 0x1F8 JUMP JUMPDEST DUP11 MLOAD RETURNDATASIZE DUP12 DUP3 RETURNDATACOPY RETURNDATASIZE SWAP1 REVERT JUMPDEST PUSH3 0x32C SWAP2 SWAP3 POP DUP7 RETURNDATASIZE DUP9 GT PUSH3 0x2CF JUMPI PUSH3 0x2BF DUP2 DUP4 PUSH3 0x3BF JUMP JUMPDEST SWAP1 CODESIZE PUSH3 0x1CA JUMP JUMPDEST DUP10 MLOAD RETURNDATASIZE DUP11 DUP3 RETURNDATACOPY RETURNDATASIZE SWAP1 REVERT JUMPDEST PUSH4 0x4E487B71 PUSH1 0xE0 SHL DUP12 MSTORE PUSH1 0x11 DUP6 MSTORE PUSH1 0x24 DUP12 REVERT JUMPDEST PUSH4 0x4E487B71 PUSH1 0xE0 SHL DUP13 MSTORE PUSH1 0x11 DUP7 MSTORE PUSH1 0x24 DUP13 REVERT JUMPDEST PUSH4 0x4E487B71 PUSH1 0xE0 SHL DUP11 MSTORE PUSH1 0x11 DUP5 MSTORE PUSH1 0x24 DUP11 REVERT JUMPDEST DUP6 MLOAD PUSH3 0x461BCD PUSH1 0xE5 SHL DUP2 MSTORE PUSH1 0x20 DUP2 DUP5 ADD MSTORE PUSH1 0x13 PUSH1 0x24 DUP3 ADD MSTORE PUSH32 0x5A65726F20726F75746572206164647265737300000000000000000000000000 PUSH1 0x44 DUP3 ADD MSTORE PUSH1 0x64 SWAP1 REVERT JUMPDEST PUSH1 0x0 DUP1 REVERT JUMPDEST PUSH1 0x1F SWAP1 SWAP2 ADD PUSH1 0x1F NOT AND DUP2 ADD SWAP1 PUSH1 0x1 PUSH1 0x1 PUSH1 0x40 SHL SUB DUP3 GT SWAP1 DUP3 LT OR PUSH3 0x3E3 JUMPI PUSH1 0x40 MSTORE JUMP JUMPDEST PUSH4 0x4E487B71 PUSH1 0xE0 SHL PUSH1 0x0 MSTORE PUSH1 0x41 PUSH1 0x4 MSTORE PUSH1 0x24 PUSH1 0x0 REVERT JUMPDEST SWAP1 DUP2 PUSH1 0x20 SWAP2 SUB SLT PUSH3 0x3BA JUMPI MLOAD PUSH1 0x1 PUSH1 0x1 PUSH1 0xA0 SHL SUB DUP2 AND DUP2 SUB PUSH3 0x3BA JUMPI SWAP1 JUMP INVALID PUSH1 0x80 PUSH1 0x40 SWAP1 DUP1 DUP3 MSTORE PUSH1 0x4 SWAP1 DUP2 CALLDATASIZE LT ISZERO PUSH2 0x23 JUMPI JUMPDEST POP POP POP CALLDATASIZE ISZERO PUSH2 0x21 JUMPI PUSH1 0x0 DUP1 REVERT JUMPDEST STOP JUMPDEST PUSH1 0x0 SWAP3 DUP4 CALLDATALOAD PUSH1 0xE0 SHR SWAP2 DUP3 PUSH4 0x445B667 EQ PUSH2 0x7F3 JUMPI POP DUP2 PUSH4 0x6FDDE03 EQ PUSH2 0x7AA JUMPI DUP2 PUSH4 0x95EA7B3 EQ PUSH2 0x780 JUMPI DUP2 PUSH4 0x18160DDD EQ PUSH2 0x758 JUMPI DUP2 PUSH4 0x1D0ADC07 EQ PUSH2 0x6BC JUMPI DUP2 PUSH4 0x23B872DD EQ PUSH2 0x608 JUMPI DUP2 PUSH4 0x313CE567 EQ PUSH2 0x5EC JUMPI DUP2 PUSH4 0x4ADA218B EQ PUSH2 0x5C5 JUMPI DUP2 PUSH4 0x4F7041A5 EQ PUSH2 0x5A8 JUMPI DUP2 PUSH4 0x5342ACB4 EQ PUSH2 0x56A JUMPI DUP2 PUSH4 0x6612E66F EQ PUSH2 0x50B JUMPI DUP2 PUSH4 0x667F6526 EQ PUSH2 0x486 JUMPI DUP2 PUSH4 0x70A08231 EQ PUSH2 0x44E JUMPI DUP2 PUSH4 0x715018A6 EQ PUSH2 0x3FD JUMPI DUP2 PUSH4 0x735DE9F7 EQ PUSH2 0x3D4 JUMPI DUP2 PUSH4 0x8A8C523C EQ PUSH2 0x375 JUMPI DUP2 PUSH4 0x8DA5CB5B EQ PUSH2 0x344 JUMPI DUP2 PUSH4 0x95D89B41 EQ PUSH2 0x2FD JUMPI DUP2 PUSH4 0xA9059CBB EQ PUSH2 0x2CC JUMPI DUP2 PUSH4 0xC816841B EQ PUSH2 0x2A3 JUMPI DUP2 PUSH4 0xCC1776D3 EQ PUSH2 0x284 JUMPI DUP2 PUSH4 0xDD62ED3E EQ PUSH2 0x23B JUMPI DUP2 PUSH4 0xDEAB8AEA EQ PUSH2 0x212 JUMPI POP DUP3 DUP2 PUSH4 0xE086E5EC EQ PUSH2 0x1C7 JUMPI POP PUSH4 0xF2FDE38B EQ PUSH2 0x148 JUMPI DUP1 PUSH2 0x13 JUMP JUMPDEST CALLVALUE PUSH2 0x1C3 JUMPI PUSH1 0x20 CALLDATASIZE PUSH1 0x3 NOT ADD SLT PUSH2 0x1C3 JUMPI PUSH2 0x161 PUSH2 0x8AC JUMP JUMPDEST DUP2 SLOAD SWAP1 PUSH1 0x1 PUSH1 0x1 PUSH1 0xA0 SHL SUB PUSH1 0x10 DUP4 SWAP1 SHR DUP2 AND SWAP1 PUSH2 0x17F CALLER DUP4 EQ PUSH2 0xEC9 JUMP JUMPDEST DUP3 AND SWAP1 DUP2 ISZERO PUSH2 0x1BF JUMPI PUSH1 0x0 DUP1 MLOAD PUSH1 0x20 PUSH2 0xF02 DUP4 CODECOPY DUP2 MLOAD SWAP2 MSTORE DUP7 DUP1 LOG3 PUSH3 0x10000 PUSH1 0x1 PUSH1 0xB0 SHL SUB NOT SWAP1 SWAP2 AND PUSH1 0x10 SWAP2 SWAP1 SWAP2 SHL PUSH3 0x10000 PUSH1 0x1 PUSH1 0xB0 SHL SUB AND OR SWAP1 SSTORE DUP1 RETURN JUMPDEST DUP6 DUP1 REVERT JUMPDEST POP DUP1 REVERT JUMPDEST DUP1 DUP4 CALLVALUE PUSH2 0x20F JUMPI DUP2 PUSH1 0x3 NOT CALLDATASIZE ADD SLT PUSH2 0x20F JUMPI SLOAD DUP2 SWAP1 DUP2 SWAP1 DUP2 SWAP1 PUSH1 0x10 SHR PUSH1 0x1 PUSH1 0x1 PUSH1 0xA0 SHL SUB AND PUSH2 0x1F7 CALLER DUP3 EQ PUSH2 0xEC9 JUMP JUMPDEST SELFBALANCE SWAP1 GAS CALL PUSH2 0x203 PUSH2 0xE8A JUMP JUMPDEST POP ISZERO PUSH2 0x20C JUMPI DUP1 RETURN JUMPDEST DUP1 REVERT JUMPDEST POP REVERT JUMPDEST DUP4 SWAP1 CALLVALUE PUSH2 0x1C3 JUMPI DUP2 PUSH1 0x3 NOT CALLDATASIZE ADD SLT PUSH2 0x1C3 JUMPI PUSH1 0x2 SLOAD SWAP1 MLOAD PUSH1 0x1 PUSH1 0x1 PUSH1 0xA0 SHL SUB SWAP1 SWAP2 AND DUP2 MSTORE PUSH1 0x20 SWAP1 RETURN JUMPDEST DUP4 SWAP1 CALLVALUE PUSH2 0x1C3 JUMPI DUP1 PUSH1 0x3 NOT CALLDATASIZE ADD SLT PUSH2 0x1C3 JUMPI DUP1 PUSH1 0x20 SWAP3 PUSH2 0x259 PUSH2 0x8AC JUMP JUMPDEST PUSH2 0x261 PUSH2 0x8C7 JUMP JUMPDEST PUSH1 0x1 PUSH1 0x1 PUSH1 0xA0 SHL SUB SWAP2 DUP3 AND DUP4 MSTORE PUSH1 0x8 DUP7 MSTORE DUP4 DUP4 KECCAK256 SWAP2 AND DUP3 MSTORE DUP5 MSTORE KECCAK256 SLOAD SWAP1 MLOAD SWAP1 DUP2 MSTORE RETURN JUMPDEST DUP4 SWAP1 CALLVALUE PUSH2 0x1C3 JUMPI DUP2 PUSH1 0x3 NOT CALLDATASIZE ADD SLT PUSH2 0x1C3 JUMPI PUSH1 0x20 SWAP1 PUSH1 0x1 SLOAD SWAP1 MLOAD SWAP1 DUP2 MSTORE RETURN JUMPDEST DUP4 SWAP1 CALLVALUE PUSH2 0x1C3 JUMPI DUP2 PUSH1 0x3 NOT CALLDATASIZE ADD SLT PUSH2 0x1C3 JUMPI PUSH1 0x6 SLOAD SWAP1 MLOAD PUSH1 0x1 PUSH1 0x1 PUSH1 0xA0 SHL SUB SWAP1 SWAP2 AND DUP2 MSTORE PUSH1 0x20 SWAP1 RETURN JUMPDEST DUP4 SWAP1 CALLVALUE PUSH2 0x1C3 JUMPI DUP1 PUSH1 0x3 NOT CALLDATASIZE ADD SLT PUSH2 0x1C3 JUMPI PUSH1 0x20 SWAP1 PUSH2 0x2F6 PUSH2 0x2EC PUSH2 0x8AC JUMP JUMPDEST PUSH1 0x24 CALLDATALOAD SWAP1 CALLER PUSH2 0x992 JUMP JUMPDEST MLOAD PUSH1 0x1 DUP2 MSTORE RETURN JUMPDEST DUP4 SWAP1 CALLVALUE PUSH2 0x1C3 JUMPI DUP2 PUSH1 0x3 NOT CALLDATASIZE ADD SLT PUSH2 0x1C3 JUMPI DUP1 MLOAD PUSH2 0x340 SWAP2 PUSH2 0x31E DUP3 PUSH2 0x80F JUMP JUMPDEST PUSH1 0xB DUP3 MSTORE PUSH11 0x20A9AA22A927A4A229AA29 PUSH1 0xA9 SHL PUSH1 0x20 DUP4 ADD MSTORE MLOAD SWAP2 DUP3 SWAP2 DUP3 PUSH2 0x863 JUMP JUMPDEST SUB SWAP1 RETURN JUMPDEST SWAP2 SWAP1 POP CALLVALUE PUSH2 0x371 JUMPI DUP3 PUSH1 0x3 NOT CALLDATASIZE ADD SLT PUSH2 0x371 JUMPI SLOAD SWAP1 MLOAD PUSH1 0x10 SWAP2 SWAP1 SWAP2 SHR PUSH1 0x1 PUSH1 0x1 PUSH1 0xA0 SHL SUB AND DUP2 MSTORE PUSH1 0x20 SWAP2 POP RETURN JUMPDEST DUP3 DUP1 REVERT JUMPDEST POP POP CALLVALUE PUSH2 0x1C3 JUMPI DUP2 PUSH1 0x3 NOT CALLDATASIZE ADD SLT PUSH2 0x1C3 JUMPI DUP1 SLOAD PUSH2 0x100 SWAP1 PUSH2 0x3A5 CALLER PUSH1 0x10 DUP4 SWAP1 SHR PUSH1 0x1 PUSH1 0x1 PUSH1 0xA0 SHL SUB AND EQ PUSH2 0xEC9 JUMP JUMPDEST PUSH2 0xFF00 NOT AND OR SWAP1 SSTORE PUSH32 0x799663458A5EF2936F7FA0C99B3336C69C25890F82974F04E811E5BB359186C7 DUP2 DUP1 LOG1 DUP1 RETURN JUMPDEST DUP4 SWAP1 CALLVALUE PUSH2 0x1C3 JUMPI DUP2 PUSH1 0x3 NOT CALLDATASIZE ADD SLT PUSH2 0x1C3 JUMPI PUSH1 0x5 SLOAD SWAP1 MLOAD PUSH1 0x1 PUSH1 0x1 PUSH1 0xA0 SHL SUB SWAP1 SWAP2 AND DUP2 MSTORE PUSH1 0x20 SWAP1 RETURN JUMPDEST POP POP CALLVALUE PUSH2 0x1C3 JUMPI DUP2 PUSH1 0x3 NOT CALLDATASIZE ADD SLT PUSH2 0x1C3 JUMPI DUP1 SLOAD DUP3 PUSH1 0x10 DUP3 SWAP1 SHR PUSH1 0x1 PUSH1 0x1 PUSH1 0xA0 SHL SUB AND PUSH2 0x42B CALLER DUP3 EQ PUSH2 0xEC9 JUMP JUMPDEST PUSH1 0x0 DUP1 MLOAD PUSH1 0x20 PUSH2 0xF02 DUP4 CODECOPY DUP2 MLOAD SWAP2 MSTORE DUP3 DUP1 LOG3 PUSH3 0x10000 PUSH1 0x1 PUSH1 0xB0 SHL SUB NOT AND SWAP1 SSTORE DUP1 RETURN JUMPDEST DUP4 SWAP1 CALLVALUE PUSH2 0x1C3 JUMPI PUSH1 0x20 CALLDATASIZE PUSH1 0x3 NOT ADD SLT PUSH2 0x1C3 JUMPI PUSH1 0x20 SWAP2 DUP2 SWAP1 PUSH1 0x1 PUSH1 0x1 PUSH1 0xA0 SHL SUB PUSH2 0x476 PUSH2 0x8AC JUMP JUMPDEST AND DUP2 MSTORE PUSH1 0x7 DUP5 MSTORE KECCAK256 SLOAD SWAP1 MLOAD SWAP1 DUP2 MSTORE RETURN JUMPDEST SWAP1 POP CALLVALUE PUSH2 0x371 JUMPI DUP1 PUSH1 0x3 NOT CALLDATASIZE ADD SLT PUSH2 0x371 JUMPI DUP2 CALLDATALOAD PUSH2 0x4B5 PUSH1 0x24 CALLDATALOAD SWAP4 PUSH1 0x1 DUP1 PUSH1 0xA0 SHL SUB SWAP1 SLOAD PUSH1 0x10 SHR AND CALLER EQ PUSH2 0xEC9 JUMP JUMPDEST PUSH1 0xA DUP2 GT ISZERO DUP1 PUSH2 0x500 JUMPI JUMPDEST ISZERO PUSH2 0x4FC JUMPI PUSH32 0xB841FAF0D1B32571F4EF966A2F35E3AE51F3CDDA45318C3DA5570A5B2AD85605 SWAP3 DUP2 DUP6 SSTORE DUP1 PUSH1 0x1 SSTORE DUP3 MLOAD SWAP2 DUP3 MSTORE PUSH1 0x20 DUP3 ADD MSTORE LOG1 DUP1 RETURN JUMPDEST DUP4 DUP1 REVERT JUMPDEST POP PUSH1 0xA DUP4 GT ISZERO PUSH2 0x4C0 JUMP JUMPDEST SWAP1 POP CALLVALUE PUSH2 0x371 JUMPI DUP1 PUSH1 0x3 NOT CALLDATASIZE ADD SLT PUSH2 0x371 JUMPI PUSH2 0x525 PUSH2 0x8AC JUMP JUMPDEST SWAP2 PUSH1 0x24 CALLDATALOAD SWAP3 DUP4 ISZERO ISZERO DUP1 SWAP5 SUB PUSH2 0x566 JUMPI PUSH2 0x54C PUSH1 0x1 DUP1 PUSH1 0xA0 SHL SUB DUP1 SWAP4 SLOAD PUSH1 0x10 SHR AND CALLER EQ PUSH2 0xEC9 JUMP JUMPDEST AND DUP4 MSTORE PUSH1 0x9 PUSH1 0x20 MSTORE DUP3 KECCAK256 SWAP1 PUSH1 0xFF DUP1 NOT DUP4 SLOAD AND SWAP2 AND OR SWAP1 SSTORE DUP1 RETURN JUMPDEST DUP5 DUP1 REVERT JUMPDEST DUP4 SWAP1 CALLVALUE PUSH2 0x1C3 JUMPI PUSH1 0x20 CALLDATASIZE PUSH1 0x3 NOT ADD SLT PUSH2 0x1C3 JUMPI PUSH1 0x20 SWAP2 PUSH1 0xFF SWAP1 DUP3 SWAP1 PUSH1 0x1 PUSH1 0x1 PUSH1 0xA0 SHL SUB PUSH2 0x595 PUSH2 0x8AC JUMP JUMPDEST AND DUP2 MSTORE PUSH1 0x9 DUP6 MSTORE KECCAK256 SLOAD AND SWAP1 MLOAD SWAP1 ISZERO ISZERO DUP2 MSTORE RETURN JUMPDEST DUP4 SWAP1 CALLVALUE PUSH2 0x1C3 JUMPI DUP2 PUSH1 0x3 NOT CALLDATASIZE ADD SLT PUSH2 0x1C3 JUMPI PUSH1 0x20 SWAP2 SLOAD SWAP1 MLOAD SWAP1 DUP2 MSTORE RETURN JUMPDEST SWAP1 POP DUP3 CALLVALUE PUSH2 0x20C JUMPI DUP1 PUSH1 0x3 NOT CALLDATASIZE ADD SLT PUSH2 0x20C JUMPI POP PUSH1 0xFF PUSH1 0x20 SWAP3 SLOAD PUSH1 0x8 SHR AND SWAP1 MLOAD SWAP1 ISZERO ISZERO DUP2 MSTORE RETURN JUMPDEST DUP4 SWAP1 CALLVALUE PUSH2 0x1C3 JUMPI DUP2 PUSH1 0x3 NOT CALLDATASIZE ADD SLT PUSH2 0x1C3 JUMPI PUSH1 0x20 SWAP1 MLOAD PUSH1 0x12 DUP2 MSTORE RETURN JUMPDEST DUP4 DUP4 CALLVALUE PUSH2 0x1C3 JUMPI PUSH1 0x60 CALLDATASIZE PUSH1 0x3 NOT ADD SLT PUSH2 0x1C3 JUMPI PUSH2 0x623 PUSH2 0x8AC JUMP JUMPDEST PUSH2 0x62B PUSH2 0x8C7 JUMP JUMPDEST PUSH1 0x1 PUSH1 0x1 PUSH1 0xA0 SHL SUB DUP3 AND DUP5 MSTORE PUSH1 0x8 PUSH1 0x20 SWAP1 DUP2 MSTORE DUP6 DUP6 KECCAK256 CALLER DUP7 MSTORE SWAP1 MSTORE SWAP3 DUP5 SWAP1 KECCAK256 SLOAD PUSH1 0x44 CALLDATALOAD SWAP4 SWAP3 DUP5 DUP3 LT PUSH2 0x679 JUMPI PUSH1 0x20 DUP7 PUSH2 0x2F6 DUP8 DUP8 DUP8 PUSH2 0x674 PUSH2 0x66D DUP5 DUP11 PUSH2 0x8DD JUMP JUMPDEST CALLER DUP4 PUSH2 0x900 JUMP JUMPDEST PUSH2 0x992 JUMP JUMPDEST PUSH1 0x64 SWAP1 PUSH1 0x20 DUP8 MLOAD SWAP2 PUSH3 0x461BCD PUSH1 0xE5 SHL DUP4 MSTORE DUP3 ADD MSTORE PUSH1 0x1D PUSH1 0x24 DUP3 ADD MSTORE PUSH32 0x45524332303A20696E73756666696369656E7420616C6C6F77616E6365000000 PUSH1 0x44 DUP3 ADD MSTORE REVERT JUMPDEST SWAP1 POP CALLVALUE PUSH2 0x371 JUMPI PUSH1 0x20 CALLDATASIZE PUSH1 0x3 NOT ADD SLT PUSH2 0x371 JUMPI PUSH2 0x6F2 SWAP2 PUSH2 0x6DB PUSH2 0x8AC JUMP JUMPDEST PUSH1 0x1 DUP1 PUSH1 0xA0 SHL SUB SWAP4 DUP5 DUP1 SWAP4 SLOAD PUSH1 0x10 SHR AND CALLER EQ PUSH2 0xEC9 JUMP JUMPDEST AND SWAP2 DUP3 ISZERO PUSH2 0x4FC JUMPI PUSH1 0x2 SLOAD AND DUP4 MSTORE PUSH1 0x9 PUSH1 0x20 MSTORE PUSH1 0x1 DUP2 DUP5 KECCAK256 SWAP2 PUSH1 0xFF NOT SWAP3 DUP4 DUP2 SLOAD AND SWAP1 SSTORE DUP4 DUP3 DUP1 PUSH1 0xA0 SHL SUB NOT PUSH1 0x2 SLOAD AND OR PUSH1 0x2 SSTORE DUP4 DUP6 MSTORE DUP5 KECCAK256 SWAP2 DUP3 SLOAD AND OR SWAP1 SSTORE PUSH32 0x2E5665E81AF8928FF3F79E82650B68C9459CDE711420EFFBFF19B3CCEE749F81 DUP3 DUP1 LOG2 DUP1 RETURN JUMPDEST DUP4 SWAP1 CALLVALUE PUSH2 0x1C3 JUMPI DUP2 PUSH1 0x3 NOT CALLDATASIZE ADD SLT PUSH2 0x1C3 JUMPI PUSH1 0x20 SWAP1 MLOAD PUSH13 0x54F529CA52576BC6892000000 DUP2 MSTORE RETURN JUMPDEST DUP4 SWAP1 CALLVALUE PUSH2 0x1C3 JUMPI DUP1 PUSH1 0x3 NOT CALLDATASIZE ADD SLT PUSH2 0x1C3 JUMPI PUSH1 0x20 SWAP1 PUSH2 0x2F6 PUSH2 0x7A0 PUSH2 0x8AC JUMP JUMPDEST PUSH1 0x24 CALLDATALOAD SWAP1 CALLER PUSH2 0x900 JUMP JUMPDEST DUP4 SWAP1 CALLVALUE PUSH2 0x1C3 JUMPI DUP2 PUSH1 0x3 NOT CALLDATASIZE ADD SLT PUSH2 0x1C3 JUMPI DUP1 MLOAD PUSH2 0x340 SWAP2 PUSH2 0x7CB DUP3 PUSH2 0x80F JUMP JUMPDEST PUSH1 0x11 DUP3 MSTORE PUSH17 0x41737465726F6964205374726174656779 PUSH1 0x78 SHL PUSH1 0x20 DUP4 ADD MSTORE MLOAD SWAP2 DUP3 SWAP2 DUP3 PUSH2 0x863 JUMP JUMPDEST DUP5 SWAP1 CALLVALUE PUSH2 0x1C3 JUMPI DUP2 PUSH1 0x3 NOT CALLDATASIZE ADD SLT PUSH2 0x1C3 JUMPI PUSH1 0x20 SWAP1 PUSH1 0x3 SLOAD DUP2 MSTORE RETURN JUMPDEST PUSH1 0x40 DUP2 ADD SWAP1 DUP2 LT PUSH1 0x1 PUSH1 0x1 PUSH1 0x40 SHL SUB DUP3 GT OR PUSH2 0x82A JUMPI PUSH1 0x40 MSTORE JUMP JUMPDEST PUSH4 0x4E487B71 PUSH1 0xE0 SHL PUSH1 0x0 MSTORE PUSH1 0x41 PUSH1 0x4 MSTORE PUSH1 0x24 PUSH1 0x0 REVERT JUMPDEST PUSH1 0x1F SWAP1 SWAP2 ADD PUSH1 0x1F NOT AND DUP2 ADD SWAP1 PUSH1 0x1 PUSH1 0x1 PUSH1 0x40 SHL SUB DUP3 GT SWAP1 DUP3 LT OR PUSH2 0x82A JUMPI PUSH1 0x40 MSTORE JUMP JUMPDEST PUSH1 0x20 DUP1 DUP3 MSTORE DUP3 MLOAD DUP2 DUP4 ADD DUP2 SWAP1 MSTORE SWAP1 SWAP4 SWAP3 PUSH1 0x0 JUMPDEST DUP3 DUP2 LT PUSH2 0x898 JUMPI POP POP PUSH1 0x40 SWAP3 SWAP4 POP PUSH1 0x0 DUP4 DUP3 DUP5 ADD ADD MSTORE PUSH1 0x1F DUP1 NOT SWAP2 ADD AND ADD ADD SWAP1 JUMP JUMPDEST DUP2 DUP2 ADD DUP7 ADD MLOAD DUP5 DUP3 ADD PUSH1 0x40 ADD MSTORE DUP6 ADD PUSH2 0x876 JUMP JUMPDEST PUSH1 0x4 CALLDATALOAD SWAP1 PUSH1 0x1 PUSH1 0x1 PUSH1 0xA0 SHL SUB DUP3 AND DUP3 SUB PUSH2 0x8C2 JUMPI JUMP JUMPDEST PUSH1 0x0 DUP1 REVERT JUMPDEST PUSH1 0x24 CALLDATALOAD SWAP1 PUSH1 0x1 PUSH1 0x1 PUSH1 0xA0 SHL SUB DUP3 AND DUP3 SUB PUSH2 0x8C2 JUMPI JUMP JUMPDEST SWAP2 SWAP1 DUP3 SUB SWAP2 DUP3 GT PUSH2 0x8EA JUMPI JUMP JUMPDEST PUSH4 0x4E487B71 PUSH1 0xE0 SHL PUSH1 0x0 MSTORE PUSH1 0x11 PUSH1 0x4 MSTORE PUSH1 0x24 PUSH1 0x0 REVERT JUMPDEST SWAP1 SWAP2 PUSH1 0x1 PUSH1 0x1 PUSH1 0xA0 SHL SUB SWAP2 DUP3 AND SWAP2 DUP3 ISZERO ISZERO DUP1 PUSH2 0x967 JUMPI JUMPDEST ISZERO PUSH2 0x8C2 JUMPI PUSH32 0x8C5BE1E5EBEC7D5BD14F71427D1E84F3DD0314C0F7B2291E5B200AC8C7C3B925 SWAP2 PUSH1 0x20 SWAP2 DUP5 PUSH1 0x0 MSTORE PUSH1 0x8 DUP4 MSTORE PUSH1 0x40 PUSH1 0x0 KECCAK256 SWAP6 AND SWAP5 DUP6 PUSH1 0x0 MSTORE DUP3 MSTORE DUP1 PUSH1 0x40 PUSH1 0x0 KECCAK256 SSTORE PUSH1 0x40 MLOAD SWAP1 DUP2 MSTORE LOG3 JUMP JUMPDEST POP DUP1 DUP5 AND ISZERO ISZERO PUSH2 0x917 JUMP JUMPDEST DUP2 DUP2 MUL SWAP3 SWAP2 DUP2 ISZERO SWAP2 DUP5 DIV EQ OR ISZERO PUSH2 0x8EA JUMPI JUMP JUMPDEST SWAP2 SWAP1 DUP3 ADD DUP1 SWAP3 GT PUSH2 0x8EA JUMPI JUMP JUMPDEST PUSH1 0x1 PUSH1 0x1 PUSH1 0xA0 SHL SUB AND SWAP1 PUSH1 0x0 DUP3 ISZERO ISZERO DUP1 PUSH2 0xE78 JUMPI JUMPDEST DUP1 PUSH2 0xE6F JUMPI JUMPDEST ISZERO PUSH2 0x20C JUMPI PUSH1 0x6 SLOAD PUSH1 0x4 SLOAD PUSH1 0x1 PUSH1 0x1 PUSH1 0xA0 SHL SUB SWAP4 DUP5 AND SWAP6 SWAP2 SWAP1 SWAP4 AND SWAP3 PUSH1 0x8 DUP2 SWAP1 SHR PUSH1 0xFF AND ISZERO PUSH2 0xE04 JUMPI JUMPDEST ADDRESS DUP4 MSTORE PUSH1 0x7 PUSH1 0x20 MSTORE PUSH1 0x40 DUP4 KECCAK256 SLOAD SWAP1 PUSH1 0x3 SLOAD DUP1 SWAP3 LT ISZERO DUP1 PUSH2 0xDF9 JUMPI JUMPDEST DUP1 PUSH2 0xDF0 JUMPI JUMPDEST DUP1 PUSH2 0xDD9 JUMPI JUMPDEST PUSH2 0xB0C JUMPI JUMPDEST POP POP SWAP1 PUSH1 0x40 PUSH2 0xA45 PUSH1 0x0 DUP1 MLOAD PUSH1 0x20 PUSH2 0xF22 DUP4 CODECOPY DUP2 MLOAD SWAP2 MSTORE SWAP5 PUSH1 0x20 SWAP5 DUP5 SWAP2 DUP9 DUP7 MSTORE PUSH1 0x9 DUP8 MSTORE PUSH1 0xFF DUP6 DUP8 KECCAK256 SLOAD AND ISZERO DUP1 PUSH2 0xAFB JUMPI JUMPDEST PUSH2 0xAB9 JUMPI JUMPDEST POP DUP2 PUSH2 0xA7B JUMPI PUSH2 0x8DD JUMP JUMPDEST SWAP2 DUP6 DUP2 MSTORE PUSH1 0x7 DUP5 MSTORE DUP2 DUP2 KECCAK256 PUSH2 0xA5B DUP5 DUP3 SLOAD PUSH2 0x8DD JUMP JUMPDEST SWAP1 SSTORE DUP7 DUP2 MSTORE PUSH1 0x7 DUP5 MSTORE KECCAK256 PUSH2 0xA70 DUP3 DUP3 SLOAD PUSH2 0x985 JUMP JUMPDEST SWAP1 SSTORE PUSH1 0x40 MLOAD SWAP1 DUP2 MSTORE LOG3 JUMP JUMPDEST DUP8 DUP6 MSTORE PUSH1 0x7 DUP7 MSTORE DUP4 DUP6 KECCAK256 PUSH2 0xA90 DUP4 DUP3 SLOAD PUSH2 0x8DD JUMP JUMPDEST SWAP1 SSTORE ADDRESS DUP6 MSTORE PUSH1 0x7 DUP7 MSTORE DUP4 DUP6 KECCAK256 PUSH2 0xAA7 DUP4 DUP3 SLOAD PUSH2 0x985 JUMP JUMPDEST SWAP1 SSTORE DUP4 MLOAD DUP3 DUP2 MSTORE DUP9 DUP9 DUP9 ADDRESS SWAP4 LOG3 PUSH2 0x8DD JUMP JUMPDEST DUP1 DUP10 EQ PUSH2 0xAE5 JUMPI JUMPDEST DUP10 EQ PUSH2 0xACE JUMPI JUMPDEST CODESIZE PUSH2 0xA3A JUMP JUMPDEST SWAP1 POP PUSH1 0x64 PUSH2 0xADE PUSH1 0x1 SLOAD DUP4 PUSH2 0x972 JUMP JUMPDEST DIV SWAP1 PUSH2 0xAC8 JUMP JUMPDEST SWAP2 POP PUSH1 0x64 PUSH2 0xAF4 DUP7 SLOAD DUP4 PUSH2 0x972 JUMP JUMPDEST DIV SWAP2 PUSH2 0xAC1 JUMP JUMPDEST POP DUP10 DUP7 MSTORE PUSH1 0xFF DUP6 DUP8 KECCAK256 SLOAD AND ISZERO PUSH2 0xA35 JUMP JUMPDEST PUSH1 0xFF NOT AND PUSH1 0x1 OR PUSH1 0x4 SSTORE PUSH1 0x40 MLOAD PUSH1 0x60 DUP2 ADD PUSH1 0x1 PUSH1 0x1 PUSH1 0x40 SHL SUB DUP2 GT DUP3 DUP3 LT OR PUSH2 0xDC5 JUMPI PUSH1 0x40 MSTORE PUSH1 0x2 DUP2 MSTORE PUSH1 0x20 DUP2 ADD SWAP1 PUSH1 0x40 CALLDATASIZE DUP4 CALLDATACOPY DUP1 MLOAD ISZERO PUSH2 0xDB1 JUMPI ADDRESS DUP3 MSTORE PUSH1 0x5 SLOAD PUSH1 0x40 MLOAD PUSH4 0x15AB88C9 PUSH1 0xE3 SHL DUP2 MSTORE PUSH1 0x1 PUSH1 0x1 PUSH1 0xA0 SHL SUB SWAP1 SWAP2 AND SWAP1 PUSH1 0x20 DUP2 PUSH1 0x4 DUP2 DUP6 GAS STATICCALL SWAP1 DUP2 ISZERO PUSH2 0xDA6 JUMPI DUP8 SWAP2 PUSH2 0xD60 JUMPI JUMPDEST POP DUP3 MLOAD PUSH1 0x1 LT ISZERO PUSH2 0xD4C JUMPI PUSH1 0x1 PUSH1 0x1 PUSH1 0xA0 SHL SUB AND PUSH1 0x40 DUP4 ADD MSTORE SELFBALANCE SWAP3 TIMESTAMP PUSH2 0x12C DUP2 ADD SWAP1 DUP2 LT PUSH2 0xD38 JUMPI DUP3 EXTCODESIZE ISZERO PUSH2 0xD34 JUMPI SWAP3 SWAP1 SWAP2 DUP8 SWAP3 PUSH1 0x40 MLOAD SWAP5 DUP6 SWAP4 PUSH4 0x791AC947 PUSH1 0xE0 SHL DUP6 MSTORE PUSH1 0xA4 DUP6 ADD SWAP1 DUP10 PUSH1 0x4 DUP8 ADD MSTORE DUP7 PUSH1 0x24 DUP8 ADD MSTORE PUSH1 0xA0 PUSH1 0x44 DUP8 ADD MSTORE MLOAD DUP1 SWAP2 MSTORE PUSH1 0xC4 DUP6 ADD SWAP3 SWAP1 DUP7 JUMPDEST DUP2 DUP2 LT PUSH2 0xD0F JUMPI POP POP POP DUP4 DUP1 SWAP3 DUP7 SWAP3 ADDRESS PUSH1 0x64 DUP5 ADD MSTORE PUSH1 0x84 DUP4 ADD MSTORE SUB SWAP3 GAS CALL SWAP1 DUP2 PUSH2 0xCE0 JUMPI JUMPDEST POP PUSH2 0xC26 JUMPI JUMPDEST POP POP PUSH1 0x4 DUP1 SLOAD PUSH1 0xFF NOT AND SWAP1 SSTORE PUSH1 0x40 PUSH2 0xA45 PUSH2 0xA03 JUMP JUMPDEST PUSH2 0xC30 SWAP1 SELFBALANCE PUSH2 0x8DD JUMP JUMPDEST DUP1 ISZERO PUSH2 0xC10 JUMPI DUP4 DUP1 DUP1 DUP1 DUP5 PUSH1 0x1 DUP1 PUSH1 0xA0 SWAP11 SWAP10 SWAP11 SHL SUB PUSH1 0x2 SLOAD AND GAS CALL PUSH2 0xC53 PUSH2 0xE8A JUMP JUMPDEST POP ISZERO PUSH2 0xCA9 JUMPI PUSH1 0x0 DUP1 MLOAD PUSH1 0x20 PUSH2 0xF22 DUP4 CODECOPY DUP2 MLOAD SWAP2 MSTORE SWAP5 PUSH1 0x20 SWAP5 PUSH32 0x36A9A8DDCCB9A6E60B53280DD3CEA8AE4F010EFBF6625460AF0268CD6513A835 PUSH1 0x40 DUP1 SWAP6 PUSH2 0xA45 SWAP6 DUP3 MLOAD SWAP2 DUP3 MSTORE DUP10 DUP3 ADD MSTORE LOG1 SWAP4 SWAP5 POP SWAP5 POP PUSH2 0xC10 JUMP JUMPDEST PUSH1 0x40 MLOAD PUSH3 0x461BCD PUSH1 0xE5 SHL DUP2 MSTORE PUSH1 0x20 PUSH1 0x4 DUP3 ADD MSTORE PUSH1 0xF PUSH1 0x24 DUP3 ADD MSTORE PUSH15 0x115512081CD95B990819985A5B1959 PUSH1 0x8A SHL PUSH1 0x44 DUP3 ADD MSTORE PUSH1 0x64 SWAP1 REVERT JUMPDEST SWAP1 SWAP5 SWAP1 PUSH1 0x1 PUSH1 0x1 PUSH1 0x40 SHL SUB DUP2 GT PUSH2 0xCFB JUMPI PUSH1 0x40 MSTORE SWAP4 CODESIZE PUSH2 0xC0A JUMP JUMPDEST PUSH4 0x4E487B71 PUSH1 0xE0 SHL DUP3 MSTORE PUSH1 0x41 PUSH1 0x4 MSTORE PUSH1 0x24 DUP3 REVERT JUMPDEST DUP3 MLOAD PUSH1 0x1 PUSH1 0x1 PUSH1 0xA0 SHL SUB AND DUP6 MSTORE DUP13 SWAP8 POP DUP9 SWAP7 POP PUSH1 0x20 SWAP5 DUP6 ADD SWAP5 SWAP1 SWAP3 ADD SWAP2 PUSH1 0x1 ADD PUSH2 0xBE5 JUMP JUMPDEST DUP8 DUP1 REVERT JUMPDEST PUSH4 0x4E487B71 PUSH1 0xE0 SHL DUP9 MSTORE PUSH1 0x11 PUSH1 0x4 MSTORE PUSH1 0x24 DUP9 REVERT JUMPDEST PUSH4 0x4E487B71 PUSH1 0xE0 SHL DUP8 MSTORE PUSH1 0x32 PUSH1 0x4 MSTORE PUSH1 0x24 DUP8 REVERT JUMPDEST SWAP1 POP PUSH1 0x20 DUP2 RETURNDATASIZE PUSH1 0x20 GT PUSH2 0xD9E JUMPI JUMPDEST DUP2 PUSH2 0xD7B PUSH1 0x20 SWAP4 DUP4 PUSH2 0x840 JUMP JUMPDEST DUP2 ADD SUB SLT PUSH2 0xD9A JUMPI MLOAD PUSH1 0x1 PUSH1 0x1 PUSH1 0xA0 SHL SUB DUP2 AND DUP2 SUB PUSH2 0xD9A JUMPI CODESIZE PUSH2 0xB7D JUMP JUMPDEST DUP7 DUP1 REVERT JUMPDEST RETURNDATASIZE SWAP2 POP PUSH2 0xD6E JUMP JUMPDEST PUSH1 0x40 MLOAD RETURNDATASIZE DUP10 DUP3 RETURNDATACOPY RETURNDATASIZE SWAP1 REVERT JUMPDEST PUSH4 0x4E487B71 PUSH1 0xE0 SHL DUP6 MSTORE PUSH1 0x32 PUSH1 0x4 MSTORE PUSH1 0x24 DUP6 REVERT JUMPDEST PUSH4 0x4E487B71 PUSH1 0xE0 SHL DUP6 MSTORE PUSH1 0x41 PUSH1 0x4 MSTORE PUSH1 0x24 DUP6 REVERT JUMPDEST POP DUP6 DUP5 MSTORE PUSH1 0x9 PUSH1 0x20 MSTORE PUSH1 0xFF PUSH1 0x40 DUP6 KECCAK256 SLOAD AND ISZERO PUSH2 0x9FE JUMP JUMPDEST POP DUP5 DUP8 EQ PUSH2 0x9F8 JUMP JUMPDEST POP PUSH1 0xFF DUP2 AND ISZERO PUSH2 0x9F2 JUMP JUMPDEST DUP5 DUP4 MSTORE PUSH1 0x9 PUSH1 0x20 MSTORE PUSH1 0xFF PUSH1 0x40 DUP5 KECCAK256 SLOAD AND DUP1 ISZERO PUSH2 0xE5E JUMPI JUMPDEST PUSH2 0x9D7 JUMPI PUSH1 0x40 MLOAD PUSH3 0x461BCD PUSH1 0xE5 SHL DUP2 MSTORE PUSH1 0x20 PUSH1 0x4 DUP3 ADD MSTORE PUSH1 0x17 PUSH1 0x24 DUP3 ADD MSTORE PUSH23 0x151C98591A5B99C81B9BDD081E595D08195B98589B1959 PUSH1 0x4A SHL PUSH1 0x44 DUP3 ADD MSTORE PUSH1 0x64 SWAP1 REVERT JUMPDEST POP DUP6 DUP4 MSTORE PUSH1 0xFF PUSH1 0x40 DUP5 KECCAK256 SLOAD AND PUSH2 0xE1B JUMP JUMPDEST POP DUP4 ISZERO ISZERO PUSH2 0x9AD JUMP JUMPDEST POP PUSH1 0x1 PUSH1 0x1 PUSH1 0xA0 SHL SUB DUP3 AND ISZERO ISZERO PUSH2 0x9A7 JUMP JUMPDEST RETURNDATASIZE ISZERO PUSH2 0xEC4 JUMPI RETURNDATASIZE SWAP1 PUSH1 0x1 PUSH1 0x1 PUSH1 0x40 SHL SUB DUP3 GT PUSH2 0x82A JUMPI PUSH1 0x40 MLOAD SWAP2 PUSH2 0xEB8 PUSH1 0x1F DUP3 ADD PUSH1 0x1F NOT AND PUSH1 0x20 ADD DUP5 PUSH2 0x840 JUMP JUMPDEST DUP3 MSTORE RETURNDATASIZE PUSH1 0x0 PUSH1 0x20 DUP5 ADD RETURNDATACOPY JUMP JUMPDEST PUSH1 0x60 SWAP1 JUMP JUMPDEST ISZERO PUSH2 0xED0 JUMPI JUMP JUMPDEST PUSH1 0x40 MLOAD PUSH3 0x461BCD PUSH1 0xE5 SHL DUP2 MSTORE PUSH1 0x20 PUSH1 0x4 DUP3 ADD MSTORE PUSH1 0x9 PUSH1 0x24 DUP3 ADD MSTORE PUSH9 0x2737BA1037BBB732B9 PUSH1 0xB9 SHL PUSH1 0x44 DUP3 ADD MSTORE PUSH1 0x64 SWAP1 REVERT INVALID DUP12 0xE0 SMOD SWAP13 MSTORE8 AND MSIZE EQ SGT PREVRANDAO 0xCD 0x1F 0xD0 LOG4 CALLCODE DUP5 NOT 0x49 PUSH32 0x9722A3DAAFE3B4186F6B6457E0DDF252AD1BE2C89B69C2B068FC378DAA952BA7 CALL PUSH4 0xC4A11628 CREATE2 GAS 0x4D CREATE2 0x23 0xB3 0xEF LOG2 PUSH5 0x6970667358 0x22 SLT KECCAK256 LOG4 DUP6 0x21 RETURNDATACOPY SWAP12 RETURN 0xEC 0xB5 CODECOPY 0xF 0xE5 SMOD 0xE9 0x49 EQ SUB 0xEE 0xD0 0xBD 0x49 SWAP12 PUSH8 0x4BE9AB3C6F48C371 ISZERO EXP PUSH5 0x736F6C6343 STOP ADDMOD EQ STOP CALLER "},"methodIdentifiers":{"allowance(address,address)":"dd62ed3e","approve(address,uint256)":"095ea7b3","balanceOf(address)":"70a08231","buyTax()":"4f7041a5","buybackWallet()":"deab8aea","decimals()":"313ce567","enableTrading()":"8a8c523c","isExcludedFromFee(address)":"5342acb4","name()":"06fdde03","owner()":"8da5cb5b","renounceOwnership()":"715018a6","sellTax()":"cc1776d3","setBuybackWallet(address)":"1d0adc07","setExcludedFromFee(address,bool)":"6612e66f","setTax(uint256,uint256)":"667f6526","swapThreshold()":"0445b667","symbol()":"95d89b41","totalSupply()":"18160ddd","tradingEnabled()":"4ada218b","transfer(address,uint256)":"a9059cbb","transferFrom(address,address,uint256)":"23b872dd","transferOwnership(address)":"f2fde38b","uniswapPair()":"c816841b","uniswapRouter()":"735de9f7","withdrawETH()":"e086e5ec"}}}}}