{"contracts/LaunchpadFactory.sol":{"LaunchpadFactory":{"abi":[{"inputs":[{"internalType":"address","name":"_owner","type":"address"}],"stateMutability":"nonpayable","type":"constructor"},{"inputs":[{"internalType":"address","name":"owner","type":"address"}],"name":"OwnableInvalidOwner","type":"error"},{"inputs":[{"internalType":"address","name":"account","type":"address"}],"name":"OwnableUnauthorizedAccount","type":"error"},{"anonymous":false,"inputs":[{"indexed":true,"internalType":"address","name":"previousOwner","type":"address"},{"indexed":true,"internalType":"address","name":"newOwner","type":"address"}],"name":"OwnershipTransferred","type":"event"},{"anonymous":false,"inputs":[{"indexed":true,"internalType":"address","name":"token","type":"address"},{"indexed":true,"internalType":"address","name":"creator","type":"address"},{"indexed":false,"internalType":"string","name":"name","type":"string"},{"indexed":false,"internalType":"string","name":"symbol","type":"string"},{"indexed":false,"internalType":"uint256","name":"index","type":"uint256"}],"name":"TokenCreated","type":"event"},{"inputs":[{"internalType":"uint256","name":"","type":"uint256"}],"name":"allTokens","outputs":[{"internalType":"address","name":"","type":"address"}],"stateMutability":"view","type":"function"},{"inputs":[{"internalType":"string","name":"_name","type":"string"},{"internalType":"string","name":"_symbol","type":"string"}],"name":"createToken","outputs":[{"internalType":"address","name":"token","type":"address"}],"stateMutability":"nonpayable","type":"function"},{"inputs":[{"internalType":"uint256","name":"offset","type":"uint256"},{"internalType":"uint256","name":"limit","type":"uint256"}],"name":"getTokens","outputs":[{"internalType":"address[]","name":"result","type":"address[]"}],"stateMutability":"view","type":"function"},{"inputs":[{"internalType":"address","name":"_creator","type":"address"}],"name":"getTokensByCreator","outputs":[{"internalType":"address[]","name":"","type":"address[]"}],"stateMutability":"view","type":"function"},{"inputs":[],"name":"owner","outputs":[{"internalType":"address","name":"","type":"address"}],"stateMutability":"view","type":"function"},{"inputs":[],"name":"renounceOwnership","outputs":[],"stateMutability":"nonpayable","type":"function"},{"inputs":[{"internalType":"address","name":"","type":"address"},{"internalType":"uint256","name":"","type":"uint256"}],"name":"tokensByCreator","outputs":[{"internalType":"address","name":"","type":"address"}],"stateMutability":"view","type":"function"},{"inputs":[],"name":"totalTokens","outputs":[{"internalType":"uint256","name":"","type":"uint256"}],"stateMutability":"view","type":"function"},{"inputs":[{"internalType":"address","name":"newOwner","type":"address"}],"name":"transferOwnership","outputs":[],"stateMutability":"nonpayable","type":"function"}],"evm":{"bytecode":{"linkReferences":{},"object":"6080346100bb57601f61213d38819003918201601f19168301916001600160401b038311848410176100c0578084926020946040528339810103126100bb57516001600160a01b0390818116908190036100bb5780156100a257600080546001600160a01b03198116831782556040519316907f8be0079c531659141344cd1fd0a4f28419497f9722a3daafe3b4186f6b6457e09080a361206690816100d78239f35b604051631e4fbdf760e01b815260006004820152602490fd5b600080fd5b634e487b7160e01b600052604160045260246000fdfe608060408181526004803610156200001657600080fd5b600092833560e01c9081632f2f2d56146200031957508063494cfc6c14620002e4578063634282af146200029f578063715018a614620002525780637e1c0c0914620002315780638da5cb5b1462000207578063d5c712751462000176578063d80d03a2146200010f5763f2fde38b146200009057600080fd5b346200010b5760203660031901126200010b57620000ad620005c9565b90620000b8620005e0565b6001600160a01b03918216928315620000f557505082546001600160a01b031981168317845516600080516020620020118339815191528380a380f35b51631e4fbdf760e01b8152908101849052602490fd5b8280fd5b50503462000172578060031936011262000172576200012d620005c9565b6001600160a01b0390811683526002602052818320805460243594908510156200016f57506020936200016091620005b0565b92905490519260031b1c168152f35b80fd5b5080fd5b5050346200017257602090816003193601126200010b576001600160a01b039283620001a1620005c9565b16815260028352818120938251908194808754938481520196845280842093915b838310620001ed57620001e98787620001de828c038362000652565b519182918262000538565b0390f35b8454811688529681019660019485019490920191620001c2565b5050346200017257816003193601126200017257905490516001600160a01b039091168152602090f35b50503462000172578160031936011262000172576020906001549051908152f35b83346200016f57806003193601126200016f576200026f620005e0565b80546001600160a01b03198116825581906001600160a01b0316600080516020620020118339815191528280a380f35b50346200010b5760203660031901126200010b5735916001548310156200016f5750620002ce6020926200057e565b905491519160018060a01b039160031b1c168152f35b5091346200016f57816003193601126200016f57506200030d620001e9926024359035620006a4565b90519182918262000538565b90508284346200016f57816003193601126200016f576001600160401b039284358481116200010b5762000351903690870162000503565b9190602435868111620004ff576200036d903690890162000503565b85546001600160a01b0398929491939261183a808401928b1691831184841017620004ec5790839291620007d784396060825289620003c5620003b5606085018b896200060d565b8481036020860152888a6200060d565b920152039086f08015620004e257871696600154600160401b9081811015620004cf57806001620003fa92016001556200057e565b81549060031b90848c831b921b19161790553387526002602052878720805491821015620004cf57906200043491600182018155620005b0565b819291549060031b918a831b921b1916179055600154946000198601958611620004bc5750602097507f6e6ae68e7d7d45fbd855c40d1eaafa8de46c5fbec3ee26f1af88730e400bc92c928794926200049d620004ab938951956060875260608701916200060d565b918483038b8601526200060d565b93858201528033940390a351908152f35b634e487b7160e01b815260118952602490fd5b634e487b7160e01b885260418b52602488fd5b86513d87823e3d90fd5b634e487b7160e01b895260418c52602489fd5b8480fd5b9181601f8401121562000533578235916001600160401b0383116200053357602083818601950101116200053357565b600080fd5b6020908160408183019282815285518094520193019160005b82811062000560575050505090565b83516001600160a01b03168552938101939281019260010162000551565b6001548110156200059a57600160005260206000200190600090565b634e487b7160e01b600052603260045260246000fd5b80548210156200059a5760005260206000200190600090565b600435906001600160a01b03821682036200053357565b6000546001600160a01b03163303620005f557565b60405163118cdaa760e01b8152336004820152602490fd5b908060209392818452848401376000828201840152601f01601f1916010190565b919082039182116200063c57565b634e487b7160e01b600052601160045260246000fd5b601f909101601f19168101906001600160401b038211908210176200067657604052565b634e487b7160e01b600052604160045260246000fd5b6001600160401b038111620006765760051b60200190565b91909160019081549384821015620007a75781018082116200063c57818582116200079e575b620006d5916200062e565b93620006e1856200068c565b94620006f1604051968762000652565b80865262000702601f19916200068c565b0194602095368783013780956000936000199386858201918211905b6200072e575b5050505050505050565b84518710156200079857806200063c576200075f62000759886200075386866200062e565b6200062e565b6200057e565b905486518910156200059a5760039190911b1c6001600160a01b0316600588901b86018501528587146200063c5787809701966200071e565b62000724565b859150620006ca565b505060405191925050602081016001600160401b0381118282101762000676576040526000815260003681379056fe60406080815234620004a4576200183a90813803806200001f81620004a9565b9384398201606083820312620004a45782516001600160401b039190828111620004a4578162000051918601620004cf565b60209182860151848111620004a45785916200006f918801620004cf565b9501516001600160a01b03808216949091859003620004a4578251818111620003a4576003908154906001958683811c9316801562000499575b8884101462000483578190601f938481116200042d575b508890848311600114620003c657600092620003ba575b505060001982851b1c191690861b1782555b8851928311620003a45760049889548681811c9116801562000399575b88821014620003845790818386959493116200032a575b5087918411600114620002bf57600093620002b3575b505082851b92600019911b1c19161786555b83156200029c57600580546001600160a01b0319811686179091558491167f8be0079c531659141344cd1fd0a4f28419497f9722a3daafe3b4186f6b6457e0600080a37f9b779b17422d0df92223018b32b4d1fa46e071723d6817e2486d003becc55f00556b0295be96e640669720000000908160065530156200028557600254828101809111620002705760025530600052600081528360002082815401905583519182527fddf252ad1be2c89b69c2b068fc378daa952ba7f163c4a11628f55a4df523b3ef91600083833093a36002546aa56fa5b99019a5c8000000908181018091116200025b576000949596506002558484528382528584208181540190558551908152a3516112f89081620005428239f35b601187634e487b7160e01b6000525260246000fd5b601186634e487b7160e01b6000525260246000fd5b835163ec442f0560e01b8152600081870152602490fd5b8451631e4fbdf760e01b8152600081880152602490fd5b01519150388062000133565b9190869450601f198416928b600052886000209360005b8a828210620003135750508511620002f8575b50505050811b01865562000145565b01519060f884600019921b161c1916905538808080620002e9565b8385015187558a98909601959384019301620002d6565b90919293508a600052876000208380870160051c8201928a88106200037a575b9189918897969594930160051c01915b8281106200036a5750506200011d565b600081558796508991016200035a565b925081926200034a565b60228b634e487b7160e01b6000525260246000fd5b90607f169062000106565b634e487b7160e01b600052604160045260246000fd5b015190503880620000d7565b90889350601f19831691866000528a6000209260005b8c828210620004165750508411620003fd575b505050811b018255620000e9565b015160001983871b60f8161c19169055388080620003ef565b8385015186558c97909501949384019301620003dc565b90915084600052886000208480850160051c8201928b861062000479575b918a91869594930160051c01915b82811062000469575050620000c0565b600081558594508a910162000459565b925081926200044b565b634e487b7160e01b600052602260045260246000fd5b92607f1692620000a9565b600080fd5b6040519190601f01601f191682016001600160401b03811183821017620003a457604052565b919080601f84011215620004a45782516001600160401b038111620003a45760209062000505601f8201601f19168301620004a9565b92818452828287010111620004a45760005b8181106200052d57508260009394955001015290565b85810183015184820184015282016200051756fe6080604081815260048036101561001557600080fd5b600092833560e01c90816306fdde0314610d7257508063095ea7b314610cc9578063130b312014610caa57806318160ddd14610c8b5780631e4c729214610c655780631fb87f3914610c4557806323b872dd14610b5c578063313ce56714610b40578063343ee3b714610b215780636700c0c314610afe57806370a0823114610ac7578063715018a614610a7c578063768713f514610a5c5780638da5cb5b14610a33578063902d55a514610a0d578063939c4456146109f057806395d89b41146109095780639d1b464a14610899578063a0ef91df1461078f578063a9059cbb1461075e578063ae2c1a6e1461073b578063b9c3a81814610715578063d79875eb14610492578063d96a094a14610237578063dd62ed3e146101ee578063e7c2b772146101c65763f2fde38b1461014c57600080fd5b346101c25760203660031901126101c257610165610e8f565b9061016e610ec0565b6001600160a01b039182169283156101ac575050600580546001600160a01b031981168417909155166000805160206112438339815191528380a380f35b51631e4fbdf760e01b8152908101849052602490fd5b8280fd5b5050346101ea57816003193601126101ea5760209060ff6008541690519015158152f35b5080fd5b5050346101ea57806003193601126101ea578060209261020c610e8f565b610214610eaa565b6001600160a01b0391821683526001865283832091168252845220549051908152f35b50906020918260031936011261048e5761024f6110fc565b341561045b57600754926714d1120d7b16000093808501809511610448576102996102926006549661028c610284898361102f565b91349061100c565b90611042565b8096611062565b946102a586151561106f565b8335861061040b576006556102bb90349061100c565b6007556102c9843330610f25565b60085460ff811615806103f7575b6103cd575b5060ff6008541661032b575b50506103136000805160206112838339815191529161030561112c565b9051918291339534846110e6565b0390a260016000805160206112638339815191525580f35b479182610339575b506102e8565b60018060a01b0390868080808786600554165af16103556110a7565b501561039357509160008051602061122383398151915260008051602061128383398151915294926103139460055416928451908152a29138610333565b845162461bcd60e51b81529081018390526014602482015273105d5d1bcb5dda5d1a191c985dc819985a5b195960621b6044820152606490fd5b60019060ff1916176008556000805160206112a3833981519152816007548551908152a1386102dc565b506730927f74c9de000060075410156102d7565b5050606492519162461bcd60e51b83528201526018602482015277536c6970706167653a20746f6f2066657720746f6b656e7360401b6044820152fd5b634e487b7160e01b865260118352602486fd5b82606492519162461bcd60e51b8352820152600f60248201526e53656e642045544820746f2062757960881b6044820152fd5b8380fd5b5090346101c257806003193601126101c2578135916104af6110fc565b60ff600854166106d457821561069c573384528360205282828520541061066357600754906714d1120d7b16000091808301809311610650576105136006549361050d61050688610500888561102f565b9761100c565b8096611042565b90611062565b928184116106145761052684151561106f565b60243584106105d65761053d918491600655611062565b60075561054b843033610f25565b8480808085335af161055b6110a7565b501561059d5750907f846c37eef631e0943682d87352ec117c20008eb7f425c9b85ac011a6d4774cc09161031361059061112c565b92519283923396846110e6565b606490602084519162461bcd60e51b83528201526013602482015272115512081d1c985b9cd9995c8819985a5b1959606a1b6044820152fd5b845162461bcd60e51b815260208185015260186024820152770a6d8d2e0e0c2ceca7440e8dede40d8d2e8e8d8ca408aa8960431b6044820152606490fd5b845162461bcd60e51b81526020818501526016602482015275139bdd08195b9bdd59da08115512081a5b881c1bdbdb60521b6044820152606490fd5b634e487b7160e01b865260118252602486fd5b6020606492519162461bcd60e51b83528201526014602482015273496e73756666696369656e742062616c616e636560601b6044820152fd5b6020606492519162461bcd60e51b83528201526013602482015272139bc81d1bdad95b9cc81cdc1958da599a5959606a1b6044820152fd5b6020606492519162461bcd60e51b8352820152601c60248201527b10d85b9b9bdd081cd95b1b0e881d1bdad95b8819dc98591d585d195960221b6044820152fd5b5050346101ea57816003193601126101ea57602090516aa56fa5b99019a5c80000008152f35b5050346101ea57816003193601126101ea57602090516730927f74c9de00008152f35b5050346101ea57806003193601126101ea5760209061078861077e610e8f565b6024359033610f25565b5160018152f35b50346101c257826003193601126101c2576107a8610ec0565b479081156108615760085460ff811615610836575b5060018060a01b0390848080808686600554165af16107da6110a7565b5015610801575060008051602061122383398151915291602091600554169351908152a280f35b606490602085519162461bcd60e51b8352820152600f60248201526e15da5d1a191c985dc819985a5b1959608a1b6044820152fd5b60019060ff1916176008556000805160206112a383398151915260206007548551908152a1386107bd565b606490602084519162461bcd60e51b835282015260126024820152714e6f2045544820746f20776974686472617760701b6044820152fd5b509134610906578060031936011261090657600754926714d1120d7b1600009384018094116108f357670de0b6b3a7640000938481029481860414901517156108f3576020836108ec8660065490611042565b9051908152f35b634e487b7160e01b825260119052602490fd5b80fd5b509190346101ea57816003193601126101ea57805191809380549160019083821c928285169485156109e6575b60209586861081146109d3578589529081156109af5750600114610974575b6109708787610966828c0383610eec565b5191829182610e46565b0390f35b9080949750528583205b82841061099c57505050826109709461096692820101943880610955565b805486850188015292860192810161097e565b60ff19168887015250505050151560051b8301019250610966826109703880610955565b634e487b7160e01b845260228352602484fd5b93607f1693610936565b5050346101ea57816003193601126101ea576020906108ec61112c565b5050346101ea57816003193601126101ea5751676765c793fa10079d601b1b8152602090f35b5050346101ea57816003193601126101ea5760055490516001600160a01b039091168152602090f35b50913461090657602036600319011261090657506108ec602092356111d3565b8334610906578060031936011261090657610a95610ec0565b600580546001600160a01b0319811690915581906001600160a01b03166000805160206112438339815191528280a380f35b5050346101ea5760203660031901126101ea5760209181906001600160a01b03610aef610e8f565b16815280845220549051908152f35b5050346101ea57816003193601126101ea57602090516714d1120d7b1600008152f35b5050346101ea57816003193601126101ea576020906006549051908152f35b5050346101ea57816003193601126101ea576020905160128152f35b50823461090657606036600319011261090657610b77610e8f565b610b7f610eaa565b916044359360018060a01b038316808352600160205286832033845260205286832054916000198310610bbb575b602088610788898989610f25565b868310610c23578115610c0c573315610bf55750825260016020908152868320338452815291869020908590039055829061078887610bad565b8751634a1406b160e11b8152908101849052602490fd5b875163e602df0560e01b8152908101849052602490fd5b9050610c41868851938493637dc7a0d960e11b855233908501610fee565b0390fd5b50913461090657602036600319011261090657506108ec6020923561115f565b5050346101ea57816003193601126101ea57516714adf4b7320334b9601d1b8152602090f35b5050346101ea57816003193601126101ea576020906002549051908152f35b5050346101ea57816003193601126101ea576020906007549051908152f35b50346101c257816003193601126101c257610ce2610e8f565b602435903315610d5b576001600160a01b0316918215610d4457508083602095338152600187528181208582528752205582519081527f8c5be1e5ebec7d5bd14f71427d1e84f3dd0314c0f7b2291e5b200ac8c7c3b925843392a35160018152f35b8351634a1406b160e11b8152908101859052602490fd5b835163e602df0560e01b8152808401869052602490fd5b929190503461048e578360031936011261048e57600354600181811c9186908281168015610e3c575b6020958686108214610e295750848852908115610e075750600114610dcc575b6109708686610966828b0383610eec565b929550600383528583205b828410610df4575050508261097094610966928201019438610dbb565b8054868501880152928601928101610dd7565b60ff191687860152505050151560051b83010192506109668261097038610dbb565b634e487b7160e01b845260229052602483fd5b93607f1693610d9b565b6020808252825181830181905290939260005b828110610e7b57505060409293506000838284010152601f8019910116010190565b818101860151848201604001528501610e59565b600435906001600160a01b0382168203610ea557565b600080fd5b602435906001600160a01b0382168203610ea557565b6005546001600160a01b03163303610ed457565b60405163118cdaa760e01b8152336004820152602490fd5b601f909101601f19168101906001600160401b03821190821017610f0f57604052565b634e487b7160e01b600052604160045260246000fd5b916001600160a01b03808416928315610fd55716928315610fbc5760009083825281602052604082205490838210610f9f575091604082827fddf252ad1be2c89b69c2b068fc378daa952ba7f163c4a11628f55a4df523b3ef958760209652828652038282205586815220818154019055604051908152a3565b610c418460405193849363391434e360e21b855260048501610fee565b60405163ec442f0560e01b815260006004820152602490fd5b604051634b637e8f60e11b815260006004820152602490fd5b604091949392606082019560018060a01b0316825260208201520152565b9190820180921161101957565b634e487b7160e01b600052601160045260246000fd5b8181029291811591840414171561101957565b811561104c570490565b634e487b7160e01b600052601260045260246000fd5b9190820391821161101957565b1561107657565b60405162461bcd60e51b8152602060048201526009602482015268151bdbc81cdb585b1b60ba1b6044820152606490fd5b3d156110e1573d906001600160401b038211610f0f57604051916110d5601f8201601f191660200184610eec565b82523d6000602084013e565b606090565b6040919493926060820195825260208201520152565b600080516020611263833981519152600281541461111a5760029055565b604051633ee5aeb560e01b8152600490fd5b60ff6008541661115a57600754606481029080820460641490151715611019576730927f74c9de0000900490565b606490565b60ff600854166111cd57600754906730927f74c9de000080611181838561100c565b116111bc575b506714d1120d7b1600009182018092116110195761050d6111b99261028c600654936111b3858461102f565b9261100c565b90565b828103915081116110195738611187565b50600090565b9060ff6008541661121c57600754916714d1120d7b1600008381018091116110195761050d61120d9261028c600654916111b3838661102f565b918083116112185750565b9150565b6000915056fe8455ae6be5d92f1df1c3c1484388e247a36c7e60d72055ae216dbc258f257d4b8be0079c531659141344cd1fd0a4f28419497f9722a3daafe3b4186f6b6457e09b779b17422d0df92223018b32b4d1fa46e071723d6817e2486d003becc55f00beae048c6d270d9469f86cf6e8fedda3c60ad770f16c24c9fc131c8e9a09101d04d39283851d5dc1961a5296a48d487854db2aae45afe51e83aae1db8d04d42fa2646970667358221220afa8f44018ed2ee6c6f5c489c7fd397bc08fdc1850f390bbd20d126a7764002764736f6c634300081400338be0079c531659141344cd1fd0a4f28419497f9722a3daafe3b4186f6b6457e0a2646970667358221220a27fb83b80e2a6192d63622aa92e739b2fd27a988adb75345ab135324387f02664736f6c63430008140033","opcodes":"PUSH1 0x80 CALLVALUE PUSH2 0xBB JUMPI PUSH1 0x1F PUSH2 0x213D CODESIZE DUP2 SWAP1 SUB SWAP2 DUP3 ADD PUSH1 0x1F NOT AND DUP4 ADD SWAP2 PUSH1 0x1 PUSH1 0x1 PUSH1 0x40 SHL SUB DUP4 GT DUP5 DUP5 LT OR PUSH2 0xC0 JUMPI DUP1 DUP5 SWAP3 PUSH1 0x20 SWAP5 PUSH1 0x40 MSTORE DUP4 CODECOPY DUP2 ADD SUB SLT PUSH2 0xBB JUMPI MLOAD PUSH1 0x1 PUSH1 0x1 PUSH1 0xA0 SHL SUB SWAP1 DUP2 DUP2 AND SWAP1 DUP2 SWAP1 SUB PUSH2 0xBB JUMPI DUP1 ISZERO PUSH2 0xA2 JUMPI PUSH1 0x0 DUP1 SLOAD PUSH1 0x1 PUSH1 0x1 PUSH1 0xA0 SHL SUB NOT DUP2 AND DUP4 OR DUP3 SSTORE PUSH1 0x40 MLOAD SWAP4 AND SWAP1 PUSH32 0x8BE0079C531659141344CD1FD0A4F28419497F9722A3DAAFE3B4186F6B6457E0 SWAP1 DUP1 LOG3 PUSH2 0x2066 SWAP1 DUP2 PUSH2 0xD7 DUP3 CODECOPY RETURN JUMPDEST PUSH1 0x40 MLOAD PUSH4 0x1E4FBDF7 PUSH1 0xE0 SHL DUP2 MSTORE PUSH1 0x0 PUSH1 0x4 DUP3 ADD MSTORE PUSH1 0x24 SWAP1 REVERT JUMPDEST PUSH1 0x0 DUP1 REVERT JUMPDEST PUSH4 0x4E487B71 PUSH1 0xE0 SHL PUSH1 0x0 MSTORE PUSH1 0x41 PUSH1 0x4 MSTORE PUSH1 0x24 PUSH1 0x0 REVERT INVALID PUSH1 0x80 PUSH1 0x40 DUP2 DUP2 MSTORE PUSH1 0x4 DUP1 CALLDATASIZE LT ISZERO PUSH3 0x16 JUMPI PUSH1 0x0 DUP1 REVERT JUMPDEST PUSH1 0x0 SWAP3 DUP4 CALLDATALOAD PUSH1 0xE0 SHR SWAP1 DUP2 PUSH4 0x2F2F2D56 EQ PUSH3 0x319 JUMPI POP DUP1 PUSH4 0x494CFC6C EQ PUSH3 0x2E4 JUMPI DUP1 PUSH4 0x634282AF EQ PUSH3 0x29F JUMPI DUP1 PUSH4 0x715018A6 EQ PUSH3 0x252 JUMPI DUP1 PUSH4 0x7E1C0C09 EQ PUSH3 0x231 JUMPI DUP1 PUSH4 0x8DA5CB5B EQ PUSH3 0x207 JUMPI DUP1 PUSH4 0xD5C71275 EQ PUSH3 0x176 JUMPI DUP1 PUSH4 0xD80D03A2 EQ PUSH3 0x10F JUMPI PUSH4 0xF2FDE38B EQ PUSH3 0x90 JUMPI PUSH1 0x0 DUP1 REVERT JUMPDEST CALLVALUE PUSH3 0x10B JUMPI PUSH1 0x20 CALLDATASIZE PUSH1 0x3 NOT ADD SLT PUSH3 0x10B JUMPI PUSH3 0xAD PUSH3 0x5C9 JUMP JUMPDEST SWAP1 PUSH3 0xB8 PUSH3 0x5E0 JUMP JUMPDEST PUSH1 0x1 PUSH1 0x1 PUSH1 0xA0 SHL SUB SWAP2 DUP3 AND SWAP3 DUP4 ISZERO PUSH3 0xF5 JUMPI POP POP DUP3 SLOAD PUSH1 0x1 PUSH1 0x1 PUSH1 0xA0 SHL SUB NOT DUP2 AND DUP4 OR DUP5 SSTORE AND PUSH1 0x0 DUP1 MLOAD PUSH1 0x20 PUSH3 0x2011 DUP4 CODECOPY DUP2 MLOAD SWAP2 MSTORE DUP4 DUP1 LOG3 DUP1 RETURN JUMPDEST MLOAD PUSH4 0x1E4FBDF7 PUSH1 0xE0 SHL DUP2 MSTORE SWAP1 DUP2 ADD DUP5 SWAP1 MSTORE PUSH1 0x24 SWAP1 REVERT JUMPDEST DUP3 DUP1 REVERT JUMPDEST POP POP CALLVALUE PUSH3 0x172 JUMPI DUP1 PUSH1 0x3 NOT CALLDATASIZE ADD SLT PUSH3 0x172 JUMPI PUSH3 0x12D PUSH3 0x5C9 JUMP JUMPDEST PUSH1 0x1 PUSH1 0x1 PUSH1 0xA0 SHL SUB SWAP1 DUP2 AND DUP4 MSTORE PUSH1 0x2 PUSH1 0x20 MSTORE DUP2 DUP4 KECCAK256 DUP1 SLOAD PUSH1 0x24 CALLDATALOAD SWAP5 SWAP1 DUP6 LT ISZERO PUSH3 0x16F JUMPI POP PUSH1 0x20 SWAP4 PUSH3 0x160 SWAP2 PUSH3 0x5B0 JUMP JUMPDEST SWAP3 SWAP1 SLOAD SWAP1 MLOAD SWAP3 PUSH1 0x3 SHL SHR AND DUP2 MSTORE RETURN JUMPDEST DUP1 REVERT JUMPDEST POP DUP1 REVERT JUMPDEST POP POP CALLVALUE PUSH3 0x172 JUMPI PUSH1 0x20 SWAP1 DUP2 PUSH1 0x3 NOT CALLDATASIZE ADD SLT PUSH3 0x10B JUMPI PUSH1 0x1 PUSH1 0x1 PUSH1 0xA0 SHL SUB SWAP3 DUP4 PUSH3 0x1A1 PUSH3 0x5C9 JUMP JUMPDEST AND DUP2 MSTORE PUSH1 0x2 DUP4 MSTORE DUP2 DUP2 KECCAK256 SWAP4 DUP3 MLOAD SWAP1 DUP2 SWAP5 DUP1 DUP8 SLOAD SWAP4 DUP5 DUP2 MSTORE ADD SWAP7 DUP5 MSTORE DUP1 DUP5 KECCAK256 SWAP4 SWAP2 JUMPDEST DUP4 DUP4 LT PUSH3 0x1ED JUMPI PUSH3 0x1E9 DUP8 DUP8 PUSH3 0x1DE DUP3 DUP13 SUB DUP4 PUSH3 0x652 JUMP JUMPDEST MLOAD SWAP2 DUP3 SWAP2 DUP3 PUSH3 0x538 JUMP JUMPDEST SUB SWAP1 RETURN JUMPDEST DUP5 SLOAD DUP2 AND DUP9 MSTORE SWAP7 DUP2 ADD SWAP7 PUSH1 0x1 SWAP5 DUP6 ADD SWAP5 SWAP1 SWAP3 ADD SWAP2 PUSH3 0x1C2 JUMP JUMPDEST POP POP CALLVALUE PUSH3 0x172 JUMPI DUP2 PUSH1 0x3 NOT CALLDATASIZE ADD SLT PUSH3 0x172 JUMPI SWAP1 SLOAD SWAP1 MLOAD PUSH1 0x1 PUSH1 0x1 PUSH1 0xA0 SHL SUB SWAP1 SWAP2 AND DUP2 MSTORE PUSH1 0x20 SWAP1 RETURN JUMPDEST POP POP CALLVALUE PUSH3 0x172 JUMPI DUP2 PUSH1 0x3 NOT CALLDATASIZE ADD SLT PUSH3 0x172 JUMPI PUSH1 0x20 SWAP1 PUSH1 0x1 SLOAD SWAP1 MLOAD SWAP1 DUP2 MSTORE RETURN JUMPDEST DUP4 CALLVALUE PUSH3 0x16F JUMPI DUP1 PUSH1 0x3 NOT CALLDATASIZE ADD SLT PUSH3 0x16F JUMPI PUSH3 0x26F PUSH3 0x5E0 JUMP JUMPDEST DUP1 SLOAD PUSH1 0x1 PUSH1 0x1 PUSH1 0xA0 SHL SUB NOT DUP2 AND DUP3 SSTORE DUP2 SWAP1 PUSH1 0x1 PUSH1 0x1 PUSH1 0xA0 SHL SUB AND PUSH1 0x0 DUP1 MLOAD PUSH1 0x20 PUSH3 0x2011 DUP4 CODECOPY DUP2 MLOAD SWAP2 MSTORE DUP3 DUP1 LOG3 DUP1 RETURN JUMPDEST POP CALLVALUE PUSH3 0x10B JUMPI PUSH1 0x20 CALLDATASIZE PUSH1 0x3 NOT ADD SLT PUSH3 0x10B JUMPI CALLDATALOAD SWAP2 PUSH1 0x1 SLOAD DUP4 LT ISZERO PUSH3 0x16F JUMPI POP PUSH3 0x2CE PUSH1 0x20 SWAP3 PUSH3 0x57E JUMP JUMPDEST SWAP1 SLOAD SWAP2 MLOAD SWAP2 PUSH1 0x1 DUP1 PUSH1 0xA0 SHL SUB SWAP2 PUSH1 0x3 SHL SHR AND DUP2 MSTORE RETURN JUMPDEST POP SWAP2 CALLVALUE PUSH3 0x16F JUMPI DUP2 PUSH1 0x3 NOT CALLDATASIZE ADD SLT PUSH3 0x16F JUMPI POP PUSH3 0x30D PUSH3 0x1E9 SWAP3 PUSH1 0x24 CALLDATALOAD SWAP1 CALLDATALOAD PUSH3 0x6A4 JUMP JUMPDEST SWAP1 MLOAD SWAP2 DUP3 SWAP2 DUP3 PUSH3 0x538 JUMP JUMPDEST SWAP1 POP DUP3 DUP5 CALLVALUE PUSH3 0x16F JUMPI DUP2 PUSH1 0x3 NOT CALLDATASIZE ADD SLT PUSH3 0x16F JUMPI PUSH1 0x1 PUSH1 0x1 PUSH1 0x40 SHL SUB SWAP3 DUP5 CALLDATALOAD DUP5 DUP2 GT PUSH3 0x10B JUMPI PUSH3 0x351 SWAP1 CALLDATASIZE SWAP1 DUP8 ADD PUSH3 0x503 JUMP JUMPDEST SWAP2 SWAP1 PUSH1 0x24 CALLDATALOAD DUP7 DUP2 GT PUSH3 0x4FF JUMPI PUSH3 0x36D SWAP1 CALLDATASIZE SWAP1 DUP10 ADD PUSH3 0x503 JUMP JUMPDEST DUP6 SLOAD PUSH1 0x1 PUSH1 0x1 PUSH1 0xA0 SHL SUB SWAP9 SWAP3 SWAP5 SWAP2 SWAP4 SWAP3 PUSH2 0x183A DUP1 DUP5 ADD SWAP3 DUP12 AND SWAP2 DUP4 GT DUP5 DUP5 LT OR PUSH3 0x4EC JUMPI SWAP1 DUP4 SWAP3 SWAP2 PUSH3 0x7D7 DUP5 CODECOPY PUSH1 0x60 DUP3 MSTORE DUP10 PUSH3 0x3C5 PUSH3 0x3B5 PUSH1 0x60 DUP6 ADD DUP12 DUP10 PUSH3 0x60D JUMP JUMPDEST DUP5 DUP2 SUB PUSH1 0x20 DUP7 ADD MSTORE DUP9 DUP11 PUSH3 0x60D JUMP JUMPDEST SWAP3 ADD MSTORE SUB SWAP1 DUP7 CREATE DUP1 ISZERO PUSH3 0x4E2 JUMPI DUP8 AND SWAP7 PUSH1 0x1 SLOAD PUSH1 0x1 PUSH1 0x40 SHL SWAP1 DUP2 DUP2 LT ISZERO PUSH3 0x4CF JUMPI DUP1 PUSH1 0x1 PUSH3 0x3FA SWAP3 ADD PUSH1 0x1 SSTORE PUSH3 0x57E JUMP JUMPDEST DUP2 SLOAD SWAP1 PUSH1 0x3 SHL SWAP1 DUP5 DUP13 DUP4 SHL SWAP3 SHL NOT AND OR SWAP1 SSTORE CALLER DUP8 MSTORE PUSH1 0x2 PUSH1 0x20 MSTORE DUP8 DUP8 KECCAK256 DUP1 SLOAD SWAP2 DUP3 LT ISZERO PUSH3 0x4CF JUMPI SWAP1 PUSH3 0x434 SWAP2 PUSH1 0x1 DUP3 ADD DUP2 SSTORE PUSH3 0x5B0 JUMP JUMPDEST DUP2 SWAP3 SWAP2 SLOAD SWAP1 PUSH1 0x3 SHL SWAP2 DUP11 DUP4 SHL SWAP3 SHL NOT AND OR SWAP1 SSTORE PUSH1 0x1 SLOAD SWAP5 PUSH1 0x0 NOT DUP7 ADD SWAP6 DUP7 GT PUSH3 0x4BC JUMPI POP PUSH1 0x20 SWAP8 POP PUSH32 0x6E6AE68E7D7D45FBD855C40D1EAAFA8DE46C5FBEC3EE26F1AF88730E400BC92C SWAP3 DUP8 SWAP5 SWAP3 PUSH3 0x49D PUSH3 0x4AB SWAP4 DUP10 MLOAD SWAP6 PUSH1 0x60 DUP8 MSTORE PUSH1 0x60 DUP8 ADD SWAP2 PUSH3 0x60D JUMP JUMPDEST SWAP2 DUP5 DUP4 SUB DUP12 DUP7 ADD MSTORE PUSH3 0x60D JUMP JUMPDEST SWAP4 DUP6 DUP3 ADD MSTORE DUP1 CALLER SWAP5 SUB SWAP1 LOG3 MLOAD SWAP1 DUP2 MSTORE RETURN JUMPDEST PUSH4 0x4E487B71 PUSH1 0xE0 SHL DUP2 MSTORE PUSH1 0x11 DUP10 MSTORE PUSH1 0x24 SWAP1 REVERT JUMPDEST PUSH4 0x4E487B71 PUSH1 0xE0 SHL DUP9 MSTORE PUSH1 0x41 DUP12 MSTORE PUSH1 0x24 DUP9 REVERT JUMPDEST DUP7 MLOAD RETURNDATASIZE DUP8 DUP3 RETURNDATACOPY RETURNDATASIZE SWAP1 REVERT JUMPDEST PUSH4 0x4E487B71 PUSH1 0xE0 SHL DUP10 MSTORE PUSH1 0x41 DUP13 MSTORE PUSH1 0x24 DUP10 REVERT JUMPDEST DUP5 DUP1 REVERT JUMPDEST SWAP2 DUP2 PUSH1 0x1F DUP5 ADD SLT ISZERO PUSH3 0x533 JUMPI DUP3 CALLDATALOAD SWAP2 PUSH1 0x1 PUSH1 0x1 PUSH1 0x40 SHL SUB DUP4 GT PUSH3 0x533 JUMPI PUSH1 0x20 DUP4 DUP2 DUP7 ADD SWAP6 ADD ADD GT PUSH3 0x533 JUMPI JUMP JUMPDEST PUSH1 0x0 DUP1 REVERT JUMPDEST PUSH1 0x20 SWAP1 DUP2 PUSH1 0x40 DUP2 DUP4 ADD SWAP3 DUP3 DUP2 MSTORE DUP6 MLOAD DUP1 SWAP5 MSTORE ADD SWAP4 ADD SWAP2 PUSH1 0x0 JUMPDEST DUP3 DUP2 LT PUSH3 0x560 JUMPI POP POP POP POP SWAP1 JUMP JUMPDEST DUP4 MLOAD PUSH1 0x1 PUSH1 0x1 PUSH1 0xA0 SHL SUB AND DUP6 MSTORE SWAP4 DUP2 ADD SWAP4 SWAP3 DUP2 ADD SWAP3 PUSH1 0x1 ADD PUSH3 0x551 JUMP JUMPDEST PUSH1 0x1 SLOAD DUP2 LT ISZERO PUSH3 0x59A JUMPI PUSH1 0x1 PUSH1 0x0 MSTORE PUSH1 0x20 PUSH1 0x0 KECCAK256 ADD SWAP1 PUSH1 0x0 SWAP1 JUMP JUMPDEST PUSH4 0x4E487B71 PUSH1 0xE0 SHL PUSH1 0x0 MSTORE PUSH1 0x32 PUSH1 0x4 MSTORE PUSH1 0x24 PUSH1 0x0 REVERT JUMPDEST DUP1 SLOAD DUP3 LT ISZERO PUSH3 0x59A JUMPI PUSH1 0x0 MSTORE PUSH1 0x20 PUSH1 0x0 KECCAK256 ADD SWAP1 PUSH1 0x0 SWAP1 JUMP JUMPDEST PUSH1 0x4 CALLDATALOAD SWAP1 PUSH1 0x1 PUSH1 0x1 PUSH1 0xA0 SHL SUB DUP3 AND DUP3 SUB PUSH3 0x533 JUMPI JUMP JUMPDEST PUSH1 0x0 SLOAD PUSH1 0x1 PUSH1 0x1 PUSH1 0xA0 SHL SUB AND CALLER SUB PUSH3 0x5F5 JUMPI JUMP JUMPDEST PUSH1 0x40 MLOAD PUSH4 0x118CDAA7 PUSH1 0xE0 SHL DUP2 MSTORE CALLER PUSH1 0x4 DUP3 ADD MSTORE PUSH1 0x24 SWAP1 REVERT JUMPDEST SWAP1 DUP1 PUSH1 0x20 SWAP4 SWAP3 DUP2 DUP5 MSTORE DUP5 DUP5 ADD CALLDATACOPY PUSH1 0x0 DUP3 DUP3 ADD DUP5 ADD MSTORE PUSH1 0x1F ADD PUSH1 0x1F NOT AND ADD ADD SWAP1 JUMP JUMPDEST SWAP2 SWAP1 DUP3 SUB SWAP2 DUP3 GT PUSH3 0x63C JUMPI JUMP JUMPDEST PUSH4 0x4E487B71 PUSH1 0xE0 SHL PUSH1 0x0 MSTORE PUSH1 0x11 PUSH1 0x4 MSTORE PUSH1 0x24 PUSH1 0x0 REVERT JUMPDEST PUSH1 0x1F SWAP1 SWAP2 ADD PUSH1 0x1F NOT AND DUP2 ADD SWAP1 PUSH1 0x1 PUSH1 0x1 PUSH1 0x40 SHL SUB DUP3 GT SWAP1 DUP3 LT OR PUSH3 0x676 JUMPI PUSH1 0x40 MSTORE JUMP JUMPDEST PUSH4 0x4E487B71 PUSH1 0xE0 SHL PUSH1 0x0 MSTORE PUSH1 0x41 PUSH1 0x4 MSTORE PUSH1 0x24 PUSH1 0x0 REVERT JUMPDEST PUSH1 0x1 PUSH1 0x1 PUSH1 0x40 SHL SUB DUP2 GT PUSH3 0x676 JUMPI PUSH1 0x5 SHL PUSH1 0x20 ADD SWAP1 JUMP JUMPDEST SWAP2 SWAP1 SWAP2 PUSH1 0x1 SWAP1 DUP2 SLOAD SWAP4 DUP5 DUP3 LT ISZERO PUSH3 0x7A7 JUMPI DUP2 ADD DUP1 DUP3 GT PUSH3 0x63C JUMPI DUP2 DUP6 DUP3 GT PUSH3 0x79E JUMPI JUMPDEST PUSH3 0x6D5 SWAP2 PUSH3 0x62E JUMP JUMPDEST SWAP4 PUSH3 0x6E1 DUP6 PUSH3 0x68C JUMP JUMPDEST SWAP5 PUSH3 0x6F1 PUSH1 0x40 MLOAD SWAP7 DUP8 PUSH3 0x652 JUMP JUMPDEST DUP1 DUP7 MSTORE PUSH3 0x702 PUSH1 0x1F NOT SWAP2 PUSH3 0x68C JUMP JUMPDEST ADD SWAP5 PUSH1 0x20 SWAP6 CALLDATASIZE DUP8 DUP4 ADD CALLDATACOPY DUP1 SWAP6 PUSH1 0x0 SWAP4 PUSH1 0x0 NOT SWAP4 DUP7 DUP6 DUP3 ADD SWAP2 DUP3 GT SWAP1 JUMPDEST PUSH3 0x72E JUMPI JUMPDEST POP POP POP POP POP POP POP POP JUMP JUMPDEST DUP5 MLOAD DUP8 LT ISZERO PUSH3 0x798 JUMPI DUP1 PUSH3 0x63C JUMPI PUSH3 0x75F PUSH3 0x759 DUP9 PUSH3 0x753 DUP7 DUP7 PUSH3 0x62E JUMP JUMPDEST PUSH3 0x62E JUMP JUMPDEST PUSH3 0x57E JUMP JUMPDEST SWAP1 SLOAD DUP7 MLOAD DUP10 LT ISZERO PUSH3 0x59A JUMPI PUSH1 0x3 SWAP2 SWAP1 SWAP2 SHL SHR PUSH1 0x1 PUSH1 0x1 PUSH1 0xA0 SHL SUB AND PUSH1 0x5 DUP9 SWAP1 SHL DUP7 ADD DUP6 ADD MSTORE DUP6 DUP8 EQ PUSH3 0x63C JUMPI DUP8 DUP1 SWAP8 ADD SWAP7 PUSH3 0x71E JUMP JUMPDEST PUSH3 0x724 JUMP JUMPDEST DUP6 SWAP2 POP PUSH3 0x6CA JUMP JUMPDEST POP POP PUSH1 0x40 MLOAD SWAP2 SWAP3 POP POP PUSH1 0x20 DUP2 ADD PUSH1 0x1 PUSH1 0x1 PUSH1 0x40 SHL SUB DUP2 GT DUP3 DUP3 LT OR PUSH3 0x676 JUMPI PUSH1 0x40 MSTORE PUSH1 0x0 DUP2 MSTORE PUSH1 0x0 CALLDATASIZE DUP2 CALLDATACOPY SWAP1 JUMP INVALID PUSH1 0x40 PUSH1 0x80 DUP2 MSTORE CALLVALUE PUSH3 0x4A4 JUMPI PUSH3 0x183A SWAP1 DUP2 CODESIZE SUB DUP1 PUSH3 0x1F DUP2 PUSH3 0x4A9 JUMP JUMPDEST SWAP4 DUP5 CODECOPY DUP3 ADD PUSH1 0x60 DUP4 DUP3 SUB SLT PUSH3 0x4A4 JUMPI DUP3 MLOAD PUSH1 0x1 PUSH1 0x1 PUSH1 0x40 SHL SUB SWAP2 SWAP1 DUP3 DUP2 GT PUSH3 0x4A4 JUMPI DUP2 PUSH3 0x51 SWAP2 DUP7 ADD PUSH3 0x4CF JUMP JUMPDEST PUSH1 0x20 SWAP2 DUP3 DUP7 ADD MLOAD DUP5 DUP2 GT PUSH3 0x4A4 JUMPI DUP6 SWAP2 PUSH3 0x6F SWAP2 DUP9 ADD PUSH3 0x4CF JUMP JUMPDEST SWAP6 ADD MLOAD PUSH1 0x1 PUSH1 0x1 PUSH1 0xA0 SHL SUB DUP1 DUP3 AND SWAP5 SWAP1 SWAP2 DUP6 SWAP1 SUB PUSH3 0x4A4 JUMPI DUP3 MLOAD DUP2 DUP2 GT PUSH3 0x3A4 JUMPI PUSH1 0x3 SWAP1 DUP2 SLOAD SWAP1 PUSH1 0x1 SWAP6 DUP7 DUP4 DUP2 SHR SWAP4 AND DUP1 ISZERO PUSH3 0x499 JUMPI JUMPDEST DUP9 DUP5 LT EQ PUSH3 0x483 JUMPI DUP2 SWAP1 PUSH1 0x1F SWAP4 DUP5 DUP2 GT PUSH3 0x42D JUMPI JUMPDEST POP DUP9 SWAP1 DUP5 DUP4 GT PUSH1 0x1 EQ PUSH3 0x3C6 JUMPI PUSH1 0x0 SWAP3 PUSH3 0x3BA JUMPI JUMPDEST POP POP PUSH1 0x0 NOT DUP3 DUP6 SHL SHR NOT AND SWAP1 DUP7 SHL OR DUP3 SSTORE JUMPDEST DUP9 MLOAD SWAP3 DUP4 GT PUSH3 0x3A4 JUMPI PUSH1 0x4 SWAP9 DUP10 SLOAD DUP7 DUP2 DUP2 SHR SWAP2 AND DUP1 ISZERO PUSH3 0x399 JUMPI JUMPDEST DUP9 DUP3 LT EQ PUSH3 0x384 JUMPI SWAP1 DUP2 DUP4 DUP7 SWAP6 SWAP5 SWAP4 GT PUSH3 0x32A JUMPI JUMPDEST POP DUP8 SWAP2 DUP5 GT PUSH1 0x1 EQ PUSH3 0x2BF JUMPI PUSH1 0x0 SWAP4 PUSH3 0x2B3 JUMPI JUMPDEST POP POP DUP3 DUP6 SHL SWAP3 PUSH1 0x0 NOT SWAP2 SHL SHR NOT AND OR DUP7 SSTORE JUMPDEST DUP4 ISZERO PUSH3 0x29C JUMPI PUSH1 0x5 DUP1 SLOAD PUSH1 0x1 PUSH1 0x1 PUSH1 0xA0 SHL SUB NOT DUP2 AND DUP7 OR SWAP1 SWAP2 SSTORE DUP5 SWAP2 AND PUSH32 0x8BE0079C531659141344CD1FD0A4F28419497F9722A3DAAFE3B4186F6B6457E0 PUSH1 0x0 DUP1 LOG3 PUSH32 0x9B779B17422D0DF92223018B32B4D1FA46E071723D6817E2486D003BECC55F00 SSTORE PUSH12 0x295BE96E640669720000000 SWAP1 DUP2 PUSH1 0x6 SSTORE ADDRESS ISZERO PUSH3 0x285 JUMPI PUSH1 0x2 SLOAD DUP3 DUP2 ADD DUP1 SWAP2 GT PUSH3 0x270 JUMPI PUSH1 0x2 SSTORE ADDRESS PUSH1 0x0 MSTORE PUSH1 0x0 DUP2 MSTORE DUP4 PUSH1 0x0 KECCAK256 DUP3 DUP2 SLOAD ADD SWAP1 SSTORE DUP4 MLOAD SWAP2 DUP3 MSTORE PUSH32 0xDDF252AD1BE2C89B69C2B068FC378DAA952BA7F163C4A11628F55A4DF523B3EF SWAP2 PUSH1 0x0 DUP4 DUP4 ADDRESS SWAP4 LOG3 PUSH1 0x2 SLOAD PUSH11 0xA56FA5B99019A5C8000000 SWAP1 DUP2 DUP2 ADD DUP1 SWAP2 GT PUSH3 0x25B JUMPI PUSH1 0x0 SWAP5 SWAP6 SWAP7 POP PUSH1 0x2 SSTORE DUP5 DUP5 MSTORE DUP4 DUP3 MSTORE DUP6 DUP5 KECCAK256 DUP2 DUP2 SLOAD ADD SWAP1 SSTORE DUP6 MLOAD SWAP1 DUP2 MSTORE LOG3 MLOAD PUSH2 0x12F8 SWAP1 DUP2 PUSH3 0x542 DUP3 CODECOPY RETURN JUMPDEST PUSH1 0x11 DUP8 PUSH4 0x4E487B71 PUSH1 0xE0 SHL PUSH1 0x0 MSTORE MSTORE PUSH1 0x24 PUSH1 0x0 REVERT JUMPDEST PUSH1 0x11 DUP7 PUSH4 0x4E487B71 PUSH1 0xE0 SHL PUSH1 0x0 MSTORE MSTORE PUSH1 0x24 PUSH1 0x0 REVERT JUMPDEST DUP4 MLOAD PUSH4 0xEC442F05 PUSH1 0xE0 SHL DUP2 MSTORE PUSH1 0x0 DUP2 DUP8 ADD MSTORE PUSH1 0x24 SWAP1 REVERT JUMPDEST DUP5 MLOAD PUSH4 0x1E4FBDF7 PUSH1 0xE0 SHL DUP2 MSTORE PUSH1 0x0 DUP2 DUP9 ADD MSTORE PUSH1 0x24 SWAP1 REVERT JUMPDEST ADD MLOAD SWAP2 POP CODESIZE DUP1 PUSH3 0x133 JUMP JUMPDEST SWAP2 SWAP1 DUP7 SWAP5 POP PUSH1 0x1F NOT DUP5 AND SWAP3 DUP12 PUSH1 0x0 MSTORE DUP9 PUSH1 0x0 KECCAK256 SWAP4 PUSH1 0x0 JUMPDEST DUP11 DUP3 DUP3 LT PUSH3 0x313 JUMPI POP POP DUP6 GT PUSH3 0x2F8 JUMPI JUMPDEST POP POP POP POP DUP2 SHL ADD DUP7 SSTORE PUSH3 0x145 JUMP JUMPDEST ADD MLOAD SWAP1 PUSH1 0xF8 DUP5 PUSH1 0x0 NOT SWAP3 SHL AND SHR NOT AND SWAP1 SSTORE CODESIZE DUP1 DUP1 DUP1 PUSH3 0x2E9 JUMP JUMPDEST DUP4 DUP6 ADD MLOAD DUP8 SSTORE DUP11 SWAP9 SWAP1 SWAP7 ADD SWAP6 SWAP4 DUP5 ADD SWAP4 ADD PUSH3 0x2D6 JUMP JUMPDEST SWAP1 SWAP2 SWAP3 SWAP4 POP DUP11 PUSH1 0x0 MSTORE DUP8 PUSH1 0x0 KECCAK256 DUP4 DUP1 DUP8 ADD PUSH1 0x5 SHR DUP3 ADD SWAP3 DUP11 DUP9 LT PUSH3 0x37A JUMPI JUMPDEST SWAP2 DUP10 SWAP2 DUP9 SWAP8 SWAP7 SWAP6 SWAP5 SWAP4 ADD PUSH1 0x5 SHR ADD SWAP2 JUMPDEST DUP3 DUP2 LT PUSH3 0x36A JUMPI POP POP PUSH3 0x11D JUMP JUMPDEST PUSH1 0x0 DUP2 SSTORE DUP8 SWAP7 POP DUP10 SWAP2 ADD PUSH3 0x35A JUMP JUMPDEST SWAP3 POP DUP2 SWAP3 PUSH3 0x34A JUMP JUMPDEST PUSH1 0x22 DUP12 PUSH4 0x4E487B71 PUSH1 0xE0 SHL PUSH1 0x0 MSTORE MSTORE PUSH1 0x24 PUSH1 0x0 REVERT JUMPDEST SWAP1 PUSH1 0x7F AND SWAP1 PUSH3 0x106 JUMP JUMPDEST PUSH4 0x4E487B71 PUSH1 0xE0 SHL PUSH1 0x0 MSTORE PUSH1 0x41 PUSH1 0x4 MSTORE PUSH1 0x24 PUSH1 0x0 REVERT JUMPDEST ADD MLOAD SWAP1 POP CODESIZE DUP1 PUSH3 0xD7 JUMP JUMPDEST SWAP1 DUP9 SWAP4 POP PUSH1 0x1F NOT DUP4 AND SWAP2 DUP7 PUSH1 0x0 MSTORE DUP11 PUSH1 0x0 KECCAK256 SWAP3 PUSH1 0x0 JUMPDEST DUP13 DUP3 DUP3 LT PUSH3 0x416 JUMPI POP POP DUP5 GT PUSH3 0x3FD JUMPI JUMPDEST POP POP POP DUP2 SHL ADD DUP3 SSTORE PUSH3 0xE9 JUMP JUMPDEST ADD MLOAD PUSH1 0x0 NOT DUP4 DUP8 SHL PUSH1 0xF8 AND SHR NOT AND SWAP1 SSTORE CODESIZE DUP1 DUP1 PUSH3 0x3EF JUMP JUMPDEST DUP4 DUP6 ADD MLOAD DUP7 SSTORE DUP13 SWAP8 SWAP1 SWAP6 ADD SWAP5 SWAP4 DUP5 ADD SWAP4 ADD PUSH3 0x3DC JUMP JUMPDEST SWAP1 SWAP2 POP DUP5 PUSH1 0x0 MSTORE DUP9 PUSH1 0x0 KECCAK256 DUP5 DUP1 DUP6 ADD PUSH1 0x5 SHR DUP3 ADD SWAP3 DUP12 DUP7 LT PUSH3 0x479 JUMPI JUMPDEST SWAP2 DUP11 SWAP2 DUP7 SWAP6 SWAP5 SWAP4 ADD PUSH1 0x5 SHR ADD SWAP2 JUMPDEST DUP3 DUP2 LT PUSH3 0x469 JUMPI POP POP PUSH3 0xC0 JUMP JUMPDEST PUSH1 0x0 DUP2 SSTORE DUP6 SWAP5 POP DUP11 SWAP2 ADD PUSH3 0x459 JUMP JUMPDEST SWAP3 POP DUP2 SWAP3 PUSH3 0x44B JUMP JUMPDEST PUSH4 0x4E487B71 PUSH1 0xE0 SHL PUSH1 0x0 MSTORE PUSH1 0x22 PUSH1 0x4 MSTORE PUSH1 0x24 PUSH1 0x0 REVERT JUMPDEST SWAP3 PUSH1 0x7F AND SWAP3 PUSH3 0xA9 JUMP JUMPDEST PUSH1 0x0 DUP1 REVERT JUMPDEST PUSH1 0x40 MLOAD SWAP2 SWAP1 PUSH1 0x1F ADD PUSH1 0x1F NOT AND DUP3 ADD PUSH1 0x1 PUSH1 0x1 PUSH1 0x40 SHL SUB DUP2 GT DUP4 DUP3 LT OR PUSH3 0x3A4 JUMPI PUSH1 0x40 MSTORE JUMP JUMPDEST SWAP2 SWAP1 DUP1 PUSH1 0x1F DUP5 ADD SLT ISZERO PUSH3 0x4A4 JUMPI DUP3 MLOAD PUSH1 0x1 PUSH1 0x1 PUSH1 0x40 SHL SUB DUP2 GT PUSH3 0x3A4 JUMPI PUSH1 0x20 SWAP1 PUSH3 0x505 PUSH1 0x1F DUP3 ADD PUSH1 0x1F NOT AND DUP4 ADD PUSH3 0x4A9 JUMP JUMPDEST SWAP3 DUP2 DUP5 MSTORE DUP3 DUP3 DUP8 ADD ADD GT PUSH3 0x4A4 JUMPI PUSH1 0x0 JUMPDEST DUP2 DUP2 LT PUSH3 0x52D JUMPI POP DUP3 PUSH1 0x0 SWAP4 SWAP5 SWAP6 POP ADD ADD MSTORE SWAP1 JUMP JUMPDEST DUP6 DUP2 ADD DUP4 ADD MLOAD DUP5 DUP3 ADD DUP5 ADD MSTORE DUP3 ADD PUSH3 0x517 JUMP INVALID PUSH1 0x80 PUSH1 0x40 DUP2 DUP2 MSTORE PUSH1 0x4 DUP1 CALLDATASIZE LT ISZERO PUSH2 0x15 JUMPI PUSH1 0x0 DUP1 REVERT JUMPDEST PUSH1 0x0 SWAP3 DUP4 CALLDATALOAD PUSH1 0xE0 SHR SWAP1 DUP2 PUSH4 0x6FDDE03 EQ PUSH2 0xD72 JUMPI POP DUP1 PUSH4 0x95EA7B3 EQ PUSH2 0xCC9 JUMPI DUP1 PUSH4 0x130B3120 EQ PUSH2 0xCAA JUMPI DUP1 PUSH4 0x18160DDD EQ PUSH2 0xC8B JUMPI DUP1 PUSH4 0x1E4C7292 EQ PUSH2 0xC65 JUMPI DUP1 PUSH4 0x1FB87F39 EQ PUSH2 0xC45 JUMPI DUP1 PUSH4 0x23B872DD EQ PUSH2 0xB5C JUMPI DUP1 PUSH4 0x313CE567 EQ PUSH2 0xB40 JUMPI DUP1 PUSH4 0x343EE3B7 EQ PUSH2 0xB21 JUMPI DUP1 PUSH4 0x6700C0C3 EQ PUSH2 0xAFE JUMPI DUP1 PUSH4 0x70A08231 EQ PUSH2 0xAC7 JUMPI DUP1 PUSH4 0x715018A6 EQ PUSH2 0xA7C JUMPI DUP1 PUSH4 0x768713F5 EQ PUSH2 0xA5C JUMPI DUP1 PUSH4 0x8DA5CB5B EQ PUSH2 0xA33 JUMPI DUP1 PUSH4 0x902D55A5 EQ PUSH2 0xA0D JUMPI DUP1 PUSH4 0x939C4456 EQ PUSH2 0x9F0 JUMPI DUP1 PUSH4 0x95D89B41 EQ PUSH2 0x909 JUMPI DUP1 PUSH4 0x9D1B464A EQ PUSH2 0x899 JUMPI DUP1 PUSH4 0xA0EF91DF EQ PUSH2 0x78F JUMPI DUP1 PUSH4 0xA9059CBB EQ PUSH2 0x75E JUMPI DUP1 PUSH4 0xAE2C1A6E EQ PUSH2 0x73B JUMPI DUP1 PUSH4 0xB9C3A818 EQ PUSH2 0x715 JUMPI DUP1 PUSH4 0xD79875EB EQ PUSH2 0x492 JUMPI DUP1 PUSH4 0xD96A094A EQ PUSH2 0x237 JUMPI DUP1 PUSH4 0xDD62ED3E EQ PUSH2 0x1EE JUMPI DUP1 PUSH4 0xE7C2B772 EQ PUSH2 0x1C6 JUMPI PUSH4 0xF2FDE38B EQ PUSH2 0x14C JUMPI PUSH1 0x0 DUP1 REVERT JUMPDEST CALLVALUE PUSH2 0x1C2 JUMPI PUSH1 0x20 CALLDATASIZE PUSH1 0x3 NOT ADD SLT PUSH2 0x1C2 JUMPI PUSH2 0x165 PUSH2 0xE8F JUMP JUMPDEST SWAP1 PUSH2 0x16E PUSH2 0xEC0 JUMP JUMPDEST PUSH1 0x1 PUSH1 0x1 PUSH1 0xA0 SHL SUB SWAP2 DUP3 AND SWAP3 DUP4 ISZERO PUSH2 0x1AC JUMPI POP POP PUSH1 0x5 DUP1 SLOAD PUSH1 0x1 PUSH1 0x1 PUSH1 0xA0 SHL SUB NOT DUP2 AND DUP5 OR SWAP1 SWAP2 SSTORE AND PUSH1 0x0 DUP1 MLOAD PUSH1 0x20 PUSH2 0x1243 DUP4 CODECOPY DUP2 MLOAD SWAP2 MSTORE DUP4 DUP1 LOG3 DUP1 RETURN JUMPDEST MLOAD PUSH4 0x1E4FBDF7 PUSH1 0xE0 SHL DUP2 MSTORE SWAP1 DUP2 ADD DUP5 SWAP1 MSTORE PUSH1 0x24 SWAP1 REVERT JUMPDEST DUP3 DUP1 REVERT JUMPDEST POP POP CALLVALUE PUSH2 0x1EA JUMPI DUP2 PUSH1 0x3 NOT CALLDATASIZE ADD SLT PUSH2 0x1EA JUMPI PUSH1 0x20 SWAP1 PUSH1 0xFF PUSH1 0x8 SLOAD AND SWAP1 MLOAD SWAP1 ISZERO ISZERO DUP2 MSTORE RETURN JUMPDEST POP DUP1 REVERT JUMPDEST POP POP CALLVALUE PUSH2 0x1EA JUMPI DUP1 PUSH1 0x3 NOT CALLDATASIZE ADD SLT PUSH2 0x1EA JUMPI DUP1 PUSH1 0x20 SWAP3 PUSH2 0x20C PUSH2 0xE8F JUMP JUMPDEST PUSH2 0x214 PUSH2 0xEAA JUMP JUMPDEST PUSH1 0x1 PUSH1 0x1 PUSH1 0xA0 SHL SUB SWAP2 DUP3 AND DUP4 MSTORE PUSH1 0x1 DUP7 MSTORE DUP4 DUP4 KECCAK256 SWAP2 AND DUP3 MSTORE DUP5 MSTORE KECCAK256 SLOAD SWAP1 MLOAD SWAP1 DUP2 MSTORE RETURN JUMPDEST POP SWAP1 PUSH1 0x20 SWAP2 DUP3 PUSH1 0x3 NOT CALLDATASIZE ADD SLT PUSH2 0x48E JUMPI PUSH2 0x24F PUSH2 0x10FC JUMP JUMPDEST CALLVALUE ISZERO PUSH2 0x45B JUMPI PUSH1 0x7 SLOAD SWAP3 PUSH8 0x14D1120D7B160000 SWAP4 DUP1 DUP6 ADD DUP1 SWAP6 GT PUSH2 0x448 JUMPI PUSH2 0x299 PUSH2 0x292 PUSH1 0x6 SLOAD SWAP7 PUSH2 0x28C PUSH2 0x284 DUP10 DUP4 PUSH2 0x102F JUMP JUMPDEST SWAP2 CALLVALUE SWAP1 PUSH2 0x100C JUMP JUMPDEST SWAP1 PUSH2 0x1042 JUMP JUMPDEST DUP1 SWAP7 PUSH2 0x1062 JUMP JUMPDEST SWAP5 PUSH2 0x2A5 DUP7 ISZERO ISZERO PUSH2 0x106F JUMP JUMPDEST DUP4 CALLDATALOAD DUP7 LT PUSH2 0x40B JUMPI PUSH1 0x6 SSTORE PUSH2 0x2BB SWAP1 CALLVALUE SWAP1 PUSH2 0x100C JUMP JUMPDEST PUSH1 0x7 SSTORE PUSH2 0x2C9 DUP5 CALLER ADDRESS PUSH2 0xF25 JUMP JUMPDEST PUSH1 0x8 SLOAD PUSH1 0xFF DUP2 AND ISZERO DUP1 PUSH2 0x3F7 JUMPI JUMPDEST PUSH2 0x3CD JUMPI JUMPDEST POP PUSH1 0xFF PUSH1 0x8 SLOAD AND PUSH2 0x32B JUMPI JUMPDEST POP POP PUSH2 0x313 PUSH1 0x0 DUP1 MLOAD PUSH1 0x20 PUSH2 0x1283 DUP4 CODECOPY DUP2 MLOAD SWAP2 MSTORE SWAP2 PUSH2 0x305 PUSH2 0x112C JUMP JUMPDEST SWAP1 MLOAD SWAP2 DUP3 SWAP2 CALLER SWAP6 CALLVALUE DUP5 PUSH2 0x10E6 JUMP JUMPDEST SUB SWAP1 LOG2 PUSH1 0x1 PUSH1 0x0 DUP1 MLOAD PUSH1 0x20 PUSH2 0x1263 DUP4 CODECOPY DUP2 MLOAD SWAP2 MSTORE SSTORE DUP1 RETURN JUMPDEST SELFBALANCE SWAP2 DUP3 PUSH2 0x339 JUMPI JUMPDEST POP PUSH2 0x2E8 JUMP JUMPDEST PUSH1 0x1 DUP1 PUSH1 0xA0 SHL SUB SWAP1 DUP7 DUP1 DUP1 DUP1 DUP8 DUP7 PUSH1 0x5 SLOAD AND GAS CALL PUSH2 0x355 PUSH2 0x10A7 JUMP JUMPDEST POP ISZERO PUSH2 0x393 JUMPI POP SWAP2 PUSH1 0x0 DUP1 MLOAD PUSH1 0x20 PUSH2 0x1223 DUP4 CODECOPY DUP2 MLOAD SWAP2 MSTORE PUSH1 0x0 DUP1 MLOAD PUSH1 0x20 PUSH2 0x1283 DUP4 CODECOPY DUP2 MLOAD SWAP2 MSTORE SWAP5 SWAP3 PUSH2 0x313 SWAP5 PUSH1 0x5 SLOAD AND SWAP3 DUP5 MLOAD SWAP1 DUP2 MSTORE LOG2 SWAP2 CODESIZE PUSH2 0x333 JUMP JUMPDEST DUP5 MLOAD PUSH3 0x461BCD PUSH1 0xE5 SHL DUP2 MSTORE SWAP1 DUP2 ADD DUP4 SWAP1 MSTORE PUSH1 0x14 PUSH1 0x24 DUP3 ADD MSTORE PUSH20 0x105D5D1BCB5DDA5D1A191C985DC819985A5B1959 PUSH1 0x62 SHL PUSH1 0x44 DUP3 ADD MSTORE PUSH1 0x64 SWAP1 REVERT JUMPDEST PUSH1 0x1 SWAP1 PUSH1 0xFF NOT AND OR PUSH1 0x8 SSTORE PUSH1 0x0 DUP1 MLOAD PUSH1 0x20 PUSH2 0x12A3 DUP4 CODECOPY DUP2 MLOAD SWAP2 MSTORE DUP2 PUSH1 0x7 SLOAD DUP6 MLOAD SWAP1 DUP2 MSTORE LOG1 CODESIZE PUSH2 0x2DC JUMP JUMPDEST POP PUSH8 0x30927F74C9DE0000 PUSH1 0x7 SLOAD LT ISZERO PUSH2 0x2D7 JUMP JUMPDEST POP POP PUSH1 0x64 SWAP3 MLOAD SWAP2 PUSH3 0x461BCD PUSH1 0xE5 SHL DUP4 MSTORE DUP3 ADD MSTORE PUSH1 0x18 PUSH1 0x24 DUP3 ADD MSTORE PUSH24 0x536C6970706167653A20746F6F2066657720746F6B656E73 PUSH1 0x40 SHL PUSH1 0x44 DUP3 ADD MSTORE REVERT JUMPDEST PUSH4 0x4E487B71 PUSH1 0xE0 SHL DUP7 MSTORE PUSH1 0x11 DUP4 MSTORE PUSH1 0x24 DUP7 REVERT JUMPDEST DUP3 PUSH1 0x64 SWAP3 MLOAD SWAP2 PUSH3 0x461BCD PUSH1 0xE5 SHL DUP4 MSTORE DUP3 ADD MSTORE PUSH1 0xF PUSH1 0x24 DUP3 ADD MSTORE PUSH15 0x53656E642045544820746F20627579 PUSH1 0x88 SHL PUSH1 0x44 DUP3 ADD MSTORE REVERT JUMPDEST DUP4 DUP1 REVERT JUMPDEST POP SWAP1 CALLVALUE PUSH2 0x1C2 JUMPI DUP1 PUSH1 0x3 NOT CALLDATASIZE ADD SLT PUSH2 0x1C2 JUMPI DUP2 CALLDATALOAD SWAP2 PUSH2 0x4AF PUSH2 0x10FC JUMP JUMPDEST PUSH1 0xFF PUSH1 0x8 SLOAD AND PUSH2 0x6D4 JUMPI DUP3 ISZERO PUSH2 0x69C JUMPI CALLER DUP5 MSTORE DUP4 PUSH1 0x20 MSTORE DUP3 DUP3 DUP6 KECCAK256 SLOAD LT PUSH2 0x663 JUMPI PUSH1 0x7 SLOAD SWAP1 PUSH8 0x14D1120D7B160000 SWAP2 DUP1 DUP4 ADD DUP1 SWAP4 GT PUSH2 0x650 JUMPI PUSH2 0x513 PUSH1 0x6 SLOAD SWAP4 PUSH2 0x50D PUSH2 0x506 DUP9 PUSH2 0x500 DUP9 DUP6 PUSH2 0x102F JUMP JUMPDEST SWAP8 PUSH2 0x100C JUMP JUMPDEST DUP1 SWAP7 PUSH2 0x1042 JUMP JUMPDEST SWAP1 PUSH2 0x1062 JUMP JUMPDEST SWAP3 DUP2 DUP5 GT PUSH2 0x614 JUMPI PUSH2 0x526 DUP5 ISZERO ISZERO PUSH2 0x106F JUMP JUMPDEST PUSH1 0x24 CALLDATALOAD DUP5 LT PUSH2 0x5D6 JUMPI PUSH2 0x53D SWAP2 DUP5 SWAP2 PUSH1 0x6 SSTORE PUSH2 0x1062 JUMP JUMPDEST PUSH1 0x7 SSTORE PUSH2 0x54B DUP5 ADDRESS CALLER PUSH2 0xF25 JUMP JUMPDEST DUP5 DUP1 DUP1 DUP1 DUP6 CALLER GAS CALL PUSH2 0x55B PUSH2 0x10A7 JUMP JUMPDEST POP ISZERO PUSH2 0x59D JUMPI POP SWAP1 PUSH32 0x846C37EEF631E0943682D87352EC117C20008EB7F425C9B85AC011A6D4774CC0 SWAP2 PUSH2 0x313 PUSH2 0x590 PUSH2 0x112C JUMP JUMPDEST SWAP3 MLOAD SWAP3 DUP4 SWAP3 CALLER SWAP7 DUP5 PUSH2 0x10E6 JUMP JUMPDEST PUSH1 0x64 SWAP1 PUSH1 0x20 DUP5 MLOAD SWAP2 PUSH3 0x461BCD PUSH1 0xE5 SHL DUP4 MSTORE DUP3 ADD MSTORE PUSH1 0x13 PUSH1 0x24 DUP3 ADD MSTORE PUSH19 0x115512081D1C985B9CD9995C8819985A5B1959 PUSH1 0x6A SHL PUSH1 0x44 DUP3 ADD MSTORE REVERT JUMPDEST DUP5 MLOAD PUSH3 0x461BCD PUSH1 0xE5 SHL DUP2 MSTORE PUSH1 0x20 DUP2 DUP6 ADD MSTORE PUSH1 0x18 PUSH1 0x24 DUP3 ADD MSTORE PUSH24 0xA6D8D2E0E0C2CECA7440E8DEDE40D8D2E8E8D8CA408AA89 PUSH1 0x43 SHL PUSH1 0x44 DUP3 ADD MSTORE PUSH1 0x64 SWAP1 REVERT JUMPDEST DUP5 MLOAD PUSH3 0x461BCD PUSH1 0xE5 SHL DUP2 MSTORE PUSH1 0x20 DUP2 DUP6 ADD MSTORE PUSH1 0x16 PUSH1 0x24 DUP3 ADD MSTORE PUSH22 0x139BDD08195B9BDD59DA08115512081A5B881C1BDBDB PUSH1 0x52 SHL PUSH1 0x44 DUP3 ADD MSTORE PUSH1 0x64 SWAP1 REVERT JUMPDEST PUSH4 0x4E487B71 PUSH1 0xE0 SHL DUP7 MSTORE PUSH1 0x11 DUP3 MSTORE PUSH1 0x24 DUP7 REVERT JUMPDEST PUSH1 0x20 PUSH1 0x64 SWAP3 MLOAD SWAP2 PUSH3 0x461BCD PUSH1 0xE5 SHL DUP4 MSTORE DUP3 ADD MSTORE PUSH1 0x14 PUSH1 0x24 DUP3 ADD MSTORE PUSH20 0x496E73756666696369656E742062616C616E6365 PUSH1 0x60 SHL PUSH1 0x44 DUP3 ADD MSTORE REVERT JUMPDEST PUSH1 0x20 PUSH1 0x64 SWAP3 MLOAD SWAP2 PUSH3 0x461BCD PUSH1 0xE5 SHL DUP4 MSTORE DUP3 ADD MSTORE PUSH1 0x13 PUSH1 0x24 DUP3 ADD MSTORE PUSH19 0x139BC81D1BDAD95B9CC81CDC1958DA599A5959 PUSH1 0x6A SHL PUSH1 0x44 DUP3 ADD MSTORE REVERT JUMPDEST PUSH1 0x20 PUSH1 0x64 SWAP3 MLOAD SWAP2 PUSH3 0x461BCD PUSH1 0xE5 SHL DUP4 MSTORE DUP3 ADD MSTORE PUSH1 0x1C PUSH1 0x24 DUP3 ADD MSTORE PUSH28 0x10D85B9B9BDD081CD95B1B0E881D1BDAD95B8819DC98591D585D1959 PUSH1 0x22 SHL PUSH1 0x44 DUP3 ADD MSTORE REVERT JUMPDEST POP POP CALLVALUE PUSH2 0x1EA JUMPI DUP2 PUSH1 0x3 NOT CALLDATASIZE ADD SLT PUSH2 0x1EA JUMPI PUSH1 0x20 SWAP1 MLOAD PUSH11 0xA56FA5B99019A5C8000000 DUP2 MSTORE RETURN JUMPDEST POP POP CALLVALUE PUSH2 0x1EA JUMPI DUP2 PUSH1 0x3 NOT CALLDATASIZE ADD SLT PUSH2 0x1EA JUMPI PUSH1 0x20 SWAP1 MLOAD PUSH8 0x30927F74C9DE0000 DUP2 MSTORE RETURN JUMPDEST POP POP CALLVALUE PUSH2 0x1EA JUMPI DUP1 PUSH1 0x3 NOT CALLDATASIZE ADD SLT PUSH2 0x1EA JUMPI PUSH1 0x20 SWAP1 PUSH2 0x788 PUSH2 0x77E PUSH2 0xE8F JUMP JUMPDEST PUSH1 0x24 CALLDATALOAD SWAP1 CALLER PUSH2 0xF25 JUMP JUMPDEST MLOAD PUSH1 0x1 DUP2 MSTORE RETURN JUMPDEST POP CALLVALUE PUSH2 0x1C2 JUMPI DUP3 PUSH1 0x3 NOT CALLDATASIZE ADD SLT PUSH2 0x1C2 JUMPI PUSH2 0x7A8 PUSH2 0xEC0 JUMP JUMPDEST SELFBALANCE SWAP1 DUP2 ISZERO PUSH2 0x861 JUMPI PUSH1 0x8 SLOAD PUSH1 0xFF DUP2 AND ISZERO PUSH2 0x836 JUMPI JUMPDEST POP PUSH1 0x1 DUP1 PUSH1 0xA0 SHL SUB SWAP1 DUP5 DUP1 DUP1 DUP1 DUP7 DUP7 PUSH1 0x5 SLOAD AND GAS CALL PUSH2 0x7DA PUSH2 0x10A7 JUMP JUMPDEST POP ISZERO PUSH2 0x801 JUMPI POP PUSH1 0x0 DUP1 MLOAD PUSH1 0x20 PUSH2 0x1223 DUP4 CODECOPY DUP2 MLOAD SWAP2 MSTORE SWAP2 PUSH1 0x20 SWAP2 PUSH1 0x5 SLOAD AND SWAP4 MLOAD SWAP1 DUP2 MSTORE LOG2 DUP1 RETURN JUMPDEST PUSH1 0x64 SWAP1 PUSH1 0x20 DUP6 MLOAD SWAP2 PUSH3 0x461BCD PUSH1 0xE5 SHL DUP4 MSTORE DUP3 ADD MSTORE PUSH1 0xF PUSH1 0x24 DUP3 ADD MSTORE PUSH15 0x15DA5D1A191C985DC819985A5B1959 PUSH1 0x8A SHL PUSH1 0x44 DUP3 ADD MSTORE REVERT JUMPDEST PUSH1 0x1 SWAP1 PUSH1 0xFF NOT AND OR PUSH1 0x8 SSTORE PUSH1 0x0 DUP1 MLOAD PUSH1 0x20 PUSH2 0x12A3 DUP4 CODECOPY DUP2 MLOAD SWAP2 MSTORE PUSH1 0x20 PUSH1 0x7 SLOAD DUP6 MLOAD SWAP1 DUP2 MSTORE LOG1 CODESIZE PUSH2 0x7BD JUMP JUMPDEST PUSH1 0x64 SWAP1 PUSH1 0x20 DUP5 MLOAD SWAP2 PUSH3 0x461BCD PUSH1 0xE5 SHL DUP4 MSTORE DUP3 ADD MSTORE PUSH1 0x12 PUSH1 0x24 DUP3 ADD MSTORE PUSH18 0x4E6F2045544820746F207769746864726177 PUSH1 0x70 SHL PUSH1 0x44 DUP3 ADD MSTORE REVERT JUMPDEST POP SWAP2 CALLVALUE PUSH2 0x906 JUMPI DUP1 PUSH1 0x3 NOT CALLDATASIZE ADD SLT PUSH2 0x906 JUMPI PUSH1 0x7 SLOAD SWAP3 PUSH8 0x14D1120D7B160000 SWAP4 DUP5 ADD DUP1 SWAP5 GT PUSH2 0x8F3 JUMPI PUSH8 0xDE0B6B3A7640000 SWAP4 DUP5 DUP2 MUL SWAP5 DUP2 DUP7 DIV EQ SWAP1 ISZERO OR ISZERO PUSH2 0x8F3 JUMPI PUSH1 0x20 DUP4 PUSH2 0x8EC DUP7 PUSH1 0x6 SLOAD SWAP1 PUSH2 0x1042 JUMP JUMPDEST SWAP1 MLOAD SWAP1 DUP2 MSTORE RETURN JUMPDEST PUSH4 0x4E487B71 PUSH1 0xE0 SHL DUP3 MSTORE PUSH1 0x11 SWAP1 MSTORE PUSH1 0x24 SWAP1 REVERT JUMPDEST DUP1 REVERT JUMPDEST POP SWAP2 SWAP1 CALLVALUE PUSH2 0x1EA JUMPI DUP2 PUSH1 0x3 NOT CALLDATASIZE ADD SLT PUSH2 0x1EA JUMPI DUP1 MLOAD SWAP2 DUP1 SWAP4 DUP1 SLOAD SWAP2 PUSH1 0x1 SWAP1 DUP4 DUP3 SHR SWAP3 DUP3 DUP6 AND SWAP5 DUP6 ISZERO PUSH2 0x9E6 JUMPI JUMPDEST PUSH1 0x20 SWAP6 DUP7 DUP7 LT DUP2 EQ PUSH2 0x9D3 JUMPI DUP6 DUP10 MSTORE SWAP1 DUP2 ISZERO PUSH2 0x9AF JUMPI POP PUSH1 0x1 EQ PUSH2 0x974 JUMPI JUMPDEST PUSH2 0x970 DUP8 DUP8 PUSH2 0x966 DUP3 DUP13 SUB DUP4 PUSH2 0xEEC JUMP JUMPDEST MLOAD SWAP2 DUP3 SWAP2 DUP3 PUSH2 0xE46 JUMP JUMPDEST SUB SWAP1 RETURN JUMPDEST SWAP1 DUP1 SWAP5 SWAP8 POP MSTORE DUP6 DUP4 KECCAK256 JUMPDEST DUP3 DUP5 LT PUSH2 0x99C JUMPI POP POP POP DUP3 PUSH2 0x970 SWAP5 PUSH2 0x966 SWAP3 DUP3 ADD ADD SWAP5 CODESIZE DUP1 PUSH2 0x955 JUMP JUMPDEST DUP1 SLOAD DUP7 DUP6 ADD DUP9 ADD MSTORE SWAP3 DUP7 ADD SWAP3 DUP2 ADD PUSH2 0x97E JUMP JUMPDEST PUSH1 0xFF NOT AND DUP9 DUP8 ADD MSTORE POP POP POP POP ISZERO ISZERO PUSH1 0x5 SHL DUP4 ADD ADD SWAP3 POP PUSH2 0x966 DUP3 PUSH2 0x970 CODESIZE DUP1 PUSH2 0x955 JUMP JUMPDEST PUSH4 0x4E487B71 PUSH1 0xE0 SHL DUP5 MSTORE PUSH1 0x22 DUP4 MSTORE PUSH1 0x24 DUP5 REVERT JUMPDEST SWAP4 PUSH1 0x7F AND SWAP4 PUSH2 0x936 JUMP JUMPDEST POP POP CALLVALUE PUSH2 0x1EA JUMPI DUP2 PUSH1 0x3 NOT CALLDATASIZE ADD SLT PUSH2 0x1EA JUMPI PUSH1 0x20 SWAP1 PUSH2 0x8EC PUSH2 0x112C JUMP JUMPDEST POP POP CALLVALUE PUSH2 0x1EA JUMPI DUP2 PUSH1 0x3 NOT CALLDATASIZE ADD SLT PUSH2 0x1EA JUMPI MLOAD PUSH8 0x6765C793FA10079D PUSH1 0x1B SHL DUP2 MSTORE PUSH1 0x20 SWAP1 RETURN JUMPDEST POP POP CALLVALUE PUSH2 0x1EA JUMPI DUP2 PUSH1 0x3 NOT CALLDATASIZE ADD SLT PUSH2 0x1EA JUMPI PUSH1 0x5 SLOAD SWAP1 MLOAD PUSH1 0x1 PUSH1 0x1 PUSH1 0xA0 SHL SUB SWAP1 SWAP2 AND DUP2 MSTORE PUSH1 0x20 SWAP1 RETURN JUMPDEST POP SWAP2 CALLVALUE PUSH2 0x906 JUMPI PUSH1 0x20 CALLDATASIZE PUSH1 0x3 NOT ADD SLT PUSH2 0x906 JUMPI POP PUSH2 0x8EC PUSH1 0x20 SWAP3 CALLDATALOAD PUSH2 0x11D3 JUMP JUMPDEST DUP4 CALLVALUE PUSH2 0x906 JUMPI DUP1 PUSH1 0x3 NOT CALLDATASIZE ADD SLT PUSH2 0x906 JUMPI PUSH2 0xA95 PUSH2 0xEC0 JUMP JUMPDEST PUSH1 0x5 DUP1 SLOAD PUSH1 0x1 PUSH1 0x1 PUSH1 0xA0 SHL SUB NOT DUP2 AND SWAP1 SWAP2 SSTORE DUP2 SWAP1 PUSH1 0x1 PUSH1 0x1 PUSH1 0xA0 SHL SUB AND PUSH1 0x0 DUP1 MLOAD PUSH1 0x20 PUSH2 0x1243 DUP4 CODECOPY DUP2 MLOAD SWAP2 MSTORE DUP3 DUP1 LOG3 DUP1 RETURN JUMPDEST POP POP CALLVALUE PUSH2 0x1EA JUMPI PUSH1 0x20 CALLDATASIZE PUSH1 0x3 NOT ADD SLT PUSH2 0x1EA JUMPI PUSH1 0x20 SWAP2 DUP2 SWAP1 PUSH1 0x1 PUSH1 0x1 PUSH1 0xA0 SHL SUB PUSH2 0xAEF PUSH2 0xE8F JUMP JUMPDEST AND DUP2 MSTORE DUP1 DUP5 MSTORE KECCAK256 SLOAD SWAP1 MLOAD SWAP1 DUP2 MSTORE RETURN JUMPDEST POP POP CALLVALUE PUSH2 0x1EA JUMPI DUP2 PUSH1 0x3 NOT CALLDATASIZE ADD SLT PUSH2 0x1EA JUMPI PUSH1 0x20 SWAP1 MLOAD PUSH8 0x14D1120D7B160000 DUP2 MSTORE RETURN JUMPDEST POP POP CALLVALUE PUSH2 0x1EA JUMPI DUP2 PUSH1 0x3 NOT CALLDATASIZE ADD SLT PUSH2 0x1EA JUMPI PUSH1 0x20 SWAP1 PUSH1 0x6 SLOAD SWAP1 MLOAD SWAP1 DUP2 MSTORE RETURN JUMPDEST POP POP CALLVALUE PUSH2 0x1EA JUMPI DUP2 PUSH1 0x3 NOT CALLDATASIZE ADD SLT PUSH2 0x1EA JUMPI PUSH1 0x20 SWAP1 MLOAD PUSH1 0x12 DUP2 MSTORE RETURN JUMPDEST POP DUP3 CALLVALUE PUSH2 0x906 JUMPI PUSH1 0x60 CALLDATASIZE PUSH1 0x3 NOT ADD SLT PUSH2 0x906 JUMPI PUSH2 0xB77 PUSH2 0xE8F JUMP JUMPDEST PUSH2 0xB7F PUSH2 0xEAA JUMP JUMPDEST SWAP2 PUSH1 0x44 CALLDATALOAD SWAP4 PUSH1 0x1 DUP1 PUSH1 0xA0 SHL SUB DUP4 AND DUP1 DUP4 MSTORE PUSH1 0x1 PUSH1 0x20 MSTORE DUP7 DUP4 KECCAK256 CALLER DUP5 MSTORE PUSH1 0x20 MSTORE DUP7 DUP4 KECCAK256 SLOAD SWAP2 PUSH1 0x0 NOT DUP4 LT PUSH2 0xBBB JUMPI JUMPDEST PUSH1 0x20 DUP9 PUSH2 0x788 DUP10 DUP10 DUP10 PUSH2 0xF25 JUMP JUMPDEST DUP7 DUP4 LT PUSH2 0xC23 JUMPI DUP2 ISZERO PUSH2 0xC0C JUMPI CALLER ISZERO PUSH2 0xBF5 JUMPI POP DUP3 MSTORE PUSH1 0x1 PUSH1 0x20 SWAP1 DUP2 MSTORE DUP7 DUP4 KECCAK256 CALLER DUP5 MSTORE DUP2 MSTORE SWAP2 DUP7 SWAP1 KECCAK256 SWAP1 DUP6 SWAP1 SUB SWAP1 SSTORE DUP3 SWAP1 PUSH2 0x788 DUP8 PUSH2 0xBAD JUMP JUMPDEST DUP8 MLOAD PUSH4 0x4A1406B1 PUSH1 0xE1 SHL DUP2 MSTORE SWAP1 DUP2 ADD DUP5 SWAP1 MSTORE PUSH1 0x24 SWAP1 REVERT JUMPDEST DUP8 MLOAD PUSH4 0xE602DF05 PUSH1 0xE0 SHL DUP2 MSTORE SWAP1 DUP2 ADD DUP5 SWAP1 MSTORE PUSH1 0x24 SWAP1 REVERT JUMPDEST SWAP1 POP PUSH2 0xC41 DUP7 DUP9 MLOAD SWAP4 DUP5 SWAP4 PUSH4 0x7DC7A0D9 PUSH1 0xE1 SHL DUP6 MSTORE CALLER SWAP1 DUP6 ADD PUSH2 0xFEE JUMP JUMPDEST SUB SWAP1 REVERT JUMPDEST POP SWAP2 CALLVALUE PUSH2 0x906 JUMPI PUSH1 0x20 CALLDATASIZE PUSH1 0x3 NOT ADD SLT PUSH2 0x906 JUMPI POP PUSH2 0x8EC PUSH1 0x20 SWAP3 CALLDATALOAD PUSH2 0x115F JUMP JUMPDEST POP POP CALLVALUE PUSH2 0x1EA JUMPI DUP2 PUSH1 0x3 NOT CALLDATASIZE ADD SLT PUSH2 0x1EA JUMPI MLOAD PUSH8 0x14ADF4B7320334B9 PUSH1 0x1D SHL DUP2 MSTORE PUSH1 0x20 SWAP1 RETURN JUMPDEST POP POP CALLVALUE PUSH2 0x1EA JUMPI DUP2 PUSH1 0x3 NOT CALLDATASIZE ADD SLT PUSH2 0x1EA JUMPI PUSH1 0x20 SWAP1 PUSH1 0x2 SLOAD SWAP1 MLOAD SWAP1 DUP2 MSTORE RETURN JUMPDEST POP POP CALLVALUE PUSH2 0x1EA JUMPI DUP2 PUSH1 0x3 NOT CALLDATASIZE ADD SLT PUSH2 0x1EA JUMPI PUSH1 0x20 SWAP1 PUSH1 0x7 SLOAD SWAP1 MLOAD SWAP1 DUP2 MSTORE RETURN JUMPDEST POP CALLVALUE PUSH2 0x1C2 JUMPI DUP2 PUSH1 0x3 NOT CALLDATASIZE ADD SLT PUSH2 0x1C2 JUMPI PUSH2 0xCE2 PUSH2 0xE8F JUMP JUMPDEST PUSH1 0x24 CALLDATALOAD SWAP1 CALLER ISZERO PUSH2 0xD5B JUMPI PUSH1 0x1 PUSH1 0x1 PUSH1 0xA0 SHL SUB AND SWAP2 DUP3 ISZERO PUSH2 0xD44 JUMPI POP DUP1 DUP4 PUSH1 0x20 SWAP6 CALLER DUP2 MSTORE PUSH1 0x1 DUP8 MSTORE DUP2 DUP2 KECCAK256 DUP6 DUP3 MSTORE DUP8 MSTORE KECCAK256 SSTORE DUP3 MLOAD SWAP1 DUP2 MSTORE PUSH32 0x8C5BE1E5EBEC7D5BD14F71427D1E84F3DD0314C0F7B2291E5B200AC8C7C3B925 DUP5 CALLER SWAP3 LOG3 MLOAD PUSH1 0x1 DUP2 MSTORE RETURN JUMPDEST DUP4 MLOAD PUSH4 0x4A1406B1 PUSH1 0xE1 SHL DUP2 MSTORE SWAP1 DUP2 ADD DUP6 SWAP1 MSTORE PUSH1 0x24 SWAP1 REVERT JUMPDEST DUP4 MLOAD PUSH4 0xE602DF05 PUSH1 0xE0 SHL DUP2 MSTORE DUP1 DUP5 ADD DUP7 SWAP1 MSTORE PUSH1 0x24 SWAP1 REVERT JUMPDEST SWAP3 SWAP2 SWAP1 POP CALLVALUE PUSH2 0x48E JUMPI DUP4 PUSH1 0x3 NOT CALLDATASIZE ADD SLT PUSH2 0x48E JUMPI PUSH1 0x3 SLOAD PUSH1 0x1 DUP2 DUP2 SHR SWAP2 DUP7 SWAP1 DUP3 DUP2 AND DUP1 ISZERO PUSH2 0xE3C JUMPI JUMPDEST PUSH1 0x20 SWAP6 DUP7 DUP7 LT DUP3 EQ PUSH2 0xE29 JUMPI POP DUP5 DUP9 MSTORE SWAP1 DUP2 ISZERO PUSH2 0xE07 JUMPI POP PUSH1 0x1 EQ PUSH2 0xDCC JUMPI JUMPDEST PUSH2 0x970 DUP7 DUP7 PUSH2 0x966 DUP3 DUP12 SUB DUP4 PUSH2 0xEEC JUMP JUMPDEST SWAP3 SWAP6 POP PUSH1 0x3 DUP4 MSTORE DUP6 DUP4 KECCAK256 JUMPDEST DUP3 DUP5 LT PUSH2 0xDF4 JUMPI POP POP POP DUP3 PUSH2 0x970 SWAP5 PUSH2 0x966 SWAP3 DUP3 ADD ADD SWAP5 CODESIZE PUSH2 0xDBB JUMP JUMPDEST DUP1 SLOAD DUP7 DUP6 ADD DUP9 ADD MSTORE SWAP3 DUP7 ADD SWAP3 DUP2 ADD PUSH2 0xDD7 JUMP JUMPDEST PUSH1 0xFF NOT AND DUP8 DUP7 ADD MSTORE POP POP POP ISZERO ISZERO PUSH1 0x5 SHL DUP4 ADD ADD SWAP3 POP PUSH2 0x966 DUP3 PUSH2 0x970 CODESIZE PUSH2 0xDBB JUMP JUMPDEST PUSH4 0x4E487B71 PUSH1 0xE0 SHL DUP5 MSTORE PUSH1 0x22 SWAP1 MSTORE PUSH1 0x24 DUP4 REVERT JUMPDEST SWAP4 PUSH1 0x7F AND SWAP4 PUSH2 0xD9B JUMP JUMPDEST PUSH1 0x20 DUP1 DUP3 MSTORE DUP3 MLOAD DUP2 DUP4 ADD DUP2 SWAP1 MSTORE SWAP1 SWAP4 SWAP3 PUSH1 0x0 JUMPDEST DUP3 DUP2 LT PUSH2 0xE7B JUMPI POP POP PUSH1 0x40 SWAP3 SWAP4 POP PUSH1 0x0 DUP4 DUP3 DUP5 ADD ADD MSTORE PUSH1 0x1F DUP1 NOT SWAP2 ADD AND ADD ADD SWAP1 JUMP JUMPDEST DUP2 DUP2 ADD DUP7 ADD MLOAD DUP5 DUP3 ADD PUSH1 0x40 ADD MSTORE DUP6 ADD PUSH2 0xE59 JUMP JUMPDEST PUSH1 0x4 CALLDATALOAD SWAP1 PUSH1 0x1 PUSH1 0x1 PUSH1 0xA0 SHL SUB DUP3 AND DUP3 SUB PUSH2 0xEA5 JUMPI JUMP JUMPDEST PUSH1 0x0 DUP1 REVERT JUMPDEST PUSH1 0x24 CALLDATALOAD SWAP1 PUSH1 0x1 PUSH1 0x1 PUSH1 0xA0 SHL SUB DUP3 AND DUP3 SUB PUSH2 0xEA5 JUMPI JUMP JUMPDEST PUSH1 0x5 SLOAD PUSH1 0x1 PUSH1 0x1 PUSH1 0xA0 SHL SUB AND CALLER SUB PUSH2 0xED4 JUMPI JUMP JUMPDEST PUSH1 0x40 MLOAD PUSH4 0x118CDAA7 PUSH1 0xE0 SHL DUP2 MSTORE CALLER PUSH1 0x4 DUP3 ADD MSTORE PUSH1 0x24 SWAP1 REVERT JUMPDEST PUSH1 0x1F SWAP1 SWAP2 ADD PUSH1 0x1F NOT AND DUP2 ADD SWAP1 PUSH1 0x1 PUSH1 0x1 PUSH1 0x40 SHL SUB DUP3 GT SWAP1 DUP3 LT OR PUSH2 0xF0F JUMPI PUSH1 0x40 MSTORE JUMP JUMPDEST PUSH4 0x4E487B71 PUSH1 0xE0 SHL PUSH1 0x0 MSTORE PUSH1 0x41 PUSH1 0x4 MSTORE PUSH1 0x24 PUSH1 0x0 REVERT JUMPDEST SWAP2 PUSH1 0x1 PUSH1 0x1 PUSH1 0xA0 SHL SUB DUP1 DUP5 AND SWAP3 DUP4 ISZERO PUSH2 0xFD5 JUMPI AND SWAP3 DUP4 ISZERO PUSH2 0xFBC JUMPI PUSH1 0x0 SWAP1 DUP4 DUP3 MSTORE DUP2 PUSH1 0x20 MSTORE PUSH1 0x40 DUP3 KECCAK256 SLOAD SWAP1 DUP4 DUP3 LT PUSH2 0xF9F JUMPI POP SWAP2 PUSH1 0x40 DUP3 DUP3 PUSH32 0xDDF252AD1BE2C89B69C2B068FC378DAA952BA7F163C4A11628F55A4DF523B3EF SWAP6 DUP8 PUSH1 0x20 SWAP7 MSTORE DUP3 DUP7 MSTORE SUB DUP3 DUP3 KECCAK256 SSTORE DUP7 DUP2 MSTORE KECCAK256 DUP2 DUP2 SLOAD ADD SWAP1 SSTORE PUSH1 0x40 MLOAD SWAP1 DUP2 MSTORE LOG3 JUMP JUMPDEST PUSH2 0xC41 DUP5 PUSH1 0x40 MLOAD SWAP4 DUP5 SWAP4 PUSH4 0x391434E3 PUSH1 0xE2 SHL DUP6 MSTORE PUSH1 0x4 DUP6 ADD PUSH2 0xFEE JUMP JUMPDEST PUSH1 0x40 MLOAD PUSH4 0xEC442F05 PUSH1 0xE0 SHL DUP2 MSTORE PUSH1 0x0 PUSH1 0x4 DUP3 ADD MSTORE PUSH1 0x24 SWAP1 REVERT JUMPDEST PUSH1 0x40 MLOAD PUSH4 0x4B637E8F PUSH1 0xE1 SHL DUP2 MSTORE PUSH1 0x0 PUSH1 0x4 DUP3 ADD MSTORE PUSH1 0x24 SWAP1 REVERT JUMPDEST PUSH1 0x40 SWAP2 SWAP5 SWAP4 SWAP3 PUSH1 0x60 DUP3 ADD SWAP6 PUSH1 0x1 DUP1 PUSH1 0xA0 SHL SUB AND DUP3 MSTORE PUSH1 0x20 DUP3 ADD MSTORE ADD MSTORE JUMP JUMPDEST SWAP2 SWAP1 DUP3 ADD DUP1 SWAP3 GT PUSH2 0x1019 JUMPI JUMP JUMPDEST PUSH4 0x4E487B71 PUSH1 0xE0 SHL PUSH1 0x0 MSTORE PUSH1 0x11 PUSH1 0x4 MSTORE PUSH1 0x24 PUSH1 0x0 REVERT JUMPDEST DUP2 DUP2 MUL SWAP3 SWAP2 DUP2 ISZERO SWAP2 DUP5 DIV EQ OR ISZERO PUSH2 0x1019 JUMPI JUMP JUMPDEST DUP2 ISZERO PUSH2 0x104C JUMPI DIV SWAP1 JUMP JUMPDEST PUSH4 0x4E487B71 PUSH1 0xE0 SHL PUSH1 0x0 MSTORE PUSH1 0x12 PUSH1 0x4 MSTORE PUSH1 0x24 PUSH1 0x0 REVERT JUMPDEST SWAP2 SWAP1 DUP3 SUB SWAP2 DUP3 GT PUSH2 0x1019 JUMPI JUMP JUMPDEST ISZERO PUSH2 0x1076 JUMPI JUMP JUMPDEST PUSH1 0x40 MLOAD PUSH3 0x461BCD PUSH1 0xE5 SHL DUP2 MSTORE PUSH1 0x20 PUSH1 0x4 DUP3 ADD MSTORE PUSH1 0x9 PUSH1 0x24 DUP3 ADD MSTORE PUSH9 0x151BDBC81CDB585B1B PUSH1 0xBA SHL PUSH1 0x44 DUP3 ADD MSTORE PUSH1 0x64 SWAP1 REVERT JUMPDEST RETURNDATASIZE ISZERO PUSH2 0x10E1 JUMPI RETURNDATASIZE SWAP1 PUSH1 0x1 PUSH1 0x1 PUSH1 0x40 SHL SUB DUP3 GT PUSH2 0xF0F JUMPI PUSH1 0x40 MLOAD SWAP2 PUSH2 0x10D5 PUSH1 0x1F DUP3 ADD PUSH1 0x1F NOT AND PUSH1 0x20 ADD DUP5 PUSH2 0xEEC JUMP JUMPDEST DUP3 MSTORE RETURNDATASIZE PUSH1 0x0 PUSH1 0x20 DUP5 ADD RETURNDATACOPY JUMP JUMPDEST PUSH1 0x60 SWAP1 JUMP JUMPDEST PUSH1 0x40 SWAP2 SWAP5 SWAP4 SWAP3 PUSH1 0x60 DUP3 ADD SWAP6 DUP3 MSTORE PUSH1 0x20 DUP3 ADD MSTORE ADD MSTORE JUMP JUMPDEST PUSH1 0x0 DUP1 MLOAD PUSH1 0x20 PUSH2 0x1263 DUP4 CODECOPY DUP2 MLOAD SWAP2 MSTORE PUSH1 0x2 DUP2 SLOAD EQ PUSH2 0x111A JUMPI PUSH1 0x2 SWAP1 SSTORE JUMP JUMPDEST PUSH1 0x40 MLOAD PUSH4 0x3EE5AEB5 PUSH1 0xE0 SHL DUP2 MSTORE PUSH1 0x4 SWAP1 REVERT JUMPDEST PUSH1 0xFF PUSH1 0x8 SLOAD AND PUSH2 0x115A JUMPI PUSH1 0x7 SLOAD PUSH1 0x64 DUP2 MUL SWAP1 DUP1 DUP3 DIV PUSH1 0x64 EQ SWAP1 ISZERO OR ISZERO PUSH2 0x1019 JUMPI PUSH8 0x30927F74C9DE0000 SWAP1 DIV SWAP1 JUMP JUMPDEST PUSH1 0x64 SWAP1 JUMP JUMPDEST PUSH1 0xFF PUSH1 0x8 SLOAD AND PUSH2 0x11CD JUMPI PUSH1 0x7 SLOAD SWAP1 PUSH8 0x30927F74C9DE0000 DUP1 PUSH2 0x1181 DUP4 DUP6 PUSH2 0x100C JUMP JUMPDEST GT PUSH2 0x11BC JUMPI JUMPDEST POP PUSH8 0x14D1120D7B160000 SWAP2 DUP3 ADD DUP1 SWAP3 GT PUSH2 0x1019 JUMPI PUSH2 0x50D PUSH2 0x11B9 SWAP3 PUSH2 0x28C PUSH1 0x6 SLOAD SWAP4 PUSH2 0x11B3 DUP6 DUP5 PUSH2 0x102F JUMP JUMPDEST SWAP3 PUSH2 0x100C JUMP JUMPDEST SWAP1 JUMP JUMPDEST DUP3 DUP2 SUB SWAP2 POP DUP2 GT PUSH2 0x1019 JUMPI CODESIZE PUSH2 0x1187 JUMP JUMPDEST POP PUSH1 0x0 SWAP1 JUMP JUMPDEST SWAP1 PUSH1 0xFF PUSH1 0x8 SLOAD AND PUSH2 0x121C JUMPI PUSH1 0x7 SLOAD SWAP2 PUSH8 0x14D1120D7B160000 DUP4 DUP2 ADD DUP1 SWAP2 GT PUSH2 0x1019 JUMPI PUSH2 0x50D PUSH2 0x120D SWAP3 PUSH2 0x28C PUSH1 0x6 SLOAD SWAP2 PUSH2 0x11B3 DUP4 DUP7 PUSH2 0x102F JUMP JUMPDEST SWAP2 DUP1 DUP4 GT PUSH2 0x1218 JUMPI POP JUMP JUMPDEST SWAP2 POP JUMP JUMPDEST PUSH1 0x0 SWAP2 POP JUMP INVALID DUP5 SSTORE 0xAE PUSH12 0xE5D92F1DF1C3C1484388E247 LOG3 PUSH13 0x7E60D72055AE216DBC258F257D 0x4B DUP12 0xE0 SMOD SWAP13 MSTORE8 AND MSIZE EQ SGT PREVRANDAO 0xCD 0x1F 0xD0 LOG4 CALLCODE DUP5 NOT 0x49 PUSH32 0x9722A3DAAFE3B4186F6B6457E09B779B17422D0DF92223018B32B4D1FA46E071 PUSH19 0x3D6817E2486D003BECC55F00BEAE048C6D270D SWAP5 PUSH10 0xF86CF6E8FEDDA3C60AD7 PUSH17 0xF16C24C9FC131C8E9A09101D04D3928385 SAR 0x5D 0xC1 SWAP7 BYTE MSTORE SWAP7 LOG4 DUP14 BASEFEE PUSH25 0x54DB2AAE45AFE51E83AAE1DB8D04D42FA26469706673582212 KECCAK256 0xAF 0xA8 DELEGATECALL BLOCKHASH XOR 0xED 0x2E 0xE6 0xC6 CREATE2 0xC4 DUP10 0xC7 REVERT CODECOPY PUSH28 0xC08FDC1850F390BBD20D126A7764002764736F6C634300081400338B 0xE0 SMOD SWAP13 MSTORE8 AND MSIZE EQ SGT PREVRANDAO 0xCD 0x1F 0xD0 LOG4 CALLCODE DUP5 NOT 0x49 PUSH32 0x9722A3DAAFE3B4186F6B6457E0A2646970667358221220A27FB83B80E2A6192D PUSH4 0x622AA92E PUSH20 0x9B2FD27A988ADB75345AB135324387F02664736F PUSH13 0x63430008140033000000000000 "},"methodIdentifiers":{"allTokens(uint256)":"634282af","createToken(string,string)":"2f2f2d56","getTokens(uint256,uint256)":"494cfc6c","getTokensByCreator(address)":"d5c71275","owner()":"8da5cb5b","renounceOwnership()":"715018a6","tokensByCreator(address,uint256)":"d80d03a2","totalTokens()":"7e1c0c09","transferOwnership(address)":"f2fde38b"}}}}}