{"contracts/v2/AethpadTokenV2.sol":{"AethpadTokenV2":{"abi":[{"inputs":[{"internalType":"string","name":"_name","type":"string"},{"internalType":"string","name":"_symbol","type":"string"},{"internalType":"address","name":"_factory","type":"address"},{"internalType":"address","name":"_curve","type":"address"}],"stateMutability":"nonpayable","type":"constructor"},{"inputs":[{"internalType":"address","name":"spender","type":"address"},{"internalType":"uint256","name":"allowance","type":"uint256"},{"internalType":"uint256","name":"needed","type":"uint256"}],"name":"ERC20InsufficientAllowance","type":"error"},{"inputs":[{"internalType":"address","name":"sender","type":"address"},{"internalType":"uint256","name":"balance","type":"uint256"},{"internalType":"uint256","name":"needed","type":"uint256"}],"name":"ERC20InsufficientBalance","type":"error"},{"inputs":[{"internalType":"address","name":"approver","type":"address"}],"name":"ERC20InvalidApprover","type":"error"},{"inputs":[{"internalType":"address","name":"receiver","type":"address"}],"name":"ERC20InvalidReceiver","type":"error"},{"inputs":[{"internalType":"address","name":"sender","type":"address"}],"name":"ERC20InvalidSender","type":"error"},{"inputs":[{"internalType":"address","name":"spender","type":"address"}],"name":"ERC20InvalidSpender","type":"error"},{"inputs":[],"name":"ReentrancyGuardReentrantCall","type":"error"},{"anonymous":false,"inputs":[{"indexed":true,"internalType":"address","name":"owner","type":"address"},{"indexed":true,"internalType":"address","name":"spender","type":"address"},{"indexed":false,"internalType":"uint256","name":"value","type":"uint256"}],"name":"Approval","type":"event"},{"anonymous":false,"inputs":[{"indexed":true,"internalType":"address","name":"pair","type":"address"}],"name":"Graduated","type":"event"},{"anonymous":false,"inputs":[{"indexed":true,"internalType":"address","name":"oldKeeper","type":"address"},{"indexed":true,"internalType":"address","name":"newKeeper","type":"address"}],"name":"KeeperUpdated","type":"event"},{"anonymous":false,"inputs":[{"indexed":false,"internalType":"uint256","name":"ethAmount","type":"uint256"}],"name":"PlatformFeeForwarded","type":"event"},{"anonymous":false,"inputs":[{"indexed":true,"internalType":"address","name":"user","type":"address"},{"indexed":false,"internalType":"uint256","name":"ethAmount","type":"uint256"}],"name":"RewardsClaimed","type":"event"},{"anonymous":false,"inputs":[{"indexed":false,"internalType":"uint256","name":"ethAmount","type":"uint256"},{"indexed":false,"internalType":"uint256","name":"newCumulative","type":"uint256"}],"name":"RewardsDeposited","type":"event"},{"anonymous":false,"inputs":[{"indexed":false,"internalType":"uint256","name":"holderCount","type":"uint256"},{"indexed":false,"internalType":"uint256","name":"totalEthSent","type":"uint256"}],"name":"RewardsPushed","type":"event"},{"anonymous":false,"inputs":[{"indexed":true,"internalType":"address","name":"from","type":"address"},{"indexed":true,"internalType":"address","name":"to","type":"address"},{"indexed":false,"internalType":"uint256","name":"burnAmt","type":"uint256"},{"indexed":false,"internalType":"uint256","name":"rewardAmt","type":"uint256"},{"indexed":false,"internalType":"uint256","name":"platformAmt","type":"uint256"}],"name":"TaxTaken","type":"event"},{"anonymous":false,"inputs":[{"indexed":true,"internalType":"address","name":"from","type":"address"},{"indexed":true,"internalType":"address","name":"to","type":"address"},{"indexed":false,"internalType":"uint256","name":"value","type":"uint256"}],"name":"Transfer","type":"event"},{"inputs":[],"name":"BURN_BPS","outputs":[{"internalType":"uint256","name":"","type":"uint256"}],"stateMutability":"view","type":"function"},{"inputs":[],"name":"CURVE_SUPPLY","outputs":[{"internalType":"uint256","name":"","type":"uint256"}],"stateMutability":"view","type":"function"},{"inputs":[],"name":"DEAD","outputs":[{"internalType":"address","name":"","type":"address"}],"stateMutability":"view","type":"function"},{"inputs":[],"name":"GRAD_SUPPLY","outputs":[{"internalType":"uint256","name":"","type":"uint256"}],"stateMutability":"view","type":"function"},{"inputs":[],"name":"PLATFORM_BPS","outputs":[{"internalType":"uint256","name":"","type":"uint256"}],"stateMutability":"view","type":"function"},{"inputs":[],"name":"REWARD_BPS","outputs":[{"internalType":"uint256","name":"","type":"uint256"}],"stateMutability":"view","type":"function"},{"inputs":[],"name":"SNIPE_BPS_1HR","outputs":[{"internalType":"uint256","name":"","type":"uint256"}],"stateMutability":"view","type":"function"},{"inputs":[],"name":"SNIPE_BPS_24HR","outputs":[{"internalType":"uint256","name":"","type":"uint256"}],"stateMutability":"view","type":"function"},{"inputs":[],"name":"SNIPE_BPS_5MIN","outputs":[{"internalType":"uint256","name":"","type":"uint256"}],"stateMutability":"view","type":"function"},{"inputs":[],"name":"TOTAL_SUPPLY","outputs":[{"internalType":"uint256","name":"","type":"uint256"}],"stateMutability":"view","type":"function"},{"inputs":[],"name":"TOTAL_TAX_BPS","outputs":[{"internalType":"uint256","name":"","type":"uint256"}],"stateMutability":"view","type":"function"},{"inputs":[{"internalType":"address","name":"owner","type":"address"},{"internalType":"address","name":"spender","type":"address"}],"name":"allowance","outputs":[{"internalType":"uint256","name":"","type":"uint256"}],"stateMutability":"view","type":"function"},{"inputs":[{"internalType":"address","name":"seller","type":"address"}],"name":"antiSnipeBpsFor","outputs":[{"internalType":"uint256","name":"","type":"uint256"}],"stateMutability":"view","type":"function"},{"inputs":[{"internalType":"address","name":"spender","type":"address"},{"internalType":"uint256","name":"value","type":"uint256"}],"name":"approve","outputs":[{"internalType":"bool","name":"","type":"bool"}],"stateMutability":"nonpayable","type":"function"},{"inputs":[{"internalType":"address","name":"account","type":"address"}],"name":"balanceOf","outputs":[{"internalType":"uint256","name":"","type":"uint256"}],"stateMutability":"view","type":"function"},{"inputs":[{"internalType":"uint256","name":"amount","type":"uint256"}],"name":"burnFromCurve","outputs":[],"stateMutability":"nonpayable","type":"function"},{"inputs":[{"internalType":"address","name":"","type":"address"}],"name":"checkpoints","outputs":[{"internalType":"uint128","name":"balance","type":"uint128"},{"internalType":"uint64","name":"lastUpdate","type":"uint64"},{"internalType":"uint64","name":"lastBuyAt","type":"uint64"},{"internalType":"uint256","name":"accumulatedScore","type":"uint256"},{"internalType":"uint256","name":"ethPerScorePaid","type":"uint256"},{"internalType":"uint256","name":"pendingEth","type":"uint256"}],"stateMutability":"view","type":"function"},{"inputs":[],"name":"claim","outputs":[],"stateMutability":"nonpayable","type":"function"},{"inputs":[],"name":"cumulativeEthPerScore","outputs":[{"internalType":"uint256","name":"","type":"uint256"}],"stateMutability":"view","type":"function"},{"inputs":[],"name":"curve","outputs":[{"internalType":"address","name":"","type":"address"}],"stateMutability":"view","type":"function"},{"inputs":[],"name":"decimals","outputs":[{"internalType":"uint8","name":"","type":"uint8"}],"stateMutability":"view","type":"function"},{"inputs":[],"name":"depositEthPlatform","outputs":[],"stateMutability":"payable","type":"function"},{"inputs":[],"name":"depositEthReward","outputs":[],"stateMutability":"payable","type":"function"},{"inputs":[],"name":"factory","outputs":[{"internalType":"address","name":"","type":"address"}],"stateMutability":"view","type":"function"},{"inputs":[],"name":"graduated","outputs":[{"internalType":"bool","name":"","type":"bool"}],"stateMutability":"view","type":"function"},{"inputs":[{"internalType":"address","name":"user","type":"address"}],"name":"holdScore","outputs":[{"internalType":"uint256","name":"","type":"uint256"}],"stateMutability":"view","type":"function"},{"inputs":[{"internalType":"address","name":"","type":"address"}],"name":"isExcluded","outputs":[{"internalType":"bool","name":"","type":"bool"}],"stateMutability":"view","type":"function"},{"inputs":[],"name":"keeper","outputs":[{"internalType":"address","name":"","type":"address"}],"stateMutability":"view","type":"function"},{"inputs":[],"name":"name","outputs":[{"internalType":"string","name":"","type":"string"}],"stateMutability":"view","type":"function"},{"inputs":[{"internalType":"address","name":"_pair","type":"address"},{"internalType":"address","name":"_router","type":"address"}],"name":"notifyGraduated","outputs":[],"stateMutability":"nonpayable","type":"function"},{"inputs":[],"name":"orphanedRewardEth","outputs":[{"internalType":"uint256","name":"","type":"uint256"}],"stateMutability":"view","type":"function"},{"inputs":[{"internalType":"address","name":"user","type":"address"}],"name":"pendingRewards","outputs":[{"internalType":"uint256","name":"","type":"uint256"}],"stateMutability":"view","type":"function"},{"inputs":[{"internalType":"address[]","name":"holders","type":"address[]"}],"name":"pushRewards","outputs":[],"stateMutability":"nonpayable","type":"function"},{"inputs":[{"internalType":"address","name":"account","type":"address"},{"internalType":"bool","name":"excluded","type":"bool"}],"name":"setExcluded","outputs":[],"stateMutability":"nonpayable","type":"function"},{"inputs":[{"internalType":"address","name":"newKeeper","type":"address"}],"name":"setKeeper","outputs":[],"stateMutability":"nonpayable","type":"function"},{"inputs":[{"internalType":"uint256","name":"newThreshold","type":"uint256"}],"name":"setSwapThreshold","outputs":[],"stateMutability":"nonpayable","type":"function"},{"inputs":[],"name":"swapThreshold","outputs":[{"internalType":"uint256","name":"","type":"uint256"}],"stateMutability":"view","type":"function"},{"inputs":[],"name":"symbol","outputs":[{"internalType":"string","name":"","type":"string"}],"stateMutability":"view","type":"function"},{"inputs":[],"name":"totalAccumulatedScore","outputs":[{"internalType":"uint256","name":"","type":"uint256"}],"stateMutability":"view","type":"function"},{"inputs":[],"name":"totalHoldScoreLive","outputs":[{"internalType":"uint256","name":"","type":"uint256"}],"stateMutability":"view","type":"function"},{"inputs":[],"name":"totalLastUpdate","outputs":[{"internalType":"uint256","name":"","type":"uint256"}],"stateMutability":"view","type":"function"},{"inputs":[],"name":"totalSettledBalance","outputs":[{"internalType":"uint256","name":"","type":"uint256"}],"stateMutability":"view","type":"function"},{"inputs":[],"name":"totalSupply","outputs":[{"internalType":"uint256","name":"","type":"uint256"}],"stateMutability":"view","type":"function"},{"inputs":[{"internalType":"address","name":"to","type":"address"},{"internalType":"uint256","name":"value","type":"uint256"}],"name":"transfer","outputs":[{"internalType":"bool","name":"","type":"bool"}],"stateMutability":"nonpayable","type":"function"},{"inputs":[{"internalType":"address","name":"from","type":"address"},{"internalType":"address","name":"to","type":"address"},{"internalType":"uint256","name":"value","type":"uint256"}],"name":"transferFrom","outputs":[{"internalType":"bool","name":"","type":"bool"}],"stateMutability":"nonpayable","type":"function"},{"inputs":[],"name":"uniswapPair","outputs":[{"internalType":"address","name":"","type":"address"}],"stateMutability":"view","type":"function"},{"inputs":[],"name":"uniswapRouter","outputs":[{"internalType":"contract IUniswapV2Router02","name":"","type":"address"}],"stateMutability":"view","type":"function"},{"stateMutability":"payable","type":"receive"}],"evm":{"bytecode":{"linkReferences":{},"object":"60c060409080825234620007315762003722803803809162000022828562000736565b83398101608082820312620007315781516001600160401b03908181116200073157826200005291850162000776565b91602090818501519083821162000731576200007091860162000776565b916200008c606062000084888801620007e0565b9601620007e0565b928451828111620006315760038054916001978884811c9416801562000726575b8785101462000710578190601f94858111620006ba575b508790858311600114620006535760009262000647575b505060001982841b1c191690881b1781555b825191848311620006315760049384548981811c9116801562000626575b8882101462000611579081838695949311620005b7575b50879184116001146200054c5760009362000540575b505082881b92600019911b1c19161781555b7f9b779b17422d0df92223018b32b4d1fa46e071723d6817e2486d003becc55f0085905569152d02c7e14af6800000600755608086905260a08490526001600160a01b039384811692831562000529576b033b2e3c9fd0803ce800000090620001b38362000909565b600554938760ff95868116806200051c575b8062000505575b80620004ee575b62000342575b5050505081620001f3620001f992600e979695946200087f565b62000a51565b84600554828116928362000334575b508262000324575b5050806200030b575b80620002fd575b620002ed575b60005252836000209260ff199383858254161790551660005282600020818382541617905561dead6000528260002081838254161790553060005282600020818382541617905560008052826000209182541617905542600b55516125cb90816200111782396080518181816106f8015281816107d10152818161093801528181610aff0152818161108901526121ea015260a0518181816105a501528181610799015281816108c101528181610ba101528181610c4501528181611cad0152611e3c0152f35b620002f762000ccb565b62000226565b508360065416151562000220565b5030600052600082528660002054600754111562000219565b60081c1615159050843862000210565b600854161592503862000208565b60081c16918215928714838415620004e6575b62000364575b899150620001d9565b6000949192939490620004d5575b6101f4908101809111620004c0578082029082820403620004c057612710900492600254936a0c685fa11e01ec6f00000094858101809111620004ab576002558d6000600080516020620037028339815191528c61dead938484528382528084208a815401905551898152a36a0c685fa11e01ec6effffff198101818111620004ab578062000498575b508203918211620004835750928660007fe9bc91a33ddf896d889747b2f39f4192c802fd62364780086853fcd8e19e8ffa60608f96838d9c9b9a9881600e9f620001f39a620001f99d9a62000465575b508251948552840152820152a39282949596976200035b565b6200047c908a84526009835242168484206200085c565b386200044c565b601190634e487b7160e01b6000525260246000fd5b620004a490306200087f565b38620003fc565b601183634e487b7160e01b6000525260246000fd5b601184634e487b7160e01b6000525260246000fd5b50620004e062000c4d565b62000372565b508062000355565b5087600052600e8952868d600020541615620001d3565b5060008052600e8952868d600020541615620001cc565b50866008541615620001c5565b885163ec442f0560e01b8152600081850152602490fd5b01519150388062000138565b9190899450601f1984169286600052886000209360005b8a828210620005a0575050851162000585575b50505050811b0181556200014a565b01519060f884600019921b161c191690553880808062000576565b8385015187558d9890960195938401930162000563565b909192935085600052876000208380870160051c8201928a881062000607575b918c918897969594930160051c01915b828110620005f757505062000122565b600081558796508c9101620005e7565b92508192620005d7565b602286634e487b7160e01b6000525260246000fd5b90607f16906200010b565b634e487b7160e01b600052604160045260246000fd5b015190503880620000db565b908a9350601f1983169185600052896000209260005b8b828210620006a357505084116200068a575b505050811b018155620000ed565b015160001983861b60f8161c191690553880806200067c565b8385015186558e9790950194938401930162000669565b90915083600052876000208580850160051c8201928a861062000706575b918c91869594930160051c01915b828110620006f6575050620000c4565b600081558594508c9101620006e6565b92508192620006d8565b634e487b7160e01b600052602260045260246000fd5b93607f1693620000ad565b600080fd5b601f909101601f19168101906001600160401b038211908210176200063157604052565b6001600160401b0381116200063157601f01601f191660200190565b919080601f84011215620007315782519062000792826200075a565b91620007a2604051938462000736565b808352602091828287010111620007315760005b818110620007cc57508260009394955001015290565b8581018301518482018401528201620007b6565b51906001600160a01b03821682036200073157565b919082018092116200080357565b634e487b7160e01b600052601160045260246000fd5b818102929181159184041417156200080357565b811562000838570490565b634e487b7160e01b600052601260045260246000fd5b919082039182116200080357565b80546001600160c01b031660c09290921b6001600160c01b031916919091179055565b600080516020620037028339815191526020600092620008a285600254620007f5565b6002556001600160a01b03169384158414620008ca5780600254036002555b604051908152a3565b84845283825260408420818154019055620008c1565b8054600160801b600160c01b03191660809290921b600160801b600160c01b0316919091179055565b6200091481620009f2565b15620009ef576001600160a01b031660009081526009602052604090208054620009b391906001600160401b03906200097d62000958608083901c8416426200084e565b6001850180549093909162000976916001600160801b031662000819565b90620007f5565b90600d546200099360028601918254906200084e565b80151580620009e5575b620009b5575b50600d54905555421690620008e0565b565b620009ca670de0b6b3a7640000918562000819565b04620009dc60038701918254620007f5565b905538620009a3565b508315156200099d565b50565b6001600160a01b0390811690811562000a4a5781600052600e60205260ff6040600020541662000a4a5760055460081c16801515918262000a3f575b505062000a3a57600190565b600090565b149050388062000a2e565b5050600090565b62000a5c81620009f2565b15620009ef576001600160a01b039081166000818152600960205260408120929162000a8762000bf7565b81526020819052604081205483546001600160801b039081168083109391929190848062000bed575b62000b95575b82818111958660001462000b50575062000ae092509062000ad7916200084e565b600c54620007f5565b600c555b84546001600160801b0319169116178355426001600160401b03169162000b0c8385620008e0565b60ff6005541615918262000b47575b508162000b38575b5062000b2d575050565b620009b3916200085c565b905060a0511633143862000b23565b91503862000b1b565b62000b5f575b50505062000ae4565b62000b6a916200084e565b600c5481811062000b8d5762000b8192506200084e565b600c5538808262000b56565b505062000b81565b6001870180549062000bbf62000bb78462000bb1888662000819565b6200082d565b80936200084e565b600a54811162000be25762000bd790600a546200084e565b600a555b5562000ab6565b5083600a5562000bdb565b5080151562000ab0565b62000c05600b54426200084e565b8015158062000c41575b62000c1c575b5042600b55565b62000c2e62000c3791600c5462000819565b600a54620007f5565b600a553862000c15565b50600c54151562000c0f565b6000805260096020527fec8156718a8372b1db44bb411437d0870f3e3790d4a08526d024ce1b0b668f6b5460c01c801562000cc55762000c8e90426200084e565b61012c811062000cbe57610e10811062000cb757620151801162000cb157600090565b6101f490565b506103e890565b506107d090565b50600090565b60009060ff198060085416926001908185176008553081526020818152604091828120549687156200103f57508251936001600160401b0360608601818111878210176200102b578552600286528386019885368b378651156200101757308a5260065486516315ab88c960e31b815260049b6001600160a01b0399929091908a169088818f81855afa9081156200100d57889162000fd0575b50835187101562000fbc578a1689840152301562000fa557801562000f8e573087528588528887208188528852838988205588518481527f8c5be1e5ebec7d5bd14f71427d1e84f3dd0314c0f7b2291e5b200ac8c7c3b925893092a34794896006541692833b1562000f8a57895163791ac94760e01b8152808f01959095526024850188905260a060448601525160a4850181905287938593909260c4850192868c8f5b83831062000f6d575050505050508383809230606483015242608483015203925af1918262000f45575b505062000e4c575b505050505090915060085416600855565b62000e5890476200084e565b908115801562000e6a575b5062000e3b565b6003830290838204600314171562000f325762000ea796979850600762000e94910480936200084e565b948262000eb5575b50505050506200104c565b819038808080808062000e63565b818080858194608051165af1903d1562000f2b573d9062000ed6826200075a565b9162000ee58751938462000736565b8252843d92013e5b62000efb575b808062000e9c565b7f693f9dbea0bdf9b70d480f9527e567d17ae3a41a5627c6515b034ac1869cf7a09251908152a138808062000ef3565b5062000eed565b634e487b7160e01b825260118952602482fd5b819492941162000f5a57855291388062000e33565b634e487b7160e01b825260418a52602482fd5b85511686528c9850899750948501949093019282018c8f62000e09565b8780fd5b8851634a1406b160e11b8152808e01889052602490fd5b885163e602df0560e01b8152808e01889052602490fd5b50634e487b7160e01b875260328d52602487fd5b90508881813d831162001005575b62000fea818362000736565b8101031262000f8a5762000ffe90620007e0565b3862000d65565b503d62000fde565b8a513d8a823e3d90fd5b634e487b7160e01b84526032600452602484fd5b634e487b7160e01b84526041600452602484fd5b9596505050505050600855565b8015620009ef576200105d62000bf7565b600a54908115620010e05762001077600f548092620007f5565b90620010d5575b670de0b6b3a7640000908181029181830414811517156200080357620010c4620010bb600080516020620036e2833981519152946040946200082d565b600d54620007f5565b80600d5582519182526020820152a1565b6000600f556200107e565b600080516020620036e283398151915291508062001103604092600f54620007f5565b600f55600d5482519182526020820152a156fe608060409080825260049182361015610023575b505050361561002157600080fd5b005b600091823560e01c90816303fd2a451461136f575080630445b6671461135157806306fdde031461127a57806307c9bf2e14611242578063095ea7b31461121957806313b9d47e146111fb57806318160ddd146111dd5780631e4c7292146111b857806323b872dd146110ce5780632836be2414611052578063313ce5671461103757806331d7a2621461101257806347b12bfc14610ff75780634e71d92d14610f0a5780635b09004414610c2457806364229d6814610c0657806370a0823114610bd05780637165485d14610b8d578063735de9f714610b65578063748747e614610ad6578063902d55a514610ab157806395d89b41146109cc57806398aecb67146109a75780639d0014b11461091c5780639d6eadc1146108fe578063a37a9fc0146104d8578063a47541ba146108af578063a8355c8f14610761578063a9059cbb1461087f578063aced166114610857578063b78d05381461077d578063bacf2a7b14610761578063bb103cbc14610745578063c1db401514610727578063c45a0155146106e4578063c463ecd7146106c8578063c5f27b30146106aa578063c5f509d614610685578063c7b1280114610572578063c816841b14610546578063ca81eb661461051a578063cba0e996146104dd578063ce91e164146104d8578063dbb51d6e1461045e578063dd62ed3e14610416578063e7c2b772146103f35763f6ceefa20361001357346103ef576020806003193601126103eb576001600160401b03908435908282116103e757366023830112156103e757818601359283116103e75760059260243682861b85018201116103e35761028661232a565b6010546001600160a01b039890891633036103b5575086938795885b8481106102ed57897f0f80654923fb0c7f7a44c79b000dca8e52e2f4a16092a26ff31c0a410291d3318a8a8a8a8351928352820152a160016000805160206125768339815191525580f35b8381839998991b840101358b8116908181036103b15761030c81611b8b565b156103a35761031a90611ad1565b808b526009875260038a8c2001988954998c8b15610394578080808e818655875af16103446117dc565b50156103845750906000805160206124f68339815191528861037361036d8d61037f9796611421565b9b61235a565b9b8d51908152a261235a565b6102a2565b61037f939250999098995561235a565b50509798505061037f9061235a565b505061037f9097969761235a565b8b80fd5b600b6064928589519362461bcd60e51b85528401528201526a27b7363c9035b2b2b832b960a91b6044820152fd5b8680fd5b8480fd5b8280fd5b5080fd5b50346103ef57816003193601126103ef5760209060ff6005541690519015158152f35b50346103ef57806003193601126103ef57806020926104336113d4565b61043b6113ef565b6001600160a01b0391821683526001865283832091168252845220549051908152f35b50346103ef5760203660031901126103ef5760c09181906001600160a01b036104856113d4565b168152600960205220908154916001810154600360028301549201549280519460018060801b038116865260018060401b038160801c166020870152861c908501526060840152608083015260a0820152f35b611405565b50346103ef5760203660031901126103ef5760209160ff9082906001600160a01b036105076113d4565b168152600e855220541690519015158152f35b50346103ef5760203660031901126103ef5760209061053f61053a6113d4565b611ff7565b9051908152f35b50346103ef57816003193601126103ef57600554905160089190911c6001600160a01b03168152602090f35b508290346103eb57806003193601126103eb5761058d6113d4565b916105966113ef565b6001600160a01b03916105cc337f00000000000000000000000000000000000000000000000000000000000000008516146117a3565b6005549060ff821661064e57506001600160a81b031916600885901b610100600160a81b031617600117600555600680546001600160a01b03191691831691909117905591909116808352600e602052908220805460ff191690557fc5ca2014458d93c5cf9f836ff7ece45de01c929dfb16eed9d6c3329fa1fd09828280a280f35b606490602086519162461bcd60e51b83528201526011602482015270105b1c9958591e4819dc98591d585d1959607a1b6044820152fd5b50346103ef5760203660031901126103ef5760209061053f6106a56113d4565b612420565b50346103ef57816003193601126103ef57602090600d549051908152f35b50346103ef57816003193601126103ef57602090516103e88152f35b50346103ef57816003193601126103ef57517f00000000000000000000000000000000000000000000000000000000000000006001600160a01b03168152602090f35b50346103ef57816003193601126103ef57602090600a549051908152f35b50346103ef57816003193601126103ef57602090516107d08152f35b50346103ef57816003193601126103ef57602090516101f48152f35b5082826003193601126103eb57826001600160a01b036107c0337f00000000000000000000000000000000000000000000000000000000000000008316146117a3565b346107c9575080f35b8180809234907f0000000000000000000000000000000000000000000000000000000000000000165af16107fb6117dc565b501561081f575060206000805160206124b68339815191529151348152a181808280f35b6020606492519162461bcd60e51b83528201526013602482015272141b185d199bdc9b48199dd90819985a5b1959606a1b6044820152fd5b50346103ef57816003193601126103ef5760105490516001600160a01b039091168152602090f35b50346103ef57806003193601126103ef576020906108a861089e6113d4565b602435903361147d565b5160018152f35b82806003193601126108fb576108ef337f00000000000000000000000000000000000000000000000000000000000000006001600160a01b0316146117a3565b6108f834611f3e565b80f35b80fd5b50346103ef57816003193601126103ef57602090600b549051908152f35b5082346103eb5760203660031901126103eb57803591610966337f00000000000000000000000000000000000000000000000000000000000000006001600160a01b03161461247a565b821561097457505060075580f35b906020606492519162461bcd60e51b8352820152600d60248201526c109859081d1a1c995cda1bdb19609a1b6044820152fd5b50346103ef57816003193601126103ef57602090516aa56fa5b99019a5c80000008152f35b50346103ef57816003193601126103ef57805191809380549160019083821c92828516948515610aa7575b6020958686108114610a9457858952908115610a705750600114610a35575b610a318787610a27828c0383611444565b519182918261138b565b0390f35b9080949750528583205b828410610a5d5750505082610a3194610a2792820101943880610a16565b8054868501880152928601928101610a3f565b60ff19168887015250505050151560051b8301019250610a2782610a313880610a16565b634e487b7160e01b845260228352602484fd5b93607f16936109f7565b50346103ef57816003193601126103ef5751676765c793fa10079d601b1b8152602090f35b82346108fb5760203660031901126108fb57610af06113d4565b6001600160a01b0390610b26337f000000000000000000000000000000000000000000000000000000000000000084161461247a565b816010549116809282167f53d3703fe259def57584466f32d1b94c30278008c683c21b04501c4966f13a698580a36001600160a01b0319161760105580f35b50346103ef57816003193601126103ef5760065490516001600160a01b039091168152602090f35b50346103ef57816003193601126103ef57517f00000000000000000000000000000000000000000000000000000000000000006001600160a01b03168152602090f35b50346103ef5760203660031901126103ef5760209181906001600160a01b03610bf76113d4565b16815280845220549051908152f35b50346103ef57816003193601126103ef57602090600c549051908152f35b50346103ef576020806003193601126103eb578335916001600160a01b03917f000000000000000000000000000000000000000000000000000000000000000083811690610c733383146117a3565b8515978815610c80578780f35b8215610ef3578698610c9183611ad1565b610c99611a06565b6005549760ff9889811680610ee7575b80610ed3575b80610ebd575b610d64575b5050505080610cd28899610cd793999697989961187e565b611d75565b610cdf611bd5565b6005548681169687610d57575b5086610d47575b505084610d31575b50505081610d23575b50610d16575b80388080808080808780f35b610d1e612056565b610d0a565b905060065416151538610d04565b3082525283205460075411159150388381610cfb565b60081c8516141594503880610cf3565b6008541615965038610cec565b60081c88168581149261dead92918314848015610eb6575b610d88575b5050610cba565b90919293949c508b90610ea7575b6101f4908101809111610e9457610db3906127109182918561181b565b049160968402908482046096141715610e80578c9d506060610cd79796948a8c9d9e9f809d610e13610cd29a988e986000805160206125568339815191529804958d8780610e70575b610e06908461184e565b80610e5e575b505061184e565b98610e39575b915050519081528b8b8201528b8d820152a3999897969582933880610d81565b878252600990925220610e5690426001600160401b03169061185b565b8a8c8e610e19565b610e69913090611919565b8d38610e0c565b610e799161187e565b8d87610dfc565b50634e487b7160e01b8c5260118d5260248cfd5b634e487b7160e01b8c5260118d5260248cfd5b50610eb185611ff7565b610d96565b5080610d7c565b5061dead8b52600e875289888c20541615610cb5565b50858b52600e875289888c20541615610caf565b50896008541615610ca9565b8451634b637e8f60e11b8152908101889052602490fd5b508290346103eb57826003193601126103eb57610f2561232a565b610f2e33611ad1565b3383526009602052600381842001918254928315610fc1578490558380808086335af1610f596117dc565b5015610f8d5750519081526000805160206124f683398151915260203392a260016000805160206125768339815191525580f35b6020606492519162461bcd60e51b8352820152600f60248201526e115512081cd95b990819985a5b1959608a1b6044820152fd5b506020606492519162461bcd60e51b8352820152601060248201526f4e6f7468696e6720746f20636c61696d60801b6044820152fd5b50346103ef57816003193601126103ef576020905160c88152f35b50346103ef5760203660031901126103ef5760209061053f6110326113d4565b612369565b50346103ef57816003193601126103ef576020905160128152f35b50346103ef57806003193601126103ef5761106b6113d4565b90602435918215158093036110ca576001600160a01b03906110b0337f000000000000000000000000000000000000000000000000000000000000000084161461247a565b168352600e60205282209060ff8019835416911617905580f35b8380fd5b509190346108fb5760603660031901126108fb576110ea6113d4565b6110f26113ef565b916044359360018060a01b03831680835260016020528683203384526020528683205491600019831061112e575b6020886108a889898961147d565b86831061119657811561117f573315611168575082526001602090815286832033845281529186902090859003905582906108a838611120565b8751634a1406b160e11b8152908101849052602490fd5b875163e602df0560e01b8152908101849052602490fd5b90506111b4868851938493637dc7a0d960e11b855233908501611785565b0390fd5b50346103ef57816003193601126103ef57516714adf4b7320334b9601d1b8152602090f35b50346103ef57816003193601126103ef576020906002549051908152f35b50346103ef57816003193601126103ef57602090600f549051908152f35b50346103ef57806003193601126103ef576020906108a86112386113d4565b60243590336116f2565b50346103ef57816003193601126103ef5760209061053f611265600b544261184e565b611274600a5491600c5461181b565b90611421565b508290346103eb57826003193601126103eb57805191836003549060019082821c928281168015611347575b6020958686108214611334575084885290811561131257506001146112d7575b610a318686610a27828b0383611444565b929550600383528583205b8284106112ff5750505082610a3194610a279282010194866112c6565b80548685018801529286019281016112e2565b60ff191687860152505050151560051b8301019250610a2782610a31866112c6565b634e487b7160e01b845260229052602483fd5b93607f16936112a6565b50346103ef57816003193601126103ef576020906007549051908152f35b8390346103ef57816003193601126103ef578061dead60209252f35b6020808252825181830181905290939260005b8281106113c057505060409293506000838284010152601f8019910116010190565b81810186015184820160400152850161139e565b600435906001600160a01b03821682036113ea57565b600080fd5b602435906001600160a01b03821682036113ea57565b346113ea5760003660031901126113ea57602060405160968152f35b9190820180921161142e57565b634e487b7160e01b600052601160045260246000fd5b601f909101601f19168101906001600160401b0382119082101761146757604052565b634e487b7160e01b600052604160045260246000fd5b6001600160a01b039291838216919082156116d9578481169182156116c05784926114a782611ad1565b6114b083611ad1565b600554958760ff97888116806116b4575b8061169c575b80611684575b611563575b5050505080610cd26114e89484610cd294611919565b6005548281169283611556575b5082611546575b5050908161152a575b8161151c575b5061151257565b61151a612056565b565b90506006541615153861150b565b9050306000526000602052604060002054600754111590611505565b60081c83161415905038806114fc565b60085416159250386114f5565b60081c168281149190871480801561167d575b611583575b8991506114d2565b90919392955060009361166c575b6101f493840180941161142e576115ae936127109485918461181b565b0495609683028381046096148415171561142e576000805160206125568339815191526060610cd2956116026114e89b610cd29a8e9604928361165d575b6115f6848361184e565b8061164c575b5061184e565b95611625575b6040519081526000602082015260006040820152a394829361157b565b600085815260096020526040902061164790426001600160401b03169061185b565b611608565b61165790308d611919565b386115fc565b611667848c61187e565b6115ec565b925061167782611ff7565b92611591565b5082611576565b5083600052600e6020528860406000205416156114cd565b5087600052600e6020528860406000205416156114c7565b508860085416156114c1565b60405163ec442f0560e01b815260006004820152602490fd5b604051634b637e8f60e11b815260006004820152602490fd5b6001600160a01b0390811691821561176c57169182156117535760207f8c5be1e5ebec7d5bd14f71427d1e84f3dd0314c0f7b2291e5b200ac8c7c3b925918360005260018252604060002085600052825280604060002055604051908152a3565b604051634a1406b160e11b815260006004820152602490fd5b60405163e602df0560e01b815260006004820152602490fd5b604091949392606082019560018060a01b0316825260208201520152565b156117aa57565b60405162461bcd60e51b815260206004820152600a6024820152694f6e6c7920637572766560b01b6044820152606490fd5b3d15611816573d906001600160401b038211611467576040519161180a601f8201601f191660200184611444565b82523d6000602084013e565b606090565b8181029291811591840414171561142e57565b8115611838570490565b634e487b7160e01b600052601260045260246000fd5b9190820391821161142e57565b80546001600160c01b031660c09290921b6001600160c01b031916919091179055565b6001600160a01b03811690816118d0575061189b82600254611421565b6002555b600080516020612536833981519152602061dead9384600052600082526040600020818154019055604051908152a3565b600090828252816020526040822054908482106118fc575083604091848452836020520391205561189f565b6111b48560405193849363391434e360e21b855260048501611785565b6001600160a01b038082169290918361198157506000805160206125368339815191529160209161194c86600254611421565b6002555b1693846119695780600254036002555b604051908152a3565b84600052600082526040600020818154019055611960565b600090848252816020526040822054908682106119c0575091816040876020958860008051602061253683398151915298965283875203912055611950565b6111b48760405193849363391434e360e21b855260048501611785565b8054600160801b600160c01b03191660809290921b600160801b600160c01b0316919091179055565b611a0e611b1c565b1561151a5761dead60005260096020526000805160206124d6833981519152805461151a91906001600160401b0390611a6c611a50608083901c84164261184e565b60018501805490939091611274916001600160801b031661181b565b90600d54611a80600286019182549061184e565b80151580611ac8575b611a9d575b50600d549055554216906119dd565b611ab0670de0b6b3a7640000918561181b565b04611ac060038701918254611421565b905538611a8e565b50831515611a89565b611ada81611b8b565b15611b19576001600160a01b03166000908152600960205260409020805461151a91906001600160401b0390611a6c611a50608083901c84164261184e565b50565b61dead6000819052600e6020527ff77e91909e61d18f67b875b2bfcae1f683a8d555e55382e3a6b082e2c59ea57a5460ff16611b855760055460081c6001600160a01b03168015159182611b7b575b5050611b7657600190565b600090565b1490503880611b6b565b50600090565b6001600160a01b03908116908115611bce5781600052600e60205260ff60406000205416611bce5760055460081c168015159182611b7b575050611b7657600190565b5050600090565b611bdd611b1c565b1561151a5761dead600081815260096020526000805160206124d683398151915291611c07611ef2565b81526020819052604081205482546001600160801b0390811680831093919291908480611d6c575b611d1f575b828181119586600014611ce35750611c59925090611c519161184e565b600c54611421565b600c555b83546001600160801b0319169116178255426001600160401b031690611c8382846119dd565b60ff60055416159081611cdb575b5080611ca9575b611ca0575050565b61151a9161185b565b50337f00000000000000000000000000000000000000000000000000000000000000006001600160a01b031614611c98565b905038611c91565b611cf0575b505050611c5d565b611cf99161184e565b600c54818110611d1857611d0d925061184e565b600c55388082611ce8565b5050611d0d565b60018601805490611d43611d3c84611d37888661181b565b61182e565b809361184e565b600a548111611d6257611d5890600a5461184e565b600a555b55611c34565b5083600a55611d5c565b50801515611c2f565b611d7e81611b8b565b15611b19576001600160a01b0390811660008181526009602052604081209291611da6611ef2565b81526020819052604081205483546001600160801b0390811680831093919291908480611ee9575b611ea8575b828181119586600014611e6c5750611df0925090611c519161184e565b600c555b84546001600160801b0319169116178355426001600160401b031691611e1a83856119dd565b60ff60055416159182611e64575b5081611e38575b50611ca0575050565b90507f000000000000000000000000000000000000000000000000000000000000000016331438611e2f565b915038611e28565b611e79575b505050611df4565b611e829161184e565b600c54818110611ea157611e96925061184e565b600c55388082611e71565b5050611e96565b60018701805490611ec0611d3c84611d37888661181b565b600a548111611edf57611ed590600a5461184e565b600a555b55611dd3565b5083600a55611ed9565b50801515611dce565b611efe600b544261184e565b80151580611f33575b611f13575b5042600b55565b611f22611f2a91600c5461181b565b600a54611421565b600a5538611f0c565b50600c541515611f07565b8015611b1957611f4c611ef2565b600a54908115611fc457611f63600f548092611421565b90611fba575b670de0b6b3a76400009081810291818304148115171561142e57611fa9611fa16000805160206125168339815191529460409461182e565b600d54611421565b80600d5582519182526020820152a1565b6000600f55611f69565b600080516020612516833981519152915080611fe4604092600f54611421565b600f55600d5482519182526020820152a1565b6001600160a01b031660009081526009602052604090205460c01c8015611b8557612022904261184e565b61012c811061204f57610e10811061204857620151801161204257600090565b6101f490565b506103e890565b506107d090565b60009060ff198060085416600180821760085530855260208581526040918287205493841561231d575082516001600160401b039060608101828111828210176123095785526002815283810195853688378151156122f55730875260065486516315ab88c960e31b81526001600160a01b0398918916908781600481855afa9081156122eb578d916122b5575b5084518710156122a157612100918a8592168a870152306116f2565b4794886006541692833b1561229d57885163791ac94760e01b81526004810191909152602481018d905260a06044820152935160a485018190528c938593909260c4850192868b8e5b838310612279575050505050508383809230606483015242608483015203925af19182612252575b5050612188575b5050505090915060085416600855565b612192904761184e565b801580156121a1575b50612178565b6003820290828204600314171561223e57966121c660076121d797989904809361184e565b94826121e3575b5050505050611f3e565b8190388080808061219b565b81808481937f0000000000000000000000000000000000000000000000000000000000000000165af16122146117dc565b50612221575b80806121cd565b6000805160206124b68339815191529251908152a138808061221a565b634e487b7160e01b88526011600452602488fd5b8199929911612265578452963880612171565b634e487b7160e01b82526041600452602482fd5b84979950858294979293969950511681520195019101928694928f96948b8e612149565b8c80fd5b634e487b7160e01b8d52603260045260248dfd5b90508781813d83116122e4575b6122cc8183611444565b8101031261229d5751898116810361229d57386120e4565b503d6122c2565b89513d8f823e3d90fd5b634e487b7160e01b8a52603260045260248afd5b634e487b7160e01b8a52604160045260248afd5b9596505050505050600855565b60008051602061257683398151915260028154146123485760029055565b604051633ee5aeb560e01b8152600490fd5b600019811461142e5760010190565b61237281611b8b565b15611b85576001600160a01b03166000908152600960205260409020805461240b91906003906123ca906112746123b6608083901c6001600160401b03164261184e565b6001860154926001600160801b031661181b565b6123db600d5460028501549061184e565b9080151580612417575b6000901561240e5750670de0b6b3a7640000916124019161181b565b04915b0154611421565b90565b91505091612404565b508115156123e5565b61242981611b8b565b15611b85576001600160a01b03166000908152600960205260409020805461240b91611274906001612468608085901c6001600160401b03164261184e565b910154926001600160801b031661181b565b1561248157565b60405162461bcd60e51b815260206004820152600c60248201526b4f6e6c7920666163746f727960a01b6044820152606490fdfe693f9dbea0bdf9b70d480f9527e567d17ae3a41a5627c6515b034ac1869cf7a0960b1051749987b45b5679007fff577a1c2f763ec21c15a6c5eb193075003785fc30cddea38e2bf4d6ea7d3f9ed3b6ad7f176419f4963bd81318067a4aee73fe8ad0c4905aa5603107e860e0c2b1a78e23eba312c30f8114a70d94d9e187f5afddf252ad1be2c89b69c2b068fc378daa952ba7f163c4a11628f55a4df523b3efe9bc91a33ddf896d889747b2f39f4192c802fd62364780086853fcd8e19e8ffa9b779b17422d0df92223018b32b4d1fa46e071723d6817e2486d003becc55f00a26469706673582212202b7901ecd161ede110b1a3c90c08c171dc103457fd0810d51a084e477384de1e64736f6c634300081400338ad0c4905aa5603107e860e0c2b1a78e23eba312c30f8114a70d94d9e187f5afddf252ad1be2c89b69c2b068fc378daa952ba7f163c4a11628f55a4df523b3ef","opcodes":"PUSH1 0xC0 PUSH1 0x40 SWAP1 DUP1 DUP3 MSTORE CALLVALUE PUSH3 0x731 JUMPI PUSH3 0x3722 DUP1 CODESIZE SUB DUP1 SWAP2 PUSH3 0x22 DUP3 DUP6 PUSH3 0x736 JUMP JUMPDEST DUP4 CODECOPY DUP2 ADD PUSH1 0x80 DUP3 DUP3 SUB SLT PUSH3 0x731 JUMPI DUP2 MLOAD PUSH1 0x1 PUSH1 0x1 PUSH1 0x40 SHL SUB SWAP1 DUP2 DUP2 GT PUSH3 0x731 JUMPI DUP3 PUSH3 0x52 SWAP2 DUP6 ADD PUSH3 0x776 JUMP JUMPDEST SWAP2 PUSH1 0x20 SWAP1 DUP2 DUP6 ADD MLOAD SWAP1 DUP4 DUP3 GT PUSH3 0x731 JUMPI PUSH3 0x70 SWAP2 DUP7 ADD PUSH3 0x776 JUMP JUMPDEST SWAP2 PUSH3 0x8C PUSH1 0x60 PUSH3 0x84 DUP9 DUP9 ADD PUSH3 0x7E0 JUMP JUMPDEST SWAP7 ADD PUSH3 0x7E0 JUMP JUMPDEST SWAP3 DUP5 MLOAD DUP3 DUP2 GT PUSH3 0x631 JUMPI PUSH1 0x3 DUP1 SLOAD SWAP2 PUSH1 0x1 SWAP8 DUP9 DUP5 DUP2 SHR SWAP5 AND DUP1 ISZERO PUSH3 0x726 JUMPI JUMPDEST DUP8 DUP6 LT EQ PUSH3 0x710 JUMPI DUP2 SWAP1 PUSH1 0x1F SWAP5 DUP6 DUP2 GT PUSH3 0x6BA JUMPI JUMPDEST POP DUP8 SWAP1 DUP6 DUP4 GT PUSH1 0x1 EQ PUSH3 0x653 JUMPI PUSH1 0x0 SWAP3 PUSH3 0x647 JUMPI JUMPDEST POP POP PUSH1 0x0 NOT DUP3 DUP5 SHL SHR NOT AND SWAP1 DUP9 SHL OR DUP2 SSTORE JUMPDEST DUP3 MLOAD SWAP2 DUP5 DUP4 GT PUSH3 0x631 JUMPI PUSH1 0x4 SWAP4 DUP5 SLOAD DUP10 DUP2 DUP2 SHR SWAP2 AND DUP1 ISZERO PUSH3 0x626 JUMPI JUMPDEST DUP9 DUP3 LT EQ PUSH3 0x611 JUMPI SWAP1 DUP2 DUP4 DUP7 SWAP6 SWAP5 SWAP4 GT PUSH3 0x5B7 JUMPI JUMPDEST POP DUP8 SWAP2 DUP5 GT PUSH1 0x1 EQ PUSH3 0x54C JUMPI PUSH1 0x0 SWAP4 PUSH3 0x540 JUMPI JUMPDEST POP POP DUP3 DUP9 SHL SWAP3 PUSH1 0x0 NOT SWAP2 SHL SHR NOT AND OR DUP2 SSTORE JUMPDEST PUSH32 0x9B779B17422D0DF92223018B32B4D1FA46E071723D6817E2486D003BECC55F00 DUP6 SWAP1 SSTORE PUSH10 0x152D02C7E14AF6800000 PUSH1 0x7 SSTORE PUSH1 0x80 DUP7 SWAP1 MSTORE PUSH1 0xA0 DUP5 SWAP1 MSTORE PUSH1 0x1 PUSH1 0x1 PUSH1 0xA0 SHL SUB SWAP4 DUP5 DUP2 AND SWAP3 DUP4 ISZERO PUSH3 0x529 JUMPI PUSH12 0x33B2E3C9FD0803CE8000000 SWAP1 PUSH3 0x1B3 DUP4 PUSH3 0x909 JUMP JUMPDEST PUSH1 0x5 SLOAD SWAP4 DUP8 PUSH1 0xFF SWAP6 DUP7 DUP2 AND DUP1 PUSH3 0x51C JUMPI JUMPDEST DUP1 PUSH3 0x505 JUMPI JUMPDEST DUP1 PUSH3 0x4EE JUMPI JUMPDEST PUSH3 0x342 JUMPI JUMPDEST POP POP POP POP DUP2 PUSH3 0x1F3 PUSH3 0x1F9 SWAP3 PUSH1 0xE SWAP8 SWAP7 SWAP6 SWAP5 PUSH3 0x87F JUMP JUMPDEST PUSH3 0xA51 JUMP JUMPDEST DUP5 PUSH1 0x5 SLOAD DUP3 DUP2 AND SWAP3 DUP4 PUSH3 0x334 JUMPI JUMPDEST POP DUP3 PUSH3 0x324 JUMPI JUMPDEST POP POP DUP1 PUSH3 0x30B JUMPI JUMPDEST DUP1 PUSH3 0x2FD JUMPI JUMPDEST PUSH3 0x2ED JUMPI JUMPDEST PUSH1 0x0 MSTORE MSTORE DUP4 PUSH1 0x0 KECCAK256 SWAP3 PUSH1 0xFF NOT SWAP4 DUP4 DUP6 DUP3 SLOAD AND OR SWAP1 SSTORE AND PUSH1 0x0 MSTORE DUP3 PUSH1 0x0 KECCAK256 DUP2 DUP4 DUP3 SLOAD AND OR SWAP1 SSTORE PUSH2 0xDEAD PUSH1 0x0 MSTORE DUP3 PUSH1 0x0 KECCAK256 DUP2 DUP4 DUP3 SLOAD AND OR SWAP1 SSTORE ADDRESS PUSH1 0x0 MSTORE DUP3 PUSH1 0x0 KECCAK256 DUP2 DUP4 DUP3 SLOAD AND OR SWAP1 SSTORE PUSH1 0x0 DUP1 MSTORE DUP3 PUSH1 0x0 KECCAK256 SWAP2 DUP3 SLOAD AND OR SWAP1 SSTORE TIMESTAMP PUSH1 0xB SSTORE MLOAD PUSH2 0x25CB SWAP1 DUP2 PUSH3 0x1117 DUP3 CODECOPY PUSH1 0x80 MLOAD DUP2 DUP2 DUP2 PUSH2 0x6F8 ADD MSTORE DUP2 DUP2 PUSH2 0x7D1 ADD MSTORE DUP2 DUP2 PUSH2 0x938 ADD MSTORE DUP2 DUP2 PUSH2 0xAFF ADD MSTORE DUP2 DUP2 PUSH2 0x1089 ADD MSTORE PUSH2 0x21EA ADD MSTORE PUSH1 0xA0 MLOAD DUP2 DUP2 DUP2 PUSH2 0x5A5 ADD MSTORE DUP2 DUP2 PUSH2 0x799 ADD MSTORE DUP2 DUP2 PUSH2 0x8C1 ADD MSTORE DUP2 DUP2 PUSH2 0xBA1 ADD MSTORE DUP2 DUP2 PUSH2 0xC45 ADD MSTORE DUP2 DUP2 PUSH2 0x1CAD ADD MSTORE PUSH2 0x1E3C ADD MSTORE RETURN JUMPDEST PUSH3 0x2F7 PUSH3 0xCCB JUMP JUMPDEST PUSH3 0x226 JUMP JUMPDEST POP DUP4 PUSH1 0x6 SLOAD AND ISZERO ISZERO PUSH3 0x220 JUMP JUMPDEST POP ADDRESS PUSH1 0x0 MSTORE PUSH1 0x0 DUP3 MSTORE DUP7 PUSH1 0x0 KECCAK256 SLOAD PUSH1 0x7 SLOAD GT ISZERO PUSH3 0x219 JUMP JUMPDEST PUSH1 0x8 SHR AND ISZERO ISZERO SWAP1 POP DUP5 CODESIZE PUSH3 0x210 JUMP JUMPDEST PUSH1 0x8 SLOAD AND ISZERO SWAP3 POP CODESIZE PUSH3 0x208 JUMP JUMPDEST PUSH1 0x8 SHR AND SWAP2 DUP3 ISZERO SWAP3 DUP8 EQ DUP4 DUP5 ISZERO PUSH3 0x4E6 JUMPI JUMPDEST PUSH3 0x364 JUMPI JUMPDEST DUP10 SWAP2 POP PUSH3 0x1D9 JUMP JUMPDEST PUSH1 0x0 SWAP5 SWAP2 SWAP3 SWAP4 SWAP5 SWAP1 PUSH3 0x4D5 JUMPI JUMPDEST PUSH2 0x1F4 SWAP1 DUP2 ADD DUP1 SWAP2 GT PUSH3 0x4C0 JUMPI DUP1 DUP3 MUL SWAP1 DUP3 DUP3 DIV SUB PUSH3 0x4C0 JUMPI PUSH2 0x2710 SWAP1 DIV SWAP3 PUSH1 0x2 SLOAD SWAP4 PUSH11 0xC685FA11E01EC6F000000 SWAP5 DUP6 DUP2 ADD DUP1 SWAP2 GT PUSH3 0x4AB JUMPI PUSH1 0x2 SSTORE DUP14 PUSH1 0x0 PUSH1 0x0 DUP1 MLOAD PUSH1 0x20 PUSH3 0x3702 DUP4 CODECOPY DUP2 MLOAD SWAP2 MSTORE DUP13 PUSH2 0xDEAD SWAP4 DUP5 DUP5 MSTORE DUP4 DUP3 MSTORE DUP1 DUP5 KECCAK256 DUP11 DUP2 SLOAD ADD SWAP1 SSTORE MLOAD DUP10 DUP2 MSTORE LOG3 PUSH11 0xC685FA11E01EC6EFFFFFF NOT DUP2 ADD DUP2 DUP2 GT PUSH3 0x4AB JUMPI DUP1 PUSH3 0x498 JUMPI JUMPDEST POP DUP3 SUB SWAP2 DUP3 GT PUSH3 0x483 JUMPI POP SWAP3 DUP7 PUSH1 0x0 PUSH32 0xE9BC91A33DDF896D889747B2F39F4192C802FD62364780086853FCD8E19E8FFA PUSH1 0x60 DUP16 SWAP7 DUP4 DUP14 SWAP13 SWAP12 SWAP11 SWAP9 DUP2 PUSH1 0xE SWAP16 PUSH3 0x1F3 SWAP11 PUSH3 0x1F9 SWAP14 SWAP11 PUSH3 0x465 JUMPI JUMPDEST POP DUP3 MLOAD SWAP5 DUP6 MSTORE DUP5 ADD MSTORE DUP3 ADD MSTORE LOG3 SWAP3 DUP3 SWAP5 SWAP6 SWAP7 SWAP8 PUSH3 0x35B JUMP JUMPDEST PUSH3 0x47C SWAP1 DUP11 DUP5 MSTORE PUSH1 0x9 DUP4 MSTORE TIMESTAMP AND DUP5 DUP5 KECCAK256 PUSH3 0x85C JUMP JUMPDEST CODESIZE PUSH3 0x44C JUMP JUMPDEST PUSH1 0x11 SWAP1 PUSH4 0x4E487B71 PUSH1 0xE0 SHL PUSH1 0x0 MSTORE MSTORE PUSH1 0x24 PUSH1 0x0 REVERT JUMPDEST PUSH3 0x4A4 SWAP1 ADDRESS PUSH3 0x87F JUMP JUMPDEST CODESIZE PUSH3 0x3FC JUMP JUMPDEST PUSH1 0x11 DUP4 PUSH4 0x4E487B71 PUSH1 0xE0 SHL PUSH1 0x0 MSTORE MSTORE PUSH1 0x24 PUSH1 0x0 REVERT JUMPDEST PUSH1 0x11 DUP5 PUSH4 0x4E487B71 PUSH1 0xE0 SHL PUSH1 0x0 MSTORE MSTORE PUSH1 0x24 PUSH1 0x0 REVERT JUMPDEST POP PUSH3 0x4E0 PUSH3 0xC4D JUMP JUMPDEST PUSH3 0x372 JUMP JUMPDEST POP DUP1 PUSH3 0x355 JUMP JUMPDEST POP DUP8 PUSH1 0x0 MSTORE PUSH1 0xE DUP10 MSTORE DUP7 DUP14 PUSH1 0x0 KECCAK256 SLOAD AND ISZERO PUSH3 0x1D3 JUMP JUMPDEST POP PUSH1 0x0 DUP1 MSTORE PUSH1 0xE DUP10 MSTORE DUP7 DUP14 PUSH1 0x0 KECCAK256 SLOAD AND ISZERO PUSH3 0x1CC JUMP JUMPDEST POP DUP7 PUSH1 0x8 SLOAD AND ISZERO PUSH3 0x1C5 JUMP JUMPDEST DUP9 MLOAD PUSH4 0xEC442F05 PUSH1 0xE0 SHL DUP2 MSTORE PUSH1 0x0 DUP2 DUP6 ADD MSTORE PUSH1 0x24 SWAP1 REVERT JUMPDEST ADD MLOAD SWAP2 POP CODESIZE DUP1 PUSH3 0x138 JUMP JUMPDEST SWAP2 SWAP1 DUP10 SWAP5 POP PUSH1 0x1F NOT DUP5 AND SWAP3 DUP7 PUSH1 0x0 MSTORE DUP9 PUSH1 0x0 KECCAK256 SWAP4 PUSH1 0x0 JUMPDEST DUP11 DUP3 DUP3 LT PUSH3 0x5A0 JUMPI POP POP DUP6 GT PUSH3 0x585 JUMPI JUMPDEST POP POP POP POP DUP2 SHL ADD DUP2 SSTORE PUSH3 0x14A JUMP JUMPDEST ADD MLOAD SWAP1 PUSH1 0xF8 DUP5 PUSH1 0x0 NOT SWAP3 SHL AND SHR NOT AND SWAP1 SSTORE CODESIZE DUP1 DUP1 DUP1 PUSH3 0x576 JUMP JUMPDEST DUP4 DUP6 ADD MLOAD DUP8 SSTORE DUP14 SWAP9 SWAP1 SWAP7 ADD SWAP6 SWAP4 DUP5 ADD SWAP4 ADD PUSH3 0x563 JUMP JUMPDEST SWAP1 SWAP2 SWAP3 SWAP4 POP DUP6 PUSH1 0x0 MSTORE DUP8 PUSH1 0x0 KECCAK256 DUP4 DUP1 DUP8 ADD PUSH1 0x5 SHR DUP3 ADD SWAP3 DUP11 DUP9 LT PUSH3 0x607 JUMPI JUMPDEST SWAP2 DUP13 SWAP2 DUP9 SWAP8 SWAP7 SWAP6 SWAP5 SWAP4 ADD PUSH1 0x5 SHR ADD SWAP2 JUMPDEST DUP3 DUP2 LT PUSH3 0x5F7 JUMPI POP POP PUSH3 0x122 JUMP JUMPDEST PUSH1 0x0 DUP2 SSTORE DUP8 SWAP7 POP DUP13 SWAP2 ADD PUSH3 0x5E7 JUMP JUMPDEST SWAP3 POP DUP2 SWAP3 PUSH3 0x5D7 JUMP JUMPDEST PUSH1 0x22 DUP7 PUSH4 0x4E487B71 PUSH1 0xE0 SHL PUSH1 0x0 MSTORE MSTORE PUSH1 0x24 PUSH1 0x0 REVERT JUMPDEST SWAP1 PUSH1 0x7F AND SWAP1 PUSH3 0x10B JUMP JUMPDEST PUSH4 0x4E487B71 PUSH1 0xE0 SHL PUSH1 0x0 MSTORE PUSH1 0x41 PUSH1 0x4 MSTORE PUSH1 0x24 PUSH1 0x0 REVERT JUMPDEST ADD MLOAD SWAP1 POP CODESIZE DUP1 PUSH3 0xDB JUMP JUMPDEST SWAP1 DUP11 SWAP4 POP PUSH1 0x1F NOT DUP4 AND SWAP2 DUP6 PUSH1 0x0 MSTORE DUP10 PUSH1 0x0 KECCAK256 SWAP3 PUSH1 0x0 JUMPDEST DUP12 DUP3 DUP3 LT PUSH3 0x6A3 JUMPI POP POP DUP5 GT PUSH3 0x68A JUMPI JUMPDEST POP POP POP DUP2 SHL ADD DUP2 SSTORE PUSH3 0xED JUMP JUMPDEST ADD MLOAD PUSH1 0x0 NOT DUP4 DUP7 SHL PUSH1 0xF8 AND SHR NOT AND SWAP1 SSTORE CODESIZE DUP1 DUP1 PUSH3 0x67C JUMP JUMPDEST DUP4 DUP6 ADD MLOAD DUP7 SSTORE DUP15 SWAP8 SWAP1 SWAP6 ADD SWAP5 SWAP4 DUP5 ADD SWAP4 ADD PUSH3 0x669 JUMP JUMPDEST SWAP1 SWAP2 POP DUP4 PUSH1 0x0 MSTORE DUP8 PUSH1 0x0 KECCAK256 DUP6 DUP1 DUP6 ADD PUSH1 0x5 SHR DUP3 ADD SWAP3 DUP11 DUP7 LT PUSH3 0x706 JUMPI JUMPDEST SWAP2 DUP13 SWAP2 DUP7 SWAP6 SWAP5 SWAP4 ADD PUSH1 0x5 SHR ADD SWAP2 JUMPDEST DUP3 DUP2 LT PUSH3 0x6F6 JUMPI POP POP PUSH3 0xC4 JUMP JUMPDEST PUSH1 0x0 DUP2 SSTORE DUP6 SWAP5 POP DUP13 SWAP2 ADD PUSH3 0x6E6 JUMP JUMPDEST SWAP3 POP DUP2 SWAP3 PUSH3 0x6D8 JUMP JUMPDEST PUSH4 0x4E487B71 PUSH1 0xE0 SHL PUSH1 0x0 MSTORE PUSH1 0x22 PUSH1 0x4 MSTORE PUSH1 0x24 PUSH1 0x0 REVERT JUMPDEST SWAP4 PUSH1 0x7F AND SWAP4 PUSH3 0xAD JUMP JUMPDEST PUSH1 0x0 DUP1 REVERT JUMPDEST PUSH1 0x1F SWAP1 SWAP2 ADD PUSH1 0x1F NOT AND DUP2 ADD SWAP1 PUSH1 0x1 PUSH1 0x1 PUSH1 0x40 SHL SUB DUP3 GT SWAP1 DUP3 LT OR PUSH3 0x631 JUMPI PUSH1 0x40 MSTORE JUMP JUMPDEST PUSH1 0x1 PUSH1 0x1 PUSH1 0x40 SHL SUB DUP2 GT PUSH3 0x631 JUMPI PUSH1 0x1F ADD PUSH1 0x1F NOT AND PUSH1 0x20 ADD SWAP1 JUMP JUMPDEST SWAP2 SWAP1 DUP1 PUSH1 0x1F DUP5 ADD SLT ISZERO PUSH3 0x731 JUMPI DUP3 MLOAD SWAP1 PUSH3 0x792 DUP3 PUSH3 0x75A JUMP JUMPDEST SWAP2 PUSH3 0x7A2 PUSH1 0x40 MLOAD SWAP4 DUP5 PUSH3 0x736 JUMP JUMPDEST DUP1 DUP4 MSTORE PUSH1 0x20 SWAP2 DUP3 DUP3 DUP8 ADD ADD GT PUSH3 0x731 JUMPI PUSH1 0x0 JUMPDEST DUP2 DUP2 LT PUSH3 0x7CC JUMPI POP DUP3 PUSH1 0x0 SWAP4 SWAP5 SWAP6 POP ADD ADD MSTORE SWAP1 JUMP JUMPDEST DUP6 DUP2 ADD DUP4 ADD MLOAD DUP5 DUP3 ADD DUP5 ADD MSTORE DUP3 ADD PUSH3 0x7B6 JUMP JUMPDEST MLOAD SWAP1 PUSH1 0x1 PUSH1 0x1 PUSH1 0xA0 SHL SUB DUP3 AND DUP3 SUB PUSH3 0x731 JUMPI JUMP JUMPDEST SWAP2 SWAP1 DUP3 ADD DUP1 SWAP3 GT PUSH3 0x803 JUMPI JUMP JUMPDEST PUSH4 0x4E487B71 PUSH1 0xE0 SHL PUSH1 0x0 MSTORE PUSH1 0x11 PUSH1 0x4 MSTORE PUSH1 0x24 PUSH1 0x0 REVERT JUMPDEST DUP2 DUP2 MUL SWAP3 SWAP2 DUP2 ISZERO SWAP2 DUP5 DIV EQ OR ISZERO PUSH3 0x803 JUMPI JUMP JUMPDEST DUP2 ISZERO PUSH3 0x838 JUMPI DIV SWAP1 JUMP JUMPDEST PUSH4 0x4E487B71 PUSH1 0xE0 SHL PUSH1 0x0 MSTORE PUSH1 0x12 PUSH1 0x4 MSTORE PUSH1 0x24 PUSH1 0x0 REVERT JUMPDEST SWAP2 SWAP1 DUP3 SUB SWAP2 DUP3 GT PUSH3 0x803 JUMPI JUMP JUMPDEST DUP1 SLOAD PUSH1 0x1 PUSH1 0x1 PUSH1 0xC0 SHL SUB AND PUSH1 0xC0 SWAP3 SWAP1 SWAP3 SHL PUSH1 0x1 PUSH1 0x1 PUSH1 0xC0 SHL SUB NOT AND SWAP2 SWAP1 SWAP2 OR SWAP1 SSTORE JUMP JUMPDEST PUSH1 0x0 DUP1 MLOAD PUSH1 0x20 PUSH3 0x3702 DUP4 CODECOPY DUP2 MLOAD SWAP2 MSTORE PUSH1 0x20 PUSH1 0x0 SWAP3 PUSH3 0x8A2 DUP6 PUSH1 0x2 SLOAD PUSH3 0x7F5 JUMP JUMPDEST PUSH1 0x2 SSTORE PUSH1 0x1 PUSH1 0x1 PUSH1 0xA0 SHL SUB AND SWAP4 DUP5 ISZERO DUP5 EQ PUSH3 0x8CA JUMPI DUP1 PUSH1 0x2 SLOAD SUB PUSH1 0x2 SSTORE JUMPDEST PUSH1 0x40 MLOAD SWAP1 DUP2 MSTORE LOG3 JUMP JUMPDEST DUP5 DUP5 MSTORE DUP4 DUP3 MSTORE PUSH1 0x40 DUP5 KECCAK256 DUP2 DUP2 SLOAD ADD SWAP1 SSTORE PUSH3 0x8C1 JUMP JUMPDEST DUP1 SLOAD PUSH1 0x1 PUSH1 0x80 SHL PUSH1 0x1 PUSH1 0xC0 SHL SUB NOT AND PUSH1 0x80 SWAP3 SWAP1 SWAP3 SHL PUSH1 0x1 PUSH1 0x80 SHL PUSH1 0x1 PUSH1 0xC0 SHL SUB AND SWAP2 SWAP1 SWAP2 OR SWAP1 SSTORE JUMP JUMPDEST PUSH3 0x914 DUP2 PUSH3 0x9F2 JUMP JUMPDEST ISZERO PUSH3 0x9EF JUMPI PUSH1 0x1 PUSH1 0x1 PUSH1 0xA0 SHL SUB AND PUSH1 0x0 SWAP1 DUP2 MSTORE PUSH1 0x9 PUSH1 0x20 MSTORE PUSH1 0x40 SWAP1 KECCAK256 DUP1 SLOAD PUSH3 0x9B3 SWAP2 SWAP1 PUSH1 0x1 PUSH1 0x1 PUSH1 0x40 SHL SUB SWAP1 PUSH3 0x97D PUSH3 0x958 PUSH1 0x80 DUP4 SWAP1 SHR DUP5 AND TIMESTAMP PUSH3 0x84E JUMP JUMPDEST PUSH1 0x1 DUP6 ADD DUP1 SLOAD SWAP1 SWAP4 SWAP1 SWAP2 PUSH3 0x976 SWAP2 PUSH1 0x1 PUSH1 0x1 PUSH1 0x80 SHL SUB AND PUSH3 0x819 JUMP JUMPDEST SWAP1 PUSH3 0x7F5 JUMP JUMPDEST SWAP1 PUSH1 0xD SLOAD PUSH3 0x993 PUSH1 0x2 DUP7 ADD SWAP2 DUP3 SLOAD SWAP1 PUSH3 0x84E JUMP JUMPDEST DUP1 ISZERO ISZERO DUP1 PUSH3 0x9E5 JUMPI JUMPDEST PUSH3 0x9B5 JUMPI JUMPDEST POP PUSH1 0xD SLOAD SWAP1 SSTORE SSTORE TIMESTAMP AND SWAP1 PUSH3 0x8E0 JUMP JUMPDEST JUMP JUMPDEST PUSH3 0x9CA PUSH8 0xDE0B6B3A7640000 SWAP2 DUP6 PUSH3 0x819 JUMP JUMPDEST DIV PUSH3 0x9DC PUSH1 0x3 DUP8 ADD SWAP2 DUP3 SLOAD PUSH3 0x7F5 JUMP JUMPDEST SWAP1 SSTORE CODESIZE PUSH3 0x9A3 JUMP JUMPDEST POP DUP4 ISZERO ISZERO PUSH3 0x99D JUMP JUMPDEST POP JUMP JUMPDEST PUSH1 0x1 PUSH1 0x1 PUSH1 0xA0 SHL SUB SWAP1 DUP2 AND SWAP1 DUP2 ISZERO PUSH3 0xA4A JUMPI DUP2 PUSH1 0x0 MSTORE PUSH1 0xE PUSH1 0x20 MSTORE PUSH1 0xFF PUSH1 0x40 PUSH1 0x0 KECCAK256 SLOAD AND PUSH3 0xA4A JUMPI PUSH1 0x5 SLOAD PUSH1 0x8 SHR AND DUP1 ISZERO ISZERO SWAP2 DUP3 PUSH3 0xA3F JUMPI JUMPDEST POP POP PUSH3 0xA3A JUMPI PUSH1 0x1 SWAP1 JUMP JUMPDEST PUSH1 0x0 SWAP1 JUMP JUMPDEST EQ SWAP1 POP CODESIZE DUP1 PUSH3 0xA2E JUMP JUMPDEST POP POP PUSH1 0x0 SWAP1 JUMP JUMPDEST PUSH3 0xA5C DUP2 PUSH3 0x9F2 JUMP JUMPDEST ISZERO PUSH3 0x9EF JUMPI PUSH1 0x1 PUSH1 0x1 PUSH1 0xA0 SHL SUB SWAP1 DUP2 AND PUSH1 0x0 DUP2 DUP2 MSTORE PUSH1 0x9 PUSH1 0x20 MSTORE PUSH1 0x40 DUP2 KECCAK256 SWAP3 SWAP2 PUSH3 0xA87 PUSH3 0xBF7 JUMP JUMPDEST DUP2 MSTORE PUSH1 0x20 DUP2 SWAP1 MSTORE PUSH1 0x40 DUP2 KECCAK256 SLOAD DUP4 SLOAD PUSH1 0x1 PUSH1 0x1 PUSH1 0x80 SHL SUB SWAP1 DUP2 AND DUP1 DUP4 LT SWAP4 SWAP2 SWAP3 SWAP2 SWAP1 DUP5 DUP1 PUSH3 0xBED JUMPI JUMPDEST PUSH3 0xB95 JUMPI JUMPDEST DUP3 DUP2 DUP2 GT SWAP6 DUP7 PUSH1 0x0 EQ PUSH3 0xB50 JUMPI POP PUSH3 0xAE0 SWAP3 POP SWAP1 PUSH3 0xAD7 SWAP2 PUSH3 0x84E JUMP JUMPDEST PUSH1 0xC SLOAD PUSH3 0x7F5 JUMP JUMPDEST PUSH1 0xC SSTORE JUMPDEST DUP5 SLOAD PUSH1 0x1 PUSH1 0x1 PUSH1 0x80 SHL SUB NOT AND SWAP2 AND OR DUP4 SSTORE TIMESTAMP PUSH1 0x1 PUSH1 0x1 PUSH1 0x40 SHL SUB AND SWAP2 PUSH3 0xB0C DUP4 DUP6 PUSH3 0x8E0 JUMP JUMPDEST PUSH1 0xFF PUSH1 0x5 SLOAD AND ISZERO SWAP2 DUP3 PUSH3 0xB47 JUMPI JUMPDEST POP DUP2 PUSH3 0xB38 JUMPI JUMPDEST POP PUSH3 0xB2D JUMPI POP POP JUMP JUMPDEST PUSH3 0x9B3 SWAP2 PUSH3 0x85C JUMP JUMPDEST SWAP1 POP PUSH1 0xA0 MLOAD AND CALLER EQ CODESIZE PUSH3 0xB23 JUMP JUMPDEST SWAP2 POP CODESIZE PUSH3 0xB1B JUMP JUMPDEST PUSH3 0xB5F JUMPI JUMPDEST POP POP POP PUSH3 0xAE4 JUMP JUMPDEST PUSH3 0xB6A SWAP2 PUSH3 0x84E JUMP JUMPDEST PUSH1 0xC SLOAD DUP2 DUP2 LT PUSH3 0xB8D JUMPI PUSH3 0xB81 SWAP3 POP PUSH3 0x84E JUMP JUMPDEST PUSH1 0xC SSTORE CODESIZE DUP1 DUP3 PUSH3 0xB56 JUMP JUMPDEST POP POP PUSH3 0xB81 JUMP JUMPDEST PUSH1 0x1 DUP8 ADD DUP1 SLOAD SWAP1 PUSH3 0xBBF PUSH3 0xBB7 DUP5 PUSH3 0xBB1 DUP9 DUP7 PUSH3 0x819 JUMP JUMPDEST PUSH3 0x82D JUMP JUMPDEST DUP1 SWAP4 PUSH3 0x84E JUMP JUMPDEST PUSH1 0xA SLOAD DUP2 GT PUSH3 0xBE2 JUMPI PUSH3 0xBD7 SWAP1 PUSH1 0xA SLOAD PUSH3 0x84E JUMP JUMPDEST PUSH1 0xA SSTORE JUMPDEST SSTORE PUSH3 0xAB6 JUMP JUMPDEST POP DUP4 PUSH1 0xA SSTORE PUSH3 0xBDB JUMP JUMPDEST POP DUP1 ISZERO ISZERO PUSH3 0xAB0 JUMP JUMPDEST PUSH3 0xC05 PUSH1 0xB SLOAD TIMESTAMP PUSH3 0x84E JUMP JUMPDEST DUP1 ISZERO ISZERO DUP1 PUSH3 0xC41 JUMPI JUMPDEST PUSH3 0xC1C JUMPI JUMPDEST POP TIMESTAMP PUSH1 0xB SSTORE JUMP JUMPDEST PUSH3 0xC2E PUSH3 0xC37 SWAP2 PUSH1 0xC SLOAD PUSH3 0x819 JUMP JUMPDEST PUSH1 0xA SLOAD PUSH3 0x7F5 JUMP JUMPDEST PUSH1 0xA SSTORE CODESIZE PUSH3 0xC15 JUMP JUMPDEST POP PUSH1 0xC SLOAD ISZERO ISZERO PUSH3 0xC0F JUMP JUMPDEST PUSH1 0x0 DUP1 MSTORE PUSH1 0x9 PUSH1 0x20 MSTORE PUSH32 0xEC8156718A8372B1DB44BB411437D0870F3E3790D4A08526D024CE1B0B668F6B SLOAD PUSH1 0xC0 SHR DUP1 ISZERO PUSH3 0xCC5 JUMPI PUSH3 0xC8E SWAP1 TIMESTAMP PUSH3 0x84E JUMP JUMPDEST PUSH2 0x12C DUP2 LT PUSH3 0xCBE JUMPI PUSH2 0xE10 DUP2 LT PUSH3 0xCB7 JUMPI PUSH3 0x15180 GT PUSH3 0xCB1 JUMPI PUSH1 0x0 SWAP1 JUMP JUMPDEST PUSH2 0x1F4 SWAP1 JUMP JUMPDEST POP PUSH2 0x3E8 SWAP1 JUMP JUMPDEST POP PUSH2 0x7D0 SWAP1 JUMP JUMPDEST POP PUSH1 0x0 SWAP1 JUMP JUMPDEST PUSH1 0x0 SWAP1 PUSH1 0xFF NOT DUP1 PUSH1 0x8 SLOAD AND SWAP3 PUSH1 0x1 SWAP1 DUP2 DUP6 OR PUSH1 0x8 SSTORE ADDRESS DUP2 MSTORE PUSH1 0x20 DUP2 DUP2 MSTORE PUSH1 0x40 SWAP2 DUP3 DUP2 KECCAK256 SLOAD SWAP7 DUP8 ISZERO PUSH3 0x103F JUMPI POP DUP3 MLOAD SWAP4 PUSH1 0x1 PUSH1 0x1 PUSH1 0x40 SHL SUB PUSH1 0x60 DUP7 ADD DUP2 DUP2 GT DUP8 DUP3 LT OR PUSH3 0x102B JUMPI DUP6 MSTORE PUSH1 0x2 DUP7 MSTORE DUP4 DUP7 ADD SWAP9 DUP6 CALLDATASIZE DUP12 CALLDATACOPY DUP7 MLOAD ISZERO PUSH3 0x1017 JUMPI ADDRESS DUP11 MSTORE PUSH1 0x6 SLOAD DUP7 MLOAD PUSH4 0x15AB88C9 PUSH1 0xE3 SHL DUP2 MSTORE PUSH1 0x4 SWAP12 PUSH1 0x1 PUSH1 0x1 PUSH1 0xA0 SHL SUB SWAP10 SWAP3 SWAP1 SWAP2 SWAP1 DUP11 AND SWAP1 DUP9 DUP2 DUP16 DUP2 DUP6 GAS STATICCALL SWAP1 DUP2 ISZERO PUSH3 0x100D JUMPI DUP9 SWAP2 PUSH3 0xFD0 JUMPI JUMPDEST POP DUP4 MLOAD DUP8 LT ISZERO PUSH3 0xFBC JUMPI DUP11 AND DUP10 DUP5 ADD MSTORE ADDRESS ISZERO PUSH3 0xFA5 JUMPI DUP1 ISZERO PUSH3 0xF8E JUMPI ADDRESS DUP8 MSTORE DUP6 DUP9 MSTORE DUP9 DUP8 KECCAK256 DUP2 DUP9 MSTORE DUP9 MSTORE DUP4 DUP10 DUP9 KECCAK256 SSTORE DUP9 MLOAD DUP5 DUP2 MSTORE PUSH32 0x8C5BE1E5EBEC7D5BD14F71427D1E84F3DD0314C0F7B2291E5B200AC8C7C3B925 DUP10 ADDRESS SWAP3 LOG3 SELFBALANCE SWAP5 DUP10 PUSH1 0x6 SLOAD AND SWAP3 DUP4 EXTCODESIZE ISZERO PUSH3 0xF8A JUMPI DUP10 MLOAD PUSH4 0x791AC947 PUSH1 0xE0 SHL DUP2 MSTORE DUP1 DUP16 ADD SWAP6 SWAP1 SWAP6 MSTORE PUSH1 0x24 DUP6 ADD DUP9 SWAP1 MSTORE PUSH1 0xA0 PUSH1 0x44 DUP7 ADD MSTORE MLOAD PUSH1 0xA4 DUP6 ADD DUP2 SWAP1 MSTORE DUP8 SWAP4 DUP6 SWAP4 SWAP1 SWAP3 PUSH1 0xC4 DUP6 ADD SWAP3 DUP7 DUP13 DUP16 JUMPDEST DUP4 DUP4 LT PUSH3 0xF6D JUMPI POP POP POP POP POP POP DUP4 DUP4 DUP1 SWAP3 ADDRESS PUSH1 0x64 DUP4 ADD MSTORE TIMESTAMP PUSH1 0x84 DUP4 ADD MSTORE SUB SWAP3 GAS CALL SWAP2 DUP3 PUSH3 0xF45 JUMPI JUMPDEST POP POP PUSH3 0xE4C JUMPI JUMPDEST POP POP POP POP POP SWAP1 SWAP2 POP PUSH1 0x8 SLOAD AND PUSH1 0x8 SSTORE JUMP JUMPDEST PUSH3 0xE58 SWAP1 SELFBALANCE PUSH3 0x84E JUMP JUMPDEST SWAP1 DUP2 ISZERO DUP1 ISZERO PUSH3 0xE6A JUMPI JUMPDEST POP PUSH3 0xE3B JUMP JUMPDEST PUSH1 0x3 DUP4 MUL SWAP1 DUP4 DUP3 DIV PUSH1 0x3 EQ OR ISZERO PUSH3 0xF32 JUMPI PUSH3 0xEA7 SWAP7 SWAP8 SWAP9 POP PUSH1 0x7 PUSH3 0xE94 SWAP2 DIV DUP1 SWAP4 PUSH3 0x84E JUMP JUMPDEST SWAP5 DUP3 PUSH3 0xEB5 JUMPI JUMPDEST POP POP POP POP POP PUSH3 0x104C JUMP JUMPDEST DUP2 SWAP1 CODESIZE DUP1 DUP1 DUP1 DUP1 DUP1 PUSH3 0xE63 JUMP JUMPDEST DUP2 DUP1 DUP1 DUP6 DUP2 SWAP5 PUSH1 0x80 MLOAD AND GAS CALL SWAP1 RETURNDATASIZE ISZERO PUSH3 0xF2B JUMPI RETURNDATASIZE SWAP1 PUSH3 0xED6 DUP3 PUSH3 0x75A JUMP JUMPDEST SWAP2 PUSH3 0xEE5 DUP8 MLOAD SWAP4 DUP5 PUSH3 0x736 JUMP JUMPDEST DUP3 MSTORE DUP5 RETURNDATASIZE SWAP3 ADD RETURNDATACOPY JUMPDEST PUSH3 0xEFB JUMPI JUMPDEST DUP1 DUP1 PUSH3 0xE9C JUMP JUMPDEST PUSH32 0x693F9DBEA0BDF9B70D480F9527E567D17AE3A41A5627C6515B034AC1869CF7A0 SWAP3 MLOAD SWAP1 DUP2 MSTORE LOG1 CODESIZE DUP1 DUP1 PUSH3 0xEF3 JUMP JUMPDEST POP PUSH3 0xEED JUMP JUMPDEST PUSH4 0x4E487B71 PUSH1 0xE0 SHL DUP3 MSTORE PUSH1 0x11 DUP10 MSTORE PUSH1 0x24 DUP3 REVERT JUMPDEST DUP2 SWAP5 SWAP3 SWAP5 GT PUSH3 0xF5A JUMPI DUP6 MSTORE SWAP2 CODESIZE DUP1 PUSH3 0xE33 JUMP JUMPDEST PUSH4 0x4E487B71 PUSH1 0xE0 SHL DUP3 MSTORE PUSH1 0x41 DUP11 MSTORE PUSH1 0x24 DUP3 REVERT JUMPDEST DUP6 MLOAD AND DUP7 MSTORE DUP13 SWAP9 POP DUP10 SWAP8 POP SWAP5 DUP6 ADD SWAP5 SWAP1 SWAP4 ADD SWAP3 DUP3 ADD DUP13 DUP16 PUSH3 0xE09 JUMP JUMPDEST DUP8 DUP1 REVERT JUMPDEST DUP9 MLOAD PUSH4 0x4A1406B1 PUSH1 0xE1 SHL DUP2 MSTORE DUP1 DUP15 ADD DUP9 SWAP1 MSTORE PUSH1 0x24 SWAP1 REVERT JUMPDEST DUP9 MLOAD PUSH4 0xE602DF05 PUSH1 0xE0 SHL DUP2 MSTORE DUP1 DUP15 ADD DUP9 SWAP1 MSTORE PUSH1 0x24 SWAP1 REVERT JUMPDEST POP PUSH4 0x4E487B71 PUSH1 0xE0 SHL DUP8 MSTORE PUSH1 0x32 DUP14 MSTORE PUSH1 0x24 DUP8 REVERT JUMPDEST SWAP1 POP DUP9 DUP2 DUP2 RETURNDATASIZE DUP4 GT PUSH3 0x1005 JUMPI JUMPDEST PUSH3 0xFEA DUP2 DUP4 PUSH3 0x736 JUMP JUMPDEST DUP2 ADD SUB SLT PUSH3 0xF8A JUMPI PUSH3 0xFFE SWAP1 PUSH3 0x7E0 JUMP JUMPDEST CODESIZE PUSH3 0xD65 JUMP JUMPDEST POP RETURNDATASIZE PUSH3 0xFDE JUMP JUMPDEST DUP11 MLOAD RETURNDATASIZE DUP11 DUP3 RETURNDATACOPY RETURNDATASIZE SWAP1 REVERT JUMPDEST PUSH4 0x4E487B71 PUSH1 0xE0 SHL DUP5 MSTORE PUSH1 0x32 PUSH1 0x4 MSTORE PUSH1 0x24 DUP5 REVERT JUMPDEST PUSH4 0x4E487B71 PUSH1 0xE0 SHL DUP5 MSTORE PUSH1 0x41 PUSH1 0x4 MSTORE PUSH1 0x24 DUP5 REVERT JUMPDEST SWAP6 SWAP7 POP POP POP POP POP POP PUSH1 0x8 SSTORE JUMP JUMPDEST DUP1 ISZERO PUSH3 0x9EF JUMPI PUSH3 0x105D PUSH3 0xBF7 JUMP JUMPDEST PUSH1 0xA SLOAD SWAP1 DUP2 ISZERO PUSH3 0x10E0 JUMPI PUSH3 0x1077 PUSH1 0xF SLOAD DUP1 SWAP3 PUSH3 0x7F5 JUMP JUMPDEST SWAP1 PUSH3 0x10D5 JUMPI JUMPDEST PUSH8 0xDE0B6B3A7640000 SWAP1 DUP2 DUP2 MUL SWAP2 DUP2 DUP4 DIV EQ DUP2 ISZERO OR ISZERO PUSH3 0x803 JUMPI PUSH3 0x10C4 PUSH3 0x10BB PUSH1 0x0 DUP1 MLOAD PUSH1 0x20 PUSH3 0x36E2 DUP4 CODECOPY DUP2 MLOAD SWAP2 MSTORE SWAP5 PUSH1 0x40 SWAP5 PUSH3 0x82D JUMP JUMPDEST PUSH1 0xD SLOAD PUSH3 0x7F5 JUMP JUMPDEST DUP1 PUSH1 0xD SSTORE DUP3 MLOAD SWAP2 DUP3 MSTORE PUSH1 0x20 DUP3 ADD MSTORE LOG1 JUMP JUMPDEST PUSH1 0x0 PUSH1 0xF SSTORE PUSH3 0x107E JUMP JUMPDEST PUSH1 0x0 DUP1 MLOAD PUSH1 0x20 PUSH3 0x36E2 DUP4 CODECOPY DUP2 MLOAD SWAP2 MSTORE SWAP2 POP DUP1 PUSH3 0x1103 PUSH1 0x40 SWAP3 PUSH1 0xF SLOAD PUSH3 0x7F5 JUMP JUMPDEST PUSH1 0xF SSTORE PUSH1 0xD SLOAD DUP3 MLOAD SWAP2 DUP3 MSTORE PUSH1 0x20 DUP3 ADD MSTORE LOG1 JUMP INVALID PUSH1 0x80 PUSH1 0x40 SWAP1 DUP1 DUP3 MSTORE PUSH1 0x4 SWAP2 DUP3 CALLDATASIZE LT ISZERO PUSH2 0x23 JUMPI JUMPDEST POP POP POP CALLDATASIZE ISZERO PUSH2 0x21 JUMPI PUSH1 0x0 DUP1 REVERT JUMPDEST STOP JUMPDEST PUSH1 0x0 SWAP2 DUP3 CALLDATALOAD PUSH1 0xE0 SHR SWAP1 DUP2 PUSH4 0x3FD2A45 EQ PUSH2 0x136F JUMPI POP DUP1 PUSH4 0x445B667 EQ PUSH2 0x1351 JUMPI DUP1 PUSH4 0x6FDDE03 EQ PUSH2 0x127A JUMPI DUP1 PUSH4 0x7C9BF2E EQ PUSH2 0x1242 JUMPI DUP1 PUSH4 0x95EA7B3 EQ PUSH2 0x1219 JUMPI DUP1 PUSH4 0x13B9D47E EQ PUSH2 0x11FB JUMPI DUP1 PUSH4 0x18160DDD EQ PUSH2 0x11DD JUMPI DUP1 PUSH4 0x1E4C7292 EQ PUSH2 0x11B8 JUMPI DUP1 PUSH4 0x23B872DD EQ PUSH2 0x10CE JUMPI DUP1 PUSH4 0x2836BE24 EQ PUSH2 0x1052 JUMPI DUP1 PUSH4 0x313CE567 EQ PUSH2 0x1037 JUMPI DUP1 PUSH4 0x31D7A262 EQ PUSH2 0x1012 JUMPI DUP1 PUSH4 0x47B12BFC EQ PUSH2 0xFF7 JUMPI DUP1 PUSH4 0x4E71D92D EQ PUSH2 0xF0A JUMPI DUP1 PUSH4 0x5B090044 EQ PUSH2 0xC24 JUMPI DUP1 PUSH4 0x64229D68 EQ PUSH2 0xC06 JUMPI DUP1 PUSH4 0x70A08231 EQ PUSH2 0xBD0 JUMPI DUP1 PUSH4 0x7165485D EQ PUSH2 0xB8D JUMPI DUP1 PUSH4 0x735DE9F7 EQ PUSH2 0xB65 JUMPI DUP1 PUSH4 0x748747E6 EQ PUSH2 0xAD6 JUMPI DUP1 PUSH4 0x902D55A5 EQ PUSH2 0xAB1 JUMPI DUP1 PUSH4 0x95D89B41 EQ PUSH2 0x9CC JUMPI DUP1 PUSH4 0x98AECB67 EQ PUSH2 0x9A7 JUMPI DUP1 PUSH4 0x9D0014B1 EQ PUSH2 0x91C JUMPI DUP1 PUSH4 0x9D6EADC1 EQ PUSH2 0x8FE JUMPI DUP1 PUSH4 0xA37A9FC0 EQ PUSH2 0x4D8 JUMPI DUP1 PUSH4 0xA47541BA EQ PUSH2 0x8AF JUMPI DUP1 PUSH4 0xA8355C8F EQ PUSH2 0x761 JUMPI DUP1 PUSH4 0xA9059CBB EQ PUSH2 0x87F JUMPI DUP1 PUSH4 0xACED1661 EQ PUSH2 0x857 JUMPI DUP1 PUSH4 0xB78D0538 EQ PUSH2 0x77D JUMPI DUP1 PUSH4 0xBACF2A7B EQ PUSH2 0x761 JUMPI DUP1 PUSH4 0xBB103CBC EQ PUSH2 0x745 JUMPI DUP1 PUSH4 0xC1DB4015 EQ PUSH2 0x727 JUMPI DUP1 PUSH4 0xC45A0155 EQ PUSH2 0x6E4 JUMPI DUP1 PUSH4 0xC463ECD7 EQ PUSH2 0x6C8 JUMPI DUP1 PUSH4 0xC5F27B30 EQ PUSH2 0x6AA JUMPI DUP1 PUSH4 0xC5F509D6 EQ PUSH2 0x685 JUMPI DUP1 PUSH4 0xC7B12801 EQ PUSH2 0x572 JUMPI DUP1 PUSH4 0xC816841B EQ PUSH2 0x546 JUMPI DUP1 PUSH4 0xCA81EB66 EQ PUSH2 0x51A JUMPI DUP1 PUSH4 0xCBA0E996 EQ PUSH2 0x4DD JUMPI DUP1 PUSH4 0xCE91E164 EQ PUSH2 0x4D8 JUMPI DUP1 PUSH4 0xDBB51D6E EQ PUSH2 0x45E JUMPI DUP1 PUSH4 0xDD62ED3E EQ PUSH2 0x416 JUMPI DUP1 PUSH4 0xE7C2B772 EQ PUSH2 0x3F3 JUMPI PUSH4 0xF6CEEFA2 SUB PUSH2 0x13 JUMPI CALLVALUE PUSH2 0x3EF JUMPI PUSH1 0x20 DUP1 PUSH1 0x3 NOT CALLDATASIZE ADD SLT PUSH2 0x3EB JUMPI PUSH1 0x1 PUSH1 0x1 PUSH1 0x40 SHL SUB SWAP1 DUP5 CALLDATALOAD SWAP1 DUP3 DUP3 GT PUSH2 0x3E7 JUMPI CALLDATASIZE PUSH1 0x23 DUP4 ADD SLT ISZERO PUSH2 0x3E7 JUMPI DUP2 DUP7 ADD CALLDATALOAD SWAP3 DUP4 GT PUSH2 0x3E7 JUMPI PUSH1 0x5 SWAP3 PUSH1 0x24 CALLDATASIZE DUP3 DUP7 SHL DUP6 ADD DUP3 ADD GT PUSH2 0x3E3 JUMPI PUSH2 0x286 PUSH2 0x232A JUMP JUMPDEST PUSH1 0x10 SLOAD PUSH1 0x1 PUSH1 0x1 PUSH1 0xA0 SHL SUB SWAP9 SWAP1 DUP10 AND CALLER SUB PUSH2 0x3B5 JUMPI POP DUP7 SWAP4 DUP8 SWAP6 DUP9 JUMPDEST DUP5 DUP2 LT PUSH2 0x2ED JUMPI DUP10 PUSH32 0xF80654923FB0C7F7A44C79B000DCA8E52E2F4A16092A26FF31C0A410291D331 DUP11 DUP11 DUP11 DUP11 DUP4 MLOAD SWAP3 DUP4 MSTORE DUP3 ADD MSTORE LOG1 PUSH1 0x1 PUSH1 0x0 DUP1 MLOAD PUSH1 0x20 PUSH2 0x2576 DUP4 CODECOPY DUP2 MLOAD SWAP2 MSTORE SSTORE DUP1 RETURN JUMPDEST DUP4 DUP2 DUP4 SWAP10 SWAP9 SWAP10 SHL DUP5 ADD ADD CALLDATALOAD DUP12 DUP2 AND SWAP1 DUP2 DUP2 SUB PUSH2 0x3B1 JUMPI PUSH2 0x30C DUP2 PUSH2 0x1B8B JUMP JUMPDEST ISZERO PUSH2 0x3A3 JUMPI PUSH2 0x31A SWAP1 PUSH2 0x1AD1 JUMP JUMPDEST DUP1 DUP12 MSTORE PUSH1 0x9 DUP8 MSTORE PUSH1 0x3 DUP11 DUP13 KECCAK256 ADD SWAP9 DUP10 SLOAD SWAP10 DUP13 DUP12 ISZERO PUSH2 0x394 JUMPI DUP1 DUP1 DUP1 DUP15 DUP2 DUP7 SSTORE DUP8 GAS CALL PUSH2 0x344 PUSH2 0x17DC JUMP JUMPDEST POP ISZERO PUSH2 0x384 JUMPI POP SWAP1 PUSH1 0x0 DUP1 MLOAD PUSH1 0x20 PUSH2 0x24F6 DUP4 CODECOPY DUP2 MLOAD SWAP2 MSTORE DUP9 PUSH2 0x373 PUSH2 0x36D DUP14 PUSH2 0x37F SWAP8 SWAP7 PUSH2 0x1421 JUMP JUMPDEST SWAP12 PUSH2 0x235A JUMP JUMPDEST SWAP12 DUP14 MLOAD SWAP1 DUP2 MSTORE LOG2 PUSH2 0x235A JUMP JUMPDEST PUSH2 0x2A2 JUMP JUMPDEST PUSH2 0x37F SWAP4 SWAP3 POP SWAP10 SWAP1 SWAP9 SWAP10 SSTORE PUSH2 0x235A JUMP JUMPDEST POP POP SWAP8 SWAP9 POP POP PUSH2 0x37F SWAP1 PUSH2 0x235A JUMP JUMPDEST POP POP PUSH2 0x37F SWAP1 SWAP8 SWAP7 SWAP8 PUSH2 0x235A JUMP JUMPDEST DUP12 DUP1 REVERT JUMPDEST PUSH1 0xB PUSH1 0x64 SWAP3 DUP6 DUP10 MLOAD SWAP4 PUSH3 0x461BCD PUSH1 0xE5 SHL DUP6 MSTORE DUP5 ADD MSTORE DUP3 ADD MSTORE PUSH11 0x27B7363C9035B2B2B832B9 PUSH1 0xA9 SHL PUSH1 0x44 DUP3 ADD MSTORE REVERT JUMPDEST DUP7 DUP1 REVERT JUMPDEST DUP5 DUP1 REVERT JUMPDEST DUP3 DUP1 REVERT JUMPDEST POP DUP1 REVERT JUMPDEST POP CALLVALUE PUSH2 0x3EF JUMPI DUP2 PUSH1 0x3 NOT CALLDATASIZE ADD SLT PUSH2 0x3EF JUMPI PUSH1 0x20 SWAP1 PUSH1 0xFF PUSH1 0x5 SLOAD AND SWAP1 MLOAD SWAP1 ISZERO ISZERO DUP2 MSTORE RETURN JUMPDEST POP CALLVALUE PUSH2 0x3EF JUMPI DUP1 PUSH1 0x3 NOT CALLDATASIZE ADD SLT PUSH2 0x3EF JUMPI DUP1 PUSH1 0x20 SWAP3 PUSH2 0x433 PUSH2 0x13D4 JUMP JUMPDEST PUSH2 0x43B PUSH2 0x13EF JUMP JUMPDEST PUSH1 0x1 PUSH1 0x1 PUSH1 0xA0 SHL SUB SWAP2 DUP3 AND DUP4 MSTORE PUSH1 0x1 DUP7 MSTORE DUP4 DUP4 KECCAK256 SWAP2 AND DUP3 MSTORE DUP5 MSTORE KECCAK256 SLOAD SWAP1 MLOAD SWAP1 DUP2 MSTORE RETURN JUMPDEST POP CALLVALUE PUSH2 0x3EF JUMPI PUSH1 0x20 CALLDATASIZE PUSH1 0x3 NOT ADD SLT PUSH2 0x3EF JUMPI PUSH1 0xC0 SWAP2 DUP2 SWAP1 PUSH1 0x1 PUSH1 0x1 PUSH1 0xA0 SHL SUB PUSH2 0x485 PUSH2 0x13D4 JUMP JUMPDEST AND DUP2 MSTORE PUSH1 0x9 PUSH1 0x20 MSTORE KECCAK256 SWAP1 DUP2 SLOAD SWAP2 PUSH1 0x1 DUP2 ADD SLOAD PUSH1 0x3 PUSH1 0x2 DUP4 ADD SLOAD SWAP3 ADD SLOAD SWAP3 DUP1 MLOAD SWAP5 PUSH1 0x1 DUP1 PUSH1 0x80 SHL SUB DUP2 AND DUP7 MSTORE PUSH1 0x1 DUP1 PUSH1 0x40 SHL SUB DUP2 PUSH1 0x80 SHR AND PUSH1 0x20 DUP8 ADD MSTORE DUP7 SHR SWAP1 DUP6 ADD MSTORE PUSH1 0x60 DUP5 ADD MSTORE PUSH1 0x80 DUP4 ADD MSTORE PUSH1 0xA0 DUP3 ADD MSTORE RETURN JUMPDEST PUSH2 0x1405 JUMP JUMPDEST POP CALLVALUE PUSH2 0x3EF JUMPI PUSH1 0x20 CALLDATASIZE PUSH1 0x3 NOT ADD SLT PUSH2 0x3EF JUMPI PUSH1 0x20 SWAP2 PUSH1 0xFF SWAP1 DUP3 SWAP1 PUSH1 0x1 PUSH1 0x1 PUSH1 0xA0 SHL SUB PUSH2 0x507 PUSH2 0x13D4 JUMP JUMPDEST AND DUP2 MSTORE PUSH1 0xE DUP6 MSTORE KECCAK256 SLOAD AND SWAP1 MLOAD SWAP1 ISZERO ISZERO DUP2 MSTORE RETURN JUMPDEST POP CALLVALUE PUSH2 0x3EF JUMPI PUSH1 0x20 CALLDATASIZE PUSH1 0x3 NOT ADD SLT PUSH2 0x3EF JUMPI PUSH1 0x20 SWAP1 PUSH2 0x53F PUSH2 0x53A PUSH2 0x13D4 JUMP JUMPDEST PUSH2 0x1FF7 JUMP JUMPDEST SWAP1 MLOAD SWAP1 DUP2 MSTORE RETURN JUMPDEST POP CALLVALUE PUSH2 0x3EF JUMPI DUP2 PUSH1 0x3 NOT CALLDATASIZE ADD SLT PUSH2 0x3EF JUMPI PUSH1 0x5 SLOAD SWAP1 MLOAD PUSH1 0x8 SWAP2 SWAP1 SWAP2 SHR PUSH1 0x1 PUSH1 0x1 PUSH1 0xA0 SHL SUB AND DUP2 MSTORE PUSH1 0x20 SWAP1 RETURN JUMPDEST POP DUP3 SWAP1 CALLVALUE PUSH2 0x3EB JUMPI DUP1 PUSH1 0x3 NOT CALLDATASIZE ADD SLT PUSH2 0x3EB JUMPI PUSH2 0x58D PUSH2 0x13D4 JUMP JUMPDEST SWAP2 PUSH2 0x596 PUSH2 0x13EF JUMP JUMPDEST PUSH1 0x1 PUSH1 0x1 PUSH1 0xA0 SHL SUB SWAP2 PUSH2 0x5CC CALLER PUSH32 0x0 DUP6 AND EQ PUSH2 0x17A3 JUMP JUMPDEST PUSH1 0x5 SLOAD SWAP1 PUSH1 0xFF DUP3 AND PUSH2 0x64E JUMPI POP PUSH1 0x1 PUSH1 0x1 PUSH1 0xA8 SHL SUB NOT AND PUSH1 0x8 DUP6 SWAP1 SHL PUSH2 0x100 PUSH1 0x1 PUSH1 0xA8 SHL SUB AND OR PUSH1 0x1 OR PUSH1 0x5 SSTORE PUSH1 0x6 DUP1 SLOAD PUSH1 0x1 PUSH1 0x1 PUSH1 0xA0 SHL SUB NOT AND SWAP2 DUP4 AND SWAP2 SWAP1 SWAP2 OR SWAP1 SSTORE SWAP2 SWAP1 SWAP2 AND DUP1 DUP4 MSTORE PUSH1 0xE PUSH1 0x20 MSTORE SWAP1 DUP3 KECCAK256 DUP1 SLOAD PUSH1 0xFF NOT AND SWAP1 SSTORE PUSH32 0xC5CA2014458D93C5CF9F836FF7ECE45DE01C929DFB16EED9D6C3329FA1FD0982 DUP3 DUP1 LOG2 DUP1 RETURN JUMPDEST PUSH1 0x64 SWAP1 PUSH1 0x20 DUP7 MLOAD SWAP2 PUSH3 0x461BCD PUSH1 0xE5 SHL DUP4 MSTORE DUP3 ADD MSTORE PUSH1 0x11 PUSH1 0x24 DUP3 ADD MSTORE PUSH17 0x105B1C9958591E4819DC98591D585D1959 PUSH1 0x7A SHL PUSH1 0x44 DUP3 ADD MSTORE REVERT JUMPDEST POP CALLVALUE PUSH2 0x3EF JUMPI PUSH1 0x20 CALLDATASIZE PUSH1 0x3 NOT ADD SLT PUSH2 0x3EF JUMPI PUSH1 0x20 SWAP1 PUSH2 0x53F PUSH2 0x6A5 PUSH2 0x13D4 JUMP JUMPDEST PUSH2 0x2420 JUMP JUMPDEST POP CALLVALUE PUSH2 0x3EF JUMPI DUP2 PUSH1 0x3 NOT CALLDATASIZE ADD SLT PUSH2 0x3EF JUMPI PUSH1 0x20 SWAP1 PUSH1 0xD SLOAD SWAP1 MLOAD SWAP1 DUP2 MSTORE RETURN JUMPDEST POP CALLVALUE PUSH2 0x3EF JUMPI DUP2 PUSH1 0x3 NOT CALLDATASIZE ADD SLT PUSH2 0x3EF JUMPI PUSH1 0x20 SWAP1 MLOAD PUSH2 0x3E8 DUP2 MSTORE RETURN JUMPDEST POP CALLVALUE PUSH2 0x3EF JUMPI DUP2 PUSH1 0x3 NOT CALLDATASIZE ADD SLT PUSH2 0x3EF JUMPI MLOAD PUSH32 0x0 PUSH1 0x1 PUSH1 0x1 PUSH1 0xA0 SHL SUB AND DUP2 MSTORE PUSH1 0x20 SWAP1 RETURN JUMPDEST POP CALLVALUE PUSH2 0x3EF JUMPI DUP2 PUSH1 0x3 NOT CALLDATASIZE ADD SLT PUSH2 0x3EF JUMPI PUSH1 0x20 SWAP1 PUSH1 0xA SLOAD SWAP1 MLOAD SWAP1 DUP2 MSTORE RETURN JUMPDEST POP CALLVALUE PUSH2 0x3EF JUMPI DUP2 PUSH1 0x3 NOT CALLDATASIZE ADD SLT PUSH2 0x3EF JUMPI PUSH1 0x20 SWAP1 MLOAD PUSH2 0x7D0 DUP2 MSTORE RETURN JUMPDEST POP CALLVALUE PUSH2 0x3EF JUMPI DUP2 PUSH1 0x3 NOT CALLDATASIZE ADD SLT PUSH2 0x3EF JUMPI PUSH1 0x20 SWAP1 MLOAD PUSH2 0x1F4 DUP2 MSTORE RETURN JUMPDEST POP DUP3 DUP3 PUSH1 0x3 NOT CALLDATASIZE ADD SLT PUSH2 0x3EB JUMPI DUP3 PUSH1 0x1 PUSH1 0x1 PUSH1 0xA0 SHL SUB PUSH2 0x7C0 CALLER PUSH32 0x0 DUP4 AND EQ PUSH2 0x17A3 JUMP JUMPDEST CALLVALUE PUSH2 0x7C9 JUMPI POP DUP1 RETURN JUMPDEST DUP2 DUP1 DUP1 SWAP3 CALLVALUE SWAP1 PUSH32 0x0 AND GAS CALL PUSH2 0x7FB PUSH2 0x17DC JUMP JUMPDEST POP ISZERO PUSH2 0x81F JUMPI POP PUSH1 0x20 PUSH1 0x0 DUP1 MLOAD PUSH1 0x20 PUSH2 0x24B6 DUP4 CODECOPY DUP2 MLOAD SWAP2 MSTORE SWAP2 MLOAD CALLVALUE DUP2 MSTORE LOG1 DUP2 DUP1 DUP3 DUP1 RETURN JUMPDEST PUSH1 0x20 PUSH1 0x64 SWAP3 MLOAD SWAP2 PUSH3 0x461BCD PUSH1 0xE5 SHL DUP4 MSTORE DUP3 ADD MSTORE PUSH1 0x13 PUSH1 0x24 DUP3 ADD MSTORE PUSH19 0x141B185D199BDC9B48199DD90819985A5B1959 PUSH1 0x6A SHL PUSH1 0x44 DUP3 ADD MSTORE REVERT JUMPDEST POP CALLVALUE PUSH2 0x3EF JUMPI DUP2 PUSH1 0x3 NOT CALLDATASIZE ADD SLT PUSH2 0x3EF JUMPI PUSH1 0x10 SLOAD SWAP1 MLOAD PUSH1 0x1 PUSH1 0x1 PUSH1 0xA0 SHL SUB SWAP1 SWAP2 AND DUP2 MSTORE PUSH1 0x20 SWAP1 RETURN JUMPDEST POP CALLVALUE PUSH2 0x3EF JUMPI DUP1 PUSH1 0x3 NOT CALLDATASIZE ADD SLT PUSH2 0x3EF JUMPI PUSH1 0x20 SWAP1 PUSH2 0x8A8 PUSH2 0x89E PUSH2 0x13D4 JUMP JUMPDEST PUSH1 0x24 CALLDATALOAD SWAP1 CALLER PUSH2 0x147D JUMP JUMPDEST MLOAD PUSH1 0x1 DUP2 MSTORE RETURN JUMPDEST DUP3 DUP1 PUSH1 0x3 NOT CALLDATASIZE ADD SLT PUSH2 0x8FB JUMPI PUSH2 0x8EF CALLER PUSH32 0x0 PUSH1 0x1 PUSH1 0x1 PUSH1 0xA0 SHL SUB AND EQ PUSH2 0x17A3 JUMP JUMPDEST PUSH2 0x8F8 CALLVALUE PUSH2 0x1F3E JUMP JUMPDEST DUP1 RETURN JUMPDEST DUP1 REVERT JUMPDEST POP CALLVALUE PUSH2 0x3EF JUMPI DUP2 PUSH1 0x3 NOT CALLDATASIZE ADD SLT PUSH2 0x3EF JUMPI PUSH1 0x20 SWAP1 PUSH1 0xB SLOAD SWAP1 MLOAD SWAP1 DUP2 MSTORE RETURN JUMPDEST POP DUP3 CALLVALUE PUSH2 0x3EB JUMPI PUSH1 0x20 CALLDATASIZE PUSH1 0x3 NOT ADD SLT PUSH2 0x3EB JUMPI DUP1 CALLDATALOAD SWAP2 PUSH2 0x966 CALLER PUSH32 0x0 PUSH1 0x1 PUSH1 0x1 PUSH1 0xA0 SHL SUB AND EQ PUSH2 0x247A JUMP JUMPDEST DUP3 ISZERO PUSH2 0x974 JUMPI POP POP PUSH1 0x7 SSTORE DUP1 RETURN JUMPDEST SWAP1 PUSH1 0x20 PUSH1 0x64 SWAP3 MLOAD SWAP2 PUSH3 0x461BCD PUSH1 0xE5 SHL DUP4 MSTORE DUP3 ADD MSTORE PUSH1 0xD PUSH1 0x24 DUP3 ADD MSTORE PUSH13 0x109859081D1A1C995CDA1BDB19 PUSH1 0x9A SHL PUSH1 0x44 DUP3 ADD MSTORE REVERT JUMPDEST POP CALLVALUE PUSH2 0x3EF JUMPI DUP2 PUSH1 0x3 NOT CALLDATASIZE ADD SLT PUSH2 0x3EF JUMPI PUSH1 0x20 SWAP1 MLOAD PUSH11 0xA56FA5B99019A5C8000000 DUP2 MSTORE RETURN JUMPDEST POP CALLVALUE PUSH2 0x3EF JUMPI DUP2 PUSH1 0x3 NOT CALLDATASIZE ADD SLT PUSH2 0x3EF JUMPI DUP1 MLOAD SWAP2 DUP1 SWAP4 DUP1 SLOAD SWAP2 PUSH1 0x1 SWAP1 DUP4 DUP3 SHR SWAP3 DUP3 DUP6 AND SWAP5 DUP6 ISZERO PUSH2 0xAA7 JUMPI JUMPDEST PUSH1 0x20 SWAP6 DUP7 DUP7 LT DUP2 EQ PUSH2 0xA94 JUMPI DUP6 DUP10 MSTORE SWAP1 DUP2 ISZERO PUSH2 0xA70 JUMPI POP PUSH1 0x1 EQ PUSH2 0xA35 JUMPI JUMPDEST PUSH2 0xA31 DUP8 DUP8 PUSH2 0xA27 DUP3 DUP13 SUB DUP4 PUSH2 0x1444 JUMP JUMPDEST MLOAD SWAP2 DUP3 SWAP2 DUP3 PUSH2 0x138B JUMP JUMPDEST SUB SWAP1 RETURN JUMPDEST SWAP1 DUP1 SWAP5 SWAP8 POP MSTORE DUP6 DUP4 KECCAK256 JUMPDEST DUP3 DUP5 LT PUSH2 0xA5D JUMPI POP POP POP DUP3 PUSH2 0xA31 SWAP5 PUSH2 0xA27 SWAP3 DUP3 ADD ADD SWAP5 CODESIZE DUP1 PUSH2 0xA16 JUMP JUMPDEST DUP1 SLOAD DUP7 DUP6 ADD DUP9 ADD MSTORE SWAP3 DUP7 ADD SWAP3 DUP2 ADD PUSH2 0xA3F JUMP JUMPDEST PUSH1 0xFF NOT AND DUP9 DUP8 ADD MSTORE POP POP POP POP ISZERO ISZERO PUSH1 0x5 SHL DUP4 ADD ADD SWAP3 POP PUSH2 0xA27 DUP3 PUSH2 0xA31 CODESIZE DUP1 PUSH2 0xA16 JUMP JUMPDEST PUSH4 0x4E487B71 PUSH1 0xE0 SHL DUP5 MSTORE PUSH1 0x22 DUP4 MSTORE PUSH1 0x24 DUP5 REVERT JUMPDEST SWAP4 PUSH1 0x7F AND SWAP4 PUSH2 0x9F7 JUMP JUMPDEST POP CALLVALUE PUSH2 0x3EF JUMPI DUP2 PUSH1 0x3 NOT CALLDATASIZE ADD SLT PUSH2 0x3EF JUMPI MLOAD PUSH8 0x6765C793FA10079D PUSH1 0x1B SHL DUP2 MSTORE PUSH1 0x20 SWAP1 RETURN JUMPDEST DUP3 CALLVALUE PUSH2 0x8FB JUMPI PUSH1 0x20 CALLDATASIZE PUSH1 0x3 NOT ADD SLT PUSH2 0x8FB JUMPI PUSH2 0xAF0 PUSH2 0x13D4 JUMP JUMPDEST PUSH1 0x1 PUSH1 0x1 PUSH1 0xA0 SHL SUB SWAP1 PUSH2 0xB26 CALLER PUSH32 0x0 DUP5 AND EQ PUSH2 0x247A JUMP JUMPDEST DUP2 PUSH1 0x10 SLOAD SWAP2 AND DUP1 SWAP3 DUP3 AND PUSH32 0x53D3703FE259DEF57584466F32D1B94C30278008C683C21B04501C4966F13A69 DUP6 DUP1 LOG3 PUSH1 0x1 PUSH1 0x1 PUSH1 0xA0 SHL SUB NOT AND OR PUSH1 0x10 SSTORE DUP1 RETURN JUMPDEST POP CALLVALUE PUSH2 0x3EF JUMPI DUP2 PUSH1 0x3 NOT CALLDATASIZE ADD SLT PUSH2 0x3EF JUMPI PUSH1 0x6 SLOAD SWAP1 MLOAD PUSH1 0x1 PUSH1 0x1 PUSH1 0xA0 SHL SUB SWAP1 SWAP2 AND DUP2 MSTORE PUSH1 0x20 SWAP1 RETURN JUMPDEST POP CALLVALUE PUSH2 0x3EF JUMPI DUP2 PUSH1 0x3 NOT CALLDATASIZE ADD SLT PUSH2 0x3EF JUMPI MLOAD PUSH32 0x0 PUSH1 0x1 PUSH1 0x1 PUSH1 0xA0 SHL SUB AND DUP2 MSTORE PUSH1 0x20 SWAP1 RETURN JUMPDEST POP CALLVALUE PUSH2 0x3EF JUMPI PUSH1 0x20 CALLDATASIZE PUSH1 0x3 NOT ADD SLT PUSH2 0x3EF JUMPI PUSH1 0x20 SWAP2 DUP2 SWAP1 PUSH1 0x1 PUSH1 0x1 PUSH1 0xA0 SHL SUB PUSH2 0xBF7 PUSH2 0x13D4 JUMP JUMPDEST AND DUP2 MSTORE DUP1 DUP5 MSTORE KECCAK256 SLOAD SWAP1 MLOAD SWAP1 DUP2 MSTORE RETURN JUMPDEST POP CALLVALUE PUSH2 0x3EF JUMPI DUP2 PUSH1 0x3 NOT CALLDATASIZE ADD SLT PUSH2 0x3EF JUMPI PUSH1 0x20 SWAP1 PUSH1 0xC SLOAD SWAP1 MLOAD SWAP1 DUP2 MSTORE RETURN JUMPDEST POP CALLVALUE PUSH2 0x3EF JUMPI PUSH1 0x20 DUP1 PUSH1 0x3 NOT CALLDATASIZE ADD SLT PUSH2 0x3EB JUMPI DUP4 CALLDATALOAD SWAP2 PUSH1 0x1 PUSH1 0x1 PUSH1 0xA0 SHL SUB SWAP2 PUSH32 0x0 DUP4 DUP2 AND SWAP1 PUSH2 0xC73 CALLER DUP4 EQ PUSH2 0x17A3 JUMP JUMPDEST DUP6 ISZERO SWAP8 DUP9 ISZERO PUSH2 0xC80 JUMPI DUP8 DUP1 RETURN JUMPDEST DUP3 ISZERO PUSH2 0xEF3 JUMPI DUP7 SWAP9 PUSH2 0xC91 DUP4 PUSH2 0x1AD1 JUMP JUMPDEST PUSH2 0xC99 PUSH2 0x1A06 JUMP JUMPDEST PUSH1 0x5 SLOAD SWAP8 PUSH1 0xFF SWAP9 DUP10 DUP2 AND DUP1 PUSH2 0xEE7 JUMPI JUMPDEST DUP1 PUSH2 0xED3 JUMPI JUMPDEST DUP1 PUSH2 0xEBD JUMPI JUMPDEST PUSH2 0xD64 JUMPI JUMPDEST POP POP POP POP DUP1 PUSH2 0xCD2 DUP9 SWAP10 PUSH2 0xCD7 SWAP4 SWAP10 SWAP7 SWAP8 SWAP9 SWAP10 PUSH2 0x187E JUMP JUMPDEST PUSH2 0x1D75 JUMP JUMPDEST PUSH2 0xCDF PUSH2 0x1BD5 JUMP JUMPDEST PUSH1 0x5 SLOAD DUP7 DUP2 AND SWAP7 DUP8 PUSH2 0xD57 JUMPI JUMPDEST POP DUP7 PUSH2 0xD47 JUMPI JUMPDEST POP POP DUP5 PUSH2 0xD31 JUMPI JUMPDEST POP POP POP DUP2 PUSH2 0xD23 JUMPI JUMPDEST POP PUSH2 0xD16 JUMPI JUMPDEST DUP1 CODESIZE DUP1 DUP1 DUP1 DUP1 DUP1 DUP1 DUP8 DUP1 RETURN JUMPDEST PUSH2 0xD1E PUSH2 0x2056 JUMP JUMPDEST PUSH2 0xD0A JUMP JUMPDEST SWAP1 POP PUSH1 0x6 SLOAD AND ISZERO ISZERO CODESIZE PUSH2 0xD04 JUMP JUMPDEST ADDRESS DUP3 MSTORE MSTORE DUP4 KECCAK256 SLOAD PUSH1 0x7 SLOAD GT ISZERO SWAP2 POP CODESIZE DUP4 DUP2 PUSH2 0xCFB JUMP JUMPDEST PUSH1 0x8 SHR DUP6 AND EQ ISZERO SWAP5 POP CODESIZE DUP1 PUSH2 0xCF3 JUMP JUMPDEST PUSH1 0x8 SLOAD AND ISZERO SWAP7 POP CODESIZE PUSH2 0xCEC JUMP JUMPDEST PUSH1 0x8 SHR DUP9 AND DUP6 DUP2 EQ SWAP3 PUSH2 0xDEAD SWAP3 SWAP2 DUP4 EQ DUP5 DUP1 ISZERO PUSH2 0xEB6 JUMPI JUMPDEST PUSH2 0xD88 JUMPI JUMPDEST POP POP PUSH2 0xCBA JUMP JUMPDEST SWAP1 SWAP2 SWAP3 SWAP4 SWAP5 SWAP13 POP DUP12 SWAP1 PUSH2 0xEA7 JUMPI JUMPDEST PUSH2 0x1F4 SWAP1 DUP2 ADD DUP1 SWAP2 GT PUSH2 0xE94 JUMPI PUSH2 0xDB3 SWAP1 PUSH2 0x2710 SWAP2 DUP3 SWAP2 DUP6 PUSH2 0x181B JUMP JUMPDEST DIV SWAP2 PUSH1 0x96 DUP5 MUL SWAP1 DUP5 DUP3 DIV PUSH1 0x96 EQ OR ISZERO PUSH2 0xE80 JUMPI DUP13 SWAP14 POP PUSH1 0x60 PUSH2 0xCD7 SWAP8 SWAP7 SWAP5 DUP11 DUP13 SWAP14 SWAP15 SWAP16 DUP1 SWAP14 PUSH2 0xE13 PUSH2 0xCD2 SWAP11 SWAP9 DUP15 SWAP9 PUSH1 0x0 DUP1 MLOAD PUSH1 0x20 PUSH2 0x2556 DUP4 CODECOPY DUP2 MLOAD SWAP2 MSTORE SWAP9 DIV SWAP6 DUP14 DUP8 DUP1 PUSH2 0xE70 JUMPI JUMPDEST PUSH2 0xE06 SWAP1 DUP5 PUSH2 0x184E JUMP JUMPDEST DUP1 PUSH2 0xE5E JUMPI JUMPDEST POP POP PUSH2 0x184E JUMP JUMPDEST SWAP9 PUSH2 0xE39 JUMPI JUMPDEST SWAP2 POP POP MLOAD SWAP1 DUP2 MSTORE DUP12 DUP12 DUP3 ADD MSTORE DUP12 DUP14 DUP3 ADD MSTORE LOG3 SWAP10 SWAP9 SWAP8 SWAP7 SWAP6 DUP3 SWAP4 CODESIZE DUP1 PUSH2 0xD81 JUMP JUMPDEST DUP8 DUP3 MSTORE PUSH1 0x9 SWAP1 SWAP3 MSTORE KECCAK256 PUSH2 0xE56 SWAP1 TIMESTAMP PUSH1 0x1 PUSH1 0x1 PUSH1 0x40 SHL SUB AND SWAP1 PUSH2 0x185B JUMP JUMPDEST DUP11 DUP13 DUP15 PUSH2 0xE19 JUMP JUMPDEST PUSH2 0xE69 SWAP2 ADDRESS SWAP1 PUSH2 0x1919 JUMP JUMPDEST DUP14 CODESIZE PUSH2 0xE0C JUMP JUMPDEST PUSH2 0xE79 SWAP2 PUSH2 0x187E JUMP JUMPDEST DUP14 DUP8 PUSH2 0xDFC JUMP JUMPDEST POP PUSH4 0x4E487B71 PUSH1 0xE0 SHL DUP13 MSTORE PUSH1 0x11 DUP14 MSTORE PUSH1 0x24 DUP13 REVERT JUMPDEST PUSH4 0x4E487B71 PUSH1 0xE0 SHL DUP13 MSTORE PUSH1 0x11 DUP14 MSTORE PUSH1 0x24 DUP13 REVERT JUMPDEST POP PUSH2 0xEB1 DUP6 PUSH2 0x1FF7 JUMP JUMPDEST PUSH2 0xD96 JUMP JUMPDEST POP DUP1 PUSH2 0xD7C JUMP JUMPDEST POP PUSH2 0xDEAD DUP12 MSTORE PUSH1 0xE DUP8 MSTORE DUP10 DUP9 DUP13 KECCAK256 SLOAD AND ISZERO PUSH2 0xCB5 JUMP JUMPDEST POP DUP6 DUP12 MSTORE PUSH1 0xE DUP8 MSTORE DUP10 DUP9 DUP13 KECCAK256 SLOAD AND ISZERO PUSH2 0xCAF JUMP JUMPDEST POP DUP10 PUSH1 0x8 SLOAD AND ISZERO PUSH2 0xCA9 JUMP JUMPDEST DUP5 MLOAD PUSH4 0x4B637E8F PUSH1 0xE1 SHL DUP2 MSTORE SWAP1 DUP2 ADD DUP9 SWAP1 MSTORE PUSH1 0x24 SWAP1 REVERT JUMPDEST POP DUP3 SWAP1 CALLVALUE PUSH2 0x3EB JUMPI DUP3 PUSH1 0x3 NOT CALLDATASIZE ADD SLT PUSH2 0x3EB JUMPI PUSH2 0xF25 PUSH2 0x232A JUMP JUMPDEST PUSH2 0xF2E CALLER PUSH2 0x1AD1 JUMP JUMPDEST CALLER DUP4 MSTORE PUSH1 0x9 PUSH1 0x20 MSTORE PUSH1 0x3 DUP2 DUP5 KECCAK256 ADD SWAP2 DUP3 SLOAD SWAP3 DUP4 ISZERO PUSH2 0xFC1 JUMPI DUP5 SWAP1 SSTORE DUP4 DUP1 DUP1 DUP1 DUP7 CALLER GAS CALL PUSH2 0xF59 PUSH2 0x17DC JUMP JUMPDEST POP ISZERO PUSH2 0xF8D JUMPI POP MLOAD SWAP1 DUP2 MSTORE PUSH1 0x0 DUP1 MLOAD PUSH1 0x20 PUSH2 0x24F6 DUP4 CODECOPY DUP2 MLOAD SWAP2 MSTORE PUSH1 0x20 CALLER SWAP3 LOG2 PUSH1 0x1 PUSH1 0x0 DUP1 MLOAD PUSH1 0x20 PUSH2 0x2576 DUP4 CODECOPY DUP2 MLOAD SWAP2 MSTORE SSTORE DUP1 RETURN JUMPDEST PUSH1 0x20 PUSH1 0x64 SWAP3 MLOAD SWAP2 PUSH3 0x461BCD PUSH1 0xE5 SHL DUP4 MSTORE DUP3 ADD MSTORE PUSH1 0xF PUSH1 0x24 DUP3 ADD MSTORE PUSH15 0x115512081CD95B990819985A5B1959 PUSH1 0x8A SHL PUSH1 0x44 DUP3 ADD MSTORE REVERT JUMPDEST POP PUSH1 0x20 PUSH1 0x64 SWAP3 MLOAD SWAP2 PUSH3 0x461BCD PUSH1 0xE5 SHL DUP4 MSTORE DUP3 ADD MSTORE PUSH1 0x10 PUSH1 0x24 DUP3 ADD MSTORE PUSH16 0x4E6F7468696E6720746F20636C61696D PUSH1 0x80 SHL PUSH1 0x44 DUP3 ADD MSTORE REVERT JUMPDEST POP CALLVALUE PUSH2 0x3EF JUMPI DUP2 PUSH1 0x3 NOT CALLDATASIZE ADD SLT PUSH2 0x3EF JUMPI PUSH1 0x20 SWAP1 MLOAD PUSH1 0xC8 DUP2 MSTORE RETURN JUMPDEST POP CALLVALUE PUSH2 0x3EF JUMPI PUSH1 0x20 CALLDATASIZE PUSH1 0x3 NOT ADD SLT PUSH2 0x3EF JUMPI PUSH1 0x20 SWAP1 PUSH2 0x53F PUSH2 0x1032 PUSH2 0x13D4 JUMP JUMPDEST PUSH2 0x2369 JUMP JUMPDEST POP CALLVALUE PUSH2 0x3EF JUMPI DUP2 PUSH1 0x3 NOT CALLDATASIZE ADD SLT PUSH2 0x3EF JUMPI PUSH1 0x20 SWAP1 MLOAD PUSH1 0x12 DUP2 MSTORE RETURN JUMPDEST POP CALLVALUE PUSH2 0x3EF JUMPI DUP1 PUSH1 0x3 NOT CALLDATASIZE ADD SLT PUSH2 0x3EF JUMPI PUSH2 0x106B PUSH2 0x13D4 JUMP JUMPDEST SWAP1 PUSH1 0x24 CALLDATALOAD SWAP2 DUP3 ISZERO ISZERO DUP1 SWAP4 SUB PUSH2 0x10CA JUMPI PUSH1 0x1 PUSH1 0x1 PUSH1 0xA0 SHL SUB SWAP1 PUSH2 0x10B0 CALLER PUSH32 0x0 DUP5 AND EQ PUSH2 0x247A JUMP JUMPDEST AND DUP4 MSTORE PUSH1 0xE PUSH1 0x20 MSTORE DUP3 KECCAK256 SWAP1 PUSH1 0xFF DUP1 NOT DUP4 SLOAD AND SWAP2 AND OR SWAP1 SSTORE DUP1 RETURN JUMPDEST DUP4 DUP1 REVERT JUMPDEST POP SWAP2 SWAP1 CALLVALUE PUSH2 0x8FB JUMPI PUSH1 0x60 CALLDATASIZE PUSH1 0x3 NOT ADD SLT PUSH2 0x8FB JUMPI PUSH2 0x10EA PUSH2 0x13D4 JUMP JUMPDEST PUSH2 0x10F2 PUSH2 0x13EF JUMP JUMPDEST SWAP2 PUSH1 0x44 CALLDATALOAD SWAP4 PUSH1 0x1 DUP1 PUSH1 0xA0 SHL SUB DUP4 AND DUP1 DUP4 MSTORE PUSH1 0x1 PUSH1 0x20 MSTORE DUP7 DUP4 KECCAK256 CALLER DUP5 MSTORE PUSH1 0x20 MSTORE DUP7 DUP4 KECCAK256 SLOAD SWAP2 PUSH1 0x0 NOT DUP4 LT PUSH2 0x112E JUMPI JUMPDEST PUSH1 0x20 DUP9 PUSH2 0x8A8 DUP10 DUP10 DUP10 PUSH2 0x147D JUMP JUMPDEST DUP7 DUP4 LT PUSH2 0x1196 JUMPI DUP2 ISZERO PUSH2 0x117F JUMPI CALLER ISZERO PUSH2 0x1168 JUMPI POP DUP3 MSTORE PUSH1 0x1 PUSH1 0x20 SWAP1 DUP2 MSTORE DUP7 DUP4 KECCAK256 CALLER DUP5 MSTORE DUP2 MSTORE SWAP2 DUP7 SWAP1 KECCAK256 SWAP1 DUP6 SWAP1 SUB SWAP1 SSTORE DUP3 SWAP1 PUSH2 0x8A8 CODESIZE PUSH2 0x1120 JUMP JUMPDEST DUP8 MLOAD PUSH4 0x4A1406B1 PUSH1 0xE1 SHL DUP2 MSTORE SWAP1 DUP2 ADD DUP5 SWAP1 MSTORE PUSH1 0x24 SWAP1 REVERT JUMPDEST DUP8 MLOAD PUSH4 0xE602DF05 PUSH1 0xE0 SHL DUP2 MSTORE SWAP1 DUP2 ADD DUP5 SWAP1 MSTORE PUSH1 0x24 SWAP1 REVERT JUMPDEST SWAP1 POP PUSH2 0x11B4 DUP7 DUP9 MLOAD SWAP4 DUP5 SWAP4 PUSH4 0x7DC7A0D9 PUSH1 0xE1 SHL DUP6 MSTORE CALLER SWAP1 DUP6 ADD PUSH2 0x1785 JUMP JUMPDEST SUB SWAP1 REVERT JUMPDEST POP CALLVALUE PUSH2 0x3EF JUMPI DUP2 PUSH1 0x3 NOT CALLDATASIZE ADD SLT PUSH2 0x3EF JUMPI MLOAD PUSH8 0x14ADF4B7320334B9 PUSH1 0x1D SHL DUP2 MSTORE PUSH1 0x20 SWAP1 RETURN JUMPDEST POP CALLVALUE PUSH2 0x3EF JUMPI DUP2 PUSH1 0x3 NOT CALLDATASIZE ADD SLT PUSH2 0x3EF JUMPI PUSH1 0x20 SWAP1 PUSH1 0x2 SLOAD SWAP1 MLOAD SWAP1 DUP2 MSTORE RETURN JUMPDEST POP CALLVALUE PUSH2 0x3EF JUMPI DUP2 PUSH1 0x3 NOT CALLDATASIZE ADD SLT PUSH2 0x3EF JUMPI PUSH1 0x20 SWAP1 PUSH1 0xF SLOAD SWAP1 MLOAD SWAP1 DUP2 MSTORE RETURN JUMPDEST POP CALLVALUE PUSH2 0x3EF JUMPI DUP1 PUSH1 0x3 NOT CALLDATASIZE ADD SLT PUSH2 0x3EF JUMPI PUSH1 0x20 SWAP1 PUSH2 0x8A8 PUSH2 0x1238 PUSH2 0x13D4 JUMP JUMPDEST PUSH1 0x24 CALLDATALOAD SWAP1 CALLER PUSH2 0x16F2 JUMP JUMPDEST POP CALLVALUE PUSH2 0x3EF JUMPI DUP2 PUSH1 0x3 NOT CALLDATASIZE ADD SLT PUSH2 0x3EF JUMPI PUSH1 0x20 SWAP1 PUSH2 0x53F PUSH2 0x1265 PUSH1 0xB SLOAD TIMESTAMP PUSH2 0x184E JUMP JUMPDEST PUSH2 0x1274 PUSH1 0xA SLOAD SWAP2 PUSH1 0xC SLOAD PUSH2 0x181B JUMP JUMPDEST SWAP1 PUSH2 0x1421 JUMP JUMPDEST POP DUP3 SWAP1 CALLVALUE PUSH2 0x3EB JUMPI DUP3 PUSH1 0x3 NOT CALLDATASIZE ADD SLT PUSH2 0x3EB JUMPI DUP1 MLOAD SWAP2 DUP4 PUSH1 0x3 SLOAD SWAP1 PUSH1 0x1 SWAP1 DUP3 DUP3 SHR SWAP3 DUP3 DUP2 AND DUP1 ISZERO PUSH2 0x1347 JUMPI JUMPDEST PUSH1 0x20 SWAP6 DUP7 DUP7 LT DUP3 EQ PUSH2 0x1334 JUMPI POP DUP5 DUP9 MSTORE SWAP1 DUP2 ISZERO PUSH2 0x1312 JUMPI POP PUSH1 0x1 EQ PUSH2 0x12D7 JUMPI JUMPDEST PUSH2 0xA31 DUP7 DUP7 PUSH2 0xA27 DUP3 DUP12 SUB DUP4 PUSH2 0x1444 JUMP JUMPDEST SWAP3 SWAP6 POP PUSH1 0x3 DUP4 MSTORE DUP6 DUP4 KECCAK256 JUMPDEST DUP3 DUP5 LT PUSH2 0x12FF JUMPI POP POP POP DUP3 PUSH2 0xA31 SWAP5 PUSH2 0xA27 SWAP3 DUP3 ADD ADD SWAP5 DUP7 PUSH2 0x12C6 JUMP JUMPDEST DUP1 SLOAD DUP7 DUP6 ADD DUP9 ADD MSTORE SWAP3 DUP7 ADD SWAP3 DUP2 ADD PUSH2 0x12E2 JUMP JUMPDEST PUSH1 0xFF NOT AND DUP8 DUP7 ADD MSTORE POP POP POP ISZERO ISZERO PUSH1 0x5 SHL DUP4 ADD ADD SWAP3 POP PUSH2 0xA27 DUP3 PUSH2 0xA31 DUP7 PUSH2 0x12C6 JUMP JUMPDEST PUSH4 0x4E487B71 PUSH1 0xE0 SHL DUP5 MSTORE PUSH1 0x22 SWAP1 MSTORE PUSH1 0x24 DUP4 REVERT JUMPDEST SWAP4 PUSH1 0x7F AND SWAP4 PUSH2 0x12A6 JUMP JUMPDEST POP CALLVALUE PUSH2 0x3EF JUMPI DUP2 PUSH1 0x3 NOT CALLDATASIZE ADD SLT PUSH2 0x3EF JUMPI PUSH1 0x20 SWAP1 PUSH1 0x7 SLOAD SWAP1 MLOAD SWAP1 DUP2 MSTORE RETURN JUMPDEST DUP4 SWAP1 CALLVALUE PUSH2 0x3EF JUMPI DUP2 PUSH1 0x3 NOT CALLDATASIZE ADD SLT PUSH2 0x3EF JUMPI DUP1 PUSH2 0xDEAD PUSH1 0x20 SWAP3 MSTORE RETURN JUMPDEST PUSH1 0x20 DUP1 DUP3 MSTORE DUP3 MLOAD DUP2 DUP4 ADD DUP2 SWAP1 MSTORE SWAP1 SWAP4 SWAP3 PUSH1 0x0 JUMPDEST DUP3 DUP2 LT PUSH2 0x13C0 JUMPI POP POP PUSH1 0x40 SWAP3 SWAP4 POP PUSH1 0x0 DUP4 DUP3 DUP5 ADD ADD MSTORE PUSH1 0x1F DUP1 NOT SWAP2 ADD AND ADD ADD SWAP1 JUMP JUMPDEST DUP2 DUP2 ADD DUP7 ADD MLOAD DUP5 DUP3 ADD PUSH1 0x40 ADD MSTORE DUP6 ADD PUSH2 0x139E JUMP JUMPDEST PUSH1 0x4 CALLDATALOAD SWAP1 PUSH1 0x1 PUSH1 0x1 PUSH1 0xA0 SHL SUB DUP3 AND DUP3 SUB PUSH2 0x13EA JUMPI JUMP JUMPDEST PUSH1 0x0 DUP1 REVERT JUMPDEST PUSH1 0x24 CALLDATALOAD SWAP1 PUSH1 0x1 PUSH1 0x1 PUSH1 0xA0 SHL SUB DUP3 AND DUP3 SUB PUSH2 0x13EA JUMPI JUMP JUMPDEST CALLVALUE PUSH2 0x13EA JUMPI PUSH1 0x0 CALLDATASIZE PUSH1 0x3 NOT ADD SLT PUSH2 0x13EA JUMPI PUSH1 0x20 PUSH1 0x40 MLOAD PUSH1 0x96 DUP2 MSTORE RETURN JUMPDEST SWAP2 SWAP1 DUP3 ADD DUP1 SWAP3 GT PUSH2 0x142E JUMPI JUMP JUMPDEST PUSH4 0x4E487B71 PUSH1 0xE0 SHL PUSH1 0x0 MSTORE PUSH1 0x11 PUSH1 0x4 MSTORE PUSH1 0x24 PUSH1 0x0 REVERT JUMPDEST PUSH1 0x1F SWAP1 SWAP2 ADD PUSH1 0x1F NOT AND DUP2 ADD SWAP1 PUSH1 0x1 PUSH1 0x1 PUSH1 0x40 SHL SUB DUP3 GT SWAP1 DUP3 LT OR PUSH2 0x1467 JUMPI PUSH1 0x40 MSTORE JUMP JUMPDEST PUSH4 0x4E487B71 PUSH1 0xE0 SHL PUSH1 0x0 MSTORE PUSH1 0x41 PUSH1 0x4 MSTORE PUSH1 0x24 PUSH1 0x0 REVERT JUMPDEST PUSH1 0x1 PUSH1 0x1 PUSH1 0xA0 SHL SUB SWAP3 SWAP2 DUP4 DUP3 AND SWAP2 SWAP1 DUP3 ISZERO PUSH2 0x16D9 JUMPI DUP5 DUP2 AND SWAP2 DUP3 ISZERO PUSH2 0x16C0 JUMPI DUP5 SWAP3 PUSH2 0x14A7 DUP3 PUSH2 0x1AD1 JUMP JUMPDEST PUSH2 0x14B0 DUP4 PUSH2 0x1AD1 JUMP JUMPDEST PUSH1 0x5 SLOAD SWAP6 DUP8 PUSH1 0xFF SWAP8 DUP9 DUP2 AND DUP1 PUSH2 0x16B4 JUMPI JUMPDEST DUP1 PUSH2 0x169C JUMPI JUMPDEST DUP1 PUSH2 0x1684 JUMPI JUMPDEST PUSH2 0x1563 JUMPI JUMPDEST POP POP POP POP DUP1 PUSH2 0xCD2 PUSH2 0x14E8 SWAP5 DUP5 PUSH2 0xCD2 SWAP5 PUSH2 0x1919 JUMP JUMPDEST PUSH1 0x5 SLOAD DUP3 DUP2 AND SWAP3 DUP4 PUSH2 0x1556 JUMPI JUMPDEST POP DUP3 PUSH2 0x1546 JUMPI JUMPDEST POP POP SWAP1 DUP2 PUSH2 0x152A JUMPI JUMPDEST DUP2 PUSH2 0x151C JUMPI JUMPDEST POP PUSH2 0x1512 JUMPI JUMP JUMPDEST PUSH2 0x151A PUSH2 0x2056 JUMP JUMPDEST JUMP JUMPDEST SWAP1 POP PUSH1 0x6 SLOAD AND ISZERO ISZERO CODESIZE PUSH2 0x150B JUMP JUMPDEST SWAP1 POP ADDRESS PUSH1 0x0 MSTORE PUSH1 0x0 PUSH1 0x20 MSTORE PUSH1 0x40 PUSH1 0x0 KECCAK256 SLOAD PUSH1 0x7 SLOAD GT ISZERO SWAP1 PUSH2 0x1505 JUMP JUMPDEST PUSH1 0x8 SHR DUP4 AND EQ ISZERO SWAP1 POP CODESIZE DUP1 PUSH2 0x14FC JUMP JUMPDEST PUSH1 0x8 SLOAD AND ISZERO SWAP3 POP CODESIZE PUSH2 0x14F5 JUMP JUMPDEST PUSH1 0x8 SHR AND DUP3 DUP2 EQ SWAP2 SWAP1 DUP8 EQ DUP1 DUP1 ISZERO PUSH2 0x167D JUMPI JUMPDEST PUSH2 0x1583 JUMPI JUMPDEST DUP10 SWAP2 POP PUSH2 0x14D2 JUMP JUMPDEST SWAP1 SWAP2 SWAP4 SWAP3 SWAP6 POP PUSH1 0x0 SWAP4 PUSH2 0x166C JUMPI JUMPDEST PUSH2 0x1F4 SWAP4 DUP5 ADD DUP1 SWAP5 GT PUSH2 0x142E JUMPI PUSH2 0x15AE SWAP4 PUSH2 0x2710 SWAP5 DUP6 SWAP2 DUP5 PUSH2 0x181B JUMP JUMPDEST DIV SWAP6 PUSH1 0x96 DUP4 MUL DUP4 DUP2 DIV PUSH1 0x96 EQ DUP5 ISZERO OR ISZERO PUSH2 0x142E JUMPI PUSH1 0x0 DUP1 MLOAD PUSH1 0x20 PUSH2 0x2556 DUP4 CODECOPY DUP2 MLOAD SWAP2 MSTORE PUSH1 0x60 PUSH2 0xCD2 SWAP6 PUSH2 0x1602 PUSH2 0x14E8 SWAP12 PUSH2 0xCD2 SWAP11 DUP15 SWAP7 DIV SWAP3 DUP4 PUSH2 0x165D JUMPI JUMPDEST PUSH2 0x15F6 DUP5 DUP4 PUSH2 0x184E JUMP JUMPDEST DUP1 PUSH2 0x164C JUMPI JUMPDEST POP PUSH2 0x184E JUMP JUMPDEST SWAP6 PUSH2 0x1625 JUMPI JUMPDEST PUSH1 0x40 MLOAD SWAP1 DUP2 MSTORE PUSH1 0x0 PUSH1 0x20 DUP3 ADD MSTORE PUSH1 0x0 PUSH1 0x40 DUP3 ADD MSTORE LOG3 SWAP5 DUP3 SWAP4 PUSH2 0x157B JUMP JUMPDEST PUSH1 0x0 DUP6 DUP2 MSTORE PUSH1 0x9 PUSH1 0x20 MSTORE PUSH1 0x40 SWAP1 KECCAK256 PUSH2 0x1647 SWAP1 TIMESTAMP PUSH1 0x1 PUSH1 0x1 PUSH1 0x40 SHL SUB AND SWAP1 PUSH2 0x185B JUMP JUMPDEST PUSH2 0x1608 JUMP JUMPDEST PUSH2 0x1657 SWAP1 ADDRESS DUP14 PUSH2 0x1919 JUMP JUMPDEST CODESIZE PUSH2 0x15FC JUMP JUMPDEST PUSH2 0x1667 DUP5 DUP13 PUSH2 0x187E JUMP JUMPDEST PUSH2 0x15EC JUMP JUMPDEST SWAP3 POP PUSH2 0x1677 DUP3 PUSH2 0x1FF7 JUMP JUMPDEST SWAP3 PUSH2 0x1591 JUMP JUMPDEST POP DUP3 PUSH2 0x1576 JUMP JUMPDEST POP DUP4 PUSH1 0x0 MSTORE PUSH1 0xE PUSH1 0x20 MSTORE DUP9 PUSH1 0x40 PUSH1 0x0 KECCAK256 SLOAD AND ISZERO PUSH2 0x14CD JUMP JUMPDEST POP DUP8 PUSH1 0x0 MSTORE PUSH1 0xE PUSH1 0x20 MSTORE DUP9 PUSH1 0x40 PUSH1 0x0 KECCAK256 SLOAD AND ISZERO PUSH2 0x14C7 JUMP JUMPDEST POP DUP9 PUSH1 0x8 SLOAD AND ISZERO PUSH2 0x14C1 JUMP JUMPDEST PUSH1 0x40 MLOAD PUSH4 0xEC442F05 PUSH1 0xE0 SHL DUP2 MSTORE PUSH1 0x0 PUSH1 0x4 DUP3 ADD MSTORE PUSH1 0x24 SWAP1 REVERT JUMPDEST PUSH1 0x40 MLOAD PUSH4 0x4B637E8F PUSH1 0xE1 SHL DUP2 MSTORE PUSH1 0x0 PUSH1 0x4 DUP3 ADD MSTORE PUSH1 0x24 SWAP1 REVERT JUMPDEST PUSH1 0x1 PUSH1 0x1 PUSH1 0xA0 SHL SUB SWAP1 DUP2 AND SWAP2 DUP3 ISZERO PUSH2 0x176C JUMPI AND SWAP2 DUP3 ISZERO PUSH2 0x1753 JUMPI PUSH1 0x20 PUSH32 0x8C5BE1E5EBEC7D5BD14F71427D1E84F3DD0314C0F7B2291E5B200AC8C7C3B925 SWAP2 DUP4 PUSH1 0x0 MSTORE PUSH1 0x1 DUP3 MSTORE PUSH1 0x40 PUSH1 0x0 KECCAK256 DUP6 PUSH1 0x0 MSTORE DUP3 MSTORE DUP1 PUSH1 0x40 PUSH1 0x0 KECCAK256 SSTORE PUSH1 0x40 MLOAD SWAP1 DUP2 MSTORE LOG3 JUMP JUMPDEST PUSH1 0x40 MLOAD PUSH4 0x4A1406B1 PUSH1 0xE1 SHL DUP2 MSTORE PUSH1 0x0 PUSH1 0x4 DUP3 ADD MSTORE PUSH1 0x24 SWAP1 REVERT JUMPDEST PUSH1 0x40 MLOAD PUSH4 0xE602DF05 PUSH1 0xE0 SHL DUP2 MSTORE PUSH1 0x0 PUSH1 0x4 DUP3 ADD MSTORE PUSH1 0x24 SWAP1 REVERT JUMPDEST PUSH1 0x40 SWAP2 SWAP5 SWAP4 SWAP3 PUSH1 0x60 DUP3 ADD SWAP6 PUSH1 0x1 DUP1 PUSH1 0xA0 SHL SUB AND DUP3 MSTORE PUSH1 0x20 DUP3 ADD MSTORE ADD MSTORE JUMP JUMPDEST ISZERO PUSH2 0x17AA JUMPI JUMP JUMPDEST PUSH1 0x40 MLOAD PUSH3 0x461BCD PUSH1 0xE5 SHL DUP2 MSTORE PUSH1 0x20 PUSH1 0x4 DUP3 ADD MSTORE PUSH1 0xA PUSH1 0x24 DUP3 ADD MSTORE PUSH10 0x4F6E6C79206375727665 PUSH1 0xB0 SHL PUSH1 0x44 DUP3 ADD MSTORE PUSH1 0x64 SWAP1 REVERT JUMPDEST RETURNDATASIZE ISZERO PUSH2 0x1816 JUMPI RETURNDATASIZE SWAP1 PUSH1 0x1 PUSH1 0x1 PUSH1 0x40 SHL SUB DUP3 GT PUSH2 0x1467 JUMPI PUSH1 0x40 MLOAD SWAP2 PUSH2 0x180A PUSH1 0x1F DUP3 ADD PUSH1 0x1F NOT AND PUSH1 0x20 ADD DUP5 PUSH2 0x1444 JUMP JUMPDEST DUP3 MSTORE RETURNDATASIZE PUSH1 0x0 PUSH1 0x20 DUP5 ADD RETURNDATACOPY JUMP JUMPDEST PUSH1 0x60 SWAP1 JUMP JUMPDEST DUP2 DUP2 MUL SWAP3 SWAP2 DUP2 ISZERO SWAP2 DUP5 DIV EQ OR ISZERO PUSH2 0x142E JUMPI JUMP JUMPDEST DUP2 ISZERO PUSH2 0x1838 JUMPI DIV SWAP1 JUMP JUMPDEST PUSH4 0x4E487B71 PUSH1 0xE0 SHL PUSH1 0x0 MSTORE PUSH1 0x12 PUSH1 0x4 MSTORE PUSH1 0x24 PUSH1 0x0 REVERT JUMPDEST SWAP2 SWAP1 DUP3 SUB SWAP2 DUP3 GT PUSH2 0x142E JUMPI JUMP JUMPDEST DUP1 SLOAD PUSH1 0x1 PUSH1 0x1 PUSH1 0xC0 SHL SUB AND PUSH1 0xC0 SWAP3 SWAP1 SWAP3 SHL PUSH1 0x1 PUSH1 0x1 PUSH1 0xC0 SHL SUB NOT AND SWAP2 SWAP1 SWAP2 OR SWAP1 SSTORE JUMP JUMPDEST PUSH1 0x1 PUSH1 0x1 PUSH1 0xA0 SHL SUB DUP2 AND SWAP1 DUP2 PUSH2 0x18D0 JUMPI POP PUSH2 0x189B DUP3 PUSH1 0x2 SLOAD PUSH2 0x1421 JUMP JUMPDEST PUSH1 0x2 SSTORE JUMPDEST PUSH1 0x0 DUP1 MLOAD PUSH1 0x20 PUSH2 0x2536 DUP4 CODECOPY DUP2 MLOAD SWAP2 MSTORE PUSH1 0x20 PUSH2 0xDEAD SWAP4 DUP5 PUSH1 0x0 MSTORE PUSH1 0x0 DUP3 MSTORE PUSH1 0x40 PUSH1 0x0 KECCAK256 DUP2 DUP2 SLOAD ADD SWAP1 SSTORE PUSH1 0x40 MLOAD SWAP1 DUP2 MSTORE LOG3 JUMP JUMPDEST PUSH1 0x0 SWAP1 DUP3 DUP3 MSTORE DUP2 PUSH1 0x20 MSTORE PUSH1 0x40 DUP3 KECCAK256 SLOAD SWAP1 DUP5 DUP3 LT PUSH2 0x18FC JUMPI POP DUP4 PUSH1 0x40 SWAP2 DUP5 DUP5 MSTORE DUP4 PUSH1 0x20 MSTORE SUB SWAP2 KECCAK256 SSTORE PUSH2 0x189F JUMP JUMPDEST PUSH2 0x11B4 DUP6 PUSH1 0x40 MLOAD SWAP4 DUP5 SWAP4 PUSH4 0x391434E3 PUSH1 0xE2 SHL DUP6 MSTORE PUSH1 0x4 DUP6 ADD PUSH2 0x1785 JUMP JUMPDEST PUSH1 0x1 PUSH1 0x1 PUSH1 0xA0 SHL SUB DUP1 DUP3 AND SWAP3 SWAP1 SWAP2 DUP4 PUSH2 0x1981 JUMPI POP PUSH1 0x0 DUP1 MLOAD PUSH1 0x20 PUSH2 0x2536 DUP4 CODECOPY DUP2 MLOAD SWAP2 MSTORE SWAP2 PUSH1 0x20 SWAP2 PUSH2 0x194C DUP7 PUSH1 0x2 SLOAD PUSH2 0x1421 JUMP JUMPDEST PUSH1 0x2 SSTORE JUMPDEST AND SWAP4 DUP5 PUSH2 0x1969 JUMPI DUP1 PUSH1 0x2 SLOAD SUB PUSH1 0x2 SSTORE JUMPDEST PUSH1 0x40 MLOAD SWAP1 DUP2 MSTORE LOG3 JUMP JUMPDEST DUP5 PUSH1 0x0 MSTORE PUSH1 0x0 DUP3 MSTORE PUSH1 0x40 PUSH1 0x0 KECCAK256 DUP2 DUP2 SLOAD ADD SWAP1 SSTORE PUSH2 0x1960 JUMP JUMPDEST PUSH1 0x0 SWAP1 DUP5 DUP3 MSTORE DUP2 PUSH1 0x20 MSTORE PUSH1 0x40 DUP3 KECCAK256 SLOAD SWAP1 DUP7 DUP3 LT PUSH2 0x19C0 JUMPI POP SWAP2 DUP2 PUSH1 0x40 DUP8 PUSH1 0x20 SWAP6 DUP9 PUSH1 0x0 DUP1 MLOAD PUSH1 0x20 PUSH2 0x2536 DUP4 CODECOPY DUP2 MLOAD SWAP2 MSTORE SWAP9 SWAP7 MSTORE DUP4 DUP8 MSTORE SUB SWAP2 KECCAK256 SSTORE PUSH2 0x1950 JUMP JUMPDEST PUSH2 0x11B4 DUP8 PUSH1 0x40 MLOAD SWAP4 DUP5 SWAP4 PUSH4 0x391434E3 PUSH1 0xE2 SHL DUP6 MSTORE PUSH1 0x4 DUP6 ADD PUSH2 0x1785 JUMP JUMPDEST DUP1 SLOAD PUSH1 0x1 PUSH1 0x80 SHL PUSH1 0x1 PUSH1 0xC0 SHL SUB NOT AND PUSH1 0x80 SWAP3 SWAP1 SWAP3 SHL PUSH1 0x1 PUSH1 0x80 SHL PUSH1 0x1 PUSH1 0xC0 SHL SUB AND SWAP2 SWAP1 SWAP2 OR SWAP1 SSTORE JUMP JUMPDEST PUSH2 0x1A0E PUSH2 0x1B1C JUMP JUMPDEST ISZERO PUSH2 0x151A JUMPI PUSH2 0xDEAD PUSH1 0x0 MSTORE PUSH1 0x9 PUSH1 0x20 MSTORE PUSH1 0x0 DUP1 MLOAD PUSH1 0x20 PUSH2 0x24D6 DUP4 CODECOPY DUP2 MLOAD SWAP2 MSTORE DUP1 SLOAD PUSH2 0x151A SWAP2 SWAP1 PUSH1 0x1 PUSH1 0x1 PUSH1 0x40 SHL SUB SWAP1 PUSH2 0x1A6C PUSH2 0x1A50 PUSH1 0x80 DUP4 SWAP1 SHR DUP5 AND TIMESTAMP PUSH2 0x184E JUMP JUMPDEST PUSH1 0x1 DUP6 ADD DUP1 SLOAD SWAP1 SWAP4 SWAP1 SWAP2 PUSH2 0x1274 SWAP2 PUSH1 0x1 PUSH1 0x1 PUSH1 0x80 SHL SUB AND PUSH2 0x181B JUMP JUMPDEST SWAP1 PUSH1 0xD SLOAD PUSH2 0x1A80 PUSH1 0x2 DUP7 ADD SWAP2 DUP3 SLOAD SWAP1 PUSH2 0x184E JUMP JUMPDEST DUP1 ISZERO ISZERO DUP1 PUSH2 0x1AC8 JUMPI JUMPDEST PUSH2 0x1A9D JUMPI JUMPDEST POP PUSH1 0xD SLOAD SWAP1 SSTORE SSTORE TIMESTAMP AND SWAP1 PUSH2 0x19DD JUMP JUMPDEST PUSH2 0x1AB0 PUSH8 0xDE0B6B3A7640000 SWAP2 DUP6 PUSH2 0x181B JUMP JUMPDEST DIV PUSH2 0x1AC0 PUSH1 0x3 DUP8 ADD SWAP2 DUP3 SLOAD PUSH2 0x1421 JUMP JUMPDEST SWAP1 SSTORE CODESIZE PUSH2 0x1A8E JUMP JUMPDEST POP DUP4 ISZERO ISZERO PUSH2 0x1A89 JUMP JUMPDEST PUSH2 0x1ADA DUP2 PUSH2 0x1B8B JUMP JUMPDEST ISZERO PUSH2 0x1B19 JUMPI PUSH1 0x1 PUSH1 0x1 PUSH1 0xA0 SHL SUB AND PUSH1 0x0 SWAP1 DUP2 MSTORE PUSH1 0x9 PUSH1 0x20 MSTORE PUSH1 0x40 SWAP1 KECCAK256 DUP1 SLOAD PUSH2 0x151A SWAP2 SWAP1 PUSH1 0x1 PUSH1 0x1 PUSH1 0x40 SHL SUB SWAP1 PUSH2 0x1A6C PUSH2 0x1A50 PUSH1 0x80 DUP4 SWAP1 SHR DUP5 AND TIMESTAMP PUSH2 0x184E JUMP JUMPDEST POP JUMP JUMPDEST PUSH2 0xDEAD PUSH1 0x0 DUP2 SWAP1 MSTORE PUSH1 0xE PUSH1 0x20 MSTORE PUSH32 0xF77E91909E61D18F67B875B2BFCAE1F683A8D555E55382E3A6B082E2C59EA57A SLOAD PUSH1 0xFF AND PUSH2 0x1B85 JUMPI PUSH1 0x5 SLOAD PUSH1 0x8 SHR PUSH1 0x1 PUSH1 0x1 PUSH1 0xA0 SHL SUB AND DUP1 ISZERO ISZERO SWAP2 DUP3 PUSH2 0x1B7B JUMPI JUMPDEST POP POP PUSH2 0x1B76 JUMPI PUSH1 0x1 SWAP1 JUMP JUMPDEST PUSH1 0x0 SWAP1 JUMP JUMPDEST EQ SWAP1 POP CODESIZE DUP1 PUSH2 0x1B6B JUMP JUMPDEST POP PUSH1 0x0 SWAP1 JUMP JUMPDEST PUSH1 0x1 PUSH1 0x1 PUSH1 0xA0 SHL SUB SWAP1 DUP2 AND SWAP1 DUP2 ISZERO PUSH2 0x1BCE JUMPI DUP2 PUSH1 0x0 MSTORE PUSH1 0xE PUSH1 0x20 MSTORE PUSH1 0xFF PUSH1 0x40 PUSH1 0x0 KECCAK256 SLOAD AND PUSH2 0x1BCE JUMPI PUSH1 0x5 SLOAD PUSH1 0x8 SHR AND DUP1 ISZERO ISZERO SWAP2 DUP3 PUSH2 0x1B7B JUMPI POP POP PUSH2 0x1B76 JUMPI PUSH1 0x1 SWAP1 JUMP JUMPDEST POP POP PUSH1 0x0 SWAP1 JUMP JUMPDEST PUSH2 0x1BDD PUSH2 0x1B1C JUMP JUMPDEST ISZERO PUSH2 0x151A JUMPI PUSH2 0xDEAD PUSH1 0x0 DUP2 DUP2 MSTORE PUSH1 0x9 PUSH1 0x20 MSTORE PUSH1 0x0 DUP1 MLOAD PUSH1 0x20 PUSH2 0x24D6 DUP4 CODECOPY DUP2 MLOAD SWAP2 MSTORE SWAP2 PUSH2 0x1C07 PUSH2 0x1EF2 JUMP JUMPDEST DUP2 MSTORE PUSH1 0x20 DUP2 SWAP1 MSTORE PUSH1 0x40 DUP2 KECCAK256 SLOAD DUP3 SLOAD PUSH1 0x1 PUSH1 0x1 PUSH1 0x80 SHL SUB SWAP1 DUP2 AND DUP1 DUP4 LT SWAP4 SWAP2 SWAP3 SWAP2 SWAP1 DUP5 DUP1 PUSH2 0x1D6C JUMPI JUMPDEST PUSH2 0x1D1F JUMPI JUMPDEST DUP3 DUP2 DUP2 GT SWAP6 DUP7 PUSH1 0x0 EQ PUSH2 0x1CE3 JUMPI POP PUSH2 0x1C59 SWAP3 POP SWAP1 PUSH2 0x1C51 SWAP2 PUSH2 0x184E JUMP JUMPDEST PUSH1 0xC SLOAD PUSH2 0x1421 JUMP JUMPDEST PUSH1 0xC SSTORE JUMPDEST DUP4 SLOAD PUSH1 0x1 PUSH1 0x1 PUSH1 0x80 SHL SUB NOT AND SWAP2 AND OR DUP3 SSTORE TIMESTAMP PUSH1 0x1 PUSH1 0x1 PUSH1 0x40 SHL SUB AND SWAP1 PUSH2 0x1C83 DUP3 DUP5 PUSH2 0x19DD JUMP JUMPDEST PUSH1 0xFF PUSH1 0x5 SLOAD AND ISZERO SWAP1 DUP2 PUSH2 0x1CDB JUMPI JUMPDEST POP DUP1 PUSH2 0x1CA9 JUMPI JUMPDEST PUSH2 0x1CA0 JUMPI POP POP JUMP JUMPDEST PUSH2 0x151A SWAP2 PUSH2 0x185B JUMP JUMPDEST POP CALLER PUSH32 0x0 PUSH1 0x1 PUSH1 0x1 PUSH1 0xA0 SHL SUB AND EQ PUSH2 0x1C98 JUMP JUMPDEST SWAP1 POP CODESIZE PUSH2 0x1C91 JUMP JUMPDEST PUSH2 0x1CF0 JUMPI JUMPDEST POP POP POP PUSH2 0x1C5D JUMP JUMPDEST PUSH2 0x1CF9 SWAP2 PUSH2 0x184E JUMP JUMPDEST PUSH1 0xC SLOAD DUP2 DUP2 LT PUSH2 0x1D18 JUMPI PUSH2 0x1D0D SWAP3 POP PUSH2 0x184E JUMP JUMPDEST PUSH1 0xC SSTORE CODESIZE DUP1 DUP3 PUSH2 0x1CE8 JUMP JUMPDEST POP POP PUSH2 0x1D0D JUMP JUMPDEST PUSH1 0x1 DUP7 ADD DUP1 SLOAD SWAP1 PUSH2 0x1D43 PUSH2 0x1D3C DUP5 PUSH2 0x1D37 DUP9 DUP7 PUSH2 0x181B JUMP JUMPDEST PUSH2 0x182E JUMP JUMPDEST DUP1 SWAP4 PUSH2 0x184E JUMP JUMPDEST PUSH1 0xA SLOAD DUP2 GT PUSH2 0x1D62 JUMPI PUSH2 0x1D58 SWAP1 PUSH1 0xA SLOAD PUSH2 0x184E JUMP JUMPDEST PUSH1 0xA SSTORE JUMPDEST SSTORE PUSH2 0x1C34 JUMP JUMPDEST POP DUP4 PUSH1 0xA SSTORE PUSH2 0x1D5C JUMP JUMPDEST POP DUP1 ISZERO ISZERO PUSH2 0x1C2F JUMP JUMPDEST PUSH2 0x1D7E DUP2 PUSH2 0x1B8B JUMP JUMPDEST ISZERO PUSH2 0x1B19 JUMPI PUSH1 0x1 PUSH1 0x1 PUSH1 0xA0 SHL SUB SWAP1 DUP2 AND PUSH1 0x0 DUP2 DUP2 MSTORE PUSH1 0x9 PUSH1 0x20 MSTORE PUSH1 0x40 DUP2 KECCAK256 SWAP3 SWAP2 PUSH2 0x1DA6 PUSH2 0x1EF2 JUMP JUMPDEST DUP2 MSTORE PUSH1 0x20 DUP2 SWAP1 MSTORE PUSH1 0x40 DUP2 KECCAK256 SLOAD DUP4 SLOAD PUSH1 0x1 PUSH1 0x1 PUSH1 0x80 SHL SUB SWAP1 DUP2 AND DUP1 DUP4 LT SWAP4 SWAP2 SWAP3 SWAP2 SWAP1 DUP5 DUP1 PUSH2 0x1EE9 JUMPI JUMPDEST PUSH2 0x1EA8 JUMPI JUMPDEST DUP3 DUP2 DUP2 GT SWAP6 DUP7 PUSH1 0x0 EQ PUSH2 0x1E6C JUMPI POP PUSH2 0x1DF0 SWAP3 POP SWAP1 PUSH2 0x1C51 SWAP2 PUSH2 0x184E JUMP JUMPDEST PUSH1 0xC SSTORE JUMPDEST DUP5 SLOAD PUSH1 0x1 PUSH1 0x1 PUSH1 0x80 SHL SUB NOT AND SWAP2 AND OR DUP4 SSTORE TIMESTAMP PUSH1 0x1 PUSH1 0x1 PUSH1 0x40 SHL SUB AND SWAP2 PUSH2 0x1E1A DUP4 DUP6 PUSH2 0x19DD JUMP JUMPDEST PUSH1 0xFF PUSH1 0x5 SLOAD AND ISZERO SWAP2 DUP3 PUSH2 0x1E64 JUMPI JUMPDEST POP DUP2 PUSH2 0x1E38 JUMPI JUMPDEST POP PUSH2 0x1CA0 JUMPI POP POP JUMP JUMPDEST SWAP1 POP PUSH32 0x0 AND CALLER EQ CODESIZE PUSH2 0x1E2F JUMP JUMPDEST SWAP2 POP CODESIZE PUSH2 0x1E28 JUMP JUMPDEST PUSH2 0x1E79 JUMPI JUMPDEST POP POP POP PUSH2 0x1DF4 JUMP JUMPDEST PUSH2 0x1E82 SWAP2 PUSH2 0x184E JUMP JUMPDEST PUSH1 0xC SLOAD DUP2 DUP2 LT PUSH2 0x1EA1 JUMPI PUSH2 0x1E96 SWAP3 POP PUSH2 0x184E JUMP JUMPDEST PUSH1 0xC SSTORE CODESIZE DUP1 DUP3 PUSH2 0x1E71 JUMP JUMPDEST POP POP PUSH2 0x1E96 JUMP JUMPDEST PUSH1 0x1 DUP8 ADD DUP1 SLOAD SWAP1 PUSH2 0x1EC0 PUSH2 0x1D3C DUP5 PUSH2 0x1D37 DUP9 DUP7 PUSH2 0x181B JUMP JUMPDEST PUSH1 0xA SLOAD DUP2 GT PUSH2 0x1EDF JUMPI PUSH2 0x1ED5 SWAP1 PUSH1 0xA SLOAD PUSH2 0x184E JUMP JUMPDEST PUSH1 0xA SSTORE JUMPDEST SSTORE PUSH2 0x1DD3 JUMP JUMPDEST POP DUP4 PUSH1 0xA SSTORE PUSH2 0x1ED9 JUMP JUMPDEST POP DUP1 ISZERO ISZERO PUSH2 0x1DCE JUMP JUMPDEST PUSH2 0x1EFE PUSH1 0xB SLOAD TIMESTAMP PUSH2 0x184E JUMP JUMPDEST DUP1 ISZERO ISZERO DUP1 PUSH2 0x1F33 JUMPI JUMPDEST PUSH2 0x1F13 JUMPI JUMPDEST POP TIMESTAMP PUSH1 0xB SSTORE JUMP JUMPDEST PUSH2 0x1F22 PUSH2 0x1F2A SWAP2 PUSH1 0xC SLOAD PUSH2 0x181B JUMP JUMPDEST PUSH1 0xA SLOAD PUSH2 0x1421 JUMP JUMPDEST PUSH1 0xA SSTORE CODESIZE PUSH2 0x1F0C JUMP JUMPDEST POP PUSH1 0xC SLOAD ISZERO ISZERO PUSH2 0x1F07 JUMP JUMPDEST DUP1 ISZERO PUSH2 0x1B19 JUMPI PUSH2 0x1F4C PUSH2 0x1EF2 JUMP JUMPDEST PUSH1 0xA SLOAD SWAP1 DUP2 ISZERO PUSH2 0x1FC4 JUMPI PUSH2 0x1F63 PUSH1 0xF SLOAD DUP1 SWAP3 PUSH2 0x1421 JUMP JUMPDEST SWAP1 PUSH2 0x1FBA JUMPI JUMPDEST PUSH8 0xDE0B6B3A7640000 SWAP1 DUP2 DUP2 MUL SWAP2 DUP2 DUP4 DIV EQ DUP2 ISZERO OR ISZERO PUSH2 0x142E JUMPI PUSH2 0x1FA9 PUSH2 0x1FA1 PUSH1 0x0 DUP1 MLOAD PUSH1 0x20 PUSH2 0x2516 DUP4 CODECOPY DUP2 MLOAD SWAP2 MSTORE SWAP5 PUSH1 0x40 SWAP5 PUSH2 0x182E JUMP JUMPDEST PUSH1 0xD SLOAD PUSH2 0x1421 JUMP JUMPDEST DUP1 PUSH1 0xD SSTORE DUP3 MLOAD SWAP2 DUP3 MSTORE PUSH1 0x20 DUP3 ADD MSTORE LOG1 JUMP JUMPDEST PUSH1 0x0 PUSH1 0xF SSTORE PUSH2 0x1F69 JUMP JUMPDEST PUSH1 0x0 DUP1 MLOAD PUSH1 0x20 PUSH2 0x2516 DUP4 CODECOPY DUP2 MLOAD SWAP2 MSTORE SWAP2 POP DUP1 PUSH2 0x1FE4 PUSH1 0x40 SWAP3 PUSH1 0xF SLOAD PUSH2 0x1421 JUMP JUMPDEST PUSH1 0xF SSTORE PUSH1 0xD SLOAD DUP3 MLOAD SWAP2 DUP3 MSTORE PUSH1 0x20 DUP3 ADD MSTORE LOG1 JUMP JUMPDEST PUSH1 0x1 PUSH1 0x1 PUSH1 0xA0 SHL SUB AND PUSH1 0x0 SWAP1 DUP2 MSTORE PUSH1 0x9 PUSH1 0x20 MSTORE PUSH1 0x40 SWAP1 KECCAK256 SLOAD PUSH1 0xC0 SHR DUP1 ISZERO PUSH2 0x1B85 JUMPI PUSH2 0x2022 SWAP1 TIMESTAMP PUSH2 0x184E JUMP JUMPDEST PUSH2 0x12C DUP2 LT PUSH2 0x204F JUMPI PUSH2 0xE10 DUP2 LT PUSH2 0x2048 JUMPI PUSH3 0x15180 GT PUSH2 0x2042 JUMPI PUSH1 0x0 SWAP1 JUMP JUMPDEST PUSH2 0x1F4 SWAP1 JUMP JUMPDEST POP PUSH2 0x3E8 SWAP1 JUMP JUMPDEST POP PUSH2 0x7D0 SWAP1 JUMP JUMPDEST PUSH1 0x0 SWAP1 PUSH1 0xFF NOT DUP1 PUSH1 0x8 SLOAD AND PUSH1 0x1 DUP1 DUP3 OR PUSH1 0x8 SSTORE ADDRESS DUP6 MSTORE PUSH1 0x20 DUP6 DUP2 MSTORE PUSH1 0x40 SWAP2 DUP3 DUP8 KECCAK256 SLOAD SWAP4 DUP5 ISZERO PUSH2 0x231D JUMPI POP DUP3 MLOAD PUSH1 0x1 PUSH1 0x1 PUSH1 0x40 SHL SUB SWAP1 PUSH1 0x60 DUP2 ADD DUP3 DUP2 GT DUP3 DUP3 LT OR PUSH2 0x2309 JUMPI DUP6 MSTORE PUSH1 0x2 DUP2 MSTORE DUP4 DUP2 ADD SWAP6 DUP6 CALLDATASIZE DUP9 CALLDATACOPY DUP2 MLOAD ISZERO PUSH2 0x22F5 JUMPI ADDRESS DUP8 MSTORE PUSH1 0x6 SLOAD DUP7 MLOAD PUSH4 0x15AB88C9 PUSH1 0xE3 SHL DUP2 MSTORE PUSH1 0x1 PUSH1 0x1 PUSH1 0xA0 SHL SUB SWAP9 SWAP2 DUP10 AND SWAP1 DUP8 DUP2 PUSH1 0x4 DUP2 DUP6 GAS STATICCALL SWAP1 DUP2 ISZERO PUSH2 0x22EB JUMPI DUP14 SWAP2 PUSH2 0x22B5 JUMPI JUMPDEST POP DUP5 MLOAD DUP8 LT ISZERO PUSH2 0x22A1 JUMPI PUSH2 0x2100 SWAP2 DUP11 DUP6 SWAP3 AND DUP11 DUP8 ADD MSTORE ADDRESS PUSH2 0x16F2 JUMP JUMPDEST SELFBALANCE SWAP5 DUP9 PUSH1 0x6 SLOAD AND SWAP3 DUP4 EXTCODESIZE ISZERO PUSH2 0x229D JUMPI DUP9 MLOAD PUSH4 0x791AC947 PUSH1 0xE0 SHL DUP2 MSTORE PUSH1 0x4 DUP2 ADD SWAP2 SWAP1 SWAP2 MSTORE PUSH1 0x24 DUP2 ADD DUP14 SWAP1 MSTORE PUSH1 0xA0 PUSH1 0x44 DUP3 ADD MSTORE SWAP4 MLOAD PUSH1 0xA4 DUP6 ADD DUP2 SWAP1 MSTORE DUP13 SWAP4 DUP6 SWAP4 SWAP1 SWAP3 PUSH1 0xC4 DUP6 ADD SWAP3 DUP7 DUP12 DUP15 JUMPDEST DUP4 DUP4 LT PUSH2 0x2279 JUMPI POP POP POP POP POP POP DUP4 DUP4 DUP1 SWAP3 ADDRESS PUSH1 0x64 DUP4 ADD MSTORE TIMESTAMP PUSH1 0x84 DUP4 ADD MSTORE SUB SWAP3 GAS CALL SWAP2 DUP3 PUSH2 0x2252 JUMPI JUMPDEST POP POP PUSH2 0x2188 JUMPI JUMPDEST POP POP POP POP SWAP1 SWAP2 POP PUSH1 0x8 SLOAD AND PUSH1 0x8 SSTORE JUMP JUMPDEST PUSH2 0x2192 SWAP1 SELFBALANCE PUSH2 0x184E JUMP JUMPDEST DUP1 ISZERO DUP1 ISZERO PUSH2 0x21A1 JUMPI JUMPDEST POP PUSH2 0x2178 JUMP JUMPDEST PUSH1 0x3 DUP3 MUL SWAP1 DUP3 DUP3 DIV PUSH1 0x3 EQ OR ISZERO PUSH2 0x223E JUMPI SWAP7 PUSH2 0x21C6 PUSH1 0x7 PUSH2 0x21D7 SWAP8 SWAP9 SWAP10 DIV DUP1 SWAP4 PUSH2 0x184E JUMP JUMPDEST SWAP5 DUP3 PUSH2 0x21E3 JUMPI JUMPDEST POP POP POP POP POP PUSH2 0x1F3E JUMP JUMPDEST DUP2 SWAP1 CODESIZE DUP1 DUP1 DUP1 DUP1 PUSH2 0x219B JUMP JUMPDEST DUP2 DUP1 DUP5 DUP2 SWAP4 PUSH32 0x0 AND GAS CALL PUSH2 0x2214 PUSH2 0x17DC JUMP JUMPDEST POP PUSH2 0x2221 JUMPI JUMPDEST DUP1 DUP1 PUSH2 0x21CD JUMP JUMPDEST PUSH1 0x0 DUP1 MLOAD PUSH1 0x20 PUSH2 0x24B6 DUP4 CODECOPY DUP2 MLOAD SWAP2 MSTORE SWAP3 MLOAD SWAP1 DUP2 MSTORE LOG1 CODESIZE DUP1 DUP1 PUSH2 0x221A JUMP JUMPDEST PUSH4 0x4E487B71 PUSH1 0xE0 SHL DUP9 MSTORE PUSH1 0x11 PUSH1 0x4 MSTORE PUSH1 0x24 DUP9 REVERT JUMPDEST DUP2 SWAP10 SWAP3 SWAP10 GT PUSH2 0x2265 JUMPI DUP5 MSTORE SWAP7 CODESIZE DUP1 PUSH2 0x2171 JUMP JUMPDEST PUSH4 0x4E487B71 PUSH1 0xE0 SHL DUP3 MSTORE PUSH1 0x41 PUSH1 0x4 MSTORE PUSH1 0x24 DUP3 REVERT JUMPDEST DUP5 SWAP8 SWAP10 POP DUP6 DUP3 SWAP5 SWAP8 SWAP3 SWAP4 SWAP7 SWAP10 POP MLOAD AND DUP2 MSTORE ADD SWAP6 ADD SWAP2 ADD SWAP3 DUP7 SWAP5 SWAP3 DUP16 SWAP7 SWAP5 DUP12 DUP15 PUSH2 0x2149 JUMP JUMPDEST DUP13 DUP1 REVERT JUMPDEST PUSH4 0x4E487B71 PUSH1 0xE0 SHL DUP14 MSTORE PUSH1 0x32 PUSH1 0x4 MSTORE PUSH1 0x24 DUP14 REVERT JUMPDEST SWAP1 POP DUP8 DUP2 DUP2 RETURNDATASIZE DUP4 GT PUSH2 0x22E4 JUMPI JUMPDEST PUSH2 0x22CC DUP2 DUP4 PUSH2 0x1444 JUMP JUMPDEST DUP2 ADD SUB SLT PUSH2 0x229D JUMPI MLOAD DUP10 DUP2 AND DUP2 SUB PUSH2 0x229D JUMPI CODESIZE PUSH2 0x20E4 JUMP JUMPDEST POP RETURNDATASIZE PUSH2 0x22C2 JUMP JUMPDEST DUP10 MLOAD RETURNDATASIZE DUP16 DUP3 RETURNDATACOPY RETURNDATASIZE SWAP1 REVERT JUMPDEST PUSH4 0x4E487B71 PUSH1 0xE0 SHL DUP11 MSTORE PUSH1 0x32 PUSH1 0x4 MSTORE PUSH1 0x24 DUP11 REVERT JUMPDEST PUSH4 0x4E487B71 PUSH1 0xE0 SHL DUP11 MSTORE PUSH1 0x41 PUSH1 0x4 MSTORE PUSH1 0x24 DUP11 REVERT JUMPDEST SWAP6 SWAP7 POP POP POP POP POP POP PUSH1 0x8 SSTORE JUMP JUMPDEST PUSH1 0x0 DUP1 MLOAD PUSH1 0x20 PUSH2 0x2576 DUP4 CODECOPY DUP2 MLOAD SWAP2 MSTORE PUSH1 0x2 DUP2 SLOAD EQ PUSH2 0x2348 JUMPI PUSH1 0x2 SWAP1 SSTORE JUMP JUMPDEST PUSH1 0x40 MLOAD PUSH4 0x3EE5AEB5 PUSH1 0xE0 SHL DUP2 MSTORE PUSH1 0x4 SWAP1 REVERT JUMPDEST PUSH1 0x0 NOT DUP2 EQ PUSH2 0x142E JUMPI PUSH1 0x1 ADD SWAP1 JUMP JUMPDEST PUSH2 0x2372 DUP2 PUSH2 0x1B8B JUMP JUMPDEST ISZERO PUSH2 0x1B85 JUMPI PUSH1 0x1 PUSH1 0x1 PUSH1 0xA0 SHL SUB AND PUSH1 0x0 SWAP1 DUP2 MSTORE PUSH1 0x9 PUSH1 0x20 MSTORE PUSH1 0x40 SWAP1 KECCAK256 DUP1 SLOAD PUSH2 0x240B SWAP2 SWAP1 PUSH1 0x3 SWAP1 PUSH2 0x23CA SWAP1 PUSH2 0x1274 PUSH2 0x23B6 PUSH1 0x80 DUP4 SWAP1 SHR PUSH1 0x1 PUSH1 0x1 PUSH1 0x40 SHL SUB AND TIMESTAMP PUSH2 0x184E JUMP JUMPDEST PUSH1 0x1 DUP7 ADD SLOAD SWAP3 PUSH1 0x1 PUSH1 0x1 PUSH1 0x80 SHL SUB AND PUSH2 0x181B JUMP JUMPDEST PUSH2 0x23DB PUSH1 0xD SLOAD PUSH1 0x2 DUP6 ADD SLOAD SWAP1 PUSH2 0x184E JUMP JUMPDEST SWAP1 DUP1 ISZERO ISZERO DUP1 PUSH2 0x2417 JUMPI JUMPDEST PUSH1 0x0 SWAP1 ISZERO PUSH2 0x240E JUMPI POP PUSH8 0xDE0B6B3A7640000 SWAP2 PUSH2 0x2401 SWAP2 PUSH2 0x181B JUMP JUMPDEST DIV SWAP2 JUMPDEST ADD SLOAD PUSH2 0x1421 JUMP JUMPDEST SWAP1 JUMP JUMPDEST SWAP2 POP POP SWAP2 PUSH2 0x2404 JUMP JUMPDEST POP DUP2 ISZERO ISZERO PUSH2 0x23E5 JUMP JUMPDEST PUSH2 0x2429 DUP2 PUSH2 0x1B8B JUMP JUMPDEST ISZERO PUSH2 0x1B85 JUMPI PUSH1 0x1 PUSH1 0x1 PUSH1 0xA0 SHL SUB AND PUSH1 0x0 SWAP1 DUP2 MSTORE PUSH1 0x9 PUSH1 0x20 MSTORE PUSH1 0x40 SWAP1 KECCAK256 DUP1 SLOAD PUSH2 0x240B SWAP2 PUSH2 0x1274 SWAP1 PUSH1 0x1 PUSH2 0x2468 PUSH1 0x80 DUP6 SWAP1 SHR PUSH1 0x1 PUSH1 0x1 PUSH1 0x40 SHL SUB AND TIMESTAMP PUSH2 0x184E JUMP JUMPDEST SWAP2 ADD SLOAD SWAP3 PUSH1 0x1 PUSH1 0x1 PUSH1 0x80 SHL SUB AND PUSH2 0x181B JUMP JUMPDEST ISZERO PUSH2 0x2481 JUMPI JUMP JUMPDEST PUSH1 0x40 MLOAD PUSH3 0x461BCD PUSH1 0xE5 SHL DUP2 MSTORE PUSH1 0x20 PUSH1 0x4 DUP3 ADD MSTORE PUSH1 0xC PUSH1 0x24 DUP3 ADD MSTORE PUSH12 0x4F6E6C7920666163746F7279 PUSH1 0xA0 SHL PUSH1 0x44 DUP3 ADD MSTORE PUSH1 0x64 SWAP1 REVERT INVALID PUSH10 0x3F9DBEA0BDF9B70D480F SWAP6 0x27 0xE5 PUSH8 0xD17AE3A41A5627C6 MLOAD JUMPDEST SUB 0x4A 0xC1 DUP7 SWAP13 0xF7 LOG0 SWAP7 SIGNEXTEND LT MLOAD PUSH21 0x9987B45B5679007FFF577A1C2F763EC21C15A6C5EB NOT ADDRESS PUSH22 0x3785FC30CDDEA38E2BF4D6EA7D3F9ED3B6AD7F1764 NOT DELEGATECALL SWAP7 EXTCODESIZE 0xD8 SGT XOR MOD PUSH27 0x4AEE73FE8AD0C4905AA5603107E860E0C2B1A78E23EBA312C30F81 EQ 0xA7 0xD SWAP5 0xD9 0xE1 DUP8 CREATE2 0xAF 0xDD CALLCODE MSTORE 0xAD SHL 0xE2 0xC8 SWAP12 PUSH10 0xC2B068FC378DAA952BA7 CALL PUSH4 0xC4A11628 CREATE2 GAS 0x4D CREATE2 0x23 0xB3 0xEF 0xE9 0xBC SWAP2 LOG3 RETURNDATASIZE 0xDF DUP10 PUSH14 0x889747B2F39F4192C802FD623647 DUP1 ADDMOD PUSH9 0x53FCD8E19E8FFA9B77 SWAP12 OR TIMESTAMP 0x2D 0xD 0xF9 0x22 0x23 ADD DUP12 ORIGIN 0xB4 0xD1 STATICCALL CHAINID 0xE0 PUSH18 0x723D6817E2486D003BECC55F00A264697066 PUSH20 0x582212202B7901ECD161EDE110B1A3C90C08C171 0xDC LT CALLVALUE JUMPI REVERT ADDMOD LT 0xD5 BYTE ADDMOD 0x4E SELFBALANCE PUSH20 0x84DE1E64736F6C634300081400338AD0C4905AA5 PUSH1 0x31 SMOD 0xE8 PUSH1 0xE0 0xC2 0xB1 0xA7 DUP15 0x23 0xEB LOG3 SLT 0xC3 0xF DUP2 EQ 0xA7 0xD SWAP5 0xD9 0xE1 DUP8 CREATE2 0xAF 0xDD CALLCODE MSTORE 0xAD SHL 0xE2 0xC8 SWAP12 PUSH10 0xC2B068FC378DAA952BA7 CALL PUSH4 0xC4A11628 CREATE2 GAS 0x4D CREATE2 0x23 0xB3 0xEF "},"methodIdentifiers":{"BURN_BPS()":"a37a9fc0","CURVE_SUPPLY()":"1e4c7292","DEAD()":"03fd2a45","GRAD_SUPPLY()":"98aecb67","PLATFORM_BPS()":"ce91e164","REWARD_BPS()":"47b12bfc","SNIPE_BPS_1HR()":"c463ecd7","SNIPE_BPS_24HR()":"bacf2a7b","SNIPE_BPS_5MIN()":"bb103cbc","TOTAL_SUPPLY()":"902d55a5","TOTAL_TAX_BPS()":"a8355c8f","allowance(address,address)":"dd62ed3e","antiSnipeBpsFor(address)":"ca81eb66","approve(address,uint256)":"095ea7b3","balanceOf(address)":"70a08231","burnFromCurve(uint256)":"5b090044","checkpoints(address)":"dbb51d6e","claim()":"4e71d92d","cumulativeEthPerScore()":"c5f27b30","curve()":"7165485d","decimals()":"313ce567","depositEthPlatform()":"b78d0538","depositEthReward()":"a47541ba","factory()":"c45a0155","graduated()":"e7c2b772","holdScore(address)":"c5f509d6","isExcluded(address)":"cba0e996","keeper()":"aced1661","name()":"06fdde03","notifyGraduated(address,address)":"c7b12801","orphanedRewardEth()":"13b9d47e","pendingRewards(address)":"31d7a262","pushRewards(address[])":"f6ceefa2","setExcluded(address,bool)":"2836be24","setKeeper(address)":"748747e6","setSwapThreshold(uint256)":"9d0014b1","swapThreshold()":"0445b667","symbol()":"95d89b41","totalAccumulatedScore()":"c1db4015","totalHoldScoreLive()":"07c9bf2e","totalLastUpdate()":"9d6eadc1","totalSettledBalance()":"64229d68","totalSupply()":"18160ddd","transfer(address,uint256)":"a9059cbb","transferFrom(address,address,uint256)":"23b872dd","uniswapPair()":"c816841b","uniswapRouter()":"735de9f7"}}}}}