{"contracts/mocks/MockUniswapV2.sol":{"MockUniswapV2Router":{"abi":[{"inputs":[{"internalType":"address","name":"factoryAddr","type":"address"},{"internalType":"address","name":"wethAddr","type":"address"}],"stateMutability":"nonpayable","type":"constructor"},{"inputs":[],"name":"WETH","outputs":[{"internalType":"address","name":"","type":"address"}],"stateMutability":"view","type":"function"},{"inputs":[],"name":"_factory","outputs":[{"internalType":"address","name":"","type":"address"}],"stateMutability":"view","type":"function"},{"inputs":[],"name":"_weth","outputs":[{"internalType":"address","name":"","type":"address"}],"stateMutability":"view","type":"function"},{"inputs":[{"internalType":"address","name":"token","type":"address"},{"internalType":"uint256","name":"amountTokenDesired","type":"uint256"},{"internalType":"uint256","name":"","type":"uint256"},{"internalType":"uint256","name":"","type":"uint256"},{"internalType":"address","name":"to","type":"address"},{"internalType":"uint256","name":"","type":"uint256"}],"name":"addLiquidityETH","outputs":[{"internalType":"uint256","name":"amountToken","type":"uint256"},{"internalType":"uint256","name":"amountETH","type":"uint256"},{"internalType":"uint256","name":"liquidity","type":"uint256"}],"stateMutability":"payable","type":"function"},{"inputs":[],"name":"factory","outputs":[{"internalType":"address","name":"","type":"address"}],"stateMutability":"view","type":"function"},{"inputs":[{"internalType":"uint256","name":"amountIn","type":"uint256"},{"internalType":"uint256","name":"","type":"uint256"},{"internalType":"address[]","name":"path","type":"address[]"},{"internalType":"address","name":"to","type":"address"},{"internalType":"uint256","name":"","type":"uint256"}],"name":"swapExactTokensForETHSupportingFeeOnTransferTokens","outputs":[],"stateMutability":"nonpayable","type":"function"},{"stateMutability":"payable","type":"receive"}],"evm":{"bytecode":{"linkReferences":{},"object":"60c034608057601f61064f38819003918201601f19168301916001600160401b038311848410176084578084926040948552833981010312608057604b60206045836098565b92016098565b9060805260a0526040516105a390816100ac823960805181818161011301526104a8015260a05181818160f201526104640152f35b5f80fd5b634e487b7160e01b5f52604160045260245ffd5b51906001600160a01b038216820360805756fe608080604052600436101561001c575b50361561001a575f80fd5b005b5f3560e01c908163791ac947146102c857508063a1764595146102c3578063ad5c4648146102c3578063c45a0155146102be578063c5cc6b6a146102be5763f305d7191461006a575f61000f565b60c03660031901126101e9576004356001600160a01b038116908181036101e9576084356001600160a01b0381169260243592918490036101e957602060405180926323b872dd60e01b8252815f816100c889303360048501610512565b03925af180156101de57610291575b503482019081831161027d5760405163e6a4390560e01b81527f00000000000000000000000000000000000000000000000000000000000000007f00000000000000000000000000000000000000000000000000000000000000006001600160a01b03166020838061014d858860048401610553565b0381845afa9283156101de575f9361025c575b506001600160a01b038316156101ed575b50506001600160a01b0316939050833b156101e9575f936044859260405196879384926340c10f1960e01b845260048401528660248401525af19283156101de576060936101ce575b506040519182523460208301526040820152f35b5f6101d8916104d7565b5f6101ba565b6040513d5f823e3d90fd5b5f80fd5b60209250610212935f6040518096819582946364e329cb60e11b845260048401610553565b03925af19081156101de575f9161022d575b50805f80610171565b61024f915060203d602011610255575b61024781836104d7565b810190610534565b5f610224565b503d61023d565b61027691935060203d6020116102555761024781836104d7565b915f610160565b634e487b7160e01b5f52601160045260245ffd5b6102b29060203d6020116102b7575b6102aa81836104d7565b8101906104fa565b6100d7565b503d6102a0565b610493565b61044f565b346101e95760a03660031901126101e957604435906004356001600160401b0383116101e957366023840112156101e9576004830135926001600160401b0384116101e9573660248560051b830101116101e9576064356001600160a01b03811694908590036101e9571561043b576024013560018060a01b0381168091036101e9576323b872dd60e01b83526020908390815f8161036c87303360048501610512565b03925af19182156101de575f8085612710829583958861041e575b500490478211610416575b5af13d15610411573d6001600160401b0381116103fd57604051906103c1601f8201601f1916602001836104d7565b81525f60203d92013e5b156103d257005b606460405162461bcd60e51b81526020600482015260046024820152631cd95b9960e21b6044820152fd5b634e487b7160e01b5f52604160045260245ffd5b6103cb565b479150610392565b6104369060203d6020116102b7576102aa81836104d7565b610387565b634e487b7160e01b5f52603260045260245ffd5b346101e9575f3660031901126101e9576040517f00000000000000000000000000000000000000000000000000000000000000006001600160a01b03168152602090f35b346101e9575f3660031901126101e9576040517f00000000000000000000000000000000000000000000000000000000000000006001600160a01b03168152602090f35b601f909101601f19168101906001600160401b038211908210176103fd57604052565b908160209103126101e9575180151581036101e95790565b6001600160a01b03918216815291166020820152604081019190915260600190565b908160209103126101e957516001600160a01b03811681036101e95790565b6001600160a01b039182168152911660208201526040019056fea26469706673582212203f3033e148aa83e75a949a7fdc2411025e3ec848659ee0f010bbaad755e2322864736f6c634300081a0033","opcodes":"PUSH1 0xC0 CALLVALUE PUSH1 0x80 JUMPI PUSH1 0x1F PUSH2 0x64F CODESIZE DUP2 SWAP1 SUB SWAP2 DUP3 ADD PUSH1 0x1F NOT AND DUP4 ADD SWAP2 PUSH1 0x1 PUSH1 0x1 PUSH1 0x40 SHL SUB DUP4 GT DUP5 DUP5 LT OR PUSH1 0x84 JUMPI DUP1 DUP5 SWAP3 PUSH1 0x40 SWAP5 DUP6 MSTORE DUP4 CODECOPY DUP2 ADD SUB SLT PUSH1 0x80 JUMPI PUSH1 0x4B PUSH1 0x20 PUSH1 0x45 DUP4 PUSH1 0x98 JUMP JUMPDEST SWAP3 ADD PUSH1 0x98 JUMP JUMPDEST SWAP1 PUSH1 0x80 MSTORE PUSH1 0xA0 MSTORE PUSH1 0x40 MLOAD PUSH2 0x5A3 SWAP1 DUP2 PUSH2 0xAC DUP3 CODECOPY PUSH1 0x80 MLOAD DUP2 DUP2 DUP2 PUSH2 0x113 ADD MSTORE PUSH2 0x4A8 ADD MSTORE PUSH1 0xA0 MLOAD DUP2 DUP2 DUP2 PUSH1 0xF2 ADD MSTORE PUSH2 0x464 ADD MSTORE RETURN JUMPDEST PUSH0 DUP1 REVERT JUMPDEST PUSH4 0x4E487B71 PUSH1 0xE0 SHL PUSH0 MSTORE PUSH1 0x41 PUSH1 0x4 MSTORE PUSH1 0x24 PUSH0 REVERT JUMPDEST MLOAD SWAP1 PUSH1 0x1 PUSH1 0x1 PUSH1 0xA0 SHL SUB DUP3 AND DUP3 SUB PUSH1 0x80 JUMPI JUMP INVALID PUSH1 0x80 DUP1 PUSH1 0x40 MSTORE PUSH1 0x4 CALLDATASIZE LT ISZERO PUSH2 0x1C JUMPI JUMPDEST POP CALLDATASIZE ISZERO PUSH2 0x1A JUMPI PUSH0 DUP1 REVERT JUMPDEST STOP JUMPDEST PUSH0 CALLDATALOAD PUSH1 0xE0 SHR SWAP1 DUP2 PUSH4 0x791AC947 EQ PUSH2 0x2C8 JUMPI POP DUP1 PUSH4 0xA1764595 EQ PUSH2 0x2C3 JUMPI DUP1 PUSH4 0xAD5C4648 EQ PUSH2 0x2C3 JUMPI DUP1 PUSH4 0xC45A0155 EQ PUSH2 0x2BE JUMPI DUP1 PUSH4 0xC5CC6B6A EQ PUSH2 0x2BE JUMPI PUSH4 0xF305D719 EQ PUSH2 0x6A JUMPI PUSH0 PUSH2 0xF JUMP JUMPDEST PUSH1 0xC0 CALLDATASIZE PUSH1 0x3 NOT ADD SLT PUSH2 0x1E9 JUMPI PUSH1 0x4 CALLDATALOAD PUSH1 0x1 PUSH1 0x1 PUSH1 0xA0 SHL SUB DUP2 AND SWAP1 DUP2 DUP2 SUB PUSH2 0x1E9 JUMPI PUSH1 0x84 CALLDATALOAD PUSH1 0x1 PUSH1 0x1 PUSH1 0xA0 SHL SUB DUP2 AND SWAP3 PUSH1 0x24 CALLDATALOAD SWAP3 SWAP2 DUP5 SWAP1 SUB PUSH2 0x1E9 JUMPI PUSH1 0x20 PUSH1 0x40 MLOAD DUP1 SWAP3 PUSH4 0x23B872DD PUSH1 0xE0 SHL DUP3 MSTORE DUP2 PUSH0 DUP2 PUSH2 0xC8 DUP10 ADDRESS CALLER PUSH1 0x4 DUP6 ADD PUSH2 0x512 JUMP JUMPDEST SUB SWAP3 GAS CALL DUP1 ISZERO PUSH2 0x1DE JUMPI PUSH2 0x291 JUMPI JUMPDEST POP CALLVALUE DUP3 ADD SWAP1 DUP2 DUP4 GT PUSH2 0x27D JUMPI PUSH1 0x40 MLOAD PUSH4 0xE6A43905 PUSH1 0xE0 SHL DUP2 MSTORE PUSH32 0x0 PUSH32 0x0 PUSH1 0x1 PUSH1 0x1 PUSH1 0xA0 SHL SUB AND PUSH1 0x20 DUP4 DUP1 PUSH2 0x14D DUP6 DUP9 PUSH1 0x4 DUP5 ADD PUSH2 0x553 JUMP JUMPDEST SUB DUP2 DUP5 GAS STATICCALL SWAP3 DUP4 ISZERO PUSH2 0x1DE JUMPI PUSH0 SWAP4 PUSH2 0x25C JUMPI JUMPDEST POP PUSH1 0x1 PUSH1 0x1 PUSH1 0xA0 SHL SUB DUP4 AND ISZERO PUSH2 0x1ED JUMPI JUMPDEST POP POP PUSH1 0x1 PUSH1 0x1 PUSH1 0xA0 SHL SUB AND SWAP4 SWAP1 POP DUP4 EXTCODESIZE ISZERO PUSH2 0x1E9 JUMPI PUSH0 SWAP4 PUSH1 0x44 DUP6 SWAP3 PUSH1 0x40 MLOAD SWAP7 DUP8 SWAP4 DUP5 SWAP3 PUSH4 0x40C10F19 PUSH1 0xE0 SHL DUP5 MSTORE PUSH1 0x4 DUP5 ADD MSTORE DUP7 PUSH1 0x24 DUP5 ADD MSTORE GAS CALL SWAP3 DUP4 ISZERO PUSH2 0x1DE JUMPI PUSH1 0x60 SWAP4 PUSH2 0x1CE JUMPI JUMPDEST POP PUSH1 0x40 MLOAD SWAP2 DUP3 MSTORE CALLVALUE PUSH1 0x20 DUP4 ADD MSTORE PUSH1 0x40 DUP3 ADD MSTORE RETURN JUMPDEST PUSH0 PUSH2 0x1D8 SWAP2 PUSH2 0x4D7 JUMP JUMPDEST PUSH0 PUSH2 0x1BA JUMP JUMPDEST PUSH1 0x40 MLOAD RETURNDATASIZE PUSH0 DUP3 RETURNDATACOPY RETURNDATASIZE SWAP1 REVERT JUMPDEST PUSH0 DUP1 REVERT JUMPDEST PUSH1 0x20 SWAP3 POP PUSH2 0x212 SWAP4 PUSH0 PUSH1 0x40 MLOAD DUP1 SWAP7 DUP2 SWAP6 DUP3 SWAP5 PUSH4 0x64E329CB PUSH1 0xE1 SHL DUP5 MSTORE PUSH1 0x4 DUP5 ADD PUSH2 0x553 JUMP JUMPDEST SUB SWAP3 GAS CALL SWAP1 DUP2 ISZERO PUSH2 0x1DE JUMPI PUSH0 SWAP2 PUSH2 0x22D JUMPI JUMPDEST POP DUP1 PUSH0 DUP1 PUSH2 0x171 JUMP JUMPDEST PUSH2 0x24F SWAP2 POP PUSH1 0x20 RETURNDATASIZE PUSH1 0x20 GT PUSH2 0x255 JUMPI JUMPDEST PUSH2 0x247 DUP2 DUP4 PUSH2 0x4D7 JUMP JUMPDEST DUP2 ADD SWAP1 PUSH2 0x534 JUMP JUMPDEST PUSH0 PUSH2 0x224 JUMP JUMPDEST POP RETURNDATASIZE PUSH2 0x23D JUMP JUMPDEST PUSH2 0x276 SWAP2 SWAP4 POP PUSH1 0x20 RETURNDATASIZE PUSH1 0x20 GT PUSH2 0x255 JUMPI PUSH2 0x247 DUP2 DUP4 PUSH2 0x4D7 JUMP JUMPDEST SWAP2 PUSH0 PUSH2 0x160 JUMP JUMPDEST PUSH4 0x4E487B71 PUSH1 0xE0 SHL PUSH0 MSTORE PUSH1 0x11 PUSH1 0x4 MSTORE PUSH1 0x24 PUSH0 REVERT JUMPDEST PUSH2 0x2B2 SWAP1 PUSH1 0x20 RETURNDATASIZE PUSH1 0x20 GT PUSH2 0x2B7 JUMPI JUMPDEST PUSH2 0x2AA DUP2 DUP4 PUSH2 0x4D7 JUMP JUMPDEST DUP2 ADD SWAP1 PUSH2 0x4FA JUMP JUMPDEST PUSH2 0xD7 JUMP JUMPDEST POP RETURNDATASIZE PUSH2 0x2A0 JUMP JUMPDEST PUSH2 0x493 JUMP JUMPDEST PUSH2 0x44F JUMP JUMPDEST CALLVALUE PUSH2 0x1E9 JUMPI PUSH1 0xA0 CALLDATASIZE PUSH1 0x3 NOT ADD SLT PUSH2 0x1E9 JUMPI PUSH1 0x44 CALLDATALOAD SWAP1 PUSH1 0x4 CALLDATALOAD PUSH1 0x1 PUSH1 0x1 PUSH1 0x40 SHL SUB DUP4 GT PUSH2 0x1E9 JUMPI CALLDATASIZE PUSH1 0x23 DUP5 ADD SLT ISZERO PUSH2 0x1E9 JUMPI PUSH1 0x4 DUP4 ADD CALLDATALOAD SWAP3 PUSH1 0x1 PUSH1 0x1 PUSH1 0x40 SHL SUB DUP5 GT PUSH2 0x1E9 JUMPI CALLDATASIZE PUSH1 0x24 DUP6 PUSH1 0x5 SHL DUP4 ADD ADD GT PUSH2 0x1E9 JUMPI PUSH1 0x64 CALLDATALOAD PUSH1 0x1 PUSH1 0x1 PUSH1 0xA0 SHL SUB DUP2 AND SWAP5 SWAP1 DUP6 SWAP1 SUB PUSH2 0x1E9 JUMPI ISZERO PUSH2 0x43B JUMPI PUSH1 0x24 ADD CALLDATALOAD PUSH1 0x1 DUP1 PUSH1 0xA0 SHL SUB DUP2 AND DUP1 SWAP2 SUB PUSH2 0x1E9 JUMPI PUSH4 0x23B872DD PUSH1 0xE0 SHL DUP4 MSTORE PUSH1 0x20 SWAP1 DUP4 SWAP1 DUP2 PUSH0 DUP2 PUSH2 0x36C DUP8 ADDRESS CALLER PUSH1 0x4 DUP6 ADD PUSH2 0x512 JUMP JUMPDEST SUB SWAP3 GAS CALL SWAP2 DUP3 ISZERO PUSH2 0x1DE JUMPI PUSH0 DUP1 DUP6 PUSH2 0x2710 DUP3 SWAP6 DUP4 SWAP6 DUP9 PUSH2 0x41E JUMPI JUMPDEST POP DIV SWAP1 SELFBALANCE DUP3 GT PUSH2 0x416 JUMPI JUMPDEST GAS CALL RETURNDATASIZE ISZERO PUSH2 0x411 JUMPI RETURNDATASIZE PUSH1 0x1 PUSH1 0x1 PUSH1 0x40 SHL SUB DUP2 GT PUSH2 0x3FD JUMPI PUSH1 0x40 MLOAD SWAP1 PUSH2 0x3C1 PUSH1 0x1F DUP3 ADD PUSH1 0x1F NOT AND PUSH1 0x20 ADD DUP4 PUSH2 0x4D7 JUMP JUMPDEST DUP2 MSTORE PUSH0 PUSH1 0x20 RETURNDATASIZE SWAP3 ADD RETURNDATACOPY JUMPDEST ISZERO PUSH2 0x3D2 JUMPI STOP JUMPDEST PUSH1 0x64 PUSH1 0x40 MLOAD PUSH3 0x461BCD PUSH1 0xE5 SHL DUP2 MSTORE PUSH1 0x20 PUSH1 0x4 DUP3 ADD MSTORE PUSH1 0x4 PUSH1 0x24 DUP3 ADD MSTORE PUSH4 0x1CD95B99 PUSH1 0xE2 SHL PUSH1 0x44 DUP3 ADD MSTORE REVERT JUMPDEST PUSH4 0x4E487B71 PUSH1 0xE0 SHL PUSH0 MSTORE PUSH1 0x41 PUSH1 0x4 MSTORE PUSH1 0x24 PUSH0 REVERT JUMPDEST PUSH2 0x3CB JUMP JUMPDEST SELFBALANCE SWAP2 POP PUSH2 0x392 JUMP JUMPDEST PUSH2 0x436 SWAP1 PUSH1 0x20 RETURNDATASIZE PUSH1 0x20 GT PUSH2 0x2B7 JUMPI PUSH2 0x2AA DUP2 DUP4 PUSH2 0x4D7 JUMP JUMPDEST PUSH2 0x387 JUMP JUMPDEST PUSH4 0x4E487B71 PUSH1 0xE0 SHL PUSH0 MSTORE PUSH1 0x32 PUSH1 0x4 MSTORE PUSH1 0x24 PUSH0 REVERT JUMPDEST CALLVALUE PUSH2 0x1E9 JUMPI PUSH0 CALLDATASIZE PUSH1 0x3 NOT ADD SLT PUSH2 0x1E9 JUMPI PUSH1 0x40 MLOAD PUSH32 0x0 PUSH1 0x1 PUSH1 0x1 PUSH1 0xA0 SHL SUB AND DUP2 MSTORE PUSH1 0x20 SWAP1 RETURN JUMPDEST CALLVALUE PUSH2 0x1E9 JUMPI PUSH0 CALLDATASIZE PUSH1 0x3 NOT ADD SLT PUSH2 0x1E9 JUMPI PUSH1 0x40 MLOAD PUSH32 0x0 PUSH1 0x1 PUSH1 0x1 PUSH1 0xA0 SHL SUB AND DUP2 MSTORE PUSH1 0x20 SWAP1 RETURN JUMPDEST PUSH1 0x1F SWAP1 SWAP2 ADD PUSH1 0x1F NOT AND DUP2 ADD SWAP1 PUSH1 0x1 PUSH1 0x1 PUSH1 0x40 SHL SUB DUP3 GT SWAP1 DUP3 LT OR PUSH2 0x3FD JUMPI PUSH1 0x40 MSTORE JUMP JUMPDEST SWAP1 DUP2 PUSH1 0x20 SWAP2 SUB SLT PUSH2 0x1E9 JUMPI MLOAD DUP1 ISZERO ISZERO DUP2 SUB PUSH2 0x1E9 JUMPI SWAP1 JUMP JUMPDEST PUSH1 0x1 PUSH1 0x1 PUSH1 0xA0 SHL SUB SWAP2 DUP3 AND DUP2 MSTORE SWAP2 AND PUSH1 0x20 DUP3 ADD MSTORE PUSH1 0x40 DUP2 ADD SWAP2 SWAP1 SWAP2 MSTORE PUSH1 0x60 ADD SWAP1 JUMP JUMPDEST SWAP1 DUP2 PUSH1 0x20 SWAP2 SUB SLT PUSH2 0x1E9 JUMPI MLOAD PUSH1 0x1 PUSH1 0x1 PUSH1 0xA0 SHL SUB DUP2 AND DUP2 SUB PUSH2 0x1E9 JUMPI SWAP1 JUMP JUMPDEST PUSH1 0x1 PUSH1 0x1 PUSH1 0xA0 SHL SUB SWAP2 DUP3 AND DUP2 MSTORE SWAP2 AND PUSH1 0x20 DUP3 ADD MSTORE PUSH1 0x40 ADD SWAP1 JUMP INVALID LOG2 PUSH5 0x6970667358 0x22 SLT KECCAK256 EXTCODEHASH ADDRESS CALLER 0xE1 BASEFEE 0xAA DUP4 0xE7 GAS SWAP5 SWAP11 PUSH32 0xDC2411025E3EC848659EE0F010BBAAD755E2322864736F6C634300081A003300 "},"methodIdentifiers":{"WETH()":"ad5c4648","_factory()":"c5cc6b6a","_weth()":"a1764595","addLiquidityETH(address,uint256,uint256,uint256,address,uint256)":"f305d719","factory()":"c45a0155","swapExactTokensForETHSupportingFeeOnTransferTokens(uint256,uint256,address[],address,uint256)":"791ac947"}}}}}