{"contracts/mocks/MockUniswapV2.sol":{"MockUniswapV2Pair":{"abi":[{"inputs":[{"internalType":"address","name":"","type":"address"}],"name":"balanceOf","outputs":[{"internalType":"uint256","name":"","type":"uint256"}],"stateMutability":"view","type":"function"},{"inputs":[{"internalType":"address","name":"_t0","type":"address"},{"internalType":"address","name":"_t1","type":"address"}],"name":"initialize","outputs":[],"stateMutability":"nonpayable","type":"function"},{"inputs":[{"internalType":"address","name":"to","type":"address"},{"internalType":"uint256","name":"amount","type":"uint256"}],"name":"mint","outputs":[],"stateMutability":"nonpayable","type":"function"},{"inputs":[],"name":"token0","outputs":[{"internalType":"address","name":"","type":"address"}],"stateMutability":"view","type":"function"},{"inputs":[],"name":"token1","outputs":[{"internalType":"address","name":"","type":"address"}],"stateMutability":"view","type":"function"},{"inputs":[],"name":"totalSupply","outputs":[{"internalType":"uint256","name":"","type":"uint256"}],"stateMutability":"view","type":"function"}],"evm":{"bytecode":{"linkReferences":{},"object":"60808060405234601557610217908161001a8239f35b5f80fdfe6080806040526004361015610012575f80fd5b5f3560e01c9081630dfe1681146101885750806318160ddd1461016b57806340c10f191461011e578063485cc955146100c257806370a082311461008a5763d21220a71461005e575f80fd5b34610086575f366003190112610086576001546040516001600160a01b039091168152602090f35b5f80fd5b34610086576020366003190112610086576001600160a01b036100ab6101aa565b165f526002602052602060405f2054604051908152f35b34610086576040366003190112610086576100db6101aa565b6024356001600160a01b0381169190829003610086575f80546001600160a01b03929092166001600160a01b031992831617905560018054909116919091179055005b346100865760403660031901126100865761016661013a6101aa565b6024359060018060a01b03165f52600260205260405f2061015c8282546101c0565b90556003546101c0565b600355005b34610086575f366003190112610086576020600354604051908152f35b34610086575f366003190112610086575f546001600160a01b03168152602090f35b600435906001600160a01b038216820361008657565b919082018092116101cd57565b634e487b7160e01b5f52601160045260245ffdfea26469706673582212208725ebb4cf3b58a58909f7845c1cb186bd23114466a7aad4b13d51fda684220d64736f6c634300081a0033","opcodes":"PUSH1 0x80 DUP1 PUSH1 0x40 MSTORE CALLVALUE PUSH1 0x15 JUMPI PUSH2 0x217 SWAP1 DUP2 PUSH2 0x1A DUP3 CODECOPY RETURN JUMPDEST PUSH0 DUP1 REVERT INVALID PUSH1 0x80 DUP1 PUSH1 0x40 MSTORE PUSH1 0x4 CALLDATASIZE LT ISZERO PUSH2 0x12 JUMPI PUSH0 DUP1 REVERT JUMPDEST PUSH0 CALLDATALOAD PUSH1 0xE0 SHR SWAP1 DUP2 PUSH4 0xDFE1681 EQ PUSH2 0x188 JUMPI POP DUP1 PUSH4 0x18160DDD EQ PUSH2 0x16B JUMPI DUP1 PUSH4 0x40C10F19 EQ PUSH2 0x11E JUMPI DUP1 PUSH4 0x485CC955 EQ PUSH2 0xC2 JUMPI DUP1 PUSH4 0x70A08231 EQ PUSH2 0x8A JUMPI PUSH4 0xD21220A7 EQ PUSH2 0x5E JUMPI PUSH0 DUP1 REVERT JUMPDEST CALLVALUE PUSH2 0x86 JUMPI PUSH0 CALLDATASIZE PUSH1 0x3 NOT ADD SLT PUSH2 0x86 JUMPI PUSH1 0x1 SLOAD PUSH1 0x40 MLOAD PUSH1 0x1 PUSH1 0x1 PUSH1 0xA0 SHL SUB SWAP1 SWAP2 AND DUP2 MSTORE PUSH1 0x20 SWAP1 RETURN JUMPDEST PUSH0 DUP1 REVERT JUMPDEST CALLVALUE PUSH2 0x86 JUMPI PUSH1 0x20 CALLDATASIZE PUSH1 0x3 NOT ADD SLT PUSH2 0x86 JUMPI PUSH1 0x1 PUSH1 0x1 PUSH1 0xA0 SHL SUB PUSH2 0xAB PUSH2 0x1AA JUMP JUMPDEST AND PUSH0 MSTORE PUSH1 0x2 PUSH1 0x20 MSTORE PUSH1 0x20 PUSH1 0x40 PUSH0 KECCAK256 SLOAD PUSH1 0x40 MLOAD SWAP1 DUP2 MSTORE RETURN JUMPDEST CALLVALUE PUSH2 0x86 JUMPI PUSH1 0x40 CALLDATASIZE PUSH1 0x3 NOT ADD SLT PUSH2 0x86 JUMPI PUSH2 0xDB PUSH2 0x1AA JUMP JUMPDEST PUSH1 0x24 CALLDATALOAD PUSH1 0x1 PUSH1 0x1 PUSH1 0xA0 SHL SUB DUP2 AND SWAP2 SWAP1 DUP3 SWAP1 SUB PUSH2 0x86 JUMPI PUSH0 DUP1 SLOAD PUSH1 0x1 PUSH1 0x1 PUSH1 0xA0 SHL SUB SWAP3 SWAP1 SWAP3 AND PUSH1 0x1 PUSH1 0x1 PUSH1 0xA0 SHL SUB NOT SWAP3 DUP4 AND OR SWAP1 SSTORE PUSH1 0x1 DUP1 SLOAD SWAP1 SWAP2 AND SWAP2 SWAP1 SWAP2 OR SWAP1 SSTORE STOP JUMPDEST CALLVALUE PUSH2 0x86 JUMPI PUSH1 0x40 CALLDATASIZE PUSH1 0x3 NOT ADD SLT PUSH2 0x86 JUMPI PUSH2 0x166 PUSH2 0x13A PUSH2 0x1AA JUMP JUMPDEST PUSH1 0x24 CALLDATALOAD SWAP1 PUSH1 0x1 DUP1 PUSH1 0xA0 SHL SUB AND PUSH0 MSTORE PUSH1 0x2 PUSH1 0x20 MSTORE PUSH1 0x40 PUSH0 KECCAK256 PUSH2 0x15C DUP3 DUP3 SLOAD PUSH2 0x1C0 JUMP JUMPDEST SWAP1 SSTORE PUSH1 0x3 SLOAD PUSH2 0x1C0 JUMP JUMPDEST PUSH1 0x3 SSTORE STOP JUMPDEST CALLVALUE PUSH2 0x86 JUMPI PUSH0 CALLDATASIZE PUSH1 0x3 NOT ADD SLT PUSH2 0x86 JUMPI PUSH1 0x20 PUSH1 0x3 SLOAD PUSH1 0x40 MLOAD SWAP1 DUP2 MSTORE RETURN JUMPDEST CALLVALUE PUSH2 0x86 JUMPI PUSH0 CALLDATASIZE PUSH1 0x3 NOT ADD SLT PUSH2 0x86 JUMPI PUSH0 SLOAD PUSH1 0x1 PUSH1 0x1 PUSH1 0xA0 SHL SUB AND DUP2 MSTORE PUSH1 0x20 SWAP1 RETURN JUMPDEST PUSH1 0x4 CALLDATALOAD SWAP1 PUSH1 0x1 PUSH1 0x1 PUSH1 0xA0 SHL SUB DUP3 AND DUP3 SUB PUSH2 0x86 JUMPI JUMP JUMPDEST SWAP2 SWAP1 DUP3 ADD DUP1 SWAP3 GT PUSH2 0x1CD JUMPI JUMP JUMPDEST PUSH4 0x4E487B71 PUSH1 0xE0 SHL PUSH0 MSTORE PUSH1 0x11 PUSH1 0x4 MSTORE PUSH1 0x24 PUSH0 REVERT INVALID LOG2 PUSH5 0x6970667358 0x22 SLT KECCAK256 DUP8 0x25 0xEB 0xB4 0xCF EXTCODESIZE PC 0xA5 DUP10 MULMOD 0xF7 DUP5 TLOAD SHR 0xB1 DUP7 0xBD 0x23 GT PREVRANDAO PUSH7 0xA7AAD4B13D51FD 0xA6 DUP5 0x22 0xD PUSH5 0x736F6C6343 STOP ADDMOD BYTE STOP CALLER "},"methodIdentifiers":{"balanceOf(address)":"70a08231","initialize(address,address)":"485cc955","mint(address,uint256)":"40c10f19","token0()":"0dfe1681","token1()":"d21220a7","totalSupply()":"18160ddd"}}}}}