{"contracts/v4/StackrCurveV4.sol":{"StackrCurveV4":{"abi":[{"inputs":[{"internalType":"address","name":"_token","type":"address"},{"internalType":"address","name":"_creator","type":"address"},{"internalType":"address","name":"_factory","type":"address"},{"internalType":"uint256","name":"_virtualEthReserve","type":"uint256"},{"internalType":"uint256","name":"_launchEthUsd","type":"uint256"},{"internalType":"address","name":"_v2Router","type":"address"},{"internalType":"address","name":"_v2Factory","type":"address"},{"internalType":"address","name":"_weth","type":"address"}],"stateMutability":"nonpayable","type":"constructor"},{"inputs":[],"name":"ReentrancyGuardReentrantCall","type":"error"},{"anonymous":false,"inputs":[{"indexed":true,"internalType":"address","name":"buyer","type":"address"},{"indexed":false,"internalType":"uint256","name":"ethIn","type":"uint256"},{"indexed":false,"internalType":"uint256","name":"fee","type":"uint256"},{"indexed":false,"internalType":"uint256","name":"tokensOut","type":"uint256"},{"indexed":false,"internalType":"uint256","name":"totalBonded","type":"uint256"}],"name":"Bought","type":"event"},{"anonymous":false,"inputs":[{"indexed":false,"internalType":"uint256","name":"realEthAtCancel","type":"uint256"}],"name":"Cancelled","type":"event"},{"anonymous":false,"inputs":[{"indexed":true,"internalType":"address","name":"to","type":"address"},{"indexed":false,"internalType":"uint256","name":"amount","type":"uint256"}],"name":"CreatorFeesClaimed","type":"event"},{"anonymous":false,"inputs":[{"indexed":true,"internalType":"address","name":"to","type":"address"},{"indexed":false,"internalType":"uint256","name":"amount","type":"uint256"}],"name":"EthSweptAfterCancel","type":"event"},{"anonymous":false,"inputs":[{"indexed":false,"internalType":"uint256","name":"ethToLP","type":"uint256"},{"indexed":false,"internalType":"uint256","name":"tokensToLP","type":"uint256"},{"indexed":false,"internalType":"uint256","name":"tokensBurned","type":"uint256"},{"indexed":false,"internalType":"address","name":"v2Pair","type":"address"}],"name":"Graduated","type":"event"},{"anonymous":false,"inputs":[{"indexed":true,"internalType":"address","name":"seller","type":"address"},{"indexed":false,"internalType":"uint256","name":"tokensIn","type":"uint256"},{"indexed":false,"internalType":"uint256","name":"ethOut","type":"uint256"},{"indexed":false,"internalType":"uint256","name":"fee","type":"uint256"},{"indexed":false,"internalType":"uint256","name":"totalBonded","type":"uint256"}],"name":"Sold","type":"event"},{"inputs":[],"name":"BOND_THRESHOLD","outputs":[{"internalType":"uint256","name":"","type":"uint256"}],"stateMutability":"view","type":"function"},{"inputs":[],"name":"BPS_DENOM","outputs":[{"internalType":"uint256","name":"","type":"uint256"}],"stateMutability":"view","type":"function"},{"inputs":[],"name":"CURVE_TOKEN_SUPPLY","outputs":[{"internalType":"uint256","name":"","type":"uint256"}],"stateMutability":"view","type":"function"},{"inputs":[],"name":"DEAD","outputs":[{"internalType":"address","name":"","type":"address"}],"stateMutability":"view","type":"function"},{"inputs":[],"name":"FEE_BPS","outputs":[{"internalType":"uint256","name":"","type":"uint256"}],"stateMutability":"view","type":"function"},{"inputs":[],"name":"LP_RESERVE_TOKENS","outputs":[{"internalType":"uint256","name":"","type":"uint256"}],"stateMutability":"view","type":"function"},{"inputs":[{"internalType":"uint256","name":"minTokensOut","type":"uint256"}],"name":"buy","outputs":[],"stateMutability":"payable","type":"function"},{"inputs":[],"name":"cancelLaunch","outputs":[],"stateMutability":"nonpayable","type":"function"},{"inputs":[],"name":"cancelled","outputs":[{"internalType":"bool","name":"","type":"bool"}],"stateMutability":"view","type":"function"},{"inputs":[{"internalType":"address payable","name":"to","type":"address"}],"name":"claimCreatorFees","outputs":[],"stateMutability":"nonpayable","type":"function"},{"inputs":[],"name":"creator","outputs":[{"internalType":"address","name":"","type":"address"}],"stateMutability":"view","type":"function"},{"inputs":[],"name":"creatorFeesAccrued","outputs":[{"internalType":"uint256","name":"","type":"uint256"}],"stateMutability":"view","type":"function"},{"inputs":[],"name":"factory","outputs":[{"internalType":"address","name":"","type":"address"}],"stateMutability":"view","type":"function"},{"inputs":[],"name":"getCurveState","outputs":[{"internalType":"uint256","name":"_realEth","type":"uint256"},{"internalType":"uint256","name":"_tokensSold","type":"uint256"},{"internalType":"uint256","name":"_currentPriceWeiPerToken","type":"uint256"},{"internalType":"uint256","name":"_percentBondedBps","type":"uint256"},{"internalType":"bool","name":"_graduated","type":"bool"},{"internalType":"bool","name":"_cancelled","type":"bool"}],"stateMutability":"view","type":"function"},{"inputs":[],"name":"graduated","outputs":[{"internalType":"bool","name":"","type":"bool"}],"stateMutability":"view","type":"function"},{"inputs":[],"name":"launchEthUsd","outputs":[{"internalType":"uint256","name":"","type":"uint256"}],"stateMutability":"view","type":"function"},{"inputs":[{"internalType":"uint256","name":"ethIn","type":"uint256"}],"name":"quoteBuy","outputs":[{"internalType":"uint256","name":"tokensOut","type":"uint256"},{"internalType":"uint256","name":"fee","type":"uint256"}],"stateMutability":"view","type":"function"},{"inputs":[{"internalType":"uint256","name":"tokenAmount","type":"uint256"}],"name":"quoteSell","outputs":[{"internalType":"uint256","name":"ethOut","type":"uint256"},{"internalType":"uint256","name":"fee","type":"uint256"}],"stateMutability":"view","type":"function"},{"inputs":[],"name":"realEthCollected","outputs":[{"internalType":"uint256","name":"","type":"uint256"}],"stateMutability":"view","type":"function"},{"inputs":[{"internalType":"uint256","name":"tokenAmount","type":"uint256"},{"internalType":"uint256","name":"minEthOut","type":"uint256"}],"name":"sell","outputs":[],"stateMutability":"nonpayable","type":"function"},{"inputs":[{"internalType":"address payable","name":"to","type":"address"}],"name":"sweepEthAfterCancel","outputs":[{"internalType":"uint256","name":"amount","type":"uint256"}],"stateMutability":"nonpayable","type":"function"},{"inputs":[{"internalType":"address","name":"to","type":"address"}],"name":"sweepTokensAfterCancel","outputs":[{"internalType":"uint256","name":"amount","type":"uint256"}],"stateMutability":"nonpayable","type":"function"},{"inputs":[],"name":"token","outputs":[{"internalType":"address","name":"","type":"address"}],"stateMutability":"view","type":"function"},{"inputs":[],"name":"tokensSold","outputs":[{"internalType":"uint256","name":"","type":"uint256"}],"stateMutability":"view","type":"function"},{"inputs":[],"name":"v2Factory","outputs":[{"internalType":"address","name":"","type":"address"}],"stateMutability":"view","type":"function"},{"inputs":[],"name":"v2Pair","outputs":[{"internalType":"address","name":"","type":"address"}],"stateMutability":"view","type":"function"},{"inputs":[],"name":"v2Router","outputs":[{"internalType":"address","name":"","type":"address"}],"stateMutability":"view","type":"function"},{"inputs":[],"name":"virtualEthReserve","outputs":[{"internalType":"uint256","name":"","type":"uint256"}],"stateMutability":"view","type":"function"},{"inputs":[],"name":"weth","outputs":[{"internalType":"address","name":"","type":"address"}],"stateMutability":"view","type":"function"},{"stateMutability":"payable","type":"receive"}],"evm":{"bytecode":{"linkReferences":{},"object":"6101803461023557601f611aa738819003918201601f19168301916001600160401b038311848410176102395780849261010094604052833981010312610235576100498161024d565b906100566020820161024d565b6100626040830161024d565b606083015160808401519161007960a0860161024d565b9361009260e061008b60c0890161024d565b970161024d565b60017f9b779b17422d0df92223018b32b4d1fa46e071723d6817e2486d003becc55f0055966001600160a01b038116151580610223575b156101f35783156101bb5760805260a05260c05260e052610100526101205261014052610160526040516118459081610262823960805181818161017c0152818161031d0152818161096f0152610fa7015260a051818181610b4601526113c4015260c0518181816104cb01528181610c9501528181610da801528181610f520152611285015260e05181818161026c0152818161088b01528181610df3015281816111a8015281816114f20152611591015261010051816113470152610120518181816101e6015261041b0152610140518181816105540152610ef9015261016051818181610522015261121b0152f35b60405162461bcd60e51b815260206004820152601060248201526f4261642076697274207265736572766560801b6044820152606490fd5b60405162461bcd60e51b81526020600482015260086024820152672130b21030b2323960c11b6044820152606490fd5b506001600160a01b03831615156100c9565b5f80fd5b634e487b7160e01b5f52604160045260245ffd5b51906001600160a01b03821682036102355756fe608080604052600436101561001c575b50361561001a575f80fd5b005b5f3560e01c90816302d05d3f146113b25750806303fd2a4514611396578063056939da1461136a5780631efeb5d11461133057806321ae730714611313578063392c695e1461126f5780633af525b41461124a5780633fc8cef3146112065780634beb394c146111e8578063518ab2a8146111cb57806352b86d2b1461119157806359dd723d1461116f5780636637e38c146111535780639a82a09a1461112e5780639f870a7514611108578063a64190c4146110de578063a966f376146110c2578063ae05f22d14610f28578063b4b57c3914610ee4578063bf333f2c14610ec9578063c417d1f014610dd7578063c45a015514610d93578063c83f60f014610c69578063d6ae6e4414610b16578063d79875eb14610840578063d96a094a14610215578063deadbc14146101d1578063e7c2b772146101af5763fc0c546a14610167575f61000f565b346101ab575f3660031901126101ab576040517f00000000000000000000000000000000000000000000000000000000000000006001600160a01b03168152602090f35b5f80fd5b346101ab575f3660031901126101ab57602060ff600354166040519015158152f35b346101ab575f3660031901126101ab576040517f00000000000000000000000000000000000000000000000000000000000000006001600160a01b03168152602090f35b60203660031901126101ab57610229611797565b61024160035460ff8116159081610831575b5061142e565b3415610801576064340234810460640361067b576127109004610264813461149c565b5f54610290817f00000000000000000000000000000000000000000000000000000000000000006114a9565b60015492906714adf4b7320334b9601d1b84810390811161067b576102cc826102c6856102c0856102d29761146b565b926114a9565b9061147e565b9061149c565b926102e1600435851015611744565b83156107d1576102f584926102fc946114a9565b5f556114a9565b60015561030b826002546114a9565b60025560405163a9059cbb60e01b81527f00000000000000000000000000000000000000000000000000000000000000006001600160a01b03169290602081806103598633600484016116af565b03815f885af1908115610645575f916107b2575b501561077b577f27330bd7589580547b6437e08f9c60653de63691d2d2b2c13bff9ee67da2a68d5f5480936103aa6040519283923396348561177b565b0390a2672629f66e0c5300008110156103d1575b60015f805160206117f083398151915255005b6003805460ff19166001908117909155546714adf4b7320334b9601d1b818103939190841161067b576714adf4b7320334b9601d1b036106f2575b60405163095ea7b360e01b81527f00000000000000000000000000000000000000000000000000000000000000006001600160a01b0316600482018190526aa56fa5b99019a5c80000006024830152906020816044815f875af1908115610645575f916106c3575b501561068f57610258420180421161067b57839160c4606092604051948593849263f305d71960e01b84528860048501526aa56fa5b99019a5c800000060248501525f60448501525f606485015260018060a01b037f000000000000000000000000000000000000000000000000000000000000000016608485015260a48401525af1801561064557610650575b5060405163e6a4390560e01b815260048101919091526001600160a01b037f000000000000000000000000000000000000000000000000000000000000000081166024830152602090829060449082907f0000000000000000000000000000000000000000000000000000000000000000165afa908115610645575f916105f4575b506003805462010000600160b01b031916601092831b62010000600160b01b03161790819055604080519384526aa56fa5b99019a5c800000060208501528301939093529190911c6001600160a01b031660608201525f805160206117d083398151915290608090a180806103be565b90506020813d60201161063d575b8161060f60209383611660565b810103126101ab5751906001600160a01b03821682036101ab57905f805160206117d0833981519152610584565b3d9150610602565b6040513d5f823e3d90fd5b606090813d8311610674575b6106668183611660565b810103126101ab5783610502565b503d61065c565b634e487b7160e01b5f52601160045260245ffd5b60405162461bcd60e51b815260206004820152600c60248201526b105c1c1c9bdd994819985a5b60a21b6044820152606490fd5b6106e5915060203d6020116106eb575b6106dd8183611660565b810190611697565b85610474565b503d6106d3565b60405163a9059cbb60e01b815261dead6004820152602481018490526020816044815f865af1908115610645575f9161075c575b5061040c5760405162461bcd60e51b8152602060048201526009602482015268109d5c9b8819985a5b60ba1b6044820152606490fd5b610775915060203d6020116106eb576106dd8183611660565b84610726565b60405162461bcd60e51b815260206004820152600f60248201526e151bdad95b881e19995c8819985a5b608a1b6044820152606490fd5b6107cb915060203d6020116106eb576106dd8183611660565b8461036d565b60405162461bcd60e51b815260206004820152600860248201526716995c9bc81bdd5d60c21b6044820152606490fd5b60405162461bcd60e51b81526020600482015260086024820152670b4cae4de408aa8960c31b6044820152606490fd5b60ff915060081c16158261023b565b346101ab5760403660031901126101ab5760043561085c611797565b61087360035460ff8116159081610b07575061142e565b8015610ad457600154808211610aa0575f546108af817f00000000000000000000000000000000000000000000000000000000000000006114a9565b6714adf4b7320334b9601d1b8381039190821161067b576102cc826108e16108da886108e6966114a9565b918461146b565b61147e565b90606482028281046064148315171561067b57612710900491610909838261149c565b93610918602435861015611744565b828211610a675761092d86926109349461149c565b5f5561149c565b600155610943816002546114a9565b6002556040516323b872dd60e01b8152336004820152306024820152604481018490526020816064815f7f00000000000000000000000000000000000000000000000000000000000000006001600160a01b03165af1908115610645575f91610a48575b5015610a1157816109e85f8080807f490fdc1c23c0f3a84bf80a0384eaadcb9188c9ef71b9430da391a0e4c4c39bf697335af16109e26116ca565b50611708565b6109fb5f5460405193849333978561177b565b0390a260015f805160206117f083398151915255005b60405162461bcd60e51b815260206004820152600f60248201526e151bdad95b881c1d5b1b0819985a5b608a1b6044820152606490fd5b610a61915060203d6020116106eb576106dd8183611660565b846109a7565b60405162461bcd60e51b81526020600482015260116024820152705265736572766520756e646572666c6f7760781b6044820152606490fd5b60405162461bcd60e51b815260206004820152600c60248201526b115e18d959591cc81cdbdb1960a21b6044820152606490fd5b60405162461bcd60e51b815260206004820152600b60248201526a5a65726f20746f6b656e7360a81b6044820152606490fd5b60ff915060081c16158361023b565b346101ab5760203660031901126101ab576004356001600160a01b038116908190036101ab57610b44611797565b7f00000000000000000000000000000000000000000000000000000000000000006001600160a01b03163303610c35578015610c07576002548015610bd85760207fd046302bdc39599e60a5981e59227dcd1c643f512f56f2e984390c3ac6eadedb915f600255610bbe5f80808085895af16109e26116ca565b604051908152a260015f805160206117f083398151915255005b60405162461bcd60e51b81526020600482015260076024820152664e6f206665657360c81b6044820152606490fd5b60405162461bcd60e51b815260206004820152600660248201526542616420746f60d01b6044820152606490fd5b60405162461bcd60e51b815260206004820152600c60248201526b27b7363c9031b932b0ba37b960a11b6044820152606490fd5b346101ab5760203660031901126101ab576004356001600160a01b038116908190036101ab57610cc3337f00000000000000000000000000000000000000000000000000000000000000006001600160a01b0316146113f3565b610ccb611797565b610cdc60ff60035460081c16611624565b600254479080821115610d8b57610cf29161149c565b5f805580610d40575b6020917f179809d94b01185c84383aadba3612822366ef4558cf145d75a95a5f533b497b83604051848152a260015f805160206117f083398151915255604051908152f35b5f80808084865af1610d506116ca565b50610cfb5760405162461bcd60e51b815260206004820152600e60248201526d115512081cddd9595c0819985a5b60921b6044820152606490fd5b50505f610cf2565b346101ab575f3660031901126101ab576040517f00000000000000000000000000000000000000000000000000000000000000006001600160a01b03168152602090f35b346101ab575f3660031901126101ab575f5460015490610e17817f00000000000000000000000000000000000000000000000000000000000000006114a9565b6714adf4b7320334b9601d1b83810390811161067b576714adf4b7320334b9601d1b8414610ec057670de0b6b3a7640000820291808304670de0b6b3a7640000149015171561067b57610e699161147e565b915b612710820290828204612710148315171561067b57672629f66e0c53000060ff9260c09560035493604051968752602087015260408601520460608401528181161515608084015260081c16151560a0820152f35b50505f91610e6b565b346101ab575f3660031901126101ab57602060405160648152f35b346101ab575f3660031901126101ab576040517f00000000000000000000000000000000000000000000000000000000000000006001600160a01b03168152602090f35b346101ab5760203660031901126101ab576004356001600160a01b03811681036101ab57610f80337f00000000000000000000000000000000000000000000000000000000000000006001600160a01b0316146113f3565b610f9160ff60035460081c16611624565b6040516370a0823160e01b8152306004820152907f00000000000000000000000000000000000000000000000000000000000000006001600160a01b031690602083602481855afa928315610645575f9361108e575b5082610ff9575b602083604051908152f35b8261101e926020925f60405180968195829463a9059cbb60e01b8452600484016116af565b03925af1908115610645575f9161106f575b501561103d578180610fee565b60405162461bcd60e51b815260206004820152600a60248201526914ddd9595c0819985a5b60b21b6044820152606490fd5b611088915060203d6020116106eb576106dd8183611660565b82611030565b9092506020813d6020116110ba575b816110aa60209383611660565b810103126101ab57519183610fe7565b3d915061109d565b346101ab575f3660031901126101ab5760205f54604051908152f35b346101ab5760203660031901126101ab5760406110fc60043561156c565b82519182526020820152f35b346101ab575f3660031901126101ab576040516714adf4b7320334b9601d1b8152602090f35b346101ab575f3660031901126101ab57602060ff60035460081c166040519015158152f35b346101ab575f3660031901126101ab5760206040516127108152f35b346101ab575f3660031901126101ab576020604051672629f66e0c5300008152f35b346101ab575f3660031901126101ab5760206040517f00000000000000000000000000000000000000000000000000000000000000008152f35b346101ab575f3660031901126101ab576020600154604051908152f35b346101ab5760203660031901126101ab5760406110fc6004356114b6565b346101ab575f3660031901126101ab576040517f00000000000000000000000000000000000000000000000000000000000000006001600160a01b03168152602090f35b346101ab575f3660031901126101ab5760206040516aa56fa5b99019a5c80000008152f35b346101ab575f3660031901126101ab576112b3337f00000000000000000000000000000000000000000000000000000000000000006001600160a01b0316146113f3565b61010060035460ff81161580611304575b6112cd9061142e565b61ff001916176003557fc41d93b8bfbf9fd7cf5bfe271fd649ab6a6fec0ea101c23b82a2a28eca2533a960205f54604051908152a1005b50600881901c60ff16156112c4565b346101ab575f3660031901126101ab576020600254604051908152f35b346101ab575f3660031901126101ab5760206040517f00000000000000000000000000000000000000000000000000000000000000008152f35b346101ab575f3660031901126101ab5760035460405160109190911c6001600160a01b03168152602090f35b346101ab575f3660031901126101ab57602060405161dead8152f35b346101ab575f3660031901126101ab577f00000000000000000000000000000000000000000000000000000000000000006001600160a01b03168152602090f35b156113fa57565b60405162461bcd60e51b815260206004820152600c60248201526b4f6e6c7920666163746f727960a01b6044820152606490fd5b1561143557565b60405162461bcd60e51b815260206004820152600e60248201526d437572766520696e61637469766560901b6044820152606490fd5b8181029291811591840414171561067b57565b8115611488570490565b634e487b7160e01b5f52601260045260245ffd5b9190820391821161067b57565b9190820180921161067b57565b8015808015611560575b8015611551575b611549576064820290828204606414171561067b576127106114eb9104809261149c565b6115165f547f00000000000000000000000000000000000000000000000000000000000000006114a9565b60015490916714adf4b7320334b9601d1b91820391821161067b57826102c66102cc926102c0856115469761146b565b91565b50505f905f90565b5060ff60035460081c166114c7565b5060ff600354166114c0565b80158015611618575b8015611609575b61160257600154808211611549576115b55f547f00000000000000000000000000000000000000000000000000000000000000006114a9565b6714adf4b7320334b9601d1b918203929091831161067b57826108e16108da6102cc936115e1966114a9565b606481028181046064148215171561067b576127106115469104809261149c565b505f905f90565b5060ff60035460081c1661157c565b5060ff60035416611575565b1561162b57565b60405162461bcd60e51b815260206004820152600d60248201526c139bdd0818d85b98d95b1b1959609a1b6044820152606490fd5b601f909101601f19168101906001600160401b0382119082101761168357604052565b634e487b7160e01b5f52604160045260245ffd5b908160209103126101ab575180151581036101ab5790565b6001600160a01b039091168152602081019190915260400190565b3d15611703573d906001600160401b03821161168357604051916116f8601f8201601f191660200184611660565b82523d5f602084013e565b606090565b1561170f57565b60405162461bcd60e51b815260206004820152600d60248201526c115512081cd95b990819985a5b609a1b6044820152606490fd5b1561174b57565b60405162461bcd60e51b8152602060048201526008602482015267536c69707061676560c01b6044820152606490fd5b9094939260609260808301968352602083015260408201520152565b60025f805160206117f083398151915254146117c05760025f805160206117f083398151915255565b633ee5aeb560e01b5f5260045ffdfe3693576b24b0b545b0a78bc32216975c72c4d410f7a7fbecc97953d09f7f3cc89b779b17422d0df92223018b32b4d1fa46e071723d6817e2486d003becc55f00a26469706673582212208530bba1ef3a4b0b4cd1f6b60b4cffa4b14a78402f6fbb1b197110ce04d212c564736f6c634300081a0033","opcodes":"PUSH2 0x180 CALLVALUE PUSH2 0x235 JUMPI PUSH1 0x1F PUSH2 0x1AA7 CODESIZE DUP2 SWAP1 SUB SWAP2 DUP3 ADD PUSH1 0x1F NOT AND DUP4 ADD SWAP2 PUSH1 0x1 PUSH1 0x1 PUSH1 0x40 SHL SUB DUP4 GT DUP5 DUP5 LT OR PUSH2 0x239 JUMPI DUP1 DUP5 SWAP3 PUSH2 0x100 SWAP5 PUSH1 0x40 MSTORE DUP4 CODECOPY DUP2 ADD SUB SLT PUSH2 0x235 JUMPI PUSH2 0x49 DUP2 PUSH2 0x24D JUMP JUMPDEST SWAP1 PUSH2 0x56 PUSH1 0x20 DUP3 ADD PUSH2 0x24D JUMP JUMPDEST PUSH2 0x62 PUSH1 0x40 DUP4 ADD PUSH2 0x24D JUMP JUMPDEST PUSH1 0x60 DUP4 ADD MLOAD PUSH1 0x80 DUP5 ADD MLOAD SWAP2 PUSH2 0x79 PUSH1 0xA0 DUP7 ADD PUSH2 0x24D JUMP JUMPDEST SWAP4 PUSH2 0x92 PUSH1 0xE0 PUSH2 0x8B PUSH1 0xC0 DUP10 ADD PUSH2 0x24D JUMP JUMPDEST SWAP8 ADD PUSH2 0x24D JUMP JUMPDEST PUSH1 0x1 PUSH32 0x9B779B17422D0DF92223018B32B4D1FA46E071723D6817E2486D003BECC55F00 SSTORE SWAP7 PUSH1 0x1 PUSH1 0x1 PUSH1 0xA0 SHL SUB DUP2 AND ISZERO ISZERO DUP1 PUSH2 0x223 JUMPI JUMPDEST ISZERO PUSH2 0x1F3 JUMPI DUP4 ISZERO PUSH2 0x1BB JUMPI PUSH1 0x80 MSTORE PUSH1 0xA0 MSTORE PUSH1 0xC0 MSTORE PUSH1 0xE0 MSTORE PUSH2 0x100 MSTORE PUSH2 0x120 MSTORE PUSH2 0x140 MSTORE PUSH2 0x160 MSTORE PUSH1 0x40 MLOAD PUSH2 0x1845 SWAP1 DUP2 PUSH2 0x262 DUP3 CODECOPY PUSH1 0x80 MLOAD DUP2 DUP2 DUP2 PUSH2 0x17C ADD MSTORE DUP2 DUP2 PUSH2 0x31D ADD MSTORE DUP2 DUP2 PUSH2 0x96F ADD MSTORE PUSH2 0xFA7 ADD MSTORE PUSH1 0xA0 MLOAD DUP2 DUP2 DUP2 PUSH2 0xB46 ADD MSTORE PUSH2 0x13C4 ADD MSTORE PUSH1 0xC0 MLOAD DUP2 DUP2 DUP2 PUSH2 0x4CB ADD MSTORE DUP2 DUP2 PUSH2 0xC95 ADD MSTORE DUP2 DUP2 PUSH2 0xDA8 ADD MSTORE DUP2 DUP2 PUSH2 0xF52 ADD MSTORE PUSH2 0x1285 ADD MSTORE PUSH1 0xE0 MLOAD DUP2 DUP2 DUP2 PUSH2 0x26C ADD MSTORE DUP2 DUP2 PUSH2 0x88B ADD MSTORE DUP2 DUP2 PUSH2 0xDF3 ADD MSTORE DUP2 DUP2 PUSH2 0x11A8 ADD MSTORE DUP2 DUP2 PUSH2 0x14F2 ADD MSTORE PUSH2 0x1591 ADD MSTORE PUSH2 0x100 MLOAD DUP2 PUSH2 0x1347 ADD MSTORE PUSH2 0x120 MLOAD DUP2 DUP2 DUP2 PUSH2 0x1E6 ADD MSTORE PUSH2 0x41B ADD MSTORE PUSH2 0x140 MLOAD DUP2 DUP2 DUP2 PUSH2 0x554 ADD MSTORE PUSH2 0xEF9 ADD MSTORE PUSH2 0x160 MLOAD DUP2 DUP2 DUP2 PUSH2 0x522 ADD MSTORE PUSH2 0x121B ADD MSTORE RETURN JUMPDEST PUSH1 0x40 MLOAD PUSH3 0x461BCD PUSH1 0xE5 SHL DUP2 MSTORE PUSH1 0x20 PUSH1 0x4 DUP3 ADD MSTORE PUSH1 0x10 PUSH1 0x24 DUP3 ADD MSTORE PUSH16 0x42616420766972742072657365727665 PUSH1 0x80 SHL PUSH1 0x44 DUP3 ADD MSTORE PUSH1 0x64 SWAP1 REVERT JUMPDEST PUSH1 0x40 MLOAD PUSH3 0x461BCD PUSH1 0xE5 SHL DUP2 MSTORE PUSH1 0x20 PUSH1 0x4 DUP3 ADD MSTORE PUSH1 0x8 PUSH1 0x24 DUP3 ADD MSTORE PUSH8 0x2130B21030B23239 PUSH1 0xC1 SHL PUSH1 0x44 DUP3 ADD MSTORE PUSH1 0x64 SWAP1 REVERT JUMPDEST POP PUSH1 0x1 PUSH1 0x1 PUSH1 0xA0 SHL SUB DUP4 AND ISZERO ISZERO PUSH2 0xC9 JUMP JUMPDEST PUSH0 DUP1 REVERT JUMPDEST PUSH4 0x4E487B71 PUSH1 0xE0 SHL PUSH0 MSTORE PUSH1 0x41 PUSH1 0x4 MSTORE PUSH1 0x24 PUSH0 REVERT JUMPDEST MLOAD SWAP1 PUSH1 0x1 PUSH1 0x1 PUSH1 0xA0 SHL SUB DUP3 AND DUP3 SUB PUSH2 0x235 JUMPI JUMP INVALID PUSH1 0x80 DUP1 PUSH1 0x40 MSTORE PUSH1 0x4 CALLDATASIZE LT ISZERO PUSH2 0x1C JUMPI JUMPDEST POP CALLDATASIZE ISZERO PUSH2 0x1A JUMPI PUSH0 DUP1 REVERT JUMPDEST STOP JUMPDEST PUSH0 CALLDATALOAD PUSH1 0xE0 SHR SWAP1 DUP2 PUSH4 0x2D05D3F EQ PUSH2 0x13B2 JUMPI POP DUP1 PUSH4 0x3FD2A45 EQ PUSH2 0x1396 JUMPI DUP1 PUSH4 0x56939DA EQ PUSH2 0x136A JUMPI DUP1 PUSH4 0x1EFEB5D1 EQ PUSH2 0x1330 JUMPI DUP1 PUSH4 0x21AE7307 EQ PUSH2 0x1313 JUMPI DUP1 PUSH4 0x392C695E EQ PUSH2 0x126F JUMPI DUP1 PUSH4 0x3AF525B4 EQ PUSH2 0x124A JUMPI DUP1 PUSH4 0x3FC8CEF3 EQ PUSH2 0x1206 JUMPI DUP1 PUSH4 0x4BEB394C EQ PUSH2 0x11E8 JUMPI DUP1 PUSH4 0x518AB2A8 EQ PUSH2 0x11CB JUMPI DUP1 PUSH4 0x52B86D2B EQ PUSH2 0x1191 JUMPI DUP1 PUSH4 0x59DD723D EQ PUSH2 0x116F JUMPI DUP1 PUSH4 0x6637E38C EQ PUSH2 0x1153 JUMPI DUP1 PUSH4 0x9A82A09A EQ PUSH2 0x112E JUMPI DUP1 PUSH4 0x9F870A75 EQ PUSH2 0x1108 JUMPI DUP1 PUSH4 0xA64190C4 EQ PUSH2 0x10DE JUMPI DUP1 PUSH4 0xA966F376 EQ PUSH2 0x10C2 JUMPI DUP1 PUSH4 0xAE05F22D EQ PUSH2 0xF28 JUMPI DUP1 PUSH4 0xB4B57C39 EQ PUSH2 0xEE4 JUMPI DUP1 PUSH4 0xBF333F2C EQ PUSH2 0xEC9 JUMPI DUP1 PUSH4 0xC417D1F0 EQ PUSH2 0xDD7 JUMPI DUP1 PUSH4 0xC45A0155 EQ PUSH2 0xD93 JUMPI DUP1 PUSH4 0xC83F60F0 EQ PUSH2 0xC69 JUMPI DUP1 PUSH4 0xD6AE6E44 EQ PUSH2 0xB16 JUMPI DUP1 PUSH4 0xD79875EB EQ PUSH2 0x840 JUMPI DUP1 PUSH4 0xD96A094A EQ PUSH2 0x215 JUMPI DUP1 PUSH4 0xDEADBC14 EQ PUSH2 0x1D1 JUMPI DUP1 PUSH4 0xE7C2B772 EQ PUSH2 0x1AF JUMPI PUSH4 0xFC0C546A EQ PUSH2 0x167 JUMPI PUSH0 PUSH2 0xF JUMP JUMPDEST CALLVALUE PUSH2 0x1AB JUMPI PUSH0 CALLDATASIZE PUSH1 0x3 NOT ADD SLT PUSH2 0x1AB JUMPI PUSH1 0x40 MLOAD PUSH32 0x0 PUSH1 0x1 PUSH1 0x1 PUSH1 0xA0 SHL SUB AND DUP2 MSTORE PUSH1 0x20 SWAP1 RETURN JUMPDEST PUSH0 DUP1 REVERT JUMPDEST CALLVALUE PUSH2 0x1AB JUMPI PUSH0 CALLDATASIZE PUSH1 0x3 NOT ADD SLT PUSH2 0x1AB JUMPI PUSH1 0x20 PUSH1 0xFF PUSH1 0x3 SLOAD AND PUSH1 0x40 MLOAD SWAP1 ISZERO ISZERO DUP2 MSTORE RETURN JUMPDEST CALLVALUE PUSH2 0x1AB JUMPI PUSH0 CALLDATASIZE PUSH1 0x3 NOT ADD SLT PUSH2 0x1AB JUMPI PUSH1 0x40 MLOAD PUSH32 0x0 PUSH1 0x1 PUSH1 0x1 PUSH1 0xA0 SHL SUB AND DUP2 MSTORE PUSH1 0x20 SWAP1 RETURN JUMPDEST PUSH1 0x20 CALLDATASIZE PUSH1 0x3 NOT ADD SLT PUSH2 0x1AB JUMPI PUSH2 0x229 PUSH2 0x1797 JUMP JUMPDEST PUSH2 0x241 PUSH1 0x3 SLOAD PUSH1 0xFF DUP2 AND ISZERO SWAP1 DUP2 PUSH2 0x831 JUMPI JUMPDEST POP PUSH2 0x142E JUMP JUMPDEST CALLVALUE ISZERO PUSH2 0x801 JUMPI PUSH1 0x64 CALLVALUE MUL CALLVALUE DUP2 DIV PUSH1 0x64 SUB PUSH2 0x67B JUMPI PUSH2 0x2710 SWAP1 DIV PUSH2 0x264 DUP2 CALLVALUE PUSH2 0x149C JUMP JUMPDEST PUSH0 SLOAD PUSH2 0x290 DUP2 PUSH32 0x0 PUSH2 0x14A9 JUMP JUMPDEST PUSH1 0x1 SLOAD SWAP3 SWAP1 PUSH8 0x14ADF4B7320334B9 PUSH1 0x1D SHL DUP5 DUP2 SUB SWAP1 DUP2 GT PUSH2 0x67B JUMPI PUSH2 0x2CC DUP3 PUSH2 0x2C6 DUP6 PUSH2 0x2C0 DUP6 PUSH2 0x2D2 SWAP8 PUSH2 0x146B JUMP JUMPDEST SWAP3 PUSH2 0x14A9 JUMP JUMPDEST SWAP1 PUSH2 0x147E JUMP JUMPDEST SWAP1 PUSH2 0x149C JUMP JUMPDEST SWAP3 PUSH2 0x2E1 PUSH1 0x4 CALLDATALOAD DUP6 LT ISZERO PUSH2 0x1744 JUMP JUMPDEST DUP4 ISZERO PUSH2 0x7D1 JUMPI PUSH2 0x2F5 DUP5 SWAP3 PUSH2 0x2FC SWAP5 PUSH2 0x14A9 JUMP JUMPDEST PUSH0 SSTORE PUSH2 0x14A9 JUMP JUMPDEST PUSH1 0x1 SSTORE PUSH2 0x30B DUP3 PUSH1 0x2 SLOAD PUSH2 0x14A9 JUMP JUMPDEST PUSH1 0x2 SSTORE PUSH1 0x40 MLOAD PUSH4 0xA9059CBB PUSH1 0xE0 SHL DUP2 MSTORE PUSH32 0x0 PUSH1 0x1 PUSH1 0x1 PUSH1 0xA0 SHL SUB AND SWAP3 SWAP1 PUSH1 0x20 DUP2 DUP1 PUSH2 0x359 DUP7 CALLER PUSH1 0x4 DUP5 ADD PUSH2 0x16AF JUMP JUMPDEST SUB DUP2 PUSH0 DUP9 GAS CALL SWAP1 DUP2 ISZERO PUSH2 0x645 JUMPI PUSH0 SWAP2 PUSH2 0x7B2 JUMPI JUMPDEST POP ISZERO PUSH2 0x77B JUMPI PUSH32 0x27330BD7589580547B6437E08F9C60653DE63691D2D2B2C13BFF9EE67DA2A68D PUSH0 SLOAD DUP1 SWAP4 PUSH2 0x3AA PUSH1 0x40 MLOAD SWAP3 DUP4 SWAP3 CALLER SWAP7 CALLVALUE DUP6 PUSH2 0x177B JUMP JUMPDEST SUB SWAP1 LOG2 PUSH8 0x2629F66E0C530000 DUP2 LT ISZERO PUSH2 0x3D1 JUMPI JUMPDEST PUSH1 0x1 PUSH0 DUP1 MLOAD PUSH1 0x20 PUSH2 0x17F0 DUP4 CODECOPY DUP2 MLOAD SWAP2 MSTORE SSTORE STOP JUMPDEST PUSH1 0x3 DUP1 SLOAD PUSH1 0xFF NOT AND PUSH1 0x1 SWAP1 DUP2 OR SWAP1 SWAP2 SSTORE SLOAD PUSH8 0x14ADF4B7320334B9 PUSH1 0x1D SHL DUP2 DUP2 SUB SWAP4 SWAP2 SWAP1 DUP5 GT PUSH2 0x67B JUMPI PUSH8 0x14ADF4B7320334B9 PUSH1 0x1D SHL SUB PUSH2 0x6F2 JUMPI JUMPDEST PUSH1 0x40 MLOAD PUSH4 0x95EA7B3 PUSH1 0xE0 SHL DUP2 MSTORE PUSH32 0x0 PUSH1 0x1 PUSH1 0x1 PUSH1 0xA0 SHL SUB AND PUSH1 0x4 DUP3 ADD DUP2 SWAP1 MSTORE PUSH11 0xA56FA5B99019A5C8000000 PUSH1 0x24 DUP4 ADD MSTORE SWAP1 PUSH1 0x20 DUP2 PUSH1 0x44 DUP2 PUSH0 DUP8 GAS CALL SWAP1 DUP2 ISZERO PUSH2 0x645 JUMPI PUSH0 SWAP2 PUSH2 0x6C3 JUMPI JUMPDEST POP ISZERO PUSH2 0x68F JUMPI PUSH2 0x258 TIMESTAMP ADD DUP1 TIMESTAMP GT PUSH2 0x67B JUMPI DUP4 SWAP2 PUSH1 0xC4 PUSH1 0x60 SWAP3 PUSH1 0x40 MLOAD SWAP5 DUP6 SWAP4 DUP5 SWAP3 PUSH4 0xF305D719 PUSH1 0xE0 SHL DUP5 MSTORE DUP9 PUSH1 0x4 DUP6 ADD MSTORE PUSH11 0xA56FA5B99019A5C8000000 PUSH1 0x24 DUP6 ADD MSTORE PUSH0 PUSH1 0x44 DUP6 ADD MSTORE PUSH0 PUSH1 0x64 DUP6 ADD MSTORE PUSH1 0x1 DUP1 PUSH1 0xA0 SHL SUB PUSH32 0x0 AND PUSH1 0x84 DUP6 ADD MSTORE PUSH1 0xA4 DUP5 ADD MSTORE GAS CALL DUP1 ISZERO PUSH2 0x645 JUMPI PUSH2 0x650 JUMPI JUMPDEST POP PUSH1 0x40 MLOAD PUSH4 0xE6A43905 PUSH1 0xE0 SHL DUP2 MSTORE PUSH1 0x4 DUP2 ADD SWAP2 SWAP1 SWAP2 MSTORE PUSH1 0x1 PUSH1 0x1 PUSH1 0xA0 SHL SUB PUSH32 0x0 DUP2 AND PUSH1 0x24 DUP4 ADD MSTORE PUSH1 0x20 SWAP1 DUP3 SWAP1 PUSH1 0x44 SWAP1 DUP3 SWAP1 PUSH32 0x0 AND GAS STATICCALL SWAP1 DUP2 ISZERO PUSH2 0x645 JUMPI PUSH0 SWAP2 PUSH2 0x5F4 JUMPI JUMPDEST POP PUSH1 0x3 DUP1 SLOAD PUSH3 0x10000 PUSH1 0x1 PUSH1 0xB0 SHL SUB NOT AND PUSH1 0x10 SWAP3 DUP4 SHL PUSH3 0x10000 PUSH1 0x1 PUSH1 0xB0 SHL SUB AND OR SWAP1 DUP2 SWAP1 SSTORE PUSH1 0x40 DUP1 MLOAD SWAP4 DUP5 MSTORE PUSH11 0xA56FA5B99019A5C8000000 PUSH1 0x20 DUP6 ADD MSTORE DUP4 ADD SWAP4 SWAP1 SWAP4 MSTORE SWAP2 SWAP1 SWAP2 SHR PUSH1 0x1 PUSH1 0x1 PUSH1 0xA0 SHL SUB AND PUSH1 0x60 DUP3 ADD MSTORE PUSH0 DUP1 MLOAD PUSH1 0x20 PUSH2 0x17D0 DUP4 CODECOPY DUP2 MLOAD SWAP2 MSTORE SWAP1 PUSH1 0x80 SWAP1 LOG1 DUP1 DUP1 PUSH2 0x3BE JUMP JUMPDEST SWAP1 POP PUSH1 0x20 DUP2 RETURNDATASIZE PUSH1 0x20 GT PUSH2 0x63D JUMPI JUMPDEST DUP2 PUSH2 0x60F PUSH1 0x20 SWAP4 DUP4 PUSH2 0x1660 JUMP JUMPDEST DUP2 ADD SUB SLT PUSH2 0x1AB JUMPI MLOAD SWAP1 PUSH1 0x1 PUSH1 0x1 PUSH1 0xA0 SHL SUB DUP3 AND DUP3 SUB PUSH2 0x1AB JUMPI SWAP1 PUSH0 DUP1 MLOAD PUSH1 0x20 PUSH2 0x17D0 DUP4 CODECOPY DUP2 MLOAD SWAP2 MSTORE PUSH2 0x584 JUMP JUMPDEST RETURNDATASIZE SWAP2 POP PUSH2 0x602 JUMP JUMPDEST PUSH1 0x40 MLOAD RETURNDATASIZE PUSH0 DUP3 RETURNDATACOPY RETURNDATASIZE SWAP1 REVERT JUMPDEST PUSH1 0x60 SWAP1 DUP2 RETURNDATASIZE DUP4 GT PUSH2 0x674 JUMPI JUMPDEST PUSH2 0x666 DUP2 DUP4 PUSH2 0x1660 JUMP JUMPDEST DUP2 ADD SUB SLT PUSH2 0x1AB JUMPI DUP4 PUSH2 0x502 JUMP JUMPDEST POP RETURNDATASIZE PUSH2 0x65C JUMP JUMPDEST PUSH4 0x4E487B71 PUSH1 0xE0 SHL PUSH0 MSTORE PUSH1 0x11 PUSH1 0x4 MSTORE PUSH1 0x24 PUSH0 REVERT JUMPDEST PUSH1 0x40 MLOAD PUSH3 0x461BCD PUSH1 0xE5 SHL DUP2 MSTORE PUSH1 0x20 PUSH1 0x4 DUP3 ADD MSTORE PUSH1 0xC PUSH1 0x24 DUP3 ADD MSTORE PUSH12 0x105C1C1C9BDD994819985A5B PUSH1 0xA2 SHL PUSH1 0x44 DUP3 ADD MSTORE PUSH1 0x64 SWAP1 REVERT JUMPDEST PUSH2 0x6E5 SWAP2 POP PUSH1 0x20 RETURNDATASIZE PUSH1 0x20 GT PUSH2 0x6EB JUMPI JUMPDEST PUSH2 0x6DD DUP2 DUP4 PUSH2 0x1660 JUMP JUMPDEST DUP2 ADD SWAP1 PUSH2 0x1697 JUMP JUMPDEST DUP6 PUSH2 0x474 JUMP JUMPDEST POP RETURNDATASIZE PUSH2 0x6D3 JUMP JUMPDEST PUSH1 0x40 MLOAD PUSH4 0xA9059CBB PUSH1 0xE0 SHL DUP2 MSTORE PUSH2 0xDEAD PUSH1 0x4 DUP3 ADD MSTORE PUSH1 0x24 DUP2 ADD DUP5 SWAP1 MSTORE PUSH1 0x20 DUP2 PUSH1 0x44 DUP2 PUSH0 DUP7 GAS CALL SWAP1 DUP2 ISZERO PUSH2 0x645 JUMPI PUSH0 SWAP2 PUSH2 0x75C JUMPI JUMPDEST POP PUSH2 0x40C JUMPI PUSH1 0x40 MLOAD PUSH3 0x461BCD PUSH1 0xE5 SHL DUP2 MSTORE PUSH1 0x20 PUSH1 0x4 DUP3 ADD MSTORE PUSH1 0x9 PUSH1 0x24 DUP3 ADD MSTORE PUSH9 0x109D5C9B8819985A5B PUSH1 0xBA SHL PUSH1 0x44 DUP3 ADD MSTORE PUSH1 0x64 SWAP1 REVERT JUMPDEST PUSH2 0x775 SWAP2 POP PUSH1 0x20 RETURNDATASIZE PUSH1 0x20 GT PUSH2 0x6EB JUMPI PUSH2 0x6DD DUP2 DUP4 PUSH2 0x1660 JUMP JUMPDEST DUP5 PUSH2 0x726 JUMP JUMPDEST PUSH1 0x40 MLOAD PUSH3 0x461BCD PUSH1 0xE5 SHL DUP2 MSTORE PUSH1 0x20 PUSH1 0x4 DUP3 ADD MSTORE PUSH1 0xF PUSH1 0x24 DUP3 ADD MSTORE PUSH15 0x151BDAD95B881E19995C8819985A5B PUSH1 0x8A SHL PUSH1 0x44 DUP3 ADD MSTORE PUSH1 0x64 SWAP1 REVERT JUMPDEST PUSH2 0x7CB SWAP2 POP PUSH1 0x20 RETURNDATASIZE PUSH1 0x20 GT PUSH2 0x6EB JUMPI PUSH2 0x6DD DUP2 DUP4 PUSH2 0x1660 JUMP JUMPDEST DUP5 PUSH2 0x36D JUMP JUMPDEST PUSH1 0x40 MLOAD PUSH3 0x461BCD PUSH1 0xE5 SHL DUP2 MSTORE PUSH1 0x20 PUSH1 0x4 DUP3 ADD MSTORE PUSH1 0x8 PUSH1 0x24 DUP3 ADD MSTORE PUSH8 0x16995C9BC81BDD5D PUSH1 0xC2 SHL PUSH1 0x44 DUP3 ADD MSTORE PUSH1 0x64 SWAP1 REVERT JUMPDEST PUSH1 0x40 MLOAD PUSH3 0x461BCD PUSH1 0xE5 SHL DUP2 MSTORE PUSH1 0x20 PUSH1 0x4 DUP3 ADD MSTORE PUSH1 0x8 PUSH1 0x24 DUP3 ADD MSTORE PUSH8 0xB4CAE4DE408AA89 PUSH1 0xC3 SHL PUSH1 0x44 DUP3 ADD MSTORE PUSH1 0x64 SWAP1 REVERT JUMPDEST PUSH1 0xFF SWAP2 POP PUSH1 0x8 SHR AND ISZERO DUP3 PUSH2 0x23B JUMP JUMPDEST CALLVALUE PUSH2 0x1AB JUMPI PUSH1 0x40 CALLDATASIZE PUSH1 0x3 NOT ADD SLT PUSH2 0x1AB JUMPI PUSH1 0x4 CALLDATALOAD PUSH2 0x85C PUSH2 0x1797 JUMP JUMPDEST PUSH2 0x873 PUSH1 0x3 SLOAD PUSH1 0xFF DUP2 AND ISZERO SWAP1 DUP2 PUSH2 0xB07 JUMPI POP PUSH2 0x142E JUMP JUMPDEST DUP1 ISZERO PUSH2 0xAD4 JUMPI PUSH1 0x1 SLOAD DUP1 DUP3 GT PUSH2 0xAA0 JUMPI PUSH0 SLOAD PUSH2 0x8AF DUP2 PUSH32 0x0 PUSH2 0x14A9 JUMP JUMPDEST PUSH8 0x14ADF4B7320334B9 PUSH1 0x1D SHL DUP4 DUP2 SUB SWAP2 SWAP1 DUP3 GT PUSH2 0x67B JUMPI PUSH2 0x2CC DUP3 PUSH2 0x8E1 PUSH2 0x8DA DUP9 PUSH2 0x8E6 SWAP7 PUSH2 0x14A9 JUMP JUMPDEST SWAP2 DUP5 PUSH2 0x146B JUMP JUMPDEST PUSH2 0x147E JUMP JUMPDEST SWAP1 PUSH1 0x64 DUP3 MUL DUP3 DUP2 DIV PUSH1 0x64 EQ DUP4 ISZERO OR ISZERO PUSH2 0x67B JUMPI PUSH2 0x2710 SWAP1 DIV SWAP2 PUSH2 0x909 DUP4 DUP3 PUSH2 0x149C JUMP JUMPDEST SWAP4 PUSH2 0x918 PUSH1 0x24 CALLDATALOAD DUP7 LT ISZERO PUSH2 0x1744 JUMP JUMPDEST DUP3 DUP3 GT PUSH2 0xA67 JUMPI PUSH2 0x92D DUP7 SWAP3 PUSH2 0x934 SWAP5 PUSH2 0x149C JUMP JUMPDEST PUSH0 SSTORE PUSH2 0x149C JUMP JUMPDEST PUSH1 0x1 SSTORE PUSH2 0x943 DUP2 PUSH1 0x2 SLOAD PUSH2 0x14A9 JUMP JUMPDEST PUSH1 0x2 SSTORE PUSH1 0x40 MLOAD PUSH4 0x23B872DD PUSH1 0xE0 SHL DUP2 MSTORE CALLER PUSH1 0x4 DUP3 ADD MSTORE ADDRESS PUSH1 0x24 DUP3 ADD MSTORE PUSH1 0x44 DUP2 ADD DUP5 SWAP1 MSTORE PUSH1 0x20 DUP2 PUSH1 0x64 DUP2 PUSH0 PUSH32 0x0 PUSH1 0x1 PUSH1 0x1 PUSH1 0xA0 SHL SUB AND GAS CALL SWAP1 DUP2 ISZERO PUSH2 0x645 JUMPI PUSH0 SWAP2 PUSH2 0xA48 JUMPI JUMPDEST POP ISZERO PUSH2 0xA11 JUMPI DUP2 PUSH2 0x9E8 PUSH0 DUP1 DUP1 DUP1 PUSH32 0x490FDC1C23C0F3A84BF80A0384EAADCB9188C9EF71B9430DA391A0E4C4C39BF6 SWAP8 CALLER GAS CALL PUSH2 0x9E2 PUSH2 0x16CA JUMP JUMPDEST POP PUSH2 0x1708 JUMP JUMPDEST PUSH2 0x9FB PUSH0 SLOAD PUSH1 0x40 MLOAD SWAP4 DUP5 SWAP4 CALLER SWAP8 DUP6 PUSH2 0x177B JUMP JUMPDEST SUB SWAP1 LOG2 PUSH1 0x1 PUSH0 DUP1 MLOAD PUSH1 0x20 PUSH2 0x17F0 DUP4 CODECOPY DUP2 MLOAD SWAP2 MSTORE SSTORE STOP JUMPDEST PUSH1 0x40 MLOAD PUSH3 0x461BCD PUSH1 0xE5 SHL DUP2 MSTORE PUSH1 0x20 PUSH1 0x4 DUP3 ADD MSTORE PUSH1 0xF PUSH1 0x24 DUP3 ADD MSTORE PUSH15 0x151BDAD95B881C1D5B1B0819985A5B PUSH1 0x8A SHL PUSH1 0x44 DUP3 ADD MSTORE PUSH1 0x64 SWAP1 REVERT JUMPDEST PUSH2 0xA61 SWAP2 POP PUSH1 0x20 RETURNDATASIZE PUSH1 0x20 GT PUSH2 0x6EB JUMPI PUSH2 0x6DD DUP2 DUP4 PUSH2 0x1660 JUMP JUMPDEST DUP5 PUSH2 0x9A7 JUMP JUMPDEST PUSH1 0x40 MLOAD PUSH3 0x461BCD PUSH1 0xE5 SHL DUP2 MSTORE PUSH1 0x20 PUSH1 0x4 DUP3 ADD MSTORE PUSH1 0x11 PUSH1 0x24 DUP3 ADD MSTORE PUSH17 0x5265736572766520756E646572666C6F77 PUSH1 0x78 SHL PUSH1 0x44 DUP3 ADD MSTORE PUSH1 0x64 SWAP1 REVERT JUMPDEST PUSH1 0x40 MLOAD PUSH3 0x461BCD PUSH1 0xE5 SHL DUP2 MSTORE PUSH1 0x20 PUSH1 0x4 DUP3 ADD MSTORE PUSH1 0xC PUSH1 0x24 DUP3 ADD MSTORE PUSH12 0x115E18D959591CC81CDBDB19 PUSH1 0xA2 SHL PUSH1 0x44 DUP3 ADD MSTORE PUSH1 0x64 SWAP1 REVERT JUMPDEST PUSH1 0x40 MLOAD PUSH3 0x461BCD PUSH1 0xE5 SHL DUP2 MSTORE PUSH1 0x20 PUSH1 0x4 DUP3 ADD MSTORE PUSH1 0xB PUSH1 0x24 DUP3 ADD MSTORE PUSH11 0x5A65726F20746F6B656E73 PUSH1 0xA8 SHL PUSH1 0x44 DUP3 ADD MSTORE PUSH1 0x64 SWAP1 REVERT JUMPDEST PUSH1 0xFF SWAP2 POP PUSH1 0x8 SHR AND ISZERO DUP4 PUSH2 0x23B JUMP JUMPDEST CALLVALUE PUSH2 0x1AB JUMPI PUSH1 0x20 CALLDATASIZE PUSH1 0x3 NOT ADD SLT PUSH2 0x1AB JUMPI PUSH1 0x4 CALLDATALOAD PUSH1 0x1 PUSH1 0x1 PUSH1 0xA0 SHL SUB DUP2 AND SWAP1 DUP2 SWAP1 SUB PUSH2 0x1AB JUMPI PUSH2 0xB44 PUSH2 0x1797 JUMP JUMPDEST PUSH32 0x0 PUSH1 0x1 PUSH1 0x1 PUSH1 0xA0 SHL SUB AND CALLER SUB PUSH2 0xC35 JUMPI DUP1 ISZERO PUSH2 0xC07 JUMPI PUSH1 0x2 SLOAD DUP1 ISZERO PUSH2 0xBD8 JUMPI PUSH1 0x20 PUSH32 0xD046302BDC39599E60A5981E59227DCD1C643F512F56F2E984390C3AC6EADEDB SWAP2 PUSH0 PUSH1 0x2 SSTORE PUSH2 0xBBE PUSH0 DUP1 DUP1 DUP1 DUP6 DUP10 GAS CALL PUSH2 0x9E2 PUSH2 0x16CA JUMP JUMPDEST PUSH1 0x40 MLOAD SWAP1 DUP2 MSTORE LOG2 PUSH1 0x1 PUSH0 DUP1 MLOAD PUSH1 0x20 PUSH2 0x17F0 DUP4 CODECOPY DUP2 MLOAD SWAP2 MSTORE SSTORE STOP JUMPDEST PUSH1 0x40 MLOAD PUSH3 0x461BCD PUSH1 0xE5 SHL DUP2 MSTORE PUSH1 0x20 PUSH1 0x4 DUP3 ADD MSTORE PUSH1 0x7 PUSH1 0x24 DUP3 ADD MSTORE PUSH7 0x4E6F2066656573 PUSH1 0xC8 SHL PUSH1 0x44 DUP3 ADD MSTORE PUSH1 0x64 SWAP1 REVERT JUMPDEST PUSH1 0x40 MLOAD PUSH3 0x461BCD PUSH1 0xE5 SHL DUP2 MSTORE PUSH1 0x20 PUSH1 0x4 DUP3 ADD MSTORE PUSH1 0x6 PUSH1 0x24 DUP3 ADD MSTORE PUSH6 0x42616420746F PUSH1 0xD0 SHL PUSH1 0x44 DUP3 ADD MSTORE PUSH1 0x64 SWAP1 REVERT JUMPDEST PUSH1 0x40 MLOAD PUSH3 0x461BCD PUSH1 0xE5 SHL DUP2 MSTORE PUSH1 0x20 PUSH1 0x4 DUP3 ADD MSTORE PUSH1 0xC PUSH1 0x24 DUP3 ADD MSTORE PUSH12 0x27B7363C9031B932B0BA37B9 PUSH1 0xA1 SHL PUSH1 0x44 DUP3 ADD MSTORE PUSH1 0x64 SWAP1 REVERT JUMPDEST CALLVALUE PUSH2 0x1AB JUMPI PUSH1 0x20 CALLDATASIZE PUSH1 0x3 NOT ADD SLT PUSH2 0x1AB JUMPI PUSH1 0x4 CALLDATALOAD PUSH1 0x1 PUSH1 0x1 PUSH1 0xA0 SHL SUB DUP2 AND SWAP1 DUP2 SWAP1 SUB PUSH2 0x1AB JUMPI PUSH2 0xCC3 CALLER PUSH32 0x0 PUSH1 0x1 PUSH1 0x1 PUSH1 0xA0 SHL SUB AND EQ PUSH2 0x13F3 JUMP JUMPDEST PUSH2 0xCCB PUSH2 0x1797 JUMP JUMPDEST PUSH2 0xCDC PUSH1 0xFF PUSH1 0x3 SLOAD PUSH1 0x8 SHR AND PUSH2 0x1624 JUMP JUMPDEST PUSH1 0x2 SLOAD SELFBALANCE SWAP1 DUP1 DUP3 GT ISZERO PUSH2 0xD8B JUMPI PUSH2 0xCF2 SWAP2 PUSH2 0x149C JUMP JUMPDEST PUSH0 DUP1 SSTORE DUP1 PUSH2 0xD40 JUMPI JUMPDEST PUSH1 0x20 SWAP2 PUSH32 0x179809D94B01185C84383AADBA3612822366EF4558CF145D75A95A5F533B497B DUP4 PUSH1 0x40 MLOAD DUP5 DUP2 MSTORE LOG2 PUSH1 0x1 PUSH0 DUP1 MLOAD PUSH1 0x20 PUSH2 0x17F0 DUP4 CODECOPY DUP2 MLOAD SWAP2 MSTORE SSTORE PUSH1 0x40 MLOAD SWAP1 DUP2 MSTORE RETURN JUMPDEST PUSH0 DUP1 DUP1 DUP1 DUP5 DUP7 GAS CALL PUSH2 0xD50 PUSH2 0x16CA JUMP JUMPDEST POP PUSH2 0xCFB JUMPI PUSH1 0x40 MLOAD PUSH3 0x461BCD PUSH1 0xE5 SHL DUP2 MSTORE PUSH1 0x20 PUSH1 0x4 DUP3 ADD MSTORE PUSH1 0xE PUSH1 0x24 DUP3 ADD MSTORE PUSH14 0x115512081CDDD9595C0819985A5B PUSH1 0x92 SHL PUSH1 0x44 DUP3 ADD MSTORE PUSH1 0x64 SWAP1 REVERT JUMPDEST POP POP PUSH0 PUSH2 0xCF2 JUMP JUMPDEST CALLVALUE PUSH2 0x1AB JUMPI PUSH0 CALLDATASIZE PUSH1 0x3 NOT ADD SLT PUSH2 0x1AB JUMPI PUSH1 0x40 MLOAD PUSH32 0x0 PUSH1 0x1 PUSH1 0x1 PUSH1 0xA0 SHL SUB AND DUP2 MSTORE PUSH1 0x20 SWAP1 RETURN JUMPDEST CALLVALUE PUSH2 0x1AB JUMPI PUSH0 CALLDATASIZE PUSH1 0x3 NOT ADD SLT PUSH2 0x1AB JUMPI PUSH0 SLOAD PUSH1 0x1 SLOAD SWAP1 PUSH2 0xE17 DUP2 PUSH32 0x0 PUSH2 0x14A9 JUMP JUMPDEST PUSH8 0x14ADF4B7320334B9 PUSH1 0x1D SHL DUP4 DUP2 SUB SWAP1 DUP2 GT PUSH2 0x67B JUMPI PUSH8 0x14ADF4B7320334B9 PUSH1 0x1D SHL DUP5 EQ PUSH2 0xEC0 JUMPI PUSH8 0xDE0B6B3A7640000 DUP3 MUL SWAP2 DUP1 DUP4 DIV PUSH8 0xDE0B6B3A7640000 EQ SWAP1 ISZERO OR ISZERO PUSH2 0x67B JUMPI PUSH2 0xE69 SWAP2 PUSH2 0x147E JUMP JUMPDEST SWAP2 JUMPDEST PUSH2 0x2710 DUP3 MUL SWAP1 DUP3 DUP3 DIV PUSH2 0x2710 EQ DUP4 ISZERO OR ISZERO PUSH2 0x67B JUMPI PUSH8 0x2629F66E0C530000 PUSH1 0xFF SWAP3 PUSH1 0xC0 SWAP6 PUSH1 0x3 SLOAD SWAP4 PUSH1 0x40 MLOAD SWAP7 DUP8 MSTORE PUSH1 0x20 DUP8 ADD MSTORE PUSH1 0x40 DUP7 ADD MSTORE DIV PUSH1 0x60 DUP5 ADD MSTORE DUP2 DUP2 AND ISZERO ISZERO PUSH1 0x80 DUP5 ADD MSTORE PUSH1 0x8 SHR AND ISZERO ISZERO PUSH1 0xA0 DUP3 ADD MSTORE RETURN JUMPDEST POP POP PUSH0 SWAP2 PUSH2 0xE6B JUMP JUMPDEST CALLVALUE PUSH2 0x1AB JUMPI PUSH0 CALLDATASIZE PUSH1 0x3 NOT ADD SLT PUSH2 0x1AB JUMPI PUSH1 0x20 PUSH1 0x40 MLOAD PUSH1 0x64 DUP2 MSTORE RETURN JUMPDEST CALLVALUE PUSH2 0x1AB JUMPI PUSH0 CALLDATASIZE PUSH1 0x3 NOT ADD SLT PUSH2 0x1AB JUMPI PUSH1 0x40 MLOAD PUSH32 0x0 PUSH1 0x1 PUSH1 0x1 PUSH1 0xA0 SHL SUB AND DUP2 MSTORE PUSH1 0x20 SWAP1 RETURN JUMPDEST CALLVALUE PUSH2 0x1AB JUMPI PUSH1 0x20 CALLDATASIZE PUSH1 0x3 NOT ADD SLT PUSH2 0x1AB JUMPI PUSH1 0x4 CALLDATALOAD PUSH1 0x1 PUSH1 0x1 PUSH1 0xA0 SHL SUB DUP2 AND DUP2 SUB PUSH2 0x1AB JUMPI PUSH2 0xF80 CALLER PUSH32 0x0 PUSH1 0x1 PUSH1 0x1 PUSH1 0xA0 SHL SUB AND EQ PUSH2 0x13F3 JUMP JUMPDEST PUSH2 0xF91 PUSH1 0xFF PUSH1 0x3 SLOAD PUSH1 0x8 SHR AND PUSH2 0x1624 JUMP JUMPDEST PUSH1 0x40 MLOAD PUSH4 0x70A08231 PUSH1 0xE0 SHL DUP2 MSTORE ADDRESS PUSH1 0x4 DUP3 ADD MSTORE SWAP1 PUSH32 0x0 PUSH1 0x1 PUSH1 0x1 PUSH1 0xA0 SHL SUB AND SWAP1 PUSH1 0x20 DUP4 PUSH1 0x24 DUP2 DUP6 GAS STATICCALL SWAP3 DUP4 ISZERO PUSH2 0x645 JUMPI PUSH0 SWAP4 PUSH2 0x108E JUMPI JUMPDEST POP DUP3 PUSH2 0xFF9 JUMPI JUMPDEST PUSH1 0x20 DUP4 PUSH1 0x40 MLOAD SWAP1 DUP2 MSTORE RETURN JUMPDEST DUP3 PUSH2 0x101E SWAP3 PUSH1 0x20 SWAP3 PUSH0 PUSH1 0x40 MLOAD DUP1 SWAP7 DUP2 SWAP6 DUP3 SWAP5 PUSH4 0xA9059CBB PUSH1 0xE0 SHL DUP5 MSTORE PUSH1 0x4 DUP5 ADD PUSH2 0x16AF JUMP JUMPDEST SUB SWAP3 GAS CALL SWAP1 DUP2 ISZERO PUSH2 0x645 JUMPI PUSH0 SWAP2 PUSH2 0x106F JUMPI JUMPDEST POP ISZERO PUSH2 0x103D JUMPI DUP2 DUP1 PUSH2 0xFEE JUMP JUMPDEST PUSH1 0x40 MLOAD PUSH3 0x461BCD PUSH1 0xE5 SHL DUP2 MSTORE PUSH1 0x20 PUSH1 0x4 DUP3 ADD MSTORE PUSH1 0xA PUSH1 0x24 DUP3 ADD MSTORE PUSH10 0x14DDD9595C0819985A5B PUSH1 0xB2 SHL PUSH1 0x44 DUP3 ADD MSTORE PUSH1 0x64 SWAP1 REVERT JUMPDEST PUSH2 0x1088 SWAP2 POP PUSH1 0x20 RETURNDATASIZE PUSH1 0x20 GT PUSH2 0x6EB JUMPI PUSH2 0x6DD DUP2 DUP4 PUSH2 0x1660 JUMP JUMPDEST DUP3 PUSH2 0x1030 JUMP JUMPDEST SWAP1 SWAP3 POP PUSH1 0x20 DUP2 RETURNDATASIZE PUSH1 0x20 GT PUSH2 0x10BA JUMPI JUMPDEST DUP2 PUSH2 0x10AA PUSH1 0x20 SWAP4 DUP4 PUSH2 0x1660 JUMP JUMPDEST DUP2 ADD SUB SLT PUSH2 0x1AB JUMPI MLOAD SWAP2 DUP4 PUSH2 0xFE7 JUMP JUMPDEST RETURNDATASIZE SWAP2 POP PUSH2 0x109D JUMP JUMPDEST CALLVALUE PUSH2 0x1AB JUMPI PUSH0 CALLDATASIZE PUSH1 0x3 NOT ADD SLT PUSH2 0x1AB JUMPI PUSH1 0x20 PUSH0 SLOAD PUSH1 0x40 MLOAD SWAP1 DUP2 MSTORE RETURN JUMPDEST CALLVALUE PUSH2 0x1AB JUMPI PUSH1 0x20 CALLDATASIZE PUSH1 0x3 NOT ADD SLT PUSH2 0x1AB JUMPI PUSH1 0x40 PUSH2 0x10FC PUSH1 0x4 CALLDATALOAD PUSH2 0x156C JUMP JUMPDEST DUP3 MLOAD SWAP2 DUP3 MSTORE PUSH1 0x20 DUP3 ADD MSTORE RETURN JUMPDEST CALLVALUE PUSH2 0x1AB JUMPI PUSH0 CALLDATASIZE PUSH1 0x3 NOT ADD SLT PUSH2 0x1AB JUMPI PUSH1 0x40 MLOAD PUSH8 0x14ADF4B7320334B9 PUSH1 0x1D SHL DUP2 MSTORE PUSH1 0x20 SWAP1 RETURN JUMPDEST CALLVALUE PUSH2 0x1AB JUMPI PUSH0 CALLDATASIZE PUSH1 0x3 NOT ADD SLT PUSH2 0x1AB JUMPI PUSH1 0x20 PUSH1 0xFF PUSH1 0x3 SLOAD PUSH1 0x8 SHR AND PUSH1 0x40 MLOAD SWAP1 ISZERO ISZERO DUP2 MSTORE RETURN JUMPDEST CALLVALUE PUSH2 0x1AB JUMPI PUSH0 CALLDATASIZE PUSH1 0x3 NOT ADD SLT PUSH2 0x1AB JUMPI PUSH1 0x20 PUSH1 0x40 MLOAD PUSH2 0x2710 DUP2 MSTORE RETURN JUMPDEST CALLVALUE PUSH2 0x1AB JUMPI PUSH0 CALLDATASIZE PUSH1 0x3 NOT ADD SLT PUSH2 0x1AB JUMPI PUSH1 0x20 PUSH1 0x40 MLOAD PUSH8 0x2629F66E0C530000 DUP2 MSTORE RETURN JUMPDEST CALLVALUE PUSH2 0x1AB JUMPI PUSH0 CALLDATASIZE PUSH1 0x3 NOT ADD SLT PUSH2 0x1AB JUMPI PUSH1 0x20 PUSH1 0x40 MLOAD PUSH32 0x0 DUP2 MSTORE RETURN JUMPDEST CALLVALUE PUSH2 0x1AB JUMPI PUSH0 CALLDATASIZE PUSH1 0x3 NOT ADD SLT PUSH2 0x1AB JUMPI PUSH1 0x20 PUSH1 0x1 SLOAD PUSH1 0x40 MLOAD SWAP1 DUP2 MSTORE RETURN JUMPDEST CALLVALUE PUSH2 0x1AB JUMPI PUSH1 0x20 CALLDATASIZE PUSH1 0x3 NOT ADD SLT PUSH2 0x1AB JUMPI PUSH1 0x40 PUSH2 0x10FC PUSH1 0x4 CALLDATALOAD PUSH2 0x14B6 JUMP JUMPDEST CALLVALUE PUSH2 0x1AB JUMPI PUSH0 CALLDATASIZE PUSH1 0x3 NOT ADD SLT PUSH2 0x1AB JUMPI PUSH1 0x40 MLOAD PUSH32 0x0 PUSH1 0x1 PUSH1 0x1 PUSH1 0xA0 SHL SUB AND DUP2 MSTORE PUSH1 0x20 SWAP1 RETURN JUMPDEST CALLVALUE PUSH2 0x1AB JUMPI PUSH0 CALLDATASIZE PUSH1 0x3 NOT ADD SLT PUSH2 0x1AB JUMPI PUSH1 0x20 PUSH1 0x40 MLOAD PUSH11 0xA56FA5B99019A5C8000000 DUP2 MSTORE RETURN JUMPDEST CALLVALUE PUSH2 0x1AB JUMPI PUSH0 CALLDATASIZE PUSH1 0x3 NOT ADD SLT PUSH2 0x1AB JUMPI PUSH2 0x12B3 CALLER PUSH32 0x0 PUSH1 0x1 PUSH1 0x1 PUSH1 0xA0 SHL SUB AND EQ PUSH2 0x13F3 JUMP JUMPDEST PUSH2 0x100 PUSH1 0x3 SLOAD PUSH1 0xFF DUP2 AND ISZERO DUP1 PUSH2 0x1304 JUMPI JUMPDEST PUSH2 0x12CD SWAP1 PUSH2 0x142E JUMP JUMPDEST PUSH2 0xFF00 NOT AND OR PUSH1 0x3 SSTORE PUSH32 0xC41D93B8BFBF9FD7CF5BFE271FD649AB6A6FEC0EA101C23B82A2A28ECA2533A9 PUSH1 0x20 PUSH0 SLOAD PUSH1 0x40 MLOAD SWAP1 DUP2 MSTORE LOG1 STOP JUMPDEST POP PUSH1 0x8 DUP2 SWAP1 SHR PUSH1 0xFF AND ISZERO PUSH2 0x12C4 JUMP JUMPDEST CALLVALUE PUSH2 0x1AB JUMPI PUSH0 CALLDATASIZE PUSH1 0x3 NOT ADD SLT PUSH2 0x1AB JUMPI PUSH1 0x20 PUSH1 0x2 SLOAD PUSH1 0x40 MLOAD SWAP1 DUP2 MSTORE RETURN JUMPDEST CALLVALUE PUSH2 0x1AB JUMPI PUSH0 CALLDATASIZE PUSH1 0x3 NOT ADD SLT PUSH2 0x1AB JUMPI PUSH1 0x20 PUSH1 0x40 MLOAD PUSH32 0x0 DUP2 MSTORE RETURN JUMPDEST CALLVALUE PUSH2 0x1AB JUMPI PUSH0 CALLDATASIZE PUSH1 0x3 NOT ADD SLT PUSH2 0x1AB JUMPI PUSH1 0x3 SLOAD PUSH1 0x40 MLOAD PUSH1 0x10 SWAP2 SWAP1 SWAP2 SHR PUSH1 0x1 PUSH1 0x1 PUSH1 0xA0 SHL SUB AND DUP2 MSTORE PUSH1 0x20 SWAP1 RETURN JUMPDEST CALLVALUE PUSH2 0x1AB JUMPI PUSH0 CALLDATASIZE PUSH1 0x3 NOT ADD SLT PUSH2 0x1AB JUMPI PUSH1 0x20 PUSH1 0x40 MLOAD PUSH2 0xDEAD DUP2 MSTORE RETURN JUMPDEST CALLVALUE PUSH2 0x1AB JUMPI PUSH0 CALLDATASIZE PUSH1 0x3 NOT ADD SLT PUSH2 0x1AB JUMPI PUSH32 0x0 PUSH1 0x1 PUSH1 0x1 PUSH1 0xA0 SHL SUB AND DUP2 MSTORE PUSH1 0x20 SWAP1 RETURN JUMPDEST ISZERO PUSH2 0x13FA JUMPI JUMP JUMPDEST PUSH1 0x40 MLOAD PUSH3 0x461BCD PUSH1 0xE5 SHL DUP2 MSTORE PUSH1 0x20 PUSH1 0x4 DUP3 ADD MSTORE PUSH1 0xC PUSH1 0x24 DUP3 ADD MSTORE PUSH12 0x4F6E6C7920666163746F7279 PUSH1 0xA0 SHL PUSH1 0x44 DUP3 ADD MSTORE PUSH1 0x64 SWAP1 REVERT JUMPDEST ISZERO PUSH2 0x1435 JUMPI JUMP JUMPDEST PUSH1 0x40 MLOAD PUSH3 0x461BCD PUSH1 0xE5 SHL DUP2 MSTORE PUSH1 0x20 PUSH1 0x4 DUP3 ADD MSTORE PUSH1 0xE PUSH1 0x24 DUP3 ADD MSTORE PUSH14 0x437572766520696E616374697665 PUSH1 0x90 SHL PUSH1 0x44 DUP3 ADD MSTORE PUSH1 0x64 SWAP1 REVERT JUMPDEST DUP2 DUP2 MUL SWAP3 SWAP2 DUP2 ISZERO SWAP2 DUP5 DIV EQ OR ISZERO PUSH2 0x67B JUMPI JUMP JUMPDEST DUP2 ISZERO PUSH2 0x1488 JUMPI DIV SWAP1 JUMP JUMPDEST PUSH4 0x4E487B71 PUSH1 0xE0 SHL PUSH0 MSTORE PUSH1 0x12 PUSH1 0x4 MSTORE PUSH1 0x24 PUSH0 REVERT JUMPDEST SWAP2 SWAP1 DUP3 SUB SWAP2 DUP3 GT PUSH2 0x67B JUMPI JUMP JUMPDEST SWAP2 SWAP1 DUP3 ADD DUP1 SWAP3 GT PUSH2 0x67B JUMPI JUMP JUMPDEST DUP1 ISZERO DUP1 DUP1 ISZERO PUSH2 0x1560 JUMPI JUMPDEST DUP1 ISZERO PUSH2 0x1551 JUMPI JUMPDEST PUSH2 0x1549 JUMPI PUSH1 0x64 DUP3 MUL SWAP1 DUP3 DUP3 DIV PUSH1 0x64 EQ OR ISZERO PUSH2 0x67B JUMPI PUSH2 0x2710 PUSH2 0x14EB SWAP2 DIV DUP1 SWAP3 PUSH2 0x149C JUMP JUMPDEST PUSH2 0x1516 PUSH0 SLOAD PUSH32 0x0 PUSH2 0x14A9 JUMP JUMPDEST PUSH1 0x1 SLOAD SWAP1 SWAP2 PUSH8 0x14ADF4B7320334B9 PUSH1 0x1D SHL SWAP2 DUP3 SUB SWAP2 DUP3 GT PUSH2 0x67B JUMPI DUP3 PUSH2 0x2C6 PUSH2 0x2CC SWAP3 PUSH2 0x2C0 DUP6 PUSH2 0x1546 SWAP8 PUSH2 0x146B JUMP JUMPDEST SWAP2 JUMP JUMPDEST POP POP PUSH0 SWAP1 PUSH0 SWAP1 JUMP JUMPDEST POP PUSH1 0xFF PUSH1 0x3 SLOAD PUSH1 0x8 SHR AND PUSH2 0x14C7 JUMP JUMPDEST POP PUSH1 0xFF PUSH1 0x3 SLOAD AND PUSH2 0x14C0 JUMP JUMPDEST DUP1 ISZERO DUP1 ISZERO PUSH2 0x1618 JUMPI JUMPDEST DUP1 ISZERO PUSH2 0x1609 JUMPI JUMPDEST PUSH2 0x1602 JUMPI PUSH1 0x1 SLOAD DUP1 DUP3 GT PUSH2 0x1549 JUMPI PUSH2 0x15B5 PUSH0 SLOAD PUSH32 0x0 PUSH2 0x14A9 JUMP JUMPDEST PUSH8 0x14ADF4B7320334B9 PUSH1 0x1D SHL SWAP2 DUP3 SUB SWAP3 SWAP1 SWAP2 DUP4 GT PUSH2 0x67B JUMPI DUP3 PUSH2 0x8E1 PUSH2 0x8DA PUSH2 0x2CC SWAP4 PUSH2 0x15E1 SWAP7 PUSH2 0x14A9 JUMP JUMPDEST PUSH1 0x64 DUP2 MUL DUP2 DUP2 DIV PUSH1 0x64 EQ DUP3 ISZERO OR ISZERO PUSH2 0x67B JUMPI PUSH2 0x2710 PUSH2 0x1546 SWAP2 DIV DUP1 SWAP3 PUSH2 0x149C JUMP JUMPDEST POP PUSH0 SWAP1 PUSH0 SWAP1 JUMP JUMPDEST POP PUSH1 0xFF PUSH1 0x3 SLOAD PUSH1 0x8 SHR AND PUSH2 0x157C JUMP JUMPDEST POP PUSH1 0xFF PUSH1 0x3 SLOAD AND PUSH2 0x1575 JUMP JUMPDEST ISZERO PUSH2 0x162B JUMPI JUMP JUMPDEST PUSH1 0x40 MLOAD PUSH3 0x461BCD PUSH1 0xE5 SHL DUP2 MSTORE PUSH1 0x20 PUSH1 0x4 DUP3 ADD MSTORE PUSH1 0xD PUSH1 0x24 DUP3 ADD MSTORE PUSH13 0x139BDD0818D85B98D95B1B1959 PUSH1 0x9A SHL PUSH1 0x44 DUP3 ADD MSTORE PUSH1 0x64 SWAP1 REVERT JUMPDEST PUSH1 0x1F SWAP1 SWAP2 ADD PUSH1 0x1F NOT AND DUP2 ADD SWAP1 PUSH1 0x1 PUSH1 0x1 PUSH1 0x40 SHL SUB DUP3 GT SWAP1 DUP3 LT OR PUSH2 0x1683 JUMPI PUSH1 0x40 MSTORE JUMP JUMPDEST PUSH4 0x4E487B71 PUSH1 0xE0 SHL PUSH0 MSTORE PUSH1 0x41 PUSH1 0x4 MSTORE PUSH1 0x24 PUSH0 REVERT JUMPDEST SWAP1 DUP2 PUSH1 0x20 SWAP2 SUB SLT PUSH2 0x1AB JUMPI MLOAD DUP1 ISZERO ISZERO DUP2 SUB PUSH2 0x1AB JUMPI SWAP1 JUMP JUMPDEST PUSH1 0x1 PUSH1 0x1 PUSH1 0xA0 SHL SUB SWAP1 SWAP2 AND DUP2 MSTORE PUSH1 0x20 DUP2 ADD SWAP2 SWAP1 SWAP2 MSTORE PUSH1 0x40 ADD SWAP1 JUMP JUMPDEST RETURNDATASIZE ISZERO PUSH2 0x1703 JUMPI RETURNDATASIZE SWAP1 PUSH1 0x1 PUSH1 0x1 PUSH1 0x40 SHL SUB DUP3 GT PUSH2 0x1683 JUMPI PUSH1 0x40 MLOAD SWAP2 PUSH2 0x16F8 PUSH1 0x1F DUP3 ADD PUSH1 0x1F NOT AND PUSH1 0x20 ADD DUP5 PUSH2 0x1660 JUMP JUMPDEST DUP3 MSTORE RETURNDATASIZE PUSH0 PUSH1 0x20 DUP5 ADD RETURNDATACOPY JUMP JUMPDEST PUSH1 0x60 SWAP1 JUMP JUMPDEST ISZERO PUSH2 0x170F JUMPI JUMP JUMPDEST PUSH1 0x40 MLOAD PUSH3 0x461BCD PUSH1 0xE5 SHL DUP2 MSTORE PUSH1 0x20 PUSH1 0x4 DUP3 ADD MSTORE PUSH1 0xD PUSH1 0x24 DUP3 ADD MSTORE PUSH13 0x115512081CD95B990819985A5B PUSH1 0x9A SHL PUSH1 0x44 DUP3 ADD MSTORE PUSH1 0x64 SWAP1 REVERT JUMPDEST ISZERO PUSH2 0x174B JUMPI JUMP JUMPDEST PUSH1 0x40 MLOAD PUSH3 0x461BCD PUSH1 0xE5 SHL DUP2 MSTORE PUSH1 0x20 PUSH1 0x4 DUP3 ADD MSTORE PUSH1 0x8 PUSH1 0x24 DUP3 ADD MSTORE PUSH8 0x536C697070616765 PUSH1 0xC0 SHL PUSH1 0x44 DUP3 ADD MSTORE PUSH1 0x64 SWAP1 REVERT JUMPDEST SWAP1 SWAP5 SWAP4 SWAP3 PUSH1 0x60 SWAP3 PUSH1 0x80 DUP4 ADD SWAP7 DUP4 MSTORE PUSH1 0x20 DUP4 ADD MSTORE PUSH1 0x40 DUP3 ADD MSTORE ADD MSTORE JUMP JUMPDEST PUSH1 0x2 PUSH0 DUP1 MLOAD PUSH1 0x20 PUSH2 0x17F0 DUP4 CODECOPY DUP2 MLOAD SWAP2 MSTORE SLOAD EQ PUSH2 0x17C0 JUMPI PUSH1 0x2 PUSH0 DUP1 MLOAD PUSH1 0x20 PUSH2 0x17F0 DUP4 CODECOPY DUP2 MLOAD SWAP2 MSTORE SSTORE JUMP JUMPDEST PUSH4 0x3EE5AEB5 PUSH1 0xE0 SHL PUSH0 MSTORE PUSH1 0x4 PUSH0 REVERT INVALID CALLDATASIZE SWAP4 JUMPI PUSH12 0x24B0B545B0A78BC32216975C PUSH19 0xC4D410F7A7FBECC97953D09F7F3CC89B779B17 TIMESTAMP 0x2D 0xD 0xF9 0x22 0x23 ADD DUP12 ORIGIN 0xB4 0xD1 STATICCALL CHAINID 0xE0 PUSH18 0x723D6817E2486D003BECC55F00A264697066 PUSH20 0x582212208530BBA1EF3A4B0B4CD1F6B60B4CFFA4 0xB1 BLOBBASEFEE PUSH25 0x402F6FBB1B197110CE04D212C564736F6C634300081A003300 "},"methodIdentifiers":{"BOND_THRESHOLD()":"59dd723d","BPS_DENOM()":"6637e38c","CURVE_TOKEN_SUPPLY()":"9f870a75","DEAD()":"03fd2a45","FEE_BPS()":"bf333f2c","LP_RESERVE_TOKENS()":"3af525b4","buy(uint256)":"d96a094a","cancelLaunch()":"392c695e","cancelled()":"9a82a09a","claimCreatorFees(address)":"d6ae6e44","creator()":"02d05d3f","creatorFeesAccrued()":"21ae7307","factory()":"c45a0155","getCurveState()":"c417d1f0","graduated()":"e7c2b772","launchEthUsd()":"1efeb5d1","quoteBuy(uint256)":"4beb394c","quoteSell(uint256)":"a64190c4","realEthCollected()":"a966f376","sell(uint256,uint256)":"d79875eb","sweepEthAfterCancel(address)":"c83f60f0","sweepTokensAfterCancel(address)":"ae05f22d","token()":"fc0c546a","tokensSold()":"518ab2a8","v2Factory()":"b4b57c39","v2Pair()":"056939da","v2Router()":"deadbc14","virtualEthReserve()":"52b86d2b","weth()":"3fc8cef3"}}}}}