{"contracts/v2/AethpadFactoryV2.sol":{"AethpadFactoryV2":{"abi":[{"inputs":[{"internalType":"address","name":"_uniswapRouter","type":"address"}],"stateMutability":"nonpayable","type":"constructor"},{"inputs":[{"internalType":"address","name":"owner","type":"address"}],"name":"OwnableInvalidOwner","type":"error"},{"inputs":[{"internalType":"address","name":"account","type":"address"}],"name":"OwnableUnauthorizedAccount","type":"error"},{"inputs":[],"name":"ReentrancyGuardReentrantCall","type":"error"},{"anonymous":false,"inputs":[{"indexed":true,"internalType":"address","name":"token","type":"address"},{"indexed":false,"internalType":"string","name":"newURI","type":"string"}],"name":"MetadataUpdated","type":"event"},{"anonymous":false,"inputs":[{"indexed":true,"internalType":"address","name":"previousOwner","type":"address"},{"indexed":true,"internalType":"address","name":"newOwner","type":"address"}],"name":"OwnershipTransferred","type":"event"},{"anonymous":false,"inputs":[{"indexed":true,"internalType":"address","name":"fromToken","type":"address"},{"indexed":false,"internalType":"uint256","name":"amount","type":"uint256"}],"name":"PlatformFeeReceived","type":"event"},{"anonymous":false,"inputs":[{"indexed":true,"internalType":"address","name":"to","type":"address"},{"indexed":false,"internalType":"uint256","name":"amount","type":"uint256"}],"name":"PlatformFeesWithdrawn","type":"event"},{"anonymous":false,"inputs":[{"indexed":true,"internalType":"address","name":"token","type":"address"},{"indexed":true,"internalType":"address","name":"curve","type":"address"},{"indexed":true,"internalType":"address","name":"creator","type":"address"},{"indexed":false,"internalType":"string","name":"name","type":"string"},{"indexed":false,"internalType":"string","name":"symbol","type":"string"},{"indexed":false,"internalType":"string","name":"metadataURI","type":"string"},{"indexed":false,"internalType":"uint256","name":"devBuyEth","type":"uint256"},{"indexed":false,"internalType":"uint256","name":"devBuyTokens","type":"uint256"}],"name":"TokenDeployed","type":"event"},{"inputs":[],"name":"accumulatedPlatformFees","outputs":[{"internalType":"uint256","name":"","type":"uint256"}],"stateMutability":"view","type":"function"},{"inputs":[{"internalType":"uint256","name":"","type":"uint256"}],"name":"allTokens","outputs":[{"internalType":"address","name":"","type":"address"}],"stateMutability":"view","type":"function"},{"inputs":[],"name":"allTokensLength","outputs":[{"internalType":"uint256","name":"","type":"uint256"}],"stateMutability":"view","type":"function"},{"inputs":[{"internalType":"string","name":"name","type":"string"},{"internalType":"string","name":"symbol","type":"string"},{"internalType":"string","name":"metadataURI","type":"string"}],"name":"createToken","outputs":[{"internalType":"address","name":"tokenAddr","type":"address"},{"internalType":"address","name":"curveAddr","type":"address"}],"stateMutability":"payable","type":"function"},{"inputs":[],"name":"deployer","outputs":[{"internalType":"contract AethpadDeployer","name":"","type":"address"}],"stateMutability":"view","type":"function"},{"inputs":[{"internalType":"address","name":"tokenAddr","type":"address"}],"name":"flushTokenPlatformEth","outputs":[],"stateMutability":"nonpayable","type":"function"},{"inputs":[{"internalType":"address","name":"tokenAddr","type":"address"},{"internalType":"address","name":"to","type":"address"}],"name":"forceCloseCurve","outputs":[],"stateMutability":"nonpayable","type":"function"},{"inputs":[],"name":"getAllTokens","outputs":[{"internalType":"address[]","name":"","type":"address[]"}],"stateMutability":"view","type":"function"},{"inputs":[{"internalType":"address","name":"tokenAddr","type":"address"}],"name":"getRecord","outputs":[{"components":[{"internalType":"address","name":"token","type":"address"},{"internalType":"address","name":"curve","type":"address"},{"internalType":"address","name":"creator","type":"address"},{"internalType":"uint256","name":"deployedAt","type":"uint256"},{"internalType":"string","name":"metadataURI","type":"string"},{"internalType":"uint256","name":"initialDevBuyEth","type":"uint256"},{"internalType":"uint256","name":"initialDevBuyTokens","type":"uint256"}],"internalType":"struct AethpadFactoryV2.TokenRecord","name":"","type":"tuple"}],"stateMutability":"view","type":"function"},{"inputs":[],"name":"owner","outputs":[{"internalType":"address","name":"","type":"address"}],"stateMutability":"view","type":"function"},{"inputs":[{"internalType":"address","name":"","type":"address"}],"name":"records","outputs":[{"internalType":"address","name":"token","type":"address"},{"internalType":"address","name":"curve","type":"address"},{"internalType":"address","name":"creator","type":"address"},{"internalType":"uint256","name":"deployedAt","type":"uint256"},{"internalType":"string","name":"metadataURI","type":"string"},{"internalType":"uint256","name":"initialDevBuyEth","type":"uint256"},{"internalType":"uint256","name":"initialDevBuyTokens","type":"uint256"}],"stateMutability":"view","type":"function"},{"inputs":[],"name":"renounceOwnership","outputs":[],"stateMutability":"nonpayable","type":"function"},{"inputs":[{"internalType":"address","name":"_deployer","type":"address"}],"name":"setDeployer","outputs":[],"stateMutability":"nonpayable","type":"function"},{"inputs":[{"internalType":"address","name":"tokenAddr","type":"address"},{"internalType":"address","name":"account","type":"address"},{"internalType":"bool","name":"excluded","type":"bool"}],"name":"setTokenExcluded","outputs":[],"stateMutability":"nonpayable","type":"function"},{"inputs":[{"internalType":"address","name":"tokenAddr","type":"address"},{"internalType":"address","name":"newKeeper","type":"address"}],"name":"setTokenKeeper","outputs":[],"stateMutability":"nonpayable","type":"function"},{"inputs":[{"internalType":"address","name":"tokenAddr","type":"address"},{"internalType":"uint256","name":"newThreshold","type":"uint256"}],"name":"setTokenSwapThreshold","outputs":[],"stateMutability":"nonpayable","type":"function"},{"inputs":[],"name":"totalPlatformFeesWithdrawn","outputs":[{"internalType":"uint256","name":"","type":"uint256"}],"stateMutability":"view","type":"function"},{"inputs":[{"internalType":"address","name":"newOwner","type":"address"}],"name":"transferOwnership","outputs":[],"stateMutability":"nonpayable","type":"function"},{"inputs":[],"name":"uniswapRouter","outputs":[{"internalType":"address","name":"","type":"address"}],"stateMutability":"view","type":"function"},{"inputs":[{"internalType":"address","name":"tokenAddr","type":"address"},{"internalType":"string","name":"newURI","type":"string"}],"name":"updateMetadataURI","outputs":[],"stateMutability":"nonpayable","type":"function"},{"inputs":[{"internalType":"address","name":"to","type":"address"}],"name":"withdrawPlatformFees","outputs":[],"stateMutability":"nonpayable","type":"function"},{"stateMutability":"payable","type":"receive"}],"evm":{"bytecode":{"linkReferences":{},"object":"60a03461012557601f61176238819003918201601f19168301916001600160401b038311848410176101295780849260209460405283398101031261012557516001600160a01b038116808203610125573315610112575f8054336001600160a01b0319821681178355604051939290916001600160a01b0316907f8be0079c531659141344cd1fd0a4f28419497f9722a3daafe3b4186f6b6457e09080a360017f9b779b17422d0df92223018b32b4d1fa46e071723d6817e2486d003becc55f0055156100e35750608052604051611624908161013e823960805181610c800152f35b62461bcd60e51b815260206004820152600a6024820152692130b2103937baba32b960b11b6044820152606490fd5b631e4fbdf760e01b5f525f60045260245ffd5b5f80fd5b634e487b7160e01b5f52604160045260245ffdfe60806040526004361015610055575b3615610018575f80fd5b6100243460045461150f565b6004556040513481527fabec8fa5eba11c7eac51663a2902a5a185098b166b62a23b16dc7a4e2c12de4b60203392a2005b5f803560e01c80630668c0d0146111b55780631e0db440146111975780632a5c792a146110cf578063342f2df3146110b157806342086c791461103e578063469e906714610f94578063617fba0414610e5d578063634282af14610e1957806369496d9614610d9c578063715018a614610d5557806371af310114610caf578063735de9f714610c6a5780638da5cb5b14610c4357806394aed7d01461065b57806396214735146105d7578063d5f39488146105ae578063dbb80e4214610590578063ec3889b514610419578063f2fde38b146103a6578063fabb2c17146101f85763ff6151c714610147575061000e565b346101e65760403660031901126101e65780610161611262565b610169611278565b90610172611530565b6001600160a01b039081168352600260205260408320541690610196821515611435565b813b156101f457604051633a43a3f360e11b81526001600160a01b0390911660048201529082908290602490829084905af180156101e9576101d55750f35b816101df916112f5565b6101e65780f35b80fd5b6040513d84823e3d90fd5b5050fd5b50346101e65760403660031901126101e657610212611262565b906024356001600160401b0381116103a257610232903690600401611408565b9260018060a01b03169081835260026020526040832060018060a01b03600282015416330361036e57600401936001600160401b03811161035a576102818161027b875461128e565b876114c0565b8394601f82116001146102e9576102be828087985f8051602061158f8339815191529798916102de575b508160011b915f199060031b1c19161790565b90555b6102d8604051928392602084526020840191611485565b0390a280f35b90508501355f6102ab565b8085526020852095601f198316865b818110610342575090835f8051602061158f8339815191529697989210610329575b5050600182811b0190556102c1565b8401355f19600385901b60f8161c191690555f8061031a565b858301358955600190980197602092830192016102f8565b634e487b7160e01b84526041600452602484fd5b60405162461bcd60e51b815260206004820152600c60248201526b27b7363c9031b932b0ba37b960a11b6044820152606490fd5b5080fd5b50346101e65760203660031901126101e6576103c0611262565b6103c8611530565b6001600160a01b031680156104055781546001600160a01b03198116821783556001600160a01b03165f805160206115af8339815191528380a380f35b631e4fbdf760e01b82526004829052602482fd5b50346101e65760203660031901126101e657610433611262565b61043b611530565b610443611556565b600454908115610555576001600160a01b0316908115610520578260045561046d8160055461150f565b6005558280808084865af13d1561051b573d610488816114a5565b9061049660405192836112f5565b81528460203d92013e5b156104e45760207ffc7ad544ff6a06d6499925723d25b6fe70457a42939995b1d3d6f560fe33633391604051908152a260015f805160206115cf8339815191525580f35b60405162461bcd60e51b815260206004820152600f60248201526e115512081cd95b990819985a5b1959608a1b6044820152606490fd5b6104a0565b60405162461bcd60e51b815260206004820152600d60248201526c109859081c9958da5c1a595b9d609a1b6044820152606490fd5b60405162461bcd60e51b81526020600482015260136024820152724e6f7468696e6720746f20776974686472617760681b6044820152606490fd5b50346101e657806003193601126101e6576020600354604051908152f35b50346101e657806003193601126101e6576001546040516001600160a01b039091168152602090f35b50346101e65760203660031901126101e6576105f1611262565b6105f9611530565b600154906001600160a01b038216610628576001600160a01b03166001600160a01b0319919091161760015580f35b60405162461bcd60e51b815260206004820152600b60248201526a105b1c9958591e481cd95d60aa1b6044820152606490fd5b5060603660031901126101e6576004356001600160401b0381116103a257610687903690600401611408565b91906024356001600160401b038111610c3f576106a8903690600401611408565b92906044356001600160401b038111610c3f576106c9903690600401611408565b90916106d3611556565b6001546001600160a01b0316958615610c075760406107156107289888888c85519c8d958694859363390274ed60e01b85528960048601526044850191611485565b828103600319016024840152888a611485565b03925af1968715610bfc5785908698610bb0575b506040516001600160a01b0391821698909116969061075a816112c6565b88815260208101888152604082013381526060830142815261077b886114a5565b9161078960405193846112f5565b88835236898b0111610bac57908291898b8f969560200137828a0160209081018d90526080870193845260a087018d815260c088018e8152968e5260029182905260408e20975188546001600160a01b03199081166001600160a01b03928316178a55965160018a018054891691831691909117905592519188018054909616919092161790935551600385015551805160048501916001600160401b038211610b98576108418261083b855461128e565b856114c0565b6020908c601f8411600114610b315760069695949361087693909283610b26575b50508160011b915f199060031b1c19161790565b90555b51600584015551910155600354600160401b811015610b12578060016108a292016003556113dc565b81546001600160a01b0360039290921b91821b1916908a901b1790558534610955575b50869488946109197fee1be9e7a514e242eddd023cf4bd4446c71d28c7cf5c53c4085379ea899930339560409c9561090b610926968f519860a08a5260a08a0191611485565b918783036020890152611485565b918483038c860152611485565b9434606083015260808201528033950390a460015f805160206115cf8339815191525582519182526020820152f35b9550604051636cb504a560e11b8152866004820152602081602481348c5af1908115610b07578791610ad5575b50956040516370a0823160e01b81523060048201526020816024818d5afa9081156101e9578291610a9f575b5080610a21575b5088815260026020523460056040832001558881526002602052866006604083200155873b156101e65760405163d8c76c1760e01b81523360048201528181602481838d5af180156101e957610a0c575b506108c5565b610a178280926112f5565b6101e65780610a06565b60405163a9059cbb60e01b815233600482015260248101829052919750906020816044818b8e5af18015610a9457610a5c575b50955f6109b5565b6020813d602011610a8c575b81610a75602093836112f5565b81010312610a8857518015158114610a54575b8780fd5b3d9150610a68565b6040513d8a823e3d90fd5b90506020813d602011610acd575b81610aba602093836112f5565b81010312610ac957515f6109ae565b5f80fd5b3d9150610aad565b90506020813d602011610aff575b81610af0602093836112f5565b81010312610ac957515f610982565b3d9150610ae3565b6040513d89823e3d90fd5b634e487b7160e01b87526041600452602487fd5b015190505f80610862565b9190601f198416858452828420935b818110610b8057509160019391856006999897969410610b68575b505050811b019055610879565b01515f1960f88460031b161c191690555f8080610b5b565b92936020600181928786015181550195019301610b40565b634e487b7160e01b8c52604160045260248cfd5b8a80fd5b9750506040873d604011610bf4575b81610bcc604093836112f5565b81010312610bf057610be96020610be289611471565b9801611471565b965f61073c565b8480fd5b3d9150610bbf565b6040513d87823e3d90fd5b60405162461bcd60e51b815260206004820152601060248201526f11195c1b1bde595c881b9bdd081cd95d60821b6044820152606490fd5b8280fd5b50346101e657806003193601126101e657546040516001600160a01b039091168152602090f35b50346101e657806003193601126101e6576040517f00000000000000000000000000000000000000000000000000000000000000006001600160a01b03168152602090f35b50346101e65760603660031901126101e65780610cca611262565b610cd2611278565b60443591821515809303610d5057610ce8611530565b6001600160a01b039081168452600260205260408420541691610d0c831515611435565b823b15610d5057604051630a0daf8960e21b81526001600160a01b03909216600483015260248201529082908290604490829084905af180156101e9576101d55750f35b505050fd5b50346101e657806003193601126101e657610d6e611530565b80546001600160a01b03198116825581906001600160a01b03165f805160206115af8339815191528280a380f35b50346101e65760403660031901126101e657610db6611262565b610dbe611530565b6001600160a01b03908116825260026020526040822054829116610de3811515611435565b803b15610e1657818091602460405180948193639d0014b160e01b8352833560048401525af180156101e9576101d55750f35b50fd5b50346101e65760203660031901126101e657600435906003548210156101e6576020610e44836113dc565b905460405160039290921b1c6001600160a01b03168152f35b50346101e65760203660031901126101e657604090610e7a611262565b8160c08451610e88816112c6565b8281528260208201528286820152826060820152606060808201528260a0820152015260018060a01b03168152600260205220604051610ec7816112c6565b81546001600160a01b0390811682526001830154811660208301908152600284015490911660408301908152600384015460608401908152919391610f8390610f1260048501611318565b9060808601918252600660058601549560a0880196875201549360c087019485526040519788976020895260018060a01b03905116602089015260018060a01b03905116604088015260018060a01b0390511660608701525160808601525160e060a08601526101008501906113b8565b915160c08401525160e08301520390f35b50346101e65760203660031901126101e6576040906001600160a01b03610fb9611262565b16815260026020522060018060a01b0381541660018060a01b036001830154169160018060a01b0360028201541661102f6003830154610ffb60048501611318565b906006600586015495015493604051978897885260208801526040870152606086015260e0608086015260e08501906113b8565b9160a084015260c08301520390f35b50346101e65760203660031901126101e657611058611262565b611060611530565b6001600160a01b03908116825260026020526040822054829116611085811515611435565b803b15610e1657818091600460405180948193630427934960e01b83525af180156101e9576101d55750f35b50346101e657806003193601126101e6576020600454604051908152f35b50346101e657806003193601126101e65760405160038054808352908352602082019081907fc2575a0e9e593c00f959f8c92f12db2869c3395a3b0502d05e2516446f71f85b90855b818110611178575050508261112e9103836112f5565b604051928392602084019060208552518091526040840192915b818110611156575050500390f35b82516001600160a01b0316845285945060209384019390920191600101611148565b82546001600160a01b0316845260209093019260019283019201611118565b50346101e657806003193601126101e6576020600554604051908152f35b5034610ac9576040366003190112610ac9576111cf611262565b6111d7611278565b906111e0611530565b6001600160a01b039081165f908152600260205260409020600101541690611209821515611435565b813b15610ac957604051630a17128360e31b81526001600160a01b039091166004820152905f908290602490829084905af1801561125757611249575080f35b61125591505f906112f5565b005b6040513d5f823e3d90fd5b600435906001600160a01b0382168203610ac957565b602435906001600160a01b0382168203610ac957565b90600182811c921680156112bc575b60208310146112a857565b634e487b7160e01b5f52602260045260245ffd5b91607f169161129d565b60e081019081106001600160401b038211176112e157604052565b634e487b7160e01b5f52604160045260245ffd5b601f909101601f19168101906001600160401b038211908210176112e157604052565b9060405191825f82549261132b8461128e565b80845293600181169081156113965750600114611352575b50611350925003836112f5565b565b90505f9291925260205f20905f915b81831061137a575050906020611350928201015f611343565b6020919350806001915483858901015201910190918492611361565b90506020925061135094915060ff191682840152151560051b8201015f611343565b805180835260209291819084018484015e5f828201840152601f01601f1916010190565b6003548110156113f45760035f5260205f2001905f90565b634e487b7160e01b5f52603260045260245ffd5b9181601f84011215610ac9578235916001600160401b038311610ac95760208381860195010111610ac957565b1561143c57565b60405162461bcd60e51b815260206004820152600d60248201526c2ab735b737bbb7103a37b5b2b760991b6044820152606490fd5b51906001600160a01b0382168203610ac957565b908060209392818452848401375f828201840152601f01601f1916010190565b6001600160401b0381116112e157601f01601f191660200190565b601f82116114cd57505050565b5f5260205f20906020601f840160051c83019310611505575b601f0160051c01905b8181106114fa575050565b5f81556001016114ef565b90915081906114e6565b9190820180921161151c57565b634e487b7160e01b5f52601160045260245ffd5b5f546001600160a01b0316330361154357565b63118cdaa760e01b5f523360045260245ffd5b60025f805160206115cf833981519152541461157f5760025f805160206115cf83398151915255565b633ee5aeb560e01b5f5260045ffdfe2013570c343af8ab14a9778150e381a0fda34ed6368127a95fd5e7210cbec5bf8be0079c531659141344cd1fd0a4f28419497f9722a3daafe3b4186f6b6457e09b779b17422d0df92223018b32b4d1fa46e071723d6817e2486d003becc55f00a2646970667358221220f364178bc4b86bf6ad1ddf7ab5996e07acfc1b56d28032967a7711bb38941ef164736f6c634300081a0033","opcodes":"PUSH1 0xA0 CALLVALUE PUSH2 0x125 JUMPI PUSH1 0x1F PUSH2 0x1762 CODESIZE DUP2 SWAP1 SUB SWAP2 DUP3 ADD PUSH1 0x1F NOT AND DUP4 ADD SWAP2 PUSH1 0x1 PUSH1 0x1 PUSH1 0x40 SHL SUB DUP4 GT DUP5 DUP5 LT OR PUSH2 0x129 JUMPI DUP1 DUP5 SWAP3 PUSH1 0x20 SWAP5 PUSH1 0x40 MSTORE DUP4 CODECOPY DUP2 ADD SUB SLT PUSH2 0x125 JUMPI MLOAD PUSH1 0x1 PUSH1 0x1 PUSH1 0xA0 SHL SUB DUP2 AND DUP1 DUP3 SUB PUSH2 0x125 JUMPI CALLER ISZERO PUSH2 0x112 JUMPI PUSH0 DUP1 SLOAD CALLER PUSH1 0x1 PUSH1 0x1 PUSH1 0xA0 SHL SUB NOT DUP3 AND DUP2 OR DUP4 SSTORE PUSH1 0x40 MLOAD SWAP4 SWAP3 SWAP1 SWAP2 PUSH1 0x1 PUSH1 0x1 PUSH1 0xA0 SHL SUB AND SWAP1 PUSH32 0x8BE0079C531659141344CD1FD0A4F28419497F9722A3DAAFE3B4186F6B6457E0 SWAP1 DUP1 LOG3 PUSH1 0x1 PUSH32 0x9B779B17422D0DF92223018B32B4D1FA46E071723D6817E2486D003BECC55F00 SSTORE ISZERO PUSH2 0xE3 JUMPI POP PUSH1 0x80 MSTORE PUSH1 0x40 MLOAD PUSH2 0x1624 SWAP1 DUP2 PUSH2 0x13E DUP3 CODECOPY PUSH1 0x80 MLOAD DUP2 PUSH2 0xC80 ADD MSTORE RETURN JUMPDEST PUSH3 0x461BCD PUSH1 0xE5 SHL DUP2 MSTORE PUSH1 0x20 PUSH1 0x4 DUP3 ADD MSTORE PUSH1 0xA PUSH1 0x24 DUP3 ADD MSTORE PUSH10 0x2130B2103937BABA32B9 PUSH1 0xB1 SHL PUSH1 0x44 DUP3 ADD MSTORE PUSH1 0x64 SWAP1 REVERT JUMPDEST PUSH4 0x1E4FBDF7 PUSH1 0xE0 SHL PUSH0 MSTORE PUSH0 PUSH1 0x4 MSTORE PUSH1 0x24 PUSH0 REVERT JUMPDEST PUSH0 DUP1 REVERT JUMPDEST PUSH4 0x4E487B71 PUSH1 0xE0 SHL PUSH0 MSTORE PUSH1 0x41 PUSH1 0x4 MSTORE PUSH1 0x24 PUSH0 REVERT INVALID PUSH1 0x80 PUSH1 0x40 MSTORE PUSH1 0x4 CALLDATASIZE LT ISZERO PUSH2 0x55 JUMPI JUMPDEST CALLDATASIZE ISZERO PUSH2 0x18 JUMPI PUSH0 DUP1 REVERT JUMPDEST PUSH2 0x24 CALLVALUE PUSH1 0x4 SLOAD PUSH2 0x150F JUMP JUMPDEST PUSH1 0x4 SSTORE PUSH1 0x40 MLOAD CALLVALUE DUP2 MSTORE PUSH32 0xABEC8FA5EBA11C7EAC51663A2902A5A185098B166B62A23B16DC7A4E2C12DE4B PUSH1 0x20 CALLER SWAP3 LOG2 STOP JUMPDEST PUSH0 DUP1 CALLDATALOAD PUSH1 0xE0 SHR DUP1 PUSH4 0x668C0D0 EQ PUSH2 0x11B5 JUMPI DUP1 PUSH4 0x1E0DB440 EQ PUSH2 0x1197 JUMPI DUP1 PUSH4 0x2A5C792A EQ PUSH2 0x10CF JUMPI DUP1 PUSH4 0x342F2DF3 EQ PUSH2 0x10B1 JUMPI DUP1 PUSH4 0x42086C79 EQ PUSH2 0x103E JUMPI DUP1 PUSH4 0x469E9067 EQ PUSH2 0xF94 JUMPI DUP1 PUSH4 0x617FBA04 EQ PUSH2 0xE5D JUMPI DUP1 PUSH4 0x634282AF EQ PUSH2 0xE19 JUMPI DUP1 PUSH4 0x69496D96 EQ PUSH2 0xD9C JUMPI DUP1 PUSH4 0x715018A6 EQ PUSH2 0xD55 JUMPI DUP1 PUSH4 0x71AF3101 EQ PUSH2 0xCAF JUMPI DUP1 PUSH4 0x735DE9F7 EQ PUSH2 0xC6A JUMPI DUP1 PUSH4 0x8DA5CB5B EQ PUSH2 0xC43 JUMPI DUP1 PUSH4 0x94AED7D0 EQ PUSH2 0x65B JUMPI DUP1 PUSH4 0x96214735 EQ PUSH2 0x5D7 JUMPI DUP1 PUSH4 0xD5F39488 EQ PUSH2 0x5AE JUMPI DUP1 PUSH4 0xDBB80E42 EQ PUSH2 0x590 JUMPI DUP1 PUSH4 0xEC3889B5 EQ PUSH2 0x419 JUMPI DUP1 PUSH4 0xF2FDE38B EQ PUSH2 0x3A6 JUMPI DUP1 PUSH4 0xFABB2C17 EQ PUSH2 0x1F8 JUMPI PUSH4 0xFF6151C7 EQ PUSH2 0x147 JUMPI POP PUSH2 0xE JUMP JUMPDEST CALLVALUE PUSH2 0x1E6 JUMPI PUSH1 0x40 CALLDATASIZE PUSH1 0x3 NOT ADD SLT PUSH2 0x1E6 JUMPI DUP1 PUSH2 0x161 PUSH2 0x1262 JUMP JUMPDEST PUSH2 0x169 PUSH2 0x1278 JUMP JUMPDEST SWAP1 PUSH2 0x172 PUSH2 0x1530 JUMP JUMPDEST PUSH1 0x1 PUSH1 0x1 PUSH1 0xA0 SHL SUB SWAP1 DUP2 AND DUP4 MSTORE PUSH1 0x2 PUSH1 0x20 MSTORE PUSH1 0x40 DUP4 KECCAK256 SLOAD AND SWAP1 PUSH2 0x196 DUP3 ISZERO ISZERO PUSH2 0x1435 JUMP JUMPDEST DUP2 EXTCODESIZE ISZERO PUSH2 0x1F4 JUMPI PUSH1 0x40 MLOAD PUSH4 0x3A43A3F3 PUSH1 0xE1 SHL DUP2 MSTORE PUSH1 0x1 PUSH1 0x1 PUSH1 0xA0 SHL SUB SWAP1 SWAP2 AND PUSH1 0x4 DUP3 ADD MSTORE SWAP1 DUP3 SWAP1 DUP3 SWAP1 PUSH1 0x24 SWAP1 DUP3 SWAP1 DUP5 SWAP1 GAS CALL DUP1 ISZERO PUSH2 0x1E9 JUMPI PUSH2 0x1D5 JUMPI POP RETURN JUMPDEST DUP2 PUSH2 0x1DF SWAP2 PUSH2 0x12F5 JUMP JUMPDEST PUSH2 0x1E6 JUMPI DUP1 RETURN JUMPDEST DUP1 REVERT JUMPDEST PUSH1 0x40 MLOAD RETURNDATASIZE DUP5 DUP3 RETURNDATACOPY RETURNDATASIZE SWAP1 REVERT JUMPDEST POP POP REVERT JUMPDEST POP CALLVALUE PUSH2 0x1E6 JUMPI PUSH1 0x40 CALLDATASIZE PUSH1 0x3 NOT ADD SLT PUSH2 0x1E6 JUMPI PUSH2 0x212 PUSH2 0x1262 JUMP JUMPDEST SWAP1 PUSH1 0x24 CALLDATALOAD PUSH1 0x1 PUSH1 0x1 PUSH1 0x40 SHL SUB DUP2 GT PUSH2 0x3A2 JUMPI PUSH2 0x232 SWAP1 CALLDATASIZE SWAP1 PUSH1 0x4 ADD PUSH2 0x1408 JUMP JUMPDEST SWAP3 PUSH1 0x1 DUP1 PUSH1 0xA0 SHL SUB AND SWAP1 DUP2 DUP4 MSTORE PUSH1 0x2 PUSH1 0x20 MSTORE PUSH1 0x40 DUP4 KECCAK256 PUSH1 0x1 DUP1 PUSH1 0xA0 SHL SUB PUSH1 0x2 DUP3 ADD SLOAD AND CALLER SUB PUSH2 0x36E JUMPI PUSH1 0x4 ADD SWAP4 PUSH1 0x1 PUSH1 0x1 PUSH1 0x40 SHL SUB DUP2 GT PUSH2 0x35A JUMPI PUSH2 0x281 DUP2 PUSH2 0x27B DUP8 SLOAD PUSH2 0x128E JUMP JUMPDEST DUP8 PUSH2 0x14C0 JUMP JUMPDEST DUP4 SWAP5 PUSH1 0x1F DUP3 GT PUSH1 0x1 EQ PUSH2 0x2E9 JUMPI PUSH2 0x2BE DUP3 DUP1 DUP8 SWAP9 PUSH0 DUP1 MLOAD PUSH1 0x20 PUSH2 0x158F DUP4 CODECOPY DUP2 MLOAD SWAP2 MSTORE SWAP8 SWAP9 SWAP2 PUSH2 0x2DE JUMPI JUMPDEST POP DUP2 PUSH1 0x1 SHL SWAP2 PUSH0 NOT SWAP1 PUSH1 0x3 SHL SHR NOT AND OR SWAP1 JUMP JUMPDEST SWAP1 SSTORE JUMPDEST PUSH2 0x2D8 PUSH1 0x40 MLOAD SWAP3 DUP4 SWAP3 PUSH1 0x20 DUP5 MSTORE PUSH1 0x20 DUP5 ADD SWAP2 PUSH2 0x1485 JUMP JUMPDEST SUB SWAP1 LOG2 DUP1 RETURN JUMPDEST SWAP1 POP DUP6 ADD CALLDATALOAD PUSH0 PUSH2 0x2AB JUMP JUMPDEST DUP1 DUP6 MSTORE PUSH1 0x20 DUP6 KECCAK256 SWAP6 PUSH1 0x1F NOT DUP4 AND DUP7 JUMPDEST DUP2 DUP2 LT PUSH2 0x342 JUMPI POP SWAP1 DUP4 PUSH0 DUP1 MLOAD PUSH1 0x20 PUSH2 0x158F DUP4 CODECOPY DUP2 MLOAD SWAP2 MSTORE SWAP7 SWAP8 SWAP9 SWAP3 LT PUSH2 0x329 JUMPI JUMPDEST POP POP PUSH1 0x1 DUP3 DUP2 SHL ADD SWAP1 SSTORE PUSH2 0x2C1 JUMP JUMPDEST DUP5 ADD CALLDATALOAD PUSH0 NOT PUSH1 0x3 DUP6 SWAP1 SHL PUSH1 0xF8 AND SHR NOT AND SWAP1 SSTORE PUSH0 DUP1 PUSH2 0x31A JUMP JUMPDEST DUP6 DUP4 ADD CALLDATALOAD DUP10 SSTORE PUSH1 0x1 SWAP1 SWAP9 ADD SWAP8 PUSH1 0x20 SWAP3 DUP4 ADD SWAP3 ADD PUSH2 0x2F8 JUMP JUMPDEST PUSH4 0x4E487B71 PUSH1 0xE0 SHL DUP5 MSTORE PUSH1 0x41 PUSH1 0x4 MSTORE PUSH1 0x24 DUP5 REVERT JUMPDEST PUSH1 0x40 MLOAD PUSH3 0x461BCD PUSH1 0xE5 SHL DUP2 MSTORE PUSH1 0x20 PUSH1 0x4 DUP3 ADD MSTORE PUSH1 0xC PUSH1 0x24 DUP3 ADD MSTORE PUSH12 0x27B7363C9031B932B0BA37B9 PUSH1 0xA1 SHL PUSH1 0x44 DUP3 ADD MSTORE PUSH1 0x64 SWAP1 REVERT JUMPDEST POP DUP1 REVERT JUMPDEST POP CALLVALUE PUSH2 0x1E6 JUMPI PUSH1 0x20 CALLDATASIZE PUSH1 0x3 NOT ADD SLT PUSH2 0x1E6 JUMPI PUSH2 0x3C0 PUSH2 0x1262 JUMP JUMPDEST PUSH2 0x3C8 PUSH2 0x1530 JUMP JUMPDEST PUSH1 0x1 PUSH1 0x1 PUSH1 0xA0 SHL SUB AND DUP1 ISZERO PUSH2 0x405 JUMPI DUP2 SLOAD PUSH1 0x1 PUSH1 0x1 PUSH1 0xA0 SHL SUB NOT DUP2 AND DUP3 OR DUP4 SSTORE PUSH1 0x1 PUSH1 0x1 PUSH1 0xA0 SHL SUB AND PUSH0 DUP1 MLOAD PUSH1 0x20 PUSH2 0x15AF DUP4 CODECOPY DUP2 MLOAD SWAP2 MSTORE DUP4 DUP1 LOG3 DUP1 RETURN JUMPDEST PUSH4 0x1E4FBDF7 PUSH1 0xE0 SHL DUP3 MSTORE PUSH1 0x4 DUP3 SWAP1 MSTORE PUSH1 0x24 DUP3 REVERT JUMPDEST POP CALLVALUE PUSH2 0x1E6 JUMPI PUSH1 0x20 CALLDATASIZE PUSH1 0x3 NOT ADD SLT PUSH2 0x1E6 JUMPI PUSH2 0x433 PUSH2 0x1262 JUMP JUMPDEST PUSH2 0x43B PUSH2 0x1530 JUMP JUMPDEST PUSH2 0x443 PUSH2 0x1556 JUMP JUMPDEST PUSH1 0x4 SLOAD SWAP1 DUP2 ISZERO PUSH2 0x555 JUMPI PUSH1 0x1 PUSH1 0x1 PUSH1 0xA0 SHL SUB AND SWAP1 DUP2 ISZERO PUSH2 0x520 JUMPI DUP3 PUSH1 0x4 SSTORE PUSH2 0x46D DUP2 PUSH1 0x5 SLOAD PUSH2 0x150F JUMP JUMPDEST PUSH1 0x5 SSTORE DUP3 DUP1 DUP1 DUP1 DUP5 DUP7 GAS CALL RETURNDATASIZE ISZERO PUSH2 0x51B JUMPI RETURNDATASIZE PUSH2 0x488 DUP2 PUSH2 0x14A5 JUMP JUMPDEST SWAP1 PUSH2 0x496 PUSH1 0x40 MLOAD SWAP3 DUP4 PUSH2 0x12F5 JUMP JUMPDEST DUP2 MSTORE DUP5 PUSH1 0x20 RETURNDATASIZE SWAP3 ADD RETURNDATACOPY JUMPDEST ISZERO PUSH2 0x4E4 JUMPI PUSH1 0x20 PUSH32 0xFC7AD544FF6A06D6499925723D25B6FE70457A42939995B1D3D6F560FE336333 SWAP2 PUSH1 0x40 MLOAD SWAP1 DUP2 MSTORE LOG2 PUSH1 0x1 PUSH0 DUP1 MLOAD PUSH1 0x20 PUSH2 0x15CF DUP4 CODECOPY DUP2 MLOAD SWAP2 MSTORE SSTORE DUP1 RETURN JUMPDEST PUSH1 0x40 MLOAD PUSH3 0x461BCD PUSH1 0xE5 SHL DUP2 MSTORE PUSH1 0x20 PUSH1 0x4 DUP3 ADD MSTORE PUSH1 0xF PUSH1 0x24 DUP3 ADD MSTORE PUSH15 0x115512081CD95B990819985A5B1959 PUSH1 0x8A SHL PUSH1 0x44 DUP3 ADD MSTORE PUSH1 0x64 SWAP1 REVERT JUMPDEST PUSH2 0x4A0 JUMP JUMPDEST PUSH1 0x40 MLOAD PUSH3 0x461BCD PUSH1 0xE5 SHL DUP2 MSTORE PUSH1 0x20 PUSH1 0x4 DUP3 ADD MSTORE PUSH1 0xD PUSH1 0x24 DUP3 ADD MSTORE PUSH13 0x109859081C9958DA5C1A595B9D PUSH1 0x9A SHL PUSH1 0x44 DUP3 ADD MSTORE PUSH1 0x64 SWAP1 REVERT JUMPDEST PUSH1 0x40 MLOAD PUSH3 0x461BCD PUSH1 0xE5 SHL DUP2 MSTORE PUSH1 0x20 PUSH1 0x4 DUP3 ADD MSTORE PUSH1 0x13 PUSH1 0x24 DUP3 ADD MSTORE PUSH19 0x4E6F7468696E6720746F207769746864726177 PUSH1 0x68 SHL PUSH1 0x44 DUP3 ADD MSTORE PUSH1 0x64 SWAP1 REVERT JUMPDEST POP CALLVALUE PUSH2 0x1E6 JUMPI DUP1 PUSH1 0x3 NOT CALLDATASIZE ADD SLT PUSH2 0x1E6 JUMPI PUSH1 0x20 PUSH1 0x3 SLOAD PUSH1 0x40 MLOAD SWAP1 DUP2 MSTORE RETURN JUMPDEST POP CALLVALUE PUSH2 0x1E6 JUMPI DUP1 PUSH1 0x3 NOT CALLDATASIZE ADD SLT PUSH2 0x1E6 JUMPI PUSH1 0x1 SLOAD PUSH1 0x40 MLOAD PUSH1 0x1 PUSH1 0x1 PUSH1 0xA0 SHL SUB SWAP1 SWAP2 AND DUP2 MSTORE PUSH1 0x20 SWAP1 RETURN JUMPDEST POP CALLVALUE PUSH2 0x1E6 JUMPI PUSH1 0x20 CALLDATASIZE PUSH1 0x3 NOT ADD SLT PUSH2 0x1E6 JUMPI PUSH2 0x5F1 PUSH2 0x1262 JUMP JUMPDEST PUSH2 0x5F9 PUSH2 0x1530 JUMP JUMPDEST PUSH1 0x1 SLOAD SWAP1 PUSH1 0x1 PUSH1 0x1 PUSH1 0xA0 SHL SUB DUP3 AND PUSH2 0x628 JUMPI PUSH1 0x1 PUSH1 0x1 PUSH1 0xA0 SHL SUB AND PUSH1 0x1 PUSH1 0x1 PUSH1 0xA0 SHL SUB NOT SWAP2 SWAP1 SWAP2 AND OR PUSH1 0x1 SSTORE DUP1 RETURN JUMPDEST PUSH1 0x40 MLOAD PUSH3 0x461BCD PUSH1 0xE5 SHL DUP2 MSTORE PUSH1 0x20 PUSH1 0x4 DUP3 ADD MSTORE PUSH1 0xB PUSH1 0x24 DUP3 ADD MSTORE PUSH11 0x105B1C9958591E481CD95D PUSH1 0xAA SHL PUSH1 0x44 DUP3 ADD MSTORE PUSH1 0x64 SWAP1 REVERT JUMPDEST POP PUSH1 0x60 CALLDATASIZE PUSH1 0x3 NOT ADD SLT PUSH2 0x1E6 JUMPI PUSH1 0x4 CALLDATALOAD PUSH1 0x1 PUSH1 0x1 PUSH1 0x40 SHL SUB DUP2 GT PUSH2 0x3A2 JUMPI PUSH2 0x687 SWAP1 CALLDATASIZE SWAP1 PUSH1 0x4 ADD PUSH2 0x1408 JUMP JUMPDEST SWAP2 SWAP1 PUSH1 0x24 CALLDATALOAD PUSH1 0x1 PUSH1 0x1 PUSH1 0x40 SHL SUB DUP2 GT PUSH2 0xC3F JUMPI PUSH2 0x6A8 SWAP1 CALLDATASIZE SWAP1 PUSH1 0x4 ADD PUSH2 0x1408 JUMP JUMPDEST SWAP3 SWAP1 PUSH1 0x44 CALLDATALOAD PUSH1 0x1 PUSH1 0x1 PUSH1 0x40 SHL SUB DUP2 GT PUSH2 0xC3F JUMPI PUSH2 0x6C9 SWAP1 CALLDATASIZE SWAP1 PUSH1 0x4 ADD PUSH2 0x1408 JUMP JUMPDEST SWAP1 SWAP2 PUSH2 0x6D3 PUSH2 0x1556 JUMP JUMPDEST PUSH1 0x1 SLOAD PUSH1 0x1 PUSH1 0x1 PUSH1 0xA0 SHL SUB AND SWAP6 DUP7 ISZERO PUSH2 0xC07 JUMPI PUSH1 0x40 PUSH2 0x715 PUSH2 0x728 SWAP9 DUP9 DUP9 DUP13 DUP6 MLOAD SWAP13 DUP14 SWAP6 DUP7 SWAP5 DUP6 SWAP4 PUSH4 0x390274ED PUSH1 0xE0 SHL DUP6 MSTORE DUP10 PUSH1 0x4 DUP7 ADD MSTORE PUSH1 0x44 DUP6 ADD SWAP2 PUSH2 0x1485 JUMP JUMPDEST DUP3 DUP2 SUB PUSH1 0x3 NOT ADD PUSH1 0x24 DUP5 ADD MSTORE DUP9 DUP11 PUSH2 0x1485 JUMP JUMPDEST SUB SWAP3 GAS CALL SWAP7 DUP8 ISZERO PUSH2 0xBFC JUMPI DUP6 SWAP1 DUP7 SWAP9 PUSH2 0xBB0 JUMPI JUMPDEST POP PUSH1 0x40 MLOAD PUSH1 0x1 PUSH1 0x1 PUSH1 0xA0 SHL SUB SWAP2 DUP3 AND SWAP9 SWAP1 SWAP2 AND SWAP7 SWAP1 PUSH2 0x75A DUP2 PUSH2 0x12C6 JUMP JUMPDEST DUP9 DUP2 MSTORE PUSH1 0x20 DUP2 ADD DUP9 DUP2 MSTORE PUSH1 0x40 DUP3 ADD CALLER DUP2 MSTORE PUSH1 0x60 DUP4 ADD TIMESTAMP DUP2 MSTORE PUSH2 0x77B DUP9 PUSH2 0x14A5 JUMP JUMPDEST SWAP2 PUSH2 0x789 PUSH1 0x40 MLOAD SWAP4 DUP5 PUSH2 0x12F5 JUMP JUMPDEST DUP9 DUP4 MSTORE CALLDATASIZE DUP10 DUP12 ADD GT PUSH2 0xBAC JUMPI SWAP1 DUP3 SWAP2 DUP10 DUP12 DUP16 SWAP7 SWAP6 PUSH1 0x20 ADD CALLDATACOPY DUP3 DUP11 ADD PUSH1 0x20 SWAP1 DUP2 ADD DUP14 SWAP1 MSTORE PUSH1 0x80 DUP8 ADD SWAP4 DUP5 MSTORE PUSH1 0xA0 DUP8 ADD DUP14 DUP2 MSTORE PUSH1 0xC0 DUP9 ADD DUP15 DUP2 MSTORE SWAP7 DUP15 MSTORE PUSH1 0x2 SWAP2 DUP3 SWAP1 MSTORE PUSH1 0x40 DUP15 KECCAK256 SWAP8 MLOAD DUP9 SLOAD PUSH1 0x1 PUSH1 0x1 PUSH1 0xA0 SHL SUB NOT SWAP1 DUP2 AND PUSH1 0x1 PUSH1 0x1 PUSH1 0xA0 SHL SUB SWAP3 DUP4 AND OR DUP11 SSTORE SWAP7 MLOAD PUSH1 0x1 DUP11 ADD DUP1 SLOAD DUP10 AND SWAP2 DUP4 AND SWAP2 SWAP1 SWAP2 OR SWAP1 SSTORE SWAP3 MLOAD SWAP2 DUP9 ADD DUP1 SLOAD SWAP1 SWAP7 AND SWAP2 SWAP1 SWAP3 AND OR SWAP1 SWAP4 SSTORE MLOAD PUSH1 0x3 DUP6 ADD SSTORE MLOAD DUP1 MLOAD PUSH1 0x4 DUP6 ADD SWAP2 PUSH1 0x1 PUSH1 0x1 PUSH1 0x40 SHL SUB DUP3 GT PUSH2 0xB98 JUMPI PUSH2 0x841 DUP3 PUSH2 0x83B DUP6 SLOAD PUSH2 0x128E JUMP JUMPDEST DUP6 PUSH2 0x14C0 JUMP JUMPDEST PUSH1 0x20 SWAP1 DUP13 PUSH1 0x1F DUP5 GT PUSH1 0x1 EQ PUSH2 0xB31 JUMPI PUSH1 0x6 SWAP7 SWAP6 SWAP5 SWAP4 PUSH2 0x876 SWAP4 SWAP1 SWAP3 DUP4 PUSH2 0xB26 JUMPI JUMPDEST POP POP DUP2 PUSH1 0x1 SHL SWAP2 PUSH0 NOT SWAP1 PUSH1 0x3 SHL SHR NOT AND OR SWAP1 JUMP JUMPDEST SWAP1 SSTORE JUMPDEST MLOAD PUSH1 0x5 DUP5 ADD SSTORE MLOAD SWAP2 ADD SSTORE PUSH1 0x3 SLOAD PUSH1 0x1 PUSH1 0x40 SHL DUP2 LT ISZERO PUSH2 0xB12 JUMPI DUP1 PUSH1 0x1 PUSH2 0x8A2 SWAP3 ADD PUSH1 0x3 SSTORE PUSH2 0x13DC JUMP JUMPDEST DUP2 SLOAD PUSH1 0x1 PUSH1 0x1 PUSH1 0xA0 SHL SUB PUSH1 0x3 SWAP3 SWAP1 SWAP3 SHL SWAP2 DUP3 SHL NOT AND SWAP1 DUP11 SWAP1 SHL OR SWAP1 SSTORE DUP6 CALLVALUE PUSH2 0x955 JUMPI JUMPDEST POP DUP7 SWAP5 DUP9 SWAP5 PUSH2 0x919 PUSH32 0xEE1BE9E7A514E242EDDD023CF4BD4446C71D28C7CF5C53C4085379EA89993033 SWAP6 PUSH1 0x40 SWAP13 SWAP6 PUSH2 0x90B PUSH2 0x926 SWAP7 DUP16 MLOAD SWAP9 PUSH1 0xA0 DUP11 MSTORE PUSH1 0xA0 DUP11 ADD SWAP2 PUSH2 0x1485 JUMP JUMPDEST SWAP2 DUP8 DUP4 SUB PUSH1 0x20 DUP10 ADD MSTORE PUSH2 0x1485 JUMP JUMPDEST SWAP2 DUP5 DUP4 SUB DUP13 DUP7 ADD MSTORE PUSH2 0x1485 JUMP JUMPDEST SWAP5 CALLVALUE PUSH1 0x60 DUP4 ADD MSTORE PUSH1 0x80 DUP3 ADD MSTORE DUP1 CALLER SWAP6 SUB SWAP1 LOG4 PUSH1 0x1 PUSH0 DUP1 MLOAD PUSH1 0x20 PUSH2 0x15CF DUP4 CODECOPY DUP2 MLOAD SWAP2 MSTORE SSTORE DUP3 MLOAD SWAP2 DUP3 MSTORE PUSH1 0x20 DUP3 ADD MSTORE RETURN JUMPDEST SWAP6 POP PUSH1 0x40 MLOAD PUSH4 0x6CB504A5 PUSH1 0xE1 SHL DUP2 MSTORE DUP7 PUSH1 0x4 DUP3 ADD MSTORE PUSH1 0x20 DUP2 PUSH1 0x24 DUP2 CALLVALUE DUP13 GAS CALL SWAP1 DUP2 ISZERO PUSH2 0xB07 JUMPI DUP8 SWAP2 PUSH2 0xAD5 JUMPI JUMPDEST POP SWAP6 PUSH1 0x40 MLOAD PUSH4 0x70A08231 PUSH1 0xE0 SHL DUP2 MSTORE ADDRESS PUSH1 0x4 DUP3 ADD MSTORE PUSH1 0x20 DUP2 PUSH1 0x24 DUP2 DUP14 GAS STATICCALL SWAP1 DUP2 ISZERO PUSH2 0x1E9 JUMPI DUP3 SWAP2 PUSH2 0xA9F JUMPI JUMPDEST POP DUP1 PUSH2 0xA21 JUMPI JUMPDEST POP DUP9 DUP2 MSTORE PUSH1 0x2 PUSH1 0x20 MSTORE CALLVALUE PUSH1 0x5 PUSH1 0x40 DUP4 KECCAK256 ADD SSTORE DUP9 DUP2 MSTORE PUSH1 0x2 PUSH1 0x20 MSTORE DUP7 PUSH1 0x6 PUSH1 0x40 DUP4 KECCAK256 ADD SSTORE DUP8 EXTCODESIZE ISZERO PUSH2 0x1E6 JUMPI PUSH1 0x40 MLOAD PUSH4 0xD8C76C17 PUSH1 0xE0 SHL DUP2 MSTORE CALLER PUSH1 0x4 DUP3 ADD MSTORE DUP2 DUP2 PUSH1 0x24 DUP2 DUP4 DUP14 GAS CALL DUP1 ISZERO PUSH2 0x1E9 JUMPI PUSH2 0xA0C JUMPI JUMPDEST POP PUSH2 0x8C5 JUMP JUMPDEST PUSH2 0xA17 DUP3 DUP1 SWAP3 PUSH2 0x12F5 JUMP JUMPDEST PUSH2 0x1E6 JUMPI DUP1 PUSH2 0xA06 JUMP JUMPDEST PUSH1 0x40 MLOAD PUSH4 0xA9059CBB PUSH1 0xE0 SHL DUP2 MSTORE CALLER PUSH1 0x4 DUP3 ADD MSTORE PUSH1 0x24 DUP2 ADD DUP3 SWAP1 MSTORE SWAP2 SWAP8 POP SWAP1 PUSH1 0x20 DUP2 PUSH1 0x44 DUP2 DUP12 DUP15 GAS CALL DUP1 ISZERO PUSH2 0xA94 JUMPI PUSH2 0xA5C JUMPI JUMPDEST POP SWAP6 PUSH0 PUSH2 0x9B5 JUMP JUMPDEST PUSH1 0x20 DUP2 RETURNDATASIZE PUSH1 0x20 GT PUSH2 0xA8C JUMPI JUMPDEST DUP2 PUSH2 0xA75 PUSH1 0x20 SWAP4 DUP4 PUSH2 0x12F5 JUMP JUMPDEST DUP2 ADD SUB SLT PUSH2 0xA88 JUMPI MLOAD DUP1 ISZERO ISZERO DUP2 EQ PUSH2 0xA54 JUMPI JUMPDEST DUP8 DUP1 REVERT JUMPDEST RETURNDATASIZE SWAP2 POP PUSH2 0xA68 JUMP JUMPDEST PUSH1 0x40 MLOAD RETURNDATASIZE DUP11 DUP3 RETURNDATACOPY RETURNDATASIZE SWAP1 REVERT JUMPDEST SWAP1 POP PUSH1 0x20 DUP2 RETURNDATASIZE PUSH1 0x20 GT PUSH2 0xACD JUMPI JUMPDEST DUP2 PUSH2 0xABA PUSH1 0x20 SWAP4 DUP4 PUSH2 0x12F5 JUMP JUMPDEST DUP2 ADD SUB SLT PUSH2 0xAC9 JUMPI MLOAD PUSH0 PUSH2 0x9AE JUMP JUMPDEST PUSH0 DUP1 REVERT JUMPDEST RETURNDATASIZE SWAP2 POP PUSH2 0xAAD JUMP JUMPDEST SWAP1 POP PUSH1 0x20 DUP2 RETURNDATASIZE PUSH1 0x20 GT PUSH2 0xAFF JUMPI JUMPDEST DUP2 PUSH2 0xAF0 PUSH1 0x20 SWAP4 DUP4 PUSH2 0x12F5 JUMP JUMPDEST DUP2 ADD SUB SLT PUSH2 0xAC9 JUMPI MLOAD PUSH0 PUSH2 0x982 JUMP JUMPDEST RETURNDATASIZE SWAP2 POP PUSH2 0xAE3 JUMP JUMPDEST PUSH1 0x40 MLOAD RETURNDATASIZE DUP10 DUP3 RETURNDATACOPY RETURNDATASIZE SWAP1 REVERT JUMPDEST PUSH4 0x4E487B71 PUSH1 0xE0 SHL DUP8 MSTORE PUSH1 0x41 PUSH1 0x4 MSTORE PUSH1 0x24 DUP8 REVERT JUMPDEST ADD MLOAD SWAP1 POP PUSH0 DUP1 PUSH2 0x862 JUMP JUMPDEST SWAP2 SWAP1 PUSH1 0x1F NOT DUP5 AND DUP6 DUP5 MSTORE DUP3 DUP5 KECCAK256 SWAP4 JUMPDEST DUP2 DUP2 LT PUSH2 0xB80 JUMPI POP SWAP2 PUSH1 0x1 SWAP4 SWAP2 DUP6 PUSH1 0x6 SWAP10 SWAP9 SWAP8 SWAP7 SWAP5 LT PUSH2 0xB68 JUMPI JUMPDEST POP POP POP DUP2 SHL ADD SWAP1 SSTORE PUSH2 0x879 JUMP JUMPDEST ADD MLOAD PUSH0 NOT PUSH1 0xF8 DUP5 PUSH1 0x3 SHL AND SHR NOT AND SWAP1 SSTORE PUSH0 DUP1 DUP1 PUSH2 0xB5B JUMP JUMPDEST SWAP3 SWAP4 PUSH1 0x20 PUSH1 0x1 DUP2 SWAP3 DUP8 DUP7 ADD MLOAD DUP2 SSTORE ADD SWAP6 ADD SWAP4 ADD PUSH2 0xB40 JUMP JUMPDEST PUSH4 0x4E487B71 PUSH1 0xE0 SHL DUP13 MSTORE PUSH1 0x41 PUSH1 0x4 MSTORE PUSH1 0x24 DUP13 REVERT JUMPDEST DUP11 DUP1 REVERT JUMPDEST SWAP8 POP POP PUSH1 0x40 DUP8 RETURNDATASIZE PUSH1 0x40 GT PUSH2 0xBF4 JUMPI JUMPDEST DUP2 PUSH2 0xBCC PUSH1 0x40 SWAP4 DUP4 PUSH2 0x12F5 JUMP JUMPDEST DUP2 ADD SUB SLT PUSH2 0xBF0 JUMPI PUSH2 0xBE9 PUSH1 0x20 PUSH2 0xBE2 DUP10 PUSH2 0x1471 JUMP JUMPDEST SWAP9 ADD PUSH2 0x1471 JUMP JUMPDEST SWAP7 PUSH0 PUSH2 0x73C JUMP JUMPDEST DUP5 DUP1 REVERT JUMPDEST RETURNDATASIZE SWAP2 POP PUSH2 0xBBF JUMP JUMPDEST PUSH1 0x40 MLOAD RETURNDATASIZE DUP8 DUP3 RETURNDATACOPY RETURNDATASIZE SWAP1 REVERT JUMPDEST PUSH1 0x40 MLOAD PUSH3 0x461BCD PUSH1 0xE5 SHL DUP2 MSTORE PUSH1 0x20 PUSH1 0x4 DUP3 ADD MSTORE PUSH1 0x10 PUSH1 0x24 DUP3 ADD MSTORE PUSH16 0x11195C1B1BDE595C881B9BDD081CD95D PUSH1 0x82 SHL PUSH1 0x44 DUP3 ADD MSTORE PUSH1 0x64 SWAP1 REVERT JUMPDEST DUP3 DUP1 REVERT JUMPDEST POP CALLVALUE PUSH2 0x1E6 JUMPI DUP1 PUSH1 0x3 NOT CALLDATASIZE ADD SLT PUSH2 0x1E6 JUMPI SLOAD PUSH1 0x40 MLOAD PUSH1 0x1 PUSH1 0x1 PUSH1 0xA0 SHL SUB SWAP1 SWAP2 AND DUP2 MSTORE PUSH1 0x20 SWAP1 RETURN JUMPDEST POP CALLVALUE PUSH2 0x1E6 JUMPI DUP1 PUSH1 0x3 NOT CALLDATASIZE ADD SLT PUSH2 0x1E6 JUMPI PUSH1 0x40 MLOAD PUSH32 0x0 PUSH1 0x1 PUSH1 0x1 PUSH1 0xA0 SHL SUB AND DUP2 MSTORE PUSH1 0x20 SWAP1 RETURN JUMPDEST POP CALLVALUE PUSH2 0x1E6 JUMPI PUSH1 0x60 CALLDATASIZE PUSH1 0x3 NOT ADD SLT PUSH2 0x1E6 JUMPI DUP1 PUSH2 0xCCA PUSH2 0x1262 JUMP JUMPDEST PUSH2 0xCD2 PUSH2 0x1278 JUMP JUMPDEST PUSH1 0x44 CALLDATALOAD SWAP2 DUP3 ISZERO ISZERO DUP1 SWAP4 SUB PUSH2 0xD50 JUMPI PUSH2 0xCE8 PUSH2 0x1530 JUMP JUMPDEST PUSH1 0x1 PUSH1 0x1 PUSH1 0xA0 SHL SUB SWAP1 DUP2 AND DUP5 MSTORE PUSH1 0x2 PUSH1 0x20 MSTORE PUSH1 0x40 DUP5 KECCAK256 SLOAD AND SWAP2 PUSH2 0xD0C DUP4 ISZERO ISZERO PUSH2 0x1435 JUMP JUMPDEST DUP3 EXTCODESIZE ISZERO PUSH2 0xD50 JUMPI PUSH1 0x40 MLOAD PUSH4 0xA0DAF89 PUSH1 0xE2 SHL DUP2 MSTORE PUSH1 0x1 PUSH1 0x1 PUSH1 0xA0 SHL SUB SWAP1 SWAP3 AND PUSH1 0x4 DUP4 ADD MSTORE PUSH1 0x24 DUP3 ADD MSTORE SWAP1 DUP3 SWAP1 DUP3 SWAP1 PUSH1 0x44 SWAP1 DUP3 SWAP1 DUP5 SWAP1 GAS CALL DUP1 ISZERO PUSH2 0x1E9 JUMPI PUSH2 0x1D5 JUMPI POP RETURN JUMPDEST POP POP POP REVERT JUMPDEST POP CALLVALUE PUSH2 0x1E6 JUMPI DUP1 PUSH1 0x3 NOT CALLDATASIZE ADD SLT PUSH2 0x1E6 JUMPI PUSH2 0xD6E PUSH2 0x1530 JUMP JUMPDEST DUP1 SLOAD PUSH1 0x1 PUSH1 0x1 PUSH1 0xA0 SHL SUB NOT DUP2 AND DUP3 SSTORE DUP2 SWAP1 PUSH1 0x1 PUSH1 0x1 PUSH1 0xA0 SHL SUB AND PUSH0 DUP1 MLOAD PUSH1 0x20 PUSH2 0x15AF DUP4 CODECOPY DUP2 MLOAD SWAP2 MSTORE DUP3 DUP1 LOG3 DUP1 RETURN JUMPDEST POP CALLVALUE PUSH2 0x1E6 JUMPI PUSH1 0x40 CALLDATASIZE PUSH1 0x3 NOT ADD SLT PUSH2 0x1E6 JUMPI PUSH2 0xDB6 PUSH2 0x1262 JUMP JUMPDEST PUSH2 0xDBE PUSH2 0x1530 JUMP JUMPDEST PUSH1 0x1 PUSH1 0x1 PUSH1 0xA0 SHL SUB SWAP1 DUP2 AND DUP3 MSTORE PUSH1 0x2 PUSH1 0x20 MSTORE PUSH1 0x40 DUP3 KECCAK256 SLOAD DUP3 SWAP2 AND PUSH2 0xDE3 DUP2 ISZERO ISZERO PUSH2 0x1435 JUMP JUMPDEST DUP1 EXTCODESIZE ISZERO PUSH2 0xE16 JUMPI DUP2 DUP1 SWAP2 PUSH1 0x24 PUSH1 0x40 MLOAD DUP1 SWAP5 DUP2 SWAP4 PUSH4 0x9D0014B1 PUSH1 0xE0 SHL DUP4 MSTORE DUP4 CALLDATALOAD PUSH1 0x4 DUP5 ADD MSTORE GAS CALL DUP1 ISZERO PUSH2 0x1E9 JUMPI PUSH2 0x1D5 JUMPI POP RETURN JUMPDEST POP REVERT JUMPDEST POP CALLVALUE PUSH2 0x1E6 JUMPI PUSH1 0x20 CALLDATASIZE PUSH1 0x3 NOT ADD SLT PUSH2 0x1E6 JUMPI PUSH1 0x4 CALLDATALOAD SWAP1 PUSH1 0x3 SLOAD DUP3 LT ISZERO PUSH2 0x1E6 JUMPI PUSH1 0x20 PUSH2 0xE44 DUP4 PUSH2 0x13DC JUMP JUMPDEST SWAP1 SLOAD PUSH1 0x40 MLOAD PUSH1 0x3 SWAP3 SWAP1 SWAP3 SHL SHR PUSH1 0x1 PUSH1 0x1 PUSH1 0xA0 SHL SUB AND DUP2 MSTORE RETURN JUMPDEST POP CALLVALUE PUSH2 0x1E6 JUMPI PUSH1 0x20 CALLDATASIZE PUSH1 0x3 NOT ADD SLT PUSH2 0x1E6 JUMPI PUSH1 0x40 SWAP1 PUSH2 0xE7A PUSH2 0x1262 JUMP JUMPDEST DUP2 PUSH1 0xC0 DUP5 MLOAD PUSH2 0xE88 DUP2 PUSH2 0x12C6 JUMP JUMPDEST DUP3 DUP2 MSTORE DUP3 PUSH1 0x20 DUP3 ADD MSTORE DUP3 DUP7 DUP3 ADD MSTORE DUP3 PUSH1 0x60 DUP3 ADD MSTORE PUSH1 0x60 PUSH1 0x80 DUP3 ADD MSTORE DUP3 PUSH1 0xA0 DUP3 ADD MSTORE ADD MSTORE PUSH1 0x1 DUP1 PUSH1 0xA0 SHL SUB AND DUP2 MSTORE PUSH1 0x2 PUSH1 0x20 MSTORE KECCAK256 PUSH1 0x40 MLOAD PUSH2 0xEC7 DUP2 PUSH2 0x12C6 JUMP JUMPDEST DUP2 SLOAD PUSH1 0x1 PUSH1 0x1 PUSH1 0xA0 SHL SUB SWAP1 DUP2 AND DUP3 MSTORE PUSH1 0x1 DUP4 ADD SLOAD DUP2 AND PUSH1 0x20 DUP4 ADD SWAP1 DUP2 MSTORE PUSH1 0x2 DUP5 ADD SLOAD SWAP1 SWAP2 AND PUSH1 0x40 DUP4 ADD SWAP1 DUP2 MSTORE PUSH1 0x3 DUP5 ADD SLOAD PUSH1 0x60 DUP5 ADD SWAP1 DUP2 MSTORE SWAP2 SWAP4 SWAP2 PUSH2 0xF83 SWAP1 PUSH2 0xF12 PUSH1 0x4 DUP6 ADD PUSH2 0x1318 JUMP JUMPDEST SWAP1 PUSH1 0x80 DUP7 ADD SWAP2 DUP3 MSTORE PUSH1 0x6 PUSH1 0x5 DUP7 ADD SLOAD SWAP6 PUSH1 0xA0 DUP9 ADD SWAP7 DUP8 MSTORE ADD SLOAD SWAP4 PUSH1 0xC0 DUP8 ADD SWAP5 DUP6 MSTORE PUSH1 0x40 MLOAD SWAP8 DUP9 SWAP8 PUSH1 0x20 DUP10 MSTORE PUSH1 0x1 DUP1 PUSH1 0xA0 SHL SUB SWAP1 MLOAD AND PUSH1 0x20 DUP10 ADD MSTORE PUSH1 0x1 DUP1 PUSH1 0xA0 SHL SUB SWAP1 MLOAD AND PUSH1 0x40 DUP9 ADD MSTORE PUSH1 0x1 DUP1 PUSH1 0xA0 SHL SUB SWAP1 MLOAD AND PUSH1 0x60 DUP8 ADD MSTORE MLOAD PUSH1 0x80 DUP7 ADD MSTORE MLOAD PUSH1 0xE0 PUSH1 0xA0 DUP7 ADD MSTORE PUSH2 0x100 DUP6 ADD SWAP1 PUSH2 0x13B8 JUMP JUMPDEST SWAP2 MLOAD PUSH1 0xC0 DUP5 ADD MSTORE MLOAD PUSH1 0xE0 DUP4 ADD MSTORE SUB SWAP1 RETURN JUMPDEST POP CALLVALUE PUSH2 0x1E6 JUMPI PUSH1 0x20 CALLDATASIZE PUSH1 0x3 NOT ADD SLT PUSH2 0x1E6 JUMPI PUSH1 0x40 SWAP1 PUSH1 0x1 PUSH1 0x1 PUSH1 0xA0 SHL SUB PUSH2 0xFB9 PUSH2 0x1262 JUMP JUMPDEST AND DUP2 MSTORE PUSH1 0x2 PUSH1 0x20 MSTORE KECCAK256 PUSH1 0x1 DUP1 PUSH1 0xA0 SHL SUB DUP2 SLOAD AND PUSH1 0x1 DUP1 PUSH1 0xA0 SHL SUB PUSH1 0x1 DUP4 ADD SLOAD AND SWAP2 PUSH1 0x1 DUP1 PUSH1 0xA0 SHL SUB PUSH1 0x2 DUP3 ADD SLOAD AND PUSH2 0x102F PUSH1 0x3 DUP4 ADD SLOAD PUSH2 0xFFB PUSH1 0x4 DUP6 ADD PUSH2 0x1318 JUMP JUMPDEST SWAP1 PUSH1 0x6 PUSH1 0x5 DUP7 ADD SLOAD SWAP6 ADD SLOAD SWAP4 PUSH1 0x40 MLOAD SWAP8 DUP9 SWAP8 DUP9 MSTORE PUSH1 0x20 DUP9 ADD MSTORE PUSH1 0x40 DUP8 ADD MSTORE PUSH1 0x60 DUP7 ADD MSTORE PUSH1 0xE0 PUSH1 0x80 DUP7 ADD MSTORE PUSH1 0xE0 DUP6 ADD SWAP1 PUSH2 0x13B8 JUMP JUMPDEST SWAP2 PUSH1 0xA0 DUP5 ADD MSTORE PUSH1 0xC0 DUP4 ADD MSTORE SUB SWAP1 RETURN JUMPDEST POP CALLVALUE PUSH2 0x1E6 JUMPI PUSH1 0x20 CALLDATASIZE PUSH1 0x3 NOT ADD SLT PUSH2 0x1E6 JUMPI PUSH2 0x1058 PUSH2 0x1262 JUMP JUMPDEST PUSH2 0x1060 PUSH2 0x1530 JUMP JUMPDEST PUSH1 0x1 PUSH1 0x1 PUSH1 0xA0 SHL SUB SWAP1 DUP2 AND DUP3 MSTORE PUSH1 0x2 PUSH1 0x20 MSTORE PUSH1 0x40 DUP3 KECCAK256 SLOAD DUP3 SWAP2 AND PUSH2 0x1085 DUP2 ISZERO ISZERO PUSH2 0x1435 JUMP JUMPDEST DUP1 EXTCODESIZE ISZERO PUSH2 0xE16 JUMPI DUP2 DUP1 SWAP2 PUSH1 0x4 PUSH1 0x40 MLOAD DUP1 SWAP5 DUP2 SWAP4 PUSH4 0x4279349 PUSH1 0xE0 SHL DUP4 MSTORE GAS CALL DUP1 ISZERO PUSH2 0x1E9 JUMPI PUSH2 0x1D5 JUMPI POP RETURN JUMPDEST POP CALLVALUE PUSH2 0x1E6 JUMPI DUP1 PUSH1 0x3 NOT CALLDATASIZE ADD SLT PUSH2 0x1E6 JUMPI PUSH1 0x20 PUSH1 0x4 SLOAD PUSH1 0x40 MLOAD SWAP1 DUP2 MSTORE RETURN JUMPDEST POP CALLVALUE PUSH2 0x1E6 JUMPI DUP1 PUSH1 0x3 NOT CALLDATASIZE ADD SLT PUSH2 0x1E6 JUMPI PUSH1 0x40 MLOAD PUSH1 0x3 DUP1 SLOAD DUP1 DUP4 MSTORE SWAP1 DUP4 MSTORE PUSH1 0x20 DUP3 ADD SWAP1 DUP2 SWAP1 PUSH32 0xC2575A0E9E593C00F959F8C92F12DB2869C3395A3B0502D05E2516446F71F85B SWAP1 DUP6 JUMPDEST DUP2 DUP2 LT PUSH2 0x1178 JUMPI POP POP POP DUP3 PUSH2 0x112E SWAP2 SUB DUP4 PUSH2 0x12F5 JUMP JUMPDEST PUSH1 0x40 MLOAD SWAP3 DUP4 SWAP3 PUSH1 0x20 DUP5 ADD SWAP1 PUSH1 0x20 DUP6 MSTORE MLOAD DUP1 SWAP2 MSTORE PUSH1 0x40 DUP5 ADD SWAP3 SWAP2 JUMPDEST DUP2 DUP2 LT PUSH2 0x1156 JUMPI POP POP POP SUB SWAP1 RETURN JUMPDEST DUP3 MLOAD PUSH1 0x1 PUSH1 0x1 PUSH1 0xA0 SHL SUB AND DUP5 MSTORE DUP6 SWAP5 POP PUSH1 0x20 SWAP4 DUP5 ADD SWAP4 SWAP1 SWAP3 ADD SWAP2 PUSH1 0x1 ADD PUSH2 0x1148 JUMP JUMPDEST DUP3 SLOAD PUSH1 0x1 PUSH1 0x1 PUSH1 0xA0 SHL SUB AND DUP5 MSTORE PUSH1 0x20 SWAP1 SWAP4 ADD SWAP3 PUSH1 0x1 SWAP3 DUP4 ADD SWAP3 ADD PUSH2 0x1118 JUMP JUMPDEST POP CALLVALUE PUSH2 0x1E6 JUMPI DUP1 PUSH1 0x3 NOT CALLDATASIZE ADD SLT PUSH2 0x1E6 JUMPI PUSH1 0x20 PUSH1 0x5 SLOAD PUSH1 0x40 MLOAD SWAP1 DUP2 MSTORE RETURN JUMPDEST POP CALLVALUE PUSH2 0xAC9 JUMPI PUSH1 0x40 CALLDATASIZE PUSH1 0x3 NOT ADD SLT PUSH2 0xAC9 JUMPI PUSH2 0x11CF PUSH2 0x1262 JUMP JUMPDEST PUSH2 0x11D7 PUSH2 0x1278 JUMP JUMPDEST SWAP1 PUSH2 0x11E0 PUSH2 0x1530 JUMP JUMPDEST PUSH1 0x1 PUSH1 0x1 PUSH1 0xA0 SHL SUB SWAP1 DUP2 AND PUSH0 SWAP1 DUP2 MSTORE PUSH1 0x2 PUSH1 0x20 MSTORE PUSH1 0x40 SWAP1 KECCAK256 PUSH1 0x1 ADD SLOAD AND SWAP1 PUSH2 0x1209 DUP3 ISZERO ISZERO PUSH2 0x1435 JUMP JUMPDEST DUP2 EXTCODESIZE ISZERO PUSH2 0xAC9 JUMPI PUSH1 0x40 MLOAD PUSH4 0xA171283 PUSH1 0xE3 SHL DUP2 MSTORE PUSH1 0x1 PUSH1 0x1 PUSH1 0xA0 SHL SUB SWAP1 SWAP2 AND PUSH1 0x4 DUP3 ADD MSTORE SWAP1 PUSH0 SWAP1 DUP3 SWAP1 PUSH1 0x24 SWAP1 DUP3 SWAP1 DUP5 SWAP1 GAS CALL DUP1 ISZERO PUSH2 0x1257 JUMPI PUSH2 0x1249 JUMPI POP DUP1 RETURN JUMPDEST PUSH2 0x1255 SWAP2 POP PUSH0 SWAP1 PUSH2 0x12F5 JUMP JUMPDEST STOP JUMPDEST PUSH1 0x40 MLOAD RETURNDATASIZE PUSH0 DUP3 RETURNDATACOPY RETURNDATASIZE SWAP1 REVERT JUMPDEST PUSH1 0x4 CALLDATALOAD SWAP1 PUSH1 0x1 PUSH1 0x1 PUSH1 0xA0 SHL SUB DUP3 AND DUP3 SUB PUSH2 0xAC9 JUMPI JUMP JUMPDEST PUSH1 0x24 CALLDATALOAD SWAP1 PUSH1 0x1 PUSH1 0x1 PUSH1 0xA0 SHL SUB DUP3 AND DUP3 SUB PUSH2 0xAC9 JUMPI JUMP JUMPDEST SWAP1 PUSH1 0x1 DUP3 DUP2 SHR SWAP3 AND DUP1 ISZERO PUSH2 0x12BC JUMPI JUMPDEST PUSH1 0x20 DUP4 LT EQ PUSH2 0x12A8 JUMPI JUMP JUMPDEST PUSH4 0x4E487B71 PUSH1 0xE0 SHL PUSH0 MSTORE PUSH1 0x22 PUSH1 0x4 MSTORE PUSH1 0x24 PUSH0 REVERT JUMPDEST SWAP2 PUSH1 0x7F AND SWAP2 PUSH2 0x129D JUMP JUMPDEST PUSH1 0xE0 DUP2 ADD SWAP1 DUP2 LT PUSH1 0x1 PUSH1 0x1 PUSH1 0x40 SHL SUB DUP3 GT OR PUSH2 0x12E1 JUMPI PUSH1 0x40 MSTORE JUMP JUMPDEST PUSH4 0x4E487B71 PUSH1 0xE0 SHL PUSH0 MSTORE PUSH1 0x41 PUSH1 0x4 MSTORE PUSH1 0x24 PUSH0 REVERT JUMPDEST PUSH1 0x1F SWAP1 SWAP2 ADD PUSH1 0x1F NOT AND DUP2 ADD SWAP1 PUSH1 0x1 PUSH1 0x1 PUSH1 0x40 SHL SUB DUP3 GT SWAP1 DUP3 LT OR PUSH2 0x12E1 JUMPI PUSH1 0x40 MSTORE JUMP JUMPDEST SWAP1 PUSH1 0x40 MLOAD SWAP2 DUP3 PUSH0 DUP3 SLOAD SWAP3 PUSH2 0x132B DUP5 PUSH2 0x128E JUMP JUMPDEST DUP1 DUP5 MSTORE SWAP4 PUSH1 0x1 DUP2 AND SWAP1 DUP2 ISZERO PUSH2 0x1396 JUMPI POP PUSH1 0x1 EQ PUSH2 0x1352 JUMPI JUMPDEST POP PUSH2 0x1350 SWAP3 POP SUB DUP4 PUSH2 0x12F5 JUMP JUMPDEST JUMP JUMPDEST SWAP1 POP PUSH0 SWAP3 SWAP2 SWAP3 MSTORE PUSH1 0x20 PUSH0 KECCAK256 SWAP1 PUSH0 SWAP2 JUMPDEST DUP2 DUP4 LT PUSH2 0x137A JUMPI POP POP SWAP1 PUSH1 0x20 PUSH2 0x1350 SWAP3 DUP3 ADD ADD PUSH0 PUSH2 0x1343 JUMP JUMPDEST PUSH1 0x20 SWAP2 SWAP4 POP DUP1 PUSH1 0x1 SWAP2 SLOAD DUP4 DUP6 DUP10 ADD ADD MSTORE ADD SWAP2 ADD SWAP1 SWAP2 DUP5 SWAP3 PUSH2 0x1361 JUMP JUMPDEST SWAP1 POP PUSH1 0x20 SWAP3 POP PUSH2 0x1350 SWAP5 SWAP2 POP PUSH1 0xFF NOT AND DUP3 DUP5 ADD MSTORE ISZERO ISZERO PUSH1 0x5 SHL DUP3 ADD ADD PUSH0 PUSH2 0x1343 JUMP JUMPDEST DUP1 MLOAD DUP1 DUP4 MSTORE PUSH1 0x20 SWAP3 SWAP2 DUP2 SWAP1 DUP5 ADD DUP5 DUP5 ADD MCOPY PUSH0 DUP3 DUP3 ADD DUP5 ADD MSTORE PUSH1 0x1F ADD PUSH1 0x1F NOT AND ADD ADD SWAP1 JUMP JUMPDEST PUSH1 0x3 SLOAD DUP2 LT ISZERO PUSH2 0x13F4 JUMPI PUSH1 0x3 PUSH0 MSTORE PUSH1 0x20 PUSH0 KECCAK256 ADD SWAP1 PUSH0 SWAP1 JUMP JUMPDEST PUSH4 0x4E487B71 PUSH1 0xE0 SHL PUSH0 MSTORE PUSH1 0x32 PUSH1 0x4 MSTORE PUSH1 0x24 PUSH0 REVERT JUMPDEST SWAP2 DUP2 PUSH1 0x1F DUP5 ADD SLT ISZERO PUSH2 0xAC9 JUMPI DUP3 CALLDATALOAD SWAP2 PUSH1 0x1 PUSH1 0x1 PUSH1 0x40 SHL SUB DUP4 GT PUSH2 0xAC9 JUMPI PUSH1 0x20 DUP4 DUP2 DUP7 ADD SWAP6 ADD ADD GT PUSH2 0xAC9 JUMPI JUMP JUMPDEST ISZERO PUSH2 0x143C JUMPI JUMP JUMPDEST PUSH1 0x40 MLOAD PUSH3 0x461BCD PUSH1 0xE5 SHL DUP2 MSTORE PUSH1 0x20 PUSH1 0x4 DUP3 ADD MSTORE PUSH1 0xD PUSH1 0x24 DUP3 ADD MSTORE PUSH13 0x2AB735B737BBB7103A37B5B2B7 PUSH1 0x99 SHL PUSH1 0x44 DUP3 ADD MSTORE PUSH1 0x64 SWAP1 REVERT JUMPDEST MLOAD SWAP1 PUSH1 0x1 PUSH1 0x1 PUSH1 0xA0 SHL SUB DUP3 AND DUP3 SUB PUSH2 0xAC9 JUMPI JUMP JUMPDEST SWAP1 DUP1 PUSH1 0x20 SWAP4 SWAP3 DUP2 DUP5 MSTORE DUP5 DUP5 ADD CALLDATACOPY PUSH0 DUP3 DUP3 ADD DUP5 ADD MSTORE PUSH1 0x1F ADD PUSH1 0x1F NOT AND ADD ADD SWAP1 JUMP JUMPDEST PUSH1 0x1 PUSH1 0x1 PUSH1 0x40 SHL SUB DUP2 GT PUSH2 0x12E1 JUMPI PUSH1 0x1F ADD PUSH1 0x1F NOT AND PUSH1 0x20 ADD SWAP1 JUMP JUMPDEST PUSH1 0x1F DUP3 GT PUSH2 0x14CD JUMPI POP POP POP JUMP JUMPDEST PUSH0 MSTORE PUSH1 0x20 PUSH0 KECCAK256 SWAP1 PUSH1 0x20 PUSH1 0x1F DUP5 ADD PUSH1 0x5 SHR DUP4 ADD SWAP4 LT PUSH2 0x1505 JUMPI JUMPDEST PUSH1 0x1F ADD PUSH1 0x5 SHR ADD SWAP1 JUMPDEST DUP2 DUP2 LT PUSH2 0x14FA JUMPI POP POP JUMP JUMPDEST PUSH0 DUP2 SSTORE PUSH1 0x1 ADD PUSH2 0x14EF JUMP JUMPDEST SWAP1 SWAP2 POP DUP2 SWAP1 PUSH2 0x14E6 JUMP JUMPDEST SWAP2 SWAP1 DUP3 ADD DUP1 SWAP3 GT PUSH2 0x151C JUMPI JUMP JUMPDEST PUSH4 0x4E487B71 PUSH1 0xE0 SHL PUSH0 MSTORE PUSH1 0x11 PUSH1 0x4 MSTORE PUSH1 0x24 PUSH0 REVERT JUMPDEST PUSH0 SLOAD PUSH1 0x1 PUSH1 0x1 PUSH1 0xA0 SHL SUB AND CALLER SUB PUSH2 0x1543 JUMPI JUMP JUMPDEST PUSH4 0x118CDAA7 PUSH1 0xE0 SHL PUSH0 MSTORE CALLER PUSH1 0x4 MSTORE PUSH1 0x24 PUSH0 REVERT JUMPDEST PUSH1 0x2 PUSH0 DUP1 MLOAD PUSH1 0x20 PUSH2 0x15CF DUP4 CODECOPY DUP2 MLOAD SWAP2 MSTORE SLOAD EQ PUSH2 0x157F JUMPI PUSH1 0x2 PUSH0 DUP1 MLOAD PUSH1 0x20 PUSH2 0x15CF DUP4 CODECOPY DUP2 MLOAD SWAP2 MSTORE SSTORE JUMP JUMPDEST PUSH4 0x3EE5AEB5 PUSH1 0xE0 SHL PUSH0 MSTORE PUSH1 0x4 PUSH0 REVERT INVALID KECCAK256 SGT JUMPI 0xC CALLVALUE GASPRICE 0xF8 0xAB EQ 0xA9 PUSH24 0x8150E381A0FDA34ED6368127A95FD5E7210CBEC5BF8BE007 SWAP13 MSTORE8 AND MSIZE EQ SGT PREVRANDAO 0xCD 0x1F 0xD0 LOG4 CALLCODE DUP5 NOT BLOBHASH PUSH32 0x9722A3DAAFE3B4186F6B6457E09B779B17422D0DF92223018B32B4D1FA46E071 PUSH19 0x3D6817E2486D003BECC55F00A2646970667358 0x22 SLT KECCAK256 RETURN PUSH5 0x178BC4B86B 0xF6 0xAD SAR 0xDF PUSH27 0xB5996E07ACFC1B56D28032967A7711BB38941EF164736F6C634300 ADDMOD BYTE STOP CALLER "},"methodIdentifiers":{"accumulatedPlatformFees()":"342f2df3","allTokens(uint256)":"634282af","allTokensLength()":"dbb80e42","createToken(string,string,string)":"94aed7d0","deployer()":"d5f39488","flushTokenPlatformEth(address)":"42086c79","forceCloseCurve(address,address)":"0668c0d0","getAllTokens()":"2a5c792a","getRecord(address)":"617fba04","owner()":"8da5cb5b","records(address)":"469e9067","renounceOwnership()":"715018a6","setDeployer(address)":"96214735","setTokenExcluded(address,address,bool)":"71af3101","setTokenKeeper(address,address)":"ff6151c7","setTokenSwapThreshold(address,uint256)":"69496d96","totalPlatformFeesWithdrawn()":"1e0db440","transferOwnership(address)":"f2fde38b","uniswapRouter()":"735de9f7","updateMetadataURI(address,string)":"fabb2c17","withdrawPlatformFees(address)":"ec3889b5"}}}}}