{"contracts/v2/AethpadBondingCurveV2.sol":{"AethpadBondingCurveV2":{"abi":[{"inputs":[{"internalType":"address","name":"_factory","type":"address"},{"internalType":"address","name":"_uniswapRouter","type":"address"}],"stateMutability":"nonpayable","type":"constructor"},{"inputs":[],"name":"ReentrancyGuardReentrantCall","type":"error"},{"anonymous":false,"inputs":[{"indexed":true,"internalType":"address","name":"buyer","type":"address"},{"indexed":false,"internalType":"uint256","name":"ethIn","type":"uint256"},{"indexed":false,"internalType":"uint256","name":"ethForCurve","type":"uint256"},{"indexed":false,"internalType":"uint256","name":"tokensOut","type":"uint256"},{"indexed":false,"internalType":"uint256","name":"progressBps","type":"uint256"}],"name":"Buy","type":"event"},{"anonymous":false,"inputs":[{"indexed":true,"internalType":"address","name":"withdrawTo","type":"address"},{"indexed":false,"internalType":"uint256","name":"ethAmount","type":"uint256"}],"name":"ForceClosed","type":"event"},{"anonymous":false,"inputs":[{"indexed":false,"internalType":"uint256","name":"ethToLp","type":"uint256"},{"indexed":false,"internalType":"uint256","name":"tokensToLp","type":"uint256"},{"indexed":false,"internalType":"address","name":"pair","type":"address"}],"name":"Graduated","type":"event"},{"anonymous":false,"inputs":[{"indexed":true,"internalType":"address","name":"seller","type":"address"},{"indexed":false,"internalType":"uint256","name":"tokensIn","type":"uint256"},{"indexed":false,"internalType":"uint256","name":"ethOutGross","type":"uint256"},{"indexed":false,"internalType":"uint256","name":"ethToUser","type":"uint256"},{"indexed":false,"internalType":"uint256","name":"progressBps","type":"uint256"}],"name":"Sell","type":"event"},{"inputs":[],"name":"BURN_BPS","outputs":[{"internalType":"uint256","name":"","type":"uint256"}],"stateMutability":"view","type":"function"},{"inputs":[],"name":"CURVE_TOKEN_SUPPLY","outputs":[{"internalType":"uint256","name":"","type":"uint256"}],"stateMutability":"view","type":"function"},{"inputs":[],"name":"GRAD_TOKEN_SUPPLY","outputs":[{"internalType":"uint256","name":"","type":"uint256"}],"stateMutability":"view","type":"function"},{"inputs":[],"name":"PLATFORM_BPS","outputs":[{"internalType":"uint256","name":"","type":"uint256"}],"stateMutability":"view","type":"function"},{"inputs":[],"name":"REWARD_BPS","outputs":[{"internalType":"uint256","name":"","type":"uint256"}],"stateMutability":"view","type":"function"},{"inputs":[],"name":"SNIPE_BPS_1HR","outputs":[{"internalType":"uint256","name":"","type":"uint256"}],"stateMutability":"view","type":"function"},{"inputs":[],"name":"SNIPE_BPS_24HR","outputs":[{"internalType":"uint256","name":"","type":"uint256"}],"stateMutability":"view","type":"function"},{"inputs":[],"name":"SNIPE_BPS_5MIN","outputs":[{"internalType":"uint256","name":"","type":"uint256"}],"stateMutability":"view","type":"function"},{"inputs":[],"name":"TARGET_REAL_ETH","outputs":[{"internalType":"uint256","name":"","type":"uint256"}],"stateMutability":"view","type":"function"},{"inputs":[],"name":"VIRTUAL_ETH","outputs":[{"internalType":"uint256","name":"","type":"uint256"}],"stateMutability":"view","type":"function"},{"inputs":[{"internalType":"uint256","name":"minTokensOut","type":"uint256"}],"name":"buy","outputs":[{"internalType":"uint256","name":"tokensToUser","type":"uint256"}],"stateMutability":"payable","type":"function"},{"inputs":[],"name":"currentPrice","outputs":[{"internalType":"uint256","name":"","type":"uint256"}],"stateMutability":"view","type":"function"},{"inputs":[],"name":"factory","outputs":[{"internalType":"address","name":"","type":"address"}],"stateMutability":"view","type":"function"},{"inputs":[{"internalType":"address","name":"to","type":"address"}],"name":"forceCloseAndWithdraw","outputs":[],"stateMutability":"nonpayable","type":"function"},{"inputs":[],"name":"forceClosed","outputs":[{"internalType":"bool","name":"","type":"bool"}],"stateMutability":"view","type":"function"},{"inputs":[{"internalType":"uint256","name":"ethAmount","type":"uint256"}],"name":"getBuyAmount","outputs":[{"internalType":"uint256","name":"tokensToUser","type":"uint256"}],"stateMutability":"view","type":"function"},{"inputs":[{"internalType":"uint256","name":"tokenAmount","type":"uint256"},{"internalType":"address","name":"seller","type":"address"}],"name":"getSellAmount","outputs":[{"internalType":"uint256","name":"ethToUser","type":"uint256"}],"stateMutability":"view","type":"function"},{"inputs":[],"name":"graduated","outputs":[{"internalType":"bool","name":"","type":"bool"}],"stateMutability":"view","type":"function"},{"inputs":[{"internalType":"address","name":"_token","type":"address"}],"name":"initToken","outputs":[],"stateMutability":"nonpayable","type":"function"},{"inputs":[{"internalType":"address","name":"","type":"address"}],"name":"lastBuyAt","outputs":[{"internalType":"uint64","name":"","type":"uint64"}],"stateMutability":"view","type":"function"},{"inputs":[],"name":"progressBps","outputs":[{"internalType":"uint256","name":"","type":"uint256"}],"stateMutability":"view","type":"function"},{"inputs":[],"name":"realEthRaised","outputs":[{"internalType":"uint256","name":"","type":"uint256"}],"stateMutability":"view","type":"function"},{"inputs":[{"internalType":"uint256","name":"tokenAmount","type":"uint256"},{"internalType":"uint256","name":"minEthOut","type":"uint256"}],"name":"sell","outputs":[{"internalType":"uint256","name":"ethToUser","type":"uint256"}],"stateMutability":"nonpayable","type":"function"},{"inputs":[{"internalType":"address","name":"user","type":"address"}],"name":"stampBuyAt","outputs":[],"stateMutability":"nonpayable","type":"function"},{"inputs":[],"name":"token","outputs":[{"internalType":"contract IAethpadTokenV2","name":"","type":"address"}],"stateMutability":"view","type":"function"},{"inputs":[],"name":"trustedInitializer","outputs":[{"internalType":"address","name":"","type":"address"}],"stateMutability":"view","type":"function"},{"inputs":[],"name":"uniswapFactory","outputs":[{"internalType":"contract IUniswapV2Factory","name":"","type":"address"}],"stateMutability":"view","type":"function"},{"inputs":[],"name":"uniswapRouter","outputs":[{"internalType":"contract IUniswapV2Router02","name":"","type":"address"}],"stateMutability":"view","type":"function"},{"inputs":[],"name":"virtualTokenReserve","outputs":[{"internalType":"uint256","name":"","type":"uint256"}],"stateMutability":"view","type":"function"},{"stateMutability":"payable","type":"receive"}],"evm":{"bytecode":{"linkReferences":{},"object":"610100806040523461014d57604081611c6280380380916100208285610164565b83398101031261014d576020816100438261003c60049561019b565b920161019b565b60017f9b779b17422d0df92223018b32b4d1fa46e071723d6817e2486d003becc55f00556080919091523360a0526001600160a01b031660c081905260405163c45a015560e01b815292839182905afa908115610159575f9161011b575b506001600160a01b031660e0526b0295be96e640669720000000600155604051611ab290816101b0823960805181818161023601528181610baa0152818161104a0152611346015260a0518181816101dd01526110f0015260c0518181816104fd0152611217015260e05181818161059501526111d20152f35b90506020813d602011610151575b8161013660209383610164565b8101031261014d576101479061019b565b5f6100a1565b5f80fd5b3d9150610129565b6040513d5f823e3d90fd5b601f909101601f19168101906001600160401b0382119082101761018757604052565b634e487b7160e01b5f52604160045260245ffd5b51906001600160a01b038216820361014d5756fe608080604052600436101561001c575b50361561001a575f80fd5b005b5f905f3560e01c908163130b31201461158c575080631fb87f391461156e578063343ee3b71461155157806347b12bfc1461153657806350b894181461131e57806355ee54a1146112de5780636700c0c3146112bb5780636c1eba15146112a057806371c1b8331461126c57806372d6e43a14611246578063735de9f7146112015780638bdb2afa146111bc57806394562afb146111995780639d1b464a1461111f5780639e85f9aa146110da5780639f870a75146110b3578063a37a9fc014610fec578063bacf2a7b14611096578063bb103cbc14611079578063c45a015514611034578063c463ecd714611017578063c8f3bfd314610ff1578063ce91e16414610fec578063d79875eb14610c08578063d8c76c1714610b8a578063d96a094a14610298578063df4d17dc146101af578063e7c2b7721461018c5763fc0c546a0361000f5734610189578060031936011261018957546040516001600160a01b039091168152602090f35b80fd5b5034610189578060031936011261018957602060ff600354166040519015158152f35b5034610189576020366003190112610189576101c96115a6565b8154906001600160a01b03821661026457337f00000000000000000000000000000000000000000000000000000000000000006001600160a01b0316148015610232575b610216906116d5565b6001600160a01b03166001600160a01b03199190911617815580f35b50337f00000000000000000000000000000000000000000000000000000000000000006001600160a01b03161461020d565b60405162461bcd60e51b815260206004820152600c60248201526b105b1c9958591e481a5b9a5d60a21b6044820152606490fd5b506020366003190112610189576102ad611952565b6102c560035460ff8116159081610b7b575b50611859565b3415610b4d5760c8340234810460c803610b395761271090046096340234810460960361085f576127109004610304816102ff84346115d7565b6115d7565b9060025490816729a2241af62c00000193846729a2241af62c0000116108375761034f610348600154966103428761033c8a846115f8565b92611629565b9061160b565b80966115d7565b92831561035c81156118ac565b60968502908582046096141715610b255785889594939261038561271061039c940480976115d7565b986103946004358b10156118e4565b600155611629565b60025580610acf575b5080610a7d575b5080610a2b575b5050825460405163a9059cbb60e01b81529060209082906001600160a01b03168187816103e4893360048401611937565b03925af1908115610801578491610a0c575b50156109d35733835260046020526040832080546001600160401b031916426001600160401b03161790557f064fb1933e186be0b289a87e98518dc18cc9856ecbc9f1353d1a138ddf733ec561045d61044d61198a565b604051918291863396348561191b565b0390a2674563918244f40000600254101561048f575b60209060015f80516020611a5d83398151915255604051908152f35b6003805460ff1916600117905581546040516370a0823160e01b815230600482015247936001600160a01b0392909216916aa56fa5b99019a5c800000091602081602481875afa9081156107605782916109a1575b50828110610999575b5060405163095ea7b360e01b81527f00000000000000000000000000000000000000000000000000000000000000006001600160a01b031693602090829081858161053c898b60048401611937565b03925af190811561076057829161096a575b5015610934576040516315ab88c960e31b815292602084600481845afa938415610760578294610913575b50815460405163e6a4390560e01b815294906001600160a01b037f000000000000000000000000000000000000000000000000000000000000000081169116602087806105ca868560048401611a42565b0381855afa9687156109085785976108e7575b506001600160a01b03871615610873575b505050606383028381046063148415171561085f5760638702908782046063148815171561084b5783546001600160a01b0316914261012c8101929083106108375790606480926040519563f305d71960e01b8752600487015288602487015204604485015204606483015261dead608483015260a482015260608160c4818a865af180156107bc5761080c575b5081546040516370a0823160e01b81523060048201526001600160a01b0390911690602081602481855afa9081156108015784916107cb575b508061076f575b505081546001600160a01b031690813b1561076b576106f58392839260405194858094819363c7b1280160e01b83528b60048401611a42565b03925af180156107605761074b575b50506020937fe8284482a896de2fb31532f8a0c0f64867b8d0586ff49dbd54ddf4cddb2c0365926060926040519283528683015260018060a01b03166040820152a1610473565b610756828092611710565b6101895780610704565b6040513d84823e3d90fd5b8280fd5b813b156107c75783916024839260405194859384926316c2401160e21b845260048401525af180156107bc57908391156106bc57816107ad91611710565b6107b857815f6106bc565b5080fd5b6040513d85823e3d90fd5b8380fd5b90506020813d6020116107f9575b816107e660209383611710565b810103126107f557515f6106b5565b5f80fd5b3d91506107d9565b6040513d86823e3d90fd5b606090813d8311610830575b6108228183611710565b810103126107b8575f61067c565b503d610818565b634e487b7160e01b86526011600452602486fd5b634e487b7160e01b84526011600452602484fd5b634e487b7160e01b83526011600452602483fd5b6040516364e329cb60e11b815293965060209284929183918791839161089c9160048401611a42565b03925af19081156107605782916108b8575b50925f80806105ee565b6108da915060203d6020116108e0575b6108d28183611710565b810190611a23565b5f6108ae565b503d6108c8565b61090191975060203d6020116108e0576108d28183611710565b955f6105dd565b6040513d87823e3d90fd5b61092d91945060203d6020116108e0576108d28183611710565b925f610579565b60405162461bcd60e51b815260206004820152600e60248201526d105c1c1c9bdd994819985a5b195960921b6044820152606490fd5b61098c915060203d602011610992575b6109848183611710565b810190611894565b5f61054e565b503d61097a565b91505f6104ed565b90506020813d6020116109cb575b816109bc60209383611710565b810103126107f557515f6104e4565b3d91506109af565b60405162461bcd60e51b8152602060048201526011602482015270151bdad95b881e19995c8819985a5b1959607a1b6044820152606490fd5b610a25915060203d602011610992576109848183611710565b5f6103f6565b81546001600160a01b031690813b1561076b5782916024839260405194859384926316c2401160e21b845260048401525af1801561076057156103b35781610a7291611710565b61076b57825f6103b3565b82546001600160a01b0316803b156107c75783906004604051809481936316f1a0a760e31b83525af19081156107bc578391610aba575b506103ac565b81610ac491611710565b6107b857815f610ab4565b83546001600160a01b0316803b15610b2157849060046040518094819363523aa0dd60e11b83525af1908115610801578491610b0c575b506103a5565b81610b1691611710565b61076b57825f610b06565b8480fd5b634e487b7160e01b88526011600452602488fd5b634e487b7160e01b82526011600452602482fd5b60405162461bcd60e51b815260206004820152600660248201526509cde408aa8960d31b6044820152606490fd5b60ff915060081c16155f6102bf565b503461018957602036600319011261018957610ba46115a6565b610bd8337f00000000000000000000000000000000000000000000000000000000000000006001600160a01b0316146116d5565b6001600160a01b0316815260046020526040812080546001600160401b031916426001600160401b031617905580f35b503461018957604036600319011261018957600435610c25611952565b610c3c60035460ff8116159081610b7b5750611859565b8015610fbb576096810281810460960361085f57612710900490610c6082826115d7565b9183602060018060a01b038254166064604051809481936323b872dd60e01b83523360048401523060248401528860448401525af1908115610908578591610f9c575b5015610f6257808491610f10575b505060025492836729a2241af62c000001806729a2241af62c000011610b3957610cfc90610cf6610cef60015496610ce988856115f8565b97611629565b809661160b565b906115d7565b93808511610ecf5784610d1e91811595610d1687156118ac565b6001556115d7565b600255610d2a336119c0565b60c8018060c811610b3957610d4261271091866115f8565b049260968502908582046096141715610b39576127109004610d68816102ff86886115d7565b93610d776024358610156118e4565b80610e7d575b5080610e2b575b5080808085335af1610d94611747565b5015610df4577f483f8aec0fd892ac72ad1ba8d0e9c9e73db59c12d263fd71de480b5b3deeae3c82602094610dd8610dca61198a565b60405193849333978561191b565b0390a260015f80516020611a5d83398151915255604051908152f35b60405162461bcd60e51b815260206004820152600f60248201526e115512081cd95b990819985a5b1959608a1b6044820152606490fd5b81546001600160a01b0316803b1561076b5782906004604051809481936316f1a0a760e31b83525af1801561076057908291610e68575b50610d84565b81610e7291611710565b61018957805f610e62565b82546001600160a01b0316803b156107c757839060046040518094819363523aa0dd60e11b83525af180156107bc57908391610eba575b50610d7d565b81610ec491611710565b6107b857815f610eb4565b60405162461bcd60e51b8152602060048201526019602482015278496e73756666696369656e742045544820696e20637572766560381b6044820152606490fd5b81546001600160a01b031690813b1561076b5782916024839260405194859384926316c2401160e21b845260048401525af180156107605715610cb15781610f5791611710565b61076b57825f610cb1565b60405162461bcd60e51b8152602060048201526012602482015271151c985b9cd9995c881a5b8819985a5b195960721b6044820152606490fd5b610fb5915060203d602011610992576109848183611710565b5f610ca3565b60405162461bcd60e51b81526020600482015260096024820152684e6f20746f6b656e7360b81b6044820152606490fd5b6115bc565b503461018957806003193601126101895760206040516aa56fa5b99019a5c80000008152f35b503461018957806003193601126101895760206040516103e88152f35b50346101895780600319360112610189576040517f00000000000000000000000000000000000000000000000000000000000000006001600160a01b03168152602090f35b503461018957806003193601126101895760206040516107d08152f35b503461018957806003193601126101895760206040516101f48152f35b50346101895780600319360112610189576040516714adf4b7320334b9601d1b8152602090f35b50346101895780600319360112610189576040517f00000000000000000000000000000000000000000000000000000000000000006001600160a01b03168152602090f35b50346101895780600319360112610189576002546729a2241af62c00000190816729a2241af62c00001161118557670de0b6b3a7640000820291808304670de0b6b3a7640000149015171561118557602061117d836001549061160b565b604051908152f35b634e487b7160e01b81526011600452602490fd5b50346101895780600319360112610189576020604051674563918244f400008152f35b50346101895780600319360112610189576040517f00000000000000000000000000000000000000000000000000000000000000006001600160a01b03168152602090f35b50346101895780600319360112610189576040517f00000000000000000000000000000000000000000000000000000000000000006001600160a01b03168152602090f35b5034610189578060031936011261018957602060ff60035460081c166040519015158152f35b503461018957604036600319011261018957602435906001600160a01b038216820361018957602061117d83600435611785565b5034610189578060031936011261018957602061117d61198a565b503461018957806003193601126101895760206040516729a2241af62c00008152f35b5034610189576020366003190112610189576020906001600160a01b036113036115a6565b168152600482526040600180821b0391205416604051908152f35b50346107f55760203660031901126107f5576113386115a6565b611340611952565b611374337f00000000000000000000000000000000000000000000000000000000000000006001600160a01b0316146116d5565b60035460ff81166114fd5761ff001916610100176003555f546040516370a0823160e01b81523060048201526001600160a01b039190911690602081602481855afa9081156114c0575f916114cb575b5080611474575b505047908161141f575b6040519182526001600160a01b0316907f16bfc55cfda3eb65b74e8fe52a8804e222bdb31aef30599b41adeb45893f66a990602090a260015f80516020611a5d8339815191525580f35b82808080856001600160a01b0386165af1611438611747565b506113d55760405162461bcd60e51b815260206004820152600f60248201526e15da5d1a191c985dc819985a5b1959608a1b6044820152606490fd5b813b156107f5575f916024839260405194859384926316c2401160e21b845260048401525af180156114c0576114ab575b806113cb565b6114b89192505f90611710565b5f905f6114a5565b6040513d5f823e3d90fd5b90506020813d6020116114f5575b816114e660209383611710565b810103126107f557515f6113c4565b3d91506114d9565b60405162461bcd60e51b8152602060048201526011602482015270105b1c9958591e4819dc98591d585d1959607a1b6044820152606490fd5b346107f5575f3660031901126107f557602060405160c88152f35b346107f5575f3660031901126107f5576020600154604051908152f35b346107f55760203660031901126107f557602061117d600435611636565b346107f5575f3660031901126107f5576020906002548152f35b600435906001600160a01b03821682036107f557565b346107f5575f3660031901126107f557602060405160968152f35b919082039182116115e457565b634e487b7160e01b5f52601160045260245ffd5b818102929181159184041417156115e457565b8115611615570490565b634e487b7160e01b5f52601260045260245ffd5b919082018092116115e457565b60035460ff81169081156116c7575b506116c2576125b28102908082046125b214901517156115e4576002546729a2241af62c000001806729a2241af62c0000116115e457610cf661169e926103426001549361271061169686836115f8565b930490611629565b6096810290808204609614811517156115e4576127106116bf9204906115d7565b90565b505f90565b60ff915060081c165f611645565b156116dc57565b60405162461bcd60e51b815260206004820152600c60248201526b4f6e6c7920666163746f727960a01b6044820152606490fd5b601f909101601f19168101906001600160401b0382119082101761173357604052565b634e487b7160e01b5f52604160045260245ffd5b3d15611780573d906001600160401b0382116117335760405191611775601f8201601f191660200184611710565b82523d5f602084013e565b606090565b60035460ff811690811561184b575b5061183b576096810290808204609614811517156115e4576127106117ba9204906115d7565b9060025491826729a2241af62c000001806729a2241af62c0000116115e457610cf66117f1926103426001549161033c83866115f8565b91808311611841575b50611804906119c0565b8060c801908160c8116115e45761015e018091116115e45761182961271091836115f8565b048082111561183b576116bf916115d7565b50505f90565b91506118046117fa565b60ff915060081c165f611794565b1561186057565b60405162461bcd60e51b815260206004820152600c60248201526b10dd5c9d994818db1bdcd95960a21b6044820152606490fd5b908160209103126107f5575180151581036107f55790565b156118b357565b60405162461bcd60e51b8152602060048201526009602482015268151bdbc81cdb585b1b60ba1b6044820152606490fd5b156118eb57565b60405162461bcd60e51b8152602060048201526008602482015267536c69707061676560c01b6044820152606490fd5b9094939260609260808301968352602083015260408201520152565b6001600160a01b039091168152602081019190915260400190565b60025f80516020611a5d833981519152541461197b5760025f80516020611a5d83398151915255565b633ee5aeb560e01b5f5260045ffd5b60ff600354166119ba5760025461271081029080820461271014901517156115e457674563918244f40000900490565b61271090565b6001600160a01b03165f908152600460205260409020546001600160401b031680156116c2576119f090426115d7565b61012c8110611a1c57610e108110611a15576201518011611a0f575f90565b6101f490565b506103e890565b506107d090565b908160209103126107f557516001600160a01b03811681036107f55790565b6001600160a01b039182168152911660208201526040019056fe9b779b17422d0df92223018b32b4d1fa46e071723d6817e2486d003becc55f00a264697066735822122076113a1c40164b6a8809afc7e12b576d3661959c4a5d4c79f998053c5fc9ffe364736f6c634300081a0033","opcodes":"PUSH2 0x100 DUP1 PUSH1 0x40 MSTORE CALLVALUE PUSH2 0x14D JUMPI PUSH1 0x40 DUP2 PUSH2 0x1C62 DUP1 CODESIZE SUB DUP1 SWAP2 PUSH2 0x20 DUP3 DUP6 PUSH2 0x164 JUMP JUMPDEST DUP4 CODECOPY DUP2 ADD SUB SLT PUSH2 0x14D JUMPI PUSH1 0x20 DUP2 PUSH2 0x43 DUP3 PUSH2 0x3C PUSH1 0x4 SWAP6 PUSH2 0x19B JUMP JUMPDEST SWAP3 ADD PUSH2 0x19B JUMP JUMPDEST PUSH1 0x1 PUSH32 0x9B779B17422D0DF92223018B32B4D1FA46E071723D6817E2486D003BECC55F00 SSTORE PUSH1 0x80 SWAP2 SWAP1 SWAP2 MSTORE CALLER PUSH1 0xA0 MSTORE PUSH1 0x1 PUSH1 0x1 PUSH1 0xA0 SHL SUB AND PUSH1 0xC0 DUP2 SWAP1 MSTORE PUSH1 0x40 MLOAD PUSH4 0xC45A0155 PUSH1 0xE0 SHL DUP2 MSTORE SWAP3 DUP4 SWAP2 DUP3 SWAP1 GAS STATICCALL SWAP1 DUP2 ISZERO PUSH2 0x159 JUMPI PUSH0 SWAP2 PUSH2 0x11B JUMPI JUMPDEST POP PUSH1 0x1 PUSH1 0x1 PUSH1 0xA0 SHL SUB AND PUSH1 0xE0 MSTORE PUSH12 0x295BE96E640669720000000 PUSH1 0x1 SSTORE PUSH1 0x40 MLOAD PUSH2 0x1AB2 SWAP1 DUP2 PUSH2 0x1B0 DUP3 CODECOPY PUSH1 0x80 MLOAD DUP2 DUP2 DUP2 PUSH2 0x236 ADD MSTORE DUP2 DUP2 PUSH2 0xBAA ADD MSTORE DUP2 DUP2 PUSH2 0x104A ADD MSTORE PUSH2 0x1346 ADD MSTORE PUSH1 0xA0 MLOAD DUP2 DUP2 DUP2 PUSH2 0x1DD ADD MSTORE PUSH2 0x10F0 ADD MSTORE PUSH1 0xC0 MLOAD DUP2 DUP2 DUP2 PUSH2 0x4FD ADD MSTORE PUSH2 0x1217 ADD MSTORE PUSH1 0xE0 MLOAD DUP2 DUP2 DUP2 PUSH2 0x595 ADD MSTORE PUSH2 0x11D2 ADD MSTORE RETURN JUMPDEST SWAP1 POP PUSH1 0x20 DUP2 RETURNDATASIZE PUSH1 0x20 GT PUSH2 0x151 JUMPI JUMPDEST DUP2 PUSH2 0x136 PUSH1 0x20 SWAP4 DUP4 PUSH2 0x164 JUMP JUMPDEST DUP2 ADD SUB SLT PUSH2 0x14D JUMPI PUSH2 0x147 SWAP1 PUSH2 0x19B JUMP JUMPDEST PUSH0 PUSH2 0xA1 JUMP JUMPDEST PUSH0 DUP1 REVERT JUMPDEST RETURNDATASIZE SWAP2 POP PUSH2 0x129 JUMP JUMPDEST PUSH1 0x40 MLOAD RETURNDATASIZE PUSH0 DUP3 RETURNDATACOPY RETURNDATASIZE SWAP1 REVERT JUMPDEST PUSH1 0x1F SWAP1 SWAP2 ADD PUSH1 0x1F NOT AND DUP2 ADD SWAP1 PUSH1 0x1 PUSH1 0x1 PUSH1 0x40 SHL SUB DUP3 GT SWAP1 DUP3 LT OR PUSH2 0x187 JUMPI PUSH1 0x40 MSTORE JUMP JUMPDEST PUSH4 0x4E487B71 PUSH1 0xE0 SHL PUSH0 MSTORE PUSH1 0x41 PUSH1 0x4 MSTORE PUSH1 0x24 PUSH0 REVERT JUMPDEST MLOAD SWAP1 PUSH1 0x1 PUSH1 0x1 PUSH1 0xA0 SHL SUB DUP3 AND DUP3 SUB PUSH2 0x14D JUMPI JUMP INVALID PUSH1 0x80 DUP1 PUSH1 0x40 MSTORE PUSH1 0x4 CALLDATASIZE LT ISZERO PUSH2 0x1C JUMPI JUMPDEST POP CALLDATASIZE ISZERO PUSH2 0x1A JUMPI PUSH0 DUP1 REVERT JUMPDEST STOP JUMPDEST PUSH0 SWAP1 PUSH0 CALLDATALOAD PUSH1 0xE0 SHR SWAP1 DUP2 PUSH4 0x130B3120 EQ PUSH2 0x158C JUMPI POP DUP1 PUSH4 0x1FB87F39 EQ PUSH2 0x156E JUMPI DUP1 PUSH4 0x343EE3B7 EQ PUSH2 0x1551 JUMPI DUP1 PUSH4 0x47B12BFC EQ PUSH2 0x1536 JUMPI DUP1 PUSH4 0x50B89418 EQ PUSH2 0x131E JUMPI DUP1 PUSH4 0x55EE54A1 EQ PUSH2 0x12DE JUMPI DUP1 PUSH4 0x6700C0C3 EQ PUSH2 0x12BB JUMPI DUP1 PUSH4 0x6C1EBA15 EQ PUSH2 0x12A0 JUMPI DUP1 PUSH4 0x71C1B833 EQ PUSH2 0x126C JUMPI DUP1 PUSH4 0x72D6E43A EQ PUSH2 0x1246 JUMPI DUP1 PUSH4 0x735DE9F7 EQ PUSH2 0x1201 JUMPI DUP1 PUSH4 0x8BDB2AFA EQ PUSH2 0x11BC JUMPI DUP1 PUSH4 0x94562AFB EQ PUSH2 0x1199 JUMPI DUP1 PUSH4 0x9D1B464A EQ PUSH2 0x111F JUMPI DUP1 PUSH4 0x9E85F9AA EQ PUSH2 0x10DA JUMPI DUP1 PUSH4 0x9F870A75 EQ PUSH2 0x10B3 JUMPI DUP1 PUSH4 0xA37A9FC0 EQ PUSH2 0xFEC JUMPI DUP1 PUSH4 0xBACF2A7B EQ PUSH2 0x1096 JUMPI DUP1 PUSH4 0xBB103CBC EQ PUSH2 0x1079 JUMPI DUP1 PUSH4 0xC45A0155 EQ PUSH2 0x1034 JUMPI DUP1 PUSH4 0xC463ECD7 EQ PUSH2 0x1017 JUMPI DUP1 PUSH4 0xC8F3BFD3 EQ PUSH2 0xFF1 JUMPI DUP1 PUSH4 0xCE91E164 EQ PUSH2 0xFEC JUMPI DUP1 PUSH4 0xD79875EB EQ PUSH2 0xC08 JUMPI DUP1 PUSH4 0xD8C76C17 EQ PUSH2 0xB8A JUMPI DUP1 PUSH4 0xD96A094A EQ PUSH2 0x298 JUMPI DUP1 PUSH4 0xDF4D17DC EQ PUSH2 0x1AF JUMPI DUP1 PUSH4 0xE7C2B772 EQ PUSH2 0x18C JUMPI PUSH4 0xFC0C546A SUB PUSH2 0xF JUMPI CALLVALUE PUSH2 0x189 JUMPI DUP1 PUSH1 0x3 NOT CALLDATASIZE ADD SLT PUSH2 0x189 JUMPI SLOAD PUSH1 0x40 MLOAD PUSH1 0x1 PUSH1 0x1 PUSH1 0xA0 SHL SUB SWAP1 SWAP2 AND DUP2 MSTORE PUSH1 0x20 SWAP1 RETURN JUMPDEST DUP1 REVERT JUMPDEST POP CALLVALUE PUSH2 0x189 JUMPI DUP1 PUSH1 0x3 NOT CALLDATASIZE ADD SLT PUSH2 0x189 JUMPI PUSH1 0x20 PUSH1 0xFF PUSH1 0x3 SLOAD AND PUSH1 0x40 MLOAD SWAP1 ISZERO ISZERO DUP2 MSTORE RETURN JUMPDEST POP CALLVALUE PUSH2 0x189 JUMPI PUSH1 0x20 CALLDATASIZE PUSH1 0x3 NOT ADD SLT PUSH2 0x189 JUMPI PUSH2 0x1C9 PUSH2 0x15A6 JUMP JUMPDEST DUP2 SLOAD SWAP1 PUSH1 0x1 PUSH1 0x1 PUSH1 0xA0 SHL SUB DUP3 AND PUSH2 0x264 JUMPI CALLER PUSH32 0x0 PUSH1 0x1 PUSH1 0x1 PUSH1 0xA0 SHL SUB AND EQ DUP1 ISZERO PUSH2 0x232 JUMPI JUMPDEST PUSH2 0x216 SWAP1 PUSH2 0x16D5 JUMP JUMPDEST PUSH1 0x1 PUSH1 0x1 PUSH1 0xA0 SHL SUB AND PUSH1 0x1 PUSH1 0x1 PUSH1 0xA0 SHL SUB NOT SWAP2 SWAP1 SWAP2 AND OR DUP2 SSTORE DUP1 RETURN JUMPDEST POP CALLER PUSH32 0x0 PUSH1 0x1 PUSH1 0x1 PUSH1 0xA0 SHL SUB AND EQ PUSH2 0x20D JUMP JUMPDEST PUSH1 0x40 MLOAD PUSH3 0x461BCD PUSH1 0xE5 SHL DUP2 MSTORE PUSH1 0x20 PUSH1 0x4 DUP3 ADD MSTORE PUSH1 0xC PUSH1 0x24 DUP3 ADD MSTORE PUSH12 0x105B1C9958591E481A5B9A5D PUSH1 0xA2 SHL PUSH1 0x44 DUP3 ADD MSTORE PUSH1 0x64 SWAP1 REVERT JUMPDEST POP PUSH1 0x20 CALLDATASIZE PUSH1 0x3 NOT ADD SLT PUSH2 0x189 JUMPI PUSH2 0x2AD PUSH2 0x1952 JUMP JUMPDEST PUSH2 0x2C5 PUSH1 0x3 SLOAD PUSH1 0xFF DUP2 AND ISZERO SWAP1 DUP2 PUSH2 0xB7B JUMPI JUMPDEST POP PUSH2 0x1859 JUMP JUMPDEST CALLVALUE ISZERO PUSH2 0xB4D JUMPI PUSH1 0xC8 CALLVALUE MUL CALLVALUE DUP2 DIV PUSH1 0xC8 SUB PUSH2 0xB39 JUMPI PUSH2 0x2710 SWAP1 DIV PUSH1 0x96 CALLVALUE MUL CALLVALUE DUP2 DIV PUSH1 0x96 SUB PUSH2 0x85F JUMPI PUSH2 0x2710 SWAP1 DIV PUSH2 0x304 DUP2 PUSH2 0x2FF DUP5 CALLVALUE PUSH2 0x15D7 JUMP JUMPDEST PUSH2 0x15D7 JUMP JUMPDEST SWAP1 PUSH1 0x2 SLOAD SWAP1 DUP2 PUSH8 0x29A2241AF62C0000 ADD SWAP4 DUP5 PUSH8 0x29A2241AF62C0000 GT PUSH2 0x837 JUMPI PUSH2 0x34F PUSH2 0x348 PUSH1 0x1 SLOAD SWAP7 PUSH2 0x342 DUP8 PUSH2 0x33C DUP11 DUP5 PUSH2 0x15F8 JUMP JUMPDEST SWAP3 PUSH2 0x1629 JUMP JUMPDEST SWAP1 PUSH2 0x160B JUMP JUMPDEST DUP1 SWAP7 PUSH2 0x15D7 JUMP JUMPDEST SWAP3 DUP4 ISZERO PUSH2 0x35C DUP2 ISZERO PUSH2 0x18AC JUMP JUMPDEST PUSH1 0x96 DUP6 MUL SWAP1 DUP6 DUP3 DIV PUSH1 0x96 EQ OR ISZERO PUSH2 0xB25 JUMPI DUP6 DUP9 SWAP6 SWAP5 SWAP4 SWAP3 PUSH2 0x385 PUSH2 0x2710 PUSH2 0x39C SWAP5 DIV DUP1 SWAP8 PUSH2 0x15D7 JUMP JUMPDEST SWAP9 PUSH2 0x394 PUSH1 0x4 CALLDATALOAD DUP12 LT ISZERO PUSH2 0x18E4 JUMP JUMPDEST PUSH1 0x1 SSTORE PUSH2 0x1629 JUMP JUMPDEST PUSH1 0x2 SSTORE DUP1 PUSH2 0xACF JUMPI JUMPDEST POP DUP1 PUSH2 0xA7D JUMPI JUMPDEST POP DUP1 PUSH2 0xA2B JUMPI JUMPDEST POP POP DUP3 SLOAD PUSH1 0x40 MLOAD PUSH4 0xA9059CBB PUSH1 0xE0 SHL DUP2 MSTORE SWAP1 PUSH1 0x20 SWAP1 DUP3 SWAP1 PUSH1 0x1 PUSH1 0x1 PUSH1 0xA0 SHL SUB AND DUP2 DUP8 DUP2 PUSH2 0x3E4 DUP10 CALLER PUSH1 0x4 DUP5 ADD PUSH2 0x1937 JUMP JUMPDEST SUB SWAP3 GAS CALL SWAP1 DUP2 ISZERO PUSH2 0x801 JUMPI DUP5 SWAP2 PUSH2 0xA0C JUMPI JUMPDEST POP ISZERO PUSH2 0x9D3 JUMPI CALLER DUP4 MSTORE PUSH1 0x4 PUSH1 0x20 MSTORE PUSH1 0x40 DUP4 KECCAK256 DUP1 SLOAD PUSH1 0x1 PUSH1 0x1 PUSH1 0x40 SHL SUB NOT AND TIMESTAMP PUSH1 0x1 PUSH1 0x1 PUSH1 0x40 SHL SUB AND OR SWAP1 SSTORE PUSH32 0x64FB1933E186BE0B289A87E98518DC18CC9856ECBC9F1353D1A138DDF733EC5 PUSH2 0x45D PUSH2 0x44D PUSH2 0x198A JUMP JUMPDEST PUSH1 0x40 MLOAD SWAP2 DUP3 SWAP2 DUP7 CALLER SWAP7 CALLVALUE DUP6 PUSH2 0x191B JUMP JUMPDEST SUB SWAP1 LOG2 PUSH8 0x4563918244F40000 PUSH1 0x2 SLOAD LT ISZERO PUSH2 0x48F JUMPI JUMPDEST PUSH1 0x20 SWAP1 PUSH1 0x1 PUSH0 DUP1 MLOAD PUSH1 0x20 PUSH2 0x1A5D DUP4 CODECOPY DUP2 MLOAD SWAP2 MSTORE SSTORE PUSH1 0x40 MLOAD SWAP1 DUP2 MSTORE RETURN JUMPDEST PUSH1 0x3 DUP1 SLOAD PUSH1 0xFF NOT AND PUSH1 0x1 OR SWAP1 SSTORE DUP2 SLOAD PUSH1 0x40 MLOAD PUSH4 0x70A08231 PUSH1 0xE0 SHL DUP2 MSTORE ADDRESS PUSH1 0x4 DUP3 ADD MSTORE SELFBALANCE SWAP4 PUSH1 0x1 PUSH1 0x1 PUSH1 0xA0 SHL SUB SWAP3 SWAP1 SWAP3 AND SWAP2 PUSH11 0xA56FA5B99019A5C8000000 SWAP2 PUSH1 0x20 DUP2 PUSH1 0x24 DUP2 DUP8 GAS STATICCALL SWAP1 DUP2 ISZERO PUSH2 0x760 JUMPI DUP3 SWAP2 PUSH2 0x9A1 JUMPI JUMPDEST POP DUP3 DUP2 LT PUSH2 0x999 JUMPI JUMPDEST POP PUSH1 0x40 MLOAD PUSH4 0x95EA7B3 PUSH1 0xE0 SHL DUP2 MSTORE PUSH32 0x0 PUSH1 0x1 PUSH1 0x1 PUSH1 0xA0 SHL SUB AND SWAP4 PUSH1 0x20 SWAP1 DUP3 SWAP1 DUP2 DUP6 DUP2 PUSH2 0x53C DUP10 DUP12 PUSH1 0x4 DUP5 ADD PUSH2 0x1937 JUMP JUMPDEST SUB SWAP3 GAS CALL SWAP1 DUP2 ISZERO PUSH2 0x760 JUMPI DUP3 SWAP2 PUSH2 0x96A JUMPI JUMPDEST POP ISZERO PUSH2 0x934 JUMPI PUSH1 0x40 MLOAD PUSH4 0x15AB88C9 PUSH1 0xE3 SHL DUP2 MSTORE SWAP3 PUSH1 0x20 DUP5 PUSH1 0x4 DUP2 DUP5 GAS STATICCALL SWAP4 DUP5 ISZERO PUSH2 0x760 JUMPI DUP3 SWAP5 PUSH2 0x913 JUMPI JUMPDEST POP DUP2 SLOAD PUSH1 0x40 MLOAD PUSH4 0xE6A43905 PUSH1 0xE0 SHL DUP2 MSTORE SWAP5 SWAP1 PUSH1 0x1 PUSH1 0x1 PUSH1 0xA0 SHL SUB PUSH32 0x0 DUP2 AND SWAP2 AND PUSH1 0x20 DUP8 DUP1 PUSH2 0x5CA DUP7 DUP6 PUSH1 0x4 DUP5 ADD PUSH2 0x1A42 JUMP JUMPDEST SUB DUP2 DUP6 GAS STATICCALL SWAP7 DUP8 ISZERO PUSH2 0x908 JUMPI DUP6 SWAP8 PUSH2 0x8E7 JUMPI JUMPDEST POP PUSH1 0x1 PUSH1 0x1 PUSH1 0xA0 SHL SUB DUP8 AND ISZERO PUSH2 0x873 JUMPI JUMPDEST POP POP POP PUSH1 0x63 DUP4 MUL DUP4 DUP2 DIV PUSH1 0x63 EQ DUP5 ISZERO OR ISZERO PUSH2 0x85F JUMPI PUSH1 0x63 DUP8 MUL SWAP1 DUP8 DUP3 DIV PUSH1 0x63 EQ DUP9 ISZERO OR ISZERO PUSH2 0x84B JUMPI DUP4 SLOAD PUSH1 0x1 PUSH1 0x1 PUSH1 0xA0 SHL SUB AND SWAP2 TIMESTAMP PUSH2 0x12C DUP2 ADD SWAP3 SWAP1 DUP4 LT PUSH2 0x837 JUMPI SWAP1 PUSH1 0x64 DUP1 SWAP3 PUSH1 0x40 MLOAD SWAP6 PUSH4 0xF305D719 PUSH1 0xE0 SHL DUP8 MSTORE PUSH1 0x4 DUP8 ADD MSTORE DUP9 PUSH1 0x24 DUP8 ADD MSTORE DIV PUSH1 0x44 DUP6 ADD MSTORE DIV PUSH1 0x64 DUP4 ADD MSTORE PUSH2 0xDEAD PUSH1 0x84 DUP4 ADD MSTORE PUSH1 0xA4 DUP3 ADD MSTORE PUSH1 0x60 DUP2 PUSH1 0xC4 DUP2 DUP11 DUP7 GAS CALL DUP1 ISZERO PUSH2 0x7BC JUMPI PUSH2 0x80C JUMPI JUMPDEST POP DUP2 SLOAD PUSH1 0x40 MLOAD PUSH4 0x70A08231 PUSH1 0xE0 SHL DUP2 MSTORE ADDRESS PUSH1 0x4 DUP3 ADD MSTORE PUSH1 0x1 PUSH1 0x1 PUSH1 0xA0 SHL SUB SWAP1 SWAP2 AND SWAP1 PUSH1 0x20 DUP2 PUSH1 0x24 DUP2 DUP6 GAS STATICCALL SWAP1 DUP2 ISZERO PUSH2 0x801 JUMPI DUP5 SWAP2 PUSH2 0x7CB JUMPI JUMPDEST POP DUP1 PUSH2 0x76F JUMPI JUMPDEST POP POP DUP2 SLOAD PUSH1 0x1 PUSH1 0x1 PUSH1 0xA0 SHL SUB AND SWAP1 DUP2 EXTCODESIZE ISZERO PUSH2 0x76B JUMPI PUSH2 0x6F5 DUP4 SWAP3 DUP4 SWAP3 PUSH1 0x40 MLOAD SWAP5 DUP6 DUP1 SWAP5 DUP2 SWAP4 PUSH4 0xC7B12801 PUSH1 0xE0 SHL DUP4 MSTORE DUP12 PUSH1 0x4 DUP5 ADD PUSH2 0x1A42 JUMP JUMPDEST SUB SWAP3 GAS CALL DUP1 ISZERO PUSH2 0x760 JUMPI PUSH2 0x74B JUMPI JUMPDEST POP POP PUSH1 0x20 SWAP4 PUSH32 0xE8284482A896DE2FB31532F8A0C0F64867B8D0586FF49DBD54DDF4CDDB2C0365 SWAP3 PUSH1 0x60 SWAP3 PUSH1 0x40 MLOAD SWAP3 DUP4 MSTORE DUP7 DUP4 ADD MSTORE PUSH1 0x1 DUP1 PUSH1 0xA0 SHL SUB AND PUSH1 0x40 DUP3 ADD MSTORE LOG1 PUSH2 0x473 JUMP JUMPDEST PUSH2 0x756 DUP3 DUP1 SWAP3 PUSH2 0x1710 JUMP JUMPDEST PUSH2 0x189 JUMPI DUP1 PUSH2 0x704 JUMP JUMPDEST PUSH1 0x40 MLOAD RETURNDATASIZE DUP5 DUP3 RETURNDATACOPY RETURNDATASIZE SWAP1 REVERT JUMPDEST DUP3 DUP1 REVERT JUMPDEST DUP2 EXTCODESIZE ISZERO PUSH2 0x7C7 JUMPI DUP4 SWAP2 PUSH1 0x24 DUP4 SWAP3 PUSH1 0x40 MLOAD SWAP5 DUP6 SWAP4 DUP5 SWAP3 PUSH4 0x16C24011 PUSH1 0xE2 SHL DUP5 MSTORE PUSH1 0x4 DUP5 ADD MSTORE GAS CALL DUP1 ISZERO PUSH2 0x7BC JUMPI SWAP1 DUP4 SWAP2 ISZERO PUSH2 0x6BC JUMPI DUP2 PUSH2 0x7AD SWAP2 PUSH2 0x1710 JUMP JUMPDEST PUSH2 0x7B8 JUMPI DUP2 PUSH0 PUSH2 0x6BC JUMP JUMPDEST POP DUP1 REVERT JUMPDEST PUSH1 0x40 MLOAD RETURNDATASIZE DUP6 DUP3 RETURNDATACOPY RETURNDATASIZE SWAP1 REVERT JUMPDEST DUP4 DUP1 REVERT JUMPDEST SWAP1 POP PUSH1 0x20 DUP2 RETURNDATASIZE PUSH1 0x20 GT PUSH2 0x7F9 JUMPI JUMPDEST DUP2 PUSH2 0x7E6 PUSH1 0x20 SWAP4 DUP4 PUSH2 0x1710 JUMP JUMPDEST DUP2 ADD SUB SLT PUSH2 0x7F5 JUMPI MLOAD PUSH0 PUSH2 0x6B5 JUMP JUMPDEST PUSH0 DUP1 REVERT JUMPDEST RETURNDATASIZE SWAP2 POP PUSH2 0x7D9 JUMP JUMPDEST PUSH1 0x40 MLOAD RETURNDATASIZE DUP7 DUP3 RETURNDATACOPY RETURNDATASIZE SWAP1 REVERT JUMPDEST PUSH1 0x60 SWAP1 DUP2 RETURNDATASIZE DUP4 GT PUSH2 0x830 JUMPI JUMPDEST PUSH2 0x822 DUP2 DUP4 PUSH2 0x1710 JUMP JUMPDEST DUP2 ADD SUB SLT PUSH2 0x7B8 JUMPI PUSH0 PUSH2 0x67C JUMP JUMPDEST POP RETURNDATASIZE PUSH2 0x818 JUMP JUMPDEST PUSH4 0x4E487B71 PUSH1 0xE0 SHL DUP7 MSTORE PUSH1 0x11 PUSH1 0x4 MSTORE PUSH1 0x24 DUP7 REVERT JUMPDEST PUSH4 0x4E487B71 PUSH1 0xE0 SHL DUP5 MSTORE PUSH1 0x11 PUSH1 0x4 MSTORE PUSH1 0x24 DUP5 REVERT JUMPDEST PUSH4 0x4E487B71 PUSH1 0xE0 SHL DUP4 MSTORE PUSH1 0x11 PUSH1 0x4 MSTORE PUSH1 0x24 DUP4 REVERT JUMPDEST PUSH1 0x40 MLOAD PUSH4 0x64E329CB PUSH1 0xE1 SHL DUP2 MSTORE SWAP4 SWAP7 POP PUSH1 0x20 SWAP3 DUP5 SWAP3 SWAP2 DUP4 SWAP2 DUP8 SWAP2 DUP4 SWAP2 PUSH2 0x89C SWAP2 PUSH1 0x4 DUP5 ADD PUSH2 0x1A42 JUMP JUMPDEST SUB SWAP3 GAS CALL SWAP1 DUP2 ISZERO PUSH2 0x760 JUMPI DUP3 SWAP2 PUSH2 0x8B8 JUMPI JUMPDEST POP SWAP3 PUSH0 DUP1 DUP1 PUSH2 0x5EE JUMP JUMPDEST PUSH2 0x8DA SWAP2 POP PUSH1 0x20 RETURNDATASIZE PUSH1 0x20 GT PUSH2 0x8E0 JUMPI JUMPDEST PUSH2 0x8D2 DUP2 DUP4 PUSH2 0x1710 JUMP JUMPDEST DUP2 ADD SWAP1 PUSH2 0x1A23 JUMP JUMPDEST PUSH0 PUSH2 0x8AE JUMP JUMPDEST POP RETURNDATASIZE PUSH2 0x8C8 JUMP JUMPDEST PUSH2 0x901 SWAP2 SWAP8 POP PUSH1 0x20 RETURNDATASIZE PUSH1 0x20 GT PUSH2 0x8E0 JUMPI PUSH2 0x8D2 DUP2 DUP4 PUSH2 0x1710 JUMP JUMPDEST SWAP6 PUSH0 PUSH2 0x5DD JUMP JUMPDEST PUSH1 0x40 MLOAD RETURNDATASIZE DUP8 DUP3 RETURNDATACOPY RETURNDATASIZE SWAP1 REVERT JUMPDEST PUSH2 0x92D SWAP2 SWAP5 POP PUSH1 0x20 RETURNDATASIZE PUSH1 0x20 GT PUSH2 0x8E0 JUMPI PUSH2 0x8D2 DUP2 DUP4 PUSH2 0x1710 JUMP JUMPDEST SWAP3 PUSH0 PUSH2 0x579 JUMP JUMPDEST PUSH1 0x40 MLOAD PUSH3 0x461BCD PUSH1 0xE5 SHL DUP2 MSTORE PUSH1 0x20 PUSH1 0x4 DUP3 ADD MSTORE PUSH1 0xE PUSH1 0x24 DUP3 ADD MSTORE PUSH14 0x105C1C1C9BDD994819985A5B1959 PUSH1 0x92 SHL PUSH1 0x44 DUP3 ADD MSTORE PUSH1 0x64 SWAP1 REVERT JUMPDEST PUSH2 0x98C SWAP2 POP PUSH1 0x20 RETURNDATASIZE PUSH1 0x20 GT PUSH2 0x992 JUMPI JUMPDEST PUSH2 0x984 DUP2 DUP4 PUSH2 0x1710 JUMP JUMPDEST DUP2 ADD SWAP1 PUSH2 0x1894 JUMP JUMPDEST PUSH0 PUSH2 0x54E JUMP JUMPDEST POP RETURNDATASIZE PUSH2 0x97A JUMP JUMPDEST SWAP2 POP PUSH0 PUSH2 0x4ED JUMP JUMPDEST SWAP1 POP PUSH1 0x20 DUP2 RETURNDATASIZE PUSH1 0x20 GT PUSH2 0x9CB JUMPI JUMPDEST DUP2 PUSH2 0x9BC PUSH1 0x20 SWAP4 DUP4 PUSH2 0x1710 JUMP JUMPDEST DUP2 ADD SUB SLT PUSH2 0x7F5 JUMPI MLOAD PUSH0 PUSH2 0x4E4 JUMP JUMPDEST RETURNDATASIZE SWAP2 POP PUSH2 0x9AF JUMP JUMPDEST PUSH1 0x40 MLOAD PUSH3 0x461BCD PUSH1 0xE5 SHL DUP2 MSTORE PUSH1 0x20 PUSH1 0x4 DUP3 ADD MSTORE PUSH1 0x11 PUSH1 0x24 DUP3 ADD MSTORE PUSH17 0x151BDAD95B881E19995C8819985A5B1959 PUSH1 0x7A SHL PUSH1 0x44 DUP3 ADD MSTORE PUSH1 0x64 SWAP1 REVERT JUMPDEST PUSH2 0xA25 SWAP2 POP PUSH1 0x20 RETURNDATASIZE PUSH1 0x20 GT PUSH2 0x992 JUMPI PUSH2 0x984 DUP2 DUP4 PUSH2 0x1710 JUMP JUMPDEST PUSH0 PUSH2 0x3F6 JUMP JUMPDEST DUP2 SLOAD PUSH1 0x1 PUSH1 0x1 PUSH1 0xA0 SHL SUB AND SWAP1 DUP2 EXTCODESIZE ISZERO PUSH2 0x76B JUMPI DUP3 SWAP2 PUSH1 0x24 DUP4 SWAP3 PUSH1 0x40 MLOAD SWAP5 DUP6 SWAP4 DUP5 SWAP3 PUSH4 0x16C24011 PUSH1 0xE2 SHL DUP5 MSTORE PUSH1 0x4 DUP5 ADD MSTORE GAS CALL DUP1 ISZERO PUSH2 0x760 JUMPI ISZERO PUSH2 0x3B3 JUMPI DUP2 PUSH2 0xA72 SWAP2 PUSH2 0x1710 JUMP JUMPDEST PUSH2 0x76B JUMPI DUP3 PUSH0 PUSH2 0x3B3 JUMP JUMPDEST DUP3 SLOAD PUSH1 0x1 PUSH1 0x1 PUSH1 0xA0 SHL SUB AND DUP1 EXTCODESIZE ISZERO PUSH2 0x7C7 JUMPI DUP4 SWAP1 PUSH1 0x4 PUSH1 0x40 MLOAD DUP1 SWAP5 DUP2 SWAP4 PUSH4 0x16F1A0A7 PUSH1 0xE3 SHL DUP4 MSTORE GAS CALL SWAP1 DUP2 ISZERO PUSH2 0x7BC JUMPI DUP4 SWAP2 PUSH2 0xABA JUMPI JUMPDEST POP PUSH2 0x3AC JUMP JUMPDEST DUP2 PUSH2 0xAC4 SWAP2 PUSH2 0x1710 JUMP JUMPDEST PUSH2 0x7B8 JUMPI DUP2 PUSH0 PUSH2 0xAB4 JUMP JUMPDEST DUP4 SLOAD PUSH1 0x1 PUSH1 0x1 PUSH1 0xA0 SHL SUB AND DUP1 EXTCODESIZE ISZERO PUSH2 0xB21 JUMPI DUP5 SWAP1 PUSH1 0x4 PUSH1 0x40 MLOAD DUP1 SWAP5 DUP2 SWAP4 PUSH4 0x523AA0DD PUSH1 0xE1 SHL DUP4 MSTORE GAS CALL SWAP1 DUP2 ISZERO PUSH2 0x801 JUMPI DUP5 SWAP2 PUSH2 0xB0C JUMPI JUMPDEST POP PUSH2 0x3A5 JUMP JUMPDEST DUP2 PUSH2 0xB16 SWAP2 PUSH2 0x1710 JUMP JUMPDEST PUSH2 0x76B JUMPI DUP3 PUSH0 PUSH2 0xB06 JUMP JUMPDEST DUP5 DUP1 REVERT JUMPDEST PUSH4 0x4E487B71 PUSH1 0xE0 SHL DUP9 MSTORE PUSH1 0x11 PUSH1 0x4 MSTORE PUSH1 0x24 DUP9 REVERT JUMPDEST PUSH4 0x4E487B71 PUSH1 0xE0 SHL DUP3 MSTORE PUSH1 0x11 PUSH1 0x4 MSTORE PUSH1 0x24 DUP3 REVERT JUMPDEST PUSH1 0x40 MLOAD PUSH3 0x461BCD PUSH1 0xE5 SHL DUP2 MSTORE PUSH1 0x20 PUSH1 0x4 DUP3 ADD MSTORE PUSH1 0x6 PUSH1 0x24 DUP3 ADD MSTORE PUSH6 0x9CDE408AA89 PUSH1 0xD3 SHL PUSH1 0x44 DUP3 ADD MSTORE PUSH1 0x64 SWAP1 REVERT JUMPDEST PUSH1 0xFF SWAP2 POP PUSH1 0x8 SHR AND ISZERO PUSH0 PUSH2 0x2BF JUMP JUMPDEST POP CALLVALUE PUSH2 0x189 JUMPI PUSH1 0x20 CALLDATASIZE PUSH1 0x3 NOT ADD SLT PUSH2 0x189 JUMPI PUSH2 0xBA4 PUSH2 0x15A6 JUMP JUMPDEST PUSH2 0xBD8 CALLER PUSH32 0x0 PUSH1 0x1 PUSH1 0x1 PUSH1 0xA0 SHL SUB AND EQ PUSH2 0x16D5 JUMP JUMPDEST PUSH1 0x1 PUSH1 0x1 PUSH1 0xA0 SHL SUB AND DUP2 MSTORE PUSH1 0x4 PUSH1 0x20 MSTORE PUSH1 0x40 DUP2 KECCAK256 DUP1 SLOAD PUSH1 0x1 PUSH1 0x1 PUSH1 0x40 SHL SUB NOT AND TIMESTAMP PUSH1 0x1 PUSH1 0x1 PUSH1 0x40 SHL SUB AND OR SWAP1 SSTORE DUP1 RETURN JUMPDEST POP CALLVALUE PUSH2 0x189 JUMPI PUSH1 0x40 CALLDATASIZE PUSH1 0x3 NOT ADD SLT PUSH2 0x189 JUMPI PUSH1 0x4 CALLDATALOAD PUSH2 0xC25 PUSH2 0x1952 JUMP JUMPDEST PUSH2 0xC3C PUSH1 0x3 SLOAD PUSH1 0xFF DUP2 AND ISZERO SWAP1 DUP2 PUSH2 0xB7B JUMPI POP PUSH2 0x1859 JUMP JUMPDEST DUP1 ISZERO PUSH2 0xFBB JUMPI PUSH1 0x96 DUP2 MUL DUP2 DUP2 DIV PUSH1 0x96 SUB PUSH2 0x85F JUMPI PUSH2 0x2710 SWAP1 DIV SWAP1 PUSH2 0xC60 DUP3 DUP3 PUSH2 0x15D7 JUMP JUMPDEST SWAP2 DUP4 PUSH1 0x20 PUSH1 0x1 DUP1 PUSH1 0xA0 SHL SUB DUP3 SLOAD AND PUSH1 0x64 PUSH1 0x40 MLOAD DUP1 SWAP5 DUP2 SWAP4 PUSH4 0x23B872DD PUSH1 0xE0 SHL DUP4 MSTORE CALLER PUSH1 0x4 DUP5 ADD MSTORE ADDRESS PUSH1 0x24 DUP5 ADD MSTORE DUP9 PUSH1 0x44 DUP5 ADD MSTORE GAS CALL SWAP1 DUP2 ISZERO PUSH2 0x908 JUMPI DUP6 SWAP2 PUSH2 0xF9C JUMPI JUMPDEST POP ISZERO PUSH2 0xF62 JUMPI DUP1 DUP5 SWAP2 PUSH2 0xF10 JUMPI JUMPDEST POP POP PUSH1 0x2 SLOAD SWAP3 DUP4 PUSH8 0x29A2241AF62C0000 ADD DUP1 PUSH8 0x29A2241AF62C0000 GT PUSH2 0xB39 JUMPI PUSH2 0xCFC SWAP1 PUSH2 0xCF6 PUSH2 0xCEF PUSH1 0x1 SLOAD SWAP7 PUSH2 0xCE9 DUP9 DUP6 PUSH2 0x15F8 JUMP JUMPDEST SWAP8 PUSH2 0x1629 JUMP JUMPDEST DUP1 SWAP7 PUSH2 0x160B JUMP JUMPDEST SWAP1 PUSH2 0x15D7 JUMP JUMPDEST SWAP4 DUP1 DUP6 GT PUSH2 0xECF JUMPI DUP5 PUSH2 0xD1E SWAP2 DUP2 ISZERO SWAP6 PUSH2 0xD16 DUP8 ISZERO PUSH2 0x18AC JUMP JUMPDEST PUSH1 0x1 SSTORE PUSH2 0x15D7 JUMP JUMPDEST PUSH1 0x2 SSTORE PUSH2 0xD2A CALLER PUSH2 0x19C0 JUMP JUMPDEST PUSH1 0xC8 ADD DUP1 PUSH1 0xC8 GT PUSH2 0xB39 JUMPI PUSH2 0xD42 PUSH2 0x2710 SWAP2 DUP7 PUSH2 0x15F8 JUMP JUMPDEST DIV SWAP3 PUSH1 0x96 DUP6 MUL SWAP1 DUP6 DUP3 DIV PUSH1 0x96 EQ OR ISZERO PUSH2 0xB39 JUMPI PUSH2 0x2710 SWAP1 DIV PUSH2 0xD68 DUP2 PUSH2 0x2FF DUP7 DUP9 PUSH2 0x15D7 JUMP JUMPDEST SWAP4 PUSH2 0xD77 PUSH1 0x24 CALLDATALOAD DUP7 LT ISZERO PUSH2 0x18E4 JUMP JUMPDEST DUP1 PUSH2 0xE7D JUMPI JUMPDEST POP DUP1 PUSH2 0xE2B JUMPI JUMPDEST POP DUP1 DUP1 DUP1 DUP6 CALLER GAS CALL PUSH2 0xD94 PUSH2 0x1747 JUMP JUMPDEST POP ISZERO PUSH2 0xDF4 JUMPI PUSH32 0x483F8AEC0FD892AC72AD1BA8D0E9C9E73DB59C12D263FD71DE480B5B3DEEAE3C DUP3 PUSH1 0x20 SWAP5 PUSH2 0xDD8 PUSH2 0xDCA PUSH2 0x198A JUMP JUMPDEST PUSH1 0x40 MLOAD SWAP4 DUP5 SWAP4 CALLER SWAP8 DUP6 PUSH2 0x191B JUMP JUMPDEST SUB SWAP1 LOG2 PUSH1 0x1 PUSH0 DUP1 MLOAD PUSH1 0x20 PUSH2 0x1A5D DUP4 CODECOPY DUP2 MLOAD SWAP2 MSTORE SSTORE PUSH1 0x40 MLOAD SWAP1 DUP2 MSTORE RETURN JUMPDEST PUSH1 0x40 MLOAD PUSH3 0x461BCD PUSH1 0xE5 SHL DUP2 MSTORE PUSH1 0x20 PUSH1 0x4 DUP3 ADD MSTORE PUSH1 0xF PUSH1 0x24 DUP3 ADD MSTORE PUSH15 0x115512081CD95B990819985A5B1959 PUSH1 0x8A SHL PUSH1 0x44 DUP3 ADD MSTORE PUSH1 0x64 SWAP1 REVERT JUMPDEST DUP2 SLOAD PUSH1 0x1 PUSH1 0x1 PUSH1 0xA0 SHL SUB AND DUP1 EXTCODESIZE ISZERO PUSH2 0x76B JUMPI DUP3 SWAP1 PUSH1 0x4 PUSH1 0x40 MLOAD DUP1 SWAP5 DUP2 SWAP4 PUSH4 0x16F1A0A7 PUSH1 0xE3 SHL DUP4 MSTORE GAS CALL DUP1 ISZERO PUSH2 0x760 JUMPI SWAP1 DUP3 SWAP2 PUSH2 0xE68 JUMPI JUMPDEST POP PUSH2 0xD84 JUMP JUMPDEST DUP2 PUSH2 0xE72 SWAP2 PUSH2 0x1710 JUMP JUMPDEST PUSH2 0x189 JUMPI DUP1 PUSH0 PUSH2 0xE62 JUMP JUMPDEST DUP3 SLOAD PUSH1 0x1 PUSH1 0x1 PUSH1 0xA0 SHL SUB AND DUP1 EXTCODESIZE ISZERO PUSH2 0x7C7 JUMPI DUP4 SWAP1 PUSH1 0x4 PUSH1 0x40 MLOAD DUP1 SWAP5 DUP2 SWAP4 PUSH4 0x523AA0DD PUSH1 0xE1 SHL DUP4 MSTORE GAS CALL DUP1 ISZERO PUSH2 0x7BC JUMPI SWAP1 DUP4 SWAP2 PUSH2 0xEBA JUMPI JUMPDEST POP PUSH2 0xD7D JUMP JUMPDEST DUP2 PUSH2 0xEC4 SWAP2 PUSH2 0x1710 JUMP JUMPDEST PUSH2 0x7B8 JUMPI DUP2 PUSH0 PUSH2 0xEB4 JUMP JUMPDEST PUSH1 0x40 MLOAD PUSH3 0x461BCD PUSH1 0xE5 SHL DUP2 MSTORE PUSH1 0x20 PUSH1 0x4 DUP3 ADD MSTORE PUSH1 0x19 PUSH1 0x24 DUP3 ADD MSTORE PUSH25 0x496E73756666696369656E742045544820696E206375727665 PUSH1 0x38 SHL PUSH1 0x44 DUP3 ADD MSTORE PUSH1 0x64 SWAP1 REVERT JUMPDEST DUP2 SLOAD PUSH1 0x1 PUSH1 0x1 PUSH1 0xA0 SHL SUB AND SWAP1 DUP2 EXTCODESIZE ISZERO PUSH2 0x76B JUMPI DUP3 SWAP2 PUSH1 0x24 DUP4 SWAP3 PUSH1 0x40 MLOAD SWAP5 DUP6 SWAP4 DUP5 SWAP3 PUSH4 0x16C24011 PUSH1 0xE2 SHL DUP5 MSTORE PUSH1 0x4 DUP5 ADD MSTORE GAS CALL DUP1 ISZERO PUSH2 0x760 JUMPI ISZERO PUSH2 0xCB1 JUMPI DUP2 PUSH2 0xF57 SWAP2 PUSH2 0x1710 JUMP JUMPDEST PUSH2 0x76B JUMPI DUP3 PUSH0 PUSH2 0xCB1 JUMP JUMPDEST PUSH1 0x40 MLOAD PUSH3 0x461BCD PUSH1 0xE5 SHL DUP2 MSTORE PUSH1 0x20 PUSH1 0x4 DUP3 ADD MSTORE PUSH1 0x12 PUSH1 0x24 DUP3 ADD MSTORE PUSH18 0x151C985B9CD9995C881A5B8819985A5B1959 PUSH1 0x72 SHL PUSH1 0x44 DUP3 ADD MSTORE PUSH1 0x64 SWAP1 REVERT JUMPDEST PUSH2 0xFB5 SWAP2 POP PUSH1 0x20 RETURNDATASIZE PUSH1 0x20 GT PUSH2 0x992 JUMPI PUSH2 0x984 DUP2 DUP4 PUSH2 0x1710 JUMP JUMPDEST PUSH0 PUSH2 0xCA3 JUMP JUMPDEST PUSH1 0x40 MLOAD PUSH3 0x461BCD PUSH1 0xE5 SHL DUP2 MSTORE PUSH1 0x20 PUSH1 0x4 DUP3 ADD MSTORE PUSH1 0x9 PUSH1 0x24 DUP3 ADD MSTORE PUSH9 0x4E6F20746F6B656E73 PUSH1 0xB8 SHL PUSH1 0x44 DUP3 ADD MSTORE PUSH1 0x64 SWAP1 REVERT JUMPDEST PUSH2 0x15BC JUMP JUMPDEST POP CALLVALUE PUSH2 0x189 JUMPI DUP1 PUSH1 0x3 NOT CALLDATASIZE ADD SLT PUSH2 0x189 JUMPI PUSH1 0x20 PUSH1 0x40 MLOAD PUSH11 0xA56FA5B99019A5C8000000 DUP2 MSTORE RETURN JUMPDEST POP CALLVALUE PUSH2 0x189 JUMPI DUP1 PUSH1 0x3 NOT CALLDATASIZE ADD SLT PUSH2 0x189 JUMPI PUSH1 0x20 PUSH1 0x40 MLOAD PUSH2 0x3E8 DUP2 MSTORE RETURN JUMPDEST POP CALLVALUE PUSH2 0x189 JUMPI DUP1 PUSH1 0x3 NOT CALLDATASIZE ADD SLT PUSH2 0x189 JUMPI PUSH1 0x40 MLOAD PUSH32 0x0 PUSH1 0x1 PUSH1 0x1 PUSH1 0xA0 SHL SUB AND DUP2 MSTORE PUSH1 0x20 SWAP1 RETURN JUMPDEST POP CALLVALUE PUSH2 0x189 JUMPI DUP1 PUSH1 0x3 NOT CALLDATASIZE ADD SLT PUSH2 0x189 JUMPI PUSH1 0x20 PUSH1 0x40 MLOAD PUSH2 0x7D0 DUP2 MSTORE RETURN JUMPDEST POP CALLVALUE PUSH2 0x189 JUMPI DUP1 PUSH1 0x3 NOT CALLDATASIZE ADD SLT PUSH2 0x189 JUMPI PUSH1 0x20 PUSH1 0x40 MLOAD PUSH2 0x1F4 DUP2 MSTORE RETURN JUMPDEST POP CALLVALUE PUSH2 0x189 JUMPI DUP1 PUSH1 0x3 NOT CALLDATASIZE ADD SLT PUSH2 0x189 JUMPI PUSH1 0x40 MLOAD PUSH8 0x14ADF4B7320334B9 PUSH1 0x1D SHL DUP2 MSTORE PUSH1 0x20 SWAP1 RETURN JUMPDEST POP CALLVALUE PUSH2 0x189 JUMPI DUP1 PUSH1 0x3 NOT CALLDATASIZE ADD SLT PUSH2 0x189 JUMPI PUSH1 0x40 MLOAD PUSH32 0x0 PUSH1 0x1 PUSH1 0x1 PUSH1 0xA0 SHL SUB AND DUP2 MSTORE PUSH1 0x20 SWAP1 RETURN JUMPDEST POP CALLVALUE PUSH2 0x189 JUMPI DUP1 PUSH1 0x3 NOT CALLDATASIZE ADD SLT PUSH2 0x189 JUMPI PUSH1 0x2 SLOAD PUSH8 0x29A2241AF62C0000 ADD SWAP1 DUP2 PUSH8 0x29A2241AF62C0000 GT PUSH2 0x1185 JUMPI PUSH8 0xDE0B6B3A7640000 DUP3 MUL SWAP2 DUP1 DUP4 DIV PUSH8 0xDE0B6B3A7640000 EQ SWAP1 ISZERO OR ISZERO PUSH2 0x1185 JUMPI PUSH1 0x20 PUSH2 0x117D DUP4 PUSH1 0x1 SLOAD SWAP1 PUSH2 0x160B JUMP JUMPDEST PUSH1 0x40 MLOAD SWAP1 DUP2 MSTORE RETURN JUMPDEST PUSH4 0x4E487B71 PUSH1 0xE0 SHL DUP2 MSTORE PUSH1 0x11 PUSH1 0x4 MSTORE PUSH1 0x24 SWAP1 REVERT JUMPDEST POP CALLVALUE PUSH2 0x189 JUMPI DUP1 PUSH1 0x3 NOT CALLDATASIZE ADD SLT PUSH2 0x189 JUMPI PUSH1 0x20 PUSH1 0x40 MLOAD PUSH8 0x4563918244F40000 DUP2 MSTORE RETURN JUMPDEST POP CALLVALUE PUSH2 0x189 JUMPI DUP1 PUSH1 0x3 NOT CALLDATASIZE ADD SLT PUSH2 0x189 JUMPI PUSH1 0x40 MLOAD PUSH32 0x0 PUSH1 0x1 PUSH1 0x1 PUSH1 0xA0 SHL SUB AND DUP2 MSTORE PUSH1 0x20 SWAP1 RETURN JUMPDEST POP CALLVALUE PUSH2 0x189 JUMPI DUP1 PUSH1 0x3 NOT CALLDATASIZE ADD SLT PUSH2 0x189 JUMPI PUSH1 0x40 MLOAD PUSH32 0x0 PUSH1 0x1 PUSH1 0x1 PUSH1 0xA0 SHL SUB AND DUP2 MSTORE PUSH1 0x20 SWAP1 RETURN JUMPDEST POP CALLVALUE PUSH2 0x189 JUMPI DUP1 PUSH1 0x3 NOT CALLDATASIZE ADD SLT PUSH2 0x189 JUMPI PUSH1 0x20 PUSH1 0xFF PUSH1 0x3 SLOAD PUSH1 0x8 SHR AND PUSH1 0x40 MLOAD SWAP1 ISZERO ISZERO DUP2 MSTORE RETURN JUMPDEST POP CALLVALUE PUSH2 0x189 JUMPI PUSH1 0x40 CALLDATASIZE PUSH1 0x3 NOT ADD SLT PUSH2 0x189 JUMPI PUSH1 0x24 CALLDATALOAD SWAP1 PUSH1 0x1 PUSH1 0x1 PUSH1 0xA0 SHL SUB DUP3 AND DUP3 SUB PUSH2 0x189 JUMPI PUSH1 0x20 PUSH2 0x117D DUP4 PUSH1 0x4 CALLDATALOAD PUSH2 0x1785 JUMP JUMPDEST POP CALLVALUE PUSH2 0x189 JUMPI DUP1 PUSH1 0x3 NOT CALLDATASIZE ADD SLT PUSH2 0x189 JUMPI PUSH1 0x20 PUSH2 0x117D PUSH2 0x198A JUMP JUMPDEST POP CALLVALUE PUSH2 0x189 JUMPI DUP1 PUSH1 0x3 NOT CALLDATASIZE ADD SLT PUSH2 0x189 JUMPI PUSH1 0x20 PUSH1 0x40 MLOAD PUSH8 0x29A2241AF62C0000 DUP2 MSTORE RETURN JUMPDEST POP CALLVALUE PUSH2 0x189 JUMPI PUSH1 0x20 CALLDATASIZE PUSH1 0x3 NOT ADD SLT PUSH2 0x189 JUMPI PUSH1 0x20 SWAP1 PUSH1 0x1 PUSH1 0x1 PUSH1 0xA0 SHL SUB PUSH2 0x1303 PUSH2 0x15A6 JUMP JUMPDEST AND DUP2 MSTORE PUSH1 0x4 DUP3 MSTORE PUSH1 0x40 PUSH1 0x1 DUP1 DUP3 SHL SUB SWAP2 KECCAK256 SLOAD AND PUSH1 0x40 MLOAD SWAP1 DUP2 MSTORE RETURN JUMPDEST POP CALLVALUE PUSH2 0x7F5 JUMPI PUSH1 0x20 CALLDATASIZE PUSH1 0x3 NOT ADD SLT PUSH2 0x7F5 JUMPI PUSH2 0x1338 PUSH2 0x15A6 JUMP JUMPDEST PUSH2 0x1340 PUSH2 0x1952 JUMP JUMPDEST PUSH2 0x1374 CALLER PUSH32 0x0 PUSH1 0x1 PUSH1 0x1 PUSH1 0xA0 SHL SUB AND EQ PUSH2 0x16D5 JUMP JUMPDEST PUSH1 0x3 SLOAD PUSH1 0xFF DUP2 AND PUSH2 0x14FD JUMPI PUSH2 0xFF00 NOT AND PUSH2 0x100 OR PUSH1 0x3 SSTORE PUSH0 SLOAD PUSH1 0x40 MLOAD PUSH4 0x70A08231 PUSH1 0xE0 SHL DUP2 MSTORE ADDRESS PUSH1 0x4 DUP3 ADD MSTORE PUSH1 0x1 PUSH1 0x1 PUSH1 0xA0 SHL SUB SWAP2 SWAP1 SWAP2 AND SWAP1 PUSH1 0x20 DUP2 PUSH1 0x24 DUP2 DUP6 GAS STATICCALL SWAP1 DUP2 ISZERO PUSH2 0x14C0 JUMPI PUSH0 SWAP2 PUSH2 0x14CB JUMPI JUMPDEST POP DUP1 PUSH2 0x1474 JUMPI JUMPDEST POP POP SELFBALANCE SWAP1 DUP2 PUSH2 0x141F JUMPI JUMPDEST PUSH1 0x40 MLOAD SWAP2 DUP3 MSTORE PUSH1 0x1 PUSH1 0x1 PUSH1 0xA0 SHL SUB AND SWAP1 PUSH32 0x16BFC55CFDA3EB65B74E8FE52A8804E222BDB31AEF30599B41ADEB45893F66A9 SWAP1 PUSH1 0x20 SWAP1 LOG2 PUSH1 0x1 PUSH0 DUP1 MLOAD PUSH1 0x20 PUSH2 0x1A5D DUP4 CODECOPY DUP2 MLOAD SWAP2 MSTORE SSTORE DUP1 RETURN JUMPDEST DUP3 DUP1 DUP1 DUP1 DUP6 PUSH1 0x1 PUSH1 0x1 PUSH1 0xA0 SHL SUB DUP7 AND GAS CALL PUSH2 0x1438 PUSH2 0x1747 JUMP JUMPDEST POP PUSH2 0x13D5 JUMPI PUSH1 0x40 MLOAD PUSH3 0x461BCD PUSH1 0xE5 SHL DUP2 MSTORE PUSH1 0x20 PUSH1 0x4 DUP3 ADD MSTORE PUSH1 0xF PUSH1 0x24 DUP3 ADD MSTORE PUSH15 0x15DA5D1A191C985DC819985A5B1959 PUSH1 0x8A SHL PUSH1 0x44 DUP3 ADD MSTORE PUSH1 0x64 SWAP1 REVERT JUMPDEST DUP2 EXTCODESIZE ISZERO PUSH2 0x7F5 JUMPI PUSH0 SWAP2 PUSH1 0x24 DUP4 SWAP3 PUSH1 0x40 MLOAD SWAP5 DUP6 SWAP4 DUP5 SWAP3 PUSH4 0x16C24011 PUSH1 0xE2 SHL DUP5 MSTORE PUSH1 0x4 DUP5 ADD MSTORE GAS CALL DUP1 ISZERO PUSH2 0x14C0 JUMPI PUSH2 0x14AB JUMPI JUMPDEST DUP1 PUSH2 0x13CB JUMP JUMPDEST PUSH2 0x14B8 SWAP2 SWAP3 POP PUSH0 SWAP1 PUSH2 0x1710 JUMP JUMPDEST PUSH0 SWAP1 PUSH0 PUSH2 0x14A5 JUMP JUMPDEST PUSH1 0x40 MLOAD RETURNDATASIZE PUSH0 DUP3 RETURNDATACOPY RETURNDATASIZE SWAP1 REVERT JUMPDEST SWAP1 POP PUSH1 0x20 DUP2 RETURNDATASIZE PUSH1 0x20 GT PUSH2 0x14F5 JUMPI JUMPDEST DUP2 PUSH2 0x14E6 PUSH1 0x20 SWAP4 DUP4 PUSH2 0x1710 JUMP JUMPDEST DUP2 ADD SUB SLT PUSH2 0x7F5 JUMPI MLOAD PUSH0 PUSH2 0x13C4 JUMP JUMPDEST RETURNDATASIZE SWAP2 POP PUSH2 0x14D9 JUMP JUMPDEST PUSH1 0x40 MLOAD PUSH3 0x461BCD PUSH1 0xE5 SHL DUP2 MSTORE PUSH1 0x20 PUSH1 0x4 DUP3 ADD MSTORE PUSH1 0x11 PUSH1 0x24 DUP3 ADD MSTORE PUSH17 0x105B1C9958591E4819DC98591D585D1959 PUSH1 0x7A SHL PUSH1 0x44 DUP3 ADD MSTORE PUSH1 0x64 SWAP1 REVERT JUMPDEST CALLVALUE PUSH2 0x7F5 JUMPI PUSH0 CALLDATASIZE PUSH1 0x3 NOT ADD SLT PUSH2 0x7F5 JUMPI PUSH1 0x20 PUSH1 0x40 MLOAD PUSH1 0xC8 DUP2 MSTORE RETURN JUMPDEST CALLVALUE PUSH2 0x7F5 JUMPI PUSH0 CALLDATASIZE PUSH1 0x3 NOT ADD SLT PUSH2 0x7F5 JUMPI PUSH1 0x20 PUSH1 0x1 SLOAD PUSH1 0x40 MLOAD SWAP1 DUP2 MSTORE RETURN JUMPDEST CALLVALUE PUSH2 0x7F5 JUMPI PUSH1 0x20 CALLDATASIZE PUSH1 0x3 NOT ADD SLT PUSH2 0x7F5 JUMPI PUSH1 0x20 PUSH2 0x117D PUSH1 0x4 CALLDATALOAD PUSH2 0x1636 JUMP JUMPDEST CALLVALUE PUSH2 0x7F5 JUMPI PUSH0 CALLDATASIZE PUSH1 0x3 NOT ADD SLT PUSH2 0x7F5 JUMPI PUSH1 0x20 SWAP1 PUSH1 0x2 SLOAD DUP2 MSTORE RETURN JUMPDEST PUSH1 0x4 CALLDATALOAD SWAP1 PUSH1 0x1 PUSH1 0x1 PUSH1 0xA0 SHL SUB DUP3 AND DUP3 SUB PUSH2 0x7F5 JUMPI JUMP JUMPDEST CALLVALUE PUSH2 0x7F5 JUMPI PUSH0 CALLDATASIZE PUSH1 0x3 NOT ADD SLT PUSH2 0x7F5 JUMPI PUSH1 0x20 PUSH1 0x40 MLOAD PUSH1 0x96 DUP2 MSTORE RETURN JUMPDEST SWAP2 SWAP1 DUP3 SUB SWAP2 DUP3 GT PUSH2 0x15E4 JUMPI JUMP JUMPDEST PUSH4 0x4E487B71 PUSH1 0xE0 SHL PUSH0 MSTORE PUSH1 0x11 PUSH1 0x4 MSTORE PUSH1 0x24 PUSH0 REVERT JUMPDEST DUP2 DUP2 MUL SWAP3 SWAP2 DUP2 ISZERO SWAP2 DUP5 DIV EQ OR ISZERO PUSH2 0x15E4 JUMPI JUMP JUMPDEST DUP2 ISZERO PUSH2 0x1615 JUMPI DIV SWAP1 JUMP JUMPDEST PUSH4 0x4E487B71 PUSH1 0xE0 SHL PUSH0 MSTORE PUSH1 0x12 PUSH1 0x4 MSTORE PUSH1 0x24 PUSH0 REVERT JUMPDEST SWAP2 SWAP1 DUP3 ADD DUP1 SWAP3 GT PUSH2 0x15E4 JUMPI JUMP JUMPDEST PUSH1 0x3 SLOAD PUSH1 0xFF DUP2 AND SWAP1 DUP2 ISZERO PUSH2 0x16C7 JUMPI JUMPDEST POP PUSH2 0x16C2 JUMPI PUSH2 0x25B2 DUP2 MUL SWAP1 DUP1 DUP3 DIV PUSH2 0x25B2 EQ SWAP1 ISZERO OR ISZERO PUSH2 0x15E4 JUMPI PUSH1 0x2 SLOAD PUSH8 0x29A2241AF62C0000 ADD DUP1 PUSH8 0x29A2241AF62C0000 GT PUSH2 0x15E4 JUMPI PUSH2 0xCF6 PUSH2 0x169E SWAP3 PUSH2 0x342 PUSH1 0x1 SLOAD SWAP4 PUSH2 0x2710 PUSH2 0x1696 DUP7 DUP4 PUSH2 0x15F8 JUMP JUMPDEST SWAP4 DIV SWAP1 PUSH2 0x1629 JUMP JUMPDEST PUSH1 0x96 DUP2 MUL SWAP1 DUP1 DUP3 DIV PUSH1 0x96 EQ DUP2 ISZERO OR ISZERO PUSH2 0x15E4 JUMPI PUSH2 0x2710 PUSH2 0x16BF SWAP3 DIV SWAP1 PUSH2 0x15D7 JUMP JUMPDEST SWAP1 JUMP JUMPDEST POP PUSH0 SWAP1 JUMP JUMPDEST PUSH1 0xFF SWAP2 POP PUSH1 0x8 SHR AND PUSH0 PUSH2 0x1645 JUMP JUMPDEST ISZERO PUSH2 0x16DC JUMPI JUMP JUMPDEST PUSH1 0x40 MLOAD PUSH3 0x461BCD PUSH1 0xE5 SHL DUP2 MSTORE PUSH1 0x20 PUSH1 0x4 DUP3 ADD MSTORE PUSH1 0xC PUSH1 0x24 DUP3 ADD MSTORE PUSH12 0x4F6E6C7920666163746F7279 PUSH1 0xA0 SHL PUSH1 0x44 DUP3 ADD MSTORE PUSH1 0x64 SWAP1 REVERT JUMPDEST PUSH1 0x1F SWAP1 SWAP2 ADD PUSH1 0x1F NOT AND DUP2 ADD SWAP1 PUSH1 0x1 PUSH1 0x1 PUSH1 0x40 SHL SUB DUP3 GT SWAP1 DUP3 LT OR PUSH2 0x1733 JUMPI PUSH1 0x40 MSTORE JUMP JUMPDEST PUSH4 0x4E487B71 PUSH1 0xE0 SHL PUSH0 MSTORE PUSH1 0x41 PUSH1 0x4 MSTORE PUSH1 0x24 PUSH0 REVERT JUMPDEST RETURNDATASIZE ISZERO PUSH2 0x1780 JUMPI RETURNDATASIZE SWAP1 PUSH1 0x1 PUSH1 0x1 PUSH1 0x40 SHL SUB DUP3 GT PUSH2 0x1733 JUMPI PUSH1 0x40 MLOAD SWAP2 PUSH2 0x1775 PUSH1 0x1F DUP3 ADD PUSH1 0x1F NOT AND PUSH1 0x20 ADD DUP5 PUSH2 0x1710 JUMP JUMPDEST DUP3 MSTORE RETURNDATASIZE PUSH0 PUSH1 0x20 DUP5 ADD RETURNDATACOPY JUMP JUMPDEST PUSH1 0x60 SWAP1 JUMP JUMPDEST PUSH1 0x3 SLOAD PUSH1 0xFF DUP2 AND SWAP1 DUP2 ISZERO PUSH2 0x184B JUMPI JUMPDEST POP PUSH2 0x183B JUMPI PUSH1 0x96 DUP2 MUL SWAP1 DUP1 DUP3 DIV PUSH1 0x96 EQ DUP2 ISZERO OR ISZERO PUSH2 0x15E4 JUMPI PUSH2 0x2710 PUSH2 0x17BA SWAP3 DIV SWAP1 PUSH2 0x15D7 JUMP JUMPDEST SWAP1 PUSH1 0x2 SLOAD SWAP2 DUP3 PUSH8 0x29A2241AF62C0000 ADD DUP1 PUSH8 0x29A2241AF62C0000 GT PUSH2 0x15E4 JUMPI PUSH2 0xCF6 PUSH2 0x17F1 SWAP3 PUSH2 0x342 PUSH1 0x1 SLOAD SWAP2 PUSH2 0x33C DUP4 DUP7 PUSH2 0x15F8 JUMP JUMPDEST SWAP2 DUP1 DUP4 GT PUSH2 0x1841 JUMPI JUMPDEST POP PUSH2 0x1804 SWAP1 PUSH2 0x19C0 JUMP JUMPDEST DUP1 PUSH1 0xC8 ADD SWAP1 DUP2 PUSH1 0xC8 GT PUSH2 0x15E4 JUMPI PUSH2 0x15E ADD DUP1 SWAP2 GT PUSH2 0x15E4 JUMPI PUSH2 0x1829 PUSH2 0x2710 SWAP2 DUP4 PUSH2 0x15F8 JUMP JUMPDEST DIV DUP1 DUP3 GT ISZERO PUSH2 0x183B JUMPI PUSH2 0x16BF SWAP2 PUSH2 0x15D7 JUMP JUMPDEST POP POP PUSH0 SWAP1 JUMP JUMPDEST SWAP2 POP PUSH2 0x1804 PUSH2 0x17FA JUMP JUMPDEST PUSH1 0xFF SWAP2 POP PUSH1 0x8 SHR AND PUSH0 PUSH2 0x1794 JUMP JUMPDEST ISZERO PUSH2 0x1860 JUMPI JUMP JUMPDEST PUSH1 0x40 MLOAD PUSH3 0x461BCD PUSH1 0xE5 SHL DUP2 MSTORE PUSH1 0x20 PUSH1 0x4 DUP3 ADD MSTORE PUSH1 0xC PUSH1 0x24 DUP3 ADD MSTORE PUSH12 0x10DD5C9D994818DB1BDCD959 PUSH1 0xA2 SHL PUSH1 0x44 DUP3 ADD MSTORE PUSH1 0x64 SWAP1 REVERT JUMPDEST SWAP1 DUP2 PUSH1 0x20 SWAP2 SUB SLT PUSH2 0x7F5 JUMPI MLOAD DUP1 ISZERO ISZERO DUP2 SUB PUSH2 0x7F5 JUMPI SWAP1 JUMP JUMPDEST ISZERO PUSH2 0x18B3 JUMPI JUMP JUMPDEST PUSH1 0x40 MLOAD PUSH3 0x461BCD PUSH1 0xE5 SHL DUP2 MSTORE PUSH1 0x20 PUSH1 0x4 DUP3 ADD MSTORE PUSH1 0x9 PUSH1 0x24 DUP3 ADD MSTORE PUSH9 0x151BDBC81CDB585B1B PUSH1 0xBA SHL PUSH1 0x44 DUP3 ADD MSTORE PUSH1 0x64 SWAP1 REVERT JUMPDEST ISZERO PUSH2 0x18EB JUMPI JUMP JUMPDEST PUSH1 0x40 MLOAD PUSH3 0x461BCD PUSH1 0xE5 SHL DUP2 MSTORE PUSH1 0x20 PUSH1 0x4 DUP3 ADD MSTORE PUSH1 0x8 PUSH1 0x24 DUP3 ADD MSTORE PUSH8 0x536C697070616765 PUSH1 0xC0 SHL PUSH1 0x44 DUP3 ADD MSTORE PUSH1 0x64 SWAP1 REVERT JUMPDEST SWAP1 SWAP5 SWAP4 SWAP3 PUSH1 0x60 SWAP3 PUSH1 0x80 DUP4 ADD SWAP7 DUP4 MSTORE PUSH1 0x20 DUP4 ADD MSTORE PUSH1 0x40 DUP3 ADD MSTORE ADD MSTORE JUMP JUMPDEST PUSH1 0x1 PUSH1 0x1 PUSH1 0xA0 SHL SUB SWAP1 SWAP2 AND DUP2 MSTORE PUSH1 0x20 DUP2 ADD SWAP2 SWAP1 SWAP2 MSTORE PUSH1 0x40 ADD SWAP1 JUMP JUMPDEST PUSH1 0x2 PUSH0 DUP1 MLOAD PUSH1 0x20 PUSH2 0x1A5D DUP4 CODECOPY DUP2 MLOAD SWAP2 MSTORE SLOAD EQ PUSH2 0x197B JUMPI PUSH1 0x2 PUSH0 DUP1 MLOAD PUSH1 0x20 PUSH2 0x1A5D DUP4 CODECOPY DUP2 MLOAD SWAP2 MSTORE SSTORE JUMP JUMPDEST PUSH4 0x3EE5AEB5 PUSH1 0xE0 SHL PUSH0 MSTORE PUSH1 0x4 PUSH0 REVERT JUMPDEST PUSH1 0xFF PUSH1 0x3 SLOAD AND PUSH2 0x19BA JUMPI PUSH1 0x2 SLOAD PUSH2 0x2710 DUP2 MUL SWAP1 DUP1 DUP3 DIV PUSH2 0x2710 EQ SWAP1 ISZERO OR ISZERO PUSH2 0x15E4 JUMPI PUSH8 0x4563918244F40000 SWAP1 DIV SWAP1 JUMP JUMPDEST PUSH2 0x2710 SWAP1 JUMP JUMPDEST PUSH1 0x1 PUSH1 0x1 PUSH1 0xA0 SHL SUB AND PUSH0 SWAP1 DUP2 MSTORE PUSH1 0x4 PUSH1 0x20 MSTORE PUSH1 0x40 SWAP1 KECCAK256 SLOAD PUSH1 0x1 PUSH1 0x1 PUSH1 0x40 SHL SUB AND DUP1 ISZERO PUSH2 0x16C2 JUMPI PUSH2 0x19F0 SWAP1 TIMESTAMP PUSH2 0x15D7 JUMP JUMPDEST PUSH2 0x12C DUP2 LT PUSH2 0x1A1C JUMPI PUSH2 0xE10 DUP2 LT PUSH2 0x1A15 JUMPI PUSH3 0x15180 GT PUSH2 0x1A0F JUMPI PUSH0 SWAP1 JUMP JUMPDEST PUSH2 0x1F4 SWAP1 JUMP JUMPDEST POP PUSH2 0x3E8 SWAP1 JUMP JUMPDEST POP PUSH2 0x7D0 SWAP1 JUMP JUMPDEST SWAP1 DUP2 PUSH1 0x20 SWAP2 SUB SLT PUSH2 0x7F5 JUMPI MLOAD PUSH1 0x1 PUSH1 0x1 PUSH1 0xA0 SHL SUB DUP2 AND DUP2 SUB PUSH2 0x7F5 JUMPI SWAP1 JUMP JUMPDEST PUSH1 0x1 PUSH1 0x1 PUSH1 0xA0 SHL SUB SWAP2 DUP3 AND DUP2 MSTORE SWAP2 AND PUSH1 0x20 DUP3 ADD MSTORE PUSH1 0x40 ADD SWAP1 JUMP INVALID SWAP12 PUSH24 0x9B17422D0DF92223018B32B4D1FA46E071723D6817E2486D STOP EXTCODESIZE 0xEC 0xC5 PUSH0 STOP LOG2 PUSH5 0x6970667358 0x22 SLT KECCAK256 PUSH23 0x113A1C40164B6A8809AFC7E12B576D3661959C4A5D4C79 0xF9 SWAP9 SDIV EXTCODECOPY PUSH0 0xC9 SELFDESTRUCT 0xE3 PUSH5 0x736F6C6343 STOP ADDMOD BYTE STOP CALLER "},"methodIdentifiers":{"BURN_BPS()":"a37a9fc0","CURVE_TOKEN_SUPPLY()":"9f870a75","GRAD_TOKEN_SUPPLY()":"c8f3bfd3","PLATFORM_BPS()":"ce91e164","REWARD_BPS()":"47b12bfc","SNIPE_BPS_1HR()":"c463ecd7","SNIPE_BPS_24HR()":"bacf2a7b","SNIPE_BPS_5MIN()":"bb103cbc","TARGET_REAL_ETH()":"94562afb","VIRTUAL_ETH()":"6700c0c3","buy(uint256)":"d96a094a","currentPrice()":"9d1b464a","factory()":"c45a0155","forceCloseAndWithdraw(address)":"50b89418","forceClosed()":"72d6e43a","getBuyAmount(uint256)":"1fb87f39","getSellAmount(uint256,address)":"71c1b833","graduated()":"e7c2b772","initToken(address)":"df4d17dc","lastBuyAt(address)":"55ee54a1","progressBps()":"6c1eba15","realEthRaised()":"130b3120","sell(uint256,uint256)":"d79875eb","stampBuyAt(address)":"d8c76c17","token()":"fc0c546a","trustedInitializer()":"9e85f9aa","uniswapFactory()":"8bdb2afa","uniswapRouter()":"735de9f7","virtualTokenReserve()":"343ee3b7"}}}}}