{"contracts/mocks/MockUniswapV2.sol":{"MockWETH":{"abi":[{"inputs":[],"name":"decimals","outputs":[{"internalType":"uint8","name":"","type":"uint8"}],"stateMutability":"view","type":"function"},{"inputs":[],"name":"deposit","outputs":[],"stateMutability":"payable","type":"function"},{"inputs":[],"name":"name","outputs":[{"internalType":"string","name":"","type":"string"}],"stateMutability":"view","type":"function"},{"inputs":[],"name":"symbol","outputs":[{"internalType":"string","name":"","type":"string"}],"stateMutability":"view","type":"function"},{"inputs":[{"internalType":"uint256","name":"","type":"uint256"}],"name":"withdraw","outputs":[],"stateMutability":"nonpayable","type":"function"}],"evm":{"bytecode":{"linkReferences":{},"object":"60806040523461010e576100135f54610112565b601f81116100c7575b507f577261707065642045746865720000000000000000000000000000000000001a5f5560015461004c90610112565b601f811161007f575b6008630ae8aa8960e31b016001556002805460ff191660121790556040516102e2908161014b8239f35b60015f52601f0160051c7fb10e2d527612073b26eecdfd717e6a320cf44b4afac2b0732d9fcbe2b7fa0cf6908101905b8181106100bc5750610055565b5f81556001016100af565b5f8052601f0160051c7f290decd9548b62a8d60345a988386fc84ba6bc95484008f6362f93160ef3e563908101905b818110610103575061001c565b5f81556001016100f6565b5f80fd5b90600182811c92168015610140575b602083101461012c57565b634e487b7160e01b5f52602260045260245ffd5b91607f169161012156fe60806040526004361015610011575f80fd5b5f3560e01c806306fdde03146101b15780632e1a7d4d1461019e578063313ce5671461017e57806395d89b41146100615763d0e30db014610050575f80fd5b5f36600319011261005d57005b5f80fd5b3461005d575f36600319011261005d576040515f6001548060011c90600181168015610174575b6020831081146101605782855290811561014457506001146100ee575b50819003601f01601f19168101906001600160401b038211818310176100da57604082905281906100d69082610282565b0390f35b634e487b7160e01b5f52604160045260245ffd5b60015f9081529091507fb10e2d527612073b26eecdfd717e6a320cf44b4afac2b0732d9fcbe2b7fa0cf65b82821061012e575060209150820101826100a5565b6001816020925483858801015201910190610119565b90506020925060ff191682840152151560051b820101826100a5565b634e487b7160e01b5f52602260045260245ffd5b91607f1691610088565b3461005d575f36600319011261005d57602060ff60025416604051908152f35b3461005d57602036600319011261005d57005b3461005d575f36600319011261005d576040515f80548060011c90600181168015610278575b6020831081146101605782855290811561014457506001146102245750819003601f01601f19168101906001600160401b038211818310176100da57604082905281906100d69082610282565b5f8080529091507f290decd9548b62a8d60345a988386fc84ba6bc95484008f6362f93160ef3e5635b828210610262575060209150820101826100a5565b600181602092548385880101520191019061024d565b91607f16916101d7565b602060409281835280519182918282860152018484015e5f828201840152601f01601f191601019056fea264697066735822122074d1bf6634c9571e18d9ed3783e13bcac30769809682130e7b526aad50d57f9964736f6c634300081a0033","opcodes":"PUSH1 0x80 PUSH1 0x40 MSTORE CALLVALUE PUSH2 0x10E JUMPI PUSH2 0x13 PUSH0 SLOAD PUSH2 0x112 JUMP JUMPDEST PUSH1 0x1F DUP2 GT PUSH2 0xC7 JUMPI JUMPDEST POP PUSH32 0x577261707065642045746865720000000000000000000000000000000000001A PUSH0 SSTORE PUSH1 0x1 SLOAD PUSH2 0x4C SWAP1 PUSH2 0x112 JUMP JUMPDEST PUSH1 0x1F DUP2 GT PUSH2 0x7F JUMPI JUMPDEST PUSH1 0x8 PUSH4 0xAE8AA89 PUSH1 0xE3 SHL ADD PUSH1 0x1 SSTORE PUSH1 0x2 DUP1 SLOAD PUSH1 0xFF NOT AND PUSH1 0x12 OR SWAP1 SSTORE PUSH1 0x40 MLOAD PUSH2 0x2E2 SWAP1 DUP2 PUSH2 0x14B DUP3 CODECOPY RETURN JUMPDEST PUSH1 0x1 PUSH0 MSTORE PUSH1 0x1F ADD PUSH1 0x5 SHR PUSH32 0xB10E2D527612073B26EECDFD717E6A320CF44B4AFAC2B0732D9FCBE2B7FA0CF6 SWAP1 DUP2 ADD SWAP1 JUMPDEST DUP2 DUP2 LT PUSH2 0xBC JUMPI POP PUSH2 0x55 JUMP JUMPDEST PUSH0 DUP2 SSTORE PUSH1 0x1 ADD PUSH2 0xAF JUMP JUMPDEST PUSH0 DUP1 MSTORE PUSH1 0x1F ADD PUSH1 0x5 SHR PUSH32 0x290DECD9548B62A8D60345A988386FC84BA6BC95484008F6362F93160EF3E563 SWAP1 DUP2 ADD SWAP1 JUMPDEST DUP2 DUP2 LT PUSH2 0x103 JUMPI POP PUSH2 0x1C JUMP JUMPDEST PUSH0 DUP2 SSTORE PUSH1 0x1 ADD PUSH2 0xF6 JUMP JUMPDEST PUSH0 DUP1 REVERT JUMPDEST SWAP1 PUSH1 0x1 DUP3 DUP2 SHR SWAP3 AND DUP1 ISZERO PUSH2 0x140 JUMPI JUMPDEST PUSH1 0x20 DUP4 LT EQ PUSH2 0x12C JUMPI JUMP JUMPDEST PUSH4 0x4E487B71 PUSH1 0xE0 SHL PUSH0 MSTORE PUSH1 0x22 PUSH1 0x4 MSTORE PUSH1 0x24 PUSH0 REVERT JUMPDEST SWAP2 PUSH1 0x7F AND SWAP2 PUSH2 0x121 JUMP INVALID PUSH1 0x80 PUSH1 0x40 MSTORE PUSH1 0x4 CALLDATASIZE LT ISZERO PUSH2 0x11 JUMPI PUSH0 DUP1 REVERT JUMPDEST PUSH0 CALLDATALOAD PUSH1 0xE0 SHR DUP1 PUSH4 0x6FDDE03 EQ PUSH2 0x1B1 JUMPI DUP1 PUSH4 0x2E1A7D4D EQ PUSH2 0x19E JUMPI DUP1 PUSH4 0x313CE567 EQ PUSH2 0x17E JUMPI DUP1 PUSH4 0x95D89B41 EQ PUSH2 0x61 JUMPI PUSH4 0xD0E30DB0 EQ PUSH2 0x50 JUMPI PUSH0 DUP1 REVERT JUMPDEST PUSH0 CALLDATASIZE PUSH1 0x3 NOT ADD SLT PUSH2 0x5D JUMPI STOP JUMPDEST PUSH0 DUP1 REVERT JUMPDEST CALLVALUE PUSH2 0x5D JUMPI PUSH0 CALLDATASIZE PUSH1 0x3 NOT ADD SLT PUSH2 0x5D JUMPI PUSH1 0x40 MLOAD PUSH0 PUSH1 0x1 SLOAD DUP1 PUSH1 0x1 SHR SWAP1 PUSH1 0x1 DUP2 AND DUP1 ISZERO PUSH2 0x174 JUMPI JUMPDEST PUSH1 0x20 DUP4 LT DUP2 EQ PUSH2 0x160 JUMPI DUP3 DUP6 MSTORE SWAP1 DUP2 ISZERO PUSH2 0x144 JUMPI POP PUSH1 0x1 EQ PUSH2 0xEE JUMPI JUMPDEST POP DUP2 SWAP1 SUB PUSH1 0x1F ADD PUSH1 0x1F NOT AND DUP2 ADD SWAP1 PUSH1 0x1 PUSH1 0x1 PUSH1 0x40 SHL SUB DUP3 GT DUP2 DUP4 LT OR PUSH2 0xDA JUMPI PUSH1 0x40 DUP3 SWAP1 MSTORE DUP2 SWAP1 PUSH2 0xD6 SWAP1 DUP3 PUSH2 0x282 JUMP JUMPDEST SUB SWAP1 RETURN JUMPDEST PUSH4 0x4E487B71 PUSH1 0xE0 SHL PUSH0 MSTORE PUSH1 0x41 PUSH1 0x4 MSTORE PUSH1 0x24 PUSH0 REVERT JUMPDEST PUSH1 0x1 PUSH0 SWAP1 DUP2 MSTORE SWAP1 SWAP2 POP PUSH32 0xB10E2D527612073B26EECDFD717E6A320CF44B4AFAC2B0732D9FCBE2B7FA0CF6 JUMPDEST DUP3 DUP3 LT PUSH2 0x12E JUMPI POP PUSH1 0x20 SWAP2 POP DUP3 ADD ADD DUP3 PUSH2 0xA5 JUMP JUMPDEST PUSH1 0x1 DUP2 PUSH1 0x20 SWAP3 SLOAD DUP4 DUP6 DUP9 ADD ADD MSTORE ADD SWAP2 ADD SWAP1 PUSH2 0x119 JUMP JUMPDEST SWAP1 POP PUSH1 0x20 SWAP3 POP PUSH1 0xFF NOT AND DUP3 DUP5 ADD MSTORE ISZERO ISZERO PUSH1 0x5 SHL DUP3 ADD ADD DUP3 PUSH2 0xA5 JUMP JUMPDEST PUSH4 0x4E487B71 PUSH1 0xE0 SHL PUSH0 MSTORE PUSH1 0x22 PUSH1 0x4 MSTORE PUSH1 0x24 PUSH0 REVERT JUMPDEST SWAP2 PUSH1 0x7F AND SWAP2 PUSH2 0x88 JUMP JUMPDEST CALLVALUE PUSH2 0x5D JUMPI PUSH0 CALLDATASIZE PUSH1 0x3 NOT ADD SLT PUSH2 0x5D JUMPI PUSH1 0x20 PUSH1 0xFF PUSH1 0x2 SLOAD AND PUSH1 0x40 MLOAD SWAP1 DUP2 MSTORE RETURN JUMPDEST CALLVALUE PUSH2 0x5D JUMPI PUSH1 0x20 CALLDATASIZE PUSH1 0x3 NOT ADD SLT PUSH2 0x5D JUMPI STOP JUMPDEST CALLVALUE PUSH2 0x5D JUMPI PUSH0 CALLDATASIZE PUSH1 0x3 NOT ADD SLT PUSH2 0x5D JUMPI PUSH1 0x40 MLOAD PUSH0 DUP1 SLOAD DUP1 PUSH1 0x1 SHR SWAP1 PUSH1 0x1 DUP2 AND DUP1 ISZERO PUSH2 0x278 JUMPI JUMPDEST PUSH1 0x20 DUP4 LT DUP2 EQ PUSH2 0x160 JUMPI DUP3 DUP6 MSTORE SWAP1 DUP2 ISZERO PUSH2 0x144 JUMPI POP PUSH1 0x1 EQ PUSH2 0x224 JUMPI POP DUP2 SWAP1 SUB PUSH1 0x1F ADD PUSH1 0x1F NOT AND DUP2 ADD SWAP1 PUSH1 0x1 PUSH1 0x1 PUSH1 0x40 SHL SUB DUP3 GT DUP2 DUP4 LT OR PUSH2 0xDA JUMPI PUSH1 0x40 DUP3 SWAP1 MSTORE DUP2 SWAP1 PUSH2 0xD6 SWAP1 DUP3 PUSH2 0x282 JUMP JUMPDEST PUSH0 DUP1 DUP1 MSTORE SWAP1 SWAP2 POP PUSH32 0x290DECD9548B62A8D60345A988386FC84BA6BC95484008F6362F93160EF3E563 JUMPDEST DUP3 DUP3 LT PUSH2 0x262 JUMPI POP PUSH1 0x20 SWAP2 POP DUP3 ADD ADD DUP3 PUSH2 0xA5 JUMP JUMPDEST PUSH1 0x1 DUP2 PUSH1 0x20 SWAP3 SLOAD DUP4 DUP6 DUP9 ADD ADD MSTORE ADD SWAP2 ADD SWAP1 PUSH2 0x24D JUMP JUMPDEST SWAP2 PUSH1 0x7F AND SWAP2 PUSH2 0x1D7 JUMP JUMPDEST PUSH1 0x20 PUSH1 0x40 SWAP3 DUP2 DUP4 MSTORE DUP1 MLOAD SWAP2 DUP3 SWAP2 DUP3 DUP3 DUP7 ADD MSTORE ADD DUP5 DUP5 ADD MCOPY PUSH0 DUP3 DUP3 ADD DUP5 ADD MSTORE PUSH1 0x1F ADD PUSH1 0x1F NOT AND ADD ADD SWAP1 JUMP INVALID LOG2 PUSH5 0x6970667358 0x22 SLT KECCAK256 PUSH21 0xD1BF6634C9571E18D9ED3783E13BCAC30769809682 SGT 0xE PUSH28 0x526AAD50D57F9964736F6C634300081A003300000000000000000000 "},"methodIdentifiers":{"decimals()":"313ce567","deposit()":"d0e30db0","name()":"06fdde03","symbol()":"95d89b41","withdraw(uint256)":"2e1a7d4d"}}}}}