{"contracts/v2/AethpadTokenV2.sol":{"AethpadTokenV2":{"abi":[{"inputs":[{"internalType":"string","name":"_name","type":"string"},{"internalType":"string","name":"_symbol","type":"string"},{"internalType":"address","name":"_factory","type":"address"},{"internalType":"address","name":"_curve","type":"address"}],"stateMutability":"nonpayable","type":"constructor"},{"inputs":[{"internalType":"address","name":"spender","type":"address"},{"internalType":"uint256","name":"allowance","type":"uint256"},{"internalType":"uint256","name":"needed","type":"uint256"}],"name":"ERC20InsufficientAllowance","type":"error"},{"inputs":[{"internalType":"address","name":"sender","type":"address"},{"internalType":"uint256","name":"balance","type":"uint256"},{"internalType":"uint256","name":"needed","type":"uint256"}],"name":"ERC20InsufficientBalance","type":"error"},{"inputs":[{"internalType":"address","name":"approver","type":"address"}],"name":"ERC20InvalidApprover","type":"error"},{"inputs":[{"internalType":"address","name":"receiver","type":"address"}],"name":"ERC20InvalidReceiver","type":"error"},{"inputs":[{"internalType":"address","name":"sender","type":"address"}],"name":"ERC20InvalidSender","type":"error"},{"inputs":[{"internalType":"address","name":"spender","type":"address"}],"name":"ERC20InvalidSpender","type":"error"},{"inputs":[],"name":"ReentrancyGuardReentrantCall","type":"error"},{"anonymous":false,"inputs":[{"indexed":true,"internalType":"address","name":"owner","type":"address"},{"indexed":true,"internalType":"address","name":"spender","type":"address"},{"indexed":false,"internalType":"uint256","name":"value","type":"uint256"}],"name":"Approval","type":"event"},{"anonymous":false,"inputs":[{"indexed":true,"internalType":"address","name":"pair","type":"address"}],"name":"Graduated","type":"event"},{"anonymous":false,"inputs":[{"indexed":true,"internalType":"address","name":"oldKeeper","type":"address"},{"indexed":true,"internalType":"address","name":"newKeeper","type":"address"}],"name":"KeeperUpdated","type":"event"},{"anonymous":false,"inputs":[{"indexed":false,"internalType":"uint256","name":"ethAmount","type":"uint256"}],"name":"PlatformFeeForwarded","type":"event"},{"anonymous":false,"inputs":[{"indexed":true,"internalType":"address","name":"user","type":"address"},{"indexed":false,"internalType":"uint256","name":"ethAmount","type":"uint256"}],"name":"RewardsClaimed","type":"event"},{"anonymous":false,"inputs":[{"indexed":false,"internalType":"uint256","name":"ethAmount","type":"uint256"},{"indexed":false,"internalType":"uint256","name":"newCumulative","type":"uint256"}],"name":"RewardsDeposited","type":"event"},{"anonymous":false,"inputs":[{"indexed":false,"internalType":"uint256","name":"holderCount","type":"uint256"},{"indexed":false,"internalType":"uint256","name":"totalEthSent","type":"uint256"}],"name":"RewardsPushed","type":"event"},{"anonymous":false,"inputs":[{"indexed":true,"internalType":"address","name":"from","type":"address"},{"indexed":true,"internalType":"address","name":"to","type":"address"},{"indexed":false,"internalType":"uint256","name":"burnAmt","type":"uint256"},{"indexed":false,"internalType":"uint256","name":"rewardAmt","type":"uint256"},{"indexed":false,"internalType":"uint256","name":"platformAmt","type":"uint256"}],"name":"TaxTaken","type":"event"},{"anonymous":false,"inputs":[{"indexed":true,"internalType":"address","name":"from","type":"address"},{"indexed":true,"internalType":"address","name":"to","type":"address"},{"indexed":false,"internalType":"uint256","name":"value","type":"uint256"}],"name":"Transfer","type":"event"},{"inputs":[],"name":"BURN_BPS","outputs":[{"internalType":"uint256","name":"","type":"uint256"}],"stateMutability":"view","type":"function"},{"inputs":[],"name":"CURVE_SUPPLY","outputs":[{"internalType":"uint256","name":"","type":"uint256"}],"stateMutability":"view","type":"function"},{"inputs":[],"name":"DEAD","outputs":[{"internalType":"address","name":"","type":"address"}],"stateMutability":"view","type":"function"},{"inputs":[],"name":"GRAD_SUPPLY","outputs":[{"internalType":"uint256","name":"","type":"uint256"}],"stateMutability":"view","type":"function"},{"inputs":[],"name":"PLATFORM_BPS","outputs":[{"internalType":"uint256","name":"","type":"uint256"}],"stateMutability":"view","type":"function"},{"inputs":[],"name":"REWARD_BPS","outputs":[{"internalType":"uint256","name":"","type":"uint256"}],"stateMutability":"view","type":"function"},{"inputs":[],"name":"SNIPE_BPS_1HR","outputs":[{"internalType":"uint256","name":"","type":"uint256"}],"stateMutability":"view","type":"function"},{"inputs":[],"name":"SNIPE_BPS_24HR","outputs":[{"internalType":"uint256","name":"","type":"uint256"}],"stateMutability":"view","type":"function"},{"inputs":[],"name":"SNIPE_BPS_5MIN","outputs":[{"internalType":"uint256","name":"","type":"uint256"}],"stateMutability":"view","type":"function"},{"inputs":[],"name":"TOTAL_SUPPLY","outputs":[{"internalType":"uint256","name":"","type":"uint256"}],"stateMutability":"view","type":"function"},{"inputs":[],"name":"TOTAL_TAX_BPS","outputs":[{"internalType":"uint256","name":"","type":"uint256"}],"stateMutability":"view","type":"function"},{"inputs":[{"internalType":"address","name":"owner","type":"address"},{"internalType":"address","name":"spender","type":"address"}],"name":"allowance","outputs":[{"internalType":"uint256","name":"","type":"uint256"}],"stateMutability":"view","type":"function"},{"inputs":[{"internalType":"address","name":"seller","type":"address"}],"name":"antiSnipeBpsFor","outputs":[{"internalType":"uint256","name":"","type":"uint256"}],"stateMutability":"view","type":"function"},{"inputs":[{"internalType":"address","name":"spender","type":"address"},{"internalType":"uint256","name":"value","type":"uint256"}],"name":"approve","outputs":[{"internalType":"bool","name":"","type":"bool"}],"stateMutability":"nonpayable","type":"function"},{"inputs":[{"internalType":"address","name":"account","type":"address"}],"name":"balanceOf","outputs":[{"internalType":"uint256","name":"","type":"uint256"}],"stateMutability":"view","type":"function"},{"inputs":[{"internalType":"uint256","name":"amount","type":"uint256"}],"name":"burnFromCurve","outputs":[],"stateMutability":"nonpayable","type":"function"},{"inputs":[{"internalType":"address","name":"","type":"address"}],"name":"checkpoints","outputs":[{"internalType":"uint128","name":"balance","type":"uint128"},{"internalType":"uint64","name":"lastUpdate","type":"uint64"},{"internalType":"uint64","name":"lastBuyAt","type":"uint64"},{"internalType":"uint256","name":"accumulatedScore","type":"uint256"},{"internalType":"uint256","name":"ethPerScorePaid","type":"uint256"},{"internalType":"uint256","name":"pendingEth","type":"uint256"}],"stateMutability":"view","type":"function"},{"inputs":[],"name":"claim","outputs":[],"stateMutability":"nonpayable","type":"function"},{"inputs":[],"name":"cumulativeEthPerScore","outputs":[{"internalType":"uint256","name":"","type":"uint256"}],"stateMutability":"view","type":"function"},{"inputs":[],"name":"curve","outputs":[{"internalType":"address","name":"","type":"address"}],"stateMutability":"view","type":"function"},{"inputs":[],"name":"decimals","outputs":[{"internalType":"uint8","name":"","type":"uint8"}],"stateMutability":"view","type":"function"},{"inputs":[],"name":"depositEthPlatform","outputs":[],"stateMutability":"payable","type":"function"},{"inputs":[],"name":"depositEthReward","outputs":[],"stateMutability":"payable","type":"function"},{"inputs":[],"name":"factory","outputs":[{"internalType":"address","name":"","type":"address"}],"stateMutability":"view","type":"function"},{"inputs":[],"name":"graduated","outputs":[{"internalType":"bool","name":"","type":"bool"}],"stateMutability":"view","type":"function"},{"inputs":[{"internalType":"address","name":"user","type":"address"}],"name":"holdScore","outputs":[{"internalType":"uint256","name":"","type":"uint256"}],"stateMutability":"view","type":"function"},{"inputs":[{"internalType":"address","name":"","type":"address"}],"name":"isExcluded","outputs":[{"internalType":"bool","name":"","type":"bool"}],"stateMutability":"view","type":"function"},{"inputs":[],"name":"keeper","outputs":[{"internalType":"address","name":"","type":"address"}],"stateMutability":"view","type":"function"},{"inputs":[],"name":"name","outputs":[{"internalType":"string","name":"","type":"string"}],"stateMutability":"view","type":"function"},{"inputs":[{"internalType":"address","name":"_pair","type":"address"},{"internalType":"address","name":"_router","type":"address"}],"name":"notifyGraduated","outputs":[],"stateMutability":"nonpayable","type":"function"},{"inputs":[{"internalType":"address","name":"user","type":"address"}],"name":"pendingRewards","outputs":[{"internalType":"uint256","name":"","type":"uint256"}],"stateMutability":"view","type":"function"},{"inputs":[{"internalType":"address[]","name":"holders","type":"address[]"}],"name":"pushRewards","outputs":[],"stateMutability":"nonpayable","type":"function"},{"inputs":[{"internalType":"address","name":"account","type":"address"},{"internalType":"bool","name":"excluded","type":"bool"}],"name":"setExcluded","outputs":[],"stateMutability":"nonpayable","type":"function"},{"inputs":[{"internalType":"address","name":"newKeeper","type":"address"}],"name":"setKeeper","outputs":[],"stateMutability":"nonpayable","type":"function"},{"inputs":[{"internalType":"uint256","name":"newThreshold","type":"uint256"}],"name":"setSwapThreshold","outputs":[],"stateMutability":"nonpayable","type":"function"},{"inputs":[],"name":"swapThreshold","outputs":[{"internalType":"uint256","name":"","type":"uint256"}],"stateMutability":"view","type":"function"},{"inputs":[],"name":"symbol","outputs":[{"internalType":"string","name":"","type":"string"}],"stateMutability":"view","type":"function"},{"inputs":[],"name":"totalAccumulatedScore","outputs":[{"internalType":"uint256","name":"","type":"uint256"}],"stateMutability":"view","type":"function"},{"inputs":[],"name":"totalHoldScoreLive","outputs":[{"internalType":"uint256","name":"","type":"uint256"}],"stateMutability":"view","type":"function"},{"inputs":[],"name":"totalLastUpdate","outputs":[{"internalType":"uint256","name":"","type":"uint256"}],"stateMutability":"view","type":"function"},{"inputs":[],"name":"totalSettledBalance","outputs":[{"internalType":"uint256","name":"","type":"uint256"}],"stateMutability":"view","type":"function"},{"inputs":[],"name":"totalSupply","outputs":[{"internalType":"uint256","name":"","type":"uint256"}],"stateMutability":"view","type":"function"},{"inputs":[{"internalType":"address","name":"to","type":"address"},{"internalType":"uint256","name":"value","type":"uint256"}],"name":"transfer","outputs":[{"internalType":"bool","name":"","type":"bool"}],"stateMutability":"nonpayable","type":"function"},{"inputs":[{"internalType":"address","name":"from","type":"address"},{"internalType":"address","name":"to","type":"address"},{"internalType":"uint256","name":"value","type":"uint256"}],"name":"transferFrom","outputs":[{"internalType":"bool","name":"","type":"bool"}],"stateMutability":"nonpayable","type":"function"},{"inputs":[],"name":"uniswapPair","outputs":[{"internalType":"address","name":"","type":"address"}],"stateMutability":"view","type":"function"},{"inputs":[],"name":"uniswapRouter","outputs":[{"internalType":"contract IUniswapV2Router02","name":"","type":"address"}],"stateMutability":"view","type":"function"},{"stateMutability":"payable","type":"receive"}],"evm":{"bytecode":{"linkReferences":{},"object":"60c060409080825234620007315762003620803803809162000022828562000736565b83398101608082820312620007315781516001600160401b03908181116200073157826200005291850162000776565b91602090818501519083821162000731576200007091860162000776565b916200008c606062000084888801620007e0565b9601620007e0565b928451828111620006315760038054916001978884811c9416801562000726575b8785101462000710578190601f94858111620006ba575b508790858311600114620006535760009262000647575b505060001982841b1c191690881b1781555b825191848311620006315760049384548981811c9116801562000626575b8882101462000611579081838695949311620005b7575b50879184116001146200054c5760009362000540575b505082881b92600019911b1c19161781555b7f9b779b17422d0df92223018b32b4d1fa46e071723d6817e2486d003becc55f0085905569152d02c7e14af6800000600755608086905260a08490526001600160a01b039384811692831562000529576b033b2e3c9fd0803ce800000090620001b38362000909565b600554938760ff95868116806200051c575b8062000505575b80620004ee575b62000342575b5050505081620001f3620001f992600e979695946200087f565b62000a20565b84600554828116928362000334575b508262000324575b5050806200030b575b80620002fd575b620002ed575b60005252836000209260ff199383858254161790551660005282600020818382541617905561dead6000528260002081838254161790553060005282600020818382541617905560008052826000209182541617905542600b55516125289081620010b882396080518181816106ed015281816107c60152818161092d01528181610af40152818161107e0152612147015260a05181818161059a0152818161078e015281816108b601528181610b9601528181610c3a01528181611c2c0152611dbb0152f35b620002f762000c9a565b62000226565b508360065416151562000220565b5030600052600082528660002054600754111562000219565b60081c1615159050843862000210565b600854161592503862000208565b60081c16918215928714838415620004e6575b62000364575b899150620001d9565b6000949192939490620004d5575b6101f4908101809111620004c0578082029082820403620004c057612710900492600254936a0c685fa11e01ec6f00000094858101809111620004ab576002558d6000600080516020620036008339815191528c61dead938484528382528084208a815401905551898152a36a0c685fa11e01ec6effffff198101818111620004ab578062000498575b508203918211620004835750928660007fe9bc91a33ddf896d889747b2f39f4192c802fd62364780086853fcd8e19e8ffa60608f96838d9c9b9a9881600e9f620001f39a620001f99d9a62000465575b508251948552840152820152a39282949596976200035b565b6200047c908a84526009835242168484206200085c565b386200044c565b601190634e487b7160e01b6000525260246000fd5b620004a490306200087f565b38620003fc565b601183634e487b7160e01b6000525260246000fd5b601184634e487b7160e01b6000525260246000fd5b50620004e062000c1c565b62000372565b508062000355565b5087600052600e8952868d600020541615620001d3565b5060008052600e8952868d600020541615620001cc565b50866008541615620001c5565b885163ec442f0560e01b8152600081850152602490fd5b01519150388062000138565b9190899450601f1984169286600052886000209360005b8a828210620005a0575050851162000585575b50505050811b0181556200014a565b01519060f884600019921b161c191690553880808062000576565b8385015187558d9890960195938401930162000563565b909192935085600052876000208380870160051c8201928a881062000607575b918c918897969594930160051c01915b828110620005f757505062000122565b600081558796508c9101620005e7565b92508192620005d7565b602286634e487b7160e01b6000525260246000fd5b90607f16906200010b565b634e487b7160e01b600052604160045260246000fd5b015190503880620000db565b908a9350601f1983169185600052896000209260005b8b828210620006a357505084116200068a575b505050811b018155620000ed565b015160001983861b60f8161c191690553880806200067c565b8385015186558e9790950194938401930162000669565b90915083600052876000208580850160051c8201928a861062000706575b918c91869594930160051c01915b828110620006f6575050620000c4565b600081558594508c9101620006e6565b92508192620006d8565b634e487b7160e01b600052602260045260246000fd5b93607f1693620000ad565b600080fd5b601f909101601f19168101906001600160401b038211908210176200063157604052565b6001600160401b0381116200063157601f01601f191660200190565b919080601f84011215620007315782519062000792826200075a565b91620007a2604051938462000736565b808352602091828287010111620007315760005b818110620007cc57508260009394955001015290565b8581018301518482018401528201620007b6565b51906001600160a01b03821682036200073157565b919082018092116200080357565b634e487b7160e01b600052601160045260246000fd5b818102929181159184041417156200080357565b811562000838570490565b634e487b7160e01b600052601260045260246000fd5b919082039182116200080357565b80546001600160c01b031660c09290921b6001600160c01b031916919091179055565b600080516020620036008339815191526020600092620008a285600254620007f5565b6002556001600160a01b03169384158414620008ca5780600254036002555b604051908152a3565b84845283825260408420818154019055620008c1565b8054600160801b600160c01b03191660809290921b600160801b600160c01b0316919091179055565b6200091481620009f2565b15620009ef576001600160a01b031660009081526009602052604090208054620009b391906001600160401b03906200097d62000958608083901c8416426200084e565b6001850180549093909162000976916001600160801b031662000819565b90620007f5565b90600d546200099360028601918254906200084e565b80151580620009e5575b620009b5575b50600d54905555421690620008e0565b565b620009ca670de0b6b3a7640000918562000819565b04620009dc60038701918254620007f5565b905538620009a3565b508315156200099d565b50565b6001600160a01b0316801515908162000a09575090565b9050600052600e60205260ff604060002054161590565b62000a2b81620009f2565b15620009ef576001600160a01b039081166000818152600960205260408120929162000a5662000bc6565b81526020819052604081205483546001600160801b039081168083109391929190848062000bbc575b62000b64575b82818111958660001462000b1f575062000aaf92509062000aa6916200084e565b600c54620007f5565b600c555b84546001600160801b0319169116178355426001600160401b03169162000adb8385620008e0565b60ff6005541615918262000b16575b508162000b07575b5062000afc575050565b620009b3916200085c565b905060a0511633143862000af2565b91503862000aea565b62000b2e575b50505062000ab3565b62000b39916200084e565b600c5481811062000b5c5762000b5092506200084e565b600c5538808262000b25565b505062000b50565b6001870180549062000b8e62000b868462000b80888662000819565b6200082d565b80936200084e565b600a54811162000bb15762000ba690600a546200084e565b600a555b5562000a85565b5083600a5562000baa565b5080151562000a7f565b62000bd4600b54426200084e565b8015158062000c10575b62000beb575b5042600b55565b62000bfd62000c0691600c5462000819565b600a54620007f5565b600a553862000be4565b50600c54151562000bde565b6000805260096020527fec8156718a8372b1db44bb411437d0870f3e3790d4a08526d024ce1b0b668f6b5460c01c801562000c945762000c5d90426200084e565b61012c811062000c8d57610e10811062000c8657620151801162000c8057600090565b6101f490565b506103e890565b506107d090565b50600090565b60009060ff198060085416926001908185176008553081526020818152604091828120549687156200100e57508251936001600160401b03606086018181118782101762000ffa578552600286528386019885368b3786511562000fe657308a5260065486516315ab88c960e31b815260049b6001600160a01b0399929091908a169088818f81855afa90811562000fdc57889162000f9f575b50835187101562000f8b578a1689840152301562000f7457801562000f5d573087528588528887208188528852838988205588518481527f8c5be1e5ebec7d5bd14f71427d1e84f3dd0314c0f7b2291e5b200ac8c7c3b925893092a34794896006541692833b1562000f5957895163791ac94760e01b8152808f01959095526024850188905260a060448601525160a4850181905287938593909260c4850192868c8f5b83831062000f3c575050505050508383809230606483015242608483015203925af1918262000f14575b505062000e1b575b505050505090915060085416600855565b62000e2790476200084e565b908115801562000e39575b5062000e0a565b6003830290838204600314171562000f015762000e7696979850600762000e63910480936200084e565b948262000e84575b50505050506200101b565b819038808080808062000e32565b818080858194608051165af1903d1562000efa573d9062000ea5826200075a565b9162000eb48751938462000736565b8252843d92013e5b62000eca575b808062000e6b565b7f693f9dbea0bdf9b70d480f9527e567d17ae3a41a5627c6515b034ac1869cf7a09251908152a138808062000ec2565b5062000ebc565b634e487b7160e01b825260118952602482fd5b819492941162000f2957855291388062000e02565b634e487b7160e01b825260418a52602482fd5b85511686528c9850899750948501949093019282018c8f62000dd8565b8780fd5b8851634a1406b160e11b8152808e01889052602490fd5b885163e602df0560e01b8152808e01889052602490fd5b50634e487b7160e01b875260328d52602487fd5b90508881813d831162000fd4575b62000fb9818362000736565b8101031262000f595762000fcd90620007e0565b3862000d34565b503d62000fad565b8a513d8a823e3d90fd5b634e487b7160e01b84526032600452602484fd5b634e487b7160e01b84526041600452602484fd5b9596505050505050600855565b8015620009ef576200102c62000bc6565b600a549081156200109257670de0b6b3a7640000810290670de0b6b3a763ffff198183040162000803576200108162001078600080516020620035e0833981519152946040946200082d565b600d54620007f5565b80600d5582519182526020820152a1565b600080516020620035e08339815191529150604090600d5482519182526020820152a156fe608060409080825260049182361015610023575b505050361561002157600080fd5b005b600091823560e01c90816303fd2a4514611346575080630445b6671461132857806306fdde031461125157806307c9bf2e14611219578063095ea7b3146111f057806318160ddd146111d25780631e4c7292146111ad57806323b872dd146110c35780632836be2414611047578063313ce5671461102c57806331d7a2621461100757806347b12bfc14610fec5780634e71d92d14610eff5780635b09004414610c1957806364229d6814610bfb57806370a0823114610bc55780637165485d14610b82578063735de9f714610b5a578063748747e614610acb578063902d55a514610aa657806395d89b41146109c157806398aecb671461099c5780639d0014b1146109115780639d6eadc1146108f3578063a37a9fc0146104cd578063a47541ba146108a4578063a8355c8f14610756578063a9059cbb14610874578063aced16611461084c578063b78d053814610772578063bacf2a7b14610756578063bb103cbc1461073a578063c1db40151461071c578063c45a0155146106d9578063c463ecd7146106bd578063c5f27b301461069f578063c5f509d61461067a578063c7b1280114610567578063c816841b1461053b578063ca81eb661461050f578063cba0e996146104d2578063ce91e164146104cd578063dbb51d6e14610453578063dd62ed3e1461040b578063e7c2b772146103e85763f6ceefa20361001357346103e4576020806003193601126103e0576001600160401b03908435908282116103dc57366023830112156103dc57818601359283116103dc5760059260243682861b85018201116103d85761027b612287565b600f546001600160a01b039890891633036103aa575086938795885b8481106102e257897f0f80654923fb0c7f7a44c79b000dca8e52e2f4a16092a26ff31c0a410291d3318a8a8a8a8351928352820152a160016000805160206124d38339815191525580f35b8381839998991b840101358b8116908181036103a65761030181611b27565b156103985761030f90611aa8565b808b526009875260038a8c2001988954998c8b15610389578080808e818655875af16103396117b3565b5015610379575090600080516020612453833981519152886103686103628d61037497966113f8565b9b6122b7565b9b8d51908152a26122b7565b610297565b61037493925099909899556122b7565b505097985050610374906122b7565b5050610374909796976122b7565b8b80fd5b600b6064928589519362461bcd60e51b85528401528201526a27b7363c9035b2b2b832b960a91b6044820152fd5b8680fd5b8480fd5b8280fd5b5080fd5b50346103e457816003193601126103e45760209060ff6005541690519015158152f35b50346103e457806003193601126103e457806020926104286113ab565b6104306113c6565b6001600160a01b0391821683526001865283832091168252845220549051908152f35b50346103e45760203660031901126103e45760c09181906001600160a01b0361047a6113ab565b168152600960205220908154916001810154600360028301549201549280519460018060801b038116865260018060401b038160801c166020870152861c908501526060840152608083015260a0820152f35b6113dc565b50346103e45760203660031901126103e45760209160ff9082906001600160a01b036104fc6113ab565b168152600e855220541690519015158152f35b50346103e45760203660031901126103e45760209061053461052f6113ab565b611f4e565b9051908152f35b50346103e457816003193601126103e457600554905160089190911c6001600160a01b03168152602090f35b508290346103e057806003193601126103e0576105826113ab565b9161058b6113c6565b6001600160a01b03916105c1337f000000000000000000000000000000000000000000000000000000000000000085161461177a565b6005549060ff821661064357506001600160a81b031916600885901b610100600160a81b031617600117600555600680546001600160a01b03191691831691909117905591909116808352600e602052908220805460ff191690557fc5ca2014458d93c5cf9f836ff7ece45de01c929dfb16eed9d6c3329fa1fd09828280a280f35b606490602086519162461bcd60e51b83528201526011602482015270105b1c9958591e4819dc98591d585d1959607a1b6044820152fd5b50346103e45760203660031901126103e45760209061053461069a6113ab565b61237d565b50346103e457816003193601126103e457602090600d549051908152f35b50346103e457816003193601126103e457602090516103e88152f35b50346103e457816003193601126103e457517f00000000000000000000000000000000000000000000000000000000000000006001600160a01b03168152602090f35b50346103e457816003193601126103e457602090600a549051908152f35b50346103e457816003193601126103e457602090516107d08152f35b50346103e457816003193601126103e457602090516101f48152f35b5082826003193601126103e057826001600160a01b036107b5337f000000000000000000000000000000000000000000000000000000000000000083161461177a565b346107be575080f35b8180809234907f0000000000000000000000000000000000000000000000000000000000000000165af16107f06117b3565b5015610814575060206000805160206124138339815191529151348152a181808280f35b6020606492519162461bcd60e51b83528201526013602482015272141b185d199bdc9b48199dd90819985a5b1959606a1b6044820152fd5b50346103e457816003193601126103e457600f5490516001600160a01b039091168152602090f35b50346103e457806003193601126103e45760209061089d6108936113ab565b6024359033611454565b5160018152f35b82806003193601126108f0576108e4337f00000000000000000000000000000000000000000000000000000000000000006001600160a01b03161461177a565b6108ed34611ebd565b80f35b80fd5b50346103e457816003193601126103e457602090600b549051908152f35b5082346103e05760203660031901126103e05780359161095b337f00000000000000000000000000000000000000000000000000000000000000006001600160a01b0316146123d7565b821561096957505060075580f35b906020606492519162461bcd60e51b8352820152600d60248201526c109859081d1a1c995cda1bdb19609a1b6044820152fd5b50346103e457816003193601126103e457602090516aa56fa5b99019a5c80000008152f35b50346103e457816003193601126103e457805191809380549160019083821c92828516948515610a9c575b6020958686108114610a8957858952908115610a655750600114610a2a575b610a268787610a1c828c038361141b565b5191829182611362565b0390f35b9080949750528583205b828410610a525750505082610a2694610a1c92820101943880610a0b565b8054868501880152928601928101610a34565b60ff19168887015250505050151560051b8301019250610a1c82610a263880610a0b565b634e487b7160e01b845260228352602484fd5b93607f16936109ec565b50346103e457816003193601126103e45751676765c793fa10079d601b1b8152602090f35b82346108f05760203660031901126108f057610ae56113ab565b6001600160a01b0390610b1b337f00000000000000000000000000000000000000000000000000000000000000008416146123d7565b81600f549116809282167f53d3703fe259def57584466f32d1b94c30278008c683c21b04501c4966f13a698580a36001600160a01b03191617600f5580f35b50346103e457816003193601126103e45760065490516001600160a01b039091168152602090f35b50346103e457816003193601126103e457517f00000000000000000000000000000000000000000000000000000000000000006001600160a01b03168152602090f35b50346103e45760203660031901126103e45760209181906001600160a01b03610bec6113ab565b16815280845220549051908152f35b50346103e457816003193601126103e457602090600c549051908152f35b50346103e4576020806003193601126103e0578335916001600160a01b03917f000000000000000000000000000000000000000000000000000000000000000083811690610c6833831461177a565b8515978815610c75578780f35b8215610ee8578698610c8683611aa8565b610c8e6119dd565b6005549760ff9889811680610edc575b80610ec8575b80610eb2575b610d59575b5050505080610cc78899610ccc939996979899611855565b611cf4565b610cd4611b54565b6005548681169687610d4c575b5086610d3c575b505084610d26575b50505081610d18575b50610d0b575b80388080808080808780f35b610d13611fb3565b610cff565b905060065416151538610cf9565b3082525283205460075411159150388381610cf0565b60081c8516141594503880610ce8565b6008541615965038610ce1565b60081c88168581149261dead92918314848015610eab575b610d7d575b5050610caf565b90919293949c508b90610e9c575b6101f4908101809111610e8957610da890612710918291856117f2565b049160968402908482046096141715610e75578c9d506060610ccc9796948a8c9d9e9f809d610e08610cc79a988e986000805160206124b38339815191529804958d8780610e65575b610dfb9084611825565b80610e53575b5050611825565b98610e2e575b915050519081528b8b8201528b8d820152a3999897969582933880610d76565b878252600990925220610e4b90426001600160401b031690611832565b8a8c8e610e0e565b610e5e9130906118f0565b8d38610e01565b610e6e91611855565b8d87610df1565b50634e487b7160e01b8c5260118d5260248cfd5b634e487b7160e01b8c5260118d5260248cfd5b50610ea685611f4e565b610d8b565b5080610d71565b5061dead8b52600e875289888c20541615610caa565b50858b52600e875289888c20541615610ca4565b50896008541615610c9e565b8451634b637e8f60e11b8152908101889052602490fd5b508290346103e057826003193601126103e057610f1a612287565b610f2333611aa8565b3383526009602052600381842001918254928315610fb6578490558380808086335af1610f4e6117b3565b5015610f8257505190815260008051602061245383398151915260203392a260016000805160206124d38339815191525580f35b6020606492519162461bcd60e51b8352820152600f60248201526e115512081cd95b990819985a5b1959608a1b6044820152fd5b506020606492519162461bcd60e51b8352820152601060248201526f4e6f7468696e6720746f20636c61696d60801b6044820152fd5b50346103e457816003193601126103e4576020905160c88152f35b50346103e45760203660031901126103e4576020906105346110276113ab565b6122c6565b50346103e457816003193601126103e4576020905160128152f35b50346103e457806003193601126103e4576110606113ab565b90602435918215158093036110bf576001600160a01b03906110a5337f00000000000000000000000000000000000000000000000000000000000000008416146123d7565b168352600e60205282209060ff8019835416911617905580f35b8380fd5b509190346108f05760603660031901126108f0576110df6113ab565b6110e76113c6565b916044359360018060a01b038316808352600160205286832033845260205286832054916000198310611123575b60208861089d898989611454565b86831061118b57811561117457331561115d5750825260016020908152868320338452815291869020908590039055829061089d38611115565b8751634a1406b160e11b8152908101849052602490fd5b875163e602df0560e01b8152908101849052602490fd5b90506111a9868851938493637dc7a0d960e11b85523390850161175c565b0390fd5b50346103e457816003193601126103e457516714adf4b7320334b9601d1b8152602090f35b50346103e457816003193601126103e4576020906002549051908152f35b50346103e457806003193601126103e45760209061089d61120f6113ab565b60243590336116c9565b50346103e457816003193601126103e45760209061053461123c600b5442611825565b61124b600a5491600c546117f2565b906113f8565b508290346103e057826003193601126103e057805191836003549060019082821c92828116801561131e575b602095868610821461130b57508488529081156112e957506001146112ae575b610a268686610a1c828b038361141b565b929550600383528583205b8284106112d65750505082610a2694610a1c92820101948661129d565b80548685018801529286019281016112b9565b60ff191687860152505050151560051b8301019250610a1c82610a268661129d565b634e487b7160e01b845260229052602483fd5b93607f169361127d565b50346103e457816003193601126103e4576020906007549051908152f35b8390346103e457816003193601126103e4578061dead60209252f35b6020808252825181830181905290939260005b82811061139757505060409293506000838284010152601f8019910116010190565b818101860151848201604001528501611375565b600435906001600160a01b03821682036113c157565b600080fd5b602435906001600160a01b03821682036113c157565b346113c15760003660031901126113c157602060405160968152f35b9190820180921161140557565b634e487b7160e01b600052601160045260246000fd5b601f909101601f19168101906001600160401b0382119082101761143e57604052565b634e487b7160e01b600052604160045260246000fd5b6001600160a01b039291838216919082156116b05784811691821561169757849261147e82611aa8565b61148783611aa8565b600554958760ff978881168061168b575b80611673575b8061165b575b61153a575b5050505080610cc76114bf9484610cc7946118f0565b600554828116928361152d575b508261151d575b50509081611501575b816114f3575b506114e957565b6114f1611fb3565b565b9050600654161515386114e2565b90503060005260006020526040600020546007541115906114dc565b60081c83161415905038806114d3565b60085416159250386114cc565b60081c1682811491908714808015611654575b61155a575b8991506114a9565b909193929550600093611643575b6101f49384018094116114055761158593612710948591846117f2565b04956096830283810460961484151715611405576000805160206124b38339815191526060610cc7956115d96114bf9b610cc79a8e96049283611634575b6115cd8483611825565b80611623575b50611825565b956115fc575b6040519081526000602082015260006040820152a3948293611552565b600085815260096020526040902061161e90426001600160401b031690611832565b6115df565b61162e90308d6118f0565b386115d3565b61163e848c611855565b6115c3565b925061164e82611f4e565b92611568565b508261154d565b5083600052600e6020528860406000205416156114a4565b5087600052600e60205288604060002054161561149e565b50886008541615611498565b60405163ec442f0560e01b815260006004820152602490fd5b604051634b637e8f60e11b815260006004820152602490fd5b6001600160a01b03908116918215611743571691821561172a5760207f8c5be1e5ebec7d5bd14f71427d1e84f3dd0314c0f7b2291e5b200ac8c7c3b925918360005260018252604060002085600052825280604060002055604051908152a3565b604051634a1406b160e11b815260006004820152602490fd5b60405163e602df0560e01b815260006004820152602490fd5b604091949392606082019560018060a01b0316825260208201520152565b1561178157565b60405162461bcd60e51b815260206004820152600a6024820152694f6e6c7920637572766560b01b6044820152606490fd5b3d156117ed573d906001600160401b03821161143e57604051916117e1601f8201601f19166020018461141b565b82523d6000602084013e565b606090565b8181029291811591840414171561140557565b811561180f570490565b634e487b7160e01b600052601260045260246000fd5b9190820391821161140557565b80546001600160c01b031660c09290921b6001600160c01b031916919091179055565b6001600160a01b03811690816118a75750611872826002546113f8565b6002555b600080516020612493833981519152602061dead9384600052600082526040600020818154019055604051908152a3565b600090828252816020526040822054908482106118d35750836040918484528360205203912055611876565b6111a98560405193849363391434e360e21b85526004850161175c565b6001600160a01b0380821692909183611958575060008051602061249383398151915291602091611923866002546113f8565b6002555b1693846119405780600254036002555b604051908152a3565b84600052600082526040600020818154019055611937565b60009084825281602052604082205490868210611997575091816040876020958860008051602061249383398151915298965283875203912055611927565b6111a98760405193849363391434e360e21b85526004850161175c565b8054600160801b600160c01b03191660809290921b600160801b600160c01b0316919091179055565b6119e5611af3565b156114f15761dead600052600960205260008051602061243383398151915280546114f191906001600160401b0390611a43611a27608083901c841642611825565b6001850180549093909161124b916001600160801b03166117f2565b90600d54611a576002860191825490611825565b80151580611a9f575b611a74575b50600d549055554216906119b4565b611a87670de0b6b3a764000091856117f2565b04611a97600387019182546113f8565b905538611a65565b50831515611a60565b611ab181611b27565b15611af0576001600160a01b0316600090815260096020526040902080546114f191906001600160401b0390611a43611a27608083901c841642611825565b50565b61dead600052600e6020527ff77e91909e61d18f67b875b2bfcae1f683a8d555e55382e3a6b082e2c59ea57a5460ff161590565b6001600160a01b03168015159081611b3d575090565b9050600052600e60205260ff604060002054161590565b611b5c611af3565b156114f15761dead6000818152600960205260008051602061243383398151915291611b86611e71565b81526020819052604081205482546001600160801b0390811680831093919291908480611ceb575b611c9e575b828181119586600014611c625750611bd8925090611bd091611825565b600c546113f8565b600c555b83546001600160801b0319169116178255426001600160401b031690611c0282846119b4565b60ff60055416159081611c5a575b5080611c28575b611c1f575050565b6114f191611832565b50337f00000000000000000000000000000000000000000000000000000000000000006001600160a01b031614611c17565b905038611c10565b611c6f575b505050611bdc565b611c7891611825565b600c54818110611c9757611c8c9250611825565b600c55388082611c67565b5050611c8c565b60018601805490611cc2611cbb84611cb688866117f2565b611805565b8093611825565b600a548111611ce157611cd790600a54611825565b600a555b55611bb3565b5083600a55611cdb565b50801515611bae565b611cfd81611b27565b15611af0576001600160a01b0390811660008181526009602052604081209291611d25611e71565b81526020819052604081205483546001600160801b0390811680831093919291908480611e68575b611e27575b828181119586600014611deb5750611d6f925090611bd091611825565b600c555b84546001600160801b0319169116178355426001600160401b031691611d9983856119b4565b60ff60055416159182611de3575b5081611db7575b50611c1f575050565b90507f000000000000000000000000000000000000000000000000000000000000000016331438611dae565b915038611da7565b611df8575b505050611d73565b611e0191611825565b600c54818110611e2057611e159250611825565b600c55388082611df0565b5050611e15565b60018701805490611e3f611cbb84611cb688866117f2565b600a548111611e5e57611e5490600a54611825565b600a555b55611d52565b5083600a55611e58565b50801515611d4d565b611e7d600b5442611825565b80151580611eb2575b611e92575b5042600b55565b611ea1611ea991600c546117f2565b600a546113f8565b600a5538611e8b565b50600c541515611e86565b8015611af057611ecb611e71565b600a54908115611f2a57670de0b6b3a7640000810290670de0b6b3a763ffff198183040161140557611f19611f1160008051602061247383398151915294604094611805565b600d546113f8565b80600d5582519182526020820152a1565b6000805160206124738339815191529150604090600d5482519182526020820152a1565b6001600160a01b031660009081526009602052604090205460c01c8015611fad57611f799042611825565b61012c8110611fa657610e108110611f9f576201518011611f9957600090565b6101f490565b506103e890565b506107d090565b50600090565b60009060ff198060085416600180821760085530855260208581526040918287205493841561227a575082516001600160401b039060608101828111828210176122665785526002815283810195853688378151156122525730875260065486516315ab88c960e31b81526001600160a01b0398918916908781600481855afa908115612248578d91612212575b5084518710156121fe5761205d918a8592168a870152306116c9565b4794886006541692833b156121fa57885163791ac94760e01b81526004810191909152602481018d905260a06044820152935160a485018190528c938593909260c4850192868b8e5b8383106121d6575050505050508383809230606483015242608483015203925af191826121af575b50506120e5575b5050505090915060085416600855565b6120ef9047611825565b801580156120fe575b506120d5565b6003820290828204600314171561219b57966121236007612134979899048093611825565b9482612140575b5050505050611ebd565b819038808080806120f8565b81808481937f0000000000000000000000000000000000000000000000000000000000000000165af16121716117b3565b5061217e575b808061212a565b6000805160206124138339815191529251908152a1388080612177565b634e487b7160e01b88526011600452602488fd5b81999299116121c25784529638806120ce565b634e487b7160e01b82526041600452602482fd5b84979950858294979293969950511681520195019101928694928f96948b8e6120a6565b8c80fd5b634e487b7160e01b8d52603260045260248dfd5b90508781813d8311612241575b612229818361141b565b810103126121fa575189811681036121fa5738612041565b503d61221f565b89513d8f823e3d90fd5b634e487b7160e01b8a52603260045260248afd5b634e487b7160e01b8a52604160045260248afd5b9596505050505050600855565b6000805160206124d383398151915260028154146122a55760029055565b604051633ee5aeb560e01b8152600490fd5b60001981146114055760010190565b6122cf81611b27565b15611fad576001600160a01b03166000908152600960205260409020805461236891906003906123279061124b612313608083901c6001600160401b031642611825565b6001860154926001600160801b03166117f2565b612338600d54600285015490611825565b9080151580612374575b6000901561236b5750670de0b6b3a76400009161235e916117f2565b04915b01546113f8565b90565b91505091612361565b50811515612342565b61238681611b27565b15611fad576001600160a01b0316600090815260096020526040902080546123689161124b9060016123c5608085901c6001600160401b031642611825565b910154926001600160801b03166117f2565b156123de57565b60405162461bcd60e51b815260206004820152600c60248201526b4f6e6c7920666163746f727960a01b6044820152606490fdfe693f9dbea0bdf9b70d480f9527e567d17ae3a41a5627c6515b034ac1869cf7a0960b1051749987b45b5679007fff577a1c2f763ec21c15a6c5eb193075003785fc30cddea38e2bf4d6ea7d3f9ed3b6ad7f176419f4963bd81318067a4aee73fe8ad0c4905aa5603107e860e0c2b1a78e23eba312c30f8114a70d94d9e187f5afddf252ad1be2c89b69c2b068fc378daa952ba7f163c4a11628f55a4df523b3efe9bc91a33ddf896d889747b2f39f4192c802fd62364780086853fcd8e19e8ffa9b779b17422d0df92223018b32b4d1fa46e071723d6817e2486d003becc55f00a2646970667358221220936e454d53d89fbbb1b463f9df655b136d6e9f93fb82bc6cfaf16353fb042f4a64736f6c634300081400338ad0c4905aa5603107e860e0c2b1a78e23eba312c30f8114a70d94d9e187f5afddf252ad1be2c89b69c2b068fc378daa952ba7f163c4a11628f55a4df523b3ef","opcodes":"PUSH1 0xC0 PUSH1 0x40 SWAP1 DUP1 DUP3 MSTORE CALLVALUE PUSH3 0x731 JUMPI PUSH3 0x3620 DUP1 CODESIZE SUB DUP1 SWAP2 PUSH3 0x22 DUP3 DUP6 PUSH3 0x736 JUMP JUMPDEST DUP4 CODECOPY DUP2 ADD PUSH1 0x80 DUP3 DUP3 SUB SLT PUSH3 0x731 JUMPI DUP2 MLOAD PUSH1 0x1 PUSH1 0x1 PUSH1 0x40 SHL SUB SWAP1 DUP2 DUP2 GT PUSH3 0x731 JUMPI DUP3 PUSH3 0x52 SWAP2 DUP6 ADD PUSH3 0x776 JUMP JUMPDEST SWAP2 PUSH1 0x20 SWAP1 DUP2 DUP6 ADD MLOAD SWAP1 DUP4 DUP3 GT PUSH3 0x731 JUMPI PUSH3 0x70 SWAP2 DUP7 ADD PUSH3 0x776 JUMP JUMPDEST SWAP2 PUSH3 0x8C PUSH1 0x60 PUSH3 0x84 DUP9 DUP9 ADD PUSH3 0x7E0 JUMP JUMPDEST SWAP7 ADD PUSH3 0x7E0 JUMP JUMPDEST SWAP3 DUP5 MLOAD DUP3 DUP2 GT PUSH3 0x631 JUMPI PUSH1 0x3 DUP1 SLOAD SWAP2 PUSH1 0x1 SWAP8 DUP9 DUP5 DUP2 SHR SWAP5 AND DUP1 ISZERO PUSH3 0x726 JUMPI JUMPDEST DUP8 DUP6 LT EQ PUSH3 0x710 JUMPI DUP2 SWAP1 PUSH1 0x1F SWAP5 DUP6 DUP2 GT PUSH3 0x6BA JUMPI JUMPDEST POP DUP8 SWAP1 DUP6 DUP4 GT PUSH1 0x1 EQ PUSH3 0x653 JUMPI PUSH1 0x0 SWAP3 PUSH3 0x647 JUMPI JUMPDEST POP POP PUSH1 0x0 NOT DUP3 DUP5 SHL SHR NOT AND SWAP1 DUP9 SHL OR DUP2 SSTORE JUMPDEST DUP3 MLOAD SWAP2 DUP5 DUP4 GT PUSH3 0x631 JUMPI PUSH1 0x4 SWAP4 DUP5 SLOAD DUP10 DUP2 DUP2 SHR SWAP2 AND DUP1 ISZERO PUSH3 0x626 JUMPI JUMPDEST DUP9 DUP3 LT EQ PUSH3 0x611 JUMPI SWAP1 DUP2 DUP4 DUP7 SWAP6 SWAP5 SWAP4 GT PUSH3 0x5B7 JUMPI JUMPDEST POP DUP8 SWAP2 DUP5 GT PUSH1 0x1 EQ PUSH3 0x54C JUMPI PUSH1 0x0 SWAP4 PUSH3 0x540 JUMPI JUMPDEST POP POP DUP3 DUP9 SHL SWAP3 PUSH1 0x0 NOT SWAP2 SHL SHR NOT AND OR DUP2 SSTORE JUMPDEST PUSH32 0x9B779B17422D0DF92223018B32B4D1FA46E071723D6817E2486D003BECC55F00 DUP6 SWAP1 SSTORE PUSH10 0x152D02C7E14AF6800000 PUSH1 0x7 SSTORE PUSH1 0x80 DUP7 SWAP1 MSTORE PUSH1 0xA0 DUP5 SWAP1 MSTORE PUSH1 0x1 PUSH1 0x1 PUSH1 0xA0 SHL SUB SWAP4 DUP5 DUP2 AND SWAP3 DUP4 ISZERO PUSH3 0x529 JUMPI PUSH12 0x33B2E3C9FD0803CE8000000 SWAP1 PUSH3 0x1B3 DUP4 PUSH3 0x909 JUMP JUMPDEST PUSH1 0x5 SLOAD SWAP4 DUP8 PUSH1 0xFF SWAP6 DUP7 DUP2 AND DUP1 PUSH3 0x51C JUMPI JUMPDEST DUP1 PUSH3 0x505 JUMPI JUMPDEST DUP1 PUSH3 0x4EE JUMPI JUMPDEST PUSH3 0x342 JUMPI JUMPDEST POP POP POP POP DUP2 PUSH3 0x1F3 PUSH3 0x1F9 SWAP3 PUSH1 0xE SWAP8 SWAP7 SWAP6 SWAP5 PUSH3 0x87F JUMP JUMPDEST PUSH3 0xA20 JUMP JUMPDEST DUP5 PUSH1 0x5 SLOAD DUP3 DUP2 AND SWAP3 DUP4 PUSH3 0x334 JUMPI JUMPDEST POP DUP3 PUSH3 0x324 JUMPI JUMPDEST POP POP DUP1 PUSH3 0x30B JUMPI JUMPDEST DUP1 PUSH3 0x2FD JUMPI JUMPDEST PUSH3 0x2ED JUMPI JUMPDEST PUSH1 0x0 MSTORE MSTORE DUP4 PUSH1 0x0 KECCAK256 SWAP3 PUSH1 0xFF NOT SWAP4 DUP4 DUP6 DUP3 SLOAD AND OR SWAP1 SSTORE AND PUSH1 0x0 MSTORE DUP3 PUSH1 0x0 KECCAK256 DUP2 DUP4 DUP3 SLOAD AND OR SWAP1 SSTORE PUSH2 0xDEAD PUSH1 0x0 MSTORE DUP3 PUSH1 0x0 KECCAK256 DUP2 DUP4 DUP3 SLOAD AND OR SWAP1 SSTORE ADDRESS PUSH1 0x0 MSTORE DUP3 PUSH1 0x0 KECCAK256 DUP2 DUP4 DUP3 SLOAD AND OR SWAP1 SSTORE PUSH1 0x0 DUP1 MSTORE DUP3 PUSH1 0x0 KECCAK256 SWAP2 DUP3 SLOAD AND OR SWAP1 SSTORE TIMESTAMP PUSH1 0xB SSTORE MLOAD PUSH2 0x2528 SWAP1 DUP2 PUSH3 0x10B8 DUP3 CODECOPY PUSH1 0x80 MLOAD DUP2 DUP2 DUP2 PUSH2 0x6ED ADD MSTORE DUP2 DUP2 PUSH2 0x7C6 ADD MSTORE DUP2 DUP2 PUSH2 0x92D ADD MSTORE DUP2 DUP2 PUSH2 0xAF4 ADD MSTORE DUP2 DUP2 PUSH2 0x107E ADD MSTORE PUSH2 0x2147 ADD MSTORE PUSH1 0xA0 MLOAD DUP2 DUP2 DUP2 PUSH2 0x59A ADD MSTORE DUP2 DUP2 PUSH2 0x78E ADD MSTORE DUP2 DUP2 PUSH2 0x8B6 ADD MSTORE DUP2 DUP2 PUSH2 0xB96 ADD MSTORE DUP2 DUP2 PUSH2 0xC3A ADD MSTORE DUP2 DUP2 PUSH2 0x1C2C ADD MSTORE PUSH2 0x1DBB ADD MSTORE RETURN JUMPDEST PUSH3 0x2F7 PUSH3 0xC9A JUMP JUMPDEST PUSH3 0x226 JUMP JUMPDEST POP DUP4 PUSH1 0x6 SLOAD AND ISZERO ISZERO PUSH3 0x220 JUMP JUMPDEST POP ADDRESS PUSH1 0x0 MSTORE PUSH1 0x0 DUP3 MSTORE DUP7 PUSH1 0x0 KECCAK256 SLOAD PUSH1 0x7 SLOAD GT ISZERO PUSH3 0x219 JUMP JUMPDEST PUSH1 0x8 SHR AND ISZERO ISZERO SWAP1 POP DUP5 CODESIZE PUSH3 0x210 JUMP JUMPDEST PUSH1 0x8 SLOAD AND ISZERO SWAP3 POP CODESIZE PUSH3 0x208 JUMP JUMPDEST PUSH1 0x8 SHR AND SWAP2 DUP3 ISZERO SWAP3 DUP8 EQ DUP4 DUP5 ISZERO PUSH3 0x4E6 JUMPI JUMPDEST PUSH3 0x364 JUMPI JUMPDEST DUP10 SWAP2 POP PUSH3 0x1D9 JUMP JUMPDEST PUSH1 0x0 SWAP5 SWAP2 SWAP3 SWAP4 SWAP5 SWAP1 PUSH3 0x4D5 JUMPI JUMPDEST PUSH2 0x1F4 SWAP1 DUP2 ADD DUP1 SWAP2 GT PUSH3 0x4C0 JUMPI DUP1 DUP3 MUL SWAP1 DUP3 DUP3 DIV SUB PUSH3 0x4C0 JUMPI PUSH2 0x2710 SWAP1 DIV SWAP3 PUSH1 0x2 SLOAD SWAP4 PUSH11 0xC685FA11E01EC6F000000 SWAP5 DUP6 DUP2 ADD DUP1 SWAP2 GT PUSH3 0x4AB JUMPI PUSH1 0x2 SSTORE DUP14 PUSH1 0x0 PUSH1 0x0 DUP1 MLOAD PUSH1 0x20 PUSH3 0x3600 DUP4 CODECOPY DUP2 MLOAD SWAP2 MSTORE DUP13 PUSH2 0xDEAD SWAP4 DUP5 DUP5 MSTORE DUP4 DUP3 MSTORE DUP1 DUP5 KECCAK256 DUP11 DUP2 SLOAD ADD SWAP1 SSTORE MLOAD DUP10 DUP2 MSTORE LOG3 PUSH11 0xC685FA11E01EC6EFFFFFF NOT DUP2 ADD DUP2 DUP2 GT PUSH3 0x4AB JUMPI DUP1 PUSH3 0x498 JUMPI JUMPDEST POP DUP3 SUB SWAP2 DUP3 GT PUSH3 0x483 JUMPI POP SWAP3 DUP7 PUSH1 0x0 PUSH32 0xE9BC91A33DDF896D889747B2F39F4192C802FD62364780086853FCD8E19E8FFA PUSH1 0x60 DUP16 SWAP7 DUP4 DUP14 SWAP13 SWAP12 SWAP11 SWAP9 DUP2 PUSH1 0xE SWAP16 PUSH3 0x1F3 SWAP11 PUSH3 0x1F9 SWAP14 SWAP11 PUSH3 0x465 JUMPI JUMPDEST POP DUP3 MLOAD SWAP5 DUP6 MSTORE DUP5 ADD MSTORE DUP3 ADD MSTORE LOG3 SWAP3 DUP3 SWAP5 SWAP6 SWAP7 SWAP8 PUSH3 0x35B JUMP JUMPDEST PUSH3 0x47C SWAP1 DUP11 DUP5 MSTORE PUSH1 0x9 DUP4 MSTORE TIMESTAMP AND DUP5 DUP5 KECCAK256 PUSH3 0x85C JUMP JUMPDEST CODESIZE PUSH3 0x44C JUMP JUMPDEST PUSH1 0x11 SWAP1 PUSH4 0x4E487B71 PUSH1 0xE0 SHL PUSH1 0x0 MSTORE MSTORE PUSH1 0x24 PUSH1 0x0 REVERT JUMPDEST PUSH3 0x4A4 SWAP1 ADDRESS PUSH3 0x87F JUMP JUMPDEST CODESIZE PUSH3 0x3FC JUMP JUMPDEST PUSH1 0x11 DUP4 PUSH4 0x4E487B71 PUSH1 0xE0 SHL PUSH1 0x0 MSTORE MSTORE PUSH1 0x24 PUSH1 0x0 REVERT JUMPDEST PUSH1 0x11 DUP5 PUSH4 0x4E487B71 PUSH1 0xE0 SHL PUSH1 0x0 MSTORE MSTORE PUSH1 0x24 PUSH1 0x0 REVERT JUMPDEST POP PUSH3 0x4E0 PUSH3 0xC1C JUMP JUMPDEST PUSH3 0x372 JUMP JUMPDEST POP DUP1 PUSH3 0x355 JUMP JUMPDEST POP DUP8 PUSH1 0x0 MSTORE PUSH1 0xE DUP10 MSTORE DUP7 DUP14 PUSH1 0x0 KECCAK256 SLOAD AND ISZERO PUSH3 0x1D3 JUMP JUMPDEST POP PUSH1 0x0 DUP1 MSTORE PUSH1 0xE DUP10 MSTORE DUP7 DUP14 PUSH1 0x0 KECCAK256 SLOAD AND ISZERO PUSH3 0x1CC JUMP JUMPDEST POP DUP7 PUSH1 0x8 SLOAD AND ISZERO PUSH3 0x1C5 JUMP JUMPDEST DUP9 MLOAD PUSH4 0xEC442F05 PUSH1 0xE0 SHL DUP2 MSTORE PUSH1 0x0 DUP2 DUP6 ADD MSTORE PUSH1 0x24 SWAP1 REVERT JUMPDEST ADD MLOAD SWAP2 POP CODESIZE DUP1 PUSH3 0x138 JUMP JUMPDEST SWAP2 SWAP1 DUP10 SWAP5 POP PUSH1 0x1F NOT DUP5 AND SWAP3 DUP7 PUSH1 0x0 MSTORE DUP9 PUSH1 0x0 KECCAK256 SWAP4 PUSH1 0x0 JUMPDEST DUP11 DUP3 DUP3 LT PUSH3 0x5A0 JUMPI POP POP DUP6 GT PUSH3 0x585 JUMPI JUMPDEST POP POP POP POP DUP2 SHL ADD DUP2 SSTORE PUSH3 0x14A JUMP JUMPDEST ADD MLOAD SWAP1 PUSH1 0xF8 DUP5 PUSH1 0x0 NOT SWAP3 SHL AND SHR NOT AND SWAP1 SSTORE CODESIZE DUP1 DUP1 DUP1 PUSH3 0x576 JUMP JUMPDEST DUP4 DUP6 ADD MLOAD DUP8 SSTORE DUP14 SWAP9 SWAP1 SWAP7 ADD SWAP6 SWAP4 DUP5 ADD SWAP4 ADD PUSH3 0x563 JUMP JUMPDEST SWAP1 SWAP2 SWAP3 SWAP4 POP DUP6 PUSH1 0x0 MSTORE DUP8 PUSH1 0x0 KECCAK256 DUP4 DUP1 DUP8 ADD PUSH1 0x5 SHR DUP3 ADD SWAP3 DUP11 DUP9 LT PUSH3 0x607 JUMPI JUMPDEST SWAP2 DUP13 SWAP2 DUP9 SWAP8 SWAP7 SWAP6 SWAP5 SWAP4 ADD PUSH1 0x5 SHR ADD SWAP2 JUMPDEST DUP3 DUP2 LT PUSH3 0x5F7 JUMPI POP POP PUSH3 0x122 JUMP JUMPDEST PUSH1 0x0 DUP2 SSTORE DUP8 SWAP7 POP DUP13 SWAP2 ADD PUSH3 0x5E7 JUMP JUMPDEST SWAP3 POP DUP2 SWAP3 PUSH3 0x5D7 JUMP JUMPDEST PUSH1 0x22 DUP7 PUSH4 0x4E487B71 PUSH1 0xE0 SHL PUSH1 0x0 MSTORE MSTORE PUSH1 0x24 PUSH1 0x0 REVERT JUMPDEST SWAP1 PUSH1 0x7F AND SWAP1 PUSH3 0x10B JUMP JUMPDEST PUSH4 0x4E487B71 PUSH1 0xE0 SHL PUSH1 0x0 MSTORE PUSH1 0x41 PUSH1 0x4 MSTORE PUSH1 0x24 PUSH1 0x0 REVERT JUMPDEST ADD MLOAD SWAP1 POP CODESIZE DUP1 PUSH3 0xDB JUMP JUMPDEST SWAP1 DUP11 SWAP4 POP PUSH1 0x1F NOT DUP4 AND SWAP2 DUP6 PUSH1 0x0 MSTORE DUP10 PUSH1 0x0 KECCAK256 SWAP3 PUSH1 0x0 JUMPDEST DUP12 DUP3 DUP3 LT PUSH3 0x6A3 JUMPI POP POP DUP5 GT PUSH3 0x68A JUMPI JUMPDEST POP POP POP DUP2 SHL ADD DUP2 SSTORE PUSH3 0xED JUMP JUMPDEST ADD MLOAD PUSH1 0x0 NOT DUP4 DUP7 SHL PUSH1 0xF8 AND SHR NOT AND SWAP1 SSTORE CODESIZE DUP1 DUP1 PUSH3 0x67C JUMP JUMPDEST DUP4 DUP6 ADD MLOAD DUP7 SSTORE DUP15 SWAP8 SWAP1 SWAP6 ADD SWAP5 SWAP4 DUP5 ADD SWAP4 ADD PUSH3 0x669 JUMP JUMPDEST SWAP1 SWAP2 POP DUP4 PUSH1 0x0 MSTORE DUP8 PUSH1 0x0 KECCAK256 DUP6 DUP1 DUP6 ADD PUSH1 0x5 SHR DUP3 ADD SWAP3 DUP11 DUP7 LT PUSH3 0x706 JUMPI JUMPDEST SWAP2 DUP13 SWAP2 DUP7 SWAP6 SWAP5 SWAP4 ADD PUSH1 0x5 SHR ADD SWAP2 JUMPDEST DUP3 DUP2 LT PUSH3 0x6F6 JUMPI POP POP PUSH3 0xC4 JUMP JUMPDEST PUSH1 0x0 DUP2 SSTORE DUP6 SWAP5 POP DUP13 SWAP2 ADD PUSH3 0x6E6 JUMP JUMPDEST SWAP3 POP DUP2 SWAP3 PUSH3 0x6D8 JUMP JUMPDEST PUSH4 0x4E487B71 PUSH1 0xE0 SHL PUSH1 0x0 MSTORE PUSH1 0x22 PUSH1 0x4 MSTORE PUSH1 0x24 PUSH1 0x0 REVERT JUMPDEST SWAP4 PUSH1 0x7F AND SWAP4 PUSH3 0xAD JUMP JUMPDEST PUSH1 0x0 DUP1 REVERT JUMPDEST PUSH1 0x1F SWAP1 SWAP2 ADD PUSH1 0x1F NOT AND DUP2 ADD SWAP1 PUSH1 0x1 PUSH1 0x1 PUSH1 0x40 SHL SUB DUP3 GT SWAP1 DUP3 LT OR PUSH3 0x631 JUMPI PUSH1 0x40 MSTORE JUMP JUMPDEST PUSH1 0x1 PUSH1 0x1 PUSH1 0x40 SHL SUB DUP2 GT PUSH3 0x631 JUMPI PUSH1 0x1F ADD PUSH1 0x1F NOT AND PUSH1 0x20 ADD SWAP1 JUMP JUMPDEST SWAP2 SWAP1 DUP1 PUSH1 0x1F DUP5 ADD SLT ISZERO PUSH3 0x731 JUMPI DUP3 MLOAD SWAP1 PUSH3 0x792 DUP3 PUSH3 0x75A JUMP JUMPDEST SWAP2 PUSH3 0x7A2 PUSH1 0x40 MLOAD SWAP4 DUP5 PUSH3 0x736 JUMP JUMPDEST DUP1 DUP4 MSTORE PUSH1 0x20 SWAP2 DUP3 DUP3 DUP8 ADD ADD GT PUSH3 0x731 JUMPI PUSH1 0x0 JUMPDEST DUP2 DUP2 LT PUSH3 0x7CC JUMPI POP DUP3 PUSH1 0x0 SWAP4 SWAP5 SWAP6 POP ADD ADD MSTORE SWAP1 JUMP JUMPDEST DUP6 DUP2 ADD DUP4 ADD MLOAD DUP5 DUP3 ADD DUP5 ADD MSTORE DUP3 ADD PUSH3 0x7B6 JUMP JUMPDEST MLOAD SWAP1 PUSH1 0x1 PUSH1 0x1 PUSH1 0xA0 SHL SUB DUP3 AND DUP3 SUB PUSH3 0x731 JUMPI JUMP JUMPDEST SWAP2 SWAP1 DUP3 ADD DUP1 SWAP3 GT PUSH3 0x803 JUMPI JUMP JUMPDEST PUSH4 0x4E487B71 PUSH1 0xE0 SHL PUSH1 0x0 MSTORE PUSH1 0x11 PUSH1 0x4 MSTORE PUSH1 0x24 PUSH1 0x0 REVERT JUMPDEST DUP2 DUP2 MUL SWAP3 SWAP2 DUP2 ISZERO SWAP2 DUP5 DIV EQ OR ISZERO PUSH3 0x803 JUMPI JUMP JUMPDEST DUP2 ISZERO PUSH3 0x838 JUMPI DIV SWAP1 JUMP JUMPDEST PUSH4 0x4E487B71 PUSH1 0xE0 SHL PUSH1 0x0 MSTORE PUSH1 0x12 PUSH1 0x4 MSTORE PUSH1 0x24 PUSH1 0x0 REVERT JUMPDEST SWAP2 SWAP1 DUP3 SUB SWAP2 DUP3 GT PUSH3 0x803 JUMPI JUMP JUMPDEST DUP1 SLOAD PUSH1 0x1 PUSH1 0x1 PUSH1 0xC0 SHL SUB AND PUSH1 0xC0 SWAP3 SWAP1 SWAP3 SHL PUSH1 0x1 PUSH1 0x1 PUSH1 0xC0 SHL SUB NOT AND SWAP2 SWAP1 SWAP2 OR SWAP1 SSTORE JUMP JUMPDEST PUSH1 0x0 DUP1 MLOAD PUSH1 0x20 PUSH3 0x3600 DUP4 CODECOPY DUP2 MLOAD SWAP2 MSTORE PUSH1 0x20 PUSH1 0x0 SWAP3 PUSH3 0x8A2 DUP6 PUSH1 0x2 SLOAD PUSH3 0x7F5 JUMP JUMPDEST PUSH1 0x2 SSTORE PUSH1 0x1 PUSH1 0x1 PUSH1 0xA0 SHL SUB AND SWAP4 DUP5 ISZERO DUP5 EQ PUSH3 0x8CA JUMPI DUP1 PUSH1 0x2 SLOAD SUB PUSH1 0x2 SSTORE JUMPDEST PUSH1 0x40 MLOAD SWAP1 DUP2 MSTORE LOG3 JUMP JUMPDEST DUP5 DUP5 MSTORE DUP4 DUP3 MSTORE PUSH1 0x40 DUP5 KECCAK256 DUP2 DUP2 SLOAD ADD SWAP1 SSTORE PUSH3 0x8C1 JUMP JUMPDEST DUP1 SLOAD PUSH1 0x1 PUSH1 0x80 SHL PUSH1 0x1 PUSH1 0xC0 SHL SUB NOT AND PUSH1 0x80 SWAP3 SWAP1 SWAP3 SHL PUSH1 0x1 PUSH1 0x80 SHL PUSH1 0x1 PUSH1 0xC0 SHL SUB AND SWAP2 SWAP1 SWAP2 OR SWAP1 SSTORE JUMP JUMPDEST PUSH3 0x914 DUP2 PUSH3 0x9F2 JUMP JUMPDEST ISZERO PUSH3 0x9EF JUMPI PUSH1 0x1 PUSH1 0x1 PUSH1 0xA0 SHL SUB AND PUSH1 0x0 SWAP1 DUP2 MSTORE PUSH1 0x9 PUSH1 0x20 MSTORE PUSH1 0x40 SWAP1 KECCAK256 DUP1 SLOAD PUSH3 0x9B3 SWAP2 SWAP1 PUSH1 0x1 PUSH1 0x1 PUSH1 0x40 SHL SUB SWAP1 PUSH3 0x97D PUSH3 0x958 PUSH1 0x80 DUP4 SWAP1 SHR DUP5 AND TIMESTAMP PUSH3 0x84E JUMP JUMPDEST PUSH1 0x1 DUP6 ADD DUP1 SLOAD SWAP1 SWAP4 SWAP1 SWAP2 PUSH3 0x976 SWAP2 PUSH1 0x1 PUSH1 0x1 PUSH1 0x80 SHL SUB AND PUSH3 0x819 JUMP JUMPDEST SWAP1 PUSH3 0x7F5 JUMP JUMPDEST SWAP1 PUSH1 0xD SLOAD PUSH3 0x993 PUSH1 0x2 DUP7 ADD SWAP2 DUP3 SLOAD SWAP1 PUSH3 0x84E JUMP JUMPDEST DUP1 ISZERO ISZERO DUP1 PUSH3 0x9E5 JUMPI JUMPDEST PUSH3 0x9B5 JUMPI JUMPDEST POP PUSH1 0xD SLOAD SWAP1 SSTORE SSTORE TIMESTAMP AND SWAP1 PUSH3 0x8E0 JUMP JUMPDEST JUMP JUMPDEST PUSH3 0x9CA PUSH8 0xDE0B6B3A7640000 SWAP2 DUP6 PUSH3 0x819 JUMP JUMPDEST DIV PUSH3 0x9DC PUSH1 0x3 DUP8 ADD SWAP2 DUP3 SLOAD PUSH3 0x7F5 JUMP JUMPDEST SWAP1 SSTORE CODESIZE PUSH3 0x9A3 JUMP JUMPDEST POP DUP4 ISZERO ISZERO PUSH3 0x99D JUMP JUMPDEST POP JUMP JUMPDEST PUSH1 0x1 PUSH1 0x1 PUSH1 0xA0 SHL SUB AND DUP1 ISZERO ISZERO SWAP1 DUP2 PUSH3 0xA09 JUMPI POP SWAP1 JUMP JUMPDEST SWAP1 POP PUSH1 0x0 MSTORE PUSH1 0xE PUSH1 0x20 MSTORE PUSH1 0xFF PUSH1 0x40 PUSH1 0x0 KECCAK256 SLOAD AND ISZERO SWAP1 JUMP JUMPDEST PUSH3 0xA2B DUP2 PUSH3 0x9F2 JUMP JUMPDEST ISZERO PUSH3 0x9EF JUMPI PUSH1 0x1 PUSH1 0x1 PUSH1 0xA0 SHL SUB SWAP1 DUP2 AND PUSH1 0x0 DUP2 DUP2 MSTORE PUSH1 0x9 PUSH1 0x20 MSTORE PUSH1 0x40 DUP2 KECCAK256 SWAP3 SWAP2 PUSH3 0xA56 PUSH3 0xBC6 JUMP JUMPDEST DUP2 MSTORE PUSH1 0x20 DUP2 SWAP1 MSTORE PUSH1 0x40 DUP2 KECCAK256 SLOAD DUP4 SLOAD PUSH1 0x1 PUSH1 0x1 PUSH1 0x80 SHL SUB SWAP1 DUP2 AND DUP1 DUP4 LT SWAP4 SWAP2 SWAP3 SWAP2 SWAP1 DUP5 DUP1 PUSH3 0xBBC JUMPI JUMPDEST PUSH3 0xB64 JUMPI JUMPDEST DUP3 DUP2 DUP2 GT SWAP6 DUP7 PUSH1 0x0 EQ PUSH3 0xB1F JUMPI POP PUSH3 0xAAF SWAP3 POP SWAP1 PUSH3 0xAA6 SWAP2 PUSH3 0x84E JUMP JUMPDEST PUSH1 0xC SLOAD PUSH3 0x7F5 JUMP JUMPDEST PUSH1 0xC SSTORE JUMPDEST DUP5 SLOAD PUSH1 0x1 PUSH1 0x1 PUSH1 0x80 SHL SUB NOT AND SWAP2 AND OR DUP4 SSTORE TIMESTAMP PUSH1 0x1 PUSH1 0x1 PUSH1 0x40 SHL SUB AND SWAP2 PUSH3 0xADB DUP4 DUP6 PUSH3 0x8E0 JUMP JUMPDEST PUSH1 0xFF PUSH1 0x5 SLOAD AND ISZERO SWAP2 DUP3 PUSH3 0xB16 JUMPI JUMPDEST POP DUP2 PUSH3 0xB07 JUMPI JUMPDEST POP PUSH3 0xAFC JUMPI POP POP JUMP JUMPDEST PUSH3 0x9B3 SWAP2 PUSH3 0x85C JUMP JUMPDEST SWAP1 POP PUSH1 0xA0 MLOAD AND CALLER EQ CODESIZE PUSH3 0xAF2 JUMP JUMPDEST SWAP2 POP CODESIZE PUSH3 0xAEA JUMP JUMPDEST PUSH3 0xB2E JUMPI JUMPDEST POP POP POP PUSH3 0xAB3 JUMP JUMPDEST PUSH3 0xB39 SWAP2 PUSH3 0x84E JUMP JUMPDEST PUSH1 0xC SLOAD DUP2 DUP2 LT PUSH3 0xB5C JUMPI PUSH3 0xB50 SWAP3 POP PUSH3 0x84E JUMP JUMPDEST PUSH1 0xC SSTORE CODESIZE DUP1 DUP3 PUSH3 0xB25 JUMP JUMPDEST POP POP PUSH3 0xB50 JUMP JUMPDEST PUSH1 0x1 DUP8 ADD DUP1 SLOAD SWAP1 PUSH3 0xB8E PUSH3 0xB86 DUP5 PUSH3 0xB80 DUP9 DUP7 PUSH3 0x819 JUMP JUMPDEST PUSH3 0x82D JUMP JUMPDEST DUP1 SWAP4 PUSH3 0x84E JUMP JUMPDEST PUSH1 0xA SLOAD DUP2 GT PUSH3 0xBB1 JUMPI PUSH3 0xBA6 SWAP1 PUSH1 0xA SLOAD PUSH3 0x84E JUMP JUMPDEST PUSH1 0xA SSTORE JUMPDEST SSTORE PUSH3 0xA85 JUMP JUMPDEST POP DUP4 PUSH1 0xA SSTORE PUSH3 0xBAA JUMP JUMPDEST POP DUP1 ISZERO ISZERO PUSH3 0xA7F JUMP JUMPDEST PUSH3 0xBD4 PUSH1 0xB SLOAD TIMESTAMP PUSH3 0x84E JUMP JUMPDEST DUP1 ISZERO ISZERO DUP1 PUSH3 0xC10 JUMPI JUMPDEST PUSH3 0xBEB JUMPI JUMPDEST POP TIMESTAMP PUSH1 0xB SSTORE JUMP JUMPDEST PUSH3 0xBFD PUSH3 0xC06 SWAP2 PUSH1 0xC SLOAD PUSH3 0x819 JUMP JUMPDEST PUSH1 0xA SLOAD PUSH3 0x7F5 JUMP JUMPDEST PUSH1 0xA SSTORE CODESIZE PUSH3 0xBE4 JUMP JUMPDEST POP PUSH1 0xC SLOAD ISZERO ISZERO PUSH3 0xBDE JUMP JUMPDEST PUSH1 0x0 DUP1 MSTORE PUSH1 0x9 PUSH1 0x20 MSTORE PUSH32 0xEC8156718A8372B1DB44BB411437D0870F3E3790D4A08526D024CE1B0B668F6B SLOAD PUSH1 0xC0 SHR DUP1 ISZERO PUSH3 0xC94 JUMPI PUSH3 0xC5D SWAP1 TIMESTAMP PUSH3 0x84E JUMP JUMPDEST PUSH2 0x12C DUP2 LT PUSH3 0xC8D JUMPI PUSH2 0xE10 DUP2 LT PUSH3 0xC86 JUMPI PUSH3 0x15180 GT PUSH3 0xC80 JUMPI PUSH1 0x0 SWAP1 JUMP JUMPDEST PUSH2 0x1F4 SWAP1 JUMP JUMPDEST POP PUSH2 0x3E8 SWAP1 JUMP JUMPDEST POP PUSH2 0x7D0 SWAP1 JUMP JUMPDEST POP PUSH1 0x0 SWAP1 JUMP JUMPDEST PUSH1 0x0 SWAP1 PUSH1 0xFF NOT DUP1 PUSH1 0x8 SLOAD AND SWAP3 PUSH1 0x1 SWAP1 DUP2 DUP6 OR PUSH1 0x8 SSTORE ADDRESS DUP2 MSTORE PUSH1 0x20 DUP2 DUP2 MSTORE PUSH1 0x40 SWAP2 DUP3 DUP2 KECCAK256 SLOAD SWAP7 DUP8 ISZERO PUSH3 0x100E JUMPI POP DUP3 MLOAD SWAP4 PUSH1 0x1 PUSH1 0x1 PUSH1 0x40 SHL SUB PUSH1 0x60 DUP7 ADD DUP2 DUP2 GT DUP8 DUP3 LT OR PUSH3 0xFFA JUMPI DUP6 MSTORE PUSH1 0x2 DUP7 MSTORE DUP4 DUP7 ADD SWAP9 DUP6 CALLDATASIZE DUP12 CALLDATACOPY DUP7 MLOAD ISZERO PUSH3 0xFE6 JUMPI ADDRESS DUP11 MSTORE PUSH1 0x6 SLOAD DUP7 MLOAD PUSH4 0x15AB88C9 PUSH1 0xE3 SHL DUP2 MSTORE PUSH1 0x4 SWAP12 PUSH1 0x1 PUSH1 0x1 PUSH1 0xA0 SHL SUB SWAP10 SWAP3 SWAP1 SWAP2 SWAP1 DUP11 AND SWAP1 DUP9 DUP2 DUP16 DUP2 DUP6 GAS STATICCALL SWAP1 DUP2 ISZERO PUSH3 0xFDC JUMPI DUP9 SWAP2 PUSH3 0xF9F JUMPI JUMPDEST POP DUP4 MLOAD DUP8 LT ISZERO PUSH3 0xF8B JUMPI DUP11 AND DUP10 DUP5 ADD MSTORE ADDRESS ISZERO PUSH3 0xF74 JUMPI DUP1 ISZERO PUSH3 0xF5D JUMPI ADDRESS DUP8 MSTORE DUP6 DUP9 MSTORE DUP9 DUP8 KECCAK256 DUP2 DUP9 MSTORE DUP9 MSTORE DUP4 DUP10 DUP9 KECCAK256 SSTORE DUP9 MLOAD DUP5 DUP2 MSTORE PUSH32 0x8C5BE1E5EBEC7D5BD14F71427D1E84F3DD0314C0F7B2291E5B200AC8C7C3B925 DUP10 ADDRESS SWAP3 LOG3 SELFBALANCE SWAP5 DUP10 PUSH1 0x6 SLOAD AND SWAP3 DUP4 EXTCODESIZE ISZERO PUSH3 0xF59 JUMPI DUP10 MLOAD PUSH4 0x791AC947 PUSH1 0xE0 SHL DUP2 MSTORE DUP1 DUP16 ADD SWAP6 SWAP1 SWAP6 MSTORE PUSH1 0x24 DUP6 ADD DUP9 SWAP1 MSTORE PUSH1 0xA0 PUSH1 0x44 DUP7 ADD MSTORE MLOAD PUSH1 0xA4 DUP6 ADD DUP2 SWAP1 MSTORE DUP8 SWAP4 DUP6 SWAP4 SWAP1 SWAP3 PUSH1 0xC4 DUP6 ADD SWAP3 DUP7 DUP13 DUP16 JUMPDEST DUP4 DUP4 LT PUSH3 0xF3C JUMPI POP POP POP POP POP POP DUP4 DUP4 DUP1 SWAP3 ADDRESS PUSH1 0x64 DUP4 ADD MSTORE TIMESTAMP PUSH1 0x84 DUP4 ADD MSTORE SUB SWAP3 GAS CALL SWAP2 DUP3 PUSH3 0xF14 JUMPI JUMPDEST POP POP PUSH3 0xE1B JUMPI JUMPDEST POP POP POP POP POP SWAP1 SWAP2 POP PUSH1 0x8 SLOAD AND PUSH1 0x8 SSTORE JUMP JUMPDEST PUSH3 0xE27 SWAP1 SELFBALANCE PUSH3 0x84E JUMP JUMPDEST SWAP1 DUP2 ISZERO DUP1 ISZERO PUSH3 0xE39 JUMPI JUMPDEST POP PUSH3 0xE0A JUMP JUMPDEST PUSH1 0x3 DUP4 MUL SWAP1 DUP4 DUP3 DIV PUSH1 0x3 EQ OR ISZERO PUSH3 0xF01 JUMPI PUSH3 0xE76 SWAP7 SWAP8 SWAP9 POP PUSH1 0x7 PUSH3 0xE63 SWAP2 DIV DUP1 SWAP4 PUSH3 0x84E JUMP JUMPDEST SWAP5 DUP3 PUSH3 0xE84 JUMPI JUMPDEST POP POP POP POP POP PUSH3 0x101B JUMP JUMPDEST DUP2 SWAP1 CODESIZE DUP1 DUP1 DUP1 DUP1 DUP1 PUSH3 0xE32 JUMP JUMPDEST DUP2 DUP1 DUP1 DUP6 DUP2 SWAP5 PUSH1 0x80 MLOAD AND GAS CALL SWAP1 RETURNDATASIZE ISZERO PUSH3 0xEFA JUMPI RETURNDATASIZE SWAP1 PUSH3 0xEA5 DUP3 PUSH3 0x75A JUMP JUMPDEST SWAP2 PUSH3 0xEB4 DUP8 MLOAD SWAP4 DUP5 PUSH3 0x736 JUMP JUMPDEST DUP3 MSTORE DUP5 RETURNDATASIZE SWAP3 ADD RETURNDATACOPY JUMPDEST PUSH3 0xECA JUMPI JUMPDEST DUP1 DUP1 PUSH3 0xE6B JUMP JUMPDEST PUSH32 0x693F9DBEA0BDF9B70D480F9527E567D17AE3A41A5627C6515B034AC1869CF7A0 SWAP3 MLOAD SWAP1 DUP2 MSTORE LOG1 CODESIZE DUP1 DUP1 PUSH3 0xEC2 JUMP JUMPDEST POP PUSH3 0xEBC JUMP JUMPDEST PUSH4 0x4E487B71 PUSH1 0xE0 SHL DUP3 MSTORE PUSH1 0x11 DUP10 MSTORE PUSH1 0x24 DUP3 REVERT JUMPDEST DUP2 SWAP5 SWAP3 SWAP5 GT PUSH3 0xF29 JUMPI DUP6 MSTORE SWAP2 CODESIZE DUP1 PUSH3 0xE02 JUMP JUMPDEST PUSH4 0x4E487B71 PUSH1 0xE0 SHL DUP3 MSTORE PUSH1 0x41 DUP11 MSTORE PUSH1 0x24 DUP3 REVERT JUMPDEST DUP6 MLOAD AND DUP7 MSTORE DUP13 SWAP9 POP DUP10 SWAP8 POP SWAP5 DUP6 ADD SWAP5 SWAP1 SWAP4 ADD SWAP3 DUP3 ADD DUP13 DUP16 PUSH3 0xDD8 JUMP JUMPDEST DUP8 DUP1 REVERT JUMPDEST DUP9 MLOAD PUSH4 0x4A1406B1 PUSH1 0xE1 SHL DUP2 MSTORE DUP1 DUP15 ADD DUP9 SWAP1 MSTORE PUSH1 0x24 SWAP1 REVERT JUMPDEST DUP9 MLOAD PUSH4 0xE602DF05 PUSH1 0xE0 SHL DUP2 MSTORE DUP1 DUP15 ADD DUP9 SWAP1 MSTORE PUSH1 0x24 SWAP1 REVERT JUMPDEST POP PUSH4 0x4E487B71 PUSH1 0xE0 SHL DUP8 MSTORE PUSH1 0x32 DUP14 MSTORE PUSH1 0x24 DUP8 REVERT JUMPDEST SWAP1 POP DUP9 DUP2 DUP2 RETURNDATASIZE DUP4 GT PUSH3 0xFD4 JUMPI JUMPDEST PUSH3 0xFB9 DUP2 DUP4 PUSH3 0x736 JUMP JUMPDEST DUP2 ADD SUB SLT PUSH3 0xF59 JUMPI PUSH3 0xFCD SWAP1 PUSH3 0x7E0 JUMP JUMPDEST CODESIZE PUSH3 0xD34 JUMP JUMPDEST POP RETURNDATASIZE PUSH3 0xFAD JUMP JUMPDEST DUP11 MLOAD RETURNDATASIZE DUP11 DUP3 RETURNDATACOPY RETURNDATASIZE SWAP1 REVERT JUMPDEST PUSH4 0x4E487B71 PUSH1 0xE0 SHL DUP5 MSTORE PUSH1 0x32 PUSH1 0x4 MSTORE PUSH1 0x24 DUP5 REVERT JUMPDEST PUSH4 0x4E487B71 PUSH1 0xE0 SHL DUP5 MSTORE PUSH1 0x41 PUSH1 0x4 MSTORE PUSH1 0x24 DUP5 REVERT JUMPDEST SWAP6 SWAP7 POP POP POP POP POP POP PUSH1 0x8 SSTORE JUMP JUMPDEST DUP1 ISZERO PUSH3 0x9EF JUMPI PUSH3 0x102C PUSH3 0xBC6 JUMP JUMPDEST PUSH1 0xA SLOAD SWAP1 DUP2 ISZERO PUSH3 0x1092 JUMPI PUSH8 0xDE0B6B3A7640000 DUP2 MUL SWAP1 PUSH8 0xDE0B6B3A763FFFF NOT DUP2 DUP4 DIV ADD PUSH3 0x803 JUMPI PUSH3 0x1081 PUSH3 0x1078 PUSH1 0x0 DUP1 MLOAD PUSH1 0x20 PUSH3 0x35E0 DUP4 CODECOPY DUP2 MLOAD SWAP2 MSTORE SWAP5 PUSH1 0x40 SWAP5 PUSH3 0x82D JUMP JUMPDEST PUSH1 0xD SLOAD PUSH3 0x7F5 JUMP JUMPDEST DUP1 PUSH1 0xD SSTORE DUP3 MLOAD SWAP2 DUP3 MSTORE PUSH1 0x20 DUP3 ADD MSTORE LOG1 JUMP JUMPDEST PUSH1 0x0 DUP1 MLOAD PUSH1 0x20 PUSH3 0x35E0 DUP4 CODECOPY DUP2 MLOAD SWAP2 MSTORE SWAP2 POP PUSH1 0x40 SWAP1 PUSH1 0xD SLOAD DUP3 MLOAD SWAP2 DUP3 MSTORE PUSH1 0x20 DUP3 ADD MSTORE LOG1 JUMP INVALID PUSH1 0x80 PUSH1 0x40 SWAP1 DUP1 DUP3 MSTORE PUSH1 0x4 SWAP2 DUP3 CALLDATASIZE LT ISZERO PUSH2 0x23 JUMPI JUMPDEST POP POP POP CALLDATASIZE ISZERO PUSH2 0x21 JUMPI PUSH1 0x0 DUP1 REVERT JUMPDEST STOP JUMPDEST PUSH1 0x0 SWAP2 DUP3 CALLDATALOAD PUSH1 0xE0 SHR SWAP1 DUP2 PUSH4 0x3FD2A45 EQ PUSH2 0x1346 JUMPI POP DUP1 PUSH4 0x445B667 EQ PUSH2 0x1328 JUMPI DUP1 PUSH4 0x6FDDE03 EQ PUSH2 0x1251 JUMPI DUP1 PUSH4 0x7C9BF2E EQ PUSH2 0x1219 JUMPI DUP1 PUSH4 0x95EA7B3 EQ PUSH2 0x11F0 JUMPI DUP1 PUSH4 0x18160DDD EQ PUSH2 0x11D2 JUMPI DUP1 PUSH4 0x1E4C7292 EQ PUSH2 0x11AD JUMPI DUP1 PUSH4 0x23B872DD EQ PUSH2 0x10C3 JUMPI DUP1 PUSH4 0x2836BE24 EQ PUSH2 0x1047 JUMPI DUP1 PUSH4 0x313CE567 EQ PUSH2 0x102C JUMPI DUP1 PUSH4 0x31D7A262 EQ PUSH2 0x1007 JUMPI DUP1 PUSH4 0x47B12BFC EQ PUSH2 0xFEC JUMPI DUP1 PUSH4 0x4E71D92D EQ PUSH2 0xEFF JUMPI DUP1 PUSH4 0x5B090044 EQ PUSH2 0xC19 JUMPI DUP1 PUSH4 0x64229D68 EQ PUSH2 0xBFB JUMPI DUP1 PUSH4 0x70A08231 EQ PUSH2 0xBC5 JUMPI DUP1 PUSH4 0x7165485D EQ PUSH2 0xB82 JUMPI DUP1 PUSH4 0x735DE9F7 EQ PUSH2 0xB5A JUMPI DUP1 PUSH4 0x748747E6 EQ PUSH2 0xACB JUMPI DUP1 PUSH4 0x902D55A5 EQ PUSH2 0xAA6 JUMPI DUP1 PUSH4 0x95D89B41 EQ PUSH2 0x9C1 JUMPI DUP1 PUSH4 0x98AECB67 EQ PUSH2 0x99C JUMPI DUP1 PUSH4 0x9D0014B1 EQ PUSH2 0x911 JUMPI DUP1 PUSH4 0x9D6EADC1 EQ PUSH2 0x8F3 JUMPI DUP1 PUSH4 0xA37A9FC0 EQ PUSH2 0x4CD JUMPI DUP1 PUSH4 0xA47541BA EQ PUSH2 0x8A4 JUMPI DUP1 PUSH4 0xA8355C8F EQ PUSH2 0x756 JUMPI DUP1 PUSH4 0xA9059CBB EQ PUSH2 0x874 JUMPI DUP1 PUSH4 0xACED1661 EQ PUSH2 0x84C JUMPI DUP1 PUSH4 0xB78D0538 EQ PUSH2 0x772 JUMPI DUP1 PUSH4 0xBACF2A7B EQ PUSH2 0x756 JUMPI DUP1 PUSH4 0xBB103CBC EQ PUSH2 0x73A JUMPI DUP1 PUSH4 0xC1DB4015 EQ PUSH2 0x71C JUMPI DUP1 PUSH4 0xC45A0155 EQ PUSH2 0x6D9 JUMPI DUP1 PUSH4 0xC463ECD7 EQ PUSH2 0x6BD JUMPI DUP1 PUSH4 0xC5F27B30 EQ PUSH2 0x69F JUMPI DUP1 PUSH4 0xC5F509D6 EQ PUSH2 0x67A JUMPI DUP1 PUSH4 0xC7B12801 EQ PUSH2 0x567 JUMPI DUP1 PUSH4 0xC816841B EQ PUSH2 0x53B JUMPI DUP1 PUSH4 0xCA81EB66 EQ PUSH2 0x50F JUMPI DUP1 PUSH4 0xCBA0E996 EQ PUSH2 0x4D2 JUMPI DUP1 PUSH4 0xCE91E164 EQ PUSH2 0x4CD JUMPI DUP1 PUSH4 0xDBB51D6E EQ PUSH2 0x453 JUMPI DUP1 PUSH4 0xDD62ED3E EQ PUSH2 0x40B JUMPI DUP1 PUSH4 0xE7C2B772 EQ PUSH2 0x3E8 JUMPI PUSH4 0xF6CEEFA2 SUB PUSH2 0x13 JUMPI CALLVALUE PUSH2 0x3E4 JUMPI PUSH1 0x20 DUP1 PUSH1 0x3 NOT CALLDATASIZE ADD SLT PUSH2 0x3E0 JUMPI PUSH1 0x1 PUSH1 0x1 PUSH1 0x40 SHL SUB SWAP1 DUP5 CALLDATALOAD SWAP1 DUP3 DUP3 GT PUSH2 0x3DC JUMPI CALLDATASIZE PUSH1 0x23 DUP4 ADD SLT ISZERO PUSH2 0x3DC JUMPI DUP2 DUP7 ADD CALLDATALOAD SWAP3 DUP4 GT PUSH2 0x3DC JUMPI PUSH1 0x5 SWAP3 PUSH1 0x24 CALLDATASIZE DUP3 DUP7 SHL DUP6 ADD DUP3 ADD GT PUSH2 0x3D8 JUMPI PUSH2 0x27B PUSH2 0x2287 JUMP JUMPDEST PUSH1 0xF SLOAD PUSH1 0x1 PUSH1 0x1 PUSH1 0xA0 SHL SUB SWAP9 SWAP1 DUP10 AND CALLER SUB PUSH2 0x3AA JUMPI POP DUP7 SWAP4 DUP8 SWAP6 DUP9 JUMPDEST DUP5 DUP2 LT PUSH2 0x2E2 JUMPI DUP10 PUSH32 0xF80654923FB0C7F7A44C79B000DCA8E52E2F4A16092A26FF31C0A410291D331 DUP11 DUP11 DUP11 DUP11 DUP4 MLOAD SWAP3 DUP4 MSTORE DUP3 ADD MSTORE LOG1 PUSH1 0x1 PUSH1 0x0 DUP1 MLOAD PUSH1 0x20 PUSH2 0x24D3 DUP4 CODECOPY DUP2 MLOAD SWAP2 MSTORE SSTORE DUP1 RETURN JUMPDEST DUP4 DUP2 DUP4 SWAP10 SWAP9 SWAP10 SHL DUP5 ADD ADD CALLDATALOAD DUP12 DUP2 AND SWAP1 DUP2 DUP2 SUB PUSH2 0x3A6 JUMPI PUSH2 0x301 DUP2 PUSH2 0x1B27 JUMP JUMPDEST ISZERO PUSH2 0x398 JUMPI PUSH2 0x30F SWAP1 PUSH2 0x1AA8 JUMP JUMPDEST DUP1 DUP12 MSTORE PUSH1 0x9 DUP8 MSTORE PUSH1 0x3 DUP11 DUP13 KECCAK256 ADD SWAP9 DUP10 SLOAD SWAP10 DUP13 DUP12 ISZERO PUSH2 0x389 JUMPI DUP1 DUP1 DUP1 DUP15 DUP2 DUP7 SSTORE DUP8 GAS CALL PUSH2 0x339 PUSH2 0x17B3 JUMP JUMPDEST POP ISZERO PUSH2 0x379 JUMPI POP SWAP1 PUSH1 0x0 DUP1 MLOAD PUSH1 0x20 PUSH2 0x2453 DUP4 CODECOPY DUP2 MLOAD SWAP2 MSTORE DUP9 PUSH2 0x368 PUSH2 0x362 DUP14 PUSH2 0x374 SWAP8 SWAP7 PUSH2 0x13F8 JUMP JUMPDEST SWAP12 PUSH2 0x22B7 JUMP JUMPDEST SWAP12 DUP14 MLOAD SWAP1 DUP2 MSTORE LOG2 PUSH2 0x22B7 JUMP JUMPDEST PUSH2 0x297 JUMP JUMPDEST PUSH2 0x374 SWAP4 SWAP3 POP SWAP10 SWAP1 SWAP9 SWAP10 SSTORE PUSH2 0x22B7 JUMP JUMPDEST POP POP SWAP8 SWAP9 POP POP PUSH2 0x374 SWAP1 PUSH2 0x22B7 JUMP JUMPDEST POP POP PUSH2 0x374 SWAP1 SWAP8 SWAP7 SWAP8 PUSH2 0x22B7 JUMP JUMPDEST DUP12 DUP1 REVERT JUMPDEST PUSH1 0xB PUSH1 0x64 SWAP3 DUP6 DUP10 MLOAD SWAP4 PUSH3 0x461BCD PUSH1 0xE5 SHL DUP6 MSTORE DUP5 ADD MSTORE DUP3 ADD MSTORE PUSH11 0x27B7363C9035B2B2B832B9 PUSH1 0xA9 SHL PUSH1 0x44 DUP3 ADD MSTORE REVERT JUMPDEST DUP7 DUP1 REVERT JUMPDEST DUP5 DUP1 REVERT JUMPDEST DUP3 DUP1 REVERT JUMPDEST POP DUP1 REVERT JUMPDEST POP CALLVALUE PUSH2 0x3E4 JUMPI DUP2 PUSH1 0x3 NOT CALLDATASIZE ADD SLT PUSH2 0x3E4 JUMPI PUSH1 0x20 SWAP1 PUSH1 0xFF PUSH1 0x5 SLOAD AND SWAP1 MLOAD SWAP1 ISZERO ISZERO DUP2 MSTORE RETURN JUMPDEST POP CALLVALUE PUSH2 0x3E4 JUMPI DUP1 PUSH1 0x3 NOT CALLDATASIZE ADD SLT PUSH2 0x3E4 JUMPI DUP1 PUSH1 0x20 SWAP3 PUSH2 0x428 PUSH2 0x13AB JUMP JUMPDEST PUSH2 0x430 PUSH2 0x13C6 JUMP JUMPDEST PUSH1 0x1 PUSH1 0x1 PUSH1 0xA0 SHL SUB SWAP2 DUP3 AND DUP4 MSTORE PUSH1 0x1 DUP7 MSTORE DUP4 DUP4 KECCAK256 SWAP2 AND DUP3 MSTORE DUP5 MSTORE KECCAK256 SLOAD SWAP1 MLOAD SWAP1 DUP2 MSTORE RETURN JUMPDEST POP CALLVALUE PUSH2 0x3E4 JUMPI PUSH1 0x20 CALLDATASIZE PUSH1 0x3 NOT ADD SLT PUSH2 0x3E4 JUMPI PUSH1 0xC0 SWAP2 DUP2 SWAP1 PUSH1 0x1 PUSH1 0x1 PUSH1 0xA0 SHL SUB PUSH2 0x47A PUSH2 0x13AB JUMP JUMPDEST AND DUP2 MSTORE PUSH1 0x9 PUSH1 0x20 MSTORE KECCAK256 SWAP1 DUP2 SLOAD SWAP2 PUSH1 0x1 DUP2 ADD SLOAD PUSH1 0x3 PUSH1 0x2 DUP4 ADD SLOAD SWAP3 ADD SLOAD SWAP3 DUP1 MLOAD SWAP5 PUSH1 0x1 DUP1 PUSH1 0x80 SHL SUB DUP2 AND DUP7 MSTORE PUSH1 0x1 DUP1 PUSH1 0x40 SHL SUB DUP2 PUSH1 0x80 SHR AND PUSH1 0x20 DUP8 ADD MSTORE DUP7 SHR SWAP1 DUP6 ADD MSTORE PUSH1 0x60 DUP5 ADD MSTORE PUSH1 0x80 DUP4 ADD MSTORE PUSH1 0xA0 DUP3 ADD MSTORE RETURN JUMPDEST PUSH2 0x13DC JUMP JUMPDEST POP CALLVALUE PUSH2 0x3E4 JUMPI PUSH1 0x20 CALLDATASIZE PUSH1 0x3 NOT ADD SLT PUSH2 0x3E4 JUMPI PUSH1 0x20 SWAP2 PUSH1 0xFF SWAP1 DUP3 SWAP1 PUSH1 0x1 PUSH1 0x1 PUSH1 0xA0 SHL SUB PUSH2 0x4FC PUSH2 0x13AB JUMP JUMPDEST AND DUP2 MSTORE PUSH1 0xE DUP6 MSTORE KECCAK256 SLOAD AND SWAP1 MLOAD SWAP1 ISZERO ISZERO DUP2 MSTORE RETURN JUMPDEST POP CALLVALUE PUSH2 0x3E4 JUMPI PUSH1 0x20 CALLDATASIZE PUSH1 0x3 NOT ADD SLT PUSH2 0x3E4 JUMPI PUSH1 0x20 SWAP1 PUSH2 0x534 PUSH2 0x52F PUSH2 0x13AB JUMP JUMPDEST PUSH2 0x1F4E JUMP JUMPDEST SWAP1 MLOAD SWAP1 DUP2 MSTORE RETURN JUMPDEST POP CALLVALUE PUSH2 0x3E4 JUMPI DUP2 PUSH1 0x3 NOT CALLDATASIZE ADD SLT PUSH2 0x3E4 JUMPI PUSH1 0x5 SLOAD SWAP1 MLOAD PUSH1 0x8 SWAP2 SWAP1 SWAP2 SHR PUSH1 0x1 PUSH1 0x1 PUSH1 0xA0 SHL SUB AND DUP2 MSTORE PUSH1 0x20 SWAP1 RETURN JUMPDEST POP DUP3 SWAP1 CALLVALUE PUSH2 0x3E0 JUMPI DUP1 PUSH1 0x3 NOT CALLDATASIZE ADD SLT PUSH2 0x3E0 JUMPI PUSH2 0x582 PUSH2 0x13AB JUMP JUMPDEST SWAP2 PUSH2 0x58B PUSH2 0x13C6 JUMP JUMPDEST PUSH1 0x1 PUSH1 0x1 PUSH1 0xA0 SHL SUB SWAP2 PUSH2 0x5C1 CALLER PUSH32 0x0 DUP6 AND EQ PUSH2 0x177A JUMP JUMPDEST PUSH1 0x5 SLOAD SWAP1 PUSH1 0xFF DUP3 AND PUSH2 0x643 JUMPI POP PUSH1 0x1 PUSH1 0x1 PUSH1 0xA8 SHL SUB NOT AND PUSH1 0x8 DUP6 SWAP1 SHL PUSH2 0x100 PUSH1 0x1 PUSH1 0xA8 SHL SUB AND OR PUSH1 0x1 OR PUSH1 0x5 SSTORE PUSH1 0x6 DUP1 SLOAD PUSH1 0x1 PUSH1 0x1 PUSH1 0xA0 SHL SUB NOT AND SWAP2 DUP4 AND SWAP2 SWAP1 SWAP2 OR SWAP1 SSTORE SWAP2 SWAP1 SWAP2 AND DUP1 DUP4 MSTORE PUSH1 0xE PUSH1 0x20 MSTORE SWAP1 DUP3 KECCAK256 DUP1 SLOAD PUSH1 0xFF NOT AND SWAP1 SSTORE PUSH32 0xC5CA2014458D93C5CF9F836FF7ECE45DE01C929DFB16EED9D6C3329FA1FD0982 DUP3 DUP1 LOG2 DUP1 RETURN JUMPDEST PUSH1 0x64 SWAP1 PUSH1 0x20 DUP7 MLOAD SWAP2 PUSH3 0x461BCD PUSH1 0xE5 SHL DUP4 MSTORE DUP3 ADD MSTORE PUSH1 0x11 PUSH1 0x24 DUP3 ADD MSTORE PUSH17 0x105B1C9958591E4819DC98591D585D1959 PUSH1 0x7A SHL PUSH1 0x44 DUP3 ADD MSTORE REVERT JUMPDEST POP CALLVALUE PUSH2 0x3E4 JUMPI PUSH1 0x20 CALLDATASIZE PUSH1 0x3 NOT ADD SLT PUSH2 0x3E4 JUMPI PUSH1 0x20 SWAP1 PUSH2 0x534 PUSH2 0x69A PUSH2 0x13AB JUMP JUMPDEST PUSH2 0x237D JUMP JUMPDEST POP CALLVALUE PUSH2 0x3E4 JUMPI DUP2 PUSH1 0x3 NOT CALLDATASIZE ADD SLT PUSH2 0x3E4 JUMPI PUSH1 0x20 SWAP1 PUSH1 0xD SLOAD SWAP1 MLOAD SWAP1 DUP2 MSTORE RETURN JUMPDEST POP CALLVALUE PUSH2 0x3E4 JUMPI DUP2 PUSH1 0x3 NOT CALLDATASIZE ADD SLT PUSH2 0x3E4 JUMPI PUSH1 0x20 SWAP1 MLOAD PUSH2 0x3E8 DUP2 MSTORE RETURN JUMPDEST POP CALLVALUE PUSH2 0x3E4 JUMPI DUP2 PUSH1 0x3 NOT CALLDATASIZE ADD SLT PUSH2 0x3E4 JUMPI MLOAD PUSH32 0x0 PUSH1 0x1 PUSH1 0x1 PUSH1 0xA0 SHL SUB AND DUP2 MSTORE PUSH1 0x20 SWAP1 RETURN JUMPDEST POP CALLVALUE PUSH2 0x3E4 JUMPI DUP2 PUSH1 0x3 NOT CALLDATASIZE ADD SLT PUSH2 0x3E4 JUMPI PUSH1 0x20 SWAP1 PUSH1 0xA SLOAD SWAP1 MLOAD SWAP1 DUP2 MSTORE RETURN JUMPDEST POP CALLVALUE PUSH2 0x3E4 JUMPI DUP2 PUSH1 0x3 NOT CALLDATASIZE ADD SLT PUSH2 0x3E4 JUMPI PUSH1 0x20 SWAP1 MLOAD PUSH2 0x7D0 DUP2 MSTORE RETURN JUMPDEST POP CALLVALUE PUSH2 0x3E4 JUMPI DUP2 PUSH1 0x3 NOT CALLDATASIZE ADD SLT PUSH2 0x3E4 JUMPI PUSH1 0x20 SWAP1 MLOAD PUSH2 0x1F4 DUP2 MSTORE RETURN JUMPDEST POP DUP3 DUP3 PUSH1 0x3 NOT CALLDATASIZE ADD SLT PUSH2 0x3E0 JUMPI DUP3 PUSH1 0x1 PUSH1 0x1 PUSH1 0xA0 SHL SUB PUSH2 0x7B5 CALLER PUSH32 0x0 DUP4 AND EQ PUSH2 0x177A JUMP JUMPDEST CALLVALUE PUSH2 0x7BE JUMPI POP DUP1 RETURN JUMPDEST DUP2 DUP1 DUP1 SWAP3 CALLVALUE SWAP1 PUSH32 0x0 AND GAS CALL PUSH2 0x7F0 PUSH2 0x17B3 JUMP JUMPDEST POP ISZERO PUSH2 0x814 JUMPI POP PUSH1 0x20 PUSH1 0x0 DUP1 MLOAD PUSH1 0x20 PUSH2 0x2413 DUP4 CODECOPY DUP2 MLOAD SWAP2 MSTORE SWAP2 MLOAD CALLVALUE DUP2 MSTORE LOG1 DUP2 DUP1 DUP3 DUP1 RETURN JUMPDEST PUSH1 0x20 PUSH1 0x64 SWAP3 MLOAD SWAP2 PUSH3 0x461BCD PUSH1 0xE5 SHL DUP4 MSTORE DUP3 ADD MSTORE PUSH1 0x13 PUSH1 0x24 DUP3 ADD MSTORE PUSH19 0x141B185D199BDC9B48199DD90819985A5B1959 PUSH1 0x6A SHL PUSH1 0x44 DUP3 ADD MSTORE REVERT JUMPDEST POP CALLVALUE PUSH2 0x3E4 JUMPI DUP2 PUSH1 0x3 NOT CALLDATASIZE ADD SLT PUSH2 0x3E4 JUMPI PUSH1 0xF SLOAD SWAP1 MLOAD PUSH1 0x1 PUSH1 0x1 PUSH1 0xA0 SHL SUB SWAP1 SWAP2 AND DUP2 MSTORE PUSH1 0x20 SWAP1 RETURN JUMPDEST POP CALLVALUE PUSH2 0x3E4 JUMPI DUP1 PUSH1 0x3 NOT CALLDATASIZE ADD SLT PUSH2 0x3E4 JUMPI PUSH1 0x20 SWAP1 PUSH2 0x89D PUSH2 0x893 PUSH2 0x13AB JUMP JUMPDEST PUSH1 0x24 CALLDATALOAD SWAP1 CALLER PUSH2 0x1454 JUMP JUMPDEST MLOAD PUSH1 0x1 DUP2 MSTORE RETURN JUMPDEST DUP3 DUP1 PUSH1 0x3 NOT CALLDATASIZE ADD SLT PUSH2 0x8F0 JUMPI PUSH2 0x8E4 CALLER PUSH32 0x0 PUSH1 0x1 PUSH1 0x1 PUSH1 0xA0 SHL SUB AND EQ PUSH2 0x177A JUMP JUMPDEST PUSH2 0x8ED CALLVALUE PUSH2 0x1EBD JUMP JUMPDEST DUP1 RETURN JUMPDEST DUP1 REVERT JUMPDEST POP CALLVALUE PUSH2 0x3E4 JUMPI DUP2 PUSH1 0x3 NOT CALLDATASIZE ADD SLT PUSH2 0x3E4 JUMPI PUSH1 0x20 SWAP1 PUSH1 0xB SLOAD SWAP1 MLOAD SWAP1 DUP2 MSTORE RETURN JUMPDEST POP DUP3 CALLVALUE PUSH2 0x3E0 JUMPI PUSH1 0x20 CALLDATASIZE PUSH1 0x3 NOT ADD SLT PUSH2 0x3E0 JUMPI DUP1 CALLDATALOAD SWAP2 PUSH2 0x95B CALLER PUSH32 0x0 PUSH1 0x1 PUSH1 0x1 PUSH1 0xA0 SHL SUB AND EQ PUSH2 0x23D7 JUMP JUMPDEST DUP3 ISZERO PUSH2 0x969 JUMPI POP POP PUSH1 0x7 SSTORE DUP1 RETURN JUMPDEST SWAP1 PUSH1 0x20 PUSH1 0x64 SWAP3 MLOAD SWAP2 PUSH3 0x461BCD PUSH1 0xE5 SHL DUP4 MSTORE DUP3 ADD MSTORE PUSH1 0xD PUSH1 0x24 DUP3 ADD MSTORE PUSH13 0x109859081D1A1C995CDA1BDB19 PUSH1 0x9A SHL PUSH1 0x44 DUP3 ADD MSTORE REVERT JUMPDEST POP CALLVALUE PUSH2 0x3E4 JUMPI DUP2 PUSH1 0x3 NOT CALLDATASIZE ADD SLT PUSH2 0x3E4 JUMPI PUSH1 0x20 SWAP1 MLOAD PUSH11 0xA56FA5B99019A5C8000000 DUP2 MSTORE RETURN JUMPDEST POP CALLVALUE PUSH2 0x3E4 JUMPI DUP2 PUSH1 0x3 NOT CALLDATASIZE ADD SLT PUSH2 0x3E4 JUMPI DUP1 MLOAD SWAP2 DUP1 SWAP4 DUP1 SLOAD SWAP2 PUSH1 0x1 SWAP1 DUP4 DUP3 SHR SWAP3 DUP3 DUP6 AND SWAP5 DUP6 ISZERO PUSH2 0xA9C JUMPI JUMPDEST PUSH1 0x20 SWAP6 DUP7 DUP7 LT DUP2 EQ PUSH2 0xA89 JUMPI DUP6 DUP10 MSTORE SWAP1 DUP2 ISZERO PUSH2 0xA65 JUMPI POP PUSH1 0x1 EQ PUSH2 0xA2A JUMPI JUMPDEST PUSH2 0xA26 DUP8 DUP8 PUSH2 0xA1C DUP3 DUP13 SUB DUP4 PUSH2 0x141B JUMP JUMPDEST MLOAD SWAP2 DUP3 SWAP2 DUP3 PUSH2 0x1362 JUMP JUMPDEST SUB SWAP1 RETURN JUMPDEST SWAP1 DUP1 SWAP5 SWAP8 POP MSTORE DUP6 DUP4 KECCAK256 JUMPDEST DUP3 DUP5 LT PUSH2 0xA52 JUMPI POP POP POP DUP3 PUSH2 0xA26 SWAP5 PUSH2 0xA1C SWAP3 DUP3 ADD ADD SWAP5 CODESIZE DUP1 PUSH2 0xA0B JUMP JUMPDEST DUP1 SLOAD DUP7 DUP6 ADD DUP9 ADD MSTORE SWAP3 DUP7 ADD SWAP3 DUP2 ADD PUSH2 0xA34 JUMP JUMPDEST PUSH1 0xFF NOT AND DUP9 DUP8 ADD MSTORE POP POP POP POP ISZERO ISZERO PUSH1 0x5 SHL DUP4 ADD ADD SWAP3 POP PUSH2 0xA1C DUP3 PUSH2 0xA26 CODESIZE DUP1 PUSH2 0xA0B JUMP JUMPDEST PUSH4 0x4E487B71 PUSH1 0xE0 SHL DUP5 MSTORE PUSH1 0x22 DUP4 MSTORE PUSH1 0x24 DUP5 REVERT JUMPDEST SWAP4 PUSH1 0x7F AND SWAP4 PUSH2 0x9EC JUMP JUMPDEST POP CALLVALUE PUSH2 0x3E4 JUMPI DUP2 PUSH1 0x3 NOT CALLDATASIZE ADD SLT PUSH2 0x3E4 JUMPI MLOAD PUSH8 0x6765C793FA10079D PUSH1 0x1B SHL DUP2 MSTORE PUSH1 0x20 SWAP1 RETURN JUMPDEST DUP3 CALLVALUE PUSH2 0x8F0 JUMPI PUSH1 0x20 CALLDATASIZE PUSH1 0x3 NOT ADD SLT PUSH2 0x8F0 JUMPI PUSH2 0xAE5 PUSH2 0x13AB JUMP JUMPDEST PUSH1 0x1 PUSH1 0x1 PUSH1 0xA0 SHL SUB SWAP1 PUSH2 0xB1B CALLER PUSH32 0x0 DUP5 AND EQ PUSH2 0x23D7 JUMP JUMPDEST DUP2 PUSH1 0xF SLOAD SWAP2 AND DUP1 SWAP3 DUP3 AND PUSH32 0x53D3703FE259DEF57584466F32D1B94C30278008C683C21B04501C4966F13A69 DUP6 DUP1 LOG3 PUSH1 0x1 PUSH1 0x1 PUSH1 0xA0 SHL SUB NOT AND OR PUSH1 0xF SSTORE DUP1 RETURN JUMPDEST POP CALLVALUE PUSH2 0x3E4 JUMPI DUP2 PUSH1 0x3 NOT CALLDATASIZE ADD SLT PUSH2 0x3E4 JUMPI PUSH1 0x6 SLOAD SWAP1 MLOAD PUSH1 0x1 PUSH1 0x1 PUSH1 0xA0 SHL SUB SWAP1 SWAP2 AND DUP2 MSTORE PUSH1 0x20 SWAP1 RETURN JUMPDEST POP CALLVALUE PUSH2 0x3E4 JUMPI DUP2 PUSH1 0x3 NOT CALLDATASIZE ADD SLT PUSH2 0x3E4 JUMPI MLOAD PUSH32 0x0 PUSH1 0x1 PUSH1 0x1 PUSH1 0xA0 SHL SUB AND DUP2 MSTORE PUSH1 0x20 SWAP1 RETURN JUMPDEST POP CALLVALUE PUSH2 0x3E4 JUMPI PUSH1 0x20 CALLDATASIZE PUSH1 0x3 NOT ADD SLT PUSH2 0x3E4 JUMPI PUSH1 0x20 SWAP2 DUP2 SWAP1 PUSH1 0x1 PUSH1 0x1 PUSH1 0xA0 SHL SUB PUSH2 0xBEC PUSH2 0x13AB JUMP JUMPDEST AND DUP2 MSTORE DUP1 DUP5 MSTORE KECCAK256 SLOAD SWAP1 MLOAD SWAP1 DUP2 MSTORE RETURN JUMPDEST POP CALLVALUE PUSH2 0x3E4 JUMPI DUP2 PUSH1 0x3 NOT CALLDATASIZE ADD SLT PUSH2 0x3E4 JUMPI PUSH1 0x20 SWAP1 PUSH1 0xC SLOAD SWAP1 MLOAD SWAP1 DUP2 MSTORE RETURN JUMPDEST POP CALLVALUE PUSH2 0x3E4 JUMPI PUSH1 0x20 DUP1 PUSH1 0x3 NOT CALLDATASIZE ADD SLT PUSH2 0x3E0 JUMPI DUP4 CALLDATALOAD SWAP2 PUSH1 0x1 PUSH1 0x1 PUSH1 0xA0 SHL SUB SWAP2 PUSH32 0x0 DUP4 DUP2 AND SWAP1 PUSH2 0xC68 CALLER DUP4 EQ PUSH2 0x177A JUMP JUMPDEST DUP6 ISZERO SWAP8 DUP9 ISZERO PUSH2 0xC75 JUMPI DUP8 DUP1 RETURN JUMPDEST DUP3 ISZERO PUSH2 0xEE8 JUMPI DUP7 SWAP9 PUSH2 0xC86 DUP4 PUSH2 0x1AA8 JUMP JUMPDEST PUSH2 0xC8E PUSH2 0x19DD JUMP JUMPDEST PUSH1 0x5 SLOAD SWAP8 PUSH1 0xFF SWAP9 DUP10 DUP2 AND DUP1 PUSH2 0xEDC JUMPI JUMPDEST DUP1 PUSH2 0xEC8 JUMPI JUMPDEST DUP1 PUSH2 0xEB2 JUMPI JUMPDEST PUSH2 0xD59 JUMPI JUMPDEST POP POP POP POP DUP1 PUSH2 0xCC7 DUP9 SWAP10 PUSH2 0xCCC SWAP4 SWAP10 SWAP7 SWAP8 SWAP9 SWAP10 PUSH2 0x1855 JUMP JUMPDEST PUSH2 0x1CF4 JUMP JUMPDEST PUSH2 0xCD4 PUSH2 0x1B54 JUMP JUMPDEST PUSH1 0x5 SLOAD DUP7 DUP2 AND SWAP7 DUP8 PUSH2 0xD4C JUMPI JUMPDEST POP DUP7 PUSH2 0xD3C JUMPI JUMPDEST POP POP DUP5 PUSH2 0xD26 JUMPI JUMPDEST POP POP POP DUP2 PUSH2 0xD18 JUMPI JUMPDEST POP PUSH2 0xD0B JUMPI JUMPDEST DUP1 CODESIZE DUP1 DUP1 DUP1 DUP1 DUP1 DUP1 DUP8 DUP1 RETURN JUMPDEST PUSH2 0xD13 PUSH2 0x1FB3 JUMP JUMPDEST PUSH2 0xCFF JUMP JUMPDEST SWAP1 POP PUSH1 0x6 SLOAD AND ISZERO ISZERO CODESIZE PUSH2 0xCF9 JUMP JUMPDEST ADDRESS DUP3 MSTORE MSTORE DUP4 KECCAK256 SLOAD PUSH1 0x7 SLOAD GT ISZERO SWAP2 POP CODESIZE DUP4 DUP2 PUSH2 0xCF0 JUMP JUMPDEST PUSH1 0x8 SHR DUP6 AND EQ ISZERO SWAP5 POP CODESIZE DUP1 PUSH2 0xCE8 JUMP JUMPDEST PUSH1 0x8 SLOAD AND ISZERO SWAP7 POP CODESIZE PUSH2 0xCE1 JUMP JUMPDEST PUSH1 0x8 SHR DUP9 AND DUP6 DUP2 EQ SWAP3 PUSH2 0xDEAD SWAP3 SWAP2 DUP4 EQ DUP5 DUP1 ISZERO PUSH2 0xEAB JUMPI JUMPDEST PUSH2 0xD7D JUMPI JUMPDEST POP POP PUSH2 0xCAF JUMP JUMPDEST SWAP1 SWAP2 SWAP3 SWAP4 SWAP5 SWAP13 POP DUP12 SWAP1 PUSH2 0xE9C JUMPI JUMPDEST PUSH2 0x1F4 SWAP1 DUP2 ADD DUP1 SWAP2 GT PUSH2 0xE89 JUMPI PUSH2 0xDA8 SWAP1 PUSH2 0x2710 SWAP2 DUP3 SWAP2 DUP6 PUSH2 0x17F2 JUMP JUMPDEST DIV SWAP2 PUSH1 0x96 DUP5 MUL SWAP1 DUP5 DUP3 DIV PUSH1 0x96 EQ OR ISZERO PUSH2 0xE75 JUMPI DUP13 SWAP14 POP PUSH1 0x60 PUSH2 0xCCC SWAP8 SWAP7 SWAP5 DUP11 DUP13 SWAP14 SWAP15 SWAP16 DUP1 SWAP14 PUSH2 0xE08 PUSH2 0xCC7 SWAP11 SWAP9 DUP15 SWAP9 PUSH1 0x0 DUP1 MLOAD PUSH1 0x20 PUSH2 0x24B3 DUP4 CODECOPY DUP2 MLOAD SWAP2 MSTORE SWAP9 DIV SWAP6 DUP14 DUP8 DUP1 PUSH2 0xE65 JUMPI JUMPDEST PUSH2 0xDFB SWAP1 DUP5 PUSH2 0x1825 JUMP JUMPDEST DUP1 PUSH2 0xE53 JUMPI JUMPDEST POP POP PUSH2 0x1825 JUMP JUMPDEST SWAP9 PUSH2 0xE2E JUMPI JUMPDEST SWAP2 POP POP MLOAD SWAP1 DUP2 MSTORE DUP12 DUP12 DUP3 ADD MSTORE DUP12 DUP14 DUP3 ADD MSTORE LOG3 SWAP10 SWAP9 SWAP8 SWAP7 SWAP6 DUP3 SWAP4 CODESIZE DUP1 PUSH2 0xD76 JUMP JUMPDEST DUP8 DUP3 MSTORE PUSH1 0x9 SWAP1 SWAP3 MSTORE KECCAK256 PUSH2 0xE4B SWAP1 TIMESTAMP PUSH1 0x1 PUSH1 0x1 PUSH1 0x40 SHL SUB AND SWAP1 PUSH2 0x1832 JUMP JUMPDEST DUP11 DUP13 DUP15 PUSH2 0xE0E JUMP JUMPDEST PUSH2 0xE5E SWAP2 ADDRESS SWAP1 PUSH2 0x18F0 JUMP JUMPDEST DUP14 CODESIZE PUSH2 0xE01 JUMP JUMPDEST PUSH2 0xE6E SWAP2 PUSH2 0x1855 JUMP JUMPDEST DUP14 DUP8 PUSH2 0xDF1 JUMP JUMPDEST POP PUSH4 0x4E487B71 PUSH1 0xE0 SHL DUP13 MSTORE PUSH1 0x11 DUP14 MSTORE PUSH1 0x24 DUP13 REVERT JUMPDEST PUSH4 0x4E487B71 PUSH1 0xE0 SHL DUP13 MSTORE PUSH1 0x11 DUP14 MSTORE PUSH1 0x24 DUP13 REVERT JUMPDEST POP PUSH2 0xEA6 DUP6 PUSH2 0x1F4E JUMP JUMPDEST PUSH2 0xD8B JUMP JUMPDEST POP DUP1 PUSH2 0xD71 JUMP JUMPDEST POP PUSH2 0xDEAD DUP12 MSTORE PUSH1 0xE DUP8 MSTORE DUP10 DUP9 DUP13 KECCAK256 SLOAD AND ISZERO PUSH2 0xCAA JUMP JUMPDEST POP DUP6 DUP12 MSTORE PUSH1 0xE DUP8 MSTORE DUP10 DUP9 DUP13 KECCAK256 SLOAD AND ISZERO PUSH2 0xCA4 JUMP JUMPDEST POP DUP10 PUSH1 0x8 SLOAD AND ISZERO PUSH2 0xC9E JUMP JUMPDEST DUP5 MLOAD PUSH4 0x4B637E8F PUSH1 0xE1 SHL DUP2 MSTORE SWAP1 DUP2 ADD DUP9 SWAP1 MSTORE PUSH1 0x24 SWAP1 REVERT JUMPDEST POP DUP3 SWAP1 CALLVALUE PUSH2 0x3E0 JUMPI DUP3 PUSH1 0x3 NOT CALLDATASIZE ADD SLT PUSH2 0x3E0 JUMPI PUSH2 0xF1A PUSH2 0x2287 JUMP JUMPDEST PUSH2 0xF23 CALLER PUSH2 0x1AA8 JUMP JUMPDEST CALLER DUP4 MSTORE PUSH1 0x9 PUSH1 0x20 MSTORE PUSH1 0x3 DUP2 DUP5 KECCAK256 ADD SWAP2 DUP3 SLOAD SWAP3 DUP4 ISZERO PUSH2 0xFB6 JUMPI DUP5 SWAP1 SSTORE DUP4 DUP1 DUP1 DUP1 DUP7 CALLER GAS CALL PUSH2 0xF4E PUSH2 0x17B3 JUMP JUMPDEST POP ISZERO PUSH2 0xF82 JUMPI POP MLOAD SWAP1 DUP2 MSTORE PUSH1 0x0 DUP1 MLOAD PUSH1 0x20 PUSH2 0x2453 DUP4 CODECOPY DUP2 MLOAD SWAP2 MSTORE PUSH1 0x20 CALLER SWAP3 LOG2 PUSH1 0x1 PUSH1 0x0 DUP1 MLOAD PUSH1 0x20 PUSH2 0x24D3 DUP4 CODECOPY DUP2 MLOAD SWAP2 MSTORE SSTORE DUP1 RETURN JUMPDEST PUSH1 0x20 PUSH1 0x64 SWAP3 MLOAD SWAP2 PUSH3 0x461BCD PUSH1 0xE5 SHL DUP4 MSTORE DUP3 ADD MSTORE PUSH1 0xF PUSH1 0x24 DUP3 ADD MSTORE PUSH15 0x115512081CD95B990819985A5B1959 PUSH1 0x8A SHL PUSH1 0x44 DUP3 ADD MSTORE REVERT JUMPDEST POP PUSH1 0x20 PUSH1 0x64 SWAP3 MLOAD SWAP2 PUSH3 0x461BCD PUSH1 0xE5 SHL DUP4 MSTORE DUP3 ADD MSTORE PUSH1 0x10 PUSH1 0x24 DUP3 ADD MSTORE PUSH16 0x4E6F7468696E6720746F20636C61696D PUSH1 0x80 SHL PUSH1 0x44 DUP3 ADD MSTORE REVERT JUMPDEST POP CALLVALUE PUSH2 0x3E4 JUMPI DUP2 PUSH1 0x3 NOT CALLDATASIZE ADD SLT PUSH2 0x3E4 JUMPI PUSH1 0x20 SWAP1 MLOAD PUSH1 0xC8 DUP2 MSTORE RETURN JUMPDEST POP CALLVALUE PUSH2 0x3E4 JUMPI PUSH1 0x20 CALLDATASIZE PUSH1 0x3 NOT ADD SLT PUSH2 0x3E4 JUMPI PUSH1 0x20 SWAP1 PUSH2 0x534 PUSH2 0x1027 PUSH2 0x13AB JUMP JUMPDEST PUSH2 0x22C6 JUMP JUMPDEST POP CALLVALUE PUSH2 0x3E4 JUMPI DUP2 PUSH1 0x3 NOT CALLDATASIZE ADD SLT PUSH2 0x3E4 JUMPI PUSH1 0x20 SWAP1 MLOAD PUSH1 0x12 DUP2 MSTORE RETURN JUMPDEST POP CALLVALUE PUSH2 0x3E4 JUMPI DUP1 PUSH1 0x3 NOT CALLDATASIZE ADD SLT PUSH2 0x3E4 JUMPI PUSH2 0x1060 PUSH2 0x13AB JUMP JUMPDEST SWAP1 PUSH1 0x24 CALLDATALOAD SWAP2 DUP3 ISZERO ISZERO DUP1 SWAP4 SUB PUSH2 0x10BF JUMPI PUSH1 0x1 PUSH1 0x1 PUSH1 0xA0 SHL SUB SWAP1 PUSH2 0x10A5 CALLER PUSH32 0x0 DUP5 AND EQ PUSH2 0x23D7 JUMP JUMPDEST AND DUP4 MSTORE PUSH1 0xE PUSH1 0x20 MSTORE DUP3 KECCAK256 SWAP1 PUSH1 0xFF DUP1 NOT DUP4 SLOAD AND SWAP2 AND OR SWAP1 SSTORE DUP1 RETURN JUMPDEST DUP4 DUP1 REVERT JUMPDEST POP SWAP2 SWAP1 CALLVALUE PUSH2 0x8F0 JUMPI PUSH1 0x60 CALLDATASIZE PUSH1 0x3 NOT ADD SLT PUSH2 0x8F0 JUMPI PUSH2 0x10DF PUSH2 0x13AB JUMP JUMPDEST PUSH2 0x10E7 PUSH2 0x13C6 JUMP JUMPDEST SWAP2 PUSH1 0x44 CALLDATALOAD SWAP4 PUSH1 0x1 DUP1 PUSH1 0xA0 SHL SUB DUP4 AND DUP1 DUP4 MSTORE PUSH1 0x1 PUSH1 0x20 MSTORE DUP7 DUP4 KECCAK256 CALLER DUP5 MSTORE PUSH1 0x20 MSTORE DUP7 DUP4 KECCAK256 SLOAD SWAP2 PUSH1 0x0 NOT DUP4 LT PUSH2 0x1123 JUMPI JUMPDEST PUSH1 0x20 DUP9 PUSH2 0x89D DUP10 DUP10 DUP10 PUSH2 0x1454 JUMP JUMPDEST DUP7 DUP4 LT PUSH2 0x118B JUMPI DUP2 ISZERO PUSH2 0x1174 JUMPI CALLER ISZERO PUSH2 0x115D JUMPI POP DUP3 MSTORE PUSH1 0x1 PUSH1 0x20 SWAP1 DUP2 MSTORE DUP7 DUP4 KECCAK256 CALLER DUP5 MSTORE DUP2 MSTORE SWAP2 DUP7 SWAP1 KECCAK256 SWAP1 DUP6 SWAP1 SUB SWAP1 SSTORE DUP3 SWAP1 PUSH2 0x89D CODESIZE PUSH2 0x1115 JUMP JUMPDEST DUP8 MLOAD PUSH4 0x4A1406B1 PUSH1 0xE1 SHL DUP2 MSTORE SWAP1 DUP2 ADD DUP5 SWAP1 MSTORE PUSH1 0x24 SWAP1 REVERT JUMPDEST DUP8 MLOAD PUSH4 0xE602DF05 PUSH1 0xE0 SHL DUP2 MSTORE SWAP1 DUP2 ADD DUP5 SWAP1 MSTORE PUSH1 0x24 SWAP1 REVERT JUMPDEST SWAP1 POP PUSH2 0x11A9 DUP7 DUP9 MLOAD SWAP4 DUP5 SWAP4 PUSH4 0x7DC7A0D9 PUSH1 0xE1 SHL DUP6 MSTORE CALLER SWAP1 DUP6 ADD PUSH2 0x175C JUMP JUMPDEST SUB SWAP1 REVERT JUMPDEST POP CALLVALUE PUSH2 0x3E4 JUMPI DUP2 PUSH1 0x3 NOT CALLDATASIZE ADD SLT PUSH2 0x3E4 JUMPI MLOAD PUSH8 0x14ADF4B7320334B9 PUSH1 0x1D SHL DUP2 MSTORE PUSH1 0x20 SWAP1 RETURN JUMPDEST POP CALLVALUE PUSH2 0x3E4 JUMPI DUP2 PUSH1 0x3 NOT CALLDATASIZE ADD SLT PUSH2 0x3E4 JUMPI PUSH1 0x20 SWAP1 PUSH1 0x2 SLOAD SWAP1 MLOAD SWAP1 DUP2 MSTORE RETURN JUMPDEST POP CALLVALUE PUSH2 0x3E4 JUMPI DUP1 PUSH1 0x3 NOT CALLDATASIZE ADD SLT PUSH2 0x3E4 JUMPI PUSH1 0x20 SWAP1 PUSH2 0x89D PUSH2 0x120F PUSH2 0x13AB JUMP JUMPDEST PUSH1 0x24 CALLDATALOAD SWAP1 CALLER PUSH2 0x16C9 JUMP JUMPDEST POP CALLVALUE PUSH2 0x3E4 JUMPI DUP2 PUSH1 0x3 NOT CALLDATASIZE ADD SLT PUSH2 0x3E4 JUMPI PUSH1 0x20 SWAP1 PUSH2 0x534 PUSH2 0x123C PUSH1 0xB SLOAD TIMESTAMP PUSH2 0x1825 JUMP JUMPDEST PUSH2 0x124B PUSH1 0xA SLOAD SWAP2 PUSH1 0xC SLOAD PUSH2 0x17F2 JUMP JUMPDEST SWAP1 PUSH2 0x13F8 JUMP JUMPDEST POP DUP3 SWAP1 CALLVALUE PUSH2 0x3E0 JUMPI DUP3 PUSH1 0x3 NOT CALLDATASIZE ADD SLT PUSH2 0x3E0 JUMPI DUP1 MLOAD SWAP2 DUP4 PUSH1 0x3 SLOAD SWAP1 PUSH1 0x1 SWAP1 DUP3 DUP3 SHR SWAP3 DUP3 DUP2 AND DUP1 ISZERO PUSH2 0x131E JUMPI JUMPDEST PUSH1 0x20 SWAP6 DUP7 DUP7 LT DUP3 EQ PUSH2 0x130B JUMPI POP DUP5 DUP9 MSTORE SWAP1 DUP2 ISZERO PUSH2 0x12E9 JUMPI POP PUSH1 0x1 EQ PUSH2 0x12AE JUMPI JUMPDEST PUSH2 0xA26 DUP7 DUP7 PUSH2 0xA1C DUP3 DUP12 SUB DUP4 PUSH2 0x141B JUMP JUMPDEST SWAP3 SWAP6 POP PUSH1 0x3 DUP4 MSTORE DUP6 DUP4 KECCAK256 JUMPDEST DUP3 DUP5 LT PUSH2 0x12D6 JUMPI POP POP POP DUP3 PUSH2 0xA26 SWAP5 PUSH2 0xA1C SWAP3 DUP3 ADD ADD SWAP5 DUP7 PUSH2 0x129D JUMP JUMPDEST DUP1 SLOAD DUP7 DUP6 ADD DUP9 ADD MSTORE SWAP3 DUP7 ADD SWAP3 DUP2 ADD PUSH2 0x12B9 JUMP JUMPDEST PUSH1 0xFF NOT AND DUP8 DUP7 ADD MSTORE POP POP POP ISZERO ISZERO PUSH1 0x5 SHL DUP4 ADD ADD SWAP3 POP PUSH2 0xA1C DUP3 PUSH2 0xA26 DUP7 PUSH2 0x129D JUMP JUMPDEST PUSH4 0x4E487B71 PUSH1 0xE0 SHL DUP5 MSTORE PUSH1 0x22 SWAP1 MSTORE PUSH1 0x24 DUP4 REVERT JUMPDEST SWAP4 PUSH1 0x7F AND SWAP4 PUSH2 0x127D JUMP JUMPDEST POP CALLVALUE PUSH2 0x3E4 JUMPI DUP2 PUSH1 0x3 NOT CALLDATASIZE ADD SLT PUSH2 0x3E4 JUMPI PUSH1 0x20 SWAP1 PUSH1 0x7 SLOAD SWAP1 MLOAD SWAP1 DUP2 MSTORE RETURN JUMPDEST DUP4 SWAP1 CALLVALUE PUSH2 0x3E4 JUMPI DUP2 PUSH1 0x3 NOT CALLDATASIZE ADD SLT PUSH2 0x3E4 JUMPI DUP1 PUSH2 0xDEAD PUSH1 0x20 SWAP3 MSTORE RETURN JUMPDEST PUSH1 0x20 DUP1 DUP3 MSTORE DUP3 MLOAD DUP2 DUP4 ADD DUP2 SWAP1 MSTORE SWAP1 SWAP4 SWAP3 PUSH1 0x0 JUMPDEST DUP3 DUP2 LT PUSH2 0x1397 JUMPI POP POP PUSH1 0x40 SWAP3 SWAP4 POP PUSH1 0x0 DUP4 DUP3 DUP5 ADD ADD MSTORE PUSH1 0x1F DUP1 NOT SWAP2 ADD AND ADD ADD SWAP1 JUMP JUMPDEST DUP2 DUP2 ADD DUP7 ADD MLOAD DUP5 DUP3 ADD PUSH1 0x40 ADD MSTORE DUP6 ADD PUSH2 0x1375 JUMP JUMPDEST PUSH1 0x4 CALLDATALOAD SWAP1 PUSH1 0x1 PUSH1 0x1 PUSH1 0xA0 SHL SUB DUP3 AND DUP3 SUB PUSH2 0x13C1 JUMPI JUMP JUMPDEST PUSH1 0x0 DUP1 REVERT JUMPDEST PUSH1 0x24 CALLDATALOAD SWAP1 PUSH1 0x1 PUSH1 0x1 PUSH1 0xA0 SHL SUB DUP3 AND DUP3 SUB PUSH2 0x13C1 JUMPI JUMP JUMPDEST CALLVALUE PUSH2 0x13C1 JUMPI PUSH1 0x0 CALLDATASIZE PUSH1 0x3 NOT ADD SLT PUSH2 0x13C1 JUMPI PUSH1 0x20 PUSH1 0x40 MLOAD PUSH1 0x96 DUP2 MSTORE RETURN JUMPDEST SWAP2 SWAP1 DUP3 ADD DUP1 SWAP3 GT PUSH2 0x1405 JUMPI JUMP JUMPDEST PUSH4 0x4E487B71 PUSH1 0xE0 SHL PUSH1 0x0 MSTORE PUSH1 0x11 PUSH1 0x4 MSTORE PUSH1 0x24 PUSH1 0x0 REVERT JUMPDEST PUSH1 0x1F SWAP1 SWAP2 ADD PUSH1 0x1F NOT AND DUP2 ADD SWAP1 PUSH1 0x1 PUSH1 0x1 PUSH1 0x40 SHL SUB DUP3 GT SWAP1 DUP3 LT OR PUSH2 0x143E JUMPI PUSH1 0x40 MSTORE JUMP JUMPDEST PUSH4 0x4E487B71 PUSH1 0xE0 SHL PUSH1 0x0 MSTORE PUSH1 0x41 PUSH1 0x4 MSTORE PUSH1 0x24 PUSH1 0x0 REVERT JUMPDEST PUSH1 0x1 PUSH1 0x1 PUSH1 0xA0 SHL SUB SWAP3 SWAP2 DUP4 DUP3 AND SWAP2 SWAP1 DUP3 ISZERO PUSH2 0x16B0 JUMPI DUP5 DUP2 AND SWAP2 DUP3 ISZERO PUSH2 0x1697 JUMPI DUP5 SWAP3 PUSH2 0x147E DUP3 PUSH2 0x1AA8 JUMP JUMPDEST PUSH2 0x1487 DUP4 PUSH2 0x1AA8 JUMP JUMPDEST PUSH1 0x5 SLOAD SWAP6 DUP8 PUSH1 0xFF SWAP8 DUP9 DUP2 AND DUP1 PUSH2 0x168B JUMPI JUMPDEST DUP1 PUSH2 0x1673 JUMPI JUMPDEST DUP1 PUSH2 0x165B JUMPI JUMPDEST PUSH2 0x153A JUMPI JUMPDEST POP POP POP POP DUP1 PUSH2 0xCC7 PUSH2 0x14BF SWAP5 DUP5 PUSH2 0xCC7 SWAP5 PUSH2 0x18F0 JUMP JUMPDEST PUSH1 0x5 SLOAD DUP3 DUP2 AND SWAP3 DUP4 PUSH2 0x152D JUMPI JUMPDEST POP DUP3 PUSH2 0x151D JUMPI JUMPDEST POP POP SWAP1 DUP2 PUSH2 0x1501 JUMPI JUMPDEST DUP2 PUSH2 0x14F3 JUMPI JUMPDEST POP PUSH2 0x14E9 JUMPI JUMP JUMPDEST PUSH2 0x14F1 PUSH2 0x1FB3 JUMP JUMPDEST JUMP JUMPDEST SWAP1 POP PUSH1 0x6 SLOAD AND ISZERO ISZERO CODESIZE PUSH2 0x14E2 JUMP JUMPDEST SWAP1 POP ADDRESS PUSH1 0x0 MSTORE PUSH1 0x0 PUSH1 0x20 MSTORE PUSH1 0x40 PUSH1 0x0 KECCAK256 SLOAD PUSH1 0x7 SLOAD GT ISZERO SWAP1 PUSH2 0x14DC JUMP JUMPDEST PUSH1 0x8 SHR DUP4 AND EQ ISZERO SWAP1 POP CODESIZE DUP1 PUSH2 0x14D3 JUMP JUMPDEST PUSH1 0x8 SLOAD AND ISZERO SWAP3 POP CODESIZE PUSH2 0x14CC JUMP JUMPDEST PUSH1 0x8 SHR AND DUP3 DUP2 EQ SWAP2 SWAP1 DUP8 EQ DUP1 DUP1 ISZERO PUSH2 0x1654 JUMPI JUMPDEST PUSH2 0x155A JUMPI JUMPDEST DUP10 SWAP2 POP PUSH2 0x14A9 JUMP JUMPDEST SWAP1 SWAP2 SWAP4 SWAP3 SWAP6 POP PUSH1 0x0 SWAP4 PUSH2 0x1643 JUMPI JUMPDEST PUSH2 0x1F4 SWAP4 DUP5 ADD DUP1 SWAP5 GT PUSH2 0x1405 JUMPI PUSH2 0x1585 SWAP4 PUSH2 0x2710 SWAP5 DUP6 SWAP2 DUP5 PUSH2 0x17F2 JUMP JUMPDEST DIV SWAP6 PUSH1 0x96 DUP4 MUL DUP4 DUP2 DIV PUSH1 0x96 EQ DUP5 ISZERO OR ISZERO PUSH2 0x1405 JUMPI PUSH1 0x0 DUP1 MLOAD PUSH1 0x20 PUSH2 0x24B3 DUP4 CODECOPY DUP2 MLOAD SWAP2 MSTORE PUSH1 0x60 PUSH2 0xCC7 SWAP6 PUSH2 0x15D9 PUSH2 0x14BF SWAP12 PUSH2 0xCC7 SWAP11 DUP15 SWAP7 DIV SWAP3 DUP4 PUSH2 0x1634 JUMPI JUMPDEST PUSH2 0x15CD DUP5 DUP4 PUSH2 0x1825 JUMP JUMPDEST DUP1 PUSH2 0x1623 JUMPI JUMPDEST POP PUSH2 0x1825 JUMP JUMPDEST SWAP6 PUSH2 0x15FC JUMPI JUMPDEST PUSH1 0x40 MLOAD SWAP1 DUP2 MSTORE PUSH1 0x0 PUSH1 0x20 DUP3 ADD MSTORE PUSH1 0x0 PUSH1 0x40 DUP3 ADD MSTORE LOG3 SWAP5 DUP3 SWAP4 PUSH2 0x1552 JUMP JUMPDEST PUSH1 0x0 DUP6 DUP2 MSTORE PUSH1 0x9 PUSH1 0x20 MSTORE PUSH1 0x40 SWAP1 KECCAK256 PUSH2 0x161E SWAP1 TIMESTAMP PUSH1 0x1 PUSH1 0x1 PUSH1 0x40 SHL SUB AND SWAP1 PUSH2 0x1832 JUMP JUMPDEST PUSH2 0x15DF JUMP JUMPDEST PUSH2 0x162E SWAP1 ADDRESS DUP14 PUSH2 0x18F0 JUMP JUMPDEST CODESIZE PUSH2 0x15D3 JUMP JUMPDEST PUSH2 0x163E DUP5 DUP13 PUSH2 0x1855 JUMP JUMPDEST PUSH2 0x15C3 JUMP JUMPDEST SWAP3 POP PUSH2 0x164E DUP3 PUSH2 0x1F4E JUMP JUMPDEST SWAP3 PUSH2 0x1568 JUMP JUMPDEST POP DUP3 PUSH2 0x154D JUMP JUMPDEST POP DUP4 PUSH1 0x0 MSTORE PUSH1 0xE PUSH1 0x20 MSTORE DUP9 PUSH1 0x40 PUSH1 0x0 KECCAK256 SLOAD AND ISZERO PUSH2 0x14A4 JUMP JUMPDEST POP DUP8 PUSH1 0x0 MSTORE PUSH1 0xE PUSH1 0x20 MSTORE DUP9 PUSH1 0x40 PUSH1 0x0 KECCAK256 SLOAD AND ISZERO PUSH2 0x149E JUMP JUMPDEST POP DUP9 PUSH1 0x8 SLOAD AND ISZERO PUSH2 0x1498 JUMP JUMPDEST PUSH1 0x40 MLOAD PUSH4 0xEC442F05 PUSH1 0xE0 SHL DUP2 MSTORE PUSH1 0x0 PUSH1 0x4 DUP3 ADD MSTORE PUSH1 0x24 SWAP1 REVERT JUMPDEST PUSH1 0x40 MLOAD PUSH4 0x4B637E8F PUSH1 0xE1 SHL DUP2 MSTORE PUSH1 0x0 PUSH1 0x4 DUP3 ADD MSTORE PUSH1 0x24 SWAP1 REVERT JUMPDEST PUSH1 0x1 PUSH1 0x1 PUSH1 0xA0 SHL SUB SWAP1 DUP2 AND SWAP2 DUP3 ISZERO PUSH2 0x1743 JUMPI AND SWAP2 DUP3 ISZERO PUSH2 0x172A JUMPI PUSH1 0x20 PUSH32 0x8C5BE1E5EBEC7D5BD14F71427D1E84F3DD0314C0F7B2291E5B200AC8C7C3B925 SWAP2 DUP4 PUSH1 0x0 MSTORE PUSH1 0x1 DUP3 MSTORE PUSH1 0x40 PUSH1 0x0 KECCAK256 DUP6 PUSH1 0x0 MSTORE DUP3 MSTORE DUP1 PUSH1 0x40 PUSH1 0x0 KECCAK256 SSTORE PUSH1 0x40 MLOAD SWAP1 DUP2 MSTORE LOG3 JUMP JUMPDEST PUSH1 0x40 MLOAD PUSH4 0x4A1406B1 PUSH1 0xE1 SHL DUP2 MSTORE PUSH1 0x0 PUSH1 0x4 DUP3 ADD MSTORE PUSH1 0x24 SWAP1 REVERT JUMPDEST PUSH1 0x40 MLOAD PUSH4 0xE602DF05 PUSH1 0xE0 SHL DUP2 MSTORE PUSH1 0x0 PUSH1 0x4 DUP3 ADD MSTORE PUSH1 0x24 SWAP1 REVERT JUMPDEST PUSH1 0x40 SWAP2 SWAP5 SWAP4 SWAP3 PUSH1 0x60 DUP3 ADD SWAP6 PUSH1 0x1 DUP1 PUSH1 0xA0 SHL SUB AND DUP3 MSTORE PUSH1 0x20 DUP3 ADD MSTORE ADD MSTORE JUMP JUMPDEST ISZERO PUSH2 0x1781 JUMPI JUMP JUMPDEST PUSH1 0x40 MLOAD PUSH3 0x461BCD PUSH1 0xE5 SHL DUP2 MSTORE PUSH1 0x20 PUSH1 0x4 DUP3 ADD MSTORE PUSH1 0xA PUSH1 0x24 DUP3 ADD MSTORE PUSH10 0x4F6E6C79206375727665 PUSH1 0xB0 SHL PUSH1 0x44 DUP3 ADD MSTORE PUSH1 0x64 SWAP1 REVERT JUMPDEST RETURNDATASIZE ISZERO PUSH2 0x17ED JUMPI RETURNDATASIZE SWAP1 PUSH1 0x1 PUSH1 0x1 PUSH1 0x40 SHL SUB DUP3 GT PUSH2 0x143E JUMPI PUSH1 0x40 MLOAD SWAP2 PUSH2 0x17E1 PUSH1 0x1F DUP3 ADD PUSH1 0x1F NOT AND PUSH1 0x20 ADD DUP5 PUSH2 0x141B JUMP JUMPDEST DUP3 MSTORE RETURNDATASIZE PUSH1 0x0 PUSH1 0x20 DUP5 ADD RETURNDATACOPY JUMP JUMPDEST PUSH1 0x60 SWAP1 JUMP JUMPDEST DUP2 DUP2 MUL SWAP3 SWAP2 DUP2 ISZERO SWAP2 DUP5 DIV EQ OR ISZERO PUSH2 0x1405 JUMPI JUMP JUMPDEST DUP2 ISZERO PUSH2 0x180F JUMPI DIV SWAP1 JUMP JUMPDEST PUSH4 0x4E487B71 PUSH1 0xE0 SHL PUSH1 0x0 MSTORE PUSH1 0x12 PUSH1 0x4 MSTORE PUSH1 0x24 PUSH1 0x0 REVERT JUMPDEST SWAP2 SWAP1 DUP3 SUB SWAP2 DUP3 GT PUSH2 0x1405 JUMPI JUMP JUMPDEST DUP1 SLOAD PUSH1 0x1 PUSH1 0x1 PUSH1 0xC0 SHL SUB AND PUSH1 0xC0 SWAP3 SWAP1 SWAP3 SHL PUSH1 0x1 PUSH1 0x1 PUSH1 0xC0 SHL SUB NOT AND SWAP2 SWAP1 SWAP2 OR SWAP1 SSTORE JUMP JUMPDEST PUSH1 0x1 PUSH1 0x1 PUSH1 0xA0 SHL SUB DUP2 AND SWAP1 DUP2 PUSH2 0x18A7 JUMPI POP PUSH2 0x1872 DUP3 PUSH1 0x2 SLOAD PUSH2 0x13F8 JUMP JUMPDEST PUSH1 0x2 SSTORE JUMPDEST PUSH1 0x0 DUP1 MLOAD PUSH1 0x20 PUSH2 0x2493 DUP4 CODECOPY DUP2 MLOAD SWAP2 MSTORE PUSH1 0x20 PUSH2 0xDEAD SWAP4 DUP5 PUSH1 0x0 MSTORE PUSH1 0x0 DUP3 MSTORE PUSH1 0x40 PUSH1 0x0 KECCAK256 DUP2 DUP2 SLOAD ADD SWAP1 SSTORE PUSH1 0x40 MLOAD SWAP1 DUP2 MSTORE LOG3 JUMP JUMPDEST PUSH1 0x0 SWAP1 DUP3 DUP3 MSTORE DUP2 PUSH1 0x20 MSTORE PUSH1 0x40 DUP3 KECCAK256 SLOAD SWAP1 DUP5 DUP3 LT PUSH2 0x18D3 JUMPI POP DUP4 PUSH1 0x40 SWAP2 DUP5 DUP5 MSTORE DUP4 PUSH1 0x20 MSTORE SUB SWAP2 KECCAK256 SSTORE PUSH2 0x1876 JUMP JUMPDEST PUSH2 0x11A9 DUP6 PUSH1 0x40 MLOAD SWAP4 DUP5 SWAP4 PUSH4 0x391434E3 PUSH1 0xE2 SHL DUP6 MSTORE PUSH1 0x4 DUP6 ADD PUSH2 0x175C JUMP JUMPDEST PUSH1 0x1 PUSH1 0x1 PUSH1 0xA0 SHL SUB DUP1 DUP3 AND SWAP3 SWAP1 SWAP2 DUP4 PUSH2 0x1958 JUMPI POP PUSH1 0x0 DUP1 MLOAD PUSH1 0x20 PUSH2 0x2493 DUP4 CODECOPY DUP2 MLOAD SWAP2 MSTORE SWAP2 PUSH1 0x20 SWAP2 PUSH2 0x1923 DUP7 PUSH1 0x2 SLOAD PUSH2 0x13F8 JUMP JUMPDEST PUSH1 0x2 SSTORE JUMPDEST AND SWAP4 DUP5 PUSH2 0x1940 JUMPI DUP1 PUSH1 0x2 SLOAD SUB PUSH1 0x2 SSTORE JUMPDEST PUSH1 0x40 MLOAD SWAP1 DUP2 MSTORE LOG3 JUMP JUMPDEST DUP5 PUSH1 0x0 MSTORE PUSH1 0x0 DUP3 MSTORE PUSH1 0x40 PUSH1 0x0 KECCAK256 DUP2 DUP2 SLOAD ADD SWAP1 SSTORE PUSH2 0x1937 JUMP JUMPDEST PUSH1 0x0 SWAP1 DUP5 DUP3 MSTORE DUP2 PUSH1 0x20 MSTORE PUSH1 0x40 DUP3 KECCAK256 SLOAD SWAP1 DUP7 DUP3 LT PUSH2 0x1997 JUMPI POP SWAP2 DUP2 PUSH1 0x40 DUP8 PUSH1 0x20 SWAP6 DUP9 PUSH1 0x0 DUP1 MLOAD PUSH1 0x20 PUSH2 0x2493 DUP4 CODECOPY DUP2 MLOAD SWAP2 MSTORE SWAP9 SWAP7 MSTORE DUP4 DUP8 MSTORE SUB SWAP2 KECCAK256 SSTORE PUSH2 0x1927 JUMP JUMPDEST PUSH2 0x11A9 DUP8 PUSH1 0x40 MLOAD SWAP4 DUP5 SWAP4 PUSH4 0x391434E3 PUSH1 0xE2 SHL DUP6 MSTORE PUSH1 0x4 DUP6 ADD PUSH2 0x175C JUMP JUMPDEST DUP1 SLOAD PUSH1 0x1 PUSH1 0x80 SHL PUSH1 0x1 PUSH1 0xC0 SHL SUB NOT AND PUSH1 0x80 SWAP3 SWAP1 SWAP3 SHL PUSH1 0x1 PUSH1 0x80 SHL PUSH1 0x1 PUSH1 0xC0 SHL SUB AND SWAP2 SWAP1 SWAP2 OR SWAP1 SSTORE JUMP JUMPDEST PUSH2 0x19E5 PUSH2 0x1AF3 JUMP JUMPDEST ISZERO PUSH2 0x14F1 JUMPI PUSH2 0xDEAD PUSH1 0x0 MSTORE PUSH1 0x9 PUSH1 0x20 MSTORE PUSH1 0x0 DUP1 MLOAD PUSH1 0x20 PUSH2 0x2433 DUP4 CODECOPY DUP2 MLOAD SWAP2 MSTORE DUP1 SLOAD PUSH2 0x14F1 SWAP2 SWAP1 PUSH1 0x1 PUSH1 0x1 PUSH1 0x40 SHL SUB SWAP1 PUSH2 0x1A43 PUSH2 0x1A27 PUSH1 0x80 DUP4 SWAP1 SHR DUP5 AND TIMESTAMP PUSH2 0x1825 JUMP JUMPDEST PUSH1 0x1 DUP6 ADD DUP1 SLOAD SWAP1 SWAP4 SWAP1 SWAP2 PUSH2 0x124B SWAP2 PUSH1 0x1 PUSH1 0x1 PUSH1 0x80 SHL SUB AND PUSH2 0x17F2 JUMP JUMPDEST SWAP1 PUSH1 0xD SLOAD PUSH2 0x1A57 PUSH1 0x2 DUP7 ADD SWAP2 DUP3 SLOAD SWAP1 PUSH2 0x1825 JUMP JUMPDEST DUP1 ISZERO ISZERO DUP1 PUSH2 0x1A9F JUMPI JUMPDEST PUSH2 0x1A74 JUMPI JUMPDEST POP PUSH1 0xD SLOAD SWAP1 SSTORE SSTORE TIMESTAMP AND SWAP1 PUSH2 0x19B4 JUMP JUMPDEST PUSH2 0x1A87 PUSH8 0xDE0B6B3A7640000 SWAP2 DUP6 PUSH2 0x17F2 JUMP JUMPDEST DIV PUSH2 0x1A97 PUSH1 0x3 DUP8 ADD SWAP2 DUP3 SLOAD PUSH2 0x13F8 JUMP JUMPDEST SWAP1 SSTORE CODESIZE PUSH2 0x1A65 JUMP JUMPDEST POP DUP4 ISZERO ISZERO PUSH2 0x1A60 JUMP JUMPDEST PUSH2 0x1AB1 DUP2 PUSH2 0x1B27 JUMP JUMPDEST ISZERO PUSH2 0x1AF0 JUMPI PUSH1 0x1 PUSH1 0x1 PUSH1 0xA0 SHL SUB AND PUSH1 0x0 SWAP1 DUP2 MSTORE PUSH1 0x9 PUSH1 0x20 MSTORE PUSH1 0x40 SWAP1 KECCAK256 DUP1 SLOAD PUSH2 0x14F1 SWAP2 SWAP1 PUSH1 0x1 PUSH1 0x1 PUSH1 0x40 SHL SUB SWAP1 PUSH2 0x1A43 PUSH2 0x1A27 PUSH1 0x80 DUP4 SWAP1 SHR DUP5 AND TIMESTAMP PUSH2 0x1825 JUMP JUMPDEST POP JUMP JUMPDEST PUSH2 0xDEAD PUSH1 0x0 MSTORE PUSH1 0xE PUSH1 0x20 MSTORE PUSH32 0xF77E91909E61D18F67B875B2BFCAE1F683A8D555E55382E3A6B082E2C59EA57A SLOAD PUSH1 0xFF AND ISZERO SWAP1 JUMP JUMPDEST PUSH1 0x1 PUSH1 0x1 PUSH1 0xA0 SHL SUB AND DUP1 ISZERO ISZERO SWAP1 DUP2 PUSH2 0x1B3D JUMPI POP SWAP1 JUMP JUMPDEST SWAP1 POP PUSH1 0x0 MSTORE PUSH1 0xE PUSH1 0x20 MSTORE PUSH1 0xFF PUSH1 0x40 PUSH1 0x0 KECCAK256 SLOAD AND ISZERO SWAP1 JUMP JUMPDEST PUSH2 0x1B5C PUSH2 0x1AF3 JUMP JUMPDEST ISZERO PUSH2 0x14F1 JUMPI PUSH2 0xDEAD PUSH1 0x0 DUP2 DUP2 MSTORE PUSH1 0x9 PUSH1 0x20 MSTORE PUSH1 0x0 DUP1 MLOAD PUSH1 0x20 PUSH2 0x2433 DUP4 CODECOPY DUP2 MLOAD SWAP2 MSTORE SWAP2 PUSH2 0x1B86 PUSH2 0x1E71 JUMP JUMPDEST DUP2 MSTORE PUSH1 0x20 DUP2 SWAP1 MSTORE PUSH1 0x40 DUP2 KECCAK256 SLOAD DUP3 SLOAD PUSH1 0x1 PUSH1 0x1 PUSH1 0x80 SHL SUB SWAP1 DUP2 AND DUP1 DUP4 LT SWAP4 SWAP2 SWAP3 SWAP2 SWAP1 DUP5 DUP1 PUSH2 0x1CEB JUMPI JUMPDEST PUSH2 0x1C9E JUMPI JUMPDEST DUP3 DUP2 DUP2 GT SWAP6 DUP7 PUSH1 0x0 EQ PUSH2 0x1C62 JUMPI POP PUSH2 0x1BD8 SWAP3 POP SWAP1 PUSH2 0x1BD0 SWAP2 PUSH2 0x1825 JUMP JUMPDEST PUSH1 0xC SLOAD PUSH2 0x13F8 JUMP JUMPDEST PUSH1 0xC SSTORE JUMPDEST DUP4 SLOAD PUSH1 0x1 PUSH1 0x1 PUSH1 0x80 SHL SUB NOT AND SWAP2 AND OR DUP3 SSTORE TIMESTAMP PUSH1 0x1 PUSH1 0x1 PUSH1 0x40 SHL SUB AND SWAP1 PUSH2 0x1C02 DUP3 DUP5 PUSH2 0x19B4 JUMP JUMPDEST PUSH1 0xFF PUSH1 0x5 SLOAD AND ISZERO SWAP1 DUP2 PUSH2 0x1C5A JUMPI JUMPDEST POP DUP1 PUSH2 0x1C28 JUMPI JUMPDEST PUSH2 0x1C1F JUMPI POP POP JUMP JUMPDEST PUSH2 0x14F1 SWAP2 PUSH2 0x1832 JUMP JUMPDEST POP CALLER PUSH32 0x0 PUSH1 0x1 PUSH1 0x1 PUSH1 0xA0 SHL SUB AND EQ PUSH2 0x1C17 JUMP JUMPDEST SWAP1 POP CODESIZE PUSH2 0x1C10 JUMP JUMPDEST PUSH2 0x1C6F JUMPI JUMPDEST POP POP POP PUSH2 0x1BDC JUMP JUMPDEST PUSH2 0x1C78 SWAP2 PUSH2 0x1825 JUMP JUMPDEST PUSH1 0xC SLOAD DUP2 DUP2 LT PUSH2 0x1C97 JUMPI PUSH2 0x1C8C SWAP3 POP PUSH2 0x1825 JUMP JUMPDEST PUSH1 0xC SSTORE CODESIZE DUP1 DUP3 PUSH2 0x1C67 JUMP JUMPDEST POP POP PUSH2 0x1C8C JUMP JUMPDEST PUSH1 0x1 DUP7 ADD DUP1 SLOAD SWAP1 PUSH2 0x1CC2 PUSH2 0x1CBB DUP5 PUSH2 0x1CB6 DUP9 DUP7 PUSH2 0x17F2 JUMP JUMPDEST PUSH2 0x1805 JUMP JUMPDEST DUP1 SWAP4 PUSH2 0x1825 JUMP JUMPDEST PUSH1 0xA SLOAD DUP2 GT PUSH2 0x1CE1 JUMPI PUSH2 0x1CD7 SWAP1 PUSH1 0xA SLOAD PUSH2 0x1825 JUMP JUMPDEST PUSH1 0xA SSTORE JUMPDEST SSTORE PUSH2 0x1BB3 JUMP JUMPDEST POP DUP4 PUSH1 0xA SSTORE PUSH2 0x1CDB JUMP JUMPDEST POP DUP1 ISZERO ISZERO PUSH2 0x1BAE JUMP JUMPDEST PUSH2 0x1CFD DUP2 PUSH2 0x1B27 JUMP JUMPDEST ISZERO PUSH2 0x1AF0 JUMPI PUSH1 0x1 PUSH1 0x1 PUSH1 0xA0 SHL SUB SWAP1 DUP2 AND PUSH1 0x0 DUP2 DUP2 MSTORE PUSH1 0x9 PUSH1 0x20 MSTORE PUSH1 0x40 DUP2 KECCAK256 SWAP3 SWAP2 PUSH2 0x1D25 PUSH2 0x1E71 JUMP JUMPDEST DUP2 MSTORE PUSH1 0x20 DUP2 SWAP1 MSTORE PUSH1 0x40 DUP2 KECCAK256 SLOAD DUP4 SLOAD PUSH1 0x1 PUSH1 0x1 PUSH1 0x80 SHL SUB SWAP1 DUP2 AND DUP1 DUP4 LT SWAP4 SWAP2 SWAP3 SWAP2 SWAP1 DUP5 DUP1 PUSH2 0x1E68 JUMPI JUMPDEST PUSH2 0x1E27 JUMPI JUMPDEST DUP3 DUP2 DUP2 GT SWAP6 DUP7 PUSH1 0x0 EQ PUSH2 0x1DEB JUMPI POP PUSH2 0x1D6F SWAP3 POP SWAP1 PUSH2 0x1BD0 SWAP2 PUSH2 0x1825 JUMP JUMPDEST PUSH1 0xC SSTORE JUMPDEST DUP5 SLOAD PUSH1 0x1 PUSH1 0x1 PUSH1 0x80 SHL SUB NOT AND SWAP2 AND OR DUP4 SSTORE TIMESTAMP PUSH1 0x1 PUSH1 0x1 PUSH1 0x40 SHL SUB AND SWAP2 PUSH2 0x1D99 DUP4 DUP6 PUSH2 0x19B4 JUMP JUMPDEST PUSH1 0xFF PUSH1 0x5 SLOAD AND ISZERO SWAP2 DUP3 PUSH2 0x1DE3 JUMPI JUMPDEST POP DUP2 PUSH2 0x1DB7 JUMPI JUMPDEST POP PUSH2 0x1C1F JUMPI POP POP JUMP JUMPDEST SWAP1 POP PUSH32 0x0 AND CALLER EQ CODESIZE PUSH2 0x1DAE JUMP JUMPDEST SWAP2 POP CODESIZE PUSH2 0x1DA7 JUMP JUMPDEST PUSH2 0x1DF8 JUMPI JUMPDEST POP POP POP PUSH2 0x1D73 JUMP JUMPDEST PUSH2 0x1E01 SWAP2 PUSH2 0x1825 JUMP JUMPDEST PUSH1 0xC SLOAD DUP2 DUP2 LT PUSH2 0x1E20 JUMPI PUSH2 0x1E15 SWAP3 POP PUSH2 0x1825 JUMP JUMPDEST PUSH1 0xC SSTORE CODESIZE DUP1 DUP3 PUSH2 0x1DF0 JUMP JUMPDEST POP POP PUSH2 0x1E15 JUMP JUMPDEST PUSH1 0x1 DUP8 ADD DUP1 SLOAD SWAP1 PUSH2 0x1E3F PUSH2 0x1CBB DUP5 PUSH2 0x1CB6 DUP9 DUP7 PUSH2 0x17F2 JUMP JUMPDEST PUSH1 0xA SLOAD DUP2 GT PUSH2 0x1E5E JUMPI PUSH2 0x1E54 SWAP1 PUSH1 0xA SLOAD PUSH2 0x1825 JUMP JUMPDEST PUSH1 0xA SSTORE JUMPDEST SSTORE PUSH2 0x1D52 JUMP JUMPDEST POP DUP4 PUSH1 0xA SSTORE PUSH2 0x1E58 JUMP JUMPDEST POP DUP1 ISZERO ISZERO PUSH2 0x1D4D JUMP JUMPDEST PUSH2 0x1E7D PUSH1 0xB SLOAD TIMESTAMP PUSH2 0x1825 JUMP JUMPDEST DUP1 ISZERO ISZERO DUP1 PUSH2 0x1EB2 JUMPI JUMPDEST PUSH2 0x1E92 JUMPI JUMPDEST POP TIMESTAMP PUSH1 0xB SSTORE JUMP JUMPDEST PUSH2 0x1EA1 PUSH2 0x1EA9 SWAP2 PUSH1 0xC SLOAD PUSH2 0x17F2 JUMP JUMPDEST PUSH1 0xA SLOAD PUSH2 0x13F8 JUMP JUMPDEST PUSH1 0xA SSTORE CODESIZE PUSH2 0x1E8B JUMP JUMPDEST POP PUSH1 0xC SLOAD ISZERO ISZERO PUSH2 0x1E86 JUMP JUMPDEST DUP1 ISZERO PUSH2 0x1AF0 JUMPI PUSH2 0x1ECB PUSH2 0x1E71 JUMP JUMPDEST PUSH1 0xA SLOAD SWAP1 DUP2 ISZERO PUSH2 0x1F2A JUMPI PUSH8 0xDE0B6B3A7640000 DUP2 MUL SWAP1 PUSH8 0xDE0B6B3A763FFFF NOT DUP2 DUP4 DIV ADD PUSH2 0x1405 JUMPI PUSH2 0x1F19 PUSH2 0x1F11 PUSH1 0x0 DUP1 MLOAD PUSH1 0x20 PUSH2 0x2473 DUP4 CODECOPY DUP2 MLOAD SWAP2 MSTORE SWAP5 PUSH1 0x40 SWAP5 PUSH2 0x1805 JUMP JUMPDEST PUSH1 0xD SLOAD PUSH2 0x13F8 JUMP JUMPDEST DUP1 PUSH1 0xD SSTORE DUP3 MLOAD SWAP2 DUP3 MSTORE PUSH1 0x20 DUP3 ADD MSTORE LOG1 JUMP JUMPDEST PUSH1 0x0 DUP1 MLOAD PUSH1 0x20 PUSH2 0x2473 DUP4 CODECOPY DUP2 MLOAD SWAP2 MSTORE SWAP2 POP PUSH1 0x40 SWAP1 PUSH1 0xD SLOAD DUP3 MLOAD SWAP2 DUP3 MSTORE PUSH1 0x20 DUP3 ADD MSTORE LOG1 JUMP JUMPDEST PUSH1 0x1 PUSH1 0x1 PUSH1 0xA0 SHL SUB AND PUSH1 0x0 SWAP1 DUP2 MSTORE PUSH1 0x9 PUSH1 0x20 MSTORE PUSH1 0x40 SWAP1 KECCAK256 SLOAD PUSH1 0xC0 SHR DUP1 ISZERO PUSH2 0x1FAD JUMPI PUSH2 0x1F79 SWAP1 TIMESTAMP PUSH2 0x1825 JUMP JUMPDEST PUSH2 0x12C DUP2 LT PUSH2 0x1FA6 JUMPI PUSH2 0xE10 DUP2 LT PUSH2 0x1F9F JUMPI PUSH3 0x15180 GT PUSH2 0x1F99 JUMPI PUSH1 0x0 SWAP1 JUMP JUMPDEST PUSH2 0x1F4 SWAP1 JUMP JUMPDEST POP PUSH2 0x3E8 SWAP1 JUMP JUMPDEST POP PUSH2 0x7D0 SWAP1 JUMP JUMPDEST POP PUSH1 0x0 SWAP1 JUMP JUMPDEST PUSH1 0x0 SWAP1 PUSH1 0xFF NOT DUP1 PUSH1 0x8 SLOAD AND PUSH1 0x1 DUP1 DUP3 OR PUSH1 0x8 SSTORE ADDRESS DUP6 MSTORE PUSH1 0x20 DUP6 DUP2 MSTORE PUSH1 0x40 SWAP2 DUP3 DUP8 KECCAK256 SLOAD SWAP4 DUP5 ISZERO PUSH2 0x227A JUMPI POP DUP3 MLOAD PUSH1 0x1 PUSH1 0x1 PUSH1 0x40 SHL SUB SWAP1 PUSH1 0x60 DUP2 ADD DUP3 DUP2 GT DUP3 DUP3 LT OR PUSH2 0x2266 JUMPI DUP6 MSTORE PUSH1 0x2 DUP2 MSTORE DUP4 DUP2 ADD SWAP6 DUP6 CALLDATASIZE DUP9 CALLDATACOPY DUP2 MLOAD ISZERO PUSH2 0x2252 JUMPI ADDRESS DUP8 MSTORE PUSH1 0x6 SLOAD DUP7 MLOAD PUSH4 0x15AB88C9 PUSH1 0xE3 SHL DUP2 MSTORE PUSH1 0x1 PUSH1 0x1 PUSH1 0xA0 SHL SUB SWAP9 SWAP2 DUP10 AND SWAP1 DUP8 DUP2 PUSH1 0x4 DUP2 DUP6 GAS STATICCALL SWAP1 DUP2 ISZERO PUSH2 0x2248 JUMPI DUP14 SWAP2 PUSH2 0x2212 JUMPI JUMPDEST POP DUP5 MLOAD DUP8 LT ISZERO PUSH2 0x21FE JUMPI PUSH2 0x205D SWAP2 DUP11 DUP6 SWAP3 AND DUP11 DUP8 ADD MSTORE ADDRESS PUSH2 0x16C9 JUMP JUMPDEST SELFBALANCE SWAP5 DUP9 PUSH1 0x6 SLOAD AND SWAP3 DUP4 EXTCODESIZE ISZERO PUSH2 0x21FA JUMPI DUP9 MLOAD PUSH4 0x791AC947 PUSH1 0xE0 SHL DUP2 MSTORE PUSH1 0x4 DUP2 ADD SWAP2 SWAP1 SWAP2 MSTORE PUSH1 0x24 DUP2 ADD DUP14 SWAP1 MSTORE PUSH1 0xA0 PUSH1 0x44 DUP3 ADD MSTORE SWAP4 MLOAD PUSH1 0xA4 DUP6 ADD DUP2 SWAP1 MSTORE DUP13 SWAP4 DUP6 SWAP4 SWAP1 SWAP3 PUSH1 0xC4 DUP6 ADD SWAP3 DUP7 DUP12 DUP15 JUMPDEST DUP4 DUP4 LT PUSH2 0x21D6 JUMPI POP POP POP POP POP POP DUP4 DUP4 DUP1 SWAP3 ADDRESS PUSH1 0x64 DUP4 ADD MSTORE TIMESTAMP PUSH1 0x84 DUP4 ADD MSTORE SUB SWAP3 GAS CALL SWAP2 DUP3 PUSH2 0x21AF JUMPI JUMPDEST POP POP PUSH2 0x20E5 JUMPI JUMPDEST POP POP POP POP SWAP1 SWAP2 POP PUSH1 0x8 SLOAD AND PUSH1 0x8 SSTORE JUMP JUMPDEST PUSH2 0x20EF SWAP1 SELFBALANCE PUSH2 0x1825 JUMP JUMPDEST DUP1 ISZERO DUP1 ISZERO PUSH2 0x20FE JUMPI JUMPDEST POP PUSH2 0x20D5 JUMP JUMPDEST PUSH1 0x3 DUP3 MUL SWAP1 DUP3 DUP3 DIV PUSH1 0x3 EQ OR ISZERO PUSH2 0x219B JUMPI SWAP7 PUSH2 0x2123 PUSH1 0x7 PUSH2 0x2134 SWAP8 SWAP9 SWAP10 DIV DUP1 SWAP4 PUSH2 0x1825 JUMP JUMPDEST SWAP5 DUP3 PUSH2 0x2140 JUMPI JUMPDEST POP POP POP POP POP PUSH2 0x1EBD JUMP JUMPDEST DUP2 SWAP1 CODESIZE DUP1 DUP1 DUP1 DUP1 PUSH2 0x20F8 JUMP JUMPDEST DUP2 DUP1 DUP5 DUP2 SWAP4 PUSH32 0x0 AND GAS CALL PUSH2 0x2171 PUSH2 0x17B3 JUMP JUMPDEST POP PUSH2 0x217E JUMPI JUMPDEST DUP1 DUP1 PUSH2 0x212A JUMP JUMPDEST PUSH1 0x0 DUP1 MLOAD PUSH1 0x20 PUSH2 0x2413 DUP4 CODECOPY DUP2 MLOAD SWAP2 MSTORE SWAP3 MLOAD SWAP1 DUP2 MSTORE LOG1 CODESIZE DUP1 DUP1 PUSH2 0x2177 JUMP JUMPDEST PUSH4 0x4E487B71 PUSH1 0xE0 SHL DUP9 MSTORE PUSH1 0x11 PUSH1 0x4 MSTORE PUSH1 0x24 DUP9 REVERT JUMPDEST DUP2 SWAP10 SWAP3 SWAP10 GT PUSH2 0x21C2 JUMPI DUP5 MSTORE SWAP7 CODESIZE DUP1 PUSH2 0x20CE JUMP JUMPDEST PUSH4 0x4E487B71 PUSH1 0xE0 SHL DUP3 MSTORE PUSH1 0x41 PUSH1 0x4 MSTORE PUSH1 0x24 DUP3 REVERT JUMPDEST DUP5 SWAP8 SWAP10 POP DUP6 DUP3 SWAP5 SWAP8 SWAP3 SWAP4 SWAP7 SWAP10 POP MLOAD AND DUP2 MSTORE ADD SWAP6 ADD SWAP2 ADD SWAP3 DUP7 SWAP5 SWAP3 DUP16 SWAP7 SWAP5 DUP12 DUP15 PUSH2 0x20A6 JUMP JUMPDEST DUP13 DUP1 REVERT JUMPDEST PUSH4 0x4E487B71 PUSH1 0xE0 SHL DUP14 MSTORE PUSH1 0x32 PUSH1 0x4 MSTORE PUSH1 0x24 DUP14 REVERT JUMPDEST SWAP1 POP DUP8 DUP2 DUP2 RETURNDATASIZE DUP4 GT PUSH2 0x2241 JUMPI JUMPDEST PUSH2 0x2229 DUP2 DUP4 PUSH2 0x141B JUMP JUMPDEST DUP2 ADD SUB SLT PUSH2 0x21FA JUMPI MLOAD DUP10 DUP2 AND DUP2 SUB PUSH2 0x21FA JUMPI CODESIZE PUSH2 0x2041 JUMP JUMPDEST POP RETURNDATASIZE PUSH2 0x221F JUMP JUMPDEST DUP10 MLOAD RETURNDATASIZE DUP16 DUP3 RETURNDATACOPY RETURNDATASIZE SWAP1 REVERT JUMPDEST PUSH4 0x4E487B71 PUSH1 0xE0 SHL DUP11 MSTORE PUSH1 0x32 PUSH1 0x4 MSTORE PUSH1 0x24 DUP11 REVERT JUMPDEST PUSH4 0x4E487B71 PUSH1 0xE0 SHL DUP11 MSTORE PUSH1 0x41 PUSH1 0x4 MSTORE PUSH1 0x24 DUP11 REVERT JUMPDEST SWAP6 SWAP7 POP POP POP POP POP POP PUSH1 0x8 SSTORE JUMP JUMPDEST PUSH1 0x0 DUP1 MLOAD PUSH1 0x20 PUSH2 0x24D3 DUP4 CODECOPY DUP2 MLOAD SWAP2 MSTORE PUSH1 0x2 DUP2 SLOAD EQ PUSH2 0x22A5 JUMPI PUSH1 0x2 SWAP1 SSTORE JUMP JUMPDEST PUSH1 0x40 MLOAD PUSH4 0x3EE5AEB5 PUSH1 0xE0 SHL DUP2 MSTORE PUSH1 0x4 SWAP1 REVERT JUMPDEST PUSH1 0x0 NOT DUP2 EQ PUSH2 0x1405 JUMPI PUSH1 0x1 ADD SWAP1 JUMP JUMPDEST PUSH2 0x22CF DUP2 PUSH2 0x1B27 JUMP JUMPDEST ISZERO PUSH2 0x1FAD JUMPI PUSH1 0x1 PUSH1 0x1 PUSH1 0xA0 SHL SUB AND PUSH1 0x0 SWAP1 DUP2 MSTORE PUSH1 0x9 PUSH1 0x20 MSTORE PUSH1 0x40 SWAP1 KECCAK256 DUP1 SLOAD PUSH2 0x2368 SWAP2 SWAP1 PUSH1 0x3 SWAP1 PUSH2 0x2327 SWAP1 PUSH2 0x124B PUSH2 0x2313 PUSH1 0x80 DUP4 SWAP1 SHR PUSH1 0x1 PUSH1 0x1 PUSH1 0x40 SHL SUB AND TIMESTAMP PUSH2 0x1825 JUMP JUMPDEST PUSH1 0x1 DUP7 ADD SLOAD SWAP3 PUSH1 0x1 PUSH1 0x1 PUSH1 0x80 SHL SUB AND PUSH2 0x17F2 JUMP JUMPDEST PUSH2 0x2338 PUSH1 0xD SLOAD PUSH1 0x2 DUP6 ADD SLOAD SWAP1 PUSH2 0x1825 JUMP JUMPDEST SWAP1 DUP1 ISZERO ISZERO DUP1 PUSH2 0x2374 JUMPI JUMPDEST PUSH1 0x0 SWAP1 ISZERO PUSH2 0x236B JUMPI POP PUSH8 0xDE0B6B3A7640000 SWAP2 PUSH2 0x235E SWAP2 PUSH2 0x17F2 JUMP JUMPDEST DIV SWAP2 JUMPDEST ADD SLOAD PUSH2 0x13F8 JUMP JUMPDEST SWAP1 JUMP JUMPDEST SWAP2 POP POP SWAP2 PUSH2 0x2361 JUMP JUMPDEST POP DUP2 ISZERO ISZERO PUSH2 0x2342 JUMP JUMPDEST PUSH2 0x2386 DUP2 PUSH2 0x1B27 JUMP JUMPDEST ISZERO PUSH2 0x1FAD JUMPI PUSH1 0x1 PUSH1 0x1 PUSH1 0xA0 SHL SUB AND PUSH1 0x0 SWAP1 DUP2 MSTORE PUSH1 0x9 PUSH1 0x20 MSTORE PUSH1 0x40 SWAP1 KECCAK256 DUP1 SLOAD PUSH2 0x2368 SWAP2 PUSH2 0x124B SWAP1 PUSH1 0x1 PUSH2 0x23C5 PUSH1 0x80 DUP6 SWAP1 SHR PUSH1 0x1 PUSH1 0x1 PUSH1 0x40 SHL SUB AND TIMESTAMP PUSH2 0x1825 JUMP JUMPDEST SWAP2 ADD SLOAD SWAP3 PUSH1 0x1 PUSH1 0x1 PUSH1 0x80 SHL SUB AND PUSH2 0x17F2 JUMP JUMPDEST ISZERO PUSH2 0x23DE JUMPI JUMP JUMPDEST PUSH1 0x40 MLOAD PUSH3 0x461BCD PUSH1 0xE5 SHL DUP2 MSTORE PUSH1 0x20 PUSH1 0x4 DUP3 ADD MSTORE PUSH1 0xC PUSH1 0x24 DUP3 ADD MSTORE PUSH12 0x4F6E6C7920666163746F7279 PUSH1 0xA0 SHL PUSH1 0x44 DUP3 ADD MSTORE PUSH1 0x64 SWAP1 REVERT INVALID PUSH10 0x3F9DBEA0BDF9B70D480F SWAP6 0x27 0xE5 PUSH8 0xD17AE3A41A5627C6 MLOAD JUMPDEST SUB 0x4A 0xC1 DUP7 SWAP13 0xF7 LOG0 SWAP7 SIGNEXTEND LT MLOAD PUSH21 0x9987B45B5679007FFF577A1C2F763EC21C15A6C5EB NOT ADDRESS PUSH22 0x3785FC30CDDEA38E2BF4D6EA7D3F9ED3B6AD7F1764 NOT DELEGATECALL SWAP7 EXTCODESIZE 0xD8 SGT XOR MOD PUSH27 0x4AEE73FE8AD0C4905AA5603107E860E0C2B1A78E23EBA312C30F81 EQ 0xA7 0xD SWAP5 0xD9 0xE1 DUP8 CREATE2 0xAF 0xDD CALLCODE MSTORE 0xAD SHL 0xE2 0xC8 SWAP12 PUSH10 0xC2B068FC378DAA952BA7 CALL PUSH4 0xC4A11628 CREATE2 GAS 0x4D CREATE2 0x23 0xB3 0xEF 0xE9 0xBC SWAP2 LOG3 RETURNDATASIZE 0xDF DUP10 PUSH14 0x889747B2F39F4192C802FD623647 DUP1 ADDMOD PUSH9 0x53FCD8E19E8FFA9B77 SWAP12 OR TIMESTAMP 0x2D 0xD 0xF9 0x22 0x23 ADD DUP12 ORIGIN 0xB4 0xD1 STATICCALL CHAINID 0xE0 PUSH18 0x723D6817E2486D003BECC55F00A264697066 PUSH20 0x58221220936E454D53D89FBBB1B463F9DF655B13 PUSH14 0x6E9F93FB82BC6CFAF16353FB042F 0x4A PUSH5 0x736F6C6343 STOP ADDMOD EQ STOP CALLER DUP11 0xD0 0xC4 SWAP1 GAS 0xA5 PUSH1 0x31 SMOD 0xE8 PUSH1 0xE0 0xC2 0xB1 0xA7 DUP15 0x23 0xEB LOG3 SLT 0xC3 0xF DUP2 EQ 0xA7 0xD SWAP5 0xD9 0xE1 DUP8 CREATE2 0xAF 0xDD CALLCODE MSTORE 0xAD SHL 0xE2 0xC8 SWAP12 PUSH10 0xC2B068FC378DAA952BA7 CALL PUSH4 0xC4A11628 CREATE2 GAS 0x4D CREATE2 0x23 0xB3 0xEF "},"methodIdentifiers":{"BURN_BPS()":"a37a9fc0","CURVE_SUPPLY()":"1e4c7292","DEAD()":"03fd2a45","GRAD_SUPPLY()":"98aecb67","PLATFORM_BPS()":"ce91e164","REWARD_BPS()":"47b12bfc","SNIPE_BPS_1HR()":"c463ecd7","SNIPE_BPS_24HR()":"bacf2a7b","SNIPE_BPS_5MIN()":"bb103cbc","TOTAL_SUPPLY()":"902d55a5","TOTAL_TAX_BPS()":"a8355c8f","allowance(address,address)":"dd62ed3e","antiSnipeBpsFor(address)":"ca81eb66","approve(address,uint256)":"095ea7b3","balanceOf(address)":"70a08231","burnFromCurve(uint256)":"5b090044","checkpoints(address)":"dbb51d6e","claim()":"4e71d92d","cumulativeEthPerScore()":"c5f27b30","curve()":"7165485d","decimals()":"313ce567","depositEthPlatform()":"b78d0538","depositEthReward()":"a47541ba","factory()":"c45a0155","graduated()":"e7c2b772","holdScore(address)":"c5f509d6","isExcluded(address)":"cba0e996","keeper()":"aced1661","name()":"06fdde03","notifyGraduated(address,address)":"c7b12801","pendingRewards(address)":"31d7a262","pushRewards(address[])":"f6ceefa2","setExcluded(address,bool)":"2836be24","setKeeper(address)":"748747e6","setSwapThreshold(uint256)":"9d0014b1","swapThreshold()":"0445b667","symbol()":"95d89b41","totalAccumulatedScore()":"c1db4015","totalHoldScoreLive()":"07c9bf2e","totalLastUpdate()":"9d6eadc1","totalSettledBalance()":"64229d68","totalSupply()":"18160ddd","transfer(address,uint256)":"a9059cbb","transferFrom(address,address,uint256)":"23b872dd","uniswapPair()":"c816841b","uniswapRouter()":"735de9f7"}}}}}