{"contracts/v2/AethpadFactoryV2.sol":{"AethpadFactoryV2":{"abi":[{"inputs":[{"internalType":"address","name":"_uniswapRouter","type":"address"}],"stateMutability":"nonpayable","type":"constructor"},{"inputs":[{"internalType":"address","name":"owner","type":"address"}],"name":"OwnableInvalidOwner","type":"error"},{"inputs":[{"internalType":"address","name":"account","type":"address"}],"name":"OwnableUnauthorizedAccount","type":"error"},{"inputs":[],"name":"ReentrancyGuardReentrantCall","type":"error"},{"anonymous":false,"inputs":[{"indexed":true,"internalType":"address","name":"token","type":"address"},{"indexed":false,"internalType":"string","name":"newURI","type":"string"}],"name":"MetadataUpdated","type":"event"},{"anonymous":false,"inputs":[{"indexed":true,"internalType":"address","name":"previousOwner","type":"address"},{"indexed":true,"internalType":"address","name":"newOwner","type":"address"}],"name":"OwnershipTransferred","type":"event"},{"anonymous":false,"inputs":[{"indexed":true,"internalType":"address","name":"fromToken","type":"address"},{"indexed":false,"internalType":"uint256","name":"amount","type":"uint256"}],"name":"PlatformFeeReceived","type":"event"},{"anonymous":false,"inputs":[{"indexed":true,"internalType":"address","name":"to","type":"address"},{"indexed":false,"internalType":"uint256","name":"amount","type":"uint256"}],"name":"PlatformFeesWithdrawn","type":"event"},{"anonymous":false,"inputs":[{"indexed":true,"internalType":"address","name":"token","type":"address"},{"indexed":true,"internalType":"address","name":"curve","type":"address"},{"indexed":true,"internalType":"address","name":"creator","type":"address"},{"indexed":false,"internalType":"string","name":"name","type":"string"},{"indexed":false,"internalType":"string","name":"symbol","type":"string"},{"indexed":false,"internalType":"string","name":"metadataURI","type":"string"},{"indexed":false,"internalType":"uint256","name":"devBuyEth","type":"uint256"},{"indexed":false,"internalType":"uint256","name":"devBuyTokens","type":"uint256"}],"name":"TokenDeployed","type":"event"},{"inputs":[],"name":"accumulatedPlatformFees","outputs":[{"internalType":"uint256","name":"","type":"uint256"}],"stateMutability":"view","type":"function"},{"inputs":[{"internalType":"uint256","name":"","type":"uint256"}],"name":"allTokens","outputs":[{"internalType":"address","name":"","type":"address"}],"stateMutability":"view","type":"function"},{"inputs":[],"name":"allTokensLength","outputs":[{"internalType":"uint256","name":"","type":"uint256"}],"stateMutability":"view","type":"function"},{"inputs":[{"internalType":"string","name":"name","type":"string"},{"internalType":"string","name":"symbol","type":"string"},{"internalType":"string","name":"metadataURI","type":"string"}],"name":"createToken","outputs":[{"internalType":"address","name":"tokenAddr","type":"address"},{"internalType":"address","name":"curveAddr","type":"address"}],"stateMutability":"payable","type":"function"},{"inputs":[],"name":"deployer","outputs":[{"internalType":"contract AethpadDeployer","name":"","type":"address"}],"stateMutability":"view","type":"function"},{"inputs":[{"internalType":"address","name":"tokenAddr","type":"address"},{"internalType":"address","name":"to","type":"address"}],"name":"forceCloseCurve","outputs":[],"stateMutability":"nonpayable","type":"function"},{"inputs":[],"name":"getAllTokens","outputs":[{"internalType":"address[]","name":"","type":"address[]"}],"stateMutability":"view","type":"function"},{"inputs":[{"internalType":"address","name":"tokenAddr","type":"address"}],"name":"getRecord","outputs":[{"components":[{"internalType":"address","name":"token","type":"address"},{"internalType":"address","name":"curve","type":"address"},{"internalType":"address","name":"creator","type":"address"},{"internalType":"uint256","name":"deployedAt","type":"uint256"},{"internalType":"string","name":"metadataURI","type":"string"},{"internalType":"uint256","name":"initialDevBuyEth","type":"uint256"},{"internalType":"uint256","name":"initialDevBuyTokens","type":"uint256"}],"internalType":"struct AethpadFactoryV2.TokenRecord","name":"","type":"tuple"}],"stateMutability":"view","type":"function"},{"inputs":[],"name":"owner","outputs":[{"internalType":"address","name":"","type":"address"}],"stateMutability":"view","type":"function"},{"inputs":[{"internalType":"address","name":"","type":"address"}],"name":"records","outputs":[{"internalType":"address","name":"token","type":"address"},{"internalType":"address","name":"curve","type":"address"},{"internalType":"address","name":"creator","type":"address"},{"internalType":"uint256","name":"deployedAt","type":"uint256"},{"internalType":"string","name":"metadataURI","type":"string"},{"internalType":"uint256","name":"initialDevBuyEth","type":"uint256"},{"internalType":"uint256","name":"initialDevBuyTokens","type":"uint256"}],"stateMutability":"view","type":"function"},{"inputs":[],"name":"renounceOwnership","outputs":[],"stateMutability":"nonpayable","type":"function"},{"inputs":[{"internalType":"address","name":"_deployer","type":"address"}],"name":"setDeployer","outputs":[],"stateMutability":"nonpayable","type":"function"},{"inputs":[{"internalType":"address","name":"tokenAddr","type":"address"},{"internalType":"address","name":"account","type":"address"},{"internalType":"bool","name":"excluded","type":"bool"}],"name":"setTokenExcluded","outputs":[],"stateMutability":"nonpayable","type":"function"},{"inputs":[{"internalType":"address","name":"tokenAddr","type":"address"},{"internalType":"address","name":"newKeeper","type":"address"}],"name":"setTokenKeeper","outputs":[],"stateMutability":"nonpayable","type":"function"},{"inputs":[{"internalType":"address","name":"tokenAddr","type":"address"},{"internalType":"uint256","name":"newThreshold","type":"uint256"}],"name":"setTokenSwapThreshold","outputs":[],"stateMutability":"nonpayable","type":"function"},{"inputs":[],"name":"totalPlatformFeesWithdrawn","outputs":[{"internalType":"uint256","name":"","type":"uint256"}],"stateMutability":"view","type":"function"},{"inputs":[{"internalType":"address","name":"newOwner","type":"address"}],"name":"transferOwnership","outputs":[],"stateMutability":"nonpayable","type":"function"},{"inputs":[],"name":"uniswapRouter","outputs":[{"internalType":"address","name":"","type":"address"}],"stateMutability":"view","type":"function"},{"inputs":[{"internalType":"address","name":"tokenAddr","type":"address"},{"internalType":"string","name":"newURI","type":"string"}],"name":"updateMetadataURI","outputs":[],"stateMutability":"nonpayable","type":"function"},{"inputs":[{"internalType":"address","name":"to","type":"address"}],"name":"withdrawPlatformFees","outputs":[],"stateMutability":"nonpayable","type":"function"},{"stateMutability":"payable","type":"receive"}],"evm":{"bytecode":{"linkReferences":{},"object":"60a03461012257601f6116f338819003918201601f19168301916001600160401b038311848410176101275780849260209460405283398101031261012257516001600160a01b03808216808303610122573315610109576000543360018060a01b0319821617600055604051923391167f8be0079c531659141344cd1fd0a4f28419497f9722a3daafe3b4186f6b6457e0600080a360017f9b779b17422d0df92223018b32b4d1fa46e071723d6817e2486d003becc55f0055156100da57506080526040516115b5908161013e823960805181610cbe0152f35b62461bcd60e51b815260206004820152600a6024820152692130b2103937baba32b960b11b6044820152606490fd5b604051631e4fbdf760e01b815260006004820152602490fd5b600080fd5b634e487b7160e01b600052604160045260246000fdfe60806040526004361015610056575b361561001957600080fd5b610025346004546114c0565b6004556040513481527fabec8fa5eba11c7eac51663a2902a5a185098b166b62a23b16dc7a4e2c12de4b60203392a2005b6000803560e01c80630668c0d01461111c5780631e0db440146110fe5780632a5c792a14611056578063342f2df314611038578063469e906714610f9e578063617fba0414610e8b578063634282af14610e4757806369496d9614610dcb578063715018a614610d8357806371af310114610ced578063735de9f714610ca85780638da5cb5b14610c8157806394aed7d01461063e57806396214735146105c0578063d5f3948814610597578063dbb80e4214610579578063ec3889b5146103fd578063f2fde38b14610387578063fabb2c17146101e35763ff6151c71461013e575061000e565b346101d05760403660031901126101d057806101586111af565b6101606111c5565b6101686113c0565b6001600160a01b0391821683526002602052604083205482169161018d8315156114e3565b823b156101de5760248492836040519586948593633a43a3f360e11b85521660048401525af180156101d3576101c05750f35b6101c990611215565b6101d05780f35b80fd5b6040513d84823e3d90fd5b505050fd5b50346101d05760403660031901126101d0576101fd6111af565b6001600160401b03906024358281116103835761021e903690600401611393565b919060018060a01b0380921693848652602092600284526040872090600282015416330361034f5760040190841161033b576102648461025e83546111db565b8361143c565b85601f85116001146102c557916102b4918560008051602061152083398151915296959489916102ba575b508560011b906000198760031b1c19161790555b604051938385948552840191611400565b0390a280f35b90508201353861028f565b81875283872090601f198616885b8181106103245750916102b4939187600080516020611520833981519152989796941061030a575b5050600185811b0190556102a3565b830135600019600388901b60f8161c1916905538806102fb565b9192866001819286890135815501940192016102d3565b634e487b7160e01b86526041600452602486fd5b60405162461bcd60e51b815260048101859052600c60248201526b27b7363c9031b932b0ba37b960a11b6044820152606490fd5b8380fd5b50346101d05760203660031901126101d0576103a16111af565b6103a96113c0565b6001600160a01b039081169081156103e4576000548260018060a01b031982161760005516600080516020611540833981519152600080a380f35b604051631e4fbdf760e01b815260048101849052602490fd5b50346101d057602080600319360112610575576104186111af565b906104216113c0565b610429611490565b60045491821561053a576001600160a01b03169182156105055783600455610453816005546114c0565b6005558380808084875af13d15610500573d61046e81611421565b9061047c6040519283611259565b815285843d92013e5b156104c957907ffc7ad544ff6a06d6499925723d25b6fe70457a42939995b1d3d6f560fe33633391604051908152a260016000805160206115608339815191525580f35b60405162461bcd60e51b815260048101839052600f60248201526e115512081cd95b990819985a5b1959608a1b6044820152606490fd5b610485565b60405162461bcd60e51b815260048101839052600d60248201526c109859081c9958da5c1a595b9d609a1b6044820152606490fd5b60405162461bcd60e51b81526004810183905260136024820152724e6f7468696e6720746f20776974686472617760681b6044820152606490fd5b5080fd5b50346101d057806003193601126101d0576020600354604051908152f35b50346101d057806003193601126101d0576001546040516001600160a01b039091168152602090f35b50346101d05760203660031901126101d0576105da6111af565b6105e26113c0565b600154906001600160a01b039081831661060b576001600160a01b031990921691161760015580f35b60405162461bcd60e51b815260206004820152600b60248201526a105b1c9958591e481cd95d60aa1b6044820152606490fd5b5060603660031901126101d0576004356001600160401b0381116105755761066a903690600401611393565b91906024356001600160401b038111610c7d5761068b903690600401611393565b90939092906044356001600160401b038111610c7d576106af903690600401611393565b90956106b9611490565b6001546001600160a01b0316958615610c45576040805163390274ed60e01b81526004810182905297889081888161070b6106f8604483018c8f611400565b828103600319016024840152888a611400565b03925af1958615610c3a5785978697610bed575b5060405161072c8161123e565b6001600160a01b0389811682528816602082015233604082015242606082015261075585611421565b906107636040519283611259565b85825236868c0111610abd57858b6020840137602086830181018990526080820192835260a0820189905260c082018990526001600160a01b038b81168a5260028083526040808c20855181549085166001600160a01b03199182161782559486015160018201805491861691871691909117905590850151918101805492909316919093161790556060820151600382015591518051906001600160401b038211610bd9576108238261081a60048701546111db565b6004870161143c565b602090601f8311600114610b675791806006949260c0948d92610b5c575b50508160011b916000199060031b1c19161760048501555b60a081015160058501550151910155600354600160401b811015610b48578060016108879201600355611362565b81546001600160a01b038b811660039390931b92831b921b1916179055853461095a575b50604098926108e894926108cd6108db938c519860a08a5260a08a0191611400565b918783036020890152611400565b9184830389860152611400565b346060830152608082019290925233916001600160a01b0384811692908616917fee1be9e7a514e242eddd023cf4bd4446c71d28c7cf5c53c4085379ea89993033919081900390a460016000805160206115608339815191525582516001600160a01b03928316815291166020820152f35b604051636cb504a560e11b815260048101829052909650602081602481346001600160a01b038d165af1908115610b3d578791610b0b575b506040516370a0823160e01b81523060048201529096906020816024816001600160a01b038e165afa9081156101d3578291610ad4575b5080610a45575b506001600160a01b03898116825260026020526040822034600582015560060188905588163b156101d05760405163d8c76c1760e01b81523360048201528181602481836001600160a01b038e165af180156101d357610a31575b506108ab565b610a3b8291611215565b6101d05780610a2b565b60405163a9059cbb60e01b815233600482015260248101829052919750906020816044818b6001600160a01b038f165af18015610ac957610a89575b5095386109d0565b6020813d602011610ac1575b81610aa260209383611259565b81010312610abd575180151503610ab95738610a81565b8680fd5b8780fd5b3d9150610a95565b6040513d8a823e3d90fd5b90506020813d602011610b03575b81610aef60209383611259565b81010312610afe5751386109c9565b600080fd5b3d9150610ae2565b90506020813d602011610b35575b81610b2660209383611259565b81010312610afe575138610992565b3d9150610b19565b6040513d89823e3d90fd5b634e487b7160e01b87526041600452602487fd5b015190503880610841565b90600485018b5260208b20918b5b601f1985168110610bc15750926006949260019260c09583601f19811610610ba8575b505050811b016004850155610859565b015160001960f88460031b161c19169055388080610b98565b91926020600181928685015181550194019201610b75565b634e487b7160e01b8a52604160045260248afd5b975095506040873d604011610c32575b81610c0a60409383611259565b81010312610c2e57610c276020610c20896113ec565b98016113ec565b953861071f565b8480fd5b3d9150610bfd565b6040513d87823e3d90fd5b60405162461bcd60e51b815260206004820152601060248201526f11195c1b1bde595c881b9bdd081cd95d60821b6044820152606490fd5b8280fd5b50346101d057806003193601126101d057546040516001600160a01b039091168152602090f35b50346101d057806003193601126101d0576040517f00000000000000000000000000000000000000000000000000000000000000006001600160a01b03168152602090f35b50346101d05760603660031901126101d05780610d086111af565b610d106111c5565b604435918215158093036101de57610d266113c0565b6001600160a01b039081168452600260205260408420548116610d4a8115156114e3565b803b15610c2e578492836044926040519687958694630a0daf8960e21b865216600485015260248401525af180156101d3576101c05750f35b50346101d057806003193601126101d057610d9c6113c0565b600080546001600160a01b0319811682556001600160a01b03166000805160206115408339815191528280a380f35b50346101d05760403660031901126101d05780610de66111af565b610dee6113c0565b6001600160a01b0390811682526002602052604082205416610e118115156114e3565b803b15610e4457818091602460405180948193639d0014b160e01b8352833560048401525af180156101d3576101c05750f35b50fd5b50346101d05760203660031901126101d057600435906003548210156101d0576020610e7283611362565b905460405160039290921b1c6001600160a01b03168152f35b50346101d057602080600319360112610575576040610ea86111af565b928060c08351610eb78161123e565b82815282868201528285820152826060820152606060808201528260a0820152015260018060a01b038094168152600283522060405191610ef78361123e565b838254168352610f8d846001840154168285019081528560028501541660408601908152866003860154916060880192835281610f366004890161127c565b9460808a01958652600660058a01549960a08c019a8b5201549760c08b019889526040519b8c9b828d525116908b015251166040890152511660608701525160808601525160e060a0860152610100850190611322565b915160c08401525160e08301520390f35b50346101d05760203660031901126101d0576001600160a01b039060409082610fc56111af565b168152600260205220818154169082600182015416926002820154166110296003830154610ff56004850161127c565b906006600586015495015493604051978897885260208801526040870152606086015260e0608086015260e0850190611322565b9160a084015260c08301520390f35b50346101d057806003193601126101d0576020600454604051908152f35b50346101d057806003193601126101d057604051809160035490818352602080930180926003835284832090835b8181106110e1575050508461109a910385611259565b60405193838594850191818652518092526040850193925b8281106110c157505050500390f35b83516001600160a01b0316855286955093810193928101926001016110b2565b82546001600160a01b031684529286019260019283019201611084565b50346101d057806003193601126101d0576020600554604051908152f35b50346101d05760403660031901126101d0576111366111af565b8161113f6111c5565b916111486113c0565b6001600160a01b039081168252600260205260408220600101548116926111708415156114e3565b833b15610c7d57602490836040519586948593630a17128360e31b85521660048401525af180156101d3576111a3575080f35b6111ac90611215565b80f35b600435906001600160a01b0382168203610afe57565b602435906001600160a01b0382168203610afe57565b90600182811c9216801561120b575b60208310146111f557565b634e487b7160e01b600052602260045260246000fd5b91607f16916111ea565b6001600160401b03811161122857604052565b634e487b7160e01b600052604160045260246000fd5b60e081019081106001600160401b0382111761122857604052565b601f909101601f19168101906001600160401b0382119082101761122857604052565b9060405191826000825492611290846111db565b9081845260019485811690816000146112ff57506001146112bc575b50506112ba92500383611259565b565b9093915060005260209081600020936000915b8183106112e75750506112ba935082010138806112ac565b855488840185015294850194879450918301916112cf565b9150506112ba94506020925060ff191682840152151560051b82010138806112ac565b919082519283825260005b84811061134e575050826000602080949584010152601f8019910116010190565b60208183018101518483018201520161132d565b60035481101561137d57600360005260206000200190600090565b634e487b7160e01b600052603260045260246000fd5b9181601f84011215610afe578235916001600160401b038311610afe5760208381860195010111610afe57565b6000546001600160a01b031633036113d457565b60405163118cdaa760e01b8152336004820152602490fd5b51906001600160a01b0382168203610afe57565b908060209392818452848401376000828201840152601f01601f1916010190565b6001600160401b03811161122857601f01601f191660200190565b90601f811161144a57505050565b600091825260208220906020601f850160051c83019410611486575b601f0160051c01915b82811061147b57505050565b81815560010161146f565b9092508290611466565b60008051602061156083398151915260028154146114ae5760029055565b604051633ee5aeb560e01b8152600490fd5b919082018092116114cd57565b634e487b7160e01b600052601160045260246000fd5b156114ea57565b60405162461bcd60e51b815260206004820152600d60248201526c2ab735b737bbb7103a37b5b2b760991b6044820152606490fdfe2013570c343af8ab14a9778150e381a0fda34ed6368127a95fd5e7210cbec5bf8be0079c531659141344cd1fd0a4f28419497f9722a3daafe3b4186f6b6457e09b779b17422d0df92223018b32b4d1fa46e071723d6817e2486d003becc55f00a26469706673582212200f7c5ae52f5e69268d761b8263f91d3c1458540137a7841cfd7c4fe204ecd08464736f6c63430008140033","opcodes":"PUSH1 0xA0 CALLVALUE PUSH2 0x122 JUMPI PUSH1 0x1F PUSH2 0x16F3 CODESIZE DUP2 SWAP1 SUB SWAP2 DUP3 ADD PUSH1 0x1F NOT AND DUP4 ADD SWAP2 PUSH1 0x1 PUSH1 0x1 PUSH1 0x40 SHL SUB DUP4 GT DUP5 DUP5 LT OR PUSH2 0x127 JUMPI DUP1 DUP5 SWAP3 PUSH1 0x20 SWAP5 PUSH1 0x40 MSTORE DUP4 CODECOPY DUP2 ADD SUB SLT PUSH2 0x122 JUMPI MLOAD PUSH1 0x1 PUSH1 0x1 PUSH1 0xA0 SHL SUB DUP1 DUP3 AND DUP1 DUP4 SUB PUSH2 0x122 JUMPI CALLER ISZERO PUSH2 0x109 JUMPI PUSH1 0x0 SLOAD CALLER PUSH1 0x1 DUP1 PUSH1 0xA0 SHL SUB NOT DUP3 AND OR PUSH1 0x0 SSTORE PUSH1 0x40 MLOAD SWAP3 CALLER SWAP2 AND PUSH32 0x8BE0079C531659141344CD1FD0A4F28419497F9722A3DAAFE3B4186F6B6457E0 PUSH1 0x0 DUP1 LOG3 PUSH1 0x1 PUSH32 0x9B779B17422D0DF92223018B32B4D1FA46E071723D6817E2486D003BECC55F00 SSTORE ISZERO PUSH2 0xDA JUMPI POP PUSH1 0x80 MSTORE PUSH1 0x40 MLOAD PUSH2 0x15B5 SWAP1 DUP2 PUSH2 0x13E DUP3 CODECOPY PUSH1 0x80 MLOAD DUP2 PUSH2 0xCBE ADD MSTORE RETURN JUMPDEST PUSH3 0x461BCD PUSH1 0xE5 SHL DUP2 MSTORE PUSH1 0x20 PUSH1 0x4 DUP3 ADD MSTORE PUSH1 0xA PUSH1 0x24 DUP3 ADD MSTORE PUSH10 0x2130B2103937BABA32B9 PUSH1 0xB1 SHL PUSH1 0x44 DUP3 ADD MSTORE PUSH1 0x64 SWAP1 REVERT JUMPDEST PUSH1 0x40 MLOAD PUSH4 0x1E4FBDF7 PUSH1 0xE0 SHL DUP2 MSTORE PUSH1 0x0 PUSH1 0x4 DUP3 ADD MSTORE PUSH1 0x24 SWAP1 REVERT JUMPDEST PUSH1 0x0 DUP1 REVERT JUMPDEST PUSH4 0x4E487B71 PUSH1 0xE0 SHL PUSH1 0x0 MSTORE PUSH1 0x41 PUSH1 0x4 MSTORE PUSH1 0x24 PUSH1 0x0 REVERT INVALID PUSH1 0x80 PUSH1 0x40 MSTORE PUSH1 0x4 CALLDATASIZE LT ISZERO PUSH2 0x56 JUMPI JUMPDEST CALLDATASIZE ISZERO PUSH2 0x19 JUMPI PUSH1 0x0 DUP1 REVERT JUMPDEST PUSH2 0x25 CALLVALUE PUSH1 0x4 SLOAD PUSH2 0x14C0 JUMP JUMPDEST PUSH1 0x4 SSTORE PUSH1 0x40 MLOAD CALLVALUE DUP2 MSTORE PUSH32 0xABEC8FA5EBA11C7EAC51663A2902A5A185098B166B62A23B16DC7A4E2C12DE4B PUSH1 0x20 CALLER SWAP3 LOG2 STOP JUMPDEST PUSH1 0x0 DUP1 CALLDATALOAD PUSH1 0xE0 SHR DUP1 PUSH4 0x668C0D0 EQ PUSH2 0x111C JUMPI DUP1 PUSH4 0x1E0DB440 EQ PUSH2 0x10FE JUMPI DUP1 PUSH4 0x2A5C792A EQ PUSH2 0x1056 JUMPI DUP1 PUSH4 0x342F2DF3 EQ PUSH2 0x1038 JUMPI DUP1 PUSH4 0x469E9067 EQ PUSH2 0xF9E JUMPI DUP1 PUSH4 0x617FBA04 EQ PUSH2 0xE8B JUMPI DUP1 PUSH4 0x634282AF EQ PUSH2 0xE47 JUMPI DUP1 PUSH4 0x69496D96 EQ PUSH2 0xDCB JUMPI DUP1 PUSH4 0x715018A6 EQ PUSH2 0xD83 JUMPI DUP1 PUSH4 0x71AF3101 EQ PUSH2 0xCED JUMPI DUP1 PUSH4 0x735DE9F7 EQ PUSH2 0xCA8 JUMPI DUP1 PUSH4 0x8DA5CB5B EQ PUSH2 0xC81 JUMPI DUP1 PUSH4 0x94AED7D0 EQ PUSH2 0x63E JUMPI DUP1 PUSH4 0x96214735 EQ PUSH2 0x5C0 JUMPI DUP1 PUSH4 0xD5F39488 EQ PUSH2 0x597 JUMPI DUP1 PUSH4 0xDBB80E42 EQ PUSH2 0x579 JUMPI DUP1 PUSH4 0xEC3889B5 EQ PUSH2 0x3FD JUMPI DUP1 PUSH4 0xF2FDE38B EQ PUSH2 0x387 JUMPI DUP1 PUSH4 0xFABB2C17 EQ PUSH2 0x1E3 JUMPI PUSH4 0xFF6151C7 EQ PUSH2 0x13E JUMPI POP PUSH2 0xE JUMP JUMPDEST CALLVALUE PUSH2 0x1D0 JUMPI PUSH1 0x40 CALLDATASIZE PUSH1 0x3 NOT ADD SLT PUSH2 0x1D0 JUMPI DUP1 PUSH2 0x158 PUSH2 0x11AF JUMP JUMPDEST PUSH2 0x160 PUSH2 0x11C5 JUMP JUMPDEST PUSH2 0x168 PUSH2 0x13C0 JUMP JUMPDEST PUSH1 0x1 PUSH1 0x1 PUSH1 0xA0 SHL SUB SWAP2 DUP3 AND DUP4 MSTORE PUSH1 0x2 PUSH1 0x20 MSTORE PUSH1 0x40 DUP4 KECCAK256 SLOAD DUP3 AND SWAP2 PUSH2 0x18D DUP4 ISZERO ISZERO PUSH2 0x14E3 JUMP JUMPDEST DUP3 EXTCODESIZE ISZERO PUSH2 0x1DE JUMPI PUSH1 0x24 DUP5 SWAP3 DUP4 PUSH1 0x40 MLOAD SWAP6 DUP7 SWAP5 DUP6 SWAP4 PUSH4 0x3A43A3F3 PUSH1 0xE1 SHL DUP6 MSTORE AND PUSH1 0x4 DUP5 ADD MSTORE GAS CALL DUP1 ISZERO PUSH2 0x1D3 JUMPI PUSH2 0x1C0 JUMPI POP RETURN JUMPDEST PUSH2 0x1C9 SWAP1 PUSH2 0x1215 JUMP JUMPDEST PUSH2 0x1D0 JUMPI DUP1 RETURN JUMPDEST DUP1 REVERT JUMPDEST PUSH1 0x40 MLOAD RETURNDATASIZE DUP5 DUP3 RETURNDATACOPY RETURNDATASIZE SWAP1 REVERT JUMPDEST POP POP POP REVERT JUMPDEST POP CALLVALUE PUSH2 0x1D0 JUMPI PUSH1 0x40 CALLDATASIZE PUSH1 0x3 NOT ADD SLT PUSH2 0x1D0 JUMPI PUSH2 0x1FD PUSH2 0x11AF JUMP JUMPDEST PUSH1 0x1 PUSH1 0x1 PUSH1 0x40 SHL SUB SWAP1 PUSH1 0x24 CALLDATALOAD DUP3 DUP2 GT PUSH2 0x383 JUMPI PUSH2 0x21E SWAP1 CALLDATASIZE SWAP1 PUSH1 0x4 ADD PUSH2 0x1393 JUMP JUMPDEST SWAP2 SWAP1 PUSH1 0x1 DUP1 PUSH1 0xA0 SHL SUB DUP1 SWAP3 AND SWAP4 DUP5 DUP7 MSTORE PUSH1 0x20 SWAP3 PUSH1 0x2 DUP5 MSTORE PUSH1 0x40 DUP8 KECCAK256 SWAP1 PUSH1 0x2 DUP3 ADD SLOAD AND CALLER SUB PUSH2 0x34F JUMPI PUSH1 0x4 ADD SWAP1 DUP5 GT PUSH2 0x33B JUMPI PUSH2 0x264 DUP5 PUSH2 0x25E DUP4 SLOAD PUSH2 0x11DB JUMP JUMPDEST DUP4 PUSH2 0x143C JUMP JUMPDEST DUP6 PUSH1 0x1F DUP6 GT PUSH1 0x1 EQ PUSH2 0x2C5 JUMPI SWAP2 PUSH2 0x2B4 SWAP2 DUP6 PUSH1 0x0 DUP1 MLOAD PUSH1 0x20 PUSH2 0x1520 DUP4 CODECOPY DUP2 MLOAD SWAP2 MSTORE SWAP7 SWAP6 SWAP5 DUP10 SWAP2 PUSH2 0x2BA JUMPI JUMPDEST POP DUP6 PUSH1 0x1 SHL SWAP1 PUSH1 0x0 NOT DUP8 PUSH1 0x3 SHL SHR NOT AND OR SWAP1 SSTORE JUMPDEST PUSH1 0x40 MLOAD SWAP4 DUP4 DUP6 SWAP5 DUP6 MSTORE DUP5 ADD SWAP2 PUSH2 0x1400 JUMP JUMPDEST SUB SWAP1 LOG2 DUP1 RETURN JUMPDEST SWAP1 POP DUP3 ADD CALLDATALOAD CODESIZE PUSH2 0x28F JUMP JUMPDEST DUP2 DUP8 MSTORE DUP4 DUP8 KECCAK256 SWAP1 PUSH1 0x1F NOT DUP7 AND DUP9 JUMPDEST DUP2 DUP2 LT PUSH2 0x324 JUMPI POP SWAP2 PUSH2 0x2B4 SWAP4 SWAP2 DUP8 PUSH1 0x0 DUP1 MLOAD PUSH1 0x20 PUSH2 0x1520 DUP4 CODECOPY DUP2 MLOAD SWAP2 MSTORE SWAP9 SWAP8 SWAP7 SWAP5 LT PUSH2 0x30A JUMPI JUMPDEST POP POP PUSH1 0x1 DUP6 DUP2 SHL ADD SWAP1 SSTORE PUSH2 0x2A3 JUMP JUMPDEST DUP4 ADD CALLDATALOAD PUSH1 0x0 NOT PUSH1 0x3 DUP9 SWAP1 SHL PUSH1 0xF8 AND SHR NOT AND SWAP1 SSTORE CODESIZE DUP1 PUSH2 0x2FB JUMP JUMPDEST SWAP2 SWAP3 DUP7 PUSH1 0x1 DUP2 SWAP3 DUP7 DUP10 ADD CALLDATALOAD DUP2 SSTORE ADD SWAP5 ADD SWAP3 ADD PUSH2 0x2D3 JUMP JUMPDEST PUSH4 0x4E487B71 PUSH1 0xE0 SHL DUP7 MSTORE PUSH1 0x41 PUSH1 0x4 MSTORE PUSH1 0x24 DUP7 REVERT JUMPDEST PUSH1 0x40 MLOAD PUSH3 0x461BCD PUSH1 0xE5 SHL DUP2 MSTORE PUSH1 0x4 DUP2 ADD DUP6 SWAP1 MSTORE PUSH1 0xC PUSH1 0x24 DUP3 ADD MSTORE PUSH12 0x27B7363C9031B932B0BA37B9 PUSH1 0xA1 SHL PUSH1 0x44 DUP3 ADD MSTORE PUSH1 0x64 SWAP1 REVERT JUMPDEST DUP4 DUP1 REVERT JUMPDEST POP CALLVALUE PUSH2 0x1D0 JUMPI PUSH1 0x20 CALLDATASIZE PUSH1 0x3 NOT ADD SLT PUSH2 0x1D0 JUMPI PUSH2 0x3A1 PUSH2 0x11AF JUMP JUMPDEST PUSH2 0x3A9 PUSH2 0x13C0 JUMP JUMPDEST PUSH1 0x1 PUSH1 0x1 PUSH1 0xA0 SHL SUB SWAP1 DUP2 AND SWAP1 DUP2 ISZERO PUSH2 0x3E4 JUMPI PUSH1 0x0 SLOAD DUP3 PUSH1 0x1 DUP1 PUSH1 0xA0 SHL SUB NOT DUP3 AND OR PUSH1 0x0 SSTORE AND PUSH1 0x0 DUP1 MLOAD PUSH1 0x20 PUSH2 0x1540 DUP4 CODECOPY DUP2 MLOAD SWAP2 MSTORE PUSH1 0x0 DUP1 LOG3 DUP1 RETURN JUMPDEST PUSH1 0x40 MLOAD PUSH4 0x1E4FBDF7 PUSH1 0xE0 SHL DUP2 MSTORE PUSH1 0x4 DUP2 ADD DUP5 SWAP1 MSTORE PUSH1 0x24 SWAP1 REVERT JUMPDEST POP CALLVALUE PUSH2 0x1D0 JUMPI PUSH1 0x20 DUP1 PUSH1 0x3 NOT CALLDATASIZE ADD SLT PUSH2 0x575 JUMPI PUSH2 0x418 PUSH2 0x11AF JUMP JUMPDEST SWAP1 PUSH2 0x421 PUSH2 0x13C0 JUMP JUMPDEST PUSH2 0x429 PUSH2 0x1490 JUMP JUMPDEST PUSH1 0x4 SLOAD SWAP2 DUP3 ISZERO PUSH2 0x53A JUMPI PUSH1 0x1 PUSH1 0x1 PUSH1 0xA0 SHL SUB AND SWAP2 DUP3 ISZERO PUSH2 0x505 JUMPI DUP4 PUSH1 0x4 SSTORE PUSH2 0x453 DUP2 PUSH1 0x5 SLOAD PUSH2 0x14C0 JUMP JUMPDEST PUSH1 0x5 SSTORE DUP4 DUP1 DUP1 DUP1 DUP5 DUP8 GAS CALL RETURNDATASIZE ISZERO PUSH2 0x500 JUMPI RETURNDATASIZE PUSH2 0x46E DUP2 PUSH2 0x1421 JUMP JUMPDEST SWAP1 PUSH2 0x47C PUSH1 0x40 MLOAD SWAP3 DUP4 PUSH2 0x1259 JUMP JUMPDEST DUP2 MSTORE DUP6 DUP5 RETURNDATASIZE SWAP3 ADD RETURNDATACOPY JUMPDEST ISZERO PUSH2 0x4C9 JUMPI SWAP1 PUSH32 0xFC7AD544FF6A06D6499925723D25B6FE70457A42939995B1D3D6F560FE336333 SWAP2 PUSH1 0x40 MLOAD SWAP1 DUP2 MSTORE LOG2 PUSH1 0x1 PUSH1 0x0 DUP1 MLOAD PUSH1 0x20 PUSH2 0x1560 DUP4 CODECOPY DUP2 MLOAD SWAP2 MSTORE SSTORE DUP1 RETURN JUMPDEST PUSH1 0x40 MLOAD PUSH3 0x461BCD PUSH1 0xE5 SHL DUP2 MSTORE PUSH1 0x4 DUP2 ADD DUP4 SWAP1 MSTORE PUSH1 0xF PUSH1 0x24 DUP3 ADD MSTORE PUSH15 0x115512081CD95B990819985A5B1959 PUSH1 0x8A SHL PUSH1 0x44 DUP3 ADD MSTORE PUSH1 0x64 SWAP1 REVERT JUMPDEST PUSH2 0x485 JUMP JUMPDEST PUSH1 0x40 MLOAD PUSH3 0x461BCD PUSH1 0xE5 SHL DUP2 MSTORE PUSH1 0x4 DUP2 ADD DUP4 SWAP1 MSTORE PUSH1 0xD PUSH1 0x24 DUP3 ADD MSTORE PUSH13 0x109859081C9958DA5C1A595B9D PUSH1 0x9A SHL PUSH1 0x44 DUP3 ADD MSTORE PUSH1 0x64 SWAP1 REVERT JUMPDEST PUSH1 0x40 MLOAD PUSH3 0x461BCD PUSH1 0xE5 SHL DUP2 MSTORE PUSH1 0x4 DUP2 ADD DUP4 SWAP1 MSTORE PUSH1 0x13 PUSH1 0x24 DUP3 ADD MSTORE PUSH19 0x4E6F7468696E6720746F207769746864726177 PUSH1 0x68 SHL PUSH1 0x44 DUP3 ADD MSTORE PUSH1 0x64 SWAP1 REVERT JUMPDEST POP DUP1 REVERT JUMPDEST POP CALLVALUE PUSH2 0x1D0 JUMPI DUP1 PUSH1 0x3 NOT CALLDATASIZE ADD SLT PUSH2 0x1D0 JUMPI PUSH1 0x20 PUSH1 0x3 SLOAD PUSH1 0x40 MLOAD SWAP1 DUP2 MSTORE RETURN JUMPDEST POP CALLVALUE PUSH2 0x1D0 JUMPI DUP1 PUSH1 0x3 NOT CALLDATASIZE ADD SLT PUSH2 0x1D0 JUMPI PUSH1 0x1 SLOAD PUSH1 0x40 MLOAD PUSH1 0x1 PUSH1 0x1 PUSH1 0xA0 SHL SUB SWAP1 SWAP2 AND DUP2 MSTORE PUSH1 0x20 SWAP1 RETURN JUMPDEST POP CALLVALUE PUSH2 0x1D0 JUMPI PUSH1 0x20 CALLDATASIZE PUSH1 0x3 NOT ADD SLT PUSH2 0x1D0 JUMPI PUSH2 0x5DA PUSH2 0x11AF JUMP JUMPDEST PUSH2 0x5E2 PUSH2 0x13C0 JUMP JUMPDEST PUSH1 0x1 SLOAD SWAP1 PUSH1 0x1 PUSH1 0x1 PUSH1 0xA0 SHL SUB SWAP1 DUP2 DUP4 AND PUSH2 0x60B JUMPI PUSH1 0x1 PUSH1 0x1 PUSH1 0xA0 SHL SUB NOT SWAP1 SWAP3 AND SWAP2 AND OR PUSH1 0x1 SSTORE DUP1 RETURN JUMPDEST PUSH1 0x40 MLOAD PUSH3 0x461BCD PUSH1 0xE5 SHL DUP2 MSTORE PUSH1 0x20 PUSH1 0x4 DUP3 ADD MSTORE PUSH1 0xB PUSH1 0x24 DUP3 ADD MSTORE PUSH11 0x105B1C9958591E481CD95D PUSH1 0xAA SHL PUSH1 0x44 DUP3 ADD MSTORE PUSH1 0x64 SWAP1 REVERT JUMPDEST POP PUSH1 0x60 CALLDATASIZE PUSH1 0x3 NOT ADD SLT PUSH2 0x1D0 JUMPI PUSH1 0x4 CALLDATALOAD PUSH1 0x1 PUSH1 0x1 PUSH1 0x40 SHL SUB DUP2 GT PUSH2 0x575 JUMPI PUSH2 0x66A SWAP1 CALLDATASIZE SWAP1 PUSH1 0x4 ADD PUSH2 0x1393 JUMP JUMPDEST SWAP2 SWAP1 PUSH1 0x24 CALLDATALOAD PUSH1 0x1 PUSH1 0x1 PUSH1 0x40 SHL SUB DUP2 GT PUSH2 0xC7D JUMPI PUSH2 0x68B SWAP1 CALLDATASIZE SWAP1 PUSH1 0x4 ADD PUSH2 0x1393 JUMP JUMPDEST SWAP1 SWAP4 SWAP1 SWAP3 SWAP1 PUSH1 0x44 CALLDATALOAD PUSH1 0x1 PUSH1 0x1 PUSH1 0x40 SHL SUB DUP2 GT PUSH2 0xC7D JUMPI PUSH2 0x6AF SWAP1 CALLDATASIZE SWAP1 PUSH1 0x4 ADD PUSH2 0x1393 JUMP JUMPDEST SWAP1 SWAP6 PUSH2 0x6B9 PUSH2 0x1490 JUMP JUMPDEST PUSH1 0x1 SLOAD PUSH1 0x1 PUSH1 0x1 PUSH1 0xA0 SHL SUB AND SWAP6 DUP7 ISZERO PUSH2 0xC45 JUMPI PUSH1 0x40 DUP1 MLOAD PUSH4 0x390274ED PUSH1 0xE0 SHL DUP2 MSTORE PUSH1 0x4 DUP2 ADD DUP3 SWAP1 MSTORE SWAP8 DUP9 SWAP1 DUP2 DUP9 DUP2 PUSH2 0x70B PUSH2 0x6F8 PUSH1 0x44 DUP4 ADD DUP13 DUP16 PUSH2 0x1400 JUMP JUMPDEST DUP3 DUP2 SUB PUSH1 0x3 NOT ADD PUSH1 0x24 DUP5 ADD MSTORE DUP9 DUP11 PUSH2 0x1400 JUMP JUMPDEST SUB SWAP3 GAS CALL SWAP6 DUP7 ISZERO PUSH2 0xC3A JUMPI DUP6 SWAP8 DUP7 SWAP8 PUSH2 0xBED JUMPI JUMPDEST POP PUSH1 0x40 MLOAD PUSH2 0x72C DUP2 PUSH2 0x123E JUMP JUMPDEST PUSH1 0x1 PUSH1 0x1 PUSH1 0xA0 SHL SUB DUP10 DUP2 AND DUP3 MSTORE DUP9 AND PUSH1 0x20 DUP3 ADD MSTORE CALLER PUSH1 0x40 DUP3 ADD MSTORE TIMESTAMP PUSH1 0x60 DUP3 ADD MSTORE PUSH2 0x755 DUP6 PUSH2 0x1421 JUMP JUMPDEST SWAP1 PUSH2 0x763 PUSH1 0x40 MLOAD SWAP3 DUP4 PUSH2 0x1259 JUMP JUMPDEST DUP6 DUP3 MSTORE CALLDATASIZE DUP7 DUP13 ADD GT PUSH2 0xABD JUMPI DUP6 DUP12 PUSH1 0x20 DUP5 ADD CALLDATACOPY PUSH1 0x20 DUP7 DUP4 ADD DUP2 ADD DUP10 SWAP1 MSTORE PUSH1 0x80 DUP3 ADD SWAP3 DUP4 MSTORE PUSH1 0xA0 DUP3 ADD DUP10 SWAP1 MSTORE PUSH1 0xC0 DUP3 ADD DUP10 SWAP1 MSTORE PUSH1 0x1 PUSH1 0x1 PUSH1 0xA0 SHL SUB DUP12 DUP2 AND DUP11 MSTORE PUSH1 0x2 DUP1 DUP4 MSTORE PUSH1 0x40 DUP1 DUP13 KECCAK256 DUP6 MLOAD DUP2 SLOAD SWAP1 DUP6 AND PUSH1 0x1 PUSH1 0x1 PUSH1 0xA0 SHL SUB NOT SWAP2 DUP3 AND OR DUP3 SSTORE SWAP5 DUP7 ADD MLOAD PUSH1 0x1 DUP3 ADD DUP1 SLOAD SWAP2 DUP7 AND SWAP2 DUP8 AND SWAP2 SWAP1 SWAP2 OR SWAP1 SSTORE SWAP1 DUP6 ADD MLOAD SWAP2 DUP2 ADD DUP1 SLOAD SWAP3 SWAP1 SWAP4 AND SWAP2 SWAP1 SWAP4 AND OR SWAP1 SSTORE PUSH1 0x60 DUP3 ADD MLOAD PUSH1 0x3 DUP3 ADD SSTORE SWAP2 MLOAD DUP1 MLOAD SWAP1 PUSH1 0x1 PUSH1 0x1 PUSH1 0x40 SHL SUB DUP3 GT PUSH2 0xBD9 JUMPI PUSH2 0x823 DUP3 PUSH2 0x81A PUSH1 0x4 DUP8 ADD SLOAD PUSH2 0x11DB JUMP JUMPDEST PUSH1 0x4 DUP8 ADD PUSH2 0x143C JUMP JUMPDEST PUSH1 0x20 SWAP1 PUSH1 0x1F DUP4 GT PUSH1 0x1 EQ PUSH2 0xB67 JUMPI SWAP2 DUP1 PUSH1 0x6 SWAP5 SWAP3 PUSH1 0xC0 SWAP5 DUP14 SWAP3 PUSH2 0xB5C JUMPI JUMPDEST POP POP DUP2 PUSH1 0x1 SHL SWAP2 PUSH1 0x0 NOT SWAP1 PUSH1 0x3 SHL SHR NOT AND OR PUSH1 0x4 DUP6 ADD SSTORE JUMPDEST PUSH1 0xA0 DUP2 ADD MLOAD PUSH1 0x5 DUP6 ADD SSTORE ADD MLOAD SWAP2 ADD SSTORE PUSH1 0x3 SLOAD PUSH1 0x1 PUSH1 0x40 SHL DUP2 LT ISZERO PUSH2 0xB48 JUMPI DUP1 PUSH1 0x1 PUSH2 0x887 SWAP3 ADD PUSH1 0x3 SSTORE PUSH2 0x1362 JUMP JUMPDEST DUP2 SLOAD PUSH1 0x1 PUSH1 0x1 PUSH1 0xA0 SHL SUB DUP12 DUP2 AND PUSH1 0x3 SWAP4 SWAP1 SWAP4 SHL SWAP3 DUP4 SHL SWAP3 SHL NOT AND OR SWAP1 SSTORE DUP6 CALLVALUE PUSH2 0x95A JUMPI JUMPDEST POP PUSH1 0x40 SWAP9 SWAP3 PUSH2 0x8E8 SWAP5 SWAP3 PUSH2 0x8CD PUSH2 0x8DB SWAP4 DUP13 MLOAD SWAP9 PUSH1 0xA0 DUP11 MSTORE PUSH1 0xA0 DUP11 ADD SWAP2 PUSH2 0x1400 JUMP JUMPDEST SWAP2 DUP8 DUP4 SUB PUSH1 0x20 DUP10 ADD MSTORE PUSH2 0x1400 JUMP JUMPDEST SWAP2 DUP5 DUP4 SUB DUP10 DUP7 ADD MSTORE PUSH2 0x1400 JUMP JUMPDEST CALLVALUE PUSH1 0x60 DUP4 ADD MSTORE PUSH1 0x80 DUP3 ADD SWAP3 SWAP1 SWAP3 MSTORE CALLER SWAP2 PUSH1 0x1 PUSH1 0x1 PUSH1 0xA0 SHL SUB DUP5 DUP2 AND SWAP3 SWAP1 DUP7 AND SWAP2 PUSH32 0xEE1BE9E7A514E242EDDD023CF4BD4446C71D28C7CF5C53C4085379EA89993033 SWAP2 SWAP1 DUP2 SWAP1 SUB SWAP1 LOG4 PUSH1 0x1 PUSH1 0x0 DUP1 MLOAD PUSH1 0x20 PUSH2 0x1560 DUP4 CODECOPY DUP2 MLOAD SWAP2 MSTORE SSTORE DUP3 MLOAD PUSH1 0x1 PUSH1 0x1 PUSH1 0xA0 SHL SUB SWAP3 DUP4 AND DUP2 MSTORE SWAP2 AND PUSH1 0x20 DUP3 ADD MSTORE RETURN JUMPDEST PUSH1 0x40 MLOAD PUSH4 0x6CB504A5 PUSH1 0xE1 SHL DUP2 MSTORE PUSH1 0x4 DUP2 ADD DUP3 SWAP1 MSTORE SWAP1 SWAP7 POP PUSH1 0x20 DUP2 PUSH1 0x24 DUP2 CALLVALUE PUSH1 0x1 PUSH1 0x1 PUSH1 0xA0 SHL SUB DUP14 AND GAS CALL SWAP1 DUP2 ISZERO PUSH2 0xB3D JUMPI DUP8 SWAP2 PUSH2 0xB0B JUMPI JUMPDEST POP PUSH1 0x40 MLOAD PUSH4 0x70A08231 PUSH1 0xE0 SHL DUP2 MSTORE ADDRESS PUSH1 0x4 DUP3 ADD MSTORE SWAP1 SWAP7 SWAP1 PUSH1 0x20 DUP2 PUSH1 0x24 DUP2 PUSH1 0x1 PUSH1 0x1 PUSH1 0xA0 SHL SUB DUP15 AND GAS STATICCALL SWAP1 DUP2 ISZERO PUSH2 0x1D3 JUMPI DUP3 SWAP2 PUSH2 0xAD4 JUMPI JUMPDEST POP DUP1 PUSH2 0xA45 JUMPI JUMPDEST POP PUSH1 0x1 PUSH1 0x1 PUSH1 0xA0 SHL SUB DUP10 DUP2 AND DUP3 MSTORE PUSH1 0x2 PUSH1 0x20 MSTORE PUSH1 0x40 DUP3 KECCAK256 CALLVALUE PUSH1 0x5 DUP3 ADD SSTORE PUSH1 0x6 ADD DUP9 SWAP1 SSTORE DUP9 AND EXTCODESIZE ISZERO PUSH2 0x1D0 JUMPI PUSH1 0x40 MLOAD PUSH4 0xD8C76C17 PUSH1 0xE0 SHL DUP2 MSTORE CALLER PUSH1 0x4 DUP3 ADD MSTORE DUP2 DUP2 PUSH1 0x24 DUP2 DUP4 PUSH1 0x1 PUSH1 0x1 PUSH1 0xA0 SHL SUB DUP15 AND GAS CALL DUP1 ISZERO PUSH2 0x1D3 JUMPI PUSH2 0xA31 JUMPI JUMPDEST POP PUSH2 0x8AB JUMP JUMPDEST PUSH2 0xA3B DUP3 SWAP2 PUSH2 0x1215 JUMP JUMPDEST PUSH2 0x1D0 JUMPI DUP1 PUSH2 0xA2B JUMP JUMPDEST PUSH1 0x40 MLOAD PUSH4 0xA9059CBB PUSH1 0xE0 SHL DUP2 MSTORE CALLER PUSH1 0x4 DUP3 ADD MSTORE PUSH1 0x24 DUP2 ADD DUP3 SWAP1 MSTORE SWAP2 SWAP8 POP SWAP1 PUSH1 0x20 DUP2 PUSH1 0x44 DUP2 DUP12 PUSH1 0x1 PUSH1 0x1 PUSH1 0xA0 SHL SUB DUP16 AND GAS CALL DUP1 ISZERO PUSH2 0xAC9 JUMPI PUSH2 0xA89 JUMPI JUMPDEST POP SWAP6 CODESIZE PUSH2 0x9D0 JUMP JUMPDEST PUSH1 0x20 DUP2 RETURNDATASIZE PUSH1 0x20 GT PUSH2 0xAC1 JUMPI JUMPDEST DUP2 PUSH2 0xAA2 PUSH1 0x20 SWAP4 DUP4 PUSH2 0x1259 JUMP JUMPDEST DUP2 ADD SUB SLT PUSH2 0xABD JUMPI MLOAD DUP1 ISZERO ISZERO SUB PUSH2 0xAB9 JUMPI CODESIZE PUSH2 0xA81 JUMP JUMPDEST DUP7 DUP1 REVERT JUMPDEST DUP8 DUP1 REVERT JUMPDEST RETURNDATASIZE SWAP2 POP PUSH2 0xA95 JUMP JUMPDEST PUSH1 0x40 MLOAD RETURNDATASIZE DUP11 DUP3 RETURNDATACOPY RETURNDATASIZE SWAP1 REVERT JUMPDEST SWAP1 POP PUSH1 0x20 DUP2 RETURNDATASIZE PUSH1 0x20 GT PUSH2 0xB03 JUMPI JUMPDEST DUP2 PUSH2 0xAEF PUSH1 0x20 SWAP4 DUP4 PUSH2 0x1259 JUMP JUMPDEST DUP2 ADD SUB SLT PUSH2 0xAFE JUMPI MLOAD CODESIZE PUSH2 0x9C9 JUMP JUMPDEST PUSH1 0x0 DUP1 REVERT JUMPDEST RETURNDATASIZE SWAP2 POP PUSH2 0xAE2 JUMP JUMPDEST SWAP1 POP PUSH1 0x20 DUP2 RETURNDATASIZE PUSH1 0x20 GT PUSH2 0xB35 JUMPI JUMPDEST DUP2 PUSH2 0xB26 PUSH1 0x20 SWAP4 DUP4 PUSH2 0x1259 JUMP JUMPDEST DUP2 ADD SUB SLT PUSH2 0xAFE JUMPI MLOAD CODESIZE PUSH2 0x992 JUMP JUMPDEST RETURNDATASIZE SWAP2 POP PUSH2 0xB19 JUMP JUMPDEST PUSH1 0x40 MLOAD RETURNDATASIZE DUP10 DUP3 RETURNDATACOPY RETURNDATASIZE SWAP1 REVERT JUMPDEST PUSH4 0x4E487B71 PUSH1 0xE0 SHL DUP8 MSTORE PUSH1 0x41 PUSH1 0x4 MSTORE PUSH1 0x24 DUP8 REVERT JUMPDEST ADD MLOAD SWAP1 POP CODESIZE DUP1 PUSH2 0x841 JUMP JUMPDEST SWAP1 PUSH1 0x4 DUP6 ADD DUP12 MSTORE PUSH1 0x20 DUP12 KECCAK256 SWAP2 DUP12 JUMPDEST PUSH1 0x1F NOT DUP6 AND DUP2 LT PUSH2 0xBC1 JUMPI POP SWAP3 PUSH1 0x6 SWAP5 SWAP3 PUSH1 0x1 SWAP3 PUSH1 0xC0 SWAP6 DUP4 PUSH1 0x1F NOT DUP2 AND LT PUSH2 0xBA8 JUMPI JUMPDEST POP POP POP DUP2 SHL ADD PUSH1 0x4 DUP6 ADD SSTORE PUSH2 0x859 JUMP JUMPDEST ADD MLOAD PUSH1 0x0 NOT PUSH1 0xF8 DUP5 PUSH1 0x3 SHL AND SHR NOT AND SWAP1 SSTORE CODESIZE DUP1 DUP1 PUSH2 0xB98 JUMP JUMPDEST SWAP2 SWAP3 PUSH1 0x20 PUSH1 0x1 DUP2 SWAP3 DUP7 DUP6 ADD MLOAD DUP2 SSTORE ADD SWAP5 ADD SWAP3 ADD PUSH2 0xB75 JUMP JUMPDEST PUSH4 0x4E487B71 PUSH1 0xE0 SHL DUP11 MSTORE PUSH1 0x41 PUSH1 0x4 MSTORE PUSH1 0x24 DUP11 REVERT JUMPDEST SWAP8 POP SWAP6 POP PUSH1 0x40 DUP8 RETURNDATASIZE PUSH1 0x40 GT PUSH2 0xC32 JUMPI JUMPDEST DUP2 PUSH2 0xC0A PUSH1 0x40 SWAP4 DUP4 PUSH2 0x1259 JUMP JUMPDEST DUP2 ADD SUB SLT PUSH2 0xC2E JUMPI PUSH2 0xC27 PUSH1 0x20 PUSH2 0xC20 DUP10 PUSH2 0x13EC JUMP JUMPDEST SWAP9 ADD PUSH2 0x13EC JUMP JUMPDEST SWAP6 CODESIZE PUSH2 0x71F JUMP JUMPDEST DUP5 DUP1 REVERT JUMPDEST RETURNDATASIZE SWAP2 POP PUSH2 0xBFD JUMP JUMPDEST PUSH1 0x40 MLOAD RETURNDATASIZE DUP8 DUP3 RETURNDATACOPY RETURNDATASIZE SWAP1 REVERT JUMPDEST PUSH1 0x40 MLOAD PUSH3 0x461BCD PUSH1 0xE5 SHL DUP2 MSTORE PUSH1 0x20 PUSH1 0x4 DUP3 ADD MSTORE PUSH1 0x10 PUSH1 0x24 DUP3 ADD MSTORE PUSH16 0x11195C1B1BDE595C881B9BDD081CD95D PUSH1 0x82 SHL PUSH1 0x44 DUP3 ADD MSTORE PUSH1 0x64 SWAP1 REVERT JUMPDEST DUP3 DUP1 REVERT JUMPDEST POP CALLVALUE PUSH2 0x1D0 JUMPI DUP1 PUSH1 0x3 NOT CALLDATASIZE ADD SLT PUSH2 0x1D0 JUMPI SLOAD PUSH1 0x40 MLOAD PUSH1 0x1 PUSH1 0x1 PUSH1 0xA0 SHL SUB SWAP1 SWAP2 AND DUP2 MSTORE PUSH1 0x20 SWAP1 RETURN JUMPDEST POP CALLVALUE PUSH2 0x1D0 JUMPI DUP1 PUSH1 0x3 NOT CALLDATASIZE ADD SLT PUSH2 0x1D0 JUMPI PUSH1 0x40 MLOAD PUSH32 0x0 PUSH1 0x1 PUSH1 0x1 PUSH1 0xA0 SHL SUB AND DUP2 MSTORE PUSH1 0x20 SWAP1 RETURN JUMPDEST POP CALLVALUE PUSH2 0x1D0 JUMPI PUSH1 0x60 CALLDATASIZE PUSH1 0x3 NOT ADD SLT PUSH2 0x1D0 JUMPI DUP1 PUSH2 0xD08 PUSH2 0x11AF JUMP JUMPDEST PUSH2 0xD10 PUSH2 0x11C5 JUMP JUMPDEST PUSH1 0x44 CALLDATALOAD SWAP2 DUP3 ISZERO ISZERO DUP1 SWAP4 SUB PUSH2 0x1DE JUMPI PUSH2 0xD26 PUSH2 0x13C0 JUMP JUMPDEST PUSH1 0x1 PUSH1 0x1 PUSH1 0xA0 SHL SUB SWAP1 DUP2 AND DUP5 MSTORE PUSH1 0x2 PUSH1 0x20 MSTORE PUSH1 0x40 DUP5 KECCAK256 SLOAD DUP2 AND PUSH2 0xD4A DUP2 ISZERO ISZERO PUSH2 0x14E3 JUMP JUMPDEST DUP1 EXTCODESIZE ISZERO PUSH2 0xC2E JUMPI DUP5 SWAP3 DUP4 PUSH1 0x44 SWAP3 PUSH1 0x40 MLOAD SWAP7 DUP8 SWAP6 DUP7 SWAP5 PUSH4 0xA0DAF89 PUSH1 0xE2 SHL DUP7 MSTORE AND PUSH1 0x4 DUP6 ADD MSTORE PUSH1 0x24 DUP5 ADD MSTORE GAS CALL DUP1 ISZERO PUSH2 0x1D3 JUMPI PUSH2 0x1C0 JUMPI POP RETURN JUMPDEST POP CALLVALUE PUSH2 0x1D0 JUMPI DUP1 PUSH1 0x3 NOT CALLDATASIZE ADD SLT PUSH2 0x1D0 JUMPI PUSH2 0xD9C PUSH2 0x13C0 JUMP JUMPDEST PUSH1 0x0 DUP1 SLOAD PUSH1 0x1 PUSH1 0x1 PUSH1 0xA0 SHL SUB NOT DUP2 AND DUP3 SSTORE PUSH1 0x1 PUSH1 0x1 PUSH1 0xA0 SHL SUB AND PUSH1 0x0 DUP1 MLOAD PUSH1 0x20 PUSH2 0x1540 DUP4 CODECOPY DUP2 MLOAD SWAP2 MSTORE DUP3 DUP1 LOG3 DUP1 RETURN JUMPDEST POP CALLVALUE PUSH2 0x1D0 JUMPI PUSH1 0x40 CALLDATASIZE PUSH1 0x3 NOT ADD SLT PUSH2 0x1D0 JUMPI DUP1 PUSH2 0xDE6 PUSH2 0x11AF JUMP JUMPDEST PUSH2 0xDEE PUSH2 0x13C0 JUMP JUMPDEST PUSH1 0x1 PUSH1 0x1 PUSH1 0xA0 SHL SUB SWAP1 DUP2 AND DUP3 MSTORE PUSH1 0x2 PUSH1 0x20 MSTORE PUSH1 0x40 DUP3 KECCAK256 SLOAD AND PUSH2 0xE11 DUP2 ISZERO ISZERO PUSH2 0x14E3 JUMP JUMPDEST DUP1 EXTCODESIZE ISZERO PUSH2 0xE44 JUMPI DUP2 DUP1 SWAP2 PUSH1 0x24 PUSH1 0x40 MLOAD DUP1 SWAP5 DUP2 SWAP4 PUSH4 0x9D0014B1 PUSH1 0xE0 SHL DUP4 MSTORE DUP4 CALLDATALOAD PUSH1 0x4 DUP5 ADD MSTORE GAS CALL DUP1 ISZERO PUSH2 0x1D3 JUMPI PUSH2 0x1C0 JUMPI POP RETURN JUMPDEST POP REVERT JUMPDEST POP CALLVALUE PUSH2 0x1D0 JUMPI PUSH1 0x20 CALLDATASIZE PUSH1 0x3 NOT ADD SLT PUSH2 0x1D0 JUMPI PUSH1 0x4 CALLDATALOAD SWAP1 PUSH1 0x3 SLOAD DUP3 LT ISZERO PUSH2 0x1D0 JUMPI PUSH1 0x20 PUSH2 0xE72 DUP4 PUSH2 0x1362 JUMP JUMPDEST SWAP1 SLOAD PUSH1 0x40 MLOAD PUSH1 0x3 SWAP3 SWAP1 SWAP3 SHL SHR PUSH1 0x1 PUSH1 0x1 PUSH1 0xA0 SHL SUB AND DUP2 MSTORE RETURN JUMPDEST POP CALLVALUE PUSH2 0x1D0 JUMPI PUSH1 0x20 DUP1 PUSH1 0x3 NOT CALLDATASIZE ADD SLT PUSH2 0x575 JUMPI PUSH1 0x40 PUSH2 0xEA8 PUSH2 0x11AF JUMP JUMPDEST SWAP3 DUP1 PUSH1 0xC0 DUP4 MLOAD PUSH2 0xEB7 DUP2 PUSH2 0x123E JUMP JUMPDEST DUP3 DUP2 MSTORE DUP3 DUP7 DUP3 ADD MSTORE DUP3 DUP6 DUP3 ADD MSTORE DUP3 PUSH1 0x60 DUP3 ADD MSTORE PUSH1 0x60 PUSH1 0x80 DUP3 ADD MSTORE DUP3 PUSH1 0xA0 DUP3 ADD MSTORE ADD MSTORE PUSH1 0x1 DUP1 PUSH1 0xA0 SHL SUB DUP1 SWAP5 AND DUP2 MSTORE PUSH1 0x2 DUP4 MSTORE KECCAK256 PUSH1 0x40 MLOAD SWAP2 PUSH2 0xEF7 DUP4 PUSH2 0x123E JUMP JUMPDEST DUP4 DUP3 SLOAD AND DUP4 MSTORE PUSH2 0xF8D DUP5 PUSH1 0x1 DUP5 ADD SLOAD AND DUP3 DUP6 ADD SWAP1 DUP2 MSTORE DUP6 PUSH1 0x2 DUP6 ADD SLOAD AND PUSH1 0x40 DUP7 ADD SWAP1 DUP2 MSTORE DUP7 PUSH1 0x3 DUP7 ADD SLOAD SWAP2 PUSH1 0x60 DUP9 ADD SWAP3 DUP4 MSTORE DUP2 PUSH2 0xF36 PUSH1 0x4 DUP10 ADD PUSH2 0x127C JUMP JUMPDEST SWAP5 PUSH1 0x80 DUP11 ADD SWAP6 DUP7 MSTORE PUSH1 0x6 PUSH1 0x5 DUP11 ADD SLOAD SWAP10 PUSH1 0xA0 DUP13 ADD SWAP11 DUP12 MSTORE ADD SLOAD SWAP8 PUSH1 0xC0 DUP12 ADD SWAP9 DUP10 MSTORE PUSH1 0x40 MLOAD SWAP12 DUP13 SWAP12 DUP3 DUP14 MSTORE MLOAD AND SWAP1 DUP12 ADD MSTORE MLOAD AND PUSH1 0x40 DUP10 ADD MSTORE MLOAD AND PUSH1 0x60 DUP8 ADD MSTORE MLOAD PUSH1 0x80 DUP7 ADD MSTORE MLOAD PUSH1 0xE0 PUSH1 0xA0 DUP7 ADD MSTORE PUSH2 0x100 DUP6 ADD SWAP1 PUSH2 0x1322 JUMP JUMPDEST SWAP2 MLOAD PUSH1 0xC0 DUP5 ADD MSTORE MLOAD PUSH1 0xE0 DUP4 ADD MSTORE SUB SWAP1 RETURN JUMPDEST POP CALLVALUE PUSH2 0x1D0 JUMPI PUSH1 0x20 CALLDATASIZE PUSH1 0x3 NOT ADD SLT PUSH2 0x1D0 JUMPI PUSH1 0x1 PUSH1 0x1 PUSH1 0xA0 SHL SUB SWAP1 PUSH1 0x40 SWAP1 DUP3 PUSH2 0xFC5 PUSH2 0x11AF JUMP JUMPDEST AND DUP2 MSTORE PUSH1 0x2 PUSH1 0x20 MSTORE KECCAK256 DUP2 DUP2 SLOAD AND SWAP1 DUP3 PUSH1 0x1 DUP3 ADD SLOAD AND SWAP3 PUSH1 0x2 DUP3 ADD SLOAD AND PUSH2 0x1029 PUSH1 0x3 DUP4 ADD SLOAD PUSH2 0xFF5 PUSH1 0x4 DUP6 ADD PUSH2 0x127C JUMP JUMPDEST SWAP1 PUSH1 0x6 PUSH1 0x5 DUP7 ADD SLOAD SWAP6 ADD SLOAD SWAP4 PUSH1 0x40 MLOAD SWAP8 DUP9 SWAP8 DUP9 MSTORE PUSH1 0x20 DUP9 ADD MSTORE PUSH1 0x40 DUP8 ADD MSTORE PUSH1 0x60 DUP7 ADD MSTORE PUSH1 0xE0 PUSH1 0x80 DUP7 ADD MSTORE PUSH1 0xE0 DUP6 ADD SWAP1 PUSH2 0x1322 JUMP JUMPDEST SWAP2 PUSH1 0xA0 DUP5 ADD MSTORE PUSH1 0xC0 DUP4 ADD MSTORE SUB SWAP1 RETURN JUMPDEST POP CALLVALUE PUSH2 0x1D0 JUMPI DUP1 PUSH1 0x3 NOT CALLDATASIZE ADD SLT PUSH2 0x1D0 JUMPI PUSH1 0x20 PUSH1 0x4 SLOAD PUSH1 0x40 MLOAD SWAP1 DUP2 MSTORE RETURN JUMPDEST POP CALLVALUE PUSH2 0x1D0 JUMPI DUP1 PUSH1 0x3 NOT CALLDATASIZE ADD SLT PUSH2 0x1D0 JUMPI PUSH1 0x40 MLOAD DUP1 SWAP2 PUSH1 0x3 SLOAD SWAP1 DUP2 DUP4 MSTORE PUSH1 0x20 DUP1 SWAP4 ADD DUP1 SWAP3 PUSH1 0x3 DUP4 MSTORE DUP5 DUP4 KECCAK256 SWAP1 DUP4 JUMPDEST DUP2 DUP2 LT PUSH2 0x10E1 JUMPI POP POP POP DUP5 PUSH2 0x109A SWAP2 SUB DUP6 PUSH2 0x1259 JUMP JUMPDEST PUSH1 0x40 MLOAD SWAP4 DUP4 DUP6 SWAP5 DUP6 ADD SWAP2 DUP2 DUP7 MSTORE MLOAD DUP1 SWAP3 MSTORE PUSH1 0x40 DUP6 ADD SWAP4 SWAP3 JUMPDEST DUP3 DUP2 LT PUSH2 0x10C1 JUMPI POP POP POP POP SUB SWAP1 RETURN JUMPDEST DUP4 MLOAD PUSH1 0x1 PUSH1 0x1 PUSH1 0xA0 SHL SUB AND DUP6 MSTORE DUP7 SWAP6 POP SWAP4 DUP2 ADD SWAP4 SWAP3 DUP2 ADD SWAP3 PUSH1 0x1 ADD PUSH2 0x10B2 JUMP JUMPDEST DUP3 SLOAD PUSH1 0x1 PUSH1 0x1 PUSH1 0xA0 SHL SUB AND DUP5 MSTORE SWAP3 DUP7 ADD SWAP3 PUSH1 0x1 SWAP3 DUP4 ADD SWAP3 ADD PUSH2 0x1084 JUMP JUMPDEST POP CALLVALUE PUSH2 0x1D0 JUMPI DUP1 PUSH1 0x3 NOT CALLDATASIZE ADD SLT PUSH2 0x1D0 JUMPI PUSH1 0x20 PUSH1 0x5 SLOAD PUSH1 0x40 MLOAD SWAP1 DUP2 MSTORE RETURN JUMPDEST POP CALLVALUE PUSH2 0x1D0 JUMPI PUSH1 0x40 CALLDATASIZE PUSH1 0x3 NOT ADD SLT PUSH2 0x1D0 JUMPI PUSH2 0x1136 PUSH2 0x11AF JUMP JUMPDEST DUP2 PUSH2 0x113F PUSH2 0x11C5 JUMP JUMPDEST SWAP2 PUSH2 0x1148 PUSH2 0x13C0 JUMP JUMPDEST PUSH1 0x1 PUSH1 0x1 PUSH1 0xA0 SHL SUB SWAP1 DUP2 AND DUP3 MSTORE PUSH1 0x2 PUSH1 0x20 MSTORE PUSH1 0x40 DUP3 KECCAK256 PUSH1 0x1 ADD SLOAD DUP2 AND SWAP3 PUSH2 0x1170 DUP5 ISZERO ISZERO PUSH2 0x14E3 JUMP JUMPDEST DUP4 EXTCODESIZE ISZERO PUSH2 0xC7D JUMPI PUSH1 0x24 SWAP1 DUP4 PUSH1 0x40 MLOAD SWAP6 DUP7 SWAP5 DUP6 SWAP4 PUSH4 0xA171283 PUSH1 0xE3 SHL DUP6 MSTORE AND PUSH1 0x4 DUP5 ADD MSTORE GAS CALL DUP1 ISZERO PUSH2 0x1D3 JUMPI PUSH2 0x11A3 JUMPI POP DUP1 RETURN JUMPDEST PUSH2 0x11AC SWAP1 PUSH2 0x1215 JUMP JUMPDEST DUP1 RETURN JUMPDEST PUSH1 0x4 CALLDATALOAD SWAP1 PUSH1 0x1 PUSH1 0x1 PUSH1 0xA0 SHL SUB DUP3 AND DUP3 SUB PUSH2 0xAFE JUMPI JUMP JUMPDEST PUSH1 0x24 CALLDATALOAD SWAP1 PUSH1 0x1 PUSH1 0x1 PUSH1 0xA0 SHL SUB DUP3 AND DUP3 SUB PUSH2 0xAFE JUMPI JUMP JUMPDEST SWAP1 PUSH1 0x1 DUP3 DUP2 SHR SWAP3 AND DUP1 ISZERO PUSH2 0x120B JUMPI JUMPDEST PUSH1 0x20 DUP4 LT EQ PUSH2 0x11F5 JUMPI JUMP JUMPDEST PUSH4 0x4E487B71 PUSH1 0xE0 SHL PUSH1 0x0 MSTORE PUSH1 0x22 PUSH1 0x4 MSTORE PUSH1 0x24 PUSH1 0x0 REVERT JUMPDEST SWAP2 PUSH1 0x7F AND SWAP2 PUSH2 0x11EA JUMP JUMPDEST PUSH1 0x1 PUSH1 0x1 PUSH1 0x40 SHL SUB DUP2 GT PUSH2 0x1228 JUMPI PUSH1 0x40 MSTORE JUMP JUMPDEST PUSH4 0x4E487B71 PUSH1 0xE0 SHL PUSH1 0x0 MSTORE PUSH1 0x41 PUSH1 0x4 MSTORE PUSH1 0x24 PUSH1 0x0 REVERT JUMPDEST PUSH1 0xE0 DUP2 ADD SWAP1 DUP2 LT PUSH1 0x1 PUSH1 0x1 PUSH1 0x40 SHL SUB DUP3 GT OR PUSH2 0x1228 JUMPI PUSH1 0x40 MSTORE JUMP JUMPDEST PUSH1 0x1F SWAP1 SWAP2 ADD PUSH1 0x1F NOT AND DUP2 ADD SWAP1 PUSH1 0x1 PUSH1 0x1 PUSH1 0x40 SHL SUB DUP3 GT SWAP1 DUP3 LT OR PUSH2 0x1228 JUMPI PUSH1 0x40 MSTORE JUMP JUMPDEST SWAP1 PUSH1 0x40 MLOAD SWAP2 DUP3 PUSH1 0x0 DUP3 SLOAD SWAP3 PUSH2 0x1290 DUP5 PUSH2 0x11DB JUMP JUMPDEST SWAP1 DUP2 DUP5 MSTORE PUSH1 0x1 SWAP5 DUP6 DUP2 AND SWAP1 DUP2 PUSH1 0x0 EQ PUSH2 0x12FF JUMPI POP PUSH1 0x1 EQ PUSH2 0x12BC JUMPI JUMPDEST POP POP PUSH2 0x12BA SWAP3 POP SUB DUP4 PUSH2 0x1259 JUMP JUMPDEST JUMP JUMPDEST SWAP1 SWAP4 SWAP2 POP PUSH1 0x0 MSTORE PUSH1 0x20 SWAP1 DUP2 PUSH1 0x0 KECCAK256 SWAP4 PUSH1 0x0 SWAP2 JUMPDEST DUP2 DUP4 LT PUSH2 0x12E7 JUMPI POP POP PUSH2 0x12BA SWAP4 POP DUP3 ADD ADD CODESIZE DUP1 PUSH2 0x12AC JUMP JUMPDEST DUP6 SLOAD DUP9 DUP5 ADD DUP6 ADD MSTORE SWAP5 DUP6 ADD SWAP5 DUP8 SWAP5 POP SWAP2 DUP4 ADD SWAP2 PUSH2 0x12CF JUMP JUMPDEST SWAP2 POP POP PUSH2 0x12BA SWAP5 POP PUSH1 0x20 SWAP3 POP PUSH1 0xFF NOT AND DUP3 DUP5 ADD MSTORE ISZERO ISZERO PUSH1 0x5 SHL DUP3 ADD ADD CODESIZE DUP1 PUSH2 0x12AC JUMP JUMPDEST SWAP2 SWAP1 DUP3 MLOAD SWAP3 DUP4 DUP3 MSTORE PUSH1 0x0 JUMPDEST DUP5 DUP2 LT PUSH2 0x134E JUMPI POP POP DUP3 PUSH1 0x0 PUSH1 0x20 DUP1 SWAP5 SWAP6 DUP5 ADD ADD MSTORE PUSH1 0x1F DUP1 NOT SWAP2 ADD AND ADD ADD SWAP1 JUMP JUMPDEST PUSH1 0x20 DUP2 DUP4 ADD DUP2 ADD MLOAD DUP5 DUP4 ADD DUP3 ADD MSTORE ADD PUSH2 0x132D JUMP JUMPDEST PUSH1 0x3 SLOAD DUP2 LT ISZERO PUSH2 0x137D JUMPI PUSH1 0x3 PUSH1 0x0 MSTORE PUSH1 0x20 PUSH1 0x0 KECCAK256 ADD SWAP1 PUSH1 0x0 SWAP1 JUMP JUMPDEST PUSH4 0x4E487B71 PUSH1 0xE0 SHL PUSH1 0x0 MSTORE PUSH1 0x32 PUSH1 0x4 MSTORE PUSH1 0x24 PUSH1 0x0 REVERT JUMPDEST SWAP2 DUP2 PUSH1 0x1F DUP5 ADD SLT ISZERO PUSH2 0xAFE JUMPI DUP3 CALLDATALOAD SWAP2 PUSH1 0x1 PUSH1 0x1 PUSH1 0x40 SHL SUB DUP4 GT PUSH2 0xAFE JUMPI PUSH1 0x20 DUP4 DUP2 DUP7 ADD SWAP6 ADD ADD GT PUSH2 0xAFE JUMPI JUMP JUMPDEST PUSH1 0x0 SLOAD PUSH1 0x1 PUSH1 0x1 PUSH1 0xA0 SHL SUB AND CALLER SUB PUSH2 0x13D4 JUMPI JUMP JUMPDEST PUSH1 0x40 MLOAD PUSH4 0x118CDAA7 PUSH1 0xE0 SHL DUP2 MSTORE CALLER PUSH1 0x4 DUP3 ADD MSTORE PUSH1 0x24 SWAP1 REVERT JUMPDEST MLOAD SWAP1 PUSH1 0x1 PUSH1 0x1 PUSH1 0xA0 SHL SUB DUP3 AND DUP3 SUB PUSH2 0xAFE JUMPI JUMP JUMPDEST SWAP1 DUP1 PUSH1 0x20 SWAP4 SWAP3 DUP2 DUP5 MSTORE DUP5 DUP5 ADD CALLDATACOPY PUSH1 0x0 DUP3 DUP3 ADD DUP5 ADD MSTORE PUSH1 0x1F ADD PUSH1 0x1F NOT AND ADD ADD SWAP1 JUMP JUMPDEST PUSH1 0x1 PUSH1 0x1 PUSH1 0x40 SHL SUB DUP2 GT PUSH2 0x1228 JUMPI PUSH1 0x1F ADD PUSH1 0x1F NOT AND PUSH1 0x20 ADD SWAP1 JUMP JUMPDEST SWAP1 PUSH1 0x1F DUP2 GT PUSH2 0x144A JUMPI POP POP POP JUMP JUMPDEST PUSH1 0x0 SWAP2 DUP3 MSTORE PUSH1 0x20 DUP3 KECCAK256 SWAP1 PUSH1 0x20 PUSH1 0x1F DUP6 ADD PUSH1 0x5 SHR DUP4 ADD SWAP5 LT PUSH2 0x1486 JUMPI JUMPDEST PUSH1 0x1F ADD PUSH1 0x5 SHR ADD SWAP2 JUMPDEST DUP3 DUP2 LT PUSH2 0x147B JUMPI POP POP POP JUMP JUMPDEST DUP2 DUP2 SSTORE PUSH1 0x1 ADD PUSH2 0x146F JUMP JUMPDEST SWAP1 SWAP3 POP DUP3 SWAP1 PUSH2 0x1466 JUMP JUMPDEST PUSH1 0x0 DUP1 MLOAD PUSH1 0x20 PUSH2 0x1560 DUP4 CODECOPY DUP2 MLOAD SWAP2 MSTORE PUSH1 0x2 DUP2 SLOAD EQ PUSH2 0x14AE JUMPI PUSH1 0x2 SWAP1 SSTORE JUMP JUMPDEST PUSH1 0x40 MLOAD PUSH4 0x3EE5AEB5 PUSH1 0xE0 SHL DUP2 MSTORE PUSH1 0x4 SWAP1 REVERT JUMPDEST SWAP2 SWAP1 DUP3 ADD DUP1 SWAP3 GT PUSH2 0x14CD JUMPI JUMP JUMPDEST PUSH4 0x4E487B71 PUSH1 0xE0 SHL PUSH1 0x0 MSTORE PUSH1 0x11 PUSH1 0x4 MSTORE PUSH1 0x24 PUSH1 0x0 REVERT JUMPDEST ISZERO PUSH2 0x14EA JUMPI JUMP JUMPDEST PUSH1 0x40 MLOAD PUSH3 0x461BCD PUSH1 0xE5 SHL DUP2 MSTORE PUSH1 0x20 PUSH1 0x4 DUP3 ADD MSTORE PUSH1 0xD PUSH1 0x24 DUP3 ADD MSTORE PUSH13 0x2AB735B737BBB7103A37B5B2B7 PUSH1 0x99 SHL PUSH1 0x44 DUP3 ADD MSTORE PUSH1 0x64 SWAP1 REVERT INVALID KECCAK256 SGT JUMPI 0xC CALLVALUE GASPRICE 0xF8 0xAB EQ 0xA9 PUSH24 0x8150E381A0FDA34ED6368127A95FD5E7210CBEC5BF8BE007 SWAP13 MSTORE8 AND MSIZE EQ SGT PREVRANDAO 0xCD 0x1F 0xD0 LOG4 CALLCODE DUP5 NOT 0x49 PUSH32 0x9722A3DAAFE3B4186F6B6457E09B779B17422D0DF92223018B32B4D1FA46E071 PUSH19 0x3D6817E2486D003BECC55F00A2646970667358 0x22 SLT KECCAK256 0xF PUSH29 0x5AE52F5E69268D761B8263F91D3C1458540137A7841CFD7C4FE204ECD0 DUP5 PUSH5 0x736F6C6343 STOP ADDMOD EQ STOP CALLER "},"methodIdentifiers":{"accumulatedPlatformFees()":"342f2df3","allTokens(uint256)":"634282af","allTokensLength()":"dbb80e42","createToken(string,string,string)":"94aed7d0","deployer()":"d5f39488","forceCloseCurve(address,address)":"0668c0d0","getAllTokens()":"2a5c792a","getRecord(address)":"617fba04","owner()":"8da5cb5b","records(address)":"469e9067","renounceOwnership()":"715018a6","setDeployer(address)":"96214735","setTokenExcluded(address,address,bool)":"71af3101","setTokenKeeper(address,address)":"ff6151c7","setTokenSwapThreshold(address,uint256)":"69496d96","totalPlatformFeesWithdrawn()":"1e0db440","transferOwnership(address)":"f2fde38b","uniswapRouter()":"735de9f7","updateMetadataURI(address,string)":"fabb2c17","withdrawPlatformFees(address)":"ec3889b5"}}}}}