{"contracts/mocks/MockUniswapV2.sol":{"MockWETH":{"abi":[{"inputs":[],"name":"decimals","outputs":[{"internalType":"uint8","name":"","type":"uint8"}],"stateMutability":"view","type":"function"},{"inputs":[],"name":"deposit","outputs":[],"stateMutability":"payable","type":"function"},{"inputs":[],"name":"name","outputs":[{"internalType":"string","name":"","type":"string"}],"stateMutability":"view","type":"function"},{"inputs":[],"name":"symbol","outputs":[{"internalType":"string","name":"","type":"string"}],"stateMutability":"view","type":"function"},{"inputs":[{"internalType":"uint256","name":"","type":"uint256"}],"name":"withdraw","outputs":[],"stateMutability":"nonpayable","type":"function"}],"evm":{"bytecode":{"linkReferences":{},"object":"6080604052346100cb57600061001581546100d0565b601f81116100a1575b50601a6c2bb930b83832b21022ba3432b960991b01815560019061004282546100d0565b90601f8211610075575b6008630ae8aa8960e31b0183556002805460ff191660121790556040516102de908161010b8239f35b82815282601f60208320930160051c8301925b83811061009657505061004c565b828155018390610088565b818052601f60208320910160051c8101905b8181106100c0575061001e565b8281556001016100b3565b600080fd5b90600182811c92168015610100575b60208310146100ea57565b634e487b7160e01b600052602260045260246000fd5b91607f16916100df56fe608080604052600436101561001357600080fd5b600090813560e01c90816306fdde03146101a3575080632e1a7d4d1461018e578063313ce5671461016d57806395d89b41146100695763d0e30db01461005857600080fd5b806003193601126100665780f35b80fd5b503461006657806003193601126100665760405181600180549081811c90808316928315610163575b602093848410811461014f5783875290811561013357506001146100fb575b505050819003601f01601f19168101916001600160401b038311828410176100e757506100e38291826040528261025f565b0390f35b634e487b7160e01b81526041600452602490fd5b809293508552828520918386935b83851061011f57505050508201013880806100b1565b805487860183015293019284908201610109565b60ff1916868501525050151560051b83010190503880806100b1565b634e487b7160e01b88526022600452602488fd5b91607f1691610092565b5034610066578060031936011261006657602060ff60025416604051908152f35b50346100665760203660031901126100665780f35b90503461025b578160031936011261025b57818254600181811c90808316928315610251575b602093848410811461014f57838752908115610133575060011461021957505050819003601f01601f19168101916001600160401b038311828410176100e757506100e38291826040528261025f565b919250848052828520918386935b83851061023d57505050508201013880806100b1565b805487860183015293019284908201610227565b91607f16916101c9565b5080fd5b6020808252825181830181905290939260005b82811061029457505060409293506000838284010152601f8019910116010190565b81810186015184820160400152850161027256fea2646970667358221220084e078db39cb4e60118333fe0e0536782ca0faec8fd32e1a8801723654dd73e64736f6c63430008140033","opcodes":"PUSH1 0x80 PUSH1 0x40 MSTORE CALLVALUE PUSH2 0xCB JUMPI PUSH1 0x0 PUSH2 0x15 DUP2 SLOAD PUSH2 0xD0 JUMP JUMPDEST PUSH1 0x1F DUP2 GT PUSH2 0xA1 JUMPI JUMPDEST POP PUSH1 0x1A PUSH13 0x2BB930B83832B21022BA3432B9 PUSH1 0x99 SHL ADD DUP2 SSTORE PUSH1 0x1 SWAP1 PUSH2 0x42 DUP3 SLOAD PUSH2 0xD0 JUMP JUMPDEST SWAP1 PUSH1 0x1F DUP3 GT PUSH2 0x75 JUMPI JUMPDEST PUSH1 0x8 PUSH4 0xAE8AA89 PUSH1 0xE3 SHL ADD DUP4 SSTORE PUSH1 0x2 DUP1 SLOAD PUSH1 0xFF NOT AND PUSH1 0x12 OR SWAP1 SSTORE PUSH1 0x40 MLOAD PUSH2 0x2DE SWAP1 DUP2 PUSH2 0x10B DUP3 CODECOPY RETURN JUMPDEST DUP3 DUP2 MSTORE DUP3 PUSH1 0x1F PUSH1 0x20 DUP4 KECCAK256 SWAP4 ADD PUSH1 0x5 SHR DUP4 ADD SWAP3 JUMPDEST DUP4 DUP2 LT PUSH2 0x96 JUMPI POP POP PUSH2 0x4C JUMP JUMPDEST DUP3 DUP2 SSTORE ADD DUP4 SWAP1 PUSH2 0x88 JUMP JUMPDEST DUP2 DUP1 MSTORE PUSH1 0x1F PUSH1 0x20 DUP4 KECCAK256 SWAP2 ADD PUSH1 0x5 SHR DUP2 ADD SWAP1 JUMPDEST DUP2 DUP2 LT PUSH2 0xC0 JUMPI POP PUSH2 0x1E JUMP JUMPDEST DUP3 DUP2 SSTORE PUSH1 0x1 ADD PUSH2 0xB3 JUMP JUMPDEST PUSH1 0x0 DUP1 REVERT JUMPDEST SWAP1 PUSH1 0x1 DUP3 DUP2 SHR SWAP3 AND DUP1 ISZERO PUSH2 0x100 JUMPI JUMPDEST PUSH1 0x20 DUP4 LT EQ PUSH2 0xEA JUMPI JUMP JUMPDEST PUSH4 0x4E487B71 PUSH1 0xE0 SHL PUSH1 0x0 MSTORE PUSH1 0x22 PUSH1 0x4 MSTORE PUSH1 0x24 PUSH1 0x0 REVERT JUMPDEST SWAP2 PUSH1 0x7F AND SWAP2 PUSH2 0xDF JUMP INVALID PUSH1 0x80 DUP1 PUSH1 0x40 MSTORE PUSH1 0x4 CALLDATASIZE LT ISZERO PUSH2 0x13 JUMPI PUSH1 0x0 DUP1 REVERT JUMPDEST PUSH1 0x0 SWAP1 DUP2 CALLDATALOAD PUSH1 0xE0 SHR SWAP1 DUP2 PUSH4 0x6FDDE03 EQ PUSH2 0x1A3 JUMPI POP DUP1 PUSH4 0x2E1A7D4D EQ PUSH2 0x18E JUMPI DUP1 PUSH4 0x313CE567 EQ PUSH2 0x16D JUMPI DUP1 PUSH4 0x95D89B41 EQ PUSH2 0x69 JUMPI PUSH4 0xD0E30DB0 EQ PUSH2 0x58 JUMPI PUSH1 0x0 DUP1 REVERT JUMPDEST DUP1 PUSH1 0x3 NOT CALLDATASIZE ADD SLT PUSH2 0x66 JUMPI DUP1 RETURN JUMPDEST DUP1 REVERT JUMPDEST POP CALLVALUE PUSH2 0x66 JUMPI DUP1 PUSH1 0x3 NOT CALLDATASIZE ADD SLT PUSH2 0x66 JUMPI PUSH1 0x40 MLOAD DUP2 PUSH1 0x1 DUP1 SLOAD SWAP1 DUP2 DUP2 SHR SWAP1 DUP1 DUP4 AND SWAP3 DUP4 ISZERO PUSH2 0x163 JUMPI JUMPDEST PUSH1 0x20 SWAP4 DUP5 DUP5 LT DUP2 EQ PUSH2 0x14F JUMPI DUP4 DUP8 MSTORE SWAP1 DUP2 ISZERO PUSH2 0x133 JUMPI POP PUSH1 0x1 EQ PUSH2 0xFB JUMPI JUMPDEST POP POP POP DUP2 SWAP1 SUB PUSH1 0x1F ADD PUSH1 0x1F NOT AND DUP2 ADD SWAP2 PUSH1 0x1 PUSH1 0x1 PUSH1 0x40 SHL SUB DUP4 GT DUP3 DUP5 LT OR PUSH2 0xE7 JUMPI POP PUSH2 0xE3 DUP3 SWAP2 DUP3 PUSH1 0x40 MSTORE DUP3 PUSH2 0x25F JUMP JUMPDEST SUB SWAP1 RETURN JUMPDEST PUSH4 0x4E487B71 PUSH1 0xE0 SHL DUP2 MSTORE PUSH1 0x41 PUSH1 0x4 MSTORE PUSH1 0x24 SWAP1 REVERT JUMPDEST DUP1 SWAP3 SWAP4 POP DUP6 MSTORE DUP3 DUP6 KECCAK256 SWAP2 DUP4 DUP7 SWAP4 JUMPDEST DUP4 DUP6 LT PUSH2 0x11F JUMPI POP POP POP POP DUP3 ADD ADD CODESIZE DUP1 DUP1 PUSH2 0xB1 JUMP JUMPDEST DUP1 SLOAD DUP8 DUP7 ADD DUP4 ADD MSTORE SWAP4 ADD SWAP3 DUP5 SWAP1 DUP3 ADD PUSH2 0x109 JUMP JUMPDEST PUSH1 0xFF NOT AND DUP7 DUP6 ADD MSTORE POP POP ISZERO ISZERO PUSH1 0x5 SHL DUP4 ADD ADD SWAP1 POP CODESIZE DUP1 DUP1 PUSH2 0xB1 JUMP JUMPDEST PUSH4 0x4E487B71 PUSH1 0xE0 SHL DUP9 MSTORE PUSH1 0x22 PUSH1 0x4 MSTORE PUSH1 0x24 DUP9 REVERT JUMPDEST SWAP2 PUSH1 0x7F AND SWAP2 PUSH2 0x92 JUMP JUMPDEST POP CALLVALUE PUSH2 0x66 JUMPI DUP1 PUSH1 0x3 NOT CALLDATASIZE ADD SLT PUSH2 0x66 JUMPI PUSH1 0x20 PUSH1 0xFF PUSH1 0x2 SLOAD AND PUSH1 0x40 MLOAD SWAP1 DUP2 MSTORE RETURN JUMPDEST POP CALLVALUE PUSH2 0x66 JUMPI PUSH1 0x20 CALLDATASIZE PUSH1 0x3 NOT ADD SLT PUSH2 0x66 JUMPI DUP1 RETURN JUMPDEST SWAP1 POP CALLVALUE PUSH2 0x25B JUMPI DUP2 PUSH1 0x3 NOT CALLDATASIZE ADD SLT PUSH2 0x25B JUMPI DUP2 DUP3 SLOAD PUSH1 0x1 DUP2 DUP2 SHR SWAP1 DUP1 DUP4 AND SWAP3 DUP4 ISZERO PUSH2 0x251 JUMPI JUMPDEST PUSH1 0x20 SWAP4 DUP5 DUP5 LT DUP2 EQ PUSH2 0x14F JUMPI DUP4 DUP8 MSTORE SWAP1 DUP2 ISZERO PUSH2 0x133 JUMPI POP PUSH1 0x1 EQ PUSH2 0x219 JUMPI POP POP POP DUP2 SWAP1 SUB PUSH1 0x1F ADD PUSH1 0x1F NOT AND DUP2 ADD SWAP2 PUSH1 0x1 PUSH1 0x1 PUSH1 0x40 SHL SUB DUP4 GT DUP3 DUP5 LT OR PUSH2 0xE7 JUMPI POP PUSH2 0xE3 DUP3 SWAP2 DUP3 PUSH1 0x40 MSTORE DUP3 PUSH2 0x25F JUMP JUMPDEST SWAP2 SWAP3 POP DUP5 DUP1 MSTORE DUP3 DUP6 KECCAK256 SWAP2 DUP4 DUP7 SWAP4 JUMPDEST DUP4 DUP6 LT PUSH2 0x23D JUMPI POP POP POP POP DUP3 ADD ADD CODESIZE DUP1 DUP1 PUSH2 0xB1 JUMP JUMPDEST DUP1 SLOAD DUP8 DUP7 ADD DUP4 ADD MSTORE SWAP4 ADD SWAP3 DUP5 SWAP1 DUP3 ADD PUSH2 0x227 JUMP JUMPDEST SWAP2 PUSH1 0x7F AND SWAP2 PUSH2 0x1C9 JUMP JUMPDEST POP DUP1 REVERT JUMPDEST PUSH1 0x20 DUP1 DUP3 MSTORE DUP3 MLOAD DUP2 DUP4 ADD DUP2 SWAP1 MSTORE SWAP1 SWAP4 SWAP3 PUSH1 0x0 JUMPDEST DUP3 DUP2 LT PUSH2 0x294 JUMPI POP POP PUSH1 0x40 SWAP3 SWAP4 POP PUSH1 0x0 DUP4 DUP3 DUP5 ADD ADD MSTORE PUSH1 0x1F DUP1 NOT SWAP2 ADD AND ADD ADD SWAP1 JUMP JUMPDEST DUP2 DUP2 ADD DUP7 ADD MLOAD DUP5 DUP3 ADD PUSH1 0x40 ADD MSTORE DUP6 ADD PUSH2 0x272 JUMP INVALID LOG2 PUSH5 0x6970667358 0x22 SLT KECCAK256 ADDMOD 0x4E SMOD DUP14 0xB3 SWAP13 0xB4 0xE6 ADD XOR CALLER EXTCODEHASH 0xE0 0xE0 MSTORE8 PUSH8 0x82CA0FAEC8FD32E1 0xA8 DUP1 OR 0x23 PUSH6 0x4DD73E64736F PUSH13 0x63430008140033000000000000 "},"methodIdentifiers":{"decimals()":"313ce567","deposit()":"d0e30db0","name()":"06fdde03","symbol()":"95d89b41","withdraw(uint256)":"2e1a7d4d"}}}}}