{"contracts/mocks/MockUniswapV2.sol":{"MockUniswapV2Router":{"abi":[{"inputs":[{"internalType":"address","name":"factoryAddr","type":"address"},{"internalType":"address","name":"wethAddr","type":"address"}],"stateMutability":"nonpayable","type":"constructor"},{"inputs":[],"name":"WETH","outputs":[{"internalType":"address","name":"","type":"address"}],"stateMutability":"view","type":"function"},{"inputs":[],"name":"_factory","outputs":[{"internalType":"address","name":"","type":"address"}],"stateMutability":"view","type":"function"},{"inputs":[],"name":"_weth","outputs":[{"internalType":"address","name":"","type":"address"}],"stateMutability":"view","type":"function"},{"inputs":[{"internalType":"address","name":"token","type":"address"},{"internalType":"uint256","name":"amountTokenDesired","type":"uint256"},{"internalType":"uint256","name":"","type":"uint256"},{"internalType":"uint256","name":"","type":"uint256"},{"internalType":"address","name":"to","type":"address"},{"internalType":"uint256","name":"","type":"uint256"}],"name":"addLiquidityETH","outputs":[{"internalType":"uint256","name":"amountToken","type":"uint256"},{"internalType":"uint256","name":"amountETH","type":"uint256"},{"internalType":"uint256","name":"liquidity","type":"uint256"}],"stateMutability":"payable","type":"function"},{"inputs":[],"name":"factory","outputs":[{"internalType":"address","name":"","type":"address"}],"stateMutability":"view","type":"function"},{"inputs":[{"internalType":"uint256","name":"amountIn","type":"uint256"},{"internalType":"uint256","name":"","type":"uint256"},{"internalType":"address[]","name":"path","type":"address[]"},{"internalType":"address","name":"to","type":"address"},{"internalType":"uint256","name":"","type":"uint256"}],"name":"swapExactTokensForETHSupportingFeeOnTransferTokens","outputs":[],"stateMutability":"nonpayable","type":"function"},{"stateMutability":"payable","type":"receive"}],"evm":{"bytecode":{"linkReferences":{},"object":"60c03461008757601f6106a038819003918201601f19168301916001600160401b0383118484101761008c57808492604094855283398101031261008757610052602061004b836100a2565b92016100a2565b9060805260a0526040516105e990816100b7823960805181818160eb01526104d8015260a05181818161010e015261048e0152f35b600080fd5b634e487b7160e01b600052604160045260246000fd5b51906001600160a01b03821682036100875756fe608060409080825260049182361015610023575b505050361561002157600080fd5b005b600091823560e01c908163791ac947146102ee57508063a1764595146102e9578063ad5c4648146102e9578063c45a0155146102e4578063c5cc6b6a146102e45763f305d719036100135760c03660031901126102e0576001600160a01b0391833591908383168084036102e05760243594608435918183168093036102dc57908693929188865180926323b872dd60e01b82528187816100cd60209b8c97309033908501610558565b03925af18015610269576102af575b503487019586881161029c57817f000000000000000000000000000000000000000000000000000000000000000016907f000000000000000000000000000000000000000000000000000000000000000091818784938d61014e8c51978893849363e6a4390560e01b85528401610599565b0381855afa9384156102925790889392918895610273575b50858516156101ff575b505050501690813b156101fb57829160448392875195869384926340c10f1960e01b84528d8401528a60248401525af180156101ef576101c0575b50506060945081519384523490840152820152f35b6001600160401b0382116101dc575060609550825238806101ab565b634e487b7160e01b815260418752602490fd5b508351903d90823e3d90fd5b8280fd5b6102209450878d8b51968795869485936364e329cb60e11b85528401610599565b03925af190811561026957849161023c575b5084388080610170565b61025c9150853d8711610262575b6102548183610507565b81019061057a565b38610232565b503d61024a565b86513d86823e3d90fd5b61028b919550843d8611610262576102548183610507565b9338610166565b89513d89823e3d90fd5b634e487b7160e01b845260118952602484fd5b6102ce90853d87116102d5575b6102c68183610507565b810190610540565b50386100dc565b503d6102bc565b8380fd5b5080fd5b6104c2565b610478565b91849150346102dc5760a03660031901126102dc578135926001600160401b0390604435908282116104745736602383011215610474578185013590838211610470573660248360051b85010111610470576001600160a01b036064358181169491939085900361046c5715610459579060248994939201359182168092036102dc57868189936323b872dd60e01b825281878161039560209e8f97309033908501610558565b03925af180156102695792612710859493859493859461043c575b500490478211610434575b5af1903d1561042e573d90811161041b578251906103e2601f8201601f1916870183610507565b815285853d92013e5b156103f4578380f35b60649350519162461bcd60e51b8352818301526024820152631cd95b9960e21b6044820152fd5b634e487b7160e01b865260418452602486fd5b506103eb565b4791506103bb565b610452908c8d3d106102d5576102c68183610507565b508c6103b0565b634e487b7160e01b895260328752602489fd5b8980fd5b8780fd5b8680fd5b346104bd5760003660031901126104bd576040517f00000000000000000000000000000000000000000000000000000000000000006001600160a01b03168152602090f35b600080fd5b346104bd5760003660031901126104bd576040517f00000000000000000000000000000000000000000000000000000000000000006001600160a01b03168152602090f35b601f909101601f19168101906001600160401b0382119082101761052a57604052565b634e487b7160e01b600052604160045260246000fd5b908160209103126104bd575180151581036104bd5790565b6001600160a01b03918216815291166020820152604081019190915260600190565b908160209103126104bd57516001600160a01b03811681036104bd5790565b6001600160a01b039182168152911660208201526040019056fea264697066735822122043ed6bc925ca68e16e47d1e99ba426930067f6f5b5d8e39a66051f05c44491aa64736f6c63430008140033","opcodes":"PUSH1 0xC0 CALLVALUE PUSH2 0x87 JUMPI PUSH1 0x1F PUSH2 0x6A0 CODESIZE DUP2 SWAP1 SUB SWAP2 DUP3 ADD PUSH1 0x1F NOT AND DUP4 ADD SWAP2 PUSH1 0x1 PUSH1 0x1 PUSH1 0x40 SHL SUB DUP4 GT DUP5 DUP5 LT OR PUSH2 0x8C JUMPI DUP1 DUP5 SWAP3 PUSH1 0x40 SWAP5 DUP6 MSTORE DUP4 CODECOPY DUP2 ADD SUB SLT PUSH2 0x87 JUMPI PUSH2 0x52 PUSH1 0x20 PUSH2 0x4B DUP4 PUSH2 0xA2 JUMP JUMPDEST SWAP3 ADD PUSH2 0xA2 JUMP JUMPDEST SWAP1 PUSH1 0x80 MSTORE PUSH1 0xA0 MSTORE PUSH1 0x40 MLOAD PUSH2 0x5E9 SWAP1 DUP2 PUSH2 0xB7 DUP3 CODECOPY PUSH1 0x80 MLOAD DUP2 DUP2 DUP2 PUSH1 0xEB ADD MSTORE PUSH2 0x4D8 ADD MSTORE PUSH1 0xA0 MLOAD DUP2 DUP2 DUP2 PUSH2 0x10E ADD MSTORE PUSH2 0x48E ADD MSTORE RETURN JUMPDEST PUSH1 0x0 DUP1 REVERT JUMPDEST PUSH4 0x4E487B71 PUSH1 0xE0 SHL PUSH1 0x0 MSTORE PUSH1 0x41 PUSH1 0x4 MSTORE PUSH1 0x24 PUSH1 0x0 REVERT JUMPDEST MLOAD SWAP1 PUSH1 0x1 PUSH1 0x1 PUSH1 0xA0 SHL SUB DUP3 AND DUP3 SUB PUSH2 0x87 JUMPI JUMP INVALID PUSH1 0x80 PUSH1 0x40 SWAP1 DUP1 DUP3 MSTORE PUSH1 0x4 SWAP2 DUP3 CALLDATASIZE LT ISZERO PUSH2 0x23 JUMPI JUMPDEST POP POP POP CALLDATASIZE ISZERO PUSH2 0x21 JUMPI PUSH1 0x0 DUP1 REVERT JUMPDEST STOP JUMPDEST PUSH1 0x0 SWAP2 DUP3 CALLDATALOAD PUSH1 0xE0 SHR SWAP1 DUP2 PUSH4 0x791AC947 EQ PUSH2 0x2EE JUMPI POP DUP1 PUSH4 0xA1764595 EQ PUSH2 0x2E9 JUMPI DUP1 PUSH4 0xAD5C4648 EQ PUSH2 0x2E9 JUMPI DUP1 PUSH4 0xC45A0155 EQ PUSH2 0x2E4 JUMPI DUP1 PUSH4 0xC5CC6B6A EQ PUSH2 0x2E4 JUMPI PUSH4 0xF305D719 SUB PUSH2 0x13 JUMPI PUSH1 0xC0 CALLDATASIZE PUSH1 0x3 NOT ADD SLT PUSH2 0x2E0 JUMPI PUSH1 0x1 PUSH1 0x1 PUSH1 0xA0 SHL SUB SWAP2 DUP4 CALLDATALOAD SWAP2 SWAP1 DUP4 DUP4 AND DUP1 DUP5 SUB PUSH2 0x2E0 JUMPI PUSH1 0x24 CALLDATALOAD SWAP5 PUSH1 0x84 CALLDATALOAD SWAP2 DUP2 DUP4 AND DUP1 SWAP4 SUB PUSH2 0x2DC JUMPI SWAP1 DUP7 SWAP4 SWAP3 SWAP2 DUP9 DUP7 MLOAD DUP1 SWAP3 PUSH4 0x23B872DD PUSH1 0xE0 SHL DUP3 MSTORE DUP2 DUP8 DUP2 PUSH2 0xCD PUSH1 0x20 SWAP12 DUP13 SWAP8 ADDRESS SWAP1 CALLER SWAP1 DUP6 ADD PUSH2 0x558 JUMP JUMPDEST SUB SWAP3 GAS CALL DUP1 ISZERO PUSH2 0x269 JUMPI PUSH2 0x2AF JUMPI JUMPDEST POP CALLVALUE DUP8 ADD SWAP6 DUP7 DUP9 GT PUSH2 0x29C JUMPI DUP2 PUSH32 0x0 AND SWAP1 PUSH32 0x0 SWAP2 DUP2 DUP8 DUP5 SWAP4 DUP14 PUSH2 0x14E DUP13 MLOAD SWAP8 DUP9 SWAP4 DUP5 SWAP4 PUSH4 0xE6A43905 PUSH1 0xE0 SHL DUP6 MSTORE DUP5 ADD PUSH2 0x599 JUMP JUMPDEST SUB DUP2 DUP6 GAS STATICCALL SWAP4 DUP5 ISZERO PUSH2 0x292 JUMPI SWAP1 DUP9 SWAP4 SWAP3 SWAP2 DUP9 SWAP6 PUSH2 0x273 JUMPI JUMPDEST POP DUP6 DUP6 AND ISZERO PUSH2 0x1FF JUMPI JUMPDEST POP POP POP POP AND SWAP1 DUP2 EXTCODESIZE ISZERO PUSH2 0x1FB JUMPI DUP3 SWAP2 PUSH1 0x44 DUP4 SWAP3 DUP8 MLOAD SWAP6 DUP7 SWAP4 DUP5 SWAP3 PUSH4 0x40C10F19 PUSH1 0xE0 SHL DUP5 MSTORE DUP14 DUP5 ADD MSTORE DUP11 PUSH1 0x24 DUP5 ADD MSTORE GAS CALL DUP1 ISZERO PUSH2 0x1EF JUMPI PUSH2 0x1C0 JUMPI JUMPDEST POP POP PUSH1 0x60 SWAP5 POP DUP2 MLOAD SWAP4 DUP5 MSTORE CALLVALUE SWAP1 DUP5 ADD MSTORE DUP3 ADD MSTORE RETURN JUMPDEST PUSH1 0x1 PUSH1 0x1 PUSH1 0x40 SHL SUB DUP3 GT PUSH2 0x1DC JUMPI POP PUSH1 0x60 SWAP6 POP DUP3 MSTORE CODESIZE DUP1 PUSH2 0x1AB JUMP JUMPDEST PUSH4 0x4E487B71 PUSH1 0xE0 SHL DUP2 MSTORE PUSH1 0x41 DUP8 MSTORE PUSH1 0x24 SWAP1 REVERT JUMPDEST POP DUP4 MLOAD SWAP1 RETURNDATASIZE SWAP1 DUP3 RETURNDATACOPY RETURNDATASIZE SWAP1 REVERT JUMPDEST DUP3 DUP1 REVERT JUMPDEST PUSH2 0x220 SWAP5 POP DUP8 DUP14 DUP12 MLOAD SWAP7 DUP8 SWAP6 DUP7 SWAP5 DUP6 SWAP4 PUSH4 0x64E329CB PUSH1 0xE1 SHL DUP6 MSTORE DUP5 ADD PUSH2 0x599 JUMP JUMPDEST SUB SWAP3 GAS CALL SWAP1 DUP2 ISZERO PUSH2 0x269 JUMPI DUP5 SWAP2 PUSH2 0x23C JUMPI JUMPDEST POP DUP5 CODESIZE DUP1 DUP1 PUSH2 0x170 JUMP JUMPDEST PUSH2 0x25C SWAP2 POP DUP6 RETURNDATASIZE DUP8 GT PUSH2 0x262 JUMPI JUMPDEST PUSH2 0x254 DUP2 DUP4 PUSH2 0x507 JUMP JUMPDEST DUP2 ADD SWAP1 PUSH2 0x57A JUMP JUMPDEST CODESIZE PUSH2 0x232 JUMP JUMPDEST POP RETURNDATASIZE PUSH2 0x24A JUMP JUMPDEST DUP7 MLOAD RETURNDATASIZE DUP7 DUP3 RETURNDATACOPY RETURNDATASIZE SWAP1 REVERT JUMPDEST PUSH2 0x28B SWAP2 SWAP6 POP DUP5 RETURNDATASIZE DUP7 GT PUSH2 0x262 JUMPI PUSH2 0x254 DUP2 DUP4 PUSH2 0x507 JUMP JUMPDEST SWAP4 CODESIZE PUSH2 0x166 JUMP JUMPDEST DUP10 MLOAD RETURNDATASIZE DUP10 DUP3 RETURNDATACOPY RETURNDATASIZE SWAP1 REVERT JUMPDEST PUSH4 0x4E487B71 PUSH1 0xE0 SHL DUP5 MSTORE PUSH1 0x11 DUP10 MSTORE PUSH1 0x24 DUP5 REVERT JUMPDEST PUSH2 0x2CE SWAP1 DUP6 RETURNDATASIZE DUP8 GT PUSH2 0x2D5 JUMPI JUMPDEST PUSH2 0x2C6 DUP2 DUP4 PUSH2 0x507 JUMP JUMPDEST DUP2 ADD SWAP1 PUSH2 0x540 JUMP JUMPDEST POP CODESIZE PUSH2 0xDC JUMP JUMPDEST POP RETURNDATASIZE PUSH2 0x2BC JUMP JUMPDEST DUP4 DUP1 REVERT JUMPDEST POP DUP1 REVERT JUMPDEST PUSH2 0x4C2 JUMP JUMPDEST PUSH2 0x478 JUMP JUMPDEST SWAP2 DUP5 SWAP2 POP CALLVALUE PUSH2 0x2DC JUMPI PUSH1 0xA0 CALLDATASIZE PUSH1 0x3 NOT ADD SLT PUSH2 0x2DC JUMPI DUP2 CALLDATALOAD SWAP3 PUSH1 0x1 PUSH1 0x1 PUSH1 0x40 SHL SUB SWAP1 PUSH1 0x44 CALLDATALOAD SWAP1 DUP3 DUP3 GT PUSH2 0x474 JUMPI CALLDATASIZE PUSH1 0x23 DUP4 ADD SLT ISZERO PUSH2 0x474 JUMPI DUP2 DUP6 ADD CALLDATALOAD SWAP1 DUP4 DUP3 GT PUSH2 0x470 JUMPI CALLDATASIZE PUSH1 0x24 DUP4 PUSH1 0x5 SHL DUP6 ADD ADD GT PUSH2 0x470 JUMPI PUSH1 0x1 PUSH1 0x1 PUSH1 0xA0 SHL SUB PUSH1 0x64 CALLDATALOAD DUP2 DUP2 AND SWAP5 SWAP2 SWAP4 SWAP1 DUP6 SWAP1 SUB PUSH2 0x46C JUMPI ISZERO PUSH2 0x459 JUMPI SWAP1 PUSH1 0x24 DUP10 SWAP5 SWAP4 SWAP3 ADD CALLDATALOAD SWAP2 DUP3 AND DUP1 SWAP3 SUB PUSH2 0x2DC JUMPI DUP7 DUP2 DUP10 SWAP4 PUSH4 0x23B872DD PUSH1 0xE0 SHL DUP3 MSTORE DUP2 DUP8 DUP2 PUSH2 0x395 PUSH1 0x20 SWAP15 DUP16 SWAP8 ADDRESS SWAP1 CALLER SWAP1 DUP6 ADD PUSH2 0x558 JUMP JUMPDEST SUB SWAP3 GAS CALL DUP1 ISZERO PUSH2 0x269 JUMPI SWAP3 PUSH2 0x2710 DUP6 SWAP5 SWAP4 DUP6 SWAP5 SWAP4 DUP6 SWAP5 PUSH2 0x43C JUMPI JUMPDEST POP DIV SWAP1 SELFBALANCE DUP3 GT PUSH2 0x434 JUMPI JUMPDEST GAS CALL SWAP1 RETURNDATASIZE ISZERO PUSH2 0x42E JUMPI RETURNDATASIZE SWAP1 DUP2 GT PUSH2 0x41B JUMPI DUP3 MLOAD SWAP1 PUSH2 0x3E2 PUSH1 0x1F DUP3 ADD PUSH1 0x1F NOT AND DUP8 ADD DUP4 PUSH2 0x507 JUMP JUMPDEST DUP2 MSTORE DUP6 DUP6 RETURNDATASIZE SWAP3 ADD RETURNDATACOPY JUMPDEST ISZERO PUSH2 0x3F4 JUMPI DUP4 DUP1 RETURN JUMPDEST PUSH1 0x64 SWAP4 POP MLOAD SWAP2 PUSH3 0x461BCD PUSH1 0xE5 SHL DUP4 MSTORE DUP2 DUP4 ADD MSTORE PUSH1 0x24 DUP3 ADD MSTORE PUSH4 0x1CD95B99 PUSH1 0xE2 SHL PUSH1 0x44 DUP3 ADD MSTORE REVERT JUMPDEST PUSH4 0x4E487B71 PUSH1 0xE0 SHL DUP7 MSTORE PUSH1 0x41 DUP5 MSTORE PUSH1 0x24 DUP7 REVERT JUMPDEST POP PUSH2 0x3EB JUMP JUMPDEST SELFBALANCE SWAP2 POP PUSH2 0x3BB JUMP JUMPDEST PUSH2 0x452 SWAP1 DUP13 DUP14 RETURNDATASIZE LT PUSH2 0x2D5 JUMPI PUSH2 0x2C6 DUP2 DUP4 PUSH2 0x507 JUMP JUMPDEST POP DUP13 PUSH2 0x3B0 JUMP JUMPDEST PUSH4 0x4E487B71 PUSH1 0xE0 SHL DUP10 MSTORE PUSH1 0x32 DUP8 MSTORE PUSH1 0x24 DUP10 REVERT JUMPDEST DUP10 DUP1 REVERT JUMPDEST DUP8 DUP1 REVERT JUMPDEST DUP7 DUP1 REVERT JUMPDEST CALLVALUE PUSH2 0x4BD JUMPI PUSH1 0x0 CALLDATASIZE PUSH1 0x3 NOT ADD SLT PUSH2 0x4BD JUMPI PUSH1 0x40 MLOAD PUSH32 0x0 PUSH1 0x1 PUSH1 0x1 PUSH1 0xA0 SHL SUB AND DUP2 MSTORE PUSH1 0x20 SWAP1 RETURN JUMPDEST PUSH1 0x0 DUP1 REVERT JUMPDEST CALLVALUE PUSH2 0x4BD JUMPI PUSH1 0x0 CALLDATASIZE PUSH1 0x3 NOT ADD SLT PUSH2 0x4BD JUMPI PUSH1 0x40 MLOAD PUSH32 0x0 PUSH1 0x1 PUSH1 0x1 PUSH1 0xA0 SHL SUB AND DUP2 MSTORE PUSH1 0x20 SWAP1 RETURN JUMPDEST PUSH1 0x1F SWAP1 SWAP2 ADD PUSH1 0x1F NOT AND DUP2 ADD SWAP1 PUSH1 0x1 PUSH1 0x1 PUSH1 0x40 SHL SUB DUP3 GT SWAP1 DUP3 LT OR PUSH2 0x52A JUMPI PUSH1 0x40 MSTORE JUMP JUMPDEST PUSH4 0x4E487B71 PUSH1 0xE0 SHL PUSH1 0x0 MSTORE PUSH1 0x41 PUSH1 0x4 MSTORE PUSH1 0x24 PUSH1 0x0 REVERT JUMPDEST SWAP1 DUP2 PUSH1 0x20 SWAP2 SUB SLT PUSH2 0x4BD JUMPI MLOAD DUP1 ISZERO ISZERO DUP2 SUB PUSH2 0x4BD JUMPI SWAP1 JUMP JUMPDEST PUSH1 0x1 PUSH1 0x1 PUSH1 0xA0 SHL SUB SWAP2 DUP3 AND DUP2 MSTORE SWAP2 AND PUSH1 0x20 DUP3 ADD MSTORE PUSH1 0x40 DUP2 ADD SWAP2 SWAP1 SWAP2 MSTORE PUSH1 0x60 ADD SWAP1 JUMP JUMPDEST SWAP1 DUP2 PUSH1 0x20 SWAP2 SUB SLT PUSH2 0x4BD JUMPI MLOAD PUSH1 0x1 PUSH1 0x1 PUSH1 0xA0 SHL SUB DUP2 AND DUP2 SUB PUSH2 0x4BD JUMPI SWAP1 JUMP JUMPDEST PUSH1 0x1 PUSH1 0x1 PUSH1 0xA0 SHL SUB SWAP2 DUP3 AND DUP2 MSTORE SWAP2 AND PUSH1 0x20 DUP3 ADD MSTORE PUSH1 0x40 ADD SWAP1 JUMP INVALID LOG2 PUSH5 0x6970667358 0x22 SLT KECCAK256 NUMBER 0xED PUSH12 0xC925CA68E16E47D1E99BA426 SWAP4 STOP PUSH8 0xF6F5B5D8E39A6605 0x1F SDIV 0xC4 PREVRANDAO SWAP2 0xAA PUSH5 0x736F6C6343 STOP ADDMOD EQ STOP CALLER "},"methodIdentifiers":{"WETH()":"ad5c4648","_factory()":"c5cc6b6a","_weth()":"a1764595","addLiquidityETH(address,uint256,uint256,uint256,address,uint256)":"f305d719","factory()":"c45a0155","swapExactTokensForETHSupportingFeeOnTransferTokens(uint256,uint256,address[],address,uint256)":"791ac947"}}}}}