{"contracts/mocks/MockUniswapV2.sol":{"MockUniswapV2Factory":{"abi":[{"inputs":[{"internalType":"address","name":"a","type":"address"},{"internalType":"address","name":"b","type":"address"}],"name":"createPair","outputs":[{"internalType":"address","name":"","type":"address"}],"stateMutability":"nonpayable","type":"function"},{"inputs":[{"internalType":"address","name":"a","type":"address"},{"internalType":"address","name":"b","type":"address"}],"name":"getPair","outputs":[{"internalType":"address","name":"","type":"address"}],"stateMutability":"view","type":"function"},{"inputs":[],"name":"lastPair","outputs":[{"internalType":"address","name":"","type":"address"}],"stateMutability":"view","type":"function"},{"inputs":[{"internalType":"address","name":"","type":"address"},{"internalType":"address","name":"","type":"address"}],"name":"pairs","outputs":[{"internalType":"address","name":"","type":"address"}],"stateMutability":"view","type":"function"}],"evm":{"bytecode":{"linkReferences":{},"object":"6080806040523461001657610542908161001c8239f35b600080fdfe60806040818152600436101561001457600080fd5b600091823560e01c90816369454b861461025357508063ae57135c1461022b578063c9c653961461009d5763e6a439051461004e57600080fd5b346100995780600319360112610099576020916100696102a0565b6100716102bb565b908360018060a01b039384809316815280875220911660005283528160002054169051908152f35b5080fd5b50346100995780600319360112610099576100b66102a0565b906100bf6102bb565b6001600160a01b0392831680855260208581528386209285168087529281528386205490959085166101fe5783516001600160401b03959061023b80820190888211838310176101ea579082916102d28339039083f080156101e0571694853b156100995784519063485cc95560e01b82528360048301528460248301528282604481838b5af180156101d65791879594939187936101a6575b5050828152808852818120846000528852816000209360018060a01b0319948686825416179055815280885220906000528552826000208282825416179055600154161760015551908152f35b9193949550809250116101c25785939291859182523880610159565b634e487b7160e01b82526041600452602482fd5b86513d85823e3d90fd5b85513d84823e3d90fd5b634e487b7160e01b85526041600452602485fd5b835162461bcd60e51b815260048101879052600660248201526565786973747360d01b6044820152606490fd5b503461009957816003193601126100995760015490516001600160a01b039091168152602090f35b9190503461029c578060031936011261029c57916020926102726102a0565b9161027b6102bb565b6001600160a01b039384168252818652828220908416825285522054168152f35b8280fd5b600435906001600160a01b03821682036102b657565b600080fd5b602435906001600160a01b03821682036102b65756fe608080604052346100165761021f908161001c8239f35b600080fdfe60806040818152600436101561001457600080fd5b600091823560e01c9081630dfe1681146101875750806318160ddd1461016957806340c10f1914610118578063485cc955146100c657806370a082311461008f5763d21220a71461006457600080fd5b3461008b578160031936011261008b5760015490516001600160a01b039091168152602090f35b5080fd5b503461008b57602036600319011261008b5760209181906001600160a01b036100b66101ab565b1681526002845220549051908152f35b503461008b57366003190112610115576100de6101ab565b6024356001600160a01b0381811692918390036101115760018060a01b0319911681845416178355600154161760015580f35b8380fd5b80fd5b503461008b578060031936011261008b57610163906101356101ab565b6001600160a01b0316835260026020528220805460243591906101599083906101c6565b90556003546101c6565b60035580f35b503461008b578160031936011261008b576020906003549051908152f35b83903461008b578160031936011261008b5790546001600160a01b03168152602090f35b600435906001600160a01b03821682036101c157565b600080fd5b919082018092116101d357565b634e487b7160e01b600052601160045260246000fdfea2646970667358221220af4207a41c3eaf23e80e8ad52ce11eafd97d42b0d39ff337e0d24181115da02664736f6c63430008140033a2646970667358221220951b318d3d0407e7112adf206f7e8d84f647cc85ca4e23d4ad0aa12d2bb2064364736f6c63430008140033","opcodes":"PUSH1 0x80 DUP1 PUSH1 0x40 MSTORE CALLVALUE PUSH2 0x16 JUMPI PUSH2 0x542 SWAP1 DUP2 PUSH2 0x1C DUP3 CODECOPY RETURN JUMPDEST PUSH1 0x0 DUP1 REVERT INVALID PUSH1 0x80 PUSH1 0x40 DUP2 DUP2 MSTORE PUSH1 0x4 CALLDATASIZE LT ISZERO PUSH2 0x14 JUMPI PUSH1 0x0 DUP1 REVERT JUMPDEST PUSH1 0x0 SWAP2 DUP3 CALLDATALOAD PUSH1 0xE0 SHR SWAP1 DUP2 PUSH4 0x69454B86 EQ PUSH2 0x253 JUMPI POP DUP1 PUSH4 0xAE57135C EQ PUSH2 0x22B JUMPI DUP1 PUSH4 0xC9C65396 EQ PUSH2 0x9D JUMPI PUSH4 0xE6A43905 EQ PUSH2 0x4E JUMPI PUSH1 0x0 DUP1 REVERT JUMPDEST CALLVALUE PUSH2 0x99 JUMPI DUP1 PUSH1 0x3 NOT CALLDATASIZE ADD SLT PUSH2 0x99 JUMPI PUSH1 0x20 SWAP2 PUSH2 0x69 PUSH2 0x2A0 JUMP JUMPDEST PUSH2 0x71 PUSH2 0x2BB JUMP JUMPDEST SWAP1 DUP4 PUSH1 0x1 DUP1 PUSH1 0xA0 SHL SUB SWAP4 DUP5 DUP1 SWAP4 AND DUP2 MSTORE DUP1 DUP8 MSTORE KECCAK256 SWAP2 AND PUSH1 0x0 MSTORE DUP4 MSTORE DUP2 PUSH1 0x0 KECCAK256 SLOAD AND SWAP1 MLOAD SWAP1 DUP2 MSTORE RETURN JUMPDEST POP DUP1 REVERT JUMPDEST POP CALLVALUE PUSH2 0x99 JUMPI DUP1 PUSH1 0x3 NOT CALLDATASIZE ADD SLT PUSH2 0x99 JUMPI PUSH2 0xB6 PUSH2 0x2A0 JUMP JUMPDEST SWAP1 PUSH2 0xBF PUSH2 0x2BB JUMP JUMPDEST PUSH1 0x1 PUSH1 0x1 PUSH1 0xA0 SHL SUB SWAP3 DUP4 AND DUP1 DUP6 MSTORE PUSH1 0x20 DUP6 DUP2 MSTORE DUP4 DUP7 KECCAK256 SWAP3 DUP6 AND DUP1 DUP8 MSTORE SWAP3 DUP2 MSTORE DUP4 DUP7 KECCAK256 SLOAD SWAP1 SWAP6 SWAP1 DUP6 AND PUSH2 0x1FE JUMPI DUP4 MLOAD PUSH1 0x1 PUSH1 0x1 PUSH1 0x40 SHL SUB SWAP6 SWAP1 PUSH2 0x23B DUP1 DUP3 ADD SWAP1 DUP9 DUP3 GT DUP4 DUP4 LT OR PUSH2 0x1EA JUMPI SWAP1 DUP3 SWAP2 PUSH2 0x2D2 DUP4 CODECOPY SUB SWAP1 DUP4 CREATE DUP1 ISZERO PUSH2 0x1E0 JUMPI AND SWAP5 DUP6 EXTCODESIZE ISZERO PUSH2 0x99 JUMPI DUP5 MLOAD SWAP1 PUSH4 0x485CC955 PUSH1 0xE0 SHL DUP3 MSTORE DUP4 PUSH1 0x4 DUP4 ADD MSTORE DUP5 PUSH1 0x24 DUP4 ADD MSTORE DUP3 DUP3 PUSH1 0x44 DUP2 DUP4 DUP12 GAS CALL DUP1 ISZERO PUSH2 0x1D6 JUMPI SWAP2 DUP8 SWAP6 SWAP5 SWAP4 SWAP2 DUP8 SWAP4 PUSH2 0x1A6 JUMPI JUMPDEST POP POP DUP3 DUP2 MSTORE DUP1 DUP9 MSTORE DUP2 DUP2 KECCAK256 DUP5 PUSH1 0x0 MSTORE DUP9 MSTORE DUP2 PUSH1 0x0 KECCAK256 SWAP4 PUSH1 0x1 DUP1 PUSH1 0xA0 SHL SUB NOT SWAP5 DUP7 DUP7 DUP3 SLOAD AND OR SWAP1 SSTORE DUP2 MSTORE DUP1 DUP9 MSTORE KECCAK256 SWAP1 PUSH1 0x0 MSTORE DUP6 MSTORE DUP3 PUSH1 0x0 KECCAK256 DUP3 DUP3 DUP3 SLOAD AND OR SWAP1 SSTORE PUSH1 0x1 SLOAD AND OR PUSH1 0x1 SSTORE MLOAD SWAP1 DUP2 MSTORE RETURN JUMPDEST SWAP2 SWAP4 SWAP5 SWAP6 POP DUP1 SWAP3 POP GT PUSH2 0x1C2 JUMPI DUP6 SWAP4 SWAP3 SWAP2 DUP6 SWAP2 DUP3 MSTORE CODESIZE DUP1 PUSH2 0x159 JUMP JUMPDEST PUSH4 0x4E487B71 PUSH1 0xE0 SHL DUP3 MSTORE PUSH1 0x41 PUSH1 0x4 MSTORE PUSH1 0x24 DUP3 REVERT JUMPDEST DUP7 MLOAD RETURNDATASIZE DUP6 DUP3 RETURNDATACOPY RETURNDATASIZE SWAP1 REVERT JUMPDEST DUP6 MLOAD RETURNDATASIZE DUP5 DUP3 RETURNDATACOPY RETURNDATASIZE SWAP1 REVERT JUMPDEST PUSH4 0x4E487B71 PUSH1 0xE0 SHL DUP6 MSTORE PUSH1 0x41 PUSH1 0x4 MSTORE PUSH1 0x24 DUP6 REVERT JUMPDEST DUP4 MLOAD PUSH3 0x461BCD PUSH1 0xE5 SHL DUP2 MSTORE PUSH1 0x4 DUP2 ADD DUP8 SWAP1 MSTORE PUSH1 0x6 PUSH1 0x24 DUP3 ADD MSTORE PUSH6 0x657869737473 PUSH1 0xD0 SHL PUSH1 0x44 DUP3 ADD MSTORE PUSH1 0x64 SWAP1 REVERT JUMPDEST POP CALLVALUE PUSH2 0x99 JUMPI DUP2 PUSH1 0x3 NOT CALLDATASIZE ADD SLT PUSH2 0x99 JUMPI PUSH1 0x1 SLOAD SWAP1 MLOAD PUSH1 0x1 PUSH1 0x1 PUSH1 0xA0 SHL SUB SWAP1 SWAP2 AND DUP2 MSTORE PUSH1 0x20 SWAP1 RETURN JUMPDEST SWAP2 SWAP1 POP CALLVALUE PUSH2 0x29C JUMPI DUP1 PUSH1 0x3 NOT CALLDATASIZE ADD SLT PUSH2 0x29C JUMPI SWAP2 PUSH1 0x20 SWAP3 PUSH2 0x272 PUSH2 0x2A0 JUMP JUMPDEST SWAP2 PUSH2 0x27B PUSH2 0x2BB JUMP JUMPDEST PUSH1 0x1 PUSH1 0x1 PUSH1 0xA0 SHL SUB SWAP4 DUP5 AND DUP3 MSTORE DUP2 DUP7 MSTORE DUP3 DUP3 KECCAK256 SWAP1 DUP5 AND DUP3 MSTORE DUP6 MSTORE KECCAK256 SLOAD AND DUP2 MSTORE RETURN JUMPDEST DUP3 DUP1 REVERT JUMPDEST PUSH1 0x4 CALLDATALOAD SWAP1 PUSH1 0x1 PUSH1 0x1 PUSH1 0xA0 SHL SUB DUP3 AND DUP3 SUB PUSH2 0x2B6 JUMPI JUMP JUMPDEST PUSH1 0x0 DUP1 REVERT JUMPDEST PUSH1 0x24 CALLDATALOAD SWAP1 PUSH1 0x1 PUSH1 0x1 PUSH1 0xA0 SHL SUB DUP3 AND DUP3 SUB PUSH2 0x2B6 JUMPI JUMP INVALID PUSH1 0x80 DUP1 PUSH1 0x40 MSTORE CALLVALUE PUSH2 0x16 JUMPI PUSH2 0x21F SWAP1 DUP2 PUSH2 0x1C DUP3 CODECOPY RETURN JUMPDEST PUSH1 0x0 DUP1 REVERT INVALID PUSH1 0x80 PUSH1 0x40 DUP2 DUP2 MSTORE PUSH1 0x4 CALLDATASIZE LT ISZERO PUSH2 0x14 JUMPI PUSH1 0x0 DUP1 REVERT JUMPDEST PUSH1 0x0 SWAP2 DUP3 CALLDATALOAD PUSH1 0xE0 SHR SWAP1 DUP2 PUSH4 0xDFE1681 EQ PUSH2 0x187 JUMPI POP DUP1 PUSH4 0x18160DDD EQ PUSH2 0x169 JUMPI DUP1 PUSH4 0x40C10F19 EQ PUSH2 0x118 JUMPI DUP1 PUSH4 0x485CC955 EQ PUSH2 0xC6 JUMPI DUP1 PUSH4 0x70A08231 EQ PUSH2 0x8F JUMPI PUSH4 0xD21220A7 EQ PUSH2 0x64 JUMPI PUSH1 0x0 DUP1 REVERT JUMPDEST CALLVALUE PUSH2 0x8B JUMPI DUP2 PUSH1 0x3 NOT CALLDATASIZE ADD SLT PUSH2 0x8B JUMPI PUSH1 0x1 SLOAD SWAP1 MLOAD PUSH1 0x1 PUSH1 0x1 PUSH1 0xA0 SHL SUB SWAP1 SWAP2 AND DUP2 MSTORE PUSH1 0x20 SWAP1 RETURN JUMPDEST POP DUP1 REVERT JUMPDEST POP CALLVALUE PUSH2 0x8B JUMPI PUSH1 0x20 CALLDATASIZE PUSH1 0x3 NOT ADD SLT PUSH2 0x8B JUMPI PUSH1 0x20 SWAP2 DUP2 SWAP1 PUSH1 0x1 PUSH1 0x1 PUSH1 0xA0 SHL SUB PUSH2 0xB6 PUSH2 0x1AB JUMP JUMPDEST AND DUP2 MSTORE PUSH1 0x2 DUP5 MSTORE KECCAK256 SLOAD SWAP1 MLOAD SWAP1 DUP2 MSTORE RETURN JUMPDEST POP CALLVALUE PUSH2 0x8B JUMPI CALLDATASIZE PUSH1 0x3 NOT ADD SLT PUSH2 0x115 JUMPI PUSH2 0xDE PUSH2 0x1AB JUMP JUMPDEST PUSH1 0x24 CALLDATALOAD PUSH1 0x1 PUSH1 0x1 PUSH1 0xA0 SHL SUB DUP2 DUP2 AND SWAP3 SWAP2 DUP4 SWAP1 SUB PUSH2 0x111 JUMPI PUSH1 0x1 DUP1 PUSH1 0xA0 SHL SUB NOT SWAP2 AND DUP2 DUP5 SLOAD AND OR DUP4 SSTORE PUSH1 0x1 SLOAD AND OR PUSH1 0x1 SSTORE DUP1 RETURN JUMPDEST DUP4 DUP1 REVERT JUMPDEST DUP1 REVERT JUMPDEST POP CALLVALUE PUSH2 0x8B JUMPI DUP1 PUSH1 0x3 NOT CALLDATASIZE ADD SLT PUSH2 0x8B JUMPI PUSH2 0x163 SWAP1 PUSH2 0x135 PUSH2 0x1AB JUMP JUMPDEST PUSH1 0x1 PUSH1 0x1 PUSH1 0xA0 SHL SUB AND DUP4 MSTORE PUSH1 0x2 PUSH1 0x20 MSTORE DUP3 KECCAK256 DUP1 SLOAD PUSH1 0x24 CALLDATALOAD SWAP2 SWAP1 PUSH2 0x159 SWAP1 DUP4 SWAP1 PUSH2 0x1C6 JUMP JUMPDEST SWAP1 SSTORE PUSH1 0x3 SLOAD PUSH2 0x1C6 JUMP JUMPDEST PUSH1 0x3 SSTORE DUP1 RETURN JUMPDEST POP CALLVALUE PUSH2 0x8B JUMPI DUP2 PUSH1 0x3 NOT CALLDATASIZE ADD SLT PUSH2 0x8B JUMPI PUSH1 0x20 SWAP1 PUSH1 0x3 SLOAD SWAP1 MLOAD SWAP1 DUP2 MSTORE RETURN JUMPDEST DUP4 SWAP1 CALLVALUE PUSH2 0x8B JUMPI DUP2 PUSH1 0x3 NOT CALLDATASIZE ADD SLT PUSH2 0x8B JUMPI SWAP1 SLOAD PUSH1 0x1 PUSH1 0x1 PUSH1 0xA0 SHL SUB AND DUP2 MSTORE PUSH1 0x20 SWAP1 RETURN JUMPDEST PUSH1 0x4 CALLDATALOAD SWAP1 PUSH1 0x1 PUSH1 0x1 PUSH1 0xA0 SHL SUB DUP3 AND DUP3 SUB PUSH2 0x1C1 JUMPI JUMP JUMPDEST PUSH1 0x0 DUP1 REVERT JUMPDEST SWAP2 SWAP1 DUP3 ADD DUP1 SWAP3 GT PUSH2 0x1D3 JUMPI JUMP JUMPDEST PUSH4 0x4E487B71 PUSH1 0xE0 SHL PUSH1 0x0 MSTORE PUSH1 0x11 PUSH1 0x4 MSTORE PUSH1 0x24 PUSH1 0x0 REVERT INVALID LOG2 PUSH5 0x6970667358 0x22 SLT KECCAK256 0xAF TIMESTAMP SMOD LOG4 SHR RETURNDATACOPY 0xAF 0x23 0xE8 0xE DUP11 0xD5 0x2C 0xE1 0x1E 0xAF 0xD9 PUSH30 0x42B0D39FF337E0D24181115DA02664736F6C63430008140033A264697066 PUSH20 0x58221220951B318D3D0407E7112ADF206F7E8D84 0xF6 SELFBALANCE 0xCC DUP6 0xCA 0x4E 0x23 0xD4 0xAD EXP LOG1 0x2D 0x2B 0xB2 MOD NUMBER PUSH5 0x736F6C6343 STOP ADDMOD EQ STOP CALLER "},"methodIdentifiers":{"createPair(address,address)":"c9c65396","getPair(address,address)":"e6a43905","lastPair()":"ae57135c","pairs(address,address)":"69454b86"}}}}}