{"contracts/v2/AethpadTokenV2.sol":{"AethpadTokenV2":{"abi":[{"inputs":[{"internalType":"string","name":"_name","type":"string"},{"internalType":"string","name":"_symbol","type":"string"},{"internalType":"address","name":"_factory","type":"address"},{"internalType":"address","name":"_curve","type":"address"}],"stateMutability":"nonpayable","type":"constructor"},{"inputs":[{"internalType":"address","name":"spender","type":"address"},{"internalType":"uint256","name":"allowance","type":"uint256"},{"internalType":"uint256","name":"needed","type":"uint256"}],"name":"ERC20InsufficientAllowance","type":"error"},{"inputs":[{"internalType":"address","name":"sender","type":"address"},{"internalType":"uint256","name":"balance","type":"uint256"},{"internalType":"uint256","name":"needed","type":"uint256"}],"name":"ERC20InsufficientBalance","type":"error"},{"inputs":[{"internalType":"address","name":"approver","type":"address"}],"name":"ERC20InvalidApprover","type":"error"},{"inputs":[{"internalType":"address","name":"receiver","type":"address"}],"name":"ERC20InvalidReceiver","type":"error"},{"inputs":[{"internalType":"address","name":"sender","type":"address"}],"name":"ERC20InvalidSender","type":"error"},{"inputs":[{"internalType":"address","name":"spender","type":"address"}],"name":"ERC20InvalidSpender","type":"error"},{"inputs":[],"name":"ReentrancyGuardReentrantCall","type":"error"},{"anonymous":false,"inputs":[{"indexed":true,"internalType":"address","name":"owner","type":"address"},{"indexed":true,"internalType":"address","name":"spender","type":"address"},{"indexed":false,"internalType":"uint256","name":"value","type":"uint256"}],"name":"Approval","type":"event"},{"anonymous":false,"inputs":[{"indexed":true,"internalType":"address","name":"pair","type":"address"}],"name":"Graduated","type":"event"},{"anonymous":false,"inputs":[{"indexed":true,"internalType":"address","name":"oldKeeper","type":"address"},{"indexed":true,"internalType":"address","name":"newKeeper","type":"address"}],"name":"KeeperUpdated","type":"event"},{"anonymous":false,"inputs":[{"indexed":false,"internalType":"uint256","name":"ethAmount","type":"uint256"}],"name":"PlatformFeeForwarded","type":"event"},{"anonymous":false,"inputs":[{"indexed":true,"internalType":"address","name":"user","type":"address"},{"indexed":false,"internalType":"uint256","name":"ethAmount","type":"uint256"}],"name":"RewardsClaimed","type":"event"},{"anonymous":false,"inputs":[{"indexed":false,"internalType":"uint256","name":"ethAmount","type":"uint256"},{"indexed":false,"internalType":"uint256","name":"newCumulative","type":"uint256"}],"name":"RewardsDeposited","type":"event"},{"anonymous":false,"inputs":[{"indexed":false,"internalType":"uint256","name":"holderCount","type":"uint256"},{"indexed":false,"internalType":"uint256","name":"totalEthSent","type":"uint256"}],"name":"RewardsPushed","type":"event"},{"anonymous":false,"inputs":[{"indexed":true,"internalType":"address","name":"user","type":"address"},{"indexed":false,"internalType":"uint256","name":"drop","type":"uint256"},{"indexed":false,"internalType":"uint256","name":"totalScore","type":"uint256"}],"name":"ScoreDesyncDetected","type":"event"},{"anonymous":false,"inputs":[{"indexed":true,"internalType":"address","name":"from","type":"address"},{"indexed":true,"internalType":"address","name":"to","type":"address"},{"indexed":false,"internalType":"uint256","name":"burnAmt","type":"uint256"},{"indexed":false,"internalType":"uint256","name":"rewardAmt","type":"uint256"},{"indexed":false,"internalType":"uint256","name":"platformAmt","type":"uint256"}],"name":"TaxTaken","type":"event"},{"anonymous":false,"inputs":[{"indexed":true,"internalType":"address","name":"from","type":"address"},{"indexed":true,"internalType":"address","name":"to","type":"address"},{"indexed":false,"internalType":"uint256","name":"value","type":"uint256"}],"name":"Transfer","type":"event"},{"inputs":[],"name":"BURN_BPS","outputs":[{"internalType":"uint256","name":"","type":"uint256"}],"stateMutability":"view","type":"function"},{"inputs":[],"name":"CURVE_SUPPLY","outputs":[{"internalType":"uint256","name":"","type":"uint256"}],"stateMutability":"view","type":"function"},{"inputs":[],"name":"DEAD","outputs":[{"internalType":"address","name":"","type":"address"}],"stateMutability":"view","type":"function"},{"inputs":[],"name":"GRAD_SUPPLY","outputs":[{"internalType":"uint256","name":"","type":"uint256"}],"stateMutability":"view","type":"function"},{"inputs":[],"name":"MAX_PUSH_BATCH","outputs":[{"internalType":"uint256","name":"","type":"uint256"}],"stateMutability":"view","type":"function"},{"inputs":[],"name":"PLATFORM_BPS","outputs":[{"internalType":"uint256","name":"","type":"uint256"}],"stateMutability":"view","type":"function"},{"inputs":[],"name":"REWARD_BPS","outputs":[{"internalType":"uint256","name":"","type":"uint256"}],"stateMutability":"view","type":"function"},{"inputs":[],"name":"SNIPE_BPS_1HR","outputs":[{"internalType":"uint256","name":"","type":"uint256"}],"stateMutability":"view","type":"function"},{"inputs":[],"name":"SNIPE_BPS_24HR","outputs":[{"internalType":"uint256","name":"","type":"uint256"}],"stateMutability":"view","type":"function"},{"inputs":[],"name":"SNIPE_BPS_5MIN","outputs":[{"internalType":"uint256","name":"","type":"uint256"}],"stateMutability":"view","type":"function"},{"inputs":[],"name":"TOTAL_SUPPLY","outputs":[{"internalType":"uint256","name":"","type":"uint256"}],"stateMutability":"view","type":"function"},{"inputs":[],"name":"TOTAL_TAX_BPS","outputs":[{"internalType":"uint256","name":"","type":"uint256"}],"stateMutability":"view","type":"function"},{"inputs":[{"internalType":"address","name":"owner","type":"address"},{"internalType":"address","name":"spender","type":"address"}],"name":"allowance","outputs":[{"internalType":"uint256","name":"","type":"uint256"}],"stateMutability":"view","type":"function"},{"inputs":[{"internalType":"address","name":"seller","type":"address"}],"name":"antiSnipeBpsFor","outputs":[{"internalType":"uint256","name":"","type":"uint256"}],"stateMutability":"view","type":"function"},{"inputs":[{"internalType":"address","name":"spender","type":"address"},{"internalType":"uint256","name":"value","type":"uint256"}],"name":"approve","outputs":[{"internalType":"bool","name":"","type":"bool"}],"stateMutability":"nonpayable","type":"function"},{"inputs":[{"internalType":"address","name":"account","type":"address"}],"name":"balanceOf","outputs":[{"internalType":"uint256","name":"","type":"uint256"}],"stateMutability":"view","type":"function"},{"inputs":[{"internalType":"uint256","name":"amount","type":"uint256"}],"name":"burnFromCurve","outputs":[],"stateMutability":"nonpayable","type":"function"},{"inputs":[{"internalType":"address","name":"","type":"address"}],"name":"checkpoints","outputs":[{"internalType":"uint128","name":"balance","type":"uint128"},{"internalType":"uint64","name":"lastUpdate","type":"uint64"},{"internalType":"uint64","name":"lastBuyAt","type":"uint64"},{"internalType":"uint256","name":"accumulatedScore","type":"uint256"},{"internalType":"uint256","name":"ethPerScorePaid","type":"uint256"},{"internalType":"uint256","name":"pendingEth","type":"uint256"}],"stateMutability":"view","type":"function"},{"inputs":[],"name":"claim","outputs":[],"stateMutability":"nonpayable","type":"function"},{"inputs":[],"name":"cumulativeEthPerScore","outputs":[{"internalType":"uint256","name":"","type":"uint256"}],"stateMutability":"view","type":"function"},{"inputs":[],"name":"curve","outputs":[{"internalType":"address","name":"","type":"address"}],"stateMutability":"view","type":"function"},{"inputs":[],"name":"decimals","outputs":[{"internalType":"uint8","name":"","type":"uint8"}],"stateMutability":"view","type":"function"},{"inputs":[],"name":"depositEthPlatform","outputs":[],"stateMutability":"payable","type":"function"},{"inputs":[],"name":"depositEthReward","outputs":[],"stateMutability":"payable","type":"function"},{"inputs":[],"name":"factory","outputs":[{"internalType":"address","name":"","type":"address"}],"stateMutability":"view","type":"function"},{"inputs":[],"name":"graduated","outputs":[{"internalType":"bool","name":"","type":"bool"}],"stateMutability":"view","type":"function"},{"inputs":[{"internalType":"address","name":"user","type":"address"}],"name":"holdScore","outputs":[{"internalType":"uint256","name":"","type":"uint256"}],"stateMutability":"view","type":"function"},{"inputs":[{"internalType":"address","name":"","type":"address"}],"name":"isExcluded","outputs":[{"internalType":"bool","name":"","type":"bool"}],"stateMutability":"view","type":"function"},{"inputs":[],"name":"keeper","outputs":[{"internalType":"address","name":"","type":"address"}],"stateMutability":"view","type":"function"},{"inputs":[],"name":"lastRewardTimestamp","outputs":[{"internalType":"uint256","name":"","type":"uint256"}],"stateMutability":"view","type":"function"},{"inputs":[],"name":"name","outputs":[{"internalType":"string","name":"","type":"string"}],"stateMutability":"view","type":"function"},{"inputs":[{"internalType":"address","name":"_pair","type":"address"},{"internalType":"address","name":"_router","type":"address"}],"name":"notifyGraduated","outputs":[],"stateMutability":"nonpayable","type":"function"},{"inputs":[],"name":"orphanedRewardEth","outputs":[{"internalType":"uint256","name":"","type":"uint256"}],"stateMutability":"view","type":"function"},{"inputs":[{"internalType":"address","name":"user","type":"address"}],"name":"pendingRewards","outputs":[{"internalType":"uint256","name":"","type":"uint256"}],"stateMutability":"view","type":"function"},{"inputs":[{"internalType":"address[]","name":"holders","type":"address[]"}],"name":"pushRewards","outputs":[],"stateMutability":"nonpayable","type":"function"},{"inputs":[{"internalType":"address","name":"account","type":"address"},{"internalType":"bool","name":"excluded","type":"bool"}],"name":"setExcluded","outputs":[],"stateMutability":"nonpayable","type":"function"},{"inputs":[{"internalType":"address","name":"newKeeper","type":"address"}],"name":"setKeeper","outputs":[],"stateMutability":"nonpayable","type":"function"},{"inputs":[{"internalType":"uint256","name":"newThreshold","type":"uint256"}],"name":"setSwapThreshold","outputs":[],"stateMutability":"nonpayable","type":"function"},{"inputs":[],"name":"swapThreshold","outputs":[{"internalType":"uint256","name":"","type":"uint256"}],"stateMutability":"view","type":"function"},{"inputs":[],"name":"symbol","outputs":[{"internalType":"string","name":"","type":"string"}],"stateMutability":"view","type":"function"},{"inputs":[],"name":"totalAccumulatedScore","outputs":[{"internalType":"uint256","name":"","type":"uint256"}],"stateMutability":"view","type":"function"},{"inputs":[],"name":"totalHoldScoreLive","outputs":[{"internalType":"uint256","name":"","type":"uint256"}],"stateMutability":"view","type":"function"},{"inputs":[],"name":"totalLastUpdate","outputs":[{"internalType":"uint256","name":"","type":"uint256"}],"stateMutability":"view","type":"function"},{"inputs":[],"name":"totalSettledBalance","outputs":[{"internalType":"uint256","name":"","type":"uint256"}],"stateMutability":"view","type":"function"},{"inputs":[],"name":"totalSupply","outputs":[{"internalType":"uint256","name":"","type":"uint256"}],"stateMutability":"view","type":"function"},{"inputs":[{"internalType":"address","name":"to","type":"address"},{"internalType":"uint256","name":"value","type":"uint256"}],"name":"transfer","outputs":[{"internalType":"bool","name":"","type":"bool"}],"stateMutability":"nonpayable","type":"function"},{"inputs":[{"internalType":"address","name":"from","type":"address"},{"internalType":"address","name":"to","type":"address"},{"internalType":"uint256","name":"value","type":"uint256"}],"name":"transferFrom","outputs":[{"internalType":"bool","name":"","type":"bool"}],"stateMutability":"nonpayable","type":"function"},{"inputs":[],"name":"uniswapPair","outputs":[{"internalType":"address","name":"","type":"address"}],"stateMutability":"view","type":"function"},{"inputs":[],"name":"uniswapRouter","outputs":[{"internalType":"contract IUniswapV2Router02","name":"","type":"address"}],"stateMutability":"view","type":"function"},{"stateMutability":"payable","type":"receive"}],"evm":{"bytecode":{"linkReferences":{},"object":"60c060409080825234620007435762003be2803803809162000022828562000748565b8339810190608081830312620007435780516001600160401b0392908381116200074357816200005491840162000788565b602091828401519085821162000743576200007191850162000788565b906200008d606062000085888701620007f2565b9501620007f2565b918151868111620006435760038054916001948584811c9416801562000738575b8885101462000722578190601f94858111620006cc575b508890858311600114620006655760009262000659575b505060001982841b1c191690851b1781555b825191888311620006435760049384548681811c9116801562000638575b8982101462000623579081838695949311620005c9575b50889184116001146200055e5760009362000552575b505082851b92600019911b1c19161781555b817f9b779b17422d0df92223018b32b4d1fa46e071723d6817e2486d003becc55f005569152d02c7e14af6800000600755846080528260a05260018060a01b03948584169081600052600f865286896000209160ff199286848254161790551660005288600020848282541617905561dead93846000528960002081838254161790553060005289600020818382541617905560008052896000209182541617905542600b5580156200053b576b033b2e3c9fd0803ce80000009262000211856200091b565b600554978760ff998a8116806200052e575b8062000517575b8062000500575b62000346575b505050505050906200024e62000254928262000891565b62000ab2565b600554838116938462000338575b508362000328575b50826200030d575b5081620002fe575b50620002ee575b5161287f908162001323823960805181818161077701528181610853015281816109bd01528181610b870152818161111a01526123cd015260a0518181816106200152818161081b0152818161094501528181610c2b01528181610cd201528181611d9f0152611f510152f35b620002f862000dc7565b62000281565b9050600654161515386200027a565b60009192503082525281600020546007541115903862000272565b60081c821615159250386200026a565b600854161593503862000262565b60081c16938415948414858615620004f8575b62000368575b89915062000237565b600096929394959690620004e7575b6101f4908101809111620004d2578083029083820403620004d2576127109004600254946a0c685fa11e01ec6f00000095868101809111620004bd5760008051602062003bc28339815191528b8f6000936002558484528382528084208a815401905551898152a36a0c685fa11e01ec6effffff198101818111620004a8578062000495575b5082039182116200048057507fe9bc91a33ddf896d889747b2f39f4192c802fd62364780086853fcd8e19e8ffa6060620002549796946200024e96948d6000959762000461575b905051908152838a820152838d820152a39192388080806200035f565b620004789187875260098d5242169086206200086e565b388d62000444565b601190634e487b7160e01b6000525260246000fd5b620004a1903062000891565b38620003fd565b601183634e487b7160e01b6000525260246000fd5b601184634e487b7160e01b6000525260246000fd5b601182634e487b7160e01b6000525260246000fd5b50620004f262000ce3565b62000377565b508062000359565b5084600052600f89528a8c60002054161562000231565b5060008052600f89528a8c6000205416156200022a565b508a600854161562000223565b875163ec442f0560e01b8152600081840152602490fd5b01519150388062000139565b9190869450601f1984169286600052896000209360005b8b828210620005b2575050851162000597575b50505050811b0181556200014b565b01519060f884600019921b161c191690553880808062000588565b8385015187558a9890960195938401930162000575565b909192935085600052886000208380870160051c8201928b881062000619575b9189918897969594930160051c01915b8281106200060957505062000123565b60008155879650899101620005f9565b92508192620005e9565b602286634e487b7160e01b6000525260246000fd5b90607f16906200010c565b634e487b7160e01b600052604160045260246000fd5b015190503880620000dc565b90879350601f19831691856000528a6000209260005b8c828210620006b557505084116200069c575b505050811b018155620000ee565b015160001983861b60f8161c191690553880806200068e565b8385015186558b979095019493840193016200067b565b90915083600052886000208580850160051c8201928b861062000718575b918991869594930160051c01915b82811062000708575050620000c5565b60008155859450899101620006f8565b92508192620006ea565b634e487b7160e01b600052602260045260246000fd5b93607f1693620000ae565b600080fd5b601f909101601f19168101906001600160401b038211908210176200064357604052565b6001600160401b0381116200064357601f01601f191660200190565b919080601f840112156200074357825190620007a4826200076c565b91620007b4604051938462000748565b808352602091828287010111620007435760005b818110620007de57508260009394955001015290565b8581018301518482018401528201620007c8565b51906001600160a01b03821682036200074357565b919082018092116200081557565b634e487b7160e01b600052601160045260246000fd5b818102929181159184041417156200081557565b81156200084a570490565b634e487b7160e01b600052601260045260246000fd5b919082039182116200081557565b80546001600160c01b031660c09290921b6001600160c01b031916919091179055565b60008051602062003bc28339815191526020600092620008b48560025462000807565b6002556001600160a01b03169384158414620008dc5780600254036002555b604051908152a3565b84845283825260408420818154019055620008d3565b8054600160801b600160c01b03191660809290921b600160801b600160c01b0316919091179055565b620009268162000a53565b1562000a505760018060a01b03166000526009602052620009b16040600020600d546200095a600283019182549062000860565b80620009b3575b505080546001600160401b0390620009959062000985608082901c84164262000860565b906001600160801b03166200082b565b620009a66001840191825462000807565b9055421690620008f2565b565b600e54835462000a0191620009fa90620009e590608084901c6001600160401b0316908181111562000a485762000860565b6001870154926001600160801b03166200082b565b9062000807565b8062000a17575b5050600d549055388062000961565b670de0b6b3a76400009162000a2c916200082b565b0462000a3e6003840191825462000807565b9055388062000a08565b508062000860565b50565b6001600160a01b0390811690811562000aab5781600052600f60205260ff6040600020541662000aab5760055460081c16801515918262000aa0575b505062000a9b57600190565b600090565b149050388062000a8f565b5050600090565b62000abd8162000a53565b1562000a50576001600160a01b03908116600081815260096020526040812092919062000ae962000c8d565b8181526020819052604081205484546001600160801b0390811680831094919391858062000c83575b62000bf8575b5082818111958660001462000bb3575062000b4392509062000b3a9162000860565b600c5462000807565b600c555b84546001600160801b0319169116178355426001600160401b03169162000b6f8385620008f2565b60ff6005541615918262000baa575b508162000b9b575b5062000b90575050565b620009b1916200086e565b905060a0511633143862000b86565b91503862000b7e565b62000bc2575b50505062000b47565b62000bcd9162000860565b600c5481811062000bf05762000be4925062000860565b600c5538808262000bb9565b505062000be4565b6001880180549162000c2262000c1a8562000c1489876200082b565b6200083f565b809462000860565b600a5481811062000c49575062000c3d9150600a5462000860565b600a555b553862000b18565b7fd5fc571c0f24626ceeb4a7223a10b7b571f3e6c810a1ec1991ba28b6494b06a19160409182519182526020820152a283600a5562000c41565b5081151562000b12565b62000c9b600b544262000860565b8015158062000cd7575b62000cb2575b5042600b55565b62000cc462000ccd91600c546200082b565b600a5462000807565b600a553862000cab565b50600c54151562000ca5565b6000805260096020527fec8156718a8372b1db44bb411437d0870f3e3790d4a08526d024ce1b0b668f6b5460c01c801562000d5b5762000d24904262000860565b61012c811062000d5457610e10811062000d4d57620151801162000d4757600090565b6101f490565b506103e890565b506107d090565b50600090565b80516001101562000d725760400190565b634e487b7160e01b600052603260045260246000fd5b90815180825260208080930193019160005b82811062000da9575050505090565b83516001600160a01b03168552938101939281019260010162000d9a565b60009060ff1980600854166001811760085530845260208481526040908186205492831562001233575081516001600160401b039660608201888111838210176200121f57845260028252828201843682378251156200120b5730905260065484516315ab88c960e31b81526004996001600160a01b03979290919088169086818d81855afa90811562001201578591620011c0575b508862000e6a8762000d61565b911690523015620011a95780156200119257308452600186528684208185528652828785205586518381527f8c5be1e5ebec7d5bd14f71427d1e84f3dd0314c0f7b2291e5b200ac8c7c3b925873092a3829387600654169487519563d06ca61f60e01b8752848d880152602496898882015286818062000eee604482018862000d88565b0381855afa879181620010da575b506200109a575b504794813b15620010965790869291838f62000f448d519788968795869463791ac94760e01b86528501528d84015260a0604484015260a483019062000d88565b30606483015242608483015203925af191826200106f575b505062000f76575b50505050505090915060085416600855565b62000f82904762000860565b91821598891562000f95575b5062000f64565b6003840299848b0460031417156200105e57505062000fbf600762000fd297989904809362000860565b948262000fe1575b50505050506200123f565b81903880808080808062000f8e565b818080858194608051165af1903d1562001057573d9062001002826200076c565b91620010118751938462000748565b8252843d92013e5b62001027575b808062000fc7565b7f693f9dbea0bdf9b70d480f9527e567d17ae3a41a5627c6515b034ac1869cf7a09251908152a13880806200101f565b5062001019565b634e487b7160e01b83526011905281fd5b81949294116200108457865291388062000f5c565b634e487b7160e01b825260418b528482fd5b8680fd5b620010a791925062000d61565b51605a810290808204605a1490151715620010c85760649004903862000f03565b634e487b7160e01b865260118d528686fd5b9091503d8089833e620010ee818362000748565b8101908a818303126200118a578051908782116200118e570181601f820112156200118a57805187811162001176578c519291600582901b9162001135838f018662000748565b84528c8085019282010192831162001172578c809101915b838310620011615750505050903862000efc565b82518152918101918d91016200114d565b8a80fd5b508f8960418c92634e487b7160e01b835252fd5b8880fd5b8980fd5b8651634a1406b160e11b8152808c01859052602490fd5b865163e602df0560e01b8152808c01859052602490fd5b90508681813d8311620011f9575b620011da818362000748565b81010312620011f557620011ee90620007f2565b3862000e5d565b8480fd5b503d620011ce565b88513d87823e3d90fd5b634e487b7160e01b82526032600452602482fd5b634e487b7160e01b82526041600452602482fd5b94955050505050600855565b801562000a50576200125062000c8d565b600a548015620013005762001269601054809362000807565b91620012f5575b670de0b6b3a7640000918281029281840414811517156200081557620012a960409260008051602062003ba2833981519152946200083f565b8015620012d357620012be90600d5462000807565b80600d5542600e5582519182526020820152a1565b50620012e28160105462000807565b601055600d5482519182526020820152a1565b600060105562001270565b50604081620012e260008051602062003ba2833981519152936010546200080756fe6080604081815260049182361015610022575b505050361561002057600080fd5b005b600092833560e01c91826303fd2a4514611406575081630445b667146113e757816306fdde031461131057816307c9bf2e146112d7578163095ea7b3146112ad57816313b9d47e1461128e57816318160ddd1461126f5781631a0108ec146105505781631e4c72921461124957816323b872dd1461115f5781632836be24146110e2578163313ce567146110c657816331d7a262146110a057816347b12bfc146110845781634e71d92d14610f975781635b09004414610cb057816364229d6814610c9157816370a0823114610c5a5781637165485d14610c16578163735de9f714610bed578163748747e614610b5e578163902d55a514610b3857816395d89b4114610a5257816398aecb6714610a2c5781639d0014b1146109a15781639d6eadc114610982578163a37a9fc014610550578163a47541ba14610933578163a8355c8f146107e2578163a9059cbb14610902578163aced1661146108d9578163b78d0538146107ff578163bacf2a7b146107e2578163bb103cbc146107c5578163c1db4015146107a6578163c45a015514610762578163c463ecd714610745578163c5f27b3014610726578163c5f509d614610700578163c7b12801146105ed578163c816841b146105c0578163ca81eb6614610593578163cba0e99614610555578163ce91e16414610550578163dbb51d6e146104d5578163dd62ed3e1461048c578163e7c2b77214610468578163f6ceefa21461026e575063f8077fae1461024d5780610012565b3461026a578160031936011261026a57602090600e549051908152f35b5080fd5b83833461026a57602080600319360112610464576001600160401b0390843590828211610460573660238301121561046057818601359283116104605760059260243682861b850182011161045c576102c56125b9565b6011546001600160a01b0398908916330361042e57609683116103fc575086938795885b84811061033457897f0f80654923fb0c7f7a44c79b000dca8e52e2f4a16092a26ff31c0a410291d3318a8a8a8a8351928352820152a1600160008051602061280a8339815191525580f35b8381839998991b840101358b8116908181036103f85761035381611c7b565b156103ea5761036190611bd0565b808b526009875260038a8c2001988954998c8b156103db578080808e818655875af161038b611873565b50156103cb57509060008051602061278a833981519152886103ba6103b48d6103c697966114b8565b9b6125e9565b9b8d51908152a26125e9565b6102e9565b6103c693925099909899556125e9565b5050979850506103c6906125e9565b50506103c6909796976125e9565b8b80fd5b600f6064928589519362461bcd60e51b85528401528201526e426174636820746f6f206c6172676560881b6044820152fd5b600b6064928589519362461bcd60e51b85528401528201526a27b7363c9035b2b2b832b960a91b6044820152fd5b8680fd5b8480fd5b8280fd5b50503461026a578160031936011261026a5760209060ff6005541690519015158152f35b50503461026a578060031936011261026a57806020926104aa61146b565b6104b2611486565b6001600160a01b0391821683526001865283832091168252845220549051908152f35b50503461026a57602036600319011261026a5760c09181906001600160a01b036104fd61146b565b168152600960205220908154916001810154600360028301549201549280519460018060801b038116865260018060401b038160801c166020870152861c908501526060840152608083015260a0820152f35b61149c565b50503461026a57602036600319011261026a5760209160ff9082906001600160a01b0361058061146b565b168152600f855220541690519015158152f35b50503461026a57602036600319011261026a576020906105b96105b461146b565b612143565b9051908152f35b50503461026a578160031936011261026a57600554905160089190911c6001600160a01b03168152602090f35b9190503461046457806003193601126104645761060861146b565b91610611611486565b6001600160a01b0391610647337f000000000000000000000000000000000000000000000000000000000000000085161461183a565b6005549060ff82166106c957506001600160a81b031916600885901b610100600160a81b031617600117600555600680546001600160a01b03191691831691909117905591909116808352600f602052908220805460ff191690557fc5ca2014458d93c5cf9f836ff7ece45de01c929dfb16eed9d6c3329fa1fd09828280a280f35b606490602086519162461bcd60e51b83528201526011602482015270105b1c9958591e4819dc98591d585d1959607a1b6044820152fd5b50503461026a57602036600319011261026a576020906105b961072161146b565b6126b4565b50503461026a578160031936011261026a57602090600d549051908152f35b50503461026a578160031936011261026a57602090516103e88152f35b50503461026a578160031936011261026a57517f00000000000000000000000000000000000000000000000000000000000000006001600160a01b03168152602090f35b50503461026a578160031936011261026a57602090600a549051908152f35b50503461026a578160031936011261026a57602090516107d08152f35b50503461026a578160031936011261026a57602090516101f48152f35b90508260031936011261046457826001600160a01b03610842337f000000000000000000000000000000000000000000000000000000000000000083161461183a565b3461084b575080f35b8180809234907f0000000000000000000000000000000000000000000000000000000000000000165af161087d611873565b50156108a15750602060008051602061274a8339815191529151348152a138808280f35b6020606492519162461bcd60e51b83528201526013602482015272141b185d199bdc9b48199dd90819985a5b1959606a1b6044820152fd5b50503461026a578160031936011261026a5760115490516001600160a01b039091168152602090f35b50503461026a578060031936011261026a5760209061092c61092261146b565b6024359033611514565b5160018152f35b838060031936011261097f57610973337f00000000000000000000000000000000000000000000000000000000000000006001600160a01b03161461183a565b61097c34612074565b80f35b80fd5b50503461026a578160031936011261026a57602090600b549051908152f35b905034610464576020366003190112610464578035916109eb337f00000000000000000000000000000000000000000000000000000000000000006001600160a01b03161461270e565b82156109f957505060075580f35b906020606492519162461bcd60e51b8352820152600d60248201526c109859081d1a1c995cda1bdb19609a1b6044820152fd5b50503461026a578160031936011261026a57602090516aa56fa5b99019a5c80000008152f35b83833461026a578160031936011261026a57805191809380549160019083821c92828516948515610b2e575b6020958686108114610b1b57858952908115610af75750600114610abc575b610ab88787610aae828c03836114db565b5191829182611422565b0390f35b9080949750528583205b828410610ae45750505082610ab894610aae92820101948680610a9d565b8054868501880152928601928101610ac6565b60ff19168887015250505050151560051b8301019250610aae82610ab88680610a9d565b634e487b7160e01b845260228352602484fd5b93607f1693610a7e565b50503461026a578160031936011261026a5751676765c793fa10079d601b1b8152602090f35b833461097f57602036600319011261097f57610b7861146b565b6001600160a01b0390610bae337f000000000000000000000000000000000000000000000000000000000000000084161461270e565b816011549116809282167f53d3703fe259def57584466f32d1b94c30278008c683c21b04501c4966f13a698580a36001600160a01b0319161760115580f35b50503461026a578160031936011261026a5760065490516001600160a01b039091168152602090f35b50503461026a578160031936011261026a57517f00000000000000000000000000000000000000000000000000000000000000006001600160a01b03168152602090f35b50503461026a57602036600319011261026a5760209181906001600160a01b03610c8261146b565b16815280845220549051908152f35b50503461026a578160031936011261026a57602090600c549051908152f35b83833461026a57602080600319360112610464578335916001600160a01b03917f000000000000000000000000000000000000000000000000000000000000000083811690610d0033831461183a565b8515978815610d0d578780f35b8215610f80578698610d1e83611bd0565b610d26611a9d565b6005549760ff9889811680610f74575b80610f60575b80610f4a575b610df1575b5050505080610d5f8899610d64939996979899611915565b611e88565b610d6c611cc5565b6005548681169687610de4575b5086610dd4575b505084610dbe575b50505081610db0575b50610da3575b80828080808080808780f35b610dab612205565b610d97565b905060065416151582610d91565b3082525283205460075411159150838381610d88565b60081c8516141594508680610d80565b6008541615965088610d79565b60081c88168581149261dead92918314848015610f43575b610e15575b5050610d47565b90919293949c508b90610f34575b6101f4908101809111610f2157610e4090612710918291856118b2565b049160968402908482046096141715610f0d578c9d506060610d649796948a8c9d9e9f809d610ea0610d5f9a988e986000805160206127ea8339815191529804958d8780610efd575b610e9390846118e5565b80610eeb575b50506118e5565b98610ec6575b915050519081528b8b8201528b8d820152a3999897969582938c80610e0e565b878252600990925220610ee390426001600160401b0316906118f2565b8a8c8e610ea6565b610ef69130906119b0565b8d38610e99565b610f0691611915565b8d87610e89565b50634e487b7160e01b8c5260118d5260248cfd5b634e487b7160e01b8c5260118d5260248cfd5b50610f3e85612143565b610e23565b5080610e09565b5061dead8b52600f875289888c20541615610d42565b50858b52600f875289888c20541615610d3c565b50896008541615610d36565b8451634b637e8f60e11b8152908101889052602490fd5b91905034610464578260031936011261046457610fb26125b9565b610fbb33611bd0565b338352600960205260038184200191825492831561104e578490558380808086335af1610fe6611873565b501561101a57505190815260008051602061278a83398151915260203392a2600160008051602061280a8339815191525580f35b6020606492519162461bcd60e51b8352820152600f60248201526e115512081cd95b990819985a5b1959608a1b6044820152fd5b506020606492519162461bcd60e51b8352820152601060248201526f4e6f7468696e6720746f20636c61696d60801b6044820152fd5b50503461026a578160031936011261026a576020905160c88152f35b50503461026a57602036600319011261026a576020906105b96110c161146b565b6125f8565b50503461026a578160031936011261026a576020905160128152f35b50503461026a578060031936011261026a576110fc61146b565b906024359182151580930361115b576001600160a01b0390611141337f000000000000000000000000000000000000000000000000000000000000000084161461270e565b168352600f60205282209060ff8019835416911617905580f35b8380fd5b9050823461097f57606036600319011261097f5761117b61146b565b611183611486565b916044359360018060a01b0383168083526001602052868320338452602052868320549160001983106111bf575b60208861092c898989611514565b8683106112275781156112105733156111f95750825260016020908152868320338452815291869020908590039055829061092c876111b1565b8751634a1406b160e11b8152908101849052602490fd5b875163e602df0560e01b8152908101849052602490fd5b9050611245868851938493637dc7a0d960e11b85523390850161181c565b0390fd5b50503461026a578160031936011261026a57516714adf4b7320334b9601d1b8152602090f35b50503461026a578160031936011261026a576020906002549051908152f35b50503461026a578160031936011261026a576020906010549051908152f35b50503461026a578060031936011261026a5760209061092c6112cd61146b565b6024359033611789565b50503461026a578160031936011261026a576020906105b96112fb600b54426118e5565b61130a600a5491600c546118b2565b906114b8565b91905034610464578260031936011261046457805191836003549060019082821c9282811680156113dd575b60209586861082146113ca57508488529081156113a8575060011461136d575b610ab88686610aae828b03836114db565b929550600383528583205b8284106113955750505082610ab894610aae92820101943861135c565b8054868501880152928601928101611378565b60ff191687860152505050151560051b8301019250610aae82610ab83861135c565b634e487b7160e01b845260229052602483fd5b93607f169361133c565b50503461026a578160031936011261026a576020906007549051908152f35b84903461026a578160031936011261026a578061dead60209252f35b6020808252825181830181905290939260005b82811061145757505060409293506000838284010152601f8019910116010190565b818101860151848201604001528501611435565b600435906001600160a01b038216820361148157565b600080fd5b602435906001600160a01b038216820361148157565b3461148157600036600319011261148157602060405160968152f35b919082018092116114c557565b634e487b7160e01b600052601160045260246000fd5b601f909101601f19168101906001600160401b038211908210176114fe57604052565b634e487b7160e01b600052604160045260246000fd5b6001600160a01b039291838216919082156117705784811691821561175757849261153e82611bd0565b61154783611bd0565b600554958760ff978881168061174b575b80611733575b8061171b575b6115fa575b5050505080610d5f61157f9484610d5f946119b0565b60055482811692836115ed575b50826115dd575b505090816115c1575b816115b3575b506115a957565b6115b1612205565b565b9050600654161515386115a2565b905030600052600060205260406000205460075411159061159c565b60081c8316141590503880611593565b600854161592503861158c565b60081c1682811491908714808015611714575b61161a575b899150611569565b909193929550600093611703575b6101f49384018094116114c55761164593612710948591846118b2565b049560968302838104609614841517156114c5576000805160206127ea8339815191526060610d5f9561169961157f9b610d5f9a8e960492836116f4575b61168d84836118e5565b806116e3575b506118e5565b956116bc575b6040519081526000602082015260006040820152a3948293611612565b60008581526009602052604090206116de90426001600160401b0316906118f2565b61169f565b6116ee90308d6119b0565b38611693565b6116fe848c611915565b611683565b925061170e82612143565b92611628565b508261160d565b5083600052600f602052886040600020541615611564565b5087600052600f60205288604060002054161561155e565b50886008541615611558565b60405163ec442f0560e01b815260006004820152602490fd5b604051634b637e8f60e11b815260006004820152602490fd5b6001600160a01b0390811691821561180357169182156117ea5760207f8c5be1e5ebec7d5bd14f71427d1e84f3dd0314c0f7b2291e5b200ac8c7c3b925918360005260018252604060002085600052825280604060002055604051908152a3565b604051634a1406b160e11b815260006004820152602490fd5b60405163e602df0560e01b815260006004820152602490fd5b604091949392606082019560018060a01b0316825260208201520152565b1561184157565b60405162461bcd60e51b815260206004820152600a6024820152694f6e6c7920637572766560b01b6044820152606490fd5b3d156118ad573d906001600160401b0382116114fe57604051916118a1601f8201601f1916602001846114db565b82523d6000602084013e565b606090565b818102929181159184041417156114c557565b81156118cf570490565b634e487b7160e01b600052601260045260246000fd5b919082039182116114c557565b80546001600160c01b031660c09290921b6001600160c01b031916919091179055565b6001600160a01b03811690816119675750611932826002546114b8565b6002555b6000805160206127ca833981519152602061dead9384600052600082526040600020818154019055604051908152a3565b600090828252816020526040822054908482106119935750836040918484528360205203912055611936565b6112458560405193849363391434e360e21b85526004850161181c565b6001600160a01b0380821692909183611a1857506000805160206127ca833981519152916020916119e3866002546114b8565b6002555b169384611a005780600254036002555b604051908152a3565b846000526000825260406000208181540190556119f7565b60009084825281602052604082205490868210611a5757509181604087602095886000805160206127ca833981519152989652838752039120556119e7565b6112458760405193849363391434e360e21b85526004850161181c565b8054600160801b600160c01b03191660809290921b600160801b600160c01b0316919091179055565b611aa5611c0c565b156115b15761dead6000526009602052600d547f960b1051749987b45b5679007fff577a1c2f763ec21c15a6c5eb19307500378780546115b19260008051602061276a8339815191529291611af9916118e5565b80611b48575b505080546001600160401b0390611b2f90611b20608082901c8416426118e5565b906001600160801b03166118b2565b611b3e600184019182546114b8565b9055421690611a74565b600e548354611b899161130a90611b7590608084901c6001600160401b03169081811115611bc9576118e5565b6001870154926001600160801b03166118b2565b80611b9d575b5050600d5490553880611aff565b670de0b6b3a764000091611bb0916118b2565b04611bc0600384019182546114b8565b90553880611b8f565b50806118e5565b611bd981611c7b565b15611c095760018060a01b031660005260096020526115b16040600020600d54611af960028301918254906118e5565b50565b61dead6000819052600f6020527f99629f56119585bf27511b6b7d295dffb54757453fcc3dabcf51d92028301f105460ff16611c755760055460081c6001600160a01b03168015159182611c6b575b5050611c6657600190565b600090565b1490503880611c5b565b50600090565b6001600160a01b03908116908115611cbe5781600052600f60205260ff60406000205416611cbe5760055460081c168015159182611c6b575050611c6657600190565b5050600090565b611ccd611c0c565b156115b15761dead6000818152600960205260008051602061276a8339815191529190611cf8612028565b8181526020819052604081205483546001600160801b03908116808310949193918580611e7f575b611e11575b50828181119586600014611dd55750611d4b925090611d43916118e5565b600c546114b8565b600c555b83546001600160801b0319169116178255426001600160401b031690611d758284611a74565b60ff60055416159081611dcd575b5080611d9b575b611d92575050565b6115b1916118f2565b50337f00000000000000000000000000000000000000000000000000000000000000006001600160a01b031614611d8a565b905038611d83565b611de2575b505050611d4f565b611deb916118e5565b600c54818110611e0a57611dff92506118e5565b600c55388082611dda565b5050611dff565b60018701805491611e35611e2e85611e2989876118b2565b6118c5565b80946118e5565b600a54818110611e585750611e4d9150600a546118e5565b600a555b5538611d25565b60008051602061282a8339815191529160409182519182526020820152a283600a55611e51565b50811515611d20565b611e9181611c7b565b15611c09576001600160a01b039081166000818152600960205260408120929190611eba612028565b8181526020819052604081205484546001600160801b0390811680831094919391858061201f575b611fbd575b50828181119586600014611f815750611f05925090611d43916118e5565b600c555b84546001600160801b0319169116178355426001600160401b031691611f2f8385611a74565b60ff60055416159182611f79575b5081611f4d575b50611d92575050565b90507f000000000000000000000000000000000000000000000000000000000000000016331438611f44565b915038611f3d565b611f8e575b505050611f09565b611f97916118e5565b600c54818110611fb657611fab92506118e5565b600c55388082611f86565b5050611fab565b60018801805491611fd5611e2e85611e2989876118b2565b600a54818110611ff85750611fed9150600a546118e5565b600a555b5538611ee7565b60008051602061282a8339815191529160409182519182526020820152a283600a55611ff1565b50811515611ee2565b612034600b54426118e5565b80151580612069575b612049575b5042600b55565b61205861206091600c546118b2565b600a546114b8565b600a5538612042565b50600c54151561203d565b8015611c0957612082612028565b600a5480156121245761209860105480936114b8565b9161211a575b670de0b6b3a7640000918281029281840414811517156114c5576120d36040926000805160206127aa833981519152946118c5565b80156120fa576120e590600d546114b8565b80600d5542600e5582519182526020820152a1565b50612107816010546114b8565b601055600d5482519182526020820152a1565b600060105561209e565b506040816121076000805160206127aa833981519152936010546114b8565b6001600160a01b031660009081526009602052604090205460c01c8015611c755761216e90426118e5565b61012c811061219b57610e10811061219457620151801161218e57600090565b6101f490565b506103e890565b506107d090565b8051600110156121b25760400190565b634e487b7160e01b600052603260045260246000fd5b90815180825260208080930193019160005b8281106121e8575050505090565b83516001600160a01b0316855293810193928101926001016121da565b60009060ff198060085416600181176008553084526020848152604090818620549283156125ad575081516001600160401b0396606082018881118382101761259957845260028252828201843682378251156125855730905260065484516315ab88c960e31b81526004996001600160a01b03979290919088169086818d81855afa90811561257b57908491869161253f575b50916122b3928a6122a9896121a2565b9116905230611789565b829387600654169487519563d06ca61f60e01b8752848d88015260249689888201528681806122e560448201886121c8565b0381855afa879181612493575b50612457575b504794813b1561045c5790869291838f6123368d519788968795869463791ac94760e01b86528501528d84015260a0604484015260a48301906121c8565b30606483015242608483015203925af19182612432575b5050612366575b50505050505090915060085416600855565b61237090476118e5565b918215988915612381575b50612354565b6003840299848b0460031417156124215750506123a760076123b89798990480936118e5565b94826123c6575b5050505050612074565b81903880808080808061237b565b81808481937f0000000000000000000000000000000000000000000000000000000000000000165af16123f7611873565b50612404575b80806123ae565b60008051602061274a8339815191529251908152a13880806123fd565b634e487b7160e01b83526011905281fd5b819492941161244557865291388061234d565b634e487b7160e01b825260418b528482fd5b6124629192506121a2565b51605a810290808204605a1490151715612481576064900490386122f8565b634e487b7160e01b865260118d528686fd5b9091503d8089833e6124a581836114db565b8101908a818303126125375780519087821161253b570181601f82011215612537578051878111612523578c519291600582901b916124e6838f01866114db565b84528c8085019282010192831161251f578c809101915b83831061250f575050505090386122f2565b82518152918101918d91016124fd565b8a80fd5b508f8960418c92634e487b7160e01b835252fd5b8880fd5b8980fd5b809250888092503d8311612574575b61255881836114db565b81010312610460575188811681036104605783906122b3612299565b503d61254e565b88513d87823e3d90fd5b634e487b7160e01b82526032600452602482fd5b634e487b7160e01b82526041600452602482fd5b94955050505050600855565b60008051602061280a83398151915260028154146125d75760029055565b604051633ee5aeb560e01b8152600490fd5b60001981146114c55760010190565b61260181611c7b565b15611c755760018060a01b03166000526009602052612643604060002061262f600d546002830154906118e5565b9060009180612646575b50600301546114b8565b90565b600e5482546126879161130a9061267390608084901c6001600160401b03169081811115611bc9576118e5565b6001860154926001600160801b03166118b2565b80612693575b50612639565b6003929350670de0b6b3a7640000916126ab916118b2565b0491903861268d565b6126bd81611c7b565b15611c75576001600160a01b0316600090815260096020526040902080546126439161130a9060016126fc608085901c6001600160401b0316426118e5565b910154926001600160801b03166118b2565b1561271557565b60405162461bcd60e51b815260206004820152600c60248201526b4f6e6c7920666163746f727960a01b6044820152606490fdfe693f9dbea0bdf9b70d480f9527e567d17ae3a41a5627c6515b034ac1869cf7a0960b1051749987b45b5679007fff577a1c2f763ec21c15a6c5eb193075003785fc30cddea38e2bf4d6ea7d3f9ed3b6ad7f176419f4963bd81318067a4aee73fe8ad0c4905aa5603107e860e0c2b1a78e23eba312c30f8114a70d94d9e187f5afddf252ad1be2c89b69c2b068fc378daa952ba7f163c4a11628f55a4df523b3efe9bc91a33ddf896d889747b2f39f4192c802fd62364780086853fcd8e19e8ffa9b779b17422d0df92223018b32b4d1fa46e071723d6817e2486d003becc55f00d5fc571c0f24626ceeb4a7223a10b7b571f3e6c810a1ec1991ba28b6494b06a1a2646970667358221220536ae9ba92013ccea055268979036058e4f8c09621266c8f4134ff1ee833976764736f6c634300081400338ad0c4905aa5603107e860e0c2b1a78e23eba312c30f8114a70d94d9e187f5afddf252ad1be2c89b69c2b068fc378daa952ba7f163c4a11628f55a4df523b3ef","opcodes":"PUSH1 0xC0 PUSH1 0x40 SWAP1 DUP1 DUP3 MSTORE CALLVALUE PUSH3 0x743 JUMPI PUSH3 0x3BE2 DUP1 CODESIZE SUB DUP1 SWAP2 PUSH3 0x22 DUP3 DUP6 PUSH3 0x748 JUMP JUMPDEST DUP4 CODECOPY DUP2 ADD SWAP1 PUSH1 0x80 DUP2 DUP4 SUB SLT PUSH3 0x743 JUMPI DUP1 MLOAD PUSH1 0x1 PUSH1 0x1 PUSH1 0x40 SHL SUB SWAP3 SWAP1 DUP4 DUP2 GT PUSH3 0x743 JUMPI DUP2 PUSH3 0x54 SWAP2 DUP5 ADD PUSH3 0x788 JUMP JUMPDEST PUSH1 0x20 SWAP2 DUP3 DUP5 ADD MLOAD SWAP1 DUP6 DUP3 GT PUSH3 0x743 JUMPI PUSH3 0x71 SWAP2 DUP6 ADD PUSH3 0x788 JUMP JUMPDEST SWAP1 PUSH3 0x8D PUSH1 0x60 PUSH3 0x85 DUP9 DUP8 ADD PUSH3 0x7F2 JUMP JUMPDEST SWAP6 ADD PUSH3 0x7F2 JUMP JUMPDEST SWAP2 DUP2 MLOAD DUP7 DUP2 GT PUSH3 0x643 JUMPI PUSH1 0x3 DUP1 SLOAD SWAP2 PUSH1 0x1 SWAP5 DUP6 DUP5 DUP2 SHR SWAP5 AND DUP1 ISZERO PUSH3 0x738 JUMPI JUMPDEST DUP9 DUP6 LT EQ PUSH3 0x722 JUMPI DUP2 SWAP1 PUSH1 0x1F SWAP5 DUP6 DUP2 GT PUSH3 0x6CC JUMPI JUMPDEST POP DUP9 SWAP1 DUP6 DUP4 GT PUSH1 0x1 EQ PUSH3 0x665 JUMPI PUSH1 0x0 SWAP3 PUSH3 0x659 JUMPI JUMPDEST POP POP PUSH1 0x0 NOT DUP3 DUP5 SHL SHR NOT AND SWAP1 DUP6 SHL OR DUP2 SSTORE JUMPDEST DUP3 MLOAD SWAP2 DUP9 DUP4 GT PUSH3 0x643 JUMPI PUSH1 0x4 SWAP4 DUP5 SLOAD DUP7 DUP2 DUP2 SHR SWAP2 AND DUP1 ISZERO PUSH3 0x638 JUMPI JUMPDEST DUP10 DUP3 LT EQ PUSH3 0x623 JUMPI SWAP1 DUP2 DUP4 DUP7 SWAP6 SWAP5 SWAP4 GT PUSH3 0x5C9 JUMPI JUMPDEST POP DUP9 SWAP2 DUP5 GT PUSH1 0x1 EQ PUSH3 0x55E JUMPI PUSH1 0x0 SWAP4 PUSH3 0x552 JUMPI JUMPDEST POP POP DUP3 DUP6 SHL SWAP3 PUSH1 0x0 NOT SWAP2 SHL SHR NOT AND OR DUP2 SSTORE JUMPDEST DUP2 PUSH32 0x9B779B17422D0DF92223018B32B4D1FA46E071723D6817E2486D003BECC55F00 SSTORE PUSH10 0x152D02C7E14AF6800000 PUSH1 0x7 SSTORE DUP5 PUSH1 0x80 MSTORE DUP3 PUSH1 0xA0 MSTORE PUSH1 0x1 DUP1 PUSH1 0xA0 SHL SUB SWAP5 DUP6 DUP5 AND SWAP1 DUP2 PUSH1 0x0 MSTORE PUSH1 0xF DUP7 MSTORE DUP7 DUP10 PUSH1 0x0 KECCAK256 SWAP2 PUSH1 0xFF NOT SWAP3 DUP7 DUP5 DUP3 SLOAD AND OR SWAP1 SSTORE AND PUSH1 0x0 MSTORE DUP9 PUSH1 0x0 KECCAK256 DUP5 DUP3 DUP3 SLOAD AND OR SWAP1 SSTORE PUSH2 0xDEAD SWAP4 DUP5 PUSH1 0x0 MSTORE DUP10 PUSH1 0x0 KECCAK256 DUP2 DUP4 DUP3 SLOAD AND OR SWAP1 SSTORE ADDRESS PUSH1 0x0 MSTORE DUP10 PUSH1 0x0 KECCAK256 DUP2 DUP4 DUP3 SLOAD AND OR SWAP1 SSTORE PUSH1 0x0 DUP1 MSTORE DUP10 PUSH1 0x0 KECCAK256 SWAP2 DUP3 SLOAD AND OR SWAP1 SSTORE TIMESTAMP PUSH1 0xB SSTORE DUP1 ISZERO PUSH3 0x53B JUMPI PUSH12 0x33B2E3C9FD0803CE8000000 SWAP3 PUSH3 0x211 DUP6 PUSH3 0x91B JUMP JUMPDEST PUSH1 0x5 SLOAD SWAP8 DUP8 PUSH1 0xFF SWAP10 DUP11 DUP2 AND DUP1 PUSH3 0x52E JUMPI JUMPDEST DUP1 PUSH3 0x517 JUMPI JUMPDEST DUP1 PUSH3 0x500 JUMPI JUMPDEST PUSH3 0x346 JUMPI JUMPDEST POP POP POP POP POP POP SWAP1 PUSH3 0x24E PUSH3 0x254 SWAP3 DUP3 PUSH3 0x891 JUMP JUMPDEST PUSH3 0xAB2 JUMP JUMPDEST PUSH1 0x5 SLOAD DUP4 DUP2 AND SWAP4 DUP5 PUSH3 0x338 JUMPI JUMPDEST POP DUP4 PUSH3 0x328 JUMPI JUMPDEST POP DUP3 PUSH3 0x30D JUMPI JUMPDEST POP DUP2 PUSH3 0x2FE JUMPI JUMPDEST POP PUSH3 0x2EE JUMPI JUMPDEST MLOAD PUSH2 0x287F SWAP1 DUP2 PUSH3 0x1323 DUP3 CODECOPY PUSH1 0x80 MLOAD DUP2 DUP2 DUP2 PUSH2 0x777 ADD MSTORE DUP2 DUP2 PUSH2 0x853 ADD MSTORE DUP2 DUP2 PUSH2 0x9BD ADD MSTORE DUP2 DUP2 PUSH2 0xB87 ADD MSTORE DUP2 DUP2 PUSH2 0x111A ADD MSTORE PUSH2 0x23CD ADD MSTORE PUSH1 0xA0 MLOAD DUP2 DUP2 DUP2 PUSH2 0x620 ADD MSTORE DUP2 DUP2 PUSH2 0x81B ADD MSTORE DUP2 DUP2 PUSH2 0x945 ADD MSTORE DUP2 DUP2 PUSH2 0xC2B ADD MSTORE DUP2 DUP2 PUSH2 0xCD2 ADD MSTORE DUP2 DUP2 PUSH2 0x1D9F ADD MSTORE PUSH2 0x1F51 ADD MSTORE RETURN JUMPDEST PUSH3 0x2F8 PUSH3 0xDC7 JUMP JUMPDEST PUSH3 0x281 JUMP JUMPDEST SWAP1 POP PUSH1 0x6 SLOAD AND ISZERO ISZERO CODESIZE PUSH3 0x27A JUMP JUMPDEST PUSH1 0x0 SWAP2 SWAP3 POP ADDRESS DUP3 MSTORE MSTORE DUP2 PUSH1 0x0 KECCAK256 SLOAD PUSH1 0x7 SLOAD GT ISZERO SWAP1 CODESIZE PUSH3 0x272 JUMP JUMPDEST PUSH1 0x8 SHR DUP3 AND ISZERO ISZERO SWAP3 POP CODESIZE PUSH3 0x26A JUMP JUMPDEST PUSH1 0x8 SLOAD AND ISZERO SWAP4 POP CODESIZE PUSH3 0x262 JUMP JUMPDEST PUSH1 0x8 SHR AND SWAP4 DUP5 ISZERO SWAP5 DUP5 EQ DUP6 DUP7 ISZERO PUSH3 0x4F8 JUMPI JUMPDEST PUSH3 0x368 JUMPI JUMPDEST DUP10 SWAP2 POP PUSH3 0x237 JUMP JUMPDEST PUSH1 0x0 SWAP7 SWAP3 SWAP4 SWAP5 SWAP6 SWAP7 SWAP1 PUSH3 0x4E7 JUMPI JUMPDEST PUSH2 0x1F4 SWAP1 DUP2 ADD DUP1 SWAP2 GT PUSH3 0x4D2 JUMPI DUP1 DUP4 MUL SWAP1 DUP4 DUP3 DIV SUB PUSH3 0x4D2 JUMPI PUSH2 0x2710 SWAP1 DIV PUSH1 0x2 SLOAD SWAP5 PUSH11 0xC685FA11E01EC6F000000 SWAP6 DUP7 DUP2 ADD DUP1 SWAP2 GT PUSH3 0x4BD JUMPI PUSH1 0x0 DUP1 MLOAD PUSH1 0x20 PUSH3 0x3BC2 DUP4 CODECOPY DUP2 MLOAD SWAP2 MSTORE DUP12 DUP16 PUSH1 0x0 SWAP4 PUSH1 0x2 SSTORE DUP5 DUP5 MSTORE DUP4 DUP3 MSTORE DUP1 DUP5 KECCAK256 DUP11 DUP2 SLOAD ADD SWAP1 SSTORE MLOAD DUP10 DUP2 MSTORE LOG3 PUSH11 0xC685FA11E01EC6EFFFFFF NOT DUP2 ADD DUP2 DUP2 GT PUSH3 0x4A8 JUMPI DUP1 PUSH3 0x495 JUMPI JUMPDEST POP DUP3 SUB SWAP2 DUP3 GT PUSH3 0x480 JUMPI POP PUSH32 0xE9BC91A33DDF896D889747B2F39F4192C802FD62364780086853FCD8E19E8FFA PUSH1 0x60 PUSH3 0x254 SWAP8 SWAP7 SWAP5 PUSH3 0x24E SWAP7 SWAP5 DUP14 PUSH1 0x0 SWAP6 SWAP8 PUSH3 0x461 JUMPI JUMPDEST SWAP1 POP MLOAD SWAP1 DUP2 MSTORE DUP4 DUP11 DUP3 ADD MSTORE DUP4 DUP14 DUP3 ADD MSTORE LOG3 SWAP2 SWAP3 CODESIZE DUP1 DUP1 DUP1 PUSH3 0x35F JUMP JUMPDEST PUSH3 0x478 SWAP2 DUP8 DUP8 MSTORE PUSH1 0x9 DUP14 MSTORE TIMESTAMP AND SWAP1 DUP7 KECCAK256 PUSH3 0x86E JUMP JUMPDEST CODESIZE DUP14 PUSH3 0x444 JUMP JUMPDEST PUSH1 0x11 SWAP1 PUSH4 0x4E487B71 PUSH1 0xE0 SHL PUSH1 0x0 MSTORE MSTORE PUSH1 0x24 PUSH1 0x0 REVERT JUMPDEST PUSH3 0x4A1 SWAP1 ADDRESS PUSH3 0x891 JUMP JUMPDEST CODESIZE PUSH3 0x3FD JUMP JUMPDEST PUSH1 0x11 DUP4 PUSH4 0x4E487B71 PUSH1 0xE0 SHL PUSH1 0x0 MSTORE MSTORE PUSH1 0x24 PUSH1 0x0 REVERT JUMPDEST PUSH1 0x11 DUP5 PUSH4 0x4E487B71 PUSH1 0xE0 SHL PUSH1 0x0 MSTORE MSTORE PUSH1 0x24 PUSH1 0x0 REVERT JUMPDEST PUSH1 0x11 DUP3 PUSH4 0x4E487B71 PUSH1 0xE0 SHL PUSH1 0x0 MSTORE MSTORE PUSH1 0x24 PUSH1 0x0 REVERT JUMPDEST POP PUSH3 0x4F2 PUSH3 0xCE3 JUMP JUMPDEST PUSH3 0x377 JUMP JUMPDEST POP DUP1 PUSH3 0x359 JUMP JUMPDEST POP DUP5 PUSH1 0x0 MSTORE PUSH1 0xF DUP10 MSTORE DUP11 DUP13 PUSH1 0x0 KECCAK256 SLOAD AND ISZERO PUSH3 0x231 JUMP JUMPDEST POP PUSH1 0x0 DUP1 MSTORE PUSH1 0xF DUP10 MSTORE DUP11 DUP13 PUSH1 0x0 KECCAK256 SLOAD AND ISZERO PUSH3 0x22A JUMP JUMPDEST POP DUP11 PUSH1 0x8 SLOAD AND ISZERO PUSH3 0x223 JUMP JUMPDEST DUP8 MLOAD PUSH4 0xEC442F05 PUSH1 0xE0 SHL DUP2 MSTORE PUSH1 0x0 DUP2 DUP5 ADD MSTORE PUSH1 0x24 SWAP1 REVERT JUMPDEST ADD MLOAD SWAP2 POP CODESIZE DUP1 PUSH3 0x139 JUMP JUMPDEST SWAP2 SWAP1 DUP7 SWAP5 POP PUSH1 0x1F NOT DUP5 AND SWAP3 DUP7 PUSH1 0x0 MSTORE DUP10 PUSH1 0x0 KECCAK256 SWAP4 PUSH1 0x0 JUMPDEST DUP12 DUP3 DUP3 LT PUSH3 0x5B2 JUMPI POP POP DUP6 GT PUSH3 0x597 JUMPI JUMPDEST POP POP POP POP DUP2 SHL ADD DUP2 SSTORE PUSH3 0x14B JUMP JUMPDEST ADD MLOAD SWAP1 PUSH1 0xF8 DUP5 PUSH1 0x0 NOT SWAP3 SHL AND SHR NOT AND SWAP1 SSTORE CODESIZE DUP1 DUP1 DUP1 PUSH3 0x588 JUMP JUMPDEST DUP4 DUP6 ADD MLOAD DUP8 SSTORE DUP11 SWAP9 SWAP1 SWAP7 ADD SWAP6 SWAP4 DUP5 ADD SWAP4 ADD PUSH3 0x575 JUMP JUMPDEST SWAP1 SWAP2 SWAP3 SWAP4 POP DUP6 PUSH1 0x0 MSTORE DUP9 PUSH1 0x0 KECCAK256 DUP4 DUP1 DUP8 ADD PUSH1 0x5 SHR DUP3 ADD SWAP3 DUP12 DUP9 LT PUSH3 0x619 JUMPI JUMPDEST SWAP2 DUP10 SWAP2 DUP9 SWAP8 SWAP7 SWAP6 SWAP5 SWAP4 ADD PUSH1 0x5 SHR ADD SWAP2 JUMPDEST DUP3 DUP2 LT PUSH3 0x609 JUMPI POP POP PUSH3 0x123 JUMP JUMPDEST PUSH1 0x0 DUP2 SSTORE DUP8 SWAP7 POP DUP10 SWAP2 ADD PUSH3 0x5F9 JUMP JUMPDEST SWAP3 POP DUP2 SWAP3 PUSH3 0x5E9 JUMP JUMPDEST PUSH1 0x22 DUP7 PUSH4 0x4E487B71 PUSH1 0xE0 SHL PUSH1 0x0 MSTORE MSTORE PUSH1 0x24 PUSH1 0x0 REVERT JUMPDEST SWAP1 PUSH1 0x7F AND SWAP1 PUSH3 0x10C JUMP JUMPDEST PUSH4 0x4E487B71 PUSH1 0xE0 SHL PUSH1 0x0 MSTORE PUSH1 0x41 PUSH1 0x4 MSTORE PUSH1 0x24 PUSH1 0x0 REVERT JUMPDEST ADD MLOAD SWAP1 POP CODESIZE DUP1 PUSH3 0xDC JUMP JUMPDEST SWAP1 DUP8 SWAP4 POP PUSH1 0x1F NOT DUP4 AND SWAP2 DUP6 PUSH1 0x0 MSTORE DUP11 PUSH1 0x0 KECCAK256 SWAP3 PUSH1 0x0 JUMPDEST DUP13 DUP3 DUP3 LT PUSH3 0x6B5 JUMPI POP POP DUP5 GT PUSH3 0x69C JUMPI JUMPDEST POP POP POP DUP2 SHL ADD DUP2 SSTORE PUSH3 0xEE JUMP JUMPDEST ADD MLOAD PUSH1 0x0 NOT DUP4 DUP7 SHL PUSH1 0xF8 AND SHR NOT AND SWAP1 SSTORE CODESIZE DUP1 DUP1 PUSH3 0x68E JUMP JUMPDEST DUP4 DUP6 ADD MLOAD DUP7 SSTORE DUP12 SWAP8 SWAP1 SWAP6 ADD SWAP5 SWAP4 DUP5 ADD SWAP4 ADD PUSH3 0x67B JUMP JUMPDEST SWAP1 SWAP2 POP DUP4 PUSH1 0x0 MSTORE DUP9 PUSH1 0x0 KECCAK256 DUP6 DUP1 DUP6 ADD PUSH1 0x5 SHR DUP3 ADD SWAP3 DUP12 DUP7 LT PUSH3 0x718 JUMPI JUMPDEST SWAP2 DUP10 SWAP2 DUP7 SWAP6 SWAP5 SWAP4 ADD PUSH1 0x5 SHR ADD SWAP2 JUMPDEST DUP3 DUP2 LT PUSH3 0x708 JUMPI POP POP PUSH3 0xC5 JUMP JUMPDEST PUSH1 0x0 DUP2 SSTORE DUP6 SWAP5 POP DUP10 SWAP2 ADD PUSH3 0x6F8 JUMP JUMPDEST SWAP3 POP DUP2 SWAP3 PUSH3 0x6EA JUMP JUMPDEST PUSH4 0x4E487B71 PUSH1 0xE0 SHL PUSH1 0x0 MSTORE PUSH1 0x22 PUSH1 0x4 MSTORE PUSH1 0x24 PUSH1 0x0 REVERT JUMPDEST SWAP4 PUSH1 0x7F AND SWAP4 PUSH3 0xAE JUMP JUMPDEST PUSH1 0x0 DUP1 REVERT JUMPDEST PUSH1 0x1F SWAP1 SWAP2 ADD PUSH1 0x1F NOT AND DUP2 ADD SWAP1 PUSH1 0x1 PUSH1 0x1 PUSH1 0x40 SHL SUB DUP3 GT SWAP1 DUP3 LT OR PUSH3 0x643 JUMPI PUSH1 0x40 MSTORE JUMP JUMPDEST PUSH1 0x1 PUSH1 0x1 PUSH1 0x40 SHL SUB DUP2 GT PUSH3 0x643 JUMPI PUSH1 0x1F ADD PUSH1 0x1F NOT AND PUSH1 0x20 ADD SWAP1 JUMP JUMPDEST SWAP2 SWAP1 DUP1 PUSH1 0x1F DUP5 ADD SLT ISZERO PUSH3 0x743 JUMPI DUP3 MLOAD SWAP1 PUSH3 0x7A4 DUP3 PUSH3 0x76C JUMP JUMPDEST SWAP2 PUSH3 0x7B4 PUSH1 0x40 MLOAD SWAP4 DUP5 PUSH3 0x748 JUMP JUMPDEST DUP1 DUP4 MSTORE PUSH1 0x20 SWAP2 DUP3 DUP3 DUP8 ADD ADD GT PUSH3 0x743 JUMPI PUSH1 0x0 JUMPDEST DUP2 DUP2 LT PUSH3 0x7DE JUMPI POP DUP3 PUSH1 0x0 SWAP4 SWAP5 SWAP6 POP ADD ADD MSTORE SWAP1 JUMP JUMPDEST DUP6 DUP2 ADD DUP4 ADD MLOAD DUP5 DUP3 ADD DUP5 ADD MSTORE DUP3 ADD PUSH3 0x7C8 JUMP JUMPDEST MLOAD SWAP1 PUSH1 0x1 PUSH1 0x1 PUSH1 0xA0 SHL SUB DUP3 AND DUP3 SUB PUSH3 0x743 JUMPI JUMP JUMPDEST SWAP2 SWAP1 DUP3 ADD DUP1 SWAP3 GT PUSH3 0x815 JUMPI JUMP JUMPDEST PUSH4 0x4E487B71 PUSH1 0xE0 SHL PUSH1 0x0 MSTORE PUSH1 0x11 PUSH1 0x4 MSTORE PUSH1 0x24 PUSH1 0x0 REVERT JUMPDEST DUP2 DUP2 MUL SWAP3 SWAP2 DUP2 ISZERO SWAP2 DUP5 DIV EQ OR ISZERO PUSH3 0x815 JUMPI JUMP JUMPDEST DUP2 ISZERO PUSH3 0x84A JUMPI DIV SWAP1 JUMP JUMPDEST PUSH4 0x4E487B71 PUSH1 0xE0 SHL PUSH1 0x0 MSTORE PUSH1 0x12 PUSH1 0x4 MSTORE PUSH1 0x24 PUSH1 0x0 REVERT JUMPDEST SWAP2 SWAP1 DUP3 SUB SWAP2 DUP3 GT PUSH3 0x815 JUMPI JUMP JUMPDEST DUP1 SLOAD PUSH1 0x1 PUSH1 0x1 PUSH1 0xC0 SHL SUB AND PUSH1 0xC0 SWAP3 SWAP1 SWAP3 SHL PUSH1 0x1 PUSH1 0x1 PUSH1 0xC0 SHL SUB NOT AND SWAP2 SWAP1 SWAP2 OR SWAP1 SSTORE JUMP JUMPDEST PUSH1 0x0 DUP1 MLOAD PUSH1 0x20 PUSH3 0x3BC2 DUP4 CODECOPY DUP2 MLOAD SWAP2 MSTORE PUSH1 0x20 PUSH1 0x0 SWAP3 PUSH3 0x8B4 DUP6 PUSH1 0x2 SLOAD PUSH3 0x807 JUMP JUMPDEST PUSH1 0x2 SSTORE PUSH1 0x1 PUSH1 0x1 PUSH1 0xA0 SHL SUB AND SWAP4 DUP5 ISZERO DUP5 EQ PUSH3 0x8DC JUMPI DUP1 PUSH1 0x2 SLOAD SUB PUSH1 0x2 SSTORE JUMPDEST PUSH1 0x40 MLOAD SWAP1 DUP2 MSTORE LOG3 JUMP JUMPDEST DUP5 DUP5 MSTORE DUP4 DUP3 MSTORE PUSH1 0x40 DUP5 KECCAK256 DUP2 DUP2 SLOAD ADD SWAP1 SSTORE PUSH3 0x8D3 JUMP JUMPDEST DUP1 SLOAD PUSH1 0x1 PUSH1 0x80 SHL PUSH1 0x1 PUSH1 0xC0 SHL SUB NOT AND PUSH1 0x80 SWAP3 SWAP1 SWAP3 SHL PUSH1 0x1 PUSH1 0x80 SHL PUSH1 0x1 PUSH1 0xC0 SHL SUB AND SWAP2 SWAP1 SWAP2 OR SWAP1 SSTORE JUMP JUMPDEST PUSH3 0x926 DUP2 PUSH3 0xA53 JUMP JUMPDEST ISZERO PUSH3 0xA50 JUMPI PUSH1 0x1 DUP1 PUSH1 0xA0 SHL SUB AND PUSH1 0x0 MSTORE PUSH1 0x9 PUSH1 0x20 MSTORE PUSH3 0x9B1 PUSH1 0x40 PUSH1 0x0 KECCAK256 PUSH1 0xD SLOAD PUSH3 0x95A PUSH1 0x2 DUP4 ADD SWAP2 DUP3 SLOAD SWAP1 PUSH3 0x860 JUMP JUMPDEST DUP1 PUSH3 0x9B3 JUMPI JUMPDEST POP POP DUP1 SLOAD PUSH1 0x1 PUSH1 0x1 PUSH1 0x40 SHL SUB SWAP1 PUSH3 0x995 SWAP1 PUSH3 0x985 PUSH1 0x80 DUP3 SWAP1 SHR DUP5 AND TIMESTAMP PUSH3 0x860 JUMP JUMPDEST SWAP1 PUSH1 0x1 PUSH1 0x1 PUSH1 0x80 SHL SUB AND PUSH3 0x82B JUMP JUMPDEST PUSH3 0x9A6 PUSH1 0x1 DUP5 ADD SWAP2 DUP3 SLOAD PUSH3 0x807 JUMP JUMPDEST SWAP1 SSTORE TIMESTAMP AND SWAP1 PUSH3 0x8F2 JUMP JUMPDEST JUMP JUMPDEST PUSH1 0xE SLOAD DUP4 SLOAD PUSH3 0xA01 SWAP2 PUSH3 0x9FA SWAP1 PUSH3 0x9E5 SWAP1 PUSH1 0x80 DUP5 SWAP1 SHR PUSH1 0x1 PUSH1 0x1 PUSH1 0x40 SHL SUB AND SWAP1 DUP2 DUP2 GT ISZERO PUSH3 0xA48 JUMPI PUSH3 0x860 JUMP JUMPDEST PUSH1 0x1 DUP8 ADD SLOAD SWAP3 PUSH1 0x1 PUSH1 0x1 PUSH1 0x80 SHL SUB AND PUSH3 0x82B JUMP JUMPDEST SWAP1 PUSH3 0x807 JUMP JUMPDEST DUP1 PUSH3 0xA17 JUMPI JUMPDEST POP POP PUSH1 0xD SLOAD SWAP1 SSTORE CODESIZE DUP1 PUSH3 0x961 JUMP JUMPDEST PUSH8 0xDE0B6B3A7640000 SWAP2 PUSH3 0xA2C SWAP2 PUSH3 0x82B JUMP JUMPDEST DIV PUSH3 0xA3E PUSH1 0x3 DUP5 ADD SWAP2 DUP3 SLOAD PUSH3 0x807 JUMP JUMPDEST SWAP1 SSTORE CODESIZE DUP1 PUSH3 0xA08 JUMP JUMPDEST POP DUP1 PUSH3 0x860 JUMP JUMPDEST POP JUMP JUMPDEST PUSH1 0x1 PUSH1 0x1 PUSH1 0xA0 SHL SUB SWAP1 DUP2 AND SWAP1 DUP2 ISZERO PUSH3 0xAAB JUMPI DUP2 PUSH1 0x0 MSTORE PUSH1 0xF PUSH1 0x20 MSTORE PUSH1 0xFF PUSH1 0x40 PUSH1 0x0 KECCAK256 SLOAD AND PUSH3 0xAAB JUMPI PUSH1 0x5 SLOAD PUSH1 0x8 SHR AND DUP1 ISZERO ISZERO SWAP2 DUP3 PUSH3 0xAA0 JUMPI JUMPDEST POP POP PUSH3 0xA9B JUMPI PUSH1 0x1 SWAP1 JUMP JUMPDEST PUSH1 0x0 SWAP1 JUMP JUMPDEST EQ SWAP1 POP CODESIZE DUP1 PUSH3 0xA8F JUMP JUMPDEST POP POP PUSH1 0x0 SWAP1 JUMP JUMPDEST PUSH3 0xABD DUP2 PUSH3 0xA53 JUMP JUMPDEST ISZERO PUSH3 0xA50 JUMPI PUSH1 0x1 PUSH1 0x1 PUSH1 0xA0 SHL SUB SWAP1 DUP2 AND PUSH1 0x0 DUP2 DUP2 MSTORE PUSH1 0x9 PUSH1 0x20 MSTORE PUSH1 0x40 DUP2 KECCAK256 SWAP3 SWAP2 SWAP1 PUSH3 0xAE9 PUSH3 0xC8D JUMP JUMPDEST DUP2 DUP2 MSTORE PUSH1 0x20 DUP2 SWAP1 MSTORE PUSH1 0x40 DUP2 KECCAK256 SLOAD DUP5 SLOAD PUSH1 0x1 PUSH1 0x1 PUSH1 0x80 SHL SUB SWAP1 DUP2 AND DUP1 DUP4 LT SWAP5 SWAP2 SWAP4 SWAP2 DUP6 DUP1 PUSH3 0xC83 JUMPI JUMPDEST PUSH3 0xBF8 JUMPI JUMPDEST POP DUP3 DUP2 DUP2 GT SWAP6 DUP7 PUSH1 0x0 EQ PUSH3 0xBB3 JUMPI POP PUSH3 0xB43 SWAP3 POP SWAP1 PUSH3 0xB3A SWAP2 PUSH3 0x860 JUMP JUMPDEST PUSH1 0xC SLOAD PUSH3 0x807 JUMP JUMPDEST PUSH1 0xC SSTORE JUMPDEST DUP5 SLOAD PUSH1 0x1 PUSH1 0x1 PUSH1 0x80 SHL SUB NOT AND SWAP2 AND OR DUP4 SSTORE TIMESTAMP PUSH1 0x1 PUSH1 0x1 PUSH1 0x40 SHL SUB AND SWAP2 PUSH3 0xB6F DUP4 DUP6 PUSH3 0x8F2 JUMP JUMPDEST PUSH1 0xFF PUSH1 0x5 SLOAD AND ISZERO SWAP2 DUP3 PUSH3 0xBAA JUMPI JUMPDEST POP DUP2 PUSH3 0xB9B JUMPI JUMPDEST POP PUSH3 0xB90 JUMPI POP POP JUMP JUMPDEST PUSH3 0x9B1 SWAP2 PUSH3 0x86E JUMP JUMPDEST SWAP1 POP PUSH1 0xA0 MLOAD AND CALLER EQ CODESIZE PUSH3 0xB86 JUMP JUMPDEST SWAP2 POP CODESIZE PUSH3 0xB7E JUMP JUMPDEST PUSH3 0xBC2 JUMPI JUMPDEST POP POP POP PUSH3 0xB47 JUMP JUMPDEST PUSH3 0xBCD SWAP2 PUSH3 0x860 JUMP JUMPDEST PUSH1 0xC SLOAD DUP2 DUP2 LT PUSH3 0xBF0 JUMPI PUSH3 0xBE4 SWAP3 POP PUSH3 0x860 JUMP JUMPDEST PUSH1 0xC SSTORE CODESIZE DUP1 DUP3 PUSH3 0xBB9 JUMP JUMPDEST POP POP PUSH3 0xBE4 JUMP JUMPDEST PUSH1 0x1 DUP9 ADD DUP1 SLOAD SWAP2 PUSH3 0xC22 PUSH3 0xC1A DUP6 PUSH3 0xC14 DUP10 DUP8 PUSH3 0x82B JUMP JUMPDEST PUSH3 0x83F JUMP JUMPDEST DUP1 SWAP5 PUSH3 0x860 JUMP JUMPDEST PUSH1 0xA SLOAD DUP2 DUP2 LT PUSH3 0xC49 JUMPI POP PUSH3 0xC3D SWAP2 POP PUSH1 0xA SLOAD PUSH3 0x860 JUMP JUMPDEST PUSH1 0xA SSTORE JUMPDEST SSTORE CODESIZE PUSH3 0xB18 JUMP JUMPDEST PUSH32 0xD5FC571C0F24626CEEB4A7223A10B7B571F3E6C810A1EC1991BA28B6494B06A1 SWAP2 PUSH1 0x40 SWAP2 DUP3 MLOAD SWAP2 DUP3 MSTORE PUSH1 0x20 DUP3 ADD MSTORE LOG2 DUP4 PUSH1 0xA SSTORE PUSH3 0xC41 JUMP JUMPDEST POP DUP2 ISZERO ISZERO PUSH3 0xB12 JUMP JUMPDEST PUSH3 0xC9B PUSH1 0xB SLOAD TIMESTAMP PUSH3 0x860 JUMP JUMPDEST DUP1 ISZERO ISZERO DUP1 PUSH3 0xCD7 JUMPI JUMPDEST PUSH3 0xCB2 JUMPI JUMPDEST POP TIMESTAMP PUSH1 0xB SSTORE JUMP JUMPDEST PUSH3 0xCC4 PUSH3 0xCCD SWAP2 PUSH1 0xC SLOAD PUSH3 0x82B JUMP JUMPDEST PUSH1 0xA SLOAD PUSH3 0x807 JUMP JUMPDEST PUSH1 0xA SSTORE CODESIZE PUSH3 0xCAB JUMP JUMPDEST POP PUSH1 0xC SLOAD ISZERO ISZERO PUSH3 0xCA5 JUMP JUMPDEST PUSH1 0x0 DUP1 MSTORE PUSH1 0x9 PUSH1 0x20 MSTORE PUSH32 0xEC8156718A8372B1DB44BB411437D0870F3E3790D4A08526D024CE1B0B668F6B SLOAD PUSH1 0xC0 SHR DUP1 ISZERO PUSH3 0xD5B JUMPI PUSH3 0xD24 SWAP1 TIMESTAMP PUSH3 0x860 JUMP JUMPDEST PUSH2 0x12C DUP2 LT PUSH3 0xD54 JUMPI PUSH2 0xE10 DUP2 LT PUSH3 0xD4D JUMPI PUSH3 0x15180 GT PUSH3 0xD47 JUMPI PUSH1 0x0 SWAP1 JUMP JUMPDEST PUSH2 0x1F4 SWAP1 JUMP JUMPDEST POP PUSH2 0x3E8 SWAP1 JUMP JUMPDEST POP PUSH2 0x7D0 SWAP1 JUMP JUMPDEST POP PUSH1 0x0 SWAP1 JUMP JUMPDEST DUP1 MLOAD PUSH1 0x1 LT ISZERO PUSH3 0xD72 JUMPI PUSH1 0x40 ADD SWAP1 JUMP JUMPDEST PUSH4 0x4E487B71 PUSH1 0xE0 SHL PUSH1 0x0 MSTORE PUSH1 0x32 PUSH1 0x4 MSTORE PUSH1 0x24 PUSH1 0x0 REVERT JUMPDEST SWAP1 DUP2 MLOAD DUP1 DUP3 MSTORE PUSH1 0x20 DUP1 DUP1 SWAP4 ADD SWAP4 ADD SWAP2 PUSH1 0x0 JUMPDEST DUP3 DUP2 LT PUSH3 0xDA9 JUMPI POP POP POP POP SWAP1 JUMP JUMPDEST DUP4 MLOAD PUSH1 0x1 PUSH1 0x1 PUSH1 0xA0 SHL SUB AND DUP6 MSTORE SWAP4 DUP2 ADD SWAP4 SWAP3 DUP2 ADD SWAP3 PUSH1 0x1 ADD PUSH3 0xD9A JUMP JUMPDEST PUSH1 0x0 SWAP1 PUSH1 0xFF NOT DUP1 PUSH1 0x8 SLOAD AND PUSH1 0x1 DUP2 OR PUSH1 0x8 SSTORE ADDRESS DUP5 MSTORE PUSH1 0x20 DUP5 DUP2 MSTORE PUSH1 0x40 SWAP1 DUP2 DUP7 KECCAK256 SLOAD SWAP3 DUP4 ISZERO PUSH3 0x1233 JUMPI POP DUP2 MLOAD PUSH1 0x1 PUSH1 0x1 PUSH1 0x40 SHL SUB SWAP7 PUSH1 0x60 DUP3 ADD DUP9 DUP2 GT DUP4 DUP3 LT OR PUSH3 0x121F JUMPI DUP5 MSTORE PUSH1 0x2 DUP3 MSTORE DUP3 DUP3 ADD DUP5 CALLDATASIZE DUP3 CALLDATACOPY DUP3 MLOAD ISZERO PUSH3 0x120B JUMPI ADDRESS SWAP1 MSTORE PUSH1 0x6 SLOAD DUP5 MLOAD PUSH4 0x15AB88C9 PUSH1 0xE3 SHL DUP2 MSTORE PUSH1 0x4 SWAP10 PUSH1 0x1 PUSH1 0x1 PUSH1 0xA0 SHL SUB SWAP8 SWAP3 SWAP1 SWAP2 SWAP1 DUP9 AND SWAP1 DUP7 DUP2 DUP14 DUP2 DUP6 GAS STATICCALL SWAP1 DUP2 ISZERO PUSH3 0x1201 JUMPI DUP6 SWAP2 PUSH3 0x11C0 JUMPI JUMPDEST POP DUP9 PUSH3 0xE6A DUP8 PUSH3 0xD61 JUMP JUMPDEST SWAP2 AND SWAP1 MSTORE ADDRESS ISZERO PUSH3 0x11A9 JUMPI DUP1 ISZERO PUSH3 0x1192 JUMPI ADDRESS DUP5 MSTORE PUSH1 0x1 DUP7 MSTORE DUP7 DUP5 KECCAK256 DUP2 DUP6 MSTORE DUP7 MSTORE DUP3 DUP8 DUP6 KECCAK256 SSTORE DUP7 MLOAD DUP4 DUP2 MSTORE PUSH32 0x8C5BE1E5EBEC7D5BD14F71427D1E84F3DD0314C0F7B2291E5B200AC8C7C3B925 DUP8 ADDRESS SWAP3 LOG3 DUP3 SWAP4 DUP8 PUSH1 0x6 SLOAD AND SWAP5 DUP8 MLOAD SWAP6 PUSH4 0xD06CA61F PUSH1 0xE0 SHL DUP8 MSTORE DUP5 DUP14 DUP9 ADD MSTORE PUSH1 0x24 SWAP7 DUP10 DUP9 DUP3 ADD MSTORE DUP7 DUP2 DUP1 PUSH3 0xEEE PUSH1 0x44 DUP3 ADD DUP9 PUSH3 0xD88 JUMP JUMPDEST SUB DUP2 DUP6 GAS STATICCALL DUP8 SWAP2 DUP2 PUSH3 0x10DA JUMPI JUMPDEST POP PUSH3 0x109A JUMPI JUMPDEST POP SELFBALANCE SWAP5 DUP2 EXTCODESIZE ISZERO PUSH3 0x1096 JUMPI SWAP1 DUP7 SWAP3 SWAP2 DUP4 DUP16 PUSH3 0xF44 DUP14 MLOAD SWAP8 DUP9 SWAP7 DUP8 SWAP6 DUP7 SWAP5 PUSH4 0x791AC947 PUSH1 0xE0 SHL DUP7 MSTORE DUP6 ADD MSTORE DUP14 DUP5 ADD MSTORE PUSH1 0xA0 PUSH1 0x44 DUP5 ADD MSTORE PUSH1 0xA4 DUP4 ADD SWAP1 PUSH3 0xD88 JUMP JUMPDEST ADDRESS PUSH1 0x64 DUP4 ADD MSTORE TIMESTAMP PUSH1 0x84 DUP4 ADD MSTORE SUB SWAP3 GAS CALL SWAP2 DUP3 PUSH3 0x106F JUMPI JUMPDEST POP POP PUSH3 0xF76 JUMPI JUMPDEST POP POP POP POP POP POP SWAP1 SWAP2 POP PUSH1 0x8 SLOAD AND PUSH1 0x8 SSTORE JUMP JUMPDEST PUSH3 0xF82 SWAP1 SELFBALANCE PUSH3 0x860 JUMP JUMPDEST SWAP2 DUP3 ISZERO SWAP9 DUP10 ISZERO PUSH3 0xF95 JUMPI JUMPDEST POP PUSH3 0xF64 JUMP JUMPDEST PUSH1 0x3 DUP5 MUL SWAP10 DUP5 DUP12 DIV PUSH1 0x3 EQ OR ISZERO PUSH3 0x105E JUMPI POP POP PUSH3 0xFBF PUSH1 0x7 PUSH3 0xFD2 SWAP8 SWAP9 SWAP10 DIV DUP1 SWAP4 PUSH3 0x860 JUMP JUMPDEST SWAP5 DUP3 PUSH3 0xFE1 JUMPI JUMPDEST POP POP POP POP POP PUSH3 0x123F JUMP JUMPDEST DUP2 SWAP1 CODESIZE DUP1 DUP1 DUP1 DUP1 DUP1 DUP1 PUSH3 0xF8E JUMP JUMPDEST DUP2 DUP1 DUP1 DUP6 DUP2 SWAP5 PUSH1 0x80 MLOAD AND GAS CALL SWAP1 RETURNDATASIZE ISZERO PUSH3 0x1057 JUMPI RETURNDATASIZE SWAP1 PUSH3 0x1002 DUP3 PUSH3 0x76C JUMP JUMPDEST SWAP2 PUSH3 0x1011 DUP8 MLOAD SWAP4 DUP5 PUSH3 0x748 JUMP JUMPDEST DUP3 MSTORE DUP5 RETURNDATASIZE SWAP3 ADD RETURNDATACOPY JUMPDEST PUSH3 0x1027 JUMPI JUMPDEST DUP1 DUP1 PUSH3 0xFC7 JUMP JUMPDEST PUSH32 0x693F9DBEA0BDF9B70D480F9527E567D17AE3A41A5627C6515B034AC1869CF7A0 SWAP3 MLOAD SWAP1 DUP2 MSTORE LOG1 CODESIZE DUP1 DUP1 PUSH3 0x101F JUMP JUMPDEST POP PUSH3 0x1019 JUMP JUMPDEST PUSH4 0x4E487B71 PUSH1 0xE0 SHL DUP4 MSTORE PUSH1 0x11 SWAP1 MSTORE DUP2 REVERT JUMPDEST DUP2 SWAP5 SWAP3 SWAP5 GT PUSH3 0x1084 JUMPI DUP7 MSTORE SWAP2 CODESIZE DUP1 PUSH3 0xF5C JUMP JUMPDEST PUSH4 0x4E487B71 PUSH1 0xE0 SHL DUP3 MSTORE PUSH1 0x41 DUP12 MSTORE DUP5 DUP3 REVERT JUMPDEST DUP7 DUP1 REVERT JUMPDEST PUSH3 0x10A7 SWAP2 SWAP3 POP PUSH3 0xD61 JUMP JUMPDEST MLOAD PUSH1 0x5A DUP2 MUL SWAP1 DUP1 DUP3 DIV PUSH1 0x5A EQ SWAP1 ISZERO OR ISZERO PUSH3 0x10C8 JUMPI PUSH1 0x64 SWAP1 DIV SWAP1 CODESIZE PUSH3 0xF03 JUMP JUMPDEST PUSH4 0x4E487B71 PUSH1 0xE0 SHL DUP7 MSTORE PUSH1 0x11 DUP14 MSTORE DUP7 DUP7 REVERT JUMPDEST SWAP1 SWAP2 POP RETURNDATASIZE DUP1 DUP10 DUP4 RETURNDATACOPY PUSH3 0x10EE DUP2 DUP4 PUSH3 0x748 JUMP JUMPDEST DUP2 ADD SWAP1 DUP11 DUP2 DUP4 SUB SLT PUSH3 0x118A JUMPI DUP1 MLOAD SWAP1 DUP8 DUP3 GT PUSH3 0x118E JUMPI ADD DUP2 PUSH1 0x1F DUP3 ADD SLT ISZERO PUSH3 0x118A JUMPI DUP1 MLOAD DUP8 DUP2 GT PUSH3 0x1176 JUMPI DUP13 MLOAD SWAP3 SWAP2 PUSH1 0x5 DUP3 SWAP1 SHL SWAP2 PUSH3 0x1135 DUP4 DUP16 ADD DUP7 PUSH3 0x748 JUMP JUMPDEST DUP5 MSTORE DUP13 DUP1 DUP6 ADD SWAP3 DUP3 ADD ADD SWAP3 DUP4 GT PUSH3 0x1172 JUMPI DUP13 DUP1 SWAP2 ADD SWAP2 JUMPDEST DUP4 DUP4 LT PUSH3 0x1161 JUMPI POP POP POP POP SWAP1 CODESIZE PUSH3 0xEFC JUMP JUMPDEST DUP3 MLOAD DUP2 MSTORE SWAP2 DUP2 ADD SWAP2 DUP14 SWAP2 ADD PUSH3 0x114D JUMP JUMPDEST DUP11 DUP1 REVERT JUMPDEST POP DUP16 DUP10 PUSH1 0x41 DUP13 SWAP3 PUSH4 0x4E487B71 PUSH1 0xE0 SHL DUP4 MSTORE MSTORE REVERT JUMPDEST DUP9 DUP1 REVERT JUMPDEST DUP10 DUP1 REVERT JUMPDEST DUP7 MLOAD PUSH4 0x4A1406B1 PUSH1 0xE1 SHL DUP2 MSTORE DUP1 DUP13 ADD DUP6 SWAP1 MSTORE PUSH1 0x24 SWAP1 REVERT JUMPDEST DUP7 MLOAD PUSH4 0xE602DF05 PUSH1 0xE0 SHL DUP2 MSTORE DUP1 DUP13 ADD DUP6 SWAP1 MSTORE PUSH1 0x24 SWAP1 REVERT JUMPDEST SWAP1 POP DUP7 DUP2 DUP2 RETURNDATASIZE DUP4 GT PUSH3 0x11F9 JUMPI JUMPDEST PUSH3 0x11DA DUP2 DUP4 PUSH3 0x748 JUMP JUMPDEST DUP2 ADD SUB SLT PUSH3 0x11F5 JUMPI PUSH3 0x11EE SWAP1 PUSH3 0x7F2 JUMP JUMPDEST CODESIZE PUSH3 0xE5D JUMP JUMPDEST DUP5 DUP1 REVERT JUMPDEST POP RETURNDATASIZE PUSH3 0x11CE JUMP JUMPDEST DUP9 MLOAD RETURNDATASIZE DUP8 DUP3 RETURNDATACOPY RETURNDATASIZE SWAP1 REVERT JUMPDEST PUSH4 0x4E487B71 PUSH1 0xE0 SHL DUP3 MSTORE PUSH1 0x32 PUSH1 0x4 MSTORE PUSH1 0x24 DUP3 REVERT JUMPDEST PUSH4 0x4E487B71 PUSH1 0xE0 SHL DUP3 MSTORE PUSH1 0x41 PUSH1 0x4 MSTORE PUSH1 0x24 DUP3 REVERT JUMPDEST SWAP5 SWAP6 POP POP POP POP POP PUSH1 0x8 SSTORE JUMP JUMPDEST DUP1 ISZERO PUSH3 0xA50 JUMPI PUSH3 0x1250 PUSH3 0xC8D JUMP JUMPDEST PUSH1 0xA SLOAD DUP1 ISZERO PUSH3 0x1300 JUMPI PUSH3 0x1269 PUSH1 0x10 SLOAD DUP1 SWAP4 PUSH3 0x807 JUMP JUMPDEST SWAP2 PUSH3 0x12F5 JUMPI JUMPDEST PUSH8 0xDE0B6B3A7640000 SWAP2 DUP3 DUP2 MUL SWAP3 DUP2 DUP5 DIV EQ DUP2 ISZERO OR ISZERO PUSH3 0x815 JUMPI PUSH3 0x12A9 PUSH1 0x40 SWAP3 PUSH1 0x0 DUP1 MLOAD PUSH1 0x20 PUSH3 0x3BA2 DUP4 CODECOPY DUP2 MLOAD SWAP2 MSTORE SWAP5 PUSH3 0x83F JUMP JUMPDEST DUP1 ISZERO PUSH3 0x12D3 JUMPI PUSH3 0x12BE SWAP1 PUSH1 0xD SLOAD PUSH3 0x807 JUMP JUMPDEST DUP1 PUSH1 0xD SSTORE TIMESTAMP PUSH1 0xE SSTORE DUP3 MLOAD SWAP2 DUP3 MSTORE PUSH1 0x20 DUP3 ADD MSTORE LOG1 JUMP JUMPDEST POP PUSH3 0x12E2 DUP2 PUSH1 0x10 SLOAD PUSH3 0x807 JUMP JUMPDEST PUSH1 0x10 SSTORE PUSH1 0xD SLOAD DUP3 MLOAD SWAP2 DUP3 MSTORE PUSH1 0x20 DUP3 ADD MSTORE LOG1 JUMP JUMPDEST PUSH1 0x0 PUSH1 0x10 SSTORE PUSH3 0x1270 JUMP JUMPDEST POP PUSH1 0x40 DUP2 PUSH3 0x12E2 PUSH1 0x0 DUP1 MLOAD PUSH1 0x20 PUSH3 0x3BA2 DUP4 CODECOPY DUP2 MLOAD SWAP2 MSTORE SWAP4 PUSH1 0x10 SLOAD PUSH3 0x807 JUMP INVALID PUSH1 0x80 PUSH1 0x40 DUP2 DUP2 MSTORE PUSH1 0x4 SWAP2 DUP3 CALLDATASIZE LT ISZERO PUSH2 0x22 JUMPI JUMPDEST POP POP POP CALLDATASIZE ISZERO PUSH2 0x20 JUMPI PUSH1 0x0 DUP1 REVERT JUMPDEST STOP JUMPDEST PUSH1 0x0 SWAP3 DUP4 CALLDATALOAD PUSH1 0xE0 SHR SWAP2 DUP3 PUSH4 0x3FD2A45 EQ PUSH2 0x1406 JUMPI POP DUP2 PUSH4 0x445B667 EQ PUSH2 0x13E7 JUMPI DUP2 PUSH4 0x6FDDE03 EQ PUSH2 0x1310 JUMPI DUP2 PUSH4 0x7C9BF2E EQ PUSH2 0x12D7 JUMPI DUP2 PUSH4 0x95EA7B3 EQ PUSH2 0x12AD JUMPI DUP2 PUSH4 0x13B9D47E EQ PUSH2 0x128E JUMPI DUP2 PUSH4 0x18160DDD EQ PUSH2 0x126F JUMPI DUP2 PUSH4 0x1A0108EC EQ PUSH2 0x550 JUMPI DUP2 PUSH4 0x1E4C7292 EQ PUSH2 0x1249 JUMPI DUP2 PUSH4 0x23B872DD EQ PUSH2 0x115F JUMPI DUP2 PUSH4 0x2836BE24 EQ PUSH2 0x10E2 JUMPI DUP2 PUSH4 0x313CE567 EQ PUSH2 0x10C6 JUMPI DUP2 PUSH4 0x31D7A262 EQ PUSH2 0x10A0 JUMPI DUP2 PUSH4 0x47B12BFC EQ PUSH2 0x1084 JUMPI DUP2 PUSH4 0x4E71D92D EQ PUSH2 0xF97 JUMPI DUP2 PUSH4 0x5B090044 EQ PUSH2 0xCB0 JUMPI DUP2 PUSH4 0x64229D68 EQ PUSH2 0xC91 JUMPI DUP2 PUSH4 0x70A08231 EQ PUSH2 0xC5A JUMPI DUP2 PUSH4 0x7165485D EQ PUSH2 0xC16 JUMPI DUP2 PUSH4 0x735DE9F7 EQ PUSH2 0xBED JUMPI DUP2 PUSH4 0x748747E6 EQ PUSH2 0xB5E JUMPI DUP2 PUSH4 0x902D55A5 EQ PUSH2 0xB38 JUMPI DUP2 PUSH4 0x95D89B41 EQ PUSH2 0xA52 JUMPI DUP2 PUSH4 0x98AECB67 EQ PUSH2 0xA2C JUMPI DUP2 PUSH4 0x9D0014B1 EQ PUSH2 0x9A1 JUMPI DUP2 PUSH4 0x9D6EADC1 EQ PUSH2 0x982 JUMPI DUP2 PUSH4 0xA37A9FC0 EQ PUSH2 0x550 JUMPI DUP2 PUSH4 0xA47541BA EQ PUSH2 0x933 JUMPI DUP2 PUSH4 0xA8355C8F EQ PUSH2 0x7E2 JUMPI DUP2 PUSH4 0xA9059CBB EQ PUSH2 0x902 JUMPI DUP2 PUSH4 0xACED1661 EQ PUSH2 0x8D9 JUMPI DUP2 PUSH4 0xB78D0538 EQ PUSH2 0x7FF JUMPI DUP2 PUSH4 0xBACF2A7B EQ PUSH2 0x7E2 JUMPI DUP2 PUSH4 0xBB103CBC EQ PUSH2 0x7C5 JUMPI DUP2 PUSH4 0xC1DB4015 EQ PUSH2 0x7A6 JUMPI DUP2 PUSH4 0xC45A0155 EQ PUSH2 0x762 JUMPI DUP2 PUSH4 0xC463ECD7 EQ PUSH2 0x745 JUMPI DUP2 PUSH4 0xC5F27B30 EQ PUSH2 0x726 JUMPI DUP2 PUSH4 0xC5F509D6 EQ PUSH2 0x700 JUMPI DUP2 PUSH4 0xC7B12801 EQ PUSH2 0x5ED JUMPI DUP2 PUSH4 0xC816841B EQ PUSH2 0x5C0 JUMPI DUP2 PUSH4 0xCA81EB66 EQ PUSH2 0x593 JUMPI DUP2 PUSH4 0xCBA0E996 EQ PUSH2 0x555 JUMPI DUP2 PUSH4 0xCE91E164 EQ PUSH2 0x550 JUMPI DUP2 PUSH4 0xDBB51D6E EQ PUSH2 0x4D5 JUMPI DUP2 PUSH4 0xDD62ED3E EQ PUSH2 0x48C JUMPI DUP2 PUSH4 0xE7C2B772 EQ PUSH2 0x468 JUMPI DUP2 PUSH4 0xF6CEEFA2 EQ PUSH2 0x26E JUMPI POP PUSH4 0xF8077FAE EQ PUSH2 0x24D JUMPI DUP1 PUSH2 0x12 JUMP JUMPDEST CALLVALUE PUSH2 0x26A JUMPI DUP2 PUSH1 0x3 NOT CALLDATASIZE ADD SLT PUSH2 0x26A JUMPI PUSH1 0x20 SWAP1 PUSH1 0xE SLOAD SWAP1 MLOAD SWAP1 DUP2 MSTORE RETURN JUMPDEST POP DUP1 REVERT JUMPDEST DUP4 DUP4 CALLVALUE PUSH2 0x26A JUMPI PUSH1 0x20 DUP1 PUSH1 0x3 NOT CALLDATASIZE ADD SLT PUSH2 0x464 JUMPI PUSH1 0x1 PUSH1 0x1 PUSH1 0x40 SHL SUB SWAP1 DUP5 CALLDATALOAD SWAP1 DUP3 DUP3 GT PUSH2 0x460 JUMPI CALLDATASIZE PUSH1 0x23 DUP4 ADD SLT ISZERO PUSH2 0x460 JUMPI DUP2 DUP7 ADD CALLDATALOAD SWAP3 DUP4 GT PUSH2 0x460 JUMPI PUSH1 0x5 SWAP3 PUSH1 0x24 CALLDATASIZE DUP3 DUP7 SHL DUP6 ADD DUP3 ADD GT PUSH2 0x45C JUMPI PUSH2 0x2C5 PUSH2 0x25B9 JUMP JUMPDEST PUSH1 0x11 SLOAD PUSH1 0x1 PUSH1 0x1 PUSH1 0xA0 SHL SUB SWAP9 SWAP1 DUP10 AND CALLER SUB PUSH2 0x42E JUMPI PUSH1 0x96 DUP4 GT PUSH2 0x3FC JUMPI POP DUP7 SWAP4 DUP8 SWAP6 DUP9 JUMPDEST DUP5 DUP2 LT PUSH2 0x334 JUMPI DUP10 PUSH32 0xF80654923FB0C7F7A44C79B000DCA8E52E2F4A16092A26FF31C0A410291D331 DUP11 DUP11 DUP11 DUP11 DUP4 MLOAD SWAP3 DUP4 MSTORE DUP3 ADD MSTORE LOG1 PUSH1 0x1 PUSH1 0x0 DUP1 MLOAD PUSH1 0x20 PUSH2 0x280A DUP4 CODECOPY DUP2 MLOAD SWAP2 MSTORE SSTORE DUP1 RETURN JUMPDEST DUP4 DUP2 DUP4 SWAP10 SWAP9 SWAP10 SHL DUP5 ADD ADD CALLDATALOAD DUP12 DUP2 AND SWAP1 DUP2 DUP2 SUB PUSH2 0x3F8 JUMPI PUSH2 0x353 DUP2 PUSH2 0x1C7B JUMP JUMPDEST ISZERO PUSH2 0x3EA JUMPI PUSH2 0x361 SWAP1 PUSH2 0x1BD0 JUMP JUMPDEST DUP1 DUP12 MSTORE PUSH1 0x9 DUP8 MSTORE PUSH1 0x3 DUP11 DUP13 KECCAK256 ADD SWAP9 DUP10 SLOAD SWAP10 DUP13 DUP12 ISZERO PUSH2 0x3DB JUMPI DUP1 DUP1 DUP1 DUP15 DUP2 DUP7 SSTORE DUP8 GAS CALL PUSH2 0x38B PUSH2 0x1873 JUMP JUMPDEST POP ISZERO PUSH2 0x3CB JUMPI POP SWAP1 PUSH1 0x0 DUP1 MLOAD PUSH1 0x20 PUSH2 0x278A DUP4 CODECOPY DUP2 MLOAD SWAP2 MSTORE DUP9 PUSH2 0x3BA PUSH2 0x3B4 DUP14 PUSH2 0x3C6 SWAP8 SWAP7 PUSH2 0x14B8 JUMP JUMPDEST SWAP12 PUSH2 0x25E9 JUMP JUMPDEST SWAP12 DUP14 MLOAD SWAP1 DUP2 MSTORE LOG2 PUSH2 0x25E9 JUMP JUMPDEST PUSH2 0x2E9 JUMP JUMPDEST PUSH2 0x3C6 SWAP4 SWAP3 POP SWAP10 SWAP1 SWAP9 SWAP10 SSTORE PUSH2 0x25E9 JUMP JUMPDEST POP POP SWAP8 SWAP9 POP POP PUSH2 0x3C6 SWAP1 PUSH2 0x25E9 JUMP JUMPDEST POP POP PUSH2 0x3C6 SWAP1 SWAP8 SWAP7 SWAP8 PUSH2 0x25E9 JUMP JUMPDEST DUP12 DUP1 REVERT JUMPDEST PUSH1 0xF PUSH1 0x64 SWAP3 DUP6 DUP10 MLOAD SWAP4 PUSH3 0x461BCD PUSH1 0xE5 SHL DUP6 MSTORE DUP5 ADD MSTORE DUP3 ADD MSTORE PUSH15 0x426174636820746F6F206C61726765 PUSH1 0x88 SHL PUSH1 0x44 DUP3 ADD MSTORE REVERT JUMPDEST PUSH1 0xB PUSH1 0x64 SWAP3 DUP6 DUP10 MLOAD SWAP4 PUSH3 0x461BCD PUSH1 0xE5 SHL DUP6 MSTORE DUP5 ADD MSTORE DUP3 ADD MSTORE PUSH11 0x27B7363C9035B2B2B832B9 PUSH1 0xA9 SHL PUSH1 0x44 DUP3 ADD MSTORE REVERT JUMPDEST DUP7 DUP1 REVERT JUMPDEST DUP5 DUP1 REVERT JUMPDEST DUP3 DUP1 REVERT JUMPDEST POP POP CALLVALUE PUSH2 0x26A JUMPI DUP2 PUSH1 0x3 NOT CALLDATASIZE ADD SLT PUSH2 0x26A JUMPI PUSH1 0x20 SWAP1 PUSH1 0xFF PUSH1 0x5 SLOAD AND SWAP1 MLOAD SWAP1 ISZERO ISZERO DUP2 MSTORE RETURN JUMPDEST POP POP CALLVALUE PUSH2 0x26A JUMPI DUP1 PUSH1 0x3 NOT CALLDATASIZE ADD SLT PUSH2 0x26A JUMPI DUP1 PUSH1 0x20 SWAP3 PUSH2 0x4AA PUSH2 0x146B JUMP JUMPDEST PUSH2 0x4B2 PUSH2 0x1486 JUMP JUMPDEST PUSH1 0x1 PUSH1 0x1 PUSH1 0xA0 SHL SUB SWAP2 DUP3 AND DUP4 MSTORE PUSH1 0x1 DUP7 MSTORE DUP4 DUP4 KECCAK256 SWAP2 AND DUP3 MSTORE DUP5 MSTORE KECCAK256 SLOAD SWAP1 MLOAD SWAP1 DUP2 MSTORE RETURN JUMPDEST POP POP CALLVALUE PUSH2 0x26A JUMPI PUSH1 0x20 CALLDATASIZE PUSH1 0x3 NOT ADD SLT PUSH2 0x26A JUMPI PUSH1 0xC0 SWAP2 DUP2 SWAP1 PUSH1 0x1 PUSH1 0x1 PUSH1 0xA0 SHL SUB PUSH2 0x4FD PUSH2 0x146B JUMP JUMPDEST AND DUP2 MSTORE PUSH1 0x9 PUSH1 0x20 MSTORE KECCAK256 SWAP1 DUP2 SLOAD SWAP2 PUSH1 0x1 DUP2 ADD SLOAD PUSH1 0x3 PUSH1 0x2 DUP4 ADD SLOAD SWAP3 ADD SLOAD SWAP3 DUP1 MLOAD SWAP5 PUSH1 0x1 DUP1 PUSH1 0x80 SHL SUB DUP2 AND DUP7 MSTORE PUSH1 0x1 DUP1 PUSH1 0x40 SHL SUB DUP2 PUSH1 0x80 SHR AND PUSH1 0x20 DUP8 ADD MSTORE DUP7 SHR SWAP1 DUP6 ADD MSTORE PUSH1 0x60 DUP5 ADD MSTORE PUSH1 0x80 DUP4 ADD MSTORE PUSH1 0xA0 DUP3 ADD MSTORE RETURN JUMPDEST PUSH2 0x149C JUMP JUMPDEST POP POP CALLVALUE PUSH2 0x26A JUMPI PUSH1 0x20 CALLDATASIZE PUSH1 0x3 NOT ADD SLT PUSH2 0x26A JUMPI PUSH1 0x20 SWAP2 PUSH1 0xFF SWAP1 DUP3 SWAP1 PUSH1 0x1 PUSH1 0x1 PUSH1 0xA0 SHL SUB PUSH2 0x580 PUSH2 0x146B JUMP JUMPDEST AND DUP2 MSTORE PUSH1 0xF DUP6 MSTORE KECCAK256 SLOAD AND SWAP1 MLOAD SWAP1 ISZERO ISZERO DUP2 MSTORE RETURN JUMPDEST POP POP CALLVALUE PUSH2 0x26A JUMPI PUSH1 0x20 CALLDATASIZE PUSH1 0x3 NOT ADD SLT PUSH2 0x26A JUMPI PUSH1 0x20 SWAP1 PUSH2 0x5B9 PUSH2 0x5B4 PUSH2 0x146B JUMP JUMPDEST PUSH2 0x2143 JUMP JUMPDEST SWAP1 MLOAD SWAP1 DUP2 MSTORE RETURN JUMPDEST POP POP CALLVALUE PUSH2 0x26A JUMPI DUP2 PUSH1 0x3 NOT CALLDATASIZE ADD SLT PUSH2 0x26A JUMPI PUSH1 0x5 SLOAD SWAP1 MLOAD PUSH1 0x8 SWAP2 SWAP1 SWAP2 SHR PUSH1 0x1 PUSH1 0x1 PUSH1 0xA0 SHL SUB AND DUP2 MSTORE PUSH1 0x20 SWAP1 RETURN JUMPDEST SWAP2 SWAP1 POP CALLVALUE PUSH2 0x464 JUMPI DUP1 PUSH1 0x3 NOT CALLDATASIZE ADD SLT PUSH2 0x464 JUMPI PUSH2 0x608 PUSH2 0x146B JUMP JUMPDEST SWAP2 PUSH2 0x611 PUSH2 0x1486 JUMP JUMPDEST PUSH1 0x1 PUSH1 0x1 PUSH1 0xA0 SHL SUB SWAP2 PUSH2 0x647 CALLER PUSH32 0x0 DUP6 AND EQ PUSH2 0x183A JUMP JUMPDEST PUSH1 0x5 SLOAD SWAP1 PUSH1 0xFF DUP3 AND PUSH2 0x6C9 JUMPI POP PUSH1 0x1 PUSH1 0x1 PUSH1 0xA8 SHL SUB NOT AND PUSH1 0x8 DUP6 SWAP1 SHL PUSH2 0x100 PUSH1 0x1 PUSH1 0xA8 SHL SUB AND OR PUSH1 0x1 OR PUSH1 0x5 SSTORE PUSH1 0x6 DUP1 SLOAD PUSH1 0x1 PUSH1 0x1 PUSH1 0xA0 SHL SUB NOT AND SWAP2 DUP4 AND SWAP2 SWAP1 SWAP2 OR SWAP1 SSTORE SWAP2 SWAP1 SWAP2 AND DUP1 DUP4 MSTORE PUSH1 0xF PUSH1 0x20 MSTORE SWAP1 DUP3 KECCAK256 DUP1 SLOAD PUSH1 0xFF NOT AND SWAP1 SSTORE PUSH32 0xC5CA2014458D93C5CF9F836FF7ECE45DE01C929DFB16EED9D6C3329FA1FD0982 DUP3 DUP1 LOG2 DUP1 RETURN JUMPDEST PUSH1 0x64 SWAP1 PUSH1 0x20 DUP7 MLOAD SWAP2 PUSH3 0x461BCD PUSH1 0xE5 SHL DUP4 MSTORE DUP3 ADD MSTORE PUSH1 0x11 PUSH1 0x24 DUP3 ADD MSTORE PUSH17 0x105B1C9958591E4819DC98591D585D1959 PUSH1 0x7A SHL PUSH1 0x44 DUP3 ADD MSTORE REVERT JUMPDEST POP POP CALLVALUE PUSH2 0x26A JUMPI PUSH1 0x20 CALLDATASIZE PUSH1 0x3 NOT ADD SLT PUSH2 0x26A JUMPI PUSH1 0x20 SWAP1 PUSH2 0x5B9 PUSH2 0x721 PUSH2 0x146B JUMP JUMPDEST PUSH2 0x26B4 JUMP JUMPDEST POP POP CALLVALUE PUSH2 0x26A JUMPI DUP2 PUSH1 0x3 NOT CALLDATASIZE ADD SLT PUSH2 0x26A JUMPI PUSH1 0x20 SWAP1 PUSH1 0xD SLOAD SWAP1 MLOAD SWAP1 DUP2 MSTORE RETURN JUMPDEST POP POP CALLVALUE PUSH2 0x26A JUMPI DUP2 PUSH1 0x3 NOT CALLDATASIZE ADD SLT PUSH2 0x26A JUMPI PUSH1 0x20 SWAP1 MLOAD PUSH2 0x3E8 DUP2 MSTORE RETURN JUMPDEST POP POP CALLVALUE PUSH2 0x26A JUMPI DUP2 PUSH1 0x3 NOT CALLDATASIZE ADD SLT PUSH2 0x26A JUMPI MLOAD PUSH32 0x0 PUSH1 0x1 PUSH1 0x1 PUSH1 0xA0 SHL SUB AND DUP2 MSTORE PUSH1 0x20 SWAP1 RETURN JUMPDEST POP POP CALLVALUE PUSH2 0x26A JUMPI DUP2 PUSH1 0x3 NOT CALLDATASIZE ADD SLT PUSH2 0x26A JUMPI PUSH1 0x20 SWAP1 PUSH1 0xA SLOAD SWAP1 MLOAD SWAP1 DUP2 MSTORE RETURN JUMPDEST POP POP CALLVALUE PUSH2 0x26A JUMPI DUP2 PUSH1 0x3 NOT CALLDATASIZE ADD SLT PUSH2 0x26A JUMPI PUSH1 0x20 SWAP1 MLOAD PUSH2 0x7D0 DUP2 MSTORE RETURN JUMPDEST POP POP CALLVALUE PUSH2 0x26A JUMPI DUP2 PUSH1 0x3 NOT CALLDATASIZE ADD SLT PUSH2 0x26A JUMPI PUSH1 0x20 SWAP1 MLOAD PUSH2 0x1F4 DUP2 MSTORE RETURN JUMPDEST SWAP1 POP DUP3 PUSH1 0x3 NOT CALLDATASIZE ADD SLT PUSH2 0x464 JUMPI DUP3 PUSH1 0x1 PUSH1 0x1 PUSH1 0xA0 SHL SUB PUSH2 0x842 CALLER PUSH32 0x0 DUP4 AND EQ PUSH2 0x183A JUMP JUMPDEST CALLVALUE PUSH2 0x84B JUMPI POP DUP1 RETURN JUMPDEST DUP2 DUP1 DUP1 SWAP3 CALLVALUE SWAP1 PUSH32 0x0 AND GAS CALL PUSH2 0x87D PUSH2 0x1873 JUMP JUMPDEST POP ISZERO PUSH2 0x8A1 JUMPI POP PUSH1 0x20 PUSH1 0x0 DUP1 MLOAD PUSH1 0x20 PUSH2 0x274A DUP4 CODECOPY DUP2 MLOAD SWAP2 MSTORE SWAP2 MLOAD CALLVALUE DUP2 MSTORE LOG1 CODESIZE DUP1 DUP3 DUP1 RETURN JUMPDEST PUSH1 0x20 PUSH1 0x64 SWAP3 MLOAD SWAP2 PUSH3 0x461BCD PUSH1 0xE5 SHL DUP4 MSTORE DUP3 ADD MSTORE PUSH1 0x13 PUSH1 0x24 DUP3 ADD MSTORE PUSH19 0x141B185D199BDC9B48199DD90819985A5B1959 PUSH1 0x6A SHL PUSH1 0x44 DUP3 ADD MSTORE REVERT JUMPDEST POP POP CALLVALUE PUSH2 0x26A JUMPI DUP2 PUSH1 0x3 NOT CALLDATASIZE ADD SLT PUSH2 0x26A JUMPI PUSH1 0x11 SLOAD SWAP1 MLOAD PUSH1 0x1 PUSH1 0x1 PUSH1 0xA0 SHL SUB SWAP1 SWAP2 AND DUP2 MSTORE PUSH1 0x20 SWAP1 RETURN JUMPDEST POP POP CALLVALUE PUSH2 0x26A JUMPI DUP1 PUSH1 0x3 NOT CALLDATASIZE ADD SLT PUSH2 0x26A JUMPI PUSH1 0x20 SWAP1 PUSH2 0x92C PUSH2 0x922 PUSH2 0x146B JUMP JUMPDEST PUSH1 0x24 CALLDATALOAD SWAP1 CALLER PUSH2 0x1514 JUMP JUMPDEST MLOAD PUSH1 0x1 DUP2 MSTORE RETURN JUMPDEST DUP4 DUP1 PUSH1 0x3 NOT CALLDATASIZE ADD SLT PUSH2 0x97F JUMPI PUSH2 0x973 CALLER PUSH32 0x0 PUSH1 0x1 PUSH1 0x1 PUSH1 0xA0 SHL SUB AND EQ PUSH2 0x183A JUMP JUMPDEST PUSH2 0x97C CALLVALUE PUSH2 0x2074 JUMP JUMPDEST DUP1 RETURN JUMPDEST DUP1 REVERT JUMPDEST POP POP CALLVALUE PUSH2 0x26A JUMPI DUP2 PUSH1 0x3 NOT CALLDATASIZE ADD SLT PUSH2 0x26A JUMPI PUSH1 0x20 SWAP1 PUSH1 0xB SLOAD SWAP1 MLOAD SWAP1 DUP2 MSTORE RETURN JUMPDEST SWAP1 POP CALLVALUE PUSH2 0x464 JUMPI PUSH1 0x20 CALLDATASIZE PUSH1 0x3 NOT ADD SLT PUSH2 0x464 JUMPI DUP1 CALLDATALOAD SWAP2 PUSH2 0x9EB CALLER PUSH32 0x0 PUSH1 0x1 PUSH1 0x1 PUSH1 0xA0 SHL SUB AND EQ PUSH2 0x270E JUMP JUMPDEST DUP3 ISZERO PUSH2 0x9F9 JUMPI POP POP PUSH1 0x7 SSTORE DUP1 RETURN JUMPDEST SWAP1 PUSH1 0x20 PUSH1 0x64 SWAP3 MLOAD SWAP2 PUSH3 0x461BCD PUSH1 0xE5 SHL DUP4 MSTORE DUP3 ADD MSTORE PUSH1 0xD PUSH1 0x24 DUP3 ADD MSTORE PUSH13 0x109859081D1A1C995CDA1BDB19 PUSH1 0x9A SHL PUSH1 0x44 DUP3 ADD MSTORE REVERT JUMPDEST POP POP CALLVALUE PUSH2 0x26A JUMPI DUP2 PUSH1 0x3 NOT CALLDATASIZE ADD SLT PUSH2 0x26A JUMPI PUSH1 0x20 SWAP1 MLOAD PUSH11 0xA56FA5B99019A5C8000000 DUP2 MSTORE RETURN JUMPDEST DUP4 DUP4 CALLVALUE PUSH2 0x26A JUMPI DUP2 PUSH1 0x3 NOT CALLDATASIZE ADD SLT PUSH2 0x26A JUMPI DUP1 MLOAD SWAP2 DUP1 SWAP4 DUP1 SLOAD SWAP2 PUSH1 0x1 SWAP1 DUP4 DUP3 SHR SWAP3 DUP3 DUP6 AND SWAP5 DUP6 ISZERO PUSH2 0xB2E JUMPI JUMPDEST PUSH1 0x20 SWAP6 DUP7 DUP7 LT DUP2 EQ PUSH2 0xB1B JUMPI DUP6 DUP10 MSTORE SWAP1 DUP2 ISZERO PUSH2 0xAF7 JUMPI POP PUSH1 0x1 EQ PUSH2 0xABC JUMPI JUMPDEST PUSH2 0xAB8 DUP8 DUP8 PUSH2 0xAAE DUP3 DUP13 SUB DUP4 PUSH2 0x14DB JUMP JUMPDEST MLOAD SWAP2 DUP3 SWAP2 DUP3 PUSH2 0x1422 JUMP JUMPDEST SUB SWAP1 RETURN JUMPDEST SWAP1 DUP1 SWAP5 SWAP8 POP MSTORE DUP6 DUP4 KECCAK256 JUMPDEST DUP3 DUP5 LT PUSH2 0xAE4 JUMPI POP POP POP DUP3 PUSH2 0xAB8 SWAP5 PUSH2 0xAAE SWAP3 DUP3 ADD ADD SWAP5 DUP7 DUP1 PUSH2 0xA9D JUMP JUMPDEST DUP1 SLOAD DUP7 DUP6 ADD DUP9 ADD MSTORE SWAP3 DUP7 ADD SWAP3 DUP2 ADD PUSH2 0xAC6 JUMP JUMPDEST PUSH1 0xFF NOT AND DUP9 DUP8 ADD MSTORE POP POP POP POP ISZERO ISZERO PUSH1 0x5 SHL DUP4 ADD ADD SWAP3 POP PUSH2 0xAAE DUP3 PUSH2 0xAB8 DUP7 DUP1 PUSH2 0xA9D JUMP JUMPDEST PUSH4 0x4E487B71 PUSH1 0xE0 SHL DUP5 MSTORE PUSH1 0x22 DUP4 MSTORE PUSH1 0x24 DUP5 REVERT JUMPDEST SWAP4 PUSH1 0x7F AND SWAP4 PUSH2 0xA7E JUMP JUMPDEST POP POP CALLVALUE PUSH2 0x26A JUMPI DUP2 PUSH1 0x3 NOT CALLDATASIZE ADD SLT PUSH2 0x26A JUMPI MLOAD PUSH8 0x6765C793FA10079D PUSH1 0x1B SHL DUP2 MSTORE PUSH1 0x20 SWAP1 RETURN JUMPDEST DUP4 CALLVALUE PUSH2 0x97F JUMPI PUSH1 0x20 CALLDATASIZE PUSH1 0x3 NOT ADD SLT PUSH2 0x97F JUMPI PUSH2 0xB78 PUSH2 0x146B JUMP JUMPDEST PUSH1 0x1 PUSH1 0x1 PUSH1 0xA0 SHL SUB SWAP1 PUSH2 0xBAE CALLER PUSH32 0x0 DUP5 AND EQ PUSH2 0x270E JUMP JUMPDEST DUP2 PUSH1 0x11 SLOAD SWAP2 AND DUP1 SWAP3 DUP3 AND PUSH32 0x53D3703FE259DEF57584466F32D1B94C30278008C683C21B04501C4966F13A69 DUP6 DUP1 LOG3 PUSH1 0x1 PUSH1 0x1 PUSH1 0xA0 SHL SUB NOT AND OR PUSH1 0x11 SSTORE DUP1 RETURN JUMPDEST POP POP CALLVALUE PUSH2 0x26A JUMPI DUP2 PUSH1 0x3 NOT CALLDATASIZE ADD SLT PUSH2 0x26A JUMPI PUSH1 0x6 SLOAD SWAP1 MLOAD PUSH1 0x1 PUSH1 0x1 PUSH1 0xA0 SHL SUB SWAP1 SWAP2 AND DUP2 MSTORE PUSH1 0x20 SWAP1 RETURN JUMPDEST POP POP CALLVALUE PUSH2 0x26A JUMPI DUP2 PUSH1 0x3 NOT CALLDATASIZE ADD SLT PUSH2 0x26A JUMPI MLOAD PUSH32 0x0 PUSH1 0x1 PUSH1 0x1 PUSH1 0xA0 SHL SUB AND DUP2 MSTORE PUSH1 0x20 SWAP1 RETURN JUMPDEST POP POP CALLVALUE PUSH2 0x26A JUMPI PUSH1 0x20 CALLDATASIZE PUSH1 0x3 NOT ADD SLT PUSH2 0x26A JUMPI PUSH1 0x20 SWAP2 DUP2 SWAP1 PUSH1 0x1 PUSH1 0x1 PUSH1 0xA0 SHL SUB PUSH2 0xC82 PUSH2 0x146B JUMP JUMPDEST AND DUP2 MSTORE DUP1 DUP5 MSTORE KECCAK256 SLOAD SWAP1 MLOAD SWAP1 DUP2 MSTORE RETURN JUMPDEST POP POP CALLVALUE PUSH2 0x26A JUMPI DUP2 PUSH1 0x3 NOT CALLDATASIZE ADD SLT PUSH2 0x26A JUMPI PUSH1 0x20 SWAP1 PUSH1 0xC SLOAD SWAP1 MLOAD SWAP1 DUP2 MSTORE RETURN JUMPDEST DUP4 DUP4 CALLVALUE PUSH2 0x26A JUMPI PUSH1 0x20 DUP1 PUSH1 0x3 NOT CALLDATASIZE ADD SLT PUSH2 0x464 JUMPI DUP4 CALLDATALOAD SWAP2 PUSH1 0x1 PUSH1 0x1 PUSH1 0xA0 SHL SUB SWAP2 PUSH32 0x0 DUP4 DUP2 AND SWAP1 PUSH2 0xD00 CALLER DUP4 EQ PUSH2 0x183A JUMP JUMPDEST DUP6 ISZERO SWAP8 DUP9 ISZERO PUSH2 0xD0D JUMPI DUP8 DUP1 RETURN JUMPDEST DUP3 ISZERO PUSH2 0xF80 JUMPI DUP7 SWAP9 PUSH2 0xD1E DUP4 PUSH2 0x1BD0 JUMP JUMPDEST PUSH2 0xD26 PUSH2 0x1A9D JUMP JUMPDEST PUSH1 0x5 SLOAD SWAP8 PUSH1 0xFF SWAP9 DUP10 DUP2 AND DUP1 PUSH2 0xF74 JUMPI JUMPDEST DUP1 PUSH2 0xF60 JUMPI JUMPDEST DUP1 PUSH2 0xF4A JUMPI JUMPDEST PUSH2 0xDF1 JUMPI JUMPDEST POP POP POP POP DUP1 PUSH2 0xD5F DUP9 SWAP10 PUSH2 0xD64 SWAP4 SWAP10 SWAP7 SWAP8 SWAP9 SWAP10 PUSH2 0x1915 JUMP JUMPDEST PUSH2 0x1E88 JUMP JUMPDEST PUSH2 0xD6C PUSH2 0x1CC5 JUMP JUMPDEST PUSH1 0x5 SLOAD DUP7 DUP2 AND SWAP7 DUP8 PUSH2 0xDE4 JUMPI JUMPDEST POP DUP7 PUSH2 0xDD4 JUMPI JUMPDEST POP POP DUP5 PUSH2 0xDBE JUMPI JUMPDEST POP POP POP DUP2 PUSH2 0xDB0 JUMPI JUMPDEST POP PUSH2 0xDA3 JUMPI JUMPDEST DUP1 DUP3 DUP1 DUP1 DUP1 DUP1 DUP1 DUP1 DUP8 DUP1 RETURN JUMPDEST PUSH2 0xDAB PUSH2 0x2205 JUMP JUMPDEST PUSH2 0xD97 JUMP JUMPDEST SWAP1 POP PUSH1 0x6 SLOAD AND ISZERO ISZERO DUP3 PUSH2 0xD91 JUMP JUMPDEST ADDRESS DUP3 MSTORE MSTORE DUP4 KECCAK256 SLOAD PUSH1 0x7 SLOAD GT ISZERO SWAP2 POP DUP4 DUP4 DUP2 PUSH2 0xD88 JUMP JUMPDEST PUSH1 0x8 SHR DUP6 AND EQ ISZERO SWAP5 POP DUP7 DUP1 PUSH2 0xD80 JUMP JUMPDEST PUSH1 0x8 SLOAD AND ISZERO SWAP7 POP DUP9 PUSH2 0xD79 JUMP JUMPDEST PUSH1 0x8 SHR DUP9 AND DUP6 DUP2 EQ SWAP3 PUSH2 0xDEAD SWAP3 SWAP2 DUP4 EQ DUP5 DUP1 ISZERO PUSH2 0xF43 JUMPI JUMPDEST PUSH2 0xE15 JUMPI JUMPDEST POP POP PUSH2 0xD47 JUMP JUMPDEST SWAP1 SWAP2 SWAP3 SWAP4 SWAP5 SWAP13 POP DUP12 SWAP1 PUSH2 0xF34 JUMPI JUMPDEST PUSH2 0x1F4 SWAP1 DUP2 ADD DUP1 SWAP2 GT PUSH2 0xF21 JUMPI PUSH2 0xE40 SWAP1 PUSH2 0x2710 SWAP2 DUP3 SWAP2 DUP6 PUSH2 0x18B2 JUMP JUMPDEST DIV SWAP2 PUSH1 0x96 DUP5 MUL SWAP1 DUP5 DUP3 DIV PUSH1 0x96 EQ OR ISZERO PUSH2 0xF0D JUMPI DUP13 SWAP14 POP PUSH1 0x60 PUSH2 0xD64 SWAP8 SWAP7 SWAP5 DUP11 DUP13 SWAP14 SWAP15 SWAP16 DUP1 SWAP14 PUSH2 0xEA0 PUSH2 0xD5F SWAP11 SWAP9 DUP15 SWAP9 PUSH1 0x0 DUP1 MLOAD PUSH1 0x20 PUSH2 0x27EA DUP4 CODECOPY DUP2 MLOAD SWAP2 MSTORE SWAP9 DIV SWAP6 DUP14 DUP8 DUP1 PUSH2 0xEFD JUMPI JUMPDEST PUSH2 0xE93 SWAP1 DUP5 PUSH2 0x18E5 JUMP JUMPDEST DUP1 PUSH2 0xEEB JUMPI JUMPDEST POP POP PUSH2 0x18E5 JUMP JUMPDEST SWAP9 PUSH2 0xEC6 JUMPI JUMPDEST SWAP2 POP POP MLOAD SWAP1 DUP2 MSTORE DUP12 DUP12 DUP3 ADD MSTORE DUP12 DUP14 DUP3 ADD MSTORE LOG3 SWAP10 SWAP9 SWAP8 SWAP7 SWAP6 DUP3 SWAP4 DUP13 DUP1 PUSH2 0xE0E JUMP JUMPDEST DUP8 DUP3 MSTORE PUSH1 0x9 SWAP1 SWAP3 MSTORE KECCAK256 PUSH2 0xEE3 SWAP1 TIMESTAMP PUSH1 0x1 PUSH1 0x1 PUSH1 0x40 SHL SUB AND SWAP1 PUSH2 0x18F2 JUMP JUMPDEST DUP11 DUP13 DUP15 PUSH2 0xEA6 JUMP JUMPDEST PUSH2 0xEF6 SWAP2 ADDRESS SWAP1 PUSH2 0x19B0 JUMP JUMPDEST DUP14 CODESIZE PUSH2 0xE99 JUMP JUMPDEST PUSH2 0xF06 SWAP2 PUSH2 0x1915 JUMP JUMPDEST DUP14 DUP8 PUSH2 0xE89 JUMP JUMPDEST POP PUSH4 0x4E487B71 PUSH1 0xE0 SHL DUP13 MSTORE PUSH1 0x11 DUP14 MSTORE PUSH1 0x24 DUP13 REVERT JUMPDEST PUSH4 0x4E487B71 PUSH1 0xE0 SHL DUP13 MSTORE PUSH1 0x11 DUP14 MSTORE PUSH1 0x24 DUP13 REVERT JUMPDEST POP PUSH2 0xF3E DUP6 PUSH2 0x2143 JUMP JUMPDEST PUSH2 0xE23 JUMP JUMPDEST POP DUP1 PUSH2 0xE09 JUMP JUMPDEST POP PUSH2 0xDEAD DUP12 MSTORE PUSH1 0xF DUP8 MSTORE DUP10 DUP9 DUP13 KECCAK256 SLOAD AND ISZERO PUSH2 0xD42 JUMP JUMPDEST POP DUP6 DUP12 MSTORE PUSH1 0xF DUP8 MSTORE DUP10 DUP9 DUP13 KECCAK256 SLOAD AND ISZERO PUSH2 0xD3C JUMP JUMPDEST POP DUP10 PUSH1 0x8 SLOAD AND ISZERO PUSH2 0xD36 JUMP JUMPDEST DUP5 MLOAD PUSH4 0x4B637E8F PUSH1 0xE1 SHL DUP2 MSTORE SWAP1 DUP2 ADD DUP9 SWAP1 MSTORE PUSH1 0x24 SWAP1 REVERT JUMPDEST SWAP2 SWAP1 POP CALLVALUE PUSH2 0x464 JUMPI DUP3 PUSH1 0x3 NOT CALLDATASIZE ADD SLT PUSH2 0x464 JUMPI PUSH2 0xFB2 PUSH2 0x25B9 JUMP JUMPDEST PUSH2 0xFBB CALLER PUSH2 0x1BD0 JUMP JUMPDEST CALLER DUP4 MSTORE PUSH1 0x9 PUSH1 0x20 MSTORE PUSH1 0x3 DUP2 DUP5 KECCAK256 ADD SWAP2 DUP3 SLOAD SWAP3 DUP4 ISZERO PUSH2 0x104E JUMPI DUP5 SWAP1 SSTORE DUP4 DUP1 DUP1 DUP1 DUP7 CALLER GAS CALL PUSH2 0xFE6 PUSH2 0x1873 JUMP JUMPDEST POP ISZERO PUSH2 0x101A JUMPI POP MLOAD SWAP1 DUP2 MSTORE PUSH1 0x0 DUP1 MLOAD PUSH1 0x20 PUSH2 0x278A DUP4 CODECOPY DUP2 MLOAD SWAP2 MSTORE PUSH1 0x20 CALLER SWAP3 LOG2 PUSH1 0x1 PUSH1 0x0 DUP1 MLOAD PUSH1 0x20 PUSH2 0x280A DUP4 CODECOPY DUP2 MLOAD SWAP2 MSTORE SSTORE DUP1 RETURN JUMPDEST PUSH1 0x20 PUSH1 0x64 SWAP3 MLOAD SWAP2 PUSH3 0x461BCD PUSH1 0xE5 SHL DUP4 MSTORE DUP3 ADD MSTORE PUSH1 0xF PUSH1 0x24 DUP3 ADD MSTORE PUSH15 0x115512081CD95B990819985A5B1959 PUSH1 0x8A SHL PUSH1 0x44 DUP3 ADD MSTORE REVERT JUMPDEST POP PUSH1 0x20 PUSH1 0x64 SWAP3 MLOAD SWAP2 PUSH3 0x461BCD PUSH1 0xE5 SHL DUP4 MSTORE DUP3 ADD MSTORE PUSH1 0x10 PUSH1 0x24 DUP3 ADD MSTORE PUSH16 0x4E6F7468696E6720746F20636C61696D PUSH1 0x80 SHL PUSH1 0x44 DUP3 ADD MSTORE REVERT JUMPDEST POP POP CALLVALUE PUSH2 0x26A JUMPI DUP2 PUSH1 0x3 NOT CALLDATASIZE ADD SLT PUSH2 0x26A JUMPI PUSH1 0x20 SWAP1 MLOAD PUSH1 0xC8 DUP2 MSTORE RETURN JUMPDEST POP POP CALLVALUE PUSH2 0x26A JUMPI PUSH1 0x20 CALLDATASIZE PUSH1 0x3 NOT ADD SLT PUSH2 0x26A JUMPI PUSH1 0x20 SWAP1 PUSH2 0x5B9 PUSH2 0x10C1 PUSH2 0x146B JUMP JUMPDEST PUSH2 0x25F8 JUMP JUMPDEST POP POP CALLVALUE PUSH2 0x26A JUMPI DUP2 PUSH1 0x3 NOT CALLDATASIZE ADD SLT PUSH2 0x26A JUMPI PUSH1 0x20 SWAP1 MLOAD PUSH1 0x12 DUP2 MSTORE RETURN JUMPDEST POP POP CALLVALUE PUSH2 0x26A JUMPI DUP1 PUSH1 0x3 NOT CALLDATASIZE ADD SLT PUSH2 0x26A JUMPI PUSH2 0x10FC PUSH2 0x146B JUMP JUMPDEST SWAP1 PUSH1 0x24 CALLDATALOAD SWAP2 DUP3 ISZERO ISZERO DUP1 SWAP4 SUB PUSH2 0x115B JUMPI PUSH1 0x1 PUSH1 0x1 PUSH1 0xA0 SHL SUB SWAP1 PUSH2 0x1141 CALLER PUSH32 0x0 DUP5 AND EQ PUSH2 0x270E JUMP JUMPDEST AND DUP4 MSTORE PUSH1 0xF PUSH1 0x20 MSTORE DUP3 KECCAK256 SWAP1 PUSH1 0xFF DUP1 NOT DUP4 SLOAD AND SWAP2 AND OR SWAP1 SSTORE DUP1 RETURN JUMPDEST DUP4 DUP1 REVERT JUMPDEST SWAP1 POP DUP3 CALLVALUE PUSH2 0x97F JUMPI PUSH1 0x60 CALLDATASIZE PUSH1 0x3 NOT ADD SLT PUSH2 0x97F JUMPI PUSH2 0x117B PUSH2 0x146B JUMP JUMPDEST PUSH2 0x1183 PUSH2 0x1486 JUMP JUMPDEST SWAP2 PUSH1 0x44 CALLDATALOAD SWAP4 PUSH1 0x1 DUP1 PUSH1 0xA0 SHL SUB DUP4 AND DUP1 DUP4 MSTORE PUSH1 0x1 PUSH1 0x20 MSTORE DUP7 DUP4 KECCAK256 CALLER DUP5 MSTORE PUSH1 0x20 MSTORE DUP7 DUP4 KECCAK256 SLOAD SWAP2 PUSH1 0x0 NOT DUP4 LT PUSH2 0x11BF JUMPI JUMPDEST PUSH1 0x20 DUP9 PUSH2 0x92C DUP10 DUP10 DUP10 PUSH2 0x1514 JUMP JUMPDEST DUP7 DUP4 LT PUSH2 0x1227 JUMPI DUP2 ISZERO PUSH2 0x1210 JUMPI CALLER ISZERO PUSH2 0x11F9 JUMPI POP DUP3 MSTORE PUSH1 0x1 PUSH1 0x20 SWAP1 DUP2 MSTORE DUP7 DUP4 KECCAK256 CALLER DUP5 MSTORE DUP2 MSTORE SWAP2 DUP7 SWAP1 KECCAK256 SWAP1 DUP6 SWAP1 SUB SWAP1 SSTORE DUP3 SWAP1 PUSH2 0x92C DUP8 PUSH2 0x11B1 JUMP JUMPDEST DUP8 MLOAD PUSH4 0x4A1406B1 PUSH1 0xE1 SHL DUP2 MSTORE SWAP1 DUP2 ADD DUP5 SWAP1 MSTORE PUSH1 0x24 SWAP1 REVERT JUMPDEST DUP8 MLOAD PUSH4 0xE602DF05 PUSH1 0xE0 SHL DUP2 MSTORE SWAP1 DUP2 ADD DUP5 SWAP1 MSTORE PUSH1 0x24 SWAP1 REVERT JUMPDEST SWAP1 POP PUSH2 0x1245 DUP7 DUP9 MLOAD SWAP4 DUP5 SWAP4 PUSH4 0x7DC7A0D9 PUSH1 0xE1 SHL DUP6 MSTORE CALLER SWAP1 DUP6 ADD PUSH2 0x181C JUMP JUMPDEST SUB SWAP1 REVERT JUMPDEST POP POP CALLVALUE PUSH2 0x26A JUMPI DUP2 PUSH1 0x3 NOT CALLDATASIZE ADD SLT PUSH2 0x26A JUMPI MLOAD PUSH8 0x14ADF4B7320334B9 PUSH1 0x1D SHL DUP2 MSTORE PUSH1 0x20 SWAP1 RETURN JUMPDEST POP POP CALLVALUE PUSH2 0x26A JUMPI DUP2 PUSH1 0x3 NOT CALLDATASIZE ADD SLT PUSH2 0x26A JUMPI PUSH1 0x20 SWAP1 PUSH1 0x2 SLOAD SWAP1 MLOAD SWAP1 DUP2 MSTORE RETURN JUMPDEST POP POP CALLVALUE PUSH2 0x26A JUMPI DUP2 PUSH1 0x3 NOT CALLDATASIZE ADD SLT PUSH2 0x26A JUMPI PUSH1 0x20 SWAP1 PUSH1 0x10 SLOAD SWAP1 MLOAD SWAP1 DUP2 MSTORE RETURN JUMPDEST POP POP CALLVALUE PUSH2 0x26A JUMPI DUP1 PUSH1 0x3 NOT CALLDATASIZE ADD SLT PUSH2 0x26A JUMPI PUSH1 0x20 SWAP1 PUSH2 0x92C PUSH2 0x12CD PUSH2 0x146B JUMP JUMPDEST PUSH1 0x24 CALLDATALOAD SWAP1 CALLER PUSH2 0x1789 JUMP JUMPDEST POP POP CALLVALUE PUSH2 0x26A JUMPI DUP2 PUSH1 0x3 NOT CALLDATASIZE ADD SLT PUSH2 0x26A JUMPI PUSH1 0x20 SWAP1 PUSH2 0x5B9 PUSH2 0x12FB PUSH1 0xB SLOAD TIMESTAMP PUSH2 0x18E5 JUMP JUMPDEST PUSH2 0x130A PUSH1 0xA SLOAD SWAP2 PUSH1 0xC SLOAD PUSH2 0x18B2 JUMP JUMPDEST SWAP1 PUSH2 0x14B8 JUMP JUMPDEST SWAP2 SWAP1 POP CALLVALUE PUSH2 0x464 JUMPI DUP3 PUSH1 0x3 NOT CALLDATASIZE ADD SLT PUSH2 0x464 JUMPI DUP1 MLOAD SWAP2 DUP4 PUSH1 0x3 SLOAD SWAP1 PUSH1 0x1 SWAP1 DUP3 DUP3 SHR SWAP3 DUP3 DUP2 AND DUP1 ISZERO PUSH2 0x13DD JUMPI JUMPDEST PUSH1 0x20 SWAP6 DUP7 DUP7 LT DUP3 EQ PUSH2 0x13CA JUMPI POP DUP5 DUP9 MSTORE SWAP1 DUP2 ISZERO PUSH2 0x13A8 JUMPI POP PUSH1 0x1 EQ PUSH2 0x136D JUMPI JUMPDEST PUSH2 0xAB8 DUP7 DUP7 PUSH2 0xAAE DUP3 DUP12 SUB DUP4 PUSH2 0x14DB JUMP JUMPDEST SWAP3 SWAP6 POP PUSH1 0x3 DUP4 MSTORE DUP6 DUP4 KECCAK256 JUMPDEST DUP3 DUP5 LT PUSH2 0x1395 JUMPI POP POP POP DUP3 PUSH2 0xAB8 SWAP5 PUSH2 0xAAE SWAP3 DUP3 ADD ADD SWAP5 CODESIZE PUSH2 0x135C JUMP JUMPDEST DUP1 SLOAD DUP7 DUP6 ADD DUP9 ADD MSTORE SWAP3 DUP7 ADD SWAP3 DUP2 ADD PUSH2 0x1378 JUMP JUMPDEST PUSH1 0xFF NOT AND DUP8 DUP7 ADD MSTORE POP POP POP ISZERO ISZERO PUSH1 0x5 SHL DUP4 ADD ADD SWAP3 POP PUSH2 0xAAE DUP3 PUSH2 0xAB8 CODESIZE PUSH2 0x135C JUMP JUMPDEST PUSH4 0x4E487B71 PUSH1 0xE0 SHL DUP5 MSTORE PUSH1 0x22 SWAP1 MSTORE PUSH1 0x24 DUP4 REVERT JUMPDEST SWAP4 PUSH1 0x7F AND SWAP4 PUSH2 0x133C JUMP JUMPDEST POP POP CALLVALUE PUSH2 0x26A JUMPI DUP2 PUSH1 0x3 NOT CALLDATASIZE ADD SLT PUSH2 0x26A JUMPI PUSH1 0x20 SWAP1 PUSH1 0x7 SLOAD SWAP1 MLOAD SWAP1 DUP2 MSTORE RETURN JUMPDEST DUP5 SWAP1 CALLVALUE PUSH2 0x26A JUMPI DUP2 PUSH1 0x3 NOT CALLDATASIZE ADD SLT PUSH2 0x26A JUMPI DUP1 PUSH2 0xDEAD PUSH1 0x20 SWAP3 MSTORE RETURN JUMPDEST PUSH1 0x20 DUP1 DUP3 MSTORE DUP3 MLOAD DUP2 DUP4 ADD DUP2 SWAP1 MSTORE SWAP1 SWAP4 SWAP3 PUSH1 0x0 JUMPDEST DUP3 DUP2 LT PUSH2 0x1457 JUMPI POP POP PUSH1 0x40 SWAP3 SWAP4 POP PUSH1 0x0 DUP4 DUP3 DUP5 ADD ADD MSTORE PUSH1 0x1F DUP1 NOT SWAP2 ADD AND ADD ADD SWAP1 JUMP JUMPDEST DUP2 DUP2 ADD DUP7 ADD MLOAD DUP5 DUP3 ADD PUSH1 0x40 ADD MSTORE DUP6 ADD PUSH2 0x1435 JUMP JUMPDEST PUSH1 0x4 CALLDATALOAD SWAP1 PUSH1 0x1 PUSH1 0x1 PUSH1 0xA0 SHL SUB DUP3 AND DUP3 SUB PUSH2 0x1481 JUMPI JUMP JUMPDEST PUSH1 0x0 DUP1 REVERT JUMPDEST PUSH1 0x24 CALLDATALOAD SWAP1 PUSH1 0x1 PUSH1 0x1 PUSH1 0xA0 SHL SUB DUP3 AND DUP3 SUB PUSH2 0x1481 JUMPI JUMP JUMPDEST CALLVALUE PUSH2 0x1481 JUMPI PUSH1 0x0 CALLDATASIZE PUSH1 0x3 NOT ADD SLT PUSH2 0x1481 JUMPI PUSH1 0x20 PUSH1 0x40 MLOAD PUSH1 0x96 DUP2 MSTORE RETURN JUMPDEST SWAP2 SWAP1 DUP3 ADD DUP1 SWAP3 GT PUSH2 0x14C5 JUMPI JUMP JUMPDEST PUSH4 0x4E487B71 PUSH1 0xE0 SHL PUSH1 0x0 MSTORE PUSH1 0x11 PUSH1 0x4 MSTORE PUSH1 0x24 PUSH1 0x0 REVERT JUMPDEST PUSH1 0x1F SWAP1 SWAP2 ADD PUSH1 0x1F NOT AND DUP2 ADD SWAP1 PUSH1 0x1 PUSH1 0x1 PUSH1 0x40 SHL SUB DUP3 GT SWAP1 DUP3 LT OR PUSH2 0x14FE JUMPI PUSH1 0x40 MSTORE JUMP JUMPDEST PUSH4 0x4E487B71 PUSH1 0xE0 SHL PUSH1 0x0 MSTORE PUSH1 0x41 PUSH1 0x4 MSTORE PUSH1 0x24 PUSH1 0x0 REVERT JUMPDEST PUSH1 0x1 PUSH1 0x1 PUSH1 0xA0 SHL SUB SWAP3 SWAP2 DUP4 DUP3 AND SWAP2 SWAP1 DUP3 ISZERO PUSH2 0x1770 JUMPI DUP5 DUP2 AND SWAP2 DUP3 ISZERO PUSH2 0x1757 JUMPI DUP5 SWAP3 PUSH2 0x153E DUP3 PUSH2 0x1BD0 JUMP JUMPDEST PUSH2 0x1547 DUP4 PUSH2 0x1BD0 JUMP JUMPDEST PUSH1 0x5 SLOAD SWAP6 DUP8 PUSH1 0xFF SWAP8 DUP9 DUP2 AND DUP1 PUSH2 0x174B JUMPI JUMPDEST DUP1 PUSH2 0x1733 JUMPI JUMPDEST DUP1 PUSH2 0x171B JUMPI JUMPDEST PUSH2 0x15FA JUMPI JUMPDEST POP POP POP POP DUP1 PUSH2 0xD5F PUSH2 0x157F SWAP5 DUP5 PUSH2 0xD5F SWAP5 PUSH2 0x19B0 JUMP JUMPDEST PUSH1 0x5 SLOAD DUP3 DUP2 AND SWAP3 DUP4 PUSH2 0x15ED JUMPI JUMPDEST POP DUP3 PUSH2 0x15DD JUMPI JUMPDEST POP POP SWAP1 DUP2 PUSH2 0x15C1 JUMPI JUMPDEST DUP2 PUSH2 0x15B3 JUMPI JUMPDEST POP PUSH2 0x15A9 JUMPI JUMP JUMPDEST PUSH2 0x15B1 PUSH2 0x2205 JUMP JUMPDEST JUMP JUMPDEST SWAP1 POP PUSH1 0x6 SLOAD AND ISZERO ISZERO CODESIZE PUSH2 0x15A2 JUMP JUMPDEST SWAP1 POP ADDRESS PUSH1 0x0 MSTORE PUSH1 0x0 PUSH1 0x20 MSTORE PUSH1 0x40 PUSH1 0x0 KECCAK256 SLOAD PUSH1 0x7 SLOAD GT ISZERO SWAP1 PUSH2 0x159C JUMP JUMPDEST PUSH1 0x8 SHR DUP4 AND EQ ISZERO SWAP1 POP CODESIZE DUP1 PUSH2 0x1593 JUMP JUMPDEST PUSH1 0x8 SLOAD AND ISZERO SWAP3 POP CODESIZE PUSH2 0x158C JUMP JUMPDEST PUSH1 0x8 SHR AND DUP3 DUP2 EQ SWAP2 SWAP1 DUP8 EQ DUP1 DUP1 ISZERO PUSH2 0x1714 JUMPI JUMPDEST PUSH2 0x161A JUMPI JUMPDEST DUP10 SWAP2 POP PUSH2 0x1569 JUMP JUMPDEST SWAP1 SWAP2 SWAP4 SWAP3 SWAP6 POP PUSH1 0x0 SWAP4 PUSH2 0x1703 JUMPI JUMPDEST PUSH2 0x1F4 SWAP4 DUP5 ADD DUP1 SWAP5 GT PUSH2 0x14C5 JUMPI PUSH2 0x1645 SWAP4 PUSH2 0x2710 SWAP5 DUP6 SWAP2 DUP5 PUSH2 0x18B2 JUMP JUMPDEST DIV SWAP6 PUSH1 0x96 DUP4 MUL DUP4 DUP2 DIV PUSH1 0x96 EQ DUP5 ISZERO OR ISZERO PUSH2 0x14C5 JUMPI PUSH1 0x0 DUP1 MLOAD PUSH1 0x20 PUSH2 0x27EA DUP4 CODECOPY DUP2 MLOAD SWAP2 MSTORE PUSH1 0x60 PUSH2 0xD5F SWAP6 PUSH2 0x1699 PUSH2 0x157F SWAP12 PUSH2 0xD5F SWAP11 DUP15 SWAP7 DIV SWAP3 DUP4 PUSH2 0x16F4 JUMPI JUMPDEST PUSH2 0x168D DUP5 DUP4 PUSH2 0x18E5 JUMP JUMPDEST DUP1 PUSH2 0x16E3 JUMPI JUMPDEST POP PUSH2 0x18E5 JUMP JUMPDEST SWAP6 PUSH2 0x16BC JUMPI JUMPDEST PUSH1 0x40 MLOAD SWAP1 DUP2 MSTORE PUSH1 0x0 PUSH1 0x20 DUP3 ADD MSTORE PUSH1 0x0 PUSH1 0x40 DUP3 ADD MSTORE LOG3 SWAP5 DUP3 SWAP4 PUSH2 0x1612 JUMP JUMPDEST PUSH1 0x0 DUP6 DUP2 MSTORE PUSH1 0x9 PUSH1 0x20 MSTORE PUSH1 0x40 SWAP1 KECCAK256 PUSH2 0x16DE SWAP1 TIMESTAMP PUSH1 0x1 PUSH1 0x1 PUSH1 0x40 SHL SUB AND SWAP1 PUSH2 0x18F2 JUMP JUMPDEST PUSH2 0x169F JUMP JUMPDEST PUSH2 0x16EE SWAP1 ADDRESS DUP14 PUSH2 0x19B0 JUMP JUMPDEST CODESIZE PUSH2 0x1693 JUMP JUMPDEST PUSH2 0x16FE DUP5 DUP13 PUSH2 0x1915 JUMP JUMPDEST PUSH2 0x1683 JUMP JUMPDEST SWAP3 POP PUSH2 0x170E DUP3 PUSH2 0x2143 JUMP JUMPDEST SWAP3 PUSH2 0x1628 JUMP JUMPDEST POP DUP3 PUSH2 0x160D JUMP JUMPDEST POP DUP4 PUSH1 0x0 MSTORE PUSH1 0xF PUSH1 0x20 MSTORE DUP9 PUSH1 0x40 PUSH1 0x0 KECCAK256 SLOAD AND ISZERO PUSH2 0x1564 JUMP JUMPDEST POP DUP8 PUSH1 0x0 MSTORE PUSH1 0xF PUSH1 0x20 MSTORE DUP9 PUSH1 0x40 PUSH1 0x0 KECCAK256 SLOAD AND ISZERO PUSH2 0x155E JUMP JUMPDEST POP DUP9 PUSH1 0x8 SLOAD AND ISZERO PUSH2 0x1558 JUMP JUMPDEST PUSH1 0x40 MLOAD PUSH4 0xEC442F05 PUSH1 0xE0 SHL DUP2 MSTORE PUSH1 0x0 PUSH1 0x4 DUP3 ADD MSTORE PUSH1 0x24 SWAP1 REVERT JUMPDEST PUSH1 0x40 MLOAD PUSH4 0x4B637E8F PUSH1 0xE1 SHL DUP2 MSTORE PUSH1 0x0 PUSH1 0x4 DUP3 ADD MSTORE PUSH1 0x24 SWAP1 REVERT JUMPDEST PUSH1 0x1 PUSH1 0x1 PUSH1 0xA0 SHL SUB SWAP1 DUP2 AND SWAP2 DUP3 ISZERO PUSH2 0x1803 JUMPI AND SWAP2 DUP3 ISZERO PUSH2 0x17EA JUMPI PUSH1 0x20 PUSH32 0x8C5BE1E5EBEC7D5BD14F71427D1E84F3DD0314C0F7B2291E5B200AC8C7C3B925 SWAP2 DUP4 PUSH1 0x0 MSTORE PUSH1 0x1 DUP3 MSTORE PUSH1 0x40 PUSH1 0x0 KECCAK256 DUP6 PUSH1 0x0 MSTORE DUP3 MSTORE DUP1 PUSH1 0x40 PUSH1 0x0 KECCAK256 SSTORE PUSH1 0x40 MLOAD SWAP1 DUP2 MSTORE LOG3 JUMP JUMPDEST PUSH1 0x40 MLOAD PUSH4 0x4A1406B1 PUSH1 0xE1 SHL DUP2 MSTORE PUSH1 0x0 PUSH1 0x4 DUP3 ADD MSTORE PUSH1 0x24 SWAP1 REVERT JUMPDEST PUSH1 0x40 MLOAD PUSH4 0xE602DF05 PUSH1 0xE0 SHL DUP2 MSTORE PUSH1 0x0 PUSH1 0x4 DUP3 ADD MSTORE PUSH1 0x24 SWAP1 REVERT JUMPDEST PUSH1 0x40 SWAP2 SWAP5 SWAP4 SWAP3 PUSH1 0x60 DUP3 ADD SWAP6 PUSH1 0x1 DUP1 PUSH1 0xA0 SHL SUB AND DUP3 MSTORE PUSH1 0x20 DUP3 ADD MSTORE ADD MSTORE JUMP JUMPDEST ISZERO PUSH2 0x1841 JUMPI JUMP JUMPDEST PUSH1 0x40 MLOAD PUSH3 0x461BCD PUSH1 0xE5 SHL DUP2 MSTORE PUSH1 0x20 PUSH1 0x4 DUP3 ADD MSTORE PUSH1 0xA PUSH1 0x24 DUP3 ADD MSTORE PUSH10 0x4F6E6C79206375727665 PUSH1 0xB0 SHL PUSH1 0x44 DUP3 ADD MSTORE PUSH1 0x64 SWAP1 REVERT JUMPDEST RETURNDATASIZE ISZERO PUSH2 0x18AD JUMPI RETURNDATASIZE SWAP1 PUSH1 0x1 PUSH1 0x1 PUSH1 0x40 SHL SUB DUP3 GT PUSH2 0x14FE JUMPI PUSH1 0x40 MLOAD SWAP2 PUSH2 0x18A1 PUSH1 0x1F DUP3 ADD PUSH1 0x1F NOT AND PUSH1 0x20 ADD DUP5 PUSH2 0x14DB JUMP JUMPDEST DUP3 MSTORE RETURNDATASIZE PUSH1 0x0 PUSH1 0x20 DUP5 ADD RETURNDATACOPY JUMP JUMPDEST PUSH1 0x60 SWAP1 JUMP JUMPDEST DUP2 DUP2 MUL SWAP3 SWAP2 DUP2 ISZERO SWAP2 DUP5 DIV EQ OR ISZERO PUSH2 0x14C5 JUMPI JUMP JUMPDEST DUP2 ISZERO PUSH2 0x18CF JUMPI DIV SWAP1 JUMP JUMPDEST PUSH4 0x4E487B71 PUSH1 0xE0 SHL PUSH1 0x0 MSTORE PUSH1 0x12 PUSH1 0x4 MSTORE PUSH1 0x24 PUSH1 0x0 REVERT JUMPDEST SWAP2 SWAP1 DUP3 SUB SWAP2 DUP3 GT PUSH2 0x14C5 JUMPI JUMP JUMPDEST DUP1 SLOAD PUSH1 0x1 PUSH1 0x1 PUSH1 0xC0 SHL SUB AND PUSH1 0xC0 SWAP3 SWAP1 SWAP3 SHL PUSH1 0x1 PUSH1 0x1 PUSH1 0xC0 SHL SUB NOT AND SWAP2 SWAP1 SWAP2 OR SWAP1 SSTORE JUMP JUMPDEST PUSH1 0x1 PUSH1 0x1 PUSH1 0xA0 SHL SUB DUP2 AND SWAP1 DUP2 PUSH2 0x1967 JUMPI POP PUSH2 0x1932 DUP3 PUSH1 0x2 SLOAD PUSH2 0x14B8 JUMP JUMPDEST PUSH1 0x2 SSTORE JUMPDEST PUSH1 0x0 DUP1 MLOAD PUSH1 0x20 PUSH2 0x27CA DUP4 CODECOPY DUP2 MLOAD SWAP2 MSTORE PUSH1 0x20 PUSH2 0xDEAD SWAP4 DUP5 PUSH1 0x0 MSTORE PUSH1 0x0 DUP3 MSTORE PUSH1 0x40 PUSH1 0x0 KECCAK256 DUP2 DUP2 SLOAD ADD SWAP1 SSTORE PUSH1 0x40 MLOAD SWAP1 DUP2 MSTORE LOG3 JUMP JUMPDEST PUSH1 0x0 SWAP1 DUP3 DUP3 MSTORE DUP2 PUSH1 0x20 MSTORE PUSH1 0x40 DUP3 KECCAK256 SLOAD SWAP1 DUP5 DUP3 LT PUSH2 0x1993 JUMPI POP DUP4 PUSH1 0x40 SWAP2 DUP5 DUP5 MSTORE DUP4 PUSH1 0x20 MSTORE SUB SWAP2 KECCAK256 SSTORE PUSH2 0x1936 JUMP JUMPDEST PUSH2 0x1245 DUP6 PUSH1 0x40 MLOAD SWAP4 DUP5 SWAP4 PUSH4 0x391434E3 PUSH1 0xE2 SHL DUP6 MSTORE PUSH1 0x4 DUP6 ADD PUSH2 0x181C JUMP JUMPDEST PUSH1 0x1 PUSH1 0x1 PUSH1 0xA0 SHL SUB DUP1 DUP3 AND SWAP3 SWAP1 SWAP2 DUP4 PUSH2 0x1A18 JUMPI POP PUSH1 0x0 DUP1 MLOAD PUSH1 0x20 PUSH2 0x27CA DUP4 CODECOPY DUP2 MLOAD SWAP2 MSTORE SWAP2 PUSH1 0x20 SWAP2 PUSH2 0x19E3 DUP7 PUSH1 0x2 SLOAD PUSH2 0x14B8 JUMP JUMPDEST PUSH1 0x2 SSTORE JUMPDEST AND SWAP4 DUP5 PUSH2 0x1A00 JUMPI DUP1 PUSH1 0x2 SLOAD SUB PUSH1 0x2 SSTORE JUMPDEST PUSH1 0x40 MLOAD SWAP1 DUP2 MSTORE LOG3 JUMP JUMPDEST DUP5 PUSH1 0x0 MSTORE PUSH1 0x0 DUP3 MSTORE PUSH1 0x40 PUSH1 0x0 KECCAK256 DUP2 DUP2 SLOAD ADD SWAP1 SSTORE PUSH2 0x19F7 JUMP JUMPDEST PUSH1 0x0 SWAP1 DUP5 DUP3 MSTORE DUP2 PUSH1 0x20 MSTORE PUSH1 0x40 DUP3 KECCAK256 SLOAD SWAP1 DUP7 DUP3 LT PUSH2 0x1A57 JUMPI POP SWAP2 DUP2 PUSH1 0x40 DUP8 PUSH1 0x20 SWAP6 DUP9 PUSH1 0x0 DUP1 MLOAD PUSH1 0x20 PUSH2 0x27CA DUP4 CODECOPY DUP2 MLOAD SWAP2 MSTORE SWAP9 SWAP7 MSTORE DUP4 DUP8 MSTORE SUB SWAP2 KECCAK256 SSTORE PUSH2 0x19E7 JUMP JUMPDEST PUSH2 0x1245 DUP8 PUSH1 0x40 MLOAD SWAP4 DUP5 SWAP4 PUSH4 0x391434E3 PUSH1 0xE2 SHL DUP6 MSTORE PUSH1 0x4 DUP6 ADD PUSH2 0x181C JUMP JUMPDEST DUP1 SLOAD PUSH1 0x1 PUSH1 0x80 SHL PUSH1 0x1 PUSH1 0xC0 SHL SUB NOT AND PUSH1 0x80 SWAP3 SWAP1 SWAP3 SHL PUSH1 0x1 PUSH1 0x80 SHL PUSH1 0x1 PUSH1 0xC0 SHL SUB AND SWAP2 SWAP1 SWAP2 OR SWAP1 SSTORE JUMP JUMPDEST PUSH2 0x1AA5 PUSH2 0x1C0C JUMP JUMPDEST ISZERO PUSH2 0x15B1 JUMPI PUSH2 0xDEAD PUSH1 0x0 MSTORE PUSH1 0x9 PUSH1 0x20 MSTORE PUSH1 0xD SLOAD PUSH32 0x960B1051749987B45B5679007FFF577A1C2F763EC21C15A6C5EB193075003787 DUP1 SLOAD PUSH2 0x15B1 SWAP3 PUSH1 0x0 DUP1 MLOAD PUSH1 0x20 PUSH2 0x276A DUP4 CODECOPY DUP2 MLOAD SWAP2 MSTORE SWAP3 SWAP2 PUSH2 0x1AF9 SWAP2 PUSH2 0x18E5 JUMP JUMPDEST DUP1 PUSH2 0x1B48 JUMPI JUMPDEST POP POP DUP1 SLOAD PUSH1 0x1 PUSH1 0x1 PUSH1 0x40 SHL SUB SWAP1 PUSH2 0x1B2F SWAP1 PUSH2 0x1B20 PUSH1 0x80 DUP3 SWAP1 SHR DUP5 AND TIMESTAMP PUSH2 0x18E5 JUMP JUMPDEST SWAP1 PUSH1 0x1 PUSH1 0x1 PUSH1 0x80 SHL SUB AND PUSH2 0x18B2 JUMP JUMPDEST PUSH2 0x1B3E PUSH1 0x1 DUP5 ADD SWAP2 DUP3 SLOAD PUSH2 0x14B8 JUMP JUMPDEST SWAP1 SSTORE TIMESTAMP AND SWAP1 PUSH2 0x1A74 JUMP JUMPDEST PUSH1 0xE SLOAD DUP4 SLOAD PUSH2 0x1B89 SWAP2 PUSH2 0x130A SWAP1 PUSH2 0x1B75 SWAP1 PUSH1 0x80 DUP5 SWAP1 SHR PUSH1 0x1 PUSH1 0x1 PUSH1 0x40 SHL SUB AND SWAP1 DUP2 DUP2 GT ISZERO PUSH2 0x1BC9 JUMPI PUSH2 0x18E5 JUMP JUMPDEST PUSH1 0x1 DUP8 ADD SLOAD SWAP3 PUSH1 0x1 PUSH1 0x1 PUSH1 0x80 SHL SUB AND PUSH2 0x18B2 JUMP JUMPDEST DUP1 PUSH2 0x1B9D JUMPI JUMPDEST POP POP PUSH1 0xD SLOAD SWAP1 SSTORE CODESIZE DUP1 PUSH2 0x1AFF JUMP JUMPDEST PUSH8 0xDE0B6B3A7640000 SWAP2 PUSH2 0x1BB0 SWAP2 PUSH2 0x18B2 JUMP JUMPDEST DIV PUSH2 0x1BC0 PUSH1 0x3 DUP5 ADD SWAP2 DUP3 SLOAD PUSH2 0x14B8 JUMP JUMPDEST SWAP1 SSTORE CODESIZE DUP1 PUSH2 0x1B8F JUMP JUMPDEST POP DUP1 PUSH2 0x18E5 JUMP JUMPDEST PUSH2 0x1BD9 DUP2 PUSH2 0x1C7B JUMP JUMPDEST ISZERO PUSH2 0x1C09 JUMPI PUSH1 0x1 DUP1 PUSH1 0xA0 SHL SUB AND PUSH1 0x0 MSTORE PUSH1 0x9 PUSH1 0x20 MSTORE PUSH2 0x15B1 PUSH1 0x40 PUSH1 0x0 KECCAK256 PUSH1 0xD SLOAD PUSH2 0x1AF9 PUSH1 0x2 DUP4 ADD SWAP2 DUP3 SLOAD SWAP1 PUSH2 0x18E5 JUMP JUMPDEST POP JUMP JUMPDEST PUSH2 0xDEAD PUSH1 0x0 DUP2 SWAP1 MSTORE PUSH1 0xF PUSH1 0x20 MSTORE PUSH32 0x99629F56119585BF27511B6B7D295DFFB54757453FCC3DABCF51D92028301F10 SLOAD PUSH1 0xFF AND PUSH2 0x1C75 JUMPI PUSH1 0x5 SLOAD PUSH1 0x8 SHR PUSH1 0x1 PUSH1 0x1 PUSH1 0xA0 SHL SUB AND DUP1 ISZERO ISZERO SWAP2 DUP3 PUSH2 0x1C6B JUMPI JUMPDEST POP POP PUSH2 0x1C66 JUMPI PUSH1 0x1 SWAP1 JUMP JUMPDEST PUSH1 0x0 SWAP1 JUMP JUMPDEST EQ SWAP1 POP CODESIZE DUP1 PUSH2 0x1C5B JUMP JUMPDEST POP PUSH1 0x0 SWAP1 JUMP JUMPDEST PUSH1 0x1 PUSH1 0x1 PUSH1 0xA0 SHL SUB SWAP1 DUP2 AND SWAP1 DUP2 ISZERO PUSH2 0x1CBE JUMPI DUP2 PUSH1 0x0 MSTORE PUSH1 0xF PUSH1 0x20 MSTORE PUSH1 0xFF PUSH1 0x40 PUSH1 0x0 KECCAK256 SLOAD AND PUSH2 0x1CBE JUMPI PUSH1 0x5 SLOAD PUSH1 0x8 SHR AND DUP1 ISZERO ISZERO SWAP2 DUP3 PUSH2 0x1C6B JUMPI POP POP PUSH2 0x1C66 JUMPI PUSH1 0x1 SWAP1 JUMP JUMPDEST POP POP PUSH1 0x0 SWAP1 JUMP JUMPDEST PUSH2 0x1CCD PUSH2 0x1C0C JUMP JUMPDEST ISZERO PUSH2 0x15B1 JUMPI PUSH2 0xDEAD PUSH1 0x0 DUP2 DUP2 MSTORE PUSH1 0x9 PUSH1 0x20 MSTORE PUSH1 0x0 DUP1 MLOAD PUSH1 0x20 PUSH2 0x276A DUP4 CODECOPY DUP2 MLOAD SWAP2 MSTORE SWAP2 SWAP1 PUSH2 0x1CF8 PUSH2 0x2028 JUMP JUMPDEST DUP2 DUP2 MSTORE PUSH1 0x20 DUP2 SWAP1 MSTORE PUSH1 0x40 DUP2 KECCAK256 SLOAD DUP4 SLOAD PUSH1 0x1 PUSH1 0x1 PUSH1 0x80 SHL SUB SWAP1 DUP2 AND DUP1 DUP4 LT SWAP5 SWAP2 SWAP4 SWAP2 DUP6 DUP1 PUSH2 0x1E7F JUMPI JUMPDEST PUSH2 0x1E11 JUMPI JUMPDEST POP DUP3 DUP2 DUP2 GT SWAP6 DUP7 PUSH1 0x0 EQ PUSH2 0x1DD5 JUMPI POP PUSH2 0x1D4B SWAP3 POP SWAP1 PUSH2 0x1D43 SWAP2 PUSH2 0x18E5 JUMP JUMPDEST PUSH1 0xC SLOAD PUSH2 0x14B8 JUMP JUMPDEST PUSH1 0xC SSTORE JUMPDEST DUP4 SLOAD PUSH1 0x1 PUSH1 0x1 PUSH1 0x80 SHL SUB NOT AND SWAP2 AND OR DUP3 SSTORE TIMESTAMP PUSH1 0x1 PUSH1 0x1 PUSH1 0x40 SHL SUB AND SWAP1 PUSH2 0x1D75 DUP3 DUP5 PUSH2 0x1A74 JUMP JUMPDEST PUSH1 0xFF PUSH1 0x5 SLOAD AND ISZERO SWAP1 DUP2 PUSH2 0x1DCD JUMPI JUMPDEST POP DUP1 PUSH2 0x1D9B JUMPI JUMPDEST PUSH2 0x1D92 JUMPI POP POP JUMP JUMPDEST PUSH2 0x15B1 SWAP2 PUSH2 0x18F2 JUMP JUMPDEST POP CALLER PUSH32 0x0 PUSH1 0x1 PUSH1 0x1 PUSH1 0xA0 SHL SUB AND EQ PUSH2 0x1D8A JUMP JUMPDEST SWAP1 POP CODESIZE PUSH2 0x1D83 JUMP JUMPDEST PUSH2 0x1DE2 JUMPI JUMPDEST POP POP POP PUSH2 0x1D4F JUMP JUMPDEST PUSH2 0x1DEB SWAP2 PUSH2 0x18E5 JUMP JUMPDEST PUSH1 0xC SLOAD DUP2 DUP2 LT PUSH2 0x1E0A JUMPI PUSH2 0x1DFF SWAP3 POP PUSH2 0x18E5 JUMP JUMPDEST PUSH1 0xC SSTORE CODESIZE DUP1 DUP3 PUSH2 0x1DDA JUMP JUMPDEST POP POP PUSH2 0x1DFF JUMP JUMPDEST PUSH1 0x1 DUP8 ADD DUP1 SLOAD SWAP2 PUSH2 0x1E35 PUSH2 0x1E2E DUP6 PUSH2 0x1E29 DUP10 DUP8 PUSH2 0x18B2 JUMP JUMPDEST PUSH2 0x18C5 JUMP JUMPDEST DUP1 SWAP5 PUSH2 0x18E5 JUMP JUMPDEST PUSH1 0xA SLOAD DUP2 DUP2 LT PUSH2 0x1E58 JUMPI POP PUSH2 0x1E4D SWAP2 POP PUSH1 0xA SLOAD PUSH2 0x18E5 JUMP JUMPDEST PUSH1 0xA SSTORE JUMPDEST SSTORE CODESIZE PUSH2 0x1D25 JUMP JUMPDEST PUSH1 0x0 DUP1 MLOAD PUSH1 0x20 PUSH2 0x282A DUP4 CODECOPY DUP2 MLOAD SWAP2 MSTORE SWAP2 PUSH1 0x40 SWAP2 DUP3 MLOAD SWAP2 DUP3 MSTORE PUSH1 0x20 DUP3 ADD MSTORE LOG2 DUP4 PUSH1 0xA SSTORE PUSH2 0x1E51 JUMP JUMPDEST POP DUP2 ISZERO ISZERO PUSH2 0x1D20 JUMP JUMPDEST PUSH2 0x1E91 DUP2 PUSH2 0x1C7B JUMP JUMPDEST ISZERO PUSH2 0x1C09 JUMPI PUSH1 0x1 PUSH1 0x1 PUSH1 0xA0 SHL SUB SWAP1 DUP2 AND PUSH1 0x0 DUP2 DUP2 MSTORE PUSH1 0x9 PUSH1 0x20 MSTORE PUSH1 0x40 DUP2 KECCAK256 SWAP3 SWAP2 SWAP1 PUSH2 0x1EBA PUSH2 0x2028 JUMP JUMPDEST DUP2 DUP2 MSTORE PUSH1 0x20 DUP2 SWAP1 MSTORE PUSH1 0x40 DUP2 KECCAK256 SLOAD DUP5 SLOAD PUSH1 0x1 PUSH1 0x1 PUSH1 0x80 SHL SUB SWAP1 DUP2 AND DUP1 DUP4 LT SWAP5 SWAP2 SWAP4 SWAP2 DUP6 DUP1 PUSH2 0x201F JUMPI JUMPDEST PUSH2 0x1FBD JUMPI JUMPDEST POP DUP3 DUP2 DUP2 GT SWAP6 DUP7 PUSH1 0x0 EQ PUSH2 0x1F81 JUMPI POP PUSH2 0x1F05 SWAP3 POP SWAP1 PUSH2 0x1D43 SWAP2 PUSH2 0x18E5 JUMP JUMPDEST PUSH1 0xC SSTORE JUMPDEST DUP5 SLOAD PUSH1 0x1 PUSH1 0x1 PUSH1 0x80 SHL SUB NOT AND SWAP2 AND OR DUP4 SSTORE TIMESTAMP PUSH1 0x1 PUSH1 0x1 PUSH1 0x40 SHL SUB AND SWAP2 PUSH2 0x1F2F DUP4 DUP6 PUSH2 0x1A74 JUMP JUMPDEST PUSH1 0xFF PUSH1 0x5 SLOAD AND ISZERO SWAP2 DUP3 PUSH2 0x1F79 JUMPI JUMPDEST POP DUP2 PUSH2 0x1F4D JUMPI JUMPDEST POP PUSH2 0x1D92 JUMPI POP POP JUMP JUMPDEST SWAP1 POP PUSH32 0x0 AND CALLER EQ CODESIZE PUSH2 0x1F44 JUMP JUMPDEST SWAP2 POP CODESIZE PUSH2 0x1F3D JUMP JUMPDEST PUSH2 0x1F8E JUMPI JUMPDEST POP POP POP PUSH2 0x1F09 JUMP JUMPDEST PUSH2 0x1F97 SWAP2 PUSH2 0x18E5 JUMP JUMPDEST PUSH1 0xC SLOAD DUP2 DUP2 LT PUSH2 0x1FB6 JUMPI PUSH2 0x1FAB SWAP3 POP PUSH2 0x18E5 JUMP JUMPDEST PUSH1 0xC SSTORE CODESIZE DUP1 DUP3 PUSH2 0x1F86 JUMP JUMPDEST POP POP PUSH2 0x1FAB JUMP JUMPDEST PUSH1 0x1 DUP9 ADD DUP1 SLOAD SWAP2 PUSH2 0x1FD5 PUSH2 0x1E2E DUP6 PUSH2 0x1E29 DUP10 DUP8 PUSH2 0x18B2 JUMP JUMPDEST PUSH1 0xA SLOAD DUP2 DUP2 LT PUSH2 0x1FF8 JUMPI POP PUSH2 0x1FED SWAP2 POP PUSH1 0xA SLOAD PUSH2 0x18E5 JUMP JUMPDEST PUSH1 0xA SSTORE JUMPDEST SSTORE CODESIZE PUSH2 0x1EE7 JUMP JUMPDEST PUSH1 0x0 DUP1 MLOAD PUSH1 0x20 PUSH2 0x282A DUP4 CODECOPY DUP2 MLOAD SWAP2 MSTORE SWAP2 PUSH1 0x40 SWAP2 DUP3 MLOAD SWAP2 DUP3 MSTORE PUSH1 0x20 DUP3 ADD MSTORE LOG2 DUP4 PUSH1 0xA SSTORE PUSH2 0x1FF1 JUMP JUMPDEST POP DUP2 ISZERO ISZERO PUSH2 0x1EE2 JUMP JUMPDEST PUSH2 0x2034 PUSH1 0xB SLOAD TIMESTAMP PUSH2 0x18E5 JUMP JUMPDEST DUP1 ISZERO ISZERO DUP1 PUSH2 0x2069 JUMPI JUMPDEST PUSH2 0x2049 JUMPI JUMPDEST POP TIMESTAMP PUSH1 0xB SSTORE JUMP JUMPDEST PUSH2 0x2058 PUSH2 0x2060 SWAP2 PUSH1 0xC SLOAD PUSH2 0x18B2 JUMP JUMPDEST PUSH1 0xA SLOAD PUSH2 0x14B8 JUMP JUMPDEST PUSH1 0xA SSTORE CODESIZE PUSH2 0x2042 JUMP JUMPDEST POP PUSH1 0xC SLOAD ISZERO ISZERO PUSH2 0x203D JUMP JUMPDEST DUP1 ISZERO PUSH2 0x1C09 JUMPI PUSH2 0x2082 PUSH2 0x2028 JUMP JUMPDEST PUSH1 0xA SLOAD DUP1 ISZERO PUSH2 0x2124 JUMPI PUSH2 0x2098 PUSH1 0x10 SLOAD DUP1 SWAP4 PUSH2 0x14B8 JUMP JUMPDEST SWAP2 PUSH2 0x211A JUMPI JUMPDEST PUSH8 0xDE0B6B3A7640000 SWAP2 DUP3 DUP2 MUL SWAP3 DUP2 DUP5 DIV EQ DUP2 ISZERO OR ISZERO PUSH2 0x14C5 JUMPI PUSH2 0x20D3 PUSH1 0x40 SWAP3 PUSH1 0x0 DUP1 MLOAD PUSH1 0x20 PUSH2 0x27AA DUP4 CODECOPY DUP2 MLOAD SWAP2 MSTORE SWAP5 PUSH2 0x18C5 JUMP JUMPDEST DUP1 ISZERO PUSH2 0x20FA JUMPI PUSH2 0x20E5 SWAP1 PUSH1 0xD SLOAD PUSH2 0x14B8 JUMP JUMPDEST DUP1 PUSH1 0xD SSTORE TIMESTAMP PUSH1 0xE SSTORE DUP3 MLOAD SWAP2 DUP3 MSTORE PUSH1 0x20 DUP3 ADD MSTORE LOG1 JUMP JUMPDEST POP PUSH2 0x2107 DUP2 PUSH1 0x10 SLOAD PUSH2 0x14B8 JUMP JUMPDEST PUSH1 0x10 SSTORE PUSH1 0xD SLOAD DUP3 MLOAD SWAP2 DUP3 MSTORE PUSH1 0x20 DUP3 ADD MSTORE LOG1 JUMP JUMPDEST PUSH1 0x0 PUSH1 0x10 SSTORE PUSH2 0x209E JUMP JUMPDEST POP PUSH1 0x40 DUP2 PUSH2 0x2107 PUSH1 0x0 DUP1 MLOAD PUSH1 0x20 PUSH2 0x27AA DUP4 CODECOPY DUP2 MLOAD SWAP2 MSTORE SWAP4 PUSH1 0x10 SLOAD PUSH2 0x14B8 JUMP JUMPDEST PUSH1 0x1 PUSH1 0x1 PUSH1 0xA0 SHL SUB AND PUSH1 0x0 SWAP1 DUP2 MSTORE PUSH1 0x9 PUSH1 0x20 MSTORE PUSH1 0x40 SWAP1 KECCAK256 SLOAD PUSH1 0xC0 SHR DUP1 ISZERO PUSH2 0x1C75 JUMPI PUSH2 0x216E SWAP1 TIMESTAMP PUSH2 0x18E5 JUMP JUMPDEST PUSH2 0x12C DUP2 LT PUSH2 0x219B JUMPI PUSH2 0xE10 DUP2 LT PUSH2 0x2194 JUMPI PUSH3 0x15180 GT PUSH2 0x218E JUMPI PUSH1 0x0 SWAP1 JUMP JUMPDEST PUSH2 0x1F4 SWAP1 JUMP JUMPDEST POP PUSH2 0x3E8 SWAP1 JUMP JUMPDEST POP PUSH2 0x7D0 SWAP1 JUMP JUMPDEST DUP1 MLOAD PUSH1 0x1 LT ISZERO PUSH2 0x21B2 JUMPI PUSH1 0x40 ADD SWAP1 JUMP JUMPDEST PUSH4 0x4E487B71 PUSH1 0xE0 SHL PUSH1 0x0 MSTORE PUSH1 0x32 PUSH1 0x4 MSTORE PUSH1 0x24 PUSH1 0x0 REVERT JUMPDEST SWAP1 DUP2 MLOAD DUP1 DUP3 MSTORE PUSH1 0x20 DUP1 DUP1 SWAP4 ADD SWAP4 ADD SWAP2 PUSH1 0x0 JUMPDEST DUP3 DUP2 LT PUSH2 0x21E8 JUMPI POP POP POP POP SWAP1 JUMP JUMPDEST DUP4 MLOAD PUSH1 0x1 PUSH1 0x1 PUSH1 0xA0 SHL SUB AND DUP6 MSTORE SWAP4 DUP2 ADD SWAP4 SWAP3 DUP2 ADD SWAP3 PUSH1 0x1 ADD PUSH2 0x21DA JUMP JUMPDEST PUSH1 0x0 SWAP1 PUSH1 0xFF NOT DUP1 PUSH1 0x8 SLOAD AND PUSH1 0x1 DUP2 OR PUSH1 0x8 SSTORE ADDRESS DUP5 MSTORE PUSH1 0x20 DUP5 DUP2 MSTORE PUSH1 0x40 SWAP1 DUP2 DUP7 KECCAK256 SLOAD SWAP3 DUP4 ISZERO PUSH2 0x25AD JUMPI POP DUP2 MLOAD PUSH1 0x1 PUSH1 0x1 PUSH1 0x40 SHL SUB SWAP7 PUSH1 0x60 DUP3 ADD DUP9 DUP2 GT DUP4 DUP3 LT OR PUSH2 0x2599 JUMPI DUP5 MSTORE PUSH1 0x2 DUP3 MSTORE DUP3 DUP3 ADD DUP5 CALLDATASIZE DUP3 CALLDATACOPY DUP3 MLOAD ISZERO PUSH2 0x2585 JUMPI ADDRESS SWAP1 MSTORE PUSH1 0x6 SLOAD DUP5 MLOAD PUSH4 0x15AB88C9 PUSH1 0xE3 SHL DUP2 MSTORE PUSH1 0x4 SWAP10 PUSH1 0x1 PUSH1 0x1 PUSH1 0xA0 SHL SUB SWAP8 SWAP3 SWAP1 SWAP2 SWAP1 DUP9 AND SWAP1 DUP7 DUP2 DUP14 DUP2 DUP6 GAS STATICCALL SWAP1 DUP2 ISZERO PUSH2 0x257B JUMPI SWAP1 DUP5 SWAP2 DUP7 SWAP2 PUSH2 0x253F JUMPI JUMPDEST POP SWAP2 PUSH2 0x22B3 SWAP3 DUP11 PUSH2 0x22A9 DUP10 PUSH2 0x21A2 JUMP JUMPDEST SWAP2 AND SWAP1 MSTORE ADDRESS PUSH2 0x1789 JUMP JUMPDEST DUP3 SWAP4 DUP8 PUSH1 0x6 SLOAD AND SWAP5 DUP8 MLOAD SWAP6 PUSH4 0xD06CA61F PUSH1 0xE0 SHL DUP8 MSTORE DUP5 DUP14 DUP9 ADD MSTORE PUSH1 0x24 SWAP7 DUP10 DUP9 DUP3 ADD MSTORE DUP7 DUP2 DUP1 PUSH2 0x22E5 PUSH1 0x44 DUP3 ADD DUP9 PUSH2 0x21C8 JUMP JUMPDEST SUB DUP2 DUP6 GAS STATICCALL DUP8 SWAP2 DUP2 PUSH2 0x2493 JUMPI JUMPDEST POP PUSH2 0x2457 JUMPI JUMPDEST POP SELFBALANCE SWAP5 DUP2 EXTCODESIZE ISZERO PUSH2 0x45C JUMPI SWAP1 DUP7 SWAP3 SWAP2 DUP4 DUP16 PUSH2 0x2336 DUP14 MLOAD SWAP8 DUP9 SWAP7 DUP8 SWAP6 DUP7 SWAP5 PUSH4 0x791AC947 PUSH1 0xE0 SHL DUP7 MSTORE DUP6 ADD MSTORE DUP14 DUP5 ADD MSTORE PUSH1 0xA0 PUSH1 0x44 DUP5 ADD MSTORE PUSH1 0xA4 DUP4 ADD SWAP1 PUSH2 0x21C8 JUMP JUMPDEST ADDRESS PUSH1 0x64 DUP4 ADD MSTORE TIMESTAMP PUSH1 0x84 DUP4 ADD MSTORE SUB SWAP3 GAS CALL SWAP2 DUP3 PUSH2 0x2432 JUMPI JUMPDEST POP POP PUSH2 0x2366 JUMPI JUMPDEST POP POP POP POP POP POP SWAP1 SWAP2 POP PUSH1 0x8 SLOAD AND PUSH1 0x8 SSTORE JUMP JUMPDEST PUSH2 0x2370 SWAP1 SELFBALANCE PUSH2 0x18E5 JUMP JUMPDEST SWAP2 DUP3 ISZERO SWAP9 DUP10 ISZERO PUSH2 0x2381 JUMPI JUMPDEST POP PUSH2 0x2354 JUMP JUMPDEST PUSH1 0x3 DUP5 MUL SWAP10 DUP5 DUP12 DIV PUSH1 0x3 EQ OR ISZERO PUSH2 0x2421 JUMPI POP POP PUSH2 0x23A7 PUSH1 0x7 PUSH2 0x23B8 SWAP8 SWAP9 SWAP10 DIV DUP1 SWAP4 PUSH2 0x18E5 JUMP JUMPDEST SWAP5 DUP3 PUSH2 0x23C6 JUMPI JUMPDEST POP POP POP POP POP PUSH2 0x2074 JUMP JUMPDEST DUP2 SWAP1 CODESIZE DUP1 DUP1 DUP1 DUP1 DUP1 DUP1 PUSH2 0x237B JUMP JUMPDEST DUP2 DUP1 DUP5 DUP2 SWAP4 PUSH32 0x0 AND GAS CALL PUSH2 0x23F7 PUSH2 0x1873 JUMP JUMPDEST POP PUSH2 0x2404 JUMPI JUMPDEST DUP1 DUP1 PUSH2 0x23AE JUMP JUMPDEST PUSH1 0x0 DUP1 MLOAD PUSH1 0x20 PUSH2 0x274A DUP4 CODECOPY DUP2 MLOAD SWAP2 MSTORE SWAP3 MLOAD SWAP1 DUP2 MSTORE LOG1 CODESIZE DUP1 DUP1 PUSH2 0x23FD JUMP JUMPDEST PUSH4 0x4E487B71 PUSH1 0xE0 SHL DUP4 MSTORE PUSH1 0x11 SWAP1 MSTORE DUP2 REVERT JUMPDEST DUP2 SWAP5 SWAP3 SWAP5 GT PUSH2 0x2445 JUMPI DUP7 MSTORE SWAP2 CODESIZE DUP1 PUSH2 0x234D JUMP JUMPDEST PUSH4 0x4E487B71 PUSH1 0xE0 SHL DUP3 MSTORE PUSH1 0x41 DUP12 MSTORE DUP5 DUP3 REVERT JUMPDEST PUSH2 0x2462 SWAP2 SWAP3 POP PUSH2 0x21A2 JUMP JUMPDEST MLOAD PUSH1 0x5A DUP2 MUL SWAP1 DUP1 DUP3 DIV PUSH1 0x5A EQ SWAP1 ISZERO OR ISZERO PUSH2 0x2481 JUMPI PUSH1 0x64 SWAP1 DIV SWAP1 CODESIZE PUSH2 0x22F8 JUMP JUMPDEST PUSH4 0x4E487B71 PUSH1 0xE0 SHL DUP7 MSTORE PUSH1 0x11 DUP14 MSTORE DUP7 DUP7 REVERT JUMPDEST SWAP1 SWAP2 POP RETURNDATASIZE DUP1 DUP10 DUP4 RETURNDATACOPY PUSH2 0x24A5 DUP2 DUP4 PUSH2 0x14DB JUMP JUMPDEST DUP2 ADD SWAP1 DUP11 DUP2 DUP4 SUB SLT PUSH2 0x2537 JUMPI DUP1 MLOAD SWAP1 DUP8 DUP3 GT PUSH2 0x253B JUMPI ADD DUP2 PUSH1 0x1F DUP3 ADD SLT ISZERO PUSH2 0x2537 JUMPI DUP1 MLOAD DUP8 DUP2 GT PUSH2 0x2523 JUMPI DUP13 MLOAD SWAP3 SWAP2 PUSH1 0x5 DUP3 SWAP1 SHL SWAP2 PUSH2 0x24E6 DUP4 DUP16 ADD DUP7 PUSH2 0x14DB JUMP JUMPDEST DUP5 MSTORE DUP13 DUP1 DUP6 ADD SWAP3 DUP3 ADD ADD SWAP3 DUP4 GT PUSH2 0x251F JUMPI DUP13 DUP1 SWAP2 ADD SWAP2 JUMPDEST DUP4 DUP4 LT PUSH2 0x250F JUMPI POP POP POP POP SWAP1 CODESIZE PUSH2 0x22F2 JUMP JUMPDEST DUP3 MLOAD DUP2 MSTORE SWAP2 DUP2 ADD SWAP2 DUP14 SWAP2 ADD PUSH2 0x24FD JUMP JUMPDEST DUP11 DUP1 REVERT JUMPDEST POP DUP16 DUP10 PUSH1 0x41 DUP13 SWAP3 PUSH4 0x4E487B71 PUSH1 0xE0 SHL DUP4 MSTORE MSTORE REVERT JUMPDEST DUP9 DUP1 REVERT JUMPDEST DUP10 DUP1 REVERT JUMPDEST DUP1 SWAP3 POP DUP9 DUP1 SWAP3 POP RETURNDATASIZE DUP4 GT PUSH2 0x2574 JUMPI JUMPDEST PUSH2 0x2558 DUP2 DUP4 PUSH2 0x14DB JUMP JUMPDEST DUP2 ADD SUB SLT PUSH2 0x460 JUMPI MLOAD DUP9 DUP2 AND DUP2 SUB PUSH2 0x460 JUMPI DUP4 SWAP1 PUSH2 0x22B3 PUSH2 0x2299 JUMP JUMPDEST POP RETURNDATASIZE PUSH2 0x254E JUMP JUMPDEST DUP9 MLOAD RETURNDATASIZE DUP8 DUP3 RETURNDATACOPY RETURNDATASIZE SWAP1 REVERT JUMPDEST PUSH4 0x4E487B71 PUSH1 0xE0 SHL DUP3 MSTORE PUSH1 0x32 PUSH1 0x4 MSTORE PUSH1 0x24 DUP3 REVERT JUMPDEST PUSH4 0x4E487B71 PUSH1 0xE0 SHL DUP3 MSTORE PUSH1 0x41 PUSH1 0x4 MSTORE PUSH1 0x24 DUP3 REVERT JUMPDEST SWAP5 SWAP6 POP POP POP POP POP PUSH1 0x8 SSTORE JUMP JUMPDEST PUSH1 0x0 DUP1 MLOAD PUSH1 0x20 PUSH2 0x280A DUP4 CODECOPY DUP2 MLOAD SWAP2 MSTORE PUSH1 0x2 DUP2 SLOAD EQ PUSH2 0x25D7 JUMPI PUSH1 0x2 SWAP1 SSTORE JUMP JUMPDEST PUSH1 0x40 MLOAD PUSH4 0x3EE5AEB5 PUSH1 0xE0 SHL DUP2 MSTORE PUSH1 0x4 SWAP1 REVERT JUMPDEST PUSH1 0x0 NOT DUP2 EQ PUSH2 0x14C5 JUMPI PUSH1 0x1 ADD SWAP1 JUMP JUMPDEST PUSH2 0x2601 DUP2 PUSH2 0x1C7B JUMP JUMPDEST ISZERO PUSH2 0x1C75 JUMPI PUSH1 0x1 DUP1 PUSH1 0xA0 SHL SUB AND PUSH1 0x0 MSTORE PUSH1 0x9 PUSH1 0x20 MSTORE PUSH2 0x2643 PUSH1 0x40 PUSH1 0x0 KECCAK256 PUSH2 0x262F PUSH1 0xD SLOAD PUSH1 0x2 DUP4 ADD SLOAD SWAP1 PUSH2 0x18E5 JUMP JUMPDEST SWAP1 PUSH1 0x0 SWAP2 DUP1 PUSH2 0x2646 JUMPI JUMPDEST POP PUSH1 0x3 ADD SLOAD PUSH2 0x14B8 JUMP JUMPDEST SWAP1 JUMP JUMPDEST PUSH1 0xE SLOAD DUP3 SLOAD PUSH2 0x2687 SWAP2 PUSH2 0x130A SWAP1 PUSH2 0x2673 SWAP1 PUSH1 0x80 DUP5 SWAP1 SHR PUSH1 0x1 PUSH1 0x1 PUSH1 0x40 SHL SUB AND SWAP1 DUP2 DUP2 GT ISZERO PUSH2 0x1BC9 JUMPI PUSH2 0x18E5 JUMP JUMPDEST PUSH1 0x1 DUP7 ADD SLOAD SWAP3 PUSH1 0x1 PUSH1 0x1 PUSH1 0x80 SHL SUB AND PUSH2 0x18B2 JUMP JUMPDEST DUP1 PUSH2 0x2693 JUMPI JUMPDEST POP PUSH2 0x2639 JUMP JUMPDEST PUSH1 0x3 SWAP3 SWAP4 POP PUSH8 0xDE0B6B3A7640000 SWAP2 PUSH2 0x26AB SWAP2 PUSH2 0x18B2 JUMP JUMPDEST DIV SWAP2 SWAP1 CODESIZE PUSH2 0x268D JUMP JUMPDEST PUSH2 0x26BD DUP2 PUSH2 0x1C7B JUMP JUMPDEST ISZERO PUSH2 0x1C75 JUMPI PUSH1 0x1 PUSH1 0x1 PUSH1 0xA0 SHL SUB AND PUSH1 0x0 SWAP1 DUP2 MSTORE PUSH1 0x9 PUSH1 0x20 MSTORE PUSH1 0x40 SWAP1 KECCAK256 DUP1 SLOAD PUSH2 0x2643 SWAP2 PUSH2 0x130A SWAP1 PUSH1 0x1 PUSH2 0x26FC PUSH1 0x80 DUP6 SWAP1 SHR PUSH1 0x1 PUSH1 0x1 PUSH1 0x40 SHL SUB AND TIMESTAMP PUSH2 0x18E5 JUMP JUMPDEST SWAP2 ADD SLOAD SWAP3 PUSH1 0x1 PUSH1 0x1 PUSH1 0x80 SHL SUB AND PUSH2 0x18B2 JUMP JUMPDEST ISZERO PUSH2 0x2715 JUMPI JUMP JUMPDEST PUSH1 0x40 MLOAD PUSH3 0x461BCD PUSH1 0xE5 SHL DUP2 MSTORE PUSH1 0x20 PUSH1 0x4 DUP3 ADD MSTORE PUSH1 0xC PUSH1 0x24 DUP3 ADD MSTORE PUSH12 0x4F6E6C7920666163746F7279 PUSH1 0xA0 SHL PUSH1 0x44 DUP3 ADD MSTORE PUSH1 0x64 SWAP1 REVERT INVALID PUSH10 0x3F9DBEA0BDF9B70D480F SWAP6 0x27 0xE5 PUSH8 0xD17AE3A41A5627C6 MLOAD JUMPDEST SUB 0x4A 0xC1 DUP7 SWAP13 0xF7 LOG0 SWAP7 SIGNEXTEND LT MLOAD PUSH21 0x9987B45B5679007FFF577A1C2F763EC21C15A6C5EB NOT ADDRESS PUSH22 0x3785FC30CDDEA38E2BF4D6EA7D3F9ED3B6AD7F1764 NOT DELEGATECALL SWAP7 EXTCODESIZE 0xD8 SGT XOR MOD PUSH27 0x4AEE73FE8AD0C4905AA5603107E860E0C2B1A78E23EBA312C30F81 EQ 0xA7 0xD SWAP5 0xD9 0xE1 DUP8 CREATE2 0xAF 0xDD CALLCODE MSTORE 0xAD SHL 0xE2 0xC8 SWAP12 PUSH10 0xC2B068FC378DAA952BA7 CALL PUSH4 0xC4A11628 CREATE2 GAS 0x4D CREATE2 0x23 0xB3 0xEF 0xE9 0xBC SWAP2 LOG3 RETURNDATASIZE 0xDF DUP10 PUSH14 0x889747B2F39F4192C802FD623647 DUP1 ADDMOD PUSH9 0x53FCD8E19E8FFA9B77 SWAP12 OR TIMESTAMP 0x2D 0xD 0xF9 0x22 0x23 ADD DUP12 ORIGIN 0xB4 0xD1 STATICCALL CHAINID 0xE0 PUSH18 0x723D6817E2486D003BECC55F00D5FC571C0F 0x24 PUSH3 0x6CEEB4 0xA7 0x22 GASPRICE LT 0xB7 0xB5 PUSH18 0xF3E6C810A1EC1991BA28B6494B06A1A26469 PUSH17 0x667358221220536AE9BA92013CCEA05526 DUP10 PUSH26 0x36058E4F8C09621266C8F4134FF1EE833976764736F6C634300 ADDMOD EQ STOP CALLER DUP11 0xD0 0xC4 SWAP1 GAS 0xA5 PUSH1 0x31 SMOD 0xE8 PUSH1 0xE0 0xC2 0xB1 0xA7 DUP15 0x23 0xEB LOG3 SLT 0xC3 0xF DUP2 EQ 0xA7 0xD SWAP5 0xD9 0xE1 DUP8 CREATE2 0xAF 0xDD CALLCODE MSTORE 0xAD SHL 0xE2 0xC8 SWAP12 PUSH10 0xC2B068FC378DAA952BA7 CALL PUSH4 0xC4A11628 CREATE2 GAS 0x4D CREATE2 0x23 0xB3 0xEF "},"methodIdentifiers":{"BURN_BPS()":"a37a9fc0","CURVE_SUPPLY()":"1e4c7292","DEAD()":"03fd2a45","GRAD_SUPPLY()":"98aecb67","MAX_PUSH_BATCH()":"1a0108ec","PLATFORM_BPS()":"ce91e164","REWARD_BPS()":"47b12bfc","SNIPE_BPS_1HR()":"c463ecd7","SNIPE_BPS_24HR()":"bacf2a7b","SNIPE_BPS_5MIN()":"bb103cbc","TOTAL_SUPPLY()":"902d55a5","TOTAL_TAX_BPS()":"a8355c8f","allowance(address,address)":"dd62ed3e","antiSnipeBpsFor(address)":"ca81eb66","approve(address,uint256)":"095ea7b3","balanceOf(address)":"70a08231","burnFromCurve(uint256)":"5b090044","checkpoints(address)":"dbb51d6e","claim()":"4e71d92d","cumulativeEthPerScore()":"c5f27b30","curve()":"7165485d","decimals()":"313ce567","depositEthPlatform()":"b78d0538","depositEthReward()":"a47541ba","factory()":"c45a0155","graduated()":"e7c2b772","holdScore(address)":"c5f509d6","isExcluded(address)":"cba0e996","keeper()":"aced1661","lastRewardTimestamp()":"f8077fae","name()":"06fdde03","notifyGraduated(address,address)":"c7b12801","orphanedRewardEth()":"13b9d47e","pendingRewards(address)":"31d7a262","pushRewards(address[])":"f6ceefa2","setExcluded(address,bool)":"2836be24","setKeeper(address)":"748747e6","setSwapThreshold(uint256)":"9d0014b1","swapThreshold()":"0445b667","symbol()":"95d89b41","totalAccumulatedScore()":"c1db4015","totalHoldScoreLive()":"07c9bf2e","totalLastUpdate()":"9d6eadc1","totalSettledBalance()":"64229d68","totalSupply()":"18160ddd","transfer(address,uint256)":"a9059cbb","transferFrom(address,address,uint256)":"23b872dd","uniswapPair()":"c816841b","uniswapRouter()":"735de9f7"}}}}}