{
  "_format": "hh-sol-artifact-1",
  "contractName": "AethpadFactoryV2",
  "sourceName": "contracts/v2/AethpadFactoryV2.sol",
  "abi": [
    {
      "inputs": [
        {
          "internalType": "address",
          "name": "_uniswapRouter",
          "type": "address"
        }
      ],
      "stateMutability": "nonpayable",
      "type": "constructor"
    },
    {
      "inputs": [
        {
          "internalType": "address",
          "name": "owner",
          "type": "address"
        }
      ],
      "name": "OwnableInvalidOwner",
      "type": "error"
    },
    {
      "inputs": [
        {
          "internalType": "address",
          "name": "account",
          "type": "address"
        }
      ],
      "name": "OwnableUnauthorizedAccount",
      "type": "error"
    },
    {
      "inputs": [],
      "name": "ReentrancyGuardReentrantCall",
      "type": "error"
    },
    {
      "anonymous": false,
      "inputs": [
        {
          "indexed": true,
          "internalType": "address",
          "name": "token",
          "type": "address"
        },
        {
          "indexed": false,
          "internalType": "string",
          "name": "newURI",
          "type": "string"
        }
      ],
      "name": "MetadataUpdated",
      "type": "event"
    },
    {
      "anonymous": false,
      "inputs": [
        {
          "indexed": true,
          "internalType": "address",
          "name": "previousOwner",
          "type": "address"
        },
        {
          "indexed": true,
          "internalType": "address",
          "name": "newOwner",
          "type": "address"
        }
      ],
      "name": "OwnershipTransferred",
      "type": "event"
    },
    {
      "anonymous": false,
      "inputs": [
        {
          "indexed": true,
          "internalType": "address",
          "name": "fromToken",
          "type": "address"
        },
        {
          "indexed": false,
          "internalType": "uint256",
          "name": "amount",
          "type": "uint256"
        }
      ],
      "name": "PlatformFeeReceived",
      "type": "event"
    },
    {
      "anonymous": false,
      "inputs": [
        {
          "indexed": true,
          "internalType": "address",
          "name": "to",
          "type": "address"
        },
        {
          "indexed": false,
          "internalType": "uint256",
          "name": "amount",
          "type": "uint256"
        }
      ],
      "name": "PlatformFeesWithdrawn",
      "type": "event"
    },
    {
      "anonymous": false,
      "inputs": [
        {
          "indexed": true,
          "internalType": "address",
          "name": "token",
          "type": "address"
        },
        {
          "indexed": true,
          "internalType": "address",
          "name": "curve",
          "type": "address"
        },
        {
          "indexed": true,
          "internalType": "address",
          "name": "creator",
          "type": "address"
        },
        {
          "indexed": false,
          "internalType": "string",
          "name": "name",
          "type": "string"
        },
        {
          "indexed": false,
          "internalType": "string",
          "name": "symbol",
          "type": "string"
        },
        {
          "indexed": false,
          "internalType": "string",
          "name": "metadataURI",
          "type": "string"
        },
        {
          "indexed": false,
          "internalType": "uint256",
          "name": "devBuyEth",
          "type": "uint256"
        },
        {
          "indexed": false,
          "internalType": "uint256",
          "name": "devBuyTokens",
          "type": "uint256"
        }
      ],
      "name": "TokenDeployed",
      "type": "event"
    },
    {
      "inputs": [],
      "name": "accumulatedPlatformFees",
      "outputs": [
        {
          "internalType": "uint256",
          "name": "",
          "type": "uint256"
        }
      ],
      "stateMutability": "view",
      "type": "function"
    },
    {
      "inputs": [
        {
          "internalType": "uint256",
          "name": "",
          "type": "uint256"
        }
      ],
      "name": "allTokens",
      "outputs": [
        {
          "internalType": "address",
          "name": "",
          "type": "address"
        }
      ],
      "stateMutability": "view",
      "type": "function"
    },
    {
      "inputs": [],
      "name": "allTokensLength",
      "outputs": [
        {
          "internalType": "uint256",
          "name": "",
          "type": "uint256"
        }
      ],
      "stateMutability": "view",
      "type": "function"
    },
    {
      "inputs": [
        {
          "internalType": "string",
          "name": "name",
          "type": "string"
        },
        {
          "internalType": "string",
          "name": "symbol",
          "type": "string"
        },
        {
          "internalType": "string",
          "name": "metadataURI",
          "type": "string"
        }
      ],
      "name": "createToken",
      "outputs": [
        {
          "internalType": "address",
          "name": "tokenAddr",
          "type": "address"
        },
        {
          "internalType": "address",
          "name": "curveAddr",
          "type": "address"
        }
      ],
      "stateMutability": "payable",
      "type": "function"
    },
    {
      "inputs": [],
      "name": "deployer",
      "outputs": [
        {
          "internalType": "contract AethpadDeployer",
          "name": "",
          "type": "address"
        }
      ],
      "stateMutability": "view",
      "type": "function"
    },
    {
      "inputs": [
        {
          "internalType": "address",
          "name": "tokenAddr",
          "type": "address"
        },
        {
          "internalType": "address",
          "name": "to",
          "type": "address"
        }
      ],
      "name": "forceCloseCurve",
      "outputs": [],
      "stateMutability": "nonpayable",
      "type": "function"
    },
    {
      "inputs": [],
      "name": "getAllTokens",
      "outputs": [
        {
          "internalType": "address[]",
          "name": "",
          "type": "address[]"
        }
      ],
      "stateMutability": "view",
      "type": "function"
    },
    {
      "inputs": [
        {
          "internalType": "address",
          "name": "tokenAddr",
          "type": "address"
        }
      ],
      "name": "getRecord",
      "outputs": [
        {
          "components": [
            {
              "internalType": "address",
              "name": "token",
              "type": "address"
            },
            {
              "internalType": "address",
              "name": "curve",
              "type": "address"
            },
            {
              "internalType": "address",
              "name": "creator",
              "type": "address"
            },
            {
              "internalType": "uint256",
              "name": "deployedAt",
              "type": "uint256"
            },
            {
              "internalType": "string",
              "name": "metadataURI",
              "type": "string"
            },
            {
              "internalType": "uint256",
              "name": "initialDevBuyEth",
              "type": "uint256"
            },
            {
              "internalType": "uint256",
              "name": "initialDevBuyTokens",
              "type": "uint256"
            }
          ],
          "internalType": "struct AethpadFactoryV2.TokenRecord",
          "name": "",
          "type": "tuple"
        }
      ],
      "stateMutability": "view",
      "type": "function"
    },
    {
      "inputs": [],
      "name": "owner",
      "outputs": [
        {
          "internalType": "address",
          "name": "",
          "type": "address"
        }
      ],
      "stateMutability": "view",
      "type": "function"
    },
    {
      "inputs": [
        {
          "internalType": "address",
          "name": "",
          "type": "address"
        }
      ],
      "name": "records",
      "outputs": [
        {
          "internalType": "address",
          "name": "token",
          "type": "address"
        },
        {
          "internalType": "address",
          "name": "curve",
          "type": "address"
        },
        {
          "internalType": "address",
          "name": "creator",
          "type": "address"
        },
        {
          "internalType": "uint256",
          "name": "deployedAt",
          "type": "uint256"
        },
        {
          "internalType": "string",
          "name": "metadataURI",
          "type": "string"
        },
        {
          "internalType": "uint256",
          "name": "initialDevBuyEth",
          "type": "uint256"
        },
        {
          "internalType": "uint256",
          "name": "initialDevBuyTokens",
          "type": "uint256"
        }
      ],
      "stateMutability": "view",
      "type": "function"
    },
    {
      "inputs": [],
      "name": "renounceOwnership",
      "outputs": [],
      "stateMutability": "nonpayable",
      "type": "function"
    },
    {
      "inputs": [
        {
          "internalType": "address",
          "name": "_deployer",
          "type": "address"
        }
      ],
      "name": "setDeployer",
      "outputs": [],
      "stateMutability": "nonpayable",
      "type": "function"
    },
    {
      "inputs": [
        {
          "internalType": "address",
          "name": "tokenAddr",
          "type": "address"
        },
        {
          "internalType": "address",
          "name": "account",
          "type": "address"
        },
        {
          "internalType": "bool",
          "name": "excluded",
          "type": "bool"
        }
      ],
      "name": "setTokenExcluded",
      "outputs": [],
      "stateMutability": "nonpayable",
      "type": "function"
    },
    {
      "inputs": [
        {
          "internalType": "address",
          "name": "tokenAddr",
          "type": "address"
        },
        {
          "internalType": "uint256",
          "name": "newThreshold",
          "type": "uint256"
        }
      ],
      "name": "setTokenSwapThreshold",
      "outputs": [],
      "stateMutability": "nonpayable",
      "type": "function"
    },
    {
      "inputs": [],
      "name": "totalPlatformFeesWithdrawn",
      "outputs": [
        {
          "internalType": "uint256",
          "name": "",
          "type": "uint256"
        }
      ],
      "stateMutability": "view",
      "type": "function"
    },
    {
      "inputs": [
        {
          "internalType": "address",
          "name": "newOwner",
          "type": "address"
        }
      ],
      "name": "transferOwnership",
      "outputs": [],
      "stateMutability": "nonpayable",
      "type": "function"
    },
    {
      "inputs": [],
      "name": "uniswapRouter",
      "outputs": [
        {
          "internalType": "address",
          "name": "",
          "type": "address"
        }
      ],
      "stateMutability": "view",
      "type": "function"
    },
    {
      "inputs": [
        {
          "internalType": "address",
          "name": "tokenAddr",
          "type": "address"
        },
        {
          "internalType": "string",
          "name": "newURI",
          "type": "string"
        }
      ],
      "name": "updateMetadataURI",
      "outputs": [],
      "stateMutability": "nonpayable",
      "type": "function"
    },
    {
      "inputs": [
        {
          "internalType": "address",
          "name": "to",
          "type": "address"
        }
      ],
      "name": "withdrawPlatformFees",
      "outputs": [],
      "stateMutability": "nonpayable",
      "type": "function"
    },
    {
      "stateMutability": "payable",
      "type": "receive"
    }
  ],
  "bytecode": "0x60a03461012257601f61161a38819003918201601f19168301916001600160401b038311848410176101275780849260209460405283398101031261012257516001600160a01b03808216808303610122573315610109576000543360018060a01b0319821617600055604051923391167f8be0079c531659141344cd1fd0a4f28419497f9722a3daafe3b4186f6b6457e0600080a360017f9b779b17422d0df92223018b32b4d1fa46e071723d6817e2486d003becc55f0055156100da57506080526040516114dc908161013e823960805181610bd00152f35b62461bcd60e51b815260206004820152600a6024820152692130b2103937baba32b960b11b6044820152606490fd5b604051631e4fbdf760e01b815260006004820152602490fd5b600080fd5b634e487b7160e01b600052604160045260246000fdfe60806040526004361015610056575b361561001957600080fd5b610025346004546113e7565b6004556040513481527fabec8fa5eba11c7eac51663a2902a5a185098b166b62a23b16dc7a4e2c12de4b60203392a2005b6000803560e01c80630668c0d0146110435780631e0db440146110255780632a5c792a14610f7d578063342f2df314610f5f578063469e906714610ec5578063617fba0414610db2578063634282af14610d6e57806369496d9614610cf2578063715018a614610caa57806371af310114610bff578063735de9f714610bba5780638da5cb5b14610b9357806394aed7d0146105905780639621473514610512578063d5f39488146104e9578063dbb80e42146104cb578063ec3889b51461034f578063f2fde38b146102d95763fabb2c1714610133575061000e565b346102d65760403660031901126102d65761014c6110d6565b6001600160401b03906024358281116102d25761016d9036906004016112ba565b919060018060a01b0380921693848652602092600284526040872090600282015416330361029e5760040190841161028a576101b3846101ad8354611102565b83611363565b85601f8511600114610214579161020391856000805160206114478339815191529695948991610209575b508560011b906000198760031b1c19161790555b604051938385948552840191611327565b0390a280f35b9050820135386101de565b81875283872090601f198616885b8181106102735750916102039391876000805160206114478339815191529897969410610259575b5050600185811b0190556101f2565b830135600019600388901b60f8161c19169055388061024a565b919286600181928689013581550194019201610222565b634e487b7160e01b86526041600452602486fd5b60405162461bcd60e51b815260048101859052600c60248201526b27b7363c9031b932b0ba37b960a11b6044820152606490fd5b8380fd5b80fd5b50346102d65760203660031901126102d6576102f36110d6565b6102fb6112e7565b6001600160a01b03908116908115610336576000548260018060a01b031982161760005516600080516020611467833981519152600080a380f35b604051631e4fbdf760e01b815260048101849052602490fd5b50346102d6576020806003193601126104c75761036a6110d6565b906103736112e7565b61037b6113b7565b60045491821561048c576001600160a01b031691821561045757836004556103a5816005546113e7565b6005558380808084875af13d15610452573d6103c081611348565b906103ce6040519283611180565b815285843d92013e5b1561041b57907ffc7ad544ff6a06d6499925723d25b6fe70457a42939995b1d3d6f560fe33633391604051908152a260016000805160206114878339815191525580f35b60405162461bcd60e51b815260048101839052600f60248201526e115512081cd95b990819985a5b1959608a1b6044820152606490fd5b6103d7565b60405162461bcd60e51b815260048101839052600d60248201526c109859081c9958da5c1a595b9d609a1b6044820152606490fd5b60405162461bcd60e51b81526004810183905260136024820152724e6f7468696e6720746f20776974686472617760681b6044820152606490fd5b5080fd5b50346102d657806003193601126102d6576020600354604051908152f35b50346102d657806003193601126102d6576001546040516001600160a01b039091168152602090f35b50346102d65760203660031901126102d65761052c6110d6565b6105346112e7565b600154906001600160a01b039081831661055d576001600160a01b031990921691161760015580f35b60405162461bcd60e51b815260206004820152600b60248201526a105b1c9958591e481cd95d60aa1b6044820152606490fd5b5060603660031901126102d6576004356001600160401b0381116104c7576105bc9036906004016112ba565b91906024356001600160401b038111610b8f576105dd9036906004016112ba565b90939092906044356001600160401b038111610b8f576106019036906004016112ba565b9561060a6113b7565b6001546001600160a01b0316958615610b57576040805163390274ed60e01b81526004810182905297889081888161065c610649604483018c8f611327565b828103600319016024840152888a611327565b03925af1958615610b4c5785978697610aff575b5060405161067d81611165565b6001600160a01b038981168252881660208201523360408201524260608201526106a68a611348565b906106b46040519283611180565b8a8252368b8701116109c4578a86602084013760208b830181018990526080820192835260a0820189905260c082018990526001600160a01b038b81168a5260028083526040808c20855181549085166001600160a01b03199182161782559486015160018201805491861691871691909117905590850151918101805492909316919093161790556060820151600382015591518051906001600160401b038211610aeb576107748261076b6004870154611102565b60048701611363565b602090601f8311600114610a795791806006949260c0948d92610a6e575b50508160011b916000199060031b1c19161760048501555b60a081015160058501550151910155600354600160401b811015610a5a578060016107d89201600355611289565b81546001600160a01b038b811660039390931b92831b921b191617905585346108ab575b5061083993926040999261081e61082c938c519860a08a5260a08a0191611327565b918783036020890152611327565b9184830389860152611327565b346060830152608082019290925233916001600160a01b0384811692908616917fee1be9e7a514e242eddd023cf4bd4446c71d28c7cf5c53c4085379ea89993033919081900390a460016000805160206114878339815191525582516001600160a01b03928316815291166020820152f35b604051636cb504a560e11b815260048101829052909650602081602481346001600160a01b038d165af1908115610a4f578791610a1d575b506040516370a0823160e01b81523060048201529096906020816024816001600160a01b038e165afa908115610a125782916109db575b508061094b575b506001600160a01b03891681526002602052604090203460058201556006018690556108396107fc565b60405163a9059cbb60e01b815233600482015260248101829052919750906020816044818b6001600160a01b038f165af180156109d057610990575b50956040610921565b6020813d6020116109c8575b816109a960209383611180565b810103126109c45751801515036109c05738610987565b8680fd5b8780fd5b3d915061099c565b6040513d8a823e3d90fd5b90506020813d602011610a0a575b816109f660209383611180565b81010312610a0557513861091a565b600080fd5b3d91506109e9565b6040513d84823e3d90fd5b90506020813d602011610a47575b81610a3860209383611180565b81010312610a055751386108e3565b3d9150610a2b565b6040513d89823e3d90fd5b634e487b7160e01b87526041600452602487fd5b015190503880610792565b90600485018b5260208b20918b5b601f1985168110610ad35750926006949260019260c09583601f19811610610aba575b505050811b0160048501556107aa565b015160001960f88460031b161c19169055388080610aaa565b91926020600181928685015181550194019201610a87565b634e487b7160e01b8a52604160045260248afd5b975095506040873d604011610b44575b81610b1c60409383611180565b81010312610b4057610b396020610b3289611313565b9801611313565b9538610670565b8480fd5b3d9150610b0f565b6040513d87823e3d90fd5b60405162461bcd60e51b815260206004820152601060248201526f11195c1b1bde595c881b9bdd081cd95d60821b6044820152606490fd5b8280fd5b50346102d657806003193601126102d657546040516001600160a01b039091168152602090f35b50346102d657806003193601126102d6576040517f00000000000000000000000000000000000000000000000000000000000000006001600160a01b03168152602090f35b50346102d65760603660031901126102d65780610c1a6110d6565b610c226110ec565b60443591821515809303610ca557610c386112e7565b6001600160a01b039081168452600260205260408420548116610c5c81151561140a565b803b15610b40578492836044926040519687958694630a0daf8960e21b865216600485015260248401525af18015610a1257610c955750f35b610c9e9061113c565b6102d65780f35b505050fd5b50346102d657806003193601126102d657610cc36112e7565b600080546001600160a01b0319811682556001600160a01b03166000805160206114678339815191528280a380f35b50346102d65760403660031901126102d65780610d0d6110d6565b610d156112e7565b6001600160a01b0390811682526002602052604082205416610d3881151561140a565b803b15610d6b57818091602460405180948193639d0014b160e01b8352833560048401525af18015610a1257610c955750f35b50fd5b50346102d65760203660031901126102d657600435906003548210156102d6576020610d9983611289565b905460405160039290921b1c6001600160a01b03168152f35b50346102d6576020806003193601126104c7576040610dcf6110d6565b928060c08351610dde81611165565b82815282868201528285820152826060820152606060808201528260a0820152015260018060a01b038094168152600283522060405191610e1e83611165565b838254168352610eb4846001840154168285019081528560028501541660408601908152866003860154916060880192835281610e5d600489016111a3565b9460808a01958652600660058a01549960a08c019a8b5201549760c08b019889526040519b8c9b828d525116908b015251166040890152511660608701525160808601525160e060a0860152610100850190611249565b915160c08401525160e08301520390f35b50346102d65760203660031901126102d6576001600160a01b039060409082610eec6110d6565b16815260026020522081815416908260018201541692600282015416610f506003830154610f1c600485016111a3565b906006600586015495015493604051978897885260208801526040870152606086015260e0608086015260e0850190611249565b9160a084015260c08301520390f35b50346102d657806003193601126102d6576020600454604051908152f35b50346102d657806003193601126102d657604051809160035490818352602080930180926003835284832090835b8181106110085750505084610fc1910385611180565b60405193838594850191818652518092526040850193925b828110610fe857505050500390f35b83516001600160a01b031685528695509381019392810192600101610fd9565b82546001600160a01b031684529286019260019283019201610fab565b50346102d657806003193601126102d6576020600554604051908152f35b50346102d65760403660031901126102d65761105d6110d6565b816110666110ec565b9161106f6112e7565b6001600160a01b0390811682526002602052604082206001015481169261109784151561140a565b833b15610b8f57602490836040519586948593630a17128360e31b85521660048401525af18015610a12576110ca575080f35b6110d39061113c565b80f35b600435906001600160a01b0382168203610a0557565b602435906001600160a01b0382168203610a0557565b90600182811c92168015611132575b602083101461111c57565b634e487b7160e01b600052602260045260246000fd5b91607f1691611111565b6001600160401b03811161114f57604052565b634e487b7160e01b600052604160045260246000fd5b60e081019081106001600160401b0382111761114f57604052565b601f909101601f19168101906001600160401b0382119082101761114f57604052565b90604051918260008254926111b784611102565b90818452600194858116908160001461122657506001146111e3575b50506111e192500383611180565b565b9093915060005260209081600020936000915b81831061120e5750506111e1935082010138806111d3565b855488840185015294850194879450918301916111f6565b9150506111e194506020925060ff191682840152151560051b82010138806111d3565b919082519283825260005b848110611275575050826000602080949584010152601f8019910116010190565b602081830181015184830182015201611254565b6003548110156112a457600360005260206000200190600090565b634e487b7160e01b600052603260045260246000fd5b9181601f84011215610a05578235916001600160401b038311610a055760208381860195010111610a0557565b6000546001600160a01b031633036112fb57565b60405163118cdaa760e01b8152336004820152602490fd5b51906001600160a01b0382168203610a0557565b908060209392818452848401376000828201840152601f01601f1916010190565b6001600160401b03811161114f57601f01601f191660200190565b90601f811161137157505050565b600091825260208220906020601f850160051c830194106113ad575b601f0160051c01915b8281106113a257505050565b818155600101611396565b909250829061138d565b60008051602061148783398151915260028154146113d55760029055565b604051633ee5aeb560e01b8152600490fd5b919082018092116113f457565b634e487b7160e01b600052601160045260246000fd5b1561141157565b60405162461bcd60e51b815260206004820152600d60248201526c2ab735b737bbb7103a37b5b2b760991b6044820152606490fdfe2013570c343af8ab14a9778150e381a0fda34ed6368127a95fd5e7210cbec5bf8be0079c531659141344cd1fd0a4f28419497f9722a3daafe3b4186f6b6457e09b779b17422d0df92223018b32b4d1fa46e071723d6817e2486d003becc55f00a2646970667358221220e2d2a30080e35a577c906c8fd3dd32232bc6b1e83f5a044bd6883367cafb667264736f6c63430008140033",
  "linkReferences": {},
  "deployedLinkReferences": {}
}