{
  "_format": "hh-sol-artifact-1",
  "contractName": "AethpadFactoryV2",
  "sourceName": "contracts/v2/AethpadFactoryV2.sol",
  "abi": [
    {
      "inputs": [
        {
          "internalType": "address",
          "name": "_uniswapRouter",
          "type": "address"
        }
      ],
      "stateMutability": "nonpayable",
      "type": "constructor"
    },
    {
      "inputs": [
        {
          "internalType": "address",
          "name": "owner",
          "type": "address"
        }
      ],
      "name": "OwnableInvalidOwner",
      "type": "error"
    },
    {
      "inputs": [
        {
          "internalType": "address",
          "name": "account",
          "type": "address"
        }
      ],
      "name": "OwnableUnauthorizedAccount",
      "type": "error"
    },
    {
      "inputs": [],
      "name": "ReentrancyGuardReentrantCall",
      "type": "error"
    },
    {
      "anonymous": false,
      "inputs": [
        {
          "indexed": true,
          "internalType": "address",
          "name": "token",
          "type": "address"
        },
        {
          "indexed": false,
          "internalType": "string",
          "name": "newURI",
          "type": "string"
        }
      ],
      "name": "MetadataUpdated",
      "type": "event"
    },
    {
      "anonymous": false,
      "inputs": [
        {
          "indexed": true,
          "internalType": "address",
          "name": "previousOwner",
          "type": "address"
        },
        {
          "indexed": true,
          "internalType": "address",
          "name": "newOwner",
          "type": "address"
        }
      ],
      "name": "OwnershipTransferred",
      "type": "event"
    },
    {
      "anonymous": false,
      "inputs": [
        {
          "indexed": true,
          "internalType": "address",
          "name": "fromToken",
          "type": "address"
        },
        {
          "indexed": false,
          "internalType": "uint256",
          "name": "amount",
          "type": "uint256"
        }
      ],
      "name": "PlatformFeeReceived",
      "type": "event"
    },
    {
      "anonymous": false,
      "inputs": [
        {
          "indexed": true,
          "internalType": "address",
          "name": "to",
          "type": "address"
        },
        {
          "indexed": false,
          "internalType": "uint256",
          "name": "amount",
          "type": "uint256"
        }
      ],
      "name": "PlatformFeesWithdrawn",
      "type": "event"
    },
    {
      "anonymous": false,
      "inputs": [
        {
          "indexed": true,
          "internalType": "address",
          "name": "token",
          "type": "address"
        },
        {
          "indexed": true,
          "internalType": "address",
          "name": "curve",
          "type": "address"
        },
        {
          "indexed": true,
          "internalType": "address",
          "name": "creator",
          "type": "address"
        },
        {
          "indexed": false,
          "internalType": "string",
          "name": "name",
          "type": "string"
        },
        {
          "indexed": false,
          "internalType": "string",
          "name": "symbol",
          "type": "string"
        },
        {
          "indexed": false,
          "internalType": "string",
          "name": "metadataURI",
          "type": "string"
        },
        {
          "indexed": false,
          "internalType": "uint256",
          "name": "devBuyEth",
          "type": "uint256"
        },
        {
          "indexed": false,
          "internalType": "uint256",
          "name": "devBuyTokens",
          "type": "uint256"
        }
      ],
      "name": "TokenDeployed",
      "type": "event"
    },
    {
      "inputs": [],
      "name": "accumulatedPlatformFees",
      "outputs": [
        {
          "internalType": "uint256",
          "name": "",
          "type": "uint256"
        }
      ],
      "stateMutability": "view",
      "type": "function"
    },
    {
      "inputs": [
        {
          "internalType": "uint256",
          "name": "",
          "type": "uint256"
        }
      ],
      "name": "allTokens",
      "outputs": [
        {
          "internalType": "address",
          "name": "",
          "type": "address"
        }
      ],
      "stateMutability": "view",
      "type": "function"
    },
    {
      "inputs": [],
      "name": "allTokensLength",
      "outputs": [
        {
          "internalType": "uint256",
          "name": "",
          "type": "uint256"
        }
      ],
      "stateMutability": "view",
      "type": "function"
    },
    {
      "inputs": [
        {
          "internalType": "string",
          "name": "name",
          "type": "string"
        },
        {
          "internalType": "string",
          "name": "symbol",
          "type": "string"
        },
        {
          "internalType": "string",
          "name": "metadataURI",
          "type": "string"
        }
      ],
      "name": "createToken",
      "outputs": [
        {
          "internalType": "address",
          "name": "tokenAddr",
          "type": "address"
        },
        {
          "internalType": "address",
          "name": "curveAddr",
          "type": "address"
        }
      ],
      "stateMutability": "payable",
      "type": "function"
    },
    {
      "inputs": [],
      "name": "deployer",
      "outputs": [
        {
          "internalType": "contract AethpadDeployer",
          "name": "",
          "type": "address"
        }
      ],
      "stateMutability": "view",
      "type": "function"
    },
    {
      "inputs": [
        {
          "internalType": "address",
          "name": "tokenAddr",
          "type": "address"
        }
      ],
      "name": "flushTokenPlatformEth",
      "outputs": [],
      "stateMutability": "nonpayable",
      "type": "function"
    },
    {
      "inputs": [
        {
          "internalType": "address",
          "name": "tokenAddr",
          "type": "address"
        },
        {
          "internalType": "address",
          "name": "to",
          "type": "address"
        }
      ],
      "name": "forceCloseCurve",
      "outputs": [],
      "stateMutability": "nonpayable",
      "type": "function"
    },
    {
      "inputs": [],
      "name": "getAllTokens",
      "outputs": [
        {
          "internalType": "address[]",
          "name": "",
          "type": "address[]"
        }
      ],
      "stateMutability": "view",
      "type": "function"
    },
    {
      "inputs": [
        {
          "internalType": "address",
          "name": "tokenAddr",
          "type": "address"
        }
      ],
      "name": "getRecord",
      "outputs": [
        {
          "components": [
            {
              "internalType": "address",
              "name": "token",
              "type": "address"
            },
            {
              "internalType": "address",
              "name": "curve",
              "type": "address"
            },
            {
              "internalType": "address",
              "name": "creator",
              "type": "address"
            },
            {
              "internalType": "uint256",
              "name": "deployedAt",
              "type": "uint256"
            },
            {
              "internalType": "string",
              "name": "metadataURI",
              "type": "string"
            },
            {
              "internalType": "uint256",
              "name": "initialDevBuyEth",
              "type": "uint256"
            },
            {
              "internalType": "uint256",
              "name": "initialDevBuyTokens",
              "type": "uint256"
            }
          ],
          "internalType": "struct AethpadFactoryV2.TokenRecord",
          "name": "",
          "type": "tuple"
        }
      ],
      "stateMutability": "view",
      "type": "function"
    },
    {
      "inputs": [],
      "name": "owner",
      "outputs": [
        {
          "internalType": "address",
          "name": "",
          "type": "address"
        }
      ],
      "stateMutability": "view",
      "type": "function"
    },
    {
      "inputs": [
        {
          "internalType": "address",
          "name": "",
          "type": "address"
        }
      ],
      "name": "records",
      "outputs": [
        {
          "internalType": "address",
          "name": "token",
          "type": "address"
        },
        {
          "internalType": "address",
          "name": "curve",
          "type": "address"
        },
        {
          "internalType": "address",
          "name": "creator",
          "type": "address"
        },
        {
          "internalType": "uint256",
          "name": "deployedAt",
          "type": "uint256"
        },
        {
          "internalType": "string",
          "name": "metadataURI",
          "type": "string"
        },
        {
          "internalType": "uint256",
          "name": "initialDevBuyEth",
          "type": "uint256"
        },
        {
          "internalType": "uint256",
          "name": "initialDevBuyTokens",
          "type": "uint256"
        }
      ],
      "stateMutability": "view",
      "type": "function"
    },
    {
      "inputs": [],
      "name": "renounceOwnership",
      "outputs": [],
      "stateMutability": "nonpayable",
      "type": "function"
    },
    {
      "inputs": [
        {
          "internalType": "address",
          "name": "_deployer",
          "type": "address"
        }
      ],
      "name": "setDeployer",
      "outputs": [],
      "stateMutability": "nonpayable",
      "type": "function"
    },
    {
      "inputs": [
        {
          "internalType": "address",
          "name": "tokenAddr",
          "type": "address"
        },
        {
          "internalType": "address",
          "name": "account",
          "type": "address"
        },
        {
          "internalType": "bool",
          "name": "excluded",
          "type": "bool"
        }
      ],
      "name": "setTokenExcluded",
      "outputs": [],
      "stateMutability": "nonpayable",
      "type": "function"
    },
    {
      "inputs": [
        {
          "internalType": "address",
          "name": "tokenAddr",
          "type": "address"
        },
        {
          "internalType": "address",
          "name": "newKeeper",
          "type": "address"
        }
      ],
      "name": "setTokenKeeper",
      "outputs": [],
      "stateMutability": "nonpayable",
      "type": "function"
    },
    {
      "inputs": [
        {
          "internalType": "address",
          "name": "tokenAddr",
          "type": "address"
        },
        {
          "internalType": "uint256",
          "name": "newThreshold",
          "type": "uint256"
        }
      ],
      "name": "setTokenSwapThreshold",
      "outputs": [],
      "stateMutability": "nonpayable",
      "type": "function"
    },
    {
      "inputs": [],
      "name": "totalPlatformFeesWithdrawn",
      "outputs": [
        {
          "internalType": "uint256",
          "name": "",
          "type": "uint256"
        }
      ],
      "stateMutability": "view",
      "type": "function"
    },
    {
      "inputs": [
        {
          "internalType": "address",
          "name": "newOwner",
          "type": "address"
        }
      ],
      "name": "transferOwnership",
      "outputs": [],
      "stateMutability": "nonpayable",
      "type": "function"
    },
    {
      "inputs": [],
      "name": "uniswapRouter",
      "outputs": [
        {
          "internalType": "address",
          "name": "",
          "type": "address"
        }
      ],
      "stateMutability": "view",
      "type": "function"
    },
    {
      "inputs": [
        {
          "internalType": "address",
          "name": "tokenAddr",
          "type": "address"
        },
        {
          "internalType": "string",
          "name": "newURI",
          "type": "string"
        }
      ],
      "name": "updateMetadataURI",
      "outputs": [],
      "stateMutability": "nonpayable",
      "type": "function"
    },
    {
      "inputs": [
        {
          "internalType": "address",
          "name": "to",
          "type": "address"
        }
      ],
      "name": "withdrawPlatformFees",
      "outputs": [],
      "stateMutability": "nonpayable",
      "type": "function"
    },
    {
      "stateMutability": "payable",
      "type": "receive"
    }
  ],
  "bytecode": "0x60a03461012257601f61177038819003918201601f19168301916001600160401b038311848410176101275780849260209460405283398101031261012257516001600160a01b03808216808303610122573315610109576000543360018060a01b0319821617600055604051923391167f8be0079c531659141344cd1fd0a4f28419497f9722a3daafe3b4186f6b6457e0600080a360017f9b779b17422d0df92223018b32b4d1fa46e071723d6817e2486d003becc55f0055156100da5750608052604051611632908161013e823960805181610cc90152f35b62461bcd60e51b815260206004820152600a6024820152692130b2103937baba32b960b11b6044820152606490fd5b604051631e4fbdf760e01b815260006004820152602490fd5b600080fd5b634e487b7160e01b600052604160045260246000fdfe60806040526004361015610056575b361561001957600080fd5b6100253460045461153d565b6004556040513481527fabec8fa5eba11c7eac51663a2902a5a185098b166b62a23b16dc7a4e2c12de4b60203392a2005b6000803560e01c80630668c0d0146111995780631e0db4401461117b5780632a5c792a146110d3578063342f2df3146110b557806342086c7914611043578063469e906714610fa9578063617fba0414610e96578063634282af14610e5257806369496d9614610dd6578063715018a614610d8e57806371af310114610cf8578063735de9f714610cb35780638da5cb5b14610c8c57806394aed7d01461064957806396214735146105cb578063d5f39488146105a2578063dbb80e4214610584578063ec3889b514610408578063f2fde38b14610392578063fabb2c17146101ee5763ff6151c714610149575061000e565b346101db5760403660031901126101db578061016361122c565b61016b611242565b61017361143d565b6001600160a01b03918216835260026020526040832054821691610198831515611560565b823b156101e95760248492836040519586948593633a43a3f360e11b85521660048401525af180156101de576101cb5750f35b6101d490611292565b6101db5780f35b80fd5b6040513d84823e3d90fd5b505050fd5b50346101db5760403660031901126101db5761020861122c565b6001600160401b039060243582811161038e57610229903690600401611410565b919060018060a01b0380921693848652602092600284526040872090600282015416330361035a576004019084116103465761026f846102698354611258565b836114b9565b85601f85116001146102d057916102bf918560008051602061159d83398151915296959489916102c5575b508560011b906000198760031b1c19161790555b60405193838594855284019161147d565b0390a280f35b90508201353861029a565b81875283872090601f198616885b81811061032f5750916102bf93918760008051602061159d8339815191529897969410610315575b5050600185811b0190556102ae565b830135600019600388901b60f8161c191690553880610306565b9192866001819286890135815501940192016102de565b634e487b7160e01b86526041600452602486fd5b60405162461bcd60e51b815260048101859052600c60248201526b27b7363c9031b932b0ba37b960a11b6044820152606490fd5b8380fd5b50346101db5760203660031901126101db576103ac61122c565b6103b461143d565b6001600160a01b039081169081156103ef576000548260018060a01b0319821617600055166000805160206115bd833981519152600080a380f35b604051631e4fbdf760e01b815260048101849052602490fd5b50346101db576020806003193601126105805761042361122c565b9061042c61143d565b61043461150d565b600454918215610545576001600160a01b0316918215610510578360045561045e8160055461153d565b6005558380808084875af13d1561050b573d6104798161149e565b9061048760405192836112d6565b815285843d92013e5b156104d457907ffc7ad544ff6a06d6499925723d25b6fe70457a42939995b1d3d6f560fe33633391604051908152a260016000805160206115dd8339815191525580f35b60405162461bcd60e51b815260048101839052600f60248201526e115512081cd95b990819985a5b1959608a1b6044820152606490fd5b610490565b60405162461bcd60e51b815260048101839052600d60248201526c109859081c9958da5c1a595b9d609a1b6044820152606490fd5b60405162461bcd60e51b81526004810183905260136024820152724e6f7468696e6720746f20776974686472617760681b6044820152606490fd5b5080fd5b50346101db57806003193601126101db576020600354604051908152f35b50346101db57806003193601126101db576001546040516001600160a01b039091168152602090f35b50346101db5760203660031901126101db576105e561122c565b6105ed61143d565b600154906001600160a01b0390818316610616576001600160a01b031990921691161760015580f35b60405162461bcd60e51b815260206004820152600b60248201526a105b1c9958591e481cd95d60aa1b6044820152606490fd5b5060603660031901126101db576004356001600160401b03811161058057610675903690600401611410565b91906024356001600160401b038111610c8857610696903690600401611410565b90939092906044356001600160401b038111610c88576106ba903690600401611410565b90956106c461150d565b6001546001600160a01b0316958615610c50576040805163390274ed60e01b815260048101829052978890818881610716610703604483018c8f61147d565b828103600319016024840152888a61147d565b03925af1958615610c455785978697610bf8575b50604051610737816112bb565b6001600160a01b038981168252881660208201523360408201524260608201526107608561149e565b9061076e60405192836112d6565b85825236868c0111610ac857858b6020840137602086830181018990526080820192835260a0820189905260c082018990526001600160a01b038b81168a5260028083526040808c20855181549085166001600160a01b03199182161782559486015160018201805491861691871691909117905590850151918101805492909316919093161790556060820151600382015591518051906001600160401b038211610be45761082e826108256004870154611258565b600487016114b9565b602090601f8311600114610b725791806006949260c0948d92610b67575b50508160011b916000199060031b1c19161760048501555b60a081015160058501550151910155600354600160401b811015610b535780600161089292016003556113df565b81546001600160a01b038b811660039390931b92831b921b19161790558534610965575b50604098926108f394926108d86108e6938c519860a08a5260a08a019161147d565b91878303602089015261147d565b918483038986015261147d565b346060830152608082019290925233916001600160a01b0384811692908616917fee1be9e7a514e242eddd023cf4bd4446c71d28c7cf5c53c4085379ea89993033919081900390a460016000805160206115dd8339815191525582516001600160a01b03928316815291166020820152f35b604051636cb504a560e11b815260048101829052909650602081602481346001600160a01b038d165af1908115610b48578791610b16575b506040516370a0823160e01b81523060048201529096906020816024816001600160a01b038e165afa9081156101de578291610adf575b5080610a50575b506001600160a01b03898116825260026020526040822034600582015560060188905588163b156101db5760405163d8c76c1760e01b81523360048201528181602481836001600160a01b038e165af180156101de57610a3c575b506108b6565b610a468291611292565b6101db5780610a36565b60405163a9059cbb60e01b815233600482015260248101829052919750906020816044818b6001600160a01b038f165af18015610ad457610a94575b5095386109db565b6020813d602011610acc575b81610aad602093836112d6565b81010312610ac8575180151503610ac45738610a8c565b8680fd5b8780fd5b3d9150610aa0565b6040513d8a823e3d90fd5b90506020813d602011610b0e575b81610afa602093836112d6565b81010312610b095751386109d4565b600080fd5b3d9150610aed565b90506020813d602011610b40575b81610b31602093836112d6565b81010312610b0957513861099d565b3d9150610b24565b6040513d89823e3d90fd5b634e487b7160e01b87526041600452602487fd5b01519050388061084c565b90600485018b5260208b20918b5b601f1985168110610bcc5750926006949260019260c09583601f19811610610bb3575b505050811b016004850155610864565b015160001960f88460031b161c19169055388080610ba3565b91926020600181928685015181550194019201610b80565b634e487b7160e01b8a52604160045260248afd5b975095506040873d604011610c3d575b81610c15604093836112d6565b81010312610c3957610c326020610c2b89611469565b9801611469565b953861072a565b8480fd5b3d9150610c08565b6040513d87823e3d90fd5b60405162461bcd60e51b815260206004820152601060248201526f11195c1b1bde595c881b9bdd081cd95d60821b6044820152606490fd5b8280fd5b50346101db57806003193601126101db57546040516001600160a01b039091168152602090f35b50346101db57806003193601126101db576040517f00000000000000000000000000000000000000000000000000000000000000006001600160a01b03168152602090f35b50346101db5760603660031901126101db5780610d1361122c565b610d1b611242565b604435918215158093036101e957610d3161143d565b6001600160a01b039081168452600260205260408420548116610d55811515611560565b803b15610c39578492836044926040519687958694630a0daf8960e21b865216600485015260248401525af180156101de576101cb5750f35b50346101db57806003193601126101db57610da761143d565b600080546001600160a01b0319811682556001600160a01b03166000805160206115bd8339815191528280a380f35b50346101db5760403660031901126101db5780610df161122c565b610df961143d565b6001600160a01b0390811682526002602052604082205416610e1c811515611560565b803b15610e4f57818091602460405180948193639d0014b160e01b8352833560048401525af180156101de576101cb5750f35b50fd5b50346101db5760203660031901126101db57600435906003548210156101db576020610e7d836113df565b905460405160039290921b1c6001600160a01b03168152f35b50346101db57602080600319360112610580576040610eb361122c565b928060c08351610ec2816112bb565b82815282868201528285820152826060820152606060808201528260a0820152015260018060a01b038094168152600283522060405191610f02836112bb565b838254168352610f98846001840154168285019081528560028501541660408601908152866003860154916060880192835281610f41600489016112f9565b9460808a01958652600660058a01549960a08c019a8b5201549760c08b019889526040519b8c9b828d525116908b015251166040890152511660608701525160808601525160e060a086015261010085019061139f565b915160c08401525160e08301520390f35b50346101db5760203660031901126101db576001600160a01b039060409082610fd061122c565b168152600260205220818154169082600182015416926002820154166110346003830154611000600485016112f9565b906006600586015495015493604051978897885260208801526040870152606086015260e0608086015260e085019061139f565b9160a084015260c08301520390f35b50346101db5760203660031901126101db578061105e61122c565b61106661143d565b6001600160a01b0390811682526002602052604082205416611089811515611560565b803b15610e4f57818091600460405180948193630427934960e01b83525af180156101de576101cb5750f35b50346101db57806003193601126101db576020600454604051908152f35b50346101db57806003193601126101db57604051809160035490818352602080930180926003835284832090835b81811061115e57505050846111179103856112d6565b60405193838594850191818652518092526040850193925b82811061113e57505050500390f35b83516001600160a01b03168552869550938101939281019260010161112f565b82546001600160a01b031684529286019260019283019201611101565b50346101db57806003193601126101db576020600554604051908152f35b50346101db5760403660031901126101db576111b361122c565b816111bc611242565b916111c561143d565b6001600160a01b039081168252600260205260408220600101548116926111ed841515611560565b833b15610c8857602490836040519586948593630a17128360e31b85521660048401525af180156101de57611220575080f35b61122990611292565b80f35b600435906001600160a01b0382168203610b0957565b602435906001600160a01b0382168203610b0957565b90600182811c92168015611288575b602083101461127257565b634e487b7160e01b600052602260045260246000fd5b91607f1691611267565b6001600160401b0381116112a557604052565b634e487b7160e01b600052604160045260246000fd5b60e081019081106001600160401b038211176112a557604052565b601f909101601f19168101906001600160401b038211908210176112a557604052565b906040519182600082549261130d84611258565b90818452600194858116908160001461137c5750600114611339575b5050611337925003836112d6565b565b9093915060005260209081600020936000915b81831061136457505061133793508201013880611329565b8554888401850152948501948794509183019161134c565b91505061133794506020925060ff191682840152151560051b8201013880611329565b919082519283825260005b8481106113cb575050826000602080949584010152601f8019910116010190565b6020818301810151848301820152016113aa565b6003548110156113fa57600360005260206000200190600090565b634e487b7160e01b600052603260045260246000fd5b9181601f84011215610b09578235916001600160401b038311610b095760208381860195010111610b0957565b6000546001600160a01b0316330361145157565b60405163118cdaa760e01b8152336004820152602490fd5b51906001600160a01b0382168203610b0957565b908060209392818452848401376000828201840152601f01601f1916010190565b6001600160401b0381116112a557601f01601f191660200190565b90601f81116114c757505050565b600091825260208220906020601f850160051c83019410611503575b601f0160051c01915b8281106114f857505050565b8181556001016114ec565b90925082906114e3565b6000805160206115dd833981519152600281541461152b5760029055565b604051633ee5aeb560e01b8152600490fd5b9190820180921161154a57565b634e487b7160e01b600052601160045260246000fd5b1561156757565b60405162461bcd60e51b815260206004820152600d60248201526c2ab735b737bbb7103a37b5b2b760991b6044820152606490fdfe2013570c343af8ab14a9778150e381a0fda34ed6368127a95fd5e7210cbec5bf8be0079c531659141344cd1fd0a4f28419497f9722a3daafe3b4186f6b6457e09b779b17422d0df92223018b32b4d1fa46e071723d6817e2486d003becc55f00a2646970667358221220078d33075503b12e047b57c131a10f34ecf46530b0a5b36eef31f372fc98836864736f6c63430008140033",
  "linkReferences": {},
  "deployedLinkReferences": {}
}