{
  "_format": "hh-sol-artifact-1",
  "contractName": "AethpadFactoryV2",
  "sourceName": "contracts/v2/AethpadFactoryV2.sol",
  "abi": [
    {
      "inputs": [
        {
          "internalType": "address",
          "name": "_uniswapRouter",
          "type": "address"
        }
      ],
      "stateMutability": "nonpayable",
      "type": "constructor"
    },
    {
      "inputs": [
        {
          "internalType": "address",
          "name": "owner",
          "type": "address"
        }
      ],
      "name": "OwnableInvalidOwner",
      "type": "error"
    },
    {
      "inputs": [
        {
          "internalType": "address",
          "name": "account",
          "type": "address"
        }
      ],
      "name": "OwnableUnauthorizedAccount",
      "type": "error"
    },
    {
      "inputs": [],
      "name": "ReentrancyGuardReentrantCall",
      "type": "error"
    },
    {
      "anonymous": false,
      "inputs": [
        {
          "indexed": true,
          "internalType": "address",
          "name": "token",
          "type": "address"
        },
        {
          "indexed": false,
          "internalType": "string",
          "name": "newURI",
          "type": "string"
        }
      ],
      "name": "MetadataUpdated",
      "type": "event"
    },
    {
      "anonymous": false,
      "inputs": [
        {
          "indexed": true,
          "internalType": "address",
          "name": "previousOwner",
          "type": "address"
        },
        {
          "indexed": true,
          "internalType": "address",
          "name": "newOwner",
          "type": "address"
        }
      ],
      "name": "OwnershipTransferred",
      "type": "event"
    },
    {
      "anonymous": false,
      "inputs": [
        {
          "indexed": true,
          "internalType": "address",
          "name": "fromToken",
          "type": "address"
        },
        {
          "indexed": false,
          "internalType": "uint256",
          "name": "amount",
          "type": "uint256"
        }
      ],
      "name": "PlatformFeeReceived",
      "type": "event"
    },
    {
      "anonymous": false,
      "inputs": [
        {
          "indexed": true,
          "internalType": "address",
          "name": "to",
          "type": "address"
        },
        {
          "indexed": false,
          "internalType": "uint256",
          "name": "amount",
          "type": "uint256"
        }
      ],
      "name": "PlatformFeesWithdrawn",
      "type": "event"
    },
    {
      "anonymous": false,
      "inputs": [
        {
          "indexed": true,
          "internalType": "address",
          "name": "token",
          "type": "address"
        },
        {
          "indexed": true,
          "internalType": "address",
          "name": "curve",
          "type": "address"
        },
        {
          "indexed": true,
          "internalType": "address",
          "name": "creator",
          "type": "address"
        },
        {
          "indexed": false,
          "internalType": "string",
          "name": "name",
          "type": "string"
        },
        {
          "indexed": false,
          "internalType": "string",
          "name": "symbol",
          "type": "string"
        },
        {
          "indexed": false,
          "internalType": "string",
          "name": "metadataURI",
          "type": "string"
        },
        {
          "indexed": false,
          "internalType": "uint256",
          "name": "devBuyEth",
          "type": "uint256"
        },
        {
          "indexed": false,
          "internalType": "uint256",
          "name": "devBuyTokens",
          "type": "uint256"
        }
      ],
      "name": "TokenDeployed",
      "type": "event"
    },
    {
      "inputs": [],
      "name": "accumulatedPlatformFees",
      "outputs": [
        {
          "internalType": "uint256",
          "name": "",
          "type": "uint256"
        }
      ],
      "stateMutability": "view",
      "type": "function"
    },
    {
      "inputs": [
        {
          "internalType": "uint256",
          "name": "",
          "type": "uint256"
        }
      ],
      "name": "allTokens",
      "outputs": [
        {
          "internalType": "address",
          "name": "",
          "type": "address"
        }
      ],
      "stateMutability": "view",
      "type": "function"
    },
    {
      "inputs": [],
      "name": "allTokensLength",
      "outputs": [
        {
          "internalType": "uint256",
          "name": "",
          "type": "uint256"
        }
      ],
      "stateMutability": "view",
      "type": "function"
    },
    {
      "inputs": [
        {
          "internalType": "string",
          "name": "name",
          "type": "string"
        },
        {
          "internalType": "string",
          "name": "symbol",
          "type": "string"
        },
        {
          "internalType": "string",
          "name": "metadataURI",
          "type": "string"
        }
      ],
      "name": "createToken",
      "outputs": [
        {
          "internalType": "address",
          "name": "tokenAddr",
          "type": "address"
        },
        {
          "internalType": "address",
          "name": "curveAddr",
          "type": "address"
        }
      ],
      "stateMutability": "payable",
      "type": "function"
    },
    {
      "inputs": [],
      "name": "deployer",
      "outputs": [
        {
          "internalType": "contract AethpadDeployer",
          "name": "",
          "type": "address"
        }
      ],
      "stateMutability": "view",
      "type": "function"
    },
    {
      "inputs": [
        {
          "internalType": "address",
          "name": "tokenAddr",
          "type": "address"
        },
        {
          "internalType": "address",
          "name": "to",
          "type": "address"
        }
      ],
      "name": "forceCloseCurve",
      "outputs": [],
      "stateMutability": "nonpayable",
      "type": "function"
    },
    {
      "inputs": [],
      "name": "getAllTokens",
      "outputs": [
        {
          "internalType": "address[]",
          "name": "",
          "type": "address[]"
        }
      ],
      "stateMutability": "view",
      "type": "function"
    },
    {
      "inputs": [
        {
          "internalType": "address",
          "name": "tokenAddr",
          "type": "address"
        }
      ],
      "name": "getRecord",
      "outputs": [
        {
          "components": [
            {
              "internalType": "address",
              "name": "token",
              "type": "address"
            },
            {
              "internalType": "address",
              "name": "curve",
              "type": "address"
            },
            {
              "internalType": "address",
              "name": "creator",
              "type": "address"
            },
            {
              "internalType": "uint256",
              "name": "deployedAt",
              "type": "uint256"
            },
            {
              "internalType": "string",
              "name": "metadataURI",
              "type": "string"
            },
            {
              "internalType": "uint256",
              "name": "initialDevBuyEth",
              "type": "uint256"
            },
            {
              "internalType": "uint256",
              "name": "initialDevBuyTokens",
              "type": "uint256"
            }
          ],
          "internalType": "struct AethpadFactoryV2.TokenRecord",
          "name": "",
          "type": "tuple"
        }
      ],
      "stateMutability": "view",
      "type": "function"
    },
    {
      "inputs": [],
      "name": "owner",
      "outputs": [
        {
          "internalType": "address",
          "name": "",
          "type": "address"
        }
      ],
      "stateMutability": "view",
      "type": "function"
    },
    {
      "inputs": [
        {
          "internalType": "address",
          "name": "",
          "type": "address"
        }
      ],
      "name": "records",
      "outputs": [
        {
          "internalType": "address",
          "name": "token",
          "type": "address"
        },
        {
          "internalType": "address",
          "name": "curve",
          "type": "address"
        },
        {
          "internalType": "address",
          "name": "creator",
          "type": "address"
        },
        {
          "internalType": "uint256",
          "name": "deployedAt",
          "type": "uint256"
        },
        {
          "internalType": "string",
          "name": "metadataURI",
          "type": "string"
        },
        {
          "internalType": "uint256",
          "name": "initialDevBuyEth",
          "type": "uint256"
        },
        {
          "internalType": "uint256",
          "name": "initialDevBuyTokens",
          "type": "uint256"
        }
      ],
      "stateMutability": "view",
      "type": "function"
    },
    {
      "inputs": [],
      "name": "renounceOwnership",
      "outputs": [],
      "stateMutability": "nonpayable",
      "type": "function"
    },
    {
      "inputs": [
        {
          "internalType": "address",
          "name": "_deployer",
          "type": "address"
        }
      ],
      "name": "setDeployer",
      "outputs": [],
      "stateMutability": "nonpayable",
      "type": "function"
    },
    {
      "inputs": [
        {
          "internalType": "address",
          "name": "tokenAddr",
          "type": "address"
        },
        {
          "internalType": "address",
          "name": "account",
          "type": "address"
        },
        {
          "internalType": "bool",
          "name": "excluded",
          "type": "bool"
        }
      ],
      "name": "setTokenExcluded",
      "outputs": [],
      "stateMutability": "nonpayable",
      "type": "function"
    },
    {
      "inputs": [
        {
          "internalType": "address",
          "name": "tokenAddr",
          "type": "address"
        },
        {
          "internalType": "address",
          "name": "newKeeper",
          "type": "address"
        }
      ],
      "name": "setTokenKeeper",
      "outputs": [],
      "stateMutability": "nonpayable",
      "type": "function"
    },
    {
      "inputs": [
        {
          "internalType": "address",
          "name": "tokenAddr",
          "type": "address"
        },
        {
          "internalType": "uint256",
          "name": "newThreshold",
          "type": "uint256"
        }
      ],
      "name": "setTokenSwapThreshold",
      "outputs": [],
      "stateMutability": "nonpayable",
      "type": "function"
    },
    {
      "inputs": [],
      "name": "totalPlatformFeesWithdrawn",
      "outputs": [
        {
          "internalType": "uint256",
          "name": "",
          "type": "uint256"
        }
      ],
      "stateMutability": "view",
      "type": "function"
    },
    {
      "inputs": [
        {
          "internalType": "address",
          "name": "newOwner",
          "type": "address"
        }
      ],
      "name": "transferOwnership",
      "outputs": [],
      "stateMutability": "nonpayable",
      "type": "function"
    },
    {
      "inputs": [],
      "name": "uniswapRouter",
      "outputs": [
        {
          "internalType": "address",
          "name": "",
          "type": "address"
        }
      ],
      "stateMutability": "view",
      "type": "function"
    },
    {
      "inputs": [
        {
          "internalType": "address",
          "name": "tokenAddr",
          "type": "address"
        },
        {
          "internalType": "string",
          "name": "newURI",
          "type": "string"
        }
      ],
      "name": "updateMetadataURI",
      "outputs": [],
      "stateMutability": "nonpayable",
      "type": "function"
    },
    {
      "inputs": [
        {
          "internalType": "address",
          "name": "to",
          "type": "address"
        }
      ],
      "name": "withdrawPlatformFees",
      "outputs": [],
      "stateMutability": "nonpayable",
      "type": "function"
    },
    {
      "stateMutability": "payable",
      "type": "receive"
    }
  ],
  "bytecode": "0x60a03461012257601f6116f338819003918201601f19168301916001600160401b038311848410176101275780849260209460405283398101031261012257516001600160a01b03808216808303610122573315610109576000543360018060a01b0319821617600055604051923391167f8be0079c531659141344cd1fd0a4f28419497f9722a3daafe3b4186f6b6457e0600080a360017f9b779b17422d0df92223018b32b4d1fa46e071723d6817e2486d003becc55f0055156100da57506080526040516115b5908161013e823960805181610cbe0152f35b62461bcd60e51b815260206004820152600a6024820152692130b2103937baba32b960b11b6044820152606490fd5b604051631e4fbdf760e01b815260006004820152602490fd5b600080fd5b634e487b7160e01b600052604160045260246000fdfe60806040526004361015610056575b361561001957600080fd5b610025346004546114c0565b6004556040513481527fabec8fa5eba11c7eac51663a2902a5a185098b166b62a23b16dc7a4e2c12de4b60203392a2005b6000803560e01c80630668c0d01461111c5780631e0db440146110fe5780632a5c792a14611056578063342f2df314611038578063469e906714610f9e578063617fba0414610e8b578063634282af14610e4757806369496d9614610dcb578063715018a614610d8357806371af310114610ced578063735de9f714610ca85780638da5cb5b14610c8157806394aed7d01461063e57806396214735146105c0578063d5f3948814610597578063dbb80e4214610579578063ec3889b5146103fd578063f2fde38b14610387578063fabb2c17146101e35763ff6151c71461013e575061000e565b346101d05760403660031901126101d057806101586111af565b6101606111c5565b6101686113c0565b6001600160a01b0391821683526002602052604083205482169161018d8315156114e3565b823b156101de5760248492836040519586948593633a43a3f360e11b85521660048401525af180156101d3576101c05750f35b6101c990611215565b6101d05780f35b80fd5b6040513d84823e3d90fd5b505050fd5b50346101d05760403660031901126101d0576101fd6111af565b6001600160401b03906024358281116103835761021e903690600401611393565b919060018060a01b0380921693848652602092600284526040872090600282015416330361034f5760040190841161033b576102648461025e83546111db565b8361143c565b85601f85116001146102c557916102b4918560008051602061152083398151915296959489916102ba575b508560011b906000198760031b1c19161790555b604051938385948552840191611400565b0390a280f35b90508201353861028f565b81875283872090601f198616885b8181106103245750916102b4939187600080516020611520833981519152989796941061030a575b5050600185811b0190556102a3565b830135600019600388901b60f8161c1916905538806102fb565b9192866001819286890135815501940192016102d3565b634e487b7160e01b86526041600452602486fd5b60405162461bcd60e51b815260048101859052600c60248201526b27b7363c9031b932b0ba37b960a11b6044820152606490fd5b8380fd5b50346101d05760203660031901126101d0576103a16111af565b6103a96113c0565b6001600160a01b039081169081156103e4576000548260018060a01b031982161760005516600080516020611540833981519152600080a380f35b604051631e4fbdf760e01b815260048101849052602490fd5b50346101d057602080600319360112610575576104186111af565b906104216113c0565b610429611490565b60045491821561053a576001600160a01b03169182156105055783600455610453816005546114c0565b6005558380808084875af13d15610500573d61046e81611421565b9061047c6040519283611259565b815285843d92013e5b156104c957907ffc7ad544ff6a06d6499925723d25b6fe70457a42939995b1d3d6f560fe33633391604051908152a260016000805160206115608339815191525580f35b60405162461bcd60e51b815260048101839052600f60248201526e115512081cd95b990819985a5b1959608a1b6044820152606490fd5b610485565b60405162461bcd60e51b815260048101839052600d60248201526c109859081c9958da5c1a595b9d609a1b6044820152606490fd5b60405162461bcd60e51b81526004810183905260136024820152724e6f7468696e6720746f20776974686472617760681b6044820152606490fd5b5080fd5b50346101d057806003193601126101d0576020600354604051908152f35b50346101d057806003193601126101d0576001546040516001600160a01b039091168152602090f35b50346101d05760203660031901126101d0576105da6111af565b6105e26113c0565b600154906001600160a01b039081831661060b576001600160a01b031990921691161760015580f35b60405162461bcd60e51b815260206004820152600b60248201526a105b1c9958591e481cd95d60aa1b6044820152606490fd5b5060603660031901126101d0576004356001600160401b0381116105755761066a903690600401611393565b91906024356001600160401b038111610c7d5761068b903690600401611393565b90939092906044356001600160401b038111610c7d576106af903690600401611393565b90956106b9611490565b6001546001600160a01b0316958615610c45576040805163390274ed60e01b81526004810182905297889081888161070b6106f8604483018c8f611400565b828103600319016024840152888a611400565b03925af1958615610c3a5785978697610bed575b5060405161072c8161123e565b6001600160a01b0389811682528816602082015233604082015242606082015261075585611421565b906107636040519283611259565b85825236868c0111610abd57858b6020840137602086830181018990526080820192835260a0820189905260c082018990526001600160a01b038b81168a5260028083526040808c20855181549085166001600160a01b03199182161782559486015160018201805491861691871691909117905590850151918101805492909316919093161790556060820151600382015591518051906001600160401b038211610bd9576108238261081a60048701546111db565b6004870161143c565b602090601f8311600114610b675791806006949260c0948d92610b5c575b50508160011b916000199060031b1c19161760048501555b60a081015160058501550151910155600354600160401b811015610b48578060016108879201600355611362565b81546001600160a01b038b811660039390931b92831b921b1916179055853461095a575b50604098926108e894926108cd6108db938c519860a08a5260a08a0191611400565b918783036020890152611400565b9184830389860152611400565b346060830152608082019290925233916001600160a01b0384811692908616917fee1be9e7a514e242eddd023cf4bd4446c71d28c7cf5c53c4085379ea89993033919081900390a460016000805160206115608339815191525582516001600160a01b03928316815291166020820152f35b604051636cb504a560e11b815260048101829052909650602081602481346001600160a01b038d165af1908115610b3d578791610b0b575b506040516370a0823160e01b81523060048201529096906020816024816001600160a01b038e165afa9081156101d3578291610ad4575b5080610a45575b506001600160a01b03898116825260026020526040822034600582015560060188905588163b156101d05760405163d8c76c1760e01b81523360048201528181602481836001600160a01b038e165af180156101d357610a31575b506108ab565b610a3b8291611215565b6101d05780610a2b565b60405163a9059cbb60e01b815233600482015260248101829052919750906020816044818b6001600160a01b038f165af18015610ac957610a89575b5095386109d0565b6020813d602011610ac1575b81610aa260209383611259565b81010312610abd575180151503610ab95738610a81565b8680fd5b8780fd5b3d9150610a95565b6040513d8a823e3d90fd5b90506020813d602011610b03575b81610aef60209383611259565b81010312610afe5751386109c9565b600080fd5b3d9150610ae2565b90506020813d602011610b35575b81610b2660209383611259565b81010312610afe575138610992565b3d9150610b19565b6040513d89823e3d90fd5b634e487b7160e01b87526041600452602487fd5b015190503880610841565b90600485018b5260208b20918b5b601f1985168110610bc15750926006949260019260c09583601f19811610610ba8575b505050811b016004850155610859565b015160001960f88460031b161c19169055388080610b98565b91926020600181928685015181550194019201610b75565b634e487b7160e01b8a52604160045260248afd5b975095506040873d604011610c32575b81610c0a60409383611259565b81010312610c2e57610c276020610c20896113ec565b98016113ec565b953861071f565b8480fd5b3d9150610bfd565b6040513d87823e3d90fd5b60405162461bcd60e51b815260206004820152601060248201526f11195c1b1bde595c881b9bdd081cd95d60821b6044820152606490fd5b8280fd5b50346101d057806003193601126101d057546040516001600160a01b039091168152602090f35b50346101d057806003193601126101d0576040517f00000000000000000000000000000000000000000000000000000000000000006001600160a01b03168152602090f35b50346101d05760603660031901126101d05780610d086111af565b610d106111c5565b604435918215158093036101de57610d266113c0565b6001600160a01b039081168452600260205260408420548116610d4a8115156114e3565b803b15610c2e578492836044926040519687958694630a0daf8960e21b865216600485015260248401525af180156101d3576101c05750f35b50346101d057806003193601126101d057610d9c6113c0565b600080546001600160a01b0319811682556001600160a01b03166000805160206115408339815191528280a380f35b50346101d05760403660031901126101d05780610de66111af565b610dee6113c0565b6001600160a01b0390811682526002602052604082205416610e118115156114e3565b803b15610e4457818091602460405180948193639d0014b160e01b8352833560048401525af180156101d3576101c05750f35b50fd5b50346101d05760203660031901126101d057600435906003548210156101d0576020610e7283611362565b905460405160039290921b1c6001600160a01b03168152f35b50346101d057602080600319360112610575576040610ea86111af565b928060c08351610eb78161123e565b82815282868201528285820152826060820152606060808201528260a0820152015260018060a01b038094168152600283522060405191610ef78361123e565b838254168352610f8d846001840154168285019081528560028501541660408601908152866003860154916060880192835281610f366004890161127c565b9460808a01958652600660058a01549960a08c019a8b5201549760c08b019889526040519b8c9b828d525116908b015251166040890152511660608701525160808601525160e060a0860152610100850190611322565b915160c08401525160e08301520390f35b50346101d05760203660031901126101d0576001600160a01b039060409082610fc56111af565b168152600260205220818154169082600182015416926002820154166110296003830154610ff56004850161127c565b906006600586015495015493604051978897885260208801526040870152606086015260e0608086015260e0850190611322565b9160a084015260c08301520390f35b50346101d057806003193601126101d0576020600454604051908152f35b50346101d057806003193601126101d057604051809160035490818352602080930180926003835284832090835b8181106110e1575050508461109a910385611259565b60405193838594850191818652518092526040850193925b8281106110c157505050500390f35b83516001600160a01b0316855286955093810193928101926001016110b2565b82546001600160a01b031684529286019260019283019201611084565b50346101d057806003193601126101d0576020600554604051908152f35b50346101d05760403660031901126101d0576111366111af565b8161113f6111c5565b916111486113c0565b6001600160a01b039081168252600260205260408220600101548116926111708415156114e3565b833b15610c7d57602490836040519586948593630a17128360e31b85521660048401525af180156101d3576111a3575080f35b6111ac90611215565b80f35b600435906001600160a01b0382168203610afe57565b602435906001600160a01b0382168203610afe57565b90600182811c9216801561120b575b60208310146111f557565b634e487b7160e01b600052602260045260246000fd5b91607f16916111ea565b6001600160401b03811161122857604052565b634e487b7160e01b600052604160045260246000fd5b60e081019081106001600160401b0382111761122857604052565b601f909101601f19168101906001600160401b0382119082101761122857604052565b9060405191826000825492611290846111db565b9081845260019485811690816000146112ff57506001146112bc575b50506112ba92500383611259565b565b9093915060005260209081600020936000915b8183106112e75750506112ba935082010138806112ac565b855488840185015294850194879450918301916112cf565b9150506112ba94506020925060ff191682840152151560051b82010138806112ac565b919082519283825260005b84811061134e575050826000602080949584010152601f8019910116010190565b60208183018101518483018201520161132d565b60035481101561137d57600360005260206000200190600090565b634e487b7160e01b600052603260045260246000fd5b9181601f84011215610afe578235916001600160401b038311610afe5760208381860195010111610afe57565b6000546001600160a01b031633036113d457565b60405163118cdaa760e01b8152336004820152602490fd5b51906001600160a01b0382168203610afe57565b908060209392818452848401376000828201840152601f01601f1916010190565b6001600160401b03811161122857601f01601f191660200190565b90601f811161144a57505050565b600091825260208220906020601f850160051c83019410611486575b601f0160051c01915b82811061147b57505050565b81815560010161146f565b9092508290611466565b60008051602061156083398151915260028154146114ae5760029055565b604051633ee5aeb560e01b8152600490fd5b919082018092116114cd57565b634e487b7160e01b600052601160045260246000fd5b156114ea57565b60405162461bcd60e51b815260206004820152600d60248201526c2ab735b737bbb7103a37b5b2b760991b6044820152606490fdfe2013570c343af8ab14a9778150e381a0fda34ed6368127a95fd5e7210cbec5bf8be0079c531659141344cd1fd0a4f28419497f9722a3daafe3b4186f6b6457e09b779b17422d0df92223018b32b4d1fa46e071723d6817e2486d003becc55f00a26469706673582212200f7c5ae52f5e69268d761b8263f91d3c1458540137a7841cfd7c4fe204ecd08464736f6c63430008140033",
  "linkReferences": {},
  "deployedLinkReferences": {}
}