{
  "_format": "hh-sol-artifact-1",
  "contractName": "AethpadFactoryV2",
  "sourceName": "contracts/v2/AethpadFactoryV2.sol",
  "abi": [
    {
      "inputs": [
        {
          "internalType": "address",
          "name": "_uniswapRouter",
          "type": "address"
        }
      ],
      "stateMutability": "nonpayable",
      "type": "constructor"
    },
    {
      "inputs": [
        {
          "internalType": "address",
          "name": "owner",
          "type": "address"
        }
      ],
      "name": "OwnableInvalidOwner",
      "type": "error"
    },
    {
      "inputs": [
        {
          "internalType": "address",
          "name": "account",
          "type": "address"
        }
      ],
      "name": "OwnableUnauthorizedAccount",
      "type": "error"
    },
    {
      "inputs": [],
      "name": "ReentrancyGuardReentrantCall",
      "type": "error"
    },
    {
      "anonymous": false,
      "inputs": [
        {
          "indexed": true,
          "internalType": "address",
          "name": "token",
          "type": "address"
        },
        {
          "indexed": false,
          "internalType": "string",
          "name": "newURI",
          "type": "string"
        }
      ],
      "name": "MetadataUpdated",
      "type": "event"
    },
    {
      "anonymous": false,
      "inputs": [
        {
          "indexed": true,
          "internalType": "address",
          "name": "previousOwner",
          "type": "address"
        },
        {
          "indexed": true,
          "internalType": "address",
          "name": "newOwner",
          "type": "address"
        }
      ],
      "name": "OwnershipTransferred",
      "type": "event"
    },
    {
      "anonymous": false,
      "inputs": [
        {
          "indexed": true,
          "internalType": "address",
          "name": "fromToken",
          "type": "address"
        },
        {
          "indexed": false,
          "internalType": "uint256",
          "name": "amount",
          "type": "uint256"
        }
      ],
      "name": "PlatformFeeReceived",
      "type": "event"
    },
    {
      "anonymous": false,
      "inputs": [
        {
          "indexed": true,
          "internalType": "address",
          "name": "to",
          "type": "address"
        },
        {
          "indexed": false,
          "internalType": "uint256",
          "name": "amount",
          "type": "uint256"
        }
      ],
      "name": "PlatformFeesWithdrawn",
      "type": "event"
    },
    {
      "anonymous": false,
      "inputs": [
        {
          "indexed": true,
          "internalType": "address",
          "name": "token",
          "type": "address"
        },
        {
          "indexed": true,
          "internalType": "address",
          "name": "curve",
          "type": "address"
        },
        {
          "indexed": true,
          "internalType": "address",
          "name": "creator",
          "type": "address"
        },
        {
          "indexed": false,
          "internalType": "string",
          "name": "name",
          "type": "string"
        },
        {
          "indexed": false,
          "internalType": "string",
          "name": "symbol",
          "type": "string"
        },
        {
          "indexed": false,
          "internalType": "string",
          "name": "metadataURI",
          "type": "string"
        },
        {
          "indexed": false,
          "internalType": "uint256",
          "name": "devBuyEth",
          "type": "uint256"
        },
        {
          "indexed": false,
          "internalType": "uint256",
          "name": "devBuyTokens",
          "type": "uint256"
        }
      ],
      "name": "TokenDeployed",
      "type": "event"
    },
    {
      "inputs": [],
      "name": "accumulatedPlatformFees",
      "outputs": [
        {
          "internalType": "uint256",
          "name": "",
          "type": "uint256"
        }
      ],
      "stateMutability": "view",
      "type": "function"
    },
    {
      "inputs": [
        {
          "internalType": "uint256",
          "name": "",
          "type": "uint256"
        }
      ],
      "name": "allTokens",
      "outputs": [
        {
          "internalType": "address",
          "name": "",
          "type": "address"
        }
      ],
      "stateMutability": "view",
      "type": "function"
    },
    {
      "inputs": [],
      "name": "allTokensLength",
      "outputs": [
        {
          "internalType": "uint256",
          "name": "",
          "type": "uint256"
        }
      ],
      "stateMutability": "view",
      "type": "function"
    },
    {
      "inputs": [
        {
          "internalType": "string",
          "name": "name",
          "type": "string"
        },
        {
          "internalType": "string",
          "name": "symbol",
          "type": "string"
        },
        {
          "internalType": "string",
          "name": "metadataURI",
          "type": "string"
        }
      ],
      "name": "createToken",
      "outputs": [
        {
          "internalType": "address",
          "name": "tokenAddr",
          "type": "address"
        },
        {
          "internalType": "address",
          "name": "curveAddr",
          "type": "address"
        }
      ],
      "stateMutability": "payable",
      "type": "function"
    },
    {
      "inputs": [],
      "name": "deployer",
      "outputs": [
        {
          "internalType": "contract AethpadDeployer",
          "name": "",
          "type": "address"
        }
      ],
      "stateMutability": "view",
      "type": "function"
    },
    {
      "inputs": [
        {
          "internalType": "address",
          "name": "tokenAddr",
          "type": "address"
        },
        {
          "internalType": "address",
          "name": "to",
          "type": "address"
        }
      ],
      "name": "forceCloseCurve",
      "outputs": [],
      "stateMutability": "nonpayable",
      "type": "function"
    },
    {
      "inputs": [],
      "name": "getAllTokens",
      "outputs": [
        {
          "internalType": "address[]",
          "name": "",
          "type": "address[]"
        }
      ],
      "stateMutability": "view",
      "type": "function"
    },
    {
      "inputs": [
        {
          "internalType": "address",
          "name": "tokenAddr",
          "type": "address"
        }
      ],
      "name": "getRecord",
      "outputs": [
        {
          "components": [
            {
              "internalType": "address",
              "name": "token",
              "type": "address"
            },
            {
              "internalType": "address",
              "name": "curve",
              "type": "address"
            },
            {
              "internalType": "address",
              "name": "creator",
              "type": "address"
            },
            {
              "internalType": "uint256",
              "name": "deployedAt",
              "type": "uint256"
            },
            {
              "internalType": "string",
              "name": "metadataURI",
              "type": "string"
            },
            {
              "internalType": "uint256",
              "name": "initialDevBuyEth",
              "type": "uint256"
            },
            {
              "internalType": "uint256",
              "name": "initialDevBuyTokens",
              "type": "uint256"
            }
          ],
          "internalType": "struct AethpadFactoryV2.TokenRecord",
          "name": "",
          "type": "tuple"
        }
      ],
      "stateMutability": "view",
      "type": "function"
    },
    {
      "inputs": [],
      "name": "owner",
      "outputs": [
        {
          "internalType": "address",
          "name": "",
          "type": "address"
        }
      ],
      "stateMutability": "view",
      "type": "function"
    },
    {
      "inputs": [
        {
          "internalType": "address",
          "name": "",
          "type": "address"
        }
      ],
      "name": "records",
      "outputs": [
        {
          "internalType": "address",
          "name": "token",
          "type": "address"
        },
        {
          "internalType": "address",
          "name": "curve",
          "type": "address"
        },
        {
          "internalType": "address",
          "name": "creator",
          "type": "address"
        },
        {
          "internalType": "uint256",
          "name": "deployedAt",
          "type": "uint256"
        },
        {
          "internalType": "string",
          "name": "metadataURI",
          "type": "string"
        },
        {
          "internalType": "uint256",
          "name": "initialDevBuyEth",
          "type": "uint256"
        },
        {
          "internalType": "uint256",
          "name": "initialDevBuyTokens",
          "type": "uint256"
        }
      ],
      "stateMutability": "view",
      "type": "function"
    },
    {
      "inputs": [],
      "name": "renounceOwnership",
      "outputs": [],
      "stateMutability": "nonpayable",
      "type": "function"
    },
    {
      "inputs": [
        {
          "internalType": "address",
          "name": "_deployer",
          "type": "address"
        }
      ],
      "name": "setDeployer",
      "outputs": [],
      "stateMutability": "nonpayable",
      "type": "function"
    },
    {
      "inputs": [
        {
          "internalType": "address",
          "name": "tokenAddr",
          "type": "address"
        },
        {
          "internalType": "address",
          "name": "account",
          "type": "address"
        },
        {
          "internalType": "bool",
          "name": "excluded",
          "type": "bool"
        }
      ],
      "name": "setTokenExcluded",
      "outputs": [],
      "stateMutability": "nonpayable",
      "type": "function"
    },
    {
      "inputs": [
        {
          "internalType": "address",
          "name": "tokenAddr",
          "type": "address"
        },
        {
          "internalType": "address",
          "name": "newKeeper",
          "type": "address"
        }
      ],
      "name": "setTokenKeeper",
      "outputs": [],
      "stateMutability": "nonpayable",
      "type": "function"
    },
    {
      "inputs": [
        {
          "internalType": "address",
          "name": "tokenAddr",
          "type": "address"
        },
        {
          "internalType": "uint256",
          "name": "newThreshold",
          "type": "uint256"
        }
      ],
      "name": "setTokenSwapThreshold",
      "outputs": [],
      "stateMutability": "nonpayable",
      "type": "function"
    },
    {
      "inputs": [],
      "name": "totalPlatformFeesWithdrawn",
      "outputs": [
        {
          "internalType": "uint256",
          "name": "",
          "type": "uint256"
        }
      ],
      "stateMutability": "view",
      "type": "function"
    },
    {
      "inputs": [
        {
          "internalType": "address",
          "name": "newOwner",
          "type": "address"
        }
      ],
      "name": "transferOwnership",
      "outputs": [],
      "stateMutability": "nonpayable",
      "type": "function"
    },
    {
      "inputs": [],
      "name": "uniswapRouter",
      "outputs": [
        {
          "internalType": "address",
          "name": "",
          "type": "address"
        }
      ],
      "stateMutability": "view",
      "type": "function"
    },
    {
      "inputs": [
        {
          "internalType": "address",
          "name": "tokenAddr",
          "type": "address"
        },
        {
          "internalType": "string",
          "name": "newURI",
          "type": "string"
        }
      ],
      "name": "updateMetadataURI",
      "outputs": [],
      "stateMutability": "nonpayable",
      "type": "function"
    },
    {
      "inputs": [
        {
          "internalType": "address",
          "name": "to",
          "type": "address"
        }
      ],
      "name": "withdrawPlatformFees",
      "outputs": [],
      "stateMutability": "nonpayable",
      "type": "function"
    },
    {
      "stateMutability": "payable",
      "type": "receive"
    }
  ],
  "bytecode": "0x60a03461012257601f6116a838819003918201601f19168301916001600160401b038311848410176101275780849260209460405283398101031261012257516001600160a01b03808216808303610122573315610109576000543360018060a01b0319821617600055604051923391167f8be0079c531659141344cd1fd0a4f28419497f9722a3daafe3b4186f6b6457e0600080a360017f9b779b17422d0df92223018b32b4d1fa46e071723d6817e2486d003becc55f0055156100da575060805260405161156a908161013e823960805181610c730152f35b62461bcd60e51b815260206004820152600a6024820152692130b2103937baba32b960b11b6044820152606490fd5b604051631e4fbdf760e01b815260006004820152602490fd5b600080fd5b634e487b7160e01b600052604160045260246000fdfe60806040526004361015610056575b361561001957600080fd5b61002534600454611475565b6004556040513481527fabec8fa5eba11c7eac51663a2902a5a185098b166b62a23b16dc7a4e2c12de4b60203392a2005b6000803560e01c80630668c0d0146110d15780631e0db440146110b35780632a5c792a1461100b578063342f2df314610fed578063469e906714610f53578063617fba0414610e40578063634282af14610dfc57806369496d9614610d80578063715018a614610d3857806371af310114610ca2578063735de9f714610c5d5780638da5cb5b14610c3657806394aed7d01461063e57806396214735146105c0578063d5f3948814610597578063dbb80e4214610579578063ec3889b5146103fd578063f2fde38b14610387578063fabb2c17146101e35763ff6151c71461013e575061000e565b346101d05760403660031901126101d05780610158611164565b61016061117a565b610168611375565b6001600160a01b0391821683526002602052604083205482169161018d831515611498565b823b156101de5760248492836040519586948593633a43a3f360e11b85521660048401525af180156101d3576101c05750f35b6101c9906111ca565b6101d05780f35b80fd5b6040513d84823e3d90fd5b505050fd5b50346101d05760403660031901126101d0576101fd611164565b6001600160401b03906024358281116103835761021e903690600401611348565b919060018060a01b0380921693848652602092600284526040872090600282015416330361034f5760040190841161033b576102648461025e8354611190565b836113f1565b85601f85116001146102c557916102b491856000805160206114d583398151915296959489916102ba575b508560011b906000198760031b1c19161790555b6040519383859485528401916113b5565b0390a280f35b90508201353861028f565b81875283872090601f198616885b8181106103245750916102b49391876000805160206114d5833981519152989796941061030a575b5050600185811b0190556102a3565b830135600019600388901b60f8161c1916905538806102fb565b9192866001819286890135815501940192016102d3565b634e487b7160e01b86526041600452602486fd5b60405162461bcd60e51b815260048101859052600c60248201526b27b7363c9031b932b0ba37b960a11b6044820152606490fd5b8380fd5b50346101d05760203660031901126101d0576103a1611164565b6103a9611375565b6001600160a01b039081169081156103e4576000548260018060a01b0319821617600055166000805160206114f5833981519152600080a380f35b604051631e4fbdf760e01b815260048101849052602490fd5b50346101d05760208060031936011261057557610418611164565b90610421611375565b610429611445565b60045491821561053a576001600160a01b0316918215610505578360045561045381600554611475565b6005558380808084875af13d15610500573d61046e816113d6565b9061047c604051928361120e565b815285843d92013e5b156104c957907ffc7ad544ff6a06d6499925723d25b6fe70457a42939995b1d3d6f560fe33633391604051908152a260016000805160206115158339815191525580f35b60405162461bcd60e51b815260048101839052600f60248201526e115512081cd95b990819985a5b1959608a1b6044820152606490fd5b610485565b60405162461bcd60e51b815260048101839052600d60248201526c109859081c9958da5c1a595b9d609a1b6044820152606490fd5b60405162461bcd60e51b81526004810183905260136024820152724e6f7468696e6720746f20776974686472617760681b6044820152606490fd5b5080fd5b50346101d057806003193601126101d0576020600354604051908152f35b50346101d057806003193601126101d0576001546040516001600160a01b039091168152602090f35b50346101d05760203660031901126101d0576105da611164565b6105e2611375565b600154906001600160a01b039081831661060b576001600160a01b031990921691161760015580f35b60405162461bcd60e51b815260206004820152600b60248201526a105b1c9958591e481cd95d60aa1b6044820152606490fd5b5060603660031901126101d0576004356001600160401b0381116105755761066a903690600401611348565b91906024356001600160401b038111610c325761068b903690600401611348565b90939092906044356001600160401b038111610c32576106af903690600401611348565b956106b8611445565b6001546001600160a01b0316958615610bfa576040805163390274ed60e01b81526004810182905297889081888161070a6106f7604483018c8f6113b5565b828103600319016024840152888a6113b5565b03925af1958615610bef5785978697610ba2575b5060405161072b816111f3565b6001600160a01b038981168252881660208201523360408201524260608201526107548a6113d6565b90610762604051928361120e565b8a8252368b870111610a72578a86602084013760208b830181018990526080820192835260a0820189905260c082018990526001600160a01b038b81168a5260028083526040808c20855181549085166001600160a01b03199182161782559486015160018201805491861691871691909117905590850151918101805492909316919093161790556060820151600382015591518051906001600160401b038211610b8e57610822826108196004870154611190565b600487016113f1565b602090601f8311600114610b1c5791806006949260c0948d92610b11575b50508160011b916000199060031b1c19161760048501555b60a081015160058501550151910155600354600160401b811015610afd578060016108869201600355611317565b81546001600160a01b038b811660039390931b92831b921b19161790558534610959575b506108e79392604099926108cc6108da938c519860a08a5260a08a01916113b5565b9187830360208901526113b5565b91848303898601526113b5565b346060830152608082019290925233916001600160a01b0384811692908616917fee1be9e7a514e242eddd023cf4bd4446c71d28c7cf5c53c4085379ea89993033919081900390a460016000805160206115158339815191525582516001600160a01b03928316815291166020820152f35b604051636cb504a560e11b815260048101829052909650602081602481346001600160a01b038d165af1908115610af2578791610ac0575b506040516370a0823160e01b81523060048201529096906020816024816001600160a01b038e165afa9081156101d3578291610a89575b50806109f9575b506001600160a01b03891681526002602052604090203460058201556006018690556108e76108aa565b60405163a9059cbb60e01b815233600482015260248101829052919750906020816044818b6001600160a01b038f165af18015610a7e57610a3e575b509560406109cf565b6020813d602011610a76575b81610a576020938361120e565b81010312610a72575180151503610a6e5738610a35565b8680fd5b8780fd5b3d9150610a4a565b6040513d8a823e3d90fd5b90506020813d602011610ab8575b81610aa46020938361120e565b81010312610ab35751386109c8565b600080fd5b3d9150610a97565b90506020813d602011610aea575b81610adb6020938361120e565b81010312610ab3575138610991565b3d9150610ace565b6040513d89823e3d90fd5b634e487b7160e01b87526041600452602487fd5b015190503880610840565b90600485018b5260208b20918b5b601f1985168110610b765750926006949260019260c09583601f19811610610b5d575b505050811b016004850155610858565b015160001960f88460031b161c19169055388080610b4d565b91926020600181928685015181550194019201610b2a565b634e487b7160e01b8a52604160045260248afd5b975095506040873d604011610be7575b81610bbf6040938361120e565b81010312610be357610bdc6020610bd5896113a1565b98016113a1565b953861071e565b8480fd5b3d9150610bb2565b6040513d87823e3d90fd5b60405162461bcd60e51b815260206004820152601060248201526f11195c1b1bde595c881b9bdd081cd95d60821b6044820152606490fd5b8280fd5b50346101d057806003193601126101d057546040516001600160a01b039091168152602090f35b50346101d057806003193601126101d0576040517f00000000000000000000000000000000000000000000000000000000000000006001600160a01b03168152602090f35b50346101d05760603660031901126101d05780610cbd611164565b610cc561117a565b604435918215158093036101de57610cdb611375565b6001600160a01b039081168452600260205260408420548116610cff811515611498565b803b15610be3578492836044926040519687958694630a0daf8960e21b865216600485015260248401525af180156101d3576101c05750f35b50346101d057806003193601126101d057610d51611375565b600080546001600160a01b0319811682556001600160a01b03166000805160206114f58339815191528280a380f35b50346101d05760403660031901126101d05780610d9b611164565b610da3611375565b6001600160a01b0390811682526002602052604082205416610dc6811515611498565b803b15610df957818091602460405180948193639d0014b160e01b8352833560048401525af180156101d3576101c05750f35b50fd5b50346101d05760203660031901126101d057600435906003548210156101d0576020610e2783611317565b905460405160039290921b1c6001600160a01b03168152f35b50346101d057602080600319360112610575576040610e5d611164565b928060c08351610e6c816111f3565b82815282868201528285820152826060820152606060808201528260a0820152015260018060a01b038094168152600283522060405191610eac836111f3565b838254168352610f42846001840154168285019081528560028501541660408601908152866003860154916060880192835281610eeb60048901611231565b9460808a01958652600660058a01549960a08c019a8b5201549760c08b019889526040519b8c9b828d525116908b015251166040890152511660608701525160808601525160e060a08601526101008501906112d7565b915160c08401525160e08301520390f35b50346101d05760203660031901126101d0576001600160a01b039060409082610f7a611164565b16815260026020522081815416908260018201541692600282015416610fde6003830154610faa60048501611231565b906006600586015495015493604051978897885260208801526040870152606086015260e0608086015260e08501906112d7565b9160a084015260c08301520390f35b50346101d057806003193601126101d0576020600454604051908152f35b50346101d057806003193601126101d057604051809160035490818352602080930180926003835284832090835b818110611096575050508461104f91038561120e565b60405193838594850191818652518092526040850193925b82811061107657505050500390f35b83516001600160a01b031685528695509381019392810192600101611067565b82546001600160a01b031684529286019260019283019201611039565b50346101d057806003193601126101d0576020600554604051908152f35b50346101d05760403660031901126101d0576110eb611164565b816110f461117a565b916110fd611375565b6001600160a01b03908116825260026020526040822060010154811692611125841515611498565b833b15610c3257602490836040519586948593630a17128360e31b85521660048401525af180156101d357611158575080f35b611161906111ca565b80f35b600435906001600160a01b0382168203610ab357565b602435906001600160a01b0382168203610ab357565b90600182811c921680156111c0575b60208310146111aa57565b634e487b7160e01b600052602260045260246000fd5b91607f169161119f565b6001600160401b0381116111dd57604052565b634e487b7160e01b600052604160045260246000fd5b60e081019081106001600160401b038211176111dd57604052565b601f909101601f19168101906001600160401b038211908210176111dd57604052565b906040519182600082549261124584611190565b9081845260019485811690816000146112b45750600114611271575b505061126f9250038361120e565b565b9093915060005260209081600020936000915b81831061129c57505061126f93508201013880611261565b85548884018501529485019487945091830191611284565b91505061126f94506020925060ff191682840152151560051b8201013880611261565b919082519283825260005b848110611303575050826000602080949584010152601f8019910116010190565b6020818301810151848301820152016112e2565b60035481101561133257600360005260206000200190600090565b634e487b7160e01b600052603260045260246000fd5b9181601f84011215610ab3578235916001600160401b038311610ab35760208381860195010111610ab357565b6000546001600160a01b0316330361138957565b60405163118cdaa760e01b8152336004820152602490fd5b51906001600160a01b0382168203610ab357565b908060209392818452848401376000828201840152601f01601f1916010190565b6001600160401b0381116111dd57601f01601f191660200190565b90601f81116113ff57505050565b600091825260208220906020601f850160051c8301941061143b575b601f0160051c01915b82811061143057505050565b818155600101611424565b909250829061141b565b60008051602061151583398151915260028154146114635760029055565b604051633ee5aeb560e01b8152600490fd5b9190820180921161148257565b634e487b7160e01b600052601160045260246000fd5b1561149f57565b60405162461bcd60e51b815260206004820152600d60248201526c2ab735b737bbb7103a37b5b2b760991b6044820152606490fdfe2013570c343af8ab14a9778150e381a0fda34ed6368127a95fd5e7210cbec5bf8be0079c531659141344cd1fd0a4f28419497f9722a3daafe3b4186f6b6457e09b779b17422d0df92223018b32b4d1fa46e071723d6817e2486d003becc55f00a2646970667358221220db50be2cea295b652b0857bf9520494f3da99f68fa26430318f6fd0a64df9d5164736f6c63430008140033",
  "linkReferences": {},
  "deployedLinkReferences": {}
}