{
  "_format": "hh-sol-artifact-1",
  "contractName": "AethpadFactoryV2",
  "sourceName": "contracts/v2/AethpadFactoryV2.sol",
  "abi": [
    {
      "inputs": [
        {
          "internalType": "address",
          "name": "_uniswapRouter",
          "type": "address"
        }
      ],
      "stateMutability": "nonpayable",
      "type": "constructor"
    },
    {
      "inputs": [
        {
          "internalType": "address",
          "name": "owner",
          "type": "address"
        }
      ],
      "name": "OwnableInvalidOwner",
      "type": "error"
    },
    {
      "inputs": [
        {
          "internalType": "address",
          "name": "account",
          "type": "address"
        }
      ],
      "name": "OwnableUnauthorizedAccount",
      "type": "error"
    },
    {
      "inputs": [],
      "name": "ReentrancyGuardReentrantCall",
      "type": "error"
    },
    {
      "anonymous": false,
      "inputs": [
        {
          "indexed": true,
          "internalType": "address",
          "name": "token",
          "type": "address"
        },
        {
          "indexed": false,
          "internalType": "string",
          "name": "newURI",
          "type": "string"
        }
      ],
      "name": "MetadataUpdated",
      "type": "event"
    },
    {
      "anonymous": false,
      "inputs": [
        {
          "indexed": true,
          "internalType": "address",
          "name": "previousOwner",
          "type": "address"
        },
        {
          "indexed": true,
          "internalType": "address",
          "name": "newOwner",
          "type": "address"
        }
      ],
      "name": "OwnershipTransferred",
      "type": "event"
    },
    {
      "anonymous": false,
      "inputs": [
        {
          "indexed": true,
          "internalType": "address",
          "name": "fromToken",
          "type": "address"
        },
        {
          "indexed": false,
          "internalType": "uint256",
          "name": "amount",
          "type": "uint256"
        }
      ],
      "name": "PlatformFeeReceived",
      "type": "event"
    },
    {
      "anonymous": false,
      "inputs": [
        {
          "indexed": true,
          "internalType": "address",
          "name": "to",
          "type": "address"
        },
        {
          "indexed": false,
          "internalType": "uint256",
          "name": "amount",
          "type": "uint256"
        }
      ],
      "name": "PlatformFeesWithdrawn",
      "type": "event"
    },
    {
      "anonymous": false,
      "inputs": [
        {
          "indexed": true,
          "internalType": "address",
          "name": "token",
          "type": "address"
        },
        {
          "indexed": true,
          "internalType": "address",
          "name": "curve",
          "type": "address"
        },
        {
          "indexed": true,
          "internalType": "address",
          "name": "creator",
          "type": "address"
        },
        {
          "indexed": false,
          "internalType": "string",
          "name": "name",
          "type": "string"
        },
        {
          "indexed": false,
          "internalType": "string",
          "name": "symbol",
          "type": "string"
        },
        {
          "indexed": false,
          "internalType": "string",
          "name": "metadataURI",
          "type": "string"
        },
        {
          "indexed": false,
          "internalType": "uint256",
          "name": "devBuyEth",
          "type": "uint256"
        },
        {
          "indexed": false,
          "internalType": "uint256",
          "name": "devBuyTokens",
          "type": "uint256"
        }
      ],
      "name": "TokenDeployed",
      "type": "event"
    },
    {
      "inputs": [],
      "name": "accumulatedPlatformFees",
      "outputs": [
        {
          "internalType": "uint256",
          "name": "",
          "type": "uint256"
        }
      ],
      "stateMutability": "view",
      "type": "function"
    },
    {
      "inputs": [
        {
          "internalType": "uint256",
          "name": "",
          "type": "uint256"
        }
      ],
      "name": "allTokens",
      "outputs": [
        {
          "internalType": "address",
          "name": "",
          "type": "address"
        }
      ],
      "stateMutability": "view",
      "type": "function"
    },
    {
      "inputs": [],
      "name": "allTokensLength",
      "outputs": [
        {
          "internalType": "uint256",
          "name": "",
          "type": "uint256"
        }
      ],
      "stateMutability": "view",
      "type": "function"
    },
    {
      "inputs": [
        {
          "internalType": "string",
          "name": "name",
          "type": "string"
        },
        {
          "internalType": "string",
          "name": "symbol",
          "type": "string"
        },
        {
          "internalType": "string",
          "name": "metadataURI",
          "type": "string"
        }
      ],
      "name": "createToken",
      "outputs": [
        {
          "internalType": "address",
          "name": "tokenAddr",
          "type": "address"
        },
        {
          "internalType": "address",
          "name": "curveAddr",
          "type": "address"
        }
      ],
      "stateMutability": "payable",
      "type": "function"
    },
    {
      "inputs": [],
      "name": "deployer",
      "outputs": [
        {
          "internalType": "contract AethpadDeployer",
          "name": "",
          "type": "address"
        }
      ],
      "stateMutability": "view",
      "type": "function"
    },
    {
      "inputs": [
        {
          "internalType": "address",
          "name": "tokenAddr",
          "type": "address"
        }
      ],
      "name": "flushTokenPlatformEth",
      "outputs": [],
      "stateMutability": "nonpayable",
      "type": "function"
    },
    {
      "inputs": [
        {
          "internalType": "address",
          "name": "tokenAddr",
          "type": "address"
        },
        {
          "internalType": "address",
          "name": "to",
          "type": "address"
        }
      ],
      "name": "forceCloseCurve",
      "outputs": [],
      "stateMutability": "nonpayable",
      "type": "function"
    },
    {
      "inputs": [],
      "name": "getAllTokens",
      "outputs": [
        {
          "internalType": "address[]",
          "name": "",
          "type": "address[]"
        }
      ],
      "stateMutability": "view",
      "type": "function"
    },
    {
      "inputs": [
        {
          "internalType": "address",
          "name": "tokenAddr",
          "type": "address"
        }
      ],
      "name": "getRecord",
      "outputs": [
        {
          "components": [
            {
              "internalType": "address",
              "name": "token",
              "type": "address"
            },
            {
              "internalType": "address",
              "name": "curve",
              "type": "address"
            },
            {
              "internalType": "address",
              "name": "creator",
              "type": "address"
            },
            {
              "internalType": "uint256",
              "name": "deployedAt",
              "type": "uint256"
            },
            {
              "internalType": "string",
              "name": "metadataURI",
              "type": "string"
            },
            {
              "internalType": "uint256",
              "name": "initialDevBuyEth",
              "type": "uint256"
            },
            {
              "internalType": "uint256",
              "name": "initialDevBuyTokens",
              "type": "uint256"
            }
          ],
          "internalType": "struct AethpadFactoryV2.TokenRecord",
          "name": "",
          "type": "tuple"
        }
      ],
      "stateMutability": "view",
      "type": "function"
    },
    {
      "inputs": [],
      "name": "owner",
      "outputs": [
        {
          "internalType": "address",
          "name": "",
          "type": "address"
        }
      ],
      "stateMutability": "view",
      "type": "function"
    },
    {
      "inputs": [
        {
          "internalType": "address",
          "name": "",
          "type": "address"
        }
      ],
      "name": "records",
      "outputs": [
        {
          "internalType": "address",
          "name": "token",
          "type": "address"
        },
        {
          "internalType": "address",
          "name": "curve",
          "type": "address"
        },
        {
          "internalType": "address",
          "name": "creator",
          "type": "address"
        },
        {
          "internalType": "uint256",
          "name": "deployedAt",
          "type": "uint256"
        },
        {
          "internalType": "string",
          "name": "metadataURI",
          "type": "string"
        },
        {
          "internalType": "uint256",
          "name": "initialDevBuyEth",
          "type": "uint256"
        },
        {
          "internalType": "uint256",
          "name": "initialDevBuyTokens",
          "type": "uint256"
        }
      ],
      "stateMutability": "view",
      "type": "function"
    },
    {
      "inputs": [],
      "name": "renounceOwnership",
      "outputs": [],
      "stateMutability": "nonpayable",
      "type": "function"
    },
    {
      "inputs": [
        {
          "internalType": "address",
          "name": "_deployer",
          "type": "address"
        }
      ],
      "name": "setDeployer",
      "outputs": [],
      "stateMutability": "nonpayable",
      "type": "function"
    },
    {
      "inputs": [
        {
          "internalType": "address",
          "name": "tokenAddr",
          "type": "address"
        },
        {
          "internalType": "address",
          "name": "account",
          "type": "address"
        },
        {
          "internalType": "bool",
          "name": "excluded",
          "type": "bool"
        }
      ],
      "name": "setTokenExcluded",
      "outputs": [],
      "stateMutability": "nonpayable",
      "type": "function"
    },
    {
      "inputs": [
        {
          "internalType": "address",
          "name": "tokenAddr",
          "type": "address"
        },
        {
          "internalType": "address",
          "name": "newKeeper",
          "type": "address"
        }
      ],
      "name": "setTokenKeeper",
      "outputs": [],
      "stateMutability": "nonpayable",
      "type": "function"
    },
    {
      "inputs": [
        {
          "internalType": "address",
          "name": "tokenAddr",
          "type": "address"
        },
        {
          "internalType": "uint256",
          "name": "newThreshold",
          "type": "uint256"
        }
      ],
      "name": "setTokenSwapThreshold",
      "outputs": [],
      "stateMutability": "nonpayable",
      "type": "function"
    },
    {
      "inputs": [],
      "name": "totalPlatformFeesWithdrawn",
      "outputs": [
        {
          "internalType": "uint256",
          "name": "",
          "type": "uint256"
        }
      ],
      "stateMutability": "view",
      "type": "function"
    },
    {
      "inputs": [
        {
          "internalType": "address",
          "name": "newOwner",
          "type": "address"
        }
      ],
      "name": "transferOwnership",
      "outputs": [],
      "stateMutability": "nonpayable",
      "type": "function"
    },
    {
      "inputs": [],
      "name": "uniswapRouter",
      "outputs": [
        {
          "internalType": "address",
          "name": "",
          "type": "address"
        }
      ],
      "stateMutability": "view",
      "type": "function"
    },
    {
      "inputs": [
        {
          "internalType": "address",
          "name": "tokenAddr",
          "type": "address"
        },
        {
          "internalType": "string",
          "name": "newURI",
          "type": "string"
        }
      ],
      "name": "updateMetadataURI",
      "outputs": [],
      "stateMutability": "nonpayable",
      "type": "function"
    },
    {
      "inputs": [
        {
          "internalType": "address",
          "name": "to",
          "type": "address"
        }
      ],
      "name": "withdrawPlatformFees",
      "outputs": [],
      "stateMutability": "nonpayable",
      "type": "function"
    },
    {
      "stateMutability": "payable",
      "type": "receive"
    }
  ],
  "bytecode": "0x60a03461012557601f61176238819003918201601f19168301916001600160401b038311848410176101295780849260209460405283398101031261012557516001600160a01b038116808203610125573315610112575f8054336001600160a01b0319821681178355604051939290916001600160a01b0316907f8be0079c531659141344cd1fd0a4f28419497f9722a3daafe3b4186f6b6457e09080a360017f9b779b17422d0df92223018b32b4d1fa46e071723d6817e2486d003becc55f0055156100e35750608052604051611624908161013e823960805181610c800152f35b62461bcd60e51b815260206004820152600a6024820152692130b2103937baba32b960b11b6044820152606490fd5b631e4fbdf760e01b5f525f60045260245ffd5b5f80fd5b634e487b7160e01b5f52604160045260245ffdfe60806040526004361015610055575b3615610018575f80fd5b6100243460045461150f565b6004556040513481527fabec8fa5eba11c7eac51663a2902a5a185098b166b62a23b16dc7a4e2c12de4b60203392a2005b5f803560e01c80630668c0d0146111b55780631e0db440146111975780632a5c792a146110cf578063342f2df3146110b157806342086c791461103e578063469e906714610f94578063617fba0414610e5d578063634282af14610e1957806369496d9614610d9c578063715018a614610d5557806371af310114610caf578063735de9f714610c6a5780638da5cb5b14610c4357806394aed7d01461065b57806396214735146105d7578063d5f39488146105ae578063dbb80e4214610590578063ec3889b514610419578063f2fde38b146103a6578063fabb2c17146101f85763ff6151c714610147575061000e565b346101e65760403660031901126101e65780610161611262565b610169611278565b90610172611530565b6001600160a01b039081168352600260205260408320541690610196821515611435565b813b156101f457604051633a43a3f360e11b81526001600160a01b0390911660048201529082908290602490829084905af180156101e9576101d55750f35b816101df916112f5565b6101e65780f35b80fd5b6040513d84823e3d90fd5b5050fd5b50346101e65760403660031901126101e657610212611262565b906024356001600160401b0381116103a257610232903690600401611408565b9260018060a01b03169081835260026020526040832060018060a01b03600282015416330361036e57600401936001600160401b03811161035a576102818161027b875461128e565b876114c0565b8394601f82116001146102e9576102be828087985f8051602061158f8339815191529798916102de575b508160011b915f199060031b1c19161790565b90555b6102d8604051928392602084526020840191611485565b0390a280f35b90508501355f6102ab565b8085526020852095601f198316865b818110610342575090835f8051602061158f8339815191529697989210610329575b5050600182811b0190556102c1565b8401355f19600385901b60f8161c191690555f8061031a565b858301358955600190980197602092830192016102f8565b634e487b7160e01b84526041600452602484fd5b60405162461bcd60e51b815260206004820152600c60248201526b27b7363c9031b932b0ba37b960a11b6044820152606490fd5b5080fd5b50346101e65760203660031901126101e6576103c0611262565b6103c8611530565b6001600160a01b031680156104055781546001600160a01b03198116821783556001600160a01b03165f805160206115af8339815191528380a380f35b631e4fbdf760e01b82526004829052602482fd5b50346101e65760203660031901126101e657610433611262565b61043b611530565b610443611556565b600454908115610555576001600160a01b0316908115610520578260045561046d8160055461150f565b6005558280808084865af13d1561051b573d610488816114a5565b9061049660405192836112f5565b81528460203d92013e5b156104e45760207ffc7ad544ff6a06d6499925723d25b6fe70457a42939995b1d3d6f560fe33633391604051908152a260015f805160206115cf8339815191525580f35b60405162461bcd60e51b815260206004820152600f60248201526e115512081cd95b990819985a5b1959608a1b6044820152606490fd5b6104a0565b60405162461bcd60e51b815260206004820152600d60248201526c109859081c9958da5c1a595b9d609a1b6044820152606490fd5b60405162461bcd60e51b81526020600482015260136024820152724e6f7468696e6720746f20776974686472617760681b6044820152606490fd5b50346101e657806003193601126101e6576020600354604051908152f35b50346101e657806003193601126101e6576001546040516001600160a01b039091168152602090f35b50346101e65760203660031901126101e6576105f1611262565b6105f9611530565b600154906001600160a01b038216610628576001600160a01b03166001600160a01b0319919091161760015580f35b60405162461bcd60e51b815260206004820152600b60248201526a105b1c9958591e481cd95d60aa1b6044820152606490fd5b5060603660031901126101e6576004356001600160401b0381116103a257610687903690600401611408565b91906024356001600160401b038111610c3f576106a8903690600401611408565b92906044356001600160401b038111610c3f576106c9903690600401611408565b90916106d3611556565b6001546001600160a01b0316958615610c075760406107156107289888888c85519c8d958694859363390274ed60e01b85528960048601526044850191611485565b828103600319016024840152888a611485565b03925af1968715610bfc5785908698610bb0575b506040516001600160a01b0391821698909116969061075a816112c6565b88815260208101888152604082013381526060830142815261077b886114a5565b9161078960405193846112f5565b88835236898b0111610bac57908291898b8f969560200137828a0160209081018d90526080870193845260a087018d815260c088018e8152968e5260029182905260408e20975188546001600160a01b03199081166001600160a01b03928316178a55965160018a018054891691831691909117905592519188018054909616919092161790935551600385015551805160048501916001600160401b038211610b98576108418261083b855461128e565b856114c0565b6020908c601f8411600114610b315760069695949361087693909283610b26575b50508160011b915f199060031b1c19161790565b90555b51600584015551910155600354600160401b811015610b12578060016108a292016003556113dc565b81546001600160a01b0360039290921b91821b1916908a901b1790558534610955575b50869488946109197fee1be9e7a514e242eddd023cf4bd4446c71d28c7cf5c53c4085379ea899930339560409c9561090b610926968f519860a08a5260a08a0191611485565b918783036020890152611485565b918483038c860152611485565b9434606083015260808201528033950390a460015f805160206115cf8339815191525582519182526020820152f35b9550604051636cb504a560e11b8152866004820152602081602481348c5af1908115610b07578791610ad5575b50956040516370a0823160e01b81523060048201526020816024818d5afa9081156101e9578291610a9f575b5080610a21575b5088815260026020523460056040832001558881526002602052866006604083200155873b156101e65760405163d8c76c1760e01b81523360048201528181602481838d5af180156101e957610a0c575b506108c5565b610a178280926112f5565b6101e65780610a06565b60405163a9059cbb60e01b815233600482015260248101829052919750906020816044818b8e5af18015610a9457610a5c575b50955f6109b5565b6020813d602011610a8c575b81610a75602093836112f5565b81010312610a8857518015158114610a54575b8780fd5b3d9150610a68565b6040513d8a823e3d90fd5b90506020813d602011610acd575b81610aba602093836112f5565b81010312610ac957515f6109ae565b5f80fd5b3d9150610aad565b90506020813d602011610aff575b81610af0602093836112f5565b81010312610ac957515f610982565b3d9150610ae3565b6040513d89823e3d90fd5b634e487b7160e01b87526041600452602487fd5b015190505f80610862565b9190601f198416858452828420935b818110610b8057509160019391856006999897969410610b68575b505050811b019055610879565b01515f1960f88460031b161c191690555f8080610b5b565b92936020600181928786015181550195019301610b40565b634e487b7160e01b8c52604160045260248cfd5b8a80fd5b9750506040873d604011610bf4575b81610bcc604093836112f5565b81010312610bf057610be96020610be289611471565b9801611471565b965f61073c565b8480fd5b3d9150610bbf565b6040513d87823e3d90fd5b60405162461bcd60e51b815260206004820152601060248201526f11195c1b1bde595c881b9bdd081cd95d60821b6044820152606490fd5b8280fd5b50346101e657806003193601126101e657546040516001600160a01b039091168152602090f35b50346101e657806003193601126101e6576040517f00000000000000000000000000000000000000000000000000000000000000006001600160a01b03168152602090f35b50346101e65760603660031901126101e65780610cca611262565b610cd2611278565b60443591821515809303610d5057610ce8611530565b6001600160a01b039081168452600260205260408420541691610d0c831515611435565b823b15610d5057604051630a0daf8960e21b81526001600160a01b03909216600483015260248201529082908290604490829084905af180156101e9576101d55750f35b505050fd5b50346101e657806003193601126101e657610d6e611530565b80546001600160a01b03198116825581906001600160a01b03165f805160206115af8339815191528280a380f35b50346101e65760403660031901126101e657610db6611262565b610dbe611530565b6001600160a01b03908116825260026020526040822054829116610de3811515611435565b803b15610e1657818091602460405180948193639d0014b160e01b8352833560048401525af180156101e9576101d55750f35b50fd5b50346101e65760203660031901126101e657600435906003548210156101e6576020610e44836113dc565b905460405160039290921b1c6001600160a01b03168152f35b50346101e65760203660031901126101e657604090610e7a611262565b8160c08451610e88816112c6565b8281528260208201528286820152826060820152606060808201528260a0820152015260018060a01b03168152600260205220604051610ec7816112c6565b81546001600160a01b0390811682526001830154811660208301908152600284015490911660408301908152600384015460608401908152919391610f8390610f1260048501611318565b9060808601918252600660058601549560a0880196875201549360c087019485526040519788976020895260018060a01b03905116602089015260018060a01b03905116604088015260018060a01b0390511660608701525160808601525160e060a08601526101008501906113b8565b915160c08401525160e08301520390f35b50346101e65760203660031901126101e6576040906001600160a01b03610fb9611262565b16815260026020522060018060a01b0381541660018060a01b036001830154169160018060a01b0360028201541661102f6003830154610ffb60048501611318565b906006600586015495015493604051978897885260208801526040870152606086015260e0608086015260e08501906113b8565b9160a084015260c08301520390f35b50346101e65760203660031901126101e657611058611262565b611060611530565b6001600160a01b03908116825260026020526040822054829116611085811515611435565b803b15610e1657818091600460405180948193630427934960e01b83525af180156101e9576101d55750f35b50346101e657806003193601126101e6576020600454604051908152f35b50346101e657806003193601126101e65760405160038054808352908352602082019081907fc2575a0e9e593c00f959f8c92f12db2869c3395a3b0502d05e2516446f71f85b90855b818110611178575050508261112e9103836112f5565b604051928392602084019060208552518091526040840192915b818110611156575050500390f35b82516001600160a01b0316845285945060209384019390920191600101611148565b82546001600160a01b0316845260209093019260019283019201611118565b50346101e657806003193601126101e6576020600554604051908152f35b5034610ac9576040366003190112610ac9576111cf611262565b6111d7611278565b906111e0611530565b6001600160a01b039081165f908152600260205260409020600101541690611209821515611435565b813b15610ac957604051630a17128360e31b81526001600160a01b039091166004820152905f908290602490829084905af1801561125757611249575080f35b61125591505f906112f5565b005b6040513d5f823e3d90fd5b600435906001600160a01b0382168203610ac957565b602435906001600160a01b0382168203610ac957565b90600182811c921680156112bc575b60208310146112a857565b634e487b7160e01b5f52602260045260245ffd5b91607f169161129d565b60e081019081106001600160401b038211176112e157604052565b634e487b7160e01b5f52604160045260245ffd5b601f909101601f19168101906001600160401b038211908210176112e157604052565b9060405191825f82549261132b8461128e565b80845293600181169081156113965750600114611352575b50611350925003836112f5565b565b90505f9291925260205f20905f915b81831061137a575050906020611350928201015f611343565b6020919350806001915483858901015201910190918492611361565b90506020925061135094915060ff191682840152151560051b8201015f611343565b805180835260209291819084018484015e5f828201840152601f01601f1916010190565b6003548110156113f45760035f5260205f2001905f90565b634e487b7160e01b5f52603260045260245ffd5b9181601f84011215610ac9578235916001600160401b038311610ac95760208381860195010111610ac957565b1561143c57565b60405162461bcd60e51b815260206004820152600d60248201526c2ab735b737bbb7103a37b5b2b760991b6044820152606490fd5b51906001600160a01b0382168203610ac957565b908060209392818452848401375f828201840152601f01601f1916010190565b6001600160401b0381116112e157601f01601f191660200190565b601f82116114cd57505050565b5f5260205f20906020601f840160051c83019310611505575b601f0160051c01905b8181106114fa575050565b5f81556001016114ef565b90915081906114e6565b9190820180921161151c57565b634e487b7160e01b5f52601160045260245ffd5b5f546001600160a01b0316330361154357565b63118cdaa760e01b5f523360045260245ffd5b60025f805160206115cf833981519152541461157f5760025f805160206115cf83398151915255565b633ee5aeb560e01b5f5260045ffdfe2013570c343af8ab14a9778150e381a0fda34ed6368127a95fd5e7210cbec5bf8be0079c531659141344cd1fd0a4f28419497f9722a3daafe3b4186f6b6457e09b779b17422d0df92223018b32b4d1fa46e071723d6817e2486d003becc55f00a2646970667358221220f364178bc4b86bf6ad1ddf7ab5996e07acfc1b56d28032967a7711bb38941ef164736f6c634300081a0033",
  "linkReferences": {},
  "deployedLinkReferences": {}
}