{
  "_format": "hh-sol-artifact-1",
  "contractName": "AethpadTokenV2",
  "sourceName": "contracts/v2/AethpadTokenV2.sol",
  "abi": [
    {
      "inputs": [
        {
          "internalType": "string",
          "name": "_name",
          "type": "string"
        },
        {
          "internalType": "string",
          "name": "_symbol",
          "type": "string"
        },
        {
          "internalType": "address",
          "name": "_factory",
          "type": "address"
        },
        {
          "internalType": "address",
          "name": "_curve",
          "type": "address"
        }
      ],
      "stateMutability": "nonpayable",
      "type": "constructor"
    },
    {
      "inputs": [
        {
          "internalType": "address",
          "name": "spender",
          "type": "address"
        },
        {
          "internalType": "uint256",
          "name": "allowance",
          "type": "uint256"
        },
        {
          "internalType": "uint256",
          "name": "needed",
          "type": "uint256"
        }
      ],
      "name": "ERC20InsufficientAllowance",
      "type": "error"
    },
    {
      "inputs": [
        {
          "internalType": "address",
          "name": "sender",
          "type": "address"
        },
        {
          "internalType": "uint256",
          "name": "balance",
          "type": "uint256"
        },
        {
          "internalType": "uint256",
          "name": "needed",
          "type": "uint256"
        }
      ],
      "name": "ERC20InsufficientBalance",
      "type": "error"
    },
    {
      "inputs": [
        {
          "internalType": "address",
          "name": "approver",
          "type": "address"
        }
      ],
      "name": "ERC20InvalidApprover",
      "type": "error"
    },
    {
      "inputs": [
        {
          "internalType": "address",
          "name": "receiver",
          "type": "address"
        }
      ],
      "name": "ERC20InvalidReceiver",
      "type": "error"
    },
    {
      "inputs": [
        {
          "internalType": "address",
          "name": "sender",
          "type": "address"
        }
      ],
      "name": "ERC20InvalidSender",
      "type": "error"
    },
    {
      "inputs": [
        {
          "internalType": "address",
          "name": "spender",
          "type": "address"
        }
      ],
      "name": "ERC20InvalidSpender",
      "type": "error"
    },
    {
      "inputs": [],
      "name": "ReentrancyGuardReentrantCall",
      "type": "error"
    },
    {
      "anonymous": false,
      "inputs": [
        {
          "indexed": true,
          "internalType": "address",
          "name": "owner",
          "type": "address"
        },
        {
          "indexed": true,
          "internalType": "address",
          "name": "spender",
          "type": "address"
        },
        {
          "indexed": false,
          "internalType": "uint256",
          "name": "value",
          "type": "uint256"
        }
      ],
      "name": "Approval",
      "type": "event"
    },
    {
      "anonymous": false,
      "inputs": [
        {
          "indexed": true,
          "internalType": "address",
          "name": "pair",
          "type": "address"
        }
      ],
      "name": "Graduated",
      "type": "event"
    },
    {
      "anonymous": false,
      "inputs": [
        {
          "indexed": true,
          "internalType": "address",
          "name": "oldKeeper",
          "type": "address"
        },
        {
          "indexed": true,
          "internalType": "address",
          "name": "newKeeper",
          "type": "address"
        }
      ],
      "name": "KeeperUpdated",
      "type": "event"
    },
    {
      "anonymous": false,
      "inputs": [
        {
          "indexed": false,
          "internalType": "uint256",
          "name": "ethAmount",
          "type": "uint256"
        }
      ],
      "name": "PlatformFeeForwarded",
      "type": "event"
    },
    {
      "anonymous": false,
      "inputs": [
        {
          "indexed": true,
          "internalType": "address",
          "name": "user",
          "type": "address"
        },
        {
          "indexed": false,
          "internalType": "uint256",
          "name": "ethAmount",
          "type": "uint256"
        }
      ],
      "name": "RewardsClaimed",
      "type": "event"
    },
    {
      "anonymous": false,
      "inputs": [
        {
          "indexed": false,
          "internalType": "uint256",
          "name": "ethAmount",
          "type": "uint256"
        },
        {
          "indexed": false,
          "internalType": "uint256",
          "name": "newCumulative",
          "type": "uint256"
        }
      ],
      "name": "RewardsDeposited",
      "type": "event"
    },
    {
      "anonymous": false,
      "inputs": [
        {
          "indexed": false,
          "internalType": "uint256",
          "name": "holderCount",
          "type": "uint256"
        },
        {
          "indexed": false,
          "internalType": "uint256",
          "name": "totalEthSent",
          "type": "uint256"
        }
      ],
      "name": "RewardsPushed",
      "type": "event"
    },
    {
      "anonymous": false,
      "inputs": [
        {
          "indexed": true,
          "internalType": "address",
          "name": "user",
          "type": "address"
        },
        {
          "indexed": false,
          "internalType": "uint256",
          "name": "drop",
          "type": "uint256"
        },
        {
          "indexed": false,
          "internalType": "uint256",
          "name": "totalScore",
          "type": "uint256"
        }
      ],
      "name": "ScoreDesyncDetected",
      "type": "event"
    },
    {
      "anonymous": false,
      "inputs": [
        {
          "indexed": true,
          "internalType": "address",
          "name": "from",
          "type": "address"
        },
        {
          "indexed": true,
          "internalType": "address",
          "name": "to",
          "type": "address"
        },
        {
          "indexed": false,
          "internalType": "uint256",
          "name": "burnAmt",
          "type": "uint256"
        },
        {
          "indexed": false,
          "internalType": "uint256",
          "name": "rewardAmt",
          "type": "uint256"
        },
        {
          "indexed": false,
          "internalType": "uint256",
          "name": "platformAmt",
          "type": "uint256"
        }
      ],
      "name": "TaxTaken",
      "type": "event"
    },
    {
      "anonymous": false,
      "inputs": [
        {
          "indexed": true,
          "internalType": "address",
          "name": "from",
          "type": "address"
        },
        {
          "indexed": true,
          "internalType": "address",
          "name": "to",
          "type": "address"
        },
        {
          "indexed": false,
          "internalType": "uint256",
          "name": "value",
          "type": "uint256"
        }
      ],
      "name": "Transfer",
      "type": "event"
    },
    {
      "inputs": [],
      "name": "BURN_BPS",
      "outputs": [
        {
          "internalType": "uint256",
          "name": "",
          "type": "uint256"
        }
      ],
      "stateMutability": "view",
      "type": "function"
    },
    {
      "inputs": [],
      "name": "CURVE_SUPPLY",
      "outputs": [
        {
          "internalType": "uint256",
          "name": "",
          "type": "uint256"
        }
      ],
      "stateMutability": "view",
      "type": "function"
    },
    {
      "inputs": [],
      "name": "DEAD",
      "outputs": [
        {
          "internalType": "address",
          "name": "",
          "type": "address"
        }
      ],
      "stateMutability": "view",
      "type": "function"
    },
    {
      "inputs": [],
      "name": "GRAD_SUPPLY",
      "outputs": [
        {
          "internalType": "uint256",
          "name": "",
          "type": "uint256"
        }
      ],
      "stateMutability": "view",
      "type": "function"
    },
    {
      "inputs": [],
      "name": "MAX_PUSH_BATCH",
      "outputs": [
        {
          "internalType": "uint256",
          "name": "",
          "type": "uint256"
        }
      ],
      "stateMutability": "view",
      "type": "function"
    },
    {
      "inputs": [],
      "name": "PLATFORM_BPS",
      "outputs": [
        {
          "internalType": "uint256",
          "name": "",
          "type": "uint256"
        }
      ],
      "stateMutability": "view",
      "type": "function"
    },
    {
      "inputs": [],
      "name": "REWARD_BPS",
      "outputs": [
        {
          "internalType": "uint256",
          "name": "",
          "type": "uint256"
        }
      ],
      "stateMutability": "view",
      "type": "function"
    },
    {
      "inputs": [],
      "name": "SNIPE_BPS_1HR",
      "outputs": [
        {
          "internalType": "uint256",
          "name": "",
          "type": "uint256"
        }
      ],
      "stateMutability": "view",
      "type": "function"
    },
    {
      "inputs": [],
      "name": "SNIPE_BPS_24HR",
      "outputs": [
        {
          "internalType": "uint256",
          "name": "",
          "type": "uint256"
        }
      ],
      "stateMutability": "view",
      "type": "function"
    },
    {
      "inputs": [],
      "name": "SNIPE_BPS_5MIN",
      "outputs": [
        {
          "internalType": "uint256",
          "name": "",
          "type": "uint256"
        }
      ],
      "stateMutability": "view",
      "type": "function"
    },
    {
      "inputs": [],
      "name": "TOTAL_SUPPLY",
      "outputs": [
        {
          "internalType": "uint256",
          "name": "",
          "type": "uint256"
        }
      ],
      "stateMutability": "view",
      "type": "function"
    },
    {
      "inputs": [],
      "name": "TOTAL_TAX_BPS",
      "outputs": [
        {
          "internalType": "uint256",
          "name": "",
          "type": "uint256"
        }
      ],
      "stateMutability": "view",
      "type": "function"
    },
    {
      "inputs": [
        {
          "internalType": "address",
          "name": "owner",
          "type": "address"
        },
        {
          "internalType": "address",
          "name": "spender",
          "type": "address"
        }
      ],
      "name": "allowance",
      "outputs": [
        {
          "internalType": "uint256",
          "name": "",
          "type": "uint256"
        }
      ],
      "stateMutability": "view",
      "type": "function"
    },
    {
      "inputs": [
        {
          "internalType": "address",
          "name": "seller",
          "type": "address"
        }
      ],
      "name": "antiSnipeBpsFor",
      "outputs": [
        {
          "internalType": "uint256",
          "name": "",
          "type": "uint256"
        }
      ],
      "stateMutability": "view",
      "type": "function"
    },
    {
      "inputs": [
        {
          "internalType": "address",
          "name": "spender",
          "type": "address"
        },
        {
          "internalType": "uint256",
          "name": "value",
          "type": "uint256"
        }
      ],
      "name": "approve",
      "outputs": [
        {
          "internalType": "bool",
          "name": "",
          "type": "bool"
        }
      ],
      "stateMutability": "nonpayable",
      "type": "function"
    },
    {
      "inputs": [
        {
          "internalType": "address",
          "name": "account",
          "type": "address"
        }
      ],
      "name": "balanceOf",
      "outputs": [
        {
          "internalType": "uint256",
          "name": "",
          "type": "uint256"
        }
      ],
      "stateMutability": "view",
      "type": "function"
    },
    {
      "inputs": [
        {
          "internalType": "uint256",
          "name": "amount",
          "type": "uint256"
        }
      ],
      "name": "burnFromCurve",
      "outputs": [],
      "stateMutability": "nonpayable",
      "type": "function"
    },
    {
      "inputs": [
        {
          "internalType": "address",
          "name": "",
          "type": "address"
        }
      ],
      "name": "checkpoints",
      "outputs": [
        {
          "internalType": "uint128",
          "name": "balance",
          "type": "uint128"
        },
        {
          "internalType": "uint64",
          "name": "lastUpdate",
          "type": "uint64"
        },
        {
          "internalType": "uint64",
          "name": "lastBuyAt",
          "type": "uint64"
        },
        {
          "internalType": "uint256",
          "name": "accumulatedScore",
          "type": "uint256"
        },
        {
          "internalType": "uint256",
          "name": "ethPerScorePaid",
          "type": "uint256"
        },
        {
          "internalType": "uint256",
          "name": "pendingEth",
          "type": "uint256"
        }
      ],
      "stateMutability": "view",
      "type": "function"
    },
    {
      "inputs": [],
      "name": "claim",
      "outputs": [],
      "stateMutability": "nonpayable",
      "type": "function"
    },
    {
      "inputs": [],
      "name": "cumulativeEthPerScore",
      "outputs": [
        {
          "internalType": "uint256",
          "name": "",
          "type": "uint256"
        }
      ],
      "stateMutability": "view",
      "type": "function"
    },
    {
      "inputs": [],
      "name": "curve",
      "outputs": [
        {
          "internalType": "address",
          "name": "",
          "type": "address"
        }
      ],
      "stateMutability": "view",
      "type": "function"
    },
    {
      "inputs": [],
      "name": "decimals",
      "outputs": [
        {
          "internalType": "uint8",
          "name": "",
          "type": "uint8"
        }
      ],
      "stateMutability": "view",
      "type": "function"
    },
    {
      "inputs": [],
      "name": "depositEthPlatform",
      "outputs": [],
      "stateMutability": "payable",
      "type": "function"
    },
    {
      "inputs": [],
      "name": "depositEthReward",
      "outputs": [],
      "stateMutability": "payable",
      "type": "function"
    },
    {
      "inputs": [],
      "name": "factory",
      "outputs": [
        {
          "internalType": "address",
          "name": "",
          "type": "address"
        }
      ],
      "stateMutability": "view",
      "type": "function"
    },
    {
      "inputs": [],
      "name": "graduated",
      "outputs": [
        {
          "internalType": "bool",
          "name": "",
          "type": "bool"
        }
      ],
      "stateMutability": "view",
      "type": "function"
    },
    {
      "inputs": [
        {
          "internalType": "address",
          "name": "user",
          "type": "address"
        }
      ],
      "name": "holdScore",
      "outputs": [
        {
          "internalType": "uint256",
          "name": "",
          "type": "uint256"
        }
      ],
      "stateMutability": "view",
      "type": "function"
    },
    {
      "inputs": [
        {
          "internalType": "address",
          "name": "",
          "type": "address"
        }
      ],
      "name": "isExcluded",
      "outputs": [
        {
          "internalType": "bool",
          "name": "",
          "type": "bool"
        }
      ],
      "stateMutability": "view",
      "type": "function"
    },
    {
      "inputs": [],
      "name": "keeper",
      "outputs": [
        {
          "internalType": "address",
          "name": "",
          "type": "address"
        }
      ],
      "stateMutability": "view",
      "type": "function"
    },
    {
      "inputs": [],
      "name": "lastRewardTimestamp",
      "outputs": [
        {
          "internalType": "uint256",
          "name": "",
          "type": "uint256"
        }
      ],
      "stateMutability": "view",
      "type": "function"
    },
    {
      "inputs": [],
      "name": "name",
      "outputs": [
        {
          "internalType": "string",
          "name": "",
          "type": "string"
        }
      ],
      "stateMutability": "view",
      "type": "function"
    },
    {
      "inputs": [
        {
          "internalType": "address",
          "name": "_pair",
          "type": "address"
        },
        {
          "internalType": "address",
          "name": "_router",
          "type": "address"
        }
      ],
      "name": "notifyGraduated",
      "outputs": [],
      "stateMutability": "nonpayable",
      "type": "function"
    },
    {
      "inputs": [],
      "name": "orphanedRewardEth",
      "outputs": [
        {
          "internalType": "uint256",
          "name": "",
          "type": "uint256"
        }
      ],
      "stateMutability": "view",
      "type": "function"
    },
    {
      "inputs": [],
      "name": "pendingPlatformEth",
      "outputs": [
        {
          "internalType": "uint256",
          "name": "",
          "type": "uint256"
        }
      ],
      "stateMutability": "view",
      "type": "function"
    },
    {
      "inputs": [
        {
          "internalType": "address",
          "name": "user",
          "type": "address"
        }
      ],
      "name": "pendingRewards",
      "outputs": [
        {
          "internalType": "uint256",
          "name": "",
          "type": "uint256"
        }
      ],
      "stateMutability": "view",
      "type": "function"
    },
    {
      "inputs": [
        {
          "internalType": "address[]",
          "name": "holders",
          "type": "address[]"
        }
      ],
      "name": "pushRewards",
      "outputs": [],
      "stateMutability": "nonpayable",
      "type": "function"
    },
    {
      "inputs": [
        {
          "internalType": "address",
          "name": "account",
          "type": "address"
        },
        {
          "internalType": "bool",
          "name": "excluded",
          "type": "bool"
        }
      ],
      "name": "setExcluded",
      "outputs": [],
      "stateMutability": "nonpayable",
      "type": "function"
    },
    {
      "inputs": [
        {
          "internalType": "address",
          "name": "newKeeper",
          "type": "address"
        }
      ],
      "name": "setKeeper",
      "outputs": [],
      "stateMutability": "nonpayable",
      "type": "function"
    },
    {
      "inputs": [
        {
          "internalType": "uint256",
          "name": "newThreshold",
          "type": "uint256"
        }
      ],
      "name": "setSwapThreshold",
      "outputs": [],
      "stateMutability": "nonpayable",
      "type": "function"
    },
    {
      "inputs": [],
      "name": "swapThreshold",
      "outputs": [
        {
          "internalType": "uint256",
          "name": "",
          "type": "uint256"
        }
      ],
      "stateMutability": "view",
      "type": "function"
    },
    {
      "inputs": [],
      "name": "symbol",
      "outputs": [
        {
          "internalType": "string",
          "name": "",
          "type": "string"
        }
      ],
      "stateMutability": "view",
      "type": "function"
    },
    {
      "inputs": [],
      "name": "totalAccumulatedScore",
      "outputs": [
        {
          "internalType": "uint256",
          "name": "",
          "type": "uint256"
        }
      ],
      "stateMutability": "view",
      "type": "function"
    },
    {
      "inputs": [],
      "name": "totalHoldScoreLive",
      "outputs": [
        {
          "internalType": "uint256",
          "name": "",
          "type": "uint256"
        }
      ],
      "stateMutability": "view",
      "type": "function"
    },
    {
      "inputs": [],
      "name": "totalLastUpdate",
      "outputs": [
        {
          "internalType": "uint256",
          "name": "",
          "type": "uint256"
        }
      ],
      "stateMutability": "view",
      "type": "function"
    },
    {
      "inputs": [],
      "name": "totalSettledBalance",
      "outputs": [
        {
          "internalType": "uint256",
          "name": "",
          "type": "uint256"
        }
      ],
      "stateMutability": "view",
      "type": "function"
    },
    {
      "inputs": [],
      "name": "totalSupply",
      "outputs": [
        {
          "internalType": "uint256",
          "name": "",
          "type": "uint256"
        }
      ],
      "stateMutability": "view",
      "type": "function"
    },
    {
      "inputs": [
        {
          "internalType": "address",
          "name": "to",
          "type": "address"
        },
        {
          "internalType": "uint256",
          "name": "value",
          "type": "uint256"
        }
      ],
      "name": "transfer",
      "outputs": [
        {
          "internalType": "bool",
          "name": "",
          "type": "bool"
        }
      ],
      "stateMutability": "nonpayable",
      "type": "function"
    },
    {
      "inputs": [
        {
          "internalType": "address",
          "name": "from",
          "type": "address"
        },
        {
          "internalType": "address",
          "name": "to",
          "type": "address"
        },
        {
          "internalType": "uint256",
          "name": "value",
          "type": "uint256"
        }
      ],
      "name": "transferFrom",
      "outputs": [
        {
          "internalType": "bool",
          "name": "",
          "type": "bool"
        }
      ],
      "stateMutability": "nonpayable",
      "type": "function"
    },
    {
      "inputs": [],
      "name": "uniswapPair",
      "outputs": [
        {
          "internalType": "address",
          "name": "",
          "type": "address"
        }
      ],
      "stateMutability": "view",
      "type": "function"
    },
    {
      "inputs": [],
      "name": "uniswapRouter",
      "outputs": [
        {
          "internalType": "contract IUniswapV2Router02",
          "name": "",
          "type": "address"
        }
      ],
      "stateMutability": "view",
      "type": "function"
    },
    {
      "inputs": [],
      "name": "withdrawPendingPlatform",
      "outputs": [],
      "stateMutability": "nonpayable",
      "type": "function"
    },
    {
      "stateMutability": "payable",
      "type": "receive"
    }
  ],
  "bytecode": "0x60c08060405234610719576138ce803803809161001c828561071d565b83398101906080818303126107195780516001600160401b038111610719578261004791830161075b565b602082015190926001600160401b0382116107195761006791830161075b565b906100806060610079604084016107a1565b92016107a1565b83516001600160401b03811161062a57600354600181811c9116801561070f575b602082101461060c57601f81116106ac575b50602094601f8211600114610649579481929394955f9261063e575b50508160011b915f199060031b1c1916176003555b82516001600160401b03811161062a57600454600181811c91168015610620575b602082101461060c57601f81116105a9575b506020601f821160011461054657819293945f9261053b575b50508160011b915f199060031b1c1916176004555b60017f9b779b17422d0df92223018b32b4d1fa46e071723d6817e2486d003becc55f0081905569152d02c7e14af6800000600755608083905260a08290526001600160a01b038083165f818152600f6020526040808220805460ff19908116871790915593909616815285812080548416851790557f99629f56119585bf27511b6b7d295dffb54757453fcc3dabcf51d92028301f10805484168517905530815294852080548316841790559380525f8051602061384e8339815191528054909116909117905542600b558115610528576b033b2e3c9fd0803ce800000061022b61084c565b6102348261098a565b60055460ff81168061051b575b806104fa575b806104e3575b61035f575b5061026f92506102629082610a26565b61026a610a80565b610c39565b60055460ff81169081610351575b8161033b575b5080610324575b80610310575b610303575b60405161257390816112bb82396080518181816107a60152818161096601528181610b42015281816110750152818161134c015281816116c001526122d8015260a05181818161064b0152818161083b015281816108f801528181610bf401528181610c8a0152611fd00152f35b61030b610d7b565b610295565b506006546001600160a01b03161515610290565b50305f525f60205260405f2054600754111561028a565b60081c6001600160a01b0316151590505f610283565b60085460ff1615915061027d565b60081c6001600160a01b031680159084148180156104dc575b610383575b50610252565b5f906104ce575b6101f401806101f4116104aa5780830290838204036104aa5761271090046002546a0c685fa11e01ec6f00000081018091116104aa5760025561dead5f525f60205260405f206a0c685fa11e01ec6f000000815401905561dead5f5f8051602061388e83398151915260206040516a0c685fa11e01ec6f0000008152a36a0c685fa11e01ec6effffff1981018181116104aa57806104be575b5082039182116104aa5761026f936102629291610484575b5f7fe9bc91a33ddf896d889747b2f39f4192c802fd62364780086853fcd8e19e8ffa60606040516a0c685fa11e01ec6f0000008152836020820152836040820152a3905f61037d565b5f8181526009602052604090206104a590426001600160401b031690610800565b61043b565b634e487b7160e01b5f52601160045260245ffd5b6104c89030610a26565b5f610423565b506104d76109c4565b61038a565b5080610378565b50835f52600f60205260ff60405f2054161561024d565b505f8052600f6020525f8051602061384e8339815191525460ff1615610247565b5060ff6008541615610241565b63ec442f0560e01b5f525f60045260245ffd5b015190505f80610130565b601f1982169060045f52805f20915f5b81811061059157509583600195969710610579575b505050811b01600455610145565b01515f1960f88460031b161c191690555f808061056b565b9192602060018192868b015181550194019201610556565b60045f527f8a35acfbc15ff81a39ae7d344fd709f28e8600b4aa8c65c6b64bfe7fe36bd19b601f830160051c81019160208410610602575b601f0160051c01905b8181106105f75750610117565b5f81556001016105ea565b90915081906105e1565b634e487b7160e01b5f52602260045260245ffd5b90607f1690610105565b634e487b7160e01b5f52604160045260245ffd5b015190505f806100cf565b601f1982169560035f52805f20915f5b8881106106945750836001959697981061067c575b505050811b016003556100e4565b01515f1960f88460031b161c191690555f808061066e565b91926020600181928685015181550194019201610659565b60035f527fc2575a0e9e593c00f959f8c92f12db2869c3395a3b0502d05e2516446f71f85b601f830160051c81019160208410610705575b601f0160051c01905b8181106106fa57506100b3565b5f81556001016106ed565b90915081906106e4565b90607f16906100a1565b5f80fd5b601f909101601f19168101906001600160401b0382119082101761062a57604052565b6001600160401b03811161062a57601f01601f191660200190565b81601f820112156107195780519061077282610740565b92610780604051948561071d565b8284526020838301011161071957815f9260208093018386015e8301015290565b51906001600160a01b038216820361071957565b919082018092116104aa57565b818102929181159184041417156104aa57565b81156107df570490565b634e487b7160e01b5f52601260045260245ffd5b919082039182116104aa57565b80546001600160c01b031660c09290921b6001600160c01b031916919091179055565b8054600160801b600160c01b03191660809290921b600160801b600160c01b0316919091179055565b6108555f611146565b156108fa575f80526009602052600d547fec8156718a8372b1db44bb411437d0870f3e3790d4a08526d024ce1b0b668f6d80546108fa925f8051602061382e83398151915292916108a5916107f3565b806108fc575b505080546108d9906108ca608082901c6001600160401b0316426107f3565b906001600160801b03166107c2565b6108e8600183019182546107b5565b9055426001600160401b031690610823565b565b600e5483546109439161093d9061092990608084901c6001600160401b03169081811115610983576107f3565b6001870154926001600160801b03166107c2565b906107b5565b80610957575b5050600d5490555f806108ab565b670de0b6b3a76400009161096a916107c2565b0461097a600384019182546107b5565b90555f80610949565b50806107f3565b61099381611146565b156109c15760018060a01b03165f5260096020526108fa60405f20600d546108a560028301918254906107f3565b50565b5f805260096020525f8051602061382e8339815191525460c01c8015610a21576109ee90426107f3565b61012c8110610a1a57610e108110610a13576201518011610a0d575f90565b6101f490565b506103e890565b506107d090565b505f90565b5f8051602061388e83398151915260205f92610a44856002546107b5565b6002556001600160a01b03169384158414610a6b5780600254036002555b604051908152a3565b84845283825260408420818154019055610a62565b610a895f611146565b156108fa575f805260096020525f8051602061382e833981519152610aac61119b565b5f8080526020527fad3228b676f7d3cd4284a5443f17f1962b36e491b30a40b2405849e597ba5fb55481546001600160801b031680821091908280610c30575b610bc4575b8181811193845f14610b895750610b1391610b0b916107f3565b600c546107b5565b600c555b82546001600160801b0319166001600160801b0391909116178255426001600160401b031690610b478284610823565b60ff60055416159081610b81575b5080610b6d575b610b64575050565b6108fa91610800565b5060a0516001600160a01b03163314610b5c565b90505f610b55565b610b95575b5050610b17565b610b9e916107f3565b600c5490808210610bbc57610bb2916107f3565b600c555f81610b8e565b50505f610bb2565b60018401805490610be8610be184610bdc87866107c2565b6107d5565b80936107f3565b600a54818110610c095750610bff90600a546107f3565b600a555b55610af1565b60405f925f805160206138ae8339815191529282519182526020820152a25f600a55610c03565b50801515610aec565b610c4281611146565b156109c1576001600160a01b03165f81815260096020526040902090610c6661119b565b5f8181526020819052604090205482546001600160801b0316808210928380610d12575b610caa575b508181811193845f14610b895750610b1391610b0b916107f3565b60018501805491610cc9610cc285610bdc88876107c2565b80946107f3565b600a54818110610cec5750610ce19150600a546107f3565b600a555b555f610c8f565b5f805160206138ae8339815191529160409182519182526020820152a25f600a55610ce5565b50811515610c8a565b805160011015610d2b5760400190565b634e487b7160e01b5f52603260045260245ffd5b90602080835192838152019201905f5b818110610d5c5750505090565b82516001600160a01b0316845260209384019390920191600101610d4f565b5f60ff196008541660018117600855305f525f60205260405f205490811561113f575060405190610dad60608361071d565b60028252602082016040368237825115610d2b573090526006546040516315ab88c960e31b81526001600160a01b0390911690602081600481855afa908115611134575f916110fa575b50610e0184610d1b565b6001600160a01b03909116905230156110e75780156110d457305f52600160205260405f20815f526020528160405f20556040518281527f8c5be1e5ebec7d5bd14f71427d1e84f3dd0314c0f7b2291e5b200ac8c7c3b92560203092a35f9060018060a01b03600654169260405163d06ca61f60e01b8152826004820152604060248201525f8180610e966044820186610d3f565b0381885afa5f9181611037575b5061100d575b504793803b1561071957610ee9935f80946040519687958694859363791ac94760e01b85526004850152602484015260a0604484015260a4830190610d3f565b30606483015242608483015203925af19081610ff8575b50610f14575b505060ff1960085416600855565b610f1e90476107f3565b80158015610f2d575b50610f06565b60038202908282046003141715610fe45790610f516007610f5f94930480926107f3565b9181610f67575b50506111e7565b5f8080610f27565b808080808560018060a01b03608051165af1903d15610fde573d90610f8b82610740565b91610f99604051938461071d565b825260203d92013e5b610fad575b80610f58565b60207f693f9dbea0bdf9b70d480f9527e567d17ae3a41a5627c6515b034ac1869cf7a091604051908152a15f610fa7565b50610fa2565b634e487b7160e01b83526011600452602483fd5b6110059193505f9061071d565b5f915f610f00565b611018919350610d1b565b51605a810290808204605a14901517156104aa5760649004915f610ea9565b9091503d805f833e611049818361071d565b810190602081830312610719578051906001600160401b03821161071957019080601f83011215610719578151916001600160401b03831161062a578260051b90602082019361109c604051958661071d565b845260208085019282010192831161071957602001905b8282106110c457505050905f610ea3565b81518152602091820191016110b3565b634a1406b160e11b5f525f60045260245ffd5b63e602df0560e01b5f525f60045260245ffd5b90506020813d60201161112c575b816111156020938361071d565b8101031261071957611126906107a1565b5f610df7565b3d9150611108565b6040513d5f823e3d90fd5b6008555050565b6001600160a01b03168015610a2157805f52600f60205260ff60405f205416610a215760055460081c6001600160a01b03168015159182611191575b505061118d57600190565b5f90565b1490505f80611182565b6111a7600b54426107f3565b801515806111dc575b6111bc575b5042600b55565b6111cb6111d391600c546107c2565b600a546107b5565b600a555f6111b5565b50600c5415156111b0565b80156109c1576111f561119b565b600a54801561129c5761120b60105480936107b5565b91611293575b670de0b6b3a7640000820291808304670de0b6b3a764000014811517156104aa5761124c6040925f8051602061386e833981519152946107d5565b80156112735761125e90600d546107b5565b80600d5542600e5582519182526020820152a1565b50611280816010546107b5565b601055600d5482519182526020820152a1565b5f601055611211565b506040816112805f8051602061386e833981519152936010546107b556fe608080604052600436101561001c575b50361561001a575f80fd5b005b5f3560e01c90816303fd2a45146113f157508063042793491461133a5780630445b6671461131d57806306fdde031461126257806307c9bf2e1461122c578063095ea7b31461120657806313b9d47e146111e957806318160ddd146111cc5780631a0108ec1461058b5780631e4c7292146111a657806323b872dd146110c75780632836be2414611048578063313ce5671461102d57806331d7a2621461100a57806347b12bfc14610fef5780634e71d92d14610f365780635b09004414610c7757806364229d6814610c5a57806370a0823114610c235780637165485d14610bdf578063735de9f714610bb7578063748747e614610b23578063902d55a514610afd57806395d89b41146109f957806398aecb67146109d45780639d0014b11461094c5780639d6eadc11461092f578063a37a9fc01461058b578063a47541ba146108e7578063a8355c8f146108ca578063a9059cbb14610899578063aced166114610871578063b78d05381461082a578063bacf2a7b1461080e578063bb103cbc146107f2578063c1db4015146107d5578063c45a015514610791578063c463ecd714610775578063c5f27b3014610758578063c5f509d614610735578063c7b1280114610624578063c816841b146105f8578063ca81eb66146105cd578063cba0e99614610590578063ce91e1641461058b578063d9019ae91461056e578063dbb51d6e146104f3578063dd62ed3e146104a3578063e7c2b77214610481578063f6ceefa21461027a5763f8077fae14610259575f61000f565b34610276575f366003190112610276576020600e54604051908152f35b5f80fd5b34610276576020366003190112610276576004356001600160401b03811161027657366023820112156102765760048101356001600160401b038111610276573660248260051b84010111610276576102d1611a2a565b6011546001600160a01b0316330361044e5760968111610417575f918290815b838310156103d4576024600584901b830101356001600160a01b038116939084810361027657610320816119d5565b156103c85761032e90611a8b565b835f526009602052600360405f20019586549687156103bb575f81555f8080808b8a5af161035a6114fb565b50156103ae57508661036b9161147c565b935f19831461039a575f8051602061249e8339815191526020600180950198604051908152a25b0191936102f1565b634e487b7160e01b5f52601160045260245ffd5b6001939791955055610392565b5093506001919550610392565b50600191959350610392565b60407f0f80654923fb0c7f7a44c79b000dca8e52e2f4a16092a26ff31c0a410291d331918682519182526020820152a160015f8051602061251e83398151915255005b60405162461bcd60e51b815260206004820152600f60248201526e426174636820746f6f206c6172676560881b6044820152606490fd5b60405162461bcd60e51b815260206004820152600b60248201526a27b7363c9035b2b2b832b960a91b6044820152606490fd5b34610276575f36600319011261027657602060ff600554166040519015158152f35b34610276576040366003190112610276576104bc611435565b6104c461144b565b6001600160a01b039182165f908152600160209081526040808320949093168252928352819020549051908152f35b34610276576020366003190112610276576001600160a01b03610514611435565b165f52600960205260c060405f2080549060018101549060036002820154910154916040519360018060801b038116855260018060401b038160801c166020860152851c60408501526060840152608083015260a0820152f35b34610276575f366003190112610276576020601254604051908152f35b611461565b34610276576020366003190112610276576001600160a01b036105b1611435565b165f52600f602052602060ff60405f2054166040519015158152f35b346102765760203660031901126102765760206105f06105eb611435565b611c6e565b604051908152f35b34610276575f3660031901126102765760055460405160089190911c6001600160a01b03168152602090f35b346102765760403660031901126102765761063d611435565b61064561144b565b610679337f00000000000000000000000000000000000000000000000000000000000000006001600160a01b03161461167a565b60055460ff81166106fc576001600160a81b031916600883901b610100600160a81b031617600117600555600680546001600160a01b0319166001600160a01b03928316179055165f818152600f60205260408120805460ff191690557fc5ca2014458d93c5cf9f836ff7ece45de01c929dfb16eed9d6c3329fa1fd09829080a2005b60405162461bcd60e51b8152602060048201526011602482015270105b1c9958591e4819dc98591d585d1959607a1b6044820152606490fd5b346102765760203660031901126102765760206105f0610753611435565b611724565b34610276575f366003190112610276576020600d54604051908152f35b34610276575f3660031901126102765760206040516103e88152f35b34610276575f366003190112610276576040517f00000000000000000000000000000000000000000000000000000000000000006001600160a01b03168152602090f35b34610276575f366003190112610276576020600a54604051908152f35b34610276575f3660031901126102765760206040516107d08152f35b34610276575f3660031901126102765760206040516101f48152f35b5f36600319011261027657610869337f00000000000000000000000000000000000000000000000000000000000000006001600160a01b03161461167a565b61001a6116b3565b34610276575f366003190112610276576011546040516001600160a01b039091168152602090f35b34610276576040366003190112610276576108bf6108b5611435565b602435903361177d565b602060405160018152f35b34610276575f3660031901126102765760206101f4604051908152f35b5f36600319011261027657610926337f00000000000000000000000000000000000000000000000000000000000000006001600160a01b03161461167a565b61001a34611b9b565b34610276575f366003190112610276576020600b54604051908152f35b3461027657602036600319011261027657600435610994337f00000000000000000000000000000000000000000000000000000000000000006001600160a01b031614611489565b801561099f57600755005b60405162461bcd60e51b815260206004820152600d60248201526c109859081d1a1c995cda1bdb19609a1b6044820152606490fd5b34610276575f3660031901126102765760206040516aa56fa5b99019a5c80000008152f35b34610276575f366003190112610276576040515f6004548060011c90600181168015610af3575b602083108114610adf57828552908115610abb5750600114610a5d575b610a5983610a4d818503826114c4565b6040519182918261140b565b0390f35b60045f9081527f8a35acfbc15ff81a39ae7d344fd709f28e8600b4aa8c65c6b64bfe7fe36bd19b939250905b808210610aa157509091508101602001610a4d610a3d565b919260018160209254838588010152019101909291610a89565b60ff191660208086019190915291151560051b84019091019150610a4d9050610a3d565b634e487b7160e01b5f52602260045260245ffd5b91607f1691610a20565b34610276575f36600319011261027657604051676765c793fa10079d601b1b8152602090f35b3461027657602036600319011261027657610b3c611435565b610b70337f00000000000000000000000000000000000000000000000000000000000000006001600160a01b031614611489565b6011546001600160a01b0391821691829082167f53d3703fe259def57584466f32d1b94c30278008c683c21b04501c4966f13a695f80a36001600160a01b03191617601155005b34610276575f366003190112610276576006546040516001600160a01b039091168152602090f35b34610276575f366003190112610276576040517f00000000000000000000000000000000000000000000000000000000000000006001600160a01b03168152602090f35b34610276576020366003190112610276576001600160a01b03610c44611435565b165f525f602052602060405f2054604051908152f35b34610276575f366003190112610276576020600c54604051908152f35b34610276576020366003190112610276577f00000000000000000000000000000000000000000000000000000000000000006001600160a01b0381169060043590610cc333841461167a565b8115918215610cce57005b8315610f23578092610cdf83611a8b565b610cea61dead611a8b565b60055460ff811680610f16575b80610eff575b80610ec9575b610dac575b505050610d1b610d209261dead83611e41565b611ef9565b610d2b61dead611ef9565b6005549060ff82169182610d9e575b82610d87575b505080610d70575b80610d5c575b610d5457005b61001a61212a565b506006546001600160a01b03161515610d4e565b50305f525f60205260405f20546007541115610d48565b60081c6001600160a01b0316141590508180610d40565b60085460ff16159250610d3a565b60081c6001600160a01b03168581149061dead14818015610ec2575b610dd3575b50610d08565b90919294505f90610eb3575b6101f490810180911161039a57610df96127109186611584565b046096850292858404609614171561039a57855f805160206124fe8339815191526060610d2097610e4c61dead95612710610d1b99049283610ea4575b610e408483611577565b80610e93575b50611577565b95610e6d575b6040519081525f60208201525f6040820152a3928580610dcd565b5f858152600960205260409020610e8e90426001600160401b031690611d2e565b610e52565b610e9e90308d611e41565b8d610e46565b610eae848c611d9d565b610e36565b50610ebd83611c6e565b610ddf565b5080610dc8565b5061dead5f52600f6020527f99629f56119585bf27511b6b7d295dffb54757453fcc3dabcf51d92028301f105460ff1615610d03565b50855f52600f60205260ff60405f20541615610cfd565b5060ff6008541615610cf7565b634b637e8f60e11b5f525f60045260245ffd5b34610276575f36600319011261027657610f4e611a2a565b610f5733611a8b565b335f526009602052600360405f20018054908115610fb7575f9055610f8b5f80808085335af1610f856114fb565b50611539565b6040519081525f8051602061249e83398151915260203392a260015f8051602061251e83398151915255005b60405162461bcd60e51b815260206004820152601060248201526f4e6f7468696e6720746f20636c61696d60801b6044820152606490fd5b34610276575f36600319011261027657602060405160c88152f35b346102765760203660031901126102765760206105f0611028611435565b6115b5565b34610276575f36600319011261027657602060405160128152f35b3461027657604036600319011261027657611061611435565b60243590811515809203610276576110a3337f00000000000000000000000000000000000000000000000000000000000000006001600160a01b031614611489565b60018060a01b03165f52600f60205260405f209060ff801983541691161790555f80f35b34610276576060366003190112610276576110e0611435565b6110e861144b565b6001600160a01b0382165f818152600160209081526040808320338452909152902054909260443592915f198110611126575b506108bf935061177d565b83811061118b578415611178573315611165576108bf945f52600160205260405f2060018060a01b0333165f526020528360405f20910390558461111b565b634a1406b160e11b5f525f60045260245ffd5b63e602df0560e01b5f525f60045260245ffd5b8390637dc7a0d960e11b5f523360045260245260445260645ffd5b34610276575f366003190112610276576040516714adf4b7320334b9601d1b8152602090f35b34610276575f366003190112610276576020600254604051908152f35b34610276575f366003190112610276576020601054604051908152f35b34610276576040366003190112610276576108bf611222611435565b6024359033611ccb565b34610276575f3660031901126102765760206105f061124d600b5442611577565b61125c600a5491600c54611584565b9061147c565b34610276575f366003190112610276576040515f6003548060011c90600181168015611313575b602083108114610adf57828552908115610abb57506001146112b557610a5983610a4d818503826114c4565b60035f9081527fc2575a0e9e593c00f959f8c92f12db2869c3395a3b0502d05e2516446f71f85b939250905b8082106112f957509091508101602001610a4d610a3d565b9192600181602092548385880101520191019092916112e1565b91607f1691611289565b34610276575f366003190112610276576020600754604051908152f35b34610276575f366003190112610276577f00000000000000000000000000000000000000000000000000000000000000006001600160a01b031661137f338214611489565b6012549081156113ba57816113b15f8080805f8051602061247e83398151915297602097826012555af1610f856114fb565b604051908152a1005b60405162461bcd60e51b815260206004820152600f60248201526e4e6f7468696e672070656e64696e6760881b6044820152606490fd5b34610276575f366003190112610276578061dead60209252f35b602060409281835280519182918282860152018484015e5f828201840152601f01601f1916010190565b600435906001600160a01b038216820361027657565b602435906001600160a01b038216820361027657565b34610276575f36600319011261027657602060405160968152f35b9190820180921161039a57565b1561149057565b60405162461bcd60e51b815260206004820152600c60248201526b4f6e6c7920666163746f727960a01b6044820152606490fd5b601f909101601f19168101906001600160401b038211908210176114e757604052565b634e487b7160e01b5f52604160045260245ffd5b3d15611534573d906001600160401b0382116114e75760405191611529601f8201601f1916602001846114c4565b82523d5f602084013e565b606090565b1561154057565b60405162461bcd60e51b815260206004820152600f60248201526e115512081cd95b990819985a5b1959608a1b6044820152606490fd5b9190820391821161039a57565b8181029291811591840414171561039a57565b81156115a1570490565b634e487b7160e01b5f52601260045260245ffd5b6115be816119d5565b156116755760018060a01b03165f5260096020526115fd60405f206115ea600d54600283015490611577565b905f9180611600575b506003015461147c565b90565b600e5482546116419161125c9061162d90608084901c6001600160401b0316908181111561166e57611577565b6001860154926001600160801b0316611584565b8061164d575b506115f3565b6003929350670de0b6b3a76400009161166591611584565b0491905f611647565b5080611577565b505f90565b1561168157565b60405162461bcd60e51b815260206004820152600a6024820152694f6e6c7920637572766560b01b6044820152606490fd5b3415611722575f808080347f00000000000000000000000000000000000000000000000000000000000000006001600160a01b03165af16116f26114fb565b5015611711575f8051602061247e8339815191526020604051348152a1565b61171d3460125461147c565b601255565b565b61172d816119d5565b15611675576001600160a01b03165f90815260096020526040902080546115fd9161125c90600161176b608085901c6001600160401b031642611577565b910154926001600160801b0316611584565b6001600160a01b0381169291908315610f23576001600160a01b0382169283156119c25780936117ac83611a8b565b6117b584611a8b565b60055460ff8116806119b5575b8061199e575b80611987575b611869575b50505080610d1b6117e89484610d1b94611e41565b6005549060ff8216918261185b575b82611844575b50508061182d575b80611819575b61181157565b61172261212a565b506006546001600160a01b0316151561180b565b50305f525f60205260405f20546007541115611805565b60081c6001600160a01b0316141590505f806117fd565b60085460ff161592506117f7565b60081c6001600160a01b0316868114908214818015611980575b61188e575b506117d3565b9091939295505f90611971575b6101f490810180911161039a576118b56127109187611584565b049060968602938685046096148715171561039a57875f805160206124fe83398151915260606117e89961190a610d1b97612710610d1b9b049283611962575b6118ff8483611577565b806119515750611577565b9561192b575b6040519081525f60208201525f6040820152a3948293611888565b5f85815260096020526040902061194c90426001600160401b031690611d2e565b611910565b61195c90308d611e41565b5f610e46565b61196c848c611d9d565b6118f5565b5061197b82611c6e565b61189b565b5080611883565b50815f52600f60205260ff60405f205416156117ce565b50865f52600f60205260ff60405f205416156117c8565b5060ff60085416156117c2565b63ec442f0560e01b5f525f60045260245ffd5b6001600160a01b0316801561167557805f52600f60205260ff60405f2054166116755760055460081c6001600160a01b03168015159182611a20575b5050611a1c57600190565b5f90565b1490505f80611a11565b60025f8051602061251e8339815191525414611a535760025f8051602061251e83398151915255565b633ee5aeb560e01b5f5260045ffd5b8054600160801b600160c01b03191660809290921b600160801b600160c01b0316919091179055565b611a94816119d5565b15611b985760018060a01b03165f52600960205261172260405f20600d54611ac26002830191825490611577565b80611b17575b50508054611af690611ae7608082901c6001600160401b031642611577565b906001600160801b0316611584565b611b056001830191825461147c565b9055426001600160401b031690611a62565b600e548354611b589161125c90611b4490608084901c6001600160401b0316908181111561166e57611577565b6001870154926001600160801b0316611584565b80611b6c575b5050600d5490555f80611ac8565b670de0b6b3a764000091611b7f91611584565b04611b8f6003840191825461147c565b90555f80611b5e565b50565b8015611b9857611ba9611d51565b600a548015611c5057611bbf601054809361147c565b91611c47575b670de0b6b3a7640000820291808304670de0b6b3a7640000148115171561039a57611c006040925f805160206124be83398151915294611597565b8015611c2757611c1290600d5461147c565b80600d5542600e5582519182526020820152a1565b50611c348160105461147c565b601055600d5482519182526020820152a1565b5f601055611bc5565b50604081611c345f805160206124be8339815191529360105461147c565b6001600160a01b03165f9081526009602052604090205460c01c801561167557611c989042611577565b61012c8110611cc457610e108110611cbd576201518011611cb7575f90565b6101f490565b506103e890565b506107d090565b6001600160a01b0316908115611178576001600160a01b03169182156111655760207f8c5be1e5ebec7d5bd14f71427d1e84f3dd0314c0f7b2291e5b200ac8c7c3b92591835f526001825260405f20855f5282528060405f2055604051908152a3565b80546001600160c01b031660c09290921b6001600160c01b031916919091179055565b611d5d600b5442611577565b80151580611d92575b611d72575b5042600b55565b611d81611d8991600c54611584565b600a5461147c565b600a555f611d6b565b50600c541515611d66565b9091906001600160a01b031680611dec575f805160206124de833981519152602084611dcf61dead959660025461147c565b6002555b845f525f825260405f20818154019055604051908152a3565b805f525f60205260405f2054838110611e275760208461dead94955f805160206124de83398151915293855f525f84520360405f2055611dd3565b915063391434e360e21b5f5260045260245260445260645ffd5b6001600160a01b03169081611ea75760205f805160206124de83398151915291611e6d8560025461147c565b6002555b6001600160a01b03169384611e925780600254036002555b604051908152a3565b845f525f825260405f20818154019055611e89565b815f525f60205260405f2054838110611ede575f805160206124de8339815191529184602092855f525f84520360405f2055611e71565b91905063391434e360e21b5f5260045260245260445260645ffd5b611f02816119d5565b15611b98576001600160a01b03165f81815260096020526040902090611f26611d51565b5f8181526020819052604090205482546001600160801b03168082109283806120c1575b612041575b508181811193845f146120065750611f7291611f6a91611577565b600c5461147c565b600c555b82546001600160801b0319166001600160801b0391909116178255426001600160401b031690611fa68284611a62565b60ff60055416159081611ffe575b5080611fcc575b611fc3575050565b61172291611d2e565b50337f00000000000000000000000000000000000000000000000000000000000000006001600160a01b031614611fbb565b90505f611fb4565b612012575b5050611f76565b61201b91611577565b600c54908082106120395761202f91611577565b600c555f8161200b565b50505f61202f565b6001850180549161206561205e856120598887611584565b611597565b8094611577565b600a54818110612088575061207d9150600a54611577565b600a555b555f611f4f565b7fd5fc571c0f24626ceeb4a7223a10b7b571f3e6c810a1ec1991ba28b6494b06a19160409182519182526020820152a25f600a55612081565b50811515611f4a565b8051600110156120da5760400190565b634e487b7160e01b5f52603260045260245ffd5b90602080835192838152019201905f5b81811061210b5750505090565b82516001600160a01b03168452602093840193909201916001016120fe565b5f60ff196008541660018117600855305f525f60205260405f205490811561247657506040519061215c6060836114c4565b600282526020820160403682378251156120da573090526006546040516315ab88c960e31b81526001600160a01b0390911690602081600481855afa801561246b5783915f91612424575b50916121c9926121b6866120ca565b6001600160a01b03909116905230611ccb565b5f9060018060a01b03600654169260405163d06ca61f60e01b8152826004820152604060248201525f818061220160448201866120ee565b0381885afa5f9181612387575b5061235d575b504793803b1561027657612254935f80946040519687958694859363791ac94760e01b85526004850152602484015260a0604484015260a48301906120ee565b30606483015242608483015203925af19081612348575b5061227f575b505060ff1960085416600855565b6122899047611577565b80158015612298575b50612271565b6003820290828204600314171561233457906122bc60076122ca9493048092611577565b91816122d2575b5050611b9b565b5f8080612292565b808080847f00000000000000000000000000000000000000000000000000000000000000006001600160a01b03165af161230a6114fb565b50612316575b806122c3565b60205f8051602061247e83398151915291604051908152a15f612310565b634e487b7160e01b83526011600452602483fd5b6123559193505f906114c4565b5f915f61226b565b6123689193506120ca565b51605a810290808204605a149015171561039a5760649004915f612214565b9091503d805f833e61239981836114c4565b810190602081830312610276578051906001600160401b03821161027657019080601f83011215610276578151916001600160401b0383116114e7578260051b9060208201936123ec60405195866114c4565b845260208085019282010192831161027657602001905b82821061241457505050905f61220e565b8151815260209182019101612403565b9150506020813d602011612463575b81612440602093836114c4565b8101031261027657516001600160a01b03811681036102765782906121c96121a7565b3d9150612433565b6040513d5f823e3d90fd5b600855505056fe693f9dbea0bdf9b70d480f9527e567d17ae3a41a5627c6515b034ac1869cf7a0fc30cddea38e2bf4d6ea7d3f9ed3b6ad7f176419f4963bd81318067a4aee73fe8ad0c4905aa5603107e860e0c2b1a78e23eba312c30f8114a70d94d9e187f5afddf252ad1be2c89b69c2b068fc378daa952ba7f163c4a11628f55a4df523b3efe9bc91a33ddf896d889747b2f39f4192c802fd62364780086853fcd8e19e8ffa9b779b17422d0df92223018b32b4d1fa46e071723d6817e2486d003becc55f00a26469706673582212207e0fd4e2161220aa47b106aa489833c024b42bfc081c0fd7351d5b96e82bccda64736f6c634300081a0033ec8156718a8372b1db44bb411437d0870f3e3790d4a08526d024ce1b0b668f6bf4803e074bd026baaf6ed2e288c9515f68c72fb7216eebdd7cae1718a53ec3758ad0c4905aa5603107e860e0c2b1a78e23eba312c30f8114a70d94d9e187f5afddf252ad1be2c89b69c2b068fc378daa952ba7f163c4a11628f55a4df523b3efd5fc571c0f24626ceeb4a7223a10b7b571f3e6c810a1ec1991ba28b6494b06a1",
  "linkReferences": {},
  "deployedLinkReferences": {}
}