{
  "_format": "hh-sol-artifact-1",
  "contractName": "AethpadTokenV2",
  "sourceName": "contracts/v2/AethpadTokenV2.sol",
  "abi": [
    {
      "inputs": [
        {
          "internalType": "string",
          "name": "_name",
          "type": "string"
        },
        {
          "internalType": "string",
          "name": "_symbol",
          "type": "string"
        },
        {
          "internalType": "address",
          "name": "_factory",
          "type": "address"
        },
        {
          "internalType": "address",
          "name": "_curve",
          "type": "address"
        }
      ],
      "stateMutability": "nonpayable",
      "type": "constructor"
    },
    {
      "inputs": [
        {
          "internalType": "address",
          "name": "spender",
          "type": "address"
        },
        {
          "internalType": "uint256",
          "name": "allowance",
          "type": "uint256"
        },
        {
          "internalType": "uint256",
          "name": "needed",
          "type": "uint256"
        }
      ],
      "name": "ERC20InsufficientAllowance",
      "type": "error"
    },
    {
      "inputs": [
        {
          "internalType": "address",
          "name": "sender",
          "type": "address"
        },
        {
          "internalType": "uint256",
          "name": "balance",
          "type": "uint256"
        },
        {
          "internalType": "uint256",
          "name": "needed",
          "type": "uint256"
        }
      ],
      "name": "ERC20InsufficientBalance",
      "type": "error"
    },
    {
      "inputs": [
        {
          "internalType": "address",
          "name": "approver",
          "type": "address"
        }
      ],
      "name": "ERC20InvalidApprover",
      "type": "error"
    },
    {
      "inputs": [
        {
          "internalType": "address",
          "name": "receiver",
          "type": "address"
        }
      ],
      "name": "ERC20InvalidReceiver",
      "type": "error"
    },
    {
      "inputs": [
        {
          "internalType": "address",
          "name": "sender",
          "type": "address"
        }
      ],
      "name": "ERC20InvalidSender",
      "type": "error"
    },
    {
      "inputs": [
        {
          "internalType": "address",
          "name": "spender",
          "type": "address"
        }
      ],
      "name": "ERC20InvalidSpender",
      "type": "error"
    },
    {
      "inputs": [],
      "name": "ReentrancyGuardReentrantCall",
      "type": "error"
    },
    {
      "anonymous": false,
      "inputs": [
        {
          "indexed": true,
          "internalType": "address",
          "name": "owner",
          "type": "address"
        },
        {
          "indexed": true,
          "internalType": "address",
          "name": "spender",
          "type": "address"
        },
        {
          "indexed": false,
          "internalType": "uint256",
          "name": "value",
          "type": "uint256"
        }
      ],
      "name": "Approval",
      "type": "event"
    },
    {
      "anonymous": false,
      "inputs": [
        {
          "indexed": true,
          "internalType": "address",
          "name": "pair",
          "type": "address"
        }
      ],
      "name": "Graduated",
      "type": "event"
    },
    {
      "anonymous": false,
      "inputs": [
        {
          "indexed": true,
          "internalType": "address",
          "name": "oldKeeper",
          "type": "address"
        },
        {
          "indexed": true,
          "internalType": "address",
          "name": "newKeeper",
          "type": "address"
        }
      ],
      "name": "KeeperUpdated",
      "type": "event"
    },
    {
      "anonymous": false,
      "inputs": [
        {
          "indexed": false,
          "internalType": "uint256",
          "name": "ethAmount",
          "type": "uint256"
        }
      ],
      "name": "PlatformFeeForwarded",
      "type": "event"
    },
    {
      "anonymous": false,
      "inputs": [
        {
          "indexed": true,
          "internalType": "address",
          "name": "user",
          "type": "address"
        },
        {
          "indexed": false,
          "internalType": "uint256",
          "name": "ethAmount",
          "type": "uint256"
        }
      ],
      "name": "RewardsClaimed",
      "type": "event"
    },
    {
      "anonymous": false,
      "inputs": [
        {
          "indexed": false,
          "internalType": "uint256",
          "name": "ethAmount",
          "type": "uint256"
        },
        {
          "indexed": false,
          "internalType": "uint256",
          "name": "newCumulative",
          "type": "uint256"
        }
      ],
      "name": "RewardsDeposited",
      "type": "event"
    },
    {
      "anonymous": false,
      "inputs": [
        {
          "indexed": false,
          "internalType": "uint256",
          "name": "holderCount",
          "type": "uint256"
        },
        {
          "indexed": false,
          "internalType": "uint256",
          "name": "totalEthSent",
          "type": "uint256"
        }
      ],
      "name": "RewardsPushed",
      "type": "event"
    },
    {
      "anonymous": false,
      "inputs": [
        {
          "indexed": true,
          "internalType": "address",
          "name": "user",
          "type": "address"
        },
        {
          "indexed": false,
          "internalType": "uint256",
          "name": "drop",
          "type": "uint256"
        },
        {
          "indexed": false,
          "internalType": "uint256",
          "name": "totalScore",
          "type": "uint256"
        }
      ],
      "name": "ScoreDesyncDetected",
      "type": "event"
    },
    {
      "anonymous": false,
      "inputs": [
        {
          "indexed": true,
          "internalType": "address",
          "name": "from",
          "type": "address"
        },
        {
          "indexed": true,
          "internalType": "address",
          "name": "to",
          "type": "address"
        },
        {
          "indexed": false,
          "internalType": "uint256",
          "name": "burnAmt",
          "type": "uint256"
        },
        {
          "indexed": false,
          "internalType": "uint256",
          "name": "rewardAmt",
          "type": "uint256"
        },
        {
          "indexed": false,
          "internalType": "uint256",
          "name": "platformAmt",
          "type": "uint256"
        }
      ],
      "name": "TaxTaken",
      "type": "event"
    },
    {
      "anonymous": false,
      "inputs": [
        {
          "indexed": true,
          "internalType": "address",
          "name": "from",
          "type": "address"
        },
        {
          "indexed": true,
          "internalType": "address",
          "name": "to",
          "type": "address"
        },
        {
          "indexed": false,
          "internalType": "uint256",
          "name": "value",
          "type": "uint256"
        }
      ],
      "name": "Transfer",
      "type": "event"
    },
    {
      "inputs": [],
      "name": "BURN_BPS",
      "outputs": [
        {
          "internalType": "uint256",
          "name": "",
          "type": "uint256"
        }
      ],
      "stateMutability": "view",
      "type": "function"
    },
    {
      "inputs": [],
      "name": "CURVE_SUPPLY",
      "outputs": [
        {
          "internalType": "uint256",
          "name": "",
          "type": "uint256"
        }
      ],
      "stateMutability": "view",
      "type": "function"
    },
    {
      "inputs": [],
      "name": "DEAD",
      "outputs": [
        {
          "internalType": "address",
          "name": "",
          "type": "address"
        }
      ],
      "stateMutability": "view",
      "type": "function"
    },
    {
      "inputs": [],
      "name": "GRAD_SUPPLY",
      "outputs": [
        {
          "internalType": "uint256",
          "name": "",
          "type": "uint256"
        }
      ],
      "stateMutability": "view",
      "type": "function"
    },
    {
      "inputs": [],
      "name": "MAX_PUSH_BATCH",
      "outputs": [
        {
          "internalType": "uint256",
          "name": "",
          "type": "uint256"
        }
      ],
      "stateMutability": "view",
      "type": "function"
    },
    {
      "inputs": [],
      "name": "PLATFORM_BPS",
      "outputs": [
        {
          "internalType": "uint256",
          "name": "",
          "type": "uint256"
        }
      ],
      "stateMutability": "view",
      "type": "function"
    },
    {
      "inputs": [],
      "name": "REWARD_BPS",
      "outputs": [
        {
          "internalType": "uint256",
          "name": "",
          "type": "uint256"
        }
      ],
      "stateMutability": "view",
      "type": "function"
    },
    {
      "inputs": [],
      "name": "SNIPE_BPS_1HR",
      "outputs": [
        {
          "internalType": "uint256",
          "name": "",
          "type": "uint256"
        }
      ],
      "stateMutability": "view",
      "type": "function"
    },
    {
      "inputs": [],
      "name": "SNIPE_BPS_24HR",
      "outputs": [
        {
          "internalType": "uint256",
          "name": "",
          "type": "uint256"
        }
      ],
      "stateMutability": "view",
      "type": "function"
    },
    {
      "inputs": [],
      "name": "SNIPE_BPS_5MIN",
      "outputs": [
        {
          "internalType": "uint256",
          "name": "",
          "type": "uint256"
        }
      ],
      "stateMutability": "view",
      "type": "function"
    },
    {
      "inputs": [],
      "name": "TOTAL_SUPPLY",
      "outputs": [
        {
          "internalType": "uint256",
          "name": "",
          "type": "uint256"
        }
      ],
      "stateMutability": "view",
      "type": "function"
    },
    {
      "inputs": [],
      "name": "TOTAL_TAX_BPS",
      "outputs": [
        {
          "internalType": "uint256",
          "name": "",
          "type": "uint256"
        }
      ],
      "stateMutability": "view",
      "type": "function"
    },
    {
      "inputs": [
        {
          "internalType": "address",
          "name": "owner",
          "type": "address"
        },
        {
          "internalType": "address",
          "name": "spender",
          "type": "address"
        }
      ],
      "name": "allowance",
      "outputs": [
        {
          "internalType": "uint256",
          "name": "",
          "type": "uint256"
        }
      ],
      "stateMutability": "view",
      "type": "function"
    },
    {
      "inputs": [
        {
          "internalType": "address",
          "name": "seller",
          "type": "address"
        }
      ],
      "name": "antiSnipeBpsFor",
      "outputs": [
        {
          "internalType": "uint256",
          "name": "",
          "type": "uint256"
        }
      ],
      "stateMutability": "view",
      "type": "function"
    },
    {
      "inputs": [
        {
          "internalType": "address",
          "name": "spender",
          "type": "address"
        },
        {
          "internalType": "uint256",
          "name": "value",
          "type": "uint256"
        }
      ],
      "name": "approve",
      "outputs": [
        {
          "internalType": "bool",
          "name": "",
          "type": "bool"
        }
      ],
      "stateMutability": "nonpayable",
      "type": "function"
    },
    {
      "inputs": [
        {
          "internalType": "address",
          "name": "account",
          "type": "address"
        }
      ],
      "name": "balanceOf",
      "outputs": [
        {
          "internalType": "uint256",
          "name": "",
          "type": "uint256"
        }
      ],
      "stateMutability": "view",
      "type": "function"
    },
    {
      "inputs": [
        {
          "internalType": "uint256",
          "name": "amount",
          "type": "uint256"
        }
      ],
      "name": "burnFromCurve",
      "outputs": [],
      "stateMutability": "nonpayable",
      "type": "function"
    },
    {
      "inputs": [
        {
          "internalType": "address",
          "name": "",
          "type": "address"
        }
      ],
      "name": "checkpoints",
      "outputs": [
        {
          "internalType": "uint128",
          "name": "balance",
          "type": "uint128"
        },
        {
          "internalType": "uint64",
          "name": "lastUpdate",
          "type": "uint64"
        },
        {
          "internalType": "uint64",
          "name": "lastBuyAt",
          "type": "uint64"
        },
        {
          "internalType": "uint256",
          "name": "accumulatedScore",
          "type": "uint256"
        },
        {
          "internalType": "uint256",
          "name": "ethPerScorePaid",
          "type": "uint256"
        },
        {
          "internalType": "uint256",
          "name": "pendingEth",
          "type": "uint256"
        }
      ],
      "stateMutability": "view",
      "type": "function"
    },
    {
      "inputs": [],
      "name": "claim",
      "outputs": [],
      "stateMutability": "nonpayable",
      "type": "function"
    },
    {
      "inputs": [],
      "name": "cumulativeEthPerScore",
      "outputs": [
        {
          "internalType": "uint256",
          "name": "",
          "type": "uint256"
        }
      ],
      "stateMutability": "view",
      "type": "function"
    },
    {
      "inputs": [],
      "name": "curve",
      "outputs": [
        {
          "internalType": "address",
          "name": "",
          "type": "address"
        }
      ],
      "stateMutability": "view",
      "type": "function"
    },
    {
      "inputs": [],
      "name": "decimals",
      "outputs": [
        {
          "internalType": "uint8",
          "name": "",
          "type": "uint8"
        }
      ],
      "stateMutability": "view",
      "type": "function"
    },
    {
      "inputs": [],
      "name": "depositEthPlatform",
      "outputs": [],
      "stateMutability": "payable",
      "type": "function"
    },
    {
      "inputs": [],
      "name": "depositEthReward",
      "outputs": [],
      "stateMutability": "payable",
      "type": "function"
    },
    {
      "inputs": [],
      "name": "factory",
      "outputs": [
        {
          "internalType": "address",
          "name": "",
          "type": "address"
        }
      ],
      "stateMutability": "view",
      "type": "function"
    },
    {
      "inputs": [],
      "name": "graduated",
      "outputs": [
        {
          "internalType": "bool",
          "name": "",
          "type": "bool"
        }
      ],
      "stateMutability": "view",
      "type": "function"
    },
    {
      "inputs": [
        {
          "internalType": "address",
          "name": "user",
          "type": "address"
        }
      ],
      "name": "holdScore",
      "outputs": [
        {
          "internalType": "uint256",
          "name": "",
          "type": "uint256"
        }
      ],
      "stateMutability": "view",
      "type": "function"
    },
    {
      "inputs": [
        {
          "internalType": "address",
          "name": "",
          "type": "address"
        }
      ],
      "name": "isExcluded",
      "outputs": [
        {
          "internalType": "bool",
          "name": "",
          "type": "bool"
        }
      ],
      "stateMutability": "view",
      "type": "function"
    },
    {
      "inputs": [],
      "name": "keeper",
      "outputs": [
        {
          "internalType": "address",
          "name": "",
          "type": "address"
        }
      ],
      "stateMutability": "view",
      "type": "function"
    },
    {
      "inputs": [],
      "name": "lastRewardTimestamp",
      "outputs": [
        {
          "internalType": "uint256",
          "name": "",
          "type": "uint256"
        }
      ],
      "stateMutability": "view",
      "type": "function"
    },
    {
      "inputs": [],
      "name": "name",
      "outputs": [
        {
          "internalType": "string",
          "name": "",
          "type": "string"
        }
      ],
      "stateMutability": "view",
      "type": "function"
    },
    {
      "inputs": [
        {
          "internalType": "address",
          "name": "_pair",
          "type": "address"
        },
        {
          "internalType": "address",
          "name": "_router",
          "type": "address"
        }
      ],
      "name": "notifyGraduated",
      "outputs": [],
      "stateMutability": "nonpayable",
      "type": "function"
    },
    {
      "inputs": [],
      "name": "orphanedRewardEth",
      "outputs": [
        {
          "internalType": "uint256",
          "name": "",
          "type": "uint256"
        }
      ],
      "stateMutability": "view",
      "type": "function"
    },
    {
      "inputs": [
        {
          "internalType": "address",
          "name": "user",
          "type": "address"
        }
      ],
      "name": "pendingRewards",
      "outputs": [
        {
          "internalType": "uint256",
          "name": "",
          "type": "uint256"
        }
      ],
      "stateMutability": "view",
      "type": "function"
    },
    {
      "inputs": [
        {
          "internalType": "address[]",
          "name": "holders",
          "type": "address[]"
        }
      ],
      "name": "pushRewards",
      "outputs": [],
      "stateMutability": "nonpayable",
      "type": "function"
    },
    {
      "inputs": [
        {
          "internalType": "address",
          "name": "account",
          "type": "address"
        },
        {
          "internalType": "bool",
          "name": "excluded",
          "type": "bool"
        }
      ],
      "name": "setExcluded",
      "outputs": [],
      "stateMutability": "nonpayable",
      "type": "function"
    },
    {
      "inputs": [
        {
          "internalType": "address",
          "name": "newKeeper",
          "type": "address"
        }
      ],
      "name": "setKeeper",
      "outputs": [],
      "stateMutability": "nonpayable",
      "type": "function"
    },
    {
      "inputs": [
        {
          "internalType": "uint256",
          "name": "newThreshold",
          "type": "uint256"
        }
      ],
      "name": "setSwapThreshold",
      "outputs": [],
      "stateMutability": "nonpayable",
      "type": "function"
    },
    {
      "inputs": [],
      "name": "swapThreshold",
      "outputs": [
        {
          "internalType": "uint256",
          "name": "",
          "type": "uint256"
        }
      ],
      "stateMutability": "view",
      "type": "function"
    },
    {
      "inputs": [],
      "name": "symbol",
      "outputs": [
        {
          "internalType": "string",
          "name": "",
          "type": "string"
        }
      ],
      "stateMutability": "view",
      "type": "function"
    },
    {
      "inputs": [],
      "name": "totalAccumulatedScore",
      "outputs": [
        {
          "internalType": "uint256",
          "name": "",
          "type": "uint256"
        }
      ],
      "stateMutability": "view",
      "type": "function"
    },
    {
      "inputs": [],
      "name": "totalHoldScoreLive",
      "outputs": [
        {
          "internalType": "uint256",
          "name": "",
          "type": "uint256"
        }
      ],
      "stateMutability": "view",
      "type": "function"
    },
    {
      "inputs": [],
      "name": "totalLastUpdate",
      "outputs": [
        {
          "internalType": "uint256",
          "name": "",
          "type": "uint256"
        }
      ],
      "stateMutability": "view",
      "type": "function"
    },
    {
      "inputs": [],
      "name": "totalSettledBalance",
      "outputs": [
        {
          "internalType": "uint256",
          "name": "",
          "type": "uint256"
        }
      ],
      "stateMutability": "view",
      "type": "function"
    },
    {
      "inputs": [],
      "name": "totalSupply",
      "outputs": [
        {
          "internalType": "uint256",
          "name": "",
          "type": "uint256"
        }
      ],
      "stateMutability": "view",
      "type": "function"
    },
    {
      "inputs": [
        {
          "internalType": "address",
          "name": "to",
          "type": "address"
        },
        {
          "internalType": "uint256",
          "name": "value",
          "type": "uint256"
        }
      ],
      "name": "transfer",
      "outputs": [
        {
          "internalType": "bool",
          "name": "",
          "type": "bool"
        }
      ],
      "stateMutability": "nonpayable",
      "type": "function"
    },
    {
      "inputs": [
        {
          "internalType": "address",
          "name": "from",
          "type": "address"
        },
        {
          "internalType": "address",
          "name": "to",
          "type": "address"
        },
        {
          "internalType": "uint256",
          "name": "value",
          "type": "uint256"
        }
      ],
      "name": "transferFrom",
      "outputs": [
        {
          "internalType": "bool",
          "name": "",
          "type": "bool"
        }
      ],
      "stateMutability": "nonpayable",
      "type": "function"
    },
    {
      "inputs": [],
      "name": "uniswapPair",
      "outputs": [
        {
          "internalType": "address",
          "name": "",
          "type": "address"
        }
      ],
      "stateMutability": "view",
      "type": "function"
    },
    {
      "inputs": [],
      "name": "uniswapRouter",
      "outputs": [
        {
          "internalType": "contract IUniswapV2Router02",
          "name": "",
          "type": "address"
        }
      ],
      "stateMutability": "view",
      "type": "function"
    },
    {
      "stateMutability": "payable",
      "type": "receive"
    }
  ],
  "bytecode": "0x60c060409080825234620007435762003be2803803809162000022828562000748565b8339810190608081830312620007435780516001600160401b0392908381116200074357816200005491840162000788565b602091828401519085821162000743576200007191850162000788565b906200008d606062000085888701620007f2565b9501620007f2565b918151868111620006435760038054916001948584811c9416801562000738575b8885101462000722578190601f94858111620006cc575b508890858311600114620006655760009262000659575b505060001982841b1c191690851b1781555b825191888311620006435760049384548681811c9116801562000638575b8982101462000623579081838695949311620005c9575b50889184116001146200055e5760009362000552575b505082851b92600019911b1c19161781555b817f9b779b17422d0df92223018b32b4d1fa46e071723d6817e2486d003becc55f005569152d02c7e14af6800000600755846080528260a05260018060a01b03948584169081600052600f865286896000209160ff199286848254161790551660005288600020848282541617905561dead93846000528960002081838254161790553060005289600020818382541617905560008052896000209182541617905542600b5580156200053b576b033b2e3c9fd0803ce80000009262000211856200091b565b600554978760ff998a8116806200052e575b8062000517575b8062000500575b62000346575b505050505050906200024e62000254928262000891565b62000ab2565b600554838116938462000338575b508362000328575b50826200030d575b5081620002fe575b50620002ee575b5161287f908162001323823960805181818161077701528181610853015281816109bd01528181610b870152818161111a01526123cd015260a0518181816106200152818161081b0152818161094501528181610c2b01528181610cd201528181611d9f0152611f510152f35b620002f862000dc7565b62000281565b9050600654161515386200027a565b60009192503082525281600020546007541115903862000272565b60081c821615159250386200026a565b600854161593503862000262565b60081c16938415948414858615620004f8575b62000368575b89915062000237565b600096929394959690620004e7575b6101f4908101809111620004d2578083029083820403620004d2576127109004600254946a0c685fa11e01ec6f00000095868101809111620004bd5760008051602062003bc28339815191528b8f6000936002558484528382528084208a815401905551898152a36a0c685fa11e01ec6effffff198101818111620004a8578062000495575b5082039182116200048057507fe9bc91a33ddf896d889747b2f39f4192c802fd62364780086853fcd8e19e8ffa6060620002549796946200024e96948d6000959762000461575b905051908152838a820152838d820152a39192388080806200035f565b620004789187875260098d5242169086206200086e565b388d62000444565b601190634e487b7160e01b6000525260246000fd5b620004a1903062000891565b38620003fd565b601183634e487b7160e01b6000525260246000fd5b601184634e487b7160e01b6000525260246000fd5b601182634e487b7160e01b6000525260246000fd5b50620004f262000ce3565b62000377565b508062000359565b5084600052600f89528a8c60002054161562000231565b5060008052600f89528a8c6000205416156200022a565b508a600854161562000223565b875163ec442f0560e01b8152600081840152602490fd5b01519150388062000139565b9190869450601f1984169286600052896000209360005b8b828210620005b2575050851162000597575b50505050811b0181556200014b565b01519060f884600019921b161c191690553880808062000588565b8385015187558a9890960195938401930162000575565b909192935085600052886000208380870160051c8201928b881062000619575b9189918897969594930160051c01915b8281106200060957505062000123565b60008155879650899101620005f9565b92508192620005e9565b602286634e487b7160e01b6000525260246000fd5b90607f16906200010c565b634e487b7160e01b600052604160045260246000fd5b015190503880620000dc565b90879350601f19831691856000528a6000209260005b8c828210620006b557505084116200069c575b505050811b018155620000ee565b015160001983861b60f8161c191690553880806200068e565b8385015186558b979095019493840193016200067b565b90915083600052886000208580850160051c8201928b861062000718575b918991869594930160051c01915b82811062000708575050620000c5565b60008155859450899101620006f8565b92508192620006ea565b634e487b7160e01b600052602260045260246000fd5b93607f1693620000ae565b600080fd5b601f909101601f19168101906001600160401b038211908210176200064357604052565b6001600160401b0381116200064357601f01601f191660200190565b919080601f840112156200074357825190620007a4826200076c565b91620007b4604051938462000748565b808352602091828287010111620007435760005b818110620007de57508260009394955001015290565b8581018301518482018401528201620007c8565b51906001600160a01b03821682036200074357565b919082018092116200081557565b634e487b7160e01b600052601160045260246000fd5b818102929181159184041417156200081557565b81156200084a570490565b634e487b7160e01b600052601260045260246000fd5b919082039182116200081557565b80546001600160c01b031660c09290921b6001600160c01b031916919091179055565b60008051602062003bc28339815191526020600092620008b48560025462000807565b6002556001600160a01b03169384158414620008dc5780600254036002555b604051908152a3565b84845283825260408420818154019055620008d3565b8054600160801b600160c01b03191660809290921b600160801b600160c01b0316919091179055565b620009268162000a53565b1562000a505760018060a01b03166000526009602052620009b16040600020600d546200095a600283019182549062000860565b80620009b3575b505080546001600160401b0390620009959062000985608082901c84164262000860565b906001600160801b03166200082b565b620009a66001840191825462000807565b9055421690620008f2565b565b600e54835462000a0191620009fa90620009e590608084901c6001600160401b0316908181111562000a485762000860565b6001870154926001600160801b03166200082b565b9062000807565b8062000a17575b5050600d549055388062000961565b670de0b6b3a76400009162000a2c916200082b565b0462000a3e6003840191825462000807565b9055388062000a08565b508062000860565b50565b6001600160a01b0390811690811562000aab5781600052600f60205260ff6040600020541662000aab5760055460081c16801515918262000aa0575b505062000a9b57600190565b600090565b149050388062000a8f565b5050600090565b62000abd8162000a53565b1562000a50576001600160a01b03908116600081815260096020526040812092919062000ae962000c8d565b8181526020819052604081205484546001600160801b0390811680831094919391858062000c83575b62000bf8575b5082818111958660001462000bb3575062000b4392509062000b3a9162000860565b600c5462000807565b600c555b84546001600160801b0319169116178355426001600160401b03169162000b6f8385620008f2565b60ff6005541615918262000baa575b508162000b9b575b5062000b90575050565b620009b1916200086e565b905060a0511633143862000b86565b91503862000b7e565b62000bc2575b50505062000b47565b62000bcd9162000860565b600c5481811062000bf05762000be4925062000860565b600c5538808262000bb9565b505062000be4565b6001880180549162000c2262000c1a8562000c1489876200082b565b6200083f565b809462000860565b600a5481811062000c49575062000c3d9150600a5462000860565b600a555b553862000b18565b7fd5fc571c0f24626ceeb4a7223a10b7b571f3e6c810a1ec1991ba28b6494b06a19160409182519182526020820152a283600a5562000c41565b5081151562000b12565b62000c9b600b544262000860565b8015158062000cd7575b62000cb2575b5042600b55565b62000cc462000ccd91600c546200082b565b600a5462000807565b600a553862000cab565b50600c54151562000ca5565b6000805260096020527fec8156718a8372b1db44bb411437d0870f3e3790d4a08526d024ce1b0b668f6b5460c01c801562000d5b5762000d24904262000860565b61012c811062000d5457610e10811062000d4d57620151801162000d4757600090565b6101f490565b506103e890565b506107d090565b50600090565b80516001101562000d725760400190565b634e487b7160e01b600052603260045260246000fd5b90815180825260208080930193019160005b82811062000da9575050505090565b83516001600160a01b03168552938101939281019260010162000d9a565b60009060ff1980600854166001811760085530845260208481526040908186205492831562001233575081516001600160401b039660608201888111838210176200121f57845260028252828201843682378251156200120b5730905260065484516315ab88c960e31b81526004996001600160a01b03979290919088169086818d81855afa90811562001201578591620011c0575b508862000e6a8762000d61565b911690523015620011a95780156200119257308452600186528684208185528652828785205586518381527f8c5be1e5ebec7d5bd14f71427d1e84f3dd0314c0f7b2291e5b200ac8c7c3b925873092a3829387600654169487519563d06ca61f60e01b8752848d880152602496898882015286818062000eee604482018862000d88565b0381855afa879181620010da575b506200109a575b504794813b15620010965790869291838f62000f448d519788968795869463791ac94760e01b86528501528d84015260a0604484015260a483019062000d88565b30606483015242608483015203925af191826200106f575b505062000f76575b50505050505090915060085416600855565b62000f82904762000860565b91821598891562000f95575b5062000f64565b6003840299848b0460031417156200105e57505062000fbf600762000fd297989904809362000860565b948262000fe1575b50505050506200123f565b81903880808080808062000f8e565b818080858194608051165af1903d1562001057573d9062001002826200076c565b91620010118751938462000748565b8252843d92013e5b62001027575b808062000fc7565b7f693f9dbea0bdf9b70d480f9527e567d17ae3a41a5627c6515b034ac1869cf7a09251908152a13880806200101f565b5062001019565b634e487b7160e01b83526011905281fd5b81949294116200108457865291388062000f5c565b634e487b7160e01b825260418b528482fd5b8680fd5b620010a791925062000d61565b51605a810290808204605a1490151715620010c85760649004903862000f03565b634e487b7160e01b865260118d528686fd5b9091503d8089833e620010ee818362000748565b8101908a818303126200118a578051908782116200118e570181601f820112156200118a57805187811162001176578c519291600582901b9162001135838f018662000748565b84528c8085019282010192831162001172578c809101915b838310620011615750505050903862000efc565b82518152918101918d91016200114d565b8a80fd5b508f8960418c92634e487b7160e01b835252fd5b8880fd5b8980fd5b8651634a1406b160e11b8152808c01859052602490fd5b865163e602df0560e01b8152808c01859052602490fd5b90508681813d8311620011f9575b620011da818362000748565b81010312620011f557620011ee90620007f2565b3862000e5d565b8480fd5b503d620011ce565b88513d87823e3d90fd5b634e487b7160e01b82526032600452602482fd5b634e487b7160e01b82526041600452602482fd5b94955050505050600855565b801562000a50576200125062000c8d565b600a548015620013005762001269601054809362000807565b91620012f5575b670de0b6b3a7640000918281029281840414811517156200081557620012a960409260008051602062003ba2833981519152946200083f565b8015620012d357620012be90600d5462000807565b80600d5542600e5582519182526020820152a1565b50620012e28160105462000807565b601055600d5482519182526020820152a1565b600060105562001270565b50604081620012e260008051602062003ba2833981519152936010546200080756fe6080604081815260049182361015610022575b505050361561002057600080fd5b005b600092833560e01c91826303fd2a4514611406575081630445b667146113e757816306fdde031461131057816307c9bf2e146112d7578163095ea7b3146112ad57816313b9d47e1461128e57816318160ddd1461126f5781631a0108ec146105505781631e4c72921461124957816323b872dd1461115f5781632836be24146110e2578163313ce567146110c657816331d7a262146110a057816347b12bfc146110845781634e71d92d14610f975781635b09004414610cb057816364229d6814610c9157816370a0823114610c5a5781637165485d14610c16578163735de9f714610bed578163748747e614610b5e578163902d55a514610b3857816395d89b4114610a5257816398aecb6714610a2c5781639d0014b1146109a15781639d6eadc114610982578163a37a9fc014610550578163a47541ba14610933578163a8355c8f146107e2578163a9059cbb14610902578163aced1661146108d9578163b78d0538146107ff578163bacf2a7b146107e2578163bb103cbc146107c5578163c1db4015146107a6578163c45a015514610762578163c463ecd714610745578163c5f27b3014610726578163c5f509d614610700578163c7b12801146105ed578163c816841b146105c0578163ca81eb6614610593578163cba0e99614610555578163ce91e16414610550578163dbb51d6e146104d5578163dd62ed3e1461048c578163e7c2b77214610468578163f6ceefa21461026e575063f8077fae1461024d5780610012565b3461026a578160031936011261026a57602090600e549051908152f35b5080fd5b83833461026a57602080600319360112610464576001600160401b0390843590828211610460573660238301121561046057818601359283116104605760059260243682861b850182011161045c576102c56125b9565b6011546001600160a01b0398908916330361042e57609683116103fc575086938795885b84811061033457897f0f80654923fb0c7f7a44c79b000dca8e52e2f4a16092a26ff31c0a410291d3318a8a8a8a8351928352820152a1600160008051602061280a8339815191525580f35b8381839998991b840101358b8116908181036103f85761035381611c7b565b156103ea5761036190611bd0565b808b526009875260038a8c2001988954998c8b156103db578080808e818655875af161038b611873565b50156103cb57509060008051602061278a833981519152886103ba6103b48d6103c697966114b8565b9b6125e9565b9b8d51908152a26125e9565b6102e9565b6103c693925099909899556125e9565b5050979850506103c6906125e9565b50506103c6909796976125e9565b8b80fd5b600f6064928589519362461bcd60e51b85528401528201526e426174636820746f6f206c6172676560881b6044820152fd5b600b6064928589519362461bcd60e51b85528401528201526a27b7363c9035b2b2b832b960a91b6044820152fd5b8680fd5b8480fd5b8280fd5b50503461026a578160031936011261026a5760209060ff6005541690519015158152f35b50503461026a578060031936011261026a57806020926104aa61146b565b6104b2611486565b6001600160a01b0391821683526001865283832091168252845220549051908152f35b50503461026a57602036600319011261026a5760c09181906001600160a01b036104fd61146b565b168152600960205220908154916001810154600360028301549201549280519460018060801b038116865260018060401b038160801c166020870152861c908501526060840152608083015260a0820152f35b61149c565b50503461026a57602036600319011261026a5760209160ff9082906001600160a01b0361058061146b565b168152600f855220541690519015158152f35b50503461026a57602036600319011261026a576020906105b96105b461146b565b612143565b9051908152f35b50503461026a578160031936011261026a57600554905160089190911c6001600160a01b03168152602090f35b9190503461046457806003193601126104645761060861146b565b91610611611486565b6001600160a01b0391610647337f000000000000000000000000000000000000000000000000000000000000000085161461183a565b6005549060ff82166106c957506001600160a81b031916600885901b610100600160a81b031617600117600555600680546001600160a01b03191691831691909117905591909116808352600f602052908220805460ff191690557fc5ca2014458d93c5cf9f836ff7ece45de01c929dfb16eed9d6c3329fa1fd09828280a280f35b606490602086519162461bcd60e51b83528201526011602482015270105b1c9958591e4819dc98591d585d1959607a1b6044820152fd5b50503461026a57602036600319011261026a576020906105b961072161146b565b6126b4565b50503461026a578160031936011261026a57602090600d549051908152f35b50503461026a578160031936011261026a57602090516103e88152f35b50503461026a578160031936011261026a57517f00000000000000000000000000000000000000000000000000000000000000006001600160a01b03168152602090f35b50503461026a578160031936011261026a57602090600a549051908152f35b50503461026a578160031936011261026a57602090516107d08152f35b50503461026a578160031936011261026a57602090516101f48152f35b90508260031936011261046457826001600160a01b03610842337f000000000000000000000000000000000000000000000000000000000000000083161461183a565b3461084b575080f35b8180809234907f0000000000000000000000000000000000000000000000000000000000000000165af161087d611873565b50156108a15750602060008051602061274a8339815191529151348152a138808280f35b6020606492519162461bcd60e51b83528201526013602482015272141b185d199bdc9b48199dd90819985a5b1959606a1b6044820152fd5b50503461026a578160031936011261026a5760115490516001600160a01b039091168152602090f35b50503461026a578060031936011261026a5760209061092c61092261146b565b6024359033611514565b5160018152f35b838060031936011261097f57610973337f00000000000000000000000000000000000000000000000000000000000000006001600160a01b03161461183a565b61097c34612074565b80f35b80fd5b50503461026a578160031936011261026a57602090600b549051908152f35b905034610464576020366003190112610464578035916109eb337f00000000000000000000000000000000000000000000000000000000000000006001600160a01b03161461270e565b82156109f957505060075580f35b906020606492519162461bcd60e51b8352820152600d60248201526c109859081d1a1c995cda1bdb19609a1b6044820152fd5b50503461026a578160031936011261026a57602090516aa56fa5b99019a5c80000008152f35b83833461026a578160031936011261026a57805191809380549160019083821c92828516948515610b2e575b6020958686108114610b1b57858952908115610af75750600114610abc575b610ab88787610aae828c03836114db565b5191829182611422565b0390f35b9080949750528583205b828410610ae45750505082610ab894610aae92820101948680610a9d565b8054868501880152928601928101610ac6565b60ff19168887015250505050151560051b8301019250610aae82610ab88680610a9d565b634e487b7160e01b845260228352602484fd5b93607f1693610a7e565b50503461026a578160031936011261026a5751676765c793fa10079d601b1b8152602090f35b833461097f57602036600319011261097f57610b7861146b565b6001600160a01b0390610bae337f000000000000000000000000000000000000000000000000000000000000000084161461270e565b816011549116809282167f53d3703fe259def57584466f32d1b94c30278008c683c21b04501c4966f13a698580a36001600160a01b0319161760115580f35b50503461026a578160031936011261026a5760065490516001600160a01b039091168152602090f35b50503461026a578160031936011261026a57517f00000000000000000000000000000000000000000000000000000000000000006001600160a01b03168152602090f35b50503461026a57602036600319011261026a5760209181906001600160a01b03610c8261146b565b16815280845220549051908152f35b50503461026a578160031936011261026a57602090600c549051908152f35b83833461026a57602080600319360112610464578335916001600160a01b03917f000000000000000000000000000000000000000000000000000000000000000083811690610d0033831461183a565b8515978815610d0d578780f35b8215610f80578698610d1e83611bd0565b610d26611a9d565b6005549760ff9889811680610f74575b80610f60575b80610f4a575b610df1575b5050505080610d5f8899610d64939996979899611915565b611e88565b610d6c611cc5565b6005548681169687610de4575b5086610dd4575b505084610dbe575b50505081610db0575b50610da3575b80828080808080808780f35b610dab612205565b610d97565b905060065416151582610d91565b3082525283205460075411159150838381610d88565b60081c8516141594508680610d80565b6008541615965088610d79565b60081c88168581149261dead92918314848015610f43575b610e15575b5050610d47565b90919293949c508b90610f34575b6101f4908101809111610f2157610e4090612710918291856118b2565b049160968402908482046096141715610f0d578c9d506060610d649796948a8c9d9e9f809d610ea0610d5f9a988e986000805160206127ea8339815191529804958d8780610efd575b610e9390846118e5565b80610eeb575b50506118e5565b98610ec6575b915050519081528b8b8201528b8d820152a3999897969582938c80610e0e565b878252600990925220610ee390426001600160401b0316906118f2565b8a8c8e610ea6565b610ef69130906119b0565b8d38610e99565b610f0691611915565b8d87610e89565b50634e487b7160e01b8c5260118d5260248cfd5b634e487b7160e01b8c5260118d5260248cfd5b50610f3e85612143565b610e23565b5080610e09565b5061dead8b52600f875289888c20541615610d42565b50858b52600f875289888c20541615610d3c565b50896008541615610d36565b8451634b637e8f60e11b8152908101889052602490fd5b91905034610464578260031936011261046457610fb26125b9565b610fbb33611bd0565b338352600960205260038184200191825492831561104e578490558380808086335af1610fe6611873565b501561101a57505190815260008051602061278a83398151915260203392a2600160008051602061280a8339815191525580f35b6020606492519162461bcd60e51b8352820152600f60248201526e115512081cd95b990819985a5b1959608a1b6044820152fd5b506020606492519162461bcd60e51b8352820152601060248201526f4e6f7468696e6720746f20636c61696d60801b6044820152fd5b50503461026a578160031936011261026a576020905160c88152f35b50503461026a57602036600319011261026a576020906105b96110c161146b565b6125f8565b50503461026a578160031936011261026a576020905160128152f35b50503461026a578060031936011261026a576110fc61146b565b906024359182151580930361115b576001600160a01b0390611141337f000000000000000000000000000000000000000000000000000000000000000084161461270e565b168352600f60205282209060ff8019835416911617905580f35b8380fd5b9050823461097f57606036600319011261097f5761117b61146b565b611183611486565b916044359360018060a01b0383168083526001602052868320338452602052868320549160001983106111bf575b60208861092c898989611514565b8683106112275781156112105733156111f95750825260016020908152868320338452815291869020908590039055829061092c876111b1565b8751634a1406b160e11b8152908101849052602490fd5b875163e602df0560e01b8152908101849052602490fd5b9050611245868851938493637dc7a0d960e11b85523390850161181c565b0390fd5b50503461026a578160031936011261026a57516714adf4b7320334b9601d1b8152602090f35b50503461026a578160031936011261026a576020906002549051908152f35b50503461026a578160031936011261026a576020906010549051908152f35b50503461026a578060031936011261026a5760209061092c6112cd61146b565b6024359033611789565b50503461026a578160031936011261026a576020906105b96112fb600b54426118e5565b61130a600a5491600c546118b2565b906114b8565b91905034610464578260031936011261046457805191836003549060019082821c9282811680156113dd575b60209586861082146113ca57508488529081156113a8575060011461136d575b610ab88686610aae828b03836114db565b929550600383528583205b8284106113955750505082610ab894610aae92820101943861135c565b8054868501880152928601928101611378565b60ff191687860152505050151560051b8301019250610aae82610ab83861135c565b634e487b7160e01b845260229052602483fd5b93607f169361133c565b50503461026a578160031936011261026a576020906007549051908152f35b84903461026a578160031936011261026a578061dead60209252f35b6020808252825181830181905290939260005b82811061145757505060409293506000838284010152601f8019910116010190565b818101860151848201604001528501611435565b600435906001600160a01b038216820361148157565b600080fd5b602435906001600160a01b038216820361148157565b3461148157600036600319011261148157602060405160968152f35b919082018092116114c557565b634e487b7160e01b600052601160045260246000fd5b601f909101601f19168101906001600160401b038211908210176114fe57604052565b634e487b7160e01b600052604160045260246000fd5b6001600160a01b039291838216919082156117705784811691821561175757849261153e82611bd0565b61154783611bd0565b600554958760ff978881168061174b575b80611733575b8061171b575b6115fa575b5050505080610d5f61157f9484610d5f946119b0565b60055482811692836115ed575b50826115dd575b505090816115c1575b816115b3575b506115a957565b6115b1612205565b565b9050600654161515386115a2565b905030600052600060205260406000205460075411159061159c565b60081c8316141590503880611593565b600854161592503861158c565b60081c1682811491908714808015611714575b61161a575b899150611569565b909193929550600093611703575b6101f49384018094116114c55761164593612710948591846118b2565b049560968302838104609614841517156114c5576000805160206127ea8339815191526060610d5f9561169961157f9b610d5f9a8e960492836116f4575b61168d84836118e5565b806116e3575b506118e5565b956116bc575b6040519081526000602082015260006040820152a3948293611612565b60008581526009602052604090206116de90426001600160401b0316906118f2565b61169f565b6116ee90308d6119b0565b38611693565b6116fe848c611915565b611683565b925061170e82612143565b92611628565b508261160d565b5083600052600f602052886040600020541615611564565b5087600052600f60205288604060002054161561155e565b50886008541615611558565b60405163ec442f0560e01b815260006004820152602490fd5b604051634b637e8f60e11b815260006004820152602490fd5b6001600160a01b0390811691821561180357169182156117ea5760207f8c5be1e5ebec7d5bd14f71427d1e84f3dd0314c0f7b2291e5b200ac8c7c3b925918360005260018252604060002085600052825280604060002055604051908152a3565b604051634a1406b160e11b815260006004820152602490fd5b60405163e602df0560e01b815260006004820152602490fd5b604091949392606082019560018060a01b0316825260208201520152565b1561184157565b60405162461bcd60e51b815260206004820152600a6024820152694f6e6c7920637572766560b01b6044820152606490fd5b3d156118ad573d906001600160401b0382116114fe57604051916118a1601f8201601f1916602001846114db565b82523d6000602084013e565b606090565b818102929181159184041417156114c557565b81156118cf570490565b634e487b7160e01b600052601260045260246000fd5b919082039182116114c557565b80546001600160c01b031660c09290921b6001600160c01b031916919091179055565b6001600160a01b03811690816119675750611932826002546114b8565b6002555b6000805160206127ca833981519152602061dead9384600052600082526040600020818154019055604051908152a3565b600090828252816020526040822054908482106119935750836040918484528360205203912055611936565b6112458560405193849363391434e360e21b85526004850161181c565b6001600160a01b0380821692909183611a1857506000805160206127ca833981519152916020916119e3866002546114b8565b6002555b169384611a005780600254036002555b604051908152a3565b846000526000825260406000208181540190556119f7565b60009084825281602052604082205490868210611a5757509181604087602095886000805160206127ca833981519152989652838752039120556119e7565b6112458760405193849363391434e360e21b85526004850161181c565b8054600160801b600160c01b03191660809290921b600160801b600160c01b0316919091179055565b611aa5611c0c565b156115b15761dead6000526009602052600d547f960b1051749987b45b5679007fff577a1c2f763ec21c15a6c5eb19307500378780546115b19260008051602061276a8339815191529291611af9916118e5565b80611b48575b505080546001600160401b0390611b2f90611b20608082901c8416426118e5565b906001600160801b03166118b2565b611b3e600184019182546114b8565b9055421690611a74565b600e548354611b899161130a90611b7590608084901c6001600160401b03169081811115611bc9576118e5565b6001870154926001600160801b03166118b2565b80611b9d575b5050600d5490553880611aff565b670de0b6b3a764000091611bb0916118b2565b04611bc0600384019182546114b8565b90553880611b8f565b50806118e5565b611bd981611c7b565b15611c095760018060a01b031660005260096020526115b16040600020600d54611af960028301918254906118e5565b50565b61dead6000819052600f6020527f99629f56119585bf27511b6b7d295dffb54757453fcc3dabcf51d92028301f105460ff16611c755760055460081c6001600160a01b03168015159182611c6b575b5050611c6657600190565b600090565b1490503880611c5b565b50600090565b6001600160a01b03908116908115611cbe5781600052600f60205260ff60406000205416611cbe5760055460081c168015159182611c6b575050611c6657600190565b5050600090565b611ccd611c0c565b156115b15761dead6000818152600960205260008051602061276a8339815191529190611cf8612028565b8181526020819052604081205483546001600160801b03908116808310949193918580611e7f575b611e11575b50828181119586600014611dd55750611d4b925090611d43916118e5565b600c546114b8565b600c555b83546001600160801b0319169116178255426001600160401b031690611d758284611a74565b60ff60055416159081611dcd575b5080611d9b575b611d92575050565b6115b1916118f2565b50337f00000000000000000000000000000000000000000000000000000000000000006001600160a01b031614611d8a565b905038611d83565b611de2575b505050611d4f565b611deb916118e5565b600c54818110611e0a57611dff92506118e5565b600c55388082611dda565b5050611dff565b60018701805491611e35611e2e85611e2989876118b2565b6118c5565b80946118e5565b600a54818110611e585750611e4d9150600a546118e5565b600a555b5538611d25565b60008051602061282a8339815191529160409182519182526020820152a283600a55611e51565b50811515611d20565b611e9181611c7b565b15611c09576001600160a01b039081166000818152600960205260408120929190611eba612028565b8181526020819052604081205484546001600160801b0390811680831094919391858061201f575b611fbd575b50828181119586600014611f815750611f05925090611d43916118e5565b600c555b84546001600160801b0319169116178355426001600160401b031691611f2f8385611a74565b60ff60055416159182611f79575b5081611f4d575b50611d92575050565b90507f000000000000000000000000000000000000000000000000000000000000000016331438611f44565b915038611f3d565b611f8e575b505050611f09565b611f97916118e5565b600c54818110611fb657611fab92506118e5565b600c55388082611f86565b5050611fab565b60018801805491611fd5611e2e85611e2989876118b2565b600a54818110611ff85750611fed9150600a546118e5565b600a555b5538611ee7565b60008051602061282a8339815191529160409182519182526020820152a283600a55611ff1565b50811515611ee2565b612034600b54426118e5565b80151580612069575b612049575b5042600b55565b61205861206091600c546118b2565b600a546114b8565b600a5538612042565b50600c54151561203d565b8015611c0957612082612028565b600a5480156121245761209860105480936114b8565b9161211a575b670de0b6b3a7640000918281029281840414811517156114c5576120d36040926000805160206127aa833981519152946118c5565b80156120fa576120e590600d546114b8565b80600d5542600e5582519182526020820152a1565b50612107816010546114b8565b601055600d5482519182526020820152a1565b600060105561209e565b506040816121076000805160206127aa833981519152936010546114b8565b6001600160a01b031660009081526009602052604090205460c01c8015611c755761216e90426118e5565b61012c811061219b57610e10811061219457620151801161218e57600090565b6101f490565b506103e890565b506107d090565b8051600110156121b25760400190565b634e487b7160e01b600052603260045260246000fd5b90815180825260208080930193019160005b8281106121e8575050505090565b83516001600160a01b0316855293810193928101926001016121da565b60009060ff198060085416600181176008553084526020848152604090818620549283156125ad575081516001600160401b0396606082018881118382101761259957845260028252828201843682378251156125855730905260065484516315ab88c960e31b81526004996001600160a01b03979290919088169086818d81855afa90811561257b57908491869161253f575b50916122b3928a6122a9896121a2565b9116905230611789565b829387600654169487519563d06ca61f60e01b8752848d88015260249689888201528681806122e560448201886121c8565b0381855afa879181612493575b50612457575b504794813b1561045c5790869291838f6123368d519788968795869463791ac94760e01b86528501528d84015260a0604484015260a48301906121c8565b30606483015242608483015203925af19182612432575b5050612366575b50505050505090915060085416600855565b61237090476118e5565b918215988915612381575b50612354565b6003840299848b0460031417156124215750506123a760076123b89798990480936118e5565b94826123c6575b5050505050612074565b81903880808080808061237b565b81808481937f0000000000000000000000000000000000000000000000000000000000000000165af16123f7611873565b50612404575b80806123ae565b60008051602061274a8339815191529251908152a13880806123fd565b634e487b7160e01b83526011905281fd5b819492941161244557865291388061234d565b634e487b7160e01b825260418b528482fd5b6124629192506121a2565b51605a810290808204605a1490151715612481576064900490386122f8565b634e487b7160e01b865260118d528686fd5b9091503d8089833e6124a581836114db565b8101908a818303126125375780519087821161253b570181601f82011215612537578051878111612523578c519291600582901b916124e6838f01866114db565b84528c8085019282010192831161251f578c809101915b83831061250f575050505090386122f2565b82518152918101918d91016124fd565b8a80fd5b508f8960418c92634e487b7160e01b835252fd5b8880fd5b8980fd5b809250888092503d8311612574575b61255881836114db565b81010312610460575188811681036104605783906122b3612299565b503d61254e565b88513d87823e3d90fd5b634e487b7160e01b82526032600452602482fd5b634e487b7160e01b82526041600452602482fd5b94955050505050600855565b60008051602061280a83398151915260028154146125d75760029055565b604051633ee5aeb560e01b8152600490fd5b60001981146114c55760010190565b61260181611c7b565b15611c755760018060a01b03166000526009602052612643604060002061262f600d546002830154906118e5565b9060009180612646575b50600301546114b8565b90565b600e5482546126879161130a9061267390608084901c6001600160401b03169081811115611bc9576118e5565b6001860154926001600160801b03166118b2565b80612693575b50612639565b6003929350670de0b6b3a7640000916126ab916118b2565b0491903861268d565b6126bd81611c7b565b15611c75576001600160a01b0316600090815260096020526040902080546126439161130a9060016126fc608085901c6001600160401b0316426118e5565b910154926001600160801b03166118b2565b1561271557565b60405162461bcd60e51b815260206004820152600c60248201526b4f6e6c7920666163746f727960a01b6044820152606490fdfe693f9dbea0bdf9b70d480f9527e567d17ae3a41a5627c6515b034ac1869cf7a0960b1051749987b45b5679007fff577a1c2f763ec21c15a6c5eb193075003785fc30cddea38e2bf4d6ea7d3f9ed3b6ad7f176419f4963bd81318067a4aee73fe8ad0c4905aa5603107e860e0c2b1a78e23eba312c30f8114a70d94d9e187f5afddf252ad1be2c89b69c2b068fc378daa952ba7f163c4a11628f55a4df523b3efe9bc91a33ddf896d889747b2f39f4192c802fd62364780086853fcd8e19e8ffa9b779b17422d0df92223018b32b4d1fa46e071723d6817e2486d003becc55f00d5fc571c0f24626ceeb4a7223a10b7b571f3e6c810a1ec1991ba28b6494b06a1a2646970667358221220536ae9ba92013ccea055268979036058e4f8c09621266c8f4134ff1ee833976764736f6c634300081400338ad0c4905aa5603107e860e0c2b1a78e23eba312c30f8114a70d94d9e187f5afddf252ad1be2c89b69c2b068fc378daa952ba7f163c4a11628f55a4df523b3ef",
  "linkReferences": {},
  "deployedLinkReferences": {}
}