{
  "_format": "hh-sol-artifact-1",
  "contractName": "AethpadTokenV2",
  "sourceName": "contracts/v2/AethpadTokenV2.sol",
  "abi": [
    {
      "inputs": [
        {
          "internalType": "string",
          "name": "_name",
          "type": "string"
        },
        {
          "internalType": "string",
          "name": "_symbol",
          "type": "string"
        },
        {
          "internalType": "address",
          "name": "_factory",
          "type": "address"
        },
        {
          "internalType": "address",
          "name": "_curve",
          "type": "address"
        }
      ],
      "stateMutability": "nonpayable",
      "type": "constructor"
    },
    {
      "inputs": [
        {
          "internalType": "address",
          "name": "spender",
          "type": "address"
        },
        {
          "internalType": "uint256",
          "name": "allowance",
          "type": "uint256"
        },
        {
          "internalType": "uint256",
          "name": "needed",
          "type": "uint256"
        }
      ],
      "name": "ERC20InsufficientAllowance",
      "type": "error"
    },
    {
      "inputs": [
        {
          "internalType": "address",
          "name": "sender",
          "type": "address"
        },
        {
          "internalType": "uint256",
          "name": "balance",
          "type": "uint256"
        },
        {
          "internalType": "uint256",
          "name": "needed",
          "type": "uint256"
        }
      ],
      "name": "ERC20InsufficientBalance",
      "type": "error"
    },
    {
      "inputs": [
        {
          "internalType": "address",
          "name": "approver",
          "type": "address"
        }
      ],
      "name": "ERC20InvalidApprover",
      "type": "error"
    },
    {
      "inputs": [
        {
          "internalType": "address",
          "name": "receiver",
          "type": "address"
        }
      ],
      "name": "ERC20InvalidReceiver",
      "type": "error"
    },
    {
      "inputs": [
        {
          "internalType": "address",
          "name": "sender",
          "type": "address"
        }
      ],
      "name": "ERC20InvalidSender",
      "type": "error"
    },
    {
      "inputs": [
        {
          "internalType": "address",
          "name": "spender",
          "type": "address"
        }
      ],
      "name": "ERC20InvalidSpender",
      "type": "error"
    },
    {
      "inputs": [],
      "name": "ReentrancyGuardReentrantCall",
      "type": "error"
    },
    {
      "anonymous": false,
      "inputs": [
        {
          "indexed": true,
          "internalType": "address",
          "name": "owner",
          "type": "address"
        },
        {
          "indexed": true,
          "internalType": "address",
          "name": "spender",
          "type": "address"
        },
        {
          "indexed": false,
          "internalType": "uint256",
          "name": "value",
          "type": "uint256"
        }
      ],
      "name": "Approval",
      "type": "event"
    },
    {
      "anonymous": false,
      "inputs": [
        {
          "indexed": true,
          "internalType": "address",
          "name": "pair",
          "type": "address"
        }
      ],
      "name": "Graduated",
      "type": "event"
    },
    {
      "anonymous": false,
      "inputs": [
        {
          "indexed": true,
          "internalType": "address",
          "name": "oldKeeper",
          "type": "address"
        },
        {
          "indexed": true,
          "internalType": "address",
          "name": "newKeeper",
          "type": "address"
        }
      ],
      "name": "KeeperUpdated",
      "type": "event"
    },
    {
      "anonymous": false,
      "inputs": [
        {
          "indexed": false,
          "internalType": "uint256",
          "name": "ethAmount",
          "type": "uint256"
        }
      ],
      "name": "PlatformFeeForwarded",
      "type": "event"
    },
    {
      "anonymous": false,
      "inputs": [
        {
          "indexed": true,
          "internalType": "address",
          "name": "user",
          "type": "address"
        },
        {
          "indexed": false,
          "internalType": "uint256",
          "name": "ethAmount",
          "type": "uint256"
        }
      ],
      "name": "RewardsClaimed",
      "type": "event"
    },
    {
      "anonymous": false,
      "inputs": [
        {
          "indexed": false,
          "internalType": "uint256",
          "name": "ethAmount",
          "type": "uint256"
        },
        {
          "indexed": false,
          "internalType": "uint256",
          "name": "newCumulative",
          "type": "uint256"
        }
      ],
      "name": "RewardsDeposited",
      "type": "event"
    },
    {
      "anonymous": false,
      "inputs": [
        {
          "indexed": false,
          "internalType": "uint256",
          "name": "holderCount",
          "type": "uint256"
        },
        {
          "indexed": false,
          "internalType": "uint256",
          "name": "totalEthSent",
          "type": "uint256"
        }
      ],
      "name": "RewardsPushed",
      "type": "event"
    },
    {
      "anonymous": false,
      "inputs": [
        {
          "indexed": true,
          "internalType": "address",
          "name": "user",
          "type": "address"
        },
        {
          "indexed": false,
          "internalType": "uint256",
          "name": "drop",
          "type": "uint256"
        },
        {
          "indexed": false,
          "internalType": "uint256",
          "name": "totalScore",
          "type": "uint256"
        }
      ],
      "name": "ScoreDesyncDetected",
      "type": "event"
    },
    {
      "anonymous": false,
      "inputs": [
        {
          "indexed": true,
          "internalType": "address",
          "name": "from",
          "type": "address"
        },
        {
          "indexed": true,
          "internalType": "address",
          "name": "to",
          "type": "address"
        },
        {
          "indexed": false,
          "internalType": "uint256",
          "name": "burnAmt",
          "type": "uint256"
        },
        {
          "indexed": false,
          "internalType": "uint256",
          "name": "rewardAmt",
          "type": "uint256"
        },
        {
          "indexed": false,
          "internalType": "uint256",
          "name": "platformAmt",
          "type": "uint256"
        }
      ],
      "name": "TaxTaken",
      "type": "event"
    },
    {
      "anonymous": false,
      "inputs": [
        {
          "indexed": true,
          "internalType": "address",
          "name": "from",
          "type": "address"
        },
        {
          "indexed": true,
          "internalType": "address",
          "name": "to",
          "type": "address"
        },
        {
          "indexed": false,
          "internalType": "uint256",
          "name": "value",
          "type": "uint256"
        }
      ],
      "name": "Transfer",
      "type": "event"
    },
    {
      "inputs": [],
      "name": "BURN_BPS",
      "outputs": [
        {
          "internalType": "uint256",
          "name": "",
          "type": "uint256"
        }
      ],
      "stateMutability": "view",
      "type": "function"
    },
    {
      "inputs": [],
      "name": "CURVE_SUPPLY",
      "outputs": [
        {
          "internalType": "uint256",
          "name": "",
          "type": "uint256"
        }
      ],
      "stateMutability": "view",
      "type": "function"
    },
    {
      "inputs": [],
      "name": "DEAD",
      "outputs": [
        {
          "internalType": "address",
          "name": "",
          "type": "address"
        }
      ],
      "stateMutability": "view",
      "type": "function"
    },
    {
      "inputs": [],
      "name": "GRAD_SUPPLY",
      "outputs": [
        {
          "internalType": "uint256",
          "name": "",
          "type": "uint256"
        }
      ],
      "stateMutability": "view",
      "type": "function"
    },
    {
      "inputs": [],
      "name": "MAX_PUSH_BATCH",
      "outputs": [
        {
          "internalType": "uint256",
          "name": "",
          "type": "uint256"
        }
      ],
      "stateMutability": "view",
      "type": "function"
    },
    {
      "inputs": [],
      "name": "PLATFORM_BPS",
      "outputs": [
        {
          "internalType": "uint256",
          "name": "",
          "type": "uint256"
        }
      ],
      "stateMutability": "view",
      "type": "function"
    },
    {
      "inputs": [],
      "name": "REWARD_BPS",
      "outputs": [
        {
          "internalType": "uint256",
          "name": "",
          "type": "uint256"
        }
      ],
      "stateMutability": "view",
      "type": "function"
    },
    {
      "inputs": [],
      "name": "SNIPE_BPS_1HR",
      "outputs": [
        {
          "internalType": "uint256",
          "name": "",
          "type": "uint256"
        }
      ],
      "stateMutability": "view",
      "type": "function"
    },
    {
      "inputs": [],
      "name": "SNIPE_BPS_24HR",
      "outputs": [
        {
          "internalType": "uint256",
          "name": "",
          "type": "uint256"
        }
      ],
      "stateMutability": "view",
      "type": "function"
    },
    {
      "inputs": [],
      "name": "SNIPE_BPS_5MIN",
      "outputs": [
        {
          "internalType": "uint256",
          "name": "",
          "type": "uint256"
        }
      ],
      "stateMutability": "view",
      "type": "function"
    },
    {
      "inputs": [],
      "name": "TOTAL_SUPPLY",
      "outputs": [
        {
          "internalType": "uint256",
          "name": "",
          "type": "uint256"
        }
      ],
      "stateMutability": "view",
      "type": "function"
    },
    {
      "inputs": [],
      "name": "TOTAL_TAX_BPS",
      "outputs": [
        {
          "internalType": "uint256",
          "name": "",
          "type": "uint256"
        }
      ],
      "stateMutability": "view",
      "type": "function"
    },
    {
      "inputs": [
        {
          "internalType": "address",
          "name": "owner",
          "type": "address"
        },
        {
          "internalType": "address",
          "name": "spender",
          "type": "address"
        }
      ],
      "name": "allowance",
      "outputs": [
        {
          "internalType": "uint256",
          "name": "",
          "type": "uint256"
        }
      ],
      "stateMutability": "view",
      "type": "function"
    },
    {
      "inputs": [
        {
          "internalType": "address",
          "name": "seller",
          "type": "address"
        }
      ],
      "name": "antiSnipeBpsFor",
      "outputs": [
        {
          "internalType": "uint256",
          "name": "",
          "type": "uint256"
        }
      ],
      "stateMutability": "view",
      "type": "function"
    },
    {
      "inputs": [
        {
          "internalType": "address",
          "name": "spender",
          "type": "address"
        },
        {
          "internalType": "uint256",
          "name": "value",
          "type": "uint256"
        }
      ],
      "name": "approve",
      "outputs": [
        {
          "internalType": "bool",
          "name": "",
          "type": "bool"
        }
      ],
      "stateMutability": "nonpayable",
      "type": "function"
    },
    {
      "inputs": [
        {
          "internalType": "address",
          "name": "account",
          "type": "address"
        }
      ],
      "name": "balanceOf",
      "outputs": [
        {
          "internalType": "uint256",
          "name": "",
          "type": "uint256"
        }
      ],
      "stateMutability": "view",
      "type": "function"
    },
    {
      "inputs": [
        {
          "internalType": "uint256",
          "name": "amount",
          "type": "uint256"
        }
      ],
      "name": "burnFromCurve",
      "outputs": [],
      "stateMutability": "nonpayable",
      "type": "function"
    },
    {
      "inputs": [
        {
          "internalType": "address",
          "name": "",
          "type": "address"
        }
      ],
      "name": "checkpoints",
      "outputs": [
        {
          "internalType": "uint128",
          "name": "balance",
          "type": "uint128"
        },
        {
          "internalType": "uint64",
          "name": "lastUpdate",
          "type": "uint64"
        },
        {
          "internalType": "uint64",
          "name": "lastBuyAt",
          "type": "uint64"
        },
        {
          "internalType": "uint256",
          "name": "accumulatedScore",
          "type": "uint256"
        },
        {
          "internalType": "uint256",
          "name": "ethPerScorePaid",
          "type": "uint256"
        },
        {
          "internalType": "uint256",
          "name": "pendingEth",
          "type": "uint256"
        }
      ],
      "stateMutability": "view",
      "type": "function"
    },
    {
      "inputs": [],
      "name": "claim",
      "outputs": [],
      "stateMutability": "nonpayable",
      "type": "function"
    },
    {
      "inputs": [],
      "name": "cumulativeEthPerScore",
      "outputs": [
        {
          "internalType": "uint256",
          "name": "",
          "type": "uint256"
        }
      ],
      "stateMutability": "view",
      "type": "function"
    },
    {
      "inputs": [],
      "name": "curve",
      "outputs": [
        {
          "internalType": "address",
          "name": "",
          "type": "address"
        }
      ],
      "stateMutability": "view",
      "type": "function"
    },
    {
      "inputs": [],
      "name": "decimals",
      "outputs": [
        {
          "internalType": "uint8",
          "name": "",
          "type": "uint8"
        }
      ],
      "stateMutability": "view",
      "type": "function"
    },
    {
      "inputs": [],
      "name": "depositEthPlatform",
      "outputs": [],
      "stateMutability": "payable",
      "type": "function"
    },
    {
      "inputs": [],
      "name": "depositEthReward",
      "outputs": [],
      "stateMutability": "payable",
      "type": "function"
    },
    {
      "inputs": [],
      "name": "factory",
      "outputs": [
        {
          "internalType": "address",
          "name": "",
          "type": "address"
        }
      ],
      "stateMutability": "view",
      "type": "function"
    },
    {
      "inputs": [],
      "name": "graduated",
      "outputs": [
        {
          "internalType": "bool",
          "name": "",
          "type": "bool"
        }
      ],
      "stateMutability": "view",
      "type": "function"
    },
    {
      "inputs": [
        {
          "internalType": "address",
          "name": "user",
          "type": "address"
        }
      ],
      "name": "holdScore",
      "outputs": [
        {
          "internalType": "uint256",
          "name": "",
          "type": "uint256"
        }
      ],
      "stateMutability": "view",
      "type": "function"
    },
    {
      "inputs": [
        {
          "internalType": "address",
          "name": "",
          "type": "address"
        }
      ],
      "name": "isExcluded",
      "outputs": [
        {
          "internalType": "bool",
          "name": "",
          "type": "bool"
        }
      ],
      "stateMutability": "view",
      "type": "function"
    },
    {
      "inputs": [],
      "name": "keeper",
      "outputs": [
        {
          "internalType": "address",
          "name": "",
          "type": "address"
        }
      ],
      "stateMutability": "view",
      "type": "function"
    },
    {
      "inputs": [],
      "name": "lastRewardTimestamp",
      "outputs": [
        {
          "internalType": "uint256",
          "name": "",
          "type": "uint256"
        }
      ],
      "stateMutability": "view",
      "type": "function"
    },
    {
      "inputs": [],
      "name": "name",
      "outputs": [
        {
          "internalType": "string",
          "name": "",
          "type": "string"
        }
      ],
      "stateMutability": "view",
      "type": "function"
    },
    {
      "inputs": [
        {
          "internalType": "address",
          "name": "_pair",
          "type": "address"
        },
        {
          "internalType": "address",
          "name": "_router",
          "type": "address"
        }
      ],
      "name": "notifyGraduated",
      "outputs": [],
      "stateMutability": "nonpayable",
      "type": "function"
    },
    {
      "inputs": [],
      "name": "orphanedRewardEth",
      "outputs": [
        {
          "internalType": "uint256",
          "name": "",
          "type": "uint256"
        }
      ],
      "stateMutability": "view",
      "type": "function"
    },
    {
      "inputs": [],
      "name": "pendingPlatformEth",
      "outputs": [
        {
          "internalType": "uint256",
          "name": "",
          "type": "uint256"
        }
      ],
      "stateMutability": "view",
      "type": "function"
    },
    {
      "inputs": [
        {
          "internalType": "address",
          "name": "user",
          "type": "address"
        }
      ],
      "name": "pendingRewards",
      "outputs": [
        {
          "internalType": "uint256",
          "name": "",
          "type": "uint256"
        }
      ],
      "stateMutability": "view",
      "type": "function"
    },
    {
      "inputs": [
        {
          "internalType": "address[]",
          "name": "holders",
          "type": "address[]"
        }
      ],
      "name": "pushRewards",
      "outputs": [],
      "stateMutability": "nonpayable",
      "type": "function"
    },
    {
      "inputs": [
        {
          "internalType": "address",
          "name": "account",
          "type": "address"
        },
        {
          "internalType": "bool",
          "name": "excluded",
          "type": "bool"
        }
      ],
      "name": "setExcluded",
      "outputs": [],
      "stateMutability": "nonpayable",
      "type": "function"
    },
    {
      "inputs": [
        {
          "internalType": "address",
          "name": "newKeeper",
          "type": "address"
        }
      ],
      "name": "setKeeper",
      "outputs": [],
      "stateMutability": "nonpayable",
      "type": "function"
    },
    {
      "inputs": [
        {
          "internalType": "uint256",
          "name": "newThreshold",
          "type": "uint256"
        }
      ],
      "name": "setSwapThreshold",
      "outputs": [],
      "stateMutability": "nonpayable",
      "type": "function"
    },
    {
      "inputs": [],
      "name": "swapThreshold",
      "outputs": [
        {
          "internalType": "uint256",
          "name": "",
          "type": "uint256"
        }
      ],
      "stateMutability": "view",
      "type": "function"
    },
    {
      "inputs": [],
      "name": "symbol",
      "outputs": [
        {
          "internalType": "string",
          "name": "",
          "type": "string"
        }
      ],
      "stateMutability": "view",
      "type": "function"
    },
    {
      "inputs": [],
      "name": "totalAccumulatedScore",
      "outputs": [
        {
          "internalType": "uint256",
          "name": "",
          "type": "uint256"
        }
      ],
      "stateMutability": "view",
      "type": "function"
    },
    {
      "inputs": [],
      "name": "totalHoldScoreLive",
      "outputs": [
        {
          "internalType": "uint256",
          "name": "",
          "type": "uint256"
        }
      ],
      "stateMutability": "view",
      "type": "function"
    },
    {
      "inputs": [],
      "name": "totalLastUpdate",
      "outputs": [
        {
          "internalType": "uint256",
          "name": "",
          "type": "uint256"
        }
      ],
      "stateMutability": "view",
      "type": "function"
    },
    {
      "inputs": [],
      "name": "totalSettledBalance",
      "outputs": [
        {
          "internalType": "uint256",
          "name": "",
          "type": "uint256"
        }
      ],
      "stateMutability": "view",
      "type": "function"
    },
    {
      "inputs": [],
      "name": "totalSupply",
      "outputs": [
        {
          "internalType": "uint256",
          "name": "",
          "type": "uint256"
        }
      ],
      "stateMutability": "view",
      "type": "function"
    },
    {
      "inputs": [
        {
          "internalType": "address",
          "name": "to",
          "type": "address"
        },
        {
          "internalType": "uint256",
          "name": "value",
          "type": "uint256"
        }
      ],
      "name": "transfer",
      "outputs": [
        {
          "internalType": "bool",
          "name": "",
          "type": "bool"
        }
      ],
      "stateMutability": "nonpayable",
      "type": "function"
    },
    {
      "inputs": [
        {
          "internalType": "address",
          "name": "from",
          "type": "address"
        },
        {
          "internalType": "address",
          "name": "to",
          "type": "address"
        },
        {
          "internalType": "uint256",
          "name": "value",
          "type": "uint256"
        }
      ],
      "name": "transferFrom",
      "outputs": [
        {
          "internalType": "bool",
          "name": "",
          "type": "bool"
        }
      ],
      "stateMutability": "nonpayable",
      "type": "function"
    },
    {
      "inputs": [],
      "name": "uniswapPair",
      "outputs": [
        {
          "internalType": "address",
          "name": "",
          "type": "address"
        }
      ],
      "stateMutability": "view",
      "type": "function"
    },
    {
      "inputs": [],
      "name": "uniswapRouter",
      "outputs": [
        {
          "internalType": "contract IUniswapV2Router02",
          "name": "",
          "type": "address"
        }
      ],
      "stateMutability": "view",
      "type": "function"
    },
    {
      "inputs": [],
      "name": "withdrawPendingPlatform",
      "outputs": [],
      "stateMutability": "nonpayable",
      "type": "function"
    },
    {
      "stateMutability": "payable",
      "type": "receive"
    }
  ],
  "bytecode": "0x60c0604090808252346200074a5762003cc380380380916200002282856200074f565b83398101906080818303126200074a5780516001600160401b0392908381116200074a5781620000549184016200078f565b60209182840151908582116200074a57620000719185016200078f565b906200008d606062000085888701620007f9565b9501620007f9565b9181518681116200064a5760038054916001948584811c941680156200073f575b8885101462000729578190601f94858111620006d3575b5088908583116001146200066c5760009262000660575b505060001982841b1c191690851b1781555b8251918883116200064a5760049384548681811c911680156200063f575b898210146200062a579081838695949311620005d0575b5088918411600114620005655760009362000559575b505082851b92600019911b1c19161781555b817f9b779b17422d0df92223018b32b4d1fa46e071723d6817e2486d003becc55f005569152d02c7e14af6800000600755846080528260a05260018060a01b03948584169081600052600f865286896000209160ff199286848254161790551660005288600020848282541617905561dead93846000528960002081838254161790553060005289600020818382541617905560008052896000209182541617905542600b55801562000542576b033b2e3c9fd0803ce800000092620002118562000922565b600554978760ff998a81168062000535575b806200051e575b8062000507575b6200034d575b505050505050906200024e62000254928262000898565b62000ab9565b60055483811693846200033f575b50836200032f575b508262000314575b508162000305575b50620002f5575b5161295990816200132a82396080518181816107ac0152818161096001528181610b2a0152818161108b0152818161138c015281816118eb01526124e2015260a05181818161065501528181610846015281816108ee01528181610bce01528181610c7501528181611eb401526120660152f35b620002ff62000dce565b62000281565b9050600654161515386200027a565b60009192503082525281600020546007541115903862000272565b60081c821615159250386200026a565b600854161593503862000262565b60081c16938415948414858615620004ff575b6200036f575b89915062000237565b600096929394959690620004ee575b6101f4908101809111620004d9578083029083820403620004d9576127109004600254946a0c685fa11e01ec6f00000095868101809111620004c45760008051602062003ca38339815191528b8f6000936002558484528382528084208a815401905551898152a36a0c685fa11e01ec6effffff198101818111620004af57806200049c575b5082039182116200048757507fe9bc91a33ddf896d889747b2f39f4192c802fd62364780086853fcd8e19e8ffa6060620002549796946200024e96948d6000959762000468575b905051908152838a820152838d820152a391923880808062000366565b6200047f9187875260098d52421690862062000875565b388d6200044b565b601190634e487b7160e01b6000525260246000fd5b620004a8903062000898565b3862000404565b601183634e487b7160e01b6000525260246000fd5b601184634e487b7160e01b6000525260246000fd5b601182634e487b7160e01b6000525260246000fd5b50620004f962000cea565b6200037e565b508062000360565b5084600052600f89528a8c60002054161562000231565b5060008052600f89528a8c6000205416156200022a565b508a600854161562000223565b875163ec442f0560e01b8152600081840152602490fd5b01519150388062000139565b9190869450601f1984169286600052896000209360005b8b828210620005b957505085116200059e575b50505050811b0181556200014b565b01519060f884600019921b161c19169055388080806200058f565b8385015187558a989096019593840193016200057c565b909192935085600052886000208380870160051c8201928b881062000620575b9189918897969594930160051c01915b8281106200061057505062000123565b6000815587965089910162000600565b92508192620005f0565b602286634e487b7160e01b6000525260246000fd5b90607f16906200010c565b634e487b7160e01b600052604160045260246000fd5b015190503880620000dc565b90879350601f19831691856000528a6000209260005b8c828210620006bc5750508411620006a3575b505050811b018155620000ee565b015160001983861b60f8161c1916905538808062000695565b8385015186558b9790950194938401930162000682565b90915083600052886000208580850160051c8201928b86106200071f575b918991869594930160051c01915b8281106200070f575050620000c5565b60008155859450899101620006ff565b92508192620006f1565b634e487b7160e01b600052602260045260246000fd5b93607f1693620000ae565b600080fd5b601f909101601f19168101906001600160401b038211908210176200064a57604052565b6001600160401b0381116200064a57601f01601f191660200190565b919080601f840112156200074a57825190620007ab8262000773565b91620007bb60405193846200074f565b8083526020918282870101116200074a5760005b818110620007e557508260009394955001015290565b8581018301518482018401528201620007cf565b51906001600160a01b03821682036200074a57565b919082018092116200081c57565b634e487b7160e01b600052601160045260246000fd5b818102929181159184041417156200081c57565b811562000851570490565b634e487b7160e01b600052601260045260246000fd5b919082039182116200081c57565b80546001600160c01b031660c09290921b6001600160c01b031916919091179055565b60008051602062003ca38339815191526020600092620008bb856002546200080e565b6002556001600160a01b03169384158414620008e35780600254036002555b604051908152a3565b84845283825260408420818154019055620008da565b8054600160801b600160c01b03191660809290921b600160801b600160c01b0316919091179055565b6200092d8162000a5a565b1562000a575760018060a01b03166000526009602052620009b86040600020600d5462000961600283019182549062000867565b80620009ba575b505080546001600160401b03906200099c906200098c608082901c84164262000867565b906001600160801b031662000832565b620009ad600184019182546200080e565b9055421690620008f9565b565b600e54835462000a089162000a0190620009ec90608084901c6001600160401b0316908181111562000a4f5762000867565b6001870154926001600160801b031662000832565b906200080e565b8062000a1e575b5050600d549055388062000968565b670de0b6b3a76400009162000a339162000832565b0462000a45600384019182546200080e565b9055388062000a0f565b508062000867565b50565b6001600160a01b0390811690811562000ab25781600052600f60205260ff6040600020541662000ab25760055460081c16801515918262000aa7575b505062000aa257600190565b600090565b149050388062000a96565b5050600090565b62000ac48162000a5a565b1562000a57576001600160a01b03908116600081815260096020526040812092919062000af062000c94565b8181526020819052604081205484546001600160801b0390811680831094919391858062000c8a575b62000bff575b5082818111958660001462000bba575062000b4a92509062000b419162000867565b600c546200080e565b600c555b84546001600160801b0319169116178355426001600160401b03169162000b768385620008f9565b60ff6005541615918262000bb1575b508162000ba2575b5062000b97575050565b620009b89162000875565b905060a0511633143862000b8d565b91503862000b85565b62000bc9575b50505062000b4e565b62000bd49162000867565b600c5481811062000bf75762000beb925062000867565b600c5538808262000bc0565b505062000beb565b6001880180549162000c2962000c218562000c1b898762000832565b62000846565b809462000867565b600a5481811062000c50575062000c449150600a5462000867565b600a555b553862000b1f565b7fd5fc571c0f24626ceeb4a7223a10b7b571f3e6c810a1ec1991ba28b6494b06a19160409182519182526020820152a283600a5562000c48565b5081151562000b19565b62000ca2600b544262000867565b8015158062000cde575b62000cb9575b5042600b55565b62000ccb62000cd491600c5462000832565b600a546200080e565b600a553862000cb2565b50600c54151562000cac565b6000805260096020527fec8156718a8372b1db44bb411437d0870f3e3790d4a08526d024ce1b0b668f6b5460c01c801562000d625762000d2b904262000867565b61012c811062000d5b57610e10811062000d5457620151801162000d4e57600090565b6101f490565b506103e890565b506107d090565b50600090565b80516001101562000d795760400190565b634e487b7160e01b600052603260045260246000fd5b90815180825260208080930193019160005b82811062000db0575050505090565b83516001600160a01b03168552938101939281019260010162000da1565b60009060ff198060085416600181176008553084526020848152604090818620549283156200123a575081516001600160401b03966060820188811183821017620012265784526002825282820184368237825115620012125730905260065484516315ab88c960e31b81526004996001600160a01b03979290919088169086818d81855afa90811562001208578591620011c7575b508862000e718762000d68565b911690523015620011b05780156200119957308452600186528684208185528652828785205586518381527f8c5be1e5ebec7d5bd14f71427d1e84f3dd0314c0f7b2291e5b200ac8c7c3b925873092a3829387600654169487519563d06ca61f60e01b8752848d880152602496898882015286818062000ef5604482018862000d8f565b0381855afa879181620010e1575b50620010a1575b504794813b156200109d5790869291838f62000f4b8d519788968795869463791ac94760e01b86528501528d84015260a0604484015260a483019062000d8f565b30606483015242608483015203925af1918262001076575b505062000f7d575b50505050505090915060085416600855565b62000f89904762000867565b91821598891562000f9c575b5062000f6b565b6003840299848b0460031417156200106557505062000fc6600762000fd997989904809362000867565b948262000fe8575b505050505062001246565b81903880808080808062000f95565b818080858194608051165af1903d156200105e573d90620010098262000773565b9162001018875193846200074f565b8252843d92013e5b6200102e575b808062000fce565b7f693f9dbea0bdf9b70d480f9527e567d17ae3a41a5627c6515b034ac1869cf7a09251908152a138808062001026565b5062001020565b634e487b7160e01b83526011905281fd5b81949294116200108b57865291388062000f63565b634e487b7160e01b825260418b528482fd5b8680fd5b620010ae91925062000d68565b51605a810290808204605a1490151715620010cf5760649004903862000f0a565b634e487b7160e01b865260118d528686fd5b9091503d8089833e620010f581836200074f565b8101908a81830312620011915780519087821162001195570181601f82011215620011915780518781116200117d578c519291600582901b916200113c838f01866200074f565b84528c8085019282010192831162001179578c809101915b838310620011685750505050903862000f03565b82518152918101918d910162001154565b8a80fd5b508f8960418c92634e487b7160e01b835252fd5b8880fd5b8980fd5b8651634a1406b160e11b8152808c01859052602490fd5b865163e602df0560e01b8152808c01859052602490fd5b90508681813d831162001200575b620011e181836200074f565b81010312620011fc57620011f590620007f9565b3862000e64565b8480fd5b503d620011d5565b88513d87823e3d90fd5b634e487b7160e01b82526032600452602482fd5b634e487b7160e01b82526041600452602482fd5b94955050505050600855565b801562000a57576200125762000c94565b600a54801562001307576200127060105480936200080e565b91620012fc575b670de0b6b3a7640000918281029281840414811517156200081c57620012b060409260008051602062003c838339815191529462000846565b8015620012da57620012c590600d546200080e565b80600d5542600e5582519182526020820152a1565b50620012e9816010546200080e565b601055600d5482519182526020820152a1565b600060105562001277565b50604081620012e960008051602062003c83833981519152936010546200080e56fe6080604081815260049182361015610022575b505050361561002057600080fd5b005b600092833560e01c91826303fd2a45146114315750816304279349146113775781630445b6671461135857816306fdde031461128157816307c9bf2e14611248578163095ea7b31461121e57816313b9d47e146111ff57816318160ddd146111e05781631a0108ec146105855781631e4c7292146111ba57816323b872dd146110d05781632836be2414611053578163313ce5671461103757816331d7a2621461101157816347b12bfc14610ff55781634e71d92d14610f3a5781635b09004414610c5357816364229d6814610c3457816370a0823114610bfd5781637165485d14610bb9578163735de9f714610b90578163748747e614610b01578163902d55a514610adb57816395d89b41146109f557816398aecb67146109cf5781639d0014b1146109445781639d6eadc114610925578163a37a9fc014610585578163a47541ba146108dc578163a8355c8f14610817578163a9059cbb146108ab578163aced166114610882578163b78d053814610834578163bacf2a7b14610817578163bb103cbc146107fa578163c1db4015146107db578163c45a015514610797578163c463ecd71461077a578163c5f27b301461075b578163c5f509d614610735578163c7b1280114610622578163c816841b146105f5578163ca81eb66146105c8578163cba0e9961461058a578163ce91e16414610585578163d9019ae914610566578163dbb51d6e146104eb578163dd62ed3e146104a2578163e7c2b7721461047e578163f6ceefa214610284575063f8077fae146102635780610012565b34610280578160031936011261028057602090600e549051908152f35b5080fd5b8383346102805760208060031936011261047a576001600160401b0390843590828211610476573660238301121561047657818601359283116104765760059260243682861b8501820111610472576102db6126ce565b6011546001600160a01b039890891633036104445760968311610412575086938795885b84811061034a57897f0f80654923fb0c7f7a44c79b000dca8e52e2f4a16092a26ff31c0a410291d3318a8a8a8a8351928352820152a160016000805160206128e48339815191525580f35b8381839998991b840101358b81169081810361040e5761036981611d90565b156104005761037790611ce5565b808b526009875260038a8c2001988954998c8b156103f1578080808e818655875af16103a161189e565b50156103e1575090600080516020612864833981519152886103d06103ca8d6103dc97966114e3565b9b6126fe565b9b8d51908152a26126fe565b6102ff565b6103dc93925099909899556126fe565b5050979850506103dc906126fe565b50506103dc909796976126fe565b8b80fd5b600f6064928589519362461bcd60e51b85528401528201526e426174636820746f6f206c6172676560881b6044820152fd5b600b6064928589519362461bcd60e51b85528401528201526a27b7363c9035b2b2b832b960a91b6044820152fd5b8680fd5b8480fd5b8280fd5b50503461028057816003193601126102805760209060ff6005541690519015158152f35b505034610280578060031936011261028057806020926104c0611496565b6104c86114b1565b6001600160a01b0391821683526001865283832091168252845220549051908152f35b5050346102805760203660031901126102805760c09181906001600160a01b03610513611496565b168152600960205220908154916001810154600360028301549201549280519460018060801b038116865260018060401b038160801c166020870152861c908501526060840152608083015260a0820152f35b5050346102805781600319360112610280576020906012549051908152f35b6114c7565b5050346102805760203660031901126102805760209160ff9082906001600160a01b036105b5611496565b168152600f855220541690519015158152f35b505034610280576020366003190112610280576020906105ee6105e9611496565b612258565b9051908152f35b505034610280578160031936011261028057600554905160089190911c6001600160a01b03168152602090f35b9190503461047a578060031936011261047a5761063d611496565b916106466114b1565b6001600160a01b039161067c337f0000000000000000000000000000000000000000000000000000000000000000851614611865565b6005549060ff82166106fe57506001600160a81b031916600885901b610100600160a81b031617600117600555600680546001600160a01b03191691831691909117905591909116808352600f602052908220805460ff191690557fc5ca2014458d93c5cf9f836ff7ece45de01c929dfb16eed9d6c3329fa1fd09828280a280f35b606490602086519162461bcd60e51b83528201526011602482015270105b1c9958591e4819dc98591d585d1959607a1b6044820152fd5b505034610280576020366003190112610280576020906105ee610756611496565b6127c9565b505034610280578160031936011261028057602090600d549051908152f35b505034610280578160031936011261028057602090516103e88152f35b505034610280578160031936011261028057517f00000000000000000000000000000000000000000000000000000000000000006001600160a01b03168152602090f35b505034610280578160031936011261028057602090600a549051908152f35b505034610280578160031936011261028057602090516107d08152f35b505034610280578160031936011261028057602090516101f48152f35b838060031936011261087f57610874337f00000000000000000000000000000000000000000000000000000000000000006001600160a01b031614611865565b61087c6118dd565b80f35b80fd5b50503461028057816003193601126102805760115490516001600160a01b039091168152602090f35b5050346102805780600319360112610280576020906108d56108cb611496565b602435903361153f565b5160018152f35b838060031936011261087f5761091c337f00000000000000000000000000000000000000000000000000000000000000006001600160a01b031614611865565b61087c34612189565b505034610280578160031936011261028057602090600b549051908152f35b90503461047a57602036600319011261047a5780359161098e337f00000000000000000000000000000000000000000000000000000000000000006001600160a01b03161461194e565b821561099c57505060075580f35b906020606492519162461bcd60e51b8352820152600d60248201526c109859081d1a1c995cda1bdb19609a1b6044820152fd5b505034610280578160031936011261028057602090516aa56fa5b99019a5c80000008152f35b838334610280578160031936011261028057805191809380549160019083821c92828516948515610ad1575b6020958686108114610abe57858952908115610a9a5750600114610a5f575b610a5b8787610a51828c0383611506565b519182918261144d565b0390f35b9080949750528583205b828410610a875750505082610a5b94610a5192820101948680610a40565b8054868501880152928601928101610a69565b60ff19168887015250505050151560051b8301019250610a5182610a5b8680610a40565b634e487b7160e01b845260228352602484fd5b93607f1693610a21565b50503461028057816003193601126102805751676765c793fa10079d601b1b8152602090f35b833461087f57602036600319011261087f57610b1b611496565b6001600160a01b0390610b51337f000000000000000000000000000000000000000000000000000000000000000084161461194e565b816011549116809282167f53d3703fe259def57584466f32d1b94c30278008c683c21b04501c4966f13a698580a36001600160a01b0319161760115580f35b50503461028057816003193601126102805760065490516001600160a01b039091168152602090f35b505034610280578160031936011261028057517f00000000000000000000000000000000000000000000000000000000000000006001600160a01b03168152602090f35b5050346102805760203660031901126102805760209181906001600160a01b03610c25611496565b16815280845220549051908152f35b505034610280578160031936011261028057602090600c549051908152f35b8383346102805760208060031936011261047a578335916001600160a01b03917f000000000000000000000000000000000000000000000000000000000000000083811690610ca3338314611865565b8515978815610cb0578780f35b8215610f23578698610cc183611ce5565b610cc9611bb2565b6005549760ff9889811680610f17575b80610f03575b80610eed575b610d94575b5050505080610d028899610d07939996979899611a2a565b611f9d565b610d0f611dda565b6005548681169687610d87575b5086610d77575b505084610d61575b50505081610d53575b50610d46575b80828080808080808780f35b610d4e61231a565b610d3a565b905060065416151582610d34565b3082525283205460075411159150838381610d2b565b60081c8516141594508680610d23565b6008541615965088610d1c565b60081c88168581149261dead92918314848015610ee6575b610db8575b5050610cea565b90919293949c508b90610ed7575b6101f4908101809111610ec457610de390612710918291856119c7565b049160968402908482046096141715610eb0578c9d506060610d079796948a8c9d9e9f809d610e43610d029a988e986000805160206128c48339815191529804958d8780610ea0575b610e3690846119fa565b80610e8e575b50506119fa565b98610e69575b915050519081528b8b8201528b8d820152a3999897969582938c80610db1565b878252600990925220610e8690426001600160401b031690611a07565b8a8c8e610e49565b610e99913090611ac5565b8d38610e3c565b610ea991611a2a565b8d87610e2c565b50634e487b7160e01b8c5260118d5260248cfd5b634e487b7160e01b8c5260118d5260248cfd5b50610ee185612258565b610dc6565b5080610dac565b5061dead8b52600f875289888c20541615610ce5565b50858b52600f875289888c20541615610cdf565b50896008541615610cd9565b8451634b637e8f60e11b8152908101889052602490fd5b9190503461047a578260031936011261047a57610f556126ce565b610f5e33611ce5565b33835260096020526003818420018054928315610fbf5750839055610f928380808086335af1610f8c61189e565b50611989565b5190815260008051602061286483398151915260203392a260016000805160206128e48339815191525580f35b606490602084519162461bcd60e51b8352820152601060248201526f4e6f7468696e6720746f20636c61696d60801b6044820152fd5b5050346102805781600319360112610280576020905160c88152f35b505034610280576020366003190112610280576020906105ee611032611496565b61270d565b5050346102805781600319360112610280576020905160128152f35b50503461028057806003193601126102805761106d611496565b90602435918215158093036110cc576001600160a01b03906110b2337f000000000000000000000000000000000000000000000000000000000000000084161461194e565b168352600f60205282209060ff8019835416911617905580f35b8380fd5b9050823461087f57606036600319011261087f576110ec611496565b6110f46114b1565b916044359360018060a01b038316808352600160205286832033845260205286832054916000198310611130575b6020886108d589898961153f565b86831061119857811561118157331561116a575082526001602090815286832033845281529186902090859003905582906108d587611122565b8751634a1406b160e11b8152908101849052602490fd5b875163e602df0560e01b8152908101849052602490fd5b90506111b6868851938493637dc7a0d960e11b855233908501611847565b0390fd5b505034610280578160031936011261028057516714adf4b7320334b9601d1b8152602090f35b5050346102805781600319360112610280576020906002549051908152f35b5050346102805781600319360112610280576020906010549051908152f35b5050346102805780600319360112610280576020906108d561123e611496565b60243590336117b4565b5050346102805781600319360112610280576020906105ee61126c600b54426119fa565b61127b600a5491600c546119c7565b906114e3565b9190503461047a578260031936011261047a57805191836003549060019082821c92828116801561134e575b602095868610821461133b575084885290811561131957506001146112de575b610a5b8686610a51828b0383611506565b929550600383528583205b8284106113065750505082610a5b94610a519282010194386112cd565b80548685018801529286019281016112e9565b60ff191687860152505050151560051b8301019250610a5182610a5b386112cd565b634e487b7160e01b845260229052602483fd5b93607f16936112ad565b5050346102805781600319360112610280576020906007549051908152f35b9190503461047a578260031936011261047a577f00000000000000000000000000000000000000000000000000000000000000006001600160a01b03166113bf33821461194e565b6012549283156113fc5750916020916113f4858080808660008051602061282483398151915299826012555af1610f8c61189e565b51908152a180f35b606490602084519162461bcd60e51b8352820152600f60248201526e4e6f7468696e672070656e64696e6760881b6044820152fd5b8490346102805781600319360112610280578061dead60209252f35b6020808252825181830181905290939260005b82811061148257505060409293506000838284010152601f8019910116010190565b818101860151848201604001528501611460565b600435906001600160a01b03821682036114ac57565b600080fd5b602435906001600160a01b03821682036114ac57565b346114ac5760003660031901126114ac57602060405160968152f35b919082018092116114f057565b634e487b7160e01b600052601160045260246000fd5b601f909101601f19168101906001600160401b0382119082101761152957604052565b634e487b7160e01b600052604160045260246000fd5b6001600160a01b0392918382169190821561179b5784811691821561178257849261156982611ce5565b61157283611ce5565b600554958760ff9788811680611776575b8061175e575b80611746575b611625575b5050505080610d026115aa9484610d0294611ac5565b6005548281169283611618575b5082611608575b505090816115ec575b816115de575b506115d457565b6115dc61231a565b565b9050600654161515386115cd565b90503060005260006020526040600020546007541115906115c7565b60081c83161415905038806115be565b60085416159250386115b7565b60081c168281149190871480801561173f575b611645575b899150611594565b90919392955060009361172e575b6101f49384018094116114f05761167093612710948591846119c7565b049560968302838104609614841517156114f0576000805160206128c48339815191526060610d02956116c46115aa9b610d029a8e9604928361171f575b6116b884836119fa565b8061170e575b506119fa565b956116e7575b6040519081526000602082015260006040820152a394829361163d565b600085815260096020526040902061170990426001600160401b031690611a07565b6116ca565b61171990308d611ac5565b386116be565b611729848c611a2a565b6116ae565b925061173982612258565b92611653565b5082611638565b5083600052600f60205288604060002054161561158f565b5087600052600f602052886040600020541615611589565b50886008541615611583565b60405163ec442f0560e01b815260006004820152602490fd5b604051634b637e8f60e11b815260006004820152602490fd5b6001600160a01b0390811691821561182e57169182156118155760207f8c5be1e5ebec7d5bd14f71427d1e84f3dd0314c0f7b2291e5b200ac8c7c3b925918360005260018252604060002085600052825280604060002055604051908152a3565b604051634a1406b160e11b815260006004820152602490fd5b60405163e602df0560e01b815260006004820152602490fd5b604091949392606082019560018060a01b0316825260208201520152565b1561186c57565b60405162461bcd60e51b815260206004820152600a6024820152694f6e6c7920637572766560b01b6044820152606490fd5b3d156118d8573d906001600160401b03821161152957604051916118cc601f8201601f191660200184611506565b82523d6000602084013e565b606090565b34156115dc576000808080347f00000000000000000000000000000000000000000000000000000000000000006001600160a01b03165af161191d61189e565b501561193d576000805160206128248339815191526020604051348152a1565b611949346012546114e3565b601255565b1561195557565b60405162461bcd60e51b815260206004820152600c60248201526b4f6e6c7920666163746f727960a01b6044820152606490fd5b1561199057565b60405162461bcd60e51b815260206004820152600f60248201526e115512081cd95b990819985a5b1959608a1b6044820152606490fd5b818102929181159184041417156114f057565b81156119e4570490565b634e487b7160e01b600052601260045260246000fd5b919082039182116114f057565b80546001600160c01b031660c09290921b6001600160c01b031916919091179055565b6001600160a01b0381169081611a7c5750611a47826002546114e3565b6002555b6000805160206128a4833981519152602061dead9384600052600082526040600020818154019055604051908152a3565b60009082825281602052604082205490848210611aa85750836040918484528360205203912055611a4b565b6111b68560405193849363391434e360e21b855260048501611847565b6001600160a01b0380821692909183611b2d57506000805160206128a483398151915291602091611af8866002546114e3565b6002555b169384611b155780600254036002555b604051908152a3565b84600052600082526040600020818154019055611b0c565b60009084825281602052604082205490868210611b6c57509181604087602095886000805160206128a483398151915298965283875203912055611afc565b6111b68760405193849363391434e360e21b855260048501611847565b8054600160801b600160c01b03191660809290921b600160801b600160c01b0316919091179055565b611bba611d21565b156115dc5761dead6000526009602052600d547f960b1051749987b45b5679007fff577a1c2f763ec21c15a6c5eb19307500378780546115dc926000805160206128448339815191529291611c0e916119fa565b80611c5d575b505080546001600160401b0390611c4490611c35608082901c8416426119fa565b906001600160801b03166119c7565b611c53600184019182546114e3565b9055421690611b89565b600e548354611c9e9161127b90611c8a90608084901c6001600160401b03169081811115611cde576119fa565b6001870154926001600160801b03166119c7565b80611cb2575b5050600d5490553880611c14565b670de0b6b3a764000091611cc5916119c7565b04611cd5600384019182546114e3565b90553880611ca4565b50806119fa565b611cee81611d90565b15611d1e5760018060a01b031660005260096020526115dc6040600020600d54611c0e60028301918254906119fa565b50565b61dead6000819052600f6020527f99629f56119585bf27511b6b7d295dffb54757453fcc3dabcf51d92028301f105460ff16611d8a5760055460081c6001600160a01b03168015159182611d80575b5050611d7b57600190565b600090565b1490503880611d70565b50600090565b6001600160a01b03908116908115611dd35781600052600f60205260ff60406000205416611dd35760055460081c168015159182611d80575050611d7b57600190565b5050600090565b611de2611d21565b156115dc5761dead600081815260096020526000805160206128448339815191529190611e0d61213d565b8181526020819052604081205483546001600160801b03908116808310949193918580611f94575b611f26575b50828181119586600014611eea5750611e60925090611e58916119fa565b600c546114e3565b600c555b83546001600160801b0319169116178255426001600160401b031690611e8a8284611b89565b60ff60055416159081611ee2575b5080611eb0575b611ea7575050565b6115dc91611a07565b50337f00000000000000000000000000000000000000000000000000000000000000006001600160a01b031614611e9f565b905038611e98565b611ef7575b505050611e64565b611f00916119fa565b600c54818110611f1f57611f1492506119fa565b600c55388082611eef565b5050611f14565b60018701805491611f4a611f4385611f3e89876119c7565b6119da565b80946119fa565b600a54818110611f6d5750611f629150600a546119fa565b600a555b5538611e3a565b6000805160206129048339815191529160409182519182526020820152a283600a55611f66565b50811515611e35565b611fa681611d90565b15611d1e576001600160a01b039081166000818152600960205260408120929190611fcf61213d565b8181526020819052604081205484546001600160801b03908116808310949193918580612134575b6120d2575b50828181119586600014612096575061201a925090611e58916119fa565b600c555b84546001600160801b0319169116178355426001600160401b0316916120448385611b89565b60ff6005541615918261208e575b5081612062575b50611ea7575050565b90507f000000000000000000000000000000000000000000000000000000000000000016331438612059565b915038612052565b6120a3575b50505061201e565b6120ac916119fa565b600c548181106120cb576120c092506119fa565b600c5538808261209b565b50506120c0565b600188018054916120ea611f4385611f3e89876119c7565b600a5481811061210d57506121029150600a546119fa565b600a555b5538611ffc565b6000805160206129048339815191529160409182519182526020820152a283600a55612106565b50811515611ff7565b612149600b54426119fa565b8015158061217e575b61215e575b5042600b55565b61216d61217591600c546119c7565b600a546114e3565b600a5538612157565b50600c541515612152565b8015611d1e5761219761213d565b600a548015612239576121ad60105480936114e3565b9161222f575b670de0b6b3a7640000918281029281840414811517156114f0576121e8604092600080516020612884833981519152946119da565b801561220f576121fa90600d546114e3565b80600d5542600e5582519182526020820152a1565b5061221c816010546114e3565b601055600d5482519182526020820152a1565b60006010556121b3565b5060408161221c600080516020612884833981519152936010546114e3565b6001600160a01b031660009081526009602052604090205460c01c8015611d8a5761228390426119fa565b61012c81106122b057610e1081106122a95762015180116122a357600090565b6101f490565b506103e890565b506107d090565b8051600110156122c75760400190565b634e487b7160e01b600052603260045260246000fd5b90815180825260208080930193019160005b8281106122fd575050505090565b83516001600160a01b0316855293810193928101926001016122ef565b60009060ff198060085416600181176008553084526020848152604090818620549283156126c2575081516001600160401b039660608201888111838210176126ae578452600282528282018436823782511561269a5730905260065484516315ab88c960e31b81526004996001600160a01b03979290919088169086818d81855afa908115612690579084918691612654575b50916123c8928a6123be896122b7565b91169052306117b4565b829387600654169487519563d06ca61f60e01b8752848d88015260249689888201528681806123fa60448201886122dd565b0381855afa8791816125a8575b5061256c575b504794813b156104725790869291838f61244b8d519788968795869463791ac94760e01b86528501528d84015260a0604484015260a48301906122dd565b30606483015242608483015203925af19182612547575b505061247b575b50505050505090915060085416600855565b61248590476119fa565b918215988915612496575b50612469565b6003840299848b0460031417156125365750506124bc60076124cd9798990480936119fa565b94826124db575b5050505050612189565b819038808080808080612490565b81808481937f0000000000000000000000000000000000000000000000000000000000000000165af161250c61189e565b50612519575b80806124c3565b6000805160206128248339815191529251908152a1388080612512565b634e487b7160e01b83526011905281fd5b819492941161255a578652913880612462565b634e487b7160e01b825260418b528482fd5b6125779192506122b7565b51605a810290808204605a14901517156125965760649004903861240d565b634e487b7160e01b865260118d528686fd5b9091503d8089833e6125ba8183611506565b8101908a8183031261264c57805190878211612650570181601f8201121561264c578051878111612638578c519291600582901b916125fb838f0186611506565b84528c80850192820101928311612634578c809101915b83831061262457505050509038612407565b82518152918101918d9101612612565b8a80fd5b508f8960418c92634e487b7160e01b835252fd5b8880fd5b8980fd5b809250888092503d8311612689575b61266d8183611506565b81010312610476575188811681036104765783906123c86123ae565b503d612663565b88513d87823e3d90fd5b634e487b7160e01b82526032600452602482fd5b634e487b7160e01b82526041600452602482fd5b94955050505050600855565b6000805160206128e483398151915260028154146126ec5760029055565b604051633ee5aeb560e01b8152600490fd5b60001981146114f05760010190565b61271681611d90565b15611d8a5760018060a01b031660005260096020526127586040600020612744600d546002830154906119fa565b906000918061275b575b50600301546114e3565b90565b600e54825461279c9161127b9061278890608084901c6001600160401b03169081811115611cde576119fa565b6001860154926001600160801b03166119c7565b806127a8575b5061274e565b6003929350670de0b6b3a7640000916127c0916119c7565b049190386127a2565b6127d281611d90565b15611d8a576001600160a01b0316600090815260096020526040902080546127589161127b906001612811608085901c6001600160401b0316426119fa565b910154926001600160801b03166119c756fe693f9dbea0bdf9b70d480f9527e567d17ae3a41a5627c6515b034ac1869cf7a0960b1051749987b45b5679007fff577a1c2f763ec21c15a6c5eb193075003785fc30cddea38e2bf4d6ea7d3f9ed3b6ad7f176419f4963bd81318067a4aee73fe8ad0c4905aa5603107e860e0c2b1a78e23eba312c30f8114a70d94d9e187f5afddf252ad1be2c89b69c2b068fc378daa952ba7f163c4a11628f55a4df523b3efe9bc91a33ddf896d889747b2f39f4192c802fd62364780086853fcd8e19e8ffa9b779b17422d0df92223018b32b4d1fa46e071723d6817e2486d003becc55f00d5fc571c0f24626ceeb4a7223a10b7b571f3e6c810a1ec1991ba28b6494b06a1a2646970667358221220704a752f9b60fc48927c334b163f29f01fc177ea4837fdfeb3cb57481bdb557864736f6c634300081400338ad0c4905aa5603107e860e0c2b1a78e23eba312c30f8114a70d94d9e187f5afddf252ad1be2c89b69c2b068fc378daa952ba7f163c4a11628f55a4df523b3ef",
  "linkReferences": {},
  "deployedLinkReferences": {}
}