{
  "_format": "hh-sol-artifact-1",
  "contractName": "AethpadTokenV2",
  "sourceName": "contracts/v2/AethpadTokenV2.sol",
  "abi": [
    {
      "inputs": [
        {
          "internalType": "string",
          "name": "_name",
          "type": "string"
        },
        {
          "internalType": "string",
          "name": "_symbol",
          "type": "string"
        },
        {
          "internalType": "address",
          "name": "_factory",
          "type": "address"
        },
        {
          "internalType": "address",
          "name": "_curve",
          "type": "address"
        }
      ],
      "stateMutability": "nonpayable",
      "type": "constructor"
    },
    {
      "inputs": [
        {
          "internalType": "address",
          "name": "spender",
          "type": "address"
        },
        {
          "internalType": "uint256",
          "name": "allowance",
          "type": "uint256"
        },
        {
          "internalType": "uint256",
          "name": "needed",
          "type": "uint256"
        }
      ],
      "name": "ERC20InsufficientAllowance",
      "type": "error"
    },
    {
      "inputs": [
        {
          "internalType": "address",
          "name": "sender",
          "type": "address"
        },
        {
          "internalType": "uint256",
          "name": "balance",
          "type": "uint256"
        },
        {
          "internalType": "uint256",
          "name": "needed",
          "type": "uint256"
        }
      ],
      "name": "ERC20InsufficientBalance",
      "type": "error"
    },
    {
      "inputs": [
        {
          "internalType": "address",
          "name": "approver",
          "type": "address"
        }
      ],
      "name": "ERC20InvalidApprover",
      "type": "error"
    },
    {
      "inputs": [
        {
          "internalType": "address",
          "name": "receiver",
          "type": "address"
        }
      ],
      "name": "ERC20InvalidReceiver",
      "type": "error"
    },
    {
      "inputs": [
        {
          "internalType": "address",
          "name": "sender",
          "type": "address"
        }
      ],
      "name": "ERC20InvalidSender",
      "type": "error"
    },
    {
      "inputs": [
        {
          "internalType": "address",
          "name": "spender",
          "type": "address"
        }
      ],
      "name": "ERC20InvalidSpender",
      "type": "error"
    },
    {
      "inputs": [],
      "name": "ReentrancyGuardReentrantCall",
      "type": "error"
    },
    {
      "anonymous": false,
      "inputs": [
        {
          "indexed": true,
          "internalType": "address",
          "name": "owner",
          "type": "address"
        },
        {
          "indexed": true,
          "internalType": "address",
          "name": "spender",
          "type": "address"
        },
        {
          "indexed": false,
          "internalType": "uint256",
          "name": "value",
          "type": "uint256"
        }
      ],
      "name": "Approval",
      "type": "event"
    },
    {
      "anonymous": false,
      "inputs": [
        {
          "indexed": true,
          "internalType": "address",
          "name": "pair",
          "type": "address"
        }
      ],
      "name": "Graduated",
      "type": "event"
    },
    {
      "anonymous": false,
      "inputs": [
        {
          "indexed": true,
          "internalType": "address",
          "name": "oldKeeper",
          "type": "address"
        },
        {
          "indexed": true,
          "internalType": "address",
          "name": "newKeeper",
          "type": "address"
        }
      ],
      "name": "KeeperUpdated",
      "type": "event"
    },
    {
      "anonymous": false,
      "inputs": [
        {
          "indexed": false,
          "internalType": "uint256",
          "name": "ethAmount",
          "type": "uint256"
        }
      ],
      "name": "PlatformFeeForwarded",
      "type": "event"
    },
    {
      "anonymous": false,
      "inputs": [
        {
          "indexed": true,
          "internalType": "address",
          "name": "user",
          "type": "address"
        },
        {
          "indexed": false,
          "internalType": "uint256",
          "name": "ethAmount",
          "type": "uint256"
        }
      ],
      "name": "RewardsClaimed",
      "type": "event"
    },
    {
      "anonymous": false,
      "inputs": [
        {
          "indexed": false,
          "internalType": "uint256",
          "name": "ethAmount",
          "type": "uint256"
        },
        {
          "indexed": false,
          "internalType": "uint256",
          "name": "newCumulative",
          "type": "uint256"
        }
      ],
      "name": "RewardsDeposited",
      "type": "event"
    },
    {
      "anonymous": false,
      "inputs": [
        {
          "indexed": false,
          "internalType": "uint256",
          "name": "holderCount",
          "type": "uint256"
        },
        {
          "indexed": false,
          "internalType": "uint256",
          "name": "totalEthSent",
          "type": "uint256"
        }
      ],
      "name": "RewardsPushed",
      "type": "event"
    },
    {
      "anonymous": false,
      "inputs": [
        {
          "indexed": true,
          "internalType": "address",
          "name": "from",
          "type": "address"
        },
        {
          "indexed": true,
          "internalType": "address",
          "name": "to",
          "type": "address"
        },
        {
          "indexed": false,
          "internalType": "uint256",
          "name": "burnAmt",
          "type": "uint256"
        },
        {
          "indexed": false,
          "internalType": "uint256",
          "name": "rewardAmt",
          "type": "uint256"
        },
        {
          "indexed": false,
          "internalType": "uint256",
          "name": "platformAmt",
          "type": "uint256"
        }
      ],
      "name": "TaxTaken",
      "type": "event"
    },
    {
      "anonymous": false,
      "inputs": [
        {
          "indexed": true,
          "internalType": "address",
          "name": "from",
          "type": "address"
        },
        {
          "indexed": true,
          "internalType": "address",
          "name": "to",
          "type": "address"
        },
        {
          "indexed": false,
          "internalType": "uint256",
          "name": "value",
          "type": "uint256"
        }
      ],
      "name": "Transfer",
      "type": "event"
    },
    {
      "inputs": [],
      "name": "BURN_BPS",
      "outputs": [
        {
          "internalType": "uint256",
          "name": "",
          "type": "uint256"
        }
      ],
      "stateMutability": "view",
      "type": "function"
    },
    {
      "inputs": [],
      "name": "CURVE_SUPPLY",
      "outputs": [
        {
          "internalType": "uint256",
          "name": "",
          "type": "uint256"
        }
      ],
      "stateMutability": "view",
      "type": "function"
    },
    {
      "inputs": [],
      "name": "DEAD",
      "outputs": [
        {
          "internalType": "address",
          "name": "",
          "type": "address"
        }
      ],
      "stateMutability": "view",
      "type": "function"
    },
    {
      "inputs": [],
      "name": "GRAD_SUPPLY",
      "outputs": [
        {
          "internalType": "uint256",
          "name": "",
          "type": "uint256"
        }
      ],
      "stateMutability": "view",
      "type": "function"
    },
    {
      "inputs": [],
      "name": "PLATFORM_BPS",
      "outputs": [
        {
          "internalType": "uint256",
          "name": "",
          "type": "uint256"
        }
      ],
      "stateMutability": "view",
      "type": "function"
    },
    {
      "inputs": [],
      "name": "REWARD_BPS",
      "outputs": [
        {
          "internalType": "uint256",
          "name": "",
          "type": "uint256"
        }
      ],
      "stateMutability": "view",
      "type": "function"
    },
    {
      "inputs": [],
      "name": "SNIPE_BPS_1HR",
      "outputs": [
        {
          "internalType": "uint256",
          "name": "",
          "type": "uint256"
        }
      ],
      "stateMutability": "view",
      "type": "function"
    },
    {
      "inputs": [],
      "name": "SNIPE_BPS_24HR",
      "outputs": [
        {
          "internalType": "uint256",
          "name": "",
          "type": "uint256"
        }
      ],
      "stateMutability": "view",
      "type": "function"
    },
    {
      "inputs": [],
      "name": "SNIPE_BPS_5MIN",
      "outputs": [
        {
          "internalType": "uint256",
          "name": "",
          "type": "uint256"
        }
      ],
      "stateMutability": "view",
      "type": "function"
    },
    {
      "inputs": [],
      "name": "TOTAL_SUPPLY",
      "outputs": [
        {
          "internalType": "uint256",
          "name": "",
          "type": "uint256"
        }
      ],
      "stateMutability": "view",
      "type": "function"
    },
    {
      "inputs": [],
      "name": "TOTAL_TAX_BPS",
      "outputs": [
        {
          "internalType": "uint256",
          "name": "",
          "type": "uint256"
        }
      ],
      "stateMutability": "view",
      "type": "function"
    },
    {
      "inputs": [
        {
          "internalType": "address",
          "name": "owner",
          "type": "address"
        },
        {
          "internalType": "address",
          "name": "spender",
          "type": "address"
        }
      ],
      "name": "allowance",
      "outputs": [
        {
          "internalType": "uint256",
          "name": "",
          "type": "uint256"
        }
      ],
      "stateMutability": "view",
      "type": "function"
    },
    {
      "inputs": [
        {
          "internalType": "address",
          "name": "seller",
          "type": "address"
        }
      ],
      "name": "antiSnipeBpsFor",
      "outputs": [
        {
          "internalType": "uint256",
          "name": "",
          "type": "uint256"
        }
      ],
      "stateMutability": "view",
      "type": "function"
    },
    {
      "inputs": [
        {
          "internalType": "address",
          "name": "spender",
          "type": "address"
        },
        {
          "internalType": "uint256",
          "name": "value",
          "type": "uint256"
        }
      ],
      "name": "approve",
      "outputs": [
        {
          "internalType": "bool",
          "name": "",
          "type": "bool"
        }
      ],
      "stateMutability": "nonpayable",
      "type": "function"
    },
    {
      "inputs": [
        {
          "internalType": "address",
          "name": "account",
          "type": "address"
        }
      ],
      "name": "balanceOf",
      "outputs": [
        {
          "internalType": "uint256",
          "name": "",
          "type": "uint256"
        }
      ],
      "stateMutability": "view",
      "type": "function"
    },
    {
      "inputs": [
        {
          "internalType": "uint256",
          "name": "amount",
          "type": "uint256"
        }
      ],
      "name": "burnFromCurve",
      "outputs": [],
      "stateMutability": "nonpayable",
      "type": "function"
    },
    {
      "inputs": [
        {
          "internalType": "address",
          "name": "",
          "type": "address"
        }
      ],
      "name": "checkpoints",
      "outputs": [
        {
          "internalType": "uint128",
          "name": "balance",
          "type": "uint128"
        },
        {
          "internalType": "uint64",
          "name": "lastUpdate",
          "type": "uint64"
        },
        {
          "internalType": "uint64",
          "name": "lastBuyAt",
          "type": "uint64"
        },
        {
          "internalType": "uint256",
          "name": "accumulatedScore",
          "type": "uint256"
        },
        {
          "internalType": "uint256",
          "name": "ethPerScorePaid",
          "type": "uint256"
        },
        {
          "internalType": "uint256",
          "name": "pendingEth",
          "type": "uint256"
        }
      ],
      "stateMutability": "view",
      "type": "function"
    },
    {
      "inputs": [],
      "name": "claim",
      "outputs": [],
      "stateMutability": "nonpayable",
      "type": "function"
    },
    {
      "inputs": [],
      "name": "cumulativeEthPerScore",
      "outputs": [
        {
          "internalType": "uint256",
          "name": "",
          "type": "uint256"
        }
      ],
      "stateMutability": "view",
      "type": "function"
    },
    {
      "inputs": [],
      "name": "curve",
      "outputs": [
        {
          "internalType": "address",
          "name": "",
          "type": "address"
        }
      ],
      "stateMutability": "view",
      "type": "function"
    },
    {
      "inputs": [],
      "name": "decimals",
      "outputs": [
        {
          "internalType": "uint8",
          "name": "",
          "type": "uint8"
        }
      ],
      "stateMutability": "view",
      "type": "function"
    },
    {
      "inputs": [],
      "name": "depositEthPlatform",
      "outputs": [],
      "stateMutability": "payable",
      "type": "function"
    },
    {
      "inputs": [],
      "name": "depositEthReward",
      "outputs": [],
      "stateMutability": "payable",
      "type": "function"
    },
    {
      "inputs": [],
      "name": "factory",
      "outputs": [
        {
          "internalType": "address",
          "name": "",
          "type": "address"
        }
      ],
      "stateMutability": "view",
      "type": "function"
    },
    {
      "inputs": [],
      "name": "graduated",
      "outputs": [
        {
          "internalType": "bool",
          "name": "",
          "type": "bool"
        }
      ],
      "stateMutability": "view",
      "type": "function"
    },
    {
      "inputs": [
        {
          "internalType": "address",
          "name": "user",
          "type": "address"
        }
      ],
      "name": "holdScore",
      "outputs": [
        {
          "internalType": "uint256",
          "name": "",
          "type": "uint256"
        }
      ],
      "stateMutability": "view",
      "type": "function"
    },
    {
      "inputs": [
        {
          "internalType": "address",
          "name": "",
          "type": "address"
        }
      ],
      "name": "isExcluded",
      "outputs": [
        {
          "internalType": "bool",
          "name": "",
          "type": "bool"
        }
      ],
      "stateMutability": "view",
      "type": "function"
    },
    {
      "inputs": [],
      "name": "keeper",
      "outputs": [
        {
          "internalType": "address",
          "name": "",
          "type": "address"
        }
      ],
      "stateMutability": "view",
      "type": "function"
    },
    {
      "inputs": [],
      "name": "name",
      "outputs": [
        {
          "internalType": "string",
          "name": "",
          "type": "string"
        }
      ],
      "stateMutability": "view",
      "type": "function"
    },
    {
      "inputs": [
        {
          "internalType": "address",
          "name": "_pair",
          "type": "address"
        },
        {
          "internalType": "address",
          "name": "_router",
          "type": "address"
        }
      ],
      "name": "notifyGraduated",
      "outputs": [],
      "stateMutability": "nonpayable",
      "type": "function"
    },
    {
      "inputs": [
        {
          "internalType": "address",
          "name": "user",
          "type": "address"
        }
      ],
      "name": "pendingRewards",
      "outputs": [
        {
          "internalType": "uint256",
          "name": "",
          "type": "uint256"
        }
      ],
      "stateMutability": "view",
      "type": "function"
    },
    {
      "inputs": [
        {
          "internalType": "address[]",
          "name": "holders",
          "type": "address[]"
        }
      ],
      "name": "pushRewards",
      "outputs": [],
      "stateMutability": "nonpayable",
      "type": "function"
    },
    {
      "inputs": [
        {
          "internalType": "address",
          "name": "account",
          "type": "address"
        },
        {
          "internalType": "bool",
          "name": "excluded",
          "type": "bool"
        }
      ],
      "name": "setExcluded",
      "outputs": [],
      "stateMutability": "nonpayable",
      "type": "function"
    },
    {
      "inputs": [
        {
          "internalType": "address",
          "name": "newKeeper",
          "type": "address"
        }
      ],
      "name": "setKeeper",
      "outputs": [],
      "stateMutability": "nonpayable",
      "type": "function"
    },
    {
      "inputs": [
        {
          "internalType": "uint256",
          "name": "newThreshold",
          "type": "uint256"
        }
      ],
      "name": "setSwapThreshold",
      "outputs": [],
      "stateMutability": "nonpayable",
      "type": "function"
    },
    {
      "inputs": [],
      "name": "swapThreshold",
      "outputs": [
        {
          "internalType": "uint256",
          "name": "",
          "type": "uint256"
        }
      ],
      "stateMutability": "view",
      "type": "function"
    },
    {
      "inputs": [],
      "name": "symbol",
      "outputs": [
        {
          "internalType": "string",
          "name": "",
          "type": "string"
        }
      ],
      "stateMutability": "view",
      "type": "function"
    },
    {
      "inputs": [],
      "name": "totalAccumulatedScore",
      "outputs": [
        {
          "internalType": "uint256",
          "name": "",
          "type": "uint256"
        }
      ],
      "stateMutability": "view",
      "type": "function"
    },
    {
      "inputs": [],
      "name": "totalHoldScoreLive",
      "outputs": [
        {
          "internalType": "uint256",
          "name": "",
          "type": "uint256"
        }
      ],
      "stateMutability": "view",
      "type": "function"
    },
    {
      "inputs": [],
      "name": "totalLastUpdate",
      "outputs": [
        {
          "internalType": "uint256",
          "name": "",
          "type": "uint256"
        }
      ],
      "stateMutability": "view",
      "type": "function"
    },
    {
      "inputs": [],
      "name": "totalSettledBalance",
      "outputs": [
        {
          "internalType": "uint256",
          "name": "",
          "type": "uint256"
        }
      ],
      "stateMutability": "view",
      "type": "function"
    },
    {
      "inputs": [],
      "name": "totalSupply",
      "outputs": [
        {
          "internalType": "uint256",
          "name": "",
          "type": "uint256"
        }
      ],
      "stateMutability": "view",
      "type": "function"
    },
    {
      "inputs": [
        {
          "internalType": "address",
          "name": "to",
          "type": "address"
        },
        {
          "internalType": "uint256",
          "name": "value",
          "type": "uint256"
        }
      ],
      "name": "transfer",
      "outputs": [
        {
          "internalType": "bool",
          "name": "",
          "type": "bool"
        }
      ],
      "stateMutability": "nonpayable",
      "type": "function"
    },
    {
      "inputs": [
        {
          "internalType": "address",
          "name": "from",
          "type": "address"
        },
        {
          "internalType": "address",
          "name": "to",
          "type": "address"
        },
        {
          "internalType": "uint256",
          "name": "value",
          "type": "uint256"
        }
      ],
      "name": "transferFrom",
      "outputs": [
        {
          "internalType": "bool",
          "name": "",
          "type": "bool"
        }
      ],
      "stateMutability": "nonpayable",
      "type": "function"
    },
    {
      "inputs": [],
      "name": "uniswapPair",
      "outputs": [
        {
          "internalType": "address",
          "name": "",
          "type": "address"
        }
      ],
      "stateMutability": "view",
      "type": "function"
    },
    {
      "inputs": [],
      "name": "uniswapRouter",
      "outputs": [
        {
          "internalType": "contract IUniswapV2Router02",
          "name": "",
          "type": "address"
        }
      ],
      "stateMutability": "view",
      "type": "function"
    },
    {
      "stateMutability": "payable",
      "type": "receive"
    }
  ],
  "bytecode": "0x60c060409080825234620007315762003620803803809162000022828562000736565b83398101608082820312620007315781516001600160401b03908181116200073157826200005291850162000776565b91602090818501519083821162000731576200007091860162000776565b916200008c606062000084888801620007e0565b9601620007e0565b928451828111620006315760038054916001978884811c9416801562000726575b8785101462000710578190601f94858111620006ba575b508790858311600114620006535760009262000647575b505060001982841b1c191690881b1781555b825191848311620006315760049384548981811c9116801562000626575b8882101462000611579081838695949311620005b7575b50879184116001146200054c5760009362000540575b505082881b92600019911b1c19161781555b7f9b779b17422d0df92223018b32b4d1fa46e071723d6817e2486d003becc55f0085905569152d02c7e14af6800000600755608086905260a08490526001600160a01b039384811692831562000529576b033b2e3c9fd0803ce800000090620001b38362000909565b600554938760ff95868116806200051c575b8062000505575b80620004ee575b62000342575b5050505081620001f3620001f992600e979695946200087f565b62000a20565b84600554828116928362000334575b508262000324575b5050806200030b575b80620002fd575b620002ed575b60005252836000209260ff199383858254161790551660005282600020818382541617905561dead6000528260002081838254161790553060005282600020818382541617905560008052826000209182541617905542600b55516125289081620010b882396080518181816106ed015281816107c60152818161092d01528181610af40152818161107e0152612147015260a05181818161059a0152818161078e015281816108b601528181610b9601528181610c3a01528181611c2c0152611dbb0152f35b620002f762000c9a565b62000226565b508360065416151562000220565b5030600052600082528660002054600754111562000219565b60081c1615159050843862000210565b600854161592503862000208565b60081c16918215928714838415620004e6575b62000364575b899150620001d9565b6000949192939490620004d5575b6101f4908101809111620004c0578082029082820403620004c057612710900492600254936a0c685fa11e01ec6f00000094858101809111620004ab576002558d6000600080516020620036008339815191528c61dead938484528382528084208a815401905551898152a36a0c685fa11e01ec6effffff198101818111620004ab578062000498575b508203918211620004835750928660007fe9bc91a33ddf896d889747b2f39f4192c802fd62364780086853fcd8e19e8ffa60608f96838d9c9b9a9881600e9f620001f39a620001f99d9a62000465575b508251948552840152820152a39282949596976200035b565b6200047c908a84526009835242168484206200085c565b386200044c565b601190634e487b7160e01b6000525260246000fd5b620004a490306200087f565b38620003fc565b601183634e487b7160e01b6000525260246000fd5b601184634e487b7160e01b6000525260246000fd5b50620004e062000c1c565b62000372565b508062000355565b5087600052600e8952868d600020541615620001d3565b5060008052600e8952868d600020541615620001cc565b50866008541615620001c5565b885163ec442f0560e01b8152600081850152602490fd5b01519150388062000138565b9190899450601f1984169286600052886000209360005b8a828210620005a0575050851162000585575b50505050811b0181556200014a565b01519060f884600019921b161c191690553880808062000576565b8385015187558d9890960195938401930162000563565b909192935085600052876000208380870160051c8201928a881062000607575b918c918897969594930160051c01915b828110620005f757505062000122565b600081558796508c9101620005e7565b92508192620005d7565b602286634e487b7160e01b6000525260246000fd5b90607f16906200010b565b634e487b7160e01b600052604160045260246000fd5b015190503880620000db565b908a9350601f1983169185600052896000209260005b8b828210620006a357505084116200068a575b505050811b018155620000ed565b015160001983861b60f8161c191690553880806200067c565b8385015186558e9790950194938401930162000669565b90915083600052876000208580850160051c8201928a861062000706575b918c91869594930160051c01915b828110620006f6575050620000c4565b600081558594508c9101620006e6565b92508192620006d8565b634e487b7160e01b600052602260045260246000fd5b93607f1693620000ad565b600080fd5b601f909101601f19168101906001600160401b038211908210176200063157604052565b6001600160401b0381116200063157601f01601f191660200190565b919080601f84011215620007315782519062000792826200075a565b91620007a2604051938462000736565b808352602091828287010111620007315760005b818110620007cc57508260009394955001015290565b8581018301518482018401528201620007b6565b51906001600160a01b03821682036200073157565b919082018092116200080357565b634e487b7160e01b600052601160045260246000fd5b818102929181159184041417156200080357565b811562000838570490565b634e487b7160e01b600052601260045260246000fd5b919082039182116200080357565b80546001600160c01b031660c09290921b6001600160c01b031916919091179055565b600080516020620036008339815191526020600092620008a285600254620007f5565b6002556001600160a01b03169384158414620008ca5780600254036002555b604051908152a3565b84845283825260408420818154019055620008c1565b8054600160801b600160c01b03191660809290921b600160801b600160c01b0316919091179055565b6200091481620009f2565b15620009ef576001600160a01b031660009081526009602052604090208054620009b391906001600160401b03906200097d62000958608083901c8416426200084e565b6001850180549093909162000976916001600160801b031662000819565b90620007f5565b90600d546200099360028601918254906200084e565b80151580620009e5575b620009b5575b50600d54905555421690620008e0565b565b620009ca670de0b6b3a7640000918562000819565b04620009dc60038701918254620007f5565b905538620009a3565b508315156200099d565b50565b6001600160a01b0316801515908162000a09575090565b9050600052600e60205260ff604060002054161590565b62000a2b81620009f2565b15620009ef576001600160a01b039081166000818152600960205260408120929162000a5662000bc6565b81526020819052604081205483546001600160801b039081168083109391929190848062000bbc575b62000b64575b82818111958660001462000b1f575062000aaf92509062000aa6916200084e565b600c54620007f5565b600c555b84546001600160801b0319169116178355426001600160401b03169162000adb8385620008e0565b60ff6005541615918262000b16575b508162000b07575b5062000afc575050565b620009b3916200085c565b905060a0511633143862000af2565b91503862000aea565b62000b2e575b50505062000ab3565b62000b39916200084e565b600c5481811062000b5c5762000b5092506200084e565b600c5538808262000b25565b505062000b50565b6001870180549062000b8e62000b868462000b80888662000819565b6200082d565b80936200084e565b600a54811162000bb15762000ba690600a546200084e565b600a555b5562000a85565b5083600a5562000baa565b5080151562000a7f565b62000bd4600b54426200084e565b8015158062000c10575b62000beb575b5042600b55565b62000bfd62000c0691600c5462000819565b600a54620007f5565b600a553862000be4565b50600c54151562000bde565b6000805260096020527fec8156718a8372b1db44bb411437d0870f3e3790d4a08526d024ce1b0b668f6b5460c01c801562000c945762000c5d90426200084e565b61012c811062000c8d57610e10811062000c8657620151801162000c8057600090565b6101f490565b506103e890565b506107d090565b50600090565b60009060ff198060085416926001908185176008553081526020818152604091828120549687156200100e57508251936001600160401b03606086018181118782101762000ffa578552600286528386019885368b3786511562000fe657308a5260065486516315ab88c960e31b815260049b6001600160a01b0399929091908a169088818f81855afa90811562000fdc57889162000f9f575b50835187101562000f8b578a1689840152301562000f7457801562000f5d573087528588528887208188528852838988205588518481527f8c5be1e5ebec7d5bd14f71427d1e84f3dd0314c0f7b2291e5b200ac8c7c3b925893092a34794896006541692833b1562000f5957895163791ac94760e01b8152808f01959095526024850188905260a060448601525160a4850181905287938593909260c4850192868c8f5b83831062000f3c575050505050508383809230606483015242608483015203925af1918262000f14575b505062000e1b575b505050505090915060085416600855565b62000e2790476200084e565b908115801562000e39575b5062000e0a565b6003830290838204600314171562000f015762000e7696979850600762000e63910480936200084e565b948262000e84575b50505050506200101b565b819038808080808062000e32565b818080858194608051165af1903d1562000efa573d9062000ea5826200075a565b9162000eb48751938462000736565b8252843d92013e5b62000eca575b808062000e6b565b7f693f9dbea0bdf9b70d480f9527e567d17ae3a41a5627c6515b034ac1869cf7a09251908152a138808062000ec2565b5062000ebc565b634e487b7160e01b825260118952602482fd5b819492941162000f2957855291388062000e02565b634e487b7160e01b825260418a52602482fd5b85511686528c9850899750948501949093019282018c8f62000dd8565b8780fd5b8851634a1406b160e11b8152808e01889052602490fd5b885163e602df0560e01b8152808e01889052602490fd5b50634e487b7160e01b875260328d52602487fd5b90508881813d831162000fd4575b62000fb9818362000736565b8101031262000f595762000fcd90620007e0565b3862000d34565b503d62000fad565b8a513d8a823e3d90fd5b634e487b7160e01b84526032600452602484fd5b634e487b7160e01b84526041600452602484fd5b9596505050505050600855565b8015620009ef576200102c62000bc6565b600a549081156200109257670de0b6b3a7640000810290670de0b6b3a763ffff198183040162000803576200108162001078600080516020620035e0833981519152946040946200082d565b600d54620007f5565b80600d5582519182526020820152a1565b600080516020620035e08339815191529150604090600d5482519182526020820152a156fe608060409080825260049182361015610023575b505050361561002157600080fd5b005b600091823560e01c90816303fd2a4514611346575080630445b6671461132857806306fdde031461125157806307c9bf2e14611219578063095ea7b3146111f057806318160ddd146111d25780631e4c7292146111ad57806323b872dd146110c35780632836be2414611047578063313ce5671461102c57806331d7a2621461100757806347b12bfc14610fec5780634e71d92d14610eff5780635b09004414610c1957806364229d6814610bfb57806370a0823114610bc55780637165485d14610b82578063735de9f714610b5a578063748747e614610acb578063902d55a514610aa657806395d89b41146109c157806398aecb671461099c5780639d0014b1146109115780639d6eadc1146108f3578063a37a9fc0146104cd578063a47541ba146108a4578063a8355c8f14610756578063a9059cbb14610874578063aced16611461084c578063b78d053814610772578063bacf2a7b14610756578063bb103cbc1461073a578063c1db40151461071c578063c45a0155146106d9578063c463ecd7146106bd578063c5f27b301461069f578063c5f509d61461067a578063c7b1280114610567578063c816841b1461053b578063ca81eb661461050f578063cba0e996146104d2578063ce91e164146104cd578063dbb51d6e14610453578063dd62ed3e1461040b578063e7c2b772146103e85763f6ceefa20361001357346103e4576020806003193601126103e0576001600160401b03908435908282116103dc57366023830112156103dc57818601359283116103dc5760059260243682861b85018201116103d85761027b612287565b600f546001600160a01b039890891633036103aa575086938795885b8481106102e257897f0f80654923fb0c7f7a44c79b000dca8e52e2f4a16092a26ff31c0a410291d3318a8a8a8a8351928352820152a160016000805160206124d38339815191525580f35b8381839998991b840101358b8116908181036103a65761030181611b27565b156103985761030f90611aa8565b808b526009875260038a8c2001988954998c8b15610389578080808e818655875af16103396117b3565b5015610379575090600080516020612453833981519152886103686103628d61037497966113f8565b9b6122b7565b9b8d51908152a26122b7565b610297565b61037493925099909899556122b7565b505097985050610374906122b7565b5050610374909796976122b7565b8b80fd5b600b6064928589519362461bcd60e51b85528401528201526a27b7363c9035b2b2b832b960a91b6044820152fd5b8680fd5b8480fd5b8280fd5b5080fd5b50346103e457816003193601126103e45760209060ff6005541690519015158152f35b50346103e457806003193601126103e457806020926104286113ab565b6104306113c6565b6001600160a01b0391821683526001865283832091168252845220549051908152f35b50346103e45760203660031901126103e45760c09181906001600160a01b0361047a6113ab565b168152600960205220908154916001810154600360028301549201549280519460018060801b038116865260018060401b038160801c166020870152861c908501526060840152608083015260a0820152f35b6113dc565b50346103e45760203660031901126103e45760209160ff9082906001600160a01b036104fc6113ab565b168152600e855220541690519015158152f35b50346103e45760203660031901126103e45760209061053461052f6113ab565b611f4e565b9051908152f35b50346103e457816003193601126103e457600554905160089190911c6001600160a01b03168152602090f35b508290346103e057806003193601126103e0576105826113ab565b9161058b6113c6565b6001600160a01b03916105c1337f000000000000000000000000000000000000000000000000000000000000000085161461177a565b6005549060ff821661064357506001600160a81b031916600885901b610100600160a81b031617600117600555600680546001600160a01b03191691831691909117905591909116808352600e602052908220805460ff191690557fc5ca2014458d93c5cf9f836ff7ece45de01c929dfb16eed9d6c3329fa1fd09828280a280f35b606490602086519162461bcd60e51b83528201526011602482015270105b1c9958591e4819dc98591d585d1959607a1b6044820152fd5b50346103e45760203660031901126103e45760209061053461069a6113ab565b61237d565b50346103e457816003193601126103e457602090600d549051908152f35b50346103e457816003193601126103e457602090516103e88152f35b50346103e457816003193601126103e457517f00000000000000000000000000000000000000000000000000000000000000006001600160a01b03168152602090f35b50346103e457816003193601126103e457602090600a549051908152f35b50346103e457816003193601126103e457602090516107d08152f35b50346103e457816003193601126103e457602090516101f48152f35b5082826003193601126103e057826001600160a01b036107b5337f000000000000000000000000000000000000000000000000000000000000000083161461177a565b346107be575080f35b8180809234907f0000000000000000000000000000000000000000000000000000000000000000165af16107f06117b3565b5015610814575060206000805160206124138339815191529151348152a181808280f35b6020606492519162461bcd60e51b83528201526013602482015272141b185d199bdc9b48199dd90819985a5b1959606a1b6044820152fd5b50346103e457816003193601126103e457600f5490516001600160a01b039091168152602090f35b50346103e457806003193601126103e45760209061089d6108936113ab565b6024359033611454565b5160018152f35b82806003193601126108f0576108e4337f00000000000000000000000000000000000000000000000000000000000000006001600160a01b03161461177a565b6108ed34611ebd565b80f35b80fd5b50346103e457816003193601126103e457602090600b549051908152f35b5082346103e05760203660031901126103e05780359161095b337f00000000000000000000000000000000000000000000000000000000000000006001600160a01b0316146123d7565b821561096957505060075580f35b906020606492519162461bcd60e51b8352820152600d60248201526c109859081d1a1c995cda1bdb19609a1b6044820152fd5b50346103e457816003193601126103e457602090516aa56fa5b99019a5c80000008152f35b50346103e457816003193601126103e457805191809380549160019083821c92828516948515610a9c575b6020958686108114610a8957858952908115610a655750600114610a2a575b610a268787610a1c828c038361141b565b5191829182611362565b0390f35b9080949750528583205b828410610a525750505082610a2694610a1c92820101943880610a0b565b8054868501880152928601928101610a34565b60ff19168887015250505050151560051b8301019250610a1c82610a263880610a0b565b634e487b7160e01b845260228352602484fd5b93607f16936109ec565b50346103e457816003193601126103e45751676765c793fa10079d601b1b8152602090f35b82346108f05760203660031901126108f057610ae56113ab565b6001600160a01b0390610b1b337f00000000000000000000000000000000000000000000000000000000000000008416146123d7565b81600f549116809282167f53d3703fe259def57584466f32d1b94c30278008c683c21b04501c4966f13a698580a36001600160a01b03191617600f5580f35b50346103e457816003193601126103e45760065490516001600160a01b039091168152602090f35b50346103e457816003193601126103e457517f00000000000000000000000000000000000000000000000000000000000000006001600160a01b03168152602090f35b50346103e45760203660031901126103e45760209181906001600160a01b03610bec6113ab565b16815280845220549051908152f35b50346103e457816003193601126103e457602090600c549051908152f35b50346103e4576020806003193601126103e0578335916001600160a01b03917f000000000000000000000000000000000000000000000000000000000000000083811690610c6833831461177a565b8515978815610c75578780f35b8215610ee8578698610c8683611aa8565b610c8e6119dd565b6005549760ff9889811680610edc575b80610ec8575b80610eb2575b610d59575b5050505080610cc78899610ccc939996979899611855565b611cf4565b610cd4611b54565b6005548681169687610d4c575b5086610d3c575b505084610d26575b50505081610d18575b50610d0b575b80388080808080808780f35b610d13611fb3565b610cff565b905060065416151538610cf9565b3082525283205460075411159150388381610cf0565b60081c8516141594503880610ce8565b6008541615965038610ce1565b60081c88168581149261dead92918314848015610eab575b610d7d575b5050610caf565b90919293949c508b90610e9c575b6101f4908101809111610e8957610da890612710918291856117f2565b049160968402908482046096141715610e75578c9d506060610ccc9796948a8c9d9e9f809d610e08610cc79a988e986000805160206124b38339815191529804958d8780610e65575b610dfb9084611825565b80610e53575b5050611825565b98610e2e575b915050519081528b8b8201528b8d820152a3999897969582933880610d76565b878252600990925220610e4b90426001600160401b031690611832565b8a8c8e610e0e565b610e5e9130906118f0565b8d38610e01565b610e6e91611855565b8d87610df1565b50634e487b7160e01b8c5260118d5260248cfd5b634e487b7160e01b8c5260118d5260248cfd5b50610ea685611f4e565b610d8b565b5080610d71565b5061dead8b52600e875289888c20541615610caa565b50858b52600e875289888c20541615610ca4565b50896008541615610c9e565b8451634b637e8f60e11b8152908101889052602490fd5b508290346103e057826003193601126103e057610f1a612287565b610f2333611aa8565b3383526009602052600381842001918254928315610fb6578490558380808086335af1610f4e6117b3565b5015610f8257505190815260008051602061245383398151915260203392a260016000805160206124d38339815191525580f35b6020606492519162461bcd60e51b8352820152600f60248201526e115512081cd95b990819985a5b1959608a1b6044820152fd5b506020606492519162461bcd60e51b8352820152601060248201526f4e6f7468696e6720746f20636c61696d60801b6044820152fd5b50346103e457816003193601126103e4576020905160c88152f35b50346103e45760203660031901126103e4576020906105346110276113ab565b6122c6565b50346103e457816003193601126103e4576020905160128152f35b50346103e457806003193601126103e4576110606113ab565b90602435918215158093036110bf576001600160a01b03906110a5337f00000000000000000000000000000000000000000000000000000000000000008416146123d7565b168352600e60205282209060ff8019835416911617905580f35b8380fd5b509190346108f05760603660031901126108f0576110df6113ab565b6110e76113c6565b916044359360018060a01b038316808352600160205286832033845260205286832054916000198310611123575b60208861089d898989611454565b86831061118b57811561117457331561115d5750825260016020908152868320338452815291869020908590039055829061089d38611115565b8751634a1406b160e11b8152908101849052602490fd5b875163e602df0560e01b8152908101849052602490fd5b90506111a9868851938493637dc7a0d960e11b85523390850161175c565b0390fd5b50346103e457816003193601126103e457516714adf4b7320334b9601d1b8152602090f35b50346103e457816003193601126103e4576020906002549051908152f35b50346103e457806003193601126103e45760209061089d61120f6113ab565b60243590336116c9565b50346103e457816003193601126103e45760209061053461123c600b5442611825565b61124b600a5491600c546117f2565b906113f8565b508290346103e057826003193601126103e057805191836003549060019082821c92828116801561131e575b602095868610821461130b57508488529081156112e957506001146112ae575b610a268686610a1c828b038361141b565b929550600383528583205b8284106112d65750505082610a2694610a1c92820101948661129d565b80548685018801529286019281016112b9565b60ff191687860152505050151560051b8301019250610a1c82610a268661129d565b634e487b7160e01b845260229052602483fd5b93607f169361127d565b50346103e457816003193601126103e4576020906007549051908152f35b8390346103e457816003193601126103e4578061dead60209252f35b6020808252825181830181905290939260005b82811061139757505060409293506000838284010152601f8019910116010190565b818101860151848201604001528501611375565b600435906001600160a01b03821682036113c157565b600080fd5b602435906001600160a01b03821682036113c157565b346113c15760003660031901126113c157602060405160968152f35b9190820180921161140557565b634e487b7160e01b600052601160045260246000fd5b601f909101601f19168101906001600160401b0382119082101761143e57604052565b634e487b7160e01b600052604160045260246000fd5b6001600160a01b039291838216919082156116b05784811691821561169757849261147e82611aa8565b61148783611aa8565b600554958760ff978881168061168b575b80611673575b8061165b575b61153a575b5050505080610cc76114bf9484610cc7946118f0565b600554828116928361152d575b508261151d575b50509081611501575b816114f3575b506114e957565b6114f1611fb3565b565b9050600654161515386114e2565b90503060005260006020526040600020546007541115906114dc565b60081c83161415905038806114d3565b60085416159250386114cc565b60081c1682811491908714808015611654575b61155a575b8991506114a9565b909193929550600093611643575b6101f49384018094116114055761158593612710948591846117f2565b04956096830283810460961484151715611405576000805160206124b38339815191526060610cc7956115d96114bf9b610cc79a8e96049283611634575b6115cd8483611825565b80611623575b50611825565b956115fc575b6040519081526000602082015260006040820152a3948293611552565b600085815260096020526040902061161e90426001600160401b031690611832565b6115df565b61162e90308d6118f0565b386115d3565b61163e848c611855565b6115c3565b925061164e82611f4e565b92611568565b508261154d565b5083600052600e6020528860406000205416156114a4565b5087600052600e60205288604060002054161561149e565b50886008541615611498565b60405163ec442f0560e01b815260006004820152602490fd5b604051634b637e8f60e11b815260006004820152602490fd5b6001600160a01b03908116918215611743571691821561172a5760207f8c5be1e5ebec7d5bd14f71427d1e84f3dd0314c0f7b2291e5b200ac8c7c3b925918360005260018252604060002085600052825280604060002055604051908152a3565b604051634a1406b160e11b815260006004820152602490fd5b60405163e602df0560e01b815260006004820152602490fd5b604091949392606082019560018060a01b0316825260208201520152565b1561178157565b60405162461bcd60e51b815260206004820152600a6024820152694f6e6c7920637572766560b01b6044820152606490fd5b3d156117ed573d906001600160401b03821161143e57604051916117e1601f8201601f19166020018461141b565b82523d6000602084013e565b606090565b8181029291811591840414171561140557565b811561180f570490565b634e487b7160e01b600052601260045260246000fd5b9190820391821161140557565b80546001600160c01b031660c09290921b6001600160c01b031916919091179055565b6001600160a01b03811690816118a75750611872826002546113f8565b6002555b600080516020612493833981519152602061dead9384600052600082526040600020818154019055604051908152a3565b600090828252816020526040822054908482106118d35750836040918484528360205203912055611876565b6111a98560405193849363391434e360e21b85526004850161175c565b6001600160a01b0380821692909183611958575060008051602061249383398151915291602091611923866002546113f8565b6002555b1693846119405780600254036002555b604051908152a3565b84600052600082526040600020818154019055611937565b60009084825281602052604082205490868210611997575091816040876020958860008051602061249383398151915298965283875203912055611927565b6111a98760405193849363391434e360e21b85526004850161175c565b8054600160801b600160c01b03191660809290921b600160801b600160c01b0316919091179055565b6119e5611af3565b156114f15761dead600052600960205260008051602061243383398151915280546114f191906001600160401b0390611a43611a27608083901c841642611825565b6001850180549093909161124b916001600160801b03166117f2565b90600d54611a576002860191825490611825565b80151580611a9f575b611a74575b50600d549055554216906119b4565b611a87670de0b6b3a764000091856117f2565b04611a97600387019182546113f8565b905538611a65565b50831515611a60565b611ab181611b27565b15611af0576001600160a01b0316600090815260096020526040902080546114f191906001600160401b0390611a43611a27608083901c841642611825565b50565b61dead600052600e6020527ff77e91909e61d18f67b875b2bfcae1f683a8d555e55382e3a6b082e2c59ea57a5460ff161590565b6001600160a01b03168015159081611b3d575090565b9050600052600e60205260ff604060002054161590565b611b5c611af3565b156114f15761dead6000818152600960205260008051602061243383398151915291611b86611e71565b81526020819052604081205482546001600160801b0390811680831093919291908480611ceb575b611c9e575b828181119586600014611c625750611bd8925090611bd091611825565b600c546113f8565b600c555b83546001600160801b0319169116178255426001600160401b031690611c0282846119b4565b60ff60055416159081611c5a575b5080611c28575b611c1f575050565b6114f191611832565b50337f00000000000000000000000000000000000000000000000000000000000000006001600160a01b031614611c17565b905038611c10565b611c6f575b505050611bdc565b611c7891611825565b600c54818110611c9757611c8c9250611825565b600c55388082611c67565b5050611c8c565b60018601805490611cc2611cbb84611cb688866117f2565b611805565b8093611825565b600a548111611ce157611cd790600a54611825565b600a555b55611bb3565b5083600a55611cdb565b50801515611bae565b611cfd81611b27565b15611af0576001600160a01b0390811660008181526009602052604081209291611d25611e71565b81526020819052604081205483546001600160801b0390811680831093919291908480611e68575b611e27575b828181119586600014611deb5750611d6f925090611bd091611825565b600c555b84546001600160801b0319169116178355426001600160401b031691611d9983856119b4565b60ff60055416159182611de3575b5081611db7575b50611c1f575050565b90507f000000000000000000000000000000000000000000000000000000000000000016331438611dae565b915038611da7565b611df8575b505050611d73565b611e0191611825565b600c54818110611e2057611e159250611825565b600c55388082611df0565b5050611e15565b60018701805490611e3f611cbb84611cb688866117f2565b600a548111611e5e57611e5490600a54611825565b600a555b55611d52565b5083600a55611e58565b50801515611d4d565b611e7d600b5442611825565b80151580611eb2575b611e92575b5042600b55565b611ea1611ea991600c546117f2565b600a546113f8565b600a5538611e8b565b50600c541515611e86565b8015611af057611ecb611e71565b600a54908115611f2a57670de0b6b3a7640000810290670de0b6b3a763ffff198183040161140557611f19611f1160008051602061247383398151915294604094611805565b600d546113f8565b80600d5582519182526020820152a1565b6000805160206124738339815191529150604090600d5482519182526020820152a1565b6001600160a01b031660009081526009602052604090205460c01c8015611fad57611f799042611825565b61012c8110611fa657610e108110611f9f576201518011611f9957600090565b6101f490565b506103e890565b506107d090565b50600090565b60009060ff198060085416600180821760085530855260208581526040918287205493841561227a575082516001600160401b039060608101828111828210176122665785526002815283810195853688378151156122525730875260065486516315ab88c960e31b81526001600160a01b0398918916908781600481855afa908115612248578d91612212575b5084518710156121fe5761205d918a8592168a870152306116c9565b4794886006541692833b156121fa57885163791ac94760e01b81526004810191909152602481018d905260a06044820152935160a485018190528c938593909260c4850192868b8e5b8383106121d6575050505050508383809230606483015242608483015203925af191826121af575b50506120e5575b5050505090915060085416600855565b6120ef9047611825565b801580156120fe575b506120d5565b6003820290828204600314171561219b57966121236007612134979899048093611825565b9482612140575b5050505050611ebd565b819038808080806120f8565b81808481937f0000000000000000000000000000000000000000000000000000000000000000165af16121716117b3565b5061217e575b808061212a565b6000805160206124138339815191529251908152a1388080612177565b634e487b7160e01b88526011600452602488fd5b81999299116121c25784529638806120ce565b634e487b7160e01b82526041600452602482fd5b84979950858294979293969950511681520195019101928694928f96948b8e6120a6565b8c80fd5b634e487b7160e01b8d52603260045260248dfd5b90508781813d8311612241575b612229818361141b565b810103126121fa575189811681036121fa5738612041565b503d61221f565b89513d8f823e3d90fd5b634e487b7160e01b8a52603260045260248afd5b634e487b7160e01b8a52604160045260248afd5b9596505050505050600855565b6000805160206124d383398151915260028154146122a55760029055565b604051633ee5aeb560e01b8152600490fd5b60001981146114055760010190565b6122cf81611b27565b15611fad576001600160a01b03166000908152600960205260409020805461236891906003906123279061124b612313608083901c6001600160401b031642611825565b6001860154926001600160801b03166117f2565b612338600d54600285015490611825565b9080151580612374575b6000901561236b5750670de0b6b3a76400009161235e916117f2565b04915b01546113f8565b90565b91505091612361565b50811515612342565b61238681611b27565b15611fad576001600160a01b0316600090815260096020526040902080546123689161124b9060016123c5608085901c6001600160401b031642611825565b910154926001600160801b03166117f2565b156123de57565b60405162461bcd60e51b815260206004820152600c60248201526b4f6e6c7920666163746f727960a01b6044820152606490fdfe693f9dbea0bdf9b70d480f9527e567d17ae3a41a5627c6515b034ac1869cf7a0960b1051749987b45b5679007fff577a1c2f763ec21c15a6c5eb193075003785fc30cddea38e2bf4d6ea7d3f9ed3b6ad7f176419f4963bd81318067a4aee73fe8ad0c4905aa5603107e860e0c2b1a78e23eba312c30f8114a70d94d9e187f5afddf252ad1be2c89b69c2b068fc378daa952ba7f163c4a11628f55a4df523b3efe9bc91a33ddf896d889747b2f39f4192c802fd62364780086853fcd8e19e8ffa9b779b17422d0df92223018b32b4d1fa46e071723d6817e2486d003becc55f00a2646970667358221220936e454d53d89fbbb1b463f9df655b136d6e9f93fb82bc6cfaf16353fb042f4a64736f6c634300081400338ad0c4905aa5603107e860e0c2b1a78e23eba312c30f8114a70d94d9e187f5afddf252ad1be2c89b69c2b068fc378daa952ba7f163c4a11628f55a4df523b3ef",
  "linkReferences": {},
  "deployedLinkReferences": {}
}