{
  "_format": "hh-sol-artifact-1",
  "contractName": "BondingCurveLaunchpad",
  "sourceName": "contracts/BondingCurveLaunchpad.sol",
  "abi": [
    {
      "inputs": [
        {
          "internalType": "string",
          "name": "_name",
          "type": "string"
        },
        {
          "internalType": "string",
          "name": "_symbol",
          "type": "string"
        },
        {
          "internalType": "address",
          "name": "_admin",
          "type": "address"
        }
      ],
      "stateMutability": "nonpayable",
      "type": "constructor"
    },
    {
      "inputs": [
        {
          "internalType": "address",
          "name": "spender",
          "type": "address"
        },
        {
          "internalType": "uint256",
          "name": "allowance",
          "type": "uint256"
        },
        {
          "internalType": "uint256",
          "name": "needed",
          "type": "uint256"
        }
      ],
      "name": "ERC20InsufficientAllowance",
      "type": "error"
    },
    {
      "inputs": [
        {
          "internalType": "address",
          "name": "sender",
          "type": "address"
        },
        {
          "internalType": "uint256",
          "name": "balance",
          "type": "uint256"
        },
        {
          "internalType": "uint256",
          "name": "needed",
          "type": "uint256"
        }
      ],
      "name": "ERC20InsufficientBalance",
      "type": "error"
    },
    {
      "inputs": [
        {
          "internalType": "address",
          "name": "approver",
          "type": "address"
        }
      ],
      "name": "ERC20InvalidApprover",
      "type": "error"
    },
    {
      "inputs": [
        {
          "internalType": "address",
          "name": "receiver",
          "type": "address"
        }
      ],
      "name": "ERC20InvalidReceiver",
      "type": "error"
    },
    {
      "inputs": [
        {
          "internalType": "address",
          "name": "sender",
          "type": "address"
        }
      ],
      "name": "ERC20InvalidSender",
      "type": "error"
    },
    {
      "inputs": [
        {
          "internalType": "address",
          "name": "spender",
          "type": "address"
        }
      ],
      "name": "ERC20InvalidSpender",
      "type": "error"
    },
    {
      "inputs": [
        {
          "internalType": "address",
          "name": "owner",
          "type": "address"
        }
      ],
      "name": "OwnableInvalidOwner",
      "type": "error"
    },
    {
      "inputs": [
        {
          "internalType": "address",
          "name": "account",
          "type": "address"
        }
      ],
      "name": "OwnableUnauthorizedAccount",
      "type": "error"
    },
    {
      "inputs": [],
      "name": "ReentrancyGuardReentrantCall",
      "type": "error"
    },
    {
      "anonymous": false,
      "inputs": [
        {
          "indexed": true,
          "internalType": "address",
          "name": "owner",
          "type": "address"
        },
        {
          "indexed": true,
          "internalType": "address",
          "name": "spender",
          "type": "address"
        },
        {
          "indexed": false,
          "internalType": "uint256",
          "name": "value",
          "type": "uint256"
        }
      ],
      "name": "Approval",
      "type": "event"
    },
    {
      "anonymous": false,
      "inputs": [
        {
          "indexed": true,
          "internalType": "address",
          "name": "buyer",
          "type": "address"
        },
        {
          "indexed": false,
          "internalType": "uint256",
          "name": "ethIn",
          "type": "uint256"
        },
        {
          "indexed": false,
          "internalType": "uint256",
          "name": "tokensOut",
          "type": "uint256"
        },
        {
          "indexed": false,
          "internalType": "uint256",
          "name": "progress",
          "type": "uint256"
        }
      ],
      "name": "Buy",
      "type": "event"
    },
    {
      "anonymous": false,
      "inputs": [
        {
          "indexed": true,
          "internalType": "address",
          "name": "to",
          "type": "address"
        },
        {
          "indexed": false,
          "internalType": "uint256",
          "name": "amount",
          "type": "uint256"
        }
      ],
      "name": "EthWithdrawn",
      "type": "event"
    },
    {
      "anonymous": false,
      "inputs": [
        {
          "indexed": false,
          "internalType": "uint256",
          "name": "ethRaised",
          "type": "uint256"
        }
      ],
      "name": "Graduated",
      "type": "event"
    },
    {
      "anonymous": false,
      "inputs": [
        {
          "indexed": true,
          "internalType": "address",
          "name": "previousOwner",
          "type": "address"
        },
        {
          "indexed": true,
          "internalType": "address",
          "name": "newOwner",
          "type": "address"
        }
      ],
      "name": "OwnershipTransferred",
      "type": "event"
    },
    {
      "anonymous": false,
      "inputs": [
        {
          "indexed": true,
          "internalType": "address",
          "name": "seller",
          "type": "address"
        },
        {
          "indexed": false,
          "internalType": "uint256",
          "name": "tokensIn",
          "type": "uint256"
        },
        {
          "indexed": false,
          "internalType": "uint256",
          "name": "ethOut",
          "type": "uint256"
        },
        {
          "indexed": false,
          "internalType": "uint256",
          "name": "progress",
          "type": "uint256"
        }
      ],
      "name": "Sell",
      "type": "event"
    },
    {
      "anonymous": false,
      "inputs": [
        {
          "indexed": true,
          "internalType": "address",
          "name": "from",
          "type": "address"
        },
        {
          "indexed": true,
          "internalType": "address",
          "name": "to",
          "type": "address"
        },
        {
          "indexed": false,
          "internalType": "uint256",
          "name": "value",
          "type": "uint256"
        }
      ],
      "name": "Transfer",
      "type": "event"
    },
    {
      "inputs": [],
      "name": "CURVE_SUPPLY",
      "outputs": [
        {
          "internalType": "uint256",
          "name": "",
          "type": "uint256"
        }
      ],
      "stateMutability": "view",
      "type": "function"
    },
    {
      "inputs": [],
      "name": "TARGET_ETH",
      "outputs": [
        {
          "internalType": "uint256",
          "name": "",
          "type": "uint256"
        }
      ],
      "stateMutability": "view",
      "type": "function"
    },
    {
      "inputs": [],
      "name": "TEAM_SUPPLY",
      "outputs": [
        {
          "internalType": "uint256",
          "name": "",
          "type": "uint256"
        }
      ],
      "stateMutability": "view",
      "type": "function"
    },
    {
      "inputs": [],
      "name": "TOTAL_SUPPLY",
      "outputs": [
        {
          "internalType": "uint256",
          "name": "",
          "type": "uint256"
        }
      ],
      "stateMutability": "view",
      "type": "function"
    },
    {
      "inputs": [],
      "name": "VIRTUAL_ETH",
      "outputs": [
        {
          "internalType": "uint256",
          "name": "",
          "type": "uint256"
        }
      ],
      "stateMutability": "view",
      "type": "function"
    },
    {
      "inputs": [
        {
          "internalType": "address",
          "name": "owner",
          "type": "address"
        },
        {
          "internalType": "address",
          "name": "spender",
          "type": "address"
        }
      ],
      "name": "allowance",
      "outputs": [
        {
          "internalType": "uint256",
          "name": "",
          "type": "uint256"
        }
      ],
      "stateMutability": "view",
      "type": "function"
    },
    {
      "inputs": [
        {
          "internalType": "address",
          "name": "spender",
          "type": "address"
        },
        {
          "internalType": "uint256",
          "name": "value",
          "type": "uint256"
        }
      ],
      "name": "approve",
      "outputs": [
        {
          "internalType": "bool",
          "name": "",
          "type": "bool"
        }
      ],
      "stateMutability": "nonpayable",
      "type": "function"
    },
    {
      "inputs": [
        {
          "internalType": "address",
          "name": "account",
          "type": "address"
        }
      ],
      "name": "balanceOf",
      "outputs": [
        {
          "internalType": "uint256",
          "name": "",
          "type": "uint256"
        }
      ],
      "stateMutability": "view",
      "type": "function"
    },
    {
      "inputs": [
        {
          "internalType": "uint256",
          "name": "minTokensOut",
          "type": "uint256"
        }
      ],
      "name": "buy",
      "outputs": [],
      "stateMutability": "payable",
      "type": "function"
    },
    {
      "inputs": [],
      "name": "currentPrice",
      "outputs": [
        {
          "internalType": "uint256",
          "name": "",
          "type": "uint256"
        }
      ],
      "stateMutability": "view",
      "type": "function"
    },
    {
      "inputs": [],
      "name": "decimals",
      "outputs": [
        {
          "internalType": "uint8",
          "name": "",
          "type": "uint8"
        }
      ],
      "stateMutability": "view",
      "type": "function"
    },
    {
      "inputs": [
        {
          "internalType": "uint256",
          "name": "ethAmount",
          "type": "uint256"
        }
      ],
      "name": "getBuyAmount",
      "outputs": [
        {
          "internalType": "uint256",
          "name": "tokensOut",
          "type": "uint256"
        }
      ],
      "stateMutability": "view",
      "type": "function"
    },
    {
      "inputs": [],
      "name": "getProgress",
      "outputs": [
        {
          "internalType": "uint256",
          "name": "",
          "type": "uint256"
        }
      ],
      "stateMutability": "view",
      "type": "function"
    },
    {
      "inputs": [
        {
          "internalType": "uint256",
          "name": "tokenAmount",
          "type": "uint256"
        }
      ],
      "name": "getSellAmount",
      "outputs": [
        {
          "internalType": "uint256",
          "name": "ethOut",
          "type": "uint256"
        }
      ],
      "stateMutability": "view",
      "type": "function"
    },
    {
      "inputs": [],
      "name": "graduated",
      "outputs": [
        {
          "internalType": "bool",
          "name": "",
          "type": "bool"
        }
      ],
      "stateMutability": "view",
      "type": "function"
    },
    {
      "inputs": [],
      "name": "name",
      "outputs": [
        {
          "internalType": "string",
          "name": "",
          "type": "string"
        }
      ],
      "stateMutability": "view",
      "type": "function"
    },
    {
      "inputs": [],
      "name": "owner",
      "outputs": [
        {
          "internalType": "address",
          "name": "",
          "type": "address"
        }
      ],
      "stateMutability": "view",
      "type": "function"
    },
    {
      "inputs": [],
      "name": "realEthRaised",
      "outputs": [
        {
          "internalType": "uint256",
          "name": "",
          "type": "uint256"
        }
      ],
      "stateMutability": "view",
      "type": "function"
    },
    {
      "inputs": [],
      "name": "renounceOwnership",
      "outputs": [],
      "stateMutability": "nonpayable",
      "type": "function"
    },
    {
      "inputs": [
        {
          "internalType": "uint256",
          "name": "tokenAmount",
          "type": "uint256"
        },
        {
          "internalType": "uint256",
          "name": "minEthOut",
          "type": "uint256"
        }
      ],
      "name": "sell",
      "outputs": [],
      "stateMutability": "nonpayable",
      "type": "function"
    },
    {
      "inputs": [],
      "name": "symbol",
      "outputs": [
        {
          "internalType": "string",
          "name": "",
          "type": "string"
        }
      ],
      "stateMutability": "view",
      "type": "function"
    },
    {
      "inputs": [],
      "name": "totalSupply",
      "outputs": [
        {
          "internalType": "uint256",
          "name": "",
          "type": "uint256"
        }
      ],
      "stateMutability": "view",
      "type": "function"
    },
    {
      "inputs": [
        {
          "internalType": "address",
          "name": "to",
          "type": "address"
        },
        {
          "internalType": "uint256",
          "name": "value",
          "type": "uint256"
        }
      ],
      "name": "transfer",
      "outputs": [
        {
          "internalType": "bool",
          "name": "",
          "type": "bool"
        }
      ],
      "stateMutability": "nonpayable",
      "type": "function"
    },
    {
      "inputs": [
        {
          "internalType": "address",
          "name": "from",
          "type": "address"
        },
        {
          "internalType": "address",
          "name": "to",
          "type": "address"
        },
        {
          "internalType": "uint256",
          "name": "value",
          "type": "uint256"
        }
      ],
      "name": "transferFrom",
      "outputs": [
        {
          "internalType": "bool",
          "name": "",
          "type": "bool"
        }
      ],
      "stateMutability": "nonpayable",
      "type": "function"
    },
    {
      "inputs": [
        {
          "internalType": "address",
          "name": "newOwner",
          "type": "address"
        }
      ],
      "name": "transferOwnership",
      "outputs": [],
      "stateMutability": "nonpayable",
      "type": "function"
    },
    {
      "inputs": [],
      "name": "virtualTokenReserve",
      "outputs": [
        {
          "internalType": "uint256",
          "name": "",
          "type": "uint256"
        }
      ],
      "stateMutability": "view",
      "type": "function"
    },
    {
      "inputs": [],
      "name": "withdrawEth",
      "outputs": [],
      "stateMutability": "nonpayable",
      "type": "function"
    }
  ],
  "bytecode": "0x6080604052346104a25761178080380380610019816104a6565b9283398101906060818303126104a25780516001600160401b0381116104a257826100459183016104cb565b60208201519092906001600160401b0381116104a2576040916100699184016104cb565b9101516001600160a01b038116908190036104a25782516001600160401b0381116103b357600354600181811c91168015610498575b602082101461039557601f8111610435575b506020601f82116001146103d257819293945f926103c7575b50508160011b915f199060031b1c1916176003555b81516001600160401b0381116103b357600454600181811c911680156103a9575b602082101461039557601f8111610332575b50602092601f82116001146102d157928192935f926102c6575b50508160011b915f199060031b1c1916176004555b80156102b357600580546001600160a01b03198116831790915581906001600160a01b03167f8be0079c531659141344cd1fd0a4f28419497f9722a3daafe3b4186f6b6457e05f80a360017f9b779b17422d0df92223018b32b4d1fa46e071723d6817e2486d003becc55f00556b0295be96e64066972000000060065530156102a0576002546b0295be96e640669720000000810180911161028c57600255305f525f60205260405f206b0295be96e64066972000000081540190556040516b0295be96e64066972000000081525f5f8051602061176083398151915260203093a36002546aa56fa5b99019a5c8000000810180911161028c57600255805f525f60205260405f206aa56fa5b99019a5c800000081540190555f5f8051602061176083398151915260206040516aa56fa5b99019a5c80000008152a3604051611243908161051d8239f35b634e487b7160e01b5f52601160045260245ffd5b63ec442f0560e01b5f525f60045260245ffd5b631e4fbdf760e01b5f525f60045260245ffd5b015190505f8061012c565b601f1982169360045f52805f20915f5b86811061031a5750836001959610610302575b505050811b01600455610141565b01515f1960f88460031b161c191690555f80806102f4565b919260206001819286850151815501940192016102e1565b60045f527f8a35acfbc15ff81a39ae7d344fd709f28e8600b4aa8c65c6b64bfe7fe36bd19b601f830160051c8101916020841061038b575b601f0160051c01905b8181106103805750610112565b5f8155600101610373565b909150819061036a565b634e487b7160e01b5f52602260045260245ffd5b90607f1690610100565b634e487b7160e01b5f52604160045260245ffd5b015190505f806100ca565b601f1982169060035f52805f20915f5b81811061041d57509583600195969710610405575b505050811b016003556100df565b01515f1960f88460031b161c191690555f80806103f7565b9192602060018192868b0151815501940192016103e2565b60035f527fc2575a0e9e593c00f959f8c92f12db2869c3395a3b0502d05e2516446f71f85b601f830160051c8101916020841061048e575b601f0160051c01905b81811061048357506100b1565b5f8155600101610476565b909150819061046d565b90607f169061009f565b5f80fd5b6040519190601f01601f191682016001600160401b038111838210176103b357604052565b81601f820112156104a2578051906001600160401b0382116103b3576104fa601f8301601f19166020016104a6565b92828452602083830101116104a257815f9260208093018386015e830101529056fe6080806040526004361015610012575f80fd5b5f3560e01c90816306fdde0314610d4557508063095ea7b314610cc3578063130b312014610ca657806318160ddd14610c895780631e4c729214610c635780631fb87f3914610c4557806323b872dd14610b66578063313ce56714610b4b578063343ee3b714610b2e5780636700c0c314610b0c57806370a0823114610ad5578063715018a614610a8d578063768713f514610a6f5780638da5cb5b14610a47578063902d55a514610a21578063939c445614610a0757806395d89b41146109035780639d1b464a1461089f578063a0ef91df1461078e578063a9059cbb1461075d578063ae2c1a6e1461073b578063b9c3a81814610716578063d79875eb14610491578063d96a094a1461022e578063dd62ed3e146101de578063e7c2b772146101bc5763f2fde38b14610145575f80fd5b346101b85760203660031901126101b85761015e610e27565b61016661112e565b6001600160a01b031680156101a557600580546001600160a01b0319811683179091556001600160a01b03165f805160206111ae8339815191525f80a3005b631e4fbdf760e01b5f525f60045260245ffd5b5f80fd5b346101b8575f3660031901126101b857602060ff600854166040519015158152f35b346101b85760403660031901126101b8576101f7610e27565b6101ff610e3d565b6001600160a01b039182165f908152600160209081526040808320949093168252928352819020549051908152f35b60203660031901126101b857610242611155565b341561045a57600754806714d1120d7b16000001806714d1120d7b160000116104465761029161028a6006549261028461027c8583610ea4565b913490610e8a565b90610eb7565b8092610e97565b9161029d831515611023565b6004358310610406576102b4916006553490610e8a565b6007556102c2813330611071565b60085460ff811615806103f2575b6103c7575b5060ff60085416610332575b7fbeae048c6d270d9469f86cf6e8fedda3c60ad770f16c24c9fc131c8e9a09101d61031c61030d610fb2565b6040519182913395348461105b565b0390a260015f805160206111ce83398151915255005b478061033f575b506102e1565b5f8080808460018060a01b03600554165af1610359610fe5565b501561038b576005546040519182526001600160a01b0316905f8051602061118e83398151915290602090a281610339565b60405162461bcd60e51b8152602060048201526014602482015273105d5d1bcb5dda5d1a191c985dc819985a5b195960621b6044820152606490fd5b60019060ff1916176008555f805160206111ee8339815191526020600754604051908152a1816102d5565b506730927f74c9de000060075410156102d0565b60405162461bcd60e51b8152602060048201526018602482015277536c6970706167653a20746f6f2066657720746f6b656e7360401b6044820152606490fd5b634e487b7160e01b5f52601160045260245ffd5b60405162461bcd60e51b815260206004820152600f60248201526e53656e642045544820746f2062757960881b6044820152606490fd5b346101b85760403660031901126101b8576004356104ad611155565b60ff600854166106d257801561069757335f525f6020528060405f20541061065b57600754806714d1120d7b1600000190816714d1120d7b16000011610446576105186006549261051261050b866105058785610ea4565b96610e8a565b8095610eb7565b90610e97565b9181831161061d5761052b831515611023565b60243583106105dd57610542918391600655610e97565b600755610550823033611071565b5f80808084335af1610560610fe5565b50156105a2577f846c37eef631e0943682d87352ec117c20008eb7f425c9b85ac011a6d4774cc090610590610fb2565b9061031c60405192839233968461105b565b60405162461bcd60e51b8152602060048201526013602482015272115512081d1c985b9cd9995c8819985a5b1959606a1b6044820152606490fd5b60405162461bcd60e51b81526020600482015260186024820152770a6d8d2e0e0c2ceca7440e8dede40d8d2e8e8d8ca408aa8960431b6044820152606490fd5b60405162461bcd60e51b8152602060048201526016602482015275139bdd08195b9bdd59da08115512081a5b881c1bdbdb60521b6044820152606490fd5b60405162461bcd60e51b8152602060048201526014602482015273496e73756666696369656e742062616c616e636560601b6044820152606490fd5b60405162461bcd60e51b8152602060048201526013602482015272139bc81d1bdad95b9cc81cdc1958da599a5959606a1b6044820152606490fd5b60405162461bcd60e51b815260206004820152601c60248201527b10d85b9b9bdd081cd95b1b0e881d1bdad95b8819dc98591d585d195960221b6044820152606490fd5b346101b8575f3660031901126101b85760206040516aa56fa5b99019a5c80000008152f35b346101b8575f3660031901126101b85760206040516730927f74c9de00008152f35b346101b85760403660031901126101b857610783610779610e27565b6024359033611071565b602060405160018152f35b346101b8575f3660031901126101b8576107a661112e565b4780156108655760085460ff81161561083a575b505f8080808460018060a01b03600554165af16107d5610fe5565b5015610803576005546040519182526001600160a01b0316905f8051602061118e83398151915290602090a2005b60405162461bcd60e51b815260206004820152600f60248201526e15da5d1a191c985dc819985a5b1959608a1b6044820152606490fd5b60019060ff1916176008555f805160206111ee8339815191526020600754604051908152a1816107ba565b60405162461bcd60e51b81526020600482015260126024820152714e6f2045544820746f20776974686472617760701b6044820152606490fd5b346101b8575f3660031901126101b8576007546714d1120d7b16000001806714d1120d7b1600001161044657670de0b6b3a7640000810290808204670de0b6b3a76400001490151715610446576108fb60209160065490610eb7565b604051908152f35b346101b8575f3660031901126101b8576040515f6004548060011c906001811680156109fd575b6020831081146109e9578285529081156109c55750600114610967575b6109638361095781850382610e53565b60405191829182610dfd565b0390f35b60045f9081527f8a35acfbc15ff81a39ae7d344fd709f28e8600b4aa8c65c6b64bfe7fe36bd19b939250905b8082106109ab57509091508101602001610957610947565b919260018160209254838588010152019101909291610993565b60ff191660208086019190915291151560051b840190910191506109579050610947565b634e487b7160e01b5f52602260045260245ffd5b91607f169161092a565b346101b8575f3660031901126101b85760206108fb610fb2565b346101b8575f3660031901126101b857604051676765c793fa10079d601b1b8152602090f35b346101b8575f3660031901126101b8576005546040516001600160a01b039091168152602090f35b346101b85760203660031901126101b85760206108fb600435610f5d565b346101b8575f3660031901126101b857610aa561112e565b600580546001600160a01b031981169091555f906001600160a01b03165f805160206111ae8339815191528280a3005b346101b85760203660031901126101b8576001600160a01b03610af6610e27565b165f525f602052602060405f2054604051908152f35b346101b8575f3660031901126101b85760206040516714d1120d7b1600008152f35b346101b8575f3660031901126101b8576020600654604051908152f35b346101b8575f3660031901126101b857602060405160128152f35b346101b85760603660031901126101b857610b7f610e27565b610b87610e3d565b6001600160a01b0382165f818152600160209081526040808320338452909152902054909260443592915f198110610bc5575b506107839350611071565b838110610c2a578415610c17573315610c0457610783945f52600160205260405f2060018060a01b0333165f526020528360405f209103905584610bba565b634a1406b160e11b5f525f60045260245ffd5b63e602df0560e01b5f525f60045260245ffd5b8390637dc7a0d960e11b5f523360045260245260445260645ffd5b346101b85760203660031901126101b85760206108fb600435610ed5565b346101b8575f3660031901126101b8576040516714adf4b7320334b9601d1b8152602090f35b346101b8575f3660031901126101b8576020600254604051908152f35b346101b8575f3660031901126101b8576020600754604051908152f35b346101b85760403660031901126101b857610cdc610e27565b602435903315610c17576001600160a01b0316908115610c0457335f52600160205260405f20825f526020528060405f20556040519081527f8c5be1e5ebec7d5bd14f71427d1e84f3dd0314c0f7b2291e5b200ac8c7c3b92560203392a3602060405160018152f35b346101b8575f3660031901126101b8575f6003548060011c90600181168015610df3575b6020831081146109e9578285529081156109c55750600114610d95576109638361095781850382610e53565b60035f9081527fc2575a0e9e593c00f959f8c92f12db2869c3395a3b0502d05e2516446f71f85b939250905b808210610dd957509091508101602001610957610947565b919260018160209254838588010152019101909291610dc1565b91607f1691610d69565b602060409281835280519182918282860152018484015e5f828201840152601f01601f1916010190565b600435906001600160a01b03821682036101b857565b602435906001600160a01b03821682036101b857565b601f909101601f19168101906001600160401b03821190821017610e7657604052565b634e487b7160e01b5f52604160045260245ffd5b9190820180921161044657565b9190820391821161044657565b8181029291811591840414171561044657565b8115610ec1570490565b634e487b7160e01b5f52601260045260245ffd5b60ff60085416610f58576007546730927f74c9de0000610ef58383610e8a565b11610f36575b6714d1120d7b1600000190816714d1120d7b1600001161044657610512610f339261028460065493610f2d8584610ea4565b92610e8a565b90565b8091506730927f74c9de0000036730927f74c9de000081116104465790610efb565b505f90565b9060ff60085416610fad5760075491826714d1120d7b16000001806714d1120d7b1600001161044657610512610f9e9261028460065491610f2d8386610ea4565b91808311610fa95750565b9150565b5f9150565b60ff60085416610fe057600754606481029080820460641490151715610446576730927f74c9de0000900490565b606490565b3d1561101e573d906001600160401b038211610e765760405191611013601f8201601f191660200184610e53565b82523d5f602084013e565b606090565b1561102a57565b60405162461bcd60e51b8152602060048201526009602482015268151bdbc81cdb585b1b60ba1b6044820152606490fd5b6040919493926060820195825260208201520152565b6001600160a01b031690811561111b576001600160a01b031691821561110857815f525f60205260405f20548181106110ef57817fddf252ad1be2c89b69c2b068fc378daa952ba7f163c4a11628f55a4df523b3ef92602092855f525f84520360405f2055845f525f825260405f20818154019055604051908152a3565b8263391434e360e21b5f5260045260245260445260645ffd5b63ec442f0560e01b5f525f60045260245ffd5b634b637e8f60e11b5f525f60045260245ffd5b6005546001600160a01b0316330361114257565b63118cdaa760e01b5f523360045260245ffd5b60025f805160206111ce833981519152541461117e5760025f805160206111ce83398151915255565b633ee5aeb560e01b5f5260045ffdfe8455ae6be5d92f1df1c3c1484388e247a36c7e60d72055ae216dbc258f257d4b8be0079c531659141344cd1fd0a4f28419497f9722a3daafe3b4186f6b6457e09b779b17422d0df92223018b32b4d1fa46e071723d6817e2486d003becc55f0004d39283851d5dc1961a5296a48d487854db2aae45afe51e83aae1db8d04d42fa2646970667358221220158d756b1b46bfabf666e7a86f0f52bff9440415135b03ab1b28eb3103e6622464736f6c634300081a0033ddf252ad1be2c89b69c2b068fc378daa952ba7f163c4a11628f55a4df523b3ef",
  "linkReferences": {},
  "deployedLinkReferences": {}
}