{
  "_format": "hh-sol-artifact-1",
  "contractName": "BondingCurveLaunchpad",
  "sourceName": "contracts/BondingCurveLaunchpad.sol",
  "abi": [
    {
      "inputs": [
        {
          "internalType": "string",
          "name": "_name",
          "type": "string"
        },
        {
          "internalType": "string",
          "name": "_symbol",
          "type": "string"
        },
        {
          "internalType": "address",
          "name": "_admin",
          "type": "address"
        }
      ],
      "stateMutability": "nonpayable",
      "type": "constructor"
    },
    {
      "inputs": [
        {
          "internalType": "address",
          "name": "spender",
          "type": "address"
        },
        {
          "internalType": "uint256",
          "name": "allowance",
          "type": "uint256"
        },
        {
          "internalType": "uint256",
          "name": "needed",
          "type": "uint256"
        }
      ],
      "name": "ERC20InsufficientAllowance",
      "type": "error"
    },
    {
      "inputs": [
        {
          "internalType": "address",
          "name": "sender",
          "type": "address"
        },
        {
          "internalType": "uint256",
          "name": "balance",
          "type": "uint256"
        },
        {
          "internalType": "uint256",
          "name": "needed",
          "type": "uint256"
        }
      ],
      "name": "ERC20InsufficientBalance",
      "type": "error"
    },
    {
      "inputs": [
        {
          "internalType": "address",
          "name": "approver",
          "type": "address"
        }
      ],
      "name": "ERC20InvalidApprover",
      "type": "error"
    },
    {
      "inputs": [
        {
          "internalType": "address",
          "name": "receiver",
          "type": "address"
        }
      ],
      "name": "ERC20InvalidReceiver",
      "type": "error"
    },
    {
      "inputs": [
        {
          "internalType": "address",
          "name": "sender",
          "type": "address"
        }
      ],
      "name": "ERC20InvalidSender",
      "type": "error"
    },
    {
      "inputs": [
        {
          "internalType": "address",
          "name": "spender",
          "type": "address"
        }
      ],
      "name": "ERC20InvalidSpender",
      "type": "error"
    },
    {
      "inputs": [
        {
          "internalType": "address",
          "name": "owner",
          "type": "address"
        }
      ],
      "name": "OwnableInvalidOwner",
      "type": "error"
    },
    {
      "inputs": [
        {
          "internalType": "address",
          "name": "account",
          "type": "address"
        }
      ],
      "name": "OwnableUnauthorizedAccount",
      "type": "error"
    },
    {
      "inputs": [],
      "name": "ReentrancyGuardReentrantCall",
      "type": "error"
    },
    {
      "anonymous": false,
      "inputs": [
        {
          "indexed": true,
          "internalType": "address",
          "name": "owner",
          "type": "address"
        },
        {
          "indexed": true,
          "internalType": "address",
          "name": "spender",
          "type": "address"
        },
        {
          "indexed": false,
          "internalType": "uint256",
          "name": "value",
          "type": "uint256"
        }
      ],
      "name": "Approval",
      "type": "event"
    },
    {
      "anonymous": false,
      "inputs": [
        {
          "indexed": true,
          "internalType": "address",
          "name": "buyer",
          "type": "address"
        },
        {
          "indexed": false,
          "internalType": "uint256",
          "name": "ethIn",
          "type": "uint256"
        },
        {
          "indexed": false,
          "internalType": "uint256",
          "name": "tokensOut",
          "type": "uint256"
        },
        {
          "indexed": false,
          "internalType": "uint256",
          "name": "progress",
          "type": "uint256"
        }
      ],
      "name": "Buy",
      "type": "event"
    },
    {
      "anonymous": false,
      "inputs": [
        {
          "indexed": true,
          "internalType": "address",
          "name": "to",
          "type": "address"
        },
        {
          "indexed": false,
          "internalType": "uint256",
          "name": "amount",
          "type": "uint256"
        }
      ],
      "name": "EthWithdrawn",
      "type": "event"
    },
    {
      "anonymous": false,
      "inputs": [
        {
          "indexed": false,
          "internalType": "uint256",
          "name": "ethRaised",
          "type": "uint256"
        }
      ],
      "name": "Graduated",
      "type": "event"
    },
    {
      "anonymous": false,
      "inputs": [
        {
          "indexed": true,
          "internalType": "address",
          "name": "previousOwner",
          "type": "address"
        },
        {
          "indexed": true,
          "internalType": "address",
          "name": "newOwner",
          "type": "address"
        }
      ],
      "name": "OwnershipTransferred",
      "type": "event"
    },
    {
      "anonymous": false,
      "inputs": [
        {
          "indexed": true,
          "internalType": "address",
          "name": "seller",
          "type": "address"
        },
        {
          "indexed": false,
          "internalType": "uint256",
          "name": "tokensIn",
          "type": "uint256"
        },
        {
          "indexed": false,
          "internalType": "uint256",
          "name": "ethOut",
          "type": "uint256"
        },
        {
          "indexed": false,
          "internalType": "uint256",
          "name": "progress",
          "type": "uint256"
        }
      ],
      "name": "Sell",
      "type": "event"
    },
    {
      "anonymous": false,
      "inputs": [
        {
          "indexed": true,
          "internalType": "address",
          "name": "from",
          "type": "address"
        },
        {
          "indexed": true,
          "internalType": "address",
          "name": "to",
          "type": "address"
        },
        {
          "indexed": false,
          "internalType": "uint256",
          "name": "value",
          "type": "uint256"
        }
      ],
      "name": "Transfer",
      "type": "event"
    },
    {
      "inputs": [],
      "name": "CURVE_SUPPLY",
      "outputs": [
        {
          "internalType": "uint256",
          "name": "",
          "type": "uint256"
        }
      ],
      "stateMutability": "view",
      "type": "function"
    },
    {
      "inputs": [],
      "name": "TARGET_ETH",
      "outputs": [
        {
          "internalType": "uint256",
          "name": "",
          "type": "uint256"
        }
      ],
      "stateMutability": "view",
      "type": "function"
    },
    {
      "inputs": [],
      "name": "TEAM_SUPPLY",
      "outputs": [
        {
          "internalType": "uint256",
          "name": "",
          "type": "uint256"
        }
      ],
      "stateMutability": "view",
      "type": "function"
    },
    {
      "inputs": [],
      "name": "TOTAL_SUPPLY",
      "outputs": [
        {
          "internalType": "uint256",
          "name": "",
          "type": "uint256"
        }
      ],
      "stateMutability": "view",
      "type": "function"
    },
    {
      "inputs": [],
      "name": "VIRTUAL_ETH",
      "outputs": [
        {
          "internalType": "uint256",
          "name": "",
          "type": "uint256"
        }
      ],
      "stateMutability": "view",
      "type": "function"
    },
    {
      "inputs": [
        {
          "internalType": "address",
          "name": "owner",
          "type": "address"
        },
        {
          "internalType": "address",
          "name": "spender",
          "type": "address"
        }
      ],
      "name": "allowance",
      "outputs": [
        {
          "internalType": "uint256",
          "name": "",
          "type": "uint256"
        }
      ],
      "stateMutability": "view",
      "type": "function"
    },
    {
      "inputs": [
        {
          "internalType": "address",
          "name": "spender",
          "type": "address"
        },
        {
          "internalType": "uint256",
          "name": "value",
          "type": "uint256"
        }
      ],
      "name": "approve",
      "outputs": [
        {
          "internalType": "bool",
          "name": "",
          "type": "bool"
        }
      ],
      "stateMutability": "nonpayable",
      "type": "function"
    },
    {
      "inputs": [
        {
          "internalType": "address",
          "name": "account",
          "type": "address"
        }
      ],
      "name": "balanceOf",
      "outputs": [
        {
          "internalType": "uint256",
          "name": "",
          "type": "uint256"
        }
      ],
      "stateMutability": "view",
      "type": "function"
    },
    {
      "inputs": [],
      "name": "buy",
      "outputs": [],
      "stateMutability": "payable",
      "type": "function"
    },
    {
      "inputs": [],
      "name": "currentPrice",
      "outputs": [
        {
          "internalType": "uint256",
          "name": "",
          "type": "uint256"
        }
      ],
      "stateMutability": "view",
      "type": "function"
    },
    {
      "inputs": [],
      "name": "decimals",
      "outputs": [
        {
          "internalType": "uint8",
          "name": "",
          "type": "uint8"
        }
      ],
      "stateMutability": "view",
      "type": "function"
    },
    {
      "inputs": [
        {
          "internalType": "uint256",
          "name": "ethAmount",
          "type": "uint256"
        }
      ],
      "name": "getBuyAmount",
      "outputs": [
        {
          "internalType": "uint256",
          "name": "tokensOut",
          "type": "uint256"
        }
      ],
      "stateMutability": "view",
      "type": "function"
    },
    {
      "inputs": [],
      "name": "getProgress",
      "outputs": [
        {
          "internalType": "uint256",
          "name": "",
          "type": "uint256"
        }
      ],
      "stateMutability": "view",
      "type": "function"
    },
    {
      "inputs": [
        {
          "internalType": "uint256",
          "name": "tokenAmount",
          "type": "uint256"
        }
      ],
      "name": "getSellAmount",
      "outputs": [
        {
          "internalType": "uint256",
          "name": "ethOut",
          "type": "uint256"
        }
      ],
      "stateMutability": "view",
      "type": "function"
    },
    {
      "inputs": [],
      "name": "graduated",
      "outputs": [
        {
          "internalType": "bool",
          "name": "",
          "type": "bool"
        }
      ],
      "stateMutability": "view",
      "type": "function"
    },
    {
      "inputs": [],
      "name": "name",
      "outputs": [
        {
          "internalType": "string",
          "name": "",
          "type": "string"
        }
      ],
      "stateMutability": "view",
      "type": "function"
    },
    {
      "inputs": [],
      "name": "owner",
      "outputs": [
        {
          "internalType": "address",
          "name": "",
          "type": "address"
        }
      ],
      "stateMutability": "view",
      "type": "function"
    },
    {
      "inputs": [],
      "name": "realEthRaised",
      "outputs": [
        {
          "internalType": "uint256",
          "name": "",
          "type": "uint256"
        }
      ],
      "stateMutability": "view",
      "type": "function"
    },
    {
      "inputs": [],
      "name": "renounceOwnership",
      "outputs": [],
      "stateMutability": "nonpayable",
      "type": "function"
    },
    {
      "inputs": [
        {
          "internalType": "uint256",
          "name": "tokenAmount",
          "type": "uint256"
        }
      ],
      "name": "sell",
      "outputs": [],
      "stateMutability": "nonpayable",
      "type": "function"
    },
    {
      "inputs": [],
      "name": "symbol",
      "outputs": [
        {
          "internalType": "string",
          "name": "",
          "type": "string"
        }
      ],
      "stateMutability": "view",
      "type": "function"
    },
    {
      "inputs": [],
      "name": "totalSupply",
      "outputs": [
        {
          "internalType": "uint256",
          "name": "",
          "type": "uint256"
        }
      ],
      "stateMutability": "view",
      "type": "function"
    },
    {
      "inputs": [
        {
          "internalType": "address",
          "name": "to",
          "type": "address"
        },
        {
          "internalType": "uint256",
          "name": "value",
          "type": "uint256"
        }
      ],
      "name": "transfer",
      "outputs": [
        {
          "internalType": "bool",
          "name": "",
          "type": "bool"
        }
      ],
      "stateMutability": "nonpayable",
      "type": "function"
    },
    {
      "inputs": [
        {
          "internalType": "address",
          "name": "from",
          "type": "address"
        },
        {
          "internalType": "address",
          "name": "to",
          "type": "address"
        },
        {
          "internalType": "uint256",
          "name": "value",
          "type": "uint256"
        }
      ],
      "name": "transferFrom",
      "outputs": [
        {
          "internalType": "bool",
          "name": "",
          "type": "bool"
        }
      ],
      "stateMutability": "nonpayable",
      "type": "function"
    },
    {
      "inputs": [
        {
          "internalType": "address",
          "name": "newOwner",
          "type": "address"
        }
      ],
      "name": "transferOwnership",
      "outputs": [],
      "stateMutability": "nonpayable",
      "type": "function"
    },
    {
      "inputs": [],
      "name": "virtualTokenReserve",
      "outputs": [
        {
          "internalType": "uint256",
          "name": "",
          "type": "uint256"
        }
      ],
      "stateMutability": "view",
      "type": "function"
    },
    {
      "inputs": [],
      "name": "withdrawEth",
      "outputs": [],
      "stateMutability": "nonpayable",
      "type": "function"
    }
  ],
  "bytecode": "0x60806040523480156200001157600080fd5b506040516200338e3803806200338e833981810160405281019062000037919062000717565b80838381600390816200004b9190620009fc565b5080600490816200005d9190620009fc565b505050600073ffffffffffffffffffffffffffffffffffffffff168173ffffffffffffffffffffffffffffffffffffffff1603620000d55760006040517f1e4fbdf7000000000000000000000000000000000000000000000000000000008152600401620000cc919062000af4565b60405180910390fd5b620000e6816200016760201b60201c565b50600162000109620000fd6200022d60201b60201c565b6200025860201b60201c565b600001819055506b0295be96e64066972000000060068190555062000141306b0295be96e6406697200000006200026260201b60201c565b6200015e816aa56fa5b99019a5c80000006200026260201b60201c565b50505062000be6565b6000600560009054906101000a900473ffffffffffffffffffffffffffffffffffffffff16905081600560006101000a81548173ffffffffffffffffffffffffffffffffffffffff021916908373ffffffffffffffffffffffffffffffffffffffff1602179055508173ffffffffffffffffffffffffffffffffffffffff168173ffffffffffffffffffffffffffffffffffffffff167f8be0079c531659141344cd1fd0a4f28419497f9722a3daafe3b4186f6b6457e060405160405180910390a35050565b60007f9b779b17422d0df92223018b32b4d1fa46e071723d6817e2486d003becc55f0060001b905090565b6000819050919050565b600073ffffffffffffffffffffffffffffffffffffffff168273ffffffffffffffffffffffffffffffffffffffff1603620002d75760006040517fec442f05000000000000000000000000000000000000000000000000000000008152600401620002ce919062000af4565b60405180910390fd5b620002eb60008383620002ef60201b60201c565b5050565b600073ffffffffffffffffffffffffffffffffffffffff168373ffffffffffffffffffffffffffffffffffffffff16036200034557806002600082825462000338919062000b40565b925050819055506200041b565b60008060008573ffffffffffffffffffffffffffffffffffffffff1673ffffffffffffffffffffffffffffffffffffffff16815260200190815260200160002054905081811015620003d4578381836040517fe450d38c000000000000000000000000000000000000000000000000000000008152600401620003cb9392919062000b8c565b60405180910390fd5b8181036000808673ffffffffffffffffffffffffffffffffffffffff1673ffffffffffffffffffffffffffffffffffffffff16815260200190815260200160002081905550505b600073ffffffffffffffffffffffffffffffffffffffff168273ffffffffffffffffffffffffffffffffffffffff1603620004665780600260008282540392505081905550620004b3565b806000808473ffffffffffffffffffffffffffffffffffffffff1673ffffffffffffffffffffffffffffffffffffffff168152602001908152602001600020600082825401925050819055505b8173ffffffffffffffffffffffffffffffffffffffff168373ffffffffffffffffffffffffffffffffffffffff167fddf252ad1be2c89b69c2b068fc378daa952ba7f163c4a11628f55a4df523b3ef8360405162000512919062000bc9565b60405180910390a3505050565b6000604051905090565b600080fd5b600080fd5b600080fd5b600080fd5b6000601f19601f8301169050919050565b7f4e487b7100000000000000000000000000000000000000000000000000000000600052604160045260246000fd5b62000588826200053d565b810181811067ffffffffffffffff82111715620005aa57620005a96200054e565b5b80604052505050565b6000620005bf6200051f565b9050620005cd82826200057d565b919050565b600067ffffffffffffffff821115620005f057620005ef6200054e565b5b620005fb826200053d565b9050602081019050919050565b60005b83811015620006285780820151818401526020810190506200060b565b60008484015250505050565b60006200064b6200064584620005d2565b620005b3565b9050828152602081018484840111156200066a576200066962000538565b5b6200067784828562000608565b509392505050565b600082601f83011262000697576200069662000533565b5b8151620006a984826020860162000634565b91505092915050565b600073ffffffffffffffffffffffffffffffffffffffff82169050919050565b6000620006df82620006b2565b9050919050565b620006f181620006d2565b8114620006fd57600080fd5b50565b6000815190506200071181620006e6565b92915050565b60008060006060848603121562000733576200073262000529565b5b600084015167ffffffffffffffff8111156200075457620007536200052e565b5b62000762868287016200067f565b935050602084015167ffffffffffffffff8111156200078657620007856200052e565b5b62000794868287016200067f565b9250506040620007a78682870162000700565b9150509250925092565b600081519050919050565b7f4e487b7100000000000000000000000000000000000000000000000000000000600052602260045260246000fd5b600060028204905060018216806200080457607f821691505b6020821081036200081a5762000819620007bc565b5b50919050565b60008190508160005260206000209050919050565b60006020601f8301049050919050565b600082821b905092915050565b600060088302620008847fffffffffffffffffffffffffffffffffffffffffffffffffffffffffffffffff8262000845565b62000890868362000845565b95508019841693508086168417925050509392505050565b6000819050919050565b6000819050919050565b6000620008dd620008d7620008d184620008a8565b620008b2565b620008a8565b9050919050565b6000819050919050565b620008f983620008bc565b620009116200090882620008e4565b84845462000852565b825550505050565b600090565b6200092862000919565b62000935818484620008ee565b505050565b5b818110156200095d57620009516000826200091e565b6001810190506200093b565b5050565b601f821115620009ac57620009768162000820565b620009818462000835565b8101602085101562000991578190505b620009a9620009a08562000835565b8301826200093a565b50505b505050565b600082821c905092915050565b6000620009d160001984600802620009b1565b1980831691505092915050565b6000620009ec8383620009be565b9150826002028217905092915050565b62000a0782620007b1565b67ffffffffffffffff81111562000a235762000a226200054e565b5b62000a2f8254620007eb565b62000a3c82828562000961565b600060209050601f83116001811462000a74576000841562000a5f578287015190505b62000a6b8582620009de565b86555062000adb565b601f19841662000a848662000820565b60005b8281101562000aae5784890151825560018201915060208501945060208101905062000a87565b8683101562000ace578489015162000aca601f891682620009be565b8355505b6001600288020188555050505b505050505050565b62000aee81620006d2565b82525050565b600060208201905062000b0b600083018462000ae3565b92915050565b7f4e487b7100000000000000000000000000000000000000000000000000000000600052601160045260246000fd5b600062000b4d82620008a8565b915062000b5a83620008a8565b925082820190508082111562000b755762000b7462000b11565b5b92915050565b62000b8681620008a8565b82525050565b600060608201905062000ba3600083018662000ae3565b62000bb2602083018562000b7b565b62000bc1604083018462000b7b565b949350505050565b600060208201905062000be0600083018462000b7b565b92915050565b6127988062000bf66000396000f3fe60806040526004361061019c5760003560e01c80638da5cb5b116100ec578063a9059cbb1161008a578063dd62ed3e11610064578063dd62ed3e146105a1578063e4849b32146105de578063e7c2b77214610607578063f2fde38b146106325761019c565b8063a9059cbb1461050e578063ae2c1a6e1461054b578063b9c3a818146105765761019c565b806395d89b41116100c657806395d89b41146104975780639d1b464a146104c2578063a0ef91df146104ed578063a6f2ae3a146105045761019c565b80638da5cb5b14610416578063902d55a514610441578063939c44561461046c5761019c565b806323b872dd116101595780636700c0c3116101335780636700c0c31461035a57806370a0823114610385578063715018a6146103c2578063768713f5146103d95761019c565b806323b872dd146102c7578063313ce56714610304578063343ee3b71461032f5761019c565b806306fdde03146101a1578063095ea7b3146101cc578063130b31201461020957806318160ddd146102345780631e4c72921461025f5780631fb87f391461028a575b600080fd5b3480156101ad57600080fd5b506101b661065b565b6040516101c39190611d5c565b60405180910390f35b3480156101d857600080fd5b506101f360048036038101906101ee9190611e17565b6106ed565b6040516102009190611e72565b60405180910390f35b34801561021557600080fd5b5061021e610710565b60405161022b9190611e9c565b60405180910390f35b34801561024057600080fd5b50610249610716565b6040516102569190611e9c565b60405180910390f35b34801561026b57600080fd5b50610274610720565b6040516102819190611e9c565b60405180910390f35b34801561029657600080fd5b506102b160048036038101906102ac9190611eb7565b610730565b6040516102be9190611e9c565b60405180910390f35b3480156102d357600080fd5b506102ee60048036038101906102e99190611ee4565b6107f5565b6040516102fb9190611e72565b60405180910390f35b34801561031057600080fd5b50610319610824565b6040516103269190611f53565b60405180910390f35b34801561033b57600080fd5b5061034461082d565b6040516103519190611e9c565b60405180910390f35b34801561036657600080fd5b5061036f610833565b60405161037c9190611e9c565b60405180910390f35b34801561039157600080fd5b506103ac60048036038101906103a79190611f6e565b61083f565b6040516103b99190611e9c565b60405180910390f35b3480156103ce57600080fd5b506103d7610887565b005b3480156103e557600080fd5b5061040060048036038101906103fb9190611eb7565b61089b565b60405161040d9190611e9c565b60405180910390f35b34801561042257600080fd5b5061042b61093a565b6040516104389190611faa565b60405180910390f35b34801561044d57600080fd5b50610456610964565b6040516104639190611e9c565b60405180910390f35b34801561047857600080fd5b50610481610974565b60405161048e9190611e9c565b60405180910390f35b3480156104a357600080fd5b506104ac6109bc565b6040516104b99190611d5c565b60405180910390f35b3480156104ce57600080fd5b506104d7610a4e565b6040516104e49190611e9c565b60405180910390f35b3480156104f957600080fd5b50610502610a90565b005b61050c610c55565b005b34801561051a57600080fd5b5061053560048036038101906105309190611e17565b6110a3565b6040516105429190611e72565b60405180910390f35b34801561055757600080fd5b506105606110c6565b60405161056d9190611e9c565b60405180910390f35b34801561058257600080fd5b5061058b6110d2565b6040516105989190611e9c565b60405180910390f35b3480156105ad57600080fd5b506105c860048036038101906105c39190611fc5565b6110e1565b6040516105d59190611e9c565b60405180910390f35b3480156105ea57600080fd5b5061060560048036038101906106009190611eb7565b611168565b005b34801561061357600080fd5b5061061c611475565b6040516106299190611e72565b60405180910390f35b34801561063e57600080fd5b5061065960048036038101906106549190611f6e565b611488565b005b60606003805461066a90612034565b80601f016020809104026020016040519081016040528092919081815260200182805461069690612034565b80156106e35780601f106106b8576101008083540402835291602001916106e3565b820191906000526020600020905b8154815290600101906020018083116106c657829003601f168201915b5050505050905090565b6000806106f861150e565b9050610705818585611516565b600191505092915050565b60075481565b6000600254905090565b6b0295be96e64066972000000081565b6000600860009054906101000a900460ff161561075057600090506107f0565b6730927f74c9de0000826007546107679190612094565b1115610786576007546730927f74c9de000061078391906120c8565b91505b60006006546007546714d1120d7b1600006107a19190612094565b6107ab91906120fc565b90506000836007546714d1120d7b1600006107c69190612094565b6107d09190612094565b826107db919061216d565b9050806006546107eb91906120c8565b925050505b919050565b60008061080061150e565b905061080d858285611528565b6108188585856115bd565b60019150509392505050565b60006012905090565b60065481565b6714d1120d7b16000081565b60008060008373ffffffffffffffffffffffffffffffffffffffff1673ffffffffffffffffffffffffffffffffffffffff168152602001908152602001600020549050919050565b61088f6116b1565b6108996000611738565b565b6000600860009054906101000a900460ff16156108bb5760009050610935565b60006006546007546714d1120d7b1600006108d69190612094565b6108e091906120fc565b90506000836006546108f29190612094565b826108fd919061216d565b9050806007546714d1120d7b1600006109169190612094565b61092091906120c8565b92506007548311156109325760075492505b50505b919050565b6000600560009054906101000a900473ffffffffffffffffffffffffffffffffffffffff16905090565b6b033b2e3c9fd0803ce800000081565b6000600860009054906101000a900460ff161561099457606490506109b9565b6730927f74c9de000060646007546109ac91906120fc565b6109b6919061216d565b90505b90565b6060600480546109cb90612034565b80601f01602080910402602001604051908101604052809291908181526020018280546109f790612034565b8015610a445780601f10610a1957610100808354040283529160200191610a44565b820191906000526020600020905b815481529060010190602001808311610a2757829003601f168201915b5050505050905090565b6000806007546714d1120d7b160000610a679190612094565b9050600654670de0b6b3a764000082610a8091906120fc565b610a8a919061216d565b91505090565b610a986116b1565b600047905060008111610ae0576040517f08c379a0000000000000000000000000000000000000000000000000000000008152600401610ad7906121ea565b60405180910390fd5b600860009054906101000a900460ff16610b49576001600860006101000a81548160ff0219169083151502179055507f04d39283851d5dc1961a5296a48d487854db2aae45afe51e83aae1db8d04d42f600754604051610b409190611e9c565b60405180910390a15b6000610b5361093a565b73ffffffffffffffffffffffffffffffffffffffff1682604051610b769061223b565b60006040518083038185875af1925050503d8060008114610bb3576040519150601f19603f3d011682016040523d82523d6000602084013e610bb8565b606091505b5050905080610bfc576040517f08c379a0000000000000000000000000000000000000000000000000000000008152600401610bf39061229c565b60405180910390fd5b610c0461093a565b73ffffffffffffffffffffffffffffffffffffffff167f8455ae6be5d92f1df1c3c1484388e247a36c7e60d72055ae216dbc258f257d4b83604051610c499190611e9c565b60405180910390a25050565b610c5d6117fe565b600860009054906101000a900460ff1615610cad576040517f08c379a0000000000000000000000000000000000000000000000000000000008152600401610ca490612308565b60405180910390fd5b60003411610cf0576040517f08c379a0000000000000000000000000000000000000000000000000000000008152600401610ce790612374565b60405180910390fd5b600034905060006730927f74c9de000082600754610d0e9190612094565b1115610d415760006007546730927f74c9de0000610d2c91906120c8565b90508083610d3a91906120c8565b9150809250505b60006007546714d1120d7b160000610d599190612094565b9050600060065482610d6b91906120fc565b905060008483610d7b9190612094565b905060008183610d8b919061216d565b9050600081600654610d9d91906120c8565b905060008111610de2576040517f08c379a0000000000000000000000000000000000000000000000000000000008152600401610dd9906123e0565b60405180910390fd5b816006819055508660076000828254610dfb9190612094565b92505081905550610e0d3033836115bd565b6000861115610ec45760003373ffffffffffffffffffffffffffffffffffffffff1687604051610e3c9061223b565b60006040518083038185875af1925050503d8060008114610e79576040519150601f19603f3d011682016040523d82523d6000602084013e610e7e565b606091505b5050905080610ec2576040517f08c379a0000000000000000000000000000000000000000000000000000000008152600401610eb99061244c565b60405180910390fd5b505b6730927f74c9de000060075410611039576001600860006101000a81548160ff0219169083151502179055507f04d39283851d5dc1961a5296a48d487854db2aae45afe51e83aae1db8d04d42f600754604051610f219190611e9c565b60405180910390a160004790506000610f3861093a565b73ffffffffffffffffffffffffffffffffffffffff1682604051610f5b9061223b565b60006040518083038185875af1925050503d8060008114610f98576040519150601f19603f3d011682016040523d82523d6000602084013e610f9d565b606091505b5050905080610fe1576040517f08c379a0000000000000000000000000000000000000000000000000000000008152600401610fd8906124b8565b60405180910390fd5b610fe961093a565b73ffffffffffffffffffffffffffffffffffffffff167f8455ae6be5d92f1df1c3c1484388e247a36c7e60d72055ae216dbc258f257d4b8360405161102e9190611e9c565b60405180910390a250505b3373ffffffffffffffffffffffffffffffffffffffff167fbeae048c6d270d9469f86cf6e8fedda3c60ad770f16c24c9fc131c8e9a09101d888361107b610974565b60405161108a939291906124d8565b60405180910390a2505050505050506110a1611821565b565b6000806110ae61150e565b90506110bb8185856115bd565b600191505092915050565b6730927f74c9de000081565b6aa56fa5b99019a5c800000081565b6000600160008473ffffffffffffffffffffffffffffffffffffffff1673ffffffffffffffffffffffffffffffffffffffff16815260200190815260200160002060008373ffffffffffffffffffffffffffffffffffffffff1673ffffffffffffffffffffffffffffffffffffffff16815260200190815260200160002054905092915050565b6111706117fe565b600860009054906101000a900460ff16156111c0576040517f08c379a00000000000000000000000000000000000000000000000000000000081526004016111b79061255b565b60405180910390fd5b60008111611203576040517f08c379a00000000000000000000000000000000000000000000000000000000081526004016111fa906125c7565b60405180910390fd5b8061120d3361083f565b101561124e576040517f08c379a000000000000000000000000000000000000000000000000000000000815260040161124590612633565b60405180910390fd5b60006007546714d1120d7b1600006112669190612094565b905060006006548261127891906120fc565b905060008360065461128a9190612094565b90506000818361129a919061216d565b9050600081856112aa91906120c8565b90506007548111156112f1576040517f08c379a00000000000000000000000000000000000000000000000000000000081526004016112e89061269f565b60405180910390fd5b60008111611334576040517f08c379a000000000000000000000000000000000000000000000000000000000815260040161132b906123e0565b60405180910390fd5b82600681905550806007600082825461134d91906120c8565b9250508190555061135f3330886115bd565b60003373ffffffffffffffffffffffffffffffffffffffff16826040516113859061223b565b60006040518083038185875af1925050503d80600081146113c2576040519150601f19603f3d011682016040523d82523d6000602084013e6113c7565b606091505b505090508061140b576040517f08c379a00000000000000000000000000000000000000000000000000000000081526004016114029061270b565b60405180910390fd5b3373ffffffffffffffffffffffffffffffffffffffff167f846c37eef631e0943682d87352ec117c20008eb7f425c9b85ac011a6d4774cc0888461144d610974565b60405161145c939291906124d8565b60405180910390a2505050505050611472611821565b50565b600860009054906101000a900460ff1681565b6114906116b1565b600073ffffffffffffffffffffffffffffffffffffffff168173ffffffffffffffffffffffffffffffffffffffff16036115025760006040517f1e4fbdf70000000000000000000000000000000000000000000000000000000081526004016114f99190611faa565b60405180910390fd5b61150b81611738565b50565b600033905090565b611523838383600161183c565b505050565b600061153484846110e1565b90507fffffffffffffffffffffffffffffffffffffffffffffffffffffffffffffffff8110156115b757818110156115a7578281836040517ffb8f41b200000000000000000000000000000000000000000000000000000000815260040161159e9392919061272b565b60405180910390fd5b6115b68484848403600061183c565b5b50505050565b600073ffffffffffffffffffffffffffffffffffffffff168373ffffffffffffffffffffffffffffffffffffffff160361162f5760006040517f96c6fd1e0000000000000000000000000000000000000000000000000000000081526004016116269190611faa565b60405180910390fd5b600073ffffffffffffffffffffffffffffffffffffffff168273ffffffffffffffffffffffffffffffffffffffff16036116a15760006040517fec442f050000000000000000000000000000000000000000000000000000000081526004016116989190611faa565b60405180910390fd5b6116ac838383611a13565b505050565b6116b961150e565b73ffffffffffffffffffffffffffffffffffffffff166116d761093a565b73ffffffffffffffffffffffffffffffffffffffff1614611736576116fa61150e565b6040517f118cdaa700000000000000000000000000000000000000000000000000000000815260040161172d9190611faa565b60405180910390fd5b565b6000600560009054906101000a900473ffffffffffffffffffffffffffffffffffffffff16905081600560006101000a81548173ffffffffffffffffffffffffffffffffffffffff021916908373ffffffffffffffffffffffffffffffffffffffff1602179055508173ffffffffffffffffffffffffffffffffffffffff168173ffffffffffffffffffffffffffffffffffffffff167f8be0079c531659141344cd1fd0a4f28419497f9722a3daafe3b4186f6b6457e060405160405180910390a35050565b611806611c38565b6002611818611813611c79565b611ca4565b60000181905550565b600161183361182e611c79565b611ca4565b60000181905550565b600073ffffffffffffffffffffffffffffffffffffffff168473ffffffffffffffffffffffffffffffffffffffff16036118ae5760006040517fe602df050000000000000000000000000000000000000000000000000000000081526004016118a59190611faa565b60405180910390fd5b600073ffffffffffffffffffffffffffffffffffffffff168373ffffffffffffffffffffffffffffffffffffffff16036119205760006040517f94280d620000000000000000000000000000000000000000000000000000000081526004016119179190611faa565b60405180910390fd5b81600160008673ffffffffffffffffffffffffffffffffffffffff1673ffffffffffffffffffffffffffffffffffffffff16815260200190815260200160002060008573ffffffffffffffffffffffffffffffffffffffff1673ffffffffffffffffffffffffffffffffffffffff168152602001908152602001600020819055508015611a0d578273ffffffffffffffffffffffffffffffffffffffff168473ffffffffffffffffffffffffffffffffffffffff167f8c5be1e5ebec7d5bd14f71427d1e84f3dd0314c0f7b2291e5b200ac8c7c3b92584604051611a049190611e9c565b60405180910390a35b50505050565b600073ffffffffffffffffffffffffffffffffffffffff168373ffffffffffffffffffffffffffffffffffffffff1603611a65578060026000828254611a599190612094565b92505081905550611b38565b60008060008573ffffffffffffffffffffffffffffffffffffffff1673ffffffffffffffffffffffffffffffffffffffff16815260200190815260200160002054905081811015611af1578381836040517fe450d38c000000000000000000000000000000000000000000000000000000008152600401611ae89392919061272b565b60405180910390fd5b8181036000808673ffffffffffffffffffffffffffffffffffffffff1673ffffffffffffffffffffffffffffffffffffffff16815260200190815260200160002081905550505b600073ffffffffffffffffffffffffffffffffffffffff168273ffffffffffffffffffffffffffffffffffffffff1603611b815780600260008282540392505081905550611bce565b806000808473ffffffffffffffffffffffffffffffffffffffff1673ffffffffffffffffffffffffffffffffffffffff168152602001908152602001600020600082825401925050819055505b8173ffffffffffffffffffffffffffffffffffffffff168373ffffffffffffffffffffffffffffffffffffffff167fddf252ad1be2c89b69c2b068fc378daa952ba7f163c4a11628f55a4df523b3ef83604051611c2b9190611e9c565b60405180910390a3505050565b611c40611cae565b15611c77576040517f3ee5aeb500000000000000000000000000000000000000000000000000000000815260040160405180910390fd5b565b60007f9b779b17422d0df92223018b32b4d1fa46e071723d6817e2486d003becc55f0060001b905090565b6000819050919050565b60006002611cc2611cbd611c79565b611ca4565b6000015414905090565b600081519050919050565b600082825260208201905092915050565b60005b83811015611d06578082015181840152602081019050611ceb565b60008484015250505050565b6000601f19601f8301169050919050565b6000611d2e82611ccc565b611d388185611cd7565b9350611d48818560208601611ce8565b611d5181611d12565b840191505092915050565b60006020820190508181036000830152611d768184611d23565b905092915050565b600080fd5b600073ffffffffffffffffffffffffffffffffffffffff82169050919050565b6000611dae82611d83565b9050919050565b611dbe81611da3565b8114611dc957600080fd5b50565b600081359050611ddb81611db5565b92915050565b6000819050919050565b611df481611de1565b8114611dff57600080fd5b50565b600081359050611e1181611deb565b92915050565b60008060408385031215611e2e57611e2d611d7e565b5b6000611e3c85828601611dcc565b9250506020611e4d85828601611e02565b9150509250929050565b60008115159050919050565b611e6c81611e57565b82525050565b6000602082019050611e876000830184611e63565b92915050565b611e9681611de1565b82525050565b6000602082019050611eb16000830184611e8d565b92915050565b600060208284031215611ecd57611ecc611d7e565b5b6000611edb84828501611e02565b91505092915050565b600080600060608486031215611efd57611efc611d7e565b5b6000611f0b86828701611dcc565b9350506020611f1c86828701611dcc565b9250506040611f2d86828701611e02565b9150509250925092565b600060ff82169050919050565b611f4d81611f37565b82525050565b6000602082019050611f686000830184611f44565b92915050565b600060208284031215611f8457611f83611d7e565b5b6000611f9284828501611dcc565b91505092915050565b611fa481611da3565b82525050565b6000602082019050611fbf6000830184611f9b565b92915050565b60008060408385031215611fdc57611fdb611d7e565b5b6000611fea85828601611dcc565b9250506020611ffb85828601611dcc565b9150509250929050565b7f4e487b7100000000000000000000000000000000000000000000000000000000600052602260045260246000fd5b6000600282049050600182168061204c57607f821691505b60208210810361205f5761205e612005565b5b50919050565b7f4e487b7100000000000000000000000000000000000000000000000000000000600052601160045260246000fd5b600061209f82611de1565b91506120aa83611de1565b92508282019050808211156120c2576120c1612065565b5b92915050565b60006120d382611de1565b91506120de83611de1565b92508282039050818111156120f6576120f5612065565b5b92915050565b600061210782611de1565b915061211283611de1565b925082820261212081611de1565b9150828204841483151761213757612136612065565b5b5092915050565b7f4e487b7100000000000000000000000000000000000000000000000000000000600052601260045260246000fd5b600061217882611de1565b915061218383611de1565b9250826121935761219261213e565b5b828204905092915050565b7f4e6f2045544820746f2077697468647261770000000000000000000000000000600082015250565b60006121d4601283611cd7565b91506121df8261219e565b602082019050919050565b60006020820190508181036000830152612203816121c7565b9050919050565b600081905092915050565b50565b600061222560008361220a565b915061223082612215565b600082019050919050565b600061224682612218565b9150819050919050565b7f5769746864726177206661696c65640000000000000000000000000000000000600082015250565b6000612286600f83611cd7565b915061229182612250565b602082019050919050565b600060208201905081810360008301526122b581612279565b9050919050565b7f437572766520636c6f7365643a20746f6b656e20677261647561746564000000600082015250565b60006122f2601d83611cd7565b91506122fd826122bc565b602082019050919050565b60006020820190508181036000830152612321816122e5565b9050919050565b7f53656e642045544820746f206275790000000000000000000000000000000000600082015250565b600061235e600f83611cd7565b915061236982612328565b602082019050919050565b6000602082019050818103600083015261238d81612351565b9050919050565b7f546f6f20736d616c6c0000000000000000000000000000000000000000000000600082015250565b60006123ca600983611cd7565b91506123d582612394565b602082019050919050565b600060208201905081810360008301526123f9816123bd565b9050919050565b7f526566756e64206661696c656400000000000000000000000000000000000000600082015250565b6000612436600d83611cd7565b915061244182612400565b602082019050919050565b6000602082019050818103600083015261246581612429565b9050919050565b7f4175746f2d7769746864726177206661696c6564000000000000000000000000600082015250565b60006124a2601483611cd7565b91506124ad8261246c565b602082019050919050565b600060208201905081810360008301526124d181612495565b9050919050565b60006060820190506124ed6000830186611e8d565b6124fa6020830185611e8d565b6125076040830184611e8d565b949350505050565b7f43616e6e6f742073656c6c3a20746f6b656e2067726164756174656400000000600082015250565b6000612545601c83611cd7565b91506125508261250f565b602082019050919050565b6000602082019050818103600083015261257481612538565b9050919050565b7f4e6f20746f6b656e732073706563696669656400000000000000000000000000600082015250565b60006125b1601383611cd7565b91506125bc8261257b565b602082019050919050565b600060208201905081810360008301526125e0816125a4565b9050919050565b7f496e73756666696369656e742062616c616e6365000000000000000000000000600082015250565b600061261d601483611cd7565b9150612628826125e7565b602082019050919050565b6000602082019050818103600083015261264c81612610565b9050919050565b7f4e6f7420656e6f7567682045544820696e20706f6f6c00000000000000000000600082015250565b6000612689601683611cd7565b915061269482612653565b602082019050919050565b600060208201905081810360008301526126b88161267c565b9050919050565b7f455448207472616e73666572206661696c656400000000000000000000000000600082015250565b60006126f5601383611cd7565b9150612700826126bf565b602082019050919050565b60006020820190508181036000830152612724816126e8565b9050919050565b60006060820190506127406000830186611f9b565b61274d6020830185611e8d565b61275a6040830184611e8d565b94935050505056fea26469706673582212202277772e0f1a76ce9498e404e2134b7cc6e6d0aeeffbb867d3f52396379f69f964736f6c63430008140033",
  "linkReferences": {},
  "deployedLinkReferences": {}
}