{
  "_format": "hh-sol-artifact-1",
  "contractName": "StackrFactoryV4",
  "sourceName": "contracts/v4/StackrFactoryV4.sol",
  "abi": [
    {
      "inputs": [
        {
          "internalType": "address",
          "name": "_ethUsdFeed",
          "type": "address"
        },
        {
          "internalType": "address",
          "name": "_v2Router",
          "type": "address"
        },
        {
          "internalType": "address",
          "name": "_v2Factory",
          "type": "address"
        },
        {
          "internalType": "address",
          "name": "_weth",
          "type": "address"
        },
        {
          "internalType": "address",
          "name": "_initialOwner",
          "type": "address"
        }
      ],
      "stateMutability": "nonpayable",
      "type": "constructor"
    },
    {
      "inputs": [
        {
          "internalType": "address",
          "name": "owner",
          "type": "address"
        }
      ],
      "name": "OwnableInvalidOwner",
      "type": "error"
    },
    {
      "inputs": [
        {
          "internalType": "address",
          "name": "account",
          "type": "address"
        }
      ],
      "name": "OwnableUnauthorizedAccount",
      "type": "error"
    },
    {
      "inputs": [],
      "name": "ReentrancyGuardReentrantCall",
      "type": "error"
    },
    {
      "anonymous": false,
      "inputs": [
        {
          "indexed": true,
          "internalType": "address",
          "name": "token",
          "type": "address"
        },
        {
          "indexed": true,
          "internalType": "address",
          "name": "to",
          "type": "address"
        },
        {
          "indexed": false,
          "internalType": "uint256",
          "name": "amount",
          "type": "uint256"
        }
      ],
      "name": "CurveEthWithdrawn",
      "type": "event"
    },
    {
      "anonymous": false,
      "inputs": [
        {
          "indexed": true,
          "internalType": "address",
          "name": "token",
          "type": "address"
        },
        {
          "indexed": true,
          "internalType": "address",
          "name": "to",
          "type": "address"
        },
        {
          "indexed": false,
          "internalType": "uint256",
          "name": "amount",
          "type": "uint256"
        }
      ],
      "name": "CurveTokensWithdrawn",
      "type": "event"
    },
    {
      "anonymous": false,
      "inputs": [
        {
          "indexed": true,
          "internalType": "address",
          "name": "token",
          "type": "address"
        },
        {
          "indexed": true,
          "internalType": "address",
          "name": "creator",
          "type": "address"
        },
        {
          "indexed": false,
          "internalType": "uint256",
          "name": "ethIn",
          "type": "uint256"
        },
        {
          "indexed": false,
          "internalType": "uint256",
          "name": "tokensOut",
          "type": "uint256"
        }
      ],
      "name": "DevBuy",
      "type": "event"
    },
    {
      "anonymous": false,
      "inputs": [
        {
          "indexed": true,
          "internalType": "address",
          "name": "token",
          "type": "address"
        },
        {
          "indexed": true,
          "internalType": "address",
          "name": "to",
          "type": "address"
        },
        {
          "indexed": false,
          "internalType": "uint256",
          "name": "amount",
          "type": "uint256"
        }
      ],
      "name": "LPWithdrawn",
      "type": "event"
    },
    {
      "anonymous": false,
      "inputs": [
        {
          "indexed": true,
          "internalType": "address",
          "name": "token",
          "type": "address"
        }
      ],
      "name": "LaunchCancelled",
      "type": "event"
    },
    {
      "anonymous": false,
      "inputs": [
        {
          "indexed": true,
          "internalType": "address",
          "name": "previousOwner",
          "type": "address"
        },
        {
          "indexed": true,
          "internalType": "address",
          "name": "newOwner",
          "type": "address"
        }
      ],
      "name": "OwnershipTransferred",
      "type": "event"
    },
    {
      "anonymous": false,
      "inputs": [
        {
          "indexed": true,
          "internalType": "address",
          "name": "token",
          "type": "address"
        },
        {
          "indexed": true,
          "internalType": "address",
          "name": "curve",
          "type": "address"
        },
        {
          "indexed": true,
          "internalType": "address",
          "name": "creator",
          "type": "address"
        },
        {
          "indexed": false,
          "internalType": "string",
          "name": "name",
          "type": "string"
        },
        {
          "indexed": false,
          "internalType": "string",
          "name": "symbol",
          "type": "string"
        },
        {
          "indexed": false,
          "internalType": "string",
          "name": "metadataURI",
          "type": "string"
        },
        {
          "indexed": false,
          "internalType": "uint256",
          "name": "ethUsdPrice8",
          "type": "uint256"
        },
        {
          "indexed": false,
          "internalType": "uint256",
          "name": "virtualEthReserve",
          "type": "uint256"
        }
      ],
      "name": "TokenDeployed",
      "type": "event"
    },
    {
      "inputs": [],
      "name": "CURVE_TOKEN_SUPPLY",
      "outputs": [
        {
          "internalType": "uint256",
          "name": "",
          "type": "uint256"
        }
      ],
      "stateMutability": "view",
      "type": "function"
    },
    {
      "inputs": [],
      "name": "LAUNCH_FDV_USD",
      "outputs": [
        {
          "internalType": "uint256",
          "name": "",
          "type": "uint256"
        }
      ],
      "stateMutability": "view",
      "type": "function"
    },
    {
      "inputs": [],
      "name": "TOTAL_SUPPLY",
      "outputs": [
        {
          "internalType": "uint256",
          "name": "",
          "type": "uint256"
        }
      ],
      "stateMutability": "view",
      "type": "function"
    },
    {
      "inputs": [
        {
          "internalType": "uint256",
          "name": "",
          "type": "uint256"
        }
      ],
      "name": "allTokens",
      "outputs": [
        {
          "internalType": "address",
          "name": "",
          "type": "address"
        }
      ],
      "stateMutability": "view",
      "type": "function"
    },
    {
      "inputs": [
        {
          "internalType": "address",
          "name": "tokenAddr",
          "type": "address"
        }
      ],
      "name": "cancelLaunch",
      "outputs": [],
      "stateMutability": "nonpayable",
      "type": "function"
    },
    {
      "inputs": [
        {
          "internalType": "string",
          "name": "name",
          "type": "string"
        },
        {
          "internalType": "string",
          "name": "symbol",
          "type": "string"
        },
        {
          "internalType": "string",
          "name": "metadataURI",
          "type": "string"
        }
      ],
      "name": "deployToken",
      "outputs": [
        {
          "internalType": "address",
          "name": "token",
          "type": "address"
        },
        {
          "internalType": "address",
          "name": "curve",
          "type": "address"
        }
      ],
      "stateMutability": "nonpayable",
      "type": "function"
    },
    {
      "inputs": [
        {
          "internalType": "string",
          "name": "name",
          "type": "string"
        },
        {
          "internalType": "string",
          "name": "symbol",
          "type": "string"
        },
        {
          "internalType": "string",
          "name": "metadataURI",
          "type": "string"
        },
        {
          "internalType": "uint256",
          "name": "minTokensOut",
          "type": "uint256"
        }
      ],
      "name": "deployTokenWithBuy",
      "outputs": [
        {
          "internalType": "address",
          "name": "token",
          "type": "address"
        },
        {
          "internalType": "address",
          "name": "curve",
          "type": "address"
        },
        {
          "internalType": "uint256",
          "name": "tokensBought",
          "type": "uint256"
        }
      ],
      "stateMutability": "payable",
      "type": "function"
    },
    {
      "inputs": [],
      "name": "ethUsdFeed",
      "outputs": [
        {
          "internalType": "contract AggregatorV3Interface",
          "name": "",
          "type": "address"
        }
      ],
      "stateMutability": "view",
      "type": "function"
    },
    {
      "inputs": [],
      "name": "ethUsdPrice",
      "outputs": [
        {
          "internalType": "uint256",
          "name": "",
          "type": "uint256"
        }
      ],
      "stateMutability": "view",
      "type": "function"
    },
    {
      "inputs": [],
      "name": "getAllTokens",
      "outputs": [
        {
          "internalType": "address[]",
          "name": "",
          "type": "address[]"
        }
      ],
      "stateMutability": "view",
      "type": "function"
    },
    {
      "inputs": [
        {
          "internalType": "address",
          "name": "tokenAddr",
          "type": "address"
        }
      ],
      "name": "getRecord",
      "outputs": [
        {
          "components": [
            {
              "internalType": "address",
              "name": "token",
              "type": "address"
            },
            {
              "internalType": "address",
              "name": "curve",
              "type": "address"
            },
            {
              "internalType": "address",
              "name": "creator",
              "type": "address"
            },
            {
              "internalType": "uint64",
              "name": "deployedAt",
              "type": "uint64"
            },
            {
              "internalType": "uint64",
              "name": "launchEthUsd8",
              "type": "uint64"
            }
          ],
          "internalType": "struct StackrFactoryV4.LaunchRecord",
          "name": "",
          "type": "tuple"
        }
      ],
      "stateMutability": "view",
      "type": "function"
    },
    {
      "inputs": [],
      "name": "owner",
      "outputs": [
        {
          "internalType": "address",
          "name": "",
          "type": "address"
        }
      ],
      "stateMutability": "view",
      "type": "function"
    },
    {
      "inputs": [
        {
          "internalType": "address",
          "name": "",
          "type": "address"
        }
      ],
      "name": "records",
      "outputs": [
        {
          "internalType": "address",
          "name": "token",
          "type": "address"
        },
        {
          "internalType": "address",
          "name": "curve",
          "type": "address"
        },
        {
          "internalType": "address",
          "name": "creator",
          "type": "address"
        },
        {
          "internalType": "uint64",
          "name": "deployedAt",
          "type": "uint64"
        },
        {
          "internalType": "uint64",
          "name": "launchEthUsd8",
          "type": "uint64"
        }
      ],
      "stateMutability": "view",
      "type": "function"
    },
    {
      "inputs": [],
      "name": "renounceOwnership",
      "outputs": [],
      "stateMutability": "nonpayable",
      "type": "function"
    },
    {
      "inputs": [],
      "name": "tokenCount",
      "outputs": [
        {
          "internalType": "uint256",
          "name": "",
          "type": "uint256"
        }
      ],
      "stateMutability": "view",
      "type": "function"
    },
    {
      "inputs": [
        {
          "internalType": "address",
          "name": "newOwner",
          "type": "address"
        }
      ],
      "name": "transferOwnership",
      "outputs": [],
      "stateMutability": "nonpayable",
      "type": "function"
    },
    {
      "inputs": [],
      "name": "v2Factory",
      "outputs": [
        {
          "internalType": "address",
          "name": "",
          "type": "address"
        }
      ],
      "stateMutability": "view",
      "type": "function"
    },
    {
      "inputs": [],
      "name": "v2Router",
      "outputs": [
        {
          "internalType": "address",
          "name": "",
          "type": "address"
        }
      ],
      "stateMutability": "view",
      "type": "function"
    },
    {
      "inputs": [],
      "name": "weth",
      "outputs": [
        {
          "internalType": "address",
          "name": "",
          "type": "address"
        }
      ],
      "stateMutability": "view",
      "type": "function"
    },
    {
      "inputs": [
        {
          "internalType": "address",
          "name": "tokenAddr",
          "type": "address"
        },
        {
          "internalType": "address payable",
          "name": "to",
          "type": "address"
        }
      ],
      "name": "withdrawCurveEth",
      "outputs": [],
      "stateMutability": "nonpayable",
      "type": "function"
    },
    {
      "inputs": [
        {
          "internalType": "address",
          "name": "tokenAddr",
          "type": "address"
        },
        {
          "internalType": "address",
          "name": "to",
          "type": "address"
        }
      ],
      "name": "withdrawCurveTokens",
      "outputs": [],
      "stateMutability": "nonpayable",
      "type": "function"
    },
    {
      "inputs": [
        {
          "internalType": "address",
          "name": "tokenAddr",
          "type": "address"
        },
        {
          "internalType": "address",
          "name": "to",
          "type": "address"
        }
      ],
      "name": "withdrawLP",
      "outputs": [],
      "stateMutability": "nonpayable",
      "type": "function"
    }
  ],
  "bytecode": "0x6101003461022657601f61435538819003918201601f19168301916001600160401b0383118484101761022a5780849260a094604052833981010312610226576100488161023e565b6100546020830161023e565b6100606040840161023e565b9161006d6060850161023e565b936001600160a01b03906100839060800161023e565b16908115610213575f80546001600160a01b031981168417825560405193916001600160a01b03909116907f8be0079c531659141344cd1fd0a4f28419497f9722a3daafe3b4186f6b6457e09080a360017f9b779b17422d0df92223018b32b4d1fa46e071723d6817e2486d003becc55f00556001600160a01b03169081156101e657506001600160a01b0382161515806101d4575b806101c2575b156101945760805260a05260c05260e05260405161410290816102538239608051818181610464015281816106640152611340015260a05181818161025e015261149a015260c0518181816102a301528181610bf101526114c2015260e051818181610bc401528181610fa601526114ea0152f35b60405162461bcd60e51b81526020600482015260066024820152652130b2103b1960d11b6044820152606490fd5b506001600160a01b038416151561011f565b506001600160a01b0383161515610119565b62461bcd60e51b8152602060048201526008602482015267109859081999595960c21b6044820152606490fd5b631e4fbdf760e01b5f525f60045260245ffd5b5f80fd5b634e487b7160e01b5f52604160045260245ffd5b51906001600160a01b03821682036102265756fe6080806040526004361015610012575f80fd5b5f905f3560e01c9081631a92ca3f14611080575080632a5c792a14610fd55780633fc8cef314610f91578063457902d214610eeb578063469e906714610e685780635296894314610b0c578063617fba0414610a2a578063634282af146109e8578063715018a6146109a45780637947ba15146106935780638009b7bd1461064e5780638da5cb5b14610627578063902d55a5146106005780639336c13e146104f05780639478ab8c1461043e578063958f6798146103175780639f181b5e146102f95780639f870a75146102d2578063b4b57c391461028d578063deadbc1414610248578063e33d206f146101855763f2fde38b14610110575f80fd5b3461018257602036600319011261018257610129611163565b610131611802565b6001600160a01b0316801561016e5781546001600160a01b03198116821783556001600160a01b03165f8051602061408d8339815191528380a380f35b631e4fbdf760e01b82526004829052602482fd5b80fd5b50346101825760203660031901126101825761019f611163565b6101a7611802565b6001600160a01b039081168083526001602081905260408420015490918391166101d28115156111f0565b803b1561023957818091600460405180948193631c9634af60e11b83525af1801561023d57610224575b50807f92a1a05666d4531303b096853e5c666cb08ddec77c703aa32ed4a26d4524b75c91a280f35b8161022e916110d1565b61023957815f6101fc565b5080fd5b6040513d84823e3d90fd5b50346101825780600319360112610182576040517f00000000000000000000000000000000000000000000000000000000000000006001600160a01b03168152602090f35b50346101825780600319360112610182576040517f00000000000000000000000000000000000000000000000000000000000000006001600160a01b03168152602090f35b50346101825780600319360112610182576040516714adf4b7320334b9601d1b8152602090f35b50346101825780600319360112610182576020600254604051908152f35b503461018257604036600319011261018257610331611163565b6024356001600160a01b038116919082900361043a5761034f611802565b6103576112c9565b6103628215156111bb565b6001600160a01b03908116808452600160208181526040862090910154919285921661038f8115156111f0565b602460405180948193630c83f60f60e41b83528860048401525af190811561042f5784916103f8575b5060207f2cc0b956ff75ebb1d47ec4d58f635ac829e621c1287a8096b71194be3dc023c091604051908152a360015f805160206140ad8339815191525580f35b90506020813d602011610427575b81610413602093836110d1565b81010312610423575160206103b8565b5f80fd5b3d9150610406565b6040513d86823e3d90fd5b8280fd5b5034610182578060031936011261018257604051633fabe5a360e21b815260a0816004817f00000000000000000000000000000000000000000000000000000000000000006001600160a01b03165afa90811561023d579160209281926104ba575b50808213156104b357505b604051908152f35b90506104ab565b6104dd91925060a03d60a0116104e9575b6104d581836110d1565b810190611294565b5050509050905f6104a0565b503d6104cb565b50346101825760403660031901126101825761050a611163565b610512611179565b61051a611802565b6105226112c9565b6001600160a01b0316906105378215156111bb565b6001600160a01b0390811680845260016020818152604086209091015491928592166105648115156111f0565b60246040518094819363ae05f22d60e01b83528860048401525af190811561042f5784916105cd575b5060207fb5ad38f45b9df4b57d935e2112798142f419ca534fa5666095e1dff7dc2c746791604051908152a360015f805160206140ad8339815191525580f35b90506020813d6020116105f8575b816105e8602093836110d1565b810103126104235751602061058d565b3d91506105db565b5034610182578060031936011261018257604051676765c793fa10079d601b1b8152602090f35b5034610182578060031936011261018257546040516001600160a01b039091168152602090f35b50346101825780600319360112610182576040517f00000000000000000000000000000000000000000000000000000000000000006001600160a01b03168152602090f35b506080366003190112610423576004356001600160401b038111610423576106bf9036906004016110f4565b906024356001600160401b038111610423576106df9036906004016110f4565b604435906001600160401b038211610423576107026107129236906004016110f4565b9061070b6112c9565b5f94611325565b92909134610750575b5060015f805160206140ad83398151915255604080516001600160a01b03938416815293909216602084015290820152606090f35b6040516370a0823160e01b81523060048201526001600160a01b03841694919250602081602481885afa908115610967575f91610972575b506001600160a01b038216803b15610423575f60249160405192838092636cb504a560e11b8252606435600483015234905af1801561096757610952575b506040516370a0823160e01b815230600482015290602082602481895afa801561042f57849061091e575b6107fb925061125f565b9182156108e95760405163a9059cbb60e01b815260208180610821873360048401611244565b0381858a5af19182156108dd57916108ae575b501561087657606093604051903482528360208301527f84d429ed8af1c9cfe8bb07b556e4120e976c9f4c9232a7f50a15d31d83e232a960403393a39261071b565b60405162461bcd60e51b815260206004820152601060248201526f11195d88189d5e48199dd90819985a5b60821b6044820152606490fd5b6108d0915060203d6020116108d6575b6108c881836110d1565b81019061122c565b5f610834565b503d6108be565b604051903d90823e3d90fd5b60405162461bcd60e51b815260206004820152600d60248201526c04465762062757920676f74203609c1b6044820152606490fd5b506020823d60201161094a575b81610938602093836110d1565b81010312610423576107fb91516107f1565b3d915061092b565b61095f9193505f906110d1565b5f915f6107c6565b6040513d5f823e3d90fd5b90506020813d60201161099c575b8161098d602093836110d1565b8101031261042357515f610788565b3d9150610980565b34610423575f366003190112610423576109bc611802565b5f80546001600160a01b0319811682556001600160a01b03165f8051602061408d8339815191528280a3005b346104235760203660031901126104235760043560025481101561042357610a1160209161118f565b905460405160039290921b1c6001600160a01b03168152f35b3461042357602036600319011261042357610a43611163565b5f6080604051610a52816110a2565b828152826020820152826040820152826060820152015260018060a01b03165f52600160205260a060405f20604051610a8a816110a2565b8154600180851b5f19019182168084529084015482166020808501918252600286015480851660408088019182526001600160401b03928a1c83166060808a019182526003909a015484166080998a01908152825197885295518816948701949094529051909516948401949094525183169482019490945292511690820152f35b3461042357604036600319011261042357610b25611163565b610b2d611179565b90610b36611802565b610b3e6112c9565b6001600160a01b03821691610b548315156111bb565b6001600160a01b038281165f818152600160208181526040909220015491949260049216610b838115156111f0565b6040516373e15bb960e11b815292839182905afa908115610967575f91610e49575b5015610e14576020610bed916040518093819263e6a4390560e01b83527f00000000000000000000000000000000000000000000000000000000000000009060048401611149565b03817f00000000000000000000000000000000000000000000000000000000000000006001600160a01b03165afa908115610967575f91610dd2575b506001600160a01b0316908115610da3576040516370a0823160e01b815230600482015291602083602481845afa928315610967575f93610d6f575b508215610d3a5782602091610c91935f60405180968195829463a9059cbb60e01b845260048401611244565b03925af1908115610967575f91610d1b575b5015610ce75760207f87643e0436c867defcc7b4812259dde63cbe46038012cde1457289586e63acca91604051908152a360015f805160206140ad83398151915255005b60405162461bcd60e51b815260206004820152600c60248201526b1314081e19995c8819985a5b60a21b6044820152606490fd5b610d34915060203d6020116108d6576108c881836110d1565b84610ca3565b60405162461bcd60e51b815260206004820152600d60248201526c4e6f204c502062616c616e636560981b6044820152606490fd5b9092506020813d602011610d9b575b81610d8b602093836110d1565b8101031261042357519185610c65565b3d9150610d7e565b60405162461bcd60e51b81526020600482015260076024820152662737903830b4b960c91b6044820152606490fd5b90506020813d602011610e0c575b81610ded602093836110d1565b8101031261042357516001600160a01b03811681036104235784610c29565b3d9150610de0565b60405162461bcd60e51b815260206004820152600d60248201526c139bdd0819dc98591d585d1959609a1b6044820152606490fd5b610e62915060203d6020116108d6576108c881836110d1565b85610ba5565b34610423576020366003190112610423576001600160a01b03610e89611163565b165f90815260016020818152604092839020805492810154600282015460039092015485516001600160a01b03958616815291851693820193909352928116938301939093526001600160401b0360a093841c81166060840152166080820152f35b34610423576060366003190112610423576004356001600160401b03811161042357610f1b9036906004016110f4565b6024356001600160401b03811161042357610f3a9036906004016110f4565b60443591906001600160401b03831161042357610f5e610f6c9336906004016110f4565b91610f676112c9565b611325565b9060015f805160206140ad83398151915255610f8d60405192839283611149565b0390f35b34610423575f366003190112610423576040517f00000000000000000000000000000000000000000000000000000000000000006001600160a01b03168152602090f35b34610423575f366003190112610423576040518060206002549283815201809260025f5260205f20905f5b81811061106157505050816110169103826110d1565b604051918291602083019060208452518091526040830191905f5b81811061103f575050500390f35b82516001600160a01b0316845285945060209384019390920191600101611031565b82546001600160a01b0316845260209093019260019283019201611000565b34610423575f366003190112610423578069010f0cf064dd5920000060209252f35b60a081019081106001600160401b038211176110bd57604052565b634e487b7160e01b5f52604160045260245ffd5b601f909101601f19168101906001600160401b038211908210176110bd57604052565b81601f82011215610423578035906001600160401b0382116110bd5760405192611128601f8401601f1916602001856110d1565b8284526020838301011161042357815f926020809301838601378301015290565b6001600160a01b0391821681529116602082015260400190565b600435906001600160a01b038216820361042357565b602435906001600160a01b038216820361042357565b6002548110156111a75760025f5260205f2001905f90565b634e487b7160e01b5f52603260045260245ffd5b156111c257565b60405162461bcd60e51b815260206004820152600660248201526542616420746f60d01b6044820152606490fd5b156111f757565b60405162461bcd60e51b815260206004820152600d60248201526c2ab735b737bbb7103a37b5b2b760991b6044820152606490fd5b90816020910312610423575180151581036104235790565b6001600160a01b039091168152602081019190915260400190565b9190820391821161126c57565b634e487b7160e01b5f52601160045260245ffd5b51906001600160501b038216820361042357565b908160a0910312610423576112a881611280565b916020820151916040810151916112c6608060608401519301611280565b90565b60025f805160206140ad83398151915254146112f25760025f805160206140ad83398151915255565b633ee5aeb560e01b5f5260045ffd5b805180835260209291819084018484015e5f828201840152601f01601f1916010190565b604051633fabe5a360e21b815292939092909160a0826004817f00000000000000000000000000000000000000000000000000000000000000006001600160a01b03165afa8015610967575f925f916117da575b505f8313156117a85761138f612a30914261125f565b1015611774578115611760576714adf4b7320334b9601d1b68327cb2734119d3b7a9601d1b83900481810291811591830414171561126c57604051676765c793fa10079d601b1b9091049590610dbd8082016001600160401b038111838210176110bd5782916132d083396080815261142d61141f611411608084018b611301565b838103602085015287611301565b828103604084015285611301565b9060603091015203905ff08015610967576040516001600160a01b03919091169690611aa7808201906001600160401b038211838310176110bd5761010091839161182983398a815233602082015230604082015260608101859052608081018890526001600160a01b037f0000000000000000000000000000000000000000000000000000000000000000811660a08301527f0000000000000000000000000000000000000000000000000000000000000000811660c08301527f00000000000000000000000000000000000000000000000000000000000000001660e08201520301905ff080156109675760405163a9059cbb60e01b81526001600160a01b039190911660048201819052676765c793fa10079d601b1b602483015296906020816044815f8d5af1908115610967575f91611741575b501561170a57604051611577816110a2565b88815260036020820191898352604081013381526060820160018060401b0342168152608083019460018060401b038b1686528d5f52600160205260405f209360018060a01b039060018060a01b039051161660018060a01b031985541617845560018060a01b03905116600184019060018060a01b031660018060a01b0319825416179055600283019160018060a01b039060018060a01b039051161660018060a01b031983541617825551815490600160a01b600160e01b039060a01b1690600160a01b600160e01b031916179055019060018060401b0390511660018060401b031982541617905560025491600160401b8310156110bd576116f789946116e98a976116ad8760017fee1be9e7a514e242eddd023cf4bd4446c71d28c7cf5c53c4085379ea89993033990160025561118f565b81549060031b908a821b9160018060a01b03901b19161790556116db6040519660a0885260a0880190611301565b908682036020880152611301565b908482036040860152611301565b95606083015260808201528033950390a4565b60405162461bcd60e51b815260206004820152600f60248201526e10dd5c9d99481cd959590819985a5b608a1b6044820152606490fd5b61175a915060203d6020116108d6576108c881836110d1565b5f611565565b634e487b7160e01b5f52601260045260245ffd5b60405162461bcd60e51b815260206004820152600c60248201526b5374616c65206f7261636c6560a01b6044820152606490fd5b60405162461bcd60e51b815260206004820152600a602482015269426164206f7261636c6560b01b6044820152606490fd5b90506117f691925060a03d60a0116104e9576104d581836110d1565b5093925050915f611379565b5f546001600160a01b0316330361181557565b63118cdaa760e01b5f523360045260245ffdfe6101803461023557601f611aa738819003918201601f19168301916001600160401b038311848410176102395780849261010094604052833981010312610235576100498161024d565b906100566020820161024d565b6100626040830161024d565b606083015160808401519161007960a0860161024d565b9361009260e061008b60c0890161024d565b970161024d565b60017f9b779b17422d0df92223018b32b4d1fa46e071723d6817e2486d003becc55f0055966001600160a01b038116151580610223575b156101f35783156101bb5760805260a05260c05260e052610100526101205261014052610160526040516118459081610262823960805181818161017c0152818161031d0152818161096f0152610fa7015260a051818181610b4601526113c4015260c0518181816104cb01528181610c9501528181610da801528181610f520152611285015260e05181818161026c0152818161088b01528181610df3015281816111a8015281816114f20152611591015261010051816113470152610120518181816101e6015261041b0152610140518181816105540152610ef9015261016051818181610522015261121b0152f35b60405162461bcd60e51b815260206004820152601060248201526f4261642076697274207265736572766560801b6044820152606490fd5b60405162461bcd60e51b81526020600482015260086024820152672130b21030b2323960c11b6044820152606490fd5b506001600160a01b03831615156100c9565b5f80fd5b634e487b7160e01b5f52604160045260245ffd5b51906001600160a01b03821682036102355756fe608080604052600436101561001c575b50361561001a575f80fd5b005b5f3560e01c90816302d05d3f146113b25750806303fd2a4514611396578063056939da1461136a5780631efeb5d11461133057806321ae730714611313578063392c695e1461126f5780633af525b41461124a5780633fc8cef3146112065780634beb394c146111e8578063518ab2a8146111cb57806352b86d2b1461119157806359dd723d1461116f5780636637e38c146111535780639a82a09a1461112e5780639f870a7514611108578063a64190c4146110de578063a966f376146110c2578063ae05f22d14610f28578063b4b57c3914610ee4578063bf333f2c14610ec9578063c417d1f014610dd7578063c45a015514610d93578063c83f60f014610c69578063d6ae6e4414610b16578063d79875eb14610840578063d96a094a14610215578063deadbc14146101d1578063e7c2b772146101af5763fc0c546a14610167575f61000f565b346101ab575f3660031901126101ab576040517f00000000000000000000000000000000000000000000000000000000000000006001600160a01b03168152602090f35b5f80fd5b346101ab575f3660031901126101ab57602060ff600354166040519015158152f35b346101ab575f3660031901126101ab576040517f00000000000000000000000000000000000000000000000000000000000000006001600160a01b03168152602090f35b60203660031901126101ab57610229611797565b61024160035460ff8116159081610831575b5061142e565b3415610801576064340234810460640361067b576127109004610264813461149c565b5f54610290817f00000000000000000000000000000000000000000000000000000000000000006114a9565b60015492906714adf4b7320334b9601d1b84810390811161067b576102cc826102c6856102c0856102d29761146b565b926114a9565b9061147e565b9061149c565b926102e1600435851015611744565b83156107d1576102f584926102fc946114a9565b5f556114a9565b60015561030b826002546114a9565b60025560405163a9059cbb60e01b81527f00000000000000000000000000000000000000000000000000000000000000006001600160a01b03169290602081806103598633600484016116af565b03815f885af1908115610645575f916107b2575b501561077b577f27330bd7589580547b6437e08f9c60653de63691d2d2b2c13bff9ee67da2a68d5f5480936103aa6040519283923396348561177b565b0390a2672629f66e0c5300008110156103d1575b60015f805160206117f083398151915255005b6003805460ff19166001908117909155546714adf4b7320334b9601d1b818103939190841161067b576714adf4b7320334b9601d1b036106f2575b60405163095ea7b360e01b81527f00000000000000000000000000000000000000000000000000000000000000006001600160a01b0316600482018190526aa56fa5b99019a5c80000006024830152906020816044815f875af1908115610645575f916106c3575b501561068f57610258420180421161067b57839160c4606092604051948593849263f305d71960e01b84528860048501526aa56fa5b99019a5c800000060248501525f60448501525f606485015260018060a01b037f000000000000000000000000000000000000000000000000000000000000000016608485015260a48401525af1801561064557610650575b5060405163e6a4390560e01b815260048101919091526001600160a01b037f000000000000000000000000000000000000000000000000000000000000000081166024830152602090829060449082907f0000000000000000000000000000000000000000000000000000000000000000165afa908115610645575f916105f4575b506003805462010000600160b01b031916601092831b62010000600160b01b03161790819055604080519384526aa56fa5b99019a5c800000060208501528301939093529190911c6001600160a01b031660608201525f805160206117d083398151915290608090a180806103be565b90506020813d60201161063d575b8161060f60209383611660565b810103126101ab5751906001600160a01b03821682036101ab57905f805160206117d0833981519152610584565b3d9150610602565b6040513d5f823e3d90fd5b606090813d8311610674575b6106668183611660565b810103126101ab5783610502565b503d61065c565b634e487b7160e01b5f52601160045260245ffd5b60405162461bcd60e51b815260206004820152600c60248201526b105c1c1c9bdd994819985a5b60a21b6044820152606490fd5b6106e5915060203d6020116106eb575b6106dd8183611660565b810190611697565b85610474565b503d6106d3565b60405163a9059cbb60e01b815261dead6004820152602481018490526020816044815f865af1908115610645575f9161075c575b5061040c5760405162461bcd60e51b8152602060048201526009602482015268109d5c9b8819985a5b60ba1b6044820152606490fd5b610775915060203d6020116106eb576106dd8183611660565b84610726565b60405162461bcd60e51b815260206004820152600f60248201526e151bdad95b881e19995c8819985a5b608a1b6044820152606490fd5b6107cb915060203d6020116106eb576106dd8183611660565b8461036d565b60405162461bcd60e51b815260206004820152600860248201526716995c9bc81bdd5d60c21b6044820152606490fd5b60405162461bcd60e51b81526020600482015260086024820152670b4cae4de408aa8960c31b6044820152606490fd5b60ff915060081c16158261023b565b346101ab5760403660031901126101ab5760043561085c611797565b61087360035460ff8116159081610b07575061142e565b8015610ad457600154808211610aa0575f546108af817f00000000000000000000000000000000000000000000000000000000000000006114a9565b6714adf4b7320334b9601d1b8381039190821161067b576102cc826108e16108da886108e6966114a9565b918461146b565b61147e565b90606482028281046064148315171561067b57612710900491610909838261149c565b93610918602435861015611744565b828211610a675761092d86926109349461149c565b5f5561149c565b600155610943816002546114a9565b6002556040516323b872dd60e01b8152336004820152306024820152604481018490526020816064815f7f00000000000000000000000000000000000000000000000000000000000000006001600160a01b03165af1908115610645575f91610a48575b5015610a1157816109e85f8080807f490fdc1c23c0f3a84bf80a0384eaadcb9188c9ef71b9430da391a0e4c4c39bf697335af16109e26116ca565b50611708565b6109fb5f5460405193849333978561177b565b0390a260015f805160206117f083398151915255005b60405162461bcd60e51b815260206004820152600f60248201526e151bdad95b881c1d5b1b0819985a5b608a1b6044820152606490fd5b610a61915060203d6020116106eb576106dd8183611660565b846109a7565b60405162461bcd60e51b81526020600482015260116024820152705265736572766520756e646572666c6f7760781b6044820152606490fd5b60405162461bcd60e51b815260206004820152600c60248201526b115e18d959591cc81cdbdb1960a21b6044820152606490fd5b60405162461bcd60e51b815260206004820152600b60248201526a5a65726f20746f6b656e7360a81b6044820152606490fd5b60ff915060081c16158361023b565b346101ab5760203660031901126101ab576004356001600160a01b038116908190036101ab57610b44611797565b7f00000000000000000000000000000000000000000000000000000000000000006001600160a01b03163303610c35578015610c07576002548015610bd85760207fd046302bdc39599e60a5981e59227dcd1c643f512f56f2e984390c3ac6eadedb915f600255610bbe5f80808085895af16109e26116ca565b604051908152a260015f805160206117f083398151915255005b60405162461bcd60e51b81526020600482015260076024820152664e6f206665657360c81b6044820152606490fd5b60405162461bcd60e51b815260206004820152600660248201526542616420746f60d01b6044820152606490fd5b60405162461bcd60e51b815260206004820152600c60248201526b27b7363c9031b932b0ba37b960a11b6044820152606490fd5b346101ab5760203660031901126101ab576004356001600160a01b038116908190036101ab57610cc3337f00000000000000000000000000000000000000000000000000000000000000006001600160a01b0316146113f3565b610ccb611797565b610cdc60ff60035460081c16611624565b600254479080821115610d8b57610cf29161149c565b5f805580610d40575b6020917f179809d94b01185c84383aadba3612822366ef4558cf145d75a95a5f533b497b83604051848152a260015f805160206117f083398151915255604051908152f35b5f80808084865af1610d506116ca565b50610cfb5760405162461bcd60e51b815260206004820152600e60248201526d115512081cddd9595c0819985a5b60921b6044820152606490fd5b50505f610cf2565b346101ab575f3660031901126101ab576040517f00000000000000000000000000000000000000000000000000000000000000006001600160a01b03168152602090f35b346101ab575f3660031901126101ab575f5460015490610e17817f00000000000000000000000000000000000000000000000000000000000000006114a9565b6714adf4b7320334b9601d1b83810390811161067b576714adf4b7320334b9601d1b8414610ec057670de0b6b3a7640000820291808304670de0b6b3a7640000149015171561067b57610e699161147e565b915b612710820290828204612710148315171561067b57672629f66e0c53000060ff9260c09560035493604051968752602087015260408601520460608401528181161515608084015260081c16151560a0820152f35b50505f91610e6b565b346101ab575f3660031901126101ab57602060405160648152f35b346101ab575f3660031901126101ab576040517f00000000000000000000000000000000000000000000000000000000000000006001600160a01b03168152602090f35b346101ab5760203660031901126101ab576004356001600160a01b03811681036101ab57610f80337f00000000000000000000000000000000000000000000000000000000000000006001600160a01b0316146113f3565b610f9160ff60035460081c16611624565b6040516370a0823160e01b8152306004820152907f00000000000000000000000000000000000000000000000000000000000000006001600160a01b031690602083602481855afa928315610645575f9361108e575b5082610ff9575b602083604051908152f35b8261101e926020925f60405180968195829463a9059cbb60e01b8452600484016116af565b03925af1908115610645575f9161106f575b501561103d578180610fee565b60405162461bcd60e51b815260206004820152600a60248201526914ddd9595c0819985a5b60b21b6044820152606490fd5b611088915060203d6020116106eb576106dd8183611660565b82611030565b9092506020813d6020116110ba575b816110aa60209383611660565b810103126101ab57519183610fe7565b3d915061109d565b346101ab575f3660031901126101ab5760205f54604051908152f35b346101ab5760203660031901126101ab5760406110fc60043561156c565b82519182526020820152f35b346101ab575f3660031901126101ab576040516714adf4b7320334b9601d1b8152602090f35b346101ab575f3660031901126101ab57602060ff60035460081c166040519015158152f35b346101ab575f3660031901126101ab5760206040516127108152f35b346101ab575f3660031901126101ab576020604051672629f66e0c5300008152f35b346101ab575f3660031901126101ab5760206040517f00000000000000000000000000000000000000000000000000000000000000008152f35b346101ab575f3660031901126101ab576020600154604051908152f35b346101ab5760203660031901126101ab5760406110fc6004356114b6565b346101ab575f3660031901126101ab576040517f00000000000000000000000000000000000000000000000000000000000000006001600160a01b03168152602090f35b346101ab575f3660031901126101ab5760206040516aa56fa5b99019a5c80000008152f35b346101ab575f3660031901126101ab576112b3337f00000000000000000000000000000000000000000000000000000000000000006001600160a01b0316146113f3565b61010060035460ff81161580611304575b6112cd9061142e565b61ff001916176003557fc41d93b8bfbf9fd7cf5bfe271fd649ab6a6fec0ea101c23b82a2a28eca2533a960205f54604051908152a1005b50600881901c60ff16156112c4565b346101ab575f3660031901126101ab576020600254604051908152f35b346101ab575f3660031901126101ab5760206040517f00000000000000000000000000000000000000000000000000000000000000008152f35b346101ab575f3660031901126101ab5760035460405160109190911c6001600160a01b03168152602090f35b346101ab575f3660031901126101ab57602060405161dead8152f35b346101ab575f3660031901126101ab577f00000000000000000000000000000000000000000000000000000000000000006001600160a01b03168152602090f35b156113fa57565b60405162461bcd60e51b815260206004820152600c60248201526b4f6e6c7920666163746f727960a01b6044820152606490fd5b1561143557565b60405162461bcd60e51b815260206004820152600e60248201526d437572766520696e61637469766560901b6044820152606490fd5b8181029291811591840414171561067b57565b8115611488570490565b634e487b7160e01b5f52601260045260245ffd5b9190820391821161067b57565b9190820180921161067b57565b8015808015611560575b8015611551575b611549576064820290828204606414171561067b576127106114eb9104809261149c565b6115165f547f00000000000000000000000000000000000000000000000000000000000000006114a9565b60015490916714adf4b7320334b9601d1b91820391821161067b57826102c66102cc926102c0856115469761146b565b91565b50505f905f90565b5060ff60035460081c166114c7565b5060ff600354166114c0565b80158015611618575b8015611609575b61160257600154808211611549576115b55f547f00000000000000000000000000000000000000000000000000000000000000006114a9565b6714adf4b7320334b9601d1b918203929091831161067b57826108e16108da6102cc936115e1966114a9565b606481028181046064148215171561067b576127106115469104809261149c565b505f905f90565b5060ff60035460081c1661157c565b5060ff60035416611575565b1561162b57565b60405162461bcd60e51b815260206004820152600d60248201526c139bdd0818d85b98d95b1b1959609a1b6044820152606490fd5b601f909101601f19168101906001600160401b0382119082101761168357604052565b634e487b7160e01b5f52604160045260245ffd5b908160209103126101ab575180151581036101ab5790565b6001600160a01b039091168152602081019190915260400190565b3d15611703573d906001600160401b03821161168357604051916116f8601f8201601f191660200184611660565b82523d5f602084013e565b606090565b1561170f57565b60405162461bcd60e51b815260206004820152600d60248201526c115512081cd95b990819985a5b609a1b6044820152606490fd5b1561174b57565b60405162461bcd60e51b8152602060048201526008602482015267536c69707061676560c01b6044820152606490fd5b9094939260609260808301968352602083015260408201520152565b60025f805160206117f083398151915254146117c05760025f805160206117f083398151915255565b633ee5aeb560e01b5f5260045ffdfe3693576b24b0b545b0a78bc32216975c72c4d410f7a7fbecc97953d09f7f3cc89b779b17422d0df92223018b32b4d1fa46e071723d6817e2486d003becc55f00a26469706673582212208530bba1ef3a4b0b4cd1f6b60b4cffa4b14a78402f6fbb1b197110ce04d212c564736f6c634300081a003360a06040523461054657610dbd803803806100198161054a565b9283398101906080818303126105465780516001600160401b038111610546578261004591830161056f565b60208201516001600160401b038111610546578361006491840161056f565b60408301519093906001600160401b0381116105465760609161008891850161056f565b9201516001600160a01b03811691828203610546578051906001600160401b03821161033b5760035490600182811c9216801561053c575b602083101461031d5781601f8493116104ce575b50602090601f8311600114610468575f9261045d575b50508160011b915f199060031b1c1916176003555b83516001600160401b03811161033b57600454600181811c91168015610453575b602082101461031d57601f81116103f0575b50602094601f821160011461038d579481929394955f92610382575b50508160011b915f199060031b1c1916176004555b811561034f5782516001600160401b03811161033b57600554600181811c91168015610331575b602082101461031d57601f81116102d7575b506020601f821160011461027457819293945f92610269575b50508160011b915f199060031b1c1916176005555b6080526002546b033b2e3c9fd0803ce8000000810180911161025557600255805f525f60205260405f206b033b2e3c9fd0803ce800000081540190555f7fddf252ad1be2c89b69c2b068fc378daa952ba7f163c4a11628f55a4df523b3ef60206040516b033b2e3c9fd0803ce80000008152a36040516107fc90816105c18239608051816101110152f35b634e487b7160e01b5f52601160045260245ffd5b015190505f806101b5565b601f1982169060055f52805f20915f5b8181106102bf575095836001959697106102a7575b505050811b016005556101ca565b01515f1960f88460031b161c191690555f8080610299565b9192602060018192868b015181550194019201610284565b60055f5260205f20601f830160051c81019160208410610313575b601f0160051c01905b818110610308575061019c565b5f81556001016102fb565b90915081906102f2565b634e487b7160e01b5f52602260045260245ffd5b90607f169061018a565b634e487b7160e01b5f52604160045260245ffd5b60405162461bcd60e51b815260206004820152600b60248201526a42616420666163746f727960a81b6044820152606490fd5b015190505f8061014e565b601f1982169560045f52805f20915f5b8881106103d8575083600195969798106103c0575b505050811b01600455610163565b01515f1960f88460031b161c191690555f80806103b2565b9192602060018192868501518155019401920161039d565b60045f527f8a35acfbc15ff81a39ae7d344fd709f28e8600b4aa8c65c6b64bfe7fe36bd19b601f830160051c81019160208410610449575b601f0160051c01905b81811061043e5750610132565b5f8155600101610431565b9091508190610428565b90607f1690610120565b015190505f806100ea565b60035f9081528281209350601f198516905b8181106104b6575090846001959493921061049e575b505050811b016003556100ff565b01515f1960f88460031b161c191690555f8080610490565b9293602060018192878601518155019501930161047a565b60035f529091507fc2575a0e9e593c00f959f8c92f12db2869c3395a3b0502d05e2516446f71f85b601f840160051c81019160208510610532575b90601f859493920160051c01905b81811061052457506100d4565b5f8155849350600101610517565b9091508190610509565b91607f16916100c0565b5f80fd5b6040519190601f01601f191682016001600160401b0381118382101761033b57604052565b81601f82011215610546578051906001600160401b03821161033b5761059e601f8301601f191660200161054a565b928284526020838301011161054657815f9260208093018386015e830101529056fe60806040526004361015610011575f80fd5b5f3560e01c806303ee438c146105e557806306fdde0314610511578063095ea7b31461048f57806318160ddd1461047257806323b872dd14610393578063313ce5671461037857806342966c68146102eb57806370a08231146102b4578063902d55a51461028e57806395d89b4114610171578063a9059cbb14610140578063c45a0155146100fc5763dd62ed3e146100a8575f80fd5b346100f85760403660031901126100f8576100c16106e3565b6100c96106f9565b6001600160a01b039182165f908152600160209081526040808320949093168252928352819020549051908152f35b5f80fd5b346100f8575f3660031901126100f8576040517f00000000000000000000000000000000000000000000000000000000000000006001600160a01b03168152602090f35b346100f85760403660031901126100f85761016661015c6106e3565b602435903361070f565b602060405160018152f35b346100f8575f3660031901126100f8576040515f6004548060011c90600181168015610284575b6020831081146102705782855290811561025457506001146101fe575b50819003601f01601f19168101906001600160401b038211818310176101ea57604082905281906101e690826106b9565b0390f35b634e487b7160e01b5f52604160045260245ffd5b60045f9081529091507f8a35acfbc15ff81a39ae7d344fd709f28e8600b4aa8c65c6b64bfe7fe36bd19b5b82821061023e575060209150820101826101b5565b6001816020925483858801015201910190610229565b90506020925060ff191682840152151560051b820101826101b5565b634e487b7160e01b5f52602260045260245ffd5b91607f1691610198565b346100f8575f3660031901126100f857604051676765c793fa10079d601b1b8152602090f35b346100f85760203660031901126100f8576001600160a01b036102d56106e3565b165f525f602052602060405f2054604051908152f35b346100f85760203660031901126100f857600435331561036557335f525f60205260405f205481811061034c5790805f923384528360205203604083205580600254036002556040519081525f805160206107a783398151915260203392a3005b63391434e360e21b5f523360045260245260445260645ffd5b634b637e8f60e11b5f525f60045260245ffd5b346100f8575f3660031901126100f857602060405160128152f35b346100f85760603660031901126100f8576103ac6106e3565b6103b46106f9565b6001600160a01b0382165f818152600160209081526040808320338452909152902054909260443592915f1981106103f2575b50610166935061070f565b83811061045757841561044457331561043157610166945f52600160205260405f2060018060a01b0333165f526020528360405f2091039055846103e7565b634a1406b160e11b5f525f60045260245ffd5b63e602df0560e01b5f525f60045260245ffd5b8390637dc7a0d960e11b5f523360045260245260445260645ffd5b346100f8575f3660031901126100f8576020600254604051908152f35b346100f85760403660031901126100f8576104a86106e3565b602435903315610444576001600160a01b031690811561043157335f52600160205260405f20825f526020528060405f20556040519081527f8c5be1e5ebec7d5bd14f71427d1e84f3dd0314c0f7b2291e5b200ac8c7c3b92560203392a3602060405160018152f35b346100f8575f3660031901126100f8576040515f6003548060011c906001811680156105db575b6020831081146102705782855290811561025457506001146105855750819003601f01601f19168101906001600160401b038211818310176101ea57604082905281906101e690826106b9565b60035f9081529091507fc2575a0e9e593c00f959f8c92f12db2869c3395a3b0502d05e2516446f71f85b5b8282106105c5575060209150820101826101b5565b60018160209254838588010152019101906105b0565b91607f1691610538565b346100f8575f3660031901126100f8576040515f6005548060011c906001811680156106af575b6020831081146102705782855290811561025457506001146106595750819003601f01601f19168101906001600160401b038211818310176101ea57604082905281906101e690826106b9565b60055f9081529091507f036b6384b5eca791c62761152d0c79bb0604c104a5fb6f4eb0703f3154bb3db05b828210610699575060209150820101826101b5565b6001816020925483858801015201910190610684565b91607f169161060c565b602060409281835280519182918282860152018484015e5f828201840152601f01601f1916010190565b600435906001600160a01b03821682036100f857565b602435906001600160a01b03821682036100f857565b6001600160a01b0316908115610365576001600160a01b031691821561079357815f525f60205260405f205481811061077a57815f805160206107a783398151915292602092855f525f84520360405f2055845f525f825260405f20818154019055604051908152a3565b8263391434e360e21b5f5260045260245260445260645ffd5b63ec442f0560e01b5f525f60045260245ffdfeddf252ad1be2c89b69c2b068fc378daa952ba7f163c4a11628f55a4df523b3efa26469706673582212203325e66cb5b364458185d93d8c0274d3165d67b1dd72283c39b7421e1a9c4ffb64736f6c634300081a00338be0079c531659141344cd1fd0a4f28419497f9722a3daafe3b4186f6b6457e09b779b17422d0df92223018b32b4d1fa46e071723d6817e2486d003becc55f00a2646970667358221220fe9d20e5c6c36e9b12dc3c7ba99ff19d6ea000588642c68744157f15b271b70964736f6c634300081a0033",
  "linkReferences": {},
  "deployedLinkReferences": {}
}