{
  "_format": "hh-sol-artifact-1",
  "contractName": "AethpadBondingCurveV2",
  "sourceName": "contracts/v2/AethpadBondingCurveV2.sol",
  "abi": [
    {
      "inputs": [
        {
          "internalType": "address",
          "name": "_factory",
          "type": "address"
        },
        {
          "internalType": "address",
          "name": "_uniswapRouter",
          "type": "address"
        }
      ],
      "stateMutability": "nonpayable",
      "type": "constructor"
    },
    {
      "inputs": [],
      "name": "ReentrancyGuardReentrantCall",
      "type": "error"
    },
    {
      "anonymous": false,
      "inputs": [
        {
          "indexed": true,
          "internalType": "address",
          "name": "buyer",
          "type": "address"
        },
        {
          "indexed": false,
          "internalType": "uint256",
          "name": "ethIn",
          "type": "uint256"
        },
        {
          "indexed": false,
          "internalType": "uint256",
          "name": "ethForCurve",
          "type": "uint256"
        },
        {
          "indexed": false,
          "internalType": "uint256",
          "name": "tokensOut",
          "type": "uint256"
        },
        {
          "indexed": false,
          "internalType": "uint256",
          "name": "progressBps",
          "type": "uint256"
        }
      ],
      "name": "Buy",
      "type": "event"
    },
    {
      "anonymous": false,
      "inputs": [
        {
          "indexed": true,
          "internalType": "address",
          "name": "withdrawTo",
          "type": "address"
        },
        {
          "indexed": false,
          "internalType": "uint256",
          "name": "ethAmount",
          "type": "uint256"
        }
      ],
      "name": "ForceClosed",
      "type": "event"
    },
    {
      "anonymous": false,
      "inputs": [
        {
          "indexed": false,
          "internalType": "uint256",
          "name": "ethToLp",
          "type": "uint256"
        },
        {
          "indexed": false,
          "internalType": "uint256",
          "name": "tokensToLp",
          "type": "uint256"
        },
        {
          "indexed": false,
          "internalType": "address",
          "name": "pair",
          "type": "address"
        }
      ],
      "name": "Graduated",
      "type": "event"
    },
    {
      "anonymous": false,
      "inputs": [
        {
          "indexed": true,
          "internalType": "address",
          "name": "seller",
          "type": "address"
        },
        {
          "indexed": false,
          "internalType": "uint256",
          "name": "tokensIn",
          "type": "uint256"
        },
        {
          "indexed": false,
          "internalType": "uint256",
          "name": "ethOutGross",
          "type": "uint256"
        },
        {
          "indexed": false,
          "internalType": "uint256",
          "name": "ethToUser",
          "type": "uint256"
        },
        {
          "indexed": false,
          "internalType": "uint256",
          "name": "progressBps",
          "type": "uint256"
        }
      ],
      "name": "Sell",
      "type": "event"
    },
    {
      "inputs": [],
      "name": "BURN_BPS",
      "outputs": [
        {
          "internalType": "uint256",
          "name": "",
          "type": "uint256"
        }
      ],
      "stateMutability": "view",
      "type": "function"
    },
    {
      "inputs": [],
      "name": "CURVE_TOKEN_SUPPLY",
      "outputs": [
        {
          "internalType": "uint256",
          "name": "",
          "type": "uint256"
        }
      ],
      "stateMutability": "view",
      "type": "function"
    },
    {
      "inputs": [],
      "name": "GRAD_TOKEN_SUPPLY",
      "outputs": [
        {
          "internalType": "uint256",
          "name": "",
          "type": "uint256"
        }
      ],
      "stateMutability": "view",
      "type": "function"
    },
    {
      "inputs": [],
      "name": "PLATFORM_BPS",
      "outputs": [
        {
          "internalType": "uint256",
          "name": "",
          "type": "uint256"
        }
      ],
      "stateMutability": "view",
      "type": "function"
    },
    {
      "inputs": [],
      "name": "REWARD_BPS",
      "outputs": [
        {
          "internalType": "uint256",
          "name": "",
          "type": "uint256"
        }
      ],
      "stateMutability": "view",
      "type": "function"
    },
    {
      "inputs": [],
      "name": "SNIPE_BPS_1HR",
      "outputs": [
        {
          "internalType": "uint256",
          "name": "",
          "type": "uint256"
        }
      ],
      "stateMutability": "view",
      "type": "function"
    },
    {
      "inputs": [],
      "name": "SNIPE_BPS_24HR",
      "outputs": [
        {
          "internalType": "uint256",
          "name": "",
          "type": "uint256"
        }
      ],
      "stateMutability": "view",
      "type": "function"
    },
    {
      "inputs": [],
      "name": "SNIPE_BPS_5MIN",
      "outputs": [
        {
          "internalType": "uint256",
          "name": "",
          "type": "uint256"
        }
      ],
      "stateMutability": "view",
      "type": "function"
    },
    {
      "inputs": [],
      "name": "TARGET_REAL_ETH",
      "outputs": [
        {
          "internalType": "uint256",
          "name": "",
          "type": "uint256"
        }
      ],
      "stateMutability": "view",
      "type": "function"
    },
    {
      "inputs": [],
      "name": "VIRTUAL_ETH",
      "outputs": [
        {
          "internalType": "uint256",
          "name": "",
          "type": "uint256"
        }
      ],
      "stateMutability": "view",
      "type": "function"
    },
    {
      "inputs": [
        {
          "internalType": "uint256",
          "name": "minTokensOut",
          "type": "uint256"
        }
      ],
      "name": "buy",
      "outputs": [
        {
          "internalType": "uint256",
          "name": "tokensToUser",
          "type": "uint256"
        }
      ],
      "stateMutability": "payable",
      "type": "function"
    },
    {
      "inputs": [],
      "name": "currentPrice",
      "outputs": [
        {
          "internalType": "uint256",
          "name": "",
          "type": "uint256"
        }
      ],
      "stateMutability": "view",
      "type": "function"
    },
    {
      "inputs": [],
      "name": "factory",
      "outputs": [
        {
          "internalType": "address",
          "name": "",
          "type": "address"
        }
      ],
      "stateMutability": "view",
      "type": "function"
    },
    {
      "inputs": [
        {
          "internalType": "address",
          "name": "to",
          "type": "address"
        }
      ],
      "name": "forceCloseAndWithdraw",
      "outputs": [],
      "stateMutability": "nonpayable",
      "type": "function"
    },
    {
      "inputs": [],
      "name": "forceClosed",
      "outputs": [
        {
          "internalType": "bool",
          "name": "",
          "type": "bool"
        }
      ],
      "stateMutability": "view",
      "type": "function"
    },
    {
      "inputs": [
        {
          "internalType": "uint256",
          "name": "ethAmount",
          "type": "uint256"
        }
      ],
      "name": "getBuyAmount",
      "outputs": [
        {
          "internalType": "uint256",
          "name": "tokensToUser",
          "type": "uint256"
        }
      ],
      "stateMutability": "view",
      "type": "function"
    },
    {
      "inputs": [
        {
          "internalType": "uint256",
          "name": "tokenAmount",
          "type": "uint256"
        },
        {
          "internalType": "address",
          "name": "seller",
          "type": "address"
        }
      ],
      "name": "getSellAmount",
      "outputs": [
        {
          "internalType": "uint256",
          "name": "ethToUser",
          "type": "uint256"
        }
      ],
      "stateMutability": "view",
      "type": "function"
    },
    {
      "inputs": [],
      "name": "graduated",
      "outputs": [
        {
          "internalType": "bool",
          "name": "",
          "type": "bool"
        }
      ],
      "stateMutability": "view",
      "type": "function"
    },
    {
      "inputs": [
        {
          "internalType": "address",
          "name": "_token",
          "type": "address"
        }
      ],
      "name": "initToken",
      "outputs": [],
      "stateMutability": "nonpayable",
      "type": "function"
    },
    {
      "inputs": [
        {
          "internalType": "address",
          "name": "",
          "type": "address"
        }
      ],
      "name": "lastBuyAt",
      "outputs": [
        {
          "internalType": "uint64",
          "name": "",
          "type": "uint64"
        }
      ],
      "stateMutability": "view",
      "type": "function"
    },
    {
      "inputs": [],
      "name": "progressBps",
      "outputs": [
        {
          "internalType": "uint256",
          "name": "",
          "type": "uint256"
        }
      ],
      "stateMutability": "view",
      "type": "function"
    },
    {
      "inputs": [],
      "name": "realEthRaised",
      "outputs": [
        {
          "internalType": "uint256",
          "name": "",
          "type": "uint256"
        }
      ],
      "stateMutability": "view",
      "type": "function"
    },
    {
      "inputs": [
        {
          "internalType": "uint256",
          "name": "tokenAmount",
          "type": "uint256"
        },
        {
          "internalType": "uint256",
          "name": "minEthOut",
          "type": "uint256"
        }
      ],
      "name": "sell",
      "outputs": [
        {
          "internalType": "uint256",
          "name": "ethToUser",
          "type": "uint256"
        }
      ],
      "stateMutability": "nonpayable",
      "type": "function"
    },
    {
      "inputs": [],
      "name": "token",
      "outputs": [
        {
          "internalType": "contract IAethpadTokenV2",
          "name": "",
          "type": "address"
        }
      ],
      "stateMutability": "view",
      "type": "function"
    },
    {
      "inputs": [],
      "name": "uniswapFactory",
      "outputs": [
        {
          "internalType": "contract IUniswapV2Factory",
          "name": "",
          "type": "address"
        }
      ],
      "stateMutability": "view",
      "type": "function"
    },
    {
      "inputs": [],
      "name": "uniswapRouter",
      "outputs": [
        {
          "internalType": "contract IUniswapV2Router02",
          "name": "",
          "type": "address"
        }
      ],
      "stateMutability": "view",
      "type": "function"
    },
    {
      "inputs": [],
      "name": "virtualTokenReserve",
      "outputs": [
        {
          "internalType": "uint256",
          "name": "",
          "type": "uint256"
        }
      ],
      "stateMutability": "view",
      "type": "function"
    },
    {
      "stateMutability": "payable",
      "type": "receive"
    }
  ],
  "bytecode": "0x60e080604052346200015157604081620019f5803803809162000023828562000156565b83398101031262000151576200004760206200003f8362000190565b920162000190565b9060017f9b779b17422d0df92223018b32b4d1fa46e071723d6817e2486d003becc55f00556080526004602060018060a01b038093168060a0526040519283809263c45a015560e01b82525afa908115620001455760009162000101575b501660c0526b0295be96e64066972000000060015560405161184f9081620001a682396080518181816101df01528181610efb01526111b1015260a0518181816104980152611073015260c051818181610513015261102f0152f35b906020823d82116200013c575b816200011d6020938362000156565b81010312620001395750620001329062000190565b38620000a5565b80fd5b3d91506200010e565b6040513d6000823e3d90fd5b600080fd5b601f909101601f19168101906001600160401b038211908210176200017a57604052565b634e487b7160e01b600052604160045260246000fd5b51906001600160a01b0382168203620001515756fe6080604081815260049182361015610022575b505050361561002057600080fd5b005b600092833560e01c918263130b312014611316575081631fb87f39146112f6578163343ee3b7146112d757816347b12bfc146112bb57816350b894181461117e57816355ee54a11461113d5781636700c0c31461111a5781636c1eba15146110fd57816371c1b833146110c957816372d6e43a146110a2578163735de9f71461105e5781638bdb2afa1461101a57816394562afb14610ff75781639d1b464a14610f8a5781639f870a7514610f64578163a37a9fc014610e9e578163bacf2a7b14610f47578163bb103cbc14610f2a578163c45a015514610ee6578163c463ecd714610ec9578163c8f3bfd314610ea3578163ce91e16414610e9e578163d79875eb14610ac2578163d96a094a14610250578163df4d17dc146101a857508063e7c2b772146101855763fc0c546a1461015b5780610012565b34610181578160031936011261018157905490516001600160a01b039091168152602090f35b5080fd5b503461018157816003193601126101815760209060ff6003541690519015158152f35b9190503461024c57602036600319011261024c576101c4611332565b8354926001600160a01b039283851661021a575050610206827f0000000000000000000000000000000000000000000000000000000000000000163314611364565b6001600160a01b0319909216911617815580f35b906020606492519162461bcd60e51b8352820152600c60248201526b105b1c9958591e481a5b9a5d60a21b6044820152fd5b8280fd5b602084843660031901831361018157610267611547565b61027f60035460ff8116159081610ab3575b5061139f565b3415610a885760c834029134830460c803610a75576127108093049260963402348104609603610a6257819004906102c0826102bb8734611423565b611423565b91600254956729a2241af62c000096808801809811610a4f576103046102fd600154996102f7886102f18d846113da565b92611430565b90611403565b8099611423565b938415610311811561143d565b60968602908682046096141715610a3c5791610334879261034a94048097611423565b996103428d358c1015611475565b600155611430565b600255806109e3575b5080610994575b5080610932575b5060018060a01b03906103908686848654168a87895180968195829463a9059cbb60e01b845233908401611510565b03925af190811561092857849161090b575b50156108d45733835286865283832080546001600160401b031916426001600160401b03161790557f064fb1933e186be0b289a87e98518dc18cc9856ecbc9f1353d1a138ddf733ec56104056103f66115ef565b8651918291893396348561152b565b0390a2674563918244f400006002541015610435575b505060016000805160206117fa8339815191525551908152f35b600160ff19600354161760035547916aa56fa5b99019a5c800000090828154168551986370a0823160e01b808b5230828c015260249a8a818d81875afa9081156108355785916108a7575b5085811061089f575b50875163095ea7b360e01b81527f00000000000000000000000000000000000000000000000000000000000000008716938b9082908188816104ce8c8b8b8401611510565b03925af1908115610835578591610872575b501561083f5787516315ab88c960e31b81529a8a8c8481875afa8015610835578b9c869c98999a9b9c91610818575b50887f000000000000000000000000000000000000000000000000000000000000000016898754168c519963e6a4390560e01b8b528a8061055386858b84016115d5565b0381855afa998a1561080e57908f939291899b6107ef575b508d8c8c1615610779575b50505050508785541661012c4201804211610767578b519163f305d71960e01b835285830152878383015286604483015286606483015261dead608483015260a482015260608160c4818d895af1801561072e57610738575b5087855416918a5190815230848201528c818381865afa90811561072e5786916106fc575b50806106a1575b5050508583541690813b1561069d57918391868361062d958c519687958694859363c7b1280160e01b855284016115d5565b03925af180156106935761067c575b505084519384528684015216818301527fe8284482a896de2fb31532f8a0c0f64867b8d0586ff49dbd54ddf4cddb2c036590606090a1908291848061041b565b61068682916114ac565b610690578061063c565b80fd5b87513d84823e3d90fd5b8380fd5b823b156106f8578a516316c2401160e21b8152848101919091529185918391829084905af180156106ee579084916106da575b806105fb565b6106e3906114ac565b61024c57828b6106d4565b89513d86823e3d90fd5b8580fd5b90508c81813d8311610727575b61071381836114d5565b8101031261072257518d6105f4565b600080fd5b503d610709565b8b513d88823e3d90fd5b606090813d8111610760575b61074e81836114d5565b8101031261075c578c6105cf565b8480fd5b503d610744565b634e487b7160e01b8752601185528287fd5b61079a959b508990518096819582946364e329cb60e11b84528b84016115d5565b03925af19081156107e55785916107b8575b50958b8d80808d610576565b6107d891508c8d3d106107de575b6107d081836114d5565b8101906115b6565b8c6107ac565b503d6107c6565b8a513d87823e3d90fd5b610807919b50843d86116107de576107d081836114d5565b993861056b565b8d513d8a823e3d90fd5b61082f9150883d8a116107de576107d081836114d5565b8d61050f565b89513d87823e3d90fd5b875162461bcd60e51b81528083018b9052600e818d01526d105c1c1c9bdd994819985a5b195960921b6044820152606490fd5b61089291508b3d8d11610898575b61088a81836114d5565b8101906114f8565b8c6104e0565b503d610880565b94508b610489565b90508a81813d83116108cd575b6108be81836114d5565b8101031261072257518c610480565b503d6108b4565b835162461bcd60e51b81528088018790526011602482015270151bdad95b881e19995c8819985a5b1959607a1b6044820152606490fd5b6109229150873d89116108985761088a81836114d5565b886103a2565b85513d86823e3d90fd5b82546001600160a01b031690813b1561069d57839160248392875194859384926316c2401160e21b84528d8401525af1801561098a57908391610976575b50610361565b61097f906114ac565b610181578187610970565b84513d85823e3d90fd5b83546001600160a01b0316803b1561075c578490898751809481936316f1a0a760e31b83525af18015610928579084916109cf575b5061035a565b6109d8906114ac565b61024c5782886109c9565b84546001600160a01b0316803b156106f85785908a88518094819363523aa0dd60e11b83525af18015610a3257908591610a1e575b50610353565b610a27906114ac565b61069d578389610a18565b86513d87823e3d90fd5b634e487b7160e01b885260118c52602488fd5b634e487b7160e01b865260118a52602486fd5b634e487b7160e01b835260118752602483fd5b634e487b7160e01b815260118552602490fd5b5162461bcd60e51b8152808401839052600660248201526509cde408aa8960d31b6044820152606490fd5b60ff915060081c161586610279565b8383346101815780600319360112610181578235610ade611547565b610af560035460ff8116159081610ab3575061139f565b8015610e6f5760968102818104609603610e5c5761271080910494610b1a8684611423565b9560018060a01b0386818154169287516323b872dd60e01b8152338682015260249430868301528860448301528160648160209d8e945af1908115610e52578391610e35575b5015610dfe5780610db2575b5090600254946729a2241af62c000099868b01809b11610d6157610ba0999a610bad610ba6610bb3936001549d8e856113da565b9d611430565b809c611403565b90611423565b95808711610d745786610bd59181159b610bcd8d1561143d565b600155611423565b600255610be133611624565b60c8018060c811610d6157610bf78291886113da565b049860968702908782046096141715610d61570490610c1a826102bb8b89611423565b98610c2885358b1015611475565b80610d19575b5081610cd8575b505080808089335af1610c46611577565b5015610ca4575050837f483f8aec0fd892ac72ad1ba8d0e9c9e73db59c12d263fd71de480b5b3deeae3c91610c89610c7c6115ef565b865193849333978561152b565b0390a260016000805160206117fa8339815191525551908152f35b845162461bcd60e51b8152918201879052600f908201526e115512081cd95b990819985a5b1959608a1b6044820152606490fd5b825416803b1561024c578290858951809481936316f1a0a760e31b83525af180156106935790829115610c3557610d0e906114ac565b610690578089610c35565b81845416803b1561075c578490878b518094819363523aa0dd60e11b83525af180156106ee57908491610d4d575b50610c2e565b610d56906114ac565b61024c57828b610d47565b5050634e487b7160e01b82525060118352fd5b885162461bcd60e51b81528087018c905260198187015278496e73756666696369656e742045544820696e20637572766560381b6044820152606490fd5b8282541690813b1561024c5782918583928b5194859384926316c2401160e21b84528b8401525af18015610df45715610b6c57610dee906114ac565b89610b6c565b88513d84823e3d90fd5b875162461bcd60e51b81528086018a905260128186015271151c985b9cd9995c881a5b8819985a5b195960721b6044820152606490fd5b610e4c91508a3d8c116108985761088a81836114d5565b8b610b60565b89513d85823e3d90fd5b634e487b7160e01b845260118552602484fd5b815162461bcd60e51b815260208186015260096024820152684e6f20746f6b656e7360b81b6044820152606490fd5b611348565b505034610181578160031936011261018157602090516aa56fa5b99019a5c80000008152f35b505034610181578160031936011261018157602090516103e88152f35b505034610181578160031936011261018157517f00000000000000000000000000000000000000000000000000000000000000006001600160a01b03168152602090f35b505034610181578160031936011261018157602090516107d08152f35b505034610181578160031936011261018157602090516101f48152f35b505034610181578160031936011261018157516714adf4b7320334b9601d1b8152602090f35b828434610690578060031936011261069057600254926729a2241af62c0000938401809411610fe457670de0b6b3a764000093848102948186041490151715610fe457602083610fdd8660015490611403565b9051908152f35b634e487b7160e01b825260119052602490fd5b50503461018157816003193601126101815760209051674563918244f400008152f35b505034610181578160031936011261018157517f00000000000000000000000000000000000000000000000000000000000000006001600160a01b03168152602090f35b505034610181578160031936011261018157517f00000000000000000000000000000000000000000000000000000000000000006001600160a01b03168152602090f35b50503461018157816003193601126101815760209060ff60035460081c1690519015158152f35b90503461024c578160031936011261024c57602435926001600160a01b03841684036106905750602092610fdd9135611721565b505034610181578160031936011261018157602090610fdd6115ef565b505034610181578160031936011261018157602090516729a2241af62c00008152f35b90503461024c57602036600319011261024c57602092906001600160a01b03611164611332565b16825283528190205490516001600160401b039091168152f35b9190503461024c57602036600319011261024c5761119a611332565b6111a2611547565b6001600160a01b03916111d8337f0000000000000000000000000000000000000000000000000000000000000000851614611364565b60035460ff81166112845761ff00191661010017600355479384611239575b505192835216907f16bfc55cfda3eb65b74e8fe52a8804e222bdb31aef30599b41adeb45893f66a990602090a260016000805160206117fa8339815191525580f35b85808080888888165af161124b611577565b506111f7576020606492519162461bcd60e51b8352820152600f60248201526e15da5d1a191c985dc819985a5b1959608a1b6044820152fd5b815162461bcd60e51b81526020818701526011602482015270105b1c9958591e4819dc98591d585d1959607a1b6044820152606490fd5b5050346101815781600319360112610181576020905160c88152f35b5050346101815781600319360112610181576020906001549051908152f35b8284346106905760203660031901126106905750610fdd6020923561168f565b8490346101815781600319360112610181576020906002548152f35b600435906001600160a01b038216820361072257565b3461072257600036600319011261072257602060405160968152f35b1561136b57565b60405162461bcd60e51b815260206004820152600c60248201526b4f6e6c7920666163746f727960a01b6044820152606490fd5b156113a657565b60405162461bcd60e51b815260206004820152600c60248201526b10dd5c9d994818db1bdcd95960a21b6044820152606490fd5b818102929181159184041417156113ed57565b634e487b7160e01b600052601160045260246000fd5b811561140d570490565b634e487b7160e01b600052601260045260246000fd5b919082039182116113ed57565b919082018092116113ed57565b1561144457565b60405162461bcd60e51b8152602060048201526009602482015268151bdbc81cdb585b1b60ba1b6044820152606490fd5b1561147c57565b60405162461bcd60e51b8152602060048201526008602482015267536c69707061676560c01b6044820152606490fd5b6001600160401b0381116114bf57604052565b634e487b7160e01b600052604160045260246000fd5b601f909101601f19168101906001600160401b038211908210176114bf57604052565b90816020910312610722575180151581036107225790565b6001600160a01b039091168152602081019190915260400190565b9094939260609260808301968352602083015260408201520152565b6000805160206117fa83398151915260028154146115655760029055565b604051633ee5aeb560e01b8152600490fd5b3d156115b1573d906001600160401b0382116114bf57604051916115a5601f8201601f1916602001846114d5565b82523d6000602084013e565b606090565b9081602091031261072257516001600160a01b03811681036107225790565b6001600160a01b0391821681529116602082015260400190565b60ff6003541661161e57600254612710908181029181830414901517156113ed57674563918244f40000900490565b61271090565b6001600160a01b03166000908152600460205260409020546001600160401b03168015611689576116559042611423565b61012c811061168257610e10811061167b57620151801161167557600090565b6101f490565b506103e890565b506107d090565b50600090565b60035460ff8116908115611713575b50611689576125b2908181029181830414901517156113ed576002546729a2241af62c00009081018091116113ed576116f290610bad600154916102f76116e584836113da565b9161271080970490611430565b6096810291818304609614821517156113ed57611710920490611423565b90565b60ff915060081c163861169e565b60035460ff81169081156117eb575b506117e4576096810290808204609614811517156113ed576117589061271080930490611423565b91600254926729a2241af62c00008481018091116113ed57610bad611788926102f7600154916102f183866113da565b928084116117da575b5061179b90611624565b8060c801908160c8116113ed5761015e018091116113ed576117bd90836113da565b046000918181116000146117d5576117109250611423565b505090565b925061179b611791565b5050600090565b60ff915060081c163861173056fe9b779b17422d0df92223018b32b4d1fa46e071723d6817e2486d003becc55f00a26469706673582212206b357500352d963aebe7f0c5532f2e5b9ab6d8fc15871b25bae1e5c316f2af6564736f6c63430008140033",
  "linkReferences": {},
  "deployedLinkReferences": {}
}