{
  "_format": "hh-sol-artifact-1",
  "contractName": "AethpadBondingCurveV2",
  "sourceName": "contracts/v2/AethpadBondingCurveV2.sol",
  "abi": [
    {
      "inputs": [
        {
          "internalType": "address",
          "name": "_factory",
          "type": "address"
        },
        {
          "internalType": "address",
          "name": "_uniswapRouter",
          "type": "address"
        }
      ],
      "stateMutability": "nonpayable",
      "type": "constructor"
    },
    {
      "inputs": [],
      "name": "ReentrancyGuardReentrantCall",
      "type": "error"
    },
    {
      "anonymous": false,
      "inputs": [
        {
          "indexed": true,
          "internalType": "address",
          "name": "buyer",
          "type": "address"
        },
        {
          "indexed": false,
          "internalType": "uint256",
          "name": "ethIn",
          "type": "uint256"
        },
        {
          "indexed": false,
          "internalType": "uint256",
          "name": "ethForCurve",
          "type": "uint256"
        },
        {
          "indexed": false,
          "internalType": "uint256",
          "name": "tokensOut",
          "type": "uint256"
        },
        {
          "indexed": false,
          "internalType": "uint256",
          "name": "progressBps",
          "type": "uint256"
        }
      ],
      "name": "Buy",
      "type": "event"
    },
    {
      "anonymous": false,
      "inputs": [
        {
          "indexed": true,
          "internalType": "address",
          "name": "withdrawTo",
          "type": "address"
        },
        {
          "indexed": false,
          "internalType": "uint256",
          "name": "ethAmount",
          "type": "uint256"
        }
      ],
      "name": "ForceClosed",
      "type": "event"
    },
    {
      "anonymous": false,
      "inputs": [
        {
          "indexed": false,
          "internalType": "uint256",
          "name": "ethToLp",
          "type": "uint256"
        },
        {
          "indexed": false,
          "internalType": "uint256",
          "name": "tokensToLp",
          "type": "uint256"
        },
        {
          "indexed": false,
          "internalType": "address",
          "name": "pair",
          "type": "address"
        }
      ],
      "name": "Graduated",
      "type": "event"
    },
    {
      "anonymous": false,
      "inputs": [
        {
          "indexed": true,
          "internalType": "address",
          "name": "seller",
          "type": "address"
        },
        {
          "indexed": false,
          "internalType": "uint256",
          "name": "tokensIn",
          "type": "uint256"
        },
        {
          "indexed": false,
          "internalType": "uint256",
          "name": "ethOutGross",
          "type": "uint256"
        },
        {
          "indexed": false,
          "internalType": "uint256",
          "name": "ethToUser",
          "type": "uint256"
        },
        {
          "indexed": false,
          "internalType": "uint256",
          "name": "progressBps",
          "type": "uint256"
        }
      ],
      "name": "Sell",
      "type": "event"
    },
    {
      "inputs": [],
      "name": "BURN_BPS",
      "outputs": [
        {
          "internalType": "uint256",
          "name": "",
          "type": "uint256"
        }
      ],
      "stateMutability": "view",
      "type": "function"
    },
    {
      "inputs": [],
      "name": "CURVE_TOKEN_SUPPLY",
      "outputs": [
        {
          "internalType": "uint256",
          "name": "",
          "type": "uint256"
        }
      ],
      "stateMutability": "view",
      "type": "function"
    },
    {
      "inputs": [],
      "name": "GRAD_TOKEN_SUPPLY",
      "outputs": [
        {
          "internalType": "uint256",
          "name": "",
          "type": "uint256"
        }
      ],
      "stateMutability": "view",
      "type": "function"
    },
    {
      "inputs": [],
      "name": "PLATFORM_BPS",
      "outputs": [
        {
          "internalType": "uint256",
          "name": "",
          "type": "uint256"
        }
      ],
      "stateMutability": "view",
      "type": "function"
    },
    {
      "inputs": [],
      "name": "REWARD_BPS",
      "outputs": [
        {
          "internalType": "uint256",
          "name": "",
          "type": "uint256"
        }
      ],
      "stateMutability": "view",
      "type": "function"
    },
    {
      "inputs": [],
      "name": "SNIPE_BPS_1HR",
      "outputs": [
        {
          "internalType": "uint256",
          "name": "",
          "type": "uint256"
        }
      ],
      "stateMutability": "view",
      "type": "function"
    },
    {
      "inputs": [],
      "name": "SNIPE_BPS_24HR",
      "outputs": [
        {
          "internalType": "uint256",
          "name": "",
          "type": "uint256"
        }
      ],
      "stateMutability": "view",
      "type": "function"
    },
    {
      "inputs": [],
      "name": "SNIPE_BPS_5MIN",
      "outputs": [
        {
          "internalType": "uint256",
          "name": "",
          "type": "uint256"
        }
      ],
      "stateMutability": "view",
      "type": "function"
    },
    {
      "inputs": [],
      "name": "TARGET_REAL_ETH",
      "outputs": [
        {
          "internalType": "uint256",
          "name": "",
          "type": "uint256"
        }
      ],
      "stateMutability": "view",
      "type": "function"
    },
    {
      "inputs": [],
      "name": "VIRTUAL_ETH",
      "outputs": [
        {
          "internalType": "uint256",
          "name": "",
          "type": "uint256"
        }
      ],
      "stateMutability": "view",
      "type": "function"
    },
    {
      "inputs": [
        {
          "internalType": "uint256",
          "name": "minTokensOut",
          "type": "uint256"
        }
      ],
      "name": "buy",
      "outputs": [
        {
          "internalType": "uint256",
          "name": "tokensToUser",
          "type": "uint256"
        }
      ],
      "stateMutability": "payable",
      "type": "function"
    },
    {
      "inputs": [],
      "name": "currentPrice",
      "outputs": [
        {
          "internalType": "uint256",
          "name": "",
          "type": "uint256"
        }
      ],
      "stateMutability": "view",
      "type": "function"
    },
    {
      "inputs": [],
      "name": "factory",
      "outputs": [
        {
          "internalType": "address",
          "name": "",
          "type": "address"
        }
      ],
      "stateMutability": "view",
      "type": "function"
    },
    {
      "inputs": [
        {
          "internalType": "address",
          "name": "to",
          "type": "address"
        }
      ],
      "name": "forceCloseAndWithdraw",
      "outputs": [],
      "stateMutability": "nonpayable",
      "type": "function"
    },
    {
      "inputs": [],
      "name": "forceClosed",
      "outputs": [
        {
          "internalType": "bool",
          "name": "",
          "type": "bool"
        }
      ],
      "stateMutability": "view",
      "type": "function"
    },
    {
      "inputs": [
        {
          "internalType": "uint256",
          "name": "ethAmount",
          "type": "uint256"
        }
      ],
      "name": "getBuyAmount",
      "outputs": [
        {
          "internalType": "uint256",
          "name": "tokensToUser",
          "type": "uint256"
        }
      ],
      "stateMutability": "view",
      "type": "function"
    },
    {
      "inputs": [
        {
          "internalType": "uint256",
          "name": "tokenAmount",
          "type": "uint256"
        },
        {
          "internalType": "address",
          "name": "seller",
          "type": "address"
        }
      ],
      "name": "getSellAmount",
      "outputs": [
        {
          "internalType": "uint256",
          "name": "ethToUser",
          "type": "uint256"
        }
      ],
      "stateMutability": "view",
      "type": "function"
    },
    {
      "inputs": [],
      "name": "graduated",
      "outputs": [
        {
          "internalType": "bool",
          "name": "",
          "type": "bool"
        }
      ],
      "stateMutability": "view",
      "type": "function"
    },
    {
      "inputs": [
        {
          "internalType": "address",
          "name": "_token",
          "type": "address"
        }
      ],
      "name": "initToken",
      "outputs": [],
      "stateMutability": "nonpayable",
      "type": "function"
    },
    {
      "inputs": [
        {
          "internalType": "address",
          "name": "",
          "type": "address"
        }
      ],
      "name": "lastBuyAt",
      "outputs": [
        {
          "internalType": "uint64",
          "name": "",
          "type": "uint64"
        }
      ],
      "stateMutability": "view",
      "type": "function"
    },
    {
      "inputs": [],
      "name": "progressBps",
      "outputs": [
        {
          "internalType": "uint256",
          "name": "",
          "type": "uint256"
        }
      ],
      "stateMutability": "view",
      "type": "function"
    },
    {
      "inputs": [],
      "name": "realEthRaised",
      "outputs": [
        {
          "internalType": "uint256",
          "name": "",
          "type": "uint256"
        }
      ],
      "stateMutability": "view",
      "type": "function"
    },
    {
      "inputs": [
        {
          "internalType": "uint256",
          "name": "tokenAmount",
          "type": "uint256"
        },
        {
          "internalType": "uint256",
          "name": "minEthOut",
          "type": "uint256"
        }
      ],
      "name": "sell",
      "outputs": [
        {
          "internalType": "uint256",
          "name": "ethToUser",
          "type": "uint256"
        }
      ],
      "stateMutability": "nonpayable",
      "type": "function"
    },
    {
      "inputs": [
        {
          "internalType": "address",
          "name": "user",
          "type": "address"
        }
      ],
      "name": "stampBuyAt",
      "outputs": [],
      "stateMutability": "nonpayable",
      "type": "function"
    },
    {
      "inputs": [],
      "name": "token",
      "outputs": [
        {
          "internalType": "contract IAethpadTokenV2",
          "name": "",
          "type": "address"
        }
      ],
      "stateMutability": "view",
      "type": "function"
    },
    {
      "inputs": [],
      "name": "trustedInitializer",
      "outputs": [
        {
          "internalType": "address",
          "name": "",
          "type": "address"
        }
      ],
      "stateMutability": "view",
      "type": "function"
    },
    {
      "inputs": [],
      "name": "uniswapFactory",
      "outputs": [
        {
          "internalType": "contract IUniswapV2Factory",
          "name": "",
          "type": "address"
        }
      ],
      "stateMutability": "view",
      "type": "function"
    },
    {
      "inputs": [],
      "name": "uniswapRouter",
      "outputs": [
        {
          "internalType": "contract IUniswapV2Router02",
          "name": "",
          "type": "address"
        }
      ],
      "stateMutability": "view",
      "type": "function"
    },
    {
      "inputs": [],
      "name": "virtualTokenReserve",
      "outputs": [
        {
          "internalType": "uint256",
          "name": "",
          "type": "uint256"
        }
      ],
      "stateMutability": "view",
      "type": "function"
    },
    {
      "stateMutability": "payable",
      "type": "receive"
    }
  ],
  "bytecode": "0x610100806040523461014d57604081611c6280380380916100208285610164565b83398101031261014d576020816100438261003c60049561019b565b920161019b565b60017f9b779b17422d0df92223018b32b4d1fa46e071723d6817e2486d003becc55f00556080919091523360a0526001600160a01b031660c081905260405163c45a015560e01b815292839182905afa908115610159575f9161011b575b506001600160a01b031660e0526b0295be96e640669720000000600155604051611ab290816101b0823960805181818161023601528181610baa0152818161104a0152611346015260a0518181816101dd01526110f0015260c0518181816104fd0152611217015260e05181818161059501526111d20152f35b90506020813d602011610151575b8161013660209383610164565b8101031261014d576101479061019b565b5f6100a1565b5f80fd5b3d9150610129565b6040513d5f823e3d90fd5b601f909101601f19168101906001600160401b0382119082101761018757604052565b634e487b7160e01b5f52604160045260245ffd5b51906001600160a01b038216820361014d5756fe608080604052600436101561001c575b50361561001a575f80fd5b005b5f905f3560e01c908163130b31201461158c575080631fb87f391461156e578063343ee3b71461155157806347b12bfc1461153657806350b894181461131e57806355ee54a1146112de5780636700c0c3146112bb5780636c1eba15146112a057806371c1b8331461126c57806372d6e43a14611246578063735de9f7146112015780638bdb2afa146111bc57806394562afb146111995780639d1b464a1461111f5780639e85f9aa146110da5780639f870a75146110b3578063a37a9fc014610fec578063bacf2a7b14611096578063bb103cbc14611079578063c45a015514611034578063c463ecd714611017578063c8f3bfd314610ff1578063ce91e16414610fec578063d79875eb14610c08578063d8c76c1714610b8a578063d96a094a14610298578063df4d17dc146101af578063e7c2b7721461018c5763fc0c546a0361000f5734610189578060031936011261018957546040516001600160a01b039091168152602090f35b80fd5b5034610189578060031936011261018957602060ff600354166040519015158152f35b5034610189576020366003190112610189576101c96115a6565b8154906001600160a01b03821661026457337f00000000000000000000000000000000000000000000000000000000000000006001600160a01b0316148015610232575b610216906116d5565b6001600160a01b03166001600160a01b03199190911617815580f35b50337f00000000000000000000000000000000000000000000000000000000000000006001600160a01b03161461020d565b60405162461bcd60e51b815260206004820152600c60248201526b105b1c9958591e481a5b9a5d60a21b6044820152606490fd5b506020366003190112610189576102ad611952565b6102c560035460ff8116159081610b7b575b50611859565b3415610b4d5760c8340234810460c803610b395761271090046096340234810460960361085f576127109004610304816102ff84346115d7565b6115d7565b9060025490816729a2241af62c00000193846729a2241af62c0000116108375761034f610348600154966103428761033c8a846115f8565b92611629565b9061160b565b80966115d7565b92831561035c81156118ac565b60968502908582046096141715610b255785889594939261038561271061039c940480976115d7565b986103946004358b10156118e4565b600155611629565b60025580610acf575b5080610a7d575b5080610a2b575b5050825460405163a9059cbb60e01b81529060209082906001600160a01b03168187816103e4893360048401611937565b03925af1908115610801578491610a0c575b50156109d35733835260046020526040832080546001600160401b031916426001600160401b03161790557f064fb1933e186be0b289a87e98518dc18cc9856ecbc9f1353d1a138ddf733ec561045d61044d61198a565b604051918291863396348561191b565b0390a2674563918244f40000600254101561048f575b60209060015f80516020611a5d83398151915255604051908152f35b6003805460ff1916600117905581546040516370a0823160e01b815230600482015247936001600160a01b0392909216916aa56fa5b99019a5c800000091602081602481875afa9081156107605782916109a1575b50828110610999575b5060405163095ea7b360e01b81527f00000000000000000000000000000000000000000000000000000000000000006001600160a01b031693602090829081858161053c898b60048401611937565b03925af190811561076057829161096a575b5015610934576040516315ab88c960e31b815292602084600481845afa938415610760578294610913575b50815460405163e6a4390560e01b815294906001600160a01b037f000000000000000000000000000000000000000000000000000000000000000081169116602087806105ca868560048401611a42565b0381855afa9687156109085785976108e7575b506001600160a01b03871615610873575b505050606383028381046063148415171561085f5760638702908782046063148815171561084b5783546001600160a01b0316914261012c8101929083106108375790606480926040519563f305d71960e01b8752600487015288602487015204604485015204606483015261dead608483015260a482015260608160c4818a865af180156107bc5761080c575b5081546040516370a0823160e01b81523060048201526001600160a01b0390911690602081602481855afa9081156108015784916107cb575b508061076f575b505081546001600160a01b031690813b1561076b576106f58392839260405194858094819363c7b1280160e01b83528b60048401611a42565b03925af180156107605761074b575b50506020937fe8284482a896de2fb31532f8a0c0f64867b8d0586ff49dbd54ddf4cddb2c0365926060926040519283528683015260018060a01b03166040820152a1610473565b610756828092611710565b6101895780610704565b6040513d84823e3d90fd5b8280fd5b813b156107c75783916024839260405194859384926316c2401160e21b845260048401525af180156107bc57908391156106bc57816107ad91611710565b6107b857815f6106bc565b5080fd5b6040513d85823e3d90fd5b8380fd5b90506020813d6020116107f9575b816107e660209383611710565b810103126107f557515f6106b5565b5f80fd5b3d91506107d9565b6040513d86823e3d90fd5b606090813d8311610830575b6108228183611710565b810103126107b8575f61067c565b503d610818565b634e487b7160e01b86526011600452602486fd5b634e487b7160e01b84526011600452602484fd5b634e487b7160e01b83526011600452602483fd5b6040516364e329cb60e11b815293965060209284929183918791839161089c9160048401611a42565b03925af19081156107605782916108b8575b50925f80806105ee565b6108da915060203d6020116108e0575b6108d28183611710565b810190611a23565b5f6108ae565b503d6108c8565b61090191975060203d6020116108e0576108d28183611710565b955f6105dd565b6040513d87823e3d90fd5b61092d91945060203d6020116108e0576108d28183611710565b925f610579565b60405162461bcd60e51b815260206004820152600e60248201526d105c1c1c9bdd994819985a5b195960921b6044820152606490fd5b61098c915060203d602011610992575b6109848183611710565b810190611894565b5f61054e565b503d61097a565b91505f6104ed565b90506020813d6020116109cb575b816109bc60209383611710565b810103126107f557515f6104e4565b3d91506109af565b60405162461bcd60e51b8152602060048201526011602482015270151bdad95b881e19995c8819985a5b1959607a1b6044820152606490fd5b610a25915060203d602011610992576109848183611710565b5f6103f6565b81546001600160a01b031690813b1561076b5782916024839260405194859384926316c2401160e21b845260048401525af1801561076057156103b35781610a7291611710565b61076b57825f6103b3565b82546001600160a01b0316803b156107c75783906004604051809481936316f1a0a760e31b83525af19081156107bc578391610aba575b506103ac565b81610ac491611710565b6107b857815f610ab4565b83546001600160a01b0316803b15610b2157849060046040518094819363523aa0dd60e11b83525af1908115610801578491610b0c575b506103a5565b81610b1691611710565b61076b57825f610b06565b8480fd5b634e487b7160e01b88526011600452602488fd5b634e487b7160e01b82526011600452602482fd5b60405162461bcd60e51b815260206004820152600660248201526509cde408aa8960d31b6044820152606490fd5b60ff915060081c16155f6102bf565b503461018957602036600319011261018957610ba46115a6565b610bd8337f00000000000000000000000000000000000000000000000000000000000000006001600160a01b0316146116d5565b6001600160a01b0316815260046020526040812080546001600160401b031916426001600160401b031617905580f35b503461018957604036600319011261018957600435610c25611952565b610c3c60035460ff8116159081610b7b5750611859565b8015610fbb576096810281810460960361085f57612710900490610c6082826115d7565b9183602060018060a01b038254166064604051809481936323b872dd60e01b83523360048401523060248401528860448401525af1908115610908578591610f9c575b5015610f6257808491610f10575b505060025492836729a2241af62c000001806729a2241af62c000011610b3957610cfc90610cf6610cef60015496610ce988856115f8565b97611629565b809661160b565b906115d7565b93808511610ecf5784610d1e91811595610d1687156118ac565b6001556115d7565b600255610d2a336119c0565b60c8018060c811610b3957610d4261271091866115f8565b049260968502908582046096141715610b39576127109004610d68816102ff86886115d7565b93610d776024358610156118e4565b80610e7d575b5080610e2b575b5080808085335af1610d94611747565b5015610df4577f483f8aec0fd892ac72ad1ba8d0e9c9e73db59c12d263fd71de480b5b3deeae3c82602094610dd8610dca61198a565b60405193849333978561191b565b0390a260015f80516020611a5d83398151915255604051908152f35b60405162461bcd60e51b815260206004820152600f60248201526e115512081cd95b990819985a5b1959608a1b6044820152606490fd5b81546001600160a01b0316803b1561076b5782906004604051809481936316f1a0a760e31b83525af1801561076057908291610e68575b50610d84565b81610e7291611710565b61018957805f610e62565b82546001600160a01b0316803b156107c757839060046040518094819363523aa0dd60e11b83525af180156107bc57908391610eba575b50610d7d565b81610ec491611710565b6107b857815f610eb4565b60405162461bcd60e51b8152602060048201526019602482015278496e73756666696369656e742045544820696e20637572766560381b6044820152606490fd5b81546001600160a01b031690813b1561076b5782916024839260405194859384926316c2401160e21b845260048401525af180156107605715610cb15781610f5791611710565b61076b57825f610cb1565b60405162461bcd60e51b8152602060048201526012602482015271151c985b9cd9995c881a5b8819985a5b195960721b6044820152606490fd5b610fb5915060203d602011610992576109848183611710565b5f610ca3565b60405162461bcd60e51b81526020600482015260096024820152684e6f20746f6b656e7360b81b6044820152606490fd5b6115bc565b503461018957806003193601126101895760206040516aa56fa5b99019a5c80000008152f35b503461018957806003193601126101895760206040516103e88152f35b50346101895780600319360112610189576040517f00000000000000000000000000000000000000000000000000000000000000006001600160a01b03168152602090f35b503461018957806003193601126101895760206040516107d08152f35b503461018957806003193601126101895760206040516101f48152f35b50346101895780600319360112610189576040516714adf4b7320334b9601d1b8152602090f35b50346101895780600319360112610189576040517f00000000000000000000000000000000000000000000000000000000000000006001600160a01b03168152602090f35b50346101895780600319360112610189576002546729a2241af62c00000190816729a2241af62c00001161118557670de0b6b3a7640000820291808304670de0b6b3a7640000149015171561118557602061117d836001549061160b565b604051908152f35b634e487b7160e01b81526011600452602490fd5b50346101895780600319360112610189576020604051674563918244f400008152f35b50346101895780600319360112610189576040517f00000000000000000000000000000000000000000000000000000000000000006001600160a01b03168152602090f35b50346101895780600319360112610189576040517f00000000000000000000000000000000000000000000000000000000000000006001600160a01b03168152602090f35b5034610189578060031936011261018957602060ff60035460081c166040519015158152f35b503461018957604036600319011261018957602435906001600160a01b038216820361018957602061117d83600435611785565b5034610189578060031936011261018957602061117d61198a565b503461018957806003193601126101895760206040516729a2241af62c00008152f35b5034610189576020366003190112610189576020906001600160a01b036113036115a6565b168152600482526040600180821b0391205416604051908152f35b50346107f55760203660031901126107f5576113386115a6565b611340611952565b611374337f00000000000000000000000000000000000000000000000000000000000000006001600160a01b0316146116d5565b60035460ff81166114fd5761ff001916610100176003555f546040516370a0823160e01b81523060048201526001600160a01b039190911690602081602481855afa9081156114c0575f916114cb575b5080611474575b505047908161141f575b6040519182526001600160a01b0316907f16bfc55cfda3eb65b74e8fe52a8804e222bdb31aef30599b41adeb45893f66a990602090a260015f80516020611a5d8339815191525580f35b82808080856001600160a01b0386165af1611438611747565b506113d55760405162461bcd60e51b815260206004820152600f60248201526e15da5d1a191c985dc819985a5b1959608a1b6044820152606490fd5b813b156107f5575f916024839260405194859384926316c2401160e21b845260048401525af180156114c0576114ab575b806113cb565b6114b89192505f90611710565b5f905f6114a5565b6040513d5f823e3d90fd5b90506020813d6020116114f5575b816114e660209383611710565b810103126107f557515f6113c4565b3d91506114d9565b60405162461bcd60e51b8152602060048201526011602482015270105b1c9958591e4819dc98591d585d1959607a1b6044820152606490fd5b346107f5575f3660031901126107f557602060405160c88152f35b346107f5575f3660031901126107f5576020600154604051908152f35b346107f55760203660031901126107f557602061117d600435611636565b346107f5575f3660031901126107f5576020906002548152f35b600435906001600160a01b03821682036107f557565b346107f5575f3660031901126107f557602060405160968152f35b919082039182116115e457565b634e487b7160e01b5f52601160045260245ffd5b818102929181159184041417156115e457565b8115611615570490565b634e487b7160e01b5f52601260045260245ffd5b919082018092116115e457565b60035460ff81169081156116c7575b506116c2576125b28102908082046125b214901517156115e4576002546729a2241af62c000001806729a2241af62c0000116115e457610cf661169e926103426001549361271061169686836115f8565b930490611629565b6096810290808204609614811517156115e4576127106116bf9204906115d7565b90565b505f90565b60ff915060081c165f611645565b156116dc57565b60405162461bcd60e51b815260206004820152600c60248201526b4f6e6c7920666163746f727960a01b6044820152606490fd5b601f909101601f19168101906001600160401b0382119082101761173357604052565b634e487b7160e01b5f52604160045260245ffd5b3d15611780573d906001600160401b0382116117335760405191611775601f8201601f191660200184611710565b82523d5f602084013e565b606090565b60035460ff811690811561184b575b5061183b576096810290808204609614811517156115e4576127106117ba9204906115d7565b9060025491826729a2241af62c000001806729a2241af62c0000116115e457610cf66117f1926103426001549161033c83866115f8565b91808311611841575b50611804906119c0565b8060c801908160c8116115e45761015e018091116115e45761182961271091836115f8565b048082111561183b576116bf916115d7565b50505f90565b91506118046117fa565b60ff915060081c165f611794565b1561186057565b60405162461bcd60e51b815260206004820152600c60248201526b10dd5c9d994818db1bdcd95960a21b6044820152606490fd5b908160209103126107f5575180151581036107f55790565b156118b357565b60405162461bcd60e51b8152602060048201526009602482015268151bdbc81cdb585b1b60ba1b6044820152606490fd5b156118eb57565b60405162461bcd60e51b8152602060048201526008602482015267536c69707061676560c01b6044820152606490fd5b9094939260609260808301968352602083015260408201520152565b6001600160a01b039091168152602081019190915260400190565b60025f80516020611a5d833981519152541461197b5760025f80516020611a5d83398151915255565b633ee5aeb560e01b5f5260045ffd5b60ff600354166119ba5760025461271081029080820461271014901517156115e457674563918244f40000900490565b61271090565b6001600160a01b03165f908152600460205260409020546001600160401b031680156116c2576119f090426115d7565b61012c8110611a1c57610e108110611a15576201518011611a0f575f90565b6101f490565b506103e890565b506107d090565b908160209103126107f557516001600160a01b03811681036107f55790565b6001600160a01b039182168152911660208201526040019056fe9b779b17422d0df92223018b32b4d1fa46e071723d6817e2486d003becc55f00a264697066735822122076113a1c40164b6a8809afc7e12b576d3661959c4a5d4c79f998053c5fc9ffe364736f6c634300081a0033",
  "linkReferences": {},
  "deployedLinkReferences": {}
}