{
  "_format": "hh-sol-artifact-1",
  "contractName": "AethpadBondingCurveV2",
  "sourceName": "contracts/v2/AethpadBondingCurveV2.sol",
  "abi": [
    {
      "inputs": [
        {
          "internalType": "address",
          "name": "_factory",
          "type": "address"
        },
        {
          "internalType": "address",
          "name": "_uniswapRouter",
          "type": "address"
        }
      ],
      "stateMutability": "nonpayable",
      "type": "constructor"
    },
    {
      "inputs": [],
      "name": "ReentrancyGuardReentrantCall",
      "type": "error"
    },
    {
      "anonymous": false,
      "inputs": [
        {
          "indexed": true,
          "internalType": "address",
          "name": "buyer",
          "type": "address"
        },
        {
          "indexed": false,
          "internalType": "uint256",
          "name": "ethIn",
          "type": "uint256"
        },
        {
          "indexed": false,
          "internalType": "uint256",
          "name": "ethForCurve",
          "type": "uint256"
        },
        {
          "indexed": false,
          "internalType": "uint256",
          "name": "tokensOut",
          "type": "uint256"
        },
        {
          "indexed": false,
          "internalType": "uint256",
          "name": "progressBps",
          "type": "uint256"
        }
      ],
      "name": "Buy",
      "type": "event"
    },
    {
      "anonymous": false,
      "inputs": [
        {
          "indexed": true,
          "internalType": "address",
          "name": "withdrawTo",
          "type": "address"
        },
        {
          "indexed": false,
          "internalType": "uint256",
          "name": "ethAmount",
          "type": "uint256"
        }
      ],
      "name": "ForceClosed",
      "type": "event"
    },
    {
      "anonymous": false,
      "inputs": [
        {
          "indexed": false,
          "internalType": "uint256",
          "name": "ethToLp",
          "type": "uint256"
        },
        {
          "indexed": false,
          "internalType": "uint256",
          "name": "tokensToLp",
          "type": "uint256"
        },
        {
          "indexed": false,
          "internalType": "address",
          "name": "pair",
          "type": "address"
        }
      ],
      "name": "Graduated",
      "type": "event"
    },
    {
      "anonymous": false,
      "inputs": [
        {
          "indexed": true,
          "internalType": "address",
          "name": "seller",
          "type": "address"
        },
        {
          "indexed": false,
          "internalType": "uint256",
          "name": "tokensIn",
          "type": "uint256"
        },
        {
          "indexed": false,
          "internalType": "uint256",
          "name": "ethOutGross",
          "type": "uint256"
        },
        {
          "indexed": false,
          "internalType": "uint256",
          "name": "ethToUser",
          "type": "uint256"
        },
        {
          "indexed": false,
          "internalType": "uint256",
          "name": "progressBps",
          "type": "uint256"
        }
      ],
      "name": "Sell",
      "type": "event"
    },
    {
      "inputs": [],
      "name": "BURN_BPS",
      "outputs": [
        {
          "internalType": "uint256",
          "name": "",
          "type": "uint256"
        }
      ],
      "stateMutability": "view",
      "type": "function"
    },
    {
      "inputs": [],
      "name": "CURVE_TOKEN_SUPPLY",
      "outputs": [
        {
          "internalType": "uint256",
          "name": "",
          "type": "uint256"
        }
      ],
      "stateMutability": "view",
      "type": "function"
    },
    {
      "inputs": [],
      "name": "GRAD_TOKEN_SUPPLY",
      "outputs": [
        {
          "internalType": "uint256",
          "name": "",
          "type": "uint256"
        }
      ],
      "stateMutability": "view",
      "type": "function"
    },
    {
      "inputs": [],
      "name": "PLATFORM_BPS",
      "outputs": [
        {
          "internalType": "uint256",
          "name": "",
          "type": "uint256"
        }
      ],
      "stateMutability": "view",
      "type": "function"
    },
    {
      "inputs": [],
      "name": "REWARD_BPS",
      "outputs": [
        {
          "internalType": "uint256",
          "name": "",
          "type": "uint256"
        }
      ],
      "stateMutability": "view",
      "type": "function"
    },
    {
      "inputs": [],
      "name": "SNIPE_BPS_1HR",
      "outputs": [
        {
          "internalType": "uint256",
          "name": "",
          "type": "uint256"
        }
      ],
      "stateMutability": "view",
      "type": "function"
    },
    {
      "inputs": [],
      "name": "SNIPE_BPS_24HR",
      "outputs": [
        {
          "internalType": "uint256",
          "name": "",
          "type": "uint256"
        }
      ],
      "stateMutability": "view",
      "type": "function"
    },
    {
      "inputs": [],
      "name": "SNIPE_BPS_5MIN",
      "outputs": [
        {
          "internalType": "uint256",
          "name": "",
          "type": "uint256"
        }
      ],
      "stateMutability": "view",
      "type": "function"
    },
    {
      "inputs": [],
      "name": "TARGET_REAL_ETH",
      "outputs": [
        {
          "internalType": "uint256",
          "name": "",
          "type": "uint256"
        }
      ],
      "stateMutability": "view",
      "type": "function"
    },
    {
      "inputs": [],
      "name": "VIRTUAL_ETH",
      "outputs": [
        {
          "internalType": "uint256",
          "name": "",
          "type": "uint256"
        }
      ],
      "stateMutability": "view",
      "type": "function"
    },
    {
      "inputs": [
        {
          "internalType": "uint256",
          "name": "minTokensOut",
          "type": "uint256"
        }
      ],
      "name": "buy",
      "outputs": [
        {
          "internalType": "uint256",
          "name": "tokensToUser",
          "type": "uint256"
        }
      ],
      "stateMutability": "payable",
      "type": "function"
    },
    {
      "inputs": [],
      "name": "currentPrice",
      "outputs": [
        {
          "internalType": "uint256",
          "name": "",
          "type": "uint256"
        }
      ],
      "stateMutability": "view",
      "type": "function"
    },
    {
      "inputs": [],
      "name": "factory",
      "outputs": [
        {
          "internalType": "address",
          "name": "",
          "type": "address"
        }
      ],
      "stateMutability": "view",
      "type": "function"
    },
    {
      "inputs": [
        {
          "internalType": "address",
          "name": "to",
          "type": "address"
        }
      ],
      "name": "forceCloseAndWithdraw",
      "outputs": [],
      "stateMutability": "nonpayable",
      "type": "function"
    },
    {
      "inputs": [],
      "name": "forceClosed",
      "outputs": [
        {
          "internalType": "bool",
          "name": "",
          "type": "bool"
        }
      ],
      "stateMutability": "view",
      "type": "function"
    },
    {
      "inputs": [
        {
          "internalType": "uint256",
          "name": "ethAmount",
          "type": "uint256"
        }
      ],
      "name": "getBuyAmount",
      "outputs": [
        {
          "internalType": "uint256",
          "name": "tokensToUser",
          "type": "uint256"
        }
      ],
      "stateMutability": "view",
      "type": "function"
    },
    {
      "inputs": [
        {
          "internalType": "uint256",
          "name": "tokenAmount",
          "type": "uint256"
        },
        {
          "internalType": "address",
          "name": "seller",
          "type": "address"
        }
      ],
      "name": "getSellAmount",
      "outputs": [
        {
          "internalType": "uint256",
          "name": "ethToUser",
          "type": "uint256"
        }
      ],
      "stateMutability": "view",
      "type": "function"
    },
    {
      "inputs": [],
      "name": "graduated",
      "outputs": [
        {
          "internalType": "bool",
          "name": "",
          "type": "bool"
        }
      ],
      "stateMutability": "view",
      "type": "function"
    },
    {
      "inputs": [
        {
          "internalType": "address",
          "name": "_token",
          "type": "address"
        }
      ],
      "name": "initToken",
      "outputs": [],
      "stateMutability": "nonpayable",
      "type": "function"
    },
    {
      "inputs": [
        {
          "internalType": "address",
          "name": "",
          "type": "address"
        }
      ],
      "name": "lastBuyAt",
      "outputs": [
        {
          "internalType": "uint64",
          "name": "",
          "type": "uint64"
        }
      ],
      "stateMutability": "view",
      "type": "function"
    },
    {
      "inputs": [],
      "name": "progressBps",
      "outputs": [
        {
          "internalType": "uint256",
          "name": "",
          "type": "uint256"
        }
      ],
      "stateMutability": "view",
      "type": "function"
    },
    {
      "inputs": [],
      "name": "realEthRaised",
      "outputs": [
        {
          "internalType": "uint256",
          "name": "",
          "type": "uint256"
        }
      ],
      "stateMutability": "view",
      "type": "function"
    },
    {
      "inputs": [
        {
          "internalType": "uint256",
          "name": "tokenAmount",
          "type": "uint256"
        },
        {
          "internalType": "uint256",
          "name": "minEthOut",
          "type": "uint256"
        }
      ],
      "name": "sell",
      "outputs": [
        {
          "internalType": "uint256",
          "name": "ethToUser",
          "type": "uint256"
        }
      ],
      "stateMutability": "nonpayable",
      "type": "function"
    },
    {
      "inputs": [],
      "name": "token",
      "outputs": [
        {
          "internalType": "contract IAethpadTokenV2",
          "name": "",
          "type": "address"
        }
      ],
      "stateMutability": "view",
      "type": "function"
    },
    {
      "inputs": [],
      "name": "trustedInitializer",
      "outputs": [
        {
          "internalType": "address",
          "name": "",
          "type": "address"
        }
      ],
      "stateMutability": "view",
      "type": "function"
    },
    {
      "inputs": [],
      "name": "uniswapFactory",
      "outputs": [
        {
          "internalType": "contract IUniswapV2Factory",
          "name": "",
          "type": "address"
        }
      ],
      "stateMutability": "view",
      "type": "function"
    },
    {
      "inputs": [],
      "name": "uniswapRouter",
      "outputs": [
        {
          "internalType": "contract IUniswapV2Router02",
          "name": "",
          "type": "address"
        }
      ],
      "stateMutability": "view",
      "type": "function"
    },
    {
      "inputs": [],
      "name": "virtualTokenReserve",
      "outputs": [
        {
          "internalType": "uint256",
          "name": "",
          "type": "uint256"
        }
      ],
      "stateMutability": "view",
      "type": "function"
    },
    {
      "stateMutability": "payable",
      "type": "receive"
    }
  ],
  "bytecode": "0x6101008060405234620001665760408162001a8c80380380916200002482856200016b565b83398101031262000166576200004860206200004083620001a5565b9201620001a5565b9060017f9b779b17422d0df92223018b32b4d1fa46e071723d6817e2486d003becc55f00556080523360a0526004602060018060a01b038093168060c0526040519283809263c45a015560e01b82525afa9081156200015a5760009162000116575b501660e0526b0295be96e6406697200000006001556040516118d19081620001bb823960805181818161023101528181610f390152611233015260a0518181816101e70152610fdd015260c0518181816104d601526110f5015260e05181818161055101526110b10152f35b906020823d821162000151575b8162000132602093836200016b565b810103126200014e57506200014790620001a5565b38620000aa565b80fd5b3d915062000123565b6040513d6000823e3d90fd5b600080fd5b601f909101601f19168101906001600160401b038211908210176200018f57604052565b634e487b7160e01b600052604160045260246000fd5b51906001600160a01b0382168203620001665756fe6080604081815260049182361015610022575b505050361561002057600080fd5b005b600092833560e01c918263130b312014611398575081631fb87f3914611378578163343ee3b71461135957816347b12bfc1461133d57816350b894181461120057816355ee54a1146111bf5781636700c0c31461119c5781636c1eba151461117f57816371c1b8331461114b57816372d6e43a14611124578163735de9f7146110e05781638bdb2afa1461109c57816394562afb146110795781639d1b464a1461100c5781639e85f9aa14610fc85781639f870a7514610fa2578163a37a9fc014610edc578163bacf2a7b14610f85578163bb103cbc14610f68578163c45a015514610f24578163c463ecd714610f07578163c8f3bfd314610ee1578163ce91e16414610edc578163d79875eb14610b00578163d96a094a1461028e578163df4d17dc146101b357508063e7c2b772146101905763fc0c546a146101665780610012565b3461018c578160031936011261018c57905490516001600160a01b039091168152602090f35b5080fd5b503461018c578160031936011261018c5760209060ff6003541690519015158152f35b9190503461028a57602036600319011261028a576101cf6113b4565b8354926001600160a01b0392838516610258575050817f0000000000000000000000000000000000000000000000000000000000000000163314801561022d575b610219906113e6565b6001600160a01b0319909216911617815580f35b50337f0000000000000000000000000000000000000000000000000000000000000000831614610210565b906020606492519162461bcd60e51b8352820152600c60248201526b105b1c9958591e481a5b9a5d60a21b6044820152fd5b8280fd5b602084843660031901831361018c576102a56115c9565b6102bd60035460ff8116159081610af1575b50611421565b3415610ac65760c834029134830460c803610ab3576127108093049260963402348104609603610aa057819004906102fe826102f987346114a5565b6114a5565b91600254956729a2241af62c000096808801809811610a8d5761034261033b600154996103358861032f8d8461145c565b926114b2565b90611485565b80996114a5565b93841561034f81156114bf565b60968602908682046096141715610a7a57916103728792610388940480976114a5565b996103808d358c10156114f7565b6001556114b2565b60025580610a21575b50806109d2575b5080610970575b5060018060a01b03906103ce8686848654168a87895180968195829463a9059cbb60e01b845233908401611592565b03925af1908115610966578491610949575b50156109125733835286865283832080546001600160401b031916426001600160401b03161790557f064fb1933e186be0b289a87e98518dc18cc9856ecbc9f1353d1a138ddf733ec5610443610434611671565b865191829189339634856115ad565b0390a2674563918244f400006002541015610473575b5050600160008051602061187c8339815191525551908152f35b600160ff19600354161760035547916aa56fa5b99019a5c800000090828154168551986370a0823160e01b808b5230828c015260249a8a818d81875afa9081156108735785916108e5575b508581106108dd575b50875163095ea7b360e01b81527f00000000000000000000000000000000000000000000000000000000000000008716938b90829081888161050c8c8b8b8401611592565b03925af19081156108735785916108b0575b501561087d5787516315ab88c960e31b81529a8a8c8481875afa8015610873578b9c869c98999a9b9c91610856575b50887f000000000000000000000000000000000000000000000000000000000000000016898754168c519963e6a4390560e01b8b528a8061059186858b8401611657565b0381855afa998a1561084c57908f939291899b61082d575b508d8c8c16156107b7575b50505050508785541661012c42018042116107a5578b519163f305d71960e01b835285830152878383015286604483015286606483015261dead608483015260a482015260608160c4818d895af1801561076c57610776575b5087855416918a5190815230848201528c818381865afa90811561076c57869161073a575b50806106df575b5050508583541690813b156106db57918391868361066b958c519687958694859363c7b1280160e01b85528401611657565b03925af180156106d1576106ba575b505084519384528684015216818301527fe8284482a896de2fb31532f8a0c0f64867b8d0586ff49dbd54ddf4cddb2c036590606090a19082918480610459565b6106c4829161152e565b6106ce578061067a565b80fd5b87513d84823e3d90fd5b8380fd5b823b15610736578a516316c2401160e21b8152848101919091529185918391829084905af1801561072c57908491610718575b80610639565b6107219061152e565b61028a57828b610712565b89513d86823e3d90fd5b8580fd5b90508c81813d8311610765575b6107518183611557565b8101031261076057518d610632565b600080fd5b503d610747565b8b513d88823e3d90fd5b606090813d811161079e575b61078c8183611557565b8101031261079a578c61060d565b8480fd5b503d610782565b634e487b7160e01b8752601185528287fd5b6107d8959b508990518096819582946364e329cb60e11b84528b8401611657565b03925af19081156108235785916107f6575b50958b8d80808d6105b4565b61081691508c8d3d1061081c575b61080e8183611557565b810190611638565b8c6107ea565b503d610804565b8a513d87823e3d90fd5b610845919b50843d861161081c5761080e8183611557565b99386105a9565b8d513d8a823e3d90fd5b61086d9150883d8a1161081c5761080e8183611557565b8d61054d565b89513d87823e3d90fd5b875162461bcd60e51b81528083018b9052600e818d01526d105c1c1c9bdd994819985a5b195960921b6044820152606490fd5b6108d091508b3d8d116108d6575b6108c88183611557565b81019061157a565b8c61051e565b503d6108be565b94508b6104c7565b90508a81813d831161090b575b6108fc8183611557565b8101031261076057518c6104be565b503d6108f2565b835162461bcd60e51b81528088018790526011602482015270151bdad95b881e19995c8819985a5b1959607a1b6044820152606490fd5b6109609150873d89116108d6576108c88183611557565b886103e0565b85513d86823e3d90fd5b82546001600160a01b031690813b156106db57839160248392875194859384926316c2401160e21b84528d8401525af180156109c8579083916109b4575b5061039f565b6109bd9061152e565b61018c5781876109ae565b84513d85823e3d90fd5b83546001600160a01b0316803b1561079a578490898751809481936316f1a0a760e31b83525af1801561096657908491610a0d575b50610398565b610a169061152e565b61028a578288610a07565b84546001600160a01b0316803b156107365785908a88518094819363523aa0dd60e11b83525af18015610a7057908591610a5c575b50610391565b610a659061152e565b6106db578389610a56565b86513d87823e3d90fd5b634e487b7160e01b885260118c52602488fd5b634e487b7160e01b865260118a52602486fd5b634e487b7160e01b835260118752602483fd5b634e487b7160e01b815260118552602490fd5b5162461bcd60e51b8152808401839052600660248201526509cde408aa8960d31b6044820152606490fd5b60ff915060081c1615866102b7565b83833461018c578060031936011261018c578235610b1c6115c9565b610b3360035460ff8116159081610af15750611421565b8015610ead5760968102818104609603610e9a5761271080910494610b5886846114a5565b9560018060a01b0386818154169287516323b872dd60e01b8152338682015260249430868301528860448301528160648160209d8e945af1908115610e90578391610e73575b5015610e3c5780610df0575b5090600254946729a2241af62c000099868b01809b11610d9f57610bde999a610beb610be4610bf1936001549d8e8561145c565b9d6114b2565b809c611485565b906114a5565b95808711610db25786610c139181159b610c0b8d156114bf565b6001556114a5565b600255610c1f336116a6565b60c8018060c811610d9f57610c3582918861145c565b049860968702908782046096141715610d9f570490610c58826102f98b896114a5565b98610c6685358b10156114f7565b80610d57575b5081610d16575b505080808089335af1610c846115f9565b5015610ce2575050837f483f8aec0fd892ac72ad1ba8d0e9c9e73db59c12d263fd71de480b5b3deeae3c91610cc7610cba611671565b86519384933397856115ad565b0390a2600160008051602061187c8339815191525551908152f35b845162461bcd60e51b8152918201879052600f908201526e115512081cd95b990819985a5b1959608a1b6044820152606490fd5b825416803b1561028a578290858951809481936316f1a0a760e31b83525af180156106d15790829115610c7357610d4c9061152e565b6106ce578089610c73565b81845416803b1561079a578490878b518094819363523aa0dd60e11b83525af1801561072c57908491610d8b575b50610c6c565b610d949061152e565b61028a57828b610d85565b5050634e487b7160e01b82525060118352fd5b885162461bcd60e51b81528087018c905260198187015278496e73756666696369656e742045544820696e20637572766560381b6044820152606490fd5b8282541690813b1561028a5782918583928b5194859384926316c2401160e21b84528b8401525af18015610e325715610baa57610e2c9061152e565b89610baa565b88513d84823e3d90fd5b875162461bcd60e51b81528086018a905260128186015271151c985b9cd9995c881a5b8819985a5b195960721b6044820152606490fd5b610e8a91508a3d8c116108d6576108c88183611557565b8b610b9e565b89513d85823e3d90fd5b634e487b7160e01b845260118552602484fd5b815162461bcd60e51b815260208186015260096024820152684e6f20746f6b656e7360b81b6044820152606490fd5b6113ca565b50503461018c578160031936011261018c57602090516aa56fa5b99019a5c80000008152f35b50503461018c578160031936011261018c57602090516103e88152f35b50503461018c578160031936011261018c57517f00000000000000000000000000000000000000000000000000000000000000006001600160a01b03168152602090f35b50503461018c578160031936011261018c57602090516107d08152f35b50503461018c578160031936011261018c57602090516101f48152f35b50503461018c578160031936011261018c57516714adf4b7320334b9601d1b8152602090f35b50503461018c578160031936011261018c57517f00000000000000000000000000000000000000000000000000000000000000006001600160a01b03168152602090f35b8284346106ce57806003193601126106ce57600254926729a2241af62c000093840180941161106657670de0b6b3a7640000938481029481860414901517156110665760208361105f8660015490611485565b9051908152f35b634e487b7160e01b825260119052602490fd5b50503461018c578160031936011261018c5760209051674563918244f400008152f35b50503461018c578160031936011261018c57517f00000000000000000000000000000000000000000000000000000000000000006001600160a01b03168152602090f35b50503461018c578160031936011261018c57517f00000000000000000000000000000000000000000000000000000000000000006001600160a01b03168152602090f35b50503461018c578160031936011261018c5760209060ff60035460081c1690519015158152f35b90503461028a578160031936011261028a57602435926001600160a01b03841684036106ce575060209261105f91356117a3565b50503461018c578160031936011261018c5760209061105f611671565b50503461018c578160031936011261018c57602090516729a2241af62c00008152f35b90503461028a57602036600319011261028a57602092906001600160a01b036111e66113b4565b16825283528190205490516001600160401b039091168152f35b9190503461028a57602036600319011261028a5761121c6113b4565b6112246115c9565b6001600160a01b039161125a337f00000000000000000000000000000000000000000000000000000000000000008516146113e6565b60035460ff81166113065761ff001916610100176003554793846112bb575b505192835216907f16bfc55cfda3eb65b74e8fe52a8804e222bdb31aef30599b41adeb45893f66a990602090a2600160008051602061187c8339815191525580f35b85808080888888165af16112cd6115f9565b50611279576020606492519162461bcd60e51b8352820152600f60248201526e15da5d1a191c985dc819985a5b1959608a1b6044820152fd5b815162461bcd60e51b81526020818701526011602482015270105b1c9958591e4819dc98591d585d1959607a1b6044820152606490fd5b50503461018c578160031936011261018c576020905160c88152f35b50503461018c578160031936011261018c576020906001549051908152f35b8284346106ce5760203660031901126106ce575061105f60209235611711565b84903461018c578160031936011261018c576020906002548152f35b600435906001600160a01b038216820361076057565b3461076057600036600319011261076057602060405160968152f35b156113ed57565b60405162461bcd60e51b815260206004820152600c60248201526b4f6e6c7920666163746f727960a01b6044820152606490fd5b1561142857565b60405162461bcd60e51b815260206004820152600c60248201526b10dd5c9d994818db1bdcd95960a21b6044820152606490fd5b8181029291811591840414171561146f57565b634e487b7160e01b600052601160045260246000fd5b811561148f570490565b634e487b7160e01b600052601260045260246000fd5b9190820391821161146f57565b9190820180921161146f57565b156114c657565b60405162461bcd60e51b8152602060048201526009602482015268151bdbc81cdb585b1b60ba1b6044820152606490fd5b156114fe57565b60405162461bcd60e51b8152602060048201526008602482015267536c69707061676560c01b6044820152606490fd5b6001600160401b03811161154157604052565b634e487b7160e01b600052604160045260246000fd5b601f909101601f19168101906001600160401b0382119082101761154157604052565b90816020910312610760575180151581036107605790565b6001600160a01b039091168152602081019190915260400190565b9094939260609260808301968352602083015260408201520152565b60008051602061187c83398151915260028154146115e75760029055565b604051633ee5aeb560e01b8152600490fd5b3d15611633573d906001600160401b0382116115415760405191611627601f8201601f191660200184611557565b82523d6000602084013e565b606090565b9081602091031261076057516001600160a01b03811681036107605790565b6001600160a01b0391821681529116602082015260400190565b60ff600354166116a0576002546127109081810291818304149015171561146f57674563918244f40000900490565b61271090565b6001600160a01b03166000908152600460205260409020546001600160401b0316801561170b576116d790426114a5565b61012c811061170457610e1081106116fd5762015180116116f757600090565b6101f490565b506103e890565b506107d090565b50600090565b60035460ff8116908115611795575b5061170b576125b29081810291818304149015171561146f576002546729a2241af62c000090810180911161146f5761177490610beb60015491610335611767848361145c565b91612710809704906114b2565b60968102918183046096148215171561146f576117929204906114a5565b90565b60ff915060081c1638611720565b60035460ff811690811561186d575b506118665760968102908082046096148115171561146f576117da90612710809304906114a5565b91600254926729a2241af62c000084810180911161146f57610beb61180a926103356001549161032f838661145c565b9280841161185c575b5061181d906116a6565b8060c801908160c81161146f5761015e0180911161146f5761183f908361145c565b046000918181116000146118575761179292506114a5565b505090565b925061181d611813565b5050600090565b60ff915060081c16386117b256fe9b779b17422d0df92223018b32b4d1fa46e071723d6817e2486d003becc55f00a2646970667358221220b0b61c05d9cff33fac948a08ab88b688e4b71720e722d793d4268e443a9faa7064736f6c63430008140033",
  "linkReferences": {},
  "deployedLinkReferences": {}
}