{
  "_format": "hh-sol-artifact-1",
  "contractName": "AethpadBondingCurveV2",
  "sourceName": "contracts/v2/AethpadBondingCurveV2.sol",
  "abi": [
    {
      "inputs": [
        {
          "internalType": "address",
          "name": "_factory",
          "type": "address"
        },
        {
          "internalType": "address",
          "name": "_uniswapRouter",
          "type": "address"
        }
      ],
      "stateMutability": "nonpayable",
      "type": "constructor"
    },
    {
      "inputs": [],
      "name": "ReentrancyGuardReentrantCall",
      "type": "error"
    },
    {
      "anonymous": false,
      "inputs": [
        {
          "indexed": true,
          "internalType": "address",
          "name": "buyer",
          "type": "address"
        },
        {
          "indexed": false,
          "internalType": "uint256",
          "name": "ethIn",
          "type": "uint256"
        },
        {
          "indexed": false,
          "internalType": "uint256",
          "name": "ethForCurve",
          "type": "uint256"
        },
        {
          "indexed": false,
          "internalType": "uint256",
          "name": "tokensOut",
          "type": "uint256"
        },
        {
          "indexed": false,
          "internalType": "uint256",
          "name": "progressBps",
          "type": "uint256"
        }
      ],
      "name": "Buy",
      "type": "event"
    },
    {
      "anonymous": false,
      "inputs": [
        {
          "indexed": true,
          "internalType": "address",
          "name": "withdrawTo",
          "type": "address"
        },
        {
          "indexed": false,
          "internalType": "uint256",
          "name": "ethAmount",
          "type": "uint256"
        }
      ],
      "name": "ForceClosed",
      "type": "event"
    },
    {
      "anonymous": false,
      "inputs": [
        {
          "indexed": false,
          "internalType": "uint256",
          "name": "ethToLp",
          "type": "uint256"
        },
        {
          "indexed": false,
          "internalType": "uint256",
          "name": "tokensToLp",
          "type": "uint256"
        },
        {
          "indexed": false,
          "internalType": "address",
          "name": "pair",
          "type": "address"
        }
      ],
      "name": "Graduated",
      "type": "event"
    },
    {
      "anonymous": false,
      "inputs": [
        {
          "indexed": true,
          "internalType": "address",
          "name": "seller",
          "type": "address"
        },
        {
          "indexed": false,
          "internalType": "uint256",
          "name": "tokensIn",
          "type": "uint256"
        },
        {
          "indexed": false,
          "internalType": "uint256",
          "name": "ethOutGross",
          "type": "uint256"
        },
        {
          "indexed": false,
          "internalType": "uint256",
          "name": "ethToUser",
          "type": "uint256"
        },
        {
          "indexed": false,
          "internalType": "uint256",
          "name": "progressBps",
          "type": "uint256"
        }
      ],
      "name": "Sell",
      "type": "event"
    },
    {
      "inputs": [],
      "name": "BURN_BPS",
      "outputs": [
        {
          "internalType": "uint256",
          "name": "",
          "type": "uint256"
        }
      ],
      "stateMutability": "view",
      "type": "function"
    },
    {
      "inputs": [],
      "name": "CURVE_TOKEN_SUPPLY",
      "outputs": [
        {
          "internalType": "uint256",
          "name": "",
          "type": "uint256"
        }
      ],
      "stateMutability": "view",
      "type": "function"
    },
    {
      "inputs": [],
      "name": "GRAD_TOKEN_SUPPLY",
      "outputs": [
        {
          "internalType": "uint256",
          "name": "",
          "type": "uint256"
        }
      ],
      "stateMutability": "view",
      "type": "function"
    },
    {
      "inputs": [],
      "name": "PLATFORM_BPS",
      "outputs": [
        {
          "internalType": "uint256",
          "name": "",
          "type": "uint256"
        }
      ],
      "stateMutability": "view",
      "type": "function"
    },
    {
      "inputs": [],
      "name": "REWARD_BPS",
      "outputs": [
        {
          "internalType": "uint256",
          "name": "",
          "type": "uint256"
        }
      ],
      "stateMutability": "view",
      "type": "function"
    },
    {
      "inputs": [],
      "name": "SNIPE_BPS_1HR",
      "outputs": [
        {
          "internalType": "uint256",
          "name": "",
          "type": "uint256"
        }
      ],
      "stateMutability": "view",
      "type": "function"
    },
    {
      "inputs": [],
      "name": "SNIPE_BPS_24HR",
      "outputs": [
        {
          "internalType": "uint256",
          "name": "",
          "type": "uint256"
        }
      ],
      "stateMutability": "view",
      "type": "function"
    },
    {
      "inputs": [],
      "name": "SNIPE_BPS_5MIN",
      "outputs": [
        {
          "internalType": "uint256",
          "name": "",
          "type": "uint256"
        }
      ],
      "stateMutability": "view",
      "type": "function"
    },
    {
      "inputs": [],
      "name": "TARGET_REAL_ETH",
      "outputs": [
        {
          "internalType": "uint256",
          "name": "",
          "type": "uint256"
        }
      ],
      "stateMutability": "view",
      "type": "function"
    },
    {
      "inputs": [],
      "name": "VIRTUAL_ETH",
      "outputs": [
        {
          "internalType": "uint256",
          "name": "",
          "type": "uint256"
        }
      ],
      "stateMutability": "view",
      "type": "function"
    },
    {
      "inputs": [
        {
          "internalType": "uint256",
          "name": "minTokensOut",
          "type": "uint256"
        }
      ],
      "name": "buy",
      "outputs": [
        {
          "internalType": "uint256",
          "name": "tokensToUser",
          "type": "uint256"
        }
      ],
      "stateMutability": "payable",
      "type": "function"
    },
    {
      "inputs": [],
      "name": "currentPrice",
      "outputs": [
        {
          "internalType": "uint256",
          "name": "",
          "type": "uint256"
        }
      ],
      "stateMutability": "view",
      "type": "function"
    },
    {
      "inputs": [],
      "name": "factory",
      "outputs": [
        {
          "internalType": "address",
          "name": "",
          "type": "address"
        }
      ],
      "stateMutability": "view",
      "type": "function"
    },
    {
      "inputs": [
        {
          "internalType": "address",
          "name": "to",
          "type": "address"
        }
      ],
      "name": "forceCloseAndWithdraw",
      "outputs": [],
      "stateMutability": "nonpayable",
      "type": "function"
    },
    {
      "inputs": [],
      "name": "forceClosed",
      "outputs": [
        {
          "internalType": "bool",
          "name": "",
          "type": "bool"
        }
      ],
      "stateMutability": "view",
      "type": "function"
    },
    {
      "inputs": [
        {
          "internalType": "uint256",
          "name": "ethAmount",
          "type": "uint256"
        }
      ],
      "name": "getBuyAmount",
      "outputs": [
        {
          "internalType": "uint256",
          "name": "tokensToUser",
          "type": "uint256"
        }
      ],
      "stateMutability": "view",
      "type": "function"
    },
    {
      "inputs": [
        {
          "internalType": "uint256",
          "name": "tokenAmount",
          "type": "uint256"
        },
        {
          "internalType": "address",
          "name": "seller",
          "type": "address"
        }
      ],
      "name": "getSellAmount",
      "outputs": [
        {
          "internalType": "uint256",
          "name": "ethToUser",
          "type": "uint256"
        }
      ],
      "stateMutability": "view",
      "type": "function"
    },
    {
      "inputs": [],
      "name": "graduated",
      "outputs": [
        {
          "internalType": "bool",
          "name": "",
          "type": "bool"
        }
      ],
      "stateMutability": "view",
      "type": "function"
    },
    {
      "inputs": [
        {
          "internalType": "address",
          "name": "_token",
          "type": "address"
        }
      ],
      "name": "initToken",
      "outputs": [],
      "stateMutability": "nonpayable",
      "type": "function"
    },
    {
      "inputs": [
        {
          "internalType": "address",
          "name": "",
          "type": "address"
        }
      ],
      "name": "lastBuyAt",
      "outputs": [
        {
          "internalType": "uint64",
          "name": "",
          "type": "uint64"
        }
      ],
      "stateMutability": "view",
      "type": "function"
    },
    {
      "inputs": [],
      "name": "progressBps",
      "outputs": [
        {
          "internalType": "uint256",
          "name": "",
          "type": "uint256"
        }
      ],
      "stateMutability": "view",
      "type": "function"
    },
    {
      "inputs": [],
      "name": "realEthRaised",
      "outputs": [
        {
          "internalType": "uint256",
          "name": "",
          "type": "uint256"
        }
      ],
      "stateMutability": "view",
      "type": "function"
    },
    {
      "inputs": [
        {
          "internalType": "uint256",
          "name": "tokenAmount",
          "type": "uint256"
        },
        {
          "internalType": "uint256",
          "name": "minEthOut",
          "type": "uint256"
        }
      ],
      "name": "sell",
      "outputs": [
        {
          "internalType": "uint256",
          "name": "ethToUser",
          "type": "uint256"
        }
      ],
      "stateMutability": "nonpayable",
      "type": "function"
    },
    {
      "inputs": [
        {
          "internalType": "address",
          "name": "user",
          "type": "address"
        }
      ],
      "name": "stampBuyAt",
      "outputs": [],
      "stateMutability": "nonpayable",
      "type": "function"
    },
    {
      "inputs": [],
      "name": "token",
      "outputs": [
        {
          "internalType": "contract IAethpadTokenV2",
          "name": "",
          "type": "address"
        }
      ],
      "stateMutability": "view",
      "type": "function"
    },
    {
      "inputs": [],
      "name": "trustedInitializer",
      "outputs": [
        {
          "internalType": "address",
          "name": "",
          "type": "address"
        }
      ],
      "stateMutability": "view",
      "type": "function"
    },
    {
      "inputs": [],
      "name": "uniswapFactory",
      "outputs": [
        {
          "internalType": "contract IUniswapV2Factory",
          "name": "",
          "type": "address"
        }
      ],
      "stateMutability": "view",
      "type": "function"
    },
    {
      "inputs": [],
      "name": "uniswapRouter",
      "outputs": [
        {
          "internalType": "contract IUniswapV2Router02",
          "name": "",
          "type": "address"
        }
      ],
      "stateMutability": "view",
      "type": "function"
    },
    {
      "inputs": [],
      "name": "virtualTokenReserve",
      "outputs": [
        {
          "internalType": "uint256",
          "name": "",
          "type": "uint256"
        }
      ],
      "stateMutability": "view",
      "type": "function"
    },
    {
      "stateMutability": "payable",
      "type": "receive"
    }
  ],
  "bytecode": "0x61010080604052346200016d5760408162001c2a803803809162000024828562000172565b8339810103126200016d576200004860206200004083620001ac565b9201620001ac565b9060017f9b779b17422d0df92223018b32b4d1fa46e071723d6817e2486d003becc55f00556080523360a0526004602060018060a01b038093168060c0526040519283809263c45a015560e01b82525afa90811562000161576000916200011d575b501660e0526b0295be96e640669720000000600155604051611a689081620001c2823960805181818161023c01528181610b850152818161100c0152611307015260a0518181816101f201526110b0015260c0518181816104e101526111c8015260e05181818161055c01526111840152f35b906020823d821162000158575b81620001396020938362000172565b810103126200015557506200014e90620001ac565b38620000aa565b80fd5b3d91506200012a565b6040513d6000823e3d90fd5b600080fd5b601f909101601f19168101906001600160401b038211908210176200019657604052565b634e487b7160e01b600052604160045260246000fd5b51906001600160a01b03821682036200016d5756fe6080604081815260049182361015610022575b505050361561002057600080fd5b005b600092833560e01c918263130b31201461152f575081631fb87f391461150f578163343ee3b7146114f057816347b12bfc146114d457816350b89418146112d357816355ee54a1146112925781636700c0c31461126f5781636c1eba151461125257816371c1b8331461121e57816372d6e43a146111f7578163735de9f7146111b35781638bdb2afa1461116f57816394562afb1461114c5781639d1b464a146110df5781639e85f9aa1461109b5781639f870a7514611075578163a37a9fc014610faf578163bacf2a7b14611058578163bb103cbc1461103b578163c45a015514610ff7578163c463ecd714610fda578163c8f3bfd314610fb4578163ce91e16414610faf578163d79875eb14610bd0578163d8c76c1714610b5b578163d96a094a14610299578163df4d17dc146101be57508063e7c2b7721461019b5763fc0c546a146101715780610012565b34610197578160031936011261019757905490516001600160a01b039091168152602090f35b5080fd5b503461019757816003193601126101975760209060ff6003541690519015158152f35b91905034610295576020366003190112610295576101da61154b565b8354926001600160a01b0392838516610263575050817f00000000000000000000000000000000000000000000000000000000000000001633148015610238575b6102249061157d565b6001600160a01b0319909216911617815580f35b50337f000000000000000000000000000000000000000000000000000000000000000083161461021b565b906020606492519162461bcd60e51b8352820152600c60248201526b105b1c9958591e481a5b9a5d60a21b6044820152fd5b8280fd5b6020848436600319018313610197576102b0611760565b6102c860035460ff8116159081610b4c575b506115b8565b3415610b215760c834029134830460c803610b0e576127108093049260963402348104609603610afb578190049061030982610304873461163c565b61163c565b91600254956729a2241af62c000096808801809811610ae85761034d610346600154996103408861033a8d846115f3565b92611649565b9061161c565b809961163c565b93841561035a8115611656565b60968602908682046096141715610ad5579161037d87926103939404809761163c565b9961038b8d358c101561168e565b600155611649565b60025580610a7c575b5080610a2d575b50806109cb575b5060018060a01b03906103d98686848654168a87895180968195829463a9059cbb60e01b845233908401611729565b03925af19081156109c15784916109a4575b501561096d5733835286865283832080546001600160401b031916426001600160401b03161790557f064fb1933e186be0b289a87e98518dc18cc9856ecbc9f1353d1a138ddf733ec561044e61043f611808565b86519182918933963485611744565b0390a2674563918244f40000600254101561047e575b50506001600080516020611a138339815191525551908152f35b600160ff19600354161760035547916aa56fa5b99019a5c800000090828154168551986370a0823160e01b808b5230828c015260249a8a818d81875afa9081156108ce578591610940575b50858110610938575b50875163095ea7b360e01b81527f00000000000000000000000000000000000000000000000000000000000000008716938b9082908188816105178c8b8b8401611729565b03925af19081156108ce57859161090b575b50156108d85787516315ab88c960e31b81529a8a8c8481875afa80156108ce578b9c869c98999a9b9c916108b1575b50887f000000000000000000000000000000000000000000000000000000000000000016898754168c519963e6a4390560e01b8b528a8061059c86858b84016117ee565b0381855afa998a156108a757908f939291899b610888575b508d8c8c1615610812575b505050505060638602868104606314871517156108005760638a02908a82046063148b1517156107ee57898754169161012c4201918242116107dc5790606480928f519563f305d71960e01b8752898701528b8787015204604485015204606483015261dead608483015260a482015260608160c4818d895af180156107a3576107ad575b5087855416918a5190815230848201528c818381865afa9081156107a3578691610771575b5080610716575b5050508583541690813b156107125791839186836106a2958c519687958694859363c7b1280160e01b855284016117ee565b03925af18015610708576106f1575b505084519384528684015216818301527fe8284482a896de2fb31532f8a0c0f64867b8d0586ff49dbd54ddf4cddb2c036590606090a19082918480610464565b6106fb82916116c5565b61070557806106b1565b80fd5b87513d84823e3d90fd5b8380fd5b823b1561076d578a516316c2401160e21b8152848101919091529185918391829084905af180156107635790849161074f575b80610670565b610758906116c5565b61029557828b610749565b89513d86823e3d90fd5b8580fd5b90508c81813d831161079c575b61078881836116ee565b8101031261079757518d610669565b600080fd5b503d61077e565b8b513d88823e3d90fd5b606090813d81116107d5575b6107c381836116ee565b810103126107d1578c610644565b8480fd5b503d6107b9565b634e487b7160e01b8952601187528489fd5b634e487b7160e01b8752601185528287fd5b50634e487b7160e01b85526011835284fd5b610833959b508990518096819582946364e329cb60e11b84528b84016117ee565b03925af190811561087e578591610851575b50958b8d80808d6105bf565b61087191508c8d3d10610877575b61086981836116ee565b8101906117cf565b8c610845565b503d61085f565b8a513d87823e3d90fd5b6108a0919b50843d86116108775761086981836116ee565b99386105b4565b8d513d8a823e3d90fd5b6108c89150883d8a116108775761086981836116ee565b8d610558565b89513d87823e3d90fd5b875162461bcd60e51b81528083018b9052600e818d01526d105c1c1c9bdd994819985a5b195960921b6044820152606490fd5b61092b91508b3d8d11610931575b61092381836116ee565b810190611711565b8c610529565b503d610919565b94508b6104d2565b90508a81813d8311610966575b61095781836116ee565b8101031261079757518c6104c9565b503d61094d565b835162461bcd60e51b81528088018790526011602482015270151bdad95b881e19995c8819985a5b1959607a1b6044820152606490fd5b6109bb9150873d89116109315761092381836116ee565b886103eb565b85513d86823e3d90fd5b82546001600160a01b031690813b1561071257839160248392875194859384926316c2401160e21b84528d8401525af18015610a2357908391610a0f575b506103aa565b610a18906116c5565b610197578187610a09565b84513d85823e3d90fd5b83546001600160a01b0316803b156107d1578490898751809481936316f1a0a760e31b83525af180156109c157908491610a68575b506103a3565b610a71906116c5565b610295578288610a62565b84546001600160a01b0316803b1561076d5785908a88518094819363523aa0dd60e11b83525af18015610acb57908591610ab7575b5061039c565b610ac0906116c5565b610712578389610ab1565b86513d87823e3d90fd5b634e487b7160e01b885260118c52602488fd5b634e487b7160e01b865260118a52602486fd5b634e487b7160e01b835260118752602483fd5b634e487b7160e01b815260118552602490fd5b5162461bcd60e51b8152808401839052600660248201526509cde408aa8960d31b6044820152606490fd5b60ff915060081c1615866102c2565b90503461029557602036600319011261029557610b7661154b565b6001600160a01b0390610bac337f000000000000000000000000000000000000000000000000000000000000000084161461157d565b168352602052812080546001600160401b031916426001600160401b031617905580f35b8383346101975780600319360112610197578235610bec611760565b610c0360035460ff8116159081610b4c57506115b8565b8015610f805760968102818104609603610f6d5761271080910494610c28868461163c565b958560018060a01b03808254169287516323b872dd60e01b8152338682015260249430868301528860448301528160648160209d8e945af1908115610763578491610f50575b5015610f195780610ebf575b50600254946729a2241af62c000099868b01809b11610e6e57610cad999a610cba610cb3610cc0936001549d8e856115f3565b9d611649565b809c61161c565b9061163c565b95808711610e815786610ce29181159b610cda8d15611656565b60015561163c565b600255610cee3361183d565b60c8018060c811610e6e57610d048291886115f3565b049860968702908782046096141715610e6e570490610d27826103048b8961163c565b98610d3585358b101561168e565b80610e26575b5081610de5575b505080808089335af1610d53611790565b5015610db1575050837f483f8aec0fd892ac72ad1ba8d0e9c9e73db59c12d263fd71de480b5b3deeae3c91610d96610d89611808565b8651938493339785611744565b0390a26001600080516020611a138339815191525551908152f35b845162461bcd60e51b8152918201879052600f908201526e115512081cd95b990819985a5b1959608a1b6044820152606490fd5b825416803b15610295578290858951809481936316f1a0a760e31b83525af180156107085790829115610d4257610e1b906116c5565b610705578089610d42565b81845416803b156107d1578490878b518094819363523aa0dd60e11b83525af1801561076357908491610e5a575b50610d3b565b610e63906116c5565b61029557828b610e54565b5050634e487b7160e01b82525060118352fd5b885162461bcd60e51b81528087018c905260198187015278496e73756666696369656e742045544820696e20637572766560381b6044820152606490fd5b8183541690813b156107125783918583928b5194859384926316c2401160e21b84528b8401525af18015610f0f57908391610efb575b50610c7a565b610f04906116c5565b61019757818a610ef5565b88513d85823e3d90fd5b875162461bcd60e51b81528086018a905260128186015271151c985b9cd9995c881a5b8819985a5b195960721b6044820152606490fd5b610f6791508a3d8c116109315761092381836116ee565b8b610c6e565b634e487b7160e01b845260118552602484fd5b815162461bcd60e51b815260208186015260096024820152684e6f20746f6b656e7360b81b6044820152606490fd5b611561565b505034610197578160031936011261019757602090516aa56fa5b99019a5c80000008152f35b505034610197578160031936011261019757602090516103e88152f35b505034610197578160031936011261019757517f00000000000000000000000000000000000000000000000000000000000000006001600160a01b03168152602090f35b505034610197578160031936011261019757602090516107d08152f35b505034610197578160031936011261019757602090516101f48152f35b505034610197578160031936011261019757516714adf4b7320334b9601d1b8152602090f35b505034610197578160031936011261019757517f00000000000000000000000000000000000000000000000000000000000000006001600160a01b03168152602090f35b828434610705578060031936011261070557600254926729a2241af62c000093840180941161113957670de0b6b3a76400009384810294818604149015171561113957602083611132866001549061161c565b9051908152f35b634e487b7160e01b825260119052602490fd5b50503461019757816003193601126101975760209051674563918244f400008152f35b505034610197578160031936011261019757517f00000000000000000000000000000000000000000000000000000000000000006001600160a01b03168152602090f35b505034610197578160031936011261019757517f00000000000000000000000000000000000000000000000000000000000000006001600160a01b03168152602090f35b50503461019757816003193601126101975760209060ff60035460081c1690519015158152f35b82843461070557816003193601126107055750602435916001600160a01b038316830361079757602092611132913561193a565b505034610197578160031936011261019757602090611132611808565b505034610197578160031936011261019757602090516729a2241af62c00008152f35b90503461029557602036600319011261029557602092906001600160a01b036112b961154b565b16825283528190205490516001600160401b039091168152f35b8391503461019757602080600319360112610295576112f061154b565b6112f8611760565b6001600160a01b039061132e337f000000000000000000000000000000000000000000000000000000000000000084161461157d565b60035460ff811661149d5761ff00191661010017600355845486516370a0823160e01b81523086820152908316908481602481855afa908115611493578791611466575b5080611410575b50504793846113c4575b507f16bfc55cfda3eb65b74e8fe52a8804e222bdb31aef30599b41adeb45893f66a9939495519485521692a26001600080516020611a138339815191525580f35b85808080888787165af16113d6611790565b5061138357865162461bcd60e51b8152908101849052600f60248201526e15da5d1a191c985dc819985a5b1959608a1b6044820152606490fd5b813b15611462578691602483928a5194859384926316c2401160e21b84528b8401525af1801561145857611445575b80611379565b611451909591956116c5565b938661143f565b87513d88823e3d90fd5b8680fd5b90508481813d831161148c575b61147d81836116ee565b81010312611462575188611372565b503d611473565b88513d89823e3d90fd5b865162461bcd60e51b81528086018590526011602482015270105b1c9958591e4819dc98591d585d1959607a1b6044820152606490fd5b5050346101975781600319360112610197576020905160c88152f35b5050346101975781600319360112610197576020906001549051908152f35b8284346107055760203660031901126107055750611132602092356118a8565b8490346101975781600319360112610197576020906002548152f35b600435906001600160a01b038216820361079757565b3461079757600036600319011261079757602060405160968152f35b1561158457565b60405162461bcd60e51b815260206004820152600c60248201526b4f6e6c7920666163746f727960a01b6044820152606490fd5b156115bf57565b60405162461bcd60e51b815260206004820152600c60248201526b10dd5c9d994818db1bdcd95960a21b6044820152606490fd5b8181029291811591840414171561160657565b634e487b7160e01b600052601160045260246000fd5b8115611626570490565b634e487b7160e01b600052601260045260246000fd5b9190820391821161160657565b9190820180921161160657565b1561165d57565b60405162461bcd60e51b8152602060048201526009602482015268151bdbc81cdb585b1b60ba1b6044820152606490fd5b1561169557565b60405162461bcd60e51b8152602060048201526008602482015267536c69707061676560c01b6044820152606490fd5b6001600160401b0381116116d857604052565b634e487b7160e01b600052604160045260246000fd5b601f909101601f19168101906001600160401b038211908210176116d857604052565b90816020910312610797575180151581036107975790565b6001600160a01b039091168152602081019190915260400190565b9094939260609260808301968352602083015260408201520152565b600080516020611a13833981519152600281541461177e5760029055565b604051633ee5aeb560e01b8152600490fd5b3d156117ca573d906001600160401b0382116116d857604051916117be601f8201601f1916602001846116ee565b82523d6000602084013e565b606090565b9081602091031261079757516001600160a01b03811681036107975790565b6001600160a01b0391821681529116602082015260400190565b60ff60035416611837576002546127109081810291818304149015171561160657674563918244f40000900490565b61271090565b6001600160a01b03166000908152600460205260409020546001600160401b031680156118a25761186e904261163c565b61012c811061189b57610e10811061189457620151801161188e57600090565b6101f490565b506103e890565b506107d090565b50600090565b60035460ff811690811561192c575b506118a2576125b290818102918183041490151715611606576002546729a2241af62c00009081018091116116065761190b90610cba600154916103406118fe84836115f3565b9161271080970490611649565b6096810291818304609614821517156116065761192992049061163c565b90565b60ff915060081c16386118b7565b60035460ff8116908115611a04575b506119fd5760968102908082046096148115171561160657611971906127108093049061163c565b91600254926729a2241af62c000084810180911161160657610cba6119a1926103406001549161033a83866115f3565b928084116119f3575b506119b49061183d565b8060c801908160c8116116065761015e01809111611606576119d690836115f3565b046000918181116000146119ee57611929925061163c565b505090565b92506119b46119aa565b5050600090565b60ff915060081c163861194956fe9b779b17422d0df92223018b32b4d1fa46e071723d6817e2486d003becc55f00a2646970667358221220c4639cbd17cfab01316c5d54fd71ac6ed3fb70826fe1856b7c245adc8537858b64736f6c63430008140033",
  "linkReferences": {},
  "deployedLinkReferences": {}
}