{
  "_format": "hh-sol-artifact-1",
  "contractName": "MockWETH",
  "sourceName": "contracts/mocks/MockUniswapV2.sol",
  "abi": [
    {
      "inputs": [],
      "name": "decimals",
      "outputs": [
        {
          "internalType": "uint8",
          "name": "",
          "type": "uint8"
        }
      ],
      "stateMutability": "view",
      "type": "function"
    },
    {
      "inputs": [],
      "name": "deposit",
      "outputs": [],
      "stateMutability": "payable",
      "type": "function"
    },
    {
      "inputs": [],
      "name": "name",
      "outputs": [
        {
          "internalType": "string",
          "name": "",
          "type": "string"
        }
      ],
      "stateMutability": "view",
      "type": "function"
    },
    {
      "inputs": [],
      "name": "symbol",
      "outputs": [
        {
          "internalType": "string",
          "name": "",
          "type": "string"
        }
      ],
      "stateMutability": "view",
      "type": "function"
    },
    {
      "inputs": [
        {
          "internalType": "uint256",
          "name": "",
          "type": "uint256"
        }
      ],
      "name": "withdraw",
      "outputs": [],
      "stateMutability": "nonpayable",
      "type": "function"
    }
  ],
  "bytecode": "0x60806040523461010e576100135f54610112565b601f81116100c7575b507f577261707065642045746865720000000000000000000000000000000000001a5f5560015461004c90610112565b601f811161007f575b6008630ae8aa8960e31b016001556002805460ff191660121790556040516102e2908161014b8239f35b60015f52601f0160051c7fb10e2d527612073b26eecdfd717e6a320cf44b4afac2b0732d9fcbe2b7fa0cf6908101905b8181106100bc5750610055565b5f81556001016100af565b5f8052601f0160051c7f290decd9548b62a8d60345a988386fc84ba6bc95484008f6362f93160ef3e563908101905b818110610103575061001c565b5f81556001016100f6565b5f80fd5b90600182811c92168015610140575b602083101461012c57565b634e487b7160e01b5f52602260045260245ffd5b91607f169161012156fe60806040526004361015610011575f80fd5b5f3560e01c806306fdde03146101b15780632e1a7d4d1461019e578063313ce5671461017e57806395d89b41146100615763d0e30db014610050575f80fd5b5f36600319011261005d57005b5f80fd5b3461005d575f36600319011261005d576040515f6001548060011c90600181168015610174575b6020831081146101605782855290811561014457506001146100ee575b50819003601f01601f19168101906001600160401b038211818310176100da57604082905281906100d69082610282565b0390f35b634e487b7160e01b5f52604160045260245ffd5b60015f9081529091507fb10e2d527612073b26eecdfd717e6a320cf44b4afac2b0732d9fcbe2b7fa0cf65b82821061012e575060209150820101826100a5565b6001816020925483858801015201910190610119565b90506020925060ff191682840152151560051b820101826100a5565b634e487b7160e01b5f52602260045260245ffd5b91607f1691610088565b3461005d575f36600319011261005d57602060ff60025416604051908152f35b3461005d57602036600319011261005d57005b3461005d575f36600319011261005d576040515f80548060011c90600181168015610278575b6020831081146101605782855290811561014457506001146102245750819003601f01601f19168101906001600160401b038211818310176100da57604082905281906100d69082610282565b5f8080529091507f290decd9548b62a8d60345a988386fc84ba6bc95484008f6362f93160ef3e5635b828210610262575060209150820101826100a5565b600181602092548385880101520191019061024d565b91607f16916101d7565b602060409281835280519182918282860152018484015e5f828201840152601f01601f191601019056fea264697066735822122074d1bf6634c9571e18d9ed3783e13bcac30769809682130e7b526aad50d57f9964736f6c634300081a0033",
  "linkReferences": {},
  "deployedLinkReferences": {}
}