{
  "_format": "hh-sol-artifact-1",
  "contractName": "MockUniswapV2Pair",
  "sourceName": "contracts/mocks/MockUniswapV2.sol",
  "abi": [
    {
      "inputs": [
        {
          "internalType": "address",
          "name": "",
          "type": "address"
        }
      ],
      "name": "balanceOf",
      "outputs": [
        {
          "internalType": "uint256",
          "name": "",
          "type": "uint256"
        }
      ],
      "stateMutability": "view",
      "type": "function"
    },
    {
      "inputs": [
        {
          "internalType": "address",
          "name": "_t0",
          "type": "address"
        },
        {
          "internalType": "address",
          "name": "_t1",
          "type": "address"
        }
      ],
      "name": "initialize",
      "outputs": [],
      "stateMutability": "nonpayable",
      "type": "function"
    },
    {
      "inputs": [
        {
          "internalType": "address",
          "name": "to",
          "type": "address"
        },
        {
          "internalType": "uint256",
          "name": "amount",
          "type": "uint256"
        }
      ],
      "name": "mint",
      "outputs": [],
      "stateMutability": "nonpayable",
      "type": "function"
    },
    {
      "inputs": [],
      "name": "token0",
      "outputs": [
        {
          "internalType": "address",
          "name": "",
          "type": "address"
        }
      ],
      "stateMutability": "view",
      "type": "function"
    },
    {
      "inputs": [],
      "name": "token1",
      "outputs": [
        {
          "internalType": "address",
          "name": "",
          "type": "address"
        }
      ],
      "stateMutability": "view",
      "type": "function"
    },
    {
      "inputs": [],
      "name": "totalSupply",
      "outputs": [
        {
          "internalType": "uint256",
          "name": "",
          "type": "uint256"
        }
      ],
      "stateMutability": "view",
      "type": "function"
    }
  ],
  "bytecode": "0x608080604052346100165761021f908161001c8239f35b600080fdfe60806040818152600436101561001457600080fd5b600091823560e01c9081630dfe1681146101875750806318160ddd1461016957806340c10f1914610118578063485cc955146100c657806370a082311461008f5763d21220a71461006457600080fd5b3461008b578160031936011261008b5760015490516001600160a01b039091168152602090f35b5080fd5b503461008b57602036600319011261008b5760209181906001600160a01b036100b66101ab565b1681526002845220549051908152f35b503461008b57366003190112610115576100de6101ab565b6024356001600160a01b0381811692918390036101115760018060a01b0319911681845416178355600154161760015580f35b8380fd5b80fd5b503461008b578060031936011261008b57610163906101356101ab565b6001600160a01b0316835260026020528220805460243591906101599083906101c6565b90556003546101c6565b60035580f35b503461008b578160031936011261008b576020906003549051908152f35b83903461008b578160031936011261008b5790546001600160a01b03168152602090f35b600435906001600160a01b03821682036101c157565b600080fd5b919082018092116101d357565b634e487b7160e01b600052601160045260246000fdfea2646970667358221220f3efb3b49b350abebd9c6e723d3a53373bb5c05e3253e614076fa9ea50d4c09764736f6c63430008140033",
  "linkReferences": {},
  "deployedLinkReferences": {}
}