{
  "_format": "hh-sol-artifact-1",
  "contractName": "MockWETH",
  "sourceName": "contracts/mocks/MockUniswapV2.sol",
  "abi": [
    {
      "inputs": [],
      "name": "decimals",
      "outputs": [
        {
          "internalType": "uint8",
          "name": "",
          "type": "uint8"
        }
      ],
      "stateMutability": "view",
      "type": "function"
    },
    {
      "inputs": [],
      "name": "deposit",
      "outputs": [],
      "stateMutability": "payable",
      "type": "function"
    },
    {
      "inputs": [],
      "name": "name",
      "outputs": [
        {
          "internalType": "string",
          "name": "",
          "type": "string"
        }
      ],
      "stateMutability": "view",
      "type": "function"
    },
    {
      "inputs": [],
      "name": "symbol",
      "outputs": [
        {
          "internalType": "string",
          "name": "",
          "type": "string"
        }
      ],
      "stateMutability": "view",
      "type": "function"
    },
    {
      "inputs": [
        {
          "internalType": "uint256",
          "name": "",
          "type": "uint256"
        }
      ],
      "name": "withdraw",
      "outputs": [],
      "stateMutability": "nonpayable",
      "type": "function"
    }
  ],
  "bytecode": "0x6080604052346100cb57600061001581546100d0565b601f81116100a1575b50601a6c2bb930b83832b21022ba3432b960991b01815560019061004282546100d0565b90601f8211610075575b6008630ae8aa8960e31b0183556002805460ff191660121790556040516102de908161010b8239f35b82815282601f60208320930160051c8301925b83811061009657505061004c565b828155018390610088565b818052601f60208320910160051c8101905b8181106100c0575061001e565b8281556001016100b3565b600080fd5b90600182811c92168015610100575b60208310146100ea57565b634e487b7160e01b600052602260045260246000fd5b91607f16916100df56fe608080604052600436101561001357600080fd5b600090813560e01c90816306fdde03146101a3575080632e1a7d4d1461018e578063313ce5671461016d57806395d89b41146100695763d0e30db01461005857600080fd5b806003193601126100665780f35b80fd5b503461006657806003193601126100665760405181600180549081811c90808316928315610163575b602093848410811461014f5783875290811561013357506001146100fb575b505050819003601f01601f19168101916001600160401b038311828410176100e757506100e38291826040528261025f565b0390f35b634e487b7160e01b81526041600452602490fd5b809293508552828520918386935b83851061011f57505050508201013880806100b1565b805487860183015293019284908201610109565b60ff1916868501525050151560051b83010190503880806100b1565b634e487b7160e01b88526022600452602488fd5b91607f1691610092565b5034610066578060031936011261006657602060ff60025416604051908152f35b50346100665760203660031901126100665780f35b90503461025b578160031936011261025b57818254600181811c90808316928315610251575b602093848410811461014f57838752908115610133575060011461021957505050819003601f01601f19168101916001600160401b038311828410176100e757506100e38291826040528261025f565b919250848052828520918386935b83851061023d57505050508201013880806100b1565b805487860183015293019284908201610227565b91607f16916101c9565b5080fd5b6020808252825181830181905290939260005b82811061029457505060409293506000838284010152601f8019910116010190565b81810186015184820160400152850161027256fea2646970667358221220084e078db39cb4e60118333fe0e0536782ca0faec8fd32e1a8801723654dd73e64736f6c63430008140033",
  "linkReferences": {},
  "deployedLinkReferences": {}
}