{
  "_format": "hh-sol-artifact-1",
  "contractName": "MockUniswapV2Router",
  "sourceName": "contracts/mocks/MockUniswapV2.sol",
  "abi": [
    {
      "inputs": [
        {
          "internalType": "address",
          "name": "factoryAddr",
          "type": "address"
        },
        {
          "internalType": "address",
          "name": "wethAddr",
          "type": "address"
        }
      ],
      "stateMutability": "nonpayable",
      "type": "constructor"
    },
    {
      "inputs": [],
      "name": "WETH",
      "outputs": [
        {
          "internalType": "address",
          "name": "",
          "type": "address"
        }
      ],
      "stateMutability": "view",
      "type": "function"
    },
    {
      "inputs": [],
      "name": "_factory",
      "outputs": [
        {
          "internalType": "address",
          "name": "",
          "type": "address"
        }
      ],
      "stateMutability": "view",
      "type": "function"
    },
    {
      "inputs": [],
      "name": "_weth",
      "outputs": [
        {
          "internalType": "address",
          "name": "",
          "type": "address"
        }
      ],
      "stateMutability": "view",
      "type": "function"
    },
    {
      "inputs": [
        {
          "internalType": "address",
          "name": "token",
          "type": "address"
        },
        {
          "internalType": "uint256",
          "name": "amountTokenDesired",
          "type": "uint256"
        },
        {
          "internalType": "uint256",
          "name": "",
          "type": "uint256"
        },
        {
          "internalType": "uint256",
          "name": "",
          "type": "uint256"
        },
        {
          "internalType": "address",
          "name": "to",
          "type": "address"
        },
        {
          "internalType": "uint256",
          "name": "",
          "type": "uint256"
        }
      ],
      "name": "addLiquidityETH",
      "outputs": [
        {
          "internalType": "uint256",
          "name": "amountToken",
          "type": "uint256"
        },
        {
          "internalType": "uint256",
          "name": "amountETH",
          "type": "uint256"
        },
        {
          "internalType": "uint256",
          "name": "liquidity",
          "type": "uint256"
        }
      ],
      "stateMutability": "payable",
      "type": "function"
    },
    {
      "inputs": [],
      "name": "factory",
      "outputs": [
        {
          "internalType": "address",
          "name": "",
          "type": "address"
        }
      ],
      "stateMutability": "view",
      "type": "function"
    },
    {
      "inputs": [
        {
          "internalType": "uint256",
          "name": "amountIn",
          "type": "uint256"
        },
        {
          "internalType": "uint256",
          "name": "",
          "type": "uint256"
        },
        {
          "internalType": "address[]",
          "name": "path",
          "type": "address[]"
        },
        {
          "internalType": "address",
          "name": "to",
          "type": "address"
        },
        {
          "internalType": "uint256",
          "name": "",
          "type": "uint256"
        }
      ],
      "name": "swapExactTokensForETHSupportingFeeOnTransferTokens",
      "outputs": [],
      "stateMutability": "nonpayable",
      "type": "function"
    },
    {
      "stateMutability": "payable",
      "type": "receive"
    }
  ],
  "bytecode": "0x60c034608057601f61064f38819003918201601f19168301916001600160401b038311848410176084578084926040948552833981010312608057604b60206045836098565b92016098565b9060805260a0526040516105a390816100ac823960805181818161011301526104a8015260a05181818160f201526104640152f35b5f80fd5b634e487b7160e01b5f52604160045260245ffd5b51906001600160a01b038216820360805756fe608080604052600436101561001c575b50361561001a575f80fd5b005b5f3560e01c908163791ac947146102c857508063a1764595146102c3578063ad5c4648146102c3578063c45a0155146102be578063c5cc6b6a146102be5763f305d7191461006a575f61000f565b60c03660031901126101e9576004356001600160a01b038116908181036101e9576084356001600160a01b0381169260243592918490036101e957602060405180926323b872dd60e01b8252815f816100c889303360048501610512565b03925af180156101de57610291575b503482019081831161027d5760405163e6a4390560e01b81527f00000000000000000000000000000000000000000000000000000000000000007f00000000000000000000000000000000000000000000000000000000000000006001600160a01b03166020838061014d858860048401610553565b0381845afa9283156101de575f9361025c575b506001600160a01b038316156101ed575b50506001600160a01b0316939050833b156101e9575f936044859260405196879384926340c10f1960e01b845260048401528660248401525af19283156101de576060936101ce575b506040519182523460208301526040820152f35b5f6101d8916104d7565b5f6101ba565b6040513d5f823e3d90fd5b5f80fd5b60209250610212935f6040518096819582946364e329cb60e11b845260048401610553565b03925af19081156101de575f9161022d575b50805f80610171565b61024f915060203d602011610255575b61024781836104d7565b810190610534565b5f610224565b503d61023d565b61027691935060203d6020116102555761024781836104d7565b915f610160565b634e487b7160e01b5f52601160045260245ffd5b6102b29060203d6020116102b7575b6102aa81836104d7565b8101906104fa565b6100d7565b503d6102a0565b610493565b61044f565b346101e95760a03660031901126101e957604435906004356001600160401b0383116101e957366023840112156101e9576004830135926001600160401b0384116101e9573660248560051b830101116101e9576064356001600160a01b03811694908590036101e9571561043b576024013560018060a01b0381168091036101e9576323b872dd60e01b83526020908390815f8161036c87303360048501610512565b03925af19182156101de575f8085612710829583958861041e575b500490478211610416575b5af13d15610411573d6001600160401b0381116103fd57604051906103c1601f8201601f1916602001836104d7565b81525f60203d92013e5b156103d257005b606460405162461bcd60e51b81526020600482015260046024820152631cd95b9960e21b6044820152fd5b634e487b7160e01b5f52604160045260245ffd5b6103cb565b479150610392565b6104369060203d6020116102b7576102aa81836104d7565b610387565b634e487b7160e01b5f52603260045260245ffd5b346101e9575f3660031901126101e9576040517f00000000000000000000000000000000000000000000000000000000000000006001600160a01b03168152602090f35b346101e9575f3660031901126101e9576040517f00000000000000000000000000000000000000000000000000000000000000006001600160a01b03168152602090f35b601f909101601f19168101906001600160401b038211908210176103fd57604052565b908160209103126101e9575180151581036101e95790565b6001600160a01b03918216815291166020820152604081019190915260600190565b908160209103126101e957516001600160a01b03811681036101e95790565b6001600160a01b039182168152911660208201526040019056fea26469706673582212203f3033e148aa83e75a949a7fdc2411025e3ec848659ee0f010bbaad755e2322864736f6c634300081a0033",
  "linkReferences": {},
  "deployedLinkReferences": {}
}