{
  "_format": "hh-sol-artifact-1",
  "contractName": "MockUniswapV2Factory",
  "sourceName": "contracts/mocks/MockUniswapV2.sol",
  "abi": [
    {
      "inputs": [
        {
          "internalType": "address",
          "name": "a",
          "type": "address"
        },
        {
          "internalType": "address",
          "name": "b",
          "type": "address"
        }
      ],
      "name": "createPair",
      "outputs": [
        {
          "internalType": "address",
          "name": "",
          "type": "address"
        }
      ],
      "stateMutability": "nonpayable",
      "type": "function"
    },
    {
      "inputs": [
        {
          "internalType": "address",
          "name": "a",
          "type": "address"
        },
        {
          "internalType": "address",
          "name": "b",
          "type": "address"
        }
      ],
      "name": "getPair",
      "outputs": [
        {
          "internalType": "address",
          "name": "",
          "type": "address"
        }
      ],
      "stateMutability": "view",
      "type": "function"
    },
    {
      "inputs": [],
      "name": "lastPair",
      "outputs": [
        {
          "internalType": "address",
          "name": "",
          "type": "address"
        }
      ],
      "stateMutability": "view",
      "type": "function"
    },
    {
      "inputs": [
        {
          "internalType": "address",
          "name": "",
          "type": "address"
        },
        {
          "internalType": "address",
          "name": "",
          "type": "address"
        }
      ],
      "name": "pairs",
      "outputs": [
        {
          "internalType": "address",
          "name": "",
          "type": "address"
        }
      ],
      "stateMutability": "view",
      "type": "function"
    }
  ],
  "bytecode": "0x60808060405234601557610542908161001a8239f35b5f80fdfe60806040526004361015610011575f80fd5b5f803560e01c806369454b861461025e578063ae57135c14610236578063c9c653961461009d5763e6a4390514610046575f80fd5b3461009a57604036600319011261009a5760406100616102af565b9161006a6102c5565b6001600160a01b0393841682526020828152929091209083165f9081529082526040908190205490519216825290f35b80fd5b5034610204576040366003190112610204576100b76102af565b906100c06102c5565b6001600160a01b039283165f8181526020818152604080832087861684529091529020549193909116610208576040516102318082016001600160401b038111838210176101e55782916102dc833903905ff080156101f9576001600160a01b031691823b156102045760405163485cc95560e01b8152600481018390526001600160a01b0390941660248501819052935f8160448183885af180156101f9576101ca575b50818152602081815260408083205f87815290835281812080546001600160a01b0388166001600160a01b0319918216811790925597855284845293829020948152938252928390208054861690921790915560018054909416831790935551908152f35b90506001600160401b0381116101e5576040525f6020610165565b634e487b7160e01b5f52604160045260245ffd5b6040513d5f823e3d90fd5b5f80fd5b60405162461bcd60e51b815260206004820152600660248201526565786973747360d01b6044820152606490fd5b34610204575f366003190112610204576001546040516001600160a01b039091168152602090f35b34610204576040366003190112610204576102776102af565b61027f6102c5565b6001600160a01b039182165f90815260208181526040808320938516835292815290829020549151919092168152f35b600435906001600160a01b038216820361020457565b602435906001600160a01b03821682036102045756fe60808060405234601557610217908161001a8239f35b5f80fdfe6080806040526004361015610012575f80fd5b5f3560e01c9081630dfe1681146101885750806318160ddd1461016b57806340c10f191461011e578063485cc955146100c257806370a082311461008a5763d21220a71461005e575f80fd5b34610086575f366003190112610086576001546040516001600160a01b039091168152602090f35b5f80fd5b34610086576020366003190112610086576001600160a01b036100ab6101aa565b165f526002602052602060405f2054604051908152f35b34610086576040366003190112610086576100db6101aa565b6024356001600160a01b0381169190829003610086575f80546001600160a01b03929092166001600160a01b031992831617905560018054909116919091179055005b346100865760403660031901126100865761016661013a6101aa565b6024359060018060a01b03165f52600260205260405f2061015c8282546101c0565b90556003546101c0565b600355005b34610086575f366003190112610086576020600354604051908152f35b34610086575f366003190112610086575f546001600160a01b03168152602090f35b600435906001600160a01b038216820361008657565b919082018092116101cd57565b634e487b7160e01b5f52601160045260245ffdfea26469706673582212208725ebb4cf3b58a58909f7845c1cb186bd23114466a7aad4b13d51fda684220d64736f6c634300081a0033a26469706673582212206a0171173082b8a5889d90136dd8439e84bc147c4e7c1db444b4d93b77b5289364736f6c634300081a0033",
  "linkReferences": {},
  "deployedLinkReferences": {}
}