{
  "_format": "hh-sol-artifact-1",
  "contractName": "MockUniswapV2Pair",
  "sourceName": "contracts/mocks/MockUniswapV2.sol",
  "abi": [
    {
      "inputs": [
        {
          "internalType": "address",
          "name": "",
          "type": "address"
        }
      ],
      "name": "balanceOf",
      "outputs": [
        {
          "internalType": "uint256",
          "name": "",
          "type": "uint256"
        }
      ],
      "stateMutability": "view",
      "type": "function"
    },
    {
      "inputs": [
        {
          "internalType": "address",
          "name": "_t0",
          "type": "address"
        },
        {
          "internalType": "address",
          "name": "_t1",
          "type": "address"
        }
      ],
      "name": "initialize",
      "outputs": [],
      "stateMutability": "nonpayable",
      "type": "function"
    },
    {
      "inputs": [
        {
          "internalType": "address",
          "name": "to",
          "type": "address"
        },
        {
          "internalType": "uint256",
          "name": "amount",
          "type": "uint256"
        }
      ],
      "name": "mint",
      "outputs": [],
      "stateMutability": "nonpayable",
      "type": "function"
    },
    {
      "inputs": [],
      "name": "token0",
      "outputs": [
        {
          "internalType": "address",
          "name": "",
          "type": "address"
        }
      ],
      "stateMutability": "view",
      "type": "function"
    },
    {
      "inputs": [],
      "name": "token1",
      "outputs": [
        {
          "internalType": "address",
          "name": "",
          "type": "address"
        }
      ],
      "stateMutability": "view",
      "type": "function"
    },
    {
      "inputs": [],
      "name": "totalSupply",
      "outputs": [
        {
          "internalType": "uint256",
          "name": "",
          "type": "uint256"
        }
      ],
      "stateMutability": "view",
      "type": "function"
    }
  ],
  "bytecode": "0x60808060405234601557610217908161001a8239f35b5f80fdfe6080806040526004361015610012575f80fd5b5f3560e01c9081630dfe1681146101885750806318160ddd1461016b57806340c10f191461011e578063485cc955146100c257806370a082311461008a5763d21220a71461005e575f80fd5b34610086575f366003190112610086576001546040516001600160a01b039091168152602090f35b5f80fd5b34610086576020366003190112610086576001600160a01b036100ab6101aa565b165f526002602052602060405f2054604051908152f35b34610086576040366003190112610086576100db6101aa565b6024356001600160a01b0381169190829003610086575f80546001600160a01b03929092166001600160a01b031992831617905560018054909116919091179055005b346100865760403660031901126100865761016661013a6101aa565b6024359060018060a01b03165f52600260205260405f2061015c8282546101c0565b90556003546101c0565b600355005b34610086575f366003190112610086576020600354604051908152f35b34610086575f366003190112610086575f546001600160a01b03168152602090f35b600435906001600160a01b038216820361008657565b919082018092116101cd57565b634e487b7160e01b5f52601160045260245ffdfea26469706673582212208725ebb4cf3b58a58909f7845c1cb186bd23114466a7aad4b13d51fda684220d64736f6c634300081a0033",
  "linkReferences": {},
  "deployedLinkReferences": {}
}