{
  "_format": "hh-sol-artifact-1",
  "contractName": "MockUniswapV2Factory",
  "sourceName": "contracts/mocks/MockUniswapV2.sol",
  "abi": [
    {
      "inputs": [
        {
          "internalType": "address",
          "name": "a",
          "type": "address"
        },
        {
          "internalType": "address",
          "name": "b",
          "type": "address"
        }
      ],
      "name": "createPair",
      "outputs": [
        {
          "internalType": "address",
          "name": "",
          "type": "address"
        }
      ],
      "stateMutability": "nonpayable",
      "type": "function"
    },
    {
      "inputs": [
        {
          "internalType": "address",
          "name": "a",
          "type": "address"
        },
        {
          "internalType": "address",
          "name": "b",
          "type": "address"
        }
      ],
      "name": "getPair",
      "outputs": [
        {
          "internalType": "address",
          "name": "",
          "type": "address"
        }
      ],
      "stateMutability": "view",
      "type": "function"
    },
    {
      "inputs": [],
      "name": "lastPair",
      "outputs": [
        {
          "internalType": "address",
          "name": "",
          "type": "address"
        }
      ],
      "stateMutability": "view",
      "type": "function"
    },
    {
      "inputs": [
        {
          "internalType": "address",
          "name": "",
          "type": "address"
        },
        {
          "internalType": "address",
          "name": "",
          "type": "address"
        }
      ],
      "name": "pairs",
      "outputs": [
        {
          "internalType": "address",
          "name": "",
          "type": "address"
        }
      ],
      "stateMutability": "view",
      "type": "function"
    }
  ],
  "bytecode": "0x6080806040523461001657610542908161001c8239f35b600080fdfe60806040818152600436101561001457600080fd5b600091823560e01c90816369454b861461025357508063ae57135c1461022b578063c9c653961461009d5763e6a439051461004e57600080fd5b346100995780600319360112610099576020916100696102a0565b6100716102bb565b908360018060a01b039384809316815280875220911660005283528160002054169051908152f35b5080fd5b50346100995780600319360112610099576100b66102a0565b906100bf6102bb565b6001600160a01b0392831680855260208581528386209285168087529281528386205490959085166101fe5783516001600160401b03959061023b80820190888211838310176101ea579082916102d28339039083f080156101e0571694853b156100995784519063485cc95560e01b82528360048301528460248301528282604481838b5af180156101d65791879594939187936101a6575b5050828152808852818120846000528852816000209360018060a01b0319948686825416179055815280885220906000528552826000208282825416179055600154161760015551908152f35b9193949550809250116101c25785939291859182523880610159565b634e487b7160e01b82526041600452602482fd5b86513d85823e3d90fd5b85513d84823e3d90fd5b634e487b7160e01b85526041600452602485fd5b835162461bcd60e51b815260048101879052600660248201526565786973747360d01b6044820152606490fd5b503461009957816003193601126100995760015490516001600160a01b039091168152602090f35b9190503461029c578060031936011261029c57916020926102726102a0565b9161027b6102bb565b6001600160a01b039384168252818652828220908416825285522054168152f35b8280fd5b600435906001600160a01b03821682036102b657565b600080fd5b602435906001600160a01b03821682036102b65756fe608080604052346100165761021f908161001c8239f35b600080fdfe60806040818152600436101561001457600080fd5b600091823560e01c9081630dfe1681146101875750806318160ddd1461016957806340c10f1914610118578063485cc955146100c657806370a082311461008f5763d21220a71461006457600080fd5b3461008b578160031936011261008b5760015490516001600160a01b039091168152602090f35b5080fd5b503461008b57602036600319011261008b5760209181906001600160a01b036100b66101ab565b1681526002845220549051908152f35b503461008b57366003190112610115576100de6101ab565b6024356001600160a01b0381811692918390036101115760018060a01b0319911681845416178355600154161760015580f35b8380fd5b80fd5b503461008b578060031936011261008b57610163906101356101ab565b6001600160a01b0316835260026020528220805460243591906101599083906101c6565b90556003546101c6565b60035580f35b503461008b578160031936011261008b576020906003549051908152f35b83903461008b578160031936011261008b5790546001600160a01b03168152602090f35b600435906001600160a01b03821682036101c157565b600080fd5b919082018092116101d357565b634e487b7160e01b600052601160045260246000fdfea2646970667358221220f3efb3b49b350abebd9c6e723d3a53373bb5c05e3253e614076fa9ea50d4c09764736f6c63430008140033a26469706673582212206587e04169d28478e6bee714d2f4002ba7c330e516a0a728058ea4b1d6da64c664736f6c63430008140033",
  "linkReferences": {},
  "deployedLinkReferences": {}
}