{
  "_format": "hh-sol-artifact-1",
  "contractName": "MockUniswapV2Router",
  "sourceName": "contracts/mocks/MockUniswapV2.sol",
  "abi": [
    {
      "inputs": [
        {
          "internalType": "address",
          "name": "factoryAddr",
          "type": "address"
        },
        {
          "internalType": "address",
          "name": "wethAddr",
          "type": "address"
        }
      ],
      "stateMutability": "nonpayable",
      "type": "constructor"
    },
    {
      "inputs": [],
      "name": "WETH",
      "outputs": [
        {
          "internalType": "address",
          "name": "",
          "type": "address"
        }
      ],
      "stateMutability": "view",
      "type": "function"
    },
    {
      "inputs": [],
      "name": "_factory",
      "outputs": [
        {
          "internalType": "address",
          "name": "",
          "type": "address"
        }
      ],
      "stateMutability": "view",
      "type": "function"
    },
    {
      "inputs": [],
      "name": "_weth",
      "outputs": [
        {
          "internalType": "address",
          "name": "",
          "type": "address"
        }
      ],
      "stateMutability": "view",
      "type": "function"
    },
    {
      "inputs": [
        {
          "internalType": "address",
          "name": "token",
          "type": "address"
        },
        {
          "internalType": "uint256",
          "name": "amountTokenDesired",
          "type": "uint256"
        },
        {
          "internalType": "uint256",
          "name": "",
          "type": "uint256"
        },
        {
          "internalType": "uint256",
          "name": "",
          "type": "uint256"
        },
        {
          "internalType": "address",
          "name": "to",
          "type": "address"
        },
        {
          "internalType": "uint256",
          "name": "",
          "type": "uint256"
        }
      ],
      "name": "addLiquidityETH",
      "outputs": [
        {
          "internalType": "uint256",
          "name": "amountToken",
          "type": "uint256"
        },
        {
          "internalType": "uint256",
          "name": "amountETH",
          "type": "uint256"
        },
        {
          "internalType": "uint256",
          "name": "liquidity",
          "type": "uint256"
        }
      ],
      "stateMutability": "payable",
      "type": "function"
    },
    {
      "inputs": [],
      "name": "factory",
      "outputs": [
        {
          "internalType": "address",
          "name": "",
          "type": "address"
        }
      ],
      "stateMutability": "view",
      "type": "function"
    },
    {
      "inputs": [
        {
          "internalType": "uint256",
          "name": "amountIn",
          "type": "uint256"
        },
        {
          "internalType": "uint256",
          "name": "",
          "type": "uint256"
        },
        {
          "internalType": "address[]",
          "name": "path",
          "type": "address[]"
        },
        {
          "internalType": "address",
          "name": "to",
          "type": "address"
        },
        {
          "internalType": "uint256",
          "name": "",
          "type": "uint256"
        }
      ],
      "name": "swapExactTokensForETHSupportingFeeOnTransferTokens",
      "outputs": [],
      "stateMutability": "nonpayable",
      "type": "function"
    },
    {
      "stateMutability": "payable",
      "type": "receive"
    }
  ],
  "bytecode": "0x60c03461008757601f6106a038819003918201601f19168301916001600160401b0383118484101761008c57808492604094855283398101031261008757610052602061004b836100a2565b92016100a2565b9060805260a0526040516105e990816100b7823960805181818160eb01526104d8015260a05181818161010e015261048e0152f35b600080fd5b634e487b7160e01b600052604160045260246000fd5b51906001600160a01b03821682036100875756fe608060409080825260049182361015610023575b505050361561002157600080fd5b005b600091823560e01c908163791ac947146102ee57508063a1764595146102e9578063ad5c4648146102e9578063c45a0155146102e4578063c5cc6b6a146102e45763f305d719036100135760c03660031901126102e0576001600160a01b0391833591908383168084036102e05760243594608435918183168093036102dc57908693929188865180926323b872dd60e01b82528187816100cd60209b8c97309033908501610558565b03925af18015610269576102af575b503487019586881161029c57817f000000000000000000000000000000000000000000000000000000000000000016907f000000000000000000000000000000000000000000000000000000000000000091818784938d61014e8c51978893849363e6a4390560e01b85528401610599565b0381855afa9384156102925790889392918895610273575b50858516156101ff575b505050501690813b156101fb57829160448392875195869384926340c10f1960e01b84528d8401528a60248401525af180156101ef576101c0575b50506060945081519384523490840152820152f35b6001600160401b0382116101dc575060609550825238806101ab565b634e487b7160e01b815260418752602490fd5b508351903d90823e3d90fd5b8280fd5b6102209450878d8b51968795869485936364e329cb60e11b85528401610599565b03925af190811561026957849161023c575b5084388080610170565b61025c9150853d8711610262575b6102548183610507565b81019061057a565b38610232565b503d61024a565b86513d86823e3d90fd5b61028b919550843d8611610262576102548183610507565b9338610166565b89513d89823e3d90fd5b634e487b7160e01b845260118952602484fd5b6102ce90853d87116102d5575b6102c68183610507565b810190610540565b50386100dc565b503d6102bc565b8380fd5b5080fd5b6104c2565b610478565b91849150346102dc5760a03660031901126102dc578135926001600160401b0390604435908282116104745736602383011215610474578185013590838211610470573660248360051b85010111610470576001600160a01b036064358181169491939085900361046c5715610459579060248994939201359182168092036102dc57868189936323b872dd60e01b825281878161039560209e8f97309033908501610558565b03925af180156102695792612710859493859493859461043c575b500490478211610434575b5af1903d1561042e573d90811161041b578251906103e2601f8201601f1916870183610507565b815285853d92013e5b156103f4578380f35b60649350519162461bcd60e51b8352818301526024820152631cd95b9960e21b6044820152fd5b634e487b7160e01b865260418452602486fd5b506103eb565b4791506103bb565b610452908c8d3d106102d5576102c68183610507565b508c6103b0565b634e487b7160e01b895260328752602489fd5b8980fd5b8780fd5b8680fd5b346104bd5760003660031901126104bd576040517f00000000000000000000000000000000000000000000000000000000000000006001600160a01b03168152602090f35b600080fd5b346104bd5760003660031901126104bd576040517f00000000000000000000000000000000000000000000000000000000000000006001600160a01b03168152602090f35b601f909101601f19168101906001600160401b0382119082101761052a57604052565b634e487b7160e01b600052604160045260246000fd5b908160209103126104bd575180151581036104bd5790565b6001600160a01b03918216815291166020820152604081019190915260600190565b908160209103126104bd57516001600160a01b03811681036104bd5790565b6001600160a01b039182168152911660208201526040019056fea2646970667358221220fc65cdc103237b038ab76e03aff15acf38421fb0810194388a729d88c47f407064736f6c63430008140033",
  "linkReferences": {},
  "deployedLinkReferences": {}
}